{
  "contractName": "ERC721Token",
  "abi": [
    {
      "inputs": [
        {
          "internalType": "string",
          "name": "name",
          "type": "string"
        },
        {
          "internalType": "string",
          "name": "symbol",
          "type": "string"
        }
      ],
      "stateMutability": "nonpayable",
      "type": "constructor"
    },
    {
      "anonymous": false,
      "inputs": [
        {
          "indexed": true,
          "internalType": "address",
          "name": "owner",
          "type": "address"
        },
        {
          "indexed": true,
          "internalType": "address",
          "name": "approved",
          "type": "address"
        },
        {
          "indexed": true,
          "internalType": "uint256",
          "name": "tokenId",
          "type": "uint256"
        }
      ],
      "name": "Approval",
      "type": "event"
    },
    {
      "anonymous": false,
      "inputs": [
        {
          "indexed": true,
          "internalType": "address",
          "name": "owner",
          "type": "address"
        },
        {
          "indexed": true,
          "internalType": "address",
          "name": "operator",
          "type": "address"
        },
        {
          "indexed": false,
          "internalType": "bool",
          "name": "approved",
          "type": "bool"
        }
      ],
      "name": "ApprovalForAll",
      "type": "event"
    },
    {
      "anonymous": false,
      "inputs": [
        {
          "indexed": true,
          "internalType": "address",
          "name": "from",
          "type": "address"
        },
        {
          "indexed": true,
          "internalType": "address",
          "name": "to",
          "type": "address"
        },
        {
          "indexed": true,
          "internalType": "uint256",
          "name": "tokenId",
          "type": "uint256"
        }
      ],
      "name": "Transfer",
      "type": "event"
    },
    {
      "inputs": [
        {
          "internalType": "address",
          "name": "to",
          "type": "address"
        },
        {
          "internalType": "uint256",
          "name": "tokenId",
          "type": "uint256"
        }
      ],
      "name": "approve",
      "outputs": [],
      "stateMutability": "nonpayable",
      "type": "function"
    },
    {
      "inputs": [
        {
          "internalType": "address",
          "name": "owner",
          "type": "address"
        }
      ],
      "name": "balanceOf",
      "outputs": [
        {
          "internalType": "uint256",
          "name": "",
          "type": "uint256"
        }
      ],
      "stateMutability": "view",
      "type": "function"
    },
    {
      "inputs": [],
      "name": "baseURI",
      "outputs": [
        {
          "internalType": "string",
          "name": "",
          "type": "string"
        }
      ],
      "stateMutability": "view",
      "type": "function"
    },
    {
      "inputs": [
        {
          "internalType": "uint256",
          "name": "tokenId",
          "type": "uint256"
        }
      ],
      "name": "getApproved",
      "outputs": [
        {
          "internalType": "address",
          "name": "",
          "type": "address"
        }
      ],
      "stateMutability": "view",
      "type": "function"
    },
    {
      "inputs": [
        {
          "internalType": "address",
          "name": "owner",
          "type": "address"
        },
        {
          "internalType": "address",
          "name": "operator",
          "type": "address"
        }
      ],
      "name": "isApprovedForAll",
      "outputs": [
        {
          "internalType": "bool",
          "name": "",
          "type": "bool"
        }
      ],
      "stateMutability": "view",
      "type": "function"
    },
    {
      "inputs": [],
      "name": "name",
      "outputs": [
        {
          "internalType": "string",
          "name": "",
          "type": "string"
        }
      ],
      "stateMutability": "view",
      "type": "function"
    },
    {
      "inputs": [
        {
          "internalType": "uint256",
          "name": "tokenId",
          "type": "uint256"
        }
      ],
      "name": "ownerOf",
      "outputs": [
        {
          "internalType": "address",
          "name": "",
          "type": "address"
        }
      ],
      "stateMutability": "view",
      "type": "function"
    },
    {
      "inputs": [
        {
          "internalType": "address",
          "name": "from",
          "type": "address"
        },
        {
          "internalType": "address",
          "name": "to",
          "type": "address"
        },
        {
          "internalType": "uint256",
          "name": "tokenId",
          "type": "uint256"
        }
      ],
      "name": "safeTransferFrom",
      "outputs": [],
      "stateMutability": "nonpayable",
      "type": "function"
    },
    {
      "inputs": [
        {
          "internalType": "address",
          "name": "from",
          "type": "address"
        },
        {
          "internalType": "address",
          "name": "to",
          "type": "address"
        },
        {
          "internalType": "uint256",
          "name": "tokenId",
          "type": "uint256"
        },
        {
          "internalType": "bytes",
          "name": "_data",
          "type": "bytes"
        }
      ],
      "name": "safeTransferFrom",
      "outputs": [],
      "stateMutability": "nonpayable",
      "type": "function"
    },
    {
      "inputs": [
        {
          "internalType": "address",
          "name": "operator",
          "type": "address"
        },
        {
          "internalType": "bool",
          "name": "approved",
          "type": "bool"
        }
      ],
      "name": "setApprovalForAll",
      "outputs": [],
      "stateMutability": "nonpayable",
      "type": "function"
    },
    {
      "inputs": [
        {
          "internalType": "bytes4",
          "name": "interfaceId",
          "type": "bytes4"
        }
      ],
      "name": "supportsInterface",
      "outputs": [
        {
          "internalType": "bool",
          "name": "",
          "type": "bool"
        }
      ],
      "stateMutability": "view",
      "type": "function"
    },
    {
      "inputs": [],
      "name": "symbol",
      "outputs": [
        {
          "internalType": "string",
          "name": "",
          "type": "string"
        }
      ],
      "stateMutability": "view",
      "type": "function"
    },
    {
      "inputs": [
        {
          "internalType": "uint256",
          "name": "index",
          "type": "uint256"
        }
      ],
      "name": "tokenByIndex",
      "outputs": [
        {
          "internalType": "uint256",
          "name": "",
          "type": "uint256"
        }
      ],
      "stateMutability": "view",
      "type": "function"
    },
    {
      "inputs": [
        {
          "internalType": "address",
          "name": "owner",
          "type": "address"
        },
        {
          "internalType": "uint256",
          "name": "index",
          "type": "uint256"
        }
      ],
      "name": "tokenOfOwnerByIndex",
      "outputs": [
        {
          "internalType": "uint256",
          "name": "",
          "type": "uint256"
        }
      ],
      "stateMutability": "view",
      "type": "function"
    },
    {
      "inputs": [
        {
          "internalType": "uint256",
          "name": "tokenId",
          "type": "uint256"
        }
      ],
      "name": "tokenURI",
      "outputs": [
        {
          "internalType": "string",
          "name": "",
          "type": "string"
        }
      ],
      "stateMutability": "view",
      "type": "function"
    },
    {
      "inputs": [],
      "name": "totalSupply",
      "outputs": [
        {
          "internalType": "uint256",
          "name": "",
          "type": "uint256"
        }
      ],
      "stateMutability": "view",
      "type": "function"
    },
    {
      "inputs": [
        {
          "internalType": "address",
          "name": "from",
          "type": "address"
        },
        {
          "internalType": "address",
          "name": "to",
          "type": "address"
        },
        {
          "internalType": "uint256",
          "name": "tokenId",
          "type": "uint256"
        }
      ],
      "name": "transferFrom",
      "outputs": [],
      "stateMutability": "nonpayable",
      "type": "function"
    },
    {
      "inputs": [
        {
          "internalType": "uint256",
          "name": "tokenId",
          "type": "uint256"
        }
      ],
      "name": "selfMint",
      "outputs": [],
      "stateMutability": "nonpayable",
      "type": "function"
    },
    {
      "inputs": [
        {
          "internalType": "string",
          "name": "tokenURI",
          "type": "string"
        }
      ],
      "name": "createTimeframe",
      "outputs": [
        {
          "internalType": "bool",
          "name": "",
          "type": "bool"
        }
      ],
      "stateMutability": "nonpayable",
      "type": "function"
    }
  ],
  "bytecode": "0x60806040523480156200001157600080fd5b506040516200208a3803806200208a833981810160405260408110156200003757600080fd5b81019080805160405193929190846401000000008211156200005857600080fd5b9083019060208201858111156200006e57600080fd5b82516401000000008111828201881017156200008957600080fd5b82525081516020918201929091019080838360005b83811015620000b85781810151838201526020016200009e565b50505050905090810190601f168015620000e65780820380516001836020036101000a031916815260200191505b50604052602001805160405193929190846401000000008211156200010a57600080fd5b9083019060208201858111156200012057600080fd5b82516401000000008111828201881017156200013b57600080fd5b82525081516020918201929091019080838360005b838110156200016a57818101518382015260200162000150565b50505050905090810190601f168015620001985780820380516001836020036101000a031916815260200191505b5060405250839150829050620001b56301ffc9a760e01b62000221565b8151620001ca906006906020850190620002a6565b508051620001e0906007906020840190620002a6565b50620001f36380ac58cd60e01b62000221565b62000205635b5e139f60e01b62000221565b6200021763780e9d6360e01b62000221565b5050505062000342565b6001600160e01b0319808216141562000281576040805162461bcd60e51b815260206004820152601c60248201527f4552433136353a20696e76616c696420696e7465726661636520696400000000604482015290519081900360640190fd5b6001600160e01b0319166000908152602081905260409020805460ff19166001179055565b828054600181600116156101000203166002900490600052602060002090601f016020900481019282601f10620002e957805160ff191683800117855562000319565b8280016001018555821562000319579182015b8281111562000319578251825591602001919060010190620002fc565b50620003279291506200032b565b5090565b5b808211156200032757600081556001016200032c565b611d3880620003526000396000f3fe608060405234801561001057600080fd5b50600436106101215760003560e01c80634f6ccce7116100ad57806395d89b411161007157806395d89b4114610422578063a22cb4651461042a578063b88d4fde14610458578063c87b56dd1461051e578063e985e9c51461053b57610121565b80634f6ccce7146103145780635818381d146103315780636352211e146103d75780636c0360eb146103f457806370a08231146103fc57610121565b80630d3c69b4116100f45780630d3c69b41461024557806318160ddd1461026257806323b872dd1461027c5780632f745c59146102b257806342842e0e146102de57610121565b806301ffc9a71461012657806306fdde0314610161578063081812fc146101de578063095ea7b314610217575b600080fd5b61014d6004803603602081101561013c57600080fd5b50356001600160e01b031916610569565b604080519115158252519081900360200190f35b61016961058c565b6040805160208082528351818301528351919283929083019185019080838360005b838110156101a357818101518382015260200161018b565b50505050905090810190601f1680156101d05780820380516001836020036101000a031916815260200191505b509250505060405180910390f35b6101fb600480360360208110156101f457600080fd5b5035610622565b604080516001600160a01b039092168252519081900360200190f35b6102436004803603604081101561022d57600080fd5b506001600160a01b038135169060200135610684565b005b6102436004803603602081101561025b57600080fd5b503561075f565b61026a61076c565b60408051918252519081900360200190f35b6102436004803603606081101561029257600080fd5b506001600160a01b0381358116916020810135909116906040013561077d565b61026a600480360360408110156102c857600080fd5b506001600160a01b0381351690602001356107d4565b610243600480360360608110156102f457600080fd5b506001600160a01b038135811691602081013590911690604001356107ff565b61026a6004803603602081101561032a57600080fd5b503561081a565b61014d6004803603602081101561034757600080fd5b81019060208101813564010000000081111561036257600080fd5b82018360208201111561037457600080fd5b8035906020019184600183028401116401000000008311171561039657600080fd5b91908080601f016020809104026020016040519081016040528093929190818152602001838380828437600092019190915250929550610830945050505050565b6101fb600480360360208110156103ed57600080fd5b503561085d565b610169610885565b61026a6004803603602081101561041257600080fd5b50356001600160a01b03166108e6565b61016961094e565b6102436004803603604081101561044057600080fd5b506001600160a01b03813516906020013515156109af565b6102436004803603608081101561046e57600080fd5b6001600160a01b038235811692602081013590911691604082013591908101906080810160608201356401000000008111156104a957600080fd5b8201836020820111156104bb57600080fd5b803590602001918460018302840111640100000000831117156104dd57600080fd5b91908080601f016020809104026020016040519081016040528093929190818152602001838380828437600092019190915250929550610ab4945050505050565b6101696004803603602081101561053457600080fd5b5035610b12565b61014d6004803603604081101561055157600080fd5b506001600160a01b0381358116916020013516610db9565b6001600160e01b0319811660009081526020819052604090205460ff165b919050565b60068054604080516020601f60026000196101006001881615020190951694909404938401819004810282018101909252828152606093909290918301828280156106185780601f106105ed57610100808354040283529160200191610618565b820191906000526020600020905b8154815290600101906020018083116105fb57829003601f168201915b5050505050905090565b600061062d82610de7565b6106685760405162461bcd60e51b815260040180806020018281038252602c815260200180611c01602c913960400191505060405180910390fd5b506000908152600460205260409020546001600160a01b031690565b600061068f8261085d565b9050806001600160a01b0316836001600160a01b031614156106e25760405162461bcd60e51b8152600401808060200182810382526021815260200180611cb16021913960400191505060405180910390fd5b806001600160a01b03166106f4610df4565b6001600160a01b03161480610715575061071581610710610df4565b610db9565b6107505760405162461bcd60e51b8152600401808060200182810382526038815260200180611b546038913960400191505060405180910390fd5b61075a8383610df8565b505050565b6107693382610e66565b50565b60006107786002610f94565b905090565b61078e610788610df4565b82610f9f565b6107c95760405162461bcd60e51b8152600401808060200182810382526031815260200180611cd26031913960400191505060405180910390fd5b61075a838383611043565b6001600160a01b03821660009081526001602052604081206107f6908361118f565b90505b92915050565b61075a83838360405180602001604052806000815250610ab4565b60008061082860028461119b565b509392505050565b600a805460010190819055600090610849903390610e66565b610855600a54836111b7565b506001919050565b60006107f982604051806060016040528060298152602001611bb6602991396002919061121a565b60098054604080516020601f60026000196101006001881615020190951694909404938401819004810282018101909252828152606093909290918301828280156106185780601f106105ed57610100808354040283529160200191610618565b60006001600160a01b03821661092d5760405162461bcd60e51b815260040180806020018281038252602a815260200180611b8c602a913960400191505060405180910390fd5b6001600160a01b03821660009081526001602052604090206107f990610f94565b60078054604080516020601f60026000196101006001881615020190951694909404938401819004810282018101909252828152606093909290918301828280156106185780601f106105ed57610100808354040283529160200191610618565b6109b7610df4565b6001600160a01b0316826001600160a01b03161415610a1d576040805162461bcd60e51b815260206004820152601960248201527f4552433732313a20617070726f766520746f2063616c6c657200000000000000604482015290519081900360640190fd5b8060056000610a2a610df4565b6001600160a01b03908116825260208083019390935260409182016000908120918716808252919093529120805460ff191692151592909217909155610a6e610df4565b6001600160a01b03167f17307eab39ab6107e8899845ad3d59bd9653f200f220920489ca2b5937696c318360405180821515815260200191505060405180910390a35050565b610ac5610abf610df4565b83610f9f565b610b005760405162461bcd60e51b8152600401808060200182810382526031815260200180611cd26031913960400191505060405180910390fd5b610b0c84848484611231565b50505050565b6060610b1d82610de7565b610b585760405162461bcd60e51b815260040180806020018281038252602f815260200180611c82602f913960400191505060405180910390fd5b60008281526008602090815260409182902080548351601f6002600019610100600186161502019093169290920491820184900484028101840190945280845260609392830182828015610bed5780601f10610bc257610100808354040283529160200191610bed565b820191906000526020600020905b815481529060010190602001808311610bd057829003601f168201915b505060095493945050505060026000196101006001841615020190911604610c16579050610587565b805115610ce7576009816040516020018083805460018160011615610100020316600290048015610c7e5780601f10610c5c576101008083540402835291820191610c7e565b820191906000526020600020905b815481529060010190602001808311610c6a575b5050825160208401908083835b60208310610caa5780518252601f199092019160209182019101610c8b565b6001836020036101000a03801982511681845116808217855250505050505090500192505050604051602081830303815290604052915050610587565b6009610cf284611283565b6040516020018083805460018160011615610100020316600290048015610d505780601f10610d2e576101008083540402835291820191610d50565b820191906000526020600020905b815481529060010190602001808311610d3c575b5050825160208401908083835b60208310610d7c5780518252601f199092019160209182019101610d5d565b6001836020036101000a03801982511681845116808217855250505050505090500192505050604051602081830303815290604052915050919050565b6001600160a01b03918216600090815260056020908152604080832093909416825291909152205460ff1690565b60006107f960028361135e565b3390565b600081815260046020526040902080546001600160a01b0319166001600160a01b0384169081179091558190610e2d8261085d565b6001600160a01b03167f8c5be1e5ebec7d5bd14f71427d1e84f3dd0314c0f7b2291e5b200ac8c7c3b92560405160405180910390a45050565b6001600160a01b038216610ec1576040805162461bcd60e51b815260206004820181905260248201527f4552433732313a206d696e7420746f20746865207a65726f2061646472657373604482015290519081900360640190fd5b610eca81610de7565b15610f1c576040805162461bcd60e51b815260206004820152601c60248201527f4552433732313a20746f6b656e20616c7265616479206d696e74656400000000604482015290519081900360640190fd5b610f286000838361075a565b6001600160a01b0382166000908152600160205260409020610f4a908261136a565b50610f5760028284611376565b5060405181906001600160a01b038416906000907fddf252ad1be2c89b69c2b068fc378daa952ba7f163c4a11628f55a4df523b3ef908290a45050565b60006107f98261138c565b6000610faa82610de7565b610fe55760405162461bcd60e51b815260040180806020018281038252602c815260200180611b28602c913960400191505060405180910390fd5b6000610ff08361085d565b9050806001600160a01b0316846001600160a01b0316148061102b5750836001600160a01b031661102084610622565b6001600160a01b0316145b8061103b575061103b8185610db9565b949350505050565b826001600160a01b03166110568261085d565b6001600160a01b03161461109b5760405162461bcd60e51b8152600401808060200182810382526029815260200180611c596029913960400191505060405180910390fd5b6001600160a01b0382166110e05760405162461bcd60e51b8152600401808060200182810382526024815260200180611b046024913960400191505060405180910390fd5b6110eb83838361075a565b6110f6600082610df8565b6001600160a01b03831660009081526001602052604090206111189082611390565b506001600160a01b038216600090815260016020526040902061113b908261136a565b5061114860028284611376565b5080826001600160a01b0316846001600160a01b03167fddf252ad1be2c89b69c2b068fc378daa952ba7f163c4a11628f55a4df523b3ef60405160405180910390a4505050565b60006107f6838361139c565b60008080806111aa8686611400565b9097909650945050505050565b6111c082610de7565b6111fb5760405162461bcd60e51b815260040180806020018281038252602c815260200180611c2d602c913960400191505060405180910390fd5b6000828152600860209081526040909120825161075a92840190611a1c565b600061122784848461147b565b90505b9392505050565b61123c848484611043565b61124884848484611545565b610b0c5760405162461bcd60e51b8152600401808060200182810382526032815260200180611ad26032913960400191505060405180910390fd5b6060816112a857506040805180820190915260018152600360fc1b6020820152610587565b8160005b81156112c057600101600a820491506112ac565b60608167ffffffffffffffff811180156112d957600080fd5b506040519080825280601f01601f191660200182016040528015611304576020820181803683370190505b50859350905060001982015b831561135557600a840660300160f81b8282806001900393508151811061133357fe5b60200101906001600160f81b031916908160001a905350600a84049350611310565b50949350505050565b60006107f683836116ad565b60006107f683836116c5565b600061122784846001600160a01b03851661170f565b5490565b60006107f683836117a6565b815460009082106113de5760405162461bcd60e51b8152600401808060200182810382526022815260200180611ab06022913960400191505060405180910390fd5b8260000182815481106113ed57fe5b9060005260206000200154905092915050565b8154600090819083106114445760405162461bcd60e51b8152600401808060200182810382526022815260200180611bdf6022913960400191505060405180910390fd5b600084600001848154811061145557fe5b906000526020600020906002020190508060000154816001015492509250509250929050565b600082815260018401602052604081205482816115165760405162461bcd60e51b81526004018080602001828103825283818151815260200191508051906020019080838360005b838110156114db5781810151838201526020016114c3565b50505050905090810190601f1680156115085780820380516001836020036101000a031916815260200191505b509250505060405180910390fd5b5084600001600182038154811061152957fe5b9060005260206000209060020201600101549150509392505050565b6000611559846001600160a01b031661186c565b6115655750600161103b565b6060611673630a85bd0160e11b61157a610df4565b88878760405160240180856001600160a01b03168152602001846001600160a01b0316815260200183815260200180602001828103825283818151815260200191508051906020019080838360005b838110156115e15781810151838201526020016115c9565b50505050905090810190601f16801561160e5780820380516001836020036101000a031916815260200191505b5095505050505050604051602081830303815290604052906001600160e01b0319166020820180516001600160e01b038381831617835250505050604051806060016040528060328152602001611ad2603291396001600160a01b03881691906118a5565b9050600081806020019051602081101561168c57600080fd5b50516001600160e01b031916630a85bd0160e11b1492505050949350505050565b60009081526001919091016020526040902054151590565b60006116d183836116ad565b611707575081546001818101845560008481526020808220909301849055845484825282860190935260409020919091556107f9565b5060006107f9565b60008281526001840160205260408120548061177457505060408051808201825283815260208082018481528654600181810189556000898152848120955160029093029095019182559151908201558654868452818801909252929091205561122a565b8285600001600183038154811061178757fe5b906000526020600020906002020160010181905550600091505061122a565b6000818152600183016020526040812054801561186257835460001980830191908101906000908790839081106117d957fe5b90600052602060002001549050808760000184815481106117f657fe5b60009182526020808320909101929092558281526001898101909252604090209084019055865487908061182657fe5b600190038181906000526020600020016000905590558660010160008781526020019081526020016000206000905560019450505050506107f9565b60009150506107f9565b6000813f7fc5d2460186f7233c927e7db2dcc703c0e500b653ca82273b7bfad8045d85a47081811480159061103b575050151592915050565b6060611227848460008560606118ba8561186c565b61190b576040805162461bcd60e51b815260206004820152601d60248201527f416464726573733a2063616c6c20746f206e6f6e2d636f6e7472616374000000604482015290519081900360640190fd5b60006060866001600160a01b031685876040518082805190602001908083835b6020831061194a5780518252601f19909201916020918201910161192b565b6001836020036101000a03801982511681845116808217855250505050505090500191505060006040518083038185875af1925050503d80600081146119ac576040519150601f19603f3d011682016040523d82523d6000602084013e6119b1565b606091505b509150915081156119c557915061103b9050565b8051156119d55780518082602001fd5b60405162461bcd60e51b81526020600482018181528651602484015286518793919283926044019190850190808383600083156114db5781810151838201526020016114c3565b828054600181600116156101000203166002900490600052602060002090601f016020900481019282601f10611a5d57805160ff1916838001178555611a8a565b82800160010185558215611a8a579182015b82811115611a8a578251825591602001919060010190611a6f565b50611a96929150611a9a565b5090565b5b80821115611a965760008155600101611a9b56fe456e756d657261626c655365743a20696e646578206f7574206f6620626f756e64734552433732313a207472616e7366657220746f206e6f6e20455243373231526563656976657220696d706c656d656e7465724552433732313a207472616e7366657220746f20746865207a65726f20616464726573734552433732313a206f70657261746f7220717565727920666f72206e6f6e6578697374656e7420746f6b656e4552433732313a20617070726f76652063616c6c6572206973206e6f74206f776e6572206e6f7220617070726f76656420666f7220616c6c4552433732313a2062616c616e636520717565727920666f7220746865207a65726f20616464726573734552433732313a206f776e657220717565727920666f72206e6f6e6578697374656e7420746f6b656e456e756d657261626c654d61703a20696e646578206f7574206f6620626f756e64734552433732313a20617070726f76656420717565727920666f72206e6f6e6578697374656e7420746f6b656e4552433732314d657461646174613a2055524920736574206f66206e6f6e6578697374656e7420746f6b656e4552433732313a207472616e73666572206f6620746f6b656e2074686174206973206e6f74206f776e4552433732314d657461646174613a2055524920717565727920666f72206e6f6e6578697374656e7420746f6b656e4552433732313a20617070726f76616c20746f2063757272656e74206f776e65724552433732313a207472616e736665722063616c6c6572206973206e6f74206f776e6572206e6f7220617070726f766564a264697066735822122063a1228b6cb3a556f896f2e21e34f2ece84f506b71f5c7f334f6715af6d683b164736f6c634300060c0033",
  "immutableReferences": {},
  "source": "// SPDX-License-Identifier: UNLICENSED\n\npragma solidity 0.6.12;\n//pragma abicoder v1;\n\nimport \"@openzeppelin/contracts/token/ERC721/ERC721.sol\";\n\ncontract ERC721Token is ERC721 {\n    uint256 private s_tokenId;\n\n    constructor(string memory name, string memory symbol)\n        public\n        ERC721(name, symbol)\n    {}\n\n    function selfMint(uint256 tokenId) public {\n        _mint(msg.sender, tokenId);\n    }\n\n    function createTimeframe(string memory tokenURI) public returns (bool) {\n        s_tokenId += 1;\n        _mint(msg.sender, s_tokenId);\n        _setTokenURI(s_tokenId, tokenURI);\n        return true;\n    }\n}\n",
  "sourcePath": "/Users/tal/code/tasks/ki-eth-token/contracts/test/ERC721Token.sol",
  "compiler": {
    "name": "solc",
    "version": "0.6.12+commit.27d51765.Emscripten.clang"
  },
  "schemaVersion": "3.3.4",
  "updatedAt": "2022-04-24T18:10:52.617Z",
  "devdoc": {
    "kind": "dev",
    "methods": {
      "approve(address,uint256)": {
        "details": "See {IERC721-approve}."
      },
      "balanceOf(address)": {
        "details": "See {IERC721-balanceOf}."
      },
      "baseURI()": {
        "details": "Returns the base URI set via {_setBaseURI}. This will be automatically added as a prefix in {tokenURI} to each token's URI, or to the token ID if no specific URI is set for that token ID."
      },
      "getApproved(uint256)": {
        "details": "See {IERC721-getApproved}."
      },
      "isApprovedForAll(address,address)": {
        "details": "See {IERC721-isApprovedForAll}."
      },
      "name()": {
        "details": "See {IERC721Metadata-name}."
      },
      "ownerOf(uint256)": {
        "details": "See {IERC721-ownerOf}."
      },
      "safeTransferFrom(address,address,uint256)": {
        "details": "See {IERC721-safeTransferFrom}."
      },
      "safeTransferFrom(address,address,uint256,bytes)": {
        "details": "See {IERC721-safeTransferFrom}."
      },
      "setApprovalForAll(address,bool)": {
        "details": "See {IERC721-setApprovalForAll}."
      },
      "supportsInterface(bytes4)": {
        "details": "See {IERC165-supportsInterface}. Time complexity O(1), guaranteed to always use less than 30 000 gas."
      },
      "symbol()": {
        "details": "See {IERC721Metadata-symbol}."
      },
      "tokenByIndex(uint256)": {
        "details": "See {IERC721Enumerable-tokenByIndex}."
      },
      "tokenOfOwnerByIndex(address,uint256)": {
        "details": "See {IERC721Enumerable-tokenOfOwnerByIndex}."
      },
      "tokenURI(uint256)": {
        "details": "See {IERC721Metadata-tokenURI}."
      },
      "totalSupply()": {
        "details": "See {IERC721Enumerable-totalSupply}."
      },
      "transferFrom(address,address,uint256)": {
        "details": "See {IERC721-transferFrom}."
      }
    },
    "version": 1
  },
  "userdoc": {
    "kind": "user",
    "methods": {},
    "version": 1
  }
}