{
  "contractName": "ERC721Token",
  "abi": [
    {
      "inputs": [
        {
          "internalType": "string",
          "name": "name",
          "type": "string"
        },
        {
          "internalType": "string",
          "name": "symbol",
          "type": "string"
        }
      ],
      "stateMutability": "nonpayable",
      "type": "constructor"
    },
    {
      "anonymous": false,
      "inputs": [
        {
          "indexed": true,
          "internalType": "address",
          "name": "owner",
          "type": "address"
        },
        {
          "indexed": true,
          "internalType": "address",
          "name": "approved",
          "type": "address"
        },
        {
          "indexed": true,
          "internalType": "uint256",
          "name": "tokenId",
          "type": "uint256"
        }
      ],
      "name": "Approval",
      "type": "event"
    },
    {
      "anonymous": false,
      "inputs": [
        {
          "indexed": true,
          "internalType": "address",
          "name": "owner",
          "type": "address"
        },
        {
          "indexed": true,
          "internalType": "address",
          "name": "operator",
          "type": "address"
        },
        {
          "indexed": false,
          "internalType": "bool",
          "name": "approved",
          "type": "bool"
        }
      ],
      "name": "ApprovalForAll",
      "type": "event"
    },
    {
      "anonymous": false,
      "inputs": [
        {
          "indexed": true,
          "internalType": "address",
          "name": "from",
          "type": "address"
        },
        {
          "indexed": true,
          "internalType": "address",
          "name": "to",
          "type": "address"
        },
        {
          "indexed": true,
          "internalType": "uint256",
          "name": "tokenId",
          "type": "uint256"
        }
      ],
      "name": "Transfer",
      "type": "event"
    },
    {
      "inputs": [
        {
          "internalType": "address",
          "name": "to",
          "type": "address"
        },
        {
          "internalType": "uint256",
          "name": "tokenId",
          "type": "uint256"
        }
      ],
      "name": "approve",
      "outputs": [],
      "stateMutability": "nonpayable",
      "type": "function"
    },
    {
      "inputs": [
        {
          "internalType": "address",
          "name": "owner",
          "type": "address"
        }
      ],
      "name": "balanceOf",
      "outputs": [
        {
          "internalType": "uint256",
          "name": "",
          "type": "uint256"
        }
      ],
      "stateMutability": "view",
      "type": "function"
    },
    {
      "inputs": [],
      "name": "baseURI",
      "outputs": [
        {
          "internalType": "string",
          "name": "",
          "type": "string"
        }
      ],
      "stateMutability": "view",
      "type": "function"
    },
    {
      "inputs": [
        {
          "internalType": "uint256",
          "name": "tokenId",
          "type": "uint256"
        }
      ],
      "name": "getApproved",
      "outputs": [
        {
          "internalType": "address",
          "name": "",
          "type": "address"
        }
      ],
      "stateMutability": "view",
      "type": "function"
    },
    {
      "inputs": [
        {
          "internalType": "address",
          "name": "owner",
          "type": "address"
        },
        {
          "internalType": "address",
          "name": "operator",
          "type": "address"
        }
      ],
      "name": "isApprovedForAll",
      "outputs": [
        {
          "internalType": "bool",
          "name": "",
          "type": "bool"
        }
      ],
      "stateMutability": "view",
      "type": "function"
    },
    {
      "inputs": [],
      "name": "name",
      "outputs": [
        {
          "internalType": "string",
          "name": "",
          "type": "string"
        }
      ],
      "stateMutability": "view",
      "type": "function"
    },
    {
      "inputs": [
        {
          "internalType": "uint256",
          "name": "tokenId",
          "type": "uint256"
        }
      ],
      "name": "ownerOf",
      "outputs": [
        {
          "internalType": "address",
          "name": "",
          "type": "address"
        }
      ],
      "stateMutability": "view",
      "type": "function"
    },
    {
      "inputs": [
        {
          "internalType": "address",
          "name": "from",
          "type": "address"
        },
        {
          "internalType": "address",
          "name": "to",
          "type": "address"
        },
        {
          "internalType": "uint256",
          "name": "tokenId",
          "type": "uint256"
        }
      ],
      "name": "safeTransferFrom",
      "outputs": [],
      "stateMutability": "nonpayable",
      "type": "function"
    },
    {
      "inputs": [
        {
          "internalType": "address",
          "name": "from",
          "type": "address"
        },
        {
          "internalType": "address",
          "name": "to",
          "type": "address"
        },
        {
          "internalType": "uint256",
          "name": "tokenId",
          "type": "uint256"
        },
        {
          "internalType": "bytes",
          "name": "_data",
          "type": "bytes"
        }
      ],
      "name": "safeTransferFrom",
      "outputs": [],
      "stateMutability": "nonpayable",
      "type": "function"
    },
    {
      "inputs": [
        {
          "internalType": "address",
          "name": "operator",
          "type": "address"
        },
        {
          "internalType": "bool",
          "name": "approved",
          "type": "bool"
        }
      ],
      "name": "setApprovalForAll",
      "outputs": [],
      "stateMutability": "nonpayable",
      "type": "function"
    },
    {
      "inputs": [
        {
          "internalType": "bytes4",
          "name": "interfaceId",
          "type": "bytes4"
        }
      ],
      "name": "supportsInterface",
      "outputs": [
        {
          "internalType": "bool",
          "name": "",
          "type": "bool"
        }
      ],
      "stateMutability": "view",
      "type": "function"
    },
    {
      "inputs": [],
      "name": "symbol",
      "outputs": [
        {
          "internalType": "string",
          "name": "",
          "type": "string"
        }
      ],
      "stateMutability": "view",
      "type": "function"
    },
    {
      "inputs": [
        {
          "internalType": "uint256",
          "name": "index",
          "type": "uint256"
        }
      ],
      "name": "tokenByIndex",
      "outputs": [
        {
          "internalType": "uint256",
          "name": "",
          "type": "uint256"
        }
      ],
      "stateMutability": "view",
      "type": "function"
    },
    {
      "inputs": [
        {
          "internalType": "address",
          "name": "owner",
          "type": "address"
        },
        {
          "internalType": "uint256",
          "name": "index",
          "type": "uint256"
        }
      ],
      "name": "tokenOfOwnerByIndex",
      "outputs": [
        {
          "internalType": "uint256",
          "name": "",
          "type": "uint256"
        }
      ],
      "stateMutability": "view",
      "type": "function"
    },
    {
      "inputs": [
        {
          "internalType": "uint256",
          "name": "tokenId",
          "type": "uint256"
        }
      ],
      "name": "tokenURI",
      "outputs": [
        {
          "internalType": "string",
          "name": "",
          "type": "string"
        }
      ],
      "stateMutability": "view",
      "type": "function"
    },
    {
      "inputs": [],
      "name": "totalSupply",
      "outputs": [
        {
          "internalType": "uint256",
          "name": "",
          "type": "uint256"
        }
      ],
      "stateMutability": "view",
      "type": "function"
    },
    {
      "inputs": [
        {
          "internalType": "address",
          "name": "from",
          "type": "address"
        },
        {
          "internalType": "address",
          "name": "to",
          "type": "address"
        },
        {
          "internalType": "uint256",
          "name": "tokenId",
          "type": "uint256"
        }
      ],
      "name": "transferFrom",
      "outputs": [],
      "stateMutability": "nonpayable",
      "type": "function"
    },
    {
      "inputs": [
        {
          "internalType": "uint256",
          "name": "tokenId",
          "type": "uint256"
        }
      ],
      "name": "selfMint",
      "outputs": [],
      "stateMutability": "nonpayable",
      "type": "function"
    },
    {
      "inputs": [
        {
          "internalType": "string",
          "name": "tokenURI",
          "type": "string"
        }
      ],
      "name": "createTimeframe",
      "outputs": [
        {
          "internalType": "bool",
          "name": "",
          "type": "bool"
        }
      ],
      "stateMutability": "nonpayable",
      "type": "function"
    }
  ],
  "bytecode": "0x60806040523480156200001157600080fd5b506040516200217838038062002178833981810160405260408110156200003757600080fd5b81019080805160405193929190846401000000008211156200005857600080fd5b9083019060208201858111156200006e57600080fd5b82516401000000008111828201881017156200008957600080fd5b82525081516020918201929091019080838360005b83811015620000b85781810151838201526020016200009e565b50505050905090810190601f168015620000e65780820380516001836020036101000a031916815260200191505b50604052602001805160405193929190846401000000008211156200010a57600080fd5b9083019060208201858111156200012057600080fd5b82516401000000008111828201881017156200013b57600080fd5b82525081516020918201929091019080838360005b838110156200016a57818101518382015260200162000150565b50505050905090810190601f168015620001985780820380516001836020036101000a031916815260200191505b5060405250839150829050620001b56301ffc9a760e01b62000221565b8151620001ca906006906020850190620002a6565b508051620001e0906007906020840190620002a6565b50620001f36380ac58cd60e01b62000221565b62000205635b5e139f60e01b62000221565b6200021763780e9d6360e01b62000221565b5050505062000342565b6001600160e01b0319808216141562000281576040805162461bcd60e51b815260206004820152601c60248201527f4552433136353a20696e76616c696420696e7465726661636520696400000000604482015290519081900360640190fd5b6001600160e01b0319166000908152602081905260409020805460ff19166001179055565b828054600181600116156101000203166002900490600052602060002090601f016020900481019282601f10620002e957805160ff191683800117855562000319565b8280016001018555821562000319579182015b8281111562000319578251825591602001919060010190620002fc565b50620003279291506200032b565b5090565b5b808211156200032757600081556001016200032c565b611e2680620003526000396000f3fe608060405234801561001057600080fd5b50600436106101515760003560e01c80634f6ccce7116100cd57806395d89b4111610081578063b88d4fde11610066578063b88d4fde146104a0578063c87b56dd14610566578063e985e9c51461058357610151565b806395d89b411461046a578063a22cb4651461047257610151565b80636352211e116100b25780636352211e1461041f5780636c0360eb1461043c57806370a082311461044457610151565b80634f6ccce71461035c5780635818381d1461037957610151565b80630d3c69b41161012457806323b872dd1161010957806323b872dd146102c45780632f745c59146102fa57806342842e0e1461032657610151565b80630d3c69b41461028d57806318160ddd146102aa57610151565b806301ffc9a71461015657806306fdde03146101a9578063081812fc14610226578063095ea7b31461025f575b600080fd5b6101956004803603602081101561016c57600080fd5b50357fffffffff00000000000000000000000000000000000000000000000000000000166105b1565b604080519115158252519081900360200190f35b6101b16105ec565b6040805160208082528351818301528351919283929083019185019080838360005b838110156101eb5781810151838201526020016101d3565b50505050905090810190601f1680156102185780820380516001836020036101000a031916815260200191505b509250505060405180910390f35b6102436004803603602081101561023c57600080fd5b5035610682565b604080516001600160a01b039092168252519081900360200190f35b61028b6004803603604081101561027557600080fd5b506001600160a01b0381351690602001356106e4565b005b61028b600480360360208110156102a357600080fd5b50356107bf565b6102b26107cc565b60408051918252519081900360200190f35b61028b600480360360608110156102da57600080fd5b506001600160a01b038135811691602081013590911690604001356107dd565b6102b26004803603604081101561031057600080fd5b506001600160a01b038135169060200135610834565b61028b6004803603606081101561033c57600080fd5b506001600160a01b0381358116916020810135909116906040013561085f565b6102b26004803603602081101561037257600080fd5b503561087a565b6101956004803603602081101561038f57600080fd5b8101906020810181356401000000008111156103aa57600080fd5b8201836020820111156103bc57600080fd5b803590602001918460018302840111640100000000831117156103de57600080fd5b91908080601f016020809104026020016040519081016040528093929190818152602001838380828437600092019190915250929550610890945050505050565b6102436004803603602081101561043557600080fd5b50356108bd565b6101b16108e5565b6102b26004803603602081101561045a57600080fd5b50356001600160a01b0316610946565b6101b16109ae565b61028b6004803603604081101561048857600080fd5b506001600160a01b0381351690602001351515610a0f565b61028b600480360360808110156104b657600080fd5b6001600160a01b038235811692602081013590911691604082013591908101906080810160608201356401000000008111156104f157600080fd5b82018360208201111561050357600080fd5b8035906020019184600183028401116401000000008311171561052557600080fd5b91908080601f016020809104026020016040519081016040528093929190818152602001838380828437600092019190915250929550610b14945050505050565b6101b16004803603602081101561057c57600080fd5b5035610b72565b6101956004803603604081101561059957600080fd5b506001600160a01b0381358116916020013516610e19565b7fffffffff00000000000000000000000000000000000000000000000000000000811660009081526020819052604090205460ff165b919050565b60068054604080516020601f60026000196101006001881615020190951694909404938401819004810282018101909252828152606093909290918301828280156106785780601f1061064d57610100808354040283529160200191610678565b820191906000526020600020905b81548152906001019060200180831161065b57829003601f168201915b5050505050905090565b600061068d82610e47565b6106c85760405162461bcd60e51b815260040180806020018281038252602c815260200180611cef602c913960400191505060405180910390fd5b506000908152600460205260409020546001600160a01b031690565b60006106ef826108bd565b9050806001600160a01b0316836001600160a01b031614156107425760405162461bcd60e51b8152600401808060200182810382526021815260200180611d9f6021913960400191505060405180910390fd5b806001600160a01b0316610754610e54565b6001600160a01b03161480610775575061077581610770610e54565b610e19565b6107b05760405162461bcd60e51b8152600401808060200182810382526038815260200180611c426038913960400191505060405180910390fd5b6107ba8383610e58565b505050565b6107c93382610ede565b50565b60006107d8600261100c565b905090565b6107ee6107e8610e54565b82611017565b6108295760405162461bcd60e51b8152600401808060200182810382526031815260200180611dc06031913960400191505060405180910390fd5b6107ba8383836110bb565b6001600160a01b03821660009081526001602052604081206108569083611207565b90505b92915050565b6107ba83838360405180602001604052806000815250610b14565b600080610888600284611213565b509392505050565b600a8054600101908190556000906108a9903390610ede565b6108b5600a548361122f565b506001919050565b600061085982604051806060016040528060298152602001611ca46029913960029190611292565b60098054604080516020601f60026000196101006001881615020190951694909404938401819004810282018101909252828152606093909290918301828280156106785780601f1061064d57610100808354040283529160200191610678565b60006001600160a01b03821661098d5760405162461bcd60e51b815260040180806020018281038252602a815260200180611c7a602a913960400191505060405180910390fd5b6001600160a01b03821660009081526001602052604090206108599061100c565b60078054604080516020601f60026000196101006001881615020190951694909404938401819004810282018101909252828152606093909290918301828280156106785780601f1061064d57610100808354040283529160200191610678565b610a17610e54565b6001600160a01b0316826001600160a01b03161415610a7d576040805162461bcd60e51b815260206004820152601960248201527f4552433732313a20617070726f766520746f2063616c6c657200000000000000604482015290519081900360640190fd5b8060056000610a8a610e54565b6001600160a01b03908116825260208083019390935260409182016000908120918716808252919093529120805460ff191692151592909217909155610ace610e54565b6001600160a01b03167f17307eab39ab6107e8899845ad3d59bd9653f200f220920489ca2b5937696c318360405180821515815260200191505060405180910390a35050565b610b25610b1f610e54565b83611017565b610b605760405162461bcd60e51b8152600401808060200182810382526031815260200180611dc06031913960400191505060405180910390fd5b610b6c848484846112a9565b50505050565b6060610b7d82610e47565b610bb85760405162461bcd60e51b815260040180806020018281038252602f815260200180611d70602f913960400191505060405180910390fd5b60008281526008602090815260409182902080548351601f6002600019610100600186161502019093169290920491820184900484028101840190945280845260609392830182828015610c4d5780601f10610c2257610100808354040283529160200191610c4d565b820191906000526020600020905b815481529060010190602001808311610c3057829003601f168201915b505060095493945050505060026000196101006001841615020190911604610c765790506105e7565b805115610d47576009816040516020018083805460018160011615610100020316600290048015610cde5780601f10610cbc576101008083540402835291820191610cde565b820191906000526020600020905b815481529060010190602001808311610cca575b5050825160208401908083835b60208310610d0a5780518252601f199092019160209182019101610ceb565b6001836020036101000a038019825116818451168082178552505050505050905001925050506040516020818303038152906040529150506105e7565b6009610d52846112fb565b6040516020018083805460018160011615610100020316600290048015610db05780601f10610d8e576101008083540402835291820191610db0565b820191906000526020600020905b815481529060010190602001808311610d9c575b5050825160208401908083835b60208310610ddc5780518252601f199092019160209182019101610dbd565b6001836020036101000a03801982511681845116808217855250505050505090500192505050604051602081830303815290604052915050919050565b6001600160a01b03918216600090815260056020908152604080832093909416825291909152205460ff1690565b600061085960028361140a565b3390565b600081815260046020526040902080547fffffffffffffffffffffffff0000000000000000000000000000000000000000166001600160a01b0384169081179091558190610ea5826108bd565b6001600160a01b03167f8c5be1e5ebec7d5bd14f71427d1e84f3dd0314c0f7b2291e5b200ac8c7c3b92560405160405180910390a45050565b6001600160a01b038216610f39576040805162461bcd60e51b815260206004820181905260248201527f4552433732313a206d696e7420746f20746865207a65726f2061646472657373604482015290519081900360640190fd5b610f4281610e47565b15610f94576040805162461bcd60e51b815260206004820152601c60248201527f4552433732313a20746f6b656e20616c7265616479206d696e74656400000000604482015290519081900360640190fd5b610fa0600083836107ba565b6001600160a01b0382166000908152600160205260409020610fc29082611416565b50610fcf60028284611422565b5060405181906001600160a01b038416906000907fddf252ad1be2c89b69c2b068fc378daa952ba7f163c4a11628f55a4df523b3ef908290a45050565b600061085982611438565b600061102282610e47565b61105d5760405162461bcd60e51b815260040180806020018281038252602c815260200180611c16602c913960400191505060405180910390fd5b6000611068836108bd565b9050806001600160a01b0316846001600160a01b031614806110a35750836001600160a01b031661109884610682565b6001600160a01b0316145b806110b357506110b38185610e19565b949350505050565b826001600160a01b03166110ce826108bd565b6001600160a01b0316146111135760405162461bcd60e51b8152600401808060200182810382526029815260200180611d476029913960400191505060405180910390fd5b6001600160a01b0382166111585760405162461bcd60e51b8152600401808060200182810382526024815260200180611bf26024913960400191505060405180910390fd5b6111638383836107ba565b61116e600082610e58565b6001600160a01b0383166000908152600160205260409020611190908261143c565b506001600160a01b03821660009081526001602052604090206111b39082611416565b506111c060028284611422565b5080826001600160a01b0316846001600160a01b03167fddf252ad1be2c89b69c2b068fc378daa952ba7f163c4a11628f55a4df523b3ef60405160405180910390a4505050565b60006108568383611448565b600080808061122286866114ac565b9097909650945050505050565b61123882610e47565b6112735760405162461bcd60e51b815260040180806020018281038252602c815260200180611d1b602c913960400191505060405180910390fd5b600082815260086020908152604090912082516107ba92840190611b0a565b600061129f848484611527565b90505b9392505050565b6112b48484846110bb565b6112c0848484846115f1565b610b6c5760405162461bcd60e51b8152600401808060200182810382526032815260200180611bc06032913960400191505060405180910390fd5b60608161133c575060408051808201909152600181527f300000000000000000000000000000000000000000000000000000000000000060208201526105e7565b8160005b811561135457600101600a82049150611340565b60608167ffffffffffffffff8111801561136d57600080fd5b506040519080825280601f01601f191660200182016040528015611398576020820181803683370190505b50859350905060001982015b831561140157600a840660300160f81b828280600190039350815181106113c757fe5b60200101907effffffffffffffffffffffffffffffffffffffffffffffffffffffffffffff1916908160001a905350600a840493506113a4565b50949350505050565b6000610856838361179b565b600061085683836117b3565b600061129f84846001600160a01b0385166117fd565b5490565b60006108568383611894565b8154600090821061148a5760405162461bcd60e51b8152600401808060200182810382526022815260200180611b9e6022913960400191505060405180910390fd5b82600001828154811061149957fe5b9060005260206000200154905092915050565b8154600090819083106114f05760405162461bcd60e51b8152600401808060200182810382526022815260200180611ccd6022913960400191505060405180910390fd5b600084600001848154811061150157fe5b906000526020600020906002020190508060000154816001015492509250509250929050565b600082815260018401602052604081205482816115c25760405162461bcd60e51b81526004018080602001828103825283818151815260200191508051906020019080838360005b8381101561158757818101518382015260200161156f565b50505050905090810190601f1680156115b45780820380516001836020036101000a031916815260200191505b509250505060405180910390fd5b508460000160018203815481106115d557fe5b9060005260206000209060020201600101549150509392505050565b6000611605846001600160a01b031661195a565b611611575060016110b3565b6060611749630a85bd0160e11b611626610e54565b88878760405160240180856001600160a01b03168152602001846001600160a01b0316815260200183815260200180602001828103825283818151815260200191508051906020019080838360005b8381101561168d578181015183820152602001611675565b50505050905090810190601f1680156116ba5780820380516001836020036101000a031916815260200191505b5095505050505050604051602081830303815290604052907bffffffffffffffffffffffffffffffffffffffffffffffffffffffff19166020820180517bffffffffffffffffffffffffffffffffffffffffffffffffffffffff8381831617835250505050604051806060016040528060328152602001611bc0603291396001600160a01b0388169190611993565b9050600081806020019051602081101561176257600080fd5b50517fffffffff0000000000000000000000000000000000000000000000000000000016630a85bd0160e11b1492505050949350505050565b60009081526001919091016020526040902054151590565b60006117bf838361179b565b6117f557508154600181810184556000848152602080822090930184905584548482528286019093526040902091909155610859565b506000610859565b6000828152600184016020526040812054806118625750506040805180820182528381526020808201848152865460018181018955600089815284812095516002909302909501918255915190820155865486845281880190925292909120556112a2565b8285600001600183038154811061187557fe5b90600052602060002090600202016001018190555060009150506112a2565b6000818152600183016020526040812054801561195057835460001980830191908101906000908790839081106118c757fe5b90600052602060002001549050808760000184815481106118e457fe5b60009182526020808320909101929092558281526001898101909252604090209084019055865487908061191457fe5b60019003818190600052602060002001600090559055866001016000878152602001908152602001600020600090556001945050505050610859565b6000915050610859565b6000813f7fc5d2460186f7233c927e7db2dcc703c0e500b653ca82273b7bfad8045d85a4708181148015906110b3575050151592915050565b606061129f848460008560606119a88561195a565b6119f9576040805162461bcd60e51b815260206004820152601d60248201527f416464726573733a2063616c6c20746f206e6f6e2d636f6e7472616374000000604482015290519081900360640190fd5b60006060866001600160a01b031685876040518082805190602001908083835b60208310611a385780518252601f199092019160209182019101611a19565b6001836020036101000a03801982511681845116808217855250505050505090500191505060006040518083038185875af1925050503d8060008114611a9a576040519150601f19603f3d011682016040523d82523d6000602084013e611a9f565b606091505b50915091508115611ab35791506110b39050565b805115611ac35780518082602001fd5b60405162461bcd60e51b815260206004820181815286516024840152865187939192839260440191908501908083836000831561158757818101518382015260200161156f565b828054600181600116156101000203166002900490600052602060002090601f016020900481019282601f10611b4b57805160ff1916838001178555611b78565b82800160010185558215611b78579182015b82811115611b78578251825591602001919060010190611b5d565b50611b84929150611b88565b5090565b5b80821115611b845760008155600101611b8956fe456e756d657261626c655365743a20696e646578206f7574206f6620626f756e64734552433732313a207472616e7366657220746f206e6f6e20455243373231526563656976657220696d706c656d656e7465724552433732313a207472616e7366657220746f20746865207a65726f20616464726573734552433732313a206f70657261746f7220717565727920666f72206e6f6e6578697374656e7420746f6b656e4552433732313a20617070726f76652063616c6c6572206973206e6f74206f776e6572206e6f7220617070726f76656420666f7220616c6c4552433732313a2062616c616e636520717565727920666f7220746865207a65726f20616464726573734552433732313a206f776e657220717565727920666f72206e6f6e6578697374656e7420746f6b656e456e756d657261626c654d61703a20696e646578206f7574206f6620626f756e64734552433732313a20617070726f76656420717565727920666f72206e6f6e6578697374656e7420746f6b656e4552433732314d657461646174613a2055524920736574206f66206e6f6e6578697374656e7420746f6b656e4552433732313a207472616e73666572206f6620746f6b656e2074686174206973206e6f74206f776e4552433732314d657461646174613a2055524920717565727920666f72206e6f6e6578697374656e7420746f6b656e4552433732313a20617070726f76616c20746f2063757272656e74206f776e65724552433732313a207472616e736665722063616c6c6572206973206e6f74206f776e6572206e6f7220617070726f766564a2646970667358221220410c3e9430fa946603d82e0c308ada1d6c3e3de3ab8201eb81988c808ba6ea9b64736f6c634300060c0033",
  "immutableReferences": {},
  "source": "// SPDX-License-Identifier: UNLICENSED\n\npragma solidity 0.6.12;\n//pragma abicoder v1;\n\nimport \"../../node_modules/@openzeppelin/contracts/token/ERC721/ERC721.sol\";\n\ncontract ERC721Token is ERC721 {\n    uint256 private s_tokenId;\n\n    constructor(string memory name, string memory symbol)\n        public\n        ERC721(name, symbol)\n    {}\n\n    function selfMint(uint256 tokenId) public {\n        _mint(msg.sender, tokenId);\n    }\n\n    function createTimeframe(string memory tokenURI) public returns (bool) {\n        s_tokenId += 1;\n        _mint(msg.sender, s_tokenId);\n        _setTokenURI(s_tokenId, tokenURI);\n        return true;\n    }\n}\n",
  "sourcePath": "/Users/tal/code/kirobo/ki-eth-token/contracts/test/ERC721Token.sol",
  "compiler": {
    "name": "solc",
    "version": "0.6.12+commit.27d51765.Emscripten.clang"
  },
  "schemaVersion": "3.4.1",
  "updatedAt": "2021-07-22T21:40:18.666Z",
  "devdoc": {
    "kind": "dev",
    "methods": {
      "approve(address,uint256)": {
        "details": "See {IERC721-approve}."
      },
      "balanceOf(address)": {
        "details": "See {IERC721-balanceOf}."
      },
      "baseURI()": {
        "details": "Returns the base URI set via {_setBaseURI}. This will be automatically added as a prefix in {tokenURI} to each token's URI, or to the token ID if no specific URI is set for that token ID."
      },
      "getApproved(uint256)": {
        "details": "See {IERC721-getApproved}."
      },
      "isApprovedForAll(address,address)": {
        "details": "See {IERC721-isApprovedForAll}."
      },
      "name()": {
        "details": "See {IERC721Metadata-name}."
      },
      "ownerOf(uint256)": {
        "details": "See {IERC721-ownerOf}."
      },
      "safeTransferFrom(address,address,uint256)": {
        "details": "See {IERC721-safeTransferFrom}."
      },
      "safeTransferFrom(address,address,uint256,bytes)": {
        "details": "See {IERC721-safeTransferFrom}."
      },
      "setApprovalForAll(address,bool)": {
        "details": "See {IERC721-setApprovalForAll}."
      },
      "supportsInterface(bytes4)": {
        "details": "See {IERC165-supportsInterface}. Time complexity O(1), guaranteed to always use less than 30 000 gas."
      },
      "symbol()": {
        "details": "See {IERC721Metadata-symbol}."
      },
      "tokenByIndex(uint256)": {
        "details": "See {IERC721Enumerable-tokenByIndex}."
      },
      "tokenOfOwnerByIndex(address,uint256)": {
        "details": "See {IERC721Enumerable-tokenOfOwnerByIndex}."
      },
      "tokenURI(uint256)": {
        "details": "See {IERC721Metadata-tokenURI}."
      },
      "totalSupply()": {
        "details": "See {IERC721Enumerable-totalSupply}."
      },
      "transferFrom(address,address,uint256)": {
        "details": "See {IERC721-transferFrom}."
      }
    },
    "version": 1
  },
  "userdoc": {
    "kind": "user",
    "methods": {},
    "version": 1
  }
}