{
  "contractName": "ERC721Token",
  "abi": [
    {
      "inputs": [
        {
          "internalType": "string",
          "name": "name",
          "type": "string"
        },
        {
          "internalType": "string",
          "name": "symbol",
          "type": "string"
        }
      ],
      "stateMutability": "nonpayable",
      "type": "constructor"
    },
    {
      "anonymous": false,
      "inputs": [
        {
          "indexed": true,
          "internalType": "address",
          "name": "owner",
          "type": "address"
        },
        {
          "indexed": true,
          "internalType": "address",
          "name": "approved",
          "type": "address"
        },
        {
          "indexed": true,
          "internalType": "uint256",
          "name": "tokenId",
          "type": "uint256"
        }
      ],
      "name": "Approval",
      "type": "event"
    },
    {
      "anonymous": false,
      "inputs": [
        {
          "indexed": true,
          "internalType": "address",
          "name": "owner",
          "type": "address"
        },
        {
          "indexed": true,
          "internalType": "address",
          "name": "operator",
          "type": "address"
        },
        {
          "indexed": false,
          "internalType": "bool",
          "name": "approved",
          "type": "bool"
        }
      ],
      "name": "ApprovalForAll",
      "type": "event"
    },
    {
      "anonymous": false,
      "inputs": [
        {
          "indexed": true,
          "internalType": "address",
          "name": "from",
          "type": "address"
        },
        {
          "indexed": true,
          "internalType": "address",
          "name": "to",
          "type": "address"
        },
        {
          "indexed": true,
          "internalType": "uint256",
          "name": "tokenId",
          "type": "uint256"
        }
      ],
      "name": "Transfer",
      "type": "event"
    },
    {
      "inputs": [
        {
          "internalType": "address",
          "name": "to",
          "type": "address"
        },
        {
          "internalType": "uint256",
          "name": "tokenId",
          "type": "uint256"
        }
      ],
      "name": "approve",
      "outputs": [],
      "stateMutability": "nonpayable",
      "type": "function"
    },
    {
      "inputs": [
        {
          "internalType": "address",
          "name": "owner",
          "type": "address"
        }
      ],
      "name": "balanceOf",
      "outputs": [
        {
          "internalType": "uint256",
          "name": "",
          "type": "uint256"
        }
      ],
      "stateMutability": "view",
      "type": "function"
    },
    {
      "inputs": [],
      "name": "baseURI",
      "outputs": [
        {
          "internalType": "string",
          "name": "",
          "type": "string"
        }
      ],
      "stateMutability": "view",
      "type": "function"
    },
    {
      "inputs": [
        {
          "internalType": "uint256",
          "name": "tokenId",
          "type": "uint256"
        }
      ],
      "name": "getApproved",
      "outputs": [
        {
          "internalType": "address",
          "name": "",
          "type": "address"
        }
      ],
      "stateMutability": "view",
      "type": "function"
    },
    {
      "inputs": [
        {
          "internalType": "address",
          "name": "owner",
          "type": "address"
        },
        {
          "internalType": "address",
          "name": "operator",
          "type": "address"
        }
      ],
      "name": "isApprovedForAll",
      "outputs": [
        {
          "internalType": "bool",
          "name": "",
          "type": "bool"
        }
      ],
      "stateMutability": "view",
      "type": "function"
    },
    {
      "inputs": [],
      "name": "name",
      "outputs": [
        {
          "internalType": "string",
          "name": "",
          "type": "string"
        }
      ],
      "stateMutability": "view",
      "type": "function"
    },
    {
      "inputs": [
        {
          "internalType": "uint256",
          "name": "tokenId",
          "type": "uint256"
        }
      ],
      "name": "ownerOf",
      "outputs": [
        {
          "internalType": "address",
          "name": "",
          "type": "address"
        }
      ],
      "stateMutability": "view",
      "type": "function"
    },
    {
      "inputs": [
        {
          "internalType": "address",
          "name": "from",
          "type": "address"
        },
        {
          "internalType": "address",
          "name": "to",
          "type": "address"
        },
        {
          "internalType": "uint256",
          "name": "tokenId",
          "type": "uint256"
        }
      ],
      "name": "safeTransferFrom",
      "outputs": [],
      "stateMutability": "nonpayable",
      "type": "function"
    },
    {
      "inputs": [
        {
          "internalType": "address",
          "name": "from",
          "type": "address"
        },
        {
          "internalType": "address",
          "name": "to",
          "type": "address"
        },
        {
          "internalType": "uint256",
          "name": "tokenId",
          "type": "uint256"
        },
        {
          "internalType": "bytes",
          "name": "_data",
          "type": "bytes"
        }
      ],
      "name": "safeTransferFrom",
      "outputs": [],
      "stateMutability": "nonpayable",
      "type": "function"
    },
    {
      "inputs": [
        {
          "internalType": "address",
          "name": "operator",
          "type": "address"
        },
        {
          "internalType": "bool",
          "name": "approved",
          "type": "bool"
        }
      ],
      "name": "setApprovalForAll",
      "outputs": [],
      "stateMutability": "nonpayable",
      "type": "function"
    },
    {
      "inputs": [
        {
          "internalType": "bytes4",
          "name": "interfaceId",
          "type": "bytes4"
        }
      ],
      "name": "supportsInterface",
      "outputs": [
        {
          "internalType": "bool",
          "name": "",
          "type": "bool"
        }
      ],
      "stateMutability": "view",
      "type": "function"
    },
    {
      "inputs": [],
      "name": "symbol",
      "outputs": [
        {
          "internalType": "string",
          "name": "",
          "type": "string"
        }
      ],
      "stateMutability": "view",
      "type": "function"
    },
    {
      "inputs": [
        {
          "internalType": "uint256",
          "name": "index",
          "type": "uint256"
        }
      ],
      "name": "tokenByIndex",
      "outputs": [
        {
          "internalType": "uint256",
          "name": "",
          "type": "uint256"
        }
      ],
      "stateMutability": "view",
      "type": "function"
    },
    {
      "inputs": [
        {
          "internalType": "address",
          "name": "owner",
          "type": "address"
        },
        {
          "internalType": "uint256",
          "name": "index",
          "type": "uint256"
        }
      ],
      "name": "tokenOfOwnerByIndex",
      "outputs": [
        {
          "internalType": "uint256",
          "name": "",
          "type": "uint256"
        }
      ],
      "stateMutability": "view",
      "type": "function"
    },
    {
      "inputs": [
        {
          "internalType": "uint256",
          "name": "tokenId",
          "type": "uint256"
        }
      ],
      "name": "tokenURI",
      "outputs": [
        {
          "internalType": "string",
          "name": "",
          "type": "string"
        }
      ],
      "stateMutability": "view",
      "type": "function"
    },
    {
      "inputs": [],
      "name": "totalSupply",
      "outputs": [
        {
          "internalType": "uint256",
          "name": "",
          "type": "uint256"
        }
      ],
      "stateMutability": "view",
      "type": "function"
    },
    {
      "inputs": [
        {
          "internalType": "address",
          "name": "from",
          "type": "address"
        },
        {
          "internalType": "address",
          "name": "to",
          "type": "address"
        },
        {
          "internalType": "uint256",
          "name": "tokenId",
          "type": "uint256"
        }
      ],
      "name": "transferFrom",
      "outputs": [],
      "stateMutability": "nonpayable",
      "type": "function"
    },
    {
      "inputs": [
        {
          "internalType": "string",
          "name": "tokenURI",
          "type": "string"
        }
      ],
      "name": "createTimeframe",
      "outputs": [
        {
          "internalType": "bool",
          "name": "",
          "type": "bool"
        }
      ],
      "stateMutability": "nonpayable",
      "type": "function"
    }
  ],
  "bytecode": "0x60806040523480156200001157600080fd5b506040516200205538038062002055833981810160405260408110156200003757600080fd5b81019080805160405193929190846401000000008211156200005857600080fd5b9083019060208201858111156200006e57600080fd5b82516401000000008111828201881017156200008957600080fd5b82525081516020918201929091019080838360005b83811015620000b85781810151838201526020016200009e565b50505050905090810190601f168015620000e65780820380516001836020036101000a031916815260200191505b50604052602001805160405193929190846401000000008211156200010a57600080fd5b9083019060208201858111156200012057600080fd5b82516401000000008111828201881017156200013b57600080fd5b82525081516020918201929091019080838360005b838110156200016a57818101518382015260200162000150565b50505050905090810190601f168015620001985780820380516001836020036101000a031916815260200191505b5060405250839150829050620001b56301ffc9a760e01b62000221565b8151620001ca906006906020850190620002a6565b508051620001e0906007906020840190620002a6565b50620001f36380ac58cd60e01b62000221565b62000205635b5e139f60e01b62000221565b6200021763780e9d6360e01b62000221565b5050505062000342565b6001600160e01b0319808216141562000281576040805162461bcd60e51b815260206004820152601c60248201527f4552433136353a20696e76616c696420696e7465726661636520696400000000604482015290519081900360640190fd5b6001600160e01b0319166000908152602081905260409020805460ff19166001179055565b828054600181600116156101000203166002900490600052602060002090601f016020900481019282601f10620002e957805160ff191683800117855562000319565b8280016001018555821562000319579182015b8281111562000319578251825591602001919060010190620002fc565b50620003279291506200032b565b5090565b5b808211156200032757600081556001016200032c565b611d0380620003526000396000f3fe608060405234801561001057600080fd5b50600436106101165760003560e01c80635818381d116100a257806395d89b411161007157806395d89b41146103fa578063a22cb46514610402578063b88d4fde14610430578063c87b56dd146104f6578063e985e9c51461051357610116565b80635818381d146103095780636352211e146103af5780636c0360eb146103cc57806370a08231146103d457610116565b806318160ddd116100e957806318160ddd1461023a57806323b872dd146102545780632f745c591461028a57806342842e0e146102b65780634f6ccce7146102ec57610116565b806301ffc9a71461011b57806306fdde0314610156578063081812fc146101d3578063095ea7b31461020c575b600080fd5b6101426004803603602081101561013157600080fd5b50356001600160e01b031916610541565b604080519115158252519081900360200190f35b61015e610564565b6040805160208082528351818301528351919283929083019185019080838360005b83811015610198578181015183820152602001610180565b50505050905090810190601f1680156101c55780820380516001836020036101000a031916815260200191505b509250505060405180910390f35b6101f0600480360360208110156101e957600080fd5b50356105fa565b604080516001600160a01b039092168252519081900360200190f35b6102386004803603604081101561022257600080fd5b506001600160a01b03813516906020013561065c565b005b610242610737565b60408051918252519081900360200190f35b6102386004803603606081101561026a57600080fd5b506001600160a01b03813581169160208101359091169060400135610748565b610242600480360360408110156102a057600080fd5b506001600160a01b03813516906020013561079f565b610238600480360360608110156102cc57600080fd5b506001600160a01b038135811691602081013590911690604001356107ca565b6102426004803603602081101561030257600080fd5b50356107e5565b6101426004803603602081101561031f57600080fd5b81019060208101813564010000000081111561033a57600080fd5b82018360208201111561034c57600080fd5b8035906020019184600183028401116401000000008311171561036e57600080fd5b91908080601f0160208091040260200160405190810160405280939291908181526020018383808284376000920191909152509295506107fb945050505050565b6101f0600480360360208110156103c557600080fd5b5035610828565b61015e610850565b610242600480360360208110156103ea57600080fd5b50356001600160a01b03166108b1565b61015e610919565b6102386004803603604081101561041857600080fd5b506001600160a01b038135169060200135151561097a565b6102386004803603608081101561044657600080fd5b6001600160a01b0382358116926020810135909116916040820135919081019060808101606082013564010000000081111561048157600080fd5b82018360208201111561049357600080fd5b803590602001918460018302840111640100000000831117156104b557600080fd5b91908080601f016020809104026020016040519081016040528093929190818152602001838380828437600092019190915250929550610a7f945050505050565b61015e6004803603602081101561050c57600080fd5b5035610add565b6101426004803603604081101561052957600080fd5b506001600160a01b0381358116916020013516610d84565b6001600160e01b0319811660009081526020819052604090205460ff165b919050565b60068054604080516020601f60026000196101006001881615020190951694909404938401819004810282018101909252828152606093909290918301828280156105f05780601f106105c5576101008083540402835291602001916105f0565b820191906000526020600020905b8154815290600101906020018083116105d357829003601f168201915b5050505050905090565b600061060582610db2565b6106405760405162461bcd60e51b815260040180806020018281038252602c815260200180611bcc602c913960400191505060405180910390fd5b506000908152600460205260409020546001600160a01b031690565b600061066782610828565b9050806001600160a01b0316836001600160a01b031614156106ba5760405162461bcd60e51b8152600401808060200182810382526021815260200180611c7c6021913960400191505060405180910390fd5b806001600160a01b03166106cc610dbf565b6001600160a01b031614806106ed57506106ed816106e8610dbf565b610d84565b6107285760405162461bcd60e51b8152600401808060200182810382526038815260200180611b1f6038913960400191505060405180910390fd5b6107328383610dc3565b505050565b60006107436002610e31565b905090565b610759610753610dbf565b82610e3c565b6107945760405162461bcd60e51b8152600401808060200182810382526031815260200180611c9d6031913960400191505060405180910390fd5b610732838383610ee0565b6001600160a01b03821660009081526001602052604081206107c1908361102c565b90505b92915050565b61073283838360405180602001604052806000815250610a7f565b6000806107f3600284611038565b509392505050565b600a805460010190819055600090610814903390611054565b610820600a5483611182565b506001919050565b60006107c482604051806060016040528060298152602001611b8160299139600291906111e5565b60098054604080516020601f60026000196101006001881615020190951694909404938401819004810282018101909252828152606093909290918301828280156105f05780601f106105c5576101008083540402835291602001916105f0565b60006001600160a01b0382166108f85760405162461bcd60e51b815260040180806020018281038252602a815260200180611b57602a913960400191505060405180910390fd5b6001600160a01b03821660009081526001602052604090206107c490610e31565b60078054604080516020601f60026000196101006001881615020190951694909404938401819004810282018101909252828152606093909290918301828280156105f05780601f106105c5576101008083540402835291602001916105f0565b610982610dbf565b6001600160a01b0316826001600160a01b031614156109e8576040805162461bcd60e51b815260206004820152601960248201527f4552433732313a20617070726f766520746f2063616c6c657200000000000000604482015290519081900360640190fd5b80600560006109f5610dbf565b6001600160a01b03908116825260208083019390935260409182016000908120918716808252919093529120805460ff191692151592909217909155610a39610dbf565b6001600160a01b03167f17307eab39ab6107e8899845ad3d59bd9653f200f220920489ca2b5937696c318360405180821515815260200191505060405180910390a35050565b610a90610a8a610dbf565b83610e3c565b610acb5760405162461bcd60e51b8152600401808060200182810382526031815260200180611c9d6031913960400191505060405180910390fd5b610ad7848484846111fc565b50505050565b6060610ae882610db2565b610b235760405162461bcd60e51b815260040180806020018281038252602f815260200180611c4d602f913960400191505060405180910390fd5b60008281526008602090815260409182902080548351601f6002600019610100600186161502019093169290920491820184900484028101840190945280845260609392830182828015610bb85780601f10610b8d57610100808354040283529160200191610bb8565b820191906000526020600020905b815481529060010190602001808311610b9b57829003601f168201915b505060095493945050505060026000196101006001841615020190911604610be157905061055f565b805115610cb2576009816040516020018083805460018160011615610100020316600290048015610c495780601f10610c27576101008083540402835291820191610c49565b820191906000526020600020905b815481529060010190602001808311610c35575b5050825160208401908083835b60208310610c755780518252601f199092019160209182019101610c56565b6001836020036101000a0380198251168184511680821785525050505050509050019250505060405160208183030381529060405291505061055f565b6009610cbd8461124e565b6040516020018083805460018160011615610100020316600290048015610d1b5780601f10610cf9576101008083540402835291820191610d1b565b820191906000526020600020905b815481529060010190602001808311610d07575b5050825160208401908083835b60208310610d475780518252601f199092019160209182019101610d28565b6001836020036101000a03801982511681845116808217855250505050505090500192505050604051602081830303815290604052915050919050565b6001600160a01b03918216600090815260056020908152604080832093909416825291909152205460ff1690565b60006107c4600283611329565b3390565b600081815260046020526040902080546001600160a01b0319166001600160a01b0384169081179091558190610df882610828565b6001600160a01b03167f8c5be1e5ebec7d5bd14f71427d1e84f3dd0314c0f7b2291e5b200ac8c7c3b92560405160405180910390a45050565b60006107c482611335565b6000610e4782610db2565b610e825760405162461bcd60e51b815260040180806020018281038252602c815260200180611af3602c913960400191505060405180910390fd5b6000610e8d83610828565b9050806001600160a01b0316846001600160a01b03161480610ec85750836001600160a01b0316610ebd846105fa565b6001600160a01b0316145b80610ed85750610ed88185610d84565b949350505050565b826001600160a01b0316610ef382610828565b6001600160a01b031614610f385760405162461bcd60e51b8152600401808060200182810382526029815260200180611c246029913960400191505060405180910390fd5b6001600160a01b038216610f7d5760405162461bcd60e51b8152600401808060200182810382526024815260200180611acf6024913960400191505060405180910390fd5b610f88838383610732565b610f93600082610dc3565b6001600160a01b0383166000908152600160205260409020610fb59082611339565b506001600160a01b0382166000908152600160205260409020610fd89082611345565b50610fe560028284611351565b5080826001600160a01b0316846001600160a01b03167fddf252ad1be2c89b69c2b068fc378daa952ba7f163c4a11628f55a4df523b3ef60405160405180910390a4505050565b60006107c18383611367565b600080808061104786866113cb565b9097909650945050505050565b6001600160a01b0382166110af576040805162461bcd60e51b815260206004820181905260248201527f4552433732313a206d696e7420746f20746865207a65726f2061646472657373604482015290519081900360640190fd5b6110b881610db2565b1561110a576040805162461bcd60e51b815260206004820152601c60248201527f4552433732313a20746f6b656e20616c7265616479206d696e74656400000000604482015290519081900360640190fd5b61111660008383610732565b6001600160a01b03821660009081526001602052604090206111389082611345565b5061114560028284611351565b5060405181906001600160a01b038416906000907fddf252ad1be2c89b69c2b068fc378daa952ba7f163c4a11628f55a4df523b3ef908290a45050565b61118b82610db2565b6111c65760405162461bcd60e51b815260040180806020018281038252602c815260200180611bf8602c913960400191505060405180910390fd5b60008281526008602090815260409091208251610732928401906119e7565b60006111f2848484611446565b90505b9392505050565b611207848484610ee0565b61121384848484611510565b610ad75760405162461bcd60e51b8152600401808060200182810382526032815260200180611a9d6032913960400191505060405180910390fd5b60608161127357506040805180820190915260018152600360fc1b602082015261055f565b8160005b811561128b57600101600a82049150611277565b60608167ffffffffffffffff811180156112a457600080fd5b506040519080825280601f01601f1916602001820160405280156112cf576020820181803683370190505b50859350905060001982015b831561132057600a840660300160f81b828280600190039350815181106112fe57fe5b60200101906001600160f81b031916908160001a905350600a840493506112db565b50949350505050565b60006107c18383611678565b5490565b60006107c18383611690565b60006107c18383611756565b60006111f284846001600160a01b0385166117a0565b815460009082106113a95760405162461bcd60e51b8152600401808060200182810382526022815260200180611a7b6022913960400191505060405180910390fd5b8260000182815481106113b857fe5b9060005260206000200154905092915050565b81546000908190831061140f5760405162461bcd60e51b8152600401808060200182810382526022815260200180611baa6022913960400191505060405180910390fd5b600084600001848154811061142057fe5b906000526020600020906002020190508060000154816001015492509250509250929050565b600082815260018401602052604081205482816114e15760405162461bcd60e51b81526004018080602001828103825283818151815260200191508051906020019080838360005b838110156114a657818101518382015260200161148e565b50505050905090810190601f1680156114d35780820380516001836020036101000a031916815260200191505b509250505060405180910390fd5b508460000160018203815481106114f457fe5b9060005260206000209060020201600101549150509392505050565b6000611524846001600160a01b0316611837565b61153057506001610ed8565b606061163e630a85bd0160e11b611545610dbf565b88878760405160240180856001600160a01b03168152602001846001600160a01b0316815260200183815260200180602001828103825283818151815260200191508051906020019080838360005b838110156115ac578181015183820152602001611594565b50505050905090810190601f1680156115d95780820380516001836020036101000a031916815260200191505b5095505050505050604051602081830303815290604052906001600160e01b0319166020820180516001600160e01b038381831617835250505050604051806060016040528060328152602001611a9d603291396001600160a01b0388169190611870565b9050600081806020019051602081101561165757600080fd5b50516001600160e01b031916630a85bd0160e11b1492505050949350505050565b60009081526001919091016020526040902054151590565b6000818152600183016020526040812054801561174c57835460001980830191908101906000908790839081106116c357fe5b90600052602060002001549050808760000184815481106116e057fe5b60009182526020808320909101929092558281526001898101909252604090209084019055865487908061171057fe5b600190038181906000526020600020016000905590558660010160008781526020019081526020016000206000905560019450505050506107c4565b60009150506107c4565b60006117628383611678565b611798575081546001818101845560008481526020808220909301849055845484825282860190935260409020919091556107c4565b5060006107c4565b6000828152600184016020526040812054806118055750506040805180820182528381526020808201848152865460018181018955600089815284812095516002909302909501918255915190820155865486845281880190925292909120556111f5565b8285600001600183038154811061181857fe5b90600052602060002090600202016001018190555060009150506111f5565b6000813f7fc5d2460186f7233c927e7db2dcc703c0e500b653ca82273b7bfad8045d85a470818114801590610ed8575050151592915050565b60606111f28484600085606061188585611837565b6118d6576040805162461bcd60e51b815260206004820152601d60248201527f416464726573733a2063616c6c20746f206e6f6e2d636f6e7472616374000000604482015290519081900360640190fd5b60006060866001600160a01b031685876040518082805190602001908083835b602083106119155780518252601f1990920191602091820191016118f6565b6001836020036101000a03801982511681845116808217855250505050505090500191505060006040518083038185875af1925050503d8060008114611977576040519150601f19603f3d011682016040523d82523d6000602084013e61197c565b606091505b50915091508115611990579150610ed89050565b8051156119a05780518082602001fd5b60405162461bcd60e51b81526020600482018181528651602484015286518793919283926044019190850190808383600083156114a657818101518382015260200161148e565b828054600181600116156101000203166002900490600052602060002090601f016020900481019282601f10611a2857805160ff1916838001178555611a55565b82800160010185558215611a55579182015b82811115611a55578251825591602001919060010190611a3a565b50611a61929150611a65565b5090565b5b80821115611a615760008155600101611a6656fe456e756d657261626c655365743a20696e646578206f7574206f6620626f756e64734552433732313a207472616e7366657220746f206e6f6e20455243373231526563656976657220696d706c656d656e7465724552433732313a207472616e7366657220746f20746865207a65726f20616464726573734552433732313a206f70657261746f7220717565727920666f72206e6f6e6578697374656e7420746f6b656e4552433732313a20617070726f76652063616c6c6572206973206e6f74206f776e6572206e6f7220617070726f76656420666f7220616c6c4552433732313a2062616c616e636520717565727920666f7220746865207a65726f20616464726573734552433732313a206f776e657220717565727920666f72206e6f6e6578697374656e7420746f6b656e456e756d657261626c654d61703a20696e646578206f7574206f6620626f756e64734552433732313a20617070726f76656420717565727920666f72206e6f6e6578697374656e7420746f6b656e4552433732314d657461646174613a2055524920736574206f66206e6f6e6578697374656e7420746f6b656e4552433732313a207472616e73666572206f6620746f6b656e2074686174206973206e6f74206f776e4552433732314d657461646174613a2055524920717565727920666f72206e6f6e6578697374656e7420746f6b656e4552433732313a20617070726f76616c20746f2063757272656e74206f776e65724552433732313a207472616e736665722063616c6c6572206973206e6f74206f776e6572206e6f7220617070726f766564a2646970667358221220d94e0b0cac4c8794c7fd2f94ef9bcad485d3ad5bbeebb1eaec27f627f43bca3564736f6c634300060c0033",
  "immutableReferences": {},
  "source": "// SPDX-License-Identifier: UNLICENSED\n\npragma solidity 0.6.12;\n//pragma abicoder v1;\n\nimport \"@openzeppelin/contracts/token/ERC721/ERC721.sol\";\n\ncontract ERC721Token is ERC721 {\n    uint256 private s_tokenId;\n\n    constructor(string memory name, string memory symbol)\n        public\n        ERC721(name, symbol)\n    {}\n\n    function createTimeframe(string memory tokenURI) public returns (bool) {\n        s_tokenId += 1;\n        _mint(msg.sender, s_tokenId);\n        _setTokenURI(s_tokenId, tokenURI);\n        return true;\n    }\n}\n",
  "sourcePath": "/opt/storage/data1/code/kirobo/ki-eth-token/contracts/test/ERC721Token.sol",
  "compiler": {
    "name": "solc",
    "version": "0.6.12+commit.27d51765.Emscripten.clang"
  },
  "schemaVersion": "3.3.4",
  "updatedAt": "2021-07-01T17:25:12.994Z",
  "devdoc": {
    "kind": "dev",
    "methods": {
      "approve(address,uint256)": {
        "details": "See {IERC721-approve}."
      },
      "balanceOf(address)": {
        "details": "See {IERC721-balanceOf}."
      },
      "baseURI()": {
        "details": "Returns the base URI set via {_setBaseURI}. This will be automatically added as a prefix in {tokenURI} to each token's URI, or to the token ID if no specific URI is set for that token ID."
      },
      "getApproved(uint256)": {
        "details": "See {IERC721-getApproved}."
      },
      "isApprovedForAll(address,address)": {
        "details": "See {IERC721-isApprovedForAll}."
      },
      "name()": {
        "details": "See {IERC721Metadata-name}."
      },
      "ownerOf(uint256)": {
        "details": "See {IERC721-ownerOf}."
      },
      "safeTransferFrom(address,address,uint256)": {
        "details": "See {IERC721-safeTransferFrom}."
      },
      "safeTransferFrom(address,address,uint256,bytes)": {
        "details": "See {IERC721-safeTransferFrom}."
      },
      "setApprovalForAll(address,bool)": {
        "details": "See {IERC721-setApprovalForAll}."
      },
      "supportsInterface(bytes4)": {
        "details": "See {IERC165-supportsInterface}. Time complexity O(1), guaranteed to always use less than 30 000 gas."
      },
      "symbol()": {
        "details": "See {IERC721Metadata-symbol}."
      },
      "tokenByIndex(uint256)": {
        "details": "See {IERC721Enumerable-tokenByIndex}."
      },
      "tokenOfOwnerByIndex(address,uint256)": {
        "details": "See {IERC721Enumerable-tokenOfOwnerByIndex}."
      },
      "tokenURI(uint256)": {
        "details": "See {IERC721Metadata-tokenURI}."
      },
      "totalSupply()": {
        "details": "See {IERC721Enumerable-totalSupply}."
      },
      "transferFrom(address,address,uint256)": {
        "details": "See {IERC721-transferFrom}."
      }
    },
    "version": 1
  },
  "userdoc": {
    "kind": "user",
    "methods": {},
    "version": 1
  }
}