{
  "contractName": "Minter",
  "abi": [
    {
      "inputs": [
        {
          "internalType": "contract IToken",
          "name": "token",
          "type": "address"
        },
        {
          "internalType": "address",
          "name": "beneficiary",
          "type": "address"
        }
      ],
      "stateMutability": "nonpayable",
      "type": "constructor"
    },
    {
      "anonymous": false,
      "inputs": [
        {
          "indexed": false,
          "internalType": "address",
          "name": "sender",
          "type": "address"
        },
        {
          "indexed": false,
          "internalType": "address",
          "name": "token",
          "type": "address"
        },
        {
          "indexed": false,
          "internalType": "address",
          "name": "beneficiary",
          "type": "address"
        }
      ],
      "name": "Created",
      "type": "event"
    },
    {
      "anonymous": false,
      "inputs": [
        {
          "indexed": false,
          "internalType": "uint256",
          "name": "amount",
          "type": "uint256"
        },
        {
          "indexed": false,
          "internalType": "uint256",
          "name": "timestamp",
          "type": "uint256"
        }
      ],
      "name": "Minted",
      "type": "event"
    },
    {
      "anonymous": false,
      "inputs": [
        {
          "indexed": false,
          "internalType": "uint256",
          "name": "initialSupply",
          "type": "uint256"
        },
        {
          "indexed": false,
          "internalType": "uint256",
          "name": "timestamp",
          "type": "uint256"
        }
      ],
      "name": "Started",
      "type": "event"
    },
    {
      "inputs": [],
      "name": "DURATION",
      "outputs": [
        {
          "internalType": "uint256",
          "name": "",
          "type": "uint256"
        }
      ],
      "stateMutability": "view",
      "type": "function"
    },
    {
      "inputs": [],
      "name": "TARGET_SUPPLY",
      "outputs": [
        {
          "internalType": "uint256",
          "name": "",
          "type": "uint256"
        }
      ],
      "stateMutability": "view",
      "type": "function"
    },
    {
      "stateMutability": "payable",
      "type": "receive"
    },
    {
      "inputs": [],
      "name": "start",
      "outputs": [],
      "stateMutability": "nonpayable",
      "type": "function"
    },
    {
      "inputs": [
        {
          "internalType": "uint256",
          "name": "amount",
          "type": "uint256"
        }
      ],
      "name": "mint",
      "outputs": [],
      "stateMutability": "nonpayable",
      "type": "function"
    },
    {
      "inputs": [],
      "name": "mintAll",
      "outputs": [],
      "stateMutability": "nonpayable",
      "type": "function"
    },
    {
      "inputs": [],
      "name": "minterRoleValidation",
      "outputs": [],
      "stateMutability": "view",
      "type": "function"
    },
    {
      "inputs": [],
      "name": "mintLimit",
      "outputs": [
        {
          "internalType": "uint256",
          "name": "",
          "type": "uint256"
        }
      ],
      "stateMutability": "view",
      "type": "function"
    },
    {
      "inputs": [],
      "name": "left",
      "outputs": [
        {
          "internalType": "uint256",
          "name": "",
          "type": "uint256"
        }
      ],
      "stateMutability": "view",
      "type": "function"
    },
    {
      "inputs": [],
      "name": "maxCap",
      "outputs": [
        {
          "internalType": "uint256",
          "name": "",
          "type": "uint256"
        }
      ],
      "stateMutability": "view",
      "type": "function"
    },
    {
      "inputs": [],
      "name": "initialSupply",
      "outputs": [
        {
          "internalType": "uint256",
          "name": "",
          "type": "uint256"
        }
      ],
      "stateMutability": "view",
      "type": "function"
    },
    {
      "inputs": [],
      "name": "startTime",
      "outputs": [
        {
          "internalType": "uint256",
          "name": "",
          "type": "uint256"
        }
      ],
      "stateMutability": "view",
      "type": "function"
    },
    {
      "inputs": [],
      "name": "endTime",
      "outputs": [
        {
          "internalType": "uint256",
          "name": "",
          "type": "uint256"
        }
      ],
      "stateMutability": "view",
      "type": "function"
    },
    {
      "inputs": [],
      "name": "minted",
      "outputs": [
        {
          "internalType": "uint256",
          "name": "",
          "type": "uint256"
        }
      ],
      "stateMutability": "view",
      "type": "function"
    },
    {
      "inputs": [],
      "name": "beneficiary",
      "outputs": [
        {
          "internalType": "address",
          "name": "",
          "type": "address"
        }
      ],
      "stateMutability": "view",
      "type": "function"
    },
    {
      "inputs": [],
      "name": "token",
      "outputs": [
        {
          "internalType": "address",
          "name": "",
          "type": "address"
        }
      ],
      "stateMutability": "view",
      "type": "function"
    },
    {
      "inputs": [],
      "name": "started",
      "outputs": [
        {
          "internalType": "bool",
          "name": "",
          "type": "bool"
        }
      ],
      "stateMutability": "view",
      "type": "function"
    }
  ],
  "bytecode": "0x608060405234801561001057600080fd5b50604051610f92380380610f928339818101604052604081101561003357600080fd5b508051602091820151600480546001600160a01b038085166001600160a01b031992831681179093556003805491851691909216811790915560408051338152958601929092528482015251919290917f454b0172f64812df0cd504c2bd7df7aab8ff328a54d946b4bd0fa7c527adf9cc9181900360600190a15050610ed4806100be6000396000f3fe6080604052600436106100f75760003560e01c8063595882b31161008a578063b848805211610059578063b8488052146102a3578063be9a6555146102b8578063bfbe38fa146102cd578063fc0c546a146102e25761014b565b8063595882b31461023a57806378e979251461024f578063996517cf14610264578063a0712d68146102795761014b565b80633197cbb6116100c65780633197cbb6146101ca578063378dc3dc146101df57806338af3eed146101f45780634f02c420146102255761014b565b806316e64048146101505780631be05289146101775780631f2698ab1461018c57806323548b8b146101b55761014b565b3661014b576040805162461bcd60e51b815260206004820152601b60248201527f4d696e7465723a206e6f7420616363657074696e672065746865720000000000604482015290519081900360640190fd5b005b600080fd5b34801561015c57600080fd5b506101656102f7565b60408051918252519081900360200190f35b34801561018357600080fd5b5061016561032c565b34801561019857600080fd5b506101a1610334565b604080519115158252519081900360200190f35b3480156101c157600080fd5b50610165610344565b3480156101d657600080fd5b506101656103c5565b3480156101eb57600080fd5b506101656103d9565b34801561020057600080fd5b506102096103df565b604080516001600160a01b039092168252519081900360200190f35b34801561023157600080fd5b506101656103ee565b34801561024657600080fd5b506101496103f4565b34801561025b57600080fd5b5061016561040c565b34801561027057600080fd5b50610165610412565b34801561028557600080fd5b506101496004803603602081101561029c57600080fd5b50356104ac565b3480156102af57600080fd5b506101656106d0565b3480156102c457600080fd5b506101496106e0565b3480156102d957600080fd5b5061014961097b565b3480156102ee57600080fd5b50610209610bbc565b60006103266002546103206000546b071bcc1ef9311a1f98000000610bcb90919063ffffffff16565b90610bcb565b90505b90565b6309450c0081565b600454600160a01b900460ff1690565b60006103266103516102f7565b60048054604080516318160ddd60e01b815290516001600160a01b03909216926318160ddd928282019260209290829003018186803b15801561039357600080fd5b505afa1580156103a7573d6000803e3d6000fd5b505050506040513d60208110156103bd57600080fd5b505190610c16565b600154600090610326906309450c00610c16565b60005490565b6003546001600160a01b031690565b60025490565b61040a610405600254610320610412565b6104ac565b565b60015490565b6000806104366000546b071bcc1ef9311a1f98000000610bcb90919063ffffffff16565b9050600061044f60015442610bcb90919063ffffffff16565b90506309450c00811061046457509050610329565b60006104746309450c0083610bcb565b90506104a461049d6309450c006104978181866104918a82610c70565b90610c70565b90610cc9565b8490610bcb565b935050505090565b6003546001600160a01b031633146104fd576040805162461bcd60e51b815260206004820152600f60248201526e6e6f742062656e656669636961727960881b604482015290519081900360640190fd5b600454600160a01b900460ff161515600114610560576040805162461bcd60e51b815260206004820152601860248201527f546f6b656e4d696e7465723a206e6f7420737461727465640000000000000000604482015290519081900360640190fd5b600081116105b5576040805162461bcd60e51b815260206004820152601c60248201527f546f6b656e4d696e7465723a206e6f7468696e6720746f206d696e7400000000604482015290519081900360640190fd5b6002546105c29082610c16565b6002556105cd610412565b6002541115610623576040805162461bcd60e51b815260206004820152601c60248201527f546f6b656e4d696e7465723a20616d6f756e7420746f6f206869676800000000604482015290519081900360640190fd5b60048054600354604080516340c10f1960e01b81526001600160a01b039283169481019490945260248401859052519116916340c10f1991604480830192600092919082900301818387803b15801561067b57600080fd5b505af115801561068f573d6000803e3d6000fd5b50506040805184815242602082015281517f8a9dcf4e150b1153011b29fec302d5be0c13e84fa8f56ab78587f778a32a90dd9450908190039091019150a150565b6b071bcc1ef9311a1f9800000081565b6003546001600160a01b03163314610731576040805162461bcd60e51b815260206004820152600f60248201526e6e6f742062656e656669636961727960881b604482015290519081900360640190fd5b600454600160a01b900460ff1615610790576040805162461bcd60e51b815260206004820152601c60248201527f546f6b656e4d696e7465723a20616c7265616479207374617274656400000000604482015290519081900360640190fd5b6004805460408051631339324b60e01b815290516001600160a01b039092169263ca15c873928492631339324b9281810192602092909190829003018186803b1580156107dc57600080fd5b505afa1580156107f0573d6000803e3d6000fd5b505050506040513d602081101561080657600080fd5b5051604080516001600160e01b031960e085901b1681526004810192909252516024808301926020929190829003018186803b15801561084557600080fd5b505afa158015610859573d6000803e3d6000fd5b505050506040513d602081101561086f57600080fd5b5051156108ad5760405162461bcd60e51b8152600401808060200182810382526027815260200180610e086027913960400191505060405180910390fd5b6108b561097b565b6004805460ff60a01b1916600160a01b17808255604080516318160ddd60e01b815290516001600160a01b03909216926318160ddd928282019260209290829003018186803b15801561090757600080fd5b505afa15801561091b573d6000803e3d6000fd5b505050506040513d602081101561093157600080fd5b5051600081905542600181905560408051928352602083019190915280517f87ac41d581680567c1ef44614ddfa5522f853ea15b877693a35b1e4157cc309d9281900390910190a1565b600480546040805163d539139360e01b815290516001600160a01b03909216926391d1485492849263d53913939281810192602092909190829003018186803b1580156109c757600080fd5b505afa1580156109db573d6000803e3d6000fd5b505050506040513d60208110156109f157600080fd5b5051604080516001600160e01b031960e085901b1681526004810192909252306024830152516044808301926020929190829003018186803b158015610a3657600080fd5b505afa158015610a4a573d6000803e3d6000fd5b505050506040513d6020811015610a6057600080fd5b5051610a9d5760405162461bcd60e51b8152600401808060200182810382526026815260200180610e796026913960400191505060405180910390fd5b600480546040805163d539139360e01b815290516001600160a01b039092169263ca15c87392849263d53913939281810192602092909190829003018186803b158015610ae957600080fd5b505afa158015610afd573d6000803e3d6000fd5b505050506040513d6020811015610b1357600080fd5b5051604080516001600160e01b031960e085901b1681526004810192909252516024808301926020929190829003018186803b158015610b5257600080fd5b505afa158015610b66573d6000803e3d6000fd5b505050506040513d6020811015610b7c57600080fd5b505160011461040a5760405162461bcd60e51b8152600401808060200182810382526029815260200180610e506029913960400191505060405180910390fd5b6004546001600160a01b031690565b6000610c0d83836040518060400160405280601e81526020017f536166654d6174683a207375627472616374696f6e206f766572666c6f770000815250610d0b565b90505b92915050565b600082820183811015610c0d576040805162461bcd60e51b815260206004820152601b60248201527f536166654d6174683a206164646974696f6e206f766572666c6f770000000000604482015290519081900360640190fd5b600082610c7f57506000610c10565b82820282848281610c8c57fe5b0414610c0d5760405162461bcd60e51b8152600401808060200182810382526021815260200180610e2f6021913960400191505060405180910390fd5b6000610c0d83836040518060400160405280601a81526020017f536166654d6174683a206469766973696f6e206279207a65726f000000000000815250610da2565b60008184841115610d9a5760405162461bcd60e51b81526004018080602001828103825283818151815260200191508051906020019080838360005b83811015610d5f578181015183820152602001610d47565b50505050905090810190601f168015610d8c5780820380516001836020036101000a031916815260200191505b509250505060405180910390fd5b505050900390565b60008183610df15760405162461bcd60e51b8152602060048201818152835160248401528351909283926044909101919085019080838360008315610d5f578181015183820152602001610d47565b506000838581610dfd57fe5b049594505050505056fe546f6b656e4d696e7465723a206d696e74657220726f6c657320617265206e6f742066696e616c536166654d6174683a206d756c7469706c69636174696f6e206f766572666c6f77546f6b656e4d696e7465723a206d696e74657220726f6c65206973206e6f74206578636c7573697665546f6b656e4d696e7465723a20646f206e6f7420686176652061206d696e74657220726f6c65a2646970667358221220cc6858c06563e39976a4305b3fb0605ce93efb6095318864cab80185139a34cd64736f6c634300060c0033",
  "immutableReferences": {},
  "source": "// SPDX-License-Identifier: MIT\n\npragma solidity 0.6.12;\n\n//import \"../node_modules/@openzeppelin/contracts/math/SafeMath.sol\";\nimport \"@openzeppelin/contracts/math/SafeMath.sol\";\n\ninterface IToken {\n   function mint(address to, uint256 amount) external;\n   function totalSupply() external view returns (uint256);\n   function MINTER_ROLE() external view returns (bytes32);\n   function MINTER_ADMIN_ROLE() external view returns (bytes32);\n   function getRoleMemberCount(bytes32 role) external view returns (uint256);\n   function hasRole(bytes32 role, address account) external view returns (bool);\n}\n\ncontract Minter {\n    using SafeMath for uint256;\n\n    uint256 constant public TARGET_SUPPLY = 2_200_000_000 * 1e18; // 2.2B tokens\n    uint256 constant public DURATION = 155_520_000; // 1800 days in seconds\n    uint256 private s_initialSupply;\n    uint256 private s_startTime;\n    uint256 private s_minted;\n    address private s_beneficiary;\n    IToken private s_token;\n    bool private s_started;\n\n    event Created(address sender, address token, address beneficiary);\n    event Started(uint256 initialSupply, uint256 timestamp);\n    event Minted(uint256 amount, uint256 timestamp);\n\n    modifier onlyBeneficiary() {\n      require(msg.sender == s_beneficiary, \"not beneficiary\");\n      _;\n    }\n\n    constructor (IToken token, address beneficiary) public {\n        s_token = token;\n        s_beneficiary = beneficiary;\n        emit Created(msg.sender, address(token), beneficiary);\n    }\n\n    receive () external payable {\n        require(false, \"Minter: not accepting ether\");\n    }\n\n    function start() external onlyBeneficiary() {\n        require(s_started == false, \"TokenMinter: already started\");\n        require(s_token.getRoleMemberCount(s_token.MINTER_ADMIN_ROLE()) == 0, \"TokenMinter: minter roles are not final\");\n        minterRoleValidation();\n        s_started = true;\n        s_initialSupply = s_token.totalSupply();\n        s_startTime = block.timestamp;\n        emit Started(s_initialSupply, block.timestamp);\n    }\n    \n    function mint(uint256 amount) public onlyBeneficiary() {\n        require(s_started == true, \"TokenMinter: not started\");\n        require(amount > 0, \"TokenMinter: nothing to mint\");\n        s_minted = s_minted.add(amount);\n        require(s_minted <= mintLimit(), \"TokenMinter: amount too high\");\n        s_token.mint(s_beneficiary, amount);\n        emit Minted(amount, block.timestamp);\n    }\n\n    function mintAll() external {\n        mint(mintLimit().sub(s_minted));\n    }\n\n    function minterRoleValidation() public view {\n        require(s_token.hasRole(s_token.MINTER_ROLE(), address(this)), \"TokenMinter: do not have a minter role\");\n        require(s_token.getRoleMemberCount(s_token.MINTER_ROLE()) == 1, \"TokenMinter: minter role is not exclusive\");\n    }\n\n    function mintLimit() public view returns (uint256) {\n        uint256 maxMinting = TARGET_SUPPLY.sub(s_initialSupply);\n        uint256 currentDuration = block.timestamp.sub(s_startTime);\n        if (currentDuration >= DURATION) {\n            return maxMinting;\n        }\n        uint256 leftDuration = DURATION.sub(currentDuration);\n        return maxMinting.sub(maxMinting.mul(leftDuration).mul(leftDuration).div(DURATION).div(DURATION));\n    }\n\n    function left() public view returns (uint256) {\n        return TARGET_SUPPLY.sub(s_initialSupply).sub(s_minted);\n    }\n\n    function maxCap() external view returns (uint256) {\n        return s_token.totalSupply().add(left());\n    }\n\n    function initialSupply() external view returns (uint256) {\n        return s_initialSupply;\n    }\n\n    function startTime() external view returns (uint256) {\n        return s_startTime;\n    }\n\n    function endTime() external view returns (uint256) {\n        return s_startTime.add(DURATION);\n    }\n\n    function minted() external view returns (uint256) {\n        return s_minted;\n    }\n\n    function beneficiary() external view returns (address) {\n        return s_beneficiary;\n    }\n\n    function token() external view returns (address) {\n        return address(s_token);\n    }\n\n    function started() external view returns (bool) {\n        return s_started;\n    }\n\n}\n",
  "sourcePath": "/Users/orishalom/repositories/ki-eth-token/contracts/Minter.sol",
  "compiler": {
    "name": "solc",
    "version": "0.6.12+commit.27d51765.Emscripten.clang"
  },
  "schemaVersion": "3.3.4",
  "updatedAt": "2022-06-16T09:06:43.325Z",
  "devdoc": {
    "kind": "dev",
    "methods": {},
    "version": 1
  },
  "userdoc": {
    "kind": "user",
    "methods": {},
    "version": 1
  }
}