{
  "contractName": "Pool",
  "abi": [
    {
      "inputs": [
        {
          "internalType": "address",
          "name": "_tokenContract",
          "type": "address"
        }
      ],
      "stateMutability": "nonpayable",
      "type": "constructor"
    },
    {
      "anonymous": false,
      "inputs": [
        {
          "indexed": true,
          "internalType": "address",
          "name": "previousOwner",
          "type": "address"
        },
        {
          "indexed": true,
          "internalType": "address",
          "name": "newOwner",
          "type": "address"
        }
      ],
      "name": "OwnershipTransferred",
      "type": "event"
    },
    {
      "inputs": [],
      "name": "claimOwnership",
      "outputs": [],
      "stateMutability": "nonpayable",
      "type": "function"
    },
    {
      "inputs": [],
      "name": "owner",
      "outputs": [
        {
          "internalType": "address",
          "name": "",
          "type": "address"
        }
      ],
      "stateMutability": "view",
      "type": "function",
      "constant": true
    },
    {
      "inputs": [],
      "name": "pendingOwner",
      "outputs": [
        {
          "internalType": "address",
          "name": "",
          "type": "address"
        }
      ],
      "stateMutability": "view",
      "type": "function",
      "constant": true
    },
    {
      "inputs": [
        {
          "internalType": "address",
          "name": "newOwner",
          "type": "address"
        }
      ],
      "name": "transferOwnership",
      "outputs": [],
      "stateMutability": "nonpayable",
      "type": "function"
    },
    {
      "inputs": [
        {
          "internalType": "uint256",
          "name": "_blocks",
          "type": "uint256"
        }
      ],
      "name": "setReleaseDelay",
      "outputs": [],
      "stateMutability": "nonpayable",
      "type": "function"
    },
    {
      "inputs": [
        {
          "internalType": "uint256",
          "name": "_tokens",
          "type": "uint256"
        }
      ],
      "name": "setMaxTokensPerIssueCall",
      "outputs": [],
      "stateMutability": "nonpayable",
      "type": "function"
    },
    {
      "inputs": [
        {
          "internalType": "address",
          "name": "_to",
          "type": "address"
        },
        {
          "internalType": "uint256",
          "name": "_amount",
          "type": "uint256"
        },
        {
          "internalType": "bytes32",
          "name": "_secretHash",
          "type": "bytes32"
        }
      ],
      "name": "issueTokens",
      "outputs": [],
      "stateMutability": "nonpayable",
      "type": "function"
    },
    {
      "inputs": [
        {
          "internalType": "address payable",
          "name": "_etherWallet",
          "type": "address"
        }
      ],
      "name": "setEtherWallet",
      "outputs": [],
      "stateMutability": "nonpayable",
      "type": "function"
    },
    {
      "inputs": [
        {
          "internalType": "address",
          "name": "_tokenWallet",
          "type": "address"
        }
      ],
      "name": "setTokenWallet",
      "outputs": [],
      "stateMutability": "nonpayable",
      "type": "function"
    },
    {
      "inputs": [
        {
          "internalType": "uint256",
          "name": "_value",
          "type": "uint256"
        }
      ],
      "name": "transferEther",
      "outputs": [],
      "stateMutability": "nonpayable",
      "type": "function"
    },
    {
      "inputs": [
        {
          "internalType": "uint256",
          "name": "_value",
          "type": "uint256"
        }
      ],
      "name": "transferTokens",
      "outputs": [],
      "stateMutability": "nonpayable",
      "type": "function"
    },
    {
      "inputs": [
        {
          "internalType": "address",
          "name": "_account",
          "type": "address"
        }
      ],
      "name": "accountNonce",
      "outputs": [
        {
          "internalType": "uint256",
          "name": "",
          "type": "uint256"
        }
      ],
      "stateMutability": "view",
      "type": "function",
      "constant": true
    },
    {
      "inputs": [
        {
          "internalType": "address",
          "name": "_account",
          "type": "address"
        }
      ],
      "name": "accountBalance",
      "outputs": [
        {
          "internalType": "uint256",
          "name": "",
          "type": "uint256"
        }
      ],
      "stateMutability": "view",
      "type": "function",
      "constant": true
    },
    {
      "inputs": [
        {
          "internalType": "address",
          "name": "_from",
          "type": "address"
        },
        {
          "internalType": "uint256",
          "name": "_value",
          "type": "uint256"
        }
      ],
      "name": "generatePaymentMessage",
      "outputs": [
        {
          "internalType": "bytes",
          "name": "",
          "type": "bytes"
        }
      ],
      "stateMutability": "view",
      "type": "function",
      "constant": true
    },
    {
      "inputs": [
        {
          "internalType": "address",
          "name": "_from",
          "type": "address"
        },
        {
          "internalType": "uint256",
          "name": "_value",
          "type": "uint256"
        },
        {
          "internalType": "uint8",
          "name": "_v",
          "type": "uint8"
        },
        {
          "internalType": "bytes32",
          "name": "_r",
          "type": "bytes32"
        },
        {
          "internalType": "bytes32",
          "name": "_s",
          "type": "bytes32"
        }
      ],
      "name": "validatePaymentMessage",
      "outputs": [
        {
          "internalType": "bool",
          "name": "",
          "type": "bool"
        }
      ],
      "stateMutability": "view",
      "type": "function",
      "constant": true
    },
    {
      "inputs": [
        {
          "internalType": "address",
          "name": "_from",
          "type": "address"
        },
        {
          "internalType": "uint256",
          "name": "_value",
          "type": "uint256"
        },
        {
          "internalType": "uint8",
          "name": "_v",
          "type": "uint8"
        },
        {
          "internalType": "bytes32",
          "name": "_r",
          "type": "bytes32"
        },
        {
          "internalType": "bytes32",
          "name": "_s",
          "type": "bytes32"
        }
      ],
      "name": "payment",
      "outputs": [],
      "stateMutability": "nonpayable",
      "type": "function"
    },
    {
      "inputs": [
        {
          "internalType": "address",
          "name": "_for",
          "type": "address"
        },
        {
          "internalType": "bytes32",
          "name": "_secretHash",
          "type": "bytes32"
        }
      ],
      "name": "generateAcceptTokensMessage",
      "outputs": [
        {
          "internalType": "bytes",
          "name": "",
          "type": "bytes"
        }
      ],
      "stateMutability": "view",
      "type": "function",
      "constant": true
    },
    {
      "inputs": [
        {
          "internalType": "address",
          "name": "_for",
          "type": "address"
        },
        {
          "internalType": "bytes32",
          "name": "_secretHash",
          "type": "bytes32"
        },
        {
          "internalType": "uint8",
          "name": "_v",
          "type": "uint8"
        },
        {
          "internalType": "bytes32",
          "name": "_r",
          "type": "bytes32"
        },
        {
          "internalType": "bytes32",
          "name": "_s",
          "type": "bytes32"
        }
      ],
      "name": "validateAcceptTokensMessage",
      "outputs": [
        {
          "internalType": "bool",
          "name": "",
          "type": "bool"
        }
      ],
      "stateMutability": "view",
      "type": "function",
      "constant": true
    },
    {
      "inputs": [
        {
          "internalType": "address",
          "name": "_for",
          "type": "address"
        },
        {
          "internalType": "bytes",
          "name": "_secret",
          "type": "bytes"
        },
        {
          "internalType": "uint8",
          "name": "_v",
          "type": "uint8"
        },
        {
          "internalType": "bytes32",
          "name": "_r",
          "type": "bytes32"
        },
        {
          "internalType": "bytes32",
          "name": "_s",
          "type": "bytes32"
        }
      ],
      "name": "acceptTokens",
      "outputs": [],
      "stateMutability": "nonpayable",
      "type": "function"
    },
    {
      "inputs": [],
      "name": "acceptTokens",
      "outputs": [],
      "stateMutability": "nonpayable",
      "type": "function"
    },
    {
      "inputs": [
        {
          "internalType": "address",
          "name": "_manager",
          "type": "address"
        }
      ],
      "name": "setManager",
      "outputs": [],
      "stateMutability": "nonpayable",
      "type": "function"
    },
    {
      "inputs": [],
      "name": "totalSupply",
      "outputs": [
        {
          "internalType": "uint256",
          "name": "",
          "type": "uint256"
        }
      ],
      "stateMutability": "view",
      "type": "function",
      "constant": true
    },
    {
      "inputs": [],
      "name": "availableSupply",
      "outputs": [
        {
          "internalType": "uint256",
          "name": "",
          "type": "uint256"
        }
      ],
      "stateMutability": "view",
      "type": "function",
      "constant": true
    },
    {
      "inputs": [
        {
          "internalType": "uint256",
          "name": "value",
          "type": "uint256"
        }
      ],
      "name": "deposit",
      "outputs": [],
      "stateMutability": "nonpayable",
      "type": "function"
    },
    {
      "inputs": [
        {
          "internalType": "uint256",
          "name": "value",
          "type": "uint256"
        }
      ],
      "name": "postWithdraw",
      "outputs": [],
      "stateMutability": "nonpayable",
      "type": "function"
    },
    {
      "inputs": [],
      "name": "cancelWithdraw",
      "outputs": [],
      "stateMutability": "nonpayable",
      "type": "function"
    },
    {
      "inputs": [],
      "name": "withdraw",
      "outputs": [],
      "stateMutability": "nonpayable",
      "type": "function"
    }
  ],
  "bytecode": "0x608060405234801561001057600080fd5b506040516135573803806135578339818101604052602081101561003357600080fd5b8101908080519060200190929190505050336000806101000a81548173ffffffffffffffffffffffffffffffffffffffff021916908373ffffffffffffffffffffffffffffffffffffffff16021790555080600260006101000a81548173ffffffffffffffffffffffffffffffffffffffff021916908373ffffffffffffffffffffffffffffffffffffffff16021790555060f060088190555061271060098190555050613471806100e66000396000f3fe608060405234801561001057600080fd5b50600436106101a95760003560e01c8063a4bc35c1116100f9578063d6bd3fc111610097578063ee1f5a7f11610071578063ee1f5a7f146108e9578063f2fde38b1461092d578063f5c89c6f14610971578063fd9a4e611461097b576101a9565b8063d6bd3fc114610818578063d9e4ed0714610846578063e30c3978146108b5576101a9565b8063ac8aa0c0116100d3578063ac8aa0c0146106f6578063b6b55f251461074e578063d0ebdbe71461077c578063d294cb0f146107c0576101a9565b8063a4bc35c114610531578063a621344a146105b6578063abc132f2146105fa576101a9565b806373ffd5b7116101665780637ecc2b56116101405780637ecc2b56146104505780637fdbc2841461046e57806384b76824146104f35780638da5cb5b146104fd576101a9565b806373ffd5b7146103c65780637581c27a146103f45780637e060b5514610422576101a9565b8063106cffe2146101ae57806318160ddd146102065780633ccfd60b1461022457806340b2645d1461022e5780634e71e0c8146102f5578063635123c8146102ff575b600080fd5b6101f0600480360360208110156101c457600080fd5b81019080803573ffffffffffffffffffffffffffffffffffffffff1690602001909291905050506109a9565b6040518082815260200191505060405180910390f35b61020e6109f5565b6040518082815260200191505060405180910390f35b61022c610ac0565b005b61027a6004803603604081101561024457600080fd5b81019080803573ffffffffffffffffffffffffffffffffffffffff16906020019092919080359060200190929190505050610e38565b6040518080602001828103825283818151815260200191508051906020019080838360005b838110156102ba57808201518184015260208101905061029f565b50505050905090810190601f1680156102e75780820380516001836020036101000a031916815260200191505b509250505060405180910390f35b6102fd610fd3565b005b61034b6004803603604081101561031557600080fd5b81019080803573ffffffffffffffffffffffffffffffffffffffff169060200190929190803590602001909291905050506111d8565b6040518080602001828103825283818151815260200191508051906020019080838360005b8381101561038b578082015181840152602081019050610370565b50505050905090810190601f1680156103b85780820380516001836020036101000a031916815260200191505b509250505060405180910390f35b6103f2600480360360208110156103dc57600080fd5b810190808035906020019092919050505061130a565b005b6104206004803603602081101561040a57600080fd5b8101908080359060200190929190505050611554565b005b61044e6004803603602081101561043857600080fd5b810190808035906020019092919050505061161f565b005b610458611762565b6040518082815260200191505060405180910390f35b6104db600480360360a081101561048457600080fd5b81019080803573ffffffffffffffffffffffffffffffffffffffff16906020019092919080359060200190929190803560ff1690602001909291908035906020019092919080359060200190929190505050611835565b60405180821515815260200191505060405180910390f35b6104fb6118f7565b005b610505611989565b604051808273ffffffffffffffffffffffffffffffffffffffff16815260200191505060405180910390f35b61059e600480360360a081101561054757600080fd5b81019080803573ffffffffffffffffffffffffffffffffffffffff16906020019092919080359060200190929190803560ff16906020019092919080359060200190929190803590602001909291905050506119ad565b60405180821515815260200191505060405180910390f35b6105f8600480360360208110156105cc57600080fd5b81019080803573ffffffffffffffffffffffffffffffffffffffff169060200190929190505050611a6f565b005b6106f4600480360360a081101561061057600080fd5b81019080803573ffffffffffffffffffffffffffffffffffffffff1690602001909291908035906020019064010000000081111561064d57600080fd5b82018360208201111561065f57600080fd5b8035906020019184600183028401116401000000008311171561068157600080fd5b91908080601f016020809104026020016040519081016040528093929190818152602001838380828437600081840152601f19601f820116905080830192505050505050509192919290803560ff1690602001909291908035906020019092919080359060200190929190505050611b74565b005b61074c6004803603606081101561070c57600080fd5b81019080803573ffffffffffffffffffffffffffffffffffffffff1690602001909291908035906020019092919080359060200190929190505050611de1565b005b61077a6004803603602081101561076457600080fd5b810190808035906020019092919050505061214c565b005b6107be6004803603602081101561079257600080fd5b81019080803573ffffffffffffffffffffffffffffffffffffffff1690602001909291905050506123f3565b005b610802600480360360208110156107d657600080fd5b81019080803573ffffffffffffffffffffffffffffffffffffffff1690602001909291905050506124f8565b6040518082815260200191505060405180910390f35b6108446004803603602081101561082e57600080fd5b8101908080359060200190929190505050612544565b005b6108b3600480360360a081101561085c57600080fd5b81019080803573ffffffffffffffffffffffffffffffffffffffff16906020019092919080359060200190929190803560ff1690602001909291908035906020019092919080359060200190929190505050612706565b005b6108bd6129ed565b604051808273ffffffffffffffffffffffffffffffffffffffff16815260200191505060405180910390f35b61092b600480360360208110156108ff57600080fd5b81019080803573ffffffffffffffffffffffffffffffffffffffff169060200190929190505050612a13565b005b61096f6004803603602081101561094357600080fd5b81019080803573ffffffffffffffffffffffffffffffffffffffff169060200190929190505050612b18565b005b610979612c1d565b005b6109a76004803603602081101561099157600080fd5b8101908080359060200190929190505050612c28565b005b6000600a60008373ffffffffffffffffffffffffffffffffffffffff1673ffffffffffffffffffffffffffffffffffffffff168152602001908152602001600020600001549050919050565b6000600260009054906101000a900473ffffffffffffffffffffffffffffffffffffffff1673ffffffffffffffffffffffffffffffffffffffff166370a08231306040518263ffffffff1660e01b8152600401808273ffffffffffffffffffffffffffffffffffffffff16815260200191505060206040518083038186803b158015610a8057600080fd5b505afa158015610a94573d6000803e3d6000fd5b505050506040513d6020811015610aaa57600080fd5b8101908080519060200190929190505050905090565b6000600a60003373ffffffffffffffffffffffffffffffffffffffff1673ffffffffffffffffffffffffffffffffffffffff1681526020019081526020016000206004015411610b78576040517f08c379a00000000000000000000000000000000000000000000000000000000081526004018080602001828103825260138152602001807f6e6f20776974686472617720726571756573740000000000000000000000000081525060200191505060405180910390fd5b43600a60003373ffffffffffffffffffffffffffffffffffffffff1673ffffffffffffffffffffffffffffffffffffffff1681526020019081526020016000206004015410610c2f576040517f08c379a00000000000000000000000000000000000000000000000000000000081526004018080602001828103825260088152602001807f746f6f20736f6f6e00000000000000000000000000000000000000000000000081525060200191505060405180910390fd5b6000600a60003373ffffffffffffffffffffffffffffffffffffffff1673ffffffffffffffffffffffffffffffffffffffff1681526020019081526020016000206003015490506000600a60003373ffffffffffffffffffffffffffffffffffffffff1673ffffffffffffffffffffffffffffffffffffffff168152602001908152602001600020600301819055506000600a60003373ffffffffffffffffffffffffffffffffffffffff1673ffffffffffffffffffffffffffffffffffffffff1681526020019081526020016000206004018190555080600a60003373ffffffffffffffffffffffffffffffffffffffff1673ffffffffffffffffffffffffffffffffffffffff1681526020019081526020016000206001016000828254039250508190555080600360008282540392505081905550600260009054906101000a900473ffffffffffffffffffffffffffffffffffffffff1673ffffffffffffffffffffffffffffffffffffffff1663a9059cbb33836040518363ffffffff1660e01b8152600401808373ffffffffffffffffffffffffffffffffffffffff16815260200182815260200192505050602060405180830381600087803b158015610df957600080fd5b505af1158015610e0d573d6000803e3d6000fd5b505050506040513d6020811015610e2357600080fd5b81019080805190602001909291905050505050565b6060610e426133e0565b600a60008573ffffffffffffffffffffffffffffffffffffffff1673ffffffffffffffffffffffffffffffffffffffff1681526020019081526020016000206040518060c0016040529081600082015481526020016001820154815260200160028201548152602001600382015481526020016004820154815260200160058201548152505090508281602001511015610f44576040517f08c379a00000000000000000000000000000000000000000000000000000000081526004018080602001828103825260178152602001807f6163636f756e742062616c6e61636520746f6f206c6f7700000000000000000081525060200191505060405180910390fd5b60023082600001518686604051602001808660ff1660f81b81526001018573ffffffffffffffffffffffffffffffffffffffff1660601b81526014018463ffffffff1660e01b81526004018373ffffffffffffffffffffffffffffffffffffffff1660601b81526014018281526020019550505050505060405160208183030381529060405291505092915050565b600160009054906101000a900473ffffffffffffffffffffffffffffffffffffffff1673ffffffffffffffffffffffffffffffffffffffff163373ffffffffffffffffffffffffffffffffffffffff1614611096576040517f08c379a00000000000000000000000000000000000000000000000000000000081526004018080602001828103825260118152602001807f6e6f742070656e64696e67206f776e657200000000000000000000000000000081525060200191505060405180910390fd5b600160009054906101000a900473ffffffffffffffffffffffffffffffffffffffff1673ffffffffffffffffffffffffffffffffffffffff1660008054906101000a900473ffffffffffffffffffffffffffffffffffffffff1673ffffffffffffffffffffffffffffffffffffffff167f8be0079c531659141344cd1fd0a4f28419497f9722a3daafe3b4186f6b6457e060405160405180910390a3600160009054906101000a900473ffffffffffffffffffffffffffffffffffffffff166000806101000a81548173ffffffffffffffffffffffffffffffffffffffff021916908373ffffffffffffffffffffffffffffffffffffffff1602179055506000600160006101000a81548173ffffffffffffffffffffffffffffffffffffffff021916908373ffffffffffffffffffffffffffffffffffffffff160217905550565b606081600a60008573ffffffffffffffffffffffffffffffffffffffff1673ffffffffffffffffffffffffffffffffffffffff1681526020019081526020016000206005015414611291576040517f08c379a00000000000000000000000000000000000000000000000000000000081526004018080602001828103825260118152602001807f77726f6e6720736563726574206861736800000000000000000000000000000081525060200191505060405180910390fd5b6001308385604051602001808560ff1660f81b81526001018473ffffffffffffffffffffffffffffffffffffffff1660601b81526014018381526020018273ffffffffffffffffffffffffffffffffffffffff1660601b8152601401945050505050604051602081830303815290604052905092915050565b60008054906101000a900473ffffffffffffffffffffffffffffffffffffffff1673ffffffffffffffffffffffffffffffffffffffff163373ffffffffffffffffffffffffffffffffffffffff1614806113b15750600560009054906101000a900473ffffffffffffffffffffffffffffffffffffffff1673ffffffffffffffffffffffffffffffffffffffff163373ffffffffffffffffffffffffffffffffffffffff16145b611423576040517f08c379a00000000000000000000000000000000000000000000000000000000081526004018080602001828103825260148152602001807f6e6f74206f776e6572206f72206d616e6167657200000000000000000000000081525060200191505060405180910390fd5b600073ffffffffffffffffffffffffffffffffffffffff16600660009054906101000a900473ffffffffffffffffffffffffffffffffffffffff1673ffffffffffffffffffffffffffffffffffffffff1614156114e8576040517f08c379a00000000000000000000000000000000000000000000000000000000081526004018080602001828103825260148152602001807f65746865722077616c6c6574206e6f742073657400000000000000000000000081525060200191505060405180910390fd5b600660009054906101000a900473ffffffffffffffffffffffffffffffffffffffff1673ffffffffffffffffffffffffffffffffffffffff166108fc829081150290604051600060405180830381858888f19350505050158015611550573d6000803e3d6000fd5b5050565b60008054906101000a900473ffffffffffffffffffffffffffffffffffffffff1673ffffffffffffffffffffffffffffffffffffffff163373ffffffffffffffffffffffffffffffffffffffff1614611615576040517f08c379a00000000000000000000000000000000000000000000000000000000081526004018080602001828103825260098152602001807f6e6f74206f776e6572000000000000000000000000000000000000000000000081525060200191505060405180910390fd5b8060098190555050565b60008054906101000a900473ffffffffffffffffffffffffffffffffffffffff1673ffffffffffffffffffffffffffffffffffffffff163373ffffffffffffffffffffffffffffffffffffffff16146116e0576040517f08c379a00000000000000000000000000000000000000000000000000000000081526004018080602001828103825260098152602001807f6e6f74206f776e6572000000000000000000000000000000000000000000000081525060200191505060405180910390fd5b612d00811115611758576040517f08c379a00000000000000000000000000000000000000000000000000000000081526004018080602001828103825260188152602001807f657865656473206d61782072656c656173652064656c6179000000000000000081525060200191505060405180910390fd5b8060088190555050565b6000600454600354600260009054906101000a900473ffffffffffffffffffffffffffffffffffffffff1673ffffffffffffffffffffffffffffffffffffffff166370a08231306040518263ffffffff1660e01b8152600401808273ffffffffffffffffffffffffffffffffffffffff16815260200191505060206040518083038186803b1580156117f357600080fd5b505afa158015611807573d6000803e3d6000fd5b505050506040513d602081101561181d57600080fd5b81019080805190602001909291905050500303905090565b60008061185161184588886111d8565b80519060200120612f5a565b9050600060018287878760405160008152602001604052604051808581526020018460ff1681526020018381526020018281526020019450505050506020604051602081039080840390855afa1580156118af573d6000803e3d6000fd5b5050506020604051035190508773ffffffffffffffffffffffffffffffffffffffff168173ffffffffffffffffffffffffffffffffffffffff16149250505095945050505050565b6000600a60003373ffffffffffffffffffffffffffffffffffffffff1673ffffffffffffffffffffffffffffffffffffffff168152602001908152602001600020600301819055506000600a60003373ffffffffffffffffffffffffffffffffffffffff1673ffffffffffffffffffffffffffffffffffffffff16815260200190815260200160002060040181905550565b60008054906101000a900473ffffffffffffffffffffffffffffffffffffffff1681565b6000806119c96119bd8888610e38565b80519060200120612f5a565b9050600060018287878760405160008152602001604052604051808581526020018460ff1681526020018381526020018281526020019450505050506020604051602081039080840390855afa158015611a27573d6000803e3d6000fd5b5050506020604051035190508773ffffffffffffffffffffffffffffffffffffffff168173ffffffffffffffffffffffffffffffffffffffff16149250505095945050505050565b60008054906101000a900473ffffffffffffffffffffffffffffffffffffffff1673ffffffffffffffffffffffffffffffffffffffff163373ffffffffffffffffffffffffffffffffffffffff1614611b30576040517f08c379a00000000000000000000000000000000000000000000000000000000081526004018080602001828103825260098152602001807f6e6f74206f776e6572000000000000000000000000000000000000000000000081525060200191505060405180910390fd5b80600760006101000a81548173ffffffffffffffffffffffffffffffffffffffff021916908373ffffffffffffffffffffffffffffffffffffffff16021790555050565b60008054906101000a900473ffffffffffffffffffffffffffffffffffffffff1673ffffffffffffffffffffffffffffffffffffffff163373ffffffffffffffffffffffffffffffffffffffff161480611c1b5750600560009054906101000a900473ffffffffffffffffffffffffffffffffffffffff1673ffffffffffffffffffffffffffffffffffffffff163373ffffffffffffffffffffffffffffffffffffffff16145b611c8d576040517f08c379a00000000000000000000000000000000000000000000000000000000081526004018080602001828103825260148152602001807f6e6f74206f776e6572206f72206d616e6167657200000000000000000000000081525060200191505060405180910390fd5b8380519060200120600a60008773ffffffffffffffffffffffffffffffffffffffff1673ffffffffffffffffffffffffffffffffffffffff1681526020019081526020016000206005015414611d4b576040517f08c379a000000000000000000000000000000000000000000000000000000000815260040180806020018281038252600c8152602001807f77726f6e6720736563726574000000000000000000000000000000000000000081525060200191505060405180910390fd5b611d5f858580519060200120858585611835565b611dd1576040517f08c379a00000000000000000000000000000000000000000000000000000000081526004018080602001828103825260178152602001807f77726f6e67207369676e6174757265206f72206461746100000000000000000081525060200191505060405180910390fd5b611dda85613071565b5050505050565b60008054906101000a900473ffffffffffffffffffffffffffffffffffffffff1673ffffffffffffffffffffffffffffffffffffffff163373ffffffffffffffffffffffffffffffffffffffff161480611e885750600560009054906101000a900473ffffffffffffffffffffffffffffffffffffffff1673ffffffffffffffffffffffffffffffffffffffff163373ffffffffffffffffffffffffffffffffffffffff16145b611efa576040517f08c379a00000000000000000000000000000000000000000000000000000000081526004018080602001828103825260148152602001807f6e6f74206f776e6572206f72206d616e6167657200000000000000000000000081525060200191505060405180910390fd5b611f02611762565b821115611f77576040517f08c379a000000000000000000000000000000000000000000000000000000000815260040180806020018281038252601b8152602001807f6e6f7420656e6f75676820617661696c61626c6520746f6b656e73000000000081525060200191505060405180910390fd5b600954821115611fef576040517f08c379a00000000000000000000000000000000000000000000000000000000081526004018080602001828103825260208152602001807f616d6f756e74206578656564206d617820746f6b656e73207065722063616c6c81525060200191505060405180910390fd5b6000600a60008573ffffffffffffffffffffffffffffffffffffffff1673ffffffffffffffffffffffffffffffffffffffff16815260200190815260200160002060020154905081600a60008673ffffffffffffffffffffffffffffffffffffffff1673ffffffffffffffffffffffffffffffffffffffff16815260200190815260200160002060050181905550828111156120e35782600a60008673ffffffffffffffffffffffffffffffffffffffff1673ffffffffffffffffffffffffffffffffffffffff16815260200190815260200160002060020181905550828103600460008282540192505081905550612146565b828110156121455782600a60008673ffffffffffffffffffffffffffffffffffffffff1673ffffffffffffffffffffffffffffffffffffffff168152602001908152602001600020600201819055508083036004600082825401925050819055505b5b50505050565b80600260009054906101000a900473ffffffffffffffffffffffffffffffffffffffff1673ffffffffffffffffffffffffffffffffffffffff1663dd62ed3e33306040518363ffffffff1660e01b8152600401808373ffffffffffffffffffffffffffffffffffffffff1681526020018273ffffffffffffffffffffffffffffffffffffffff1681526020019250505060206040518083038186803b1580156121f457600080fd5b505afa158015612208573d6000803e3d6000fd5b505050506040513d602081101561221e57600080fd5b810190808051906020019092919050505010156122a3576040517f08c379a00000000000000000000000000000000000000000000000000000000081526004018080602001828103825260178152602001807f455243323020616c6c6f77616e636520746f6f206c6f7700000000000000000081525060200191505060405180910390fd5b600260009054906101000a900473ffffffffffffffffffffffffffffffffffffffff1673ffffffffffffffffffffffffffffffffffffffff166323b872dd3330846040518463ffffffff1660e01b8152600401808473ffffffffffffffffffffffffffffffffffffffff1681526020018373ffffffffffffffffffffffffffffffffffffffff1681526020018281526020019350505050602060405180830381600087803b15801561235457600080fd5b505af1158015612368573d6000803e3d6000fd5b505050506040513d602081101561237e57600080fd5b81019080805190602001909291905050505080600a60003373ffffffffffffffffffffffffffffffffffffffff1673ffffffffffffffffffffffffffffffffffffffff168152602001908152602001600020600101600082825401925050819055508060036000828254019250508190555050565b60008054906101000a900473ffffffffffffffffffffffffffffffffffffffff1673ffffffffffffffffffffffffffffffffffffffff163373ffffffffffffffffffffffffffffffffffffffff16146124b4576040517f08c379a00000000000000000000000000000000000000000000000000000000081526004018080602001828103825260098152602001807f6e6f74206f776e6572000000000000000000000000000000000000000000000081525060200191505060405180910390fd5b80600560006101000a81548173ffffffffffffffffffffffffffffffffffffffff021916908373ffffffffffffffffffffffffffffffffffffffff16021790555050565b6000600a60008373ffffffffffffffffffffffffffffffffffffffff1673ffffffffffffffffffffffffffffffffffffffff168152602001908152602001600020600101549050919050565b80600a60003373ffffffffffffffffffffffffffffffffffffffff1673ffffffffffffffffffffffffffffffffffffffff1681526020019081526020016000206001015410156125fc576040517f08c379a00000000000000000000000000000000000000000000000000000000081526004018080602001828103825260118152602001807f6e6f7420656e6f75676820746f6b656e7300000000000000000000000000000081525060200191505060405180910390fd5b60008111612672576040517f08c379a000000000000000000000000000000000000000000000000000000000815260040180806020018281038252600f8152602001807f63616e6e6f74207769746864726177000000000000000000000000000000000081525060200191505060405180910390fd5b80600a60003373ffffffffffffffffffffffffffffffffffffffff1673ffffffffffffffffffffffffffffffffffffffff1681526020019081526020016000206003018190555060f04301600a60003373ffffffffffffffffffffffffffffffffffffffff1673ffffffffffffffffffffffffffffffffffffffff1681526020019081526020016000206004018190555050565b60008054906101000a900473ffffffffffffffffffffffffffffffffffffffff1673ffffffffffffffffffffffffffffffffffffffff163373ffffffffffffffffffffffffffffffffffffffff1614806127ad5750600560009054906101000a900473ffffffffffffffffffffffffffffffffffffffff1673ffffffffffffffffffffffffffffffffffffffff163373ffffffffffffffffffffffffffffffffffffffff16145b61281f576040517f08c379a00000000000000000000000000000000000000000000000000000000081526004018080602001828103825260148152602001807f6e6f74206f776e6572206f72206d616e6167657200000000000000000000000081525060200191505060405180910390fd5b61282c85858585856119ad565b61289e576040517f08c379a00000000000000000000000000000000000000000000000000000000081526004018080602001828103825260178152602001807f77726f6e67207369676e6174757265206f72206461746100000000000000000081525060200191505060405180910390fd5b42600a60008773ffffffffffffffffffffffffffffffffffffffff1673ffffffffffffffffffffffffffffffffffffffff16815260200190815260200160002060000154141561293e576001600a60008773ffffffffffffffffffffffffffffffffffffffff1673ffffffffffffffffffffffffffffffffffffffff16815260200190815260200160002060000160008282540192505081905550612986565b42600a60008773ffffffffffffffffffffffffffffffffffffffff1673ffffffffffffffffffffffffffffffffffffffff168152602001908152602001600020600001819055505b83600a60008773ffffffffffffffffffffffffffffffffffffffff1673ffffffffffffffffffffffffffffffffffffffff16815260200190815260200160002060010160008282540392505081905550836003600082825403925050819055505050505050565b600160009054906101000a900473ffffffffffffffffffffffffffffffffffffffff1681565b60008054906101000a900473ffffffffffffffffffffffffffffffffffffffff1673ffffffffffffffffffffffffffffffffffffffff163373ffffffffffffffffffffffffffffffffffffffff1614612ad4576040517f08c379a00000000000000000000000000000000000000000000000000000000081526004018080602001828103825260098152602001807f6e6f74206f776e6572000000000000000000000000000000000000000000000081525060200191505060405180910390fd5b80600660006101000a81548173ffffffffffffffffffffffffffffffffffffffff021916908373ffffffffffffffffffffffffffffffffffffffff16021790555050565b60008054906101000a900473ffffffffffffffffffffffffffffffffffffffff1673ffffffffffffffffffffffffffffffffffffffff163373ffffffffffffffffffffffffffffffffffffffff1614612bd9576040517f08c379a00000000000000000000000000000000000000000000000000000000081526004018080602001828103825260098152602001807f6e6f74206f776e6572000000000000000000000000000000000000000000000081525060200191505060405180910390fd5b80600160006101000a81548173ffffffffffffffffffffffffffffffffffffffff021916908373ffffffffffffffffffffffffffffffffffffffff16021790555050565b612c2633613071565b565b60008054906101000a900473ffffffffffffffffffffffffffffffffffffffff1673ffffffffffffffffffffffffffffffffffffffff163373ffffffffffffffffffffffffffffffffffffffff161480612ccf5750600560009054906101000a900473ffffffffffffffffffffffffffffffffffffffff1673ffffffffffffffffffffffffffffffffffffffff163373ffffffffffffffffffffffffffffffffffffffff16145b612d41576040517f08c379a00000000000000000000000000000000000000000000000000000000081526004018080602001828103825260148152602001807f6e6f74206f776e6572206f72206d616e6167657200000000000000000000000081525060200191505060405180910390fd5b600073ffffffffffffffffffffffffffffffffffffffff16600760009054906101000a900473ffffffffffffffffffffffffffffffffffffffff1673ffffffffffffffffffffffffffffffffffffffff161415612e06576040517f08c379a00000000000000000000000000000000000000000000000000000000081526004018080602001828103825260148152602001807f746f6b656e2077616c6c6574206e6f742073657400000000000000000000000081525060200191505060405180910390fd5b612e0e611762565b811115612e66576040517f08c379a000000000000000000000000000000000000000000000000000000000815260040180806020018281038252602281526020018061341a6022913960400191505060405180910390fd5b600260009054906101000a900473ffffffffffffffffffffffffffffffffffffffff1673ffffffffffffffffffffffffffffffffffffffff1663a9059cbb600760009054906101000a900473ffffffffffffffffffffffffffffffffffffffff16836040518363ffffffff1660e01b8152600401808373ffffffffffffffffffffffffffffffffffffffff16815260200182815260200192505050602060405180830381600087803b158015612f1b57600080fd5b505af1158015612f2f573d6000803e3d6000fd5b505050506040513d6020811015612f4557600080fd5b81019080805190602001909291905050505050565b60006060612f6783613224565b905060606040518060400160405280601c81526020017f19457468657265756d205369676e6564204d6573736167653a0a363400000000815250905080826040516020018083805190602001908083835b60208310612fdb5780518252602082019150602081019050602083039250612fb8565b6001836020036101000a03801982511681845116808217855250505050505090500182805190602001908083835b6020831061302c5780518252602082019150602081019050602083039250613009565b6001836020036101000a038019825116818451168082178552505050505050905001925050506040516020818303038152906040528051906020012092505050919050565b6000600a60008373ffffffffffffffffffffffffffffffffffffffff1673ffffffffffffffffffffffffffffffffffffffff1681526020019081526020016000206002015490506000811161312e576040517f08c379a00000000000000000000000000000000000000000000000000000000081526004018080602001828103825260118152602001807f6e6f2070656e64696e6720746f6b656e7300000000000000000000000000000081525060200191505060405180910390fd5b6000600a60008473ffffffffffffffffffffffffffffffffffffffff1673ffffffffffffffffffffffffffffffffffffffff1681526020019081526020016000206002018190555080600a60008473ffffffffffffffffffffffffffffffffffffffff1673ffffffffffffffffffffffffffffffffffffffff168152602001908152602001600020600101600082825401925050819055506000801b600a60008473ffffffffffffffffffffffffffffffffffffffff1673ffffffffffffffffffffffffffffffffffffffff16815260200190815260200160002060050181905550806004600082825403925050819055505050565b606080604067ffffffffffffffff8111801561323f57600080fd5b506040519080825280601f01601f1916602001820160405280156132725781602001600182028036833780820191505090505b50905060005b602081101561336157600084826020811061328f57fe5b1a60f81b9050600060108260f81c60ff16816132a757fe5b0460f81b905060008160f81c6010028360f81c0360f81b90506132c98261336b565b8585600202815181106132d857fe5b60200101907effffffffffffffffffffffffffffffffffffffffffffffffffffffffffffff1916908160001a9053506133108161336b565b85600186600202018151811061332257fe5b60200101907effffffffffffffffffffffffffffffffffffffffffffffffffffffffffffff1916908160001a9053505050508080600101915050613278565b5080915050919050565b6000600a60f81b7effffffffffffffffffffffffffffffffffffffffffffffffffffffffffffff1916827effffffffffffffffffffffffffffffffffffffffffffffffffffffffffffff191610156133ce5760308260f81c0160f81b90506133db565b60578260f81c0160f81b90505b919050565b6040518060c00160405280600081526020016000815260200160008152602001600081526020016000815260200160008019168152509056fe76616c7565206c6172676574207468616e20617661696c61626c6520746f6b656e73a2646970667358221220556f3a8519de7d62719838182508a55c8d608ade27dbdc80c2c430ecb83c91af64736f6c634300060c0033",
  "source": "// SPDX-License-Identifier: MIT\npragma solidity 0.6.12;\n\nimport \"./IERC20.sol\";\nimport \"./Claimable.sol\";\n\ncontract Pool is Claimable {\n\n    address private tokenContract;\n    uint256 private minSupply;\n    uint256 private pendingSupply;\n    \n    address private manager;\n    address payable private etherWallet;\n    address private tokenWallet;\n    uint256 private releaseDelay;\n    uint256 constant private MAX_RELEASE_DELAY = 11_520; // about 48h\n    uint256 private maxTokensPerIssueCall;\n\n    struct Account {\n        uint256 nonce;  \n        uint256 balance;\n        uint256 pending;\n        uint256 withdraw;\n        uint256 release;\n        bytes32 secret;\n    }\n\n    mapping(address => Account) private accounts;\n\n    constructor(address _tokenContract) public {\n        tokenContract = _tokenContract;\n        releaseDelay = 240;\n        maxTokensPerIssueCall = 10000;\n    }\n\n    modifier onlyAdmins() {\n        require(msg.sender == owner || msg.sender == manager, \"not owner or manager\");\n        _;\n    }\n\n    function setReleaseDelay(uint256 _blocks) public onlyOwner() {\n        require(_blocks <= MAX_RELEASE_DELAY, \"exeeds max release delay\");\n        releaseDelay = _blocks;\n    }\n\n    function setMaxTokensPerIssueCall(uint256 _tokens) public onlyOwner() {\n        maxTokensPerIssueCall = _tokens;\n    }\n\n    function issueTokens(address _to, uint256 _amount, bytes32 _secretHash) public onlyAdmins() {\n        require(_amount <= availableSupply(), \"not enough available tokens\");\n        require(_amount <= maxTokensPerIssueCall, \"amount exeed max tokens per call\");\n        uint256 _currentAmount = accounts[_to].pending;\n        accounts[_to].secret = _secretHash;\n        if (_currentAmount > _amount) {\n            accounts[_to].pending = _amount;\n            pendingSupply += _currentAmount - _amount;\n        } else if (_currentAmount < _amount) {\n            accounts[_to].pending = _amount;\n            pendingSupply += _amount - _currentAmount;\n        }\n    }\n\n    function _acceptTokens(address _account) internal {\n        uint256 _pending = accounts[_account].pending;\n        require(_pending > 0, \"no pending tokens\");\n        accounts[_account].pending = 0;\n        accounts[_account].balance += _pending;\n        accounts[_account].secret = 0;\n        pendingSupply -= _pending;\n    }\n\n    function acceptTokens() public {\n        _acceptTokens(msg.sender);\n    }\n\n    function setEtherWallet(address payable _etherWallet) public onlyOwner() {\n        etherWallet = _etherWallet;\n    }\n\n    function setTokenWallet(address _tokenWallet) public onlyOwner() {\n        tokenWallet = _tokenWallet;\n    }\n\n    function transferEther(uint256 _value) public onlyAdmins() {\n        require(etherWallet != address(0), \"ether wallet not set\");\n        etherWallet.transfer(_value);\n    }\n\n    function transferTokens(uint256 _value) public onlyAdmins() {\n        require(tokenWallet != address(0), \"token wallet not set\");\n        require(_value <= availableSupply(), \"value larget than available tokens\");\n        ERC20(tokenContract).transfer(tokenWallet, _value);\n    }\n\n    function accountNonce(address _account) public view returns (uint256) {\n        return accounts[_account].nonce; \n    }\n\n    function accountBalance(address _account) public view returns (uint256) {\n        return accounts[_account].balance; \n    }\n\n    function generatePaymentMessage(address _from, uint256 _value) public view returns (bytes memory) {\n        Account memory _account = accounts[_from]; \n        require(_account.balance >= _value, \"account balnace too low\");\n        return abi.encodePacked(\n                uint8(0x2),\n                this,\n                uint32(_account.nonce),\n                _from,\n                _value\n        );\n    }\n\n    function validatePaymentMessage(address _from, uint256 _value, uint8 _v, bytes32 _r, bytes32 _s) public view returns (bool) {\n        bytes32 message  = _messageToRecover(keccak256(generatePaymentMessage(_from, _value)));\n        address addr = ecrecover(message, _v, _r, _s);\n        return addr == _from;      \n    }\n\n    function payment(address _from, uint256 _value, uint8 _v, bytes32 _r, bytes32 _s) public onlyAdmins() {\n        require(validatePaymentMessage(_from, _value, _v, _r, _s), \"wrong signature or data\");\n        if (accounts[_from].nonce == block.timestamp) {\n            accounts[_from].nonce += 1;\n        } else {\n            accounts[_from].nonce = block.timestamp;\n        }\n        accounts[_from]. balance -= _value;\n        minSupply -= _value;\n    }\n\n    function generateAcceptTokensMessage(address _for, bytes32 _secretHash) public view returns (bytes memory) {\n        require(accounts[_for].secret == _secretHash, \"wrong secret hash\");\n        return  abi.encodePacked(\n                uint8(0x1),\n                this,\n                _secretHash,\n                _for\n        );\n    }\n\n    function validateAcceptTokensMessage(address _for, bytes32 _secretHash, uint8 _v, bytes32 _r, bytes32 _s) public view returns (bool) {\n        bytes32 message  = _messageToRecover(keccak256(generateAcceptTokensMessage(_for, _secretHash)));\n        address addr = ecrecover(message, _v, _r, _s);\n        return addr == _for;\n    }\n\n    function acceptTokens(address _for, bytes memory _secret, uint8 _v, bytes32 _r, bytes32 _s) public onlyAdmins() {\n        require(accounts[_for].secret == keccak256(_secret), \"wrong secret\");\n        require(validateAcceptTokensMessage(_for, keccak256(_secret), _v, _r ,_s), \"wrong signature or data\");\n        _acceptTokens(_for);\n    }\n\n    function setManager(address _manager) public onlyOwner() {\n        manager = _manager; \n    }\n  \n    function totalSupply() view public returns (uint256) {\n        return ERC20(tokenContract).balanceOf(address(this));\n    }\n\n    function availableSupply() view public returns (uint256) {\n        return ERC20(tokenContract).balanceOf(address(this)) - minSupply - pendingSupply;\n    }\n\n    function deposit(uint256 value) public {\n        require(ERC20(tokenContract).allowance(msg.sender, address(this)) >= value, \"ERC20 allowance too low\");\n        ERC20(tokenContract).transferFrom(msg.sender, address(this), value);\n        accounts[msg.sender].balance += value;\n        minSupply += value;\n    }\n\n    function postWithdraw(uint256 value) public {\n        require(accounts[msg.sender].balance >= value, \"not enough tokens\");\n        require(value > 0, \"cannot withdraw\");\n        accounts[msg.sender].withdraw = value;\n        accounts[msg.sender].release = block.number + 240;\n    }\n\n    function cancelWithdraw() public {\n        accounts[msg.sender].withdraw = 0;\n        accounts[msg.sender].release = 0;\n    }\n\n    function withdraw() public {\n        require(accounts[msg.sender].release > 0, \"no withdraw request\");\n        require(accounts[msg.sender].release < block.number, \"too soon\");\n        uint256 value = accounts[msg.sender].withdraw;\n        accounts[msg.sender].withdraw = 0;\n        accounts[msg.sender].release = 0;\n        accounts[msg.sender].balance -= value;\n        minSupply -= value;\n        ERC20(tokenContract).transfer(msg.sender, value);\n    }\n\n    function _messageToRecover(bytes32 hashedUnsignedMessage) private pure returns (bytes32)\n    {\n        bytes memory unsignedMessageBytes = _hashToAscii(\n            hashedUnsignedMessage\n        );\n        bytes memory prefix = \"\\x19Ethereum Signed Message:\\n64\";\n        return keccak256(abi.encodePacked(prefix, unsignedMessageBytes));\n    }\n\n    function _hashToAscii(bytes32 hash) private pure returns (bytes memory) {\n        bytes memory s = new bytes(64);\n        for (uint i = 0; i < 32; i++) {\n            byte  b = hash[i];\n            byte hi = byte(uint8(b) / 16);\n            byte lo = byte(uint8(b) - 16 * uint8(hi));\n            s[2*i] = _char(hi);\n            s[2*i+1] = _char(lo);\n        }\n        return s;\n    }\n\n    function _char(byte b) private pure returns (byte c) {\n        if (b < byte(uint8(10))) {\n            return byte(uint8(b) + 0x30);\n        } else {\n            return byte(uint8(b) + 0x57);\n        }\n    }\n\n}",
  "sourcePath": "/home/tal/code/kirobo/ki-eth-token/contracts/Pool.sol",
  "compiler": {
    "name": "solc",
    "version": "0.6.12+commit.27d51765.Emscripten.clang"
  },
  "schemaVersion": "3.0.23",
  "updatedAt": "2020-08-02T19:27:00.317Z",
  "networkType": "ethereum",
  "devdoc": {
    "kind": "dev",
    "methods": {
      "claimOwnership()": {
        "details": "Allows the pendingOwner address to finalize the transfer."
      },
      "transferOwnership(address)": {
        "details": "Allows the current owner to set the pendingOwner address.",
        "params": {
          "newOwner": "The address to transfer ownership to."
        }
      }
    },
    "version": 1
  },
  "userdoc": {
    "kind": "user",
    "methods": {},
    "version": 1
  }
}