{
  "contractName": "Pool",
  "abi": [
    {
      "inputs": [
        {
          "internalType": "address",
          "name": "tokenContract",
          "type": "address"
        }
      ],
      "stateMutability": "nonpayable",
      "type": "constructor"
    },
    {
      "anonymous": false,
      "inputs": [
        {
          "indexed": true,
          "internalType": "address",
          "name": "account",
          "type": "address"
        },
        {
          "indexed": false,
          "internalType": "uint256",
          "name": "value",
          "type": "uint256"
        }
      ],
      "name": "Deposit",
      "type": "event"
    },
    {
      "anonymous": false,
      "inputs": [
        {
          "indexed": true,
          "internalType": "address",
          "name": "to",
          "type": "address"
        },
        {
          "indexed": false,
          "internalType": "uint256",
          "name": "value",
          "type": "uint256"
        }
      ],
      "name": "EtherTransfered",
      "type": "event"
    },
    {
      "anonymous": false,
      "inputs": [
        {
          "indexed": false,
          "internalType": "address",
          "name": "from",
          "type": "address"
        },
        {
          "indexed": false,
          "internalType": "address",
          "name": "to",
          "type": "address"
        }
      ],
      "name": "ManagerChanged",
      "type": "event"
    },
    {
      "anonymous": false,
      "inputs": [
        {
          "indexed": false,
          "internalType": "uint256",
          "name": "from",
          "type": "uint256"
        },
        {
          "indexed": false,
          "internalType": "uint256",
          "name": "to",
          "type": "uint256"
        }
      ],
      "name": "MaxTokensPerBlockChanged",
      "type": "event"
    },
    {
      "anonymous": false,
      "inputs": [
        {
          "indexed": false,
          "internalType": "uint256",
          "name": "from",
          "type": "uint256"
        },
        {
          "indexed": false,
          "internalType": "uint256",
          "name": "to",
          "type": "uint256"
        }
      ],
      "name": "MaxTokensPerIssueChanged",
      "type": "event"
    },
    {
      "anonymous": false,
      "inputs": [
        {
          "indexed": true,
          "internalType": "address",
          "name": "previousOwner",
          "type": "address"
        },
        {
          "indexed": true,
          "internalType": "address",
          "name": "newOwner",
          "type": "address"
        }
      ],
      "name": "OwnershipTransferred",
      "type": "event"
    },
    {
      "anonymous": false,
      "inputs": [
        {
          "indexed": true,
          "internalType": "address",
          "name": "account",
          "type": "address"
        },
        {
          "indexed": false,
          "internalType": "uint256",
          "name": "value",
          "type": "uint256"
        }
      ],
      "name": "Payment",
      "type": "event"
    },
    {
      "anonymous": false,
      "inputs": [
        {
          "indexed": false,
          "internalType": "uint256",
          "name": "from",
          "type": "uint256"
        },
        {
          "indexed": false,
          "internalType": "uint256",
          "name": "to",
          "type": "uint256"
        }
      ],
      "name": "ReleaseDelayChanged",
      "type": "event"
    },
    {
      "anonymous": false,
      "inputs": [
        {
          "indexed": true,
          "internalType": "address",
          "name": "account",
          "type": "address"
        },
        {
          "indexed": false,
          "internalType": "bool",
          "name": "directCall",
          "type": "bool"
        }
      ],
      "name": "TokensAccepted",
      "type": "event"
    },
    {
      "anonymous": false,
      "inputs": [
        {
          "indexed": true,
          "internalType": "address",
          "name": "account",
          "type": "address"
        },
        {
          "indexed": false,
          "internalType": "uint256",
          "name": "value",
          "type": "uint256"
        }
      ],
      "name": "TokensDistributed",
      "type": "event"
    },
    {
      "anonymous": false,
      "inputs": [
        {
          "indexed": true,
          "internalType": "address",
          "name": "account",
          "type": "address"
        },
        {
          "indexed": false,
          "internalType": "uint256",
          "name": "value",
          "type": "uint256"
        },
        {
          "indexed": false,
          "internalType": "bytes32",
          "name": "secretHash",
          "type": "bytes32"
        }
      ],
      "name": "TokensIssued",
      "type": "event"
    },
    {
      "anonymous": false,
      "inputs": [
        {
          "indexed": true,
          "internalType": "address",
          "name": "to",
          "type": "address"
        },
        {
          "indexed": false,
          "internalType": "uint256",
          "name": "value",
          "type": "uint256"
        }
      ],
      "name": "TokensTransfered",
      "type": "event"
    },
    {
      "anonymous": false,
      "inputs": [
        {
          "indexed": false,
          "internalType": "address",
          "name": "from",
          "type": "address"
        },
        {
          "indexed": false,
          "internalType": "address",
          "name": "to",
          "type": "address"
        }
      ],
      "name": "WalletChanged",
      "type": "event"
    },
    {
      "anonymous": false,
      "inputs": [
        {
          "indexed": true,
          "internalType": "address",
          "name": "account",
          "type": "address"
        },
        {
          "indexed": false,
          "internalType": "uint256",
          "name": "value",
          "type": "uint256"
        }
      ],
      "name": "Withdrawal",
      "type": "event"
    },
    {
      "anonymous": false,
      "inputs": [
        {
          "indexed": true,
          "internalType": "address",
          "name": "account",
          "type": "address"
        }
      ],
      "name": "WithdrawalCanceled",
      "type": "event"
    },
    {
      "anonymous": false,
      "inputs": [
        {
          "indexed": true,
          "internalType": "address",
          "name": "account",
          "type": "address"
        },
        {
          "indexed": false,
          "internalType": "uint256",
          "name": "value",
          "type": "uint256"
        }
      ],
      "name": "WithdrawalRequested",
      "type": "event"
    },
    {
      "inputs": [],
      "name": "ACCEPT_TYPEHASH",
      "outputs": [
        {
          "internalType": "bytes32",
          "name": "",
          "type": "bytes32"
        }
      ],
      "stateMutability": "view",
      "type": "function"
    },
    {
      "inputs": [],
      "name": "DOMAIN_SEPARATOR",
      "outputs": [
        {
          "internalType": "bytes32",
          "name": "",
          "type": "bytes32"
        }
      ],
      "stateMutability": "view",
      "type": "function"
    },
    {
      "inputs": [],
      "name": "MAX_RELEASE_DELAY",
      "outputs": [
        {
          "internalType": "uint256",
          "name": "",
          "type": "uint256"
        }
      ],
      "stateMutability": "view",
      "type": "function"
    },
    {
      "inputs": [],
      "name": "PAYMENT_TYPEHASH",
      "outputs": [
        {
          "internalType": "bytes32",
          "name": "",
          "type": "bytes32"
        }
      ],
      "stateMutability": "view",
      "type": "function"
    },
    {
      "inputs": [],
      "name": "VERSION",
      "outputs": [
        {
          "internalType": "uint8",
          "name": "",
          "type": "uint8"
        }
      ],
      "stateMutability": "view",
      "type": "function"
    },
    {
      "inputs": [],
      "name": "claimOwnership",
      "outputs": [],
      "stateMutability": "nonpayable",
      "type": "function"
    },
    {
      "inputs": [
        {
          "internalType": "address",
          "name": "newOwner",
          "type": "address"
        }
      ],
      "name": "transferOwnership",
      "outputs": [],
      "stateMutability": "nonpayable",
      "type": "function"
    },
    {
      "stateMutability": "payable",
      "type": "receive"
    },
    {
      "inputs": [
        {
          "internalType": "address",
          "name": "manager",
          "type": "address"
        }
      ],
      "name": "setManager",
      "outputs": [],
      "stateMutability": "nonpayable",
      "type": "function"
    },
    {
      "inputs": [
        {
          "internalType": "address",
          "name": "wallet",
          "type": "address"
        }
      ],
      "name": "setWallet",
      "outputs": [],
      "stateMutability": "nonpayable",
      "type": "function"
    },
    {
      "inputs": [
        {
          "internalType": "uint256",
          "name": "blocks",
          "type": "uint256"
        }
      ],
      "name": "setReleaseDelay",
      "outputs": [],
      "stateMutability": "nonpayable",
      "type": "function"
    },
    {
      "inputs": [
        {
          "internalType": "uint256",
          "name": "tokens",
          "type": "uint256"
        }
      ],
      "name": "setMaxTokensPerIssue",
      "outputs": [],
      "stateMutability": "nonpayable",
      "type": "function"
    },
    {
      "inputs": [
        {
          "internalType": "uint256",
          "name": "tokens",
          "type": "uint256"
        }
      ],
      "name": "setMaxTokensPerBlock",
      "outputs": [],
      "stateMutability": "nonpayable",
      "type": "function"
    },
    {
      "inputs": [
        {
          "internalType": "uint256",
          "name": "value",
          "type": "uint256"
        }
      ],
      "name": "resyncTotalSupply",
      "outputs": [
        {
          "internalType": "uint256",
          "name": "",
          "type": "uint256"
        }
      ],
      "stateMutability": "nonpayable",
      "type": "function"
    },
    {
      "inputs": [
        {
          "internalType": "uint256",
          "name": "value",
          "type": "uint256"
        }
      ],
      "name": "transferEther",
      "outputs": [],
      "stateMutability": "nonpayable",
      "type": "function"
    },
    {
      "inputs": [
        {
          "internalType": "uint256",
          "name": "value",
          "type": "uint256"
        }
      ],
      "name": "transferTokens",
      "outputs": [],
      "stateMutability": "nonpayable",
      "type": "function"
    },
    {
      "inputs": [
        {
          "internalType": "address",
          "name": "to",
          "type": "address"
        },
        {
          "internalType": "uint256",
          "name": "value",
          "type": "uint256"
        }
      ],
      "name": "distributeTokens",
      "outputs": [],
      "stateMutability": "nonpayable",
      "type": "function"
    },
    {
      "inputs": [
        {
          "internalType": "address",
          "name": "to",
          "type": "address"
        },
        {
          "internalType": "uint256",
          "name": "value",
          "type": "uint256"
        },
        {
          "internalType": "bytes32",
          "name": "secretHash",
          "type": "bytes32"
        }
      ],
      "name": "issueTokens",
      "outputs": [],
      "stateMutability": "nonpayable",
      "type": "function"
    },
    {
      "inputs": [
        {
          "internalType": "bool",
          "name": "eip712",
          "type": "bool"
        },
        {
          "internalType": "address",
          "name": "recipient",
          "type": "address"
        },
        {
          "internalType": "uint256",
          "name": "value",
          "type": "uint256"
        },
        {
          "internalType": "bytes",
          "name": "c_secret",
          "type": "bytes"
        },
        {
          "internalType": "uint8",
          "name": "v",
          "type": "uint8"
        },
        {
          "internalType": "bytes32",
          "name": "r",
          "type": "bytes32"
        },
        {
          "internalType": "bytes32",
          "name": "s",
          "type": "bytes32"
        }
      ],
      "name": "executeAcceptTokens",
      "outputs": [],
      "stateMutability": "nonpayable",
      "type": "function"
    },
    {
      "inputs": [
        {
          "internalType": "bool",
          "name": "eip712",
          "type": "bool"
        },
        {
          "internalType": "address",
          "name": "from",
          "type": "address"
        },
        {
          "internalType": "uint256",
          "name": "value",
          "type": "uint256"
        },
        {
          "internalType": "uint8",
          "name": "v",
          "type": "uint8"
        },
        {
          "internalType": "bytes32",
          "name": "r",
          "type": "bytes32"
        },
        {
          "internalType": "bytes32",
          "name": "s",
          "type": "bytes32"
        }
      ],
      "name": "executePayment",
      "outputs": [],
      "stateMutability": "nonpayable",
      "type": "function"
    },
    {
      "inputs": [
        {
          "internalType": "bool",
          "name": "eip712",
          "type": "bool"
        },
        {
          "internalType": "uint256",
          "name": "eth",
          "type": "uint256"
        },
        {
          "internalType": "uint256",
          "name": "kbt",
          "type": "uint256"
        },
        {
          "internalType": "uint256",
          "name": "expires",
          "type": "uint256"
        },
        {
          "internalType": "uint8",
          "name": "v",
          "type": "uint8"
        },
        {
          "internalType": "bytes32",
          "name": "r",
          "type": "bytes32"
        },
        {
          "internalType": "bytes32",
          "name": "s",
          "type": "bytes32"
        }
      ],
      "name": "executeBuyTokens",
      "outputs": [],
      "stateMutability": "payable",
      "type": "function"
    },
    {
      "inputs": [
        {
          "internalType": "uint256",
          "name": "value",
          "type": "uint256"
        },
        {
          "internalType": "bytes",
          "name": "c_secret",
          "type": "bytes"
        }
      ],
      "name": "acceptTokens",
      "outputs": [],
      "stateMutability": "nonpayable",
      "type": "function"
    },
    {
      "inputs": [
        {
          "internalType": "uint256",
          "name": "value",
          "type": "uint256"
        }
      ],
      "name": "depositTokens",
      "outputs": [],
      "stateMutability": "nonpayable",
      "type": "function"
    },
    {
      "inputs": [
        {
          "internalType": "uint256",
          "name": "value",
          "type": "uint256"
        }
      ],
      "name": "requestWithdrawal",
      "outputs": [],
      "stateMutability": "nonpayable",
      "type": "function"
    },
    {
      "inputs": [],
      "name": "cancelWithdrawal",
      "outputs": [],
      "stateMutability": "nonpayable",
      "type": "function"
    },
    {
      "inputs": [],
      "name": "withdrawTokens",
      "outputs": [],
      "stateMutability": "nonpayable",
      "type": "function"
    },
    {
      "inputs": [
        {
          "internalType": "address",
          "name": "addr",
          "type": "address"
        }
      ],
      "name": "account",
      "outputs": [
        {
          "internalType": "uint256",
          "name": "nonce",
          "type": "uint256"
        },
        {
          "internalType": "uint256",
          "name": "balance",
          "type": "uint256"
        },
        {
          "internalType": "uint256",
          "name": "issueBlock",
          "type": "uint256"
        },
        {
          "internalType": "uint256",
          "name": "pending",
          "type": "uint256"
        },
        {
          "internalType": "uint256",
          "name": "withdrawal",
          "type": "uint256"
        },
        {
          "internalType": "uint256",
          "name": "releaseBlock",
          "type": "uint256"
        },
        {
          "internalType": "bytes32",
          "name": "secretHash",
          "type": "bytes32"
        },
        {
          "internalType": "uint256",
          "name": "externalBalance",
          "type": "uint256"
        }
      ],
      "stateMutability": "view",
      "type": "function"
    },
    {
      "inputs": [],
      "name": "entities",
      "outputs": [
        {
          "internalType": "address",
          "name": "manager",
          "type": "address"
        },
        {
          "internalType": "address",
          "name": "token",
          "type": "address"
        },
        {
          "internalType": "address",
          "name": "wallet",
          "type": "address"
        }
      ],
      "stateMutability": "view",
      "type": "function"
    },
    {
      "inputs": [],
      "name": "limits",
      "outputs": [
        {
          "internalType": "uint256",
          "name": "releaseDelay",
          "type": "uint256"
        },
        {
          "internalType": "uint256",
          "name": "maxTokensPerIssue",
          "type": "uint256"
        },
        {
          "internalType": "uint256",
          "name": "maxTokensPerBlock",
          "type": "uint256"
        }
      ],
      "stateMutability": "view",
      "type": "function"
    },
    {
      "inputs": [],
      "name": "supply",
      "outputs": [
        {
          "internalType": "uint256",
          "name": "total",
          "type": "uint256"
        },
        {
          "internalType": "uint256",
          "name": "minimum",
          "type": "uint256"
        },
        {
          "internalType": "uint256",
          "name": "pending",
          "type": "uint256"
        },
        {
          "internalType": "uint256",
          "name": "available",
          "type": "uint256"
        }
      ],
      "stateMutability": "view",
      "type": "function"
    },
    {
      "inputs": [],
      "name": "uid",
      "outputs": [
        {
          "internalType": "uint256",
          "name": "",
          "type": "uint256"
        }
      ],
      "stateMutability": "view",
      "type": "function"
    },
    {
      "inputs": [],
      "name": "totalSupply",
      "outputs": [
        {
          "internalType": "uint256",
          "name": "",
          "type": "uint256"
        }
      ],
      "stateMutability": "view",
      "type": "function"
    },
    {
      "inputs": [],
      "name": "availableSupply",
      "outputs": [
        {
          "internalType": "uint256",
          "name": "",
          "type": "uint256"
        }
      ],
      "stateMutability": "view",
      "type": "function"
    },
    {
      "inputs": [
        {
          "internalType": "bool",
          "name": "eip712",
          "type": "bool"
        },
        {
          "internalType": "address",
          "name": "recipient",
          "type": "address"
        },
        {
          "internalType": "uint256",
          "name": "eth",
          "type": "uint256"
        },
        {
          "internalType": "uint256",
          "name": "kbt",
          "type": "uint256"
        },
        {
          "internalType": "uint256",
          "name": "expires",
          "type": "uint256"
        }
      ],
      "name": "generateBuyTokensMessage",
      "outputs": [
        {
          "internalType": "bytes",
          "name": "",
          "type": "bytes"
        }
      ],
      "stateMutability": "view",
      "type": "function"
    },
    {
      "inputs": [
        {
          "internalType": "bool",
          "name": "eip712",
          "type": "bool"
        },
        {
          "internalType": "address",
          "name": "recipient",
          "type": "address"
        },
        {
          "internalType": "uint256",
          "name": "value",
          "type": "uint256"
        },
        {
          "internalType": "bytes32",
          "name": "secretHash",
          "type": "bytes32"
        }
      ],
      "name": "generateAcceptTokensMessage",
      "outputs": [
        {
          "internalType": "bytes",
          "name": "",
          "type": "bytes"
        }
      ],
      "stateMutability": "view",
      "type": "function"
    },
    {
      "inputs": [
        {
          "internalType": "bool",
          "name": "eip712",
          "type": "bool"
        },
        {
          "internalType": "address",
          "name": "from",
          "type": "address"
        },
        {
          "internalType": "uint256",
          "name": "value",
          "type": "uint256"
        }
      ],
      "name": "generatePaymentMessage",
      "outputs": [
        {
          "internalType": "bytes",
          "name": "",
          "type": "bytes"
        }
      ],
      "stateMutability": "view",
      "type": "function"
    },
    {
      "inputs": [
        {
          "internalType": "bool",
          "name": "eip712",
          "type": "bool"
        },
        {
          "internalType": "address",
          "name": "from",
          "type": "address"
        },
        {
          "internalType": "uint256",
          "name": "eth",
          "type": "uint256"
        },
        {
          "internalType": "uint256",
          "name": "kbt",
          "type": "uint256"
        },
        {
          "internalType": "uint256",
          "name": "expires",
          "type": "uint256"
        },
        {
          "internalType": "uint8",
          "name": "v",
          "type": "uint8"
        },
        {
          "internalType": "bytes32",
          "name": "r",
          "type": "bytes32"
        },
        {
          "internalType": "bytes32",
          "name": "s",
          "type": "bytes32"
        }
      ],
      "name": "validateBuyTokens",
      "outputs": [
        {
          "internalType": "bool",
          "name": "",
          "type": "bool"
        }
      ],
      "stateMutability": "view",
      "type": "function"
    },
    {
      "inputs": [
        {
          "internalType": "bool",
          "name": "eip712",
          "type": "bool"
        },
        {
          "internalType": "address",
          "name": "recipient",
          "type": "address"
        },
        {
          "internalType": "uint256",
          "name": "value",
          "type": "uint256"
        },
        {
          "internalType": "bytes32",
          "name": "secretHash",
          "type": "bytes32"
        },
        {
          "internalType": "uint8",
          "name": "v",
          "type": "uint8"
        },
        {
          "internalType": "bytes32",
          "name": "r",
          "type": "bytes32"
        },
        {
          "internalType": "bytes32",
          "name": "s",
          "type": "bytes32"
        }
      ],
      "name": "validateAcceptTokens",
      "outputs": [
        {
          "internalType": "bool",
          "name": "",
          "type": "bool"
        }
      ],
      "stateMutability": "view",
      "type": "function"
    },
    {
      "inputs": [
        {
          "internalType": "bool",
          "name": "eip712",
          "type": "bool"
        },
        {
          "internalType": "address",
          "name": "from",
          "type": "address"
        },
        {
          "internalType": "uint256",
          "name": "value",
          "type": "uint256"
        },
        {
          "internalType": "uint8",
          "name": "v",
          "type": "uint8"
        },
        {
          "internalType": "bytes32",
          "name": "r",
          "type": "bytes32"
        },
        {
          "internalType": "bytes32",
          "name": "s",
          "type": "bytes32"
        }
      ],
      "name": "validatePayment",
      "outputs": [
        {
          "internalType": "bool",
          "name": "",
          "type": "bool"
        }
      ],
      "stateMutability": "view",
      "type": "function"
    },
    {
      "inputs": [],
      "name": "ownedTokens",
      "outputs": [
        {
          "internalType": "uint256",
          "name": "",
          "type": "uint256"
        }
      ],
      "stateMutability": "view",
      "type": "function"
    }
  ],
  "bytecode": "0x608060405234801561001057600080fd5b5060405161362e38038061362e8339818101604052602081101561003357600080fd5b5051600080546001600160a01b03199081163317909155600a80546001600160a01b0390931692909116919091179055604080516060808201835260f080835269021e19e0c9bab24000006020848101829052690a968163f0a57b400000948601859052600692909255600755600892909255600160b01b600160f01b0343600019014060b01b1630908117600160f81b17600281905584518086018652600b81526a12da5c9bd89bc8141bdbdb60aa1b908501528451808601865260018152603160f81b9085015284517f4ba8ad4bfa203217c94352df4ee36d03140724aa4d33ee251e152be24c8697c3818601527fb11051063131fb65aefc02cae0524010c244b22983f21931dde4f1daeb071b26818701527fc89efdaa54c0f20c7adf612882df0950f5a951637e0307cdcb4c672f298b8bc69381019390935246608084015260a083019190915260c0828101919091528351808303909101815260e09091019092528151910120600f5561347e806101b06000396000f3fe6080604052600436106102345760003560e01c8063860aefcf1161012e578063d0ebdbe7116100ab578063f2fde38b1161006f578063f2fde38b14610a50578063f514ce3614610a83578063fbf79c9614610a98578063fd9a4e6114610b1c578063ffa1ad7414610b4657610288565b8063d0ebdbe71461095e578063d2bc24d114610991578063dd49756e146109a6578063deaa59df146109d0578063f0ff6f3014610a0357610288565b80639ee679e8116100f25780639ee679e8146107a25780639f47b676146107cc578063ac8aa0c014610888578063add2acc5146108c7578063c3966e3f1461090857610288565b8063860aefcf146106d55780638901e970146107085780638d8f2adb14610732578063950c2e1c146107475780639b0debbd1461078d57610288565b806347b0af2e116101bc5780636f18135f116101805780636f18135f146105ce57806373b9aa91146105f857806373ffd5b71461066c5780637e060b55146106965780637ecc2b56146106c057610288565b806347b0af2e146104c15780634e71e0c8146104eb578063593e44b21461050057806369b2e5f8146105635780636d3298cb146105b957610288565b806318160ddd1161020357806318160ddd146103eb57806319cba6b41461041257806322611280146104275780633644e5151461043c578063467fb1de1461045157610288565b8063047fc9aa1461028d57806305db56e9146102c8578063158a4988146103725780631615fd03146103ab57610288565b36610288576040805162461bcd60e51b815260206004820152601960248201527f506f6f6c3a206e6f7420616363657074696e6720657468657200000000000000604482015290519081900360640190fd5b005b600080fd5b34801561029957600080fd5b506102a2610b71565b604080519485526020850193909352838301919091526060830152519081900360800190f35b3480156102d457600080fd5b50610286600480360360e08110156102eb57600080fd5b81351515916001600160a01b03602082013516916040820135919081019060808101606082013564010000000081111561032457600080fd5b82018360208201111561033657600080fd5b8035906020019184600183028401116401000000008311171561035857600080fd5b919350915060ff8135169060208101359060400135610ba1565b34801561037e57600080fd5b506102866004803603604081101561039557600080fd5b506001600160a01b038135169060200135610d59565b3480156103b757600080fd5b506103c0610dc9565b604080516001600160a01b039485168152928416602084015292168183015290519081900360600190f35b3480156103f757600080fd5b50610400610de6565b60408051918252519081900360200190f35b34801561041e57600080fd5b50610400610dec565b34801561043357600080fd5b50610286610e68565b34801561044857600080fd5b50610400610eac565b34801561045d57600080fd5b506104ad600480360360e081101561047457600080fd5b5080351515906001600160a01b036020820135169060408101359060608101359060ff6080820135169060a08101359060c00135610eb2565b604080519115158252519081900360200190f35b3480156104cd57600080fd5b50610400600480360360208110156104e457600080fd5b5035610f58565b3480156104f757600080fd5b506102866110aa565b34801561050c57600080fd5b506104ad600480360361010081101561052457600080fd5b5080351515906001600160a01b036020820135169060408101359060608101359060808101359060ff60a0820135169060c08101359060e0013561116d565b34801561056f57600080fd5b50610286600480360360c081101561058657600080fd5b5080351515906001600160a01b036020820135169060408101359060ff6060820135169060808101359060a0013561120a565b3480156105c557600080fd5b50610400611349565b3480156105da57600080fd5b50610286600480360360208110156105f157600080fd5b503561136d565b34801561060457600080fd5b5061062b6004803603602081101561061b57600080fd5b50356001600160a01b0316611403565b604080519889526020890197909752878701959095526060870193909352608086019190915260a085015260c084015260e083015251908190036101000190f35b34801561067857600080fd5b506102866004803603602081101561068f57600080fd5b50356114e1565b3480156106a257600080fd5b50610286600480360360208110156106b957600080fd5b5035611617565b3480156106cc57600080fd5b50610400611704565b3480156106e157600080fd5b506106ea611715565b60408051938452602084019290925282820152519081900360600190f35b34801561071457600080fd5b506102866004803603602081101561072b57600080fd5b5035611723565b34801561073e57600080fd5b506102866117b9565b610286600480360360e081101561075d57600080fd5b50803515159060208101359060408101359060608101359060ff6080820135169060a08101359060c001356118f1565b34801561079957600080fd5b506104006119f6565b3480156107ae57600080fd5b50610286600480360360208110156107c557600080fd5b50356119fc565b3480156107d857600080fd5b50610813600480360360808110156107ef57600080fd5b5080351515906001600160a01b036020820135169060408101359060600135611af5565b6040805160208082528351818301528351919283929083019185019080838360005b8381101561084d578181015183820152602001610835565b50505050905090810190601f16801561087a5780820380516001836020036101000a031916815260200191505b509250505060405180910390f35b34801561089457600080fd5b50610286600480360360608110156108ab57600080fd5b506001600160a01b038135169060208101359060400135611c7e565b3480156108d357600080fd5b50610813600480360360608110156108ea57600080fd5b5080351515906001600160a01b036020820135169060400135611dd0565b34801561091457600080fd5b506104ad600480360360c081101561092b57600080fd5b5080351515906001600160a01b036020820135169060408101359060ff6060820135169060808101359060a00135611f07565b34801561096a57600080fd5b506102866004803603602081101561098157600080fd5b50356001600160a01b0316611f9f565b34801561099d57600080fd5b5061040061211e565b3480156109b257600080fd5b50610286600480360360208110156109c957600080fd5b5035612142565b3480156109dc57600080fd5b50610286600480360360208110156109f357600080fd5b50356001600160a01b03166121c1565b348015610a0f57600080fd5b50610813600480360360a0811015610a2657600080fd5b5080351515906001600160a01b036020820135169060408101359060608101359060800135612340565b348015610a5c57600080fd5b5061028660048036036020811015610a7357600080fd5b50356001600160a01b031661240f565b348015610a8f57600080fd5b50610400612485565b348015610aa457600080fd5b5061028660048036036040811015610abb57600080fd5b81359190810190604081016020820135640100000000811115610add57600080fd5b820183602082011115610aef57600080fd5b80359060200191846001830284011164010000000083111715610b1157600080fd5b50909250905061248b565b348015610b2857600080fd5b5061028660048036036020811015610b3f57600080fd5b503561254c565b348015610b5257600080fd5b50610b5b61266f565b6040805160ff9092168252519081900360200190f35b600080600080600360000154600360010154600360020154610b936003612674565b935093509350935090919293565b6000546001600160a01b0316331480610bc457506009546001600160a01b031633145b610c03576040805162461bcd60e51b815260206004820152601a60248201526000805160206132e3833981519152604482015290519081900360640190fd5b848460405180838380828437604080519190930181900390206001600160a01b038d166000908152600e60205292909220600601549091149350610c8792505050576040805162461bcd60e51b8152602060048201526012602482015271141bdbdb0e881ddc9bdb99c81cd958dc995d60721b604482015290519081900360640190fd5b610cb488888888886040518083838082843780830192505050925050506040518091039020878787610eb2565b610d05576040805162461bcd60e51b815260206004820152601d60248201527f506f6f6c3a2077726f6e67207369676e6174757265206f722064617461000000604482015290519081900360640190fd5b610d0f87876126a4565b604080516000815290516001600160a01b038916917f87715bcb29dbe27420aab6499f3227b2d0c070e9332c9ea0d7da26a547e48e1d919081900360200190a25050505050505050565b6000546001600160a01b0316331480610d7c57506009546001600160a01b031633145b610dbb576040805162461bcd60e51b815260206004820152601a60248201526000805160206132e3833981519152604482015290519081900360640190fd5b610dc58282612731565b5050565b600954600a54600b546001600160a01b0392831693918316921690565b60035490565b600a54604080516370a0823160e01b815230600482015290516000926001600160a01b0316916370a08231916024808301926020929190829003018186803b158015610e3757600080fd5b505afa158015610e4b573d6000803e3d6000fd5b505050506040513d6020811015610e6157600080fd5b5051905090565b336000818152600e602052604080822060048101839055600501829055517f2c149134fe0030fa8b86362e124b3379a0d5bf7e1c0f487a35a06f89bbf60cee9190a2565b600f5481565b600080610ed189610ec58b8b8b8b611af5565b80519060200120612871565b9050600060018287878760405160008152602001604052604051808581526020018460ff1681526020018381526020018281526020019450505050506020604051602081039080840390855afa158015610f2f573d6000803e3d6000fd5b5050604051601f1901516001600160a01b03908116908b16149350505050979650505050505050565b600080546001600160a01b0316331480610f7c57506009546001600160a01b031633145b610fbb576040805162461bcd60e51b815260206004820152601a60248201526000805160206132e3833981519152604482015290519081900360640190fd5b6000610fc5610dec565b6003549091508110156110095760405162461bcd60e51b815260040180806020018281038252602a81526020018061341f602a913960400191505060405180910390fd5b60035483101561104a5760405162461bcd60e51b81526004018080602001828103825260338152602001806133ec6033913960400191505060405180910390fd5b80831115611099576040805162461bcd60e51b8152602060048201526017602482015276506f6f6c3a206e6f7420656e6f75676820746f6b656e7360481b604482015290519081900360640190fd5b6110a460038461296c565b50919050565b6001546001600160a01b03163314611109576040805162461bcd60e51b815260206004820152601c60248201527f436c61696d61626c653a206e6f742070656e64696e67206f776e657200000000604482015290519081900360640190fd5b600154600080546040516001600160a01b0393841693909116917f8be0079c531659141344cd1fd0a4f28419497f9722a3daafe3b4186f6b6457e091a360018054600080546001600160a01b03199081166001600160a01b03841617909155169055565b6000806111818a610ec58c8c8c8c8c612340565b9050600060018287878760405160008152602001604052604051808581526020018460ff1681526020018381526020018281526020019450505050506020604051602081039080840390855afa1580156111df573d6000803e3d6000fd5b5050604051601f1901516009546001600160a01b039081169116149c9b505050505050505050505050565b6000546001600160a01b031633148061122d57506009546001600160a01b031633145b61126c576040805162461bcd60e51b815260206004820152601a60248201526000805160206132e3833981519152604482015290519081900360640190fd5b61127a868686868686611f07565b6112cb576040805162461bcd60e51b815260206004820152601d60248201527f506f6f6c3a2077726f6e67207369676e6174757265206f722064617461000000604482015290519081900360640190fd5b6001600160a01b0385166000908152600e602052604090206112ec816129c9565b6112f68186612a4a565b611301600386612a4a565b6040805186815290516001600160a01b038816917fd4f43975feb89f48dd30cabbb32011045be187d1e11c8ea9faa43efc35282519919081900360200190a250505050505050565b7f841d82f71fa4558203bb763733f6b3326ecaf324143e12fb9b6a9ed958fc4ee081565b6000546001600160a01b031633146113c1576040805162461bcd60e51b815260206004820152601260248201527127bbb730b136329d103737ba1037bbb732b960711b604482015290519081900360640190fd5b600854604080519182526020820183905280517f758af69adf31afc1a2ac9fcde1d2922e17780ada2fd8d6de4799eae3806a90839281900390910190a1600855565b6001600160a01b038082166000818152600e60209081526040808320600a5482516370a0823160e01b815260048101969096529151939586958695869586958695869586959194869493909116926370a082319260248082019391829003018186803b15801561147257600080fd5b505afa158015611486573d6000803e3d6000fd5b505050506040513d602081101561149c57600080fd5b5051825460018401546002850154600386015460048701546005880154600690980154949f50929d50909b509950975092955091935090915050919395975091939597565b6000546001600160a01b031633148061150457506009546001600160a01b031633145b611543576040805162461bcd60e51b815260206004820152601a60248201526000805160206132e3833981519152604482015290519081900360640190fd5b600b546001600160a01b0316611597576040805162461bcd60e51b8152602060048201526014602482015273141bdbdb0e881dd85b1b195d081b9bdd081cd95d60621b604482015290519081900360640190fd5b600b546040516001600160a01b039091169082156108fc029083906000818181858888f193505050501580156115d1573d6000803e3d6000fd5b50600b546040805183815290516001600160a01b03909216917fcbbf9d8eccd82bfe565beb740ad23209888d91a194d1ad1eb4add4476e6be45c9181900360200190a250565b6000546001600160a01b0316331461166b576040805162461bcd60e51b815260206004820152601260248201527127bbb730b136329d103737ba1037bbb732b960711b604482015290519081900360640190fd5b612d008111156116c2576040805162461bcd60e51b815260206004820152601e60248201527f506f6f6c3a20657865656473206d61782072656c656173652064656c61790000604482015290519081900360640190fd5b600654604080519182526020820183905280517f81cd61b51e623d89307765201ecc847d51270c2b74a6b175b44a1399c2a7392d9281900390910190a1600655565b60006117106003612674565b905090565b600654600754600854909192565b6000546001600160a01b03163314611777576040805162461bcd60e51b815260206004820152601260248201527127bbb730b136329d103737ba1037bbb732b960711b604482015290519081900360640190fd5b600754604080519182526020820183905280517f633dd5b590b652b522d62bb416903314cddbfcfe911e0e7af21eafaff4546f1d9281900390910190a1600755565b336000908152600e60205260409020600481015461181e576040805162461bcd60e51b815260206004820152601960248201527f506f6f6c3a206e6f207769746864726177207265717565737400000000000000604482015290519081900360640190fd5b4381600501541115611868576040805162461bcd60e51b815260206004820152600e60248201526d2837b7b61d103a37b79039b7b7b760911b604482015290519081900360640190fd5b60008160010154826004015411611883578160040154611889565b81600101545b90506118958282612a65565b6118a0600382612a82565b600a546118b7906001600160a01b03163383612ab9565b60408051828152905133917f7fcf532c15f0a6db0bd6d0e038bea71d30d808c7d98cb3bf7268a95bf5081b65919081900360200190a25050565b611901873388888888888861116d565b611952576040805162461bcd60e51b815260206004820152601d60248201527f506f6f6c3a2077726f6e67207369676e6174757265206f722064617461000000604482015290519081900360640190fd5b83421115611998576040805162461bcd60e51b815260206004820152600e60248201526d506f6f6c3a20746f6f206c61746560901b604482015290519081900360640190fd5b8534146119e3576040805162461bcd60e51b81526020600482015260146024820152730a0deded87440ecc2d8eaca40dad2e6dac2e8c6d60631b604482015290519081900360640190fd5b6119ed3386612731565b50505050505050565b612d0081565b336000908152600e6020526040902060010154811115611a5d576040805162461bcd60e51b8152602060048201526017602482015276506f6f6c3a206e6f7420656e6f75676820746f6b656e7360481b604482015290519081900360640190fd5b60008111611a9c5760405162461bcd60e51b815260040180806020018281038252602c815260200180613324602c913960400191505060405180910390fd5b336000818152600e6020908152604091829020600481018590556006544301600590910155815184815291517fe670e4e82118d22a1f9ee18920455ebc958bae26a90a05d31d3378788b1b0e449281900390910190a250565b6001600160a01b0383166000908152600e60205260409020600601546060908214611b67576040805162461bcd60e51b815260206004820152601760248201527f506f6f6c3a2077726f6e67207365637265742068617368000000000000000000604482015290519081900360640190fd5b6001600160a01b0384166000908152600e60205260409020600301548314611bc05760405162461bcd60e51b815260040180806020018281038252602d815260200180613374602d913960400191505060405180910390fd5b8415611c255750604080517ff728cfc064674dacd2ced2a03acd588dfd299d5e4716726c6d5ec364d16406eb60208201526001600160a01b038516818301526060810184905260808082018490528251808303909101815260a0909101909152611c76565b50600254604080516020810192909252634fa3db3b60e11b828201526001600160601b0319606086901b16604483015260588201849052607880830184905281518084039091018152609890920190525b949350505050565b6000546001600160a01b0316331480611ca157506009546001600160a01b031633145b611ce0576040805162461bcd60e51b815260206004820152601a60248201526000805160206132e3833981519152604482015290519081900360640190fd5b600754821115611d37576040805162461bcd60e51b815260206004820181905260248201527f506f6f6c3a20657865656473206d617820746f6b656e73207065722063616c6c604482015290519081900360640190fd5b611d4082612b0b565b6001600160a01b0383166000908152600e602052604090206003810154611d6682612b78565b600682018390556003808301859055436002840155611d86908286612ba2565b604080518581526020810185905281516001600160a01b038816927f39d84c7c6d92b3f4343f76193f77afd39f4de57d13ac90024de77cb03dc2eacb928290030190a25050505050565b6001600160a01b0382166000908152600e60205260409020600181015460609190831115611e45576040805162461bcd60e51b815260206004820152601d60248201527f506f6f6c3a206163636f756e742062616c6e61636520746f6f206c6f77000000604482015290519081900360640190fd5b8415611eaa5754604080517f841d82f71fa4558203bb763733f6b3326ecaf324143e12fb9b6a9ed958fc4ee060208201526001600160a01b03861681830152606081018590526080808201939093528151808203909301835260a00190529050611f00565b600254905460408051602081019390935263add2acc560e01b838201526001600160601b0319606087901b1660448401526058830185905260788084019290925280518084039092018252609890920190915290505b9392505050565b600080611f1988610ec58a8a8a611dd0565b9050600060018287878760405160008152602001604052604051808581526020018460ff1681526020018381526020018281526020019450505050506020604051602081039080840390855afa158015611f77573d6000803e3d6000fd5b5050604051601f1901516001600160a01b03908116908a161493505050509695505050505050565b6000546001600160a01b03163314611ff3576040805162461bcd60e51b815260206004820152601260248201527127bbb730b136329d103737ba1037bbb732b960711b604482015290519081900360640190fd5b6001600160a01b038116301415612051576040805162461bcd60e51b815260206004820152601d60248201527f506f6f6c3a2073656c662063616e6e6f74206265206d616e616e676572000000604482015290519081900360640190fd5b600a546001600160a01b03828116911614156120b4576040805162461bcd60e51b815260206004820152601d60248201527f506f6f6c3a20746f6b656e2063616e6e6f74206265206d616e61676572000000604482015290519081900360640190fd5b600954604080516001600160a01b039283168152918316602083015280517f605c2dbf762e5f7d60a546d42e7205dcb1b011ebc62a61736a57c9089d3a43509281900390910190a1600980546001600160a01b0319166001600160a01b0392909216919091179055565b7ff728cfc064674dacd2ced2a03acd588dfd299d5e4716726c6d5ec364d16406eb81565b336000908152600e6020526040902061215a81612b78565b6121648183612c35565b61216f600383612c44565b600a54612187906001600160a01b0316333085612c64565b60408051838152905133917fe1fffcc4923d04b559f4d29a8bfc6cda04eb5b0d3c460751c2402c5c5cc9109c919081900360200190a25050565b6000546001600160a01b03163314612215576040805162461bcd60e51b815260206004820152601260248201527127bbb730b136329d103737ba1037bbb732b960711b604482015290519081900360640190fd5b6001600160a01b038116301415612273576040805162461bcd60e51b815260206004820152601b60248201527f506f6f6c3a2073656c662063616e6e6f742062652077616c6c65740000000000604482015290519081900360640190fd5b600a546001600160a01b03828116911614156122d6576040805162461bcd60e51b815260206004820152601b60248201527f506f6f6c3a20746f6b656e2063616e6e6f742062652077616c6c740000000000604482015290519081900360640190fd5b600b54604080516001600160a01b039283168152918316602083015280517f64cbbd34f3faebfd04eff088ae5832f6d254dbb81820b0055e9d85c534aa700d9281900390910190a1600b80546001600160a01b0319166001600160a01b0392909216919091179055565b606085156123ae5750604080517f841d82f71fa4558203bb763733f6b3326ecaf324143e12fb9b6a9ed958fc4ee060208201526001600160a01b03861681830152606081018590526080810184905260a08082018490528251808303909101815260c0909101909152612406565b5060025460408051602081019290925263add2acc560e01b828201526001600160601b0319606087901b166044830152605882018590526078820184905260988083018490528151808403909101815260b890920190525b95945050505050565b6000546001600160a01b03163314612463576040805162461bcd60e51b815260206004820152601260248201527127bbb730b136329d103737ba1037bbb732b960711b604482015290519081900360640190fd5b600180546001600160a01b0319166001600160a01b0392909216919091179055565b60025490565b81816040518083838082843760408051919093018190039020336000908152600e6020529290922060060154909114935061250692505050576040805162461bcd60e51b8152602060048201526012602482015271141bdbdb0e881ddc9bdb99c81cd958dc995d60721b604482015290519081900360640190fd5b61251033846126a4565b6040805160018152905133917f87715bcb29dbe27420aab6499f3227b2d0c070e9332c9ea0d7da26a547e48e1d919081900360200190a2505050565b6000546001600160a01b031633148061256f57506009546001600160a01b031633145b6125ae576040805162461bcd60e51b815260206004820152601a60248201526000805160206132e3833981519152604482015290519081900360640190fd5b600b546001600160a01b0316612602576040805162461bcd60e51b8152602060048201526014602482015273141bdbdb0e881dd85b1b195d081b9bdd081cd95d60621b604482015290519081900360640190fd5b61260d600382612cbe565b600b54600a5461262a916001600160a01b03918216911683612ab9565b600b546040805183815290516001600160a01b03909216917fa267b5cf59cf96d97abf36d29c63cf7bdef867c208ca8575c47f2cafda39abc99181900360200190a250565b600181565b600061269c61269483600201548460010154612d0290919063ffffffff16565b835490612d5c565b90505b919050565b6001600160a01b0382166000908152600e60205260409020600201544311612704576040805162461bcd60e51b815260206004820152600e60248201526d2837b7b61d103a37b79039b7b7b760911b604482015290519081900360640190fd5b6001600160a01b0382166000908152600e602052604090206127269082612d9e565b610dc5600382612e5d565b600754811115612788576040805162461bcd60e51b815260206004820181905260248201527f506f6f6c3a20657865656473206d617820746f6b656e73207065722063616c6c604482015290519081900360640190fd5b6001600160a01b0382166000908152600e602052604090206002015443116127e8576040805162461bcd60e51b815260206004820152600e60248201526d2837b7b61d103a37b79039b7b7b760911b604482015290519081900360640190fd5b6127f181612b0b565b6001600160a01b0382166000908152600e6020526040902043600282015561281881612b78565b612823600383612eb5565b61282d8183612c35565b6040805183815290516001600160a01b038516917f16b0da2ffcb90c6723317bd637d9aad7f04711f42bbe0ac0918ebe10f1f9001c919081900360200190a2505050565b6000606061287e83612ee1565b905083156128cc57600f5483604051602001808061190160f01b8152506002018381526020018281526020019250505060405160208183030381529060405280519060200120915050612966565b8060405160200180807f19457468657265756d205369676e6564204d6573736167653a0a363400000000815250601c0182805190602001908083835b602083106129275780518252601f199092019160209182019101612908565b6001836020036101000a038019825116818451168082178552505050505050905001915050604051602081830303815290604052805190602001209150505b92915050565b8082556002820154600183015483916129859190612d02565b815410156129c45760405162461bcd60e51b81526004018080602001828103825260218152602001806133036021913960400191505060405180910390fd5b505050565b8054600160f082811c91909101919082901b6601000000000000600160e01b0360001943014060301b161742179061ffff9081169082161415612a44576040805162461bcd60e51b815260206004820152600e60248201526d2837b7b61d103a37b79039b7b7b760911b604482015290519081900360640190fd5b90915550565b6001820154612a599082612d5c565b82600101819055505050565b60006004830181905560058301556001820154612a599082612d5c565b60018201548290612a939083612d5c565b60018401558254612aa49083612d5c565b83556002810154600182015461298591612d02565b604080516001600160a01b038416602482015260448082018490528251808303909101815260649091019091526020810180516001600160e01b031663a9059cbb60e01b1790526129c4908490612fb0565b43600c541015612b235743600c55600d819055612b32565b600d54612b309082612d02565b505b600854600d541115612b755760405162461bcd60e51b81526004018080602001828103825260218152602001806133a16021913960400191505060405180910390fd5b50565b8054612b7557600160f01b4243600019014060301b6601000000000000600160e01b031617179055565b82612bd683604051806060016040528060218152602001613303602191396002870154612bcf9086612d02565b9190613061565b6002808601919091558101546001820154612bf091612d02565b81541015612c2f5760405162461bcd60e51b81526004018080602001828103825260218152602001806133036021913960400191505060405180910390fd5b50505050565b6001820154612a599082612d02565b6001820154612c539082612d02565b60018301558154612a449082612d02565b604080516001600160a01b0380861660248301528416604482015260648082018490528251808303909101815260849091019091526020810180516001600160e01b03166323b872dd60e01b179052612c2f908590612fb0565b60408051808201909152601d81527f506f6f6c3a2076616c7565206c6172676572207468616e20746f74616c000000602082015282548391612aa491908490613061565b600082820183811015611f00576040805162461bcd60e51b815260206004820152601b60248201527f536166654d6174683a206164646974696f6e206f766572666c6f770000000000604482015290519081900360640190fd5b6000611f0083836040518060400160405280601e81526020017f536166654d6174683a207375627472616374696f6e206f766572666c6f770000815250613061565b600382015480612df5576040805162461bcd60e51b815260206004820152601760248201527f506f6f6c3a206e6f2070656e64696e6720746f6b656e73000000000000000000604482015290519081900360640190fd5b818114612e335760405162461bcd60e51b81526004018080602001828103825260248152602001806133506024913960400191505060405180910390fd5b60006006840181905560038401556001830154612e509082612d02565b8360010181905550505050565b60408051808201909152601881527f506f6f6c3a206e6f7420656e6f7567682070656e64696e67000000000000000060208201526002830154612ea1918390613061565b60028301556001820154612a599082612d02565b60018201548290612ec69083612d02565b60018085019190915560028201549082015461298591612d02565b60408051818152606081810183529182919060208201818036833701905050905060005b6020811015612fa9576000848260208110612f1c57fe5b1a60f881811b9250601080830480831b9360ff9091169091029003901b612f42826130f8565b858560020281518110612f5157fe5b60200101906001600160f81b031916908160001a905350612f71816130f8565b858560020260010181518110612f8357fe5b60200101906001600160f81b031916908160001a9053505060019092019150612f059050565b5092915050565b6060613005826040518060400160405280602081526020017f5361666545524332303a206c6f772d6c6576656c2063616c6c206661696c6564815250856001600160a01b03166131329092919063ffffffff16565b8051909150156129c45780806020019051602081101561302457600080fd5b50516129c45760405162461bcd60e51b815260040180806020018281038252602a8152602001806133c2602a913960400191505060405180910390fd5b600081848411156130f05760405162461bcd60e51b81526004018080602001828103825283818151815260200191508051906020019080838360005b838110156130b557818101518382015260200161309d565b50505050905090810190601f1680156130e25780820380516001836020036101000a031916815260200191505b509250505060405180910390fd5b505050900390565b6000600560f91b6001600160f81b031983161015613121578160f81c60300160f81b905061269f565b8160f81c60570160f81b905061269f565b6060611c7684846000856060613147856132a9565b613198576040805162461bcd60e51b815260206004820152601d60248201527f416464726573733a2063616c6c20746f206e6f6e2d636f6e7472616374000000604482015290519081900360640190fd5b60006060866001600160a01b031685876040518082805190602001908083835b602083106131d75780518252601f1990920191602091820191016131b8565b6001836020036101000a03801982511681845116808217855250505050505090500191505060006040518083038185875af1925050503d8060008114613239576040519150601f19603f3d011682016040523d82523d6000602084013e61323e565b606091505b50915091508115613252579150611c769050565b8051156132625780518082602001fd5b60405162461bcd60e51b81526020600482018181528651602484015286518793919283926044019190850190808383600083156130b557818101518382015260200161309d565b6000813f7fc5d2460186f7233c927e7db2dcc703c0e500b653ca82273b7bfad8045d85a470818114801590611c7657505015159291505056fe506f6f6c3a206e6f74206f776e6572206f72206d616e61676572000000000000506f6f6c3a206e6f7420656e6f75676820617661696c61626c6520746f6b656e73506f6f6c3a207769746864726177616c2076616c7565206d757374206265206c6172676572207468656e2030506f6f6c3a2076616c7565206d75737420657175616c2069737375656420746f6b656e73506f6f6c3a2076616c7565206d75737420657175616c2070656e64696e672869737375656420746f6b656e7329506f6f6c3a20657865656473206d617820746f6b656e732070657220626c6f636b5361666545524332303a204552433230206f7065726174696f6e20646964206e6f742073756363656564506f6f6c3a206f6e6c79207472616e73666572546f6b656e732063616e20646563726561736520746f74616c20737570706c79506f6f6c3a20696e7465726e616c206572726f722c20636865636b20636f6e7472616374206c6f676963a2646970667358221220743492989535dd9250598ea46f6118b07cf7827311dfa5c5214591721f44469764736f6c634300060c0033",
  "immutableReferences": {},
  "source": "// SPDX-License-Identifier: GPL-3.0-or-later\npragma solidity 0.6.12;\n\nimport \"../node_modules/@openzeppelin/contracts/math/SafeMath.sol\";\nimport \"../node_modules/@openzeppelin/contracts/token/ERC20/SafeERC20.sol\";\nimport \"./Claimable.sol\";\n\nstruct Account {\n    uint256 nonce;  \n    uint256 balance;\n    uint256 issueBlock;\n    uint256 pending;\n    uint256 withdrawal;\n    uint256 releaseBlock;\n    bytes32 secretHash;\n}\n\nlibrary AccountUtils {\n    using SafeMath for uint256;\n\n    function initNonce(Account storage self) internal {\n        if (self.nonce == 0) {\n            self.nonce =\n                uint256(1) << 240 |\n                uint256(blockhash(block.number-1)) << 80 >> 32 |\n                block.timestamp;\n        }\n    }\n\n    function updateNonce(Account storage self) internal {\n        uint256 count = self.nonce >> 240;\n        uint256 nonce = \n            ++count << 240 |\n            uint256(blockhash(block.number-1)) << 80 >> 32 |\n            block.timestamp;\n        require(uint16(self.nonce) != uint16(nonce), \"Pool: too soon\");\n        self.nonce = nonce;\n    }\n    \n    function acceptPending(Account storage self, uint256 value) internal {\n        uint256 pending = self.pending;\n        require(pending > 0, \"Pool: no pending tokens\");\n        require(pending == value, \"Pool: value must equal issued tokens\");\n        self.secretHash = 0;\n        self.pending = 0;\n        self.balance = self.balance.add(pending);\n    }\n\n    function take(Account storage self, uint256 value) internal {\n        self.balance = self.balance.add(value);\n    }\n\n    function payment(Account storage self, uint256 value) internal {\n        self.balance = self.balance.sub(value);\n    }\n\n    function deposit(Account storage self, uint256 value) internal {\n        self.balance = self.balance.add(value);\n    }\n\n    function withdraw(Account storage self, uint256 value) internal {\n        self.withdrawal = 0;\n        self.releaseBlock = 0;\n        self.balance = self.balance.sub(value);\n    }\n}\n\nstruct Supply {\n    uint256 total;\n    uint256 minimum;\n    uint256 pending;\n}\n\nlibrary SupplyUtils {\n    using SafeMath for uint256;\n\n    // event MinimumReached(uint256 before, uint256 delta);\n\n    modifier checkAvailability(Supply storage self) {\n        _;\n        require(self.total >= self.minimum.add(self.pending), \"Pool: not enough available tokens\");\n    }\n\n    // modifier safeReduceMinimum(Supply storage self, uint256 value) {\n    //     self.minimum > value ? self.minimum -= value : self.minimum = 0; \n    //     if (self.minimum == 0) {\n    //       emit MinimumReached(self.minimum, value);\n    //     }\n    //     _;\n    // }\n\n    function updatePending(Supply storage self, uint256 from, uint256 to) internal checkAvailability(self) { \n        self.pending = self.pending.add(to).sub(from, \"Pool: not enough available tokens\");       \n    }\n\n    function acceptPending(Supply storage self, uint256 value) internal {\n        self.pending = self.pending.sub(value, \"Pool: not enough pending\");\n        self.minimum = self.minimum.add(value);\n    }\n\n    function give(Supply storage self, uint256 value) internal checkAvailability(self) {\n        self.minimum = self.minimum.add(value);\n    }\n\n    function payment(Supply storage self, uint256 value) internal /*safeReduceMinimum(self, value)*/ {\n        self.minimum = self.minimum.sub(value); // this line should be remove if using safeReduceMinimum modifier\n    }\n\n    function deposit(Supply storage self, uint256 value) internal {\n        self.minimum = self.minimum.add(value);\n        self.total = self.total.add(value);\n    }\n\n    function widthdraw(Supply storage self, uint256 value) internal /*safeReduceMinimum(self, value)*/ checkAvailability(self) {\n        self.minimum = self.minimum.sub(value); // this line should be remove if using safeReduceMinimum modifier\n        self.total = self.total.sub(value);\n    }\n\n    function decrease(Supply storage self, uint256 value) internal checkAvailability(self) {\n        self.total = self.total.sub(value, \"Pool: value larger than total\");\n    }\n\n    function update(Supply storage self, uint256 value) internal checkAvailability(self) {\n        self.total = value;\n    }\n\n    function available(Supply storage self) internal view returns (uint256) {\n        return self.total.sub(self.minimum.add(self.pending));\n    }\n}\n\nstruct Limits {\n    uint256 releaseDelay;\n    uint256 maxTokensPerIssue;\n    uint256 maxTokensPerBlock;\n}\n\nstruct Entities {\n    address manager;\n    address token;\n    address wallet;\n}\n\ncontract Pool is Claimable {\n    using AccountUtils for Account;\n    using SupplyUtils for Supply;\n    using SafeERC20 for IERC20;\n    using SafeMath for uint256;\n\n    uint256 private s_uid;\n    Supply private s_supply;\n    Limits private s_limits;\n    Entities private s_entities;\n    uint256 private s_lastIssuedBlock;\n    uint256 private s_totalIssuedInBlock;\n\n    mapping(address => Account) private s_accounts;\n\n    uint8 public constant VERSION = 0x1;\n    uint256 public constant MAX_RELEASE_DELAY = 11_520; // about 48h\n    \n    bytes32 public DOMAIN_SEPARATOR;\n    // keccak256(\"acceptTokens(address recipient,uint256 value,bytes32 secretHash)\");\n    bytes32 public constant ACCEPT_TYPEHASH = 0xf728cfc064674dacd2ced2a03acd588dfd299d5e4716726c6d5ec364d16406eb;\n\n    // keccak256(\"payment(address from,uint256 value,uint256 nonce)\");\n    bytes32 public constant PAYMENT_TYPEHASH = 0x841d82f71fa4558203bb763733f6b3326ecaf324143e12fb9b6a9ed958fc4ee0;\n\n    event TokensIssued(address indexed account, uint256 value, bytes32 secretHash);\n    event TokensAccepted(address indexed account, bool directCall);\n    event TokensDistributed(address indexed account, uint256 value);\n    event Payment(address indexed account, uint256 value);\n    event Deposit(address indexed account, uint256 value);\n    event WithdrawalRequested(address indexed account, uint256 value);\n    event WithdrawalCanceled(address indexed account);\n    event Withdrawal(address indexed account, uint256 value);\n    event EtherTransfered(address indexed to, uint256 value);\n    event TokensTransfered(address indexed to, uint256 value);\n    event ManagerChanged(address from, address to);\n    event WalletChanged(address from, address to);\n    event ReleaseDelayChanged(uint256 from, uint256 to);\n    event MaxTokensPerIssueChanged(uint256 from, uint256 to);\n    event MaxTokensPerBlockChanged(uint256 from, uint256 to);\n\n    modifier onlyAdmins() {\n        require(msg.sender == s_owner || msg.sender == s_entities.manager, \"Pool: not owner or manager\");\n        _;\n    }\n\n    constructor(address tokenContract) public {\n        uint chainId;\n        assembly {\n            chainId := chainid()\n        }\n     \n        s_entities.token = tokenContract;\n        s_limits = Limits({releaseDelay: 240, maxTokensPerIssue: 10*1000*(10**18), maxTokensPerBlock: 50*1000*(10**18)});\n        s_uid = (\n          uint256(VERSION) << 248 |\n          uint256(blockhash(block.number-1)) << 192 >> 16 |\n          uint256(address(this))\n        );\n\n        DOMAIN_SEPARATOR = keccak256(\n            abi.encode(\n                keccak256(\"EIP712Domain(string name,string version,uint256 chainId,address verifyingContract,uint256 salt)\"),\n                keccak256(bytes(\"Kirobo Pool\")),\n                keccak256(bytes('1')),\n                chainId,\n                address(this),\n                s_uid\n            )\n        );\n    }\n\n    receive () external payable {\n        require(false, \"Pool: not accepting ether\");\n    }\n\n\n    // ----------- Owner Functions ------------\n\n\n    function setManager(address manager) external onlyOwner() {\n        require(manager != address(this), \"Pool: self cannot be mananger\");\n        require(manager != s_entities.token, \"Pool: token cannot be manager\");\n        emit ManagerChanged(s_entities.manager, manager);\n        s_entities.manager = manager;\n    }\n\n    function setWallet(address wallet) external onlyOwner() {\n        require(wallet != address(this), \"Pool: self cannot be wallet\");\n        require(wallet != s_entities.token, \"Pool: token cannot be wallt\");\n        emit WalletChanged(s_entities.wallet, wallet);\n        s_entities.wallet = wallet;\n    }\n\n    function setReleaseDelay(uint256 blocks) external onlyOwner() {\n        require(blocks <= MAX_RELEASE_DELAY, \"Pool: exeeds max release delay\");\n        emit ReleaseDelayChanged(s_limits.releaseDelay, blocks);\n        s_limits.releaseDelay = blocks;\n    }\n\n    function setMaxTokensPerIssue(uint256 tokens) external onlyOwner() {\n        emit MaxTokensPerIssueChanged(s_limits.maxTokensPerIssue, tokens);\n        s_limits.maxTokensPerIssue = tokens;\n    }\n\n    function setMaxTokensPerBlock(uint256 tokens) external onlyOwner() {\n        emit MaxTokensPerBlockChanged(s_limits.maxTokensPerBlock, tokens);\n        s_limits.maxTokensPerBlock = tokens;\n    }\n\n    function resyncTotalSupply(uint256 value) external onlyAdmins() returns (uint256) {\n        uint256 tokens = ownedTokens();\n        require(tokens >= s_supply.total, \"Pool: internal error, check contract logic\"); \n        require(value >= s_supply.total, \"Pool: only transferTokens can decrease total supply\");\n        require(value <= tokens, \"Pool: not enough tokens\");\n        s_supply.update(value);\n    }\n\n\n    // ----------- Admins Functions ------------\n\n\n    function transferEther(uint256 value) external onlyAdmins() {\n        require(s_entities.wallet != address(0), \"Pool: wallet not set\");\n        payable(s_entities.wallet).transfer(value);\n        emit EtherTransfered(s_entities.wallet, value);\n    }\n\n    function transferTokens(uint256 value) external onlyAdmins() {\n        require(s_entities.wallet != address(0), \"Pool: wallet not set\");\n        s_supply.decrease(value);\n        IERC20(s_entities.token).safeTransfer(s_entities.wallet, value);\n        emit TokensTransfered(s_entities.wallet, value);\n    }\n\n    function distributeTokens(address to, uint256 value) external onlyAdmins() {\n        _distributeTokens(to, value);\n    }\n    \n    function _distributeTokens(address to, uint256 value) private {\n        require(value <= s_limits.maxTokensPerIssue, \"Pool: exeeds max tokens per call\");\n        require(s_accounts[to].issueBlock < block.number, \"Pool: too soon\");\n        _validateTokensPerBlock(value);\n        Account storage sp_account = s_accounts[to];\n        sp_account.issueBlock = block.number;\n        sp_account.initNonce();\n        s_supply.give(value);\n        sp_account.take(value);\n        emit TokensDistributed(to, value);\n    }\n\n    /**\n     * @dev Issueing tokens for an address to be used for payments.\n     * The owner of the receiving address must accept via a signed message or a direct call.\n     * @param to The tokens recipient. \n     * @param value The number of tokens to issue.\n     * @param secretHash The keccak256 of the confirmation secret.\n    */\n    function issueTokens(address to, uint256 value, bytes32 secretHash) external onlyAdmins() {\n        require(value <= s_limits.maxTokensPerIssue, \"Pool: exeeds max tokens per call\");\n        _validateTokensPerBlock(value);\n        Account storage sp_account = s_accounts[to];\n        uint256 prevPending = sp_account.pending;\n        sp_account.initNonce();\n        sp_account.secretHash = secretHash;\n        sp_account.pending = value;\n        sp_account.issueBlock = block.number;\n        s_supply.updatePending(prevPending, value);\n        emit TokensIssued(to, value, secretHash);\n    }\n\n    function executeAcceptTokens(\n        bool eip712,\n        address recipient,\n        uint256 value,\n        bytes calldata c_secret,\n        uint8 v,\n        bytes32 r,\n        bytes32 s\n    )\n        external \n        onlyAdmins()\n    {\n        require(s_accounts[recipient].secretHash == keccak256(c_secret), \"Pool: wrong secret\");\n        require(\n            validateAcceptTokens(eip712, recipient, value, keccak256(c_secret), v, r ,s),\n            \"Pool: wrong signature or data\"\n        );\n        _acceptTokens(recipient, value);\n        emit TokensAccepted(recipient, false);\n    }\n\n    function executePayment(bool eip712, address from, uint256 value, uint8 v, bytes32 r, bytes32 s)\n        external\n        onlyAdmins()\n    {\n        require(validatePayment(eip712, from, value, v, r, s), \"Pool: wrong signature or data\");\n        Account storage sp_account = s_accounts[from];\n        sp_account.updateNonce();\n        sp_account.payment(value);\n        s_supply.payment(value);\n        emit Payment(from, value);\n    }\n  \n\n    // ----------- External Functions ------------\n\n\n    function executeBuyTokens(bool eip712, uint256 eth, uint256 kbt, uint256 expires, uint8 v, bytes32 r, bytes32 s) \n        external\n        payable\n    {\n        require(validateBuyTokens(eip712, msg.sender, eth, kbt, expires, v, r, s), \"Pool: wrong signature or data\");\n        require(block.timestamp <= expires, \"Pool: too late\");\n        require(msg.value == eth, \"Pool: value mismatch\");\n        _distributeTokens(msg.sender, kbt);\n    }\n\n    function acceptTokens(uint256 value, bytes calldata c_secret) external {\n        require(s_accounts[msg.sender].secretHash == keccak256(c_secret), \"Pool: wrong secret\");\n        _acceptTokens(msg.sender, value);\n        emit TokensAccepted(msg.sender, true);\n    }\n\n    function depositTokens(uint256 value) external {\n        // require(\n        //     IERC20(s_entities.token).allowance(msg.sender, address(this)) >= value,\n        //    \"IERC20 allowance too low\"\n        // );\n        Account storage sp_account = s_accounts[msg.sender]; \n        sp_account.initNonce();\n        sp_account.deposit(value);\n        s_supply.deposit(value);\n        IERC20(s_entities.token).safeTransferFrom(msg.sender, address(this), value);\n        emit Deposit(msg.sender, value);\n    }\n\n    function requestWithdrawal(uint256 value) external {\n        require(s_accounts[msg.sender].balance >= value, \"Pool: not enough tokens\");\n        require(value > 0, \"Pool: withdrawal value must be larger then 0\");\n        s_accounts[msg.sender].withdrawal = value;\n        s_accounts[msg.sender].releaseBlock = block.number + s_limits.releaseDelay;\n        emit WithdrawalRequested(msg.sender, value);\n    }\n\n    function cancelWithdrawal() external {\n        s_accounts[msg.sender].withdrawal = 0;\n        s_accounts[msg.sender].releaseBlock = 0;\n        emit WithdrawalCanceled(msg.sender);\n    }\n\n    function withdrawTokens() external {\n        Account storage sp_account = s_accounts[msg.sender];   \n        require(sp_account.withdrawal > 0, \"Pool: no withdraw request\");\n        require(sp_account.releaseBlock <= block.number, \"Pool: too soon\");\n        uint256 value = sp_account.withdrawal > sp_account.balance ? sp_account.balance : sp_account.withdrawal;\n        sp_account.withdraw(value);\n        s_supply.widthdraw(value);\n        IERC20(s_entities.token).safeTransfer(msg.sender, value);\n        emit Withdrawal(msg.sender, value);\n    }\n\n    function account(address addr) external view\n        returns (\n            uint256 nonce,  \n            uint256 balance,\n            uint256 issueBlock,\n            uint256 pending,\n            uint256 withdrawal,\n            uint256 releaseBlock,\n            bytes32 secretHash,\n            uint256 externalBalance\n        ) \n    {\n        Account storage sp_account = s_accounts[addr];\n        uint256 extBalance = IERC20(s_entities.token).balanceOf(addr);\n        return (\n            sp_account.nonce,\n            sp_account.balance,\n            sp_account.issueBlock,\n            sp_account.pending,\n            sp_account.withdrawal,\n            sp_account.releaseBlock,\n            sp_account.secretHash,\n            extBalance\n        );\n    }\n\n    function entities() view external\n        returns (\n            address manager,\n            address token,\n            address wallet\n        )\n    {\n        return (\n            s_entities.manager,\n            s_entities.token,\n            s_entities.wallet\n        );\n    }\n\n    function limits() external view\n        returns (\n            uint256 releaseDelay, \n            uint256 maxTokensPerIssue,\n            uint256 maxTokensPerBlock\n        )\n    {\n        return (\n            s_limits.releaseDelay,\n            s_limits.maxTokensPerIssue,\n            s_limits.maxTokensPerBlock\n        );\n    }\n\n    function supply() view external \n        returns (\n            uint256 total,\n            uint256 minimum,\n            uint256 pending,\n            uint256 available\n        ) \n    {\n        return (\n            s_supply.total,\n            s_supply.minimum,\n            s_supply.pending,\n            s_supply.available()\n        );\n    }\n\n    function uid() view external returns (uint256) {\n        return s_uid;\n    }\n\n    function totalSupply() view external returns (uint256) {\n        return s_supply.total;\n    }\n\n    function availableSupply() view external returns (uint256) {\n        return s_supply.available();\n    }\n\n\n    // ----------- Public Functions ------------\n\n\n    function generateBuyTokensMessage(bool eip712, address recipient, uint256 eth, uint256 kbt, uint256 expires)\n        public view\n        returns (bytes memory)\n    {\n        if (eip712) {\n            return abi.encode(\n                PAYMENT_TYPEHASH,\n                recipient,\n                eth,\n                kbt,\n                expires\n            );\n        }\n        return abi.encodePacked(\n            s_uid,\n            this.generatePaymentMessage.selector,\n            recipient,\n            eth,\n            kbt,\n            expires\n        );\n    }\n\n    function generateAcceptTokensMessage(bool eip712, address recipient, uint256 value, bytes32 secretHash)\n        public view \n        returns (bytes memory)\n    {\n        require(s_accounts[recipient].secretHash == secretHash, \"Pool: wrong secret hash\");\n        require(s_accounts[recipient].pending == value, \"Pool: value must equal pending(issued tokens)\");\n        if (eip712) {\n            return abi.encode(\n                ACCEPT_TYPEHASH,\n                recipient,\n                value,\n                secretHash\n            );\n        }\n        return abi.encodePacked(\n            s_uid,\n            this.generateAcceptTokensMessage.selector,\n            recipient,\n            value,\n            secretHash\n        );\n    }\n\n    function generatePaymentMessage(bool eip712, address from, uint256 value)\n        public view\n        returns (bytes memory)\n    {\n        Account storage sp_account = s_accounts[from]; \n        require(sp_account.balance >= value, \"Pool: account balnace too low\");\n        if (eip712) {\n            return abi.encode(\n                PAYMENT_TYPEHASH,\n                from,\n                value,\n                sp_account.nonce\n            );\n        }\n        return abi.encodePacked(\n            s_uid,\n            this.generatePaymentMessage.selector,\n            from,\n            value,\n            sp_account.nonce\n        );\n    }\n\n    function validateBuyTokens(\n        bool eip712,\n        address from,\n        uint256 eth,\n        uint256 kbt,\n        uint256 expires,\n        uint8 v,\n        bytes32 r,\n        bytes32 s\n    )\n        public view \n        returns (bool)\n    {\n        bytes32 message = _messageToRecover(\n            eip712,\n            keccak256(generateBuyTokensMessage(eip712, from, eth, kbt, expires))\n        );\n        address addr = ecrecover(message, v, r, s);\n        return addr == s_entities.manager;      \n    }\n\n    function validateAcceptTokens(\n        bool eip712,\n        address recipient,\n        uint256 value,\n        bytes32 secretHash,\n        uint8 v,\n        bytes32 r,\n        bytes32 s\n    )\n        public view \n        returns (bool)\n    {\n        bytes32 message = _messageToRecover(\n            eip712,\n            keccak256(generateAcceptTokensMessage(eip712, recipient, value, secretHash))\n        );\n        address addr = ecrecover(message, v, r, s);\n        return addr == recipient;\n    }\n\n    function validatePayment(bool eip712, address from, uint256 value, uint8 v, bytes32 r, bytes32 s)\n        public view \n        returns (bool)\n    {\n        bytes32 message = _messageToRecover(\n            eip712,\n            keccak256(generatePaymentMessage(eip712, from, value))\n        );\n        address addr = ecrecover(message, v, r, s);\n        return addr == from;      \n    }\n\n    function ownedTokens() view public returns (uint256) {\n        return IERC20(s_entities.token).balanceOf(address(this));\n    }\n\n\n    // ----------- Private Functions ------------\n\n\n    function _validateTokensPerBlock(uint256 value) private {\n        if (s_lastIssuedBlock < block.number) {\n            s_lastIssuedBlock = block.number;\n            s_totalIssuedInBlock = value;\n        } else {\n            s_totalIssuedInBlock.add(value);\n        }\n        require(s_totalIssuedInBlock <= s_limits.maxTokensPerBlock, \"Pool: exeeds max tokens per block\");\n    }\n\n    function _acceptTokens(address recipient, uint256 value) private {\n        require(s_accounts[recipient].issueBlock < block.number, \"Pool: too soon\");\n        s_accounts[recipient].acceptPending(value);\n        s_supply.acceptPending(value);\n    }\n\n    function _messageToRecover(bool eip712, bytes32 hashedUnsignedMessage)\n        private view \n        returns (bytes32)\n    {\n        bytes memory unsignedMessageBytes = _hashToAscii(\n            hashedUnsignedMessage\n        );\n        if (eip712) {\n            return keccak256(abi.encodePacked(\"\\x19\\x01\", DOMAIN_SEPARATOR, hashedUnsignedMessage));\n            // return keccak256(abi.encodePacked(\"\\x19\\x01\", DOMAIN_SEPARATOR, unsignedMessageBytes));\n        }\n        return keccak256(abi.encodePacked(\"\\x19Ethereum Signed Message:\\n64\", unsignedMessageBytes));\n    }\n\n    function _hashToAscii(bytes32 hash) private pure returns (bytes memory) {\n        bytes memory s = new bytes(64);\n        for (uint i = 0; i < 32; i++) {\n            byte  b = hash[i];\n            byte hi = byte(uint8(b) / 16);\n            byte lo = byte(uint8(b) - 16 * uint8(hi));\n            s[2*i] = _char(hi);\n            s[2*i+1] = _char(lo);\n        }\n        return s;\n    }\n\n    function _char(byte b) private pure returns (byte c) {\n        if (b < byte(uint8(10))) {\n            return byte(uint8(b) + 0x30);\n        } else {\n            return byte(uint8(b) + 0x57);\n        }\n    }\n\n}\n",
  "sourcePath": "/Users/Tal/code/kirobo/ki-eth-token/contracts/Pool.sol",
  "compiler": {
    "name": "solc",
    "version": "0.6.12+commit.27d51765.Emscripten.clang"
  },
  "schemaVersion": "3.2.0",
  "updatedAt": "2020-09-03T01:46:15.491Z",
  "devdoc": {
    "kind": "dev",
    "methods": {
      "claimOwnership()": {
        "details": "Allows the pendingOwner address to finalize the transfer."
      },
      "issueTokens(address,uint256,bytes32)": {
        "details": "Issueing tokens for an address to be used for payments. The owner of the receiving address must accept via a signed message or a direct call.",
        "params": {
          "secretHash": "The keccak256 of the confirmation secret.",
          "to": "The tokens recipient. ",
          "value": "The number of tokens to issue."
        }
      },
      "transferOwnership(address)": {
        "details": "Allows the current owner to set the pendingOwner address.",
        "params": {
          "newOwner": "The address to transfer ownership to."
        }
      }
    },
    "version": 1
  },
  "userdoc": {
    "kind": "user",
    "methods": {},
    "version": 1
  }
}