{
  "contractName": "Pool",
  "abi": [
    {
      "inputs": [
        {
          "internalType": "address",
          "name": "_tokenContract",
          "type": "address"
        }
      ],
      "stateMutability": "nonpayable",
      "type": "constructor"
    },
    {
      "anonymous": false,
      "inputs": [
        {
          "indexed": true,
          "internalType": "address",
          "name": "account",
          "type": "address"
        },
        {
          "indexed": false,
          "internalType": "uint256",
          "name": "value",
          "type": "uint256"
        }
      ],
      "name": "Deposit",
      "type": "event"
    },
    {
      "anonymous": false,
      "inputs": [
        {
          "indexed": true,
          "internalType": "address",
          "name": "to",
          "type": "address"
        },
        {
          "indexed": false,
          "internalType": "uint256",
          "name": "value",
          "type": "uint256"
        }
      ],
      "name": "EtherTransfered",
      "type": "event"
    },
    {
      "anonymous": false,
      "inputs": [
        {
          "indexed": true,
          "internalType": "address",
          "name": "previousOwner",
          "type": "address"
        },
        {
          "indexed": true,
          "internalType": "address",
          "name": "newOwner",
          "type": "address"
        }
      ],
      "name": "OwnershipTransferred",
      "type": "event"
    },
    {
      "anonymous": false,
      "inputs": [
        {
          "indexed": true,
          "internalType": "address",
          "name": "account",
          "type": "address"
        },
        {
          "indexed": false,
          "internalType": "uint256",
          "name": "value",
          "type": "uint256"
        }
      ],
      "name": "Payment",
      "type": "event"
    },
    {
      "anonymous": false,
      "inputs": [
        {
          "indexed": true,
          "internalType": "address",
          "name": "account",
          "type": "address"
        },
        {
          "indexed": false,
          "internalType": "bool",
          "name": "directCall",
          "type": "bool"
        }
      ],
      "name": "TokensAccepted",
      "type": "event"
    },
    {
      "anonymous": false,
      "inputs": [
        {
          "indexed": true,
          "internalType": "address",
          "name": "account",
          "type": "address"
        },
        {
          "indexed": false,
          "internalType": "uint256",
          "name": "value",
          "type": "uint256"
        },
        {
          "indexed": false,
          "internalType": "bytes32",
          "name": "secretHash",
          "type": "bytes32"
        }
      ],
      "name": "TokensIssued",
      "type": "event"
    },
    {
      "anonymous": false,
      "inputs": [
        {
          "indexed": true,
          "internalType": "address",
          "name": "to",
          "type": "address"
        },
        {
          "indexed": false,
          "internalType": "uint256",
          "name": "value",
          "type": "uint256"
        }
      ],
      "name": "TokensTransfered",
      "type": "event"
    },
    {
      "anonymous": false,
      "inputs": [
        {
          "indexed": true,
          "internalType": "address",
          "name": "account",
          "type": "address"
        },
        {
          "indexed": false,
          "internalType": "uint256",
          "name": "value",
          "type": "uint256"
        }
      ],
      "name": "Withdrawal",
      "type": "event"
    },
    {
      "anonymous": false,
      "inputs": [
        {
          "indexed": true,
          "internalType": "address",
          "name": "account",
          "type": "address"
        }
      ],
      "name": "WithdrawalCanceled",
      "type": "event"
    },
    {
      "anonymous": false,
      "inputs": [
        {
          "indexed": true,
          "internalType": "address",
          "name": "account",
          "type": "address"
        },
        {
          "indexed": false,
          "internalType": "uint256",
          "name": "value",
          "type": "uint256"
        }
      ],
      "name": "WithdrawalRequested",
      "type": "event"
    },
    {
      "inputs": [],
      "name": "claimOwnership",
      "outputs": [],
      "stateMutability": "nonpayable",
      "type": "function"
    },
    {
      "inputs": [
        {
          "internalType": "address",
          "name": "_newOwner",
          "type": "address"
        }
      ],
      "name": "transferOwnership",
      "outputs": [],
      "stateMutability": "nonpayable",
      "type": "function"
    },
    {
      "inputs": [
        {
          "internalType": "uint256",
          "name": "_blocks",
          "type": "uint256"
        }
      ],
      "name": "setReleaseDelay",
      "outputs": [],
      "stateMutability": "nonpayable",
      "type": "function"
    },
    {
      "inputs": [
        {
          "internalType": "uint256",
          "name": "_tokens",
          "type": "uint256"
        }
      ],
      "name": "setMaxTokensPerIssueCall",
      "outputs": [],
      "stateMutability": "nonpayable",
      "type": "function"
    },
    {
      "inputs": [
        {
          "internalType": "address",
          "name": "_to",
          "type": "address"
        },
        {
          "internalType": "uint256",
          "name": "_value",
          "type": "uint256"
        },
        {
          "internalType": "bytes32",
          "name": "_secretHash",
          "type": "bytes32"
        }
      ],
      "name": "issueTokens",
      "outputs": [],
      "stateMutability": "nonpayable",
      "type": "function"
    },
    {
      "inputs": [
        {
          "internalType": "address",
          "name": "_account",
          "type": "address"
        }
      ],
      "name": "issuedPendingTokens",
      "outputs": [
        {
          "internalType": "uint256",
          "name": "",
          "type": "uint256"
        }
      ],
      "stateMutability": "view",
      "type": "function",
      "constant": true
    },
    {
      "inputs": [
        {
          "internalType": "uint256",
          "name": "_value",
          "type": "uint256"
        }
      ],
      "name": "acceptTokens",
      "outputs": [],
      "stateMutability": "nonpayable",
      "type": "function"
    },
    {
      "inputs": [
        {
          "internalType": "address payable",
          "name": "_etherWallet",
          "type": "address"
        }
      ],
      "name": "setEtherWallet",
      "outputs": [],
      "stateMutability": "nonpayable",
      "type": "function"
    },
    {
      "inputs": [
        {
          "internalType": "address",
          "name": "_tokenWallet",
          "type": "address"
        }
      ],
      "name": "setTokenWallet",
      "outputs": [],
      "stateMutability": "nonpayable",
      "type": "function"
    },
    {
      "inputs": [
        {
          "internalType": "uint256",
          "name": "_value",
          "type": "uint256"
        }
      ],
      "name": "transferEther",
      "outputs": [],
      "stateMutability": "nonpayable",
      "type": "function"
    },
    {
      "inputs": [
        {
          "internalType": "uint256",
          "name": "_value",
          "type": "uint256"
        }
      ],
      "name": "transferTokens",
      "outputs": [],
      "stateMutability": "nonpayable",
      "type": "function"
    },
    {
      "inputs": [
        {
          "internalType": "address",
          "name": "_account",
          "type": "address"
        }
      ],
      "name": "accountNonce",
      "outputs": [
        {
          "internalType": "uint256",
          "name": "",
          "type": "uint256"
        }
      ],
      "stateMutability": "view",
      "type": "function",
      "constant": true
    },
    {
      "inputs": [
        {
          "internalType": "address",
          "name": "_account",
          "type": "address"
        }
      ],
      "name": "accountBalance",
      "outputs": [
        {
          "internalType": "uint256",
          "name": "",
          "type": "uint256"
        }
      ],
      "stateMutability": "view",
      "type": "function",
      "constant": true
    },
    {
      "inputs": [
        {
          "internalType": "address",
          "name": "_from",
          "type": "address"
        },
        {
          "internalType": "uint256",
          "name": "_value",
          "type": "uint256"
        }
      ],
      "name": "generatePaymentMessage",
      "outputs": [
        {
          "internalType": "bytes",
          "name": "",
          "type": "bytes"
        }
      ],
      "stateMutability": "view",
      "type": "function",
      "constant": true
    },
    {
      "inputs": [
        {
          "internalType": "address",
          "name": "_from",
          "type": "address"
        },
        {
          "internalType": "uint256",
          "name": "_value",
          "type": "uint256"
        },
        {
          "internalType": "uint8",
          "name": "_v",
          "type": "uint8"
        },
        {
          "internalType": "bytes32",
          "name": "_r",
          "type": "bytes32"
        },
        {
          "internalType": "bytes32",
          "name": "_s",
          "type": "bytes32"
        }
      ],
      "name": "validatePayment",
      "outputs": [
        {
          "internalType": "bool",
          "name": "",
          "type": "bool"
        }
      ],
      "stateMutability": "view",
      "type": "function",
      "constant": true
    },
    {
      "inputs": [
        {
          "internalType": "address",
          "name": "_from",
          "type": "address"
        },
        {
          "internalType": "uint256",
          "name": "_value",
          "type": "uint256"
        },
        {
          "internalType": "uint8",
          "name": "_v",
          "type": "uint8"
        },
        {
          "internalType": "bytes32",
          "name": "_r",
          "type": "bytes32"
        },
        {
          "internalType": "bytes32",
          "name": "_s",
          "type": "bytes32"
        }
      ],
      "name": "executePayment",
      "outputs": [],
      "stateMutability": "nonpayable",
      "type": "function"
    },
    {
      "inputs": [
        {
          "internalType": "address",
          "name": "_for",
          "type": "address"
        },
        {
          "internalType": "uint256",
          "name": "_value",
          "type": "uint256"
        },
        {
          "internalType": "bytes32",
          "name": "_secretHash",
          "type": "bytes32"
        }
      ],
      "name": "generateAcceptTokensMessage",
      "outputs": [
        {
          "internalType": "bytes",
          "name": "",
          "type": "bytes"
        }
      ],
      "stateMutability": "view",
      "type": "function",
      "constant": true
    },
    {
      "inputs": [
        {
          "internalType": "address",
          "name": "_for",
          "type": "address"
        },
        {
          "internalType": "uint256",
          "name": "_value",
          "type": "uint256"
        },
        {
          "internalType": "bytes32",
          "name": "_secretHash",
          "type": "bytes32"
        },
        {
          "internalType": "uint8",
          "name": "_v",
          "type": "uint8"
        },
        {
          "internalType": "bytes32",
          "name": "_r",
          "type": "bytes32"
        },
        {
          "internalType": "bytes32",
          "name": "_s",
          "type": "bytes32"
        }
      ],
      "name": "validateAcceptTokens",
      "outputs": [
        {
          "internalType": "bool",
          "name": "",
          "type": "bool"
        }
      ],
      "stateMutability": "view",
      "type": "function",
      "constant": true
    },
    {
      "inputs": [
        {
          "internalType": "address",
          "name": "_for",
          "type": "address"
        },
        {
          "internalType": "uint256",
          "name": "_value",
          "type": "uint256"
        },
        {
          "internalType": "bytes",
          "name": "_secret",
          "type": "bytes"
        },
        {
          "internalType": "uint8",
          "name": "_v",
          "type": "uint8"
        },
        {
          "internalType": "bytes32",
          "name": "_r",
          "type": "bytes32"
        },
        {
          "internalType": "bytes32",
          "name": "_s",
          "type": "bytes32"
        }
      ],
      "name": "executeAcceptTokens",
      "outputs": [],
      "stateMutability": "nonpayable",
      "type": "function"
    },
    {
      "inputs": [
        {
          "internalType": "address",
          "name": "_manager",
          "type": "address"
        }
      ],
      "name": "setManager",
      "outputs": [],
      "stateMutability": "nonpayable",
      "type": "function"
    },
    {
      "inputs": [],
      "name": "totalSupply",
      "outputs": [
        {
          "internalType": "uint256",
          "name": "",
          "type": "uint256"
        }
      ],
      "stateMutability": "view",
      "type": "function",
      "constant": true
    },
    {
      "inputs": [],
      "name": "availableSupply",
      "outputs": [
        {
          "internalType": "uint256",
          "name": "",
          "type": "uint256"
        }
      ],
      "stateMutability": "view",
      "type": "function",
      "constant": true
    },
    {
      "inputs": [
        {
          "internalType": "uint256",
          "name": "_value",
          "type": "uint256"
        }
      ],
      "name": "deposit",
      "outputs": [],
      "stateMutability": "nonpayable",
      "type": "function"
    },
    {
      "inputs": [
        {
          "internalType": "uint256",
          "name": "_value",
          "type": "uint256"
        }
      ],
      "name": "requestWithdrawal",
      "outputs": [],
      "stateMutability": "nonpayable",
      "type": "function"
    },
    {
      "inputs": [],
      "name": "cancelWithdrawal",
      "outputs": [],
      "stateMutability": "nonpayable",
      "type": "function"
    },
    {
      "inputs": [],
      "name": "withdraw",
      "outputs": [],
      "stateMutability": "nonpayable",
      "type": "function"
    }
  ],
  "bytecode": "0x608060405234801561001057600080fd5b50604051613a21380380613a218339818101604052602081101561003357600080fd5b8101908080519060200190929190505050336000806101000a81548173ffffffffffffffffffffffffffffffffffffffff021916908373ffffffffffffffffffffffffffffffffffffffff16021790555080600260006101000a81548173ffffffffffffffffffffffffffffffffffffffff021916908373ffffffffffffffffffffffffffffffffffffffff16021790555060f06008819055506127106009819055505061393b806100e66000396000f3fe608060405234801561001057600080fd5b506004361061018e5760003560e01c80639ee679e8116100de578063d0ebdbe711610097578063ee1f5a7f11610071578063ee1f5a7f14610885578063f2fde38b146108c9578063fd1f03db1461090d578063fd9a4e61146109925761018e565b8063d0ebdbe7146106e3578063d294cb0f14610727578063e12392d11461077f5761018e565b80639ee679e8146104ed578063a621344a1461051b578063ac8aa0c01461055f578063b6b55f25146105b7578063c0282006146105e5578063c14d3368146106745761018e565b80634e71e0c81161014b5780637581c27a116101255780637581c27a146103a257806379d23853146103d05780637e060b55146104a15780637ecc2b56146104cf5761018e565b80634e71e0c814610312578063674847c51461031c57806373ffd5b7146103745761018e565b8063106cffe21461019357806318160ddd146101eb5780631b56c29c1461020957806322611280146102375780633ccfd60b1461024157806340b2645d1461024b575b600080fd5b6101d5600480360360208110156101a957600080fd5b81019080803573ffffffffffffffffffffffffffffffffffffffff1690602001909291905050506109c0565b6040518082815260200191505060405180910390f35b6101f3610a0c565b6040518082815260200191505060405180910390f35b6102356004803603602081101561021f57600080fd5b8101908080359060200190929190505050610ad7565b005b61023f610b35565b005b610249610c0a565b005b6102976004803603604081101561026157600080fd5b81019080803573ffffffffffffffffffffffffffffffffffffffff16906020019092919080359060200190929190505050610fd0565b6040518080602001828103825283818151815260200191508051906020019080838360005b838110156102d75780820151818401526020810190506102bc565b50505050905090810190601f1680156103045780820380516001836020036101000a031916815260200191505b509250505060405180910390f35b61031a61116b565b005b61035e6004803603602081101561033257600080fd5b81019080803573ffffffffffffffffffffffffffffffffffffffff169060200190929190505050611370565b6040518082815260200191505060405180910390f35b6103a06004803603602081101561038a57600080fd5b81019080803590602001909291905050506113bc565b005b6103ce600480360360208110156103b857600080fd5b8101908080359060200190929190505050611676565b005b610426600480360360608110156103e657600080fd5b81019080803573ffffffffffffffffffffffffffffffffffffffff1690602001909291908035906020019092919080359060200190929190505050611741565b6040518080602001828103825283818151815260200191508051906020019080838360005b8381101561046657808201518184015260208101905061044b565b50505050905090810190601f1680156104935780820380516001836020036101000a031916815260200191505b509250505060405180910390f35b6104cd600480360360208110156104b757600080fd5b8101908080359060200190929190505050611916565b005b6104d7611a59565b6040518082815260200191505060405180910390f35b6105196004803603602081101561050357600080fd5b8101908080359060200190929190505050611b2c565b005b61055d6004803603602081101561053157600080fd5b81019080803573ffffffffffffffffffffffffffffffffffffffff169060200190929190505050611d3c565b005b6105b56004803603606081101561057557600080fd5b81019080803573ffffffffffffffffffffffffffffffffffffffff1690602001909291908035906020019092919080359060200190929190505050611e41565b005b6105e3600480360360208110156105cd57600080fd5b8101908080359060200190929190505050612202565b005b61065c600480360360c08110156105fb57600080fd5b81019080803573ffffffffffffffffffffffffffffffffffffffff1690602001909291908035906020019092919080359060200190929190803560ff16906020019092919080359060200190929190803590602001909291905050506124f7565b60405180821515815260200191505060405180910390f35b6106e1600480360360a081101561068a57600080fd5b81019080803573ffffffffffffffffffffffffffffffffffffffff16906020019092919080359060200190929190803560ff16906020019092919080359060200190929190803590602001909291905050506125bb565b005b610725600480360360208110156106f957600080fd5b81019080803573ffffffffffffffffffffffffffffffffffffffff169060200190929190505050612907565b005b6107696004803603602081101561073d57600080fd5b81019080803573ffffffffffffffffffffffffffffffffffffffff169060200190929190505050612a0c565b6040518082815260200191505060405180910390f35b610883600480360360c081101561079557600080fd5b81019080803573ffffffffffffffffffffffffffffffffffffffff16906020019092919080359060200190929190803590602001906401000000008111156107dc57600080fd5b8201836020820111156107ee57600080fd5b8035906020019184600183028401116401000000008311171561081057600080fd5b91908080601f016020809104026020016040519081016040528093929190818152602001838380828437600081840152601f19601f820116905080830192505050505050509192919290803560ff1690602001909291908035906020019092919080359060200190929190505050612a58565b005b6108c76004803603602081101561089b57600080fd5b81019080803573ffffffffffffffffffffffffffffffffffffffff169060200190929190505050612d19565b005b61090b600480360360208110156108df57600080fd5b81019080803573ffffffffffffffffffffffffffffffffffffffff169060200190929190505050612e1e565b005b61097a600480360360a081101561092357600080fd5b81019080803573ffffffffffffffffffffffffffffffffffffffff16906020019092919080359060200190929190803560ff1690602001909291908035906020019092919080359060200190929190505050612f23565b60405180821515815260200191505060405180910390f35b6109be600480360360208110156109a857600080fd5b8101908080359060200190929190505050612fe5565b005b6000600a60008373ffffffffffffffffffffffffffffffffffffffff1673ffffffffffffffffffffffffffffffffffffffff168152602001908152602001600020600001549050919050565b6000600260009054906101000a900473ffffffffffffffffffffffffffffffffffffffff1673ffffffffffffffffffffffffffffffffffffffff166370a08231306040518263ffffffff1660e01b8152600401808273ffffffffffffffffffffffffffffffffffffffff16815260200191505060206040518083038186803b158015610a9757600080fd5b505afa158015610aab573d6000803e3d6000fd5b505050506040513d6020811015610ac157600080fd5b8101908080519060200190929190505050905090565b610ae13382613387565b3373ffffffffffffffffffffffffffffffffffffffff167f87715bcb29dbe27420aab6499f3227b2d0c070e9332c9ea0d7da26a547e48e1d600160405180821515815260200191505060405180910390a250565b6000600a60003373ffffffffffffffffffffffffffffffffffffffff1673ffffffffffffffffffffffffffffffffffffffff168152602001908152602001600020600301819055506000600a60003373ffffffffffffffffffffffffffffffffffffffff1673ffffffffffffffffffffffffffffffffffffffff168152602001908152602001600020600401819055503373ffffffffffffffffffffffffffffffffffffffff167f2c149134fe0030fa8b86362e124b3379a0d5bf7e1c0f487a35a06f89bbf60cee60405160405180910390a2565b6000600a60003373ffffffffffffffffffffffffffffffffffffffff1673ffffffffffffffffffffffffffffffffffffffff1681526020019081526020016000206004015411610cc2576040517f08c379a00000000000000000000000000000000000000000000000000000000081526004018080602001828103825260138152602001807f6e6f20776974686472617720726571756573740000000000000000000000000081525060200191505060405180910390fd5b43600a60003373ffffffffffffffffffffffffffffffffffffffff1673ffffffffffffffffffffffffffffffffffffffff1681526020019081526020016000206004015410610d79576040517f08c379a00000000000000000000000000000000000000000000000000000000081526004018080602001828103825260088152602001807f746f6f20736f6f6e00000000000000000000000000000000000000000000000081525060200191505060405180910390fd5b6000600a60003373ffffffffffffffffffffffffffffffffffffffff1673ffffffffffffffffffffffffffffffffffffffff1681526020019081526020016000206003015490506000600a60003373ffffffffffffffffffffffffffffffffffffffff1673ffffffffffffffffffffffffffffffffffffffff168152602001908152602001600020600301819055506000600a60003373ffffffffffffffffffffffffffffffffffffffff1673ffffffffffffffffffffffffffffffffffffffff1681526020019081526020016000206004018190555080600a60003373ffffffffffffffffffffffffffffffffffffffff1673ffffffffffffffffffffffffffffffffffffffff1681526020019081526020016000206001016000828254039250508190555080600360008282540392505081905550600260009054906101000a900473ffffffffffffffffffffffffffffffffffffffff1673ffffffffffffffffffffffffffffffffffffffff1663a9059cbb33836040518363ffffffff1660e01b8152600401808373ffffffffffffffffffffffffffffffffffffffff16815260200182815260200192505050602060405180830381600087803b158015610f4357600080fd5b505af1158015610f57573d6000803e3d6000fd5b505050506040513d6020811015610f6d57600080fd5b8101908080519060200190929190505050503373ffffffffffffffffffffffffffffffffffffffff167f7fcf532c15f0a6db0bd6d0e038bea71d30d808c7d98cb3bf7268a95bf5081b65826040518082815260200191505060405180910390a250565b6060610fda613883565b600a60008573ffffffffffffffffffffffffffffffffffffffff1673ffffffffffffffffffffffffffffffffffffffff1681526020019081526020016000206040518060c00160405290816000820154815260200160018201548152602001600282015481526020016003820154815260200160048201548152602001600582015481525050905082816020015110156110dc576040517f08c379a00000000000000000000000000000000000000000000000000000000081526004018080602001828103825260178152602001807f6163636f756e742062616c6e61636520746f6f206c6f7700000000000000000081525060200191505060405180910390fd5b60023082600001518686604051602001808660ff1660f81b81526001018573ffffffffffffffffffffffffffffffffffffffff1660601b81526014018463ffffffff1660e01b81526004018373ffffffffffffffffffffffffffffffffffffffff1660601b81526014018281526020019550505050505060405160208183030381529060405291505092915050565b600160009054906101000a900473ffffffffffffffffffffffffffffffffffffffff1673ffffffffffffffffffffffffffffffffffffffff163373ffffffffffffffffffffffffffffffffffffffff161461122e576040517f08c379a00000000000000000000000000000000000000000000000000000000081526004018080602001828103825260118152602001807f6e6f742070656e64696e67206f776e657200000000000000000000000000000081525060200191505060405180910390fd5b600160009054906101000a900473ffffffffffffffffffffffffffffffffffffffff1673ffffffffffffffffffffffffffffffffffffffff1660008054906101000a900473ffffffffffffffffffffffffffffffffffffffff1673ffffffffffffffffffffffffffffffffffffffff167f8be0079c531659141344cd1fd0a4f28419497f9722a3daafe3b4186f6b6457e060405160405180910390a3600160009054906101000a900473ffffffffffffffffffffffffffffffffffffffff166000806101000a81548173ffffffffffffffffffffffffffffffffffffffff021916908373ffffffffffffffffffffffffffffffffffffffff1602179055506000600160006101000a81548173ffffffffffffffffffffffffffffffffffffffff021916908373ffffffffffffffffffffffffffffffffffffffff160217905550565b6000600a60008373ffffffffffffffffffffffffffffffffffffffff1673ffffffffffffffffffffffffffffffffffffffff168152602001908152602001600020600201549050919050565b60008054906101000a900473ffffffffffffffffffffffffffffffffffffffff1673ffffffffffffffffffffffffffffffffffffffff163373ffffffffffffffffffffffffffffffffffffffff1614806114635750600560009054906101000a900473ffffffffffffffffffffffffffffffffffffffff1673ffffffffffffffffffffffffffffffffffffffff163373ffffffffffffffffffffffffffffffffffffffff16145b6114d5576040517f08c379a00000000000000000000000000000000000000000000000000000000081526004018080602001828103825260148152602001807f6e6f74206f776e6572206f72206d616e6167657200000000000000000000000081525060200191505060405180910390fd5b600073ffffffffffffffffffffffffffffffffffffffff16600660009054906101000a900473ffffffffffffffffffffffffffffffffffffffff1673ffffffffffffffffffffffffffffffffffffffff16141561159a576040517f08c379a00000000000000000000000000000000000000000000000000000000081526004018080602001828103825260148152602001807f65746865722077616c6c6574206e6f742073657400000000000000000000000081525060200191505060405180910390fd5b600660009054906101000a900473ffffffffffffffffffffffffffffffffffffffff1673ffffffffffffffffffffffffffffffffffffffff166108fc829081150290604051600060405180830381858888f19350505050158015611602573d6000803e3d6000fd5b50600660009054906101000a900473ffffffffffffffffffffffffffffffffffffffff1673ffffffffffffffffffffffffffffffffffffffff167fcbbf9d8eccd82bfe565beb740ad23209888d91a194d1ad1eb4add4476e6be45c826040518082815260200191505060405180910390a250565b60008054906101000a900473ffffffffffffffffffffffffffffffffffffffff1673ffffffffffffffffffffffffffffffffffffffff163373ffffffffffffffffffffffffffffffffffffffff1614611737576040517f08c379a00000000000000000000000000000000000000000000000000000000081526004018080602001828103825260098152602001807f6e6f74206f776e6572000000000000000000000000000000000000000000000081525060200191505060405180910390fd5b8060098190555050565b606081600a60008673ffffffffffffffffffffffffffffffffffffffff1673ffffffffffffffffffffffffffffffffffffffff16815260200190815260200160002060050154146117fa576040517f08c379a00000000000000000000000000000000000000000000000000000000081526004018080602001828103825260118152602001807f77726f6e6720736563726574206861736800000000000000000000000000000081525060200191505060405180910390fd5b82600a60008673ffffffffffffffffffffffffffffffffffffffff1673ffffffffffffffffffffffffffffffffffffffff1681526020019081526020016000206002015414611894576040517f08c379a00000000000000000000000000000000000000000000000000000000081526004018080602001828103825260278152602001806138bd6027913960400191505060405180910390fd5b600130838587604051602001808660ff1660f81b81526001018573ffffffffffffffffffffffffffffffffffffffff1660601b81526014018481526020018381526020018273ffffffffffffffffffffffffffffffffffffffff1660601b81526014019550505050505060405160208183030381529060405290509392505050565b60008054906101000a900473ffffffffffffffffffffffffffffffffffffffff1673ffffffffffffffffffffffffffffffffffffffff163373ffffffffffffffffffffffffffffffffffffffff16146119d7576040517f08c379a00000000000000000000000000000000000000000000000000000000081526004018080602001828103825260098152602001807f6e6f74206f776e6572000000000000000000000000000000000000000000000081525060200191505060405180910390fd5b612d00811115611a4f576040517f08c379a00000000000000000000000000000000000000000000000000000000081526004018080602001828103825260188152602001807f657865656473206d61782072656c656173652064656c6179000000000000000081525060200191505060405180910390fd5b8060088190555050565b6000600454600354600260009054906101000a900473ffffffffffffffffffffffffffffffffffffffff1673ffffffffffffffffffffffffffffffffffffffff166370a08231306040518263ffffffff1660e01b8152600401808273ffffffffffffffffffffffffffffffffffffffff16815260200191505060206040518083038186803b158015611aea57600080fd5b505afa158015611afe573d6000803e3d6000fd5b505050506040513d6020811015611b1457600080fd5b81019080805190602001909291905050500303905090565b80600a60003373ffffffffffffffffffffffffffffffffffffffff1673ffffffffffffffffffffffffffffffffffffffff168152602001908152602001600020600101541015611be4576040517f08c379a00000000000000000000000000000000000000000000000000000000081526004018080602001828103825260118152602001807f6e6f7420656e6f75676820746f6b656e7300000000000000000000000000000081525060200191505060405180910390fd5b60008111611c5a576040517f08c379a000000000000000000000000000000000000000000000000000000000815260040180806020018281038252600f8152602001807f63616e6e6f74207769746864726177000000000000000000000000000000000081525060200191505060405180910390fd5b80600a60003373ffffffffffffffffffffffffffffffffffffffff1673ffffffffffffffffffffffffffffffffffffffff1681526020019081526020016000206003018190555060f04301600a60003373ffffffffffffffffffffffffffffffffffffffff1673ffffffffffffffffffffffffffffffffffffffff168152602001908152602001600020600401819055503373ffffffffffffffffffffffffffffffffffffffff167fe670e4e82118d22a1f9ee18920455ebc958bae26a90a05d31d3378788b1b0e44826040518082815260200191505060405180910390a250565b60008054906101000a900473ffffffffffffffffffffffffffffffffffffffff1673ffffffffffffffffffffffffffffffffffffffff163373ffffffffffffffffffffffffffffffffffffffff1614611dfd576040517f08c379a00000000000000000000000000000000000000000000000000000000081526004018080602001828103825260098152602001807f6e6f74206f776e6572000000000000000000000000000000000000000000000081525060200191505060405180910390fd5b80600760006101000a81548173ffffffffffffffffffffffffffffffffffffffff021916908373ffffffffffffffffffffffffffffffffffffffff16021790555050565b60008054906101000a900473ffffffffffffffffffffffffffffffffffffffff1673ffffffffffffffffffffffffffffffffffffffff163373ffffffffffffffffffffffffffffffffffffffff161480611ee85750600560009054906101000a900473ffffffffffffffffffffffffffffffffffffffff1673ffffffffffffffffffffffffffffffffffffffff163373ffffffffffffffffffffffffffffffffffffffff16145b611f5a576040517f08c379a00000000000000000000000000000000000000000000000000000000081526004018080602001828103825260148152602001807f6e6f74206f776e6572206f72206d616e6167657200000000000000000000000081525060200191505060405180910390fd5b611f62611a59565b821115611fd7576040517f08c379a000000000000000000000000000000000000000000000000000000000815260040180806020018281038252601b8152602001807f6e6f7420656e6f75676820617661696c61626c6520746f6b656e73000000000081525060200191505060405180910390fd5b60095482111561204f576040517f08c379a00000000000000000000000000000000000000000000000000000000081526004018080602001828103825260208152602001807f616d6f756e74206578656564206d617820746f6b656e73207065722063616c6c81525060200191505060405180910390fd5b6000600a60008573ffffffffffffffffffffffffffffffffffffffff1673ffffffffffffffffffffffffffffffffffffffff16815260200190815260200160002060020154905081600a60008673ffffffffffffffffffffffffffffffffffffffff1673ffffffffffffffffffffffffffffffffffffffff16815260200190815260200160002060050181905550828111156121435782600a60008673ffffffffffffffffffffffffffffffffffffffff1673ffffffffffffffffffffffffffffffffffffffff168152602001908152602001600020600201819055508281036004600082825401925050819055506121a6565b828110156121a55782600a60008673ffffffffffffffffffffffffffffffffffffffff1673ffffffffffffffffffffffffffffffffffffffff168152602001908152602001600020600201819055508083036004600082825401925050819055505b5b8373ffffffffffffffffffffffffffffffffffffffff167f39d84c7c6d92b3f4343f76193f77afd39f4de57d13ac90024de77cb03dc2eacb8484604051808381526020018281526020019250505060405180910390a250505050565b80600260009054906101000a900473ffffffffffffffffffffffffffffffffffffffff1673ffffffffffffffffffffffffffffffffffffffff1663dd62ed3e33306040518363ffffffff1660e01b8152600401808373ffffffffffffffffffffffffffffffffffffffff1681526020018273ffffffffffffffffffffffffffffffffffffffff1681526020019250505060206040518083038186803b1580156122aa57600080fd5b505afa1580156122be573d6000803e3d6000fd5b505050506040513d60208110156122d457600080fd5b81019080805190602001909291905050501015612359576040517f08c379a00000000000000000000000000000000000000000000000000000000081526004018080602001828103825260178152602001807f455243323020616c6c6f77616e636520746f6f206c6f7700000000000000000081525060200191505060405180910390fd5b600260009054906101000a900473ffffffffffffffffffffffffffffffffffffffff1673ffffffffffffffffffffffffffffffffffffffff166323b872dd3330846040518463ffffffff1660e01b8152600401808473ffffffffffffffffffffffffffffffffffffffff1681526020018373ffffffffffffffffffffffffffffffffffffffff1681526020018281526020019350505050602060405180830381600087803b15801561240a57600080fd5b505af115801561241e573d6000803e3d6000fd5b505050506040513d602081101561243457600080fd5b81019080805190602001909291905050505080600a60003373ffffffffffffffffffffffffffffffffffffffff1673ffffffffffffffffffffffffffffffffffffffff16815260200190815260200160002060010160008282540192505081905550806003600082825401925050819055503373ffffffffffffffffffffffffffffffffffffffff167fe1fffcc4923d04b559f4d29a8bfc6cda04eb5b0d3c460751c2402c5c5cc9109c826040518082815260200191505060405180910390a250565b600080612514612508898989611741565b805190602001206135b0565b9050600060018287878760405160008152602001604052604051808581526020018460ff1681526020018381526020018281526020019450505050506020604051602081039080840390855afa158015612572573d6000803e3d6000fd5b5050506020604051035190508873ffffffffffffffffffffffffffffffffffffffff168173ffffffffffffffffffffffffffffffffffffffff1614925050509695505050505050565b60008054906101000a900473ffffffffffffffffffffffffffffffffffffffff1673ffffffffffffffffffffffffffffffffffffffff163373ffffffffffffffffffffffffffffffffffffffff1614806126625750600560009054906101000a900473ffffffffffffffffffffffffffffffffffffffff1673ffffffffffffffffffffffffffffffffffffffff163373ffffffffffffffffffffffffffffffffffffffff16145b6126d4576040517f08c379a00000000000000000000000000000000000000000000000000000000081526004018080602001828103825260148152602001807f6e6f74206f776e6572206f72206d616e6167657200000000000000000000000081525060200191505060405180910390fd5b6126e18585858585612f23565b612753576040517f08c379a00000000000000000000000000000000000000000000000000000000081526004018080602001828103825260178152602001807f77726f6e67207369676e6174757265206f72206461746100000000000000000081525060200191505060405180910390fd5b42600a60008773ffffffffffffffffffffffffffffffffffffffff1673ffffffffffffffffffffffffffffffffffffffff16815260200190815260200160002060000154141561280b576040517f08c379a00000000000000000000000000000000000000000000000000000000081526004018080602001828103825260088152602001807f746f6f20736f6f6e00000000000000000000000000000000000000000000000081525060200191505060405180910390fd5b42600a60008773ffffffffffffffffffffffffffffffffffffffff1673ffffffffffffffffffffffffffffffffffffffff1681526020019081526020016000206000018190555083600a60008773ffffffffffffffffffffffffffffffffffffffff1673ffffffffffffffffffffffffffffffffffffffff16815260200190815260200160002060010160008282540392505081905550836003600082825403925050819055508473ffffffffffffffffffffffffffffffffffffffff167fd4f43975feb89f48dd30cabbb32011045be187d1e11c8ea9faa43efc35282519856040518082815260200191505060405180910390a25050505050565b60008054906101000a900473ffffffffffffffffffffffffffffffffffffffff1673ffffffffffffffffffffffffffffffffffffffff163373ffffffffffffffffffffffffffffffffffffffff16146129c8576040517f08c379a00000000000000000000000000000000000000000000000000000000081526004018080602001828103825260098152602001807f6e6f74206f776e6572000000000000000000000000000000000000000000000081525060200191505060405180910390fd5b80600560006101000a81548173ffffffffffffffffffffffffffffffffffffffff021916908373ffffffffffffffffffffffffffffffffffffffff16021790555050565b6000600a60008373ffffffffffffffffffffffffffffffffffffffff1673ffffffffffffffffffffffffffffffffffffffff168152602001908152602001600020600101549050919050565b60008054906101000a900473ffffffffffffffffffffffffffffffffffffffff1673ffffffffffffffffffffffffffffffffffffffff163373ffffffffffffffffffffffffffffffffffffffff161480612aff5750600560009054906101000a900473ffffffffffffffffffffffffffffffffffffffff1673ffffffffffffffffffffffffffffffffffffffff163373ffffffffffffffffffffffffffffffffffffffff16145b612b71576040517f08c379a00000000000000000000000000000000000000000000000000000000081526004018080602001828103825260148152602001807f6e6f74206f776e6572206f72206d616e6167657200000000000000000000000081525060200191505060405180910390fd5b8380519060200120600a60008873ffffffffffffffffffffffffffffffffffffffff1673ffffffffffffffffffffffffffffffffffffffff1681526020019081526020016000206005015414612c2f576040517f08c379a000000000000000000000000000000000000000000000000000000000815260040180806020018281038252600c8152602001807f77726f6e6720736563726574000000000000000000000000000000000000000081525060200191505060405180910390fd5b612c44868686805190602001208686866124f7565b612cb6576040517f08c379a00000000000000000000000000000000000000000000000000000000081526004018080602001828103825260178152602001807f77726f6e67207369676e6174757265206f72206461746100000000000000000081525060200191505060405180910390fd5b612cc08686613387565b8573ffffffffffffffffffffffffffffffffffffffff167f87715bcb29dbe27420aab6499f3227b2d0c070e9332c9ea0d7da26a547e48e1d600060405180821515815260200191505060405180910390a2505050505050565b60008054906101000a900473ffffffffffffffffffffffffffffffffffffffff1673ffffffffffffffffffffffffffffffffffffffff163373ffffffffffffffffffffffffffffffffffffffff1614612dda576040517f08c379a00000000000000000000000000000000000000000000000000000000081526004018080602001828103825260098152602001807f6e6f74206f776e6572000000000000000000000000000000000000000000000081525060200191505060405180910390fd5b80600660006101000a81548173ffffffffffffffffffffffffffffffffffffffff021916908373ffffffffffffffffffffffffffffffffffffffff16021790555050565b60008054906101000a900473ffffffffffffffffffffffffffffffffffffffff1673ffffffffffffffffffffffffffffffffffffffff163373ffffffffffffffffffffffffffffffffffffffff1614612edf576040517f08c379a00000000000000000000000000000000000000000000000000000000081526004018080602001828103825260098152602001807f6e6f74206f776e6572000000000000000000000000000000000000000000000081525060200191505060405180910390fd5b80600160006101000a81548173ffffffffffffffffffffffffffffffffffffffff021916908373ffffffffffffffffffffffffffffffffffffffff16021790555050565b600080612f3f612f338888610fd0565b805190602001206135b0565b9050600060018287878760405160008152602001604052604051808581526020018460ff1681526020018381526020018281526020019450505050506020604051602081039080840390855afa158015612f9d573d6000803e3d6000fd5b5050506020604051035190508773ffffffffffffffffffffffffffffffffffffffff168173ffffffffffffffffffffffffffffffffffffffff16149250505095945050505050565b60008054906101000a900473ffffffffffffffffffffffffffffffffffffffff1673ffffffffffffffffffffffffffffffffffffffff163373ffffffffffffffffffffffffffffffffffffffff16148061308c5750600560009054906101000a900473ffffffffffffffffffffffffffffffffffffffff1673ffffffffffffffffffffffffffffffffffffffff163373ffffffffffffffffffffffffffffffffffffffff16145b6130fe576040517f08c379a00000000000000000000000000000000000000000000000000000000081526004018080602001828103825260148152602001807f6e6f74206f776e6572206f72206d616e6167657200000000000000000000000081525060200191505060405180910390fd5b600073ffffffffffffffffffffffffffffffffffffffff16600760009054906101000a900473ffffffffffffffffffffffffffffffffffffffff1673ffffffffffffffffffffffffffffffffffffffff1614156131c3576040517f08c379a00000000000000000000000000000000000000000000000000000000081526004018080602001828103825260148152602001807f746f6b656e2077616c6c6574206e6f742073657400000000000000000000000081525060200191505060405180910390fd5b6131cb611a59565b811115613223576040517f08c379a00000000000000000000000000000000000000000000000000000000081526004018080602001828103825260228152602001806138e46022913960400191505060405180910390fd5b600260009054906101000a900473ffffffffffffffffffffffffffffffffffffffff1673ffffffffffffffffffffffffffffffffffffffff1663a9059cbb600760009054906101000a900473ffffffffffffffffffffffffffffffffffffffff16836040518363ffffffff1660e01b8152600401808373ffffffffffffffffffffffffffffffffffffffff16815260200182815260200192505050602060405180830381600087803b1580156132d857600080fd5b505af11580156132ec573d6000803e3d6000fd5b505050506040513d602081101561330257600080fd5b810190808051906020019092919050505050600760009054906101000a900473ffffffffffffffffffffffffffffffffffffffff1673ffffffffffffffffffffffffffffffffffffffff167fa267b5cf59cf96d97abf36d29c63cf7bdef867c208ca8575c47f2cafda39abc9826040518082815260200191505060405180910390a250565b6000600a60008473ffffffffffffffffffffffffffffffffffffffff1673ffffffffffffffffffffffffffffffffffffffff16815260200190815260200160002060020154905060008111613444576040517f08c379a00000000000000000000000000000000000000000000000000000000081526004018080602001828103825260118152602001807f6e6f2070656e64696e6720746f6b656e7300000000000000000000000000000081525060200191505060405180910390fd5b8181146134b9576040517f08c379a000000000000000000000000000000000000000000000000000000000815260040180806020018281038252601e8152602001807f76616c7565206d75737420657175616c2069737375656420746f6b656e73000081525060200191505060405180910390fd5b6000600a60008573ffffffffffffffffffffffffffffffffffffffff1673ffffffffffffffffffffffffffffffffffffffff1681526020019081526020016000206002018190555080600a60008573ffffffffffffffffffffffffffffffffffffffff1673ffffffffffffffffffffffffffffffffffffffff168152602001908152602001600020600101600082825401925050819055506000801b600a60008573ffffffffffffffffffffffffffffffffffffffff1673ffffffffffffffffffffffffffffffffffffffff1681526020019081526020016000206005018190555080600460008282540392505081905550505050565b600060606135bd836136c7565b905060606040518060400160405280601c81526020017f19457468657265756d205369676e6564204d6573736167653a0a363400000000815250905080826040516020018083805190602001908083835b60208310613631578051825260208201915060208101905060208303925061360e565b6001836020036101000a03801982511681845116808217855250505050505090500182805190602001908083835b60208310613682578051825260208201915060208101905060208303925061365f565b6001836020036101000a038019825116818451168082178552505050505050905001925050506040516020818303038152906040528051906020012092505050919050565b606080604067ffffffffffffffff811180156136e257600080fd5b506040519080825280601f01601f1916602001820160405280156137155781602001600182028036833780820191505090505b50905060005b602081101561380457600084826020811061373257fe5b1a60f81b9050600060108260f81c60ff168161374a57fe5b0460f81b905060008160f81c6010028360f81c0360f81b905061376c8261380e565b85856002028151811061377b57fe5b60200101907effffffffffffffffffffffffffffffffffffffffffffffffffffffffffffff1916908160001a9053506137b38161380e565b8560018660020201815181106137c557fe5b60200101907effffffffffffffffffffffffffffffffffffffffffffffffffffffffffffff1916908160001a905350505050808060010191505061371b565b5080915050919050565b6000600a60f81b7effffffffffffffffffffffffffffffffffffffffffffffffffffffffffffff1916827effffffffffffffffffffffffffffffffffffffffffffffffffffffffffffff191610156138715760308260f81c0160f81b905061387e565b60578260f81c0160f81b90505b919050565b6040518060c00160405280600081526020016000815260200160008152602001600081526020016000815260200160008019168152509056fe76616c7565206d75737420657175616c2070656e64696e672869737375656420746f6b656e732976616c7565206c6172676574207468616e20617661696c61626c6520746f6b656e73a26469706673582212208f2c3645e69823956dc27b61475d3cde543b3490630cbe6fab46a0c4eccad30864736f6c634300060c0033",
  "source": "// SPDX-License-Identifier: MIT\npragma solidity 0.6.12;\n\nimport \"./IERC20.sol\";\nimport \"./Claimable.sol\";\n\ncontract Pool is Claimable {\n\n    uint256 constant MAX_RELEASE_DELAY = 11_520; // about 48h\n    \n    address tokenContract;\n    uint256 minSupply;\n    uint256 pendingSupply;\n    address manager;\n    address payable etherWallet;\n    address tokenWallet;\n    uint256 releaseDelay;\n    uint256 maxTokensPerIssueCall;\n\n    struct Account {\n        uint256 nonce;  \n        uint256 balance;\n        uint256 pending;\n        uint256 withdraw;\n        uint256 release;\n        bytes32 secret;\n    }\n\n    mapping(address => Account) accounts;\n\n    constructor(address _tokenContract) public {\n        tokenContract = _tokenContract;\n        releaseDelay = 240;\n        maxTokensPerIssueCall = 10000;\n    }\n\n    event TokensIssued(address indexed account, uint256 value, bytes32 secretHash);\n    event TokensAccepted(address indexed account, bool directCall);\n    event Payment(address indexed account, uint256 value);\n    event Deposit(address indexed account, uint256 value);\n    event WithdrawalRequested(address indexed account, uint256 value);\n    event WithdrawalCanceled(address indexed account);\n    event Withdrawal(address indexed account, uint256 value);\n    event EtherTransfered(address indexed to, uint256 value);\n    event TokensTransfered(address indexed to, uint256 value);\n\n    modifier onlyAdmins() {\n        require(msg.sender == owner || msg.sender == manager, \"not owner or manager\");\n        _;\n    }\n\n    function setReleaseDelay(uint256 _blocks) public onlyOwner() {\n        require(_blocks <= MAX_RELEASE_DELAY, \"exeeds max release delay\");\n        releaseDelay = _blocks;\n    }\n\n    function setMaxTokensPerIssueCall(uint256 _tokens) public onlyOwner() {\n        maxTokensPerIssueCall = _tokens;\n    }\n\n    function issueTokens(address _to, uint256 _value, bytes32 _secretHash) public onlyAdmins() {\n        require(_value <= availableSupply(), \"not enough available tokens\");\n        require(_value <= maxTokensPerIssueCall, \"amount exeed max tokens per call\");\n        uint256 _currentAmount = accounts[_to].pending;\n        accounts[_to].secret = _secretHash;\n        if (_currentAmount > _value) {\n            accounts[_to].pending = _value;\n            pendingSupply += _currentAmount - _value;\n        } else if (_currentAmount < _value) {\n            accounts[_to].pending = _value;\n            pendingSupply += _value - _currentAmount;\n        }\n        emit TokensIssued(_to, _value, _secretHash);\n    }\n\n    function issuedPendingTokens(address _account) public view returns (uint256) {\n        return accounts[_account].pending;\n    }\n\n    function _acceptTokens(address _account, uint256 value) internal {\n        uint256 _pending = accounts[_account].pending;\n        require(_pending > 0, \"no pending tokens\");\n        require(_pending == value, \"value must equal issued tokens\");\n        accounts[_account].pending = 0;\n        accounts[_account].balance += _pending;\n        accounts[_account].secret = 0;\n        pendingSupply -= _pending;\n    }\n\n    function acceptTokens(uint256 _value) public {\n        _acceptTokens(msg.sender, _value);\n        emit TokensAccepted(msg.sender, true);\n    }\n\n    function setEtherWallet(address payable _etherWallet) public onlyOwner() {\n        etherWallet = _etherWallet;\n    }\n\n    function setTokenWallet(address _tokenWallet) public onlyOwner() {\n        tokenWallet = _tokenWallet;\n    }\n\n    function transferEther(uint256 _value) public onlyAdmins() {\n        require(etherWallet != address(0), \"ether wallet not set\");\n        etherWallet.transfer(_value);\n        emit EtherTransfered(etherWallet, _value);\n    }\n\n    function transferTokens(uint256 _value) public onlyAdmins() {\n        require(tokenWallet != address(0), \"token wallet not set\");\n        require(_value <= availableSupply(), \"value larget than available tokens\");\n        ERC20(tokenContract).transfer(tokenWallet, _value);\n        emit TokensTransfered(tokenWallet, _value);\n    }\n\n    function accountNonce(address _account) public view returns (uint256) {\n        return accounts[_account].nonce; \n    }\n\n    function accountBalance(address _account) public view returns (uint256) {\n        return accounts[_account].balance; \n    }\n\n    function generatePaymentMessage(address _from, uint256 _value) public view returns (bytes memory) {\n        Account memory _account = accounts[_from]; \n        require(_account.balance >= _value, \"account balnace too low\");\n        return abi.encodePacked(\n                uint8(0x2),\n                this,\n                uint32(_account.nonce),\n                _from,\n                _value\n        );\n    }\n\n    function validatePayment(address _from, uint256 _value, uint8 _v, bytes32 _r, bytes32 _s) public view returns (bool) {\n        bytes32 message  = _messageToRecover(keccak256(generatePaymentMessage(_from, _value)));\n        address addr = ecrecover(message, _v, _r, _s);\n        return addr == _from;      \n    }\n\n    function executePayment(address _from, uint256 _value, uint8 _v, bytes32 _r, bytes32 _s) public onlyAdmins() {\n        require(validatePayment(_from, _value, _v, _r, _s), \"wrong signature or data\");\n        require(accounts[_from].nonce != block.timestamp, \"too soon\");\n        accounts[_from].nonce = block.timestamp;\n        accounts[_from]. balance -= _value;\n        minSupply -= _value;\n        emit Payment(_from, _value);\n    }\n\n    function generateAcceptTokensMessage(address _for, uint256 _value, bytes32 _secretHash) public view returns (bytes memory) {\n        require(accounts[_for].secret == _secretHash, \"wrong secret hash\");\n        require(accounts[_for].pending == _value, \"value must equal pending(issued tokens)\");\n        return  abi.encodePacked(\n                uint8(0x1),\n                this,\n                _secretHash,\n                _value,\n                _for\n        );\n    }\n\n    function validateAcceptTokens(address _for, uint256 _value, bytes32 _secretHash, uint8 _v, bytes32 _r, bytes32 _s) public view returns (bool) {\n        bytes32 message  = _messageToRecover(keccak256(generateAcceptTokensMessage(_for, _value, _secretHash)));\n        address addr = ecrecover(message, _v, _r, _s);\n        return addr == _for;\n    }\n\n    function executeAcceptTokens(address _for, uint256 _value, bytes memory _secret, uint8 _v, bytes32 _r, bytes32 _s) public onlyAdmins() {\n        require(accounts[_for].secret == keccak256(_secret), \"wrong secret\");\n        require(validateAcceptTokens(_for, _value, keccak256(_secret), _v, _r ,_s), \"wrong signature or data\");\n        _acceptTokens(_for, _value);\n        emit TokensAccepted(_for, false);\n    }\n\n    function setManager(address _manager) public onlyOwner() {\n        manager = _manager; \n    }\n  \n    function totalSupply() view public returns (uint256) {\n        return ERC20(tokenContract).balanceOf(address(this));\n    }\n\n    function availableSupply() view public returns (uint256) {\n        return ERC20(tokenContract).balanceOf(address(this)) - minSupply - pendingSupply;\n    }\n\n    function deposit(uint256 _value) public {\n        require(ERC20(tokenContract).allowance(msg.sender, address(this)) >= _value, \"ERC20 allowance too low\");\n        ERC20(tokenContract).transferFrom(msg.sender, address(this), _value);\n        accounts[msg.sender].balance += _value;\n        minSupply += _value;\n        emit Deposit(msg.sender, _value);\n    }\n\n    function requestWithdrawal(uint256 _value) public {\n        require(accounts[msg.sender].balance >= _value, \"not enough tokens\");\n        require(_value > 0, \"cannot withdraw\");\n        accounts[msg.sender].withdraw = _value;\n        accounts[msg.sender].release = block.number + 240;\n        emit WithdrawalRequested(msg.sender, _value);\n    }\n\n    function cancelWithdrawal() public {\n        accounts[msg.sender].withdraw = 0;\n        accounts[msg.sender].release = 0;\n        emit WithdrawalCanceled(msg.sender);\n    }\n\n    function withdraw() public {\n        require(accounts[msg.sender].release > 0, \"no withdraw request\");\n        require(accounts[msg.sender].release < block.number, \"too soon\");\n        uint256 value = accounts[msg.sender].withdraw;\n        accounts[msg.sender].withdraw = 0;\n        accounts[msg.sender].release = 0;\n        accounts[msg.sender].balance -= value;\n        minSupply -= value;\n        ERC20(tokenContract).transfer(msg.sender, value);\n        emit Withdrawal(msg.sender, value);\n    }\n\n    function _messageToRecover(bytes32 hashedUnsignedMessage) private pure returns (bytes32)\n    {\n        bytes memory unsignedMessageBytes = _hashToAscii(\n            hashedUnsignedMessage\n        );\n        bytes memory prefix = \"\\x19Ethereum Signed Message:\\n64\";\n        return keccak256(abi.encodePacked(prefix, unsignedMessageBytes));\n    }\n\n    function _hashToAscii(bytes32 hash) private pure returns (bytes memory) {\n        bytes memory s = new bytes(64);\n        for (uint i = 0; i < 32; i++) {\n            byte  b = hash[i];\n            byte hi = byte(uint8(b) / 16);\n            byte lo = byte(uint8(b) - 16 * uint8(hi));\n            s[2*i] = _char(hi);\n            s[2*i+1] = _char(lo);\n        }\n        return s;\n    }\n\n    function _char(byte b) private pure returns (byte c) {\n        if (b < byte(uint8(10))) {\n            return byte(uint8(b) + 0x30);\n        } else {\n            return byte(uint8(b) + 0x57);\n        }\n    }\n\n}",
  "sourcePath": "/home/tal/code/kirobo/ki-eth-token/contracts/Pool.sol",
  "compiler": {
    "name": "solc",
    "version": "0.6.12+commit.27d51765.Emscripten.clang"
  },
  "schemaVersion": "3.0.23",
  "updatedAt": "2020-08-03T19:14:44.257Z",
  "networkType": "ethereum",
  "devdoc": {
    "kind": "dev",
    "methods": {
      "claimOwnership()": {
        "details": "Allows the pendingOwner address to finalize the transfer."
      },
      "transferOwnership(address)": {
        "details": "Allows the current owner to set the pendingOwner address.",
        "params": {
          "_newOwner": "The address to transfer ownership to."
        }
      }
    },
    "version": 1
  },
  "userdoc": {
    "kind": "user",
    "methods": {},
    "version": 1
  }
}