{
  "contractName": "Pool",
  "abi": [
    {
      "inputs": [
        {
          "internalType": "address",
          "name": "tokenContract",
          "type": "address"
        }
      ],
      "stateMutability": "nonpayable",
      "type": "constructor"
    },
    {
      "anonymous": false,
      "inputs": [
        {
          "indexed": true,
          "internalType": "address",
          "name": "account",
          "type": "address"
        },
        {
          "indexed": false,
          "internalType": "uint256",
          "name": "value",
          "type": "uint256"
        }
      ],
      "name": "Deposit",
      "type": "event"
    },
    {
      "anonymous": false,
      "inputs": [
        {
          "indexed": true,
          "internalType": "address",
          "name": "to",
          "type": "address"
        },
        {
          "indexed": false,
          "internalType": "uint256",
          "name": "value",
          "type": "uint256"
        }
      ],
      "name": "EtherTransfered",
      "type": "event"
    },
    {
      "anonymous": false,
      "inputs": [
        {
          "indexed": false,
          "internalType": "address",
          "name": "from",
          "type": "address"
        },
        {
          "indexed": false,
          "internalType": "address",
          "name": "to",
          "type": "address"
        }
      ],
      "name": "ManagerChanged",
      "type": "event"
    },
    {
      "anonymous": false,
      "inputs": [
        {
          "indexed": false,
          "internalType": "uint256",
          "name": "from",
          "type": "uint256"
        },
        {
          "indexed": false,
          "internalType": "uint256",
          "name": "to",
          "type": "uint256"
        }
      ],
      "name": "MaxTokensPerBlockChanged",
      "type": "event"
    },
    {
      "anonymous": false,
      "inputs": [
        {
          "indexed": false,
          "internalType": "uint256",
          "name": "from",
          "type": "uint256"
        },
        {
          "indexed": false,
          "internalType": "uint256",
          "name": "to",
          "type": "uint256"
        }
      ],
      "name": "MaxTokensPerIssueChanged",
      "type": "event"
    },
    {
      "anonymous": false,
      "inputs": [
        {
          "indexed": true,
          "internalType": "address",
          "name": "previousOwner",
          "type": "address"
        },
        {
          "indexed": true,
          "internalType": "address",
          "name": "newOwner",
          "type": "address"
        }
      ],
      "name": "OwnershipTransferred",
      "type": "event"
    },
    {
      "anonymous": false,
      "inputs": [
        {
          "indexed": true,
          "internalType": "address",
          "name": "account",
          "type": "address"
        },
        {
          "indexed": false,
          "internalType": "uint256",
          "name": "value",
          "type": "uint256"
        }
      ],
      "name": "Payment",
      "type": "event"
    },
    {
      "anonymous": false,
      "inputs": [
        {
          "indexed": false,
          "internalType": "uint256",
          "name": "from",
          "type": "uint256"
        },
        {
          "indexed": false,
          "internalType": "uint256",
          "name": "to",
          "type": "uint256"
        }
      ],
      "name": "ReleaseDelayChanged",
      "type": "event"
    },
    {
      "anonymous": false,
      "inputs": [
        {
          "indexed": true,
          "internalType": "address",
          "name": "account",
          "type": "address"
        },
        {
          "indexed": false,
          "internalType": "bool",
          "name": "directCall",
          "type": "bool"
        }
      ],
      "name": "TokensAccepted",
      "type": "event"
    },
    {
      "anonymous": false,
      "inputs": [
        {
          "indexed": true,
          "internalType": "address",
          "name": "account",
          "type": "address"
        },
        {
          "indexed": false,
          "internalType": "uint256",
          "name": "value",
          "type": "uint256"
        }
      ],
      "name": "TokensDistributed",
      "type": "event"
    },
    {
      "anonymous": false,
      "inputs": [
        {
          "indexed": true,
          "internalType": "address",
          "name": "account",
          "type": "address"
        },
        {
          "indexed": false,
          "internalType": "uint256",
          "name": "value",
          "type": "uint256"
        },
        {
          "indexed": false,
          "internalType": "bytes32",
          "name": "secretHash",
          "type": "bytes32"
        }
      ],
      "name": "TokensIssued",
      "type": "event"
    },
    {
      "anonymous": false,
      "inputs": [
        {
          "indexed": true,
          "internalType": "address",
          "name": "to",
          "type": "address"
        },
        {
          "indexed": false,
          "internalType": "uint256",
          "name": "value",
          "type": "uint256"
        }
      ],
      "name": "TokensTransfered",
      "type": "event"
    },
    {
      "anonymous": false,
      "inputs": [
        {
          "indexed": false,
          "internalType": "address",
          "name": "from",
          "type": "address"
        },
        {
          "indexed": false,
          "internalType": "address",
          "name": "to",
          "type": "address"
        }
      ],
      "name": "WalletChanged",
      "type": "event"
    },
    {
      "anonymous": false,
      "inputs": [
        {
          "indexed": true,
          "internalType": "address",
          "name": "account",
          "type": "address"
        },
        {
          "indexed": false,
          "internalType": "uint256",
          "name": "value",
          "type": "uint256"
        }
      ],
      "name": "Withdrawal",
      "type": "event"
    },
    {
      "anonymous": false,
      "inputs": [
        {
          "indexed": true,
          "internalType": "address",
          "name": "account",
          "type": "address"
        }
      ],
      "name": "WithdrawalCanceled",
      "type": "event"
    },
    {
      "anonymous": false,
      "inputs": [
        {
          "indexed": true,
          "internalType": "address",
          "name": "account",
          "type": "address"
        },
        {
          "indexed": false,
          "internalType": "uint256",
          "name": "value",
          "type": "uint256"
        }
      ],
      "name": "WithdrawalRequested",
      "type": "event"
    },
    {
      "inputs": [],
      "name": "ACCEPT_TYPEHASH",
      "outputs": [
        {
          "internalType": "bytes32",
          "name": "",
          "type": "bytes32"
        }
      ],
      "stateMutability": "view",
      "type": "function"
    },
    {
      "inputs": [],
      "name": "BUY_TYPEHASH",
      "outputs": [
        {
          "internalType": "bytes32",
          "name": "",
          "type": "bytes32"
        }
      ],
      "stateMutability": "view",
      "type": "function"
    },
    {
      "inputs": [],
      "name": "CHAIN_ID",
      "outputs": [
        {
          "internalType": "uint256",
          "name": "",
          "type": "uint256"
        }
      ],
      "stateMutability": "view",
      "type": "function"
    },
    {
      "inputs": [],
      "name": "DOMAIN_SEPARATOR",
      "outputs": [
        {
          "internalType": "bytes32",
          "name": "",
          "type": "bytes32"
        }
      ],
      "stateMutability": "view",
      "type": "function"
    },
    {
      "inputs": [],
      "name": "DOMAIN_SEPARATOR_ASCII",
      "outputs": [
        {
          "internalType": "bytes",
          "name": "",
          "type": "bytes"
        }
      ],
      "stateMutability": "view",
      "type": "function"
    },
    {
      "inputs": [],
      "name": "MAX_RELEASE_DELAY",
      "outputs": [
        {
          "internalType": "uint256",
          "name": "",
          "type": "uint256"
        }
      ],
      "stateMutability": "view",
      "type": "function"
    },
    {
      "inputs": [],
      "name": "NAME",
      "outputs": [
        {
          "internalType": "string",
          "name": "",
          "type": "string"
        }
      ],
      "stateMutability": "view",
      "type": "function"
    },
    {
      "inputs": [],
      "name": "PAYMENT_TYPEHASH",
      "outputs": [
        {
          "internalType": "bytes32",
          "name": "",
          "type": "bytes32"
        }
      ],
      "stateMutability": "view",
      "type": "function"
    },
    {
      "inputs": [],
      "name": "VERSION",
      "outputs": [
        {
          "internalType": "string",
          "name": "",
          "type": "string"
        }
      ],
      "stateMutability": "view",
      "type": "function"
    },
    {
      "inputs": [],
      "name": "VERSION_NUMBER",
      "outputs": [
        {
          "internalType": "uint8",
          "name": "",
          "type": "uint8"
        }
      ],
      "stateMutability": "view",
      "type": "function"
    },
    {
      "inputs": [],
      "name": "claimOwnership",
      "outputs": [],
      "stateMutability": "nonpayable",
      "type": "function"
    },
    {
      "inputs": [
        {
          "internalType": "address",
          "name": "newOwner",
          "type": "address"
        }
      ],
      "name": "transferOwnership",
      "outputs": [],
      "stateMutability": "nonpayable",
      "type": "function"
    },
    {
      "stateMutability": "payable",
      "type": "receive"
    },
    {
      "inputs": [
        {
          "internalType": "address",
          "name": "manager",
          "type": "address"
        }
      ],
      "name": "setManager",
      "outputs": [],
      "stateMutability": "nonpayable",
      "type": "function"
    },
    {
      "inputs": [
        {
          "internalType": "address",
          "name": "wallet",
          "type": "address"
        }
      ],
      "name": "setWallet",
      "outputs": [],
      "stateMutability": "nonpayable",
      "type": "function"
    },
    {
      "inputs": [
        {
          "internalType": "uint256",
          "name": "blocks",
          "type": "uint256"
        }
      ],
      "name": "setReleaseDelay",
      "outputs": [],
      "stateMutability": "nonpayable",
      "type": "function"
    },
    {
      "inputs": [
        {
          "internalType": "uint256",
          "name": "tokens",
          "type": "uint256"
        }
      ],
      "name": "setMaxTokensPerIssue",
      "outputs": [],
      "stateMutability": "nonpayable",
      "type": "function"
    },
    {
      "inputs": [
        {
          "internalType": "uint256",
          "name": "tokens",
          "type": "uint256"
        }
      ],
      "name": "setMaxTokensPerBlock",
      "outputs": [],
      "stateMutability": "nonpayable",
      "type": "function"
    },
    {
      "inputs": [
        {
          "internalType": "uint256",
          "name": "value",
          "type": "uint256"
        }
      ],
      "name": "resyncTotalSupply",
      "outputs": [
        {
          "internalType": "uint256",
          "name": "",
          "type": "uint256"
        }
      ],
      "stateMutability": "nonpayable",
      "type": "function"
    },
    {
      "inputs": [
        {
          "internalType": "uint256",
          "name": "value",
          "type": "uint256"
        }
      ],
      "name": "transferEther",
      "outputs": [],
      "stateMutability": "nonpayable",
      "type": "function"
    },
    {
      "inputs": [
        {
          "internalType": "uint256",
          "name": "value",
          "type": "uint256"
        }
      ],
      "name": "transferTokens",
      "outputs": [],
      "stateMutability": "nonpayable",
      "type": "function"
    },
    {
      "inputs": [
        {
          "internalType": "address",
          "name": "to",
          "type": "address"
        },
        {
          "internalType": "uint256",
          "name": "value",
          "type": "uint256"
        }
      ],
      "name": "distributeTokens",
      "outputs": [],
      "stateMutability": "nonpayable",
      "type": "function"
    },
    {
      "inputs": [
        {
          "internalType": "address",
          "name": "to",
          "type": "address"
        },
        {
          "internalType": "uint256",
          "name": "value",
          "type": "uint256"
        },
        {
          "internalType": "bytes32",
          "name": "secretHash",
          "type": "bytes32"
        }
      ],
      "name": "issueTokens",
      "outputs": [],
      "stateMutability": "nonpayable",
      "type": "function"
    },
    {
      "inputs": [
        {
          "internalType": "address",
          "name": "recipient",
          "type": "address"
        },
        {
          "internalType": "uint256",
          "name": "value",
          "type": "uint256"
        },
        {
          "internalType": "bytes",
          "name": "c_secret",
          "type": "bytes"
        },
        {
          "internalType": "uint8",
          "name": "v",
          "type": "uint8"
        },
        {
          "internalType": "bytes32",
          "name": "r",
          "type": "bytes32"
        },
        {
          "internalType": "bytes32",
          "name": "s",
          "type": "bytes32"
        },
        {
          "internalType": "bool",
          "name": "eip712",
          "type": "bool"
        }
      ],
      "name": "executeAcceptTokens",
      "outputs": [],
      "stateMutability": "nonpayable",
      "type": "function"
    },
    {
      "inputs": [
        {
          "internalType": "address",
          "name": "from",
          "type": "address"
        },
        {
          "internalType": "uint256",
          "name": "value",
          "type": "uint256"
        },
        {
          "internalType": "uint8",
          "name": "v",
          "type": "uint8"
        },
        {
          "internalType": "bytes32",
          "name": "r",
          "type": "bytes32"
        },
        {
          "internalType": "bytes32",
          "name": "s",
          "type": "bytes32"
        },
        {
          "internalType": "bool",
          "name": "eip712",
          "type": "bool"
        }
      ],
      "name": "executePayment",
      "outputs": [],
      "stateMutability": "nonpayable",
      "type": "function"
    },
    {
      "inputs": [
        {
          "internalType": "uint256",
          "name": "kiro",
          "type": "uint256"
        },
        {
          "internalType": "uint256",
          "name": "expires",
          "type": "uint256"
        },
        {
          "internalType": "uint8",
          "name": "v",
          "type": "uint8"
        },
        {
          "internalType": "bytes32",
          "name": "r",
          "type": "bytes32"
        },
        {
          "internalType": "bytes32",
          "name": "s",
          "type": "bytes32"
        },
        {
          "internalType": "bool",
          "name": "eip712",
          "type": "bool"
        }
      ],
      "name": "executeBuyTokens",
      "outputs": [],
      "stateMutability": "payable",
      "type": "function"
    },
    {
      "inputs": [
        {
          "internalType": "uint256",
          "name": "value",
          "type": "uint256"
        },
        {
          "internalType": "bytes",
          "name": "c_secret",
          "type": "bytes"
        }
      ],
      "name": "acceptTokens",
      "outputs": [],
      "stateMutability": "nonpayable",
      "type": "function"
    },
    {
      "inputs": [
        {
          "internalType": "uint256",
          "name": "value",
          "type": "uint256"
        }
      ],
      "name": "depositTokens",
      "outputs": [],
      "stateMutability": "nonpayable",
      "type": "function"
    },
    {
      "inputs": [
        {
          "internalType": "uint256",
          "name": "value",
          "type": "uint256"
        }
      ],
      "name": "requestWithdrawal",
      "outputs": [],
      "stateMutability": "nonpayable",
      "type": "function"
    },
    {
      "inputs": [],
      "name": "cancelWithdrawal",
      "outputs": [],
      "stateMutability": "nonpayable",
      "type": "function"
    },
    {
      "inputs": [],
      "name": "withdrawTokens",
      "outputs": [],
      "stateMutability": "nonpayable",
      "type": "function"
    },
    {
      "inputs": [
        {
          "internalType": "address",
          "name": "addr",
          "type": "address"
        }
      ],
      "name": "account",
      "outputs": [
        {
          "internalType": "uint256",
          "name": "nonce",
          "type": "uint256"
        },
        {
          "internalType": "uint256",
          "name": "balance",
          "type": "uint256"
        },
        {
          "internalType": "uint256",
          "name": "issueBlock",
          "type": "uint256"
        },
        {
          "internalType": "uint256",
          "name": "pending",
          "type": "uint256"
        },
        {
          "internalType": "uint256",
          "name": "withdrawal",
          "type": "uint256"
        },
        {
          "internalType": "uint256",
          "name": "releaseBlock",
          "type": "uint256"
        },
        {
          "internalType": "bytes32",
          "name": "secretHash",
          "type": "bytes32"
        },
        {
          "internalType": "uint256",
          "name": "externalBalance",
          "type": "uint256"
        }
      ],
      "stateMutability": "view",
      "type": "function"
    },
    {
      "inputs": [],
      "name": "entities",
      "outputs": [
        {
          "internalType": "address",
          "name": "manager",
          "type": "address"
        },
        {
          "internalType": "address",
          "name": "token",
          "type": "address"
        },
        {
          "internalType": "address",
          "name": "wallet",
          "type": "address"
        }
      ],
      "stateMutability": "view",
      "type": "function"
    },
    {
      "inputs": [],
      "name": "limits",
      "outputs": [
        {
          "internalType": "uint256",
          "name": "releaseDelay",
          "type": "uint256"
        },
        {
          "internalType": "uint256",
          "name": "maxTokensPerIssue",
          "type": "uint256"
        },
        {
          "internalType": "uint256",
          "name": "maxTokensPerBlock",
          "type": "uint256"
        }
      ],
      "stateMutability": "view",
      "type": "function"
    },
    {
      "inputs": [],
      "name": "supply",
      "outputs": [
        {
          "internalType": "uint256",
          "name": "total",
          "type": "uint256"
        },
        {
          "internalType": "uint256",
          "name": "minimum",
          "type": "uint256"
        },
        {
          "internalType": "uint256",
          "name": "pending",
          "type": "uint256"
        },
        {
          "internalType": "uint256",
          "name": "available",
          "type": "uint256"
        }
      ],
      "stateMutability": "view",
      "type": "function"
    },
    {
      "inputs": [],
      "name": "uid",
      "outputs": [
        {
          "internalType": "bytes32",
          "name": "",
          "type": "bytes32"
        }
      ],
      "stateMutability": "view",
      "type": "function"
    },
    {
      "inputs": [],
      "name": "totalSupply",
      "outputs": [
        {
          "internalType": "uint256",
          "name": "",
          "type": "uint256"
        }
      ],
      "stateMutability": "view",
      "type": "function"
    },
    {
      "inputs": [],
      "name": "availableSupply",
      "outputs": [
        {
          "internalType": "uint256",
          "name": "",
          "type": "uint256"
        }
      ],
      "stateMutability": "view",
      "type": "function"
    },
    {
      "inputs": [
        {
          "internalType": "address",
          "name": "recipient",
          "type": "address"
        },
        {
          "internalType": "uint256",
          "name": "eth",
          "type": "uint256"
        },
        {
          "internalType": "uint256",
          "name": "kiro",
          "type": "uint256"
        },
        {
          "internalType": "uint256",
          "name": "expires",
          "type": "uint256"
        }
      ],
      "name": "generateBuyTokensMessage",
      "outputs": [
        {
          "internalType": "bytes",
          "name": "",
          "type": "bytes"
        }
      ],
      "stateMutability": "view",
      "type": "function"
    },
    {
      "inputs": [
        {
          "internalType": "address",
          "name": "recipient",
          "type": "address"
        },
        {
          "internalType": "uint256",
          "name": "value",
          "type": "uint256"
        },
        {
          "internalType": "bytes32",
          "name": "secretHash",
          "type": "bytes32"
        }
      ],
      "name": "generateAcceptTokensMessage",
      "outputs": [
        {
          "internalType": "bytes",
          "name": "",
          "type": "bytes"
        }
      ],
      "stateMutability": "view",
      "type": "function"
    },
    {
      "inputs": [
        {
          "internalType": "address",
          "name": "from",
          "type": "address"
        },
        {
          "internalType": "uint256",
          "name": "value",
          "type": "uint256"
        }
      ],
      "name": "generatePaymentMessage",
      "outputs": [
        {
          "internalType": "bytes",
          "name": "",
          "type": "bytes"
        }
      ],
      "stateMutability": "view",
      "type": "function"
    },
    {
      "inputs": [
        {
          "internalType": "address",
          "name": "from",
          "type": "address"
        },
        {
          "internalType": "uint256",
          "name": "eth",
          "type": "uint256"
        },
        {
          "internalType": "uint256",
          "name": "kiro",
          "type": "uint256"
        },
        {
          "internalType": "uint256",
          "name": "expires",
          "type": "uint256"
        },
        {
          "internalType": "uint8",
          "name": "v",
          "type": "uint8"
        },
        {
          "internalType": "bytes32",
          "name": "r",
          "type": "bytes32"
        },
        {
          "internalType": "bytes32",
          "name": "s",
          "type": "bytes32"
        },
        {
          "internalType": "bool",
          "name": "eip712",
          "type": "bool"
        }
      ],
      "name": "validateBuyTokens",
      "outputs": [
        {
          "internalType": "bool",
          "name": "",
          "type": "bool"
        }
      ],
      "stateMutability": "view",
      "type": "function"
    },
    {
      "inputs": [
        {
          "internalType": "address",
          "name": "recipient",
          "type": "address"
        },
        {
          "internalType": "uint256",
          "name": "value",
          "type": "uint256"
        },
        {
          "internalType": "bytes32",
          "name": "secretHash",
          "type": "bytes32"
        },
        {
          "internalType": "uint8",
          "name": "v",
          "type": "uint8"
        },
        {
          "internalType": "bytes32",
          "name": "r",
          "type": "bytes32"
        },
        {
          "internalType": "bytes32",
          "name": "s",
          "type": "bytes32"
        },
        {
          "internalType": "bool",
          "name": "eip712",
          "type": "bool"
        }
      ],
      "name": "validateAcceptTokens",
      "outputs": [
        {
          "internalType": "bool",
          "name": "",
          "type": "bool"
        }
      ],
      "stateMutability": "view",
      "type": "function"
    },
    {
      "inputs": [
        {
          "internalType": "address",
          "name": "from",
          "type": "address"
        },
        {
          "internalType": "uint256",
          "name": "value",
          "type": "uint256"
        },
        {
          "internalType": "uint8",
          "name": "v",
          "type": "uint8"
        },
        {
          "internalType": "bytes32",
          "name": "r",
          "type": "bytes32"
        },
        {
          "internalType": "bytes32",
          "name": "s",
          "type": "bytes32"
        },
        {
          "internalType": "bool",
          "name": "eip712",
          "type": "bool"
        }
      ],
      "name": "validatePayment",
      "outputs": [
        {
          "internalType": "bool",
          "name": "",
          "type": "bool"
        }
      ],
      "stateMutability": "view",
      "type": "function"
    },
    {
      "inputs": [],
      "name": "ownedTokens",
      "outputs": [
        {
          "internalType": "uint256",
          "name": "",
          "type": "uint256"
        }
      ],
      "stateMutability": "view",
      "type": "function"
    }
  ],
  "bytecode": "0x60806040523480156200001157600080fd5b50604051620038b2380380620038b2833981810160405260208110156200003757600080fd5b5051600080546001600160a01b03199081163317909155600a80546001600160a01b0384169216919091179055604080516060808201835260f080835269021e19e0c9bab24000006020848101829052690a968163f0a57b400000948601859052600692909255600755600892909255600160b01b600160f01b0343600019014060b01b1630908117600160f81b17600281905546601181905585518087018752600b81526a12da5c9bd89bc8141bdbdb60aa1b908601528551808701875260018152603160f81b9086015285517fd87cd6ef79d4e2b95e15ce8abf732db51ec771f1ca2edccf22a46c729ac56472818701527fb11051063131fb65aefc02cae0524010c244b22983f21931dde4f1daeb071b26818801527fc89efdaa54c0f20c7adf612882df0950f5a951637e0307cdcb4c672f298b8bc6948101949094526080840181905260a084019290925260c0838101919091528451808403909101815260e09092019093528051910120600f819055620001b690620001d5565b8051620001cc9160109160209091019062000304565b505050620003a0565b60408051818152606081810183529182919060208201818036833701905050905060005b6020811015620002a65760008482602081106200021257fe5b1a60f881811b9250601080830480831b9360ff9091169091029003901b6200023a82620002af565b8585600202815181106200024a57fe5b60200101906001600160f81b031916908160001a9053506200026c81620002af565b8585600202600101815181106200027f57fe5b60200101906001600160f81b031916908160001a9053505060019092019150620001f99050565b5090505b919050565b6000600560f91b7fff0000000000000000000000000000000000000000000000000000000000000083161015620002f2578160f81c60300160f81b9050620002aa565b8160f81c60570160f81b9050620002aa565b828054600181600116156101000203166002900490600052602060002090601f016020900481019282601f106200034757805160ff191683800117855562000377565b8280016001018555821562000377579182015b82811115620003775782518255916020019190600101906200035a565b506200038592915062000389565b5090565b5b808211156200038557600081556001016200038a565b61350280620003b06000396000f3fe60806040526004361061026b5760003560e01c8063860aefcf11610144578063d2bc24d1116100b6578063f2fde38b1161007a578063f2fde38b14610aa2578063f514ce3614610ad5578063f910f47e14610aea578063fbf79c9614610b2f578063fd9a4e6114610bb3578063ffa1ad7414610bdd576102bf565b8063d2bc24d1146109bf578063dd49756e146109d4578063deaa59df146109fe578063edb85dd114610a31578063f2a0eb7414610a8d576102bf565b80639ee679e8116101085780639ee679e814610896578063a3f4df7e146108c0578063ac8aa0c0146108d5578063b5a7a7fd14610914578063c2fe8c3f14610929578063d0ebdbe71461098c576102bf565b8063860aefcf146107a55780638901e970146107d85780638d8f2adb146108025780638f58f389146108175780639b0debbd14610881576102bf565b80634e71e0c8116101dd57806373ffd5b7116101a157806373ffd5b7146106bd57806379d23853146106e75780637e060b55146107265780637ecc2b56146107505780638025e3031461076557806385e1f4d014610790576102bf565b80634e71e0c81461054c578063647e59fc146105615780636d3298cb1461060a5780636f18135f1461061f57806373b9aa9114610649576102bf565b806319cba6b41161022f57806319cba6b4146103df57806322611280146103f45780633644e5151461040957806340b2645d1461041e57806347b0af2e146104cc5780634d11f72f146104f6576102bf565b8063047fc9aa146102c4578063076660d5146102ff578063158a49881461033f5780631615fd031461037857806318160ddd146103b8576102bf565b366102bf576040805162461bcd60e51b815260206004820152601960248201527f506f6f6c3a206e6f7420616363657074696e6720657468657200000000000000604482015290519081900360640190fd5b005b600080fd5b3480156102d057600080fd5b506102d9610bf2565b604080519485526020850193909352838301919091526060830152519081900360800190f35b6102bd600480360360c081101561031557600080fd5b5080359060208101359060ff6040820135169060608101359060808101359060a001351515610c22565b34801561034b57600080fd5b506102bd6004803603604081101561036257600080fd5b506001600160a01b038135169060200135610cdb565b34801561038457600080fd5b5061038d610d4b565b604080516001600160a01b039485168152928416602084015292168183015290519081900360600190f35b3480156103c457600080fd5b506103cd610d68565b60408051918252519081900360200190f35b3480156103eb57600080fd5b506103cd610d6e565b34801561040057600080fd5b506102bd610dea565b34801561041557600080fd5b506103cd610e2e565b34801561042a57600080fd5b506104576004803603604081101561044157600080fd5b506001600160a01b038135169060200135610e34565b6040805160208082528351818301528351919283929083019185019080838360005b83811015610491578181015183820152602001610479565b50505050905090810190601f1680156104be5780820380516001836020036101000a031916815260200191505b509250505060405180910390f35b3480156104d857600080fd5b506103cd600480360360208110156104ef57600080fd5b5035610f0a565b34801561050257600080fd5b506102bd600480360360c081101561051957600080fd5b506001600160a01b038135169060208101359060ff6040820135169060608101359060808101359060a00135151561105c565b34801561055857600080fd5b506102bd61119b565b34801561056d57600080fd5b506102bd600480360360e081101561058457600080fd5b6001600160a01b03823516916020810135918101906060810160408201356401000000008111156105b457600080fd5b8201836020820111156105c657600080fd5b803590602001918460018302840111640100000000831117156105e857600080fd5b919350915060ff8135169060208101359060408101359060600135151561125e565b34801561061657600080fd5b506103cd611416565b34801561062b57600080fd5b506102bd6004803603602081101561064257600080fd5b503561143a565b34801561065557600080fd5b5061067c6004803603602081101561066c57600080fd5b50356001600160a01b03166114d0565b604080519889526020890197909752878701959095526060870193909352608086019190915260a085015260c084015260e083015251908190036101000190f35b3480156106c957600080fd5b506102bd600480360360208110156106e057600080fd5b50356115ae565b3480156106f357600080fd5b506104576004803603606081101561070a57600080fd5b506001600160a01b0381351690602081013590604001356116e4565b34801561073257600080fd5b506102bd6004803603602081101561074957600080fd5b503561180f565b34801561075c57600080fd5b506103cd6118fc565b34801561077157600080fd5b5061077a61190d565b6040805160ff9092168252519081900360200190f35b34801561079c57600080fd5b506103cd611912565b3480156107b157600080fd5b506107ba611918565b60408051938452602084019290925282820152519081900360600190f35b3480156107e457600080fd5b506102bd600480360360208110156107fb57600080fd5b5035611926565b34801561080e57600080fd5b506102bd6119bc565b34801561082357600080fd5b5061086d600480360360c081101561083a57600080fd5b506001600160a01b038135169060208101359060ff6040820135169060608101359060808101359060a001351515611af4565b604080519115158252519081900360200190f35b34801561088d57600080fd5b506103cd611b97565b3480156108a257600080fd5b506102bd600480360360208110156108b957600080fd5b5035611b9d565b3480156108cc57600080fd5b50610457611c96565b3480156108e157600080fd5b506102bd600480360360608110156108f857600080fd5b506001600160a01b038135169060208101359060400135611cbd565b34801561092057600080fd5b506103cd611e0f565b34801561093557600080fd5b5061086d600480360361010081101561094d57600080fd5b506001600160a01b038135169060208101359060408101359060608101359060ff6080820135169060a08101359060c08101359060e001351515611e33565b34801561099857600080fd5b506102bd600480360360208110156109af57600080fd5b50356001600160a01b0316611ece565b3480156109cb57600080fd5b506103cd61204d565b3480156109e057600080fd5b506102bd600480360360208110156109f757600080fd5b5035612071565b348015610a0a57600080fd5b506102bd60048036036020811015610a2157600080fd5b50356001600160a01b03166120f0565b348015610a3d57600080fd5b5061086d600480360360e0811015610a5457600080fd5b506001600160a01b038135169060208101359060408101359060ff6060820135169060808101359060a08101359060c00135151561226f565b348015610a9957600080fd5b50610457612307565b348015610aae57600080fd5b506102bd60048036036020811015610ac557600080fd5b50356001600160a01b0316612395565b348015610ae157600080fd5b506103cd61240b565b348015610af657600080fd5b5061045760048036036080811015610b0d57600080fd5b506001600160a01b038135169060208101359060408101359060600135612411565b348015610b3b57600080fd5b506102bd60048036036040811015610b5257600080fd5b81359190810190604081016020820135640100000000811115610b7457600080fd5b820183602082011115610b8657600080fd5b80359060200191846001830284011164010000000083111715610ba857600080fd5b509092509050612498565b348015610bbf57600080fd5b506102bd60048036036020811015610bd657600080fd5b5035612559565b348015610be957600080fd5b5061045761267c565b600080600080600360000154600360010154600360020154610c146003612699565b935093509350935090919293565b610c323334888888888888611e33565b610c83576040805162461bcd60e51b815260206004820152601d60248201527f506f6f6c3a2077726f6e67207369676e6174757265206f722064617461000000604482015290519081900360640190fd5b84421115610cc9576040805162461bcd60e51b815260206004820152600e60248201526d506f6f6c3a20746f6f206c61746560901b604482015290519081900360640190fd5b610cd333876126c9565b505050505050565b6000546001600160a01b0316331480610cfe57506009546001600160a01b031633145b610d3d576040805162461bcd60e51b815260206004820152601a6024820152600080516020613367833981519152604482015290519081900360640190fd5b610d4782826126c9565b5050565b600954600a54600b546001600160a01b0392831693918316921690565b60035490565b600a54604080516370a0823160e01b815230600482015290516000926001600160a01b0316916370a08231916024808301926020929190829003018186803b158015610db957600080fd5b505afa158015610dcd573d6000803e3d6000fd5b505050506040513d6020811015610de357600080fd5b5051905090565b336000818152600e602052604080822060048101839055600501829055517f2c149134fe0030fa8b86362e124b3379a0d5bf7e1c0f487a35a06f89bbf60cee9190a2565b600f5481565b6001600160a01b0382166000908152600e60205260409020600181015460609190831115610ea9576040805162461bcd60e51b815260206004820152601d60248201527f506f6f6c3a206163636f756e742062616c6e61636520746f6f206c6f77000000604482015290519081900360640190fd5b54604080517f841d82f71fa4558203bb763733f6b3326ecaf324143e12fb9b6a9ed958fc4ee060208201526001600160a01b03861681830152606081018590526080808201939093528151808203909301835260a001905290505b92915050565b600080546001600160a01b0316331480610f2e57506009546001600160a01b031633145b610f6d576040805162461bcd60e51b815260206004820152601a6024820152600080516020613367833981519152604482015290519081900360640190fd5b6000610f77610d6e565b600354909150811015610fbb5760405162461bcd60e51b815260040180806020018281038252602a8152602001806134a3602a913960400191505060405180910390fd5b600354831015610ffc5760405162461bcd60e51b81526004018080602001828103825260338152602001806134706033913960400191505060405180910390fd5b8083111561104b576040805162461bcd60e51b8152602060048201526017602482015276506f6f6c3a206e6f7420656e6f75676820746f6b656e7360481b604482015290519081900360640190fd5b611056600384612809565b50919050565b6000546001600160a01b031633148061107f57506009546001600160a01b031633145b6110be576040805162461bcd60e51b815260206004820152601a6024820152600080516020613367833981519152604482015290519081900360640190fd5b6110cc868686868686611af4565b61111d576040805162461bcd60e51b815260206004820152601d60248201527f506f6f6c3a2077726f6e67207369676e6174757265206f722064617461000000604482015290519081900360640190fd5b6001600160a01b0386166000908152600e6020526040902061113e81612866565b61114881876128e7565b6111536003876128e7565b6040805187815290516001600160a01b038916917fd4f43975feb89f48dd30cabbb32011045be187d1e11c8ea9faa43efc35282519919081900360200190a250505050505050565b6001546001600160a01b031633146111fa576040805162461bcd60e51b815260206004820152601c60248201527f436c61696d61626c653a206e6f742070656e64696e67206f776e657200000000604482015290519081900360640190fd5b600154600080546040516001600160a01b0393841693909116917f8be0079c531659141344cd1fd0a4f28419497f9722a3daafe3b4186f6b6457e091a360018054600080546001600160a01b03199081166001600160a01b03841617909155169055565b6000546001600160a01b031633148061128157506009546001600160a01b031633145b6112c0576040805162461bcd60e51b815260206004820152601a6024820152600080516020613367833981519152604482015290519081900360640190fd5b858560405180838380828437604080519190930181900390206001600160a01b038e166000908152600e6020529290922060060154909114935061134492505050576040805162461bcd60e51b8152602060048201526012602482015271141bdbdb0e881ddc9bdb99c81cd958dc995d60721b604482015290519081900360640190fd5b6113718888888860405180838380828437808301925050509250505060405180910390208787878761226f565b6113c2576040805162461bcd60e51b815260206004820152601d60248201527f506f6f6c3a2077726f6e67207369676e6174757265206f722064617461000000604482015290519081900360640190fd5b6113cc8888612902565b604080516000815290516001600160a01b038a16917f87715bcb29dbe27420aab6499f3227b2d0c070e9332c9ea0d7da26a547e48e1d919081900360200190a25050505050505050565b7f841d82f71fa4558203bb763733f6b3326ecaf324143e12fb9b6a9ed958fc4ee081565b6000546001600160a01b0316331461148e576040805162461bcd60e51b815260206004820152601260248201527127bbb730b136329d103737ba1037bbb732b960711b604482015290519081900360640190fd5b600854604080519182526020820183905280517f758af69adf31afc1a2ac9fcde1d2922e17780ada2fd8d6de4799eae3806a90839281900390910190a1600855565b6001600160a01b038082166000818152600e60209081526040808320600a5482516370a0823160e01b815260048101969096529151939586958695869586958695869586959194869493909116926370a082319260248082019391829003018186803b15801561153f57600080fd5b505afa158015611553573d6000803e3d6000fd5b505050506040513d602081101561156957600080fd5b5051825460018401546002850154600386015460048701546005880154600690980154949f50929d50909b509950975092955091935090915050919395975091939597565b6000546001600160a01b03163314806115d157506009546001600160a01b031633145b611610576040805162461bcd60e51b815260206004820152601a6024820152600080516020613367833981519152604482015290519081900360640190fd5b600b546001600160a01b0316611664576040805162461bcd60e51b8152602060048201526014602482015273141bdbdb0e881dd85b1b195d081b9bdd081cd95d60621b604482015290519081900360640190fd5b600b546040516001600160a01b039091169082156108fc029083906000818181858888f1935050505015801561169e573d6000803e3d6000fd5b50600b546040805183815290516001600160a01b03909216917fcbbf9d8eccd82bfe565beb740ad23209888d91a194d1ad1eb4add4476e6be45c9181900360200190a250565b6001600160a01b0383166000908152600e60205260409020600601546060908214611756576040805162461bcd60e51b815260206004820152601760248201527f506f6f6c3a2077726f6e67207365637265742068617368000000000000000000604482015290519081900360640190fd5b6001600160a01b0384166000908152600e602052604090206003015483146117af5760405162461bcd60e51b815260040180806020018281038252602d8152602001806133f8602d913960400191505060405180910390fd5b50604080517ff728cfc064674dacd2ced2a03acd588dfd299d5e4716726c6d5ec364d16406eb60208201526001600160a01b03949094168482015260608401929092526080808401919091528151808403909101815260a0909201905290565b6000546001600160a01b03163314611863576040805162461bcd60e51b815260206004820152601260248201527127bbb730b136329d103737ba1037bbb732b960711b604482015290519081900360640190fd5b612d008111156118ba576040805162461bcd60e51b815260206004820152601e60248201527f506f6f6c3a20657865656473206d61782072656c656173652064656c61790000604482015290519081900360640190fd5b600654604080519182526020820183905280517f81cd61b51e623d89307765201ecc847d51270c2b74a6b175b44a1399c2a7392d9281900390910190a1600655565b60006119086003612699565b905090565b600181565b60115481565b600654600754600854909192565b6000546001600160a01b0316331461197a576040805162461bcd60e51b815260206004820152601260248201527127bbb730b136329d103737ba1037bbb732b960711b604482015290519081900360640190fd5b600754604080519182526020820183905280517f633dd5b590b652b522d62bb416903314cddbfcfe911e0e7af21eafaff4546f1d9281900390910190a1600755565b336000908152600e602052604090206004810154611a21576040805162461bcd60e51b815260206004820152601960248201527f506f6f6c3a206e6f207769746864726177207265717565737400000000000000604482015290519081900360640190fd5b4381600501541115611a6b576040805162461bcd60e51b815260206004820152600e60248201526d2837b7b61d103a37b79039b7b7b760911b604482015290519081900360640190fd5b60008160010154826004015411611a86578160040154611a8c565b81600101545b9050611a98828261298f565b611aa36003826129ac565b600a54611aba906001600160a01b031633836129e3565b60408051828152905133917f7fcf532c15f0a6db0bd6d0e038bea71d30d808c7d98cb3bf7268a95bf5081b65919081900360200190a25050565b600080611b11611b048989610e34565b8051906020012084612a35565b9050600060018288888860405160008152602001604052604051808581526020018460ff1681526020018381526020018281526020019450505050506020604051602081039080840390855afa158015611b6f573d6000803e3d6000fd5b5050604051601f1901516001600160a01b03908116908b161493505050509695505050505050565b612d0081565b336000908152600e6020526040902060010154811115611bfe576040805162461bcd60e51b8152602060048201526017602482015276506f6f6c3a206e6f7420656e6f75676820746f6b656e7360481b604482015290519081900360640190fd5b60008111611c3d5760405162461bcd60e51b815260040180806020018281038252602c8152602001806133a8602c913960400191505060405180910390fd5b336000818152600e6020908152604091829020600481018590556006544301600590910155815184815291517fe670e4e82118d22a1f9ee18920455ebc958bae26a90a05d31d3378788b1b0e449281900390910190a250565b6040518060400160405280600b81526020016a12da5c9bd89bc8141bdbdb60aa1b81525081565b6000546001600160a01b0316331480611ce057506009546001600160a01b031633145b611d1f576040805162461bcd60e51b815260206004820152601a6024820152600080516020613367833981519152604482015290519081900360640190fd5b600754821115611d76576040805162461bcd60e51b815260206004820181905260248201527f506f6f6c3a20657865656473206d617820746f6b656e73207065722063616c6c604482015290519081900360640190fd5b611d7f82612b83565b6001600160a01b0383166000908152600e602052604090206003810154611da582612bf0565b600682018390556003808301859055436002840155611dc5908286612c1a565b604080518581526020810185905281516001600160a01b038816927f39d84c7c6d92b3f4343f76193f77afd39f4de57d13ac90024de77cb03dc2eacb928290030190a25050505050565b7f866880cdfbc2380b3f4581d70707601f3d190bc04c3ee9cfcdac070a5f87b75881565b600080611e45611b048b8b8b8b612411565b9050600060018288888860405160008152602001604052604051808581526020018460ff1681526020018381526020018281526020019450505050506020604051602081039080840390855afa158015611ea3573d6000803e3d6000fd5b5050604051601f1901516009546001600160a01b039081169116149c9b505050505050505050505050565b6000546001600160a01b03163314611f22576040805162461bcd60e51b815260206004820152601260248201527127bbb730b136329d103737ba1037bbb732b960711b604482015290519081900360640190fd5b6001600160a01b038116301415611f80576040805162461bcd60e51b815260206004820152601d60248201527f506f6f6c3a2073656c662063616e6e6f74206265206d616e616e676572000000604482015290519081900360640190fd5b600a546001600160a01b0382811691161415611fe3576040805162461bcd60e51b815260206004820152601d60248201527f506f6f6c3a20746f6b656e2063616e6e6f74206265206d616e61676572000000604482015290519081900360640190fd5b600954604080516001600160a01b039283168152918316602083015280517f605c2dbf762e5f7d60a546d42e7205dcb1b011ebc62a61736a57c9089d3a43509281900390910190a1600980546001600160a01b0319166001600160a01b0392909216919091179055565b7ff728cfc064674dacd2ced2a03acd588dfd299d5e4716726c6d5ec364d16406eb81565b336000908152600e6020526040902061208981612bf0565b6120938183612cad565b61209e600383612cbc565b600a546120b6906001600160a01b0316333085612cdc565b60408051838152905133917fe1fffcc4923d04b559f4d29a8bfc6cda04eb5b0d3c460751c2402c5c5cc9109c919081900360200190a25050565b6000546001600160a01b03163314612144576040805162461bcd60e51b815260206004820152601260248201527127bbb730b136329d103737ba1037bbb732b960711b604482015290519081900360640190fd5b6001600160a01b0381163014156121a2576040805162461bcd60e51b815260206004820152601b60248201527f506f6f6c3a2073656c662063616e6e6f742062652077616c6c65740000000000604482015290519081900360640190fd5b600a546001600160a01b0382811691161415612205576040805162461bcd60e51b815260206004820152601b60248201527f506f6f6c3a20746f6b656e2063616e6e6f742062652077616c6c740000000000604482015290519081900360640190fd5b600b54604080516001600160a01b039283168152918316602083015280517f64cbbd34f3faebfd04eff088ae5832f6d254dbb81820b0055e9d85c534aa700d9281900390910190a1600b80546001600160a01b0319166001600160a01b0392909216919091179055565b600080612280611b048a8a8a6116e4565b9050600060018288888860405160008152602001604052604051808581526020018460ff1681526020018381526020018281526020019450505050506020604051602081039080840390855afa1580156122de573d6000803e3d6000fd5b5050604051601f1901516001600160a01b03908116908c16149350505050979650505050505050565b6010805460408051602060026001851615610100026000190190941693909304601f8101849004840282018401909252818152929183018282801561238d5780601f106123625761010080835404028352916020019161238d565b820191906000526020600020905b81548152906001019060200180831161237057829003601f168201915b505050505081565b6000546001600160a01b031633146123e9576040805162461bcd60e51b815260206004820152601260248201527127bbb730b136329d103737ba1037bbb732b960711b604482015290519081900360640190fd5b600180546001600160a01b0319166001600160a01b0392909216919091179055565b60025490565b6001600160a01b0384166000818152600e60209081526040918290206002015482517f866880cdfbc2380b3f4581d70707601f3d190bc04c3ee9cfcdac070a5f87b7589281019290925281830193909352606081018690526080810185905260a0810184905260c0808201939093528151808203909301835260e00190525b949350505050565b81816040518083838082843760408051919093018190039020336000908152600e6020529290922060060154909114935061251392505050576040805162461bcd60e51b8152602060048201526012602482015271141bdbdb0e881ddc9bdb99c81cd958dc995d60721b604482015290519081900360640190fd5b61251d3384612902565b6040805160018152905133917f87715bcb29dbe27420aab6499f3227b2d0c070e9332c9ea0d7da26a547e48e1d919081900360200190a2505050565b6000546001600160a01b031633148061257c57506009546001600160a01b031633145b6125bb576040805162461bcd60e51b815260206004820152601a6024820152600080516020613367833981519152604482015290519081900360640190fd5b600b546001600160a01b031661260f576040805162461bcd60e51b8152602060048201526014602482015273141bdbdb0e881dd85b1b195d081b9bdd081cd95d60621b604482015290519081900360640190fd5b61261a600382612d36565b600b54600a54612637916001600160a01b039182169116836129e3565b600b546040805183815290516001600160a01b03909216917fa267b5cf59cf96d97abf36d29c63cf7bdef867c208ca8575c47f2cafda39abc99181900360200190a250565b604051806040016040528060018152602001603160f81b81525081565b60006126c16126b983600201548460010154612d7a90919063ffffffff16565b835490612ddb565b90505b919050565b600754811115612720576040805162461bcd60e51b815260206004820181905260248201527f506f6f6c3a20657865656473206d617820746f6b656e73207065722063616c6c604482015290519081900360640190fd5b6001600160a01b0382166000908152600e60205260409020600201544311612780576040805162461bcd60e51b815260206004820152600e60248201526d2837b7b61d103a37b79039b7b7b760911b604482015290519081900360640190fd5b61278981612b83565b6001600160a01b0382166000908152600e602052604090204360028201556127b081612bf0565b6127bb600383612e1d565b6127c58183612cad565b6040805183815290516001600160a01b038516917f16b0da2ffcb90c6723317bd637d9aad7f04711f42bbe0ac0918ebe10f1f9001c919081900360200190a2505050565b8082556002820154600183015483916128229190612d7a565b815410156128615760405162461bcd60e51b81526004018080602001828103825260218152602001806133876021913960400191505060405180910390fd5b505050565b8054600160f082811c91909101919082901b6601000000000000600160e01b0360001943014060301b161742179061ffff90811690821614156128e1576040805162461bcd60e51b815260206004820152600e60248201526d2837b7b61d103a37b79039b7b7b760911b604482015290519081900360640190fd5b90915550565b60018201546128f69082612ddb565b82600101819055505050565b6001600160a01b0382166000908152600e60205260409020600201544311612962576040805162461bcd60e51b815260206004820152600e60248201526d2837b7b61d103a37b79039b7b7b760911b604482015290519081900360640190fd5b6001600160a01b0382166000908152600e602052604090206129849082612e49565b610d47600382612f08565b600060048301819055600583015560018201546128f69082612ddb565b600182015482906129bd9083612ddb565b600184015582546129ce9083612ddb565b83556002810154600182015461282291612d7a565b604080516001600160a01b038416602482015260448082018490528251808303909101815260649091019091526020810180516001600160e01b031663a9059cbb60e01b179052612861908490612f60565b60008115612a8257600f5483604051602001808061190160f01b81525060020183815260200182815260200192505050604051602081830303815290604052805190602001209050610f04565b6010612a8d84613011565b60405160200180807f19457468657265756d205369676e6564204d6573736167653a0a313238000000815250601d0183805460018160011615610100020316600290048015612b135780601f10612af1576101008083540402835291820191612b13565b820191906000526020600020905b815481529060010190602001808311612aff575b5050825160208401908083835b60208310612b3f5780518252601f199092019160209182019101612b20565b6001836020036101000a0380198251168184511680821785525050505050509050019250505060405160208183030381529060405280519060200120905092915050565b43600c541015612b9b5743600c55600d819055612baa565b600d54612ba89082612d7a565b505b600854600d541115612bed5760405162461bcd60e51b81526004018080602001828103825260218152602001806134256021913960400191505060405180910390fd5b50565b8054612bed57600160f01b4243600019014060301b6601000000000000600160e01b031617179055565b82612c4e83604051806060016040528060218152602001613387602191396002870154612c479086612d7a565b91906130e0565b6002808601919091558101546001820154612c6891612d7a565b81541015612ca75760405162461bcd60e51b81526004018080602001828103825260218152602001806133876021913960400191505060405180910390fd5b50505050565b60018201546128f69082612d7a565b6001820154612ccb9082612d7a565b600183015581546128e19082612d7a565b604080516001600160a01b0380861660248301528416604482015260648082018490528251808303909101815260849091019091526020810180516001600160e01b03166323b872dd60e01b179052612ca7908590612f60565b60408051808201909152601d81527f506f6f6c3a2076616c7565206c6172676572207468616e20746f74616c0000006020820152825483916129ce919084906130e0565b600082820183811015612dd4576040805162461bcd60e51b815260206004820152601b60248201527f536166654d6174683a206164646974696f6e206f766572666c6f770000000000604482015290519081900360640190fd5b9392505050565b6000612dd483836040518060400160405280601e81526020017f536166654d6174683a207375627472616374696f6e206f766572666c6f7700008152506130e0565b60018201548290612e2e9083612d7a565b60018085019190915560028201549082015461282291612d7a565b600382015480612ea0576040805162461bcd60e51b815260206004820152601760248201527f506f6f6c3a206e6f2070656e64696e6720746f6b656e73000000000000000000604482015290519081900360640190fd5b818114612ede5760405162461bcd60e51b81526004018080602001828103825260248152602001806133d46024913960400191505060405180910390fd5b60006006840181905560038401556001830154612efb9082612d7a565b8360010181905550505050565b60408051808201909152601881527f506f6f6c3a206e6f7420656e6f7567682070656e64696e67000000000000000060208201526002830154612f4c9183906130e0565b600283015560018201546128f69082612d7a565b6060612fb5826040518060400160405280602081526020017f5361666545524332303a206c6f772d6c6576656c2063616c6c206661696c6564815250856001600160a01b03166131779092919063ffffffff16565b80519091501561286157808060200190516020811015612fd457600080fd5b50516128615760405162461bcd60e51b815260040180806020018281038252602a815260200180613446602a913960400191505060405180910390fd5b60408051818152606081810183529182919060208201818036833701905050905060005b60208110156130d957600084826020811061304c57fe5b1a60f881811b9250601080830480831b9360ff9091169091029003901b61307282613186565b85856002028151811061308157fe5b60200101906001600160f81b031916908160001a9053506130a181613186565b8585600202600101815181106130b357fe5b60200101906001600160f81b031916908160001a90535050600190920191506130359050565b5092915050565b6000818484111561316f5760405162461bcd60e51b81526004018080602001828103825283818151815260200191508051906020019080838360005b8381101561313457818101518382015260200161311c565b50505050905090810190601f1680156131615780820380516001836020036101000a031916815260200191505b509250505060405180910390fd5b505050900390565b606061249084846000856131c0565b6000600560f91b6001600160f81b0319831610156131af578160f81c60300160f81b90506126c4565b8160f81c60570160f81b90506126c4565b60606131cb8561332d565b61321c576040805162461bcd60e51b815260206004820152601d60248201527f416464726573733a2063616c6c20746f206e6f6e2d636f6e7472616374000000604482015290519081900360640190fd5b60006060866001600160a01b031685876040518082805190602001908083835b6020831061325b5780518252601f19909201916020918201910161323c565b6001836020036101000a03801982511681845116808217855250505050505090500191505060006040518083038185875af1925050503d80600081146132bd576040519150601f19603f3d011682016040523d82523d6000602084013e6132c2565b606091505b509150915081156132d65791506124909050565b8051156132e65780518082602001fd5b60405162461bcd60e51b815260206004820181815286516024840152865187939192839260440191908501908083836000831561313457818101518382015260200161311c565b6000813f7fc5d2460186f7233c927e7db2dcc703c0e500b653ca82273b7bfad8045d85a47081811480159061249057505015159291505056fe506f6f6c3a206e6f74206f776e6572206f72206d616e61676572000000000000506f6f6c3a206e6f7420656e6f75676820617661696c61626c6520746f6b656e73506f6f6c3a207769746864726177616c2076616c7565206d757374206265206c6172676572207468656e2030506f6f6c3a2076616c7565206d75737420657175616c2069737375656420746f6b656e73506f6f6c3a2076616c7565206d75737420657175616c2070656e64696e672869737375656420746f6b656e7329506f6f6c3a20657865656473206d617820746f6b656e732070657220626c6f636b5361666545524332303a204552433230206f7065726174696f6e20646964206e6f742073756363656564506f6f6c3a206f6e6c79207472616e73666572546f6b656e732063616e20646563726561736520746f74616c20737570706c79506f6f6c3a20696e7465726e616c206572726f722c20636865636b20636f6e7472616374206c6f676963a26469706673582212206bd4a190f08b08f490a818648e24833a244361e6646baf8cd846ad6e84cccd4064736f6c634300060c0033",
  "immutableReferences": {},
  "source": "// SPDX-License-Identifier: GPL-3.0-or-later\npragma solidity 0.6.12;\n\nimport \"../node_modules/@openzeppelin/contracts/math/SafeMath.sol\";\nimport \"../node_modules/@openzeppelin/contracts/token/ERC20/SafeERC20.sol\";\nimport \"./Claimable.sol\";\n\nstruct Account {\n    uint256 nonce;  \n    uint256 balance;\n    uint256 issueBlock;\n    uint256 pending;\n    uint256 withdrawal;\n    uint256 releaseBlock;\n    bytes32 secretHash;\n}\n\nlibrary AccountUtils {\n    using SafeMath for uint256;\n\n    function initNonce(Account storage self) internal {\n        if (self.nonce == 0) {\n            self.nonce =\n                uint256(1) << 240 |\n                uint256(blockhash(block.number-1)) << 80 >> 32 |\n                now;\n        }\n    }\n\n    function updateNonce(Account storage self) internal {\n        uint256 count = self.nonce >> 240;\n        uint256 nonce = \n            ++count << 240 |\n            uint256(blockhash(block.number-1)) << 80 >> 32 |\n            now;\n        require(uint16(self.nonce) != uint16(nonce), \"Pool: too soon\");\n        self.nonce = nonce;\n    }\n    \n    function acceptPending(Account storage self, uint256 value) internal {\n        uint256 pending = self.pending;\n        require(pending > 0, \"Pool: no pending tokens\");\n        require(pending == value, \"Pool: value must equal issued tokens\");\n        self.secretHash = 0;\n        self.pending = 0;\n        self.balance = self.balance.add(pending);\n    }\n\n    function take(Account storage self, uint256 value) internal {\n        self.balance = self.balance.add(value);\n    }\n\n    function payment(Account storage self, uint256 value) internal {\n        self.balance = self.balance.sub(value);\n    }\n\n    function deposit(Account storage self, uint256 value) internal {\n        self.balance = self.balance.add(value);\n    }\n\n    function withdraw(Account storage self, uint256 value) internal {\n        self.withdrawal = 0;\n        self.releaseBlock = 0;\n        self.balance = self.balance.sub(value);\n    }\n}\n\nstruct Supply {\n    uint256 total;\n    uint256 minimum;\n    uint256 pending;\n}\n\nlibrary SupplyUtils {\n    using SafeMath for uint256;\n\n    // event MinimumReached(uint256 before, uint256 delta);\n\n    modifier checkAvailability(Supply storage self) {\n        _;\n        require(self.total >= self.minimum.add(self.pending), \"Pool: not enough available tokens\");\n    }\n\n    // modifier safeReduceMinimum(Supply storage self, uint256 value) {\n    //     self.minimum > value ? self.minimum -= value : self.minimum = 0; \n    //     if (self.minimum == 0) {\n    //       emit MinimumReached(self.minimum, value);\n    //     }\n    //     _;\n    // }\n\n    function updatePending(Supply storage self, uint256 from, uint256 to) internal checkAvailability(self) { \n        self.pending = self.pending.add(to).sub(from, \"Pool: not enough available tokens\");       \n    }\n\n    function acceptPending(Supply storage self, uint256 value) internal {\n        self.pending = self.pending.sub(value, \"Pool: not enough pending\");\n        self.minimum = self.minimum.add(value);\n    }\n\n    function give(Supply storage self, uint256 value) internal checkAvailability(self) {\n        self.minimum = self.minimum.add(value);\n    }\n\n    function payment(Supply storage self, uint256 value) internal /*safeReduceMinimum(self, value)*/ {\n        self.minimum = self.minimum.sub(value); // this line should be remove if using safeReduceMinimum modifier\n    }\n\n    function deposit(Supply storage self, uint256 value) internal {\n        self.minimum = self.minimum.add(value);\n        self.total = self.total.add(value);\n    }\n\n    function widthdraw(Supply storage self, uint256 value) internal /*safeReduceMinimum(self, value)*/ checkAvailability(self) {\n        self.minimum = self.minimum.sub(value); // this line should be remove if using safeReduceMinimum modifier\n        self.total = self.total.sub(value);\n    }\n\n    function decrease(Supply storage self, uint256 value) internal checkAvailability(self) {\n        self.total = self.total.sub(value, \"Pool: value larger than total\");\n    }\n\n    function update(Supply storage self, uint256 value) internal checkAvailability(self) {\n        self.total = value;\n    }\n\n    function available(Supply storage self) internal view returns (uint256) {\n        return self.total.sub(self.minimum.add(self.pending));\n    }\n}\n\nstruct Limits {\n    uint256 releaseDelay;\n    uint256 maxTokensPerIssue;\n    uint256 maxTokensPerBlock;\n}\n\nstruct Entities {\n    address manager;\n    address token;\n    address wallet;\n}\n\ncontract Pool is Claimable {\n    using AccountUtils for Account;\n    using SupplyUtils for Supply;\n    using SafeERC20 for IERC20;\n    using SafeMath for uint256;\n\n    bytes32 private s_uid;\n    Supply private s_supply;\n    Limits private s_limits;\n    Entities private s_entities;\n    uint256 private s_lastIssuedBlock;\n    uint256 private s_totalIssuedInBlock;\n\n    mapping(address => Account) private s_accounts;\n\n    uint8 public constant VERSION_NUMBER = 0x1;\n    uint256 public constant MAX_RELEASE_DELAY = 11_520; // about 48h\n    string public constant NAME = \"Kirobo Pool\";\n    string public constant VERSION = \"1\";\n    bytes32 public DOMAIN_SEPARATOR;\n    bytes public DOMAIN_SEPARATOR_ASCII;\n    uint256 public CHAIN_ID;\n\n    // keccak256(\"acceptTokens(address recipient,uint256 value,bytes32 secretHash)\");\n    bytes32 public constant ACCEPT_TYPEHASH = 0xf728cfc064674dacd2ced2a03acd588dfd299d5e4716726c6d5ec364d16406eb;\n\n    // keccak256(\"payment(address from,uint256 value,uint256 nonce)\");\n    bytes32 public constant PAYMENT_TYPEHASH = 0x841d82f71fa4558203bb763733f6b3326ecaf324143e12fb9b6a9ed958fc4ee0;\n\n    // keccak256(\"buyTokens(address recipient,uint256 eth,uint256 kiro,uint256 expires)\");\n    bytes32 public constant BUY_TYPEHASH = 0x866880cdfbc2380b3f4581d70707601f3d190bc04c3ee9cfcdac070a5f87b758;\n\n    event TokensIssued(address indexed account, uint256 value, bytes32 secretHash);\n    event TokensAccepted(address indexed account, bool directCall);\n    event TokensDistributed(address indexed account, uint256 value);\n    event Payment(address indexed account, uint256 value);\n    event Deposit(address indexed account, uint256 value);\n    event WithdrawalRequested(address indexed account, uint256 value);\n    event WithdrawalCanceled(address indexed account);\n    event Withdrawal(address indexed account, uint256 value);\n    event EtherTransfered(address indexed to, uint256 value);\n    event TokensTransfered(address indexed to, uint256 value);\n    event ManagerChanged(address from, address to);\n    event WalletChanged(address from, address to);\n    event ReleaseDelayChanged(uint256 from, uint256 to);\n    event MaxTokensPerIssueChanged(uint256 from, uint256 to);\n    event MaxTokensPerBlockChanged(uint256 from, uint256 to);\n\n    modifier onlyAdmins() {\n        require(msg.sender == s_owner || msg.sender == s_entities.manager, \"Pool: not owner or manager\");\n        _;\n    }\n\n    constructor(address tokenContract) public {\n        uint256 chainId;\n        assembly {\n            chainId := chainid()\n        }\n     \n        s_entities.token = tokenContract;\n        s_limits = Limits({releaseDelay: 240, maxTokensPerIssue: 10*1000*(10**18), maxTokensPerBlock: 50*1000*(10**18)});\n        s_uid = bytes32(\n          uint256(VERSION_NUMBER) << 248 |\n          uint256(blockhash(block.number-1)) << 192 >> 16 |\n          uint256(address(this))\n        );\n\n        CHAIN_ID = chainId;\n\n        DOMAIN_SEPARATOR = keccak256(\n            abi.encode(\n                keccak256(\"EIP712Domain(string name,string version,uint256 chainId,address verifyingContract,bytes32 salt)\"),\n                keccak256(bytes(NAME)),\n                keccak256(bytes(VERSION)),\n                chainId,\n                address(this),\n                s_uid\n            )\n        );\n        DOMAIN_SEPARATOR_ASCII = _hashToAscii(\n            DOMAIN_SEPARATOR\n        );\n    }\n\n    receive () external payable {\n        require(false, \"Pool: not accepting ether\");\n    }\n\n\n    // ----------- Owner Functions ------------\n\n\n    function setManager(address manager) external onlyOwner() {\n        require(manager != address(this), \"Pool: self cannot be mananger\");\n        require(manager != s_entities.token, \"Pool: token cannot be manager\");\n        emit ManagerChanged(s_entities.manager, manager);\n        s_entities.manager = manager;\n    }\n\n    function setWallet(address wallet) external onlyOwner() {\n        require(wallet != address(this), \"Pool: self cannot be wallet\");\n        require(wallet != s_entities.token, \"Pool: token cannot be wallt\");\n        emit WalletChanged(s_entities.wallet, wallet);\n        s_entities.wallet = wallet;\n    }\n\n    function setReleaseDelay(uint256 blocks) external onlyOwner() {\n        require(blocks <= MAX_RELEASE_DELAY, \"Pool: exeeds max release delay\");\n        emit ReleaseDelayChanged(s_limits.releaseDelay, blocks);\n        s_limits.releaseDelay = blocks;\n    }\n\n    function setMaxTokensPerIssue(uint256 tokens) external onlyOwner() {\n        emit MaxTokensPerIssueChanged(s_limits.maxTokensPerIssue, tokens);\n        s_limits.maxTokensPerIssue = tokens;\n    }\n\n    function setMaxTokensPerBlock(uint256 tokens) external onlyOwner() {\n        emit MaxTokensPerBlockChanged(s_limits.maxTokensPerBlock, tokens);\n        s_limits.maxTokensPerBlock = tokens;\n    }\n\n    function resyncTotalSupply(uint256 value) external onlyAdmins() returns (uint256) {\n        uint256 tokens = ownedTokens();\n        require(tokens >= s_supply.total, \"Pool: internal error, check contract logic\"); \n        require(value >= s_supply.total, \"Pool: only transferTokens can decrease total supply\");\n        require(value <= tokens, \"Pool: not enough tokens\");\n        s_supply.update(value);\n    }\n\n\n    // ----------- Admins Functions ------------\n\n\n    function transferEther(uint256 value) external onlyAdmins() {\n        require(s_entities.wallet != address(0), \"Pool: wallet not set\");\n        payable(s_entities.wallet).transfer(value);\n        emit EtherTransfered(s_entities.wallet, value);\n    }\n\n    function transferTokens(uint256 value) external onlyAdmins() {\n        require(s_entities.wallet != address(0), \"Pool: wallet not set\");\n        s_supply.decrease(value);\n        IERC20(s_entities.token).safeTransfer(s_entities.wallet, value);\n        emit TokensTransfered(s_entities.wallet, value);\n    }\n\n    function distributeTokens(address to, uint256 value) external onlyAdmins() {\n        _distributeTokens(to, value);\n    }\n    \n    function _distributeTokens(address to, uint256 value) private {\n        require(value <= s_limits.maxTokensPerIssue, \"Pool: exeeds max tokens per call\");\n        require(s_accounts[to].issueBlock < block.number, \"Pool: too soon\");\n        _validateTokensPerBlock(value);\n        Account storage sp_account = s_accounts[to];\n        sp_account.issueBlock = block.number;\n        sp_account.initNonce();\n        s_supply.give(value);\n        sp_account.take(value);\n        emit TokensDistributed(to, value);\n    }\n\n    /**\n     * @dev Issueing tokens for an address to be used for payments.\n     * The owner of the receiving address must accept via a signed message or a direct call.\n     * @param to The tokens recipient. \n     * @param value The number of tokens to issue.\n     * @param secretHash The keccak256 of the confirmation secret.\n    */\n    function issueTokens(address to, uint256 value, bytes32 secretHash) external onlyAdmins() {\n        require(value <= s_limits.maxTokensPerIssue, \"Pool: exeeds max tokens per call\");\n        _validateTokensPerBlock(value);\n        Account storage sp_account = s_accounts[to];\n        uint256 prevPending = sp_account.pending;\n        sp_account.initNonce();\n        sp_account.secretHash = secretHash;\n        sp_account.pending = value;\n        sp_account.issueBlock = block.number;\n        s_supply.updatePending(prevPending, value);\n        emit TokensIssued(to, value, secretHash);\n    }\n\n    function executeAcceptTokens(\n        address recipient,\n        uint256 value,\n        bytes calldata c_secret,\n        uint8 v,\n        bytes32 r,\n        bytes32 s,\n        bool eip712\n    )\n        external \n        onlyAdmins()\n    {\n        require(s_accounts[recipient].secretHash == keccak256(c_secret), \"Pool: wrong secret\");\n        require(\n            validateAcceptTokens(recipient, value, keccak256(c_secret), v, r ,s, eip712),\n            \"Pool: wrong signature or data\"\n        );\n        _acceptTokens(recipient, value);\n        emit TokensAccepted(recipient, false);\n    }\n\n    function executePayment(address from, uint256 value, uint8 v, bytes32 r, bytes32 s, bool eip712)\n        external\n        onlyAdmins()\n    {\n        require(validatePayment(from, value, v, r, s, eip712), \"Pool: wrong signature or data\");\n        Account storage sp_account = s_accounts[from];\n        sp_account.updateNonce();\n        sp_account.payment(value);\n        s_supply.payment(value);\n        emit Payment(from, value);\n    }\n  \n\n    // ----------- External Functions ------------\n\n\n    function executeBuyTokens(uint256 kiro, uint256 expires, uint8 v, bytes32 r, bytes32 s, bool eip712) \n        external\n        payable\n    {\n        require(validateBuyTokens(msg.sender, msg.value, kiro, expires, v, r, s, eip712), \"Pool: wrong signature or data\");\n        require(now <= expires, \"Pool: too late\");\n        _distributeTokens(msg.sender, kiro);\n    }\n\n    function acceptTokens(uint256 value, bytes calldata c_secret) external {\n        require(s_accounts[msg.sender].secretHash == keccak256(c_secret), \"Pool: wrong secret\");\n        _acceptTokens(msg.sender, value);\n        emit TokensAccepted(msg.sender, true);\n    }\n\n    function depositTokens(uint256 value) external {\n        // require(\n        //     IERC20(s_entities.token).allowance(msg.sender, address(this)) >= value,\n        //    \"IERC20 allowance too low\"\n        // );\n        Account storage sp_account = s_accounts[msg.sender]; \n        sp_account.initNonce();\n        sp_account.deposit(value);\n        s_supply.deposit(value);\n        IERC20(s_entities.token).safeTransferFrom(msg.sender, address(this), value);\n        emit Deposit(msg.sender, value);\n    }\n\n    function requestWithdrawal(uint256 value) external {\n        require(s_accounts[msg.sender].balance >= value, \"Pool: not enough tokens\");\n        require(value > 0, \"Pool: withdrawal value must be larger then 0\");\n        s_accounts[msg.sender].withdrawal = value;\n        s_accounts[msg.sender].releaseBlock = block.number + s_limits.releaseDelay;\n        emit WithdrawalRequested(msg.sender, value);\n    }\n\n    function cancelWithdrawal() external {\n        s_accounts[msg.sender].withdrawal = 0;\n        s_accounts[msg.sender].releaseBlock = 0;\n        emit WithdrawalCanceled(msg.sender);\n    }\n\n    function withdrawTokens() external {\n        Account storage sp_account = s_accounts[msg.sender];   \n        require(sp_account.withdrawal > 0, \"Pool: no withdraw request\");\n        require(sp_account.releaseBlock <= block.number, \"Pool: too soon\");\n        uint256 value = sp_account.withdrawal > sp_account.balance ? sp_account.balance : sp_account.withdrawal;\n        sp_account.withdraw(value);\n        s_supply.widthdraw(value);\n        IERC20(s_entities.token).safeTransfer(msg.sender, value);\n        emit Withdrawal(msg.sender, value);\n    }\n\n    function account(address addr) external view\n        returns (\n            uint256 nonce,  \n            uint256 balance,\n            uint256 issueBlock,\n            uint256 pending,\n            uint256 withdrawal,\n            uint256 releaseBlock,\n            bytes32 secretHash,\n            uint256 externalBalance\n        ) \n    {\n        Account storage sp_account = s_accounts[addr];\n        uint256 extBalance = IERC20(s_entities.token).balanceOf(addr);\n        return (\n            sp_account.nonce,\n            sp_account.balance,\n            sp_account.issueBlock,\n            sp_account.pending,\n            sp_account.withdrawal,\n            sp_account.releaseBlock,\n            sp_account.secretHash,\n            extBalance\n        );\n    }\n\n    function entities() view external\n        returns (\n            address manager,\n            address token,\n            address wallet\n        )\n    {\n        return (\n            s_entities.manager,\n            s_entities.token,\n            s_entities.wallet\n        );\n    }\n\n    function limits() external view\n        returns (\n            uint256 releaseDelay, \n            uint256 maxTokensPerIssue,\n            uint256 maxTokensPerBlock\n        )\n    {\n        return (\n            s_limits.releaseDelay,\n            s_limits.maxTokensPerIssue,\n            s_limits.maxTokensPerBlock\n        );\n    }\n\n    function supply() view external \n        returns (\n            uint256 total,\n            uint256 minimum,\n            uint256 pending,\n            uint256 available\n        ) \n    {\n        return (\n            s_supply.total,\n            s_supply.minimum,\n            s_supply.pending,\n            s_supply.available()\n        );\n    }\n\n    function uid() view external returns (bytes32) {\n        return s_uid;\n    }\n\n    function totalSupply() view external returns (uint256) {\n        return s_supply.total;\n    }\n\n    function availableSupply() view external returns (uint256) {\n        return s_supply.available();\n    }\n\n\n    // ----------- Public Functions ------------\n\n\n    function generateBuyTokensMessage(address recipient, uint256 eth, uint256 kiro, uint256 expires)\n        public view\n        returns (bytes memory)\n    {\n        Account storage sp_account = s_accounts[recipient]; \n    \n        return abi.encode(\n            BUY_TYPEHASH,\n            recipient,\n            eth,\n            kiro,\n            expires,\n            sp_account.issueBlock\n        );\n    }\n\n    function generateAcceptTokensMessage(address recipient, uint256 value, bytes32 secretHash)\n        public view \n        returns (bytes memory)\n    {\n        require(s_accounts[recipient].secretHash == secretHash, \"Pool: wrong secret hash\");\n        require(s_accounts[recipient].pending == value, \"Pool: value must equal pending(issued tokens)\");\n            \n        return abi.encode(\n            ACCEPT_TYPEHASH,\n            recipient,\n            value,\n            secretHash\n        );\n    }\n\n    function generatePaymentMessage(address from, uint256 value)\n        public view\n        returns (bytes memory)\n    {\n        Account storage sp_account = s_accounts[from]; \n        require(sp_account.balance >= value, \"Pool: account balnace too low\");\n        \n        return abi.encode(\n            PAYMENT_TYPEHASH,\n            from,\n            value,\n            sp_account.nonce\n        );\n    }\n\n    function validateBuyTokens(\n        address from,\n        uint256 eth,\n        uint256 kiro,\n        uint256 expires,\n        uint8 v,\n        bytes32 r,\n        bytes32 s,\n        bool eip712\n    )\n        public view \n        returns (bool)\n    {\n        bytes32 message = _messageToRecover(\n            keccak256(generateBuyTokensMessage(from, eth, kiro, expires)),\n            eip712\n        );\n        address addr = ecrecover(message, v, r, s);\n        return addr == s_entities.manager;      \n    }\n\n    function validateAcceptTokens(\n        address recipient,\n        uint256 value,\n        bytes32 secretHash,\n        uint8 v,\n        bytes32 r,\n        bytes32 s,\n        bool eip712\n    )\n        public view \n        returns (bool)\n    {\n        bytes32 message = _messageToRecover(\n            keccak256(generateAcceptTokensMessage(recipient, value, secretHash)),\n            eip712\n        );\n        address addr = ecrecover(message, v, r, s);\n        return addr == recipient;\n    }\n\n    function validatePayment(address from, uint256 value, uint8 v, bytes32 r, bytes32 s, bool eip712)\n        public view \n        returns (bool)\n    {\n        bytes32 message = _messageToRecover(\n            keccak256(generatePaymentMessage(from, value)),\n            eip712\n        );\n        address addr = ecrecover(message, v, r, s);\n        return addr == from;      \n    }\n\n    function ownedTokens() view public returns (uint256) {\n        return IERC20(s_entities.token).balanceOf(address(this));\n    }\n\n\n    // ----------- Private Functions ------------\n\n\n    function _validateTokensPerBlock(uint256 value) private {\n        if (s_lastIssuedBlock < block.number) {\n            s_lastIssuedBlock = block.number;\n            s_totalIssuedInBlock = value;\n        } else {\n            s_totalIssuedInBlock.add(value);\n        }\n        require(s_totalIssuedInBlock <= s_limits.maxTokensPerBlock, \"Pool: exeeds max tokens per block\");\n    }\n\n    function _acceptTokens(address recipient, uint256 value) private {\n        require(s_accounts[recipient].issueBlock < block.number, \"Pool: too soon\");\n        s_accounts[recipient].acceptPending(value);\n        s_supply.acceptPending(value);\n    }\n\n    function _messageToRecover(bytes32 hashedUnsignedMessage, bool eip712)\n        private view \n        returns (bytes32)\n    {\n        if (eip712) {\n            return keccak256(abi.encodePacked\n            (\n                \"\\x19\\x01\",\n                DOMAIN_SEPARATOR,\n                hashedUnsignedMessage\n            ));\n        }\n        return keccak256(abi.encodePacked\n        (\n            \"\\x19Ethereum Signed Message:\\n128\",\n            DOMAIN_SEPARATOR_ASCII,\n            _hashToAscii(hashedUnsignedMessage)\n        ));\n    }\n\n    function _hashToAscii(bytes32 hash) private pure returns (bytes memory) {\n        bytes memory s = new bytes(64);\n        for (uint i = 0; i < 32; i++) {\n            byte  b = hash[i];\n            byte hi = byte(uint8(b) / 16);\n            byte lo = byte(uint8(b) - 16 * uint8(hi));\n            s[2*i] = _char(hi);\n            s[2*i+1] = _char(lo);\n        }\n        return s;\n    }\n\n    function _char(byte b) private pure returns (byte c) {\n        if (b < byte(uint8(10))) {\n            return byte(uint8(b) + 0x30);\n        } else {\n            return byte(uint8(b) + 0x57);\n        }\n    }\n\n}\n",
  "sourcePath": "/Users/Tal/code/kirobo/ki-eth-token/contracts/Pool.sol",
  "compiler": {
    "name": "solc",
    "version": "0.6.12+commit.27d51765.Emscripten.clang"
  },
  "schemaVersion": "3.2.0",
  "updatedAt": "2020-10-27T17:33:17.382Z",
  "devdoc": {
    "kind": "dev",
    "methods": {
      "claimOwnership()": {
        "details": "Allows the pendingOwner address to finalize the transfer."
      },
      "issueTokens(address,uint256,bytes32)": {
        "details": "Issueing tokens for an address to be used for payments. The owner of the receiving address must accept via a signed message or a direct call.",
        "params": {
          "secretHash": "The keccak256 of the confirmation secret.",
          "to": "The tokens recipient. ",
          "value": "The number of tokens to issue."
        }
      },
      "transferOwnership(address)": {
        "details": "Allows the current owner to set the pendingOwner address.",
        "params": {
          "newOwner": "The address to transfer ownership to."
        }
      }
    },
    "version": 1
  },
  "userdoc": {
    "kind": "user",
    "methods": {},
    "version": 1
  }
}