{
  "contractName": "Pool",
  "abi": [
    {
      "inputs": [
        {
          "internalType": "address",
          "name": "tokenContract",
          "type": "address"
        }
      ],
      "stateMutability": "nonpayable",
      "type": "constructor"
    },
    {
      "anonymous": false,
      "inputs": [
        {
          "indexed": true,
          "internalType": "address",
          "name": "account",
          "type": "address"
        },
        {
          "indexed": false,
          "internalType": "uint256",
          "name": "value",
          "type": "uint256"
        }
      ],
      "name": "Deposit",
      "type": "event"
    },
    {
      "anonymous": false,
      "inputs": [
        {
          "indexed": true,
          "internalType": "address",
          "name": "to",
          "type": "address"
        },
        {
          "indexed": false,
          "internalType": "uint256",
          "name": "value",
          "type": "uint256"
        }
      ],
      "name": "EtherTransfered",
      "type": "event"
    },
    {
      "anonymous": false,
      "inputs": [
        {
          "indexed": false,
          "internalType": "address",
          "name": "from",
          "type": "address"
        },
        {
          "indexed": false,
          "internalType": "address",
          "name": "to",
          "type": "address"
        }
      ],
      "name": "ManagerChanged",
      "type": "event"
    },
    {
      "anonymous": false,
      "inputs": [
        {
          "indexed": false,
          "internalType": "uint256",
          "name": "from",
          "type": "uint256"
        },
        {
          "indexed": false,
          "internalType": "uint256",
          "name": "to",
          "type": "uint256"
        }
      ],
      "name": "MaxTokensPerBlockChanged",
      "type": "event"
    },
    {
      "anonymous": false,
      "inputs": [
        {
          "indexed": false,
          "internalType": "uint256",
          "name": "from",
          "type": "uint256"
        },
        {
          "indexed": false,
          "internalType": "uint256",
          "name": "to",
          "type": "uint256"
        }
      ],
      "name": "MaxTokensPerIssueChanged",
      "type": "event"
    },
    {
      "anonymous": false,
      "inputs": [
        {
          "indexed": true,
          "internalType": "address",
          "name": "previousOwner",
          "type": "address"
        },
        {
          "indexed": true,
          "internalType": "address",
          "name": "newOwner",
          "type": "address"
        }
      ],
      "name": "OwnershipTransferred",
      "type": "event"
    },
    {
      "anonymous": false,
      "inputs": [
        {
          "indexed": true,
          "internalType": "address",
          "name": "account",
          "type": "address"
        },
        {
          "indexed": false,
          "internalType": "uint256",
          "name": "value",
          "type": "uint256"
        }
      ],
      "name": "Payment",
      "type": "event"
    },
    {
      "anonymous": false,
      "inputs": [
        {
          "indexed": false,
          "internalType": "uint256",
          "name": "from",
          "type": "uint256"
        },
        {
          "indexed": false,
          "internalType": "uint256",
          "name": "to",
          "type": "uint256"
        }
      ],
      "name": "ReleaseDelayChanged",
      "type": "event"
    },
    {
      "anonymous": false,
      "inputs": [
        {
          "indexed": true,
          "internalType": "address",
          "name": "account",
          "type": "address"
        },
        {
          "indexed": false,
          "internalType": "bool",
          "name": "directCall",
          "type": "bool"
        }
      ],
      "name": "TokensAccepted",
      "type": "event"
    },
    {
      "anonymous": false,
      "inputs": [
        {
          "indexed": true,
          "internalType": "address",
          "name": "account",
          "type": "address"
        },
        {
          "indexed": false,
          "internalType": "uint256",
          "name": "value",
          "type": "uint256"
        }
      ],
      "name": "TokensDistributed",
      "type": "event"
    },
    {
      "anonymous": false,
      "inputs": [
        {
          "indexed": true,
          "internalType": "address",
          "name": "account",
          "type": "address"
        },
        {
          "indexed": false,
          "internalType": "uint256",
          "name": "value",
          "type": "uint256"
        },
        {
          "indexed": false,
          "internalType": "bytes32",
          "name": "secretHash",
          "type": "bytes32"
        }
      ],
      "name": "TokensIssued",
      "type": "event"
    },
    {
      "anonymous": false,
      "inputs": [
        {
          "indexed": true,
          "internalType": "address",
          "name": "to",
          "type": "address"
        },
        {
          "indexed": false,
          "internalType": "uint256",
          "name": "value",
          "type": "uint256"
        }
      ],
      "name": "TokensTransfered",
      "type": "event"
    },
    {
      "anonymous": false,
      "inputs": [
        {
          "indexed": false,
          "internalType": "address",
          "name": "from",
          "type": "address"
        },
        {
          "indexed": false,
          "internalType": "address",
          "name": "to",
          "type": "address"
        }
      ],
      "name": "WalletChanged",
      "type": "event"
    },
    {
      "anonymous": false,
      "inputs": [
        {
          "indexed": true,
          "internalType": "address",
          "name": "account",
          "type": "address"
        },
        {
          "indexed": false,
          "internalType": "uint256",
          "name": "value",
          "type": "uint256"
        }
      ],
      "name": "Withdrawal",
      "type": "event"
    },
    {
      "anonymous": false,
      "inputs": [
        {
          "indexed": true,
          "internalType": "address",
          "name": "account",
          "type": "address"
        }
      ],
      "name": "WithdrawalCanceled",
      "type": "event"
    },
    {
      "anonymous": false,
      "inputs": [
        {
          "indexed": true,
          "internalType": "address",
          "name": "account",
          "type": "address"
        },
        {
          "indexed": false,
          "internalType": "uint256",
          "name": "value",
          "type": "uint256"
        }
      ],
      "name": "WithdrawalRequested",
      "type": "event"
    },
    {
      "inputs": [],
      "name": "MAX_RELEASE_DELAY",
      "outputs": [
        {
          "internalType": "uint256",
          "name": "",
          "type": "uint256"
        }
      ],
      "stateMutability": "view",
      "type": "function"
    },
    {
      "inputs": [],
      "name": "VERSION",
      "outputs": [
        {
          "internalType": "uint8",
          "name": "",
          "type": "uint8"
        }
      ],
      "stateMutability": "view",
      "type": "function"
    },
    {
      "inputs": [],
      "name": "claimOwnership",
      "outputs": [],
      "stateMutability": "nonpayable",
      "type": "function"
    },
    {
      "inputs": [
        {
          "internalType": "address",
          "name": "newOwner",
          "type": "address"
        }
      ],
      "name": "transferOwnership",
      "outputs": [],
      "stateMutability": "nonpayable",
      "type": "function"
    },
    {
      "stateMutability": "payable",
      "type": "receive"
    },
    {
      "inputs": [
        {
          "internalType": "address",
          "name": "manager",
          "type": "address"
        }
      ],
      "name": "setManager",
      "outputs": [],
      "stateMutability": "nonpayable",
      "type": "function"
    },
    {
      "inputs": [
        {
          "internalType": "address",
          "name": "wallet",
          "type": "address"
        }
      ],
      "name": "setWallet",
      "outputs": [],
      "stateMutability": "nonpayable",
      "type": "function"
    },
    {
      "inputs": [
        {
          "internalType": "uint256",
          "name": "blocks",
          "type": "uint256"
        }
      ],
      "name": "setReleaseDelay",
      "outputs": [],
      "stateMutability": "nonpayable",
      "type": "function"
    },
    {
      "inputs": [
        {
          "internalType": "uint256",
          "name": "tokens",
          "type": "uint256"
        }
      ],
      "name": "setMaxTokensPerIssue",
      "outputs": [],
      "stateMutability": "nonpayable",
      "type": "function"
    },
    {
      "inputs": [
        {
          "internalType": "uint256",
          "name": "tokens",
          "type": "uint256"
        }
      ],
      "name": "setMaxTokensPerBlock",
      "outputs": [],
      "stateMutability": "nonpayable",
      "type": "function"
    },
    {
      "inputs": [
        {
          "internalType": "uint256",
          "name": "value",
          "type": "uint256"
        }
      ],
      "name": "resyncTotalSupply",
      "outputs": [
        {
          "internalType": "uint256",
          "name": "",
          "type": "uint256"
        }
      ],
      "stateMutability": "nonpayable",
      "type": "function"
    },
    {
      "inputs": [
        {
          "internalType": "uint256",
          "name": "value",
          "type": "uint256"
        }
      ],
      "name": "transferTokens",
      "outputs": [],
      "stateMutability": "nonpayable",
      "type": "function"
    },
    {
      "inputs": [
        {
          "internalType": "address",
          "name": "to",
          "type": "address"
        },
        {
          "internalType": "uint256",
          "name": "value",
          "type": "uint256"
        }
      ],
      "name": "distributeTokens",
      "outputs": [],
      "stateMutability": "nonpayable",
      "type": "function"
    },
    {
      "inputs": [
        {
          "internalType": "address",
          "name": "to",
          "type": "address"
        },
        {
          "internalType": "uint256",
          "name": "value",
          "type": "uint256"
        },
        {
          "internalType": "bytes32",
          "name": "secretHash",
          "type": "bytes32"
        }
      ],
      "name": "issueTokens",
      "outputs": [],
      "stateMutability": "nonpayable",
      "type": "function"
    },
    {
      "inputs": [
        {
          "internalType": "address",
          "name": "recipient",
          "type": "address"
        },
        {
          "internalType": "uint256",
          "name": "value",
          "type": "uint256"
        },
        {
          "internalType": "bytes",
          "name": "c_secret",
          "type": "bytes"
        },
        {
          "internalType": "uint8",
          "name": "v",
          "type": "uint8"
        },
        {
          "internalType": "bytes32",
          "name": "r",
          "type": "bytes32"
        },
        {
          "internalType": "bytes32",
          "name": "s",
          "type": "bytes32"
        }
      ],
      "name": "executeAcceptTokens",
      "outputs": [],
      "stateMutability": "nonpayable",
      "type": "function"
    },
    {
      "inputs": [
        {
          "internalType": "address",
          "name": "from",
          "type": "address"
        },
        {
          "internalType": "uint256",
          "name": "value",
          "type": "uint256"
        },
        {
          "internalType": "uint8",
          "name": "v",
          "type": "uint8"
        },
        {
          "internalType": "bytes32",
          "name": "r",
          "type": "bytes32"
        },
        {
          "internalType": "bytes32",
          "name": "s",
          "type": "bytes32"
        }
      ],
      "name": "executePayment",
      "outputs": [],
      "stateMutability": "nonpayable",
      "type": "function"
    },
    {
      "inputs": [
        {
          "internalType": "uint256",
          "name": "value",
          "type": "uint256"
        },
        {
          "internalType": "bytes",
          "name": "c_secret",
          "type": "bytes"
        }
      ],
      "name": "acceptTokens",
      "outputs": [],
      "stateMutability": "nonpayable",
      "type": "function"
    },
    {
      "inputs": [
        {
          "internalType": "uint256",
          "name": "value",
          "type": "uint256"
        }
      ],
      "name": "depositTokens",
      "outputs": [],
      "stateMutability": "nonpayable",
      "type": "function"
    },
    {
      "inputs": [
        {
          "internalType": "uint256",
          "name": "value",
          "type": "uint256"
        }
      ],
      "name": "requestWithdrawal",
      "outputs": [],
      "stateMutability": "nonpayable",
      "type": "function"
    },
    {
      "inputs": [],
      "name": "cancelWithdrawal",
      "outputs": [],
      "stateMutability": "nonpayable",
      "type": "function"
    },
    {
      "inputs": [],
      "name": "withdrawTokens",
      "outputs": [],
      "stateMutability": "nonpayable",
      "type": "function"
    },
    {
      "inputs": [
        {
          "internalType": "address",
          "name": "addr",
          "type": "address"
        }
      ],
      "name": "account",
      "outputs": [
        {
          "internalType": "uint256",
          "name": "nonce",
          "type": "uint256"
        },
        {
          "internalType": "uint256",
          "name": "balance",
          "type": "uint256"
        },
        {
          "internalType": "uint256",
          "name": "issueBlock",
          "type": "uint256"
        },
        {
          "internalType": "uint256",
          "name": "pending",
          "type": "uint256"
        },
        {
          "internalType": "uint256",
          "name": "withdrawal",
          "type": "uint256"
        },
        {
          "internalType": "uint256",
          "name": "releaseBlock",
          "type": "uint256"
        },
        {
          "internalType": "bytes32",
          "name": "secretHash",
          "type": "bytes32"
        },
        {
          "internalType": "uint256",
          "name": "externalBalance",
          "type": "uint256"
        }
      ],
      "stateMutability": "view",
      "type": "function"
    },
    {
      "inputs": [],
      "name": "entities",
      "outputs": [
        {
          "internalType": "address",
          "name": "manager",
          "type": "address"
        },
        {
          "internalType": "address",
          "name": "token",
          "type": "address"
        },
        {
          "internalType": "address",
          "name": "wallet",
          "type": "address"
        }
      ],
      "stateMutability": "view",
      "type": "function"
    },
    {
      "inputs": [],
      "name": "limits",
      "outputs": [
        {
          "internalType": "uint256",
          "name": "releaseDelay",
          "type": "uint256"
        },
        {
          "internalType": "uint256",
          "name": "maxTokensPerIssue",
          "type": "uint256"
        },
        {
          "internalType": "uint256",
          "name": "maxTokensPerBlock",
          "type": "uint256"
        }
      ],
      "stateMutability": "view",
      "type": "function"
    },
    {
      "inputs": [],
      "name": "supply",
      "outputs": [
        {
          "internalType": "uint256",
          "name": "total",
          "type": "uint256"
        },
        {
          "internalType": "uint256",
          "name": "minimum",
          "type": "uint256"
        },
        {
          "internalType": "uint256",
          "name": "pending",
          "type": "uint256"
        },
        {
          "internalType": "uint256",
          "name": "available",
          "type": "uint256"
        }
      ],
      "stateMutability": "view",
      "type": "function"
    },
    {
      "inputs": [],
      "name": "uid",
      "outputs": [
        {
          "internalType": "uint256",
          "name": "",
          "type": "uint256"
        }
      ],
      "stateMutability": "view",
      "type": "function"
    },
    {
      "inputs": [],
      "name": "totalSupply",
      "outputs": [
        {
          "internalType": "uint256",
          "name": "",
          "type": "uint256"
        }
      ],
      "stateMutability": "view",
      "type": "function"
    },
    {
      "inputs": [],
      "name": "availableSupply",
      "outputs": [
        {
          "internalType": "uint256",
          "name": "",
          "type": "uint256"
        }
      ],
      "stateMutability": "view",
      "type": "function"
    },
    {
      "inputs": [
        {
          "internalType": "address",
          "name": "recipient",
          "type": "address"
        },
        {
          "internalType": "uint256",
          "name": "value",
          "type": "uint256"
        },
        {
          "internalType": "bytes32",
          "name": "secretHash",
          "type": "bytes32"
        }
      ],
      "name": "generateAcceptTokensMessage",
      "outputs": [
        {
          "internalType": "bytes",
          "name": "",
          "type": "bytes"
        }
      ],
      "stateMutability": "view",
      "type": "function"
    },
    {
      "inputs": [
        {
          "internalType": "address",
          "name": "from",
          "type": "address"
        },
        {
          "internalType": "uint256",
          "name": "value",
          "type": "uint256"
        }
      ],
      "name": "generatePaymentMessage",
      "outputs": [
        {
          "internalType": "bytes",
          "name": "",
          "type": "bytes"
        }
      ],
      "stateMutability": "view",
      "type": "function"
    },
    {
      "inputs": [
        {
          "internalType": "address",
          "name": "recipient",
          "type": "address"
        },
        {
          "internalType": "uint256",
          "name": "value",
          "type": "uint256"
        },
        {
          "internalType": "bytes32",
          "name": "secretHash",
          "type": "bytes32"
        },
        {
          "internalType": "uint8",
          "name": "v",
          "type": "uint8"
        },
        {
          "internalType": "bytes32",
          "name": "r",
          "type": "bytes32"
        },
        {
          "internalType": "bytes32",
          "name": "s",
          "type": "bytes32"
        }
      ],
      "name": "validateAcceptTokens",
      "outputs": [
        {
          "internalType": "bool",
          "name": "",
          "type": "bool"
        }
      ],
      "stateMutability": "view",
      "type": "function"
    },
    {
      "inputs": [
        {
          "internalType": "address",
          "name": "from",
          "type": "address"
        },
        {
          "internalType": "uint256",
          "name": "value",
          "type": "uint256"
        },
        {
          "internalType": "uint8",
          "name": "v",
          "type": "uint8"
        },
        {
          "internalType": "bytes32",
          "name": "r",
          "type": "bytes32"
        },
        {
          "internalType": "bytes32",
          "name": "s",
          "type": "bytes32"
        }
      ],
      "name": "validatePayment",
      "outputs": [
        {
          "internalType": "bool",
          "name": "",
          "type": "bool"
        }
      ],
      "stateMutability": "view",
      "type": "function"
    },
    {
      "inputs": [],
      "name": "ownedTokens",
      "outputs": [
        {
          "internalType": "uint256",
          "name": "",
          "type": "uint256"
        }
      ],
      "stateMutability": "view",
      "type": "function"
    }
  ],
  "bytecode": "0x608060405234801561001057600080fd5b5060405162004ee138038062004ee18339818101604052602081101561003557600080fd5b8101908080519060200190929190505050336000806101000a81548173ffffffffffffffffffffffffffffffffffffffff021916908373ffffffffffffffffffffffffffffffffffffffff16021790555080600960010160006101000a81548173ffffffffffffffffffffffffffffffffffffffff021916908373ffffffffffffffffffffffffffffffffffffffff160217905550604051806060016040528060f0815260200169021e19e0c9bab24000008152602001690a968163f0a57b40000081525060066000820151816000015560208201518160010155604082015181600201559050503073ffffffffffffffffffffffffffffffffffffffff16601060c0600143034060001c901b901c60f8600160ff16901b171760028190555050614d7b80620001666000396000f3fe6080604052600436106101e75760003560e01c80638d8f2adb11610102578063deaa59df11610095578063fbf79c9611610064578063fbf79c9614610bd1578063fd1f03db14610c61578063fd9a4e6114610cf3578063ffa1ad7414610d2e57610262565b8063deaa59df14610a33578063e12392d114610a84578063f2fde38b14610b55578063f514ce3614610ba657610262565b8063c0282006116100d1578063c02820061461088f578063c14d33681461092b578063d0ebdbe7146109a7578063dd49756e146109f857610262565b80638d8f2adb146107ad5780639b0debbd146107c45780639ee679e8146107ef578063ac8aa0c01461082a57610262565b80634e71e0c81161017a5780637e060b55116101495780637e060b55146106d35780637ecc2b561461070e578063860aefcf146107395780638901e9701461077257610262565b80634e71e0c81461050d5780636f18135f1461052457806373b9aa911461055f57806379d23853146105f557610262565b806319cba6b4116101b657806319cba6b4146103a857806322611280146103d357806340b2645d146103ea57806347b0af2e146104be57610262565b8063047fc9aa14610267578063158a4988146102a75780631615fd031461030257806318160ddd1461037d57610262565b36610262576000610260576040517f08c379a00000000000000000000000000000000000000000000000000000000081526004018080602001828103825260138152602001807f6e6f7420616363657074696e672065746865720000000000000000000000000081525060200191505060405180910390fd5b005b600080fd5b34801561027357600080fd5b5061027c610d5c565b6040518085815260200184815260200183815260200182815260200194505050505060405180910390f35b3480156102b357600080fd5b50610300600480360360408110156102ca57600080fd5b81019080803573ffffffffffffffffffffffffffffffffffffffff16906020019092919080359060200190929190505050610d8c565b005b34801561030e57600080fd5b506103176110b2565b604051808473ffffffffffffffffffffffffffffffffffffffff1681526020018373ffffffffffffffffffffffffffffffffffffffff1681526020018273ffffffffffffffffffffffffffffffffffffffff168152602001935050505060405180910390f35b34801561038957600080fd5b50610392611134565b6040518082815260200191505060405180910390f35b3480156103b457600080fd5b506103bd611141565b6040518082815260200191505060405180910390f35b3480156103df57600080fd5b506103e861120f565b005b3480156103f657600080fd5b506104436004803603604081101561040d57600080fd5b81019080803573ffffffffffffffffffffffffffffffffffffffff169060200190929190803590602001909291905050506112e4565b6040518080602001828103825283818151815260200191508051906020019080838360005b83811015610483578082015181840152602081019050610468565b50505050905090810190601f1680156104b05780820380516001836020036101000a031916815260200191505b509250505060405180910390f35b3480156104ca57600080fd5b506104f7600480360360208110156104e157600080fd5b8101908080359060200190929190505050611431565b6040518082815260200191505060405180910390f35b34801561051957600080fd5b506105226116a8565b005b34801561053057600080fd5b5061055d6004803603602081101561054757600080fd5b81019080803590602001909291905050506118ad565b005b34801561056b57600080fd5b506105ae6004803603602081101561058257600080fd5b81019080803573ffffffffffffffffffffffffffffffffffffffff1690602001909291905050506119bf565b604051808981526020018881526020018781526020018681526020018581526020018481526020018381526020018281526020019850505050505050505060405180910390f35b34801561060157600080fd5b506106586004803603606081101561061857600080fd5b81019080803573ffffffffffffffffffffffffffffffffffffffff1690602001909291908035906020019092919080359060200190929190505050611b1a565b6040518080602001828103825283818151815260200191508051906020019080838360005b8381101561069857808201518184015260208101905061067d565b50505050905090810190601f1680156106c55780820380516001836020036101000a031916815260200191505b509250505060405180910390f35b3480156106df57600080fd5b5061070c600480360360208110156106f657600080fd5b8101908080359060200190929190505050611cf7565b005b34801561071a57600080fd5b50610723611e81565b6040518082815260200191505060405180910390f35b34801561074557600080fd5b5061074e611e92565b60405180848152602001838152602001828152602001935050505060405180910390f35b34801561077e57600080fd5b506107ab6004803603602081101561079557600080fd5b8101908080359060200190929190505050611eb4565b005b3480156107b957600080fd5b506107c2611fc6565b005b3480156107d057600080fd5b506107d96121e9565b6040518082815260200191505060405180910390f35b3480156107fb57600080fd5b506108286004803603602081101561081257600080fd5b81019080803590602001909291905050506121ef565b005b34801561083657600080fd5b5061088d6004803603606081101561084d57600080fd5b81019080803573ffffffffffffffffffffffffffffffffffffffff16906020019092919080359060200190929190803590602001909291905050506123e6565b005b34801561089b57600080fd5b50610913600480360360c08110156108b257600080fd5b81019080803573ffffffffffffffffffffffffffffffffffffffff1690602001909291908035906020019092919080359060200190929190803560ff1690602001909291908035906020019092919080359060200190929190505050612669565b60405180821515815260200191505060405180910390f35b34801561093757600080fd5b506109a5600480360360a081101561094e57600080fd5b81019080803573ffffffffffffffffffffffffffffffffffffffff16906020019092919080359060200190929190803560ff169060200190929190803590602001909291908035906020019092919050505061272d565b005b3480156109b357600080fd5b506109f6600480360360208110156109ca57600080fd5b81019080803573ffffffffffffffffffffffffffffffffffffffff169060200190929190505050612991565b005b348015610a0457600080fd5b50610a3160048036036020811015610a1b57600080fd5b8101908080359060200190929190505050612c92565b005b348015610a3f57600080fd5b50610a8260048036036020811015610a5657600080fd5b81019080803573ffffffffffffffffffffffffffffffffffffffff169060200190929190505050612da9565b005b348015610a9057600080fd5b50610b53600480360360c0811015610aa757600080fd5b81019080803573ffffffffffffffffffffffffffffffffffffffff1690602001909291908035906020019092919080359060200190640100000000811115610aee57600080fd5b820183602082011115610b0057600080fd5b80359060200191846001830284011164010000000083111715610b2257600080fd5b9091929391929390803560ff16906020019092919080359060200190929190803590602001909291905050506130aa565b005b348015610b6157600080fd5b50610ba460048036036020811015610b7857600080fd5b81019080803573ffffffffffffffffffffffffffffffffffffffff16906020019092919050505061339d565b005b348015610bb257600080fd5b50610bbb6134a2565b6040518082815260200191505060405180910390f35b348015610bdd57600080fd5b50610c5f60048036036040811015610bf457600080fd5b810190808035906020019092919080359060200190640100000000811115610c1b57600080fd5b820183602082011115610c2d57600080fd5b80359060200191846001830284011164010000000083111715610c4f57600080fd5b90919293919293905050506134ac565b005b348015610c6d57600080fd5b50610cdb600480360360a0811015610c8457600080fd5b81019080803573ffffffffffffffffffffffffffffffffffffffff16906020019092919080359060200190929190803560ff16906020019092919080359060200190929190803590602001909291905050506135e1565b60405180821515815260200191505060405180910390f35b348015610cff57600080fd5b50610d2c60048036036020811015610d1657600080fd5b81019080803590602001909291905050506136a3565b005b348015610d3a57600080fd5b50610d43613986565b604051808260ff16815260200191505060405180910390f35b600080600080600360000154600360010154600360020154610d7e600361398b565b935093509350935090919293565b60008054906101000a900473ffffffffffffffffffffffffffffffffffffffff1673ffffffffffffffffffffffffffffffffffffffff163373ffffffffffffffffffffffffffffffffffffffff161480610e365750600960000160009054906101000a900473ffffffffffffffffffffffffffffffffffffffff1673ffffffffffffffffffffffffffffffffffffffff163373ffffffffffffffffffffffffffffffffffffffff16145b610ea8576040517f08c379a00000000000000000000000000000000000000000000000000000000081526004018080602001828103825260148152602001807f6e6f74206f776e6572206f72206d616e6167657200000000000000000000000081525060200191505060405180910390fd5b600660010154811115610f23576040517f08c379a000000000000000000000000000000000000000000000000000000000815260040180806020018281038252601a8152602001807f657865656473206d617820746f6b656e73207065722063616c6c00000000000081525060200191505060405180910390fd5b43600e60008473ffffffffffffffffffffffffffffffffffffffff1673ffffffffffffffffffffffffffffffffffffffff1681526020019081526020016000206002015410610fda576040517f08c379a00000000000000000000000000000000000000000000000000000000081526004018080602001828103825260088152602001807f746f6f20736f6f6e00000000000000000000000000000000000000000000000081525060200191505060405180910390fd5b610fe3816139c5565b6000600e60008473ffffffffffffffffffffffffffffffffffffffff1673ffffffffffffffffffffffffffffffffffffffff168152602001908152602001600020905043816002018190555061103881613a79565b61104c826003613aab90919063ffffffff16565b61105f8282613b6490919063ffffffff16565b8273ffffffffffffffffffffffffffffffffffffffff167f16b0da2ffcb90c6723317bd637d9aad7f04711f42bbe0ac0918ebe10f1f9001c836040518082815260200191505060405180910390a2505050565b6000806000600960000160009054906101000a900473ffffffffffffffffffffffffffffffffffffffff16600960010160009054906101000a900473ffffffffffffffffffffffffffffffffffffffff16600960020160009054906101000a900473ffffffffffffffffffffffffffffffffffffffff16925092509250909192565b6000600360000154905090565b6000600960010160009054906101000a900473ffffffffffffffffffffffffffffffffffffffff1673ffffffffffffffffffffffffffffffffffffffff166370a08231306040518263ffffffff1660e01b8152600401808273ffffffffffffffffffffffffffffffffffffffff16815260200191505060206040518083038186803b1580156111cf57600080fd5b505afa1580156111e3573d6000803e3d6000fd5b505050506040513d60208110156111f957600080fd5b8101908080519060200190929190505050905090565b6000600e60003373ffffffffffffffffffffffffffffffffffffffff1673ffffffffffffffffffffffffffffffffffffffff168152602001908152602001600020600401819055506000600e60003373ffffffffffffffffffffffffffffffffffffffff1673ffffffffffffffffffffffffffffffffffffffff168152602001908152602001600020600501819055503373ffffffffffffffffffffffffffffffffffffffff167f2c149134fe0030fa8b86362e124b3379a0d5bf7e1c0f487a35a06f89bbf60cee60405160405180910390a2565b60606000600e60008573ffffffffffffffffffffffffffffffffffffffff1673ffffffffffffffffffffffffffffffffffffffff168152602001908152602001600020905082816001015410156113a3576040517f08c379a00000000000000000000000000000000000000000000000000000000081526004018080602001828103825260178152602001807f6163636f756e742062616c6e61636520746f6f206c6f7700000000000000000081525060200191505060405180910390fd5b6002546340b2645d60e01b8585846000015460405160200180868152602001857bffffffffffffffffffffffffffffffffffffffffffffffffffffffff191681526004018473ffffffffffffffffffffffffffffffffffffffff1660601b81526014018381526020018281526020019550505050505060405160208183030381529060405291505092915050565b60008060009054906101000a900473ffffffffffffffffffffffffffffffffffffffff1673ffffffffffffffffffffffffffffffffffffffff163373ffffffffffffffffffffffffffffffffffffffff1614806114de5750600960000160009054906101000a900473ffffffffffffffffffffffffffffffffffffffff1673ffffffffffffffffffffffffffffffffffffffff163373ffffffffffffffffffffffffffffffffffffffff16145b611550576040517f08c379a00000000000000000000000000000000000000000000000000000000081526004018080602001828103825260148152602001807f6e6f74206f776e6572206f72206d616e6167657200000000000000000000000081525060200191505060405180910390fd5b600061155a611141565b90506003600001548110156115ba576040517f08c379a0000000000000000000000000000000000000000000000000000000008152600401808060200182810382526024815260200180614ca56024913960400191505060405180910390fd5b600360000154831015611618576040517f08c379a000000000000000000000000000000000000000000000000000000000815260040180806020018281038252602d815260200180614cef602d913960400191505060405180910390fd5b8083111561168e576040517f08c379a00000000000000000000000000000000000000000000000000000000081526004018080602001828103825260118152602001807f6e6f7420656e6f75676820746f6b656e7300000000000000000000000000000081525060200191505060405180910390fd5b6116a2836003613b8790919063ffffffff16565b50919050565b600160009054906101000a900473ffffffffffffffffffffffffffffffffffffffff1673ffffffffffffffffffffffffffffffffffffffff163373ffffffffffffffffffffffffffffffffffffffff161461176b576040517f08c379a00000000000000000000000000000000000000000000000000000000081526004018080602001828103825260118152602001807f6e6f742070656e64696e67206f776e657200000000000000000000000000000081525060200191505060405180910390fd5b600160009054906101000a900473ffffffffffffffffffffffffffffffffffffffff1673ffffffffffffffffffffffffffffffffffffffff1660008054906101000a900473ffffffffffffffffffffffffffffffffffffffff1673ffffffffffffffffffffffffffffffffffffffff167f8be0079c531659141344cd1fd0a4f28419497f9722a3daafe3b4186f6b6457e060405160405180910390a3600160009054906101000a900473ffffffffffffffffffffffffffffffffffffffff166000806101000a81548173ffffffffffffffffffffffffffffffffffffffff021916908373ffffffffffffffffffffffffffffffffffffffff1602179055506000600160006101000a81548173ffffffffffffffffffffffffffffffffffffffff021916908373ffffffffffffffffffffffffffffffffffffffff160217905550565b60008054906101000a900473ffffffffffffffffffffffffffffffffffffffff1673ffffffffffffffffffffffffffffffffffffffff163373ffffffffffffffffffffffffffffffffffffffff161461196e576040517f08c379a00000000000000000000000000000000000000000000000000000000081526004018080602001828103825260098152602001807f6e6f74206f776e6572000000000000000000000000000000000000000000000081525060200191505060405180910390fd5b7f758af69adf31afc1a2ac9fcde1d2922e17780ada2fd8d6de4799eae3806a908360066002015482604051808381526020018281526020019250505060405180910390a18060066002018190555050565b6000806000806000806000806000600e60008b73ffffffffffffffffffffffffffffffffffffffff1673ffffffffffffffffffffffffffffffffffffffff16815260200190815260200160002090506000600960010160009054906101000a900473ffffffffffffffffffffffffffffffffffffffff1673ffffffffffffffffffffffffffffffffffffffff166370a082318c6040518263ffffffff1660e01b8152600401808273ffffffffffffffffffffffffffffffffffffffff16815260200191505060206040518083038186803b158015611a9c57600080fd5b505afa158015611ab0573d6000803e3d6000fd5b505050506040513d6020811015611ac657600080fd5b81019080805190602001909291905050509050816000015482600101548360020154846003015485600401548660050154876006015487995099509950995099509950995099505050919395975091939597565b606081600e60008673ffffffffffffffffffffffffffffffffffffffff1673ffffffffffffffffffffffffffffffffffffffff1681526020019081526020016000206006015414611bd3576040517f08c379a00000000000000000000000000000000000000000000000000000000081526004018080602001828103825260118152602001807f77726f6e6720736563726574206861736800000000000000000000000000000081525060200191505060405180910390fd5b82600e60008673ffffffffffffffffffffffffffffffffffffffff1673ffffffffffffffffffffffffffffffffffffffff1681526020019081526020016000206003015414611c6d576040517f08c379a0000000000000000000000000000000000000000000000000000000008152600401808060200182810382526027815260200180614c7e6027913960400191505060405180910390fd5b6002546379d2385360e01b85858560405160200180868152602001857bffffffffffffffffffffffffffffffffffffffffffffffffffffffff191681526004018473ffffffffffffffffffffffffffffffffffffffff1660601b81526014018381526020018281526020019550505050505060405160208183030381529060405290509392505050565b60008054906101000a900473ffffffffffffffffffffffffffffffffffffffff1673ffffffffffffffffffffffffffffffffffffffff163373ffffffffffffffffffffffffffffffffffffffff1614611db8576040517f08c379a00000000000000000000000000000000000000000000000000000000081526004018080602001828103825260098152602001807f6e6f74206f776e6572000000000000000000000000000000000000000000000081525060200191505060405180910390fd5b612d00811115611e30576040517f08c379a00000000000000000000000000000000000000000000000000000000081526004018080602001828103825260188152602001807f657865656473206d61782072656c656173652064656c6179000000000000000081525060200191505060405180910390fd5b7f81cd61b51e623d89307765201ecc847d51270c2b74a6b175b44a1399c2a7392d60066000015482604051808381526020018281526020019250505060405180910390a18060066000018190555050565b6000611e8d600361398b565b905090565b6000806000600660000154600660010154600660020154925092509250909192565b60008054906101000a900473ffffffffffffffffffffffffffffffffffffffff1673ffffffffffffffffffffffffffffffffffffffff163373ffffffffffffffffffffffffffffffffffffffff1614611f75576040517f08c379a00000000000000000000000000000000000000000000000000000000081526004018080602001828103825260098152602001807f6e6f74206f776e6572000000000000000000000000000000000000000000000081525060200191505060405180910390fd5b7f633dd5b590b652b522d62bb416903314cddbfcfe911e0e7af21eafaff4546f1d60066001015482604051808381526020018281526020019250505060405180910390a18060066001018190555050565b6000600e60003373ffffffffffffffffffffffffffffffffffffffff1673ffffffffffffffffffffffffffffffffffffffff16815260200190815260200160002090506000816004015411612083576040517f08c379a00000000000000000000000000000000000000000000000000000000081526004018080602001828103825260138152602001807f6e6f20776974686472617720726571756573740000000000000000000000000081525060200191505060405180910390fd5b43816005015411156120fd576040517f08c379a00000000000000000000000000000000000000000000000000000000081526004018080602001828103825260088152602001807f746f6f20736f6f6e00000000000000000000000000000000000000000000000081525060200191505060405180910390fd5b6000816001015482600401541161211857816004015461211e565b81600101545b90506121338183613c2a90919063ffffffff16565b612147816003613c6190919063ffffffff16565b6121973382600960010160009054906101000a900473ffffffffffffffffffffffffffffffffffffffff1673ffffffffffffffffffffffffffffffffffffffff16613d399092919063ffffffff16565b3373ffffffffffffffffffffffffffffffffffffffff167f7fcf532c15f0a6db0bd6d0e038bea71d30d808c7d98cb3bf7268a95bf5081b65826040518082815260200191505060405180910390a25050565b612d0081565b80600e60003373ffffffffffffffffffffffffffffffffffffffff1673ffffffffffffffffffffffffffffffffffffffff1681526020019081526020016000206001015410156122a7576040517f08c379a00000000000000000000000000000000000000000000000000000000081526004018080602001828103825260118152602001807f6e6f7420656e6f75676820746f6b656e7300000000000000000000000000000081525060200191505060405180910390fd5b60008111612300576040517f08c379a0000000000000000000000000000000000000000000000000000000008152600401808060200182810382526026815260200180614cc96026913960400191505060405180910390fd5b80600e60003373ffffffffffffffffffffffffffffffffffffffff1673ffffffffffffffffffffffffffffffffffffffff168152602001908152602001600020600401819055506006600001544301600e60003373ffffffffffffffffffffffffffffffffffffffff1673ffffffffffffffffffffffffffffffffffffffff168152602001908152602001600020600501819055503373ffffffffffffffffffffffffffffffffffffffff167fe670e4e82118d22a1f9ee18920455ebc958bae26a90a05d31d3378788b1b0e44826040518082815260200191505060405180910390a250565b60008054906101000a900473ffffffffffffffffffffffffffffffffffffffff1673ffffffffffffffffffffffffffffffffffffffff163373ffffffffffffffffffffffffffffffffffffffff1614806124905750600960000160009054906101000a900473ffffffffffffffffffffffffffffffffffffffff1673ffffffffffffffffffffffffffffffffffffffff163373ffffffffffffffffffffffffffffffffffffffff16145b612502576040517f08c379a00000000000000000000000000000000000000000000000000000000081526004018080602001828103825260148152602001807f6e6f74206f776e6572206f72206d616e6167657200000000000000000000000081525060200191505060405180910390fd5b60066001015482111561257d576040517f08c379a000000000000000000000000000000000000000000000000000000000815260040180806020018281038252601a8152602001807f657865656473206d617820746f6b656e73207065722063616c6c00000000000081525060200191505060405180910390fd5b612586826139c5565b6000600e60008573ffffffffffffffffffffffffffffffffffffffff1673ffffffffffffffffffffffffffffffffffffffff16815260200190815260200160002090506000816003015490506125db82613a79565b82826006018190555083826003018190555043826002018190555061260c81856003613ddb9092919063ffffffff16565b8473ffffffffffffffffffffffffffffffffffffffff167f39d84c7c6d92b3f4343f76193f77afd39f4de57d13ac90024de77cb03dc2eacb8585604051808381526020018281526020019250505060405180910390a25050505050565b60008061268661267a898989611b1a565b80519060200120613ede565b9050600060018287878760405160008152602001604052604051808581526020018460ff1681526020018381526020018281526020019450505050506020604051602081039080840390855afa1580156126e4573d6000803e3d6000fd5b5050506020604051035190508873ffffffffffffffffffffffffffffffffffffffff168173ffffffffffffffffffffffffffffffffffffffff1614925050509695505050505050565b60008054906101000a900473ffffffffffffffffffffffffffffffffffffffff1673ffffffffffffffffffffffffffffffffffffffff163373ffffffffffffffffffffffffffffffffffffffff1614806127d75750600960000160009054906101000a900473ffffffffffffffffffffffffffffffffffffffff1673ffffffffffffffffffffffffffffffffffffffff163373ffffffffffffffffffffffffffffffffffffffff16145b612849576040517f08c379a00000000000000000000000000000000000000000000000000000000081526004018080602001828103825260148152602001807f6e6f74206f776e6572206f72206d616e6167657200000000000000000000000081525060200191505060405180910390fd5b61285685858585856135e1565b6128c8576040517f08c379a00000000000000000000000000000000000000000000000000000000081526004018080602001828103825260178152602001807f77726f6e67207369676e6174757265206f72206461746100000000000000000081525060200191505060405180910390fd5b6000600e60008773ffffffffffffffffffffffffffffffffffffffff1673ffffffffffffffffffffffffffffffffffffffff168152602001908152602001600020905061291481613ff5565b61292785826140b490919063ffffffff16565b61293b8560036140d790919063ffffffff16565b8573ffffffffffffffffffffffffffffffffffffffff167fd4f43975feb89f48dd30cabbb32011045be187d1e11c8ea9faa43efc35282519866040518082815260200191505060405180910390a2505050505050565b60008054906101000a900473ffffffffffffffffffffffffffffffffffffffff1673ffffffffffffffffffffffffffffffffffffffff163373ffffffffffffffffffffffffffffffffffffffff1614612a52576040517f08c379a00000000000000000000000000000000000000000000000000000000081526004018080602001828103825260098152602001807f6e6f74206f776e6572000000000000000000000000000000000000000000000081525060200191505060405180910390fd5b3073ffffffffffffffffffffffffffffffffffffffff168173ffffffffffffffffffffffffffffffffffffffff161415612af4576040517f08c379a00000000000000000000000000000000000000000000000000000000081526004018080602001828103825260178152602001807f706f6f6c2063616e6e6f74206265206d616e616e67657200000000000000000081525060200191505060405180910390fd5b600960010160009054906101000a900473ffffffffffffffffffffffffffffffffffffffff1673ffffffffffffffffffffffffffffffffffffffff168173ffffffffffffffffffffffffffffffffffffffff161415612bbb576040517f08c379a00000000000000000000000000000000000000000000000000000000081526004018080602001828103825260178152602001807f746f6b656e2063616e6e6f74206265206d616e6167657200000000000000000081525060200191505060405180910390fd5b7f605c2dbf762e5f7d60a546d42e7205dcb1b011ebc62a61736a57c9089d3a4350600960000160009054906101000a900473ffffffffffffffffffffffffffffffffffffffff1682604051808373ffffffffffffffffffffffffffffffffffffffff1681526020018273ffffffffffffffffffffffffffffffffffffffff1681526020019250505060405180910390a180600960000160006101000a81548173ffffffffffffffffffffffffffffffffffffffff021916908373ffffffffffffffffffffffffffffffffffffffff16021790555050565b6000600e60003373ffffffffffffffffffffffffffffffffffffffff1673ffffffffffffffffffffffffffffffffffffffff1681526020019081526020016000209050612cde81613a79565b612cf182826140fa90919063ffffffff16565b612d0582600361411d90919063ffffffff16565b612d57333084600960010160009054906101000a900473ffffffffffffffffffffffffffffffffffffffff1673ffffffffffffffffffffffffffffffffffffffff1661415f909392919063ffffffff16565b3373ffffffffffffffffffffffffffffffffffffffff167fe1fffcc4923d04b559f4d29a8bfc6cda04eb5b0d3c460751c2402c5c5cc9109c836040518082815260200191505060405180910390a25050565b60008054906101000a900473ffffffffffffffffffffffffffffffffffffffff1673ffffffffffffffffffffffffffffffffffffffff163373ffffffffffffffffffffffffffffffffffffffff1614612e6a576040517f08c379a00000000000000000000000000000000000000000000000000000000081526004018080602001828103825260098152602001807f6e6f74206f776e6572000000000000000000000000000000000000000000000081525060200191505060405180910390fd5b3073ffffffffffffffffffffffffffffffffffffffff168173ffffffffffffffffffffffffffffffffffffffff161415612f0c576040517f08c379a00000000000000000000000000000000000000000000000000000000081526004018080602001828103825260158152602001807f706f6f6c2063616e6e6f742062652077616c6c6574000000000000000000000081525060200191505060405180910390fd5b600960010160009054906101000a900473ffffffffffffffffffffffffffffffffffffffff1673ffffffffffffffffffffffffffffffffffffffff168173ffffffffffffffffffffffffffffffffffffffff161415612fd3576040517f08c379a00000000000000000000000000000000000000000000000000000000081526004018080602001828103825260158152602001807f746f6b656e2063616e6e6f742062652077616c6c74000000000000000000000081525060200191505060405180910390fd5b7f64cbbd34f3faebfd04eff088ae5832f6d254dbb81820b0055e9d85c534aa700d600960020160009054906101000a900473ffffffffffffffffffffffffffffffffffffffff1682604051808373ffffffffffffffffffffffffffffffffffffffff1681526020018273ffffffffffffffffffffffffffffffffffffffff1681526020019250505060405180910390a180600960020160006101000a81548173ffffffffffffffffffffffffffffffffffffffff021916908373ffffffffffffffffffffffffffffffffffffffff16021790555050565b60008054906101000a900473ffffffffffffffffffffffffffffffffffffffff1673ffffffffffffffffffffffffffffffffffffffff163373ffffffffffffffffffffffffffffffffffffffff1614806131545750600960000160009054906101000a900473ffffffffffffffffffffffffffffffffffffffff1673ffffffffffffffffffffffffffffffffffffffff163373ffffffffffffffffffffffffffffffffffffffff16145b6131c6576040517f08c379a00000000000000000000000000000000000000000000000000000000081526004018080602001828103825260148152602001807f6e6f74206f776e6572206f72206d616e6167657200000000000000000000000081525060200191505060405180910390fd5b84846040518083838082843780830192505050925050506040518091039020600e60008973ffffffffffffffffffffffffffffffffffffffff1673ffffffffffffffffffffffffffffffffffffffff168152602001908152602001600020600601541461329b576040517f08c379a000000000000000000000000000000000000000000000000000000000815260040180806020018281038252600c8152602001807f77726f6e6720736563726574000000000000000000000000000000000000000081525060200191505060405180910390fd5b6132c7878787876040518083838082843780830192505050925050506040518091039020868686612669565b613339576040517f08c379a00000000000000000000000000000000000000000000000000000000081526004018080602001828103825260178152602001807f77726f6e67207369676e6174757265206f72206461746100000000000000000081525060200191505060405180910390fd5b6133438787614220565b8673ffffffffffffffffffffffffffffffffffffffff167f87715bcb29dbe27420aab6499f3227b2d0c070e9332c9ea0d7da26a547e48e1d600060405180821515815260200191505060405180910390a250505050505050565b60008054906101000a900473ffffffffffffffffffffffffffffffffffffffff1673ffffffffffffffffffffffffffffffffffffffff163373ffffffffffffffffffffffffffffffffffffffff161461345e576040517f08c379a00000000000000000000000000000000000000000000000000000000081526004018080602001828103825260098152602001807f6e6f74206f776e6572000000000000000000000000000000000000000000000081525060200191505060405180910390fd5b80600160006101000a81548173ffffffffffffffffffffffffffffffffffffffff021916908373ffffffffffffffffffffffffffffffffffffffff16021790555050565b6000600254905090565b81816040518083838082843780830192505050925050506040518091039020600e60003373ffffffffffffffffffffffffffffffffffffffff1673ffffffffffffffffffffffffffffffffffffffff1681526020019081526020016000206006015414613581576040517f08c379a000000000000000000000000000000000000000000000000000000000815260040180806020018281038252600c8152602001807f77726f6e6720736563726574000000000000000000000000000000000000000081525060200191505060405180910390fd5b61358b3384614220565b3373ffffffffffffffffffffffffffffffffffffffff167f87715bcb29dbe27420aab6499f3227b2d0c070e9332c9ea0d7da26a547e48e1d600160405180821515815260200191505060405180910390a2505050565b6000806135fd6135f188886112e4565b80519060200120613ede565b9050600060018287878760405160008152602001604052604051808581526020018460ff1681526020018381526020018281526020019450505050506020604051602081039080840390855afa15801561365b573d6000803e3d6000fd5b5050506020604051035190508773ffffffffffffffffffffffffffffffffffffffff168173ffffffffffffffffffffffffffffffffffffffff16149250505095945050505050565b60008054906101000a900473ffffffffffffffffffffffffffffffffffffffff1673ffffffffffffffffffffffffffffffffffffffff163373ffffffffffffffffffffffffffffffffffffffff16148061374d5750600960000160009054906101000a900473ffffffffffffffffffffffffffffffffffffffff1673ffffffffffffffffffffffffffffffffffffffff163373ffffffffffffffffffffffffffffffffffffffff16145b6137bf576040517f08c379a00000000000000000000000000000000000000000000000000000000081526004018080602001828103825260148152602001807f6e6f74206f776e6572206f72206d616e6167657200000000000000000000000081525060200191505060405180910390fd5b600073ffffffffffffffffffffffffffffffffffffffff16600960020160009054906101000a900473ffffffffffffffffffffffffffffffffffffffff1673ffffffffffffffffffffffffffffffffffffffff161415613887576040517f08c379a00000000000000000000000000000000000000000000000000000000081526004018080602001828103825260148152602001807f746f6b656e2077616c6c6574206e6f742073657400000000000000000000000081525060200191505060405180910390fd5b61389b81600361434090919063ffffffff16565b613910600960020160009054906101000a900473ffffffffffffffffffffffffffffffffffffffff1682600960010160009054906101000a900473ffffffffffffffffffffffffffffffffffffffff1673ffffffffffffffffffffffffffffffffffffffff16613d399092919063ffffffff16565b600960020160009054906101000a900473ffffffffffffffffffffffffffffffffffffffff1673ffffffffffffffffffffffffffffffffffffffff167fa267b5cf59cf96d97abf36d29c63cf7bdef867c208ca8575c47f2cafda39abc9826040518082815260200191505060405180910390a250565b600181565b60006139be6139ab8360020154846001015461443090919063ffffffff16565b83600001546144b890919063ffffffff16565b9050919050565b43600c5410156139e25743600c8190555080600d819055506139f9565b6139f781600d5461443090919063ffffffff16565b505b600660020154600d541115613a76576040517f08c379a000000000000000000000000000000000000000000000000000000000815260040180806020018281038252601b8152602001807f657865656473206d617820746f6b656e732070657220626c6f636b000000000081525060200191505060405180910390fd5b50565b600081600001541415613aa8574260206050600143034060001c901b901c60f06001901b171781600001819055505b50565b81613ac382846001015461443090919063ffffffff16565b8360010181905550613ae68160020154826001015461443090919063ffffffff16565b81600001541015613b5f576040517f08c379a000000000000000000000000000000000000000000000000000000000815260040180806020018281038252601b8152602001807f6e6f7420656e6f75676820617661696c61626c6520746f6b656e73000000000081525060200191505060405180910390fd5b505050565b613b7b81836001015461443090919063ffffffff16565b82600101819055505050565b81818360000181905550613bac8160020154826001015461443090919063ffffffff16565b81600001541015613c25576040517f08c379a000000000000000000000000000000000000000000000000000000000815260040180806020018281038252601b8152602001807f6e6f7420656e6f75676820617661696c61626c6520746f6b656e73000000000081525060200191505060405180910390fd5b505050565b6000826004018190555060008260050181905550613c558183600101546144b890919063ffffffff16565b82600101819055505050565b81613c798284600101546144b890919063ffffffff16565b8360010181905550613c988284600001546144b890919063ffffffff16565b8360000181905550613cbb8160020154826001015461443090919063ffffffff16565b81600001541015613d34576040517f08c379a000000000000000000000000000000000000000000000000000000000815260040180806020018281038252601b8152602001807f6e6f7420656e6f75676820617661696c61626c6520746f6b656e73000000000081525060200191505060405180910390fd5b505050565b613dd68363a9059cbb60e01b8484604051602401808373ffffffffffffffffffffffffffffffffffffffff16815260200182815260200192505050604051602081830303815290604052907bffffffffffffffffffffffffffffffffffffffffffffffffffffffff19166020820180517bffffffffffffffffffffffffffffffffffffffffffffffffffffffff8381831617835250505050614502565b505050565b82613e3c836040518060400160405280601b81526020017f6e6f7420656e6f75676820617661696c61626c6520746f6b656e730000000000815250613e2d85886002015461443090919063ffffffff16565b6145f19092919063ffffffff16565b8460020181905550613e5f8160020154826001015461443090919063ffffffff16565b81600001541015613ed8576040517f08c379a000000000000000000000000000000000000000000000000000000000815260040180806020018281038252601b8152602001807f6e6f7420656e6f75676820617661696c61626c6520746f6b656e73000000000081525060200191505060405180910390fd5b50505050565b60006060613eeb836146b1565b905060606040518060400160405280601c81526020017f19457468657265756d205369676e6564204d6573736167653a0a363400000000815250905080826040516020018083805190602001908083835b60208310613f5f5780518252602082019150602081019050602083039250613f3c565b6001836020036101000a03801982511681845116808217855250505050505090500182805190602001908083835b60208310613fb05780518252602082019150602081019050602083039250613f8d565b6001836020036101000a038019825116818451168082178552505050505050905001925050506040516020818303038152906040528051906020012092505050919050565b600060f08260000154901c905060004260206050600143034060001c901b901c60f084600101945084901b171790508061ffff16836000015461ffff1614156140a6576040517f08c379a00000000000000000000000000000000000000000000000000000000081526004018080602001828103825260088152602001807f746f6f20736f6f6e00000000000000000000000000000000000000000000000081525060200191505060405180910390fd5b808360000181905550505050565b6140cb8183600101546144b890919063ffffffff16565b82600101819055505050565b6140ee8183600101546144b890919063ffffffff16565b82600101819055505050565b61411181836001015461443090919063ffffffff16565b82600101819055505050565b61413481836001015461443090919063ffffffff16565b826001018190555061415381836000015461443090919063ffffffff16565b82600001819055505050565b61421a846323b872dd60e01b858585604051602401808473ffffffffffffffffffffffffffffffffffffffff1681526020018373ffffffffffffffffffffffffffffffffffffffff1681526020018281526020019350505050604051602081830303815290604052907bffffffffffffffffffffffffffffffffffffffffffffffffffffffff19166020820180517bffffffffffffffffffffffffffffffffffffffffffffffffffffffff8381831617835250505050614502565b50505050565b43600e60008473ffffffffffffffffffffffffffffffffffffffff1673ffffffffffffffffffffffffffffffffffffffff16815260200190815260200160002060020154106142d7576040517f08c379a00000000000000000000000000000000000000000000000000000000081526004018080602001828103825260088152602001807f746f6f20736f6f6e00000000000000000000000000000000000000000000000081525060200191505060405180910390fd5b61432881600e60008573ffffffffffffffffffffffffffffffffffffffff1673ffffffffffffffffffffffffffffffffffffffff1681526020019081526020016000206147f890919063ffffffff16565b61433c81600361492690919063ffffffff16565b5050565b8161438f826040518060400160405280601781526020017f76616c7565206c6172676572207468616e20746f74616c00000000000000000081525085600001546145f19092919063ffffffff16565b83600001819055506143b28160020154826001015461443090919063ffffffff16565b8160000154101561442b576040517f08c379a000000000000000000000000000000000000000000000000000000000815260040180806020018281038252601b8152602001807f6e6f7420656e6f75676820617661696c61626c6520746f6b656e73000000000081525060200191505060405180910390fd5b505050565b6000808284019050838110156144ae576040517f08c379a000000000000000000000000000000000000000000000000000000000815260040180806020018281038252601b8152602001807f536166654d6174683a206164646974696f6e206f766572666c6f77000000000081525060200191505060405180910390fd5b8091505092915050565b60006144fa83836040518060400160405280601e81526020017f536166654d6174683a207375627472616374696f6e206f766572666c6f7700008152506145f1565b905092915050565b6060614564826040518060400160405280602081526020017f5361666545524332303a206c6f772d6c6576656c2063616c6c206661696c65648152508573ffffffffffffffffffffffffffffffffffffffff1661499f9092919063ffffffff16565b90506000815111156145ec5780806020019051602081101561458557600080fd5b81019080805190602001909291905050506145eb576040517f08c379a000000000000000000000000000000000000000000000000000000000815260040180806020018281038252602a815260200180614d1c602a913960400191505060405180910390fd5b5b505050565b600083831115829061469e576040517f08c379a00000000000000000000000000000000000000000000000000000000081526004018080602001828103825283818151815260200191508051906020019080838360005b83811015614663578082015181840152602081019050614648565b50505050905090810190601f1680156146905780820380516001836020036101000a031916815260200191505b509250505060405180910390fd5b5060008385039050809150509392505050565b606080604067ffffffffffffffff811180156146cc57600080fd5b506040519080825280601f01601f1916602001820160405280156146ff5781602001600182028036833780820191505090505b50905060005b60208110156147ee57600084826020811061471c57fe5b1a60f81b9050600060108260f81c60ff168161473457fe5b0460f81b905060008160f81c6010028360f81c0360f81b9050614756826149b7565b85856002028151811061476557fe5b60200101907effffffffffffffffffffffffffffffffffffffffffffffffffffffffffffff1916908160001a90535061479d816149b7565b8560018660020201815181106147af57fe5b60200101907effffffffffffffffffffffffffffffffffffffffffffffffffffffffffffff1916908160001a9053505050508080600101915050614705565b5080915050919050565b60008260030154905060008111614877576040517f08c379a00000000000000000000000000000000000000000000000000000000081526004018080602001828103825260118152602001807f6e6f2070656e64696e6720746f6b656e7300000000000000000000000000000081525060200191505060405180910390fd5b8181146148ec576040517f08c379a000000000000000000000000000000000000000000000000000000000815260040180806020018281038252601e8152602001807f76616c7565206d75737420657175616c2069737375656420746f6b656e73000081525060200191505060405180910390fd5b6000801b83600601819055506000836003018190555061491981846001015461443090919063ffffffff16565b8360010181905550505050565b614974816040518060400160405280601281526020017f6e6f7420656e6f7567682070656e64696e67000000000000000000000000000081525084600201546145f19092919063ffffffff16565b826002018190555061499381836001015461443090919063ffffffff16565b82600101819055505050565b60606149ae8484600085614a2c565b90509392505050565b6000600a60f81b7effffffffffffffffffffffffffffffffffffffffffffffffffffffffffffff1916827effffffffffffffffffffffffffffffffffffffffffffffffffffffffffffff19161015614a1a5760308260f81c0160f81b9050614a27565b60578260f81c0160f81b90505b919050565b6060614a3785614c32565b614aa9576040517f08c379a000000000000000000000000000000000000000000000000000000000815260040180806020018281038252601d8152602001807f416464726573733a2063616c6c20746f206e6f6e2d636f6e747261637400000081525060200191505060405180910390fd5b600060608673ffffffffffffffffffffffffffffffffffffffff1685876040518082805190602001908083835b60208310614af95780518252602082019150602081019050602083039250614ad6565b6001836020036101000a03801982511681845116808217855250505050505090500191505060006040518083038185875af1925050503d8060008114614b5b576040519150601f19603f3d011682016040523d82523d6000602084013e614b60565b606091505b50915091508115614b75578092505050614c2a565b600081511115614b885780518082602001fd5b836040517f08c379a00000000000000000000000000000000000000000000000000000000081526004018080602001828103825283818151815260200191508051906020019080838360005b83811015614bef578082015181840152602081019050614bd4565b50505050905090810190601f168015614c1c5780820380516001836020036101000a031916815260200191505b509250505060405180910390fd5b949350505050565b60008060007fc5d2460186f7233c927e7db2dcc703c0e500b653ca82273b7bfad8045d85a47060001b9050833f9150808214158015614c7457506000801b8214155b9250505091905056fe76616c7565206d75737420657175616c2070656e64696e672869737375656420746f6b656e7329696e7465726e616c206572726f722c20636865636b20636f6e7472616374206c6f6769637769746864726177616c2076616c7565206d757374206265206c6172676572207468656e20306f6e6c79207472616e73666572546f6b656e732063616e20646563726561736520746f74616c20737570706c795361666545524332303a204552433230206f7065726174696f6e20646964206e6f742073756363656564a26469706673582212200fd209350ac6cb66a987cd76b4c8b9a44734b7438080aa360a538defe2a006c664736f6c634300060c0033",
  "source": "// SPDX-License-Identifier: MIT\npragma solidity 0.6.12;\n\nimport \"../node_modules/@openzeppelin/contracts/math/SafeMath.sol\";\nimport \"../node_modules/@openzeppelin/contracts/token/ERC20/SafeERC20.sol\";\nimport \"./Claimable.sol\";\n\nstruct Account {\n    uint256 nonce;  \n    uint256 balance;\n    uint256 issueBlock;\n    uint256 pending;\n    uint256 withdrawal;\n    uint256 releaseBlock;\n    bytes32 secretHash;\n}\n\nlibrary AccountUtils {\n    using SafeMath for uint256;\n\n    function initNonce(Account storage self) internal {\n        if (self.nonce == 0) {\n            self.nonce =\n                uint256(1) << 240 |\n                uint256(blockhash(block.number-1)) << 80 >> 32 |\n                block.timestamp;\n        }\n    }\n\n    function updateNonce(Account storage self) internal {\n        uint256 count = self.nonce >> 240;\n        uint256 nonce = \n            ++count << 240 |\n            uint256(blockhash(block.number-1)) << 80 >> 32 |\n            block.timestamp;\n        require(uint16(self.nonce) != uint16(nonce), \"too soon\");\n        self.nonce = nonce;\n    }\n    \n    function acceptPending(Account storage self, uint256 value) internal {\n        uint256 pending = self.pending;\n        require(pending > 0, \"no pending tokens\");\n        require(pending == value, \"value must equal issued tokens\");\n        self.secretHash = 0;\n        self.pending = 0;\n        self.balance = self.balance.add(pending);\n    }\n\n    function take(Account storage self, uint256 value) internal {\n        self.balance = self.balance.add(value);\n    }\n\n    function payment(Account storage self, uint256 value) internal {\n        self.balance = self.balance.sub(value);\n    }\n\n    function deposit(Account storage self, uint256 value) internal {\n        self.balance = self.balance.add(value);\n    }\n\n    function withdraw(Account storage self, uint256 value) internal {\n        self.withdrawal = 0;\n        self.releaseBlock = 0;\n        self.balance = self.balance.sub(value);\n    }\n}\n\nstruct Supply {\n    uint256 total;\n    uint256 minimum;\n    uint256 pending;\n}\n\nlibrary SupplyUtils {\n    using SafeMath for uint256;\n\n    // event MinimumReached(uint256 before, uint256 delta);\n\n    modifier checkAvailability(Supply storage self) {\n        _;\n        require(self.total >= self.minimum.add(self.pending), \"not enough available tokens\");\n    }\n\n    // modifier safeReduceMinimum(Supply storage self, uint256 value) {\n    //     self.minimum > value ? self.minimum -= value : self.minimum = 0; \n    //     if (self.minimum == 0) {\n    //       emit MinimumReached(self.minimum, value);\n    //     }\n    //     _;\n    // }\n\n    function updatePending(Supply storage self, uint256 from, uint256 to) internal checkAvailability(self) { \n        self.pending = self.pending.add(to).sub(from, \"not enough available tokens\");       \n    }\n\n    function acceptPending(Supply storage self, uint256 value) internal {\n        self.pending = self.pending.sub(value, \"not enough pending\");\n        self.minimum = self.minimum.add(value);\n    }\n\n    function give(Supply storage self, uint256 value) internal checkAvailability(self) {\n        self.minimum = self.minimum.add(value);\n    }\n\n    function payment(Supply storage self, uint256 value) internal /*safeReduceMinimum(self, value)*/ {\n        self.minimum = self.minimum.sub(value); // this line should be remove if using safeReduceMinimum modifier\n    }\n\n    function deposit(Supply storage self, uint256 value) internal {\n        self.minimum = self.minimum.add(value);\n        self.total = self.total.add(value);\n    }\n\n    function widthdraw(Supply storage self, uint256 value) internal /*safeReduceMinimum(self, value)*/ checkAvailability(self) {\n        self.minimum = self.minimum.sub(value); // this line should be remove if using safeReduceMinimum modifier\n        self.total = self.total.sub(value);\n    }\n\n    function decrease(Supply storage self, uint256 value) internal checkAvailability(self) {\n        self.total = self.total.sub(value, \"value larger than total\");\n    }\n\n    function update(Supply storage self, uint256 value) internal checkAvailability(self) {\n        self.total = value;\n    }\n\n    function available(Supply storage self) internal view returns (uint256) {\n        return self.total.sub(self.minimum.add(self.pending));\n    }\n}\n\nstruct Limits {\n    uint256 releaseDelay;\n    uint256 maxTokensPerIssue;\n    uint256 maxTokensPerBlock;\n}\n\nstruct Entities {\n    address manager;\n    address token;\n    address wallet;\n}\n\n/*\n\n    Owner\n    setManager(address manager) public onlyOwner()\n    setReleaseDelay(uint256 blocks) public onlyOwner()\n    setMaxTokensPerIssue(uint256 tokens) public onlyOwner()\n    resyncTotalSupply() public onlyAdmins() returns (uint256)\n    setTokenWallet(address tokenWallet) public onlyOwner()\n    setEtherWallet(address payable etherWallet) public onlyOwner()\n    \n    Admins\n    issueTokens(address to, uint256 value, bytes32 secretHash) public onlyAdmins()    \n    executeAcceptTokens(address recipient, uint256 value, bytes calldata c_secret, uint8 v, bytes32 r, bytes32 s) public onlyAdmins()\n    executePayment(address from, uint256 value, uint8 v, bytes32 r, bytes32 s) public onlyAdmins()\n    transferTokens(uint256 value) public onlyAdmins()\n    \n    External\n    acceptTokens(uint256 value) public\n    depositTokens(uint256 value) public\n    requestWithdrawal(uint256 value) public\n    cancelWithdrawal() public\n    withdrawTokens() public\n    account(address addr) public view\n    supply() view external returns (uint256 total, uint256 minimum, uint256 pending) {\n    limits()\n    entities()\n    availableSupply() view public returns (uint256)\n    totalSupply() view public returns (uint256)\n    \n    Public\n    generateAcceptTokensMessage(address recipient, uint256 value, bytes32 secretHash) public view\n    generatePaymentMessage(address from, uint256 value) public view\n    validateAcceptTokens(address recipient, uint256 value, bytes32 secretHash, uint8 v, bytes32 r, bytes32 s) public view \n    validatePayment(address from, uint256 value, uint8 v, bytes32 r, bytes32 s) public view\n    \n    Private\n    _acceptTokens(address recipient, uint256 value) internal\n    _messageToRecover(bytes32 hashedUnsignedMessage) private pure\n    _hashToAscii(bytes32 hash) private pure returns (bytes memory)\n    _char(byte b) private pure returns (byte c)\n    \n*/\n\ncontract Pool is Claimable {\n    using AccountUtils for Account;\n    using SupplyUtils for Supply;\n    using SafeERC20 for IERC20;\n    using SafeMath for uint256;\n\n    uint256 private s_uid;\n    Supply private s_supply;\n    Limits private s_limits;\n    Entities private s_entities;\n    uint256 private s_lastIssuedBlock;\n    uint256 private s_totalIssuedInBlock;\n\n    mapping(address => Account) private s_accounts;\n\n    uint8 public constant VERSION = 0x1;\n    uint256 public constant MAX_RELEASE_DELAY = 11_520; // about 48h\n    \n    event TokensIssued(address indexed account, uint256 value, bytes32 secretHash);\n    event TokensAccepted(address indexed account, bool directCall);\n    event TokensDistributed(address indexed account, uint256 value);\n    event Payment(address indexed account, uint256 value);\n    event Deposit(address indexed account, uint256 value);\n    event WithdrawalRequested(address indexed account, uint256 value);\n    event WithdrawalCanceled(address indexed account);\n    event Withdrawal(address indexed account, uint256 value);\n    event EtherTransfered(address indexed to, uint256 value);\n    event TokensTransfered(address indexed to, uint256 value);\n    event ManagerChanged(address from, address to);\n    event WalletChanged(address from, address to);\n    event ReleaseDelayChanged(uint256 from, uint256 to);\n    event MaxTokensPerIssueChanged(uint256 from, uint256 to);\n    event MaxTokensPerBlockChanged(uint256 from, uint256 to);\n\n    modifier onlyAdmins() {\n        require(msg.sender == s_owner || msg.sender == s_entities.manager, \"not owner or manager\");\n        _;\n    }\n\n    constructor(address tokenContract) public {\n        s_entities.token = tokenContract;\n        s_limits = Limits({releaseDelay: 240, maxTokensPerIssue: 10*1000*(10**18), maxTokensPerBlock: 50*1000*(10**18)});\n        s_uid = (\n          uint256(VERSION) << 248 |\n          uint256(blockhash(block.number-1)) << 192 >> 16 |\n          uint256(address(this))\n        );\n    }\n\n    receive () external payable {\n        require(false, \"not accepting ether\");\n    }\n\n\n    // ----------- Owner Functions ------------\n\n\n    function setManager(address manager) external onlyOwner() {\n        require(manager != address(this), \"pool cannot be mananger\");\n        require(manager != s_entities.token, \"token cannot be manager\");\n        emit ManagerChanged(s_entities.manager, manager);\n        s_entities.manager = manager;\n    }\n\n    function setWallet(address wallet) external onlyOwner() {\n        require(wallet != address(this), \"pool cannot be wallet\");\n        require(wallet != s_entities.token, \"token cannot be wallt\");\n        emit WalletChanged(s_entities.wallet, wallet);\n        s_entities.wallet = wallet;\n    }\n\n    function setReleaseDelay(uint256 blocks) external onlyOwner() {\n        require(blocks <= MAX_RELEASE_DELAY, \"exeeds max release delay\");\n        emit ReleaseDelayChanged(s_limits.releaseDelay, blocks);\n        s_limits.releaseDelay = blocks;\n    }\n\n    function setMaxTokensPerIssue(uint256 tokens) external onlyOwner() {\n        emit MaxTokensPerIssueChanged(s_limits.maxTokensPerIssue, tokens);\n        s_limits.maxTokensPerIssue = tokens;\n    }\n\n    function setMaxTokensPerBlock(uint256 tokens) external onlyOwner() {\n        emit MaxTokensPerBlockChanged(s_limits.maxTokensPerBlock, tokens);\n        s_limits.maxTokensPerBlock = tokens;\n    }\n\n    function resyncTotalSupply(uint256 value) external onlyAdmins() returns (uint256) {\n        uint256 tokens = ownedTokens();\n        require(tokens >= s_supply.total, \"internal error, check contract logic\"); \n        require(value >= s_supply.total, \"only transferTokens can decrease total supply\");\n        require(value <= tokens, \"not enough tokens\");\n        s_supply.update(value);\n    }\n\n\n    // ----------- Admins Functions ------------\n\n\n    function transferTokens(uint256 value) external onlyAdmins() {\n        require(s_entities.wallet != address(0), \"token wallet not set\");\n        s_supply.decrease(value);\n        IERC20(s_entities.token).safeTransfer(s_entities.wallet, value);\n        emit TokensTransfered(s_entities.wallet, value);\n    }\n\n    function distributeTokens(address to, uint256 value) external onlyAdmins() {\n        require(value <= s_limits.maxTokensPerIssue, \"exeeds max tokens per call\");\n        require(s_accounts[to].issueBlock < block.number, \"too soon\");\n        _validateTokensPerBlock(value);\n        Account storage sp_account = s_accounts[to];\n        sp_account.issueBlock = block.number;\n        sp_account.initNonce();\n        s_supply.give(value);\n        sp_account.take(value);\n        emit TokensDistributed(to, value);\n    }\n\n    /**\n     * @dev Issueing tokens for an address to be used for payments.\n     * The owner of the receiving address must accept via a signed message or a direct call.\n     * @param to The tokens recipient. \n     * @param value The number of tokens to issue.\n     * @param secretHash The keccak256 of the confirmation secret.\n    */\n    function issueTokens(address to, uint256 value, bytes32 secretHash) external onlyAdmins() {\n        require(value <= s_limits.maxTokensPerIssue, \"exeeds max tokens per call\");\n        _validateTokensPerBlock(value);\n        Account storage sp_account = s_accounts[to];\n        uint256 prevPending = sp_account.pending;\n        sp_account.initNonce();\n        sp_account.secretHash = secretHash;\n        sp_account.pending = value;\n        sp_account.issueBlock = block.number;\n        s_supply.updatePending(prevPending, value);\n        emit TokensIssued(to, value, secretHash);\n    }\n\n    function executeAcceptTokens(\n        address recipient,\n        uint256 value,\n        bytes calldata c_secret,\n        uint8 v,\n        bytes32 r,\n        bytes32 s\n    )\n        external \n        onlyAdmins()\n    {\n        require(s_accounts[recipient].secretHash == keccak256(c_secret), \"wrong secret\");\n        require(\n            validateAcceptTokens(recipient, value, keccak256(c_secret), v, r ,s),\n            \"wrong signature or data\"\n        );\n        _acceptTokens(recipient, value);\n        emit TokensAccepted(recipient, false);\n    }\n\n    function executePayment(address from, uint256 value, uint8 v, bytes32 r, bytes32 s)\n        external\n        onlyAdmins()\n    {\n        require(validatePayment(from, value, v, r, s), \"wrong signature or data\");\n        Account storage sp_account = s_accounts[from];\n        sp_account.updateNonce();\n        sp_account.payment(value);\n        s_supply.payment(value);\n        emit Payment(from, value);\n    }\n  \n\n    // ----------- External Functions ------------\n\n\n    function acceptTokens(uint256 value, bytes calldata c_secret) external {\n        require(s_accounts[msg.sender].secretHash == keccak256(c_secret), \"wrong secret\");\n        _acceptTokens(msg.sender, value);\n        emit TokensAccepted(msg.sender, true);\n    }\n\n    function depositTokens(uint256 value) external {\n        // require(\n        //     IERC20(s_entities.token).allowance(msg.sender, address(this)) >= value,\n        //    \"IERC20 allowance too low\"\n        // );\n        Account storage sp_account = s_accounts[msg.sender]; \n        sp_account.initNonce();\n        sp_account.deposit(value);\n        s_supply.deposit(value);\n        IERC20(s_entities.token).safeTransferFrom(msg.sender, address(this), value);\n        emit Deposit(msg.sender, value);\n    }\n\n    function requestWithdrawal(uint256 value) external {\n        require(s_accounts[msg.sender].balance >= value, \"not enough tokens\");\n        require(value > 0, \"withdrawal value must be larger then 0\");\n        s_accounts[msg.sender].withdrawal = value;\n        s_accounts[msg.sender].releaseBlock = block.number + s_limits.releaseDelay;\n        emit WithdrawalRequested(msg.sender, value);\n    }\n\n    function cancelWithdrawal() external {\n        s_accounts[msg.sender].withdrawal = 0;\n        s_accounts[msg.sender].releaseBlock = 0;\n        emit WithdrawalCanceled(msg.sender);\n    }\n\n    function withdrawTokens() external {\n        Account storage sp_account = s_accounts[msg.sender];   \n        require(sp_account.withdrawal > 0, \"no withdraw request\");\n        require(sp_account.releaseBlock <= block.number, \"too soon\");\n        uint256 value = sp_account.withdrawal > sp_account.balance ? sp_account.balance : sp_account.withdrawal;\n        sp_account.withdraw(value);\n        s_supply.widthdraw(value);\n        IERC20(s_entities.token).safeTransfer(msg.sender, value);\n        emit Withdrawal(msg.sender, value);\n    }\n\n    function account(address addr) external view\n        returns (\n            uint256 nonce,  \n            uint256 balance,\n            uint256 issueBlock,\n            uint256 pending,\n            uint256 withdrawal,\n            uint256 releaseBlock,\n            bytes32 secretHash,\n            uint256 externalBalance\n        ) \n    {\n        Account storage sp_account = s_accounts[addr];\n        uint256 extBalance = IERC20(s_entities.token).balanceOf(addr);\n        return (\n            sp_account.nonce,\n            sp_account.balance,\n            sp_account.issueBlock,\n            sp_account.pending,\n            sp_account.withdrawal,\n            sp_account.releaseBlock,\n            sp_account.secretHash,\n            extBalance\n        );\n    }\n\n    function entities() view external\n        returns (\n            address manager,\n            address token,\n            address wallet\n        )\n    {\n        return (\n            s_entities.manager,\n            s_entities.token,\n            s_entities.wallet\n        );\n    }\n\n    function limits() external view\n        returns (\n            uint256 releaseDelay, \n            uint256 maxTokensPerIssue,\n            uint256 maxTokensPerBlock\n        )\n    {\n        return (\n            s_limits.releaseDelay,\n            s_limits.maxTokensPerIssue,\n            s_limits.maxTokensPerBlock\n        );\n    }\n\n    function supply() view external \n        returns (\n            uint256 total,\n            uint256 minimum,\n            uint256 pending,\n            uint256 available\n        ) \n    {\n        return (\n            s_supply.total,\n            s_supply.minimum,\n            s_supply.pending,\n            s_supply.available()\n        );\n    }\n\n    function uid() view external returns (uint256) {\n        return s_uid;\n    }\n\n    function totalSupply() view external returns (uint256) {\n        return s_supply.total;\n    }\n\n    function availableSupply() view external returns (uint256) {\n        return s_supply.available();\n    }\n\n\n    // ----------- Public Functions ------------\n\n\n    function generateAcceptTokensMessage(address recipient, uint256 value, bytes32 secretHash)\n        public view \n        returns (bytes memory)\n    {\n        require(s_accounts[recipient].secretHash == secretHash, \"wrong secret hash\");\n        require(s_accounts[recipient].pending == value, \"value must equal pending(issued tokens)\");\n        return abi.encodePacked(\n            s_uid,\n            this.generateAcceptTokensMessage.selector,\n            recipient,\n            value,\n            secretHash\n        );\n    }\n\n    function generatePaymentMessage(address from, uint256 value)\n        public view\n        returns (bytes memory)\n    {\n        Account storage sp_account = s_accounts[from]; \n        require(sp_account.balance >= value, \"account balnace too low\");\n        return abi.encodePacked(\n            s_uid,\n            this.generatePaymentMessage.selector,\n            from,\n            value,\n            sp_account.nonce\n        );\n    }\n\n    function validateAcceptTokens(\n        address recipient,\n        uint256 value,\n        bytes32 secretHash,\n        uint8 v,\n        bytes32 r,\n        bytes32 s\n    )\n        public view \n        returns (bool)\n    {\n        bytes32 message = _messageToRecover(\n            keccak256(generateAcceptTokensMessage(recipient, value, secretHash))\n        );\n        address addr = ecrecover(message, v, r, s);\n        return addr == recipient;\n    }\n\n    function validatePayment(address from, uint256 value, uint8 v, bytes32 r, bytes32 s)\n        public view \n        returns (bool)\n    {\n        bytes32 message = _messageToRecover(\n            keccak256(generatePaymentMessage(from, value))\n        );\n        address addr = ecrecover(message, v, r, s);\n        return addr == from;      \n    }\n\n    function ownedTokens() view public returns (uint256) {\n        return IERC20(s_entities.token).balanceOf(address(this));\n    }\n\n\n    // ----------- Private Functions ------------\n\n\n    function _validateTokensPerBlock(uint256 value) private {\n        if (s_lastIssuedBlock < block.number) {\n            s_lastIssuedBlock = block.number;\n            s_totalIssuedInBlock = value;\n        } else {\n            s_totalIssuedInBlock.add(value);\n        }\n        require(s_totalIssuedInBlock <= s_limits.maxTokensPerBlock, \"exeeds max tokens per block\");\n    }\n\n    function _acceptTokens(address recipient, uint256 value) private {\n        require(s_accounts[recipient].issueBlock < block.number, \"too soon\");\n        s_accounts[recipient].acceptPending(value);\n        s_supply.acceptPending(value);\n    }\n\n    function _messageToRecover(bytes32 hashedUnsignedMessage)\n        private pure \n        returns (bytes32)\n    {\n        bytes memory unsignedMessageBytes = _hashToAscii(\n            hashedUnsignedMessage\n        );\n        bytes memory prefix = \"\\x19Ethereum Signed Message:\\n64\";\n        return keccak256(abi.encodePacked(prefix, unsignedMessageBytes));\n    }\n\n    function _hashToAscii(bytes32 hash) private pure returns (bytes memory) {\n        bytes memory s = new bytes(64);\n        for (uint i = 0; i < 32; i++) {\n            byte  b = hash[i];\n            byte hi = byte(uint8(b) / 16);\n            byte lo = byte(uint8(b) - 16 * uint8(hi));\n            s[2*i] = _char(hi);\n            s[2*i+1] = _char(lo);\n        }\n        return s;\n    }\n\n    function _char(byte b) private pure returns (byte c) {\n        if (b < byte(uint8(10))) {\n            return byte(uint8(b) + 0x30);\n        } else {\n            return byte(uint8(b) + 0x57);\n        }\n    }\n\n}\n",
  "sourcePath": "/home/tal/code/kirobo/ki-eth-token/contracts/Pool.sol",
  "compiler": {
    "name": "solc",
    "version": "0.6.12+commit.27d51765.Emscripten.clang"
  },
  "schemaVersion": "3.0.23",
  "updatedAt": "2020-08-25T12:31:22.031Z",
  "devdoc": {
    "kind": "dev",
    "methods": {
      "claimOwnership()": {
        "details": "Allows the pendingOwner address to finalize the transfer."
      },
      "issueTokens(address,uint256,bytes32)": {
        "details": "Issueing tokens for an address to be used for payments. The owner of the receiving address must accept via a signed message or a direct call.",
        "params": {
          "secretHash": "The keccak256 of the confirmation secret.",
          "to": "The tokens recipient. ",
          "value": "The number of tokens to issue."
        }
      },
      "transferOwnership(address)": {
        "details": "Allows the current owner to set the pendingOwner address.",
        "params": {
          "newOwner": "The address to transfer ownership to."
        }
      }
    },
    "version": 1
  },
  "userdoc": {
    "kind": "user",
    "methods": {},
    "version": 1
  }
}