{
  "contractName": "Pool",
  "abi": [
    {
      "inputs": [
        {
          "internalType": "address",
          "name": "tokenContract",
          "type": "address"
        }
      ],
      "stateMutability": "nonpayable",
      "type": "constructor"
    },
    {
      "anonymous": false,
      "inputs": [
        {
          "indexed": true,
          "internalType": "address",
          "name": "account",
          "type": "address"
        },
        {
          "indexed": false,
          "internalType": "uint256",
          "name": "value",
          "type": "uint256"
        }
      ],
      "name": "Deposit",
      "type": "event"
    },
    {
      "anonymous": false,
      "inputs": [
        {
          "indexed": true,
          "internalType": "address",
          "name": "to",
          "type": "address"
        },
        {
          "indexed": false,
          "internalType": "uint256",
          "name": "value",
          "type": "uint256"
        }
      ],
      "name": "EtherTransfered",
      "type": "event"
    },
    {
      "anonymous": false,
      "inputs": [
        {
          "indexed": true,
          "internalType": "address",
          "name": "previousOwner",
          "type": "address"
        },
        {
          "indexed": true,
          "internalType": "address",
          "name": "newOwner",
          "type": "address"
        }
      ],
      "name": "OwnershipTransferred",
      "type": "event"
    },
    {
      "anonymous": false,
      "inputs": [
        {
          "indexed": true,
          "internalType": "address",
          "name": "account",
          "type": "address"
        },
        {
          "indexed": false,
          "internalType": "uint256",
          "name": "value",
          "type": "uint256"
        }
      ],
      "name": "Payment",
      "type": "event"
    },
    {
      "anonymous": false,
      "inputs": [
        {
          "indexed": true,
          "internalType": "address",
          "name": "account",
          "type": "address"
        },
        {
          "indexed": false,
          "internalType": "bool",
          "name": "directCall",
          "type": "bool"
        }
      ],
      "name": "TokensAccepted",
      "type": "event"
    },
    {
      "anonymous": false,
      "inputs": [
        {
          "indexed": true,
          "internalType": "address",
          "name": "account",
          "type": "address"
        },
        {
          "indexed": false,
          "internalType": "uint256",
          "name": "value",
          "type": "uint256"
        },
        {
          "indexed": false,
          "internalType": "bytes32",
          "name": "secretHash",
          "type": "bytes32"
        }
      ],
      "name": "TokensIssued",
      "type": "event"
    },
    {
      "anonymous": false,
      "inputs": [
        {
          "indexed": true,
          "internalType": "address",
          "name": "to",
          "type": "address"
        },
        {
          "indexed": false,
          "internalType": "uint256",
          "name": "value",
          "type": "uint256"
        }
      ],
      "name": "TokensTransfered",
      "type": "event"
    },
    {
      "anonymous": false,
      "inputs": [
        {
          "indexed": true,
          "internalType": "address",
          "name": "account",
          "type": "address"
        },
        {
          "indexed": false,
          "internalType": "uint256",
          "name": "value",
          "type": "uint256"
        }
      ],
      "name": "Withdrawal",
      "type": "event"
    },
    {
      "anonymous": false,
      "inputs": [
        {
          "indexed": true,
          "internalType": "address",
          "name": "account",
          "type": "address"
        }
      ],
      "name": "WithdrawalCanceled",
      "type": "event"
    },
    {
      "anonymous": false,
      "inputs": [
        {
          "indexed": true,
          "internalType": "address",
          "name": "account",
          "type": "address"
        },
        {
          "indexed": false,
          "internalType": "uint256",
          "name": "value",
          "type": "uint256"
        }
      ],
      "name": "WithdrawalRequested",
      "type": "event"
    },
    {
      "inputs": [],
      "name": "claimOwnership",
      "outputs": [],
      "stateMutability": "nonpayable",
      "type": "function"
    },
    {
      "inputs": [
        {
          "internalType": "address",
          "name": "_newOwner",
          "type": "address"
        }
      ],
      "name": "transferOwnership",
      "outputs": [],
      "stateMutability": "nonpayable",
      "type": "function"
    },
    {
      "inputs": [
        {
          "internalType": "uint256",
          "name": "blocks",
          "type": "uint256"
        }
      ],
      "name": "setReleaseDelay",
      "outputs": [],
      "stateMutability": "nonpayable",
      "type": "function"
    },
    {
      "inputs": [
        {
          "internalType": "uint256",
          "name": "tokens",
          "type": "uint256"
        }
      ],
      "name": "setMaxTokensPerIssueCall",
      "outputs": [],
      "stateMutability": "nonpayable",
      "type": "function"
    },
    {
      "inputs": [
        {
          "internalType": "address",
          "name": "to",
          "type": "address"
        },
        {
          "internalType": "uint256",
          "name": "value",
          "type": "uint256"
        },
        {
          "internalType": "bytes32",
          "name": "secretHash",
          "type": "bytes32"
        }
      ],
      "name": "issueTokens",
      "outputs": [],
      "stateMutability": "nonpayable",
      "type": "function"
    },
    {
      "inputs": [
        {
          "internalType": "address",
          "name": "account",
          "type": "address"
        }
      ],
      "name": "issuedPendingTokens",
      "outputs": [
        {
          "internalType": "uint256",
          "name": "",
          "type": "uint256"
        }
      ],
      "stateMutability": "view",
      "type": "function",
      "constant": true
    },
    {
      "inputs": [
        {
          "internalType": "uint256",
          "name": "value",
          "type": "uint256"
        }
      ],
      "name": "acceptTokens",
      "outputs": [],
      "stateMutability": "nonpayable",
      "type": "function"
    },
    {
      "inputs": [
        {
          "internalType": "address payable",
          "name": "etherWallet",
          "type": "address"
        }
      ],
      "name": "setEtherWallet",
      "outputs": [],
      "stateMutability": "nonpayable",
      "type": "function"
    },
    {
      "inputs": [
        {
          "internalType": "address",
          "name": "tokenWallet",
          "type": "address"
        }
      ],
      "name": "setTokenWallet",
      "outputs": [],
      "stateMutability": "nonpayable",
      "type": "function"
    },
    {
      "inputs": [
        {
          "internalType": "uint256",
          "name": "value",
          "type": "uint256"
        }
      ],
      "name": "transferEther",
      "outputs": [],
      "stateMutability": "nonpayable",
      "type": "function"
    },
    {
      "inputs": [
        {
          "internalType": "uint256",
          "name": "value",
          "type": "uint256"
        }
      ],
      "name": "transferTokens",
      "outputs": [],
      "stateMutability": "nonpayable",
      "type": "function"
    },
    {
      "inputs": [
        {
          "internalType": "address",
          "name": "account",
          "type": "address"
        }
      ],
      "name": "accountNonce",
      "outputs": [
        {
          "internalType": "uint256",
          "name": "",
          "type": "uint256"
        }
      ],
      "stateMutability": "view",
      "type": "function",
      "constant": true
    },
    {
      "inputs": [
        {
          "internalType": "address",
          "name": "account",
          "type": "address"
        }
      ],
      "name": "accountBalance",
      "outputs": [
        {
          "internalType": "uint256",
          "name": "",
          "type": "uint256"
        }
      ],
      "stateMutability": "view",
      "type": "function",
      "constant": true
    },
    {
      "inputs": [
        {
          "internalType": "address",
          "name": "from",
          "type": "address"
        },
        {
          "internalType": "uint256",
          "name": "value",
          "type": "uint256"
        }
      ],
      "name": "generatePaymentMessage",
      "outputs": [
        {
          "internalType": "bytes",
          "name": "",
          "type": "bytes"
        }
      ],
      "stateMutability": "view",
      "type": "function",
      "constant": true
    },
    {
      "inputs": [
        {
          "internalType": "address",
          "name": "from",
          "type": "address"
        },
        {
          "internalType": "uint256",
          "name": "value",
          "type": "uint256"
        },
        {
          "internalType": "uint8",
          "name": "v",
          "type": "uint8"
        },
        {
          "internalType": "bytes32",
          "name": "r",
          "type": "bytes32"
        },
        {
          "internalType": "bytes32",
          "name": "s",
          "type": "bytes32"
        }
      ],
      "name": "validatePayment",
      "outputs": [
        {
          "internalType": "bool",
          "name": "",
          "type": "bool"
        }
      ],
      "stateMutability": "view",
      "type": "function",
      "constant": true
    },
    {
      "inputs": [
        {
          "internalType": "address",
          "name": "from",
          "type": "address"
        },
        {
          "internalType": "uint256",
          "name": "value",
          "type": "uint256"
        },
        {
          "internalType": "uint8",
          "name": "v",
          "type": "uint8"
        },
        {
          "internalType": "bytes32",
          "name": "r",
          "type": "bytes32"
        },
        {
          "internalType": "bytes32",
          "name": "s",
          "type": "bytes32"
        }
      ],
      "name": "executePayment",
      "outputs": [],
      "stateMutability": "nonpayable",
      "type": "function"
    },
    {
      "inputs": [
        {
          "internalType": "address",
          "name": "recipeint",
          "type": "address"
        },
        {
          "internalType": "uint256",
          "name": "value",
          "type": "uint256"
        },
        {
          "internalType": "bytes32",
          "name": "secretHash",
          "type": "bytes32"
        }
      ],
      "name": "generateAcceptTokensMessage",
      "outputs": [
        {
          "internalType": "bytes",
          "name": "",
          "type": "bytes"
        }
      ],
      "stateMutability": "view",
      "type": "function",
      "constant": true
    },
    {
      "inputs": [
        {
          "internalType": "address",
          "name": "recipeint",
          "type": "address"
        },
        {
          "internalType": "uint256",
          "name": "value",
          "type": "uint256"
        },
        {
          "internalType": "bytes32",
          "name": "secretHash",
          "type": "bytes32"
        },
        {
          "internalType": "uint8",
          "name": "v",
          "type": "uint8"
        },
        {
          "internalType": "bytes32",
          "name": "r",
          "type": "bytes32"
        },
        {
          "internalType": "bytes32",
          "name": "s",
          "type": "bytes32"
        }
      ],
      "name": "validateAcceptTokens",
      "outputs": [
        {
          "internalType": "bool",
          "name": "",
          "type": "bool"
        }
      ],
      "stateMutability": "view",
      "type": "function",
      "constant": true
    },
    {
      "inputs": [
        {
          "internalType": "address",
          "name": "recipeint",
          "type": "address"
        },
        {
          "internalType": "uint256",
          "name": "value",
          "type": "uint256"
        },
        {
          "internalType": "bytes",
          "name": "c_secret",
          "type": "bytes"
        },
        {
          "internalType": "uint8",
          "name": "v",
          "type": "uint8"
        },
        {
          "internalType": "bytes32",
          "name": "r",
          "type": "bytes32"
        },
        {
          "internalType": "bytes32",
          "name": "s",
          "type": "bytes32"
        }
      ],
      "name": "executeAcceptTokens",
      "outputs": [],
      "stateMutability": "nonpayable",
      "type": "function"
    },
    {
      "inputs": [
        {
          "internalType": "address",
          "name": "manager",
          "type": "address"
        }
      ],
      "name": "setManager",
      "outputs": [],
      "stateMutability": "nonpayable",
      "type": "function"
    },
    {
      "inputs": [],
      "name": "totalSupply",
      "outputs": [
        {
          "internalType": "uint256",
          "name": "",
          "type": "uint256"
        }
      ],
      "stateMutability": "view",
      "type": "function",
      "constant": true
    },
    {
      "inputs": [],
      "name": "availableSupply",
      "outputs": [
        {
          "internalType": "uint256",
          "name": "",
          "type": "uint256"
        }
      ],
      "stateMutability": "view",
      "type": "function",
      "constant": true
    },
    {
      "inputs": [
        {
          "internalType": "uint256",
          "name": "value",
          "type": "uint256"
        }
      ],
      "name": "deposit",
      "outputs": [],
      "stateMutability": "nonpayable",
      "type": "function"
    },
    {
      "inputs": [
        {
          "internalType": "uint256",
          "name": "value",
          "type": "uint256"
        }
      ],
      "name": "requestWithdrawal",
      "outputs": [],
      "stateMutability": "nonpayable",
      "type": "function"
    },
    {
      "inputs": [],
      "name": "cancelWithdrawal",
      "outputs": [],
      "stateMutability": "nonpayable",
      "type": "function"
    },
    {
      "inputs": [],
      "name": "withdraw",
      "outputs": [],
      "stateMutability": "nonpayable",
      "type": "function"
    }
  ],
  "bytecode": "0x608060405234801561001057600080fd5b506040516136af3803806136af8339818101604052602081101561003357600080fd5b8101908080519060200190929190505050336000806101000a81548173ffffffffffffffffffffffffffffffffffffffff021916908373ffffffffffffffffffffffffffffffffffffffff16021790555080600260006101000a81548173ffffffffffffffffffffffffffffffffffffffff021916908373ffffffffffffffffffffffffffffffffffffffff16021790555060f0600881905550612710600981905550506135c9806100e66000396000f3fe608060405234801561001057600080fd5b506004361061018e5760003560e01c80639ee679e8116100de578063d0ebdbe711610097578063ee1f5a7f11610071578063ee1f5a7f14610843578063f2fde38b14610887578063fd1f03db146108cb578063fd9a4e61146109505761018e565b8063d0ebdbe7146106e3578063d294cb0f14610727578063e12392d11461077f5761018e565b80639ee679e8146104ed578063a621344a1461051b578063ac8aa0c01461055f578063b6b55f25146105b7578063c0282006146105e5578063c14d3368146106745761018e565b80634e71e0c81161014b5780637581c27a116101255780637581c27a146103a257806379d23853146103d05780637e060b55146104a15780637ecc2b56146104cf5761018e565b80634e71e0c814610312578063674847c51461031c57806373ffd5b7146103745761018e565b8063106cffe21461019357806318160ddd146101eb5780631b56c29c1461020957806322611280146102375780633ccfd60b1461024157806340b2645d1461024b575b600080fd5b6101d5600480360360208110156101a957600080fd5b81019080803573ffffffffffffffffffffffffffffffffffffffff16906020019092919050505061097e565b6040518082815260200191505060405180910390f35b6101f36109ca565b6040518082815260200191505060405180910390f35b6102356004803603602081101561021f57600080fd5b8101908080359060200190929190505050610a95565b005b61023f610af3565b005b610249610bc8565b005b6102976004803603604081101561026157600080fd5b81019080803573ffffffffffffffffffffffffffffffffffffffff16906020019092919080359060200190929190505050610e5e565b6040518080602001828103825283818151815260200191508051906020019080838360005b838110156102d75780820151818401526020810190506102bc565b50505050905090810190601f1680156103045780820380516001836020036101000a031916815260200191505b509250505060405180910390f35b61031a610fc2565b005b61035e6004803603602081101561033257600080fd5b81019080803573ffffffffffffffffffffffffffffffffffffffff1690602001909291905050506111c7565b6040518082815260200191505060405180910390f35b6103a06004803603602081101561038a57600080fd5b8101908080359060200190929190505050611213565b005b6103ce600480360360208110156103b857600080fd5b81019080803590602001909291905050506114cd565b005b610426600480360360608110156103e657600080fd5b81019080803573ffffffffffffffffffffffffffffffffffffffff1690602001909291908035906020019092919080359060200190929190505050611598565b6040518080602001828103825283818151815260200191508051906020019080838360005b8381101561046657808201518184015260208101905061044b565b50505050905090810190601f1680156104935780820380516001836020036101000a031916815260200191505b509250505060405180910390f35b6104cd600480360360208110156104b757600080fd5b810190808035906020019092919050505061178c565b005b6104d76118cf565b6040518082815260200191505060405180910390f35b6105196004803603602081101561050357600080fd5b81019080803590602001909291905050506119a2565b005b61055d6004803603602081101561053157600080fd5b81019080803573ffffffffffffffffffffffffffffffffffffffff169060200190929190505050611bb2565b005b6105b56004803603606081101561057557600080fd5b81019080803573ffffffffffffffffffffffffffffffffffffffff1690602001909291908035906020019092919080359060200190929190505050611cb7565b005b6105e3600480360360208110156105cd57600080fd5b8101908080359060200190929190505050611fc4565b005b61065c600480360360c08110156105fb57600080fd5b81019080803573ffffffffffffffffffffffffffffffffffffffff1690602001909291908035906020019092919080359060200190929190803560ff16906020019092919080359060200190929190803590602001909291905050506122b9565b60405180821515815260200191505060405180910390f35b6106e1600480360360a081101561068a57600080fd5b81019080803573ffffffffffffffffffffffffffffffffffffffff16906020019092919080359060200190929190803560ff169060200190929190803590602001909291908035906020019092919050505061237d565b005b610725600480360360208110156106f957600080fd5b81019080803573ffffffffffffffffffffffffffffffffffffffff169060200190929190505050612653565b005b6107696004803603602081101561073d57600080fd5b81019080803573ffffffffffffffffffffffffffffffffffffffff169060200190929190505050612758565b6040518082815260200191505060405180910390f35b610841600480360360c081101561079557600080fd5b81019080803573ffffffffffffffffffffffffffffffffffffffff16906020019092919080359060200190929190803590602001906401000000008111156107dc57600080fd5b8201836020820111156107ee57600080fd5b8035906020019184600183028401116401000000008311171561081057600080fd5b9091929391929390803560ff16906020019092919080359060200190929190803590602001909291905050506127a4565b005b6108856004803603602081101561085957600080fd5b81019080803573ffffffffffffffffffffffffffffffffffffffff169060200190929190505050612a94565b005b6108c96004803603602081101561089d57600080fd5b81019080803573ffffffffffffffffffffffffffffffffffffffff169060200190929190505050612b99565b005b610938600480360360a08110156108e157600080fd5b81019080803573ffffffffffffffffffffffffffffffffffffffff16906020019092919080359060200190929190803560ff1690602001909291908035906020019092919080359060200190929190505050612c9e565b60405180821515815260200191505060405180910390f35b61097c6004803603602081101561096657600080fd5b8101908080359060200190929190505050612d60565b005b6000600a60008373ffffffffffffffffffffffffffffffffffffffff1673ffffffffffffffffffffffffffffffffffffffff168152602001908152602001600020600001549050919050565b6000600260009054906101000a900473ffffffffffffffffffffffffffffffffffffffff1673ffffffffffffffffffffffffffffffffffffffff166370a08231306040518263ffffffff1660e01b8152600401808273ffffffffffffffffffffffffffffffffffffffff16815260200191505060206040518083038186803b158015610a5557600080fd5b505afa158015610a69573d6000803e3d6000fd5b505050506040513d6020811015610a7f57600080fd5b8101908080519060200190929190505050905090565b610a9f3382613102565b3373ffffffffffffffffffffffffffffffffffffffff167f87715bcb29dbe27420aab6499f3227b2d0c070e9332c9ea0d7da26a547e48e1d600160405180821515815260200191505060405180910390a250565b6000600a60003373ffffffffffffffffffffffffffffffffffffffff1673ffffffffffffffffffffffffffffffffffffffff168152602001908152602001600020600301819055506000600a60003373ffffffffffffffffffffffffffffffffffffffff1673ffffffffffffffffffffffffffffffffffffffff168152602001908152602001600020600401819055503373ffffffffffffffffffffffffffffffffffffffff167f2c149134fe0030fa8b86362e124b3379a0d5bf7e1c0f487a35a06f89bbf60cee60405160405180910390a2565b6000600a60003373ffffffffffffffffffffffffffffffffffffffff1673ffffffffffffffffffffffffffffffffffffffff16815260200190815260200160002090506000816004015411610c85576040517f08c379a00000000000000000000000000000000000000000000000000000000081526004018080602001828103825260138152602001807f6e6f20776974686472617720726571756573740000000000000000000000000081525060200191505060405180910390fd5b43816004015410610cfe576040517f08c379a00000000000000000000000000000000000000000000000000000000081526004018080602001828103825260088152602001807f746f6f20736f6f6e00000000000000000000000000000000000000000000000081525060200191505060405180910390fd5b600081600301549050600082600301819055506000826004018190555080826001016000828254039250508190555080600360008282540392505081905550600260009054906101000a900473ffffffffffffffffffffffffffffffffffffffff1673ffffffffffffffffffffffffffffffffffffffff1663a9059cbb33836040518363ffffffff1660e01b8152600401808373ffffffffffffffffffffffffffffffffffffffff16815260200182815260200192505050602060405180830381600087803b158015610dd057600080fd5b505af1158015610de4573d6000803e3d6000fd5b505050506040513d6020811015610dfa57600080fd5b8101908080519060200190929190505050503373ffffffffffffffffffffffffffffffffffffffff167f7fcf532c15f0a6db0bd6d0e038bea71d30d808c7d98cb3bf7268a95bf5081b65826040518082815260200191505060405180910390a25050565b60606000600a60008573ffffffffffffffffffffffffffffffffffffffff1673ffffffffffffffffffffffffffffffffffffffff16815260200190815260200160002090508281600101541015610f1d576040517f08c379a00000000000000000000000000000000000000000000000000000000081526004018080602001828103825260178152602001807f6163636f756e742062616c6e61636520746f6f206c6f7700000000000000000081525060200191505060405180910390fd5b306340b2645d60e01b85858460000154604051602001808673ffffffffffffffffffffffffffffffffffffffff1660601b8152601401857bffffffffffffffffffffffffffffffffffffffffffffffffffffffff191681526004018473ffffffffffffffffffffffffffffffffffffffff1660601b81526014018381526020018281526020019550505050505060405160208183030381529060405291505092915050565b600160009054906101000a900473ffffffffffffffffffffffffffffffffffffffff1673ffffffffffffffffffffffffffffffffffffffff163373ffffffffffffffffffffffffffffffffffffffff1614611085576040517f08c379a00000000000000000000000000000000000000000000000000000000081526004018080602001828103825260118152602001807f6e6f742070656e64696e67206f776e657200000000000000000000000000000081525060200191505060405180910390fd5b600160009054906101000a900473ffffffffffffffffffffffffffffffffffffffff1673ffffffffffffffffffffffffffffffffffffffff1660008054906101000a900473ffffffffffffffffffffffffffffffffffffffff1673ffffffffffffffffffffffffffffffffffffffff167f8be0079c531659141344cd1fd0a4f28419497f9722a3daafe3b4186f6b6457e060405160405180910390a3600160009054906101000a900473ffffffffffffffffffffffffffffffffffffffff166000806101000a81548173ffffffffffffffffffffffffffffffffffffffff021916908373ffffffffffffffffffffffffffffffffffffffff1602179055506000600160006101000a81548173ffffffffffffffffffffffffffffffffffffffff021916908373ffffffffffffffffffffffffffffffffffffffff160217905550565b6000600a60008373ffffffffffffffffffffffffffffffffffffffff1673ffffffffffffffffffffffffffffffffffffffff168152602001908152602001600020600201549050919050565b60008054906101000a900473ffffffffffffffffffffffffffffffffffffffff1673ffffffffffffffffffffffffffffffffffffffff163373ffffffffffffffffffffffffffffffffffffffff1614806112ba5750600560009054906101000a900473ffffffffffffffffffffffffffffffffffffffff1673ffffffffffffffffffffffffffffffffffffffff163373ffffffffffffffffffffffffffffffffffffffff16145b61132c576040517f08c379a00000000000000000000000000000000000000000000000000000000081526004018080602001828103825260148152602001807f6e6f74206f776e6572206f72206d616e6167657200000000000000000000000081525060200191505060405180910390fd5b600073ffffffffffffffffffffffffffffffffffffffff16600660009054906101000a900473ffffffffffffffffffffffffffffffffffffffff1673ffffffffffffffffffffffffffffffffffffffff1614156113f1576040517f08c379a00000000000000000000000000000000000000000000000000000000081526004018080602001828103825260148152602001807f65746865722077616c6c6574206e6f742073657400000000000000000000000081525060200191505060405180910390fd5b600660009054906101000a900473ffffffffffffffffffffffffffffffffffffffff1673ffffffffffffffffffffffffffffffffffffffff166108fc829081150290604051600060405180830381858888f19350505050158015611459573d6000803e3d6000fd5b50600660009054906101000a900473ffffffffffffffffffffffffffffffffffffffff1673ffffffffffffffffffffffffffffffffffffffff167fcbbf9d8eccd82bfe565beb740ad23209888d91a194d1ad1eb4add4476e6be45c826040518082815260200191505060405180910390a250565b60008054906101000a900473ffffffffffffffffffffffffffffffffffffffff1673ffffffffffffffffffffffffffffffffffffffff163373ffffffffffffffffffffffffffffffffffffffff161461158e576040517f08c379a00000000000000000000000000000000000000000000000000000000081526004018080602001828103825260098152602001807f6e6f74206f776e6572000000000000000000000000000000000000000000000081525060200191505060405180910390fd5b8060098190555050565b606081600a60008673ffffffffffffffffffffffffffffffffffffffff1673ffffffffffffffffffffffffffffffffffffffff1681526020019081526020016000206005015414611651576040517f08c379a00000000000000000000000000000000000000000000000000000000081526004018080602001828103825260118152602001807f77726f6e6720736563726574206861736800000000000000000000000000000081525060200191505060405180910390fd5b82600a60008673ffffffffffffffffffffffffffffffffffffffff1673ffffffffffffffffffffffffffffffffffffffff16815260200190815260200160002060020154146116eb576040517f08c379a000000000000000000000000000000000000000000000000000000000815260040180806020018281038252602781526020018061354b6027913960400191505060405180910390fd5b306379d2385360e01b858585604051602001808673ffffffffffffffffffffffffffffffffffffffff1660601b8152601401857bffffffffffffffffffffffffffffffffffffffffffffffffffffffff191681526004018473ffffffffffffffffffffffffffffffffffffffff1660601b81526014018381526020018281526020019550505050505060405160208183030381529060405290509392505050565b60008054906101000a900473ffffffffffffffffffffffffffffffffffffffff1673ffffffffffffffffffffffffffffffffffffffff163373ffffffffffffffffffffffffffffffffffffffff161461184d576040517f08c379a00000000000000000000000000000000000000000000000000000000081526004018080602001828103825260098152602001807f6e6f74206f776e6572000000000000000000000000000000000000000000000081525060200191505060405180910390fd5b612d008111156118c5576040517f08c379a00000000000000000000000000000000000000000000000000000000081526004018080602001828103825260188152602001807f657865656473206d61782072656c656173652064656c6179000000000000000081525060200191505060405180910390fd5b8060088190555050565b6000600454600354600260009054906101000a900473ffffffffffffffffffffffffffffffffffffffff1673ffffffffffffffffffffffffffffffffffffffff166370a08231306040518263ffffffff1660e01b8152600401808273ffffffffffffffffffffffffffffffffffffffff16815260200191505060206040518083038186803b15801561196057600080fd5b505afa158015611974573d6000803e3d6000fd5b505050506040513d602081101561198a57600080fd5b81019080805190602001909291905050500303905090565b80600a60003373ffffffffffffffffffffffffffffffffffffffff1673ffffffffffffffffffffffffffffffffffffffff168152602001908152602001600020600101541015611a5a576040517f08c379a00000000000000000000000000000000000000000000000000000000081526004018080602001828103825260118152602001807f6e6f7420656e6f75676820746f6b656e7300000000000000000000000000000081525060200191505060405180910390fd5b60008111611ad0576040517f08c379a000000000000000000000000000000000000000000000000000000000815260040180806020018281038252600f8152602001807f63616e6e6f74207769746864726177000000000000000000000000000000000081525060200191505060405180910390fd5b80600a60003373ffffffffffffffffffffffffffffffffffffffff1673ffffffffffffffffffffffffffffffffffffffff1681526020019081526020016000206003018190555060f04301600a60003373ffffffffffffffffffffffffffffffffffffffff1673ffffffffffffffffffffffffffffffffffffffff168152602001908152602001600020600401819055503373ffffffffffffffffffffffffffffffffffffffff167fe670e4e82118d22a1f9ee18920455ebc958bae26a90a05d31d3378788b1b0e44826040518082815260200191505060405180910390a250565b60008054906101000a900473ffffffffffffffffffffffffffffffffffffffff1673ffffffffffffffffffffffffffffffffffffffff163373ffffffffffffffffffffffffffffffffffffffff1614611c73576040517f08c379a00000000000000000000000000000000000000000000000000000000081526004018080602001828103825260098152602001807f6e6f74206f776e6572000000000000000000000000000000000000000000000081525060200191505060405180910390fd5b80600760006101000a81548173ffffffffffffffffffffffffffffffffffffffff021916908373ffffffffffffffffffffffffffffffffffffffff16021790555050565b60008054906101000a900473ffffffffffffffffffffffffffffffffffffffff1673ffffffffffffffffffffffffffffffffffffffff163373ffffffffffffffffffffffffffffffffffffffff161480611d5e5750600560009054906101000a900473ffffffffffffffffffffffffffffffffffffffff1673ffffffffffffffffffffffffffffffffffffffff163373ffffffffffffffffffffffffffffffffffffffff16145b611dd0576040517f08c379a00000000000000000000000000000000000000000000000000000000081526004018080602001828103825260148152602001807f6e6f74206f776e6572206f72206d616e6167657200000000000000000000000081525060200191505060405180910390fd5b611dd86118cf565b821115611e4d576040517f08c379a000000000000000000000000000000000000000000000000000000000815260040180806020018281038252601b8152602001807f6e6f7420656e6f75676820617661696c61626c6520746f6b656e73000000000081525060200191505060405180910390fd5b600954821115611ec5576040517f08c379a00000000000000000000000000000000000000000000000000000000081526004018080602001828103825260208152602001807f616d6f756e74206578656564206d617820746f6b656e73207065722063616c6c81525060200191505060405180910390fd5b6000600a60008573ffffffffffffffffffffffffffffffffffffffff1673ffffffffffffffffffffffffffffffffffffffff168152602001908152602001600020905060008160020154905082826005018190555083811115611f4257838260020181905550838103600460008282540192505081905550611f67565b83811015611f66578382600201819055508084036004600082825401925050819055505b5b8473ffffffffffffffffffffffffffffffffffffffff167f39d84c7c6d92b3f4343f76193f77afd39f4de57d13ac90024de77cb03dc2eacb8585604051808381526020018281526020019250505060405180910390a25050505050565b80600260009054906101000a900473ffffffffffffffffffffffffffffffffffffffff1673ffffffffffffffffffffffffffffffffffffffff1663dd62ed3e33306040518363ffffffff1660e01b8152600401808373ffffffffffffffffffffffffffffffffffffffff1681526020018273ffffffffffffffffffffffffffffffffffffffff1681526020019250505060206040518083038186803b15801561206c57600080fd5b505afa158015612080573d6000803e3d6000fd5b505050506040513d602081101561209657600080fd5b8101908080519060200190929190505050101561211b576040517f08c379a00000000000000000000000000000000000000000000000000000000081526004018080602001828103825260178152602001807f455243323020616c6c6f77616e636520746f6f206c6f7700000000000000000081525060200191505060405180910390fd5b600260009054906101000a900473ffffffffffffffffffffffffffffffffffffffff1673ffffffffffffffffffffffffffffffffffffffff166323b872dd3330846040518463ffffffff1660e01b8152600401808473ffffffffffffffffffffffffffffffffffffffff1681526020018373ffffffffffffffffffffffffffffffffffffffff1681526020018281526020019350505050602060405180830381600087803b1580156121cc57600080fd5b505af11580156121e0573d6000803e3d6000fd5b505050506040513d60208110156121f657600080fd5b81019080805190602001909291905050505080600a60003373ffffffffffffffffffffffffffffffffffffffff1673ffffffffffffffffffffffffffffffffffffffff16815260200190815260200160002060010160008282540192505081905550806003600082825401925050819055503373ffffffffffffffffffffffffffffffffffffffff167fe1fffcc4923d04b559f4d29a8bfc6cda04eb5b0d3c460751c2402c5c5cc9109c826040518082815260200191505060405180910390a250565b6000806122d66122ca898989611598565b80519060200120613277565b9050600060018287878760405160008152602001604052604051808581526020018460ff1681526020018381526020018281526020019450505050506020604051602081039080840390855afa158015612334573d6000803e3d6000fd5b5050506020604051035190508873ffffffffffffffffffffffffffffffffffffffff168173ffffffffffffffffffffffffffffffffffffffff1614925050509695505050505050565b60008054906101000a900473ffffffffffffffffffffffffffffffffffffffff1673ffffffffffffffffffffffffffffffffffffffff163373ffffffffffffffffffffffffffffffffffffffff1614806124245750600560009054906101000a900473ffffffffffffffffffffffffffffffffffffffff1673ffffffffffffffffffffffffffffffffffffffff163373ffffffffffffffffffffffffffffffffffffffff16145b612496576040517f08c379a00000000000000000000000000000000000000000000000000000000081526004018080602001828103825260148152602001807f6e6f74206f776e6572206f72206d616e6167657200000000000000000000000081525060200191505060405180910390fd5b6124a38585858585612c9e565b612515576040517f08c379a00000000000000000000000000000000000000000000000000000000081526004018080602001828103825260178152602001807f77726f6e67207369676e6174757265206f72206461746100000000000000000081525060200191505060405180910390fd5b6000600a60008773ffffffffffffffffffffffffffffffffffffffff1673ffffffffffffffffffffffffffffffffffffffff168152602001908152602001600020905042816000015414156125d2576040517f08c379a00000000000000000000000000000000000000000000000000000000081526004018080602001828103825260088152602001807f746f6f20736f6f6e00000000000000000000000000000000000000000000000081525060200191505060405180910390fd5b428160000181905550848160010160008282540392505081905550846003600082825403925050819055508573ffffffffffffffffffffffffffffffffffffffff167fd4f43975feb89f48dd30cabbb32011045be187d1e11c8ea9faa43efc35282519866040518082815260200191505060405180910390a2505050505050565b60008054906101000a900473ffffffffffffffffffffffffffffffffffffffff1673ffffffffffffffffffffffffffffffffffffffff163373ffffffffffffffffffffffffffffffffffffffff1614612714576040517f08c379a00000000000000000000000000000000000000000000000000000000081526004018080602001828103825260098152602001807f6e6f74206f776e6572000000000000000000000000000000000000000000000081525060200191505060405180910390fd5b80600560006101000a81548173ffffffffffffffffffffffffffffffffffffffff021916908373ffffffffffffffffffffffffffffffffffffffff16021790555050565b6000600a60008373ffffffffffffffffffffffffffffffffffffffff1673ffffffffffffffffffffffffffffffffffffffff168152602001908152602001600020600101549050919050565b60008054906101000a900473ffffffffffffffffffffffffffffffffffffffff1673ffffffffffffffffffffffffffffffffffffffff163373ffffffffffffffffffffffffffffffffffffffff16148061284b5750600560009054906101000a900473ffffffffffffffffffffffffffffffffffffffff1673ffffffffffffffffffffffffffffffffffffffff163373ffffffffffffffffffffffffffffffffffffffff16145b6128bd576040517f08c379a00000000000000000000000000000000000000000000000000000000081526004018080602001828103825260148152602001807f6e6f74206f776e6572206f72206d616e6167657200000000000000000000000081525060200191505060405180910390fd5b84846040518083838082843780830192505050925050506040518091039020600a60008973ffffffffffffffffffffffffffffffffffffffff1673ffffffffffffffffffffffffffffffffffffffff1681526020019081526020016000206005015414612992576040517f08c379a000000000000000000000000000000000000000000000000000000000815260040180806020018281038252600c8152602001807f77726f6e6720736563726574000000000000000000000000000000000000000081525060200191505060405180910390fd5b6129be8787878760405180838380828437808301925050509250505060405180910390208686866122b9565b612a30576040517f08c379a00000000000000000000000000000000000000000000000000000000081526004018080602001828103825260178152602001807f77726f6e67207369676e6174757265206f72206461746100000000000000000081525060200191505060405180910390fd5b612a3a8787613102565b8673ffffffffffffffffffffffffffffffffffffffff167f87715bcb29dbe27420aab6499f3227b2d0c070e9332c9ea0d7da26a547e48e1d600060405180821515815260200191505060405180910390a250505050505050565b60008054906101000a900473ffffffffffffffffffffffffffffffffffffffff1673ffffffffffffffffffffffffffffffffffffffff163373ffffffffffffffffffffffffffffffffffffffff1614612b55576040517f08c379a00000000000000000000000000000000000000000000000000000000081526004018080602001828103825260098152602001807f6e6f74206f776e6572000000000000000000000000000000000000000000000081525060200191505060405180910390fd5b80600660006101000a81548173ffffffffffffffffffffffffffffffffffffffff021916908373ffffffffffffffffffffffffffffffffffffffff16021790555050565b60008054906101000a900473ffffffffffffffffffffffffffffffffffffffff1673ffffffffffffffffffffffffffffffffffffffff163373ffffffffffffffffffffffffffffffffffffffff1614612c5a576040517f08c379a00000000000000000000000000000000000000000000000000000000081526004018080602001828103825260098152602001807f6e6f74206f776e6572000000000000000000000000000000000000000000000081525060200191505060405180910390fd5b80600160006101000a81548173ffffffffffffffffffffffffffffffffffffffff021916908373ffffffffffffffffffffffffffffffffffffffff16021790555050565b600080612cba612cae8888610e5e565b80519060200120613277565b9050600060018287878760405160008152602001604052604051808581526020018460ff1681526020018381526020018281526020019450505050506020604051602081039080840390855afa158015612d18573d6000803e3d6000fd5b5050506020604051035190508773ffffffffffffffffffffffffffffffffffffffff168173ffffffffffffffffffffffffffffffffffffffff16149250505095945050505050565b60008054906101000a900473ffffffffffffffffffffffffffffffffffffffff1673ffffffffffffffffffffffffffffffffffffffff163373ffffffffffffffffffffffffffffffffffffffff161480612e075750600560009054906101000a900473ffffffffffffffffffffffffffffffffffffffff1673ffffffffffffffffffffffffffffffffffffffff163373ffffffffffffffffffffffffffffffffffffffff16145b612e79576040517f08c379a00000000000000000000000000000000000000000000000000000000081526004018080602001828103825260148152602001807f6e6f74206f776e6572206f72206d616e6167657200000000000000000000000081525060200191505060405180910390fd5b600073ffffffffffffffffffffffffffffffffffffffff16600760009054906101000a900473ffffffffffffffffffffffffffffffffffffffff1673ffffffffffffffffffffffffffffffffffffffff161415612f3e576040517f08c379a00000000000000000000000000000000000000000000000000000000081526004018080602001828103825260148152602001807f746f6b656e2077616c6c6574206e6f742073657400000000000000000000000081525060200191505060405180910390fd5b612f466118cf565b811115612f9e576040517f08c379a00000000000000000000000000000000000000000000000000000000081526004018080602001828103825260228152602001806135726022913960400191505060405180910390fd5b600260009054906101000a900473ffffffffffffffffffffffffffffffffffffffff1673ffffffffffffffffffffffffffffffffffffffff1663a9059cbb600760009054906101000a900473ffffffffffffffffffffffffffffffffffffffff16836040518363ffffffff1660e01b8152600401808373ffffffffffffffffffffffffffffffffffffffff16815260200182815260200192505050602060405180830381600087803b15801561305357600080fd5b505af1158015613067573d6000803e3d6000fd5b505050506040513d602081101561307d57600080fd5b810190808051906020019092919050505050600760009054906101000a900473ffffffffffffffffffffffffffffffffffffffff1673ffffffffffffffffffffffffffffffffffffffff167fa267b5cf59cf96d97abf36d29c63cf7bdef867c208ca8575c47f2cafda39abc9826040518082815260200191505060405180910390a250565b6000600a60008473ffffffffffffffffffffffffffffffffffffffff1673ffffffffffffffffffffffffffffffffffffffff1681526020019081526020016000209050600081600201549050600081116131c4576040517f08c379a00000000000000000000000000000000000000000000000000000000081526004018080602001828103825260118152602001807f6e6f2070656e64696e6720746f6b656e7300000000000000000000000000000081525060200191505060405180910390fd5b828114613239576040517f08c379a000000000000000000000000000000000000000000000000000000000815260040180806020018281038252601e8152602001807f76616c7565206d75737420657175616c2069737375656420746f6b656e73000081525060200191505060405180910390fd5b600082600201819055508082600101600082825401925050819055506000801b82600501819055508060046000828254039250508190555050505050565b600060606132848361338e565b905060606040518060400160405280601c81526020017f19457468657265756d205369676e6564204d6573736167653a0a363400000000815250905080826040516020018083805190602001908083835b602083106132f857805182526020820191506020810190506020830392506132d5565b6001836020036101000a03801982511681845116808217855250505050505090500182805190602001908083835b602083106133495780518252602082019150602081019050602083039250613326565b6001836020036101000a038019825116818451168082178552505050505050905001925050506040516020818303038152906040528051906020012092505050919050565b606080604067ffffffffffffffff811180156133a957600080fd5b506040519080825280601f01601f1916602001820160405280156133dc5781602001600182028036833780820191505090505b50905060005b60208110156134cb5760008482602081106133f957fe5b1a60f81b9050600060108260f81c60ff168161341157fe5b0460f81b905060008160f81c6010028360f81c0360f81b9050613433826134d5565b85856002028151811061344257fe5b60200101907effffffffffffffffffffffffffffffffffffffffffffffffffffffffffffff1916908160001a90535061347a816134d5565b85600186600202018151811061348c57fe5b60200101907effffffffffffffffffffffffffffffffffffffffffffffffffffffffffffff1916908160001a90535050505080806001019150506133e2565b5080915050919050565b6000600a60f81b7effffffffffffffffffffffffffffffffffffffffffffffffffffffffffffff1916827effffffffffffffffffffffffffffffffffffffffffffffffffffffffffffff191610156135385760308260f81c0160f81b9050613545565b60578260f81c0160f81b90505b91905056fe76616c7565206d75737420657175616c2070656e64696e672869737375656420746f6b656e732976616c7565206c6172676574207468616e20617661696c61626c6520746f6b656e73a2646970667358221220c753c53db96f6f8f9664db855b106ac00ce2a76f9393a8c5a36051df962d61ad64736f6c634300060c0033",
  "source": "// SPDX-License-Identifier: MIT\npragma solidity 0.6.12;\n\nimport \"./IERC20.sol\";\nimport \"./Claimable.sol\";\n\ncontract Pool is Claimable {\n\n    uint256 constant MAX_RELEASE_DELAY = 11_520; // about 48h\n    \n    address s_tokenContract;\n    uint256 s_minSupply;\n    uint256 s_pendingSupply;\n    address s_manager;\n    address payable s_etherWallet;\n    address s_tokenWallet;\n    uint256 s_releaseDelay;\n    uint256 s_maxTokensPerIssueCall;\n\n    struct Account {\n        uint256 nonce;  \n        uint256 balance;\n        uint256 pending;\n        uint256 withdraw;\n        uint256 release;\n        bytes32 secret;\n    }\n\n    mapping(address => Account) s_accounts;\n\n    event TokensIssued(address indexed account, uint256 value, bytes32 secretHash);\n    event TokensAccepted(address indexed account, bool directCall);\n    event Payment(address indexed account, uint256 value);\n    event Deposit(address indexed account, uint256 value);\n    event WithdrawalRequested(address indexed account, uint256 value);\n    event WithdrawalCanceled(address indexed account);\n    event Withdrawal(address indexed account, uint256 value);\n    event EtherTransfered(address indexed to, uint256 value);\n    event TokensTransfered(address indexed to, uint256 value);\n\n    modifier onlyAdmins() {\n        require(msg.sender == owner || msg.sender == s_manager, \"not owner or manager\");\n        _;\n    }\n\n    constructor(address tokenContract) public {\n        s_tokenContract = tokenContract;\n        s_releaseDelay = 240;\n        s_maxTokensPerIssueCall = 10000;\n    }\n\n    function setReleaseDelay(uint256 blocks) public onlyOwner() {\n        require(blocks <= MAX_RELEASE_DELAY, \"exeeds max release delay\");\n        s_releaseDelay = blocks;\n    }\n\n    function setMaxTokensPerIssueCall(uint256 tokens) public onlyOwner() {\n        s_maxTokensPerIssueCall = tokens;\n    }\n\n    /**\n     * @dev Issueing tokens for an address to be used for payments.\n     * The owner of the receiving address must accept via a signed message or a direct call.\n     * @param to The tokens recipeint. \n     * @param value The number of tokens to issue.\n     * @param secretHash The keccak256 of the confirmation secret.\n    */\n    function issueTokens(address to, uint256 value, bytes32 secretHash) public onlyAdmins() {\n        require(value <= availableSupply(), \"not enough available tokens\");\n        require(value <= s_maxTokensPerIssueCall, \"amount exeed max tokens per call\");\n        Account storage sp_account = s_accounts[to];\n        uint256 currentAmount = sp_account.pending;\n        sp_account.secret = secretHash;\n        if (currentAmount > value) {\n            sp_account.pending = value;\n            s_pendingSupply += currentAmount - value;\n        } else if (currentAmount < value) {\n            sp_account.pending = value;\n            s_pendingSupply += value - currentAmount;\n        }\n        emit TokensIssued(to, value, secretHash);\n    }\n\n\n    function issuedPendingTokens(address account) public view returns (uint256) {\n        return s_accounts[account].pending;\n    }\n\n    function _acceptTokens(address recipeint, uint256 value) internal {\n        Account storage sp_account = s_accounts[recipeint];\n        uint256 pending = sp_account.pending;\n        require(pending > 0, \"no pending tokens\");\n        require(pending == value, \"value must equal issued tokens\");\n        sp_account.pending = 0;\n        sp_account.balance += pending;\n        sp_account.secret = 0;\n        s_pendingSupply -= pending;\n    }\n\n    function acceptTokens(uint256 value) public {\n        _acceptTokens(msg.sender, value);\n        emit TokensAccepted(msg.sender, true);\n    }\n\n    function setEtherWallet(address payable etherWallet) public onlyOwner() {\n        s_etherWallet = etherWallet;\n    }\n\n    function setTokenWallet(address tokenWallet) public onlyOwner() {\n        s_tokenWallet = tokenWallet;\n    }\n\n    function transferEther(uint256 value) public onlyAdmins() {\n        require(s_etherWallet != address(0), \"ether wallet not set\");\n        s_etherWallet.transfer(value);\n        emit EtherTransfered(s_etherWallet, value);\n    }\n\n    function transferTokens(uint256 value) public onlyAdmins() {\n        require(s_tokenWallet != address(0), \"token wallet not set\");\n        require(value <= availableSupply(), \"value larget than available tokens\");\n        ERC20(s_tokenContract).transfer(s_tokenWallet, value);\n        emit TokensTransfered(s_tokenWallet, value);\n    }\n\n    function accountNonce(address account) public view returns (uint256) {\n        return s_accounts[account].nonce; \n    }\n\n    function accountBalance(address account) public view returns (uint256) {\n        return s_accounts[account].balance; \n    }\n\n    function generatePaymentMessage(address from, uint256 value)\n        public view\n        returns (bytes memory)\n    {\n        Account storage sp_account = s_accounts[from]; \n        require(sp_account.balance >= value, \"account balnace too low\");\n        return abi.encodePacked(\n            address(this),\n            this.generatePaymentMessage.selector,\n            from,\n            value,\n            sp_account.nonce\n        );\n    }\n\n    function validatePayment(address from, uint256 value, uint8 v, bytes32 r, bytes32 s)\n        public view \n        returns (bool)\n    {\n        bytes32 message  = _messageToRecover(\n            keccak256(generatePaymentMessage(from, value))\n        );\n        address addr = ecrecover(message, v, r, s);\n        return addr == from;      \n    }\n\n    function executePayment(address from, uint256 value, uint8 v, bytes32 r, bytes32 s)\n        public\n        onlyAdmins()\n    {\n        require(validatePayment(from, value, v, r, s), \"wrong signature or data\");\n        Account storage sp_account = s_accounts[from];\n        require(sp_account.nonce != block.timestamp, \"too soon\");\n        sp_account.nonce = block.timestamp;\n        sp_account.balance -= value;\n        s_minSupply -= value;\n        emit Payment(from, value);\n    }\n\n    function generateAcceptTokensMessage(address recipeint, uint256 value, bytes32 secretHash)\n        public view \n        returns (bytes memory)\n    {\n        require(s_accounts[recipeint].secret == secretHash, \"wrong secret hash\");\n        require(s_accounts[recipeint].pending == value, \"value must equal pending(issued tokens)\");\n        return abi.encodePacked(\n            address(this),\n            this.generateAcceptTokensMessage.selector,\n            recipeint,\n            value,\n            secretHash\n        );\n    }\n\n    function validateAcceptTokens(\n        address recipeint,\n        uint256 value,\n        bytes32 secretHash,\n        uint8 v,\n        bytes32 r,\n        bytes32 s\n    )\n        public view \n        returns (bool)\n    {\n        bytes32 message = _messageToRecover(\n            keccak256(generateAcceptTokensMessage(recipeint, value, secretHash))\n        );\n        address addr = ecrecover(message, v, r, s);\n        return addr == recipeint;\n    }\n\n    function executeAcceptTokens(\n        address recipeint,\n        uint256 value,\n        bytes calldata c_secret,\n        uint8 v,\n        bytes32 r,\n        bytes32 s\n    )\n        public \n        onlyAdmins()\n    {\n        require(s_accounts[recipeint].secret == keccak256(c_secret), \"wrong secret\");\n        require(\n            validateAcceptTokens(recipeint, value, keccak256(c_secret), v, r ,s),\n            \"wrong signature or data\"\n        );\n        _acceptTokens(recipeint, value);\n        emit TokensAccepted(recipeint, false);\n    }\n\n    function setManager(address manager) public onlyOwner() {\n        s_manager = manager; \n    }\n  \n    function totalSupply() view public returns (uint256) {\n        return ERC20(s_tokenContract).balanceOf(address(this));\n    }\n\n    function availableSupply() view public returns (uint256) {\n        return ERC20(s_tokenContract).balanceOf(address(this)) - s_minSupply - s_pendingSupply;\n    }\n\n    function deposit(uint256 value) public {\n        require(\n            ERC20(s_tokenContract).allowance(msg.sender, address(this)) >= value,\n            \"ERC20 allowance too low\"\n        );\n        ERC20(s_tokenContract).transferFrom(msg.sender, address(this), value);\n        s_accounts[msg.sender].balance += value;\n        s_minSupply += value;\n        emit Deposit(msg.sender, value);\n    }\n\n    function requestWithdrawal(uint256 value) public {\n        require(s_accounts[msg.sender].balance >= value, \"not enough tokens\");\n        require(value > 0, \"cannot withdraw\");\n        s_accounts[msg.sender].withdraw = value;\n        s_accounts[msg.sender].release = block.number + 240;\n        emit WithdrawalRequested(msg.sender, value);\n    }\n\n    function cancelWithdrawal() public {\n        s_accounts[msg.sender].withdraw = 0;\n        s_accounts[msg.sender].release = 0;\n        emit WithdrawalCanceled(msg.sender);\n    }\n\n    function withdraw() public {\n        Account storage sp_account = s_accounts[msg.sender];   \n        require(sp_account.release > 0, \"no withdraw request\");\n        require(sp_account.release < block.number, \"too soon\");\n        uint256 value = sp_account.withdraw;\n        sp_account.withdraw = 0;\n        sp_account.release = 0;\n        sp_account.balance -= value;\n        s_minSupply -= value;\n        ERC20(s_tokenContract).transfer(msg.sender, value);\n        emit Withdrawal(msg.sender, value);\n    }\n\n    function _messageToRecover(bytes32 hashedUnsignedMessage)\n        private pure \n        returns (bytes32)\n    {\n        bytes memory unsignedMessageBytes = _hashToAscii(\n            hashedUnsignedMessage\n        );\n        bytes memory prefix = \"\\x19Ethereum Signed Message:\\n64\";\n        return keccak256(abi.encodePacked(prefix, unsignedMessageBytes));\n    }\n\n    function _hashToAscii(bytes32 hash) private pure returns (bytes memory) {\n        bytes memory s = new bytes(64);\n        for (uint i = 0; i < 32; i++) {\n            byte  b = hash[i];\n            byte hi = byte(uint8(b) / 16);\n            byte lo = byte(uint8(b) - 16 * uint8(hi));\n            s[2*i] = _char(hi);\n            s[2*i+1] = _char(lo);\n        }\n        return s;\n    }\n\n    function _char(byte b) private pure returns (byte c) {\n        if (b < byte(uint8(10))) {\n            return byte(uint8(b) + 0x30);\n        } else {\n            return byte(uint8(b) + 0x57);\n        }\n    }\n\n}",
  "sourcePath": "/home/tal/code/kirobo/ki-eth-token/contracts/Pool.sol",
  "compiler": {
    "name": "solc",
    "version": "0.6.12+commit.27d51765.Emscripten.clang"
  },
  "schemaVersion": "3.0.23",
  "updatedAt": "2020-08-04T11:24:30.558Z",
  "networkType": "ethereum",
  "devdoc": {
    "kind": "dev",
    "methods": {
      "claimOwnership()": {
        "details": "Allows the pendingOwner address to finalize the transfer."
      },
      "issueTokens(address,uint256,bytes32)": {
        "details": "Issueing tokens for an address to be used for payments. The owner of the receiving address must accept via a signed message or a direct call.",
        "params": {
          "secretHash": "The keccak256 of the confirmation secret.",
          "to": "The tokens recipeint. ",
          "value": "The number of tokens to issue."
        }
      },
      "transferOwnership(address)": {
        "details": "Allows the current owner to set the pendingOwner address.",
        "params": {
          "_newOwner": "The address to transfer ownership to."
        }
      }
    },
    "version": 1
  },
  "userdoc": {
    "kind": "user",
    "methods": {},
    "version": 1
  }
}