{
  "contractName": "Pool",
  "abi": [
    {
      "inputs": [
        {
          "internalType": "address",
          "name": "tokenContract",
          "type": "address"
        }
      ],
      "stateMutability": "nonpayable",
      "type": "constructor"
    },
    {
      "anonymous": false,
      "inputs": [
        {
          "indexed": true,
          "internalType": "address",
          "name": "account",
          "type": "address"
        },
        {
          "indexed": false,
          "internalType": "uint256",
          "name": "value",
          "type": "uint256"
        }
      ],
      "name": "Deposit",
      "type": "event"
    },
    {
      "anonymous": false,
      "inputs": [
        {
          "indexed": true,
          "internalType": "address",
          "name": "to",
          "type": "address"
        },
        {
          "indexed": false,
          "internalType": "uint256",
          "name": "value",
          "type": "uint256"
        }
      ],
      "name": "EtherTransfered",
      "type": "event"
    },
    {
      "anonymous": false,
      "inputs": [
        {
          "indexed": true,
          "internalType": "address",
          "name": "previousOwner",
          "type": "address"
        },
        {
          "indexed": true,
          "internalType": "address",
          "name": "newOwner",
          "type": "address"
        }
      ],
      "name": "OwnershipTransferred",
      "type": "event"
    },
    {
      "anonymous": false,
      "inputs": [
        {
          "indexed": true,
          "internalType": "address",
          "name": "account",
          "type": "address"
        },
        {
          "indexed": false,
          "internalType": "uint256",
          "name": "value",
          "type": "uint256"
        }
      ],
      "name": "Payment",
      "type": "event"
    },
    {
      "anonymous": false,
      "inputs": [
        {
          "indexed": true,
          "internalType": "address",
          "name": "account",
          "type": "address"
        },
        {
          "indexed": false,
          "internalType": "bool",
          "name": "directCall",
          "type": "bool"
        }
      ],
      "name": "TokensAccepted",
      "type": "event"
    },
    {
      "anonymous": false,
      "inputs": [
        {
          "indexed": true,
          "internalType": "address",
          "name": "account",
          "type": "address"
        },
        {
          "indexed": false,
          "internalType": "uint256",
          "name": "value",
          "type": "uint256"
        },
        {
          "indexed": false,
          "internalType": "bytes32",
          "name": "secretHash",
          "type": "bytes32"
        }
      ],
      "name": "TokensIssued",
      "type": "event"
    },
    {
      "anonymous": false,
      "inputs": [
        {
          "indexed": true,
          "internalType": "address",
          "name": "to",
          "type": "address"
        },
        {
          "indexed": false,
          "internalType": "uint256",
          "name": "value",
          "type": "uint256"
        }
      ],
      "name": "TokensTransfered",
      "type": "event"
    },
    {
      "anonymous": false,
      "inputs": [
        {
          "indexed": true,
          "internalType": "address",
          "name": "account",
          "type": "address"
        },
        {
          "indexed": false,
          "internalType": "uint256",
          "name": "value",
          "type": "uint256"
        }
      ],
      "name": "Withdrawal",
      "type": "event"
    },
    {
      "anonymous": false,
      "inputs": [
        {
          "indexed": true,
          "internalType": "address",
          "name": "account",
          "type": "address"
        }
      ],
      "name": "WithdrawalCanceled",
      "type": "event"
    },
    {
      "anonymous": false,
      "inputs": [
        {
          "indexed": true,
          "internalType": "address",
          "name": "account",
          "type": "address"
        },
        {
          "indexed": false,
          "internalType": "uint256",
          "name": "value",
          "type": "uint256"
        }
      ],
      "name": "WithdrawalRequested",
      "type": "event"
    },
    {
      "inputs": [],
      "name": "MAX_RELEASE_DELAY",
      "outputs": [
        {
          "internalType": "uint256",
          "name": "",
          "type": "uint256"
        }
      ],
      "stateMutability": "view",
      "type": "function"
    },
    {
      "inputs": [],
      "name": "VERSION",
      "outputs": [
        {
          "internalType": "uint8",
          "name": "",
          "type": "uint8"
        }
      ],
      "stateMutability": "view",
      "type": "function"
    },
    {
      "inputs": [],
      "name": "claimOwnership",
      "outputs": [],
      "stateMutability": "nonpayable",
      "type": "function"
    },
    {
      "inputs": [
        {
          "internalType": "address",
          "name": "_newOwner",
          "type": "address"
        }
      ],
      "name": "transferOwnership",
      "outputs": [],
      "stateMutability": "nonpayable",
      "type": "function"
    },
    {
      "inputs": [
        {
          "internalType": "address",
          "name": "addr",
          "type": "address"
        }
      ],
      "name": "account",
      "outputs": [
        {
          "internalType": "uint256",
          "name": "nonce",
          "type": "uint256"
        },
        {
          "internalType": "uint256",
          "name": "balance",
          "type": "uint256"
        },
        {
          "internalType": "uint256",
          "name": "pending",
          "type": "uint256"
        },
        {
          "internalType": "uint256",
          "name": "withdraw",
          "type": "uint256"
        },
        {
          "internalType": "uint256",
          "name": "release",
          "type": "uint256"
        },
        {
          "internalType": "bytes32",
          "name": "secretHash",
          "type": "bytes32"
        }
      ],
      "stateMutability": "view",
      "type": "function"
    },
    {
      "inputs": [
        {
          "internalType": "uint256",
          "name": "blocks",
          "type": "uint256"
        }
      ],
      "name": "setReleaseDelay",
      "outputs": [],
      "stateMutability": "nonpayable",
      "type": "function"
    },
    {
      "inputs": [
        {
          "internalType": "uint256",
          "name": "tokens",
          "type": "uint256"
        }
      ],
      "name": "setMaxTokensPerIssue",
      "outputs": [],
      "stateMutability": "nonpayable",
      "type": "function"
    },
    {
      "inputs": [
        {
          "internalType": "address",
          "name": "to",
          "type": "address"
        },
        {
          "internalType": "uint256",
          "name": "value",
          "type": "uint256"
        },
        {
          "internalType": "bytes32",
          "name": "secretHash",
          "type": "bytes32"
        }
      ],
      "name": "issueTokens",
      "outputs": [],
      "stateMutability": "nonpayable",
      "type": "function"
    },
    {
      "inputs": [
        {
          "internalType": "uint256",
          "name": "value",
          "type": "uint256"
        }
      ],
      "name": "acceptTokens",
      "outputs": [],
      "stateMutability": "nonpayable",
      "type": "function"
    },
    {
      "inputs": [
        {
          "internalType": "address payable",
          "name": "etherWallet",
          "type": "address"
        }
      ],
      "name": "setEtherWallet",
      "outputs": [],
      "stateMutability": "nonpayable",
      "type": "function"
    },
    {
      "inputs": [
        {
          "internalType": "address",
          "name": "tokenWallet",
          "type": "address"
        }
      ],
      "name": "setTokenWallet",
      "outputs": [],
      "stateMutability": "nonpayable",
      "type": "function"
    },
    {
      "inputs": [
        {
          "internalType": "uint256",
          "name": "value",
          "type": "uint256"
        }
      ],
      "name": "transferEther",
      "outputs": [],
      "stateMutability": "nonpayable",
      "type": "function"
    },
    {
      "inputs": [
        {
          "internalType": "uint256",
          "name": "value",
          "type": "uint256"
        }
      ],
      "name": "transferTokens",
      "outputs": [],
      "stateMutability": "nonpayable",
      "type": "function"
    },
    {
      "inputs": [
        {
          "internalType": "address",
          "name": "from",
          "type": "address"
        },
        {
          "internalType": "uint256",
          "name": "value",
          "type": "uint256"
        }
      ],
      "name": "generatePaymentMessage",
      "outputs": [
        {
          "internalType": "bytes",
          "name": "",
          "type": "bytes"
        }
      ],
      "stateMutability": "view",
      "type": "function"
    },
    {
      "inputs": [
        {
          "internalType": "address",
          "name": "from",
          "type": "address"
        },
        {
          "internalType": "uint256",
          "name": "value",
          "type": "uint256"
        },
        {
          "internalType": "uint8",
          "name": "v",
          "type": "uint8"
        },
        {
          "internalType": "bytes32",
          "name": "r",
          "type": "bytes32"
        },
        {
          "internalType": "bytes32",
          "name": "s",
          "type": "bytes32"
        }
      ],
      "name": "validatePayment",
      "outputs": [
        {
          "internalType": "bool",
          "name": "",
          "type": "bool"
        }
      ],
      "stateMutability": "view",
      "type": "function"
    },
    {
      "inputs": [
        {
          "internalType": "address",
          "name": "from",
          "type": "address"
        },
        {
          "internalType": "uint256",
          "name": "value",
          "type": "uint256"
        },
        {
          "internalType": "uint8",
          "name": "v",
          "type": "uint8"
        },
        {
          "internalType": "bytes32",
          "name": "r",
          "type": "bytes32"
        },
        {
          "internalType": "bytes32",
          "name": "s",
          "type": "bytes32"
        }
      ],
      "name": "executePayment",
      "outputs": [],
      "stateMutability": "nonpayable",
      "type": "function"
    },
    {
      "inputs": [
        {
          "internalType": "address",
          "name": "recipient",
          "type": "address"
        },
        {
          "internalType": "uint256",
          "name": "value",
          "type": "uint256"
        },
        {
          "internalType": "bytes32",
          "name": "secretHash",
          "type": "bytes32"
        }
      ],
      "name": "generateAcceptTokensMessage",
      "outputs": [
        {
          "internalType": "bytes",
          "name": "",
          "type": "bytes"
        }
      ],
      "stateMutability": "view",
      "type": "function"
    },
    {
      "inputs": [
        {
          "internalType": "address",
          "name": "recipient",
          "type": "address"
        },
        {
          "internalType": "uint256",
          "name": "value",
          "type": "uint256"
        },
        {
          "internalType": "bytes32",
          "name": "secretHash",
          "type": "bytes32"
        },
        {
          "internalType": "uint8",
          "name": "v",
          "type": "uint8"
        },
        {
          "internalType": "bytes32",
          "name": "r",
          "type": "bytes32"
        },
        {
          "internalType": "bytes32",
          "name": "s",
          "type": "bytes32"
        }
      ],
      "name": "validateAcceptTokens",
      "outputs": [
        {
          "internalType": "bool",
          "name": "",
          "type": "bool"
        }
      ],
      "stateMutability": "view",
      "type": "function"
    },
    {
      "inputs": [
        {
          "internalType": "address",
          "name": "recipient",
          "type": "address"
        },
        {
          "internalType": "uint256",
          "name": "value",
          "type": "uint256"
        },
        {
          "internalType": "bytes",
          "name": "c_secret",
          "type": "bytes"
        },
        {
          "internalType": "uint8",
          "name": "v",
          "type": "uint8"
        },
        {
          "internalType": "bytes32",
          "name": "r",
          "type": "bytes32"
        },
        {
          "internalType": "bytes32",
          "name": "s",
          "type": "bytes32"
        }
      ],
      "name": "executeAcceptTokens",
      "outputs": [],
      "stateMutability": "nonpayable",
      "type": "function"
    },
    {
      "inputs": [
        {
          "internalType": "address",
          "name": "manager",
          "type": "address"
        }
      ],
      "name": "setManager",
      "outputs": [],
      "stateMutability": "nonpayable",
      "type": "function"
    },
    {
      "inputs": [],
      "name": "totalSupply",
      "outputs": [
        {
          "internalType": "uint256",
          "name": "",
          "type": "uint256"
        }
      ],
      "stateMutability": "view",
      "type": "function"
    },
    {
      "inputs": [],
      "name": "availableSupply",
      "outputs": [
        {
          "internalType": "uint256",
          "name": "",
          "type": "uint256"
        }
      ],
      "stateMutability": "view",
      "type": "function"
    },
    {
      "inputs": [
        {
          "internalType": "uint256",
          "name": "value",
          "type": "uint256"
        }
      ],
      "name": "deposit",
      "outputs": [],
      "stateMutability": "nonpayable",
      "type": "function"
    },
    {
      "inputs": [
        {
          "internalType": "uint256",
          "name": "value",
          "type": "uint256"
        }
      ],
      "name": "requestWithdrawal",
      "outputs": [],
      "stateMutability": "nonpayable",
      "type": "function"
    },
    {
      "inputs": [],
      "name": "cancelWithdrawal",
      "outputs": [],
      "stateMutability": "nonpayable",
      "type": "function"
    },
    {
      "inputs": [],
      "name": "withdraw",
      "outputs": [],
      "stateMutability": "nonpayable",
      "type": "function"
    }
  ],
  "bytecode": "0x608060405234801561001057600080fd5b506040516136bb3803806136bb8339818101604052602081101561003357600080fd5b8101908080519060200190929190505050336000806101000a81548173ffffffffffffffffffffffffffffffffffffffff021916908373ffffffffffffffffffffffffffffffffffffffff16021790555080600860006101000a81548173ffffffffffffffffffffffffffffffffffffffff021916908373ffffffffffffffffffffffffffffffffffffffff16021790555060f06005819055506127106006819055503073ffffffffffffffffffffffffffffffffffffffff16601060c0600143034060001c901b901c60f8600160ff16901b17176002819055505061359d8061011e6000396000f3fe608060405234801561001057600080fd5b506004361061018e5760003560e01c80639ee679e8116100de578063d0ebdbe711610097578063f2fde38b11610071578063f2fde38b14610818578063fd1f03db1461085c578063fd9a4e61146108e1578063ffa1ad741461090f5761018e565b8063d0ebdbe7146106cc578063e12392d114610710578063ee1f5a7f146107d45761018e565b80639ee679e8146104d6578063a621344a14610504578063ac8aa0c014610548578063b6b55f25146105a0578063c0282006146105ce578063c14d33681461065d5761018e565b806373b9aa911161014b5780637e060b55116101255780637e060b551461043e5780637ecc2b561461046c5780638901e9701461048a5780639b0debbd146104b85761018e565b806373b9aa91146102c457806373ffd5b71461033f57806379d238531461036d5761018e565b806318160ddd146101935780631b56c29c146101b157806322611280146101df5780633ccfd60b146101e957806340b2645d146101f35780634e71e0c8146102ba575b600080fd5b61019b610930565b6040518082815260200191505060405180910390f35b6101dd600480360360208110156101c757600080fd5b81019080803590602001909291905050506109fb565b005b6101e7610a59565b005b6101f1610b2e565b005b61023f6004803603604081101561020957600080fd5b81019080803573ffffffffffffffffffffffffffffffffffffffff16906020019092919080359060200190929190505050610dc4565b6040518080602001828103825283818151815260200191508051906020019080838360005b8381101561027f578082015181840152602081019050610264565b50505050905090810190601f1680156102ac5780820380516001836020036101000a031916815260200191505b509250505060405180910390f35b6102c2610f11565b005b610306600480360360208110156102da57600080fd5b81019080803573ffffffffffffffffffffffffffffffffffffffff169060200190929190505050611116565b60405180878152602001868152602001858152602001848152602001838152602001828152602001965050505050505060405180910390f35b61036b6004803603602081101561035557600080fd5b8101908080359060200190929190505050611196565b005b6103c36004803603606081101561038357600080fd5b81019080803573ffffffffffffffffffffffffffffffffffffffff1690602001909291908035906020019092919080359060200190929190505050611450565b6040518080602001828103825283818151815260200191508051906020019080838360005b838110156104035780820151818401526020810190506103e8565b50505050905090810190601f1680156104305780820380516001836020036101000a031916815260200191505b509250505060405180910390f35b61046a6004803603602081101561045457600080fd5b810190808035906020019092919050505061162d565b005b610474611770565b6040518082815260200191505060405180910390f35b6104b6600480360360208110156104a057600080fd5b8101908080359060200190929190505050611843565b005b6104c061190e565b6040518082815260200191505060405180910390f35b610502600480360360208110156104ec57600080fd5b8101908080359060200190929190505050611914565b005b6105466004803603602081101561051a57600080fd5b81019080803573ffffffffffffffffffffffffffffffffffffffff169060200190929190505050611b24565b005b61059e6004803603606081101561055e57600080fd5b81019080803573ffffffffffffffffffffffffffffffffffffffff1690602001909291908035906020019092919080359060200190929190505050611c29565b005b6105cc600480360360208110156105b657600080fd5b8101908080359060200190929190505050611f65565b005b610645600480360360c08110156105e457600080fd5b81019080803573ffffffffffffffffffffffffffffffffffffffff1690602001909291908035906020019092919080359060200190929190803560ff169060200190929190803590602001909291908035906020019092919050505061228f565b60405180821515815260200191505060405180910390f35b6106ca600480360360a081101561067357600080fd5b81019080803573ffffffffffffffffffffffffffffffffffffffff16906020019092919080359060200190929190803560ff1690602001909291908035906020019092919080359060200190929190505050612353565b005b61070e600480360360208110156106e257600080fd5b81019080803573ffffffffffffffffffffffffffffffffffffffff16906020019092919050505061266e565b005b6107d2600480360360c081101561072657600080fd5b81019080803573ffffffffffffffffffffffffffffffffffffffff169060200190929190803590602001909291908035906020019064010000000081111561076d57600080fd5b82018360208201111561077f57600080fd5b803590602001918460018302840111640100000000831117156107a157600080fd5b9091929391929390803560ff1690602001909291908035906020019092919080359060200190929190505050612773565b005b610816600480360360208110156107ea57600080fd5b81019080803573ffffffffffffffffffffffffffffffffffffffff169060200190929190505050612a63565b005b61085a6004803603602081101561082e57600080fd5b81019080803573ffffffffffffffffffffffffffffffffffffffff169060200190929190505050612b68565b005b6108c9600480360360a081101561087257600080fd5b81019080803573ffffffffffffffffffffffffffffffffffffffff16906020019092919080359060200190929190803560ff1690602001909291908035906020019092919080359060200190929190505050612c6d565b60405180821515815260200191505060405180910390f35b61090d600480360360208110156108f757600080fd5b8101908080359060200190929190505050612d2f565b005b6109176130d1565b604051808260ff16815260200191505060405180910390f35b6000600860009054906101000a900473ffffffffffffffffffffffffffffffffffffffff1673ffffffffffffffffffffffffffffffffffffffff166370a08231306040518263ffffffff1660e01b8152600401808273ffffffffffffffffffffffffffffffffffffffff16815260200191505060206040518083038186803b1580156109bb57600080fd5b505afa1580156109cf573d6000803e3d6000fd5b505050506040513d60208110156109e557600080fd5b8101908080519060200190929190505050905090565b610a0533826130d6565b3373ffffffffffffffffffffffffffffffffffffffff167f87715bcb29dbe27420aab6499f3227b2d0c070e9332c9ea0d7da26a547e48e1d600160405180821515815260200191505060405180910390a250565b6000600b60003373ffffffffffffffffffffffffffffffffffffffff1673ffffffffffffffffffffffffffffffffffffffff168152602001908152602001600020600301819055506000600b60003373ffffffffffffffffffffffffffffffffffffffff1673ffffffffffffffffffffffffffffffffffffffff168152602001908152602001600020600401819055503373ffffffffffffffffffffffffffffffffffffffff167f2c149134fe0030fa8b86362e124b3379a0d5bf7e1c0f487a35a06f89bbf60cee60405160405180910390a2565b6000600b60003373ffffffffffffffffffffffffffffffffffffffff1673ffffffffffffffffffffffffffffffffffffffff16815260200190815260200160002090506000816004015411610beb576040517f08c379a00000000000000000000000000000000000000000000000000000000081526004018080602001828103825260138152602001807f6e6f20776974686472617720726571756573740000000000000000000000000081525060200191505060405180910390fd5b43816004015410610c64576040517f08c379a00000000000000000000000000000000000000000000000000000000081526004018080602001828103825260088152602001807f746f6f20736f6f6e00000000000000000000000000000000000000000000000081525060200191505060405180910390fd5b600081600301549050600082600301819055506000826004018190555080826001016000828254039250508190555080600360008282540392505081905550600860009054906101000a900473ffffffffffffffffffffffffffffffffffffffff1673ffffffffffffffffffffffffffffffffffffffff1663a9059cbb33836040518363ffffffff1660e01b8152600401808373ffffffffffffffffffffffffffffffffffffffff16815260200182815260200192505050602060405180830381600087803b158015610d3657600080fd5b505af1158015610d4a573d6000803e3d6000fd5b505050506040513d6020811015610d6057600080fd5b8101908080519060200190929190505050503373ffffffffffffffffffffffffffffffffffffffff167f7fcf532c15f0a6db0bd6d0e038bea71d30d808c7d98cb3bf7268a95bf5081b65826040518082815260200191505060405180910390a25050565b60606000600b60008573ffffffffffffffffffffffffffffffffffffffff1673ffffffffffffffffffffffffffffffffffffffff16815260200190815260200160002090508281600101541015610e83576040517f08c379a00000000000000000000000000000000000000000000000000000000081526004018080602001828103825260178152602001807f6163636f756e742062616c6e61636520746f6f206c6f7700000000000000000081525060200191505060405180910390fd5b6002546340b2645d60e01b8585846000015460405160200180868152602001857bffffffffffffffffffffffffffffffffffffffffffffffffffffffff191681526004018473ffffffffffffffffffffffffffffffffffffffff1660601b81526014018381526020018281526020019550505050505060405160208183030381529060405291505092915050565b600160009054906101000a900473ffffffffffffffffffffffffffffffffffffffff1673ffffffffffffffffffffffffffffffffffffffff163373ffffffffffffffffffffffffffffffffffffffff1614610fd4576040517f08c379a00000000000000000000000000000000000000000000000000000000081526004018080602001828103825260118152602001807f6e6f742070656e64696e67206f776e657200000000000000000000000000000081525060200191505060405180910390fd5b600160009054906101000a900473ffffffffffffffffffffffffffffffffffffffff1673ffffffffffffffffffffffffffffffffffffffff1660008054906101000a900473ffffffffffffffffffffffffffffffffffffffff1673ffffffffffffffffffffffffffffffffffffffff167f8be0079c531659141344cd1fd0a4f28419497f9722a3daafe3b4186f6b6457e060405160405180910390a3600160009054906101000a900473ffffffffffffffffffffffffffffffffffffffff166000806101000a81548173ffffffffffffffffffffffffffffffffffffffff021916908373ffffffffffffffffffffffffffffffffffffffff1602179055506000600160006101000a81548173ffffffffffffffffffffffffffffffffffffffff021916908373ffffffffffffffffffffffffffffffffffffffff160217905550565b6000806000806000806000600b60008973ffffffffffffffffffffffffffffffffffffffff1673ffffffffffffffffffffffffffffffffffffffff16815260200190815260200160002090508060000154816001015482600201548360030154846004015485600501549650965096509650965096505091939550919395565b60008054906101000a900473ffffffffffffffffffffffffffffffffffffffff1673ffffffffffffffffffffffffffffffffffffffff163373ffffffffffffffffffffffffffffffffffffffff16148061123d5750600760009054906101000a900473ffffffffffffffffffffffffffffffffffffffff1673ffffffffffffffffffffffffffffffffffffffff163373ffffffffffffffffffffffffffffffffffffffff16145b6112af576040517f08c379a00000000000000000000000000000000000000000000000000000000081526004018080602001828103825260148152602001807f6e6f74206f776e6572206f72206d616e6167657200000000000000000000000081525060200191505060405180910390fd5b600073ffffffffffffffffffffffffffffffffffffffff16600a60009054906101000a900473ffffffffffffffffffffffffffffffffffffffff1673ffffffffffffffffffffffffffffffffffffffff161415611374576040517f08c379a00000000000000000000000000000000000000000000000000000000081526004018080602001828103825260148152602001807f65746865722077616c6c6574206e6f742073657400000000000000000000000081525060200191505060405180910390fd5b600a60009054906101000a900473ffffffffffffffffffffffffffffffffffffffff1673ffffffffffffffffffffffffffffffffffffffff166108fc829081150290604051600060405180830381858888f193505050501580156113dc573d6000803e3d6000fd5b50600a60009054906101000a900473ffffffffffffffffffffffffffffffffffffffff1673ffffffffffffffffffffffffffffffffffffffff167fcbbf9d8eccd82bfe565beb740ad23209888d91a194d1ad1eb4add4476e6be45c826040518082815260200191505060405180910390a250565b606081600b60008673ffffffffffffffffffffffffffffffffffffffff1673ffffffffffffffffffffffffffffffffffffffff1681526020019081526020016000206005015414611509576040517f08c379a00000000000000000000000000000000000000000000000000000000081526004018080602001828103825260118152602001807f77726f6e6720736563726574206861736800000000000000000000000000000081525060200191505060405180910390fd5b82600b60008673ffffffffffffffffffffffffffffffffffffffff1673ffffffffffffffffffffffffffffffffffffffff16815260200190815260200160002060020154146115a3576040517f08c379a000000000000000000000000000000000000000000000000000000000815260040180806020018281038252602781526020018061351f6027913960400191505060405180910390fd5b6002546379d2385360e01b85858560405160200180868152602001857bffffffffffffffffffffffffffffffffffffffffffffffffffffffff191681526004018473ffffffffffffffffffffffffffffffffffffffff1660601b81526014018381526020018281526020019550505050505060405160208183030381529060405290509392505050565b60008054906101000a900473ffffffffffffffffffffffffffffffffffffffff1673ffffffffffffffffffffffffffffffffffffffff163373ffffffffffffffffffffffffffffffffffffffff16146116ee576040517f08c379a00000000000000000000000000000000000000000000000000000000081526004018080602001828103825260098152602001807f6e6f74206f776e6572000000000000000000000000000000000000000000000081525060200191505060405180910390fd5b612d00811115611766576040517f08c379a00000000000000000000000000000000000000000000000000000000081526004018080602001828103825260188152602001807f657865656473206d61782072656c656173652064656c6179000000000000000081525060200191505060405180910390fd5b8060058190555050565b6000600454600354600860009054906101000a900473ffffffffffffffffffffffffffffffffffffffff1673ffffffffffffffffffffffffffffffffffffffff166370a08231306040518263ffffffff1660e01b8152600401808273ffffffffffffffffffffffffffffffffffffffff16815260200191505060206040518083038186803b15801561180157600080fd5b505afa158015611815573d6000803e3d6000fd5b505050506040513d602081101561182b57600080fd5b81019080805190602001909291905050500303905090565b60008054906101000a900473ffffffffffffffffffffffffffffffffffffffff1673ffffffffffffffffffffffffffffffffffffffff163373ffffffffffffffffffffffffffffffffffffffff1614611904576040517f08c379a00000000000000000000000000000000000000000000000000000000081526004018080602001828103825260098152602001807f6e6f74206f776e6572000000000000000000000000000000000000000000000081525060200191505060405180910390fd5b8060068190555050565b612d0081565b80600b60003373ffffffffffffffffffffffffffffffffffffffff1673ffffffffffffffffffffffffffffffffffffffff1681526020019081526020016000206001015410156119cc576040517f08c379a00000000000000000000000000000000000000000000000000000000081526004018080602001828103825260118152602001807f6e6f7420656e6f75676820746f6b656e7300000000000000000000000000000081525060200191505060405180910390fd5b60008111611a42576040517f08c379a000000000000000000000000000000000000000000000000000000000815260040180806020018281038252600f8152602001807f63616e6e6f74207769746864726177000000000000000000000000000000000081525060200191505060405180910390fd5b80600b60003373ffffffffffffffffffffffffffffffffffffffff1673ffffffffffffffffffffffffffffffffffffffff1681526020019081526020016000206003018190555060f04301600b60003373ffffffffffffffffffffffffffffffffffffffff1673ffffffffffffffffffffffffffffffffffffffff168152602001908152602001600020600401819055503373ffffffffffffffffffffffffffffffffffffffff167fe670e4e82118d22a1f9ee18920455ebc958bae26a90a05d31d3378788b1b0e44826040518082815260200191505060405180910390a250565b60008054906101000a900473ffffffffffffffffffffffffffffffffffffffff1673ffffffffffffffffffffffffffffffffffffffff163373ffffffffffffffffffffffffffffffffffffffff1614611be5576040517f08c379a00000000000000000000000000000000000000000000000000000000081526004018080602001828103825260098152602001807f6e6f74206f776e6572000000000000000000000000000000000000000000000081525060200191505060405180910390fd5b80600960006101000a81548173ffffffffffffffffffffffffffffffffffffffff021916908373ffffffffffffffffffffffffffffffffffffffff16021790555050565b60008054906101000a900473ffffffffffffffffffffffffffffffffffffffff1673ffffffffffffffffffffffffffffffffffffffff163373ffffffffffffffffffffffffffffffffffffffff161480611cd05750600760009054906101000a900473ffffffffffffffffffffffffffffffffffffffff1673ffffffffffffffffffffffffffffffffffffffff163373ffffffffffffffffffffffffffffffffffffffff16145b611d42576040517f08c379a00000000000000000000000000000000000000000000000000000000081526004018080602001828103825260148152602001807f6e6f74206f776e6572206f72206d616e6167657200000000000000000000000081525060200191505060405180910390fd5b611d4a611770565b821115611dbf576040517f08c379a000000000000000000000000000000000000000000000000000000000815260040180806020018281038252601b8152602001807f6e6f7420656e6f75676820617661696c61626c6520746f6b656e73000000000081525060200191505060405180910390fd5b600654821115611e37576040517f08c379a00000000000000000000000000000000000000000000000000000000081526004018080602001828103825260208152602001807f616d6f756e74206578656564206d617820746f6b656e73207065722063616c6c81525060200191505060405180910390fd5b6000600b60008573ffffffffffffffffffffffffffffffffffffffff1673ffffffffffffffffffffffffffffffffffffffff168152602001908152602001600020905060008160020154905082826005018190555083811115611eb457838260020181905550838103600460008282540192505081905550611ed9565b83811015611ed8578382600201819055508084036004600082825401925050819055505b5b600082600001541415611f08574260206050600143034060001c901b901c60f06001901b171782600001819055505b8473ffffffffffffffffffffffffffffffffffffffff167f39d84c7c6d92b3f4343f76193f77afd39f4de57d13ac90024de77cb03dc2eacb8585604051808381526020018281526020019250505060405180910390a25050505050565b80600860009054906101000a900473ffffffffffffffffffffffffffffffffffffffff1673ffffffffffffffffffffffffffffffffffffffff1663dd62ed3e33306040518363ffffffff1660e01b8152600401808373ffffffffffffffffffffffffffffffffffffffff1681526020018273ffffffffffffffffffffffffffffffffffffffff1681526020019250505060206040518083038186803b15801561200d57600080fd5b505afa158015612021573d6000803e3d6000fd5b505050506040513d602081101561203757600080fd5b810190808051906020019092919050505010156120bc576040517f08c379a00000000000000000000000000000000000000000000000000000000081526004018080602001828103825260178152602001807f455243323020616c6c6f77616e636520746f6f206c6f7700000000000000000081525060200191505060405180910390fd5b600860009054906101000a900473ffffffffffffffffffffffffffffffffffffffff1673ffffffffffffffffffffffffffffffffffffffff166323b872dd3330846040518463ffffffff1660e01b8152600401808473ffffffffffffffffffffffffffffffffffffffff1681526020018373ffffffffffffffffffffffffffffffffffffffff1681526020018281526020019350505050602060405180830381600087803b15801561216d57600080fd5b505af1158015612181573d6000803e3d6000fd5b505050506040513d602081101561219757600080fd5b8101908080519060200190929190505050506000600b60003373ffffffffffffffffffffffffffffffffffffffff1673ffffffffffffffffffffffffffffffffffffffff168152602001908152602001600020905081816001016000828254019250508190555060008160000154141561222d574260206050600143034060001c901b901c60f06001901b171781600001819055505b816003600082825401925050819055503373ffffffffffffffffffffffffffffffffffffffff167fe1fffcc4923d04b559f4d29a8bfc6cda04eb5b0d3c460751c2402c5c5cc9109c836040518082815260200191505060405180910390a25050565b6000806122ac6122a0898989611450565b8051906020012061324b565b9050600060018287878760405160008152602001604052604051808581526020018460ff1681526020018381526020018281526020019450505050506020604051602081039080840390855afa15801561230a573d6000803e3d6000fd5b5050506020604051035190508873ffffffffffffffffffffffffffffffffffffffff168173ffffffffffffffffffffffffffffffffffffffff1614925050509695505050505050565b60008054906101000a900473ffffffffffffffffffffffffffffffffffffffff1673ffffffffffffffffffffffffffffffffffffffff163373ffffffffffffffffffffffffffffffffffffffff1614806123fa5750600760009054906101000a900473ffffffffffffffffffffffffffffffffffffffff1673ffffffffffffffffffffffffffffffffffffffff163373ffffffffffffffffffffffffffffffffffffffff16145b61246c576040517f08c379a00000000000000000000000000000000000000000000000000000000081526004018080602001828103825260148152602001807f6e6f74206f776e6572206f72206d616e6167657200000000000000000000000081525060200191505060405180910390fd5b6124798585858585612c6d565b6124eb576040517f08c379a00000000000000000000000000000000000000000000000000000000081526004018080602001828103825260178152602001807f77726f6e67207369676e6174757265206f72206461746100000000000000000081525060200191505060405180910390fd5b6000600b60008773ffffffffffffffffffffffffffffffffffffffff1673ffffffffffffffffffffffffffffffffffffffff1681526020019081526020016000209050600060f08260000154901c905060004260206050600143034060001c901b901c60f084600101945084901b171790508067ffffffffffffffff16836000015467ffffffffffffffff1614156125eb576040517f08c379a00000000000000000000000000000000000000000000000000000000081526004018080602001828103825260088152602001807f746f6f20736f6f6e00000000000000000000000000000000000000000000000081525060200191505060405180910390fd5b808360000181905550868360010160008282540392505081905550866003600082825403925050819055508773ffffffffffffffffffffffffffffffffffffffff167fd4f43975feb89f48dd30cabbb32011045be187d1e11c8ea9faa43efc35282519886040518082815260200191505060405180910390a25050505050505050565b60008054906101000a900473ffffffffffffffffffffffffffffffffffffffff1673ffffffffffffffffffffffffffffffffffffffff163373ffffffffffffffffffffffffffffffffffffffff161461272f576040517f08c379a00000000000000000000000000000000000000000000000000000000081526004018080602001828103825260098152602001807f6e6f74206f776e6572000000000000000000000000000000000000000000000081525060200191505060405180910390fd5b80600760006101000a81548173ffffffffffffffffffffffffffffffffffffffff021916908373ffffffffffffffffffffffffffffffffffffffff16021790555050565b60008054906101000a900473ffffffffffffffffffffffffffffffffffffffff1673ffffffffffffffffffffffffffffffffffffffff163373ffffffffffffffffffffffffffffffffffffffff16148061281a5750600760009054906101000a900473ffffffffffffffffffffffffffffffffffffffff1673ffffffffffffffffffffffffffffffffffffffff163373ffffffffffffffffffffffffffffffffffffffff16145b61288c576040517f08c379a00000000000000000000000000000000000000000000000000000000081526004018080602001828103825260148152602001807f6e6f74206f776e6572206f72206d616e6167657200000000000000000000000081525060200191505060405180910390fd5b84846040518083838082843780830192505050925050506040518091039020600b60008973ffffffffffffffffffffffffffffffffffffffff1673ffffffffffffffffffffffffffffffffffffffff1681526020019081526020016000206005015414612961576040517f08c379a000000000000000000000000000000000000000000000000000000000815260040180806020018281038252600c8152602001807f77726f6e6720736563726574000000000000000000000000000000000000000081525060200191505060405180910390fd5b61298d87878787604051808383808284378083019250505092505050604051809103902086868661228f565b6129ff576040517f08c379a00000000000000000000000000000000000000000000000000000000081526004018080602001828103825260178152602001807f77726f6e67207369676e6174757265206f72206461746100000000000000000081525060200191505060405180910390fd5b612a0987876130d6565b8673ffffffffffffffffffffffffffffffffffffffff167f87715bcb29dbe27420aab6499f3227b2d0c070e9332c9ea0d7da26a547e48e1d600060405180821515815260200191505060405180910390a250505050505050565b60008054906101000a900473ffffffffffffffffffffffffffffffffffffffff1673ffffffffffffffffffffffffffffffffffffffff163373ffffffffffffffffffffffffffffffffffffffff1614612b24576040517f08c379a00000000000000000000000000000000000000000000000000000000081526004018080602001828103825260098152602001807f6e6f74206f776e6572000000000000000000000000000000000000000000000081525060200191505060405180910390fd5b80600a60006101000a81548173ffffffffffffffffffffffffffffffffffffffff021916908373ffffffffffffffffffffffffffffffffffffffff16021790555050565b60008054906101000a900473ffffffffffffffffffffffffffffffffffffffff1673ffffffffffffffffffffffffffffffffffffffff163373ffffffffffffffffffffffffffffffffffffffff1614612c29576040517f08c379a00000000000000000000000000000000000000000000000000000000081526004018080602001828103825260098152602001807f6e6f74206f776e6572000000000000000000000000000000000000000000000081525060200191505060405180910390fd5b80600160006101000a81548173ffffffffffffffffffffffffffffffffffffffff021916908373ffffffffffffffffffffffffffffffffffffffff16021790555050565b600080612c89612c7d8888610dc4565b8051906020012061324b565b9050600060018287878760405160008152602001604052604051808581526020018460ff1681526020018381526020018281526020019450505050506020604051602081039080840390855afa158015612ce7573d6000803e3d6000fd5b5050506020604051035190508773ffffffffffffffffffffffffffffffffffffffff168173ffffffffffffffffffffffffffffffffffffffff16149250505095945050505050565b60008054906101000a900473ffffffffffffffffffffffffffffffffffffffff1673ffffffffffffffffffffffffffffffffffffffff163373ffffffffffffffffffffffffffffffffffffffff161480612dd65750600760009054906101000a900473ffffffffffffffffffffffffffffffffffffffff1673ffffffffffffffffffffffffffffffffffffffff163373ffffffffffffffffffffffffffffffffffffffff16145b612e48576040517f08c379a00000000000000000000000000000000000000000000000000000000081526004018080602001828103825260148152602001807f6e6f74206f776e6572206f72206d616e6167657200000000000000000000000081525060200191505060405180910390fd5b600073ffffffffffffffffffffffffffffffffffffffff16600960009054906101000a900473ffffffffffffffffffffffffffffffffffffffff1673ffffffffffffffffffffffffffffffffffffffff161415612f0d576040517f08c379a00000000000000000000000000000000000000000000000000000000081526004018080602001828103825260148152602001807f746f6b656e2077616c6c6574206e6f742073657400000000000000000000000081525060200191505060405180910390fd5b612f15611770565b811115612f6d576040517f08c379a00000000000000000000000000000000000000000000000000000000081526004018080602001828103825260228152602001806135466022913960400191505060405180910390fd5b600860009054906101000a900473ffffffffffffffffffffffffffffffffffffffff1673ffffffffffffffffffffffffffffffffffffffff1663a9059cbb600960009054906101000a900473ffffffffffffffffffffffffffffffffffffffff16836040518363ffffffff1660e01b8152600401808373ffffffffffffffffffffffffffffffffffffffff16815260200182815260200192505050602060405180830381600087803b15801561302257600080fd5b505af1158015613036573d6000803e3d6000fd5b505050506040513d602081101561304c57600080fd5b810190808051906020019092919050505050600960009054906101000a900473ffffffffffffffffffffffffffffffffffffffff1673ffffffffffffffffffffffffffffffffffffffff167fa267b5cf59cf96d97abf36d29c63cf7bdef867c208ca8575c47f2cafda39abc9826040518082815260200191505060405180910390a250565b600181565b6000600b60008473ffffffffffffffffffffffffffffffffffffffff1673ffffffffffffffffffffffffffffffffffffffff168152602001908152602001600020905060008160020154905060008111613198576040517f08c379a00000000000000000000000000000000000000000000000000000000081526004018080602001828103825260118152602001807f6e6f2070656e64696e6720746f6b656e7300000000000000000000000000000081525060200191505060405180910390fd5b82811461320d576040517f08c379a000000000000000000000000000000000000000000000000000000000815260040180806020018281038252601e8152602001807f76616c7565206d75737420657175616c2069737375656420746f6b656e73000081525060200191505060405180910390fd5b600082600201819055508082600101600082825401925050819055506000801b82600501819055508060046000828254039250508190555050505050565b6000606061325883613362565b905060606040518060400160405280601c81526020017f19457468657265756d205369676e6564204d6573736167653a0a363400000000815250905080826040516020018083805190602001908083835b602083106132cc57805182526020820191506020810190506020830392506132a9565b6001836020036101000a03801982511681845116808217855250505050505090500182805190602001908083835b6020831061331d57805182526020820191506020810190506020830392506132fa565b6001836020036101000a038019825116818451168082178552505050505050905001925050506040516020818303038152906040528051906020012092505050919050565b606080604067ffffffffffffffff8111801561337d57600080fd5b506040519080825280601f01601f1916602001820160405280156133b05781602001600182028036833780820191505090505b50905060005b602081101561349f5760008482602081106133cd57fe5b1a60f81b9050600060108260f81c60ff16816133e557fe5b0460f81b905060008160f81c6010028360f81c0360f81b9050613407826134a9565b85856002028151811061341657fe5b60200101907effffffffffffffffffffffffffffffffffffffffffffffffffffffffffffff1916908160001a90535061344e816134a9565b85600186600202018151811061346057fe5b60200101907effffffffffffffffffffffffffffffffffffffffffffffffffffffffffffff1916908160001a90535050505080806001019150506133b6565b5080915050919050565b6000600a60f81b7effffffffffffffffffffffffffffffffffffffffffffffffffffffffffffff1916827effffffffffffffffffffffffffffffffffffffffffffffffffffffffffffff1916101561350c5760308260f81c0160f81b9050613519565b60578260f81c0160f81b90505b91905056fe76616c7565206d75737420657175616c2070656e64696e672869737375656420746f6b656e732976616c7565206c6172676574207468616e20617661696c61626c6520746f6b656e73a2646970667358221220f7bf48b92c95afe07fa1634913162462f714abb87d69295e6ee621094ed4fcd264736f6c634300060c0033",
  "immutableReferences": {},
  "source": "// SPDX-License-Identifier: MIT\npragma solidity 0.6.12;\n\nimport \"./IERC20.sol\";\nimport \"./Claimable.sol\";\n\ncontract Pool is Claimable {\n\n    uint8 public constant VERSION = 0x1;\n    uint256 public constant MAX_RELEASE_DELAY = 11_520; // about 48h\n    \n    uint256 s_uid;\n    uint256 s_minSupply;\n    uint256 s_pendingSupply;\n    uint256 s_releaseDelay;\n    uint256 s_maxTokensPerIssue;\n    address s_manager;\n    address s_tokenContract;\n    address s_tokenWallet;\n    address payable s_etherWallet;\n\n    struct Account {\n        uint256 nonce;  \n        uint256 balance;\n        uint256 pending;\n        uint256 withdraw;\n        uint256 release;\n        bytes32 secretHash;\n    }\n\n    mapping(address => Account) s_accounts;\n\n    event TokensIssued(address indexed account, uint256 value, bytes32 secretHash);\n    event TokensAccepted(address indexed account, bool directCall);\n    event Payment(address indexed account, uint256 value);\n    event Deposit(address indexed account, uint256 value);\n    event WithdrawalRequested(address indexed account, uint256 value);\n    event WithdrawalCanceled(address indexed account);\n    event Withdrawal(address indexed account, uint256 value);\n    event EtherTransfered(address indexed to, uint256 value);\n    event TokensTransfered(address indexed to, uint256 value);\n\n    modifier onlyAdmins() {\n        require(msg.sender == owner || msg.sender == s_manager, \"not owner or manager\");\n        _;\n    }\n\n    constructor(address tokenContract) public {\n        s_tokenContract = tokenContract;\n        s_releaseDelay = 240;\n        s_maxTokensPerIssue = 10000;\n        s_uid = (\n          uint256(VERSION) << 248 |\n          uint256(blockhash(block.number-1)) << 192 >> 16 |\n          uint256(address(this))\n        );\n    }\n\n    function account(address addr) public view\n        returns (\n            uint256 nonce,  \n            uint256 balance,\n            uint256 pending,\n            uint256 withdraw,\n            uint256 release,\n            bytes32 secretHash\n        ) \n    {\n        Account storage sp_account = s_accounts[addr];\n        return (\n            sp_account.nonce,\n            sp_account.balance,\n            sp_account.pending,\n            sp_account.withdraw,\n            sp_account.release,\n            sp_account.secretHash\n        );\n    }\n\n    function setReleaseDelay(uint256 blocks) public onlyOwner() {\n        require(blocks <= MAX_RELEASE_DELAY, \"exeeds max release delay\");\n        s_releaseDelay = blocks;\n    }\n\n    function setMaxTokensPerIssue(uint256 tokens) public onlyOwner() {\n        s_maxTokensPerIssue = tokens;\n    }\n\n    /**\n     * @dev Issueing tokens for an address to be used for payments.\n     * The owner of the receiving address must accept via a signed message or a direct call.\n     * @param to The tokens recipient. \n     * @param value The number of tokens to issue.\n     * @param secretHash The keccak256 of the confirmation secret.\n    */\n    function issueTokens(address to, uint256 value, bytes32 secretHash) public onlyAdmins() {\n        require(value <= availableSupply(), \"not enough available tokens\");\n        require(value <= s_maxTokensPerIssue, \"amount exeed max tokens per call\");\n        Account storage sp_account = s_accounts[to];\n        uint256 currentAmount = sp_account.pending;\n        sp_account.secretHash = secretHash;\n        if (currentAmount > value) {\n            sp_account.pending = value;\n            s_pendingSupply += currentAmount - value;\n        } else if (currentAmount < value) {\n            sp_account.pending = value;\n            s_pendingSupply += value - currentAmount;\n        }\n        if (sp_account.nonce == 0) {\n            sp_account.nonce = \n                uint256(1) << 240 |\n                uint256(blockhash(block.number-1)) << 80 >> 32 |\n                block.timestamp;\n        }\n        emit TokensIssued(to, value, secretHash);\n    }\n\n    function _acceptTokens(address recipient, uint256 value) internal {\n        Account storage sp_account = s_accounts[recipient];\n        uint256 pending = sp_account.pending;\n        require(pending > 0, \"no pending tokens\");\n        require(pending == value, \"value must equal issued tokens\");\n        sp_account.pending = 0;\n        sp_account.balance += pending;\n        sp_account.secretHash = 0;\n        s_pendingSupply -= pending;\n    }\n\n    function acceptTokens(uint256 value) public {\n        _acceptTokens(msg.sender, value);\n        emit TokensAccepted(msg.sender, true);\n    }\n\n    function setEtherWallet(address payable etherWallet) public onlyOwner() {\n        s_etherWallet = etherWallet;\n    }\n\n    function setTokenWallet(address tokenWallet) public onlyOwner() {\n        s_tokenWallet = tokenWallet;\n    }\n\n    function transferEther(uint256 value) public onlyAdmins() {\n        require(s_etherWallet != address(0), \"ether wallet not set\");\n        s_etherWallet.transfer(value);\n        emit EtherTransfered(s_etherWallet, value);\n    }\n\n    function transferTokens(uint256 value) public onlyAdmins() {\n        require(s_tokenWallet != address(0), \"token wallet not set\");\n        require(value <= availableSupply(), \"value larget than available tokens\");\n        ERC20(s_tokenContract).transfer(s_tokenWallet, value);\n        emit TokensTransfered(s_tokenWallet, value);\n    }\n\n    function generatePaymentMessage(address from, uint256 value)\n        public view\n        returns (bytes memory)\n    {\n        Account storage sp_account = s_accounts[from]; \n        require(sp_account.balance >= value, \"account balnace too low\");\n        return abi.encodePacked(\n            s_uid,\n            this.generatePaymentMessage.selector,\n            from,\n            value,\n            sp_account.nonce\n        );\n    }\n\n    function validatePayment(address from, uint256 value, uint8 v, bytes32 r, bytes32 s)\n        public view \n        returns (bool)\n    {\n        bytes32 message  = _messageToRecover(\n            keccak256(generatePaymentMessage(from, value))\n        );\n        address addr = ecrecover(message, v, r, s);\n        return addr == from;      \n    }\n\n    function executePayment(address from, uint256 value, uint8 v, bytes32 r, bytes32 s)\n        public\n        onlyAdmins()\n    {\n        require(validatePayment(from, value, v, r, s), \"wrong signature or data\");\n        Account storage sp_account = s_accounts[from];\n        uint256 count = sp_account.nonce >> 240;\n        uint256 nonce = \n            ++count << 240 |\n            uint256(blockhash(block.number-1)) << 80 >> 32 |\n            block.timestamp;\n\n        require(uint64(sp_account.nonce) != uint64(nonce), \"too soon\");\n        \n        sp_account.nonce = nonce;\n        sp_account.balance -= value;\n        s_minSupply -= value;\n        emit Payment(from, value);\n    }\n\n    function generateAcceptTokensMessage(address recipient, uint256 value, bytes32 secretHash)\n        public view \n        returns (bytes memory)\n    {\n        require(s_accounts[recipient].secretHash == secretHash, \"wrong secret hash\");\n        require(s_accounts[recipient].pending == value, \"value must equal pending(issued tokens)\");\n        return abi.encodePacked(\n            s_uid,\n            this.generateAcceptTokensMessage.selector,\n            recipient,\n            value,\n            secretHash\n        );\n    }\n\n    function validateAcceptTokens(\n        address recipient,\n        uint256 value,\n        bytes32 secretHash,\n        uint8 v,\n        bytes32 r,\n        bytes32 s\n    )\n        public view \n        returns (bool)\n    {\n        bytes32 message = _messageToRecover(\n            keccak256(generateAcceptTokensMessage(recipient, value, secretHash))\n        );\n        address addr = ecrecover(message, v, r, s);\n        return addr == recipient;\n    }\n\n    function executeAcceptTokens(\n        address recipient,\n        uint256 value,\n        bytes calldata c_secret,\n        uint8 v,\n        bytes32 r,\n        bytes32 s\n    )\n        public \n        onlyAdmins()\n    {\n        require(s_accounts[recipient].secretHash == keccak256(c_secret), \"wrong secret\");\n        require(\n            validateAcceptTokens(recipient, value, keccak256(c_secret), v, r ,s),\n            \"wrong signature or data\"\n        );\n        _acceptTokens(recipient, value);\n        emit TokensAccepted(recipient, false);\n    }\n\n    function setManager(address manager) public onlyOwner() {\n        s_manager = manager; \n    }\n  \n    function totalSupply() view public returns (uint256) {\n        return ERC20(s_tokenContract).balanceOf(address(this));\n    }\n\n    function availableSupply() view public returns (uint256) {\n        return ERC20(s_tokenContract).balanceOf(address(this)) - s_minSupply - s_pendingSupply;\n    }\n\n    function deposit(uint256 value) public {\n        require(\n            ERC20(s_tokenContract).allowance(msg.sender, address(this)) >= value,\n            \"ERC20 allowance too low\"\n        );\n        ERC20(s_tokenContract).transferFrom(msg.sender, address(this), value);\n        Account storage sp_account = s_accounts[msg.sender]; \n        sp_account.balance += value;\n        if (sp_account.nonce == 0) {\n            sp_account.nonce = \n                uint256(1) << 240 |\n                uint256(blockhash(block.number-1)) << 80 >> 32 |\n                block.timestamp;\n        }\n        s_minSupply += value;\n        \n        emit Deposit(msg.sender, value);\n    }\n\n    function requestWithdrawal(uint256 value) public {\n        require(s_accounts[msg.sender].balance >= value, \"not enough tokens\");\n        require(value > 0, \"cannot withdraw\");\n        s_accounts[msg.sender].withdraw = value;\n        s_accounts[msg.sender].release = block.number + 240;\n        emit WithdrawalRequested(msg.sender, value);\n    }\n\n    function cancelWithdrawal() public {\n        s_accounts[msg.sender].withdraw = 0;\n        s_accounts[msg.sender].release = 0;\n        emit WithdrawalCanceled(msg.sender);\n    }\n\n    function withdraw() public {\n        Account storage sp_account = s_accounts[msg.sender];   \n        require(sp_account.release > 0, \"no withdraw request\");\n        require(sp_account.release < block.number, \"too soon\");\n        uint256 value = sp_account.withdraw;\n        sp_account.withdraw = 0;\n        sp_account.release = 0;\n        sp_account.balance -= value;\n        s_minSupply -= value;\n        ERC20(s_tokenContract).transfer(msg.sender, value);\n        emit Withdrawal(msg.sender, value);\n    }\n\n    function _messageToRecover(bytes32 hashedUnsignedMessage)\n        private pure \n        returns (bytes32)\n    {\n        bytes memory unsignedMessageBytes = _hashToAscii(\n            hashedUnsignedMessage\n        );\n        bytes memory prefix = \"\\x19Ethereum Signed Message:\\n64\";\n        return keccak256(abi.encodePacked(prefix, unsignedMessageBytes));\n    }\n\n    function _hashToAscii(bytes32 hash) private pure returns (bytes memory) {\n        bytes memory s = new bytes(64);\n        for (uint i = 0; i < 32; i++) {\n            byte  b = hash[i];\n            byte hi = byte(uint8(b) / 16);\n            byte lo = byte(uint8(b) - 16 * uint8(hi));\n            s[2*i] = _char(hi);\n            s[2*i+1] = _char(lo);\n        }\n        return s;\n    }\n\n    function _char(byte b) private pure returns (byte c) {\n        if (b < byte(uint8(10))) {\n            return byte(uint8(b) + 0x30);\n        } else {\n            return byte(uint8(b) + 0x57);\n        }\n    }\n\n}",
  "sourcePath": "/Users/Tal/code/kirobo/ki-eth-token/contracts/Pool.sol",
  "compiler": {
    "name": "solc",
    "version": "0.6.12+commit.27d51765.Emscripten.clang"
  },
  "schemaVersion": "3.2.0",
  "updatedAt": "2020-08-05T09:14:27.190Z",
  "devdoc": {
    "kind": "dev",
    "methods": {
      "claimOwnership()": {
        "details": "Allows the pendingOwner address to finalize the transfer."
      },
      "issueTokens(address,uint256,bytes32)": {
        "details": "Issueing tokens for an address to be used for payments. The owner of the receiving address must accept via a signed message or a direct call.",
        "params": {
          "secretHash": "The keccak256 of the confirmation secret.",
          "to": "The tokens recipient. ",
          "value": "The number of tokens to issue."
        }
      },
      "transferOwnership(address)": {
        "details": "Allows the current owner to set the pendingOwner address.",
        "params": {
          "_newOwner": "The address to transfer ownership to."
        }
      }
    },
    "version": 1
  },
  "userdoc": {
    "kind": "user",
    "methods": {},
    "version": 1
  }
}