{
  "contractName": "Pool",
  "abi": [
    {
      "inputs": [
        {
          "internalType": "address",
          "name": "_tokenContract",
          "type": "address"
        }
      ],
      "stateMutability": "nonpayable",
      "type": "constructor"
    },
    {
      "anonymous": false,
      "inputs": [
        {
          "indexed": true,
          "internalType": "address",
          "name": "account",
          "type": "address"
        },
        {
          "indexed": false,
          "internalType": "uint256",
          "name": "value",
          "type": "uint256"
        }
      ],
      "name": "Deposit",
      "type": "event"
    },
    {
      "anonymous": false,
      "inputs": [
        {
          "indexed": true,
          "internalType": "address",
          "name": "to",
          "type": "address"
        },
        {
          "indexed": false,
          "internalType": "uint256",
          "name": "value",
          "type": "uint256"
        }
      ],
      "name": "EtherTransfered",
      "type": "event"
    },
    {
      "anonymous": false,
      "inputs": [
        {
          "indexed": true,
          "internalType": "address",
          "name": "previousOwner",
          "type": "address"
        },
        {
          "indexed": true,
          "internalType": "address",
          "name": "newOwner",
          "type": "address"
        }
      ],
      "name": "OwnershipTransferred",
      "type": "event"
    },
    {
      "anonymous": false,
      "inputs": [
        {
          "indexed": true,
          "internalType": "address",
          "name": "account",
          "type": "address"
        },
        {
          "indexed": false,
          "internalType": "uint256",
          "name": "value",
          "type": "uint256"
        }
      ],
      "name": "Payment",
      "type": "event"
    },
    {
      "anonymous": false,
      "inputs": [
        {
          "indexed": true,
          "internalType": "address",
          "name": "account",
          "type": "address"
        },
        {
          "indexed": false,
          "internalType": "bool",
          "name": "directCall",
          "type": "bool"
        }
      ],
      "name": "TokensAccepted",
      "type": "event"
    },
    {
      "anonymous": false,
      "inputs": [
        {
          "indexed": true,
          "internalType": "address",
          "name": "account",
          "type": "address"
        },
        {
          "indexed": false,
          "internalType": "uint256",
          "name": "value",
          "type": "uint256"
        },
        {
          "indexed": false,
          "internalType": "bytes32",
          "name": "secretHash",
          "type": "bytes32"
        }
      ],
      "name": "TokensIssued",
      "type": "event"
    },
    {
      "anonymous": false,
      "inputs": [
        {
          "indexed": true,
          "internalType": "address",
          "name": "to",
          "type": "address"
        },
        {
          "indexed": false,
          "internalType": "uint256",
          "name": "value",
          "type": "uint256"
        }
      ],
      "name": "TokensTransfered",
      "type": "event"
    },
    {
      "anonymous": false,
      "inputs": [
        {
          "indexed": true,
          "internalType": "address",
          "name": "account",
          "type": "address"
        },
        {
          "indexed": false,
          "internalType": "uint256",
          "name": "value",
          "type": "uint256"
        }
      ],
      "name": "Withdraw",
      "type": "event"
    },
    {
      "anonymous": false,
      "inputs": [
        {
          "indexed": true,
          "internalType": "address",
          "name": "account",
          "type": "address"
        }
      ],
      "name": "WithdrawCanceled",
      "type": "event"
    },
    {
      "anonymous": false,
      "inputs": [
        {
          "indexed": true,
          "internalType": "address",
          "name": "account",
          "type": "address"
        },
        {
          "indexed": false,
          "internalType": "uint256",
          "name": "value",
          "type": "uint256"
        }
      ],
      "name": "WithdrawRequested",
      "type": "event"
    },
    {
      "inputs": [],
      "name": "claimOwnership",
      "outputs": [],
      "stateMutability": "nonpayable",
      "type": "function"
    },
    {
      "inputs": [
        {
          "internalType": "address",
          "name": "_newOwner",
          "type": "address"
        }
      ],
      "name": "transferOwnership",
      "outputs": [],
      "stateMutability": "nonpayable",
      "type": "function"
    },
    {
      "inputs": [
        {
          "internalType": "uint256",
          "name": "_blocks",
          "type": "uint256"
        }
      ],
      "name": "setReleaseDelay",
      "outputs": [],
      "stateMutability": "nonpayable",
      "type": "function"
    },
    {
      "inputs": [
        {
          "internalType": "uint256",
          "name": "_tokens",
          "type": "uint256"
        }
      ],
      "name": "setMaxTokensPerIssueCall",
      "outputs": [],
      "stateMutability": "nonpayable",
      "type": "function"
    },
    {
      "inputs": [
        {
          "internalType": "address",
          "name": "_to",
          "type": "address"
        },
        {
          "internalType": "uint256",
          "name": "_value",
          "type": "uint256"
        },
        {
          "internalType": "bytes32",
          "name": "_secretHash",
          "type": "bytes32"
        }
      ],
      "name": "issueTokens",
      "outputs": [],
      "stateMutability": "nonpayable",
      "type": "function"
    },
    {
      "inputs": [
        {
          "internalType": "address payable",
          "name": "_etherWallet",
          "type": "address"
        }
      ],
      "name": "setEtherWallet",
      "outputs": [],
      "stateMutability": "nonpayable",
      "type": "function"
    },
    {
      "inputs": [
        {
          "internalType": "address",
          "name": "_tokenWallet",
          "type": "address"
        }
      ],
      "name": "setTokenWallet",
      "outputs": [],
      "stateMutability": "nonpayable",
      "type": "function"
    },
    {
      "inputs": [
        {
          "internalType": "uint256",
          "name": "_value",
          "type": "uint256"
        }
      ],
      "name": "transferEther",
      "outputs": [],
      "stateMutability": "nonpayable",
      "type": "function"
    },
    {
      "inputs": [
        {
          "internalType": "uint256",
          "name": "_value",
          "type": "uint256"
        }
      ],
      "name": "transferTokens",
      "outputs": [],
      "stateMutability": "nonpayable",
      "type": "function"
    },
    {
      "inputs": [
        {
          "internalType": "address",
          "name": "_account",
          "type": "address"
        }
      ],
      "name": "accountNonce",
      "outputs": [
        {
          "internalType": "uint256",
          "name": "",
          "type": "uint256"
        }
      ],
      "stateMutability": "view",
      "type": "function",
      "constant": true
    },
    {
      "inputs": [
        {
          "internalType": "address",
          "name": "_account",
          "type": "address"
        }
      ],
      "name": "accountBalance",
      "outputs": [
        {
          "internalType": "uint256",
          "name": "",
          "type": "uint256"
        }
      ],
      "stateMutability": "view",
      "type": "function",
      "constant": true
    },
    {
      "inputs": [
        {
          "internalType": "address",
          "name": "_from",
          "type": "address"
        },
        {
          "internalType": "uint256",
          "name": "_value",
          "type": "uint256"
        }
      ],
      "name": "generatePaymentMessage",
      "outputs": [
        {
          "internalType": "bytes",
          "name": "",
          "type": "bytes"
        }
      ],
      "stateMutability": "view",
      "type": "function",
      "constant": true
    },
    {
      "inputs": [
        {
          "internalType": "address",
          "name": "_from",
          "type": "address"
        },
        {
          "internalType": "uint256",
          "name": "_value",
          "type": "uint256"
        },
        {
          "internalType": "uint8",
          "name": "_v",
          "type": "uint8"
        },
        {
          "internalType": "bytes32",
          "name": "_r",
          "type": "bytes32"
        },
        {
          "internalType": "bytes32",
          "name": "_s",
          "type": "bytes32"
        }
      ],
      "name": "validatePaymentMessage",
      "outputs": [
        {
          "internalType": "bool",
          "name": "",
          "type": "bool"
        }
      ],
      "stateMutability": "view",
      "type": "function",
      "constant": true
    },
    {
      "inputs": [
        {
          "internalType": "address",
          "name": "_from",
          "type": "address"
        },
        {
          "internalType": "uint256",
          "name": "_value",
          "type": "uint256"
        },
        {
          "internalType": "uint8",
          "name": "_v",
          "type": "uint8"
        },
        {
          "internalType": "bytes32",
          "name": "_r",
          "type": "bytes32"
        },
        {
          "internalType": "bytes32",
          "name": "_s",
          "type": "bytes32"
        }
      ],
      "name": "payment",
      "outputs": [],
      "stateMutability": "nonpayable",
      "type": "function"
    },
    {
      "inputs": [
        {
          "internalType": "address",
          "name": "_for",
          "type": "address"
        },
        {
          "internalType": "bytes32",
          "name": "_secretHash",
          "type": "bytes32"
        }
      ],
      "name": "generateAcceptTokensMessage",
      "outputs": [
        {
          "internalType": "bytes",
          "name": "",
          "type": "bytes"
        }
      ],
      "stateMutability": "view",
      "type": "function",
      "constant": true
    },
    {
      "inputs": [
        {
          "internalType": "address",
          "name": "_for",
          "type": "address"
        },
        {
          "internalType": "bytes32",
          "name": "_secretHash",
          "type": "bytes32"
        },
        {
          "internalType": "uint8",
          "name": "_v",
          "type": "uint8"
        },
        {
          "internalType": "bytes32",
          "name": "_r",
          "type": "bytes32"
        },
        {
          "internalType": "bytes32",
          "name": "_s",
          "type": "bytes32"
        }
      ],
      "name": "validateAcceptTokensMessage",
      "outputs": [
        {
          "internalType": "bool",
          "name": "",
          "type": "bool"
        }
      ],
      "stateMutability": "view",
      "type": "function",
      "constant": true
    },
    {
      "inputs": [
        {
          "internalType": "address",
          "name": "_for",
          "type": "address"
        },
        {
          "internalType": "bytes",
          "name": "_secret",
          "type": "bytes"
        },
        {
          "internalType": "uint8",
          "name": "_v",
          "type": "uint8"
        },
        {
          "internalType": "bytes32",
          "name": "_r",
          "type": "bytes32"
        },
        {
          "internalType": "bytes32",
          "name": "_s",
          "type": "bytes32"
        }
      ],
      "name": "acceptTokens",
      "outputs": [],
      "stateMutability": "nonpayable",
      "type": "function"
    },
    {
      "inputs": [],
      "name": "acceptTokens",
      "outputs": [],
      "stateMutability": "nonpayable",
      "type": "function"
    },
    {
      "inputs": [
        {
          "internalType": "address",
          "name": "_manager",
          "type": "address"
        }
      ],
      "name": "setManager",
      "outputs": [],
      "stateMutability": "nonpayable",
      "type": "function"
    },
    {
      "inputs": [],
      "name": "totalSupply",
      "outputs": [
        {
          "internalType": "uint256",
          "name": "",
          "type": "uint256"
        }
      ],
      "stateMutability": "view",
      "type": "function",
      "constant": true
    },
    {
      "inputs": [],
      "name": "availableSupply",
      "outputs": [
        {
          "internalType": "uint256",
          "name": "",
          "type": "uint256"
        }
      ],
      "stateMutability": "view",
      "type": "function",
      "constant": true
    },
    {
      "inputs": [
        {
          "internalType": "uint256",
          "name": "_value",
          "type": "uint256"
        }
      ],
      "name": "deposit",
      "outputs": [],
      "stateMutability": "nonpayable",
      "type": "function"
    },
    {
      "inputs": [
        {
          "internalType": "uint256",
          "name": "_value",
          "type": "uint256"
        }
      ],
      "name": "postWithdraw",
      "outputs": [],
      "stateMutability": "nonpayable",
      "type": "function"
    },
    {
      "inputs": [],
      "name": "cancelWithdraw",
      "outputs": [],
      "stateMutability": "nonpayable",
      "type": "function"
    },
    {
      "inputs": [],
      "name": "withdraw",
      "outputs": [],
      "stateMutability": "nonpayable",
      "type": "function"
    }
  ],
  "bytecode": "0x608060405234801561001057600080fd5b506040516137d93803806137d98339818101604052602081101561003357600080fd5b8101908080519060200190929190505050336000806101000a81548173ffffffffffffffffffffffffffffffffffffffff021916908373ffffffffffffffffffffffffffffffffffffffff16021790555080600260006101000a81548173ffffffffffffffffffffffffffffffffffffffff021916908373ffffffffffffffffffffffffffffffffffffffff16021790555060f0600881905550612710600981905550506136f3806100e66000396000f3fe608060405234801561001057600080fd5b50600436106101735760003560e01c8063a4bc35c1116100de578063d294cb0f11610097578063ee1f5a7f11610071578063ee1f5a7f1461084b578063f2fde38b1461088f578063f5c89c6f146108d3578063fd9a4e61146108dd57610173565b8063d294cb0f14610756578063d6bd3fc1146107ae578063d9e4ed07146107dc57610173565b8063a4bc35c1146104c7578063a621344a1461054c578063abc132f214610590578063ac8aa0c01461068c578063b6b55f25146106e4578063d0ebdbe71461071257610173565b806373ffd5b71161013057806373ffd5b7146103905780637581c27a146103be5780637e060b55146103ec5780637ecc2b561461041a5780637fdbc2841461043857806384b76824146104bd57610173565b8063106cffe21461017857806318160ddd146101d05780633ccfd60b146101ee57806340b2645d146101f85780634e71e0c8146102bf578063635123c8146102c9575b600080fd5b6101ba6004803603602081101561018e57600080fd5b81019080803573ffffffffffffffffffffffffffffffffffffffff16906020019092919050505061090b565b6040518082815260200191505060405180910390f35b6101d8610957565b6040518082815260200191505060405180910390f35b6101f6610a22565b005b6102446004803603604081101561020e57600080fd5b81019080803573ffffffffffffffffffffffffffffffffffffffff16906020019092919080359060200190929190505050610de8565b6040518080602001828103825283818151815260200191508051906020019080838360005b83811015610284578082015181840152602081019050610269565b50505050905090810190601f1680156102b15780820380516001836020036101000a031916815260200191505b509250505060405180910390f35b6102c7610f83565b005b610315600480360360408110156102df57600080fd5b81019080803573ffffffffffffffffffffffffffffffffffffffff16906020019092919080359060200190929190505050611188565b6040518080602001828103825283818151815260200191508051906020019080838360005b8381101561035557808201518184015260208101905061033a565b50505050905090810190601f1680156103825780820380516001836020036101000a031916815260200191505b509250505060405180910390f35b6103bc600480360360208110156103a657600080fd5b81019080803590602001909291905050506112ba565b005b6103ea600480360360208110156103d457600080fd5b8101908080359060200190929190505050611574565b005b6104186004803603602081101561040257600080fd5b810190808035906020019092919050505061163f565b005b610422611782565b6040518082815260200191505060405180910390f35b6104a5600480360360a081101561044e57600080fd5b81019080803573ffffffffffffffffffffffffffffffffffffffff16906020019092919080359060200190929190803560ff1690602001909291908035906020019092919080359060200190929190505050611855565b60405180821515815260200191505060405180910390f35b6104c5611917565b005b610534600480360360a08110156104dd57600080fd5b81019080803573ffffffffffffffffffffffffffffffffffffffff16906020019092919080359060200190929190803560ff16906020019092919080359060200190929190803590602001909291905050506119ec565b60405180821515815260200191505060405180910390f35b61058e6004803603602081101561056257600080fd5b81019080803573ffffffffffffffffffffffffffffffffffffffff169060200190929190505050611aae565b005b61068a600480360360a08110156105a657600080fd5b81019080803573ffffffffffffffffffffffffffffffffffffffff169060200190929190803590602001906401000000008111156105e357600080fd5b8201836020820111156105f557600080fd5b8035906020019184600183028401116401000000008311171561061757600080fd5b91908080601f016020809104026020016040519081016040528093929190818152602001838380828437600081840152601f19601f820116905080830192505050505050509192919290803560ff1690602001909291908035906020019092919080359060200190929190505050611bb3565b005b6106e2600480360360608110156106a257600080fd5b81019080803573ffffffffffffffffffffffffffffffffffffffff1690602001909291908035906020019092919080359060200190929190505050611e71565b005b610710600480360360208110156106fa57600080fd5b8101908080359060200190929190505050612232565b005b6107546004803603602081101561072857600080fd5b81019080803573ffffffffffffffffffffffffffffffffffffffff169060200190929190505050612527565b005b6107986004803603602081101561076c57600080fd5b81019080803573ffffffffffffffffffffffffffffffffffffffff16906020019092919050505061262c565b6040518082815260200191505060405180910390f35b6107da600480360360208110156107c457600080fd5b8101908080359060200190929190505050612678565b005b610849600480360360a08110156107f257600080fd5b81019080803573ffffffffffffffffffffffffffffffffffffffff16906020019092919080359060200190929190803560ff1690602001909291908035906020019092919080359060200190929190505050612888565b005b61088d6004803603602081101561086157600080fd5b81019080803573ffffffffffffffffffffffffffffffffffffffff169060200190929190505050612bd4565b005b6108d1600480360360208110156108a557600080fd5b81019080803573ffffffffffffffffffffffffffffffffffffffff169060200190929190505050612cd9565b005b6108db612dde565b005b610909600480360360208110156108f357600080fd5b8101908080359060200190929190505050612e3a565b005b6000600a60008373ffffffffffffffffffffffffffffffffffffffff1673ffffffffffffffffffffffffffffffffffffffff168152602001908152602001600020600001549050919050565b6000600260009054906101000a900473ffffffffffffffffffffffffffffffffffffffff1673ffffffffffffffffffffffffffffffffffffffff166370a08231306040518263ffffffff1660e01b8152600401808273ffffffffffffffffffffffffffffffffffffffff16815260200191505060206040518083038186803b1580156109e257600080fd5b505afa1580156109f6573d6000803e3d6000fd5b505050506040513d6020811015610a0c57600080fd5b8101908080519060200190929190505050905090565b6000600a60003373ffffffffffffffffffffffffffffffffffffffff1673ffffffffffffffffffffffffffffffffffffffff1681526020019081526020016000206004015411610ada576040517f08c379a00000000000000000000000000000000000000000000000000000000081526004018080602001828103825260138152602001807f6e6f20776974686472617720726571756573740000000000000000000000000081525060200191505060405180910390fd5b43600a60003373ffffffffffffffffffffffffffffffffffffffff1673ffffffffffffffffffffffffffffffffffffffff1681526020019081526020016000206004015410610b91576040517f08c379a00000000000000000000000000000000000000000000000000000000081526004018080602001828103825260088152602001807f746f6f20736f6f6e00000000000000000000000000000000000000000000000081525060200191505060405180910390fd5b6000600a60003373ffffffffffffffffffffffffffffffffffffffff1673ffffffffffffffffffffffffffffffffffffffff1681526020019081526020016000206003015490506000600a60003373ffffffffffffffffffffffffffffffffffffffff1673ffffffffffffffffffffffffffffffffffffffff168152602001908152602001600020600301819055506000600a60003373ffffffffffffffffffffffffffffffffffffffff1673ffffffffffffffffffffffffffffffffffffffff1681526020019081526020016000206004018190555080600a60003373ffffffffffffffffffffffffffffffffffffffff1673ffffffffffffffffffffffffffffffffffffffff1681526020019081526020016000206001016000828254039250508190555080600360008282540392505081905550600260009054906101000a900473ffffffffffffffffffffffffffffffffffffffff1673ffffffffffffffffffffffffffffffffffffffff1663a9059cbb33836040518363ffffffff1660e01b8152600401808373ffffffffffffffffffffffffffffffffffffffff16815260200182815260200192505050602060405180830381600087803b158015610d5b57600080fd5b505af1158015610d6f573d6000803e3d6000fd5b505050506040513d6020811015610d8557600080fd5b8101908080519060200190929190505050503373ffffffffffffffffffffffffffffffffffffffff167f884edad9ce6fa2440d8a54cc123490eb96d2768479d49ff9c7366125a9424364826040518082815260200191505060405180910390a250565b6060610df2613662565b600a60008573ffffffffffffffffffffffffffffffffffffffff1673ffffffffffffffffffffffffffffffffffffffff1681526020019081526020016000206040518060c0016040529081600082015481526020016001820154815260200160028201548152602001600382015481526020016004820154815260200160058201548152505090508281602001511015610ef4576040517f08c379a00000000000000000000000000000000000000000000000000000000081526004018080602001828103825260178152602001807f6163636f756e742062616c6e61636520746f6f206c6f7700000000000000000081525060200191505060405180910390fd5b60023082600001518686604051602001808660ff1660f81b81526001018573ffffffffffffffffffffffffffffffffffffffff1660601b81526014018463ffffffff1660e01b81526004018373ffffffffffffffffffffffffffffffffffffffff1660601b81526014018281526020019550505050505060405160208183030381529060405291505092915050565b600160009054906101000a900473ffffffffffffffffffffffffffffffffffffffff1673ffffffffffffffffffffffffffffffffffffffff163373ffffffffffffffffffffffffffffffffffffffff1614611046576040517f08c379a00000000000000000000000000000000000000000000000000000000081526004018080602001828103825260118152602001807f6e6f742070656e64696e67206f776e657200000000000000000000000000000081525060200191505060405180910390fd5b600160009054906101000a900473ffffffffffffffffffffffffffffffffffffffff1673ffffffffffffffffffffffffffffffffffffffff1660008054906101000a900473ffffffffffffffffffffffffffffffffffffffff1673ffffffffffffffffffffffffffffffffffffffff167f8be0079c531659141344cd1fd0a4f28419497f9722a3daafe3b4186f6b6457e060405160405180910390a3600160009054906101000a900473ffffffffffffffffffffffffffffffffffffffff166000806101000a81548173ffffffffffffffffffffffffffffffffffffffff021916908373ffffffffffffffffffffffffffffffffffffffff1602179055506000600160006101000a81548173ffffffffffffffffffffffffffffffffffffffff021916908373ffffffffffffffffffffffffffffffffffffffff160217905550565b606081600a60008573ffffffffffffffffffffffffffffffffffffffff1673ffffffffffffffffffffffffffffffffffffffff1681526020019081526020016000206005015414611241576040517f08c379a00000000000000000000000000000000000000000000000000000000081526004018080602001828103825260118152602001807f77726f6e6720736563726574206861736800000000000000000000000000000081525060200191505060405180910390fd5b6001308385604051602001808560ff1660f81b81526001018473ffffffffffffffffffffffffffffffffffffffff1660601b81526014018381526020018273ffffffffffffffffffffffffffffffffffffffff1660601b8152601401945050505050604051602081830303815290604052905092915050565b60008054906101000a900473ffffffffffffffffffffffffffffffffffffffff1673ffffffffffffffffffffffffffffffffffffffff163373ffffffffffffffffffffffffffffffffffffffff1614806113615750600560009054906101000a900473ffffffffffffffffffffffffffffffffffffffff1673ffffffffffffffffffffffffffffffffffffffff163373ffffffffffffffffffffffffffffffffffffffff16145b6113d3576040517f08c379a00000000000000000000000000000000000000000000000000000000081526004018080602001828103825260148152602001807f6e6f74206f776e6572206f72206d616e6167657200000000000000000000000081525060200191505060405180910390fd5b600073ffffffffffffffffffffffffffffffffffffffff16600660009054906101000a900473ffffffffffffffffffffffffffffffffffffffff1673ffffffffffffffffffffffffffffffffffffffff161415611498576040517f08c379a00000000000000000000000000000000000000000000000000000000081526004018080602001828103825260148152602001807f65746865722077616c6c6574206e6f742073657400000000000000000000000081525060200191505060405180910390fd5b600660009054906101000a900473ffffffffffffffffffffffffffffffffffffffff1673ffffffffffffffffffffffffffffffffffffffff166108fc829081150290604051600060405180830381858888f19350505050158015611500573d6000803e3d6000fd5b50600660009054906101000a900473ffffffffffffffffffffffffffffffffffffffff1673ffffffffffffffffffffffffffffffffffffffff167fcbbf9d8eccd82bfe565beb740ad23209888d91a194d1ad1eb4add4476e6be45c826040518082815260200191505060405180910390a250565b60008054906101000a900473ffffffffffffffffffffffffffffffffffffffff1673ffffffffffffffffffffffffffffffffffffffff163373ffffffffffffffffffffffffffffffffffffffff1614611635576040517f08c379a00000000000000000000000000000000000000000000000000000000081526004018080602001828103825260098152602001807f6e6f74206f776e6572000000000000000000000000000000000000000000000081525060200191505060405180910390fd5b8060098190555050565b60008054906101000a900473ffffffffffffffffffffffffffffffffffffffff1673ffffffffffffffffffffffffffffffffffffffff163373ffffffffffffffffffffffffffffffffffffffff1614611700576040517f08c379a00000000000000000000000000000000000000000000000000000000081526004018080602001828103825260098152602001807f6e6f74206f776e6572000000000000000000000000000000000000000000000081525060200191505060405180910390fd5b612d00811115611778576040517f08c379a00000000000000000000000000000000000000000000000000000000081526004018080602001828103825260188152602001807f657865656473206d61782072656c656173652064656c6179000000000000000081525060200191505060405180910390fd5b8060088190555050565b6000600454600354600260009054906101000a900473ffffffffffffffffffffffffffffffffffffffff1673ffffffffffffffffffffffffffffffffffffffff166370a08231306040518263ffffffff1660e01b8152600401808273ffffffffffffffffffffffffffffffffffffffff16815260200191505060206040518083038186803b15801561181357600080fd5b505afa158015611827573d6000803e3d6000fd5b505050506040513d602081101561183d57600080fd5b81019080805190602001909291905050500303905090565b6000806118716118658888611188565b805190602001206131dc565b9050600060018287878760405160008152602001604052604051808581526020018460ff1681526020018381526020018281526020019450505050506020604051602081039080840390855afa1580156118cf573d6000803e3d6000fd5b5050506020604051035190508773ffffffffffffffffffffffffffffffffffffffff168173ffffffffffffffffffffffffffffffffffffffff16149250505095945050505050565b6000600a60003373ffffffffffffffffffffffffffffffffffffffff1673ffffffffffffffffffffffffffffffffffffffff168152602001908152602001600020600301819055506000600a60003373ffffffffffffffffffffffffffffffffffffffff1673ffffffffffffffffffffffffffffffffffffffff168152602001908152602001600020600401819055503373ffffffffffffffffffffffffffffffffffffffff167fe4c65151920d34ba91eb49b98f4904c54654d4e5f450dc8387700c09c25a846a60405160405180910390a2565b600080611a086119fc8888610de8565b805190602001206131dc565b9050600060018287878760405160008152602001604052604051808581526020018460ff1681526020018381526020018281526020019450505050506020604051602081039080840390855afa158015611a66573d6000803e3d6000fd5b5050506020604051035190508773ffffffffffffffffffffffffffffffffffffffff168173ffffffffffffffffffffffffffffffffffffffff16149250505095945050505050565b60008054906101000a900473ffffffffffffffffffffffffffffffffffffffff1673ffffffffffffffffffffffffffffffffffffffff163373ffffffffffffffffffffffffffffffffffffffff1614611b6f576040517f08c379a00000000000000000000000000000000000000000000000000000000081526004018080602001828103825260098152602001807f6e6f74206f776e6572000000000000000000000000000000000000000000000081525060200191505060405180910390fd5b80600760006101000a81548173ffffffffffffffffffffffffffffffffffffffff021916908373ffffffffffffffffffffffffffffffffffffffff16021790555050565b60008054906101000a900473ffffffffffffffffffffffffffffffffffffffff1673ffffffffffffffffffffffffffffffffffffffff163373ffffffffffffffffffffffffffffffffffffffff161480611c5a5750600560009054906101000a900473ffffffffffffffffffffffffffffffffffffffff1673ffffffffffffffffffffffffffffffffffffffff163373ffffffffffffffffffffffffffffffffffffffff16145b611ccc576040517f08c379a00000000000000000000000000000000000000000000000000000000081526004018080602001828103825260148152602001807f6e6f74206f776e6572206f72206d616e6167657200000000000000000000000081525060200191505060405180910390fd5b8380519060200120600a60008773ffffffffffffffffffffffffffffffffffffffff1673ffffffffffffffffffffffffffffffffffffffff1681526020019081526020016000206005015414611d8a576040517f08c379a000000000000000000000000000000000000000000000000000000000815260040180806020018281038252600c8152602001807f77726f6e6720736563726574000000000000000000000000000000000000000081525060200191505060405180910390fd5b611d9e858580519060200120858585611855565b611e10576040517f08c379a00000000000000000000000000000000000000000000000000000000081526004018080602001828103825260178152602001807f77726f6e67207369676e6174757265206f72206461746100000000000000000081525060200191505060405180910390fd5b611e19856132f3565b8473ffffffffffffffffffffffffffffffffffffffff167f87715bcb29dbe27420aab6499f3227b2d0c070e9332c9ea0d7da26a547e48e1d600060405180821515815260200191505060405180910390a25050505050565b60008054906101000a900473ffffffffffffffffffffffffffffffffffffffff1673ffffffffffffffffffffffffffffffffffffffff163373ffffffffffffffffffffffffffffffffffffffff161480611f185750600560009054906101000a900473ffffffffffffffffffffffffffffffffffffffff1673ffffffffffffffffffffffffffffffffffffffff163373ffffffffffffffffffffffffffffffffffffffff16145b611f8a576040517f08c379a00000000000000000000000000000000000000000000000000000000081526004018080602001828103825260148152602001807f6e6f74206f776e6572206f72206d616e6167657200000000000000000000000081525060200191505060405180910390fd5b611f92611782565b821115612007576040517f08c379a000000000000000000000000000000000000000000000000000000000815260040180806020018281038252601b8152602001807f6e6f7420656e6f75676820617661696c61626c6520746f6b656e73000000000081525060200191505060405180910390fd5b60095482111561207f576040517f08c379a00000000000000000000000000000000000000000000000000000000081526004018080602001828103825260208152602001807f616d6f756e74206578656564206d617820746f6b656e73207065722063616c6c81525060200191505060405180910390fd5b6000600a60008573ffffffffffffffffffffffffffffffffffffffff1673ffffffffffffffffffffffffffffffffffffffff16815260200190815260200160002060020154905081600a60008673ffffffffffffffffffffffffffffffffffffffff1673ffffffffffffffffffffffffffffffffffffffff16815260200190815260200160002060050181905550828111156121735782600a60008673ffffffffffffffffffffffffffffffffffffffff1673ffffffffffffffffffffffffffffffffffffffff168152602001908152602001600020600201819055508281036004600082825401925050819055506121d6565b828110156121d55782600a60008673ffffffffffffffffffffffffffffffffffffffff1673ffffffffffffffffffffffffffffffffffffffff168152602001908152602001600020600201819055508083036004600082825401925050819055505b5b8373ffffffffffffffffffffffffffffffffffffffff167f39d84c7c6d92b3f4343f76193f77afd39f4de57d13ac90024de77cb03dc2eacb8484604051808381526020018281526020019250505060405180910390a250505050565b80600260009054906101000a900473ffffffffffffffffffffffffffffffffffffffff1673ffffffffffffffffffffffffffffffffffffffff1663dd62ed3e33306040518363ffffffff1660e01b8152600401808373ffffffffffffffffffffffffffffffffffffffff1681526020018273ffffffffffffffffffffffffffffffffffffffff1681526020019250505060206040518083038186803b1580156122da57600080fd5b505afa1580156122ee573d6000803e3d6000fd5b505050506040513d602081101561230457600080fd5b81019080805190602001909291905050501015612389576040517f08c379a00000000000000000000000000000000000000000000000000000000081526004018080602001828103825260178152602001807f455243323020616c6c6f77616e636520746f6f206c6f7700000000000000000081525060200191505060405180910390fd5b600260009054906101000a900473ffffffffffffffffffffffffffffffffffffffff1673ffffffffffffffffffffffffffffffffffffffff166323b872dd3330846040518463ffffffff1660e01b8152600401808473ffffffffffffffffffffffffffffffffffffffff1681526020018373ffffffffffffffffffffffffffffffffffffffff1681526020018281526020019350505050602060405180830381600087803b15801561243a57600080fd5b505af115801561244e573d6000803e3d6000fd5b505050506040513d602081101561246457600080fd5b81019080805190602001909291905050505080600a60003373ffffffffffffffffffffffffffffffffffffffff1673ffffffffffffffffffffffffffffffffffffffff16815260200190815260200160002060010160008282540192505081905550806003600082825401925050819055503373ffffffffffffffffffffffffffffffffffffffff167fe1fffcc4923d04b559f4d29a8bfc6cda04eb5b0d3c460751c2402c5c5cc9109c826040518082815260200191505060405180910390a250565b60008054906101000a900473ffffffffffffffffffffffffffffffffffffffff1673ffffffffffffffffffffffffffffffffffffffff163373ffffffffffffffffffffffffffffffffffffffff16146125e8576040517f08c379a00000000000000000000000000000000000000000000000000000000081526004018080602001828103825260098152602001807f6e6f74206f776e6572000000000000000000000000000000000000000000000081525060200191505060405180910390fd5b80600560006101000a81548173ffffffffffffffffffffffffffffffffffffffff021916908373ffffffffffffffffffffffffffffffffffffffff16021790555050565b6000600a60008373ffffffffffffffffffffffffffffffffffffffff1673ffffffffffffffffffffffffffffffffffffffff168152602001908152602001600020600101549050919050565b80600a60003373ffffffffffffffffffffffffffffffffffffffff1673ffffffffffffffffffffffffffffffffffffffff168152602001908152602001600020600101541015612730576040517f08c379a00000000000000000000000000000000000000000000000000000000081526004018080602001828103825260118152602001807f6e6f7420656e6f75676820746f6b656e7300000000000000000000000000000081525060200191505060405180910390fd5b600081116127a6576040517f08c379a000000000000000000000000000000000000000000000000000000000815260040180806020018281038252600f8152602001807f63616e6e6f74207769746864726177000000000000000000000000000000000081525060200191505060405180910390fd5b80600a60003373ffffffffffffffffffffffffffffffffffffffff1673ffffffffffffffffffffffffffffffffffffffff1681526020019081526020016000206003018190555060f04301600a60003373ffffffffffffffffffffffffffffffffffffffff1673ffffffffffffffffffffffffffffffffffffffff168152602001908152602001600020600401819055503373ffffffffffffffffffffffffffffffffffffffff167ff7774b688d56120b783560a913ee60792a73dfd511812b7be5eccf10d08c6689826040518082815260200191505060405180910390a250565b60008054906101000a900473ffffffffffffffffffffffffffffffffffffffff1673ffffffffffffffffffffffffffffffffffffffff163373ffffffffffffffffffffffffffffffffffffffff16148061292f5750600560009054906101000a900473ffffffffffffffffffffffffffffffffffffffff1673ffffffffffffffffffffffffffffffffffffffff163373ffffffffffffffffffffffffffffffffffffffff16145b6129a1576040517f08c379a00000000000000000000000000000000000000000000000000000000081526004018080602001828103825260148152602001807f6e6f74206f776e6572206f72206d616e6167657200000000000000000000000081525060200191505060405180910390fd5b6129ae85858585856119ec565b612a20576040517f08c379a00000000000000000000000000000000000000000000000000000000081526004018080602001828103825260178152602001807f77726f6e67207369676e6174757265206f72206461746100000000000000000081525060200191505060405180910390fd5b42600a60008773ffffffffffffffffffffffffffffffffffffffff1673ffffffffffffffffffffffffffffffffffffffff168152602001908152602001600020600001541415612ad8576040517f08c379a00000000000000000000000000000000000000000000000000000000081526004018080602001828103825260088152602001807f746f6f20736f6f6e00000000000000000000000000000000000000000000000081525060200191505060405180910390fd5b42600a60008773ffffffffffffffffffffffffffffffffffffffff1673ffffffffffffffffffffffffffffffffffffffff1681526020019081526020016000206000018190555083600a60008773ffffffffffffffffffffffffffffffffffffffff1673ffffffffffffffffffffffffffffffffffffffff16815260200190815260200160002060010160008282540392505081905550836003600082825403925050819055508473ffffffffffffffffffffffffffffffffffffffff167fd4f43975feb89f48dd30cabbb32011045be187d1e11c8ea9faa43efc35282519856040518082815260200191505060405180910390a25050505050565b60008054906101000a900473ffffffffffffffffffffffffffffffffffffffff1673ffffffffffffffffffffffffffffffffffffffff163373ffffffffffffffffffffffffffffffffffffffff1614612c95576040517f08c379a00000000000000000000000000000000000000000000000000000000081526004018080602001828103825260098152602001807f6e6f74206f776e6572000000000000000000000000000000000000000000000081525060200191505060405180910390fd5b80600660006101000a81548173ffffffffffffffffffffffffffffffffffffffff021916908373ffffffffffffffffffffffffffffffffffffffff16021790555050565b60008054906101000a900473ffffffffffffffffffffffffffffffffffffffff1673ffffffffffffffffffffffffffffffffffffffff163373ffffffffffffffffffffffffffffffffffffffff1614612d9a576040517f08c379a00000000000000000000000000000000000000000000000000000000081526004018080602001828103825260098152602001807f6e6f74206f776e6572000000000000000000000000000000000000000000000081525060200191505060405180910390fd5b80600160006101000a81548173ffffffffffffffffffffffffffffffffffffffff021916908373ffffffffffffffffffffffffffffffffffffffff16021790555050565b612de7336132f3565b3373ffffffffffffffffffffffffffffffffffffffff167f87715bcb29dbe27420aab6499f3227b2d0c070e9332c9ea0d7da26a547e48e1d600160405180821515815260200191505060405180910390a2565b60008054906101000a900473ffffffffffffffffffffffffffffffffffffffff1673ffffffffffffffffffffffffffffffffffffffff163373ffffffffffffffffffffffffffffffffffffffff161480612ee15750600560009054906101000a900473ffffffffffffffffffffffffffffffffffffffff1673ffffffffffffffffffffffffffffffffffffffff163373ffffffffffffffffffffffffffffffffffffffff16145b612f53576040517f08c379a00000000000000000000000000000000000000000000000000000000081526004018080602001828103825260148152602001807f6e6f74206f776e6572206f72206d616e6167657200000000000000000000000081525060200191505060405180910390fd5b600073ffffffffffffffffffffffffffffffffffffffff16600760009054906101000a900473ffffffffffffffffffffffffffffffffffffffff1673ffffffffffffffffffffffffffffffffffffffff161415613018576040517f08c379a00000000000000000000000000000000000000000000000000000000081526004018080602001828103825260148152602001807f746f6b656e2077616c6c6574206e6f742073657400000000000000000000000081525060200191505060405180910390fd5b613020611782565b811115613078576040517f08c379a000000000000000000000000000000000000000000000000000000000815260040180806020018281038252602281526020018061369c6022913960400191505060405180910390fd5b600260009054906101000a900473ffffffffffffffffffffffffffffffffffffffff1673ffffffffffffffffffffffffffffffffffffffff1663a9059cbb600760009054906101000a900473ffffffffffffffffffffffffffffffffffffffff16836040518363ffffffff1660e01b8152600401808373ffffffffffffffffffffffffffffffffffffffff16815260200182815260200192505050602060405180830381600087803b15801561312d57600080fd5b505af1158015613141573d6000803e3d6000fd5b505050506040513d602081101561315757600080fd5b810190808051906020019092919050505050600760009054906101000a900473ffffffffffffffffffffffffffffffffffffffff1673ffffffffffffffffffffffffffffffffffffffff167fa267b5cf59cf96d97abf36d29c63cf7bdef867c208ca8575c47f2cafda39abc9826040518082815260200191505060405180910390a250565b600060606131e9836134a6565b905060606040518060400160405280601c81526020017f19457468657265756d205369676e6564204d6573736167653a0a363400000000815250905080826040516020018083805190602001908083835b6020831061325d578051825260208201915060208101905060208303925061323a565b6001836020036101000a03801982511681845116808217855250505050505090500182805190602001908083835b602083106132ae578051825260208201915060208101905060208303925061328b565b6001836020036101000a038019825116818451168082178552505050505050905001925050506040516020818303038152906040528051906020012092505050919050565b6000600a60008373ffffffffffffffffffffffffffffffffffffffff1673ffffffffffffffffffffffffffffffffffffffff168152602001908152602001600020600201549050600081116133b0576040517f08c379a00000000000000000000000000000000000000000000000000000000081526004018080602001828103825260118152602001807f6e6f2070656e64696e6720746f6b656e7300000000000000000000000000000081525060200191505060405180910390fd5b6000600a60008473ffffffffffffffffffffffffffffffffffffffff1673ffffffffffffffffffffffffffffffffffffffff1681526020019081526020016000206002018190555080600a60008473ffffffffffffffffffffffffffffffffffffffff1673ffffffffffffffffffffffffffffffffffffffff168152602001908152602001600020600101600082825401925050819055506000801b600a60008473ffffffffffffffffffffffffffffffffffffffff1673ffffffffffffffffffffffffffffffffffffffff16815260200190815260200160002060050181905550806004600082825403925050819055505050565b606080604067ffffffffffffffff811180156134c157600080fd5b506040519080825280601f01601f1916602001820160405280156134f45781602001600182028036833780820191505090505b50905060005b60208110156135e357600084826020811061351157fe5b1a60f81b9050600060108260f81c60ff168161352957fe5b0460f81b905060008160f81c6010028360f81c0360f81b905061354b826135ed565b85856002028151811061355a57fe5b60200101907effffffffffffffffffffffffffffffffffffffffffffffffffffffffffffff1916908160001a905350613592816135ed565b8560018660020201815181106135a457fe5b60200101907effffffffffffffffffffffffffffffffffffffffffffffffffffffffffffff1916908160001a90535050505080806001019150506134fa565b5080915050919050565b6000600a60f81b7effffffffffffffffffffffffffffffffffffffffffffffffffffffffffffff1916827effffffffffffffffffffffffffffffffffffffffffffffffffffffffffffff191610156136505760308260f81c0160f81b905061365d565b60578260f81c0160f81b90505b919050565b6040518060c00160405280600081526020016000815260200160008152602001600081526020016000815260200160008019168152509056fe76616c7565206c6172676574207468616e20617661696c61626c6520746f6b656e73a26469706673582212200c9bd171678249a759be0a8364f0c2aa8e2b42cf7898dc4c60332b6be098be0364736f6c634300060c0033",
  "source": "// SPDX-License-Identifier: MIT\npragma solidity 0.6.12;\n\nimport \"./IERC20.sol\";\nimport \"./Claimable.sol\";\n\ncontract Pool is Claimable {\n\n    uint256 constant MAX_RELEASE_DELAY = 11_520; // about 48h\n    \n    address tokenContract;\n    uint256 minSupply;\n    uint256 pendingSupply;\n    address manager;\n    address payable etherWallet;\n    address tokenWallet;\n    uint256 releaseDelay;\n    uint256 maxTokensPerIssueCall;\n\n    struct Account {\n        uint256 nonce;  \n        uint256 balance;\n        uint256 pending;\n        uint256 withdraw;\n        uint256 release;\n        bytes32 secret;\n    }\n\n    mapping(address => Account) accounts;\n\n    constructor(address _tokenContract) public {\n        tokenContract = _tokenContract;\n        releaseDelay = 240;\n        maxTokensPerIssueCall = 10000;\n    }\n\n    event TokensIssued(address indexed account, uint256 value, bytes32 secretHash);\n    event TokensAccepted(address indexed account, bool directCall);\n    event Payment(address indexed account, uint256 value);\n    event Deposit(address indexed account, uint256 value);\n    event WithdrawRequested(address indexed account, uint256 value);\n    event WithdrawCanceled(address indexed account);\n    event Withdraw(address indexed account, uint256 value);\n    event EtherTransfered(address indexed to, uint256 value);\n    event TokensTransfered(address indexed to, uint256 value);\n\n    modifier onlyAdmins() {\n        require(msg.sender == owner || msg.sender == manager, \"not owner or manager\");\n        _;\n    }\n\n    function setReleaseDelay(uint256 _blocks) public onlyOwner() {\n        require(_blocks <= MAX_RELEASE_DELAY, \"exeeds max release delay\");\n        releaseDelay = _blocks;\n    }\n\n    function setMaxTokensPerIssueCall(uint256 _tokens) public onlyOwner() {\n        maxTokensPerIssueCall = _tokens;\n    }\n\n    function issueTokens(address _to, uint256 _value, bytes32 _secretHash) public onlyAdmins() {\n        require(_value <= availableSupply(), \"not enough available tokens\");\n        require(_value <= maxTokensPerIssueCall, \"amount exeed max tokens per call\");\n        uint256 _currentAmount = accounts[_to].pending;\n        accounts[_to].secret = _secretHash;\n        if (_currentAmount > _value) {\n            accounts[_to].pending = _value;\n            pendingSupply += _currentAmount - _value;\n        } else if (_currentAmount < _value) {\n            accounts[_to].pending = _value;\n            pendingSupply += _value - _currentAmount;\n        }\n        emit TokensIssued(_to, _value, _secretHash);\n    }\n\n    function _acceptTokens(address _account) internal {\n        uint256 _pending = accounts[_account].pending;\n        require(_pending > 0, \"no pending tokens\");\n        accounts[_account].pending = 0;\n        accounts[_account].balance += _pending;\n        accounts[_account].secret = 0;\n        pendingSupply -= _pending;\n    }\n\n    function acceptTokens() public {\n        _acceptTokens(msg.sender);\n        emit TokensAccepted(msg.sender, true);\n    }\n\n    function setEtherWallet(address payable _etherWallet) public onlyOwner() {\n        etherWallet = _etherWallet;\n    }\n\n    function setTokenWallet(address _tokenWallet) public onlyOwner() {\n        tokenWallet = _tokenWallet;\n    }\n\n    function transferEther(uint256 _value) public onlyAdmins() {\n        require(etherWallet != address(0), \"ether wallet not set\");\n        etherWallet.transfer(_value);\n        emit EtherTransfered(etherWallet, _value);\n    }\n\n    function transferTokens(uint256 _value) public onlyAdmins() {\n        require(tokenWallet != address(0), \"token wallet not set\");\n        require(_value <= availableSupply(), \"value larget than available tokens\");\n        ERC20(tokenContract).transfer(tokenWallet, _value);\n        emit TokensTransfered(tokenWallet, _value);\n    }\n\n    function accountNonce(address _account) public view returns (uint256) {\n        return accounts[_account].nonce; \n    }\n\n    function accountBalance(address _account) public view returns (uint256) {\n        return accounts[_account].balance; \n    }\n\n    function generatePaymentMessage(address _from, uint256 _value) public view returns (bytes memory) {\n        Account memory _account = accounts[_from]; \n        require(_account.balance >= _value, \"account balnace too low\");\n        return abi.encodePacked(\n                uint8(0x2),\n                this,\n                uint32(_account.nonce),\n                _from,\n                _value\n        );\n    }\n\n    function validatePaymentMessage(address _from, uint256 _value, uint8 _v, bytes32 _r, bytes32 _s) public view returns (bool) {\n        bytes32 message  = _messageToRecover(keccak256(generatePaymentMessage(_from, _value)));\n        address addr = ecrecover(message, _v, _r, _s);\n        return addr == _from;      \n    }\n\n    function payment(address _from, uint256 _value, uint8 _v, bytes32 _r, bytes32 _s) public onlyAdmins() {\n        require(validatePaymentMessage(_from, _value, _v, _r, _s), \"wrong signature or data\");\n        require(accounts[_from].nonce != block.timestamp, \"too soon\");\n        accounts[_from].nonce = block.timestamp;\n        accounts[_from]. balance -= _value;\n        minSupply -= _value;\n        emit Payment(_from, _value);\n    }\n\n    function generateAcceptTokensMessage(address _for, bytes32 _secretHash) public view returns (bytes memory) {\n        require(accounts[_for].secret == _secretHash, \"wrong secret hash\");\n        return  abi.encodePacked(\n                uint8(0x1),\n                this,\n                _secretHash,\n                _for\n        );\n    }\n\n    function validateAcceptTokensMessage(address _for, bytes32 _secretHash, uint8 _v, bytes32 _r, bytes32 _s) public view returns (bool) {\n        bytes32 message  = _messageToRecover(keccak256(generateAcceptTokensMessage(_for, _secretHash)));\n        address addr = ecrecover(message, _v, _r, _s);\n        return addr == _for;\n    }\n\n    function acceptTokens(address _for, bytes memory _secret, uint8 _v, bytes32 _r, bytes32 _s) public onlyAdmins() {\n        require(accounts[_for].secret == keccak256(_secret), \"wrong secret\");\n        require(validateAcceptTokensMessage(_for, keccak256(_secret), _v, _r ,_s), \"wrong signature or data\");\n        _acceptTokens(_for);\n        emit TokensAccepted(_for, false);\n    }\n\n    function setManager(address _manager) public onlyOwner() {\n        manager = _manager; \n    }\n  \n    function totalSupply() view public returns (uint256) {\n        return ERC20(tokenContract).balanceOf(address(this));\n    }\n\n    function availableSupply() view public returns (uint256) {\n        return ERC20(tokenContract).balanceOf(address(this)) - minSupply - pendingSupply;\n    }\n\n    function deposit(uint256 _value) public {\n        require(ERC20(tokenContract).allowance(msg.sender, address(this)) >= _value, \"ERC20 allowance too low\");\n        ERC20(tokenContract).transferFrom(msg.sender, address(this), _value);\n        accounts[msg.sender].balance += _value;\n        minSupply += _value;\n        emit Deposit(msg.sender, _value);\n    }\n\n    function postWithdraw(uint256 _value) public {\n        require(accounts[msg.sender].balance >= _value, \"not enough tokens\");\n        require(_value > 0, \"cannot withdraw\");\n        accounts[msg.sender].withdraw = _value;\n        accounts[msg.sender].release = block.number + 240;\n        emit WithdrawRequested(msg.sender, _value);\n    }\n\n    function cancelWithdraw() public {\n        accounts[msg.sender].withdraw = 0;\n        accounts[msg.sender].release = 0;\n        emit WithdrawCanceled(msg.sender);\n    }\n\n    function withdraw() public {\n        require(accounts[msg.sender].release > 0, \"no withdraw request\");\n        require(accounts[msg.sender].release < block.number, \"too soon\");\n        uint256 value = accounts[msg.sender].withdraw;\n        accounts[msg.sender].withdraw = 0;\n        accounts[msg.sender].release = 0;\n        accounts[msg.sender].balance -= value;\n        minSupply -= value;\n        ERC20(tokenContract).transfer(msg.sender, value);\n        emit Withdraw(msg.sender, value);\n    }\n\n    function _messageToRecover(bytes32 hashedUnsignedMessage) private pure returns (bytes32)\n    {\n        bytes memory unsignedMessageBytes = _hashToAscii(\n            hashedUnsignedMessage\n        );\n        bytes memory prefix = \"\\x19Ethereum Signed Message:\\n64\";\n        return keccak256(abi.encodePacked(prefix, unsignedMessageBytes));\n    }\n\n    function _hashToAscii(bytes32 hash) private pure returns (bytes memory) {\n        bytes memory s = new bytes(64);\n        for (uint i = 0; i < 32; i++) {\n            byte  b = hash[i];\n            byte hi = byte(uint8(b) / 16);\n            byte lo = byte(uint8(b) - 16 * uint8(hi));\n            s[2*i] = _char(hi);\n            s[2*i+1] = _char(lo);\n        }\n        return s;\n    }\n\n    function _char(byte b) private pure returns (byte c) {\n        if (b < byte(uint8(10))) {\n            return byte(uint8(b) + 0x30);\n        } else {\n            return byte(uint8(b) + 0x57);\n        }\n    }\n\n}",
  "sourcePath": "/home/tal/code/kirobo/ki-eth-token/contracts/Pool.sol",
  "compiler": {
    "name": "solc",
    "version": "0.6.12+commit.27d51765.Emscripten.clang"
  },
  "schemaVersion": "3.0.23",
  "updatedAt": "2020-08-03T17:48:00.451Z",
  "networkType": "ethereum",
  "devdoc": {
    "kind": "dev",
    "methods": {
      "claimOwnership()": {
        "details": "Allows the pendingOwner address to finalize the transfer."
      },
      "transferOwnership(address)": {
        "details": "Allows the current owner to set the pendingOwner address.",
        "params": {
          "_newOwner": "The address to transfer ownership to."
        }
      }
    },
    "version": 1
  },
  "userdoc": {
    "kind": "user",
    "methods": {},
    "version": 1
  }
}