{
  "contractName": "SafeSwap",
  "abi": [
    {
      "inputs": [
        {
          "internalType": "address",
          "name": "activator",
          "type": "address"
        }
      ],
      "stateMutability": "nonpayable",
      "type": "constructor"
    },
    {
      "anonymous": false,
      "inputs": [
        {
          "indexed": true,
          "internalType": "address",
          "name": "from",
          "type": "address"
        },
        {
          "indexed": true,
          "internalType": "address",
          "name": "to",
          "type": "address"
        },
        {
          "indexed": true,
          "internalType": "address",
          "name": "token0",
          "type": "address"
        },
        {
          "indexed": false,
          "internalType": "uint256",
          "name": "value0",
          "type": "uint256"
        },
        {
          "indexed": false,
          "internalType": "uint256",
          "name": "fees0",
          "type": "uint256"
        },
        {
          "indexed": false,
          "internalType": "address",
          "name": "token1",
          "type": "address"
        },
        {
          "indexed": false,
          "internalType": "uint256",
          "name": "value1",
          "type": "uint256"
        },
        {
          "indexed": false,
          "internalType": "uint256",
          "name": "fees1",
          "type": "uint256"
        },
        {
          "indexed": false,
          "internalType": "bytes32",
          "name": "secretHash",
          "type": "bytes32"
        }
      ],
      "name": "Deposited",
      "type": "event"
    },
    {
      "anonymous": false,
      "inputs": [
        {
          "indexed": true,
          "internalType": "address",
          "name": "from",
          "type": "address"
        },
        {
          "indexed": true,
          "internalType": "address",
          "name": "to",
          "type": "address"
        },
        {
          "indexed": true,
          "internalType": "address",
          "name": "token0",
          "type": "address"
        },
        {
          "indexed": false,
          "internalType": "uint256",
          "name": "value0",
          "type": "uint256"
        },
        {
          "indexed": false,
          "internalType": "uint256",
          "name": "fees0",
          "type": "uint256"
        },
        {
          "indexed": false,
          "internalType": "address",
          "name": "token1",
          "type": "address"
        },
        {
          "indexed": false,
          "internalType": "uint256",
          "name": "value1",
          "type": "uint256"
        },
        {
          "indexed": false,
          "internalType": "uint256",
          "name": "fees1",
          "type": "uint256"
        },
        {
          "indexed": false,
          "internalType": "bytes32",
          "name": "secretHash",
          "type": "bytes32"
        }
      ],
      "name": "ERC721Deposited",
      "type": "event"
    },
    {
      "anonymous": false,
      "inputs": [
        {
          "indexed": true,
          "internalType": "address",
          "name": "token",
          "type": "address"
        },
        {
          "indexed": true,
          "internalType": "address",
          "name": "from",
          "type": "address"
        },
        {
          "indexed": true,
          "internalType": "address",
          "name": "to",
          "type": "address"
        },
        {
          "indexed": false,
          "internalType": "bytes32",
          "name": "id",
          "type": "bytes32"
        },
        {
          "indexed": false,
          "internalType": "uint256",
          "name": "tokenId",
          "type": "uint256"
        }
      ],
      "name": "ERC721Retrieved",
      "type": "event"
    },
    {
      "anonymous": false,
      "inputs": [
        {
          "indexed": true,
          "internalType": "address",
          "name": "from",
          "type": "address"
        },
        {
          "indexed": true,
          "internalType": "address",
          "name": "to",
          "type": "address"
        },
        {
          "indexed": true,
          "internalType": "address",
          "name": "token0",
          "type": "address"
        },
        {
          "indexed": false,
          "internalType": "uint256",
          "name": "value0",
          "type": "uint256"
        },
        {
          "indexed": false,
          "internalType": "address",
          "name": "token1",
          "type": "address"
        },
        {
          "indexed": false,
          "internalType": "uint256",
          "name": "value1",
          "type": "uint256"
        },
        {
          "indexed": false,
          "internalType": "bytes32",
          "name": "id",
          "type": "bytes32"
        }
      ],
      "name": "ERC721Swapped",
      "type": "event"
    },
    {
      "anonymous": false,
      "inputs": [
        {
          "indexed": true,
          "internalType": "address",
          "name": "from",
          "type": "address"
        },
        {
          "indexed": true,
          "internalType": "address",
          "name": "to",
          "type": "address"
        },
        {
          "indexed": true,
          "internalType": "address",
          "name": "token0",
          "type": "address"
        },
        {
          "indexed": false,
          "internalType": "uint256",
          "name": "value0",
          "type": "uint256"
        },
        {
          "indexed": false,
          "internalType": "uint256",
          "name": "fees0",
          "type": "uint256"
        },
        {
          "indexed": false,
          "internalType": "address",
          "name": "token1",
          "type": "address"
        },
        {
          "indexed": false,
          "internalType": "uint256",
          "name": "value1",
          "type": "uint256"
        },
        {
          "indexed": false,
          "internalType": "uint256",
          "name": "fees1",
          "type": "uint256"
        },
        {
          "indexed": false,
          "internalType": "bytes32",
          "name": "secretHash",
          "type": "bytes32"
        },
        {
          "indexed": false,
          "internalType": "uint64",
          "name": "availableAt",
          "type": "uint64"
        },
        {
          "indexed": false,
          "internalType": "uint64",
          "name": "expiresAt",
          "type": "uint64"
        },
        {
          "indexed": false,
          "internalType": "uint128",
          "name": "autoRetrieveFees",
          "type": "uint128"
        }
      ],
      "name": "ERC721TimedDeposited",
      "type": "event"
    },
    {
      "anonymous": false,
      "inputs": [
        {
          "indexed": true,
          "internalType": "address",
          "name": "from",
          "type": "address"
        },
        {
          "indexed": false,
          "internalType": "uint256",
          "name": "value",
          "type": "uint256"
        },
        {
          "indexed": true,
          "internalType": "bytes32",
          "name": "id1",
          "type": "bytes32"
        }
      ],
      "name": "HDeposited",
      "type": "event"
    },
    {
      "anonymous": false,
      "inputs": [
        {
          "indexed": true,
          "internalType": "address",
          "name": "from",
          "type": "address"
        },
        {
          "indexed": true,
          "internalType": "address",
          "name": "to",
          "type": "address"
        },
        {
          "indexed": true,
          "internalType": "bytes32",
          "name": "id1",
          "type": "bytes32"
        },
        {
          "indexed": false,
          "internalType": "address",
          "name": "token0",
          "type": "address"
        },
        {
          "indexed": false,
          "internalType": "uint256",
          "name": "value0",
          "type": "uint256"
        },
        {
          "indexed": false,
          "internalType": "address",
          "name": "token1",
          "type": "address"
        },
        {
          "indexed": false,
          "internalType": "uint256",
          "name": "value1",
          "type": "uint256"
        }
      ],
      "name": "HERC721Swapped",
      "type": "event"
    },
    {
      "anonymous": false,
      "inputs": [
        {
          "indexed": true,
          "internalType": "address",
          "name": "from",
          "type": "address"
        },
        {
          "indexed": true,
          "internalType": "bytes32",
          "name": "id1",
          "type": "bytes32"
        },
        {
          "indexed": false,
          "internalType": "uint256",
          "name": "value",
          "type": "uint256"
        }
      ],
      "name": "HRetrieved",
      "type": "event"
    },
    {
      "anonymous": false,
      "inputs": [
        {
          "indexed": true,
          "internalType": "address",
          "name": "from",
          "type": "address"
        },
        {
          "indexed": true,
          "internalType": "address",
          "name": "to",
          "type": "address"
        },
        {
          "indexed": true,
          "internalType": "bytes32",
          "name": "id1",
          "type": "bytes32"
        },
        {
          "indexed": false,
          "internalType": "address",
          "name": "token0",
          "type": "address"
        },
        {
          "indexed": false,
          "internalType": "uint256",
          "name": "value0",
          "type": "uint256"
        },
        {
          "indexed": false,
          "internalType": "address",
          "name": "token1",
          "type": "address"
        },
        {
          "indexed": false,
          "internalType": "uint256",
          "name": "value1",
          "type": "uint256"
        }
      ],
      "name": "HSwapped",
      "type": "event"
    },
    {
      "anonymous": false,
      "inputs": [
        {
          "indexed": true,
          "internalType": "address",
          "name": "from",
          "type": "address"
        },
        {
          "indexed": false,
          "internalType": "uint256",
          "name": "value",
          "type": "uint256"
        },
        {
          "indexed": true,
          "internalType": "bytes32",
          "name": "id1",
          "type": "bytes32"
        },
        {
          "indexed": false,
          "internalType": "uint64",
          "name": "availableAt",
          "type": "uint64"
        },
        {
          "indexed": false,
          "internalType": "uint64",
          "name": "expiresAt",
          "type": "uint64"
        },
        {
          "indexed": false,
          "internalType": "uint128",
          "name": "autoRetrieveFees",
          "type": "uint128"
        }
      ],
      "name": "HTimedDeposited",
      "type": "event"
    },
    {
      "anonymous": false,
      "inputs": [
        {
          "indexed": true,
          "internalType": "address",
          "name": "from",
          "type": "address"
        },
        {
          "indexed": true,
          "internalType": "address",
          "name": "to",
          "type": "address"
        },
        {
          "indexed": true,
          "internalType": "bytes32",
          "name": "id",
          "type": "bytes32"
        },
        {
          "indexed": false,
          "internalType": "uint256",
          "name": "value",
          "type": "uint256"
        }
      ],
      "name": "Retrieved",
      "type": "event"
    },
    {
      "anonymous": false,
      "inputs": [
        {
          "indexed": true,
          "internalType": "bytes32",
          "name": "role",
          "type": "bytes32"
        },
        {
          "indexed": true,
          "internalType": "bytes32",
          "name": "previousAdminRole",
          "type": "bytes32"
        },
        {
          "indexed": true,
          "internalType": "bytes32",
          "name": "newAdminRole",
          "type": "bytes32"
        }
      ],
      "name": "RoleAdminChanged",
      "type": "event"
    },
    {
      "anonymous": false,
      "inputs": [
        {
          "indexed": true,
          "internalType": "bytes32",
          "name": "role",
          "type": "bytes32"
        },
        {
          "indexed": true,
          "internalType": "address",
          "name": "account",
          "type": "address"
        },
        {
          "indexed": true,
          "internalType": "address",
          "name": "sender",
          "type": "address"
        }
      ],
      "name": "RoleGranted",
      "type": "event"
    },
    {
      "anonymous": false,
      "inputs": [
        {
          "indexed": true,
          "internalType": "bytes32",
          "name": "role",
          "type": "bytes32"
        },
        {
          "indexed": true,
          "internalType": "address",
          "name": "account",
          "type": "address"
        },
        {
          "indexed": true,
          "internalType": "address",
          "name": "sender",
          "type": "address"
        }
      ],
      "name": "RoleRevoked",
      "type": "event"
    },
    {
      "anonymous": false,
      "inputs": [
        {
          "indexed": true,
          "internalType": "address",
          "name": "from",
          "type": "address"
        },
        {
          "indexed": true,
          "internalType": "address",
          "name": "to",
          "type": "address"
        },
        {
          "indexed": true,
          "internalType": "bytes32",
          "name": "id",
          "type": "bytes32"
        },
        {
          "indexed": false,
          "internalType": "address",
          "name": "token0",
          "type": "address"
        },
        {
          "indexed": false,
          "internalType": "uint256",
          "name": "value0",
          "type": "uint256"
        },
        {
          "indexed": false,
          "internalType": "address",
          "name": "token1",
          "type": "address"
        },
        {
          "indexed": false,
          "internalType": "uint256",
          "name": "value1",
          "type": "uint256"
        }
      ],
      "name": "Swapped",
      "type": "event"
    },
    {
      "anonymous": false,
      "inputs": [
        {
          "indexed": true,
          "internalType": "address",
          "name": "from",
          "type": "address"
        },
        {
          "indexed": true,
          "internalType": "address",
          "name": "to",
          "type": "address"
        },
        {
          "indexed": true,
          "internalType": "address",
          "name": "token0",
          "type": "address"
        },
        {
          "indexed": false,
          "internalType": "uint256",
          "name": "value0",
          "type": "uint256"
        },
        {
          "indexed": false,
          "internalType": "uint256",
          "name": "fees0",
          "type": "uint256"
        },
        {
          "indexed": false,
          "internalType": "address",
          "name": "token1",
          "type": "address"
        },
        {
          "indexed": false,
          "internalType": "uint256",
          "name": "value1",
          "type": "uint256"
        },
        {
          "indexed": false,
          "internalType": "uint256",
          "name": "fees1",
          "type": "uint256"
        },
        {
          "indexed": false,
          "internalType": "bytes32",
          "name": "secretHash",
          "type": "bytes32"
        },
        {
          "indexed": false,
          "internalType": "uint64",
          "name": "availableAt",
          "type": "uint64"
        },
        {
          "indexed": false,
          "internalType": "uint64",
          "name": "expiresAt",
          "type": "uint64"
        },
        {
          "indexed": false,
          "internalType": "uint128",
          "name": "autoRetrieveFees",
          "type": "uint128"
        }
      ],
      "name": "TimedDeposited",
      "type": "event"
    },
    {
      "inputs": [],
      "name": "ACTIVATOR_ROLE",
      "outputs": [
        {
          "internalType": "bytes32",
          "name": "",
          "type": "bytes32"
        }
      ],
      "stateMutability": "view",
      "type": "function"
    },
    {
      "inputs": [],
      "name": "DEFAULT_ADMIN_ROLE",
      "outputs": [
        {
          "internalType": "bytes32",
          "name": "",
          "type": "bytes32"
        }
      ],
      "stateMutability": "view",
      "type": "function"
    },
    {
      "inputs": [],
      "name": "HIDDEN_ERC721_SWAP_TYPEHASH",
      "outputs": [
        {
          "internalType": "bytes32",
          "name": "",
          "type": "bytes32"
        }
      ],
      "stateMutability": "view",
      "type": "function"
    },
    {
      "inputs": [],
      "name": "HIDDEN_SWAP_TYPEHASH",
      "outputs": [
        {
          "internalType": "bytes32",
          "name": "",
          "type": "bytes32"
        }
      ],
      "stateMutability": "view",
      "type": "function"
    },
    {
      "inputs": [],
      "name": "NAME",
      "outputs": [
        {
          "internalType": "string",
          "name": "",
          "type": "string"
        }
      ],
      "stateMutability": "view",
      "type": "function"
    },
    {
      "inputs": [],
      "name": "VERSION",
      "outputs": [
        {
          "internalType": "string",
          "name": "",
          "type": "string"
        }
      ],
      "stateMutability": "view",
      "type": "function"
    },
    {
      "inputs": [],
      "name": "VERSION_NUMBER",
      "outputs": [
        {
          "internalType": "uint8",
          "name": "",
          "type": "uint8"
        }
      ],
      "stateMutability": "view",
      "type": "function"
    },
    {
      "inputs": [
        {
          "internalType": "bytes32",
          "name": "role",
          "type": "bytes32"
        }
      ],
      "name": "getRoleAdmin",
      "outputs": [
        {
          "internalType": "bytes32",
          "name": "",
          "type": "bytes32"
        }
      ],
      "stateMutability": "view",
      "type": "function"
    },
    {
      "inputs": [
        {
          "internalType": "bytes32",
          "name": "role",
          "type": "bytes32"
        },
        {
          "internalType": "uint256",
          "name": "index",
          "type": "uint256"
        }
      ],
      "name": "getRoleMember",
      "outputs": [
        {
          "internalType": "address",
          "name": "",
          "type": "address"
        }
      ],
      "stateMutability": "view",
      "type": "function"
    },
    {
      "inputs": [
        {
          "internalType": "bytes32",
          "name": "role",
          "type": "bytes32"
        }
      ],
      "name": "getRoleMemberCount",
      "outputs": [
        {
          "internalType": "uint256",
          "name": "",
          "type": "uint256"
        }
      ],
      "stateMutability": "view",
      "type": "function"
    },
    {
      "inputs": [
        {
          "internalType": "bytes32",
          "name": "role",
          "type": "bytes32"
        },
        {
          "internalType": "address",
          "name": "account",
          "type": "address"
        }
      ],
      "name": "grantRole",
      "outputs": [],
      "stateMutability": "nonpayable",
      "type": "function"
    },
    {
      "inputs": [
        {
          "internalType": "bytes32",
          "name": "role",
          "type": "bytes32"
        },
        {
          "internalType": "address",
          "name": "account",
          "type": "address"
        }
      ],
      "name": "hasRole",
      "outputs": [
        {
          "internalType": "bool",
          "name": "",
          "type": "bool"
        }
      ],
      "stateMutability": "view",
      "type": "function"
    },
    {
      "inputs": [
        {
          "internalType": "bytes32",
          "name": "role",
          "type": "bytes32"
        },
        {
          "internalType": "address",
          "name": "account",
          "type": "address"
        }
      ],
      "name": "renounceRole",
      "outputs": [],
      "stateMutability": "nonpayable",
      "type": "function"
    },
    {
      "inputs": [
        {
          "internalType": "bytes32",
          "name": "role",
          "type": "bytes32"
        },
        {
          "internalType": "address",
          "name": "account",
          "type": "address"
        }
      ],
      "name": "revokeRole",
      "outputs": [],
      "stateMutability": "nonpayable",
      "type": "function"
    },
    {
      "stateMutability": "payable",
      "type": "receive"
    },
    {
      "inputs": [
        {
          "internalType": "address",
          "name": "token",
          "type": "address"
        },
        {
          "internalType": "address",
          "name": "wallet",
          "type": "address"
        },
        {
          "internalType": "uint256",
          "name": "value",
          "type": "uint256"
        }
      ],
      "name": "transferERC20",
      "outputs": [],
      "stateMutability": "nonpayable",
      "type": "function"
    },
    {
      "inputs": [
        {
          "internalType": "address",
          "name": "token",
          "type": "address"
        },
        {
          "internalType": "address",
          "name": "wallet",
          "type": "address"
        },
        {
          "internalType": "uint256",
          "name": "tokenId",
          "type": "uint256"
        },
        {
          "internalType": "bytes",
          "name": "data",
          "type": "bytes"
        }
      ],
      "name": "transferERC721",
      "outputs": [],
      "stateMutability": "nonpayable",
      "type": "function"
    },
    {
      "inputs": [
        {
          "internalType": "address payable",
          "name": "wallet",
          "type": "address"
        },
        {
          "internalType": "uint256",
          "name": "value",
          "type": "uint256"
        }
      ],
      "name": "transferFees",
      "outputs": [],
      "stateMutability": "nonpayable",
      "type": "function"
    },
    {
      "inputs": [],
      "name": "totalFees",
      "outputs": [
        {
          "internalType": "uint256",
          "name": "",
          "type": "uint256"
        }
      ],
      "stateMutability": "view",
      "type": "function"
    },
    {
      "inputs": [
        {
          "internalType": "address payable",
          "name": "to",
          "type": "address"
        },
        {
          "internalType": "address",
          "name": "token0",
          "type": "address"
        },
        {
          "internalType": "uint256",
          "name": "value0",
          "type": "uint256"
        },
        {
          "internalType": "uint256",
          "name": "fees0",
          "type": "uint256"
        },
        {
          "internalType": "address",
          "name": "token1",
          "type": "address"
        },
        {
          "internalType": "uint256",
          "name": "value1",
          "type": "uint256"
        },
        {
          "internalType": "uint256",
          "name": "fees1",
          "type": "uint256"
        },
        {
          "internalType": "bytes32",
          "name": "secretHash",
          "type": "bytes32"
        }
      ],
      "name": "deposit",
      "outputs": [],
      "stateMutability": "payable",
      "type": "function"
    },
    {
      "inputs": [
        {
          "internalType": "address payable",
          "name": "to",
          "type": "address"
        },
        {
          "internalType": "address",
          "name": "token0",
          "type": "address"
        },
        {
          "internalType": "uint256",
          "name": "value0",
          "type": "uint256"
        },
        {
          "internalType": "uint256",
          "name": "fees0",
          "type": "uint256"
        },
        {
          "internalType": "address",
          "name": "token1",
          "type": "address"
        },
        {
          "internalType": "uint256",
          "name": "value1",
          "type": "uint256"
        },
        {
          "internalType": "uint256",
          "name": "fees1",
          "type": "uint256"
        },
        {
          "internalType": "bytes32",
          "name": "secretHash",
          "type": "bytes32"
        },
        {
          "internalType": "uint64",
          "name": "availableAt",
          "type": "uint64"
        },
        {
          "internalType": "uint64",
          "name": "expiresAt",
          "type": "uint64"
        },
        {
          "internalType": "uint128",
          "name": "autoRetrieveFees",
          "type": "uint128"
        }
      ],
      "name": "timedDeposit",
      "outputs": [],
      "stateMutability": "payable",
      "type": "function"
    },
    {
      "inputs": [
        {
          "internalType": "address",
          "name": "to",
          "type": "address"
        },
        {
          "internalType": "address",
          "name": "token0",
          "type": "address"
        },
        {
          "internalType": "uint256",
          "name": "value0",
          "type": "uint256"
        },
        {
          "internalType": "uint256",
          "name": "fees0",
          "type": "uint256"
        },
        {
          "internalType": "address",
          "name": "token1",
          "type": "address"
        },
        {
          "internalType": "uint256",
          "name": "value1",
          "type": "uint256"
        },
        {
          "internalType": "uint256",
          "name": "fees1",
          "type": "uint256"
        },
        {
          "internalType": "bytes32",
          "name": "secretHash",
          "type": "bytes32"
        }
      ],
      "name": "retrieve",
      "outputs": [],
      "stateMutability": "nonpayable",
      "type": "function"
    },
    {
      "inputs": [
        {
          "internalType": "address payable",
          "name": "from",
          "type": "address"
        },
        {
          "internalType": "address",
          "name": "token0",
          "type": "address"
        },
        {
          "internalType": "uint256",
          "name": "value0",
          "type": "uint256"
        },
        {
          "internalType": "uint256",
          "name": "fees0",
          "type": "uint256"
        },
        {
          "internalType": "address",
          "name": "token1",
          "type": "address"
        },
        {
          "internalType": "uint256",
          "name": "value1",
          "type": "uint256"
        },
        {
          "internalType": "uint256",
          "name": "fees1",
          "type": "uint256"
        },
        {
          "internalType": "bytes32",
          "name": "secretHash",
          "type": "bytes32"
        },
        {
          "internalType": "bytes",
          "name": "secret",
          "type": "bytes"
        }
      ],
      "name": "swap",
      "outputs": [],
      "stateMutability": "payable",
      "type": "function"
    },
    {
      "inputs": [
        {
          "internalType": "address payable",
          "name": "from",
          "type": "address"
        },
        {
          "internalType": "address",
          "name": "to",
          "type": "address"
        },
        {
          "internalType": "address",
          "name": "token0",
          "type": "address"
        },
        {
          "internalType": "uint256",
          "name": "value0",
          "type": "uint256"
        },
        {
          "internalType": "uint256",
          "name": "fees0",
          "type": "uint256"
        },
        {
          "internalType": "address",
          "name": "token1",
          "type": "address"
        },
        {
          "internalType": "uint256",
          "name": "value1",
          "type": "uint256"
        },
        {
          "internalType": "uint256",
          "name": "fees1",
          "type": "uint256"
        },
        {
          "internalType": "bytes32",
          "name": "secretHash",
          "type": "bytes32"
        }
      ],
      "name": "autoRetrieve",
      "outputs": [],
      "stateMutability": "nonpayable",
      "type": "function"
    },
    {
      "inputs": [
        {
          "internalType": "address payable",
          "name": "to",
          "type": "address"
        },
        {
          "internalType": "address",
          "name": "token0",
          "type": "address"
        },
        {
          "internalType": "uint256",
          "name": "value0",
          "type": "uint256"
        },
        {
          "internalType": "bytes",
          "name": "tokenData0",
          "type": "bytes"
        },
        {
          "internalType": "uint256",
          "name": "fees0",
          "type": "uint256"
        },
        {
          "internalType": "address",
          "name": "token1",
          "type": "address"
        },
        {
          "internalType": "uint256",
          "name": "value1",
          "type": "uint256"
        },
        {
          "internalType": "bytes",
          "name": "tokenData1",
          "type": "bytes"
        },
        {
          "internalType": "uint256",
          "name": "fees1",
          "type": "uint256"
        },
        {
          "internalType": "bytes32",
          "name": "secretHash",
          "type": "bytes32"
        }
      ],
      "name": "depositERC721",
      "outputs": [],
      "stateMutability": "payable",
      "type": "function"
    },
    {
      "inputs": [
        {
          "internalType": "address payable",
          "name": "from",
          "type": "address"
        },
        {
          "components": [
            {
              "internalType": "address",
              "name": "token0",
              "type": "address"
            },
            {
              "internalType": "uint256",
              "name": "value0",
              "type": "uint256"
            },
            {
              "internalType": "bytes",
              "name": "tokenData0",
              "type": "bytes"
            },
            {
              "internalType": "uint256",
              "name": "fees0",
              "type": "uint256"
            },
            {
              "internalType": "address",
              "name": "token1",
              "type": "address"
            },
            {
              "internalType": "uint256",
              "name": "value1",
              "type": "uint256"
            },
            {
              "internalType": "bytes",
              "name": "tokenData1",
              "type": "bytes"
            },
            {
              "internalType": "uint256",
              "name": "fees1",
              "type": "uint256"
            },
            {
              "internalType": "bytes32",
              "name": "secretHash",
              "type": "bytes32"
            }
          ],
          "internalType": "struct SafeSwap.SwapERC721Info",
          "name": "info",
          "type": "tuple"
        },
        {
          "internalType": "bytes",
          "name": "secret",
          "type": "bytes"
        }
      ],
      "name": "swapERC721",
      "outputs": [],
      "stateMutability": "payable",
      "type": "function"
    },
    {
      "inputs": [
        {
          "internalType": "address",
          "name": "to",
          "type": "address"
        },
        {
          "components": [
            {
              "internalType": "address",
              "name": "token0",
              "type": "address"
            },
            {
              "internalType": "uint256",
              "name": "value0",
              "type": "uint256"
            },
            {
              "internalType": "bytes",
              "name": "tokenData0",
              "type": "bytes"
            },
            {
              "internalType": "uint256",
              "name": "fees0",
              "type": "uint256"
            },
            {
              "internalType": "address",
              "name": "token1",
              "type": "address"
            },
            {
              "internalType": "uint256",
              "name": "value1",
              "type": "uint256"
            },
            {
              "internalType": "bytes",
              "name": "tokenData1",
              "type": "bytes"
            },
            {
              "internalType": "uint256",
              "name": "fees1",
              "type": "uint256"
            },
            {
              "internalType": "bytes32",
              "name": "secretHash",
              "type": "bytes32"
            }
          ],
          "internalType": "struct SafeSwap.SwapERC721Info",
          "name": "info",
          "type": "tuple"
        }
      ],
      "name": "retrieveERC721",
      "outputs": [],
      "stateMutability": "nonpayable",
      "type": "function"
    },
    {
      "inputs": [
        {
          "internalType": "address payable",
          "name": "from",
          "type": "address"
        },
        {
          "internalType": "address",
          "name": "to",
          "type": "address"
        },
        {
          "components": [
            {
              "internalType": "address",
              "name": "token0",
              "type": "address"
            },
            {
              "internalType": "uint256",
              "name": "value0",
              "type": "uint256"
            },
            {
              "internalType": "bytes",
              "name": "tokenData0",
              "type": "bytes"
            },
            {
              "internalType": "uint256",
              "name": "fees0",
              "type": "uint256"
            },
            {
              "internalType": "address",
              "name": "token1",
              "type": "address"
            },
            {
              "internalType": "uint256",
              "name": "value1",
              "type": "uint256"
            },
            {
              "internalType": "bytes",
              "name": "tokenData1",
              "type": "bytes"
            },
            {
              "internalType": "uint256",
              "name": "fees1",
              "type": "uint256"
            },
            {
              "internalType": "bytes32",
              "name": "secretHash",
              "type": "bytes32"
            }
          ],
          "internalType": "struct SafeSwap.SwapERC721Info",
          "name": "info",
          "type": "tuple"
        }
      ],
      "name": "autoRetrieveERC721",
      "outputs": [],
      "stateMutability": "nonpayable",
      "type": "function"
    },
    {
      "inputs": [
        {
          "internalType": "address",
          "name": "to",
          "type": "address"
        },
        {
          "components": [
            {
              "internalType": "address",
              "name": "token0",
              "type": "address"
            },
            {
              "internalType": "uint256",
              "name": "value0",
              "type": "uint256"
            },
            {
              "internalType": "bytes",
              "name": "tokenData0",
              "type": "bytes"
            },
            {
              "internalType": "uint256",
              "name": "fees0",
              "type": "uint256"
            },
            {
              "internalType": "address",
              "name": "token1",
              "type": "address"
            },
            {
              "internalType": "uint256",
              "name": "value1",
              "type": "uint256"
            },
            {
              "internalType": "bytes",
              "name": "tokenData1",
              "type": "bytes"
            },
            {
              "internalType": "uint256",
              "name": "fees1",
              "type": "uint256"
            },
            {
              "internalType": "bytes32",
              "name": "secretHash",
              "type": "bytes32"
            }
          ],
          "internalType": "struct SafeSwap.SwapERC721Info",
          "name": "info",
          "type": "tuple"
        },
        {
          "internalType": "uint64",
          "name": "availableAt",
          "type": "uint64"
        },
        {
          "internalType": "uint64",
          "name": "expiresAt",
          "type": "uint64"
        },
        {
          "internalType": "uint128",
          "name": "autoRetrieveFees",
          "type": "uint128"
        }
      ],
      "name": "timedDepositERC721",
      "outputs": [],
      "stateMutability": "payable",
      "type": "function"
    },
    {
      "inputs": [
        {
          "internalType": "bytes32",
          "name": "id1",
          "type": "bytes32"
        },
        {
          "internalType": "uint256",
          "name": "value",
          "type": "uint256"
        }
      ],
      "name": "hiddenRetrieve",
      "outputs": [],
      "stateMutability": "nonpayable",
      "type": "function"
    },
    {
      "inputs": [
        {
          "internalType": "address payable",
          "name": "from",
          "type": "address"
        },
        {
          "internalType": "bytes32",
          "name": "id1",
          "type": "bytes32"
        },
        {
          "internalType": "uint256",
          "name": "value",
          "type": "uint256"
        }
      ],
      "name": "hiddenAutoRetrieve",
      "outputs": [],
      "stateMutability": "nonpayable",
      "type": "function"
    },
    {
      "inputs": [
        {
          "internalType": "bytes32",
          "name": "id1",
          "type": "bytes32"
        }
      ],
      "name": "hiddenDeposit",
      "outputs": [],
      "stateMutability": "payable",
      "type": "function"
    },
    {
      "inputs": [
        {
          "internalType": "bytes32",
          "name": "id1",
          "type": "bytes32"
        },
        {
          "internalType": "uint64",
          "name": "availableAt",
          "type": "uint64"
        },
        {
          "internalType": "uint64",
          "name": "expiresAt",
          "type": "uint64"
        },
        {
          "internalType": "uint128",
          "name": "autoRetrieveFees",
          "type": "uint128"
        }
      ],
      "name": "hiddenTimedDeposit",
      "outputs": [],
      "stateMutability": "payable",
      "type": "function"
    },
    {
      "inputs": [
        {
          "internalType": "address payable",
          "name": "from",
          "type": "address"
        },
        {
          "components": [
            {
              "internalType": "address",
              "name": "token0",
              "type": "address"
            },
            {
              "internalType": "uint256",
              "name": "value0",
              "type": "uint256"
            },
            {
              "internalType": "uint256",
              "name": "fees0",
              "type": "uint256"
            },
            {
              "internalType": "address",
              "name": "token1",
              "type": "address"
            },
            {
              "internalType": "uint256",
              "name": "value1",
              "type": "uint256"
            },
            {
              "internalType": "uint256",
              "name": "fees1",
              "type": "uint256"
            },
            {
              "internalType": "bytes32",
              "name": "secretHash",
              "type": "bytes32"
            }
          ],
          "internalType": "struct SafeSwap.SwapInfo",
          "name": "info",
          "type": "tuple"
        },
        {
          "internalType": "bytes",
          "name": "secret",
          "type": "bytes"
        }
      ],
      "name": "hiddenSwap",
      "outputs": [],
      "stateMutability": "payable",
      "type": "function"
    },
    {
      "inputs": [
        {
          "internalType": "address payable",
          "name": "from",
          "type": "address"
        },
        {
          "components": [
            {
              "internalType": "address",
              "name": "token0",
              "type": "address"
            },
            {
              "internalType": "uint256",
              "name": "value0",
              "type": "uint256"
            },
            {
              "internalType": "bytes",
              "name": "tokenData0",
              "type": "bytes"
            },
            {
              "internalType": "uint256",
              "name": "fees0",
              "type": "uint256"
            },
            {
              "internalType": "address",
              "name": "token1",
              "type": "address"
            },
            {
              "internalType": "uint256",
              "name": "value1",
              "type": "uint256"
            },
            {
              "internalType": "bytes",
              "name": "tokenData1",
              "type": "bytes"
            },
            {
              "internalType": "uint256",
              "name": "fees1",
              "type": "uint256"
            },
            {
              "internalType": "bytes32",
              "name": "secretHash",
              "type": "bytes32"
            }
          ],
          "internalType": "struct SafeSwap.SwapERC721Info",
          "name": "info",
          "type": "tuple"
        },
        {
          "internalType": "bytes",
          "name": "secret",
          "type": "bytes"
        }
      ],
      "name": "hiddenSwapERC721",
      "outputs": [],
      "stateMutability": "payable",
      "type": "function"
    }
  ],
  "bytecode": "0x60806040523480156200001157600080fd5b506040516200464e3803806200464e833981016040819052620000349162000192565b620000416000336200007e565b6200005c6000805160206200462e833981519152336200007e565b620000776000805160206200462e833981519152826200007e565b50620001c2565b6200008a82826200008e565b5050565b600082815260208181526040909120620000b3918390620029ab62000107821b17901c565b156200008a57620000c362000127565b6001600160a01b0316816001600160a01b0316837f2f8788117e7eff1d82e926ec794901d17c78024a50270940304540a733656f0d60405160405180910390a45050565b60006200011e836001600160a01b0384166200012b565b90505b92915050565b3390565b60006200013983836200017a565b620001715750815460018181018455600084815260208082209093018490558454848252828601909352604090209190915562000121565b50600062000121565b60009081526001919091016020526040902054151590565b600060208284031215620001a4578081fd5b81516001600160a01b0381168114620001bb578182fd5b9392505050565b61445c80620001d26000396000f3fe6080604052600436106101fc5760003560e01c80638025e3031161010d578063ab3d1beb116100a0578063cf91c5731161006f578063cf91c57314610551578063d547741f14610564578063e49a12dc14610584578063ffa1ad74146105a4578063ffd28255146105b957610224565b8063ab3d1beb146104dc578063b54e694c146104fc578063c2d30bab14610511578063ca15c8731461053157610224565b806397b16779116100dc57806397b16779146104725780639db5dbe414610485578063a217fddf146104a5578063a3f4df7e146104ba57610224565b80638025e303146103d65780639010d07c146103f857806391d14854146104255780639758db551461045257610224565b806336568abe116101905780635d716bdf1161015f5780635d716bdf1461036857806363eed7d01461037b57806371a46d5f1461039b57806374b45c3f146103ae5780637abd1eb2146103c357610224565b806336568abe146103025780633afec06f1461032257806342c9b1fe146103355780634d6df9fc1461034857610224565b806313114a9d116101cc57806313114a9d1461029a578063248a9ca3146102af5780632f2ff15d146102cf5780633162ee74146102ef57610224565b8062a315ce14610229578063017589d71461023c57806308740a3b1461025c5780630eeecfd51461028757610224565b366102245760405162461bcd60e51b8152600401610219906141e4565b60405180910390fd5b005b600080fd5b610222610237366004613373565b6105d9565b34801561024857600080fd5b506102226102573660046134d1565b610853565b34801561026857600080fd5b506102716109bb565b60405161027e9190613bee565b60405180910390f35b610222610295366004613420565b6109cd565b3480156102a657600080fd5b50610271610bb7565b3480156102bb57600080fd5b506102716102ca36600461381e565b610bbd565b3480156102db57600080fd5b506102226102ea366004613836565b610bd2565b6102226102fd366004613221565b610c1a565b34801561030e57600080fd5b5061022261031d366004613836565b610e79565b610222610330366004613505565b610ebb565b610222610343366004613505565b61123c565b34801561035457600080fd5b50610222610363366004613711565b6115b9565b61022261037636600461377a565b6116c7565b34801561038757600080fd5b506102226103963660046136a1565b6119f6565b6102226103a936600461381e565b611a97565b3480156103ba57600080fd5b50610271611b4b565b6102226103d13660046132fc565b611b6f565b3480156103e257600080fd5b506103eb611d03565b60405161027e9190614359565b34801561040457600080fd5b50610418610413366004613865565b611d08565b60405161027e9190613965565b34801561043157600080fd5b50610445610440366004613836565b611d29565b60405161027e9190613be3565b34801561045e57600080fd5b5061022261046d36600461372d565b611d41565b61022261048036600461357a565b611ef4565b34801561049157600080fd5b506102226104a0366004613661565b612246565b3480156104b157600080fd5b50610271612293565b3480156104c657600080fd5b506104cf612298565b60405161027e9190613cea565b3480156104e857600080fd5b506102226104f7366004613134565b6122c4565b34801561050857600080fd5b5061027161244d565b34801561051d57600080fd5b5061022261052c366004613865565b612471565b34801561053d57600080fd5b5061027161054c36600461381e565b61254f565b61022261055f366004613886565b612566565b34801561057057600080fd5b5061022261057f366004613836565b61269c565b34801561059057600080fd5b5061022261059f366004613636565b6126d6565b3480156105b057600080fd5b506104cf612750565b3480156105c557600080fd5b506102226105d43660046131c2565b61276d565b60008a338b8b8b8b8b8b8b6040516020016105fc99989796959493929190613a8a565b60408051601f19818403018152918152815160209283012060008181526002909352912054909150806106415760405162461bcd60e51b815260040161021990614176565b42816001600160401b0316116106695760405162461bcd60e51b815260040161021990613ea7565b42604082901c6001600160401b031611156106965760405162461bcd60e51b815260040161021990613f22565b8484846040516106a7929190613939565b6040518091039020146106cc5760405162461bcd60e51b815260040161021990614028565b6000828152600260205260408120556001546106f49087906106ee908c6129c0565b906129c0565b6001556001600160a01b038b166107385760405133908b156108fc02908c906000818181858888f19350505050158015610732573d6000803e3d6000fd5b5061074d565b61074d6001600160a01b038c168d338d6129e5565b6001600160a01b0388166107bf5761076587876129c0565b34146107835760405162461bcd60e51b8152600401610219906140c6565b6040516001600160a01b038d169088156108fc029089906000818181858888f193505050501580156107b9573d6000803e3d6000fd5b506107f3565b8534146107de5760405162461bcd60e51b8152600401610219906140c6565b6107f36001600160a01b038916338e8a6129e5565b81336001600160a01b03168d6001600160a01b03167fc0e393a76f85e9b8c3190c8852c0bf32114862cccc31d1d35366c408f15a99a88e8e8d8d60405161083d9493929190613bb9565b60405180910390a4505050505050505050505050565b61086b6000805160206143e783398151915233611d29565b6108875760405162461bcd60e51b815260040161021990613e41565b600083828460405160200161089e93929190613b5b565b60408051601f19818403018152918152815160209283012060008181526003909352912054909150806108e35760405162461bcd60e51b815260040161021990614176565b42816001600160401b0316111561090c5760405162461bcd60e51b815260040161021990614147565b600082815260036020526040812081905560018054608084901c908101909155610937908590612a3d565b6040519091506001600160a01b0387169082156108fc029083906000818181858888f19350505050158015610970573d6000803e3d6000fd5b5084866001600160a01b03167f315de080c411b2c8236296058cbea4d5dddebfb39339055d552810a07fbc9276836040516109ab9190613bee565b60405180910390a3505050505050565b6000805160206143e783398151915281565b866001600160a01b03168a6001600160a01b031614156109ff5760405162461bcd60e51b815260040161021990613f9e565b806001600160801b0316881015610a285760405162461bcd60e51b815260040161021990613dc5565b6001600160a01b038b16331415610a515760405162461bcd60e51b8152600401610219906141ad565b42826001600160401b031611610a795760405162461bcd60e51b815260040161021990613e0a565b6001600160a01b038a16610ab457610a9189896129c0565b3414610aaf5760405162461bcd60e51b8152600401610219906140c6565b610ad3565b873414610ad35760405162461bcd60e51b8152600401610219906140c6565b6000338c8c8c8c8c8c8c8c604051602001610af699989796959493929190613a8a565b60408051601f1981840301815291815281516020928301206000818152600290935291205490915015610b3b5760405162461bcd60e51b81526004016102199061408f565b600081815260026020526040908190206001600160401b0385166001600160801b0319608086901b16019055516001600160a01b03808d1691908e169033907f8c537bffe7c70d4dd71d384b4c58823e3c67c5986e1d7bfcd21c4999f90a08c29061083d908f908f908f908f908f908f908f908f908f906142ce565b60015490565b60009081526020819052604090206002015490565b600082815260208190526040902060020154610bf090610440612a7f565b610c0c5760405162461bcd60e51b815260040161021990613d3f565b610c168282612a83565b5050565b6001600160a01b038b16610ca757856001600160a01b03168b6001600160a01b03161415610c5a5760405162461bcd60e51b815260040161021990613f59565b610c648a886129c0565b3414610c825760405162461bcd60e51b8152600401610219906140c6565b60008511610ca25760405162461bcd60e51b815260040161021990613e78565b610d53565b6001600160a01b038616610cf457863414610cd45760405162461bcd60e51b8152600401610219906140c6565b60008a11610ca25760405162461bcd60e51b815260040161021990613e78565b863414610d135760405162461bcd60e51b8152600401610219906140c6565b60008a11610d335760405162461bcd60e51b815260040161021990613e78565b60008511610d535760405162461bcd60e51b815260040161021990613e78565b6001600160a01b038c16331415610d7c5760405162461bcd60e51b8152600401610219906141ad565b6000338d8d8d8d8d8d8d8d8d8d8d8d604051602001610da79d9c9b9a99989796959493929190613979565b60408051601f1981840301815291815281516020928301206000818152600290935291205490915015610dec5760405162461bcd60e51b81526004016102199061408f565b6001600160401b0360026000838152602001908152602001600020819055508b6001600160a01b03168d6001600160a01b0316336001600160a01b03167f4fe6029817c908cf67ab0d54eff85433a6e56872386542d067e4a3a940b832898e8c8c8c8a8a604051610e629695949392919061429d565b60405180910390a450505050505050505050505050565b610e81612a7f565b6001600160a01b0316816001600160a01b031614610eb15760405162461bcd60e51b81526004016102199061422a565b610c168282612aec565b6000610ec78585612b55565b845190915060009086906001600160a01b031615610ee9578560600151610efc565b60608601516020870151610efc916129c0565b83604051602001610f0f93929190613b5b565b60408051601f1981840301815291815281516020928301206000818152600390935291205490915080610f545760405162461bcd60e51b815260040161021990614176565b42816001600160401b031611610f7c5760405162461bcd60e51b815260040161021990613ea7565b42604082901c6001600160401b03161115610fa95760405162461bcd60e51b815260040161021990613f22565b8561010001518585604051610fbf929190613939565b604051809103902014610fe45760405162461bcd60e51b815260040161021990614028565b60008281526003602052604081205560e0860151606087015160015461100f92916106ee91906129c0565b60015585516001600160a01b0316611057576020860151604051339180156108fc02916000818181858888f19350505050158015611051573d6000803e3d6000fd5b506110c7565b855160208701516040808901519051635c46a7ef60e11b81526001600160a01b039093169263b88d4fde92611094928c9233929190600401613adf565b600060405180830381600087803b1580156110ae57600080fd5b505af11580156110c2573d6000803e3d6000fd5b505050505b60808601516001600160a01b03166111495760e086015160a08701516110ec916129c0565b341461110a5760405162461bcd60e51b8152600401610219906140c6565b60a08601516040516001600160a01b0389169180156108fc02916000818181858888f19350505050158015611143573d6000803e3d6000fd5b506111dd565b8560e00151341461116c5760405162461bcd60e51b8152600401610219906140c6565b85608001516001600160a01b031663b88d4fde33898960a001518a60c001516040518563ffffffff1660e01b81526004016111aa9493929190613adf565b600060405180830381600087803b1580156111c457600080fd5b505af11580156111d8573d6000803e3d6000fd5b505050505b85516020870151608088015160a0890151604051879433946001600160a01b038e16947f635d66100606353618a37ca6e091470485c9c7a8cbb9ccdcdda9f888c4b1e14d9461122b94613bb9565b60405180910390a450505050505050565b60008433856000015186602001518760400151886060015189608001518a60a001518b60c001518c60e001518d61010001516040516020016112889b9a99989796959493929190613a06565b60408051601f19818403018152918152815160209283012060008181526002909352912054909150806112cd5760405162461bcd60e51b815260040161021990614176565b42816001600160401b0316116112f55760405162461bcd60e51b815260040161021990613ea7565b42604082901c6001600160401b031611156113225760405162461bcd60e51b815260040161021990613f22565b8461010001518484604051611338929190613939565b60405180910390201461135d5760405162461bcd60e51b815260040161021990614028565b60008281526002602052604081205560e0850151606086015160015461138892916106ee91906129c0565b60015584516001600160a01b03166113d0576020850151604051339180156108fc02916000818181858888f193505050501580156113ca573d6000803e3d6000fd5b50611440565b845160208601516040808801519051635c46a7ef60e11b81526001600160a01b039093169263b88d4fde9261140d928b9233929190600401613adf565b600060405180830381600087803b15801561142757600080fd5b505af115801561143b573d6000803e3d6000fd5b505050505b60808501516001600160a01b03166114c25760e085015160a0860151611465916129c0565b34146114835760405162461bcd60e51b8152600401610219906140c6565b60a08501516040516001600160a01b0388169180156108fc02916000818181858888f193505050501580156114bc573d6000803e3d6000fd5b50611556565b8460e0015134146114e55760405162461bcd60e51b8152600401610219906140c6565b84608001516001600160a01b031663b88d4fde33888860a001518960c001516040518563ffffffff1660e01b81526004016115239493929190613adf565b600060405180830381600087803b15801561153d57600080fd5b505af1158015611551573d6000803e3d6000fd5b505050505b84516020860151608087015160a08801516040516001600160a01b03948516943394908c16937fbd1a877c60827e9dae2e4e01d72366cbc3316004064d254c918fbe6112e2fdb5936115a9938a90614279565b60405180910390a4505050505050565b60003389898989898989896040516020016115dc99989796959493929190613a8a565b60408051601f198184030181529181528151602092830120600081815260029093529120549091506116205760405162461bcd60e51b815260040161021990614176565b60008181526002602052604081208190556001600160a01b0389166116505761164988886129c0565b9050611653565b50855b604051339082156108fc029083906000818181858888f19350505050158015611680573d6000803e3d6000fd5b50818a6001600160a01b0316336001600160a01b0316600080516020614407833981519152846040516116b39190613bee565b60405180910390a450505050505050505050565b83516001600160a01b031661176a5783608001516001600160a01b031684600001516001600160a01b031614156117105760405162461bcd60e51b815260040161021990613f59565b60608401516020850151611723916129c0565b34146117415760405162461bcd60e51b8152600401610219906140c6565b60008460a00151116117655760405162461bcd60e51b815260040161021990613e78565b61182e565b60808401516001600160a01b03166117c3578360600151341461179f5760405162461bcd60e51b8152600401610219906140c6565b60008460200151116117655760405162461bcd60e51b815260040161021990613e78565b836060015134146117e65760405162461bcd60e51b8152600401610219906140c6565b600084602001511161180a5760405162461bcd60e51b815260040161021990613e78565b60008460a001511161182e5760405162461bcd60e51b815260040161021990613e78565b806001600160801b03168460600151101561185b5760405162461bcd60e51b815260040161021990613dc5565b6001600160a01b0385163314156118845760405162461bcd60e51b8152600401610219906141ad565b42826001600160401b0316116118ac5760405162461bcd60e51b815260040161021990613e0a565b6000338686600001518760200151886040015189606001518a608001518b60a001518c60c001518d60e001518e61010001516040516020016118f89b9a99989796959493929190613a06565b60408051601f198184030181529181528151602092830120600081815260029093529120549091501561193d5760405162461bcd60e51b81526004016102199061408f565b6080826001600160801b0316901b6040856001600160401b0316901b846001600160401b03160101600260008381526020019081526020016000208190555084600001516001600160a01b0316866001600160a01b0316336001600160a01b03167fdc38d742b24e043dcb3d1ab98c2b62660148817ba41ab084def4279989c8e273886020015189606001518a608001518b60a001518c60e001518d61010001518d8d8d6040516115a9999897969594939291906142ce565b611a0e6000805160206143e783398151915233611d29565b611a2a5760405162461bcd60e51b815260040161021990613e41565b604051635c46a7ef60e11b81526001600160a01b0386169063b88d4fde90611a5e9030908890889088908890600401613b1c565b600060405180830381600087803b158015611a7857600080fd5b505af1158015611a8c573d6000803e3d6000fd5b505050505050505050565b6000333483604051602001611aae93929190613b5b565b60408051601f1981840301815291815281516020928301206000818152600390935291205490915015611af35760405162461bcd60e51b81526004016102199061408f565b600081815260036020526040908190206001600160401b03905551829033907f3dbf39eb5935a7abc0c756107967c274f5964488444b869ea5114a06aa2989ae90611b3f903490613bee565b60405180910390a35050565b7f22eb06b067ef6305a65d8334d41817cd2fb49f43ee331996ed20687c8152e5ed81565b836001600160a01b0316876001600160a01b03161415611ba15760405162461bcd60e51b815260040161021990613f9e565b6001600160a01b038716611bdc57611bb986866129c0565b3414611bd75760405162461bcd60e51b8152600401610219906140c6565b611bfb565b843414611bfb5760405162461bcd60e51b8152600401610219906140c6565b6001600160a01b038816331415611c245760405162461bcd60e51b8152600401610219906141ad565b6000338989898989898989604051602001611c4799989796959493929190613a8a565b60408051601f1981840301815291815281516020928301206000818152600290935291205490915015611c8c5760405162461bcd60e51b81526004016102199061408f565b600081815260026020526040908190206001600160401b039055516001600160a01b03808a1691908b169033907f7f656ca7b89faa7a0feda80f409af80bbda64df0f8f68fa0fe863cb086480e7190611cf0908c908c908c908c908c908c9061429d565b60405180910390a4505050505050505050565b600181565b6000828152602081905260408120611d209083612be4565b90505b92915050565b6000828152602081905260408120611d209083612bf0565b60003383836000015184602001518560400151866060015187608001518860a001518960c001518a60e001518b6101000151604051602001611d8d9b9a99989796959493929190613a06565b60408051601f19818403018152918152815160209283012060008181526002909352912054909150611dd15760405162461bcd60e51b815260040161021990614176565b600081815260026020526040812081905582516001600160a01b0316611e0b5760608301516020840151611e04916129c0565b9050611e12565b5060608201515b604051339082156108fc029083906000818181858888f19350505050158015611e3f573d6000803e3d6000fd5b5082516001600160a01b0316611e8e5781846001600160a01b0316336001600160a01b031660008051602061440783398151915284604051611e819190613bee565b60405180910390a4611eee565b836001600160a01b0316336001600160a01b031684600001516001600160a01b03167f888085db651d2c8dd055a62e48cd23d308502ebd6b714c6f4e9368bf27bfa9f8858760200151604051611ee5929190613cdc565b60405180910390a45b50505050565b60007f0f11af065228fe4d4a82a264c46914620a3a99413bfee68f390bd6a3ba05e2c260001b853386600001518760200151886040015189606001518a608001518b60a001518c60c00151604051602001611f589a99989796959493929190613bf7565b60405160208183030381529060405280519060200120905060008560006001600160a01b031686600001516001600160a01b031614611f9b578560400151611fae565b60408601516020870151611fae916129c0565b83604051602001611fc193929190613b5b565b60408051601f19818403018152918152815160209283012060008181526003909352912054909150806120065760405162461bcd60e51b815260040161021990614176565b42816001600160401b03161161202e5760405162461bcd60e51b815260040161021990613ea7565b42604082901c6001600160401b0316111561205b5760405162461bcd60e51b815260040161021990613f22565b8560c001518585604051612070929190613939565b6040518091039020146120955760405162461bcd60e51b815260040161021990614028565b6000828152600360205260408082209190915560a0870151908701516001546120c392916106ee91906129c0565b60015585516001600160a01b031661210b576020860151604051339180156108fc02916000818181858888f19350505050158015612105573d6000803e3d6000fd5b5061212b565b6020860151865161212b916001600160a01b0390911690899033906129e5565b60608601516001600160a01b03166121ad5760a08601516080870151612150916129c0565b341461216e5760405162461bcd60e51b8152600401610219906140c6565b60808601516040516001600160a01b0389169180156108fc02916000818181858888f193505050501580156121a7573d6000803e3d6000fd5b506121f8565b8560a0015134146121d05760405162461bcd60e51b8152600401610219906140c6565b6121f83388886080015189606001516001600160a01b03166129e5909392919063ffffffff16565b8551602087015160608801516080890151604051879433946001600160a01b038e16947f766383b35b4c3806888f3d474e900107249a212506d5c29aa6ab57804151d8c89461122b94613bb9565b61225e6000805160206143e783398151915233611d29565b61227a5760405162461bcd60e51b815260040161021990613e41565b61228e6001600160a01b0384168383612c05565b505050565b600081565b6040518060400160405280601081526020016f04b69726f626f205361666520537761760841b81525081565b6122dc6000805160206143e783398151915233611d29565b6122f85760405162461bcd60e51b815260040161021990613e41565b600089898989898989898960405160200161231b99989796959493929190613a8a565b60408051601f19818403018152918152815160209283012060008181526002909352912054909150806123605760405162461bcd60e51b815260040161021990614176565b42816001600160401b031611156123895760405162461bcd60e51b815260040161021990614147565b600082815260026020526040812081905560018054608084901c0190556001600160a01b038a166123d3576123cc608083901c6123c68b8b6129c0565b90612a3d565b90506123e4565b6123e188608084901c612a3d565b90505b6040516001600160a01b038d169082156108fc029083906000818181858888f1935050505015801561241a573d6000803e3d6000fd5b50828b6001600160a01b03168d6001600160a01b03166000805160206144078339815191528460405161083d9190613bee565b7f0f11af065228fe4d4a82a264c46914620a3a99413bfee68f390bd6a3ba05e2c281565b600033828460405160200161248893929190613b5b565b60408051601f198184030181529181528151602092830120600081815260039093529120549091506124cc5760405162461bcd60e51b815260040161021990614176565b60008181526003602052604080822082905551339184156108fc02918591818181858888f19350505050158015612507573d6000803e3d6000fd5b5082336001600160a01b03167f315de080c411b2c8236296058cbea4d5dddebfb39339055d552810a07fbc9276846040516125429190613bee565b60405180910390a3505050565b6000818152602081905260408120611d2390612c24565b806001600160801b031634101561258f5760405162461bcd60e51b815260040161021990613fe2565b60003334866040516020016125a693929190613b5b565b60408051601f19818403018152918152815160209283012060008181526003909352912054909150156125eb5760405162461bcd60e51b81526004016102199061408f565b42836001600160401b0316116126135760405162461bcd60e51b815260040161021990613e0a565b600081815260036020526040908190206001600160401b0385166fffffffffffffffff000000000000000087841b16016001600160801b0319608086901b1601905551859033907f1e0da4edc3a1c02f16fe48803f882d848dc210551eb8a545cc6f6c83012df2ff9061268d90349089908990899061432b565b60405180910390a35050505050565b6000828152602081905260409020600201546126ba90610440612a7f565b610eb15760405162461bcd60e51b815260040161021990613ed2565b6126ee6000805160206143e783398151915233611d29565b61270a5760405162461bcd60e51b815260040161021990613e41565b6001546127179082612a3d565b6001556040516001600160a01b0383169082156108fc029083906000818181858888f1935050505015801561228e573d6000803e3d6000fd5b604051806040016040528060018152602001603160f81b81525081565b6127856000805160206143e783398151915233611d29565b6127a15760405162461bcd60e51b815260040161021990613e41565b60008383836000015184602001518560400151866060015187608001518860a001518960c001518a60e001518b61010001516040516020016127ed9b9a99989796959493929190613a06565b60408051601f19818403018152918152815160209283012060008181526002909352912054909150806128325760405162461bcd60e51b815260040161021990614176565b42816001600160401b0316111561285b5760405162461bcd60e51b815260040161021990614147565b600082815260026020526040812081905560018054608084901c01905583516001600160a01b03166128b1576128aa608083901c6123c6866060015187602001516129c090919063ffffffff16565b90506128c7565b60608401516128c490608084901c612a3d565b90505b6040516001600160a01b0387169082156108fc029083906000818181858888f193505050501580156128fd573d6000803e3d6000fd5b5083516001600160a01b031661294c5782856001600160a01b0316876001600160a01b03166000805160206144078339815191528460405161293f9190613bee565b60405180910390a46129a3565b846001600160a01b0316866001600160a01b031685600001516001600160a01b03167f888085db651d2c8dd055a62e48cd23d308502ebd6b714c6f4e9368bf27bfa9f88688602001516040516115a9929190613cdc565b505050505050565b6000611d20836001600160a01b038416612c2f565b600082820183811015611d205760405162461bcd60e51b815260040161021990613d8e565b611eee846323b872dd60e01b858585604051602401612a0693929190613b7c565b60408051601f198184030181529190526020810180516001600160e01b03166001600160e01b031990931692909217909152612c79565b6000611d2083836040518060400160405280601e81526020017f536166654d6174683a207375627472616374696f6e206f766572666c6f770000815250612d08565b3390565b6000828152602081905260409020612a9b90826129ab565b15610c1657612aa8612a7f565b6001600160a01b0316816001600160a01b0316837f2f8788117e7eff1d82e926ec794901d17c78024a50270940304540a733656f0d60405160405180910390a45050565b6000828152602081905260409020612b049082612d34565b15610c1657612b11612a7f565b6001600160a01b0316816001600160a01b0316837ff6391f5c32d9c69d2a47ea670b442974b53935d1edc7fd64eb21e047a839171b60405160405180910390a45050565b60007f22eb06b067ef6305a65d8334d41817cd2fb49f43ee331996ed20687c8152e5ed60001b8333846000015185602001518660400151876060015188608001518960a001518a60c001518b60e001518c6101000151604051602001612bc69c9b9a99989796959493929190613c50565b60405160208183030381529060405280519060200120905092915050565b6000611d208383612d49565b6000611d20836001600160a01b038416612d8e565b61228e8363a9059cbb60e01b8484604051602401612a06929190613ba0565b6000611d2382612da6565b6000612c3b8383612d8e565b612c7157508154600181810184556000848152602080822090930184905584548482528286019093526040902091909155611d23565b506000611d23565b6060612cce826040518060400160405280602081526020017f5361666545524332303a206c6f772d6c6576656c2063616c6c206661696c6564815250856001600160a01b0316612daa9092919063ffffffff16565b80519091501561228e5780806020019051810190612cec91906137fe565b61228e5760405162461bcd60e51b8152600401610219906140fd565b60008184841115612d2c5760405162461bcd60e51b81526004016102199190613cea565b505050900390565b6000611d20836001600160a01b038416612dc1565b81546000908210612d6c5760405162461bcd60e51b815260040161021990613cfd565b826000018281548110612d7b57fe5b9060005260206000200154905092915050565b60009081526001919091016020526040902054151590565b5490565b6060612db98484600085612e87565b949350505050565b60008181526001830160205260408120548015612e7d5783546000198083019190810190600090879083908110612df457fe5b9060005260206000200154905080876000018481548110612e1157fe5b600091825260208083209091019290925582815260018981019092526040902090840190558654879080612e4157fe5b60019003818190600052602060002001600090559055866001016000878152602001908152602001600020600090556001945050505050611d23565b6000915050611d23565b6060612e9285612f4b565b612eae5760405162461bcd60e51b815260040161021990614058565b60006060866001600160a01b03168587604051612ecb9190613949565b60006040518083038185875af1925050503d8060008114612f08576040519150601f19603f3d011682016040523d82523d6000602084013e612f0d565b606091505b50915091508115612f21579150612db99050565b805115612f315780518082602001fd5b8360405162461bcd60e51b81526004016102199190613cea565b6000813f7fc5d2460186f7233c927e7db2dcc703c0e500b653ca82273b7bfad8045d85a470818114801590612db9575050151592915050565b8035611d23816143b9565b60008083601f840112612fa0578182fd5b5081356001600160401b03811115612fb6578182fd5b602083019150836020828501011115612fce57600080fd5b9250929050565b600082601f830112612fe5578081fd5b81356001600160401b03811115612ffa578182fd5b61300d601f8201601f1916602001614367565b915080825283602082850101111561302457600080fd5b8060208401602084013760009082016020015292915050565b6000610120808385031215613050578182fd5b61305981614367565b9150506130668383612f84565b81526020820135602082015260408201356001600160401b038082111561308c57600080fd5b61309885838601612fd5565b6040840152606084013560608401526130b48560808601612f84565b608084015260a084013560a084015260c08401359150808211156130d757600080fd5b506130e484828501612fd5565b60c08301525060e082013560e082015261010080830135818301525092915050565b80356001600160801b0381168114611d2357600080fd5b80356001600160401b0381168114611d2357600080fd5b60008060008060008060008060006101208a8c031215613152578485fd5b893561315d816143b9565b985060208a013561316d816143b9565b975060408a013561317d816143b9565b965060608a0135955060808a0135945060a08a013561319b816143b9565b8094505060c08a0135925060e08a013591506101008a013590509295985092959850929598565b6000806000606084860312156131d6578283fd5b83356131e1816143b9565b925060208401356131f1816143b9565b915060408401356001600160401b0381111561320b578182fd5b6132178682870161303d565b9150509250925092565b6000806000806000806000806000806000806101408d8f031215613243578283fd5b61324d8e8e612f84565b9b5061325c8e60208f01612f84565b9a5060408d013599506001600160401b0360608e0135111561327c578283fd5b61328c8e60608f01358f01612f8f565b909950975060808d013596506132a58e60a08f01612f84565b955060c08d013594506001600160401b0360e08e013511156132c5578283fd5b6132d58e60e08f01358f01612f8f565b9c9f9b9e50999c989b979a9699959894979596610100860135956101200135945092505050565b600080600080600080600080610100898b031215613318578384fd5b8835613323816143b9565b97506020890135613333816143b9565b965060408901359550606089013594506080890135613351816143b9565b979a969950949793969560a0850135955060c08501359460e001359350915050565b6000806000806000806000806000806101208b8d031215613392578384fd5b8a3561339d816143b9565b995060208b01356133ad816143b9565b985060408b0135975060608b0135965060808b01356133cb816143b9565b955060a08b0135945060c08b0135935060e08b013592506101008b01356001600160401b038111156133fb578283fd5b6134078d828e01612f8f565b915080935050809150509295989b9194979a5092959850565b60008060008060008060008060008060006101608c8e031215613441578485fd5b8b3561344c816143b9565b9a5060208c013561345c816143b9565b995060408c0135985060608c0135975060808c013561347a816143b9565b965060a08c0135955060c08c0135945060e08c0135935061349f8d6101008e0161311d565b92506134af8d6101208e0161311d565b91506134bf8d6101408e01613106565b90509295989b509295989b9093969950565b6000806000606084860312156134e5578081fd5b83356134f0816143b9565b95602085013595506040909401359392505050565b6000806000806060858703121561351a578182fd5b8435613525816143b9565b935060208501356001600160401b0380821115613540578384fd5b61354c8883890161303d565b94506040870135915080821115613561578384fd5b5061356e87828801612f8f565b95989497509550505050565b600080600080848603610120811215613591578283fd5b853561359c816143b9565b945060e0601f19820112156135af578283fd5b506135ba60e0614367565b6135c78760208801612f84565b815260408601356020820152606086013560408201526135ea8760808801612f84565b606082015260a0860135608082015260c086013560a082015260e086013560c0820152809350506101008501356001600160401b0381111561362a578283fd5b61356e87828801612f8f565b60008060408385031215613648578182fd5b8235613653816143b9565b946020939093013593505050565b600080600060608486031215613675578081fd5b8335613680816143b9565b92506020840135613690816143b9565b929592945050506040919091013590565b6000806000806000608086880312156136b8578283fd5b85356136c3816143b9565b945060208601356136d3816143b9565b93506040860135925060608601356001600160401b038111156136f4578182fd5b61370088828901612f8f565b969995985093965092949392505050565b600080600080600080600080610100898b031215613318578182fd5b6000806040838503121561373f578182fd5b823561374a816143b9565b915060208301356001600160401b03811115613764578182fd5b6137708582860161303d565b9150509250929050565b600080600080600060a08688031215613791578283fd5b853561379c816143b9565b945060208601356001600160401b038111156137b6578384fd5b6137c28882890161303d565b94505060408601356137d3816143d1565b925060608601356137e3816143d1565b91506137f28760808801613106565b90509295509295909350565b60006020828403121561380f578081fd5b81518015158114611d20578182fd5b60006020828403121561382f578081fd5b5035919050565b60008060408385031215613848578182fd5b82359150602083013561385a816143b9565b809150509250929050565b60008060408385031215613877578182fd5b50508035926020909101359150565b6000806000806080858703121561389b578182fd5b8435935060208501356138ad816143d1565b925060408501356138bd816143d1565b915060608501356001600160801b03811681146138d8578182fd5b939692955090935050565b60008284528282602086013780602084860101526020601f19601f85011685010190509392505050565b6000815180845261392581602086016020860161438d565b601f01601f19169290920160200192915050565b6000828483379101908152919050565b6000825161395b81846020870161438d565b9190910192915050565b6001600160a01b0391909116815260200190565b6001600160a01b038e811682528d811660208301528c166040820152606081018b9052610160608082018190526000906139b69083018b8d6138e3565b60a083018a90526001600160a01b03891660c084015260e083018890528281036101008401526139e78187896138e3565b610120840195909552505061014001529b9a5050505050505050505050565b6001600160a01b038c811682528b811660208301528a81166040830152606082018a905261016060808301819052600091613a438483018c61390d565b91508960a085015280891660c0850152508660e0840152828103610100840152613a6d818761390d565b610120840195909552505061014001529998505050505050505050565b6001600160a01b03998a168152978916602089015295881660408801526060870194909452608086019290925290941660a084015260c083019390935260e08201929092526101008101919091526101200190565b6001600160a01b0385811682528416602082015260408101839052608060608201819052600090613b129083018461390d565b9695505050505050565b6001600160a01b0386811682528516602082015260408101849052608060608201819052600090613b5090830184866138e3565b979650505050505050565b6001600160a01b039390931683526020830191909152604082015260600190565b6001600160a01b039384168152919092166020820152604081019190915260600190565b6001600160a01b03929092168252602082015260400190565b6001600160a01b039485168152602081019390935292166040820152606081019190915260800190565b901515815260200190565b90815260200190565b998a526001600160a01b0398891660208b015296881660408a01529487166060890152608088019390935260a087019190915290931660c085015260e08401929092526101008301919091526101208201526101400190565b8c81526001600160a01b038c811660208301528b811660408301528a81166060830152608082018a905261018060a08301819052600091613c938483018c61390d565b91508960c085015280891660e08501525086610100840152828103610120840152613cbe818761390d565b610140840195909552505061016001529a9950505050505050505050565b918252602082015260400190565b600060208252611d20602083018461390d565b60208082526022908201527f456e756d657261626c655365743a20696e646578206f7574206f6620626f756e604082015261647360f01b606082015260800190565b6020808252602f908201527f416363657373436f6e74726f6c3a2073656e646572206d75737420626520616e60408201526e0818591b5a5b881d1bc819dc985b9d608a1b606082015260800190565b6020808252601b908201527f536166654d6174683a206164646974696f6e206f766572666c6f770000000000604082015260600190565b60208082526025908201527f53616665537761703a206175746f526574726965766546656573206578656564604082015264206665657360d81b606082015260800190565b60208082526019908201527f53616665537761703a20616c7265616479206578706972656400000000000000604082015260600190565b6020808252601a908201527f53616665537761703a206e6f7420616e20616374697661746f72000000000000604082015260600190565b60208082526015908201527414d8599954ddd85c0e881b9bc81d1bdad95b881a59605a1b604082015260600190565b60208082526011908201527014d8599954ddd85c0e88195e1c1a5c9959607a1b604082015260600190565b60208082526030908201527f416363657373436f6e74726f6c3a2073656e646572206d75737420626520616e60408201526f2061646d696e20746f207265766f6b6560801b606082015260800190565b6020808252601b908201527f53616665537761703a206e6f7420617661696c61626c65207965740000000000604082015260600190565b60208082526025908201527f53616665537761703a2074727920746f207377617020657468657220616e642060408201526432ba3432b960d91b606082015260800190565b60208082526024908201527f53616665537761703a2074727920746f2073776170207468652073616d65207460408201526337b5b2b760e11b606082015260800190565b60208082526026908201527f53616665537761703a206175746f5265747269657665466565732065786565646040820152652076616c756560d01b606082015260800190565b60208082526016908201527514d8599954ddd85c0e881ddc9bdb99c81cd958dc995d60521b604082015260600190565b6020808252601d908201527f416464726573733a2063616c6c20746f206e6f6e2d636f6e7472616374000000604082015260600190565b60208082526017908201527f53616665537761703a2072657175657374206578697374000000000000000000604082015260600190565b60208082526018908201527f53616665537761703a2076616c7565206d69736d617463680000000000000000604082015260600190565b6020808252602a908201527f5361666545524332303a204552433230206f7065726174696f6e20646964206e6040820152691bdd081cdd58d8d9595960b21b606082015260800190565b60208082526015908201527414d8599954ddd85c0e881b9bdd08195e1c1a5c9959605a1b604082015260600190565b6020808252601b908201527f53616665537761703a2072657175657374206e6f742065786973740000000000604082015260600190565b6020808252601b908201527f53616665537761703a2073656e6465723d3d726563697069656e740000000000604082015260600190565b60208082526026908201527f53616665537761703a206e6f7420616363657074696e67206574686572206469604082015265726563746c7960d01b606082015260800190565b6020808252602f908201527f416363657373436f6e74726f6c3a2063616e206f6e6c792072656e6f756e636560408201526e103937b632b9903337b91039b2b63360891b606082015260800190565b9384526001600160a01b039290921660208401526040830152606082015260800190565b95865260208601949094526001600160a01b039290921660408501526060840152608083015260a082015260c00190565b98895260208901979097526001600160a01b039590951660408801526060870193909352608086019190915260a08501526001600160401b0390811660c08501521660e08301526001600160801b03166101008201526101200190565b9384526001600160401b039283166020850152911660408301526001600160801b0316606082015260800190565b60ff91909116815260200190565b6040518181016001600160401b038111828210171561438557600080fd5b604052919050565b60005b838110156143a8578181015183820152602001614390565b83811115611eee5750506000910152565b6001600160a01b03811681146143ce57600080fd5b50565b6001600160401b03811681146143ce57600080fdfeec5aad7bdface20c35bc02d6d2d5760df981277427368525d634f4e2603ea1922c0f05de664e2354e281c7c55d07fe10e18c61d9b196dbcd318285801b36cde4a264697066735822122058ba38cc0dcfefd9ab9c4719c0111cf1345b0cd766d9389026b7dd7d76086afa64736f6c634300060c0033ec5aad7bdface20c35bc02d6d2d5760df981277427368525d634f4e2603ea192",
  "immutableReferences": {},
  "source": "// SPDX-License-Identifier: GPL-3.0-or-later\npragma solidity 0.6.12;\npragma experimental ABIEncoderV2;\n\nimport \"../node_modules/@openzeppelin/contracts/math/SafeMath.sol\";\nimport \"../node_modules/@openzeppelin/contracts/access/AccessControl.sol\";\nimport \"../node_modules/@openzeppelin/contracts/token/ERC20/SafeERC20.sol\";\nimport \"../node_modules/@openzeppelin/contracts/token/ERC721/IERC721.sol\";\n\n/** @title SafeSwap constract \n    @author Tal Asa <tal@kirobo.io> , Ori Shalom <oris@kirobo.io> \n    @notice handles swapping of token between 2 parties:\n        sender - fills the information for both parties \n        addresses - his address and the recipient address\n        token - address of the specific token to be transferred (eth, token20, token721)\n        value - the value that he will be sending and the value he will be recieving\n        fees - both parties fees\n        secretHash - a hash of his secret for the secure transfer\n\n        recipient - checks that all the agreed between the two is the info is filled correctly\n        and if so, approves the swap\n */\ncontract SafeSwap is AccessControl {\n    using SafeMath for uint256;\n    using SafeERC20 for IERC20;\n\n    // keccak256(\"ACTIVATOR_ROLE\");\n    bytes32 public constant ACTIVATOR_ROLE =\n        0xec5aad7bdface20c35bc02d6d2d5760df981277427368525d634f4e2603ea192;\n\n    // keccak256(\"hiddenSwap(address from,address to,address token0,uint256 value0,uint256 fees0,address token1,uint256 value1,uint256 fees1,bytes32 secretHash)\");\n    bytes32 public constant HIDDEN_SWAP_TYPEHASH =\n        0x0f11af065228fe4d4a82a264c46914620a3a99413bfee68f390bd6a3ba05e2c2;\n\n    // keccak256(\"hiddenSwapERC721(address from,address to,address token0,uint256 value0,bytes tokenData0,uint256 fees0,address token1,uint256 value1,bytes tokenData1,uint256 fees1,bytes32 secretHash)\");\n    bytes32 public constant HIDDEN_ERC721_SWAP_TYPEHASH =\n        0x22eb06b067ef6305a65d8334d41817cd2fb49f43ee331996ed20687c8152e5ed;\n\n    uint256 s_fees;\n\n    struct SwapInfo {\n        address token0;\n        uint256 value0;\n        uint256 fees0;\n        address token1;\n        uint256 value1;\n        uint256 fees1;\n        bytes32 secretHash;\n    }\n\n    struct SwapERC721Info {\n        address token0;\n        uint256 value0; //in case of ether it's a value, in case of 721 it's tokenId\n        bytes tokenData0;\n        uint256 fees0;\n        address token1;\n        uint256 value1; //in case of ether it's a value, in case of 721 it's tokenId\n        bytes tokenData1;\n        uint256 fees1;\n        bytes32 secretHash;\n    }\n\n    mapping(bytes32 => uint256) s_swaps;\n    mapping(bytes32 => uint256) s_hswaps;\n\n    string public constant NAME = \"Kirobo Safe Swap\";\n    string public constant VERSION = \"1\";\n    uint8 public constant VERSION_NUMBER = 0x1;\n\n    event Deposited(\n        address indexed from,\n        address indexed to,\n        address indexed token0,\n        uint256 value0,\n        uint256 fees0,\n        address token1,\n        uint256 value1,\n        uint256 fees1,\n        bytes32 secretHash\n    );\n\n    event TimedDeposited(\n        address indexed from,\n        address indexed to,\n        address indexed token0,\n        uint256 value0,\n        uint256 fees0,\n        address token1,\n        uint256 value1,\n        uint256 fees1,\n        bytes32 secretHash,\n        uint64 availableAt,\n        uint64 expiresAt,\n        uint128 autoRetrieveFees\n    );\n\n    event Retrieved(\n        address indexed from,\n        address indexed to,\n        bytes32 indexed id,\n        uint256 value\n    );\n\n    event Swapped(\n        address indexed from,\n        address indexed to,\n        bytes32 indexed id,\n        address token0,\n        uint256 value0,\n        address token1,\n        uint256 value1\n    );\n\n    event ERC721Deposited(\n        address indexed from,\n        address indexed to,\n        address indexed token0,\n        uint256 value0, //in case of ether it's a value, in case of 721 it's tokenId\n        uint256 fees0,\n        address token1,\n        uint256 value1, //in case of ether it's a value, in case of 721 it's tokenId\n        uint256 fees1,\n        bytes32 secretHash\n    );\n\n    event ERC721TimedDeposited(\n        address indexed from,\n        address indexed to,\n        address indexed token0,\n        uint256 value0, //in case of ether it's a value, in case of 721 it's tokenId\n        uint256 fees0,\n        address token1,\n        uint256 value1, //in case of ether it's a value, in case of 721 it's tokenId\n        uint256 fees1,\n        bytes32 secretHash,\n        uint64 availableAt,\n        uint64 expiresAt,\n        uint128 autoRetrieveFees\n    );\n\n    event ERC721Retrieved(\n        address indexed token,\n        address indexed from,\n        address indexed to,\n        bytes32 id,\n        uint256 tokenId\n    );\n\n    event ERC721Swapped(\n        address indexed from,\n        address indexed to,\n        address indexed token0,\n        uint256 value0,\n        address token1,\n        uint256 value1,\n        bytes32 id\n    );\n\n    event HDeposited(address indexed from, uint256 value, bytes32 indexed id1);\n\n    event HTimedDeposited(\n        address indexed from,\n        uint256 value,\n        bytes32 indexed id1,\n        uint64 availableAt,\n        uint64 expiresAt,\n        uint128 autoRetrieveFees\n    );\n\n    event HRetrieved(address indexed from, bytes32 indexed id1, uint256 value);\n\n    event HSwapped(\n        address indexed from,\n        address indexed to,\n        bytes32 indexed id1,\n        address token0,\n        uint256 value0,\n        address token1,\n        uint256 value1\n    );\n\n    event HERC721Swapped(\n        address indexed from,\n        address indexed to,\n        bytes32 indexed id1,\n        address token0,\n        uint256 value0,\n        address token1,\n        uint256 value1\n    );\n\n    modifier onlyActivator() {\n        require(\n            hasRole(ACTIVATOR_ROLE, msg.sender),\n            \"SafeSwap: not an activator\"\n        );\n        _;\n    }\n\n    constructor(address activator) public {\n        _setupRole(DEFAULT_ADMIN_ROLE, msg.sender);\n        _setupRole(ACTIVATOR_ROLE, msg.sender);\n        _setupRole(ACTIVATOR_ROLE, activator);\n    }\n\n    receive() external payable {\n        require(false, \"SafeSwap: not accepting ether directly\");\n    }\n\n    function transferERC20(\n        address token,\n        address wallet,\n        uint256 value\n    ) external onlyActivator() {\n        IERC20(token).safeTransfer(wallet, value);\n    }\n\n    function transferERC721(\n        address token,\n        address wallet,\n        uint256 tokenId,\n        bytes calldata data\n    ) external onlyActivator() {\n        IERC721(token).safeTransferFrom(address(this), wallet, tokenId, data);\n    }\n\n    function transferFees(address payable wallet, uint256 value)\n        external\n        onlyActivator()\n    {\n        s_fees = s_fees.sub(value);\n        wallet.transfer(value);\n    }\n\n    function totalFees() external view returns (uint256) {\n        return s_fees;\n    }\n\n    // --------------------------------- ETH <==> ERC20 ---------------------------------\n\n    /** @notice deposit - safe swap function that the sender side fills with all the relevet information for the swap\n               this function deels with Ether and token20 swaps\n        @param to: address of the recipient\n        @param token0: the address of the token he is sending to the recipient\n        @param value0: the amount being sent to the recipient side in the selected token in token0\n        @param fees0: the amount of fees the he needs to pay for the swap\n        @param token1: the address of the token he is recieving from the recipient \n        @param value1: the amount being sent to him by the recipient in the selected token in token1\n        @param fees1: the amount of fees the recipient needs to pay for the swap\n        @param secretHash: a hash of the secret \n */\n    function deposit(\n        address payable to,\n        address token0,\n        uint256 value0,\n        uint256 fees0,\n        address token1,\n        uint256 value1,\n        uint256 fees1,\n        bytes32 secretHash\n    ) external payable {\n        require(token0 != token1, \"SafeSwap: try to swap the same token\");\n        if (token0 == address(0)) {\n            require(msg.value == value0.add(fees0), \"SafeSwap: value mismatch\");\n        } else {\n            require(msg.value == fees0, \"SafeSwap: value mismatch\");\n        }\n        require(to != msg.sender, \"SafeSwap: sender==recipient\");\n        bytes32 id = keccak256(\n            abi.encode(\n                msg.sender,\n                to,\n                token0,\n                value0,\n                fees0,\n                token1,\n                value1,\n                fees1,\n                secretHash\n            )\n        );\n        require(s_swaps[id] == 0, \"SafeSwap: request exist\");\n        s_swaps[id] = 0xffffffffffffffff; // expiresAt: max, AvailableAt: 0, autoRetrieveFees: 0\n        emit Deposited(\n            msg.sender,\n            to,\n            token0,\n            value0,\n            fees0,\n            token1,\n            value1,\n            fees1,\n            secretHash\n        );\n    }\n\n    /** @notice timedDeposit - handles deposits with an addition that has a timer in seconds\n        @param to: address of the recipient\n        @param token0: the address of the token he is sending to the recipient\n        @param value0: the amount being sent to the recipient side in the selected token in token0\n        @param fees0: the amount of fees the he needs to pay for the swap\n        @param token1: the address of the token he is recieving from the recipient \n        @param value1: the amount being sent to him by the recipient in the selected token in token1\n        @param fees1: the amount of fees the recipient needs to pay for the swap\n        @param secretHash: a hash of the secret \n        @param availableAt: sets a start time in seconds for when the deposite can happen\n        @param expiresAt: sets an end time in seconds for when the deposite can happen\n        @param autoRetrieveFees: the amount of fees that will be collected from the sender in case of retrieve\n     */\n    function timedDeposit(\n        address payable to,\n        address token0,\n        uint256 value0,\n        uint256 fees0,\n        address token1,\n        uint256 value1,\n        uint256 fees1,\n        bytes32 secretHash,\n        uint64 availableAt,\n        uint64 expiresAt,\n        uint128 autoRetrieveFees\n    ) external payable {\n        require(token0 != token1, \"SafeSwap: try to swap the same token\");\n        require(\n            fees0 >= autoRetrieveFees,\n            \"SafeSwap: autoRetrieveFees exeed fees\"\n        );\n        require(to != msg.sender, \"SafeSwap: sender==recipient\");\n        require(expiresAt > now, \"SafeSwap: already expired\");\n        if (token0 == address(0)) {\n            require(msg.value == value0.add(fees0), \"SafeSwap: value mismatch\");\n        } else {\n            require(msg.value == fees0, \"SafeSwap: value mismatch\");\n        }\n\n        bytes32 id = keccak256(\n            abi.encode(\n                msg.sender,\n                to,\n                token0,\n                value0,\n                fees0,\n                token1,\n                value1,\n                fees1,\n                secretHash\n            )\n        );\n        require(s_swaps[id] == 0, \"SafeSwap: request exist\");\n        s_swaps[id] =\n            uint256(expiresAt) +\n            uint256(availableAt << 64) +\n            (uint256(autoRetrieveFees) << 128);\n        emit TimedDeposited(\n            msg.sender,\n            to,\n            token0,\n            value0,\n            fees0,\n            token1,\n            value1,\n            fees1,\n            secretHash,\n            availableAt,\n            expiresAt,\n            autoRetrieveFees\n        );\n    }\n\n    /** @notice Retrieve - gives the functionallity of the undo\n                after the sender sends the deposit he can undo it (for what ever reason)\n                until the recipient didnt approved the swap (swap function below)\n        @param to: address of the recipient\n        @param token0: the address of the token he is sending to the recipient\n        @param value0: the amount being sent to the recipient side in the selected token in token0\n        @param fees0: the amount of fees the he needs to pay for the swap\n        @param token1: the address of the token he is recieving from the recipient \n        @param value1: the amount being sent to him by the recipient in the selected token in token1\n        @param fees1: the amount of fees the recipient needs to pay for the swap\n        @param secretHash: a hash of the secret \n     */\n    function retrieve(\n        address to,\n        address token0,\n        uint256 value0,\n        uint256 fees0,\n        address token1,\n        uint256 value1,\n        uint256 fees1,\n        bytes32 secretHash\n    ) external {\n        bytes32 id = keccak256(\n            abi.encode(\n                msg.sender,\n                to,\n                token0,\n                value0,\n                fees0,\n                token1,\n                value1,\n                fees1,\n                secretHash\n            )\n        );\n        require(s_swaps[id] > 0, \"SafeSwap: request not exist\");\n        delete s_swaps[id];\n        uint256 valueToSend;\n        if (token0 == address(0)) {\n            valueToSend = value0.add(fees0);\n        } else {\n            valueToSend = fees0;\n        }\n        msg.sender.transfer(valueToSend);\n        emit Retrieved(msg.sender, to, id, valueToSend);\n    }\n\n    /** @notice Swap - the recipient side approves the info sent by the sender.\n                once this function is submitted successuly the swap is made\n        @param from: address of the recipient\n        @param token0: the address of the token he is sending to the recipient\n        @param value0: the amount being sent to the recipient side in the selected token in token0\n        @param fees0: the amount of fees the he needs to pay for the swap\n        @param token1: the address of the token he is recieving from the recipient \n        @param value1: the amount being sent to him by the recipient in the selected token in token1\n        @param fees1: the amount of fees the recipient needs to pay for the swap\n        @param secretHash: a hash of the secret \n     */\n    function swap(\n        address payable from,\n        address token0,\n        uint256 value0,\n        uint256 fees0,\n        address token1,\n        uint256 value1,\n        uint256 fees1,\n        bytes32 secretHash,\n        bytes calldata secret\n    ) \n        external payable\n    {\n        bytes32 id = keccak256(\n            abi.encode(\n                from,\n                msg.sender,\n                token0,\n                value0,\n                fees0,\n                token1,\n                value1,\n                fees1,\n                secretHash\n            )\n        );\n        uint256 tr = s_swaps[id];\n        require(tr > 0, \"SafeSwap: request not exist\");\n        require(uint64(tr) > now, \"SafeSwap: expired\");\n        require(uint64(tr >> 64) <= now, \"SafeSwap: not available yet\");\n        require(keccak256(secret) == secretHash, \"SafeSwap: wrong secret\");\n        delete s_swaps[id];\n        s_fees = s_fees.add(fees0).add(fees1);\n        if (token0 == address(0)) {\n            msg.sender.transfer(value0);\n        } else {\n            IERC20(token0).safeTransferFrom(from, msg.sender, value0);\n        }\n        if (token1 == address(0)) {\n            require(msg.value == value1.add(fees1), \"SafeSwap: value mismatch\");\n            from.transfer(value1);\n        } else {\n            require(msg.value == fees1, \"SafeSwap: value mismatch\");\n            IERC20(token1).safeTransferFrom(msg.sender, from, value1);\n        }\n        emit Swapped(from, msg.sender, id, token0, value0, token1, value1);\n    }\n\n    /** @notice autoRetrieve - gives the functionallity of the undo with addittion of automation.\n                after the sender sends the deposit he can undo it (for what ever reason)\n                until the recipient didnt approved the swap (swap function below)\n                the autoRetrieve automatically retrieves the funds when a time that was set by the sender is met\n        @param from: address of the recipient\n        @param to: address of the recipient\n        @param token0: the address of the token he is sending to the recipient\n        @param value0: the amount being sent to the recipient side in the selected token in token0\n        @param fees0: the amount of fees the he needs to pay for the swap\n        @param token1: the address of the token he is recieving from the recipient \n        @param value1: the amount being sent to him by the recipient in the selected token in token1\n        @param fees1: the amount of fees the recipient needs to pay for the swap\n        @param secretHash: a hash of the secret \n     */\n    function autoRetrieve(\n        address payable from,\n        address to,\n        address token0,\n        uint256 value0,\n        uint256 fees0,\n        address token1,\n        uint256 value1,\n        uint256 fees1,\n        bytes32 secretHash\n    ) \n        external\n        onlyActivator()\n    {\n        bytes32 id = keccak256(\n            abi.encode(\n                from,\n                to,\n                token0,\n                value0,\n                fees0,\n                token1,\n                value1,\n                fees1,\n                secretHash\n            )\n        );\n        uint256 tr = s_swaps[id];\n        require(tr > 0, \"SafeSwap: request not exist\");\n        require(uint64(tr) <= now, \"SafeSwap: not expired\");\n        delete s_swaps[id];\n        s_fees = s_fees + (tr >> 128); // autoRetreive fees\n        uint256 valueToRetrieve;\n        if (token0 == address(0)) {\n            valueToRetrieve = value0.add(fees0).sub(tr >> 128);\n        } else {\n            valueToRetrieve = fees0.sub(tr >> 128);\n        }\n        from.transfer(valueToRetrieve);\n        emit Retrieved(from, to, id, valueToRetrieve);\n    }\n\n    // ------------------------------- ERC-721 -------------------------------\n\n    /** @notice depositERC721  - safe swap function that the sender side fills with all the relevet information for the swap\n                this function deels with Ether and token721 swaps\n        @param to: address of the recipient\n        @param token0: the address of the token he is sending to the recipient\n        @param value0: in case of Ether  - the amount being sent to the recipient side in the selected token in token0\n                       in case of token721 - it's the tokenId of the token721\n        @param tokenData0: data on the token Id (only in token721)\n        @param fees0: the amount of fees the he needs to pay for the swap\n        @param token1: the address of the token he is recieving from the recipient \n        @param value1: in case of Ether  - the amount being sent to the recipient side in the selected token in token1\n                       in case of token721 - it's the tokenId of the token721\n        @param tokenData1: data on the token Id (only in token721)\n        @param fees1: the amount of fees the recipient needs to pay for the swap\n        @param secretHash: a hash of the secret                     \n */\n    function depositERC721(\n        address payable to,\n        address token0,\n        uint256 value0, //in case of ether it's a value, in case of 721 it's tokenId\n        bytes calldata tokenData0,\n        uint256 fees0,\n        address token1,\n        uint256 value1, //in case of ether it's a value, in case of 721 it's tokenId\n        bytes calldata tokenData1,\n        uint256 fees1,\n        bytes32 secretHash\n    ) \n        external payable\n    {\n        if (token0 == address(0)) {\n            //eth to 721\n            require(token0 != token1, \"SafeSwap: try to swap ether and ether\");\n            require(msg.value == value0.add(fees0), \"SafeSwap: value mismatch\");\n            require(value1 > 0, \"SafeSwap: no token id\");\n        } else if (token1 == address(0)) {\n            //721 to eth\n            require(msg.value == fees0, \"SafeSwap: value mismatch\");\n            require(value0 > 0, \"SafeSwap: no token id\");\n        } else {\n            //721 to 721\n            require(msg.value == fees0, \"SafeSwap: value mismatch\");\n            require(value0 > 0, \"SafeSwap: no token id\");\n            require(value1 > 0, \"SafeSwap: no token id\");\n        }\n        require(to != msg.sender, \"SafeSwap: sender==recipient\");\n        bytes32 id = keccak256(\n            abi.encode(\n                msg.sender,\n                to,\n                token0,\n                value0,\n                tokenData0,\n                fees0,\n                token1,\n                value1,\n                tokenData1,\n                fees1,\n                secretHash\n            )\n        );\n        require(s_swaps[id] == 0, \"SafeSwap: request exist\");\n        s_swaps[id] = 0xffffffffffffffff; // expiresAt: max, AvailableAt: 0, autoRetrieveFees: 0\n        emit ERC721Deposited(\n            msg.sender,\n            to,\n            token0,\n            value0,\n            fees0,\n            token1,\n            value1,\n            fees1,\n            secretHash\n        );\n    }\n\n    /** @notice swapERC721 - the recipient side, besically approves the info sent by the sender.\n                once this function is submitted successuly the swap is made\n        @param from: address of the recipient\n        @param info: a struct (SwapErc721Struct) defimed above containing the following params:\n                token0: the address of the token he is sending to the recipient\n                value0: in case of Ether  - the amount being sent to the recipient side in the selected token in token0\n                        in case of token721 - it's the tokenId of the token721\n                tokenData0: data on the token Id (only in token721)\n                fees0: the amount of fees the he needs to pay for the swap\n                token1: the address of the token he is recieving from the recipient \n                value1: in case of Ether  - the amount being sent to the recipient side in the selected token in token1\n                        in case of token721 - it's the tokenId of the token721\n                tokenData1: data on the token Id (only in token721)\n                fees1: the amount of fees the recipient needs to pay for the swap\n                secretHash: a hash of the secret \n        @param secret: secret made up of passcode, private salt and public salt\n     */\n    function swapERC721(\n        address payable from,\n        SwapERC721Info memory info,\n        bytes calldata secret\n    ) \n        external payable \n    {\n        bytes32 id = keccak256(\n            abi.encode(\n                from,\n                msg.sender,\n                info.token0,\n                info.value0,\n                info.tokenData0,\n                info.fees0,\n                info.token1,\n                info.value1,\n                info.tokenData1,\n                info.fees1,\n                info.secretHash\n            )\n        );\n        uint256 tr = s_swaps[id];\n        require(tr > 0, \"SafeSwap: request not exist\");\n        require(uint64(tr) > now, \"SafeSwap: expired\");\n        require(uint64(tr >> 64) <= now, \"SafeSwap: not available yet\");\n        require(keccak256(secret) == info.secretHash, \"SafeSwap: wrong secret\");\n        delete s_swaps[id];\n        s_fees = s_fees.add(info.fees0).add(info.fees1);\n        if (info.token0 == address(0)) {\n            //ether to 721\n            msg.sender.transfer(info.value0);\n        } else {\n            IERC721(info.token0).safeTransferFrom(\n                from,\n                msg.sender,\n                info.value0,\n                info.tokenData0\n            );\n        }\n        if (info.token1 == address(0)) {\n            //721 to ether\n            require(\n                msg.value == info.value1.add(info.fees1),\n                \"SafeSwap: value mismatch\"\n            );\n            from.transfer(info.value1);\n        } else {\n            require(msg.value == info.fees1, \"SafeSwap: value mismatch\");\n            IERC721(info.token1).safeTransferFrom(\n                msg.sender,\n                from,\n                info.value1,\n                info.tokenData1\n            );\n        }\n        emit ERC721Swapped(\n            from,\n            msg.sender,\n            info.token0,\n            info.value0,\n            info.token1,\n            info.value1,\n            id\n        );\n    }\n\n    /** @notice retrieveERC721 - gives the functionallity of the undo for swaps containing ERC721 tokens\n                after the sender sends the deposit he can undo it (for what ever reason)\n                until the recipient didnt approved the swap (swap function below)\n        @param  to: address of the recipient\n        @param  info: a struct (SwapRetrieveERC721) defimed above containing the following params:    \n                    to: address of the recipient\n                    token0: the address of the token he is sending to the recipient\n                    value0: in case of Ether  - the amount being sent to the recipient side in the selected token in token0\n                            in case of token721 - it's the tokenId of the token721\n                    tokenData0: data on the token Id (only in token721)\n                    fees0: the amount of fees the he needs to pay for the swap\n                    token1: the address of the token he is recieving from the recipient \n                    value1: in case of Ether  - the amount being sent to the recipient side in the selected token in token1\n                            in case of token721 - it's the tokenId of the token721\n                    tokenData1: data on the token Id (only in token721)\n                    fees1: the amount of fees the recipient needs to pay for the swap\n                    secretHash: a hash of the secret\n     */\n    function retrieveERC721(address to, SwapERC721Info memory info) external {\n        bytes32 id = keccak256(\n            abi.encode(\n                msg.sender,\n                to,\n                info.token0,\n                info.value0,\n                info.tokenData0,\n                info.fees0,\n                info.token1,\n                info.value1,\n                info.tokenData1,\n                info.fees1,\n                info.secretHash\n            )\n        );\n        require(s_swaps[id] > 0, \"SafeSwap: request not exist\");\n        delete s_swaps[id];\n        uint256 valueToSend;\n        if (info.token0 == address(0)) {\n            valueToSend = info.value0.add(info.fees0);\n        } else {\n            valueToSend = info.fees0;\n        }\n        msg.sender.transfer(valueToSend);\n        if (info.token0 == address(0)) {\n            emit Retrieved(msg.sender, to, id, valueToSend);\n        } else {\n            emit ERC721Retrieved(info.token0, msg.sender, to, id, info.value0);\n        }\n    }\n\n    /** @notice autoRetrieveERC721 - gives the functionallity of the undo for swaps containing ERC721 tokens with addittion of automation.\n                after the sender sends the deposit he can undo it (for what ever reason)\n                until the recipient didnt approved the swap (swap function below)\n        @param  from: address of the recipient\n        @param  to: address of the recipient\n        @param  info: a struct (SwapRetrieveERC721) defimed above containing the following params:    \n                    to: address of the recipient\n                    token0: the address of the token he is sending to the recipient\n                    value0: in case of Ether  - the amount being sent to the recipient side in the selected token in token0\n                            in case of token721 - it's the tokenId of the token721\n                    tokenData0: data on the token Id (only in token721)\n                    fees0: the amount of fees the he needs to pay for the swap\n                    token1: the address of the token he is recieving from the recipient \n                    value1: in case of Ether  - the amount being sent to the recipient side in the selected token in token1\n                            in case of token721 - it's the tokenId of the token721\n                    tokenData1: data on the token Id (only in token721)\n                    fees1: the amount of fees the recipient needs to pay for the swap\n                    secretHash: a hash of the secret\n     */\n    function autoRetrieveERC721(address payable from, address to, SwapERC721Info memory info)\n        external\n        onlyActivator()\n    {\n        bytes32 id = keccak256(\n            abi.encode(\n                from,\n                to,\n                info.token0,\n                info.value0,\n                info.tokenData0,\n                info.fees0,\n                info.token1,\n                info.value1,\n                info.tokenData1,\n                info.fees1,\n                info.secretHash\n            )\n        );\n        uint256 tr = s_swaps[id];\n        require(tr > 0, \"SafeSwap: request not exist\");\n        require(uint64(tr) <= now, \"SafeSwap: not expired\");\n        delete s_swaps[id];\n        s_fees = s_fees + (tr >> 128); // autoRetreive fees\n        uint256 valueToRetrieve;\n        if (info.token0 == address(0)) {\n            valueToRetrieve = info.value0.add(info.fees0).sub(tr >> 128);\n        } else {\n            valueToRetrieve = info.fees0.sub(tr >> 128);\n        }\n        from.transfer(valueToRetrieve);\n        if (info.token0 == address(0)) {\n            emit Retrieved(from, to, id, valueToRetrieve);\n        } else {\n            emit ERC721Retrieved(info.token0, from, to, id, info.value0);\n        }\n    }\n\n    /** @notice timedDepositERC721 - handles deposits for ERC721 tokens with an addition that has a timer in seconds\n        @param  to: address of the recipient\n        @param  info: a struct (SwapRetrieveERC721) defimed above containing the following params:    \n                    to: address of the recipient\n                    token0: the address of the token he is sending to the recipient\n                    value0: in case of Ether  - the amount being sent to the recipient side in the selected token in token0\n                            in case of token721 - it's the tokenId of the token721\n                    tokenData0: data on the token Id (only in token721)\n                    fees0: the amount of fees the he needs to pay for the swap\n                    token1: the address of the token he is recieving from the recipient \n                    value1: in case of Ether  - the amount being sent to the recipient side in the selected token in token1\n                            in case of token721 - it's the tokenId of the token721\n                    tokenData1: data on the token Id (only in token721)\n                    fees1: the amount of fees the recipient needs to pay for the swap\n                    secretHash: a hash of the secret\n        @param availableAt: sets a start time in seconds for when the deposite can happen\n        @param expiresAt: sets an end time in seconds for when the deposite can happen\n        @param autoRetrieveFees: the amount of fees that will be collected from the sender in case of retrieve\n     */\n    function timedDepositERC721(\n        address to,\n        SwapERC721Info memory info,\n        uint64 availableAt,\n        uint64 expiresAt,\n        uint128 autoRetrieveFees\n    ) \n        external payable\n    {\n        if (info.token0 == address(0)) {\n            //eth to 721\n            require(\n                info.token0 != info.token1,\n                \"SafeSwap: try to swap ether and ether\"\n            );\n            require(\n                msg.value == info.value0.add(info.fees0),\n                \"SafeSwap: value mismatch\"\n            );\n            require(info.value1 > 0, \"SafeSwap: no token id\");\n        } else if (info.token1 == address(0)) {\n            //721 to eth\n            require(msg.value == info.fees0, \"SafeSwap: value mismatch\");\n            require(info.value0 > 0, \"SafeSwap: no token id\");\n        } else {\n            //721 to 721\n            require(msg.value == info.fees0, \"SafeSwap: value mismatch\");\n            require(info.value0 > 0, \"SafeSwap: no token id\");\n            require(info.value1 > 0, \"SafeSwap: no token id\");\n        }\n        require(\n            info.fees0 >= autoRetrieveFees,\n            \"SafeSwap: autoRetrieveFees exeed fees\"\n        );\n        require(to != msg.sender, \"SafeSwap: sender==recipient\");\n        require(expiresAt > now, \"SafeSwap: already expired\");\n        bytes32 id = keccak256(\n            abi.encode(\n                msg.sender,\n                to,\n                info.token0,\n                info.value0,\n                info.tokenData0,\n                info.fees0,\n                info.token1,\n                info.value1,\n                info.tokenData1,\n                info.fees1,\n                info.secretHash\n            )\n        );\n        require(s_swaps[id] == 0, \"SafeSwap: request exist\");\n        s_swaps[id] =\n            uint256(expiresAt) +\n            (uint256(availableAt) << 64) +\n            (uint256(autoRetrieveFees) << 128);\n        emit ERC721TimedDeposited(\n            msg.sender,\n            to,\n            info.token0,\n            info.value0,\n            info.fees0,\n            info.token1,\n            info.value1,\n            info.fees1,\n            info.secretHash,\n            availableAt,\n            expiresAt,\n            autoRetrieveFees\n        );\n    }\n\n    // ----------------------- Hidden ETH / ERC-20 / ERC-721 -----------------------\n\n    /** @notice hiddenRetrieve - an abillity to retrive (undo) without exposing the info of the sender \n        @param  id1: a hash of the info being hided (sender address, token exc...)\n        @param  value: the amount being sent to the recipient side in the selected token\n     */\n    function hiddenRetrieve(bytes32 id1, uint256 value) external {\n        bytes32 id = keccak256(abi.encode(msg.sender, value, id1));\n        require(s_hswaps[id] > 0, \"SafeSwap: request not exist\");\n        delete s_hswaps[id];\n        msg.sender.transfer(value);\n        emit HRetrieved(msg.sender, id1, value);\n    }\n\n    /** @notice hiddenAutoRetrieve - an abillity to retrive (undo) without exposing the info of the sender \n                with the addition of the automation abillity\n        @param  from: the address of the sender\n        @param  id1: a hash of the info being hided\n        @param  value: the amount being sent to the recipient side in the selected token\n     */\n    function hiddenAutoRetrieve(\n        address payable from,\n        bytes32 id1,\n        uint256 value\n    ) \n        external \n        onlyActivator()\n    {\n        bytes32 id = keccak256(abi.encode(from, value, id1));\n        uint256 tr = s_hswaps[id];\n        require(tr > 0, \"SafeSwap: request not exist\");\n        require(uint64(tr) <= now, \"SafeSwap: not expired\");\n        delete s_hswaps[id];\n        s_fees = s_fees + (tr >> 128);\n        uint256 toRetrieve = value.sub(tr >> 128);\n        from.transfer(toRetrieve);\n        emit HRetrieved(from, id1, toRetrieve);\n    }\n\n    /** @notice hiddenDeposit - an ability to deposit without exposing the trx details\n        @param  id1: a hash of the info being hided (sender address, token exc...)\n     */\n    function hiddenDeposit(bytes32 id1) external payable {\n        bytes32 id = keccak256(abi.encode(msg.sender, msg.value, id1));\n        require(s_hswaps[id] == 0, \"SafeSwap: request exist\");\n        s_hswaps[id] = 0xffffffffffffffff;\n        emit HDeposited(msg.sender, msg.value, id1);\n    }\n\n    /** @notice hiddenTimedDeposit - an ability to deposit without exposing the trx details \n                with an addition that has a timer in seconds\n        @param  id1: a hash of the info being hided (sender address, token exc...)\n        @param availableAt: sets a start time in seconds for when the deposite can happen\n        @param expiresAt: sets an end time in seconds for when the deposite can happen\n        @param autoRetrieveFees: the amount of fees that will be collected from the sender in case of retrieve\n     */\n    function hiddenTimedDeposit(\n        bytes32 id1,\n        uint64 availableAt,\n        uint64 expiresAt,\n        uint128 autoRetrieveFees\n    )\n        external payable\n    {\n        require(\n            msg.value >= autoRetrieveFees,\n            \"SafeSwap: autoRetrieveFees exeed value\"\n        );\n        bytes32 id = keccak256(abi.encode(msg.sender, msg.value, id1));\n        require(s_hswaps[id] == 0, \"SafeSwap: request exist\");\n        require(expiresAt > now, \"SafeSwap: already expired\");\n        s_hswaps[id] =\n            uint256(expiresAt) +\n            (uint256(availableAt) << 64) +\n            (uint256(autoRetrieveFees) << 128);\n        emit HTimedDeposited(\n            msg.sender,\n            msg.value,\n            id1,\n            availableAt,\n            expiresAt,\n            autoRetrieveFees\n        );\n    }\n\n    /** @notice hiddenSwap - an ability to swap without exposing the trx details \n        @param  from: address of the recipient \n        @param  info: a struct (SwapRetrieveERC721) defimed above containing the following params:    \n                    to: address of the recipient\n                    token0: the address of the token he is sending to the recipient\n                    value0: in case of Ether  - the amount being sent to the recipient side in the selected token in token0\n                            in case of token721 - it's the tokenId of the token721\n                    tokenData0: data on the token Id (only in token721)\n                    fees0: the amount of fees the he needs to pay for the swap\n                    token1: the address of the token he is recieving from the recipient \n                    value1: in case of Ether  - the amount being sent to the recipient side in the selected token in token1\n                            in case of token721 - it's the tokenId of the token721\n                    tokenData1: data on the token Id (only in token721)\n                    fees1: the amount of fees the recipient needs to pay for the swap\n                    secretHash: a hash of the secret\n        @param  secret: secret made up of passcode, private salt and public salt\n     */\n    function hiddenSwap(\n        address payable from,\n        SwapInfo memory info,\n        bytes calldata secret\n    )\n        external payable\n    {\n        bytes32 id1 = keccak256(\n            abi.encode(\n                HIDDEN_SWAP_TYPEHASH,\n                from,\n                msg.sender,\n                info.token0,\n                info.value0,\n                info.fees0,\n                info.token1,\n                info.value1,\n                info.fees1,\n                info.secretHash\n            )\n        );\n        bytes32 id = keccak256(\n            abi.encode(from, info.token0 == address(0) ? info.value0.add(info.fees0): info.fees0, id1)\n        );\n        uint256 tr = s_hswaps[id];\n        require(tr > 0, \"SafeSwap: request not exist\");\n        require(uint64(tr) > now, \"SafeSwap: expired\");\n        require(uint64(tr >> 64) <= now, \"SafeSwap: not available yet\");\n        require(keccak256(secret) == info.secretHash, \"SafeSwap: wrong secret\");\n        delete s_hswaps[id];\n        s_fees = s_fees.add(info.fees0).add(info.fees1);\n        if (info.token0 == address(0)) {\n            msg.sender.transfer(info.value0);\n        } else {\n            IERC20(info.token0).safeTransferFrom(from, msg.sender, info.value0);\n        }\n        if (info.token1 == address(0)) {\n            require(\n                msg.value == info.value1.add(info.fees1),\n                \"SafeSwap: value mismatch\"\n            );\n            from.transfer(info.value1);\n        } else {\n            require(msg.value == info.fees1, \"SafeSwap: value mismatch\");\n            IERC20(info.token1).safeTransferFrom(msg.sender, from, info.value1);\n        }\n        emit HSwapped(\n            from,\n            msg.sender,\n            id1,\n            info.token0,\n            info.value0,\n            info.token1,\n            info.value1\n        );\n    }\n\n    /** @notice hiddenSwapERC721 - an ability to swap without exposing the trx details for ERC721 tokens\n        @param  from: address of the recipient\n        @param  info: a struct (SwapRetrieveERC721) defimed above containing the following params:    \n                    to: address of the recipient\n                    token0: the address of the token he is sending to the recipient\n                    value0: in case of Ether  - the amount being sent to the recipient side in the selected token in token0\n                            in case of token721 - it's the tokenId of the token721\n                    tokenData0: data on the token Id (only in token721)\n                    fees0: the amount of fees the he needs to pay for the swap\n                    token1: the address of the token he is recieving from the recipient \n                    value1: in case of Ether  - the amount being sent to the recipient side in the selected token in token1\n                            in case of token721 - it's the tokenId of the token721\n                    tokenData1: data on the token Id (only in token721)\n                    fees1: the amount of fees the recipient needs to pay for the swap\n                    secretHash: a hash of the secret\n        @param  secret: secret made up of passcode, private salt and public salt\n     */\n    function hiddenSwapERC721(\n        address payable from,\n        SwapERC721Info memory info,\n        bytes calldata secret\n\n    )\n        external payable\n    {\n        bytes32 id1 = _calcHiddenERC712Id1(from, info);\n        bytes32 id = keccak256(\n            abi.encode(from, info.token0 == address(0) ? info.value0.add(info.fees0): info.fees0, id1)\n        );\n        uint256 tr = s_hswaps[id];\n        require(tr > 0, \"SafeSwap: request not exist\");\n        require(uint64(tr) > now, \"SafeSwap: expired\");\n        require(uint64(tr >> 64) <= now, \"SafeSwap: not available yet\");\n        require(keccak256(secret) == info.secretHash, \"SafeSwap: wrong secret\");\n        delete s_hswaps[id];\n        s_fees = s_fees.add(info.fees0).add(info.fees1);\n        if (info.token0 == address(0)) {\n            //ether to 721\n            msg.sender.transfer(info.value0);\n        } else {\n            IERC721(info.token0).safeTransferFrom(\n                from,\n                msg.sender,\n                info.value0,\n                info.tokenData0\n            );\n        }\n        if (info.token1 == address(0)) {\n            //721 to ether\n            require(\n                msg.value == info.value1.add(info.fees1),\n                \"SafeSwap: value mismatch\"\n            );\n            from.transfer(info.value1);\n        } else {\n            require(msg.value == info.fees1, \"SafeSwap: value mismatch\");\n            IERC721(info.token1).safeTransferFrom(\n                msg.sender,\n                from,\n                info.value1,\n                info.tokenData1\n            );\n        }\n        emit HERC721Swapped(\n            from,\n            msg.sender,\n            id1,\n            info.token0,\n            info.value0,\n            info.token1,\n            info.value1\n        );\n    }\n\n    /** @notice _calcHiddenERC712Id1 - private view function that calculates the id of the hidden ERC721 token swap\n        @param  from: address of the recipient\n        @param  info: a struct (SwapRetrieveERC721) defimed above containing the following params:   \n    */\n    function _calcHiddenERC712Id1(address from, SwapERC721Info memory info)\n        private\n        view\n        returns (bytes32)\n    {\n        return\n            keccak256(\n                abi.encode(\n                    HIDDEN_ERC721_SWAP_TYPEHASH,\n                    from,\n                    msg.sender,\n                    info.token0,\n                    info.value0,\n                    info.tokenData0,\n                    info.fees0,\n                    info.token1,\n                    info.value1,\n                    info.tokenData1,\n                    info.fees1,\n                    info.secretHash\n                )\n            );\n    }\n}\n",
  "sourcePath": "/Users/orishalom/repositories/ki-eth-token/contracts/SafeSwap.sol",
  "compiler": {
    "name": "solc",
    "version": "0.6.12+commit.27d51765.Emscripten.clang"
  },
  "schemaVersion": "3.3.4",
  "updatedAt": "2021-11-11T13:30:48.031Z",
  "devdoc": {
    "author": "Tal Asa <tal@kirobo.io> , Ori Shalom <oris@kirobo.io> ",
    "kind": "dev",
    "methods": {
      "autoRetrieve(address,address,address,uint256,uint256,address,uint256,uint256,bytes32)": {
        "params": {
          "fees0": ": the amount of fees the he needs to pay for the swap",
          "fees1": ": the amount of fees the recipient needs to pay for the swap",
          "from": ": address of the recipient",
          "secretHash": ": a hash of the secret ",
          "to": ": address of the recipient",
          "token0": ": the address of the token he is sending to the recipient",
          "token1": ": the address of the token he is recieving from the recipient ",
          "value0": ": the amount being sent to the recipient side in the selected token in token0",
          "value1": ": the amount being sent to him by the recipient in the selected token in token1"
        }
      },
      "autoRetrieveERC721(address,address,(address,uint256,bytes,uint256,address,uint256,bytes,uint256,bytes32))": {
        "params": {
          "from": ": address of the recipient",
          "info": ": a struct (SwapRetrieveERC721) defimed above containing the following params:     to: address of the recipient token0: the address of the token he is sending to the recipient value0: in case of Ether  - the amount being sent to the recipient side in the selected token in token0 in case of token721 - it's the tokenId of the token721 tokenData0: data on the token Id (only in token721) fees0: the amount of fees the he needs to pay for the swap token1: the address of the token he is recieving from the recipient  value1: in case of Ether  - the amount being sent to the recipient side in the selected token in token1 in case of token721 - it's the tokenId of the token721 tokenData1: data on the token Id (only in token721) fees1: the amount of fees the recipient needs to pay for the swap secretHash: a hash of the secret",
          "to": ": address of the recipient"
        }
      },
      "deposit(address,address,uint256,uint256,address,uint256,uint256,bytes32)": {
        "params": {
          "fees0": ": the amount of fees the he needs to pay for the swap",
          "fees1": ": the amount of fees the recipient needs to pay for the swap",
          "secretHash": ": a hash of the secret ",
          "to": ": address of the recipient",
          "token0": ": the address of the token he is sending to the recipient",
          "token1": ": the address of the token he is recieving from the recipient ",
          "value0": ": the amount being sent to the recipient side in the selected token in token0",
          "value1": ": the amount being sent to him by the recipient in the selected token in token1"
        }
      },
      "depositERC721(address,address,uint256,bytes,uint256,address,uint256,bytes,uint256,bytes32)": {
        "params": {
          "fees0": ": the amount of fees the he needs to pay for the swap",
          "fees1": ": the amount of fees the recipient needs to pay for the swap",
          "secretHash": ": a hash of the secret                     ",
          "to": ": address of the recipient",
          "token0": ": the address of the token he is sending to the recipient",
          "token1": ": the address of the token he is recieving from the recipient ",
          "tokenData0": ": data on the token Id (only in token721)",
          "tokenData1": ": data on the token Id (only in token721)",
          "value0": ": in case of Ether  - the amount being sent to the recipient side in the selected token in token0 in case of token721 - it's the tokenId of the token721",
          "value1": ": in case of Ether  - the amount being sent to the recipient side in the selected token in token1 in case of token721 - it's the tokenId of the token721"
        }
      },
      "getRoleAdmin(bytes32)": {
        "details": "Returns the admin role that controls `role`. See {grantRole} and {revokeRole}. To change a role's admin, use {_setRoleAdmin}."
      },
      "getRoleMember(bytes32,uint256)": {
        "details": "Returns one of the accounts that have `role`. `index` must be a value between 0 and {getRoleMemberCount}, non-inclusive. Role bearers are not sorted in any particular way, and their ordering may change at any point. WARNING: When using {getRoleMember} and {getRoleMemberCount}, make sure you perform all queries on the same block. See the following https://forum.openzeppelin.com/t/iterating-over-elements-on-enumerableset-in-openzeppelin-contracts/2296[forum post] for more information."
      },
      "getRoleMemberCount(bytes32)": {
        "details": "Returns the number of accounts that have `role`. Can be used together with {getRoleMember} to enumerate all bearers of a role."
      },
      "grantRole(bytes32,address)": {
        "details": "Grants `role` to `account`. If `account` had not been already granted `role`, emits a {RoleGranted} event. Requirements: - the caller must have ``role``'s admin role."
      },
      "hasRole(bytes32,address)": {
        "details": "Returns `true` if `account` has been granted `role`."
      },
      "hiddenAutoRetrieve(address,bytes32,uint256)": {
        "params": {
          "from": ": the address of the sender",
          "id1": ": a hash of the info being hided",
          "value": ": the amount being sent to the recipient side in the selected token"
        }
      },
      "hiddenDeposit(bytes32)": {
        "params": {
          "id1": ": a hash of the info being hided (sender address, token exc...)"
        }
      },
      "hiddenRetrieve(bytes32,uint256)": {
        "params": {
          "id1": ": a hash of the info being hided (sender address, token exc...)",
          "value": ": the amount being sent to the recipient side in the selected token"
        }
      },
      "hiddenSwap(address,(address,uint256,uint256,address,uint256,uint256,bytes32),bytes)": {
        "params": {
          "from": ": address of the recipient ",
          "info": ": a struct (SwapRetrieveERC721) defimed above containing the following params:     to: address of the recipient token0: the address of the token he is sending to the recipient value0: in case of Ether  - the amount being sent to the recipient side in the selected token in token0 in case of token721 - it's the tokenId of the token721 tokenData0: data on the token Id (only in token721) fees0: the amount of fees the he needs to pay for the swap token1: the address of the token he is recieving from the recipient  value1: in case of Ether  - the amount being sent to the recipient side in the selected token in token1 in case of token721 - it's the tokenId of the token721 tokenData1: data on the token Id (only in token721) fees1: the amount of fees the recipient needs to pay for the swap secretHash: a hash of the secret",
          "secret": ": secret made up of passcode, private salt and public salt"
        }
      },
      "hiddenSwapERC721(address,(address,uint256,bytes,uint256,address,uint256,bytes,uint256,bytes32),bytes)": {
        "params": {
          "from": ": address of the recipient",
          "info": ": a struct (SwapRetrieveERC721) defimed above containing the following params:     to: address of the recipient token0: the address of the token he is sending to the recipient value0: in case of Ether  - the amount being sent to the recipient side in the selected token in token0 in case of token721 - it's the tokenId of the token721 tokenData0: data on the token Id (only in token721) fees0: the amount of fees the he needs to pay for the swap token1: the address of the token he is recieving from the recipient  value1: in case of Ether  - the amount being sent to the recipient side in the selected token in token1 in case of token721 - it's the tokenId of the token721 tokenData1: data on the token Id (only in token721) fees1: the amount of fees the recipient needs to pay for the swap secretHash: a hash of the secret",
          "secret": ": secret made up of passcode, private salt and public salt"
        }
      },
      "hiddenTimedDeposit(bytes32,uint64,uint64,uint128)": {
        "params": {
          "autoRetrieveFees": ": the amount of fees that will be collected from the sender in case of retrieve",
          "availableAt": ": sets a start time in seconds for when the deposite can happen",
          "expiresAt": ": sets an end time in seconds for when the deposite can happen",
          "id1": ": a hash of the info being hided (sender address, token exc...)"
        }
      },
      "renounceRole(bytes32,address)": {
        "details": "Revokes `role` from the calling account. Roles are often managed via {grantRole} and {revokeRole}: this function's purpose is to provide a mechanism for accounts to lose their privileges if they are compromised (such as when a trusted device is misplaced). If the calling account had been granted `role`, emits a {RoleRevoked} event. Requirements: - the caller must be `account`."
      },
      "retrieve(address,address,uint256,uint256,address,uint256,uint256,bytes32)": {
        "params": {
          "fees0": ": the amount of fees the he needs to pay for the swap",
          "fees1": ": the amount of fees the recipient needs to pay for the swap",
          "secretHash": ": a hash of the secret ",
          "to": ": address of the recipient",
          "token0": ": the address of the token he is sending to the recipient",
          "token1": ": the address of the token he is recieving from the recipient ",
          "value0": ": the amount being sent to the recipient side in the selected token in token0",
          "value1": ": the amount being sent to him by the recipient in the selected token in token1"
        }
      },
      "retrieveERC721(address,(address,uint256,bytes,uint256,address,uint256,bytes,uint256,bytes32))": {
        "params": {
          "info": ": a struct (SwapRetrieveERC721) defimed above containing the following params:     to: address of the recipient token0: the address of the token he is sending to the recipient value0: in case of Ether  - the amount being sent to the recipient side in the selected token in token0 in case of token721 - it's the tokenId of the token721 tokenData0: data on the token Id (only in token721) fees0: the amount of fees the he needs to pay for the swap token1: the address of the token he is recieving from the recipient  value1: in case of Ether  - the amount being sent to the recipient side in the selected token in token1 in case of token721 - it's the tokenId of the token721 tokenData1: data on the token Id (only in token721) fees1: the amount of fees the recipient needs to pay for the swap secretHash: a hash of the secret",
          "to": ": address of the recipient"
        }
      },
      "revokeRole(bytes32,address)": {
        "details": "Revokes `role` from `account`. If `account` had been granted `role`, emits a {RoleRevoked} event. Requirements: - the caller must have ``role``'s admin role."
      },
      "swap(address,address,uint256,uint256,address,uint256,uint256,bytes32,bytes)": {
        "params": {
          "fees0": ": the amount of fees the he needs to pay for the swap",
          "fees1": ": the amount of fees the recipient needs to pay for the swap",
          "from": ": address of the recipient",
          "secretHash": ": a hash of the secret ",
          "token0": ": the address of the token he is sending to the recipient",
          "token1": ": the address of the token he is recieving from the recipient ",
          "value0": ": the amount being sent to the recipient side in the selected token in token0",
          "value1": ": the amount being sent to him by the recipient in the selected token in token1"
        }
      },
      "swapERC721(address,(address,uint256,bytes,uint256,address,uint256,bytes,uint256,bytes32),bytes)": {
        "params": {
          "from": ": address of the recipient",
          "info": ": a struct (SwapErc721Struct) defimed above containing the following params: token0: the address of the token he is sending to the recipient value0: in case of Ether  - the amount being sent to the recipient side in the selected token in token0 in case of token721 - it's the tokenId of the token721 tokenData0: data on the token Id (only in token721) fees0: the amount of fees the he needs to pay for the swap token1: the address of the token he is recieving from the recipient  value1: in case of Ether  - the amount being sent to the recipient side in the selected token in token1 in case of token721 - it's the tokenId of the token721 tokenData1: data on the token Id (only in token721) fees1: the amount of fees the recipient needs to pay for the swap secretHash: a hash of the secret ",
          "secret": ": secret made up of passcode, private salt and public salt"
        }
      },
      "timedDeposit(address,address,uint256,uint256,address,uint256,uint256,bytes32,uint64,uint64,uint128)": {
        "params": {
          "autoRetrieveFees": ": the amount of fees that will be collected from the sender in case of retrieve",
          "availableAt": ": sets a start time in seconds for when the deposite can happen",
          "expiresAt": ": sets an end time in seconds for when the deposite can happen",
          "fees0": ": the amount of fees the he needs to pay for the swap",
          "fees1": ": the amount of fees the recipient needs to pay for the swap",
          "secretHash": ": a hash of the secret ",
          "to": ": address of the recipient",
          "token0": ": the address of the token he is sending to the recipient",
          "token1": ": the address of the token he is recieving from the recipient ",
          "value0": ": the amount being sent to the recipient side in the selected token in token0",
          "value1": ": the amount being sent to him by the recipient in the selected token in token1"
        }
      },
      "timedDepositERC721(address,(address,uint256,bytes,uint256,address,uint256,bytes,uint256,bytes32),uint64,uint64,uint128)": {
        "params": {
          "autoRetrieveFees": ": the amount of fees that will be collected from the sender in case of retrieve",
          "availableAt": ": sets a start time in seconds for when the deposite can happen",
          "expiresAt": ": sets an end time in seconds for when the deposite can happen",
          "info": ": a struct (SwapRetrieveERC721) defimed above containing the following params:     to: address of the recipient token0: the address of the token he is sending to the recipient value0: in case of Ether  - the amount being sent to the recipient side in the selected token in token0 in case of token721 - it's the tokenId of the token721 tokenData0: data on the token Id (only in token721) fees0: the amount of fees the he needs to pay for the swap token1: the address of the token he is recieving from the recipient  value1: in case of Ether  - the amount being sent to the recipient side in the selected token in token1 in case of token721 - it's the tokenId of the token721 tokenData1: data on the token Id (only in token721) fees1: the amount of fees the recipient needs to pay for the swap secretHash: a hash of the secret",
          "to": ": address of the recipient"
        }
      }
    },
    "title": "SafeSwap constract ",
    "version": 1
  },
  "userdoc": {
    "kind": "user",
    "methods": {
      "autoRetrieve(address,address,address,uint256,uint256,address,uint256,uint256,bytes32)": {
        "notice": "autoRetrieve - gives the functionallity of the undo with addittion of automation. after the sender sends the deposit he can undo it (for what ever reason) until the recipient didnt approved the swap (swap function below) the autoRetrieve automatically retrieves the funds when a time that was set by the sender is met"
      },
      "autoRetrieveERC721(address,address,(address,uint256,bytes,uint256,address,uint256,bytes,uint256,bytes32))": {
        "notice": "autoRetrieveERC721 - gives the functionallity of the undo for swaps containing ERC721 tokens with addittion of automation. after the sender sends the deposit he can undo it (for what ever reason) until the recipient didnt approved the swap (swap function below)"
      },
      "deposit(address,address,uint256,uint256,address,uint256,uint256,bytes32)": {
        "notice": "deposit - safe swap function that the sender side fills with all the relevet information for the swap this function deels with Ether and token20 swaps"
      },
      "depositERC721(address,address,uint256,bytes,uint256,address,uint256,bytes,uint256,bytes32)": {
        "notice": "depositERC721  - safe swap function that the sender side fills with all the relevet information for the swap this function deels with Ether and token721 swaps"
      },
      "hiddenAutoRetrieve(address,bytes32,uint256)": {
        "notice": "hiddenAutoRetrieve - an abillity to retrive (undo) without exposing the info of the sender  with the addition of the automation abillity"
      },
      "hiddenDeposit(bytes32)": {
        "notice": "hiddenDeposit - an ability to deposit without exposing the trx details"
      },
      "hiddenRetrieve(bytes32,uint256)": {
        "notice": "hiddenRetrieve - an abillity to retrive (undo) without exposing the info of the sender "
      },
      "hiddenSwap(address,(address,uint256,uint256,address,uint256,uint256,bytes32),bytes)": {
        "notice": "hiddenSwap - an ability to swap without exposing the trx details "
      },
      "hiddenSwapERC721(address,(address,uint256,bytes,uint256,address,uint256,bytes,uint256,bytes32),bytes)": {
        "notice": "hiddenSwapERC721 - an ability to swap without exposing the trx details for ERC721 tokens"
      },
      "hiddenTimedDeposit(bytes32,uint64,uint64,uint128)": {
        "notice": "hiddenTimedDeposit - an ability to deposit without exposing the trx details  with an addition that has a timer in seconds"
      },
      "retrieve(address,address,uint256,uint256,address,uint256,uint256,bytes32)": {
        "notice": "Retrieve - gives the functionallity of the undo after the sender sends the deposit he can undo it (for what ever reason) until the recipient didnt approved the swap (swap function below)"
      },
      "retrieveERC721(address,(address,uint256,bytes,uint256,address,uint256,bytes,uint256,bytes32))": {
        "notice": "retrieveERC721 - gives the functionallity of the undo for swaps containing ERC721 tokens after the sender sends the deposit he can undo it (for what ever reason) until the recipient didnt approved the swap (swap function below)"
      },
      "swap(address,address,uint256,uint256,address,uint256,uint256,bytes32,bytes)": {
        "notice": "Swap - the recipient side approves the info sent by the sender. once this function is submitted successuly the swap is made"
      },
      "swapERC721(address,(address,uint256,bytes,uint256,address,uint256,bytes,uint256,bytes32),bytes)": {
        "notice": "swapERC721 - the recipient side, besically approves the info sent by the sender. once this function is submitted successuly the swap is made"
      },
      "timedDeposit(address,address,uint256,uint256,address,uint256,uint256,bytes32,uint64,uint64,uint128)": {
        "notice": "timedDeposit - handles deposits with an addition that has a timer in seconds"
      },
      "timedDepositERC721(address,(address,uint256,bytes,uint256,address,uint256,bytes,uint256,bytes32),uint64,uint64,uint128)": {
        "notice": "timedDepositERC721 - handles deposits for ERC721 tokens with an addition that has a timer in seconds"
      }
    },
    "notice": "handles swapping of token between 2 parties: sender - fills the information for both parties  addresses - his address and the recipient address token - address of the specific token to be transferred (eth, token20, token721) value - the value that he will be sending and the value he will be recieving fees - both parties fees secretHash - a hash of his secret for the secure transfer recipient - checks that all the agreed between the two is the info is filled correctly and if so, approves the swap",
    "version": 1
  }
}