{
  "contractName": "SafeForERC1155",
  "abi": [
    {
      "inputs": [
        {
          "internalType": "address",
          "name": "activator",
          "type": "address"
        }
      ],
      "stateMutability": "nonpayable",
      "type": "constructor"
    },
    {
      "anonymous": false,
      "inputs": [
        {
          "indexed": true,
          "internalType": "address",
          "name": "token",
          "type": "address"
        },
        {
          "indexed": true,
          "internalType": "address",
          "name": "from",
          "type": "address"
        },
        {
          "indexed": true,
          "internalType": "address",
          "name": "to",
          "type": "address"
        },
        {
          "indexed": false,
          "internalType": "uint256[]",
          "name": "tokenIds",
          "type": "uint256[]"
        },
        {
          "indexed": false,
          "internalType": "uint256[]",
          "name": "values",
          "type": "uint256[]"
        }
      ],
      "name": "ERC1155BatchCollected",
      "type": "event"
    },
    {
      "anonymous": false,
      "inputs": [
        {
          "indexed": true,
          "internalType": "address",
          "name": "token",
          "type": "address"
        },
        {
          "indexed": true,
          "internalType": "address",
          "name": "from",
          "type": "address"
        },
        {
          "indexed": true,
          "internalType": "address",
          "name": "to",
          "type": "address"
        },
        {
          "indexed": false,
          "internalType": "uint256[]",
          "name": "tokenIds",
          "type": "uint256[]"
        },
        {
          "indexed": false,
          "internalType": "uint256[]",
          "name": "values",
          "type": "uint256[]"
        },
        {
          "indexed": false,
          "internalType": "uint256",
          "name": "fees",
          "type": "uint256"
        },
        {
          "indexed": false,
          "internalType": "bytes32",
          "name": "secretHash",
          "type": "bytes32"
        }
      ],
      "name": "ERC1155BatchTransferDeposited",
      "type": "event"
    },
    {
      "anonymous": false,
      "inputs": [
        {
          "indexed": true,
          "internalType": "address",
          "name": "token",
          "type": "address"
        },
        {
          "indexed": true,
          "internalType": "address",
          "name": "from",
          "type": "address"
        },
        {
          "indexed": true,
          "internalType": "address",
          "name": "to",
          "type": "address"
        },
        {
          "indexed": false,
          "internalType": "uint256[]",
          "name": "tokenIds",
          "type": "uint256[]"
        },
        {
          "indexed": false,
          "internalType": "uint256[]",
          "name": "values",
          "type": "uint256[]"
        }
      ],
      "name": "ERC1155BatchTransferRetrieved",
      "type": "event"
    },
    {
      "anonymous": false,
      "inputs": [
        {
          "indexed": true,
          "internalType": "address",
          "name": "token",
          "type": "address"
        },
        {
          "indexed": true,
          "internalType": "address",
          "name": "from",
          "type": "address"
        },
        {
          "indexed": true,
          "internalType": "address",
          "name": "to",
          "type": "address"
        },
        {
          "indexed": false,
          "internalType": "uint256",
          "name": "tokenId",
          "type": "uint256"
        },
        {
          "indexed": false,
          "internalType": "uint256",
          "name": "value",
          "type": "uint256"
        }
      ],
      "name": "ERC1155Collected",
      "type": "event"
    },
    {
      "anonymous": false,
      "inputs": [
        {
          "indexed": true,
          "internalType": "address",
          "name": "from",
          "type": "address"
        },
        {
          "indexed": true,
          "internalType": "address",
          "name": "to",
          "type": "address"
        },
        {
          "indexed": true,
          "internalType": "address",
          "name": "token0",
          "type": "address"
        },
        {
          "indexed": false,
          "internalType": "uint256",
          "name": "tokenId0",
          "type": "uint256"
        },
        {
          "indexed": false,
          "internalType": "uint256",
          "name": "value0",
          "type": "uint256"
        },
        {
          "indexed": false,
          "internalType": "uint256",
          "name": "fees0",
          "type": "uint256"
        },
        {
          "indexed": false,
          "internalType": "address",
          "name": "token1",
          "type": "address"
        },
        {
          "indexed": false,
          "internalType": "uint256",
          "name": "tokenId1",
          "type": "uint256"
        },
        {
          "indexed": false,
          "internalType": "uint256",
          "name": "value1",
          "type": "uint256"
        },
        {
          "indexed": false,
          "internalType": "uint256",
          "name": "fees1",
          "type": "uint256"
        },
        {
          "indexed": false,
          "internalType": "bytes32",
          "name": "secretHash",
          "type": "bytes32"
        }
      ],
      "name": "ERC1155SwapDeposited",
      "type": "event"
    },
    {
      "anonymous": false,
      "inputs": [
        {
          "indexed": true,
          "internalType": "address",
          "name": "token",
          "type": "address"
        },
        {
          "indexed": true,
          "internalType": "uint256",
          "name": "tokenId",
          "type": "uint256"
        },
        {
          "indexed": true,
          "internalType": "address",
          "name": "from",
          "type": "address"
        },
        {
          "indexed": false,
          "internalType": "address",
          "name": "to",
          "type": "address"
        },
        {
          "indexed": false,
          "internalType": "bytes32",
          "name": "id",
          "type": "bytes32"
        },
        {
          "indexed": false,
          "internalType": "uint256",
          "name": "value",
          "type": "uint256"
        }
      ],
      "name": "ERC1155SwapRetrieved",
      "type": "event"
    },
    {
      "anonymous": false,
      "inputs": [
        {
          "indexed": true,
          "internalType": "address",
          "name": "from",
          "type": "address"
        },
        {
          "indexed": true,
          "internalType": "address",
          "name": "to",
          "type": "address"
        },
        {
          "indexed": true,
          "internalType": "address",
          "name": "token0",
          "type": "address"
        },
        {
          "indexed": false,
          "internalType": "uint256",
          "name": "tokenId0",
          "type": "uint256"
        },
        {
          "indexed": false,
          "internalType": "uint256",
          "name": "value0",
          "type": "uint256"
        },
        {
          "indexed": false,
          "internalType": "address",
          "name": "token1",
          "type": "address"
        },
        {
          "indexed": false,
          "internalType": "uint256",
          "name": "tokenId1",
          "type": "uint256"
        },
        {
          "indexed": false,
          "internalType": "uint256",
          "name": "value1",
          "type": "uint256"
        },
        {
          "indexed": false,
          "internalType": "bytes32",
          "name": "id",
          "type": "bytes32"
        }
      ],
      "name": "ERC1155Swapped",
      "type": "event"
    },
    {
      "anonymous": false,
      "inputs": [
        {
          "indexed": true,
          "internalType": "address",
          "name": "token",
          "type": "address"
        },
        {
          "indexed": true,
          "internalType": "address",
          "name": "from",
          "type": "address"
        },
        {
          "indexed": true,
          "internalType": "address",
          "name": "to",
          "type": "address"
        },
        {
          "indexed": false,
          "internalType": "uint256",
          "name": "tokenId",
          "type": "uint256"
        },
        {
          "indexed": false,
          "internalType": "uint256",
          "name": "value",
          "type": "uint256"
        },
        {
          "indexed": false,
          "internalType": "uint256",
          "name": "fees",
          "type": "uint256"
        },
        {
          "indexed": false,
          "internalType": "bytes32",
          "name": "secretHash",
          "type": "bytes32"
        }
      ],
      "name": "ERC1155TransferDeposited",
      "type": "event"
    },
    {
      "anonymous": false,
      "inputs": [
        {
          "indexed": true,
          "internalType": "address",
          "name": "token",
          "type": "address"
        },
        {
          "indexed": true,
          "internalType": "address",
          "name": "from",
          "type": "address"
        },
        {
          "indexed": true,
          "internalType": "address",
          "name": "to",
          "type": "address"
        },
        {
          "indexed": false,
          "internalType": "uint256",
          "name": "tokenId",
          "type": "uint256"
        },
        {
          "indexed": false,
          "internalType": "uint256",
          "name": "value",
          "type": "uint256"
        }
      ],
      "name": "ERC1155TransferRetrieved",
      "type": "event"
    },
    {
      "anonymous": false,
      "inputs": [
        {
          "indexed": true,
          "internalType": "address",
          "name": "from",
          "type": "address"
        },
        {
          "indexed": true,
          "internalType": "address",
          "name": "to",
          "type": "address"
        },
        {
          "indexed": true,
          "internalType": "bytes32",
          "name": "id",
          "type": "bytes32"
        },
        {
          "indexed": false,
          "internalType": "uint256",
          "name": "value",
          "type": "uint256"
        }
      ],
      "name": "Retrieved",
      "type": "event"
    },
    {
      "anonymous": false,
      "inputs": [
        {
          "indexed": true,
          "internalType": "bytes32",
          "name": "role",
          "type": "bytes32"
        },
        {
          "indexed": true,
          "internalType": "bytes32",
          "name": "previousAdminRole",
          "type": "bytes32"
        },
        {
          "indexed": true,
          "internalType": "bytes32",
          "name": "newAdminRole",
          "type": "bytes32"
        }
      ],
      "name": "RoleAdminChanged",
      "type": "event"
    },
    {
      "anonymous": false,
      "inputs": [
        {
          "indexed": true,
          "internalType": "bytes32",
          "name": "role",
          "type": "bytes32"
        },
        {
          "indexed": true,
          "internalType": "address",
          "name": "account",
          "type": "address"
        },
        {
          "indexed": true,
          "internalType": "address",
          "name": "sender",
          "type": "address"
        }
      ],
      "name": "RoleGranted",
      "type": "event"
    },
    {
      "anonymous": false,
      "inputs": [
        {
          "indexed": true,
          "internalType": "bytes32",
          "name": "role",
          "type": "bytes32"
        },
        {
          "indexed": true,
          "internalType": "address",
          "name": "account",
          "type": "address"
        },
        {
          "indexed": true,
          "internalType": "address",
          "name": "sender",
          "type": "address"
        }
      ],
      "name": "RoleRevoked",
      "type": "event"
    },
    {
      "anonymous": false,
      "inputs": [
        {
          "indexed": true,
          "internalType": "address",
          "name": "from",
          "type": "address"
        },
        {
          "indexed": true,
          "internalType": "address",
          "name": "to",
          "type": "address"
        },
        {
          "indexed": true,
          "internalType": "address",
          "name": "token0",
          "type": "address"
        },
        {
          "indexed": false,
          "internalType": "uint256[]",
          "name": "tokenIds0",
          "type": "uint256[]"
        },
        {
          "indexed": false,
          "internalType": "uint256[]",
          "name": "values0",
          "type": "uint256[]"
        },
        {
          "indexed": false,
          "internalType": "uint256",
          "name": "fees0",
          "type": "uint256"
        },
        {
          "indexed": false,
          "internalType": "address",
          "name": "token1",
          "type": "address"
        },
        {
          "indexed": false,
          "internalType": "uint256",
          "name": "value1",
          "type": "uint256"
        },
        {
          "indexed": false,
          "internalType": "uint256",
          "name": "fees1",
          "type": "uint256"
        },
        {
          "indexed": false,
          "internalType": "bytes32",
          "name": "secretHash",
          "type": "bytes32"
        }
      ],
      "name": "swapDepositERC1155ToETHEvent",
      "type": "event"
    },
    {
      "anonymous": false,
      "inputs": [
        {
          "indexed": true,
          "internalType": "address",
          "name": "from",
          "type": "address"
        },
        {
          "indexed": true,
          "internalType": "address",
          "name": "to",
          "type": "address"
        },
        {
          "indexed": true,
          "internalType": "address",
          "name": "token0",
          "type": "address"
        },
        {
          "indexed": false,
          "internalType": "uint256",
          "name": "value0",
          "type": "uint256"
        },
        {
          "indexed": false,
          "internalType": "uint256",
          "name": "fees0",
          "type": "uint256"
        },
        {
          "indexed": false,
          "internalType": "address",
          "name": "token1",
          "type": "address"
        },
        {
          "indexed": false,
          "internalType": "uint256[]",
          "name": "tokenIds1",
          "type": "uint256[]"
        },
        {
          "indexed": false,
          "internalType": "uint256[]",
          "name": "values1",
          "type": "uint256[]"
        },
        {
          "indexed": false,
          "internalType": "uint256",
          "name": "fees1",
          "type": "uint256"
        },
        {
          "indexed": false,
          "internalType": "bytes32",
          "name": "secretHash",
          "type": "bytes32"
        }
      ],
      "name": "swapDepositETHToERC1155Event",
      "type": "event"
    },
    {
      "anonymous": false,
      "inputs": [
        {
          "indexed": true,
          "internalType": "address",
          "name": "from",
          "type": "address"
        },
        {
          "indexed": true,
          "internalType": "address",
          "name": "to",
          "type": "address"
        },
        {
          "indexed": true,
          "internalType": "address",
          "name": "token0",
          "type": "address"
        },
        {
          "indexed": false,
          "internalType": "uint256[]",
          "name": "tokenIds0",
          "type": "uint256[]"
        },
        {
          "indexed": false,
          "internalType": "uint256[]",
          "name": "values0",
          "type": "uint256[]"
        },
        {
          "indexed": false,
          "internalType": "address",
          "name": "token1",
          "type": "address"
        },
        {
          "indexed": false,
          "internalType": "uint256",
          "name": "value1",
          "type": "uint256"
        },
        {
          "indexed": false,
          "internalType": "bytes32",
          "name": "id",
          "type": "bytes32"
        }
      ],
      "name": "swapERC1155ToETHEvent",
      "type": "event"
    },
    {
      "anonymous": false,
      "inputs": [
        {
          "indexed": true,
          "internalType": "address",
          "name": "from",
          "type": "address"
        },
        {
          "indexed": true,
          "internalType": "address",
          "name": "to",
          "type": "address"
        },
        {
          "indexed": true,
          "internalType": "address",
          "name": "token0",
          "type": "address"
        },
        {
          "indexed": false,
          "internalType": "uint256",
          "name": "value0",
          "type": "uint256"
        },
        {
          "indexed": false,
          "internalType": "address",
          "name": "token1",
          "type": "address"
        },
        {
          "indexed": false,
          "internalType": "uint256[]",
          "name": "tokenIds1",
          "type": "uint256[]"
        },
        {
          "indexed": false,
          "internalType": "uint256[]",
          "name": "values1",
          "type": "uint256[]"
        },
        {
          "indexed": false,
          "internalType": "bytes32",
          "name": "id",
          "type": "bytes32"
        }
      ],
      "name": "swapETHToERC1155Event",
      "type": "event"
    },
    {
      "anonymous": false,
      "inputs": [
        {
          "indexed": true,
          "internalType": "address",
          "name": "token0",
          "type": "address"
        },
        {
          "indexed": true,
          "internalType": "uint256[]",
          "name": "tokenIds0",
          "type": "uint256[]"
        },
        {
          "indexed": true,
          "internalType": "address",
          "name": "from",
          "type": "address"
        },
        {
          "indexed": false,
          "internalType": "address",
          "name": "to",
          "type": "address"
        },
        {
          "indexed": false,
          "internalType": "bytes32",
          "name": "id",
          "type": "bytes32"
        },
        {
          "indexed": false,
          "internalType": "uint256[]",
          "name": "values0",
          "type": "uint256[]"
        }
      ],
      "name": "swapRetrieveERC1155ToETHEvent",
      "type": "event"
    },
    {
      "inputs": [],
      "name": "ACTIVATOR_ROLE",
      "outputs": [
        {
          "internalType": "bytes32",
          "name": "",
          "type": "bytes32"
        }
      ],
      "stateMutability": "view",
      "type": "function"
    },
    {
      "inputs": [],
      "name": "CHAIN_ID",
      "outputs": [
        {
          "internalType": "uint256",
          "name": "",
          "type": "uint256"
        }
      ],
      "stateMutability": "view",
      "type": "function"
    },
    {
      "inputs": [],
      "name": "DEFAULT_ADMIN_ROLE",
      "outputs": [
        {
          "internalType": "bytes32",
          "name": "",
          "type": "bytes32"
        }
      ],
      "stateMutability": "view",
      "type": "function"
    },
    {
      "inputs": [],
      "name": "DOMAIN_SEPARATOR",
      "outputs": [
        {
          "internalType": "bytes32",
          "name": "",
          "type": "bytes32"
        }
      ],
      "stateMutability": "view",
      "type": "function"
    },
    {
      "inputs": [],
      "name": "NAME",
      "outputs": [
        {
          "internalType": "string",
          "name": "",
          "type": "string"
        }
      ],
      "stateMutability": "view",
      "type": "function"
    },
    {
      "inputs": [],
      "name": "VERSION",
      "outputs": [
        {
          "internalType": "string",
          "name": "",
          "type": "string"
        }
      ],
      "stateMutability": "view",
      "type": "function"
    },
    {
      "inputs": [],
      "name": "VERSION_NUMBER",
      "outputs": [
        {
          "internalType": "uint8",
          "name": "",
          "type": "uint8"
        }
      ],
      "stateMutability": "view",
      "type": "function"
    },
    {
      "inputs": [
        {
          "internalType": "bytes32",
          "name": "role",
          "type": "bytes32"
        }
      ],
      "name": "getRoleAdmin",
      "outputs": [
        {
          "internalType": "bytes32",
          "name": "",
          "type": "bytes32"
        }
      ],
      "stateMutability": "view",
      "type": "function"
    },
    {
      "inputs": [
        {
          "internalType": "bytes32",
          "name": "role",
          "type": "bytes32"
        },
        {
          "internalType": "uint256",
          "name": "index",
          "type": "uint256"
        }
      ],
      "name": "getRoleMember",
      "outputs": [
        {
          "internalType": "address",
          "name": "",
          "type": "address"
        }
      ],
      "stateMutability": "view",
      "type": "function"
    },
    {
      "inputs": [
        {
          "internalType": "bytes32",
          "name": "role",
          "type": "bytes32"
        }
      ],
      "name": "getRoleMemberCount",
      "outputs": [
        {
          "internalType": "uint256",
          "name": "",
          "type": "uint256"
        }
      ],
      "stateMutability": "view",
      "type": "function"
    },
    {
      "inputs": [
        {
          "internalType": "bytes32",
          "name": "role",
          "type": "bytes32"
        },
        {
          "internalType": "address",
          "name": "account",
          "type": "address"
        }
      ],
      "name": "grantRole",
      "outputs": [],
      "stateMutability": "nonpayable",
      "type": "function"
    },
    {
      "inputs": [
        {
          "internalType": "bytes32",
          "name": "role",
          "type": "bytes32"
        },
        {
          "internalType": "address",
          "name": "account",
          "type": "address"
        }
      ],
      "name": "hasRole",
      "outputs": [
        {
          "internalType": "bool",
          "name": "",
          "type": "bool"
        }
      ],
      "stateMutability": "view",
      "type": "function"
    },
    {
      "inputs": [
        {
          "internalType": "bytes32",
          "name": "role",
          "type": "bytes32"
        },
        {
          "internalType": "address",
          "name": "account",
          "type": "address"
        }
      ],
      "name": "renounceRole",
      "outputs": [],
      "stateMutability": "nonpayable",
      "type": "function"
    },
    {
      "inputs": [
        {
          "internalType": "bytes32",
          "name": "role",
          "type": "bytes32"
        },
        {
          "internalType": "address",
          "name": "account",
          "type": "address"
        }
      ],
      "name": "revokeRole",
      "outputs": [],
      "stateMutability": "nonpayable",
      "type": "function"
    },
    {
      "stateMutability": "payable",
      "type": "receive"
    },
    {
      "inputs": [
        {
          "internalType": "address payable",
          "name": "wallet",
          "type": "address"
        },
        {
          "internalType": "uint256",
          "name": "value",
          "type": "uint256"
        }
      ],
      "name": "transferFees",
      "outputs": [],
      "stateMutability": "nonpayable",
      "type": "function"
    },
    {
      "inputs": [],
      "name": "totalFees",
      "outputs": [
        {
          "internalType": "uint256",
          "name": "",
          "type": "uint256"
        }
      ],
      "stateMutability": "view",
      "type": "function"
    },
    {
      "inputs": [
        {
          "internalType": "address",
          "name": "token",
          "type": "address"
        },
        {
          "internalType": "address",
          "name": "from",
          "type": "address"
        },
        {
          "internalType": "address payable",
          "name": "to",
          "type": "address"
        },
        {
          "internalType": "uint256",
          "name": "tokenId",
          "type": "uint256"
        },
        {
          "internalType": "uint256",
          "name": "value",
          "type": "uint256"
        },
        {
          "internalType": "bytes",
          "name": "tokenData",
          "type": "bytes"
        },
        {
          "internalType": "uint256",
          "name": "fees",
          "type": "uint256"
        },
        {
          "internalType": "bytes32",
          "name": "secretHash",
          "type": "bytes32"
        },
        {
          "internalType": "bytes",
          "name": "secret",
          "type": "bytes"
        }
      ],
      "name": "collectERC1155",
      "outputs": [],
      "stateMutability": "nonpayable",
      "type": "function"
    },
    {
      "inputs": [
        {
          "internalType": "address",
          "name": "token",
          "type": "address"
        },
        {
          "internalType": "address",
          "name": "to",
          "type": "address"
        },
        {
          "internalType": "uint256[]",
          "name": "tokenIds",
          "type": "uint256[]"
        },
        {
          "internalType": "uint256[]",
          "name": "values",
          "type": "uint256[]"
        },
        {
          "internalType": "bytes",
          "name": "tokenData",
          "type": "bytes"
        },
        {
          "internalType": "uint256",
          "name": "fees",
          "type": "uint256"
        },
        {
          "internalType": "bytes32",
          "name": "secretHash",
          "type": "bytes32"
        }
      ],
      "name": "depositBatchERC1155",
      "outputs": [],
      "stateMutability": "payable",
      "type": "function"
    },
    {
      "inputs": [
        {
          "internalType": "address",
          "name": "to",
          "type": "address"
        },
        {
          "internalType": "address",
          "name": "from",
          "type": "address"
        },
        {
          "components": [
            {
              "internalType": "address",
              "name": "token",
              "type": "address"
            },
            {
              "internalType": "uint256[]",
              "name": "tokenIds",
              "type": "uint256[]"
            },
            {
              "internalType": "uint256[]",
              "name": "values",
              "type": "uint256[]"
            },
            {
              "internalType": "bytes",
              "name": "tokenData",
              "type": "bytes"
            },
            {
              "internalType": "uint256",
              "name": "fees",
              "type": "uint256"
            },
            {
              "internalType": "bytes32",
              "name": "secretHash",
              "type": "bytes32"
            },
            {
              "internalType": "bytes",
              "name": "secret",
              "type": "bytes"
            }
          ],
          "internalType": "struct SafeForERC1155.CollectBatchERC1155Info",
          "name": "info",
          "type": "tuple"
        }
      ],
      "name": "collectBatchERC1155",
      "outputs": [],
      "stateMutability": "nonpayable",
      "type": "function"
    },
    {
      "inputs": [
        {
          "internalType": "address",
          "name": "token",
          "type": "address"
        },
        {
          "internalType": "address",
          "name": "to",
          "type": "address"
        },
        {
          "internalType": "uint256",
          "name": "tokenId",
          "type": "uint256"
        },
        {
          "internalType": "uint256",
          "name": "value",
          "type": "uint256"
        },
        {
          "internalType": "bytes",
          "name": "tokenData",
          "type": "bytes"
        },
        {
          "internalType": "uint256",
          "name": "fees",
          "type": "uint256"
        },
        {
          "internalType": "bytes32",
          "name": "secretHash",
          "type": "bytes32"
        }
      ],
      "name": "depositERC1155",
      "outputs": [],
      "stateMutability": "payable",
      "type": "function"
    },
    {
      "inputs": [
        {
          "internalType": "address payable",
          "name": "to",
          "type": "address"
        },
        {
          "components": [
            {
              "internalType": "address",
              "name": "token0",
              "type": "address"
            },
            {
              "internalType": "uint256",
              "name": "tokenId0",
              "type": "uint256"
            },
            {
              "internalType": "uint256",
              "name": "value0",
              "type": "uint256"
            },
            {
              "internalType": "bytes",
              "name": "tokenData0",
              "type": "bytes"
            },
            {
              "internalType": "uint256",
              "name": "fees0",
              "type": "uint256"
            },
            {
              "internalType": "address",
              "name": "token1",
              "type": "address"
            },
            {
              "internalType": "uint256",
              "name": "tokenId1",
              "type": "uint256"
            },
            {
              "internalType": "uint256",
              "name": "value1",
              "type": "uint256"
            },
            {
              "internalType": "bytes",
              "name": "tokenData1",
              "type": "bytes"
            },
            {
              "internalType": "uint256",
              "name": "fees1",
              "type": "uint256"
            },
            {
              "internalType": "bytes32",
              "name": "secretHash",
              "type": "bytes32"
            }
          ],
          "internalType": "struct SafeForERC1155.SwapERC1155Info",
          "name": "info",
          "type": "tuple"
        }
      ],
      "name": "depositERC1155",
      "outputs": [],
      "stateMutability": "payable",
      "type": "function"
    },
    {
      "inputs": [
        {
          "internalType": "address",
          "name": "token",
          "type": "address"
        },
        {
          "internalType": "address",
          "name": "to",
          "type": "address"
        },
        {
          "internalType": "uint256[]",
          "name": "tokenIds",
          "type": "uint256[]"
        },
        {
          "internalType": "uint256[]",
          "name": "values",
          "type": "uint256[]"
        },
        {
          "internalType": "bytes",
          "name": "tokenData",
          "type": "bytes"
        },
        {
          "internalType": "uint256",
          "name": "fees",
          "type": "uint256"
        },
        {
          "internalType": "bytes32",
          "name": "secretHash",
          "type": "bytes32"
        }
      ],
      "name": "retrieveERC1155",
      "outputs": [],
      "stateMutability": "nonpayable",
      "type": "function"
    },
    {
      "inputs": [
        {
          "internalType": "address",
          "name": "to",
          "type": "address"
        },
        {
          "components": [
            {
              "internalType": "address",
              "name": "token0",
              "type": "address"
            },
            {
              "internalType": "uint256",
              "name": "tokenId0",
              "type": "uint256"
            },
            {
              "internalType": "uint256",
              "name": "value0",
              "type": "uint256"
            },
            {
              "internalType": "bytes",
              "name": "tokenData0",
              "type": "bytes"
            },
            {
              "internalType": "uint256",
              "name": "fees0",
              "type": "uint256"
            },
            {
              "internalType": "address",
              "name": "token1",
              "type": "address"
            },
            {
              "internalType": "uint256",
              "name": "tokenId1",
              "type": "uint256"
            },
            {
              "internalType": "uint256",
              "name": "value1",
              "type": "uint256"
            },
            {
              "internalType": "bytes",
              "name": "tokenData1",
              "type": "bytes"
            },
            {
              "internalType": "uint256",
              "name": "fees1",
              "type": "uint256"
            },
            {
              "internalType": "bytes32",
              "name": "secretHash",
              "type": "bytes32"
            }
          ],
          "internalType": "struct SafeForERC1155.SwapERC1155Info",
          "name": "info",
          "type": "tuple"
        }
      ],
      "name": "retrieveERC1155",
      "outputs": [],
      "stateMutability": "nonpayable",
      "type": "function"
    },
    {
      "inputs": [
        {
          "internalType": "address",
          "name": "token",
          "type": "address"
        },
        {
          "internalType": "address",
          "name": "to",
          "type": "address"
        },
        {
          "internalType": "uint256",
          "name": "tokenId",
          "type": "uint256"
        },
        {
          "internalType": "uint256",
          "name": "value",
          "type": "uint256"
        },
        {
          "internalType": "bytes",
          "name": "tokenData",
          "type": "bytes"
        },
        {
          "internalType": "uint256",
          "name": "fees",
          "type": "uint256"
        },
        {
          "internalType": "bytes32",
          "name": "secretHash",
          "type": "bytes32"
        }
      ],
      "name": "retrieveERC1155",
      "outputs": [],
      "stateMutability": "nonpayable",
      "type": "function"
    },
    {
      "inputs": [
        {
          "internalType": "address payable",
          "name": "from",
          "type": "address"
        },
        {
          "components": [
            {
              "internalType": "address",
              "name": "token0",
              "type": "address"
            },
            {
              "internalType": "uint256",
              "name": "tokenId0",
              "type": "uint256"
            },
            {
              "internalType": "uint256",
              "name": "value0",
              "type": "uint256"
            },
            {
              "internalType": "bytes",
              "name": "tokenData0",
              "type": "bytes"
            },
            {
              "internalType": "uint256",
              "name": "fees0",
              "type": "uint256"
            },
            {
              "internalType": "address",
              "name": "token1",
              "type": "address"
            },
            {
              "internalType": "uint256",
              "name": "tokenId1",
              "type": "uint256"
            },
            {
              "internalType": "uint256",
              "name": "value1",
              "type": "uint256"
            },
            {
              "internalType": "bytes",
              "name": "tokenData1",
              "type": "bytes"
            },
            {
              "internalType": "uint256",
              "name": "fees1",
              "type": "uint256"
            },
            {
              "internalType": "bytes32",
              "name": "secretHash",
              "type": "bytes32"
            }
          ],
          "internalType": "struct SafeForERC1155.SwapERC1155Info",
          "name": "info",
          "type": "tuple"
        },
        {
          "internalType": "bytes",
          "name": "secret",
          "type": "bytes"
        }
      ],
      "name": "swapERC1155",
      "outputs": [],
      "stateMutability": "payable",
      "type": "function"
    },
    {
      "inputs": [
        {
          "internalType": "address payable",
          "name": "to",
          "type": "address"
        },
        {
          "components": [
            {
              "internalType": "address",
              "name": "token0",
              "type": "address"
            },
            {
              "internalType": "uint256[]",
              "name": "tokenIds0",
              "type": "uint256[]"
            },
            {
              "internalType": "uint256[]",
              "name": "values0",
              "type": "uint256[]"
            },
            {
              "internalType": "bytes",
              "name": "tokenData0",
              "type": "bytes"
            },
            {
              "internalType": "uint256",
              "name": "fees0",
              "type": "uint256"
            },
            {
              "internalType": "address",
              "name": "token1",
              "type": "address"
            },
            {
              "internalType": "uint256",
              "name": "value1",
              "type": "uint256"
            },
            {
              "internalType": "uint256",
              "name": "fees1",
              "type": "uint256"
            },
            {
              "internalType": "bytes32",
              "name": "secretHash",
              "type": "bytes32"
            }
          ],
          "internalType": "struct SafeForERC1155.SwapBatchERC1155ToETHInfo",
          "name": "info",
          "type": "tuple"
        }
      ],
      "name": "swapDepositERC1155ToETH",
      "outputs": [],
      "stateMutability": "payable",
      "type": "function"
    },
    {
      "inputs": [
        {
          "internalType": "address",
          "name": "to",
          "type": "address"
        },
        {
          "components": [
            {
              "internalType": "address",
              "name": "token0",
              "type": "address"
            },
            {
              "internalType": "uint256[]",
              "name": "tokenIds0",
              "type": "uint256[]"
            },
            {
              "internalType": "uint256[]",
              "name": "values0",
              "type": "uint256[]"
            },
            {
              "internalType": "bytes",
              "name": "tokenData0",
              "type": "bytes"
            },
            {
              "internalType": "uint256",
              "name": "fees0",
              "type": "uint256"
            },
            {
              "internalType": "address",
              "name": "token1",
              "type": "address"
            },
            {
              "internalType": "uint256",
              "name": "value1",
              "type": "uint256"
            },
            {
              "internalType": "uint256",
              "name": "fees1",
              "type": "uint256"
            },
            {
              "internalType": "bytes32",
              "name": "secretHash",
              "type": "bytes32"
            }
          ],
          "internalType": "struct SafeForERC1155.SwapBatchERC1155ToETHInfo",
          "name": "info",
          "type": "tuple"
        }
      ],
      "name": "swapRetrieveERC1155ToETH",
      "outputs": [],
      "stateMutability": "nonpayable",
      "type": "function"
    },
    {
      "inputs": [
        {
          "internalType": "address payable",
          "name": "from",
          "type": "address"
        },
        {
          "components": [
            {
              "internalType": "address",
              "name": "token0",
              "type": "address"
            },
            {
              "internalType": "uint256[]",
              "name": "tokenIds0",
              "type": "uint256[]"
            },
            {
              "internalType": "uint256[]",
              "name": "values0",
              "type": "uint256[]"
            },
            {
              "internalType": "bytes",
              "name": "tokenData0",
              "type": "bytes"
            },
            {
              "internalType": "uint256",
              "name": "fees0",
              "type": "uint256"
            },
            {
              "internalType": "address",
              "name": "token1",
              "type": "address"
            },
            {
              "internalType": "uint256",
              "name": "value1",
              "type": "uint256"
            },
            {
              "internalType": "uint256",
              "name": "fees1",
              "type": "uint256"
            },
            {
              "internalType": "bytes32",
              "name": "secretHash",
              "type": "bytes32"
            }
          ],
          "internalType": "struct SafeForERC1155.SwapBatchERC1155ToETHInfo",
          "name": "info",
          "type": "tuple"
        },
        {
          "internalType": "bytes",
          "name": "secret",
          "type": "bytes"
        }
      ],
      "name": "swapERC1155ToETH",
      "outputs": [],
      "stateMutability": "payable",
      "type": "function"
    },
    {
      "inputs": [
        {
          "internalType": "address payable",
          "name": "to",
          "type": "address"
        },
        {
          "components": [
            {
              "internalType": "address",
              "name": "token0",
              "type": "address"
            },
            {
              "internalType": "uint256",
              "name": "tokenId0",
              "type": "uint256"
            },
            {
              "internalType": "uint256",
              "name": "value0",
              "type": "uint256"
            },
            {
              "internalType": "uint256",
              "name": "fees0",
              "type": "uint256"
            },
            {
              "internalType": "address",
              "name": "token1",
              "type": "address"
            },
            {
              "internalType": "uint256[]",
              "name": "tokenIds1",
              "type": "uint256[]"
            },
            {
              "internalType": "uint256[]",
              "name": "values1",
              "type": "uint256[]"
            },
            {
              "internalType": "bytes",
              "name": "tokenData1",
              "type": "bytes"
            },
            {
              "internalType": "uint256",
              "name": "fees1",
              "type": "uint256"
            },
            {
              "internalType": "bytes32",
              "name": "secretHash",
              "type": "bytes32"
            }
          ],
          "internalType": "struct SafeForERC1155.SwapETHToBatchERC1155Info",
          "name": "info",
          "type": "tuple"
        }
      ],
      "name": "swapDepositETHToERC1155",
      "outputs": [],
      "stateMutability": "payable",
      "type": "function"
    },
    {
      "inputs": [
        {
          "internalType": "address",
          "name": "to",
          "type": "address"
        },
        {
          "components": [
            {
              "internalType": "address",
              "name": "token0",
              "type": "address"
            },
            {
              "internalType": "uint256",
              "name": "tokenId0",
              "type": "uint256"
            },
            {
              "internalType": "uint256",
              "name": "value0",
              "type": "uint256"
            },
            {
              "internalType": "uint256",
              "name": "fees0",
              "type": "uint256"
            },
            {
              "internalType": "address",
              "name": "token1",
              "type": "address"
            },
            {
              "internalType": "uint256[]",
              "name": "tokenIds1",
              "type": "uint256[]"
            },
            {
              "internalType": "uint256[]",
              "name": "values1",
              "type": "uint256[]"
            },
            {
              "internalType": "bytes",
              "name": "tokenData1",
              "type": "bytes"
            },
            {
              "internalType": "uint256",
              "name": "fees1",
              "type": "uint256"
            },
            {
              "internalType": "bytes32",
              "name": "secretHash",
              "type": "bytes32"
            }
          ],
          "internalType": "struct SafeForERC1155.SwapETHToBatchERC1155Info",
          "name": "info",
          "type": "tuple"
        }
      ],
      "name": "swapRetrieveETHToERC1155",
      "outputs": [],
      "stateMutability": "nonpayable",
      "type": "function"
    },
    {
      "inputs": [
        {
          "internalType": "address payable",
          "name": "from",
          "type": "address"
        },
        {
          "components": [
            {
              "internalType": "address",
              "name": "token0",
              "type": "address"
            },
            {
              "internalType": "uint256",
              "name": "tokenId0",
              "type": "uint256"
            },
            {
              "internalType": "uint256",
              "name": "value0",
              "type": "uint256"
            },
            {
              "internalType": "uint256",
              "name": "fees0",
              "type": "uint256"
            },
            {
              "internalType": "address",
              "name": "token1",
              "type": "address"
            },
            {
              "internalType": "uint256[]",
              "name": "tokenIds1",
              "type": "uint256[]"
            },
            {
              "internalType": "uint256[]",
              "name": "values1",
              "type": "uint256[]"
            },
            {
              "internalType": "bytes",
              "name": "tokenData1",
              "type": "bytes"
            },
            {
              "internalType": "uint256",
              "name": "fees1",
              "type": "uint256"
            },
            {
              "internalType": "bytes32",
              "name": "secretHash",
              "type": "bytes32"
            }
          ],
          "internalType": "struct SafeForERC1155.SwapETHToBatchERC1155Info",
          "name": "info",
          "type": "tuple"
        },
        {
          "internalType": "bytes",
          "name": "secret",
          "type": "bytes"
        }
      ],
      "name": "swapETHToERC1155",
      "outputs": [],
      "stateMutability": "payable",
      "type": "function"
    }
  ],
  "bytecode": "0x60806040523480156200001157600080fd5b506040516200419938038062004199833981016040819052620000349162000299565b6200004160003362000185565b6200005c600080516020620041798339815191523362000185565b62000077600080516020620041798339815191528262000185565b466002819055600160b01b600160f01b0360001943014060b01b1630908117600160f81b176003819055604080518082018252601481527f4b69726f626f2053616665205472616e736665720000000000000000000000006020918201528151808301835260018152603160f81b90820152905162000161937fd87cd6ef79d4e2b95e15ce8abf732db51ec771f1ca2edccf22a46c729ac56472937fa0e7867c78e9ee05b975f886625b0f857545d287fd4041f342f5f7398f7cf444937fc89efdaa54c0f20c7adf612882df0950f5a951637e0307cdcb4c672f298b8bc6938893929101620002c9565b604051602081830303815290604052805190602001206001819055505050620002fa565b62000191828262000195565b5050565b600082815260208181526040909120620001ba918390620023556200020e821b17901c565b156200019157620001ca6200022e565b6001600160a01b0316816001600160a01b0316837f2f8788117e7eff1d82e926ec794901d17c78024a50270940304540a733656f0d60405160405180910390a45050565b600062000225836001600160a01b03841662000232565b90505b92915050565b3390565b600062000240838362000281565b620002785750815460018181018455600084815260208082209093018490558454848252828601909352604090209190915562000228565b50600062000228565b60009081526001919091016020526040902054151590565b600060208284031215620002ab578081fd5b81516001600160a01b0381168114620002c2578182fd5b9392505050565b9586526020860194909452604085019290925260608401526001600160a01b0316608083015260a082015260c00190565b613e6f806200030a6000396000f3fe6080604052600436106101db5760003560e01c806385e1f4d011610102578063ca15c87311610095578063ebd3d4b711610064578063ebd3d4b7146104fd578063f39d76111461051d578063fea5c3e11461053d578063ffa1ad741461055d57610203565b8063ca15c8731461048a578063cf31ef97146104aa578063d547741f146104bd578063e49a12dc146104dd57610203565b806391d14854116100d157806391d1485414610413578063a217fddf14610440578063a3f4df7e14610455578063b5d02d371461047757610203565b806385e1f4d01461039e5780638b23d81b146103b35780638df5d93b146103d35780639010d07c146103e657610203565b80633644e5151161017a57806354be70cc1161014957806354be70cc1461034357806359e101781461035657806378e80e10146103695780638025e3031461037c57610203565b80633644e515146102db57806336568abe146102f0578063449b34821461031057806349898f441461032357610203565b806313114a9d116101b657806313114a9d14610266578063248a9ca31461027b57806326682baf1461029b5780632f2ff15d146102bb57610203565b8062acba181461020857806308740a3b146102285780630a913d991461025357610203565b366102035760405162461bcd60e51b81526004016101f890613b88565b60405180910390fd5b005b600080fd5b34801561021457600080fd5b50610201610223366004612ab3565b610572565b34801561023457600080fd5b5061023d6106b5565b60405161024a9190613724565b60405180910390f35b610201610261366004612ab3565b6106c7565b34801561027257600080fd5b5061023d61084a565b34801561028757600080fd5b5061023d610296366004612ffe565b610850565b3480156102a757600080fd5b506102016102b6366004612d8a565b610865565b3480156102c757600080fd5b506102016102d6366004613016565b610974565b3480156102e757600080fd5b5061023d6109bc565b3480156102fc57600080fd5b5061020161030b366004613016565b6109c2565b61020161031e366004612b00565b610a04565b34801561032f57600080fd5b5061020161033e366004612cb4565b610cb6565b610201610351366004612bff565b610ecd565b610201610364366004612f76565b611093565b610201610377366004612d8a565b6111b5565b34801561038857600080fd5b506103916112cc565b60405161024a9190613dcd565b3480156103aa57600080fd5b5061023d6112d1565b3480156103bf57600080fd5b506102016103ce366004612e56565b6112d7565b6102016103e1366004612bb8565b611512565b3480156103f257600080fd5b50610406610401366004613045565b6118b8565b60405161024a919061319c565b34801561041f57600080fd5b5061043361042e366004613016565b6118d9565b60405161024a9190613719565b34801561044c57600080fd5b5061023d6118f1565b34801561046157600080fd5b5061046a6118f6565b60405161024a919061372d565b610201610485366004612b75565b611926565b34801561049657600080fd5b5061023d6104a5366004612ffe565b611bf5565b6102016104b8366004612c42565b611c0c565b3480156104c957600080fd5b506102016104d8366004613016565b611e96565b3480156104e957600080fd5b506102016104f8366004612c89565b611ed0565b34801561050957600080fd5b50610201610518366004612bff565b611f4f565b34801561052957600080fd5b50610201610538366004612b75565b61207f565b34801561054957600080fd5b50610201610558366004612f76565b612246565b34801561056957600080fd5b5061046a612338565b60003383836000015184602001518560400151866060015187608001518860a001518960c001518a60e001518b61010001516040516020016105be9b9a999897969594939291906131b0565b60408051601f198184030181529181528151602092830120600081815260069093529120549091506106025760405162461bcd60e51b81526004016101f890613bd2565b600081815260066020526040808220829055608084015190519091339183156108fc0291849190818181858888f19350505050158015610646573d6000803e3d6000fd5b506020830151604051339161065a91613156565b604051809103902084600001516001600160a01b03167fd655cc91a28cec33cacc344acb2a41b58a25a2a2ca30bf725e8c33c701219dab878688604001516040516106a79392919061359a565b60405180910390a450505050565b600080516020613e1a83398151915281565b806080015134146106ea5760405162461bcd60e51b81526004016101f890613b1a565b6001600160a01b0382163314156107135760405162461bcd60e51b81526004016101f890613c09565b60003383836000015184602001518560400151866060015187608001518860a001518960c001518a60e001518b610100015160405160200161075f9b9a999897969594939291906131b0565b60408051601f19818403018152918152815160209283012060008181526006909352912054909150156107a45760405162461bcd60e51b81526004016101f890613ae3565b6001600160401b03600660008381526020019081526020016000208190555081600001516001600160a01b0316836001600160a01b0316336001600160a01b03167f6aea23a070c9876f6273a6597e23c6ab126bb385e46cb50c4c6a181c4655b0808560200151866040015187608001518860a001518960c001518a60e001518b610100015160405161083d97969594939291906136c0565b60405180910390a4505050565b60045490565b60009081526020819052604090206002015490565b60008a338b8b8b8b8b8b8b8b8b60405160200161088c9b9a99989796959493929190613412565b60408051601f198184030181529181528151602092830120600081815260059093529120549091506108d05760405162461bcd60e51b81526004016101f890613a7c565b60008181526005602052604080822082905551339185156108fc02918691818181858888f1935050505015801561090b573d6000803e3d6000fd5b50896001600160a01b0316336001600160a01b03168c6001600160a01b03167fc2263345832f5e2ac00f59aee67304df8fd8c45c216e65a610afc67c7568c1148c8c8c8c60405161095f94939291906135eb565b60405180910390a45050505050505050505050565b6000828152602081905260409020600201546109929061042e61236a565b6109ae5760405162461bcd60e51b81526004016101f8906137b0565b6109b8828261236e565b5050565b60015481565b6109ca61236a565b6001600160a01b0316816001600160a01b0316146109fa5760405162461bcd60e51b81526004016101f890613c40565b6109b882826123d7565b60008433856000015186602001518760400151886060015189608001518a60a001518b60c001518c60e001518d6101000151604051602001610a509b9a999897969594939291906131b0565b60408051601f1981840301815291815281516020928301206000818152600690935291205490915080610a955760405162461bcd60e51b81526004016101f890613bd2565b42816001600160401b031611610abd5760405162461bcd60e51b81526004016101f8906138a4565b42604082901c6001600160401b03161115610aea5760405162461bcd60e51b81526004016101f890613966565b8461010001518484604051610b0092919061318c565b604051809103902014610b255760405162461bcd60e51b81526004016101f890613ab3565b60008281526006602052604081205560e08501516080860151600454610b569291610b509190612440565b90612440565b60048190555084600001516001600160a01b0316632eb2c2d68733886020015189604001518a606001516040518663ffffffff1660e01b8152600401610ba095949392919061336f565b600060405180830381600087803b158015610bba57600080fd5b505af1158015610bce573d6000803e3d6000fd5b5050505060e085015160c0860151610be591612440565b3414610c035760405162461bcd60e51b81526004016101f890613b1a565b60c08501516040516001600160a01b0388169180156108fc02916000818181858888f19350505050158015610c3c573d6000803e3d6000fd5b5084600001516001600160a01b0316336001600160a01b0316876001600160a01b03167f981ec8cd0402eeb40edbd61c36b102000beb147fd257626b655490f3b9c8977c886020015189604001518a60a001518b60c0015189604051610ca6959493929190613674565b60405180910390a4505050505050565b610cce600080516020613e1a833981519152336118d9565b610cea5760405162461bcd60e51b81526004016101f890613b51565b60008b8b8b8b8b8b8b8b8b604051602001610d0d9998979695949392919061348d565b60408051601f1981840301815291815281516020928301206000818152600590935291205490915080610d525760405162461bcd60e51b81526004016101f890613a7c565b42816001600160401b031611610d7a5760405162461bcd60e51b81526004016101f890613782565b42604082901c6001600160401b03161115610da75760405162461bcd60e51b81526004016101f8906137ff565b848484604051610db892919061318c565b604051809103902014610ddd5760405162461bcd60e51b81526004016101f89061399d565b600082815260056020526040812055600454610df99087612440565b6004819055508c6001600160a01b031663f242432a8d8d8d8d8d8d6040518763ffffffff1660e01b8152600401610e35969594939291906134ea565b600060405180830381600087803b158015610e4f57600080fd5b505af1158015610e63573d6000803e3d6000fd5b505050508a6001600160a01b03168c6001600160a01b03168e6001600160a01b03167fda390d84d1887172ecb3fafdf8c63dfd9a80723aab498c394f51b7474b067fa28d8d604051610eb6929190613cde565b60405180910390a450505050505050505050505050565b80608001516001600160a01b031681600001516001600160a01b03161415610f075760405162461bcd60e51b81526004016101f890613a0b565b60608101516040820151610f1a91612440565b3414610f385760405162461bcd60e51b81526004016101f890613b1a565b6001600160a01b038216331415610f615760405162461bcd60e51b81526004016101f890613c09565b60003383836000015184602001518560400151866060015187608001518860a001518960c001518a60e001518b61010001518c6101200151604051602001610fb49c9b9a999897969594939291906132da565b60408051601f1981840301815291815281516020928301206000818152600690935291205490915015610ff95760405162461bcd60e51b81526004016101f890613ae3565b6001600160401b03600660008381526020019081526020016000208190555081600001516001600160a01b0316836001600160a01b0316336001600160a01b03167fab6dbfa92a1f2e77717f138d1a7b582bc2683878e74b9b49ca614b2e98e437db8560400151866060015187608001518860a001518960c001518a61010001518b610120015160405161083d9796959493929190613cec565b8134146110b25760405162461bcd60e51b81526004016101f8906138cf565b6001600160a01b0387163314156110db5760405162461bcd60e51b81526004016101f8906139d4565b60008833898989898989896040516020016110fe9998979695949392919061348d565b60408051601f19818403018152918152815160209283012060008181526005909352912054909150156111435760405162461bcd60e51b81526004016101f89061386d565b600081815260056020526040908190206001600160401b039055516001600160a01b03808a169133918c16907f815701d2a70cb9728dad47bf244cfb943736d064c1f0d6eb6386e1da4b9be6b2906111a2908c908c908a908a90613db2565b60405180910390a4505050505050505050565b8134146111d45760405162461bcd60e51b81526004016101f8906138cf565b6001600160a01b0389163314156111fd5760405162461bcd60e51b81526004016101f8906139d4565b60008a338b8b8b8b8b8b8b8b8b6040516020016112249b9a99989796959493929190613412565b60408051601f19818403018152918152815160209283012060008181526005909352912054909150156112695760405162461bcd60e51b81526004016101f89061386d565b600081815260056020526040908190206001600160401b039055516001600160a01b03808c169133918e16907f8ac12a82b0377e2c6e1e42e37e8d8957f8df98f5c6d9fcbc86dcc2d65c5f1e2f9061095f908e908e908e908e908c908c90613612565b600181565b60025481565b6112ef600080516020613e1a833981519152336118d9565b61130b5760405162461bcd60e51b81526004016101f890613b51565b60008160000151838584602001518560400151866060015187608001518860a00151604051602001611344989796959493929190613525565b60408051601f19818403018152918152815160209283012060008181526005909352912054909150806113895760405162461bcd60e51b81526004016101f890613a7c565b42816001600160401b0316116113b15760405162461bcd60e51b81526004016101f890613782565b42604082901c6001600160401b031611156113de5760405162461bcd60e51b81526004016101f8906137ff565b8260a001518360c00151805190602001201461140c5760405162461bcd60e51b81526004016101f89061399d565b600082815260056020526040812055608083015160045461142c91612440565b60048190555082600001516001600160a01b0316632eb2c2d685878660200151876040015188606001516040518663ffffffff1660e01b815260040161147695949392919061336f565b600060405180830381600087803b15801561149057600080fd5b505af11580156114a4573d6000803e3d6000fd5b50505050846001600160a01b0316846001600160a01b031684600001516001600160a01b03167f759238326589d20c2f643db19775089f05967fb40ad4c6b19374156de496b4458660200151876040015160405161150392919061364f565b60405180910390a45050505050565b60008433856000015186602001518760400151886060015189608001518a60a001518b60c001518c60e001518d61010001518e61012001518f610140015160405160200161156c9d9c9b9a99989796959493929190613244565b60408051601f19818403018152918152815160209283012060008181526006909352912054909150806115b15760405162461bcd60e51b81526004016101f890613bd2565b42816001600160401b0316116115d95760405162461bcd60e51b81526004016101f8906138a4565b42604082901c6001600160401b031611156116065760405162461bcd60e51b81526004016101f890613966565b846101400151848460405161161c92919061318c565b6040518091039020146116415760405162461bcd60e51b81526004016101f890613ab3565b600082815260066020526040812055610120850151608086015160045461166d9291610b509190612440565b60045584516001600160a01b03166116b5576040808601519051339180156108fc02916000818181858888f193505050501580156116af573d6000803e3d6000fd5b5061172b565b8451602086015160408088015160608901519151637921219560e11b81526001600160a01b039094169363f242432a936116f8938c9333939091906004016133cd565b600060405180830381600087803b15801561171257600080fd5b505af1158015611726573d6000803e3d6000fd5b505050505b60a08501516001600160a01b03166117ae5761012085015160e086015161175191612440565b341461176f5760405162461bcd60e51b81526004016101f890613b1a565b60e08501516040516001600160a01b0388169180156108fc02916000818181858888f193505050501580156117a8573d6000803e3d6000fd5b50611849565b84610120015134146117d25760405162461bcd60e51b81526004016101f890613b1a565b60a085015160c086015160e0870151610100880151604051637921219560e11b81526001600160a01b039094169363f242432a936118169333938d936004016133cd565b600060405180830381600087803b15801561183057600080fd5b505af1158015611844573d6000803e3d6000fd5b505050505b84600001516001600160a01b0316336001600160a01b0316876001600160a01b03167f1cd08abcfa88346a7e12f9c544bc9893032efab3b7b2effe6702cf114941e771886020015189604001518a60a001518b60c001518c60e001518a604051610ca696959493929190613d42565b60008281526020819052604081206118d09083612465565b90505b92915050565b60008281526020819052604081206118d09083612471565b600081565b6040518060400160405280601481526020017325b4b937b1379029b0b332902a3930b739b332b960611b81525081565b80516001600160a01b03166119c9578060a001516001600160a01b031681600001516001600160a01b0316141561196f5760405162461bcd60e51b81526004016101f890613a0b565b6080810151604082015161198291612440565b34146119a05760405162461bcd60e51b81526004016101f890613b1a565b60008160e00151116119c45760405162461bcd60e51b81526004016101f890613a50565b611a8d565b60a08101516001600160a01b0316611a2257806080015134146119fe5760405162461bcd60e51b81526004016101f890613b1a565b60008160400151116119c45760405162461bcd60e51b81526004016101f890613a50565b80608001513414611a455760405162461bcd60e51b81526004016101f890613b1a565b6000816040015111611a695760405162461bcd60e51b81526004016101f890613a50565b60008160e0015111611a8d5760405162461bcd60e51b81526004016101f890613a50565b6001600160a01b038216331415611ab65760405162461bcd60e51b81526004016101f890613c09565b60003383836000015184602001518560400151866060015187608001518860a001518960c001518a60e001518b61010001518c61012001518d6101400151604051602001611b109d9c9b9a99989796959493929190613244565b60408051601f1981840301815291815281516020928301206000818152600690935291205490915015611b555760405162461bcd60e51b81526004016101f890613ae3565b6001600160401b03600660008381526020019081526020016000208190555081600001516001600160a01b0316836001600160a01b0316336001600160a01b03167f58eb102fd3abf766cfb5fd55da90fe9ff8bc2eb9f817088f5dba14c6eefd6ea88560200151866040015187608001518860a001518960c001518a60e001518b61012001518c610140015160405161083d989796959493929190613d73565b60008181526020819052604081206118d390612486565b60008433856000015186602001518760400151886060015189608001518a60a001518b60c001518c60e001518d61010001518e6101200151604051602001611c5f9c9b9a999897969594939291906132da565b60408051601f1981840301815291815281516020928301206000818152600690935291205490915080611ca45760405162461bcd60e51b81526004016101f890613bd2565b42816001600160401b031611611ccc5760405162461bcd60e51b81526004016101f8906138a4565b42604082901c6001600160401b03161115611cf95760405162461bcd60e51b81526004016101f890613966565b8461012001518484604051611d0f92919061318c565b604051809103902014611d345760405162461bcd60e51b81526004016101f890613ab3565b6000828152600660205260408120556101008501516060860151600454611d609291610b509190612440565b6004556040808601519051339180156108fc02916000818181858888f19350505050158015611d93573d6000803e3d6000fd5b508461010001513414611db85760405162461bcd60e51b81526004016101f890613b1a565b608085015160a086015160c087015160e0880151604051631759616b60e11b81526001600160a01b0390941693632eb2c2d693611dfb9333938d9360040161336f565b600060405180830381600087803b158015611e1557600080fd5b505af1158015611e29573d6000803e3d6000fd5b5050505084600001516001600160a01b0316336001600160a01b0316876001600160a01b03167f39219eeae22868f4c2b899625690dcef2701ed5b1ed8fd69bcc7071c17bcd55f886040015189608001518a60a001518b60c0015189604051610ca6959493929190613c8f565b600082815260208190526040902060020154611eb49061042e61236a565b6109fa5760405162461bcd60e51b81526004016101f890613916565b611ee8600080516020613e1a833981519152336118d9565b611f045760405162461bcd60e51b81526004016101f890613b51565b600454611f119082612491565b6004556040516001600160a01b0383169082156108fc029083906000818181858888f19350505050158015611f4a573d6000803e3d6000fd5b505050565b60003383836000015184602001518560400151866060015187608001518860a001518960c001518a60e001518b61010001518c6101200151604051602001611fa29c9b9a999897969594939291906132da565b60408051601f19818403018152918152815160209283012060008181526006909352912054909150611fe65760405162461bcd60e51b81526004016101f890613bd2565b60008181526006602052604080822082905560608401519084015161200a91612440565b604051909150339082156108fc029083906000818181858888f1935050505015801561203a573d6000803e3d6000fd5b5081846001600160a01b0316336001600160a01b03167f2c0f05de664e2354e281c7c55d07fe10e18c61d9b196dbcd318285801b36cde4846040516106a79190613724565b60003383836000015184602001518560400151866060015187608001518860a001518960c001518a60e001518b61010001518c61012001518d61014001516040516020016120d99d9c9b9a99989796959493929190613244565b60408051601f1981840301815291815281516020928301206000818152600690935291205490915061211d5760405162461bcd60e51b81526004016101f890613bd2565b600081815260066020526040812081905582516001600160a01b0316612157576080830151604084015161215091612440565b905061215e565b5060808201515b604051339082156108fc029083906000818181858888f1935050505015801561218b573d6000803e3d6000fd5b5082516001600160a01b03166121ec5781846001600160a01b0316336001600160a01b03167f2c0f05de664e2354e281c7c55d07fe10e18c61d9b196dbcd318285801b36cde4846040516121df9190613724565b60405180910390a4612240565b336001600160a01b0316836020015184600001516001600160a01b03167f9d60e89808b82d17ba5a7a432570024f04e56e130697c4781035e51be2788a75878688604001516040516106a7939291906135ca565b50505050565b60008833898989898989896040516020016122699998979695949392919061348d565b60408051601f198184030181529181528151602092830120600081815260059093529120549091506122ad5760405162461bcd60e51b81526004016101f890613a7c565b60008181526005602052604080822082905551339185156108fc02918691818181858888f193505050501580156122e8573d6000803e3d6000fd5b50876001600160a01b0316336001600160a01b03168a6001600160a01b03167f8a96343c35f852197f641ff14a8eebe74e8708a2eac119132630719127f4c2678a8a6040516111a2929190613cde565b604051806040016040528060018152602001603160f81b81525081565b60006118d0836001600160a01b0384166124d3565b3390565b60008281526020819052604090206123869082612355565b156109b85761239361236a565b6001600160a01b0316816001600160a01b0316837f2f8788117e7eff1d82e926ec794901d17c78024a50270940304540a733656f0d60405160405180910390a45050565b60008281526020819052604090206123ef908261251d565b156109b8576123fc61236a565b6001600160a01b0316816001600160a01b0316837ff6391f5c32d9c69d2a47ea670b442974b53935d1edc7fd64eb21e047a839171b60405160405180910390a45050565b6000828201838110156118d05760405162461bcd60e51b81526004016101f890613836565b60006118d08383612532565b60006118d0836001600160a01b038416612577565b60006118d38261258f565b60006118d083836040518060400160405280601e81526020017f536166654d6174683a207375627472616374696f6e206f766572666c6f770000815250612593565b60006124df8383612577565b612515575081546001818101845560008481526020808220909301849055845484825282860190935260409020919091556118d3565b5060006118d3565b60006118d0836001600160a01b0384166125bf565b815460009082106125555760405162461bcd60e51b81526004016101f890613740565b82600001828154811061256457fe5b9060005260206000200154905092915050565b60009081526001919091016020526040902054151590565b5490565b600081848411156125b75760405162461bcd60e51b81526004016101f8919061372d565b505050900390565b6000818152600183016020526040812054801561267b57835460001980830191908101906000908790839081106125f257fe5b906000526020600020015490508087600001848154811061260f57fe5b60009182526020808320909101929092558281526001898101909252604090209084019055865487908061263f57fe5b600190038181906000526020600020016000905590558660010160008781526020019081526020016000206000905560019450505050506118d3565b60009150506118d3565b80356118d381613e01565b60008083601f8401126126a1578182fd5b5081356001600160401b038111156126b7578182fd5b60208301915083602080830285010111156126d157600080fd5b9250929050565b600082601f8301126126e8578081fd5b81356001600160401b038111156126fd578182fd5b602080820261270d828201613ddb565b8381529350818401858301828701840188101561272957600080fd5b600092505b8483101561274c57803582526001929092019190830190830161272e565b505050505092915050565b60008083601f840112612768578182fd5b5081356001600160401b0381111561277e578182fd5b6020830191508360208285010111156126d157600080fd5b600082601f8301126127a6578081fd5b81356001600160401b038111156127bb578182fd5b6127ce601f8201601f1916602001613ddb565b91508082528360208285010111156127e557600080fd5b8060208401602084013760009082016020015292915050565b6000610120808385031215612811578182fd5b61281a81613ddb565b9150506128278383612685565b815260208201356001600160401b038082111561284357600080fd5b61284f858386016126d8565b6020840152604084013591508082111561286857600080fd5b612874858386016126d8565b6040840152606084013591508082111561288d57600080fd5b5061289a84828501612796565b606083015250608082013560808201526128b78360a08401612685565b60a082015260c082013560c082015260e082013560e082015261010080830135818301525092915050565b60006101608083850312156128f5578182fd5b6128fe81613ddb565b91505061290b8383612685565b8152602082013560208201526040820135604082015260608201356001600160401b038082111561293b57600080fd5b61294785838601612796565b6060840152608084013560808401526129638560a08601612685565b60a084015260c084013560c084015260e084013560e08401526101009150818401358181111561299257600080fd5b61299e86828701612796565b8385015250505061012080830135818301525061014080830135818301525092915050565b60006101408083850312156129d6578182fd5b6129df81613ddb565b9150506129ec8383612685565b8152602082013560208201526040820135604082015260608201356060820152612a198360808401612685565b608082015260a08201356001600160401b0380821115612a3857600080fd5b612a44858386016126d8565b60a084015260c0840135915080821115612a5d57600080fd5b612a69858386016126d8565b60c084015260e0840135915080821115612a8257600080fd5b50612a8f84828501612796565b60e08301525061010080830135818301525061012080830135818301525092915050565b60008060408385031215612ac5578182fd5b8235612ad081613e01565b915060208301356001600160401b03811115612aea578182fd5b612af6858286016127fe565b9150509250929050565b60008060008060608587031215612b15578182fd5b8435612b2081613e01565b935060208501356001600160401b0380821115612b3b578384fd5b612b47888389016127fe565b94506040870135915080821115612b5c578384fd5b50612b6987828801612757565b95989497509550505050565b60008060408385031215612b87578182fd5b8235612b9281613e01565b915060208301356001600160401b03811115612bac578182fd5b612af6858286016128e2565b60008060008060608587031215612bcd578384fd5b8435612bd881613e01565b935060208501356001600160401b0380821115612bf3578485fd5b612b47888389016128e2565b60008060408385031215612c11578182fd5b8235612c1c81613e01565b915060208301356001600160401b03811115612c36578182fd5b612af6858286016129c3565b60008060008060608587031215612c57578182fd5b8435612c6281613e01565b935060208501356001600160401b0380821115612c7d578384fd5b612b47888389016129c3565b60008060408385031215612c9b578182fd5b8235612ca681613e01565b946020939093013593505050565b60008060008060008060008060008060006101208c8e031215612cd5578889fd5b612cdf8c35613e01565b8b359a50612cf060208d0135613e01565b60208c01359950612d048d60408e01612685565b985060608c0135975060808c013596506001600160401b038060a08e01351115612d2c578687fd5b612d3c8e60a08f01358f01612757565b909750955060c08d0135945060e08d013593506101008d0135811015612d60578283fd5b50612d728d6101008e01358e01612757565b81935080925050509295989b509295989b9093969950565b60008060008060008060008060008060e08b8d031215612da8578384fd5b8a35612db381613e01565b995060208b0135612dc381613e01565b985060408b01356001600160401b0380821115612dde578586fd5b612dea8e838f01612690565b909a50985060608d0135915080821115612e02578586fd5b612e0e8e838f01612690565b909850965060808d0135915080821115612e26578586fd5b50612e338d828e01612757565b9b9e9a9d50989b979a969995989760a08101359660c09091013595509350505050565b600080600060608486031215612e6a578081fd5b8335612e7581613e01565b92506020840135612e8581613e01565b915060408401356001600160401b0380821115612ea0578283fd5b9085019060e08288031215612eb3578283fd5b612ebd60e0613ddb565b612ec78884612685565b8152602083013582811115612eda578485fd5b612ee6898286016126d8565b602083015250604083013582811115612efd578485fd5b612f09898286016126d8565b604083015250606083013582811115612f20578485fd5b612f2c89828601612796565b6060830152506080830135608082015260a083013560a082015260c083013582811115612f57578485fd5b612f6389828601612796565b60c0830152508093505050509250925092565b60008060008060008060008060e0898b031215612f91578182fd5b8835612f9c81613e01565b97506020890135612fac81613e01565b9650604089013595506060890135945060808901356001600160401b03811115612fd4578283fd5b612fe08b828c01612757565b999c989b5096999598969760a08701359660c0013595509350505050565b60006020828403121561300f578081fd5b5035919050565b60008060408385031215613028578182fd5b82359150602083013561303a81613e01565b809150509250929050565b60008060408385031215613057578182fd5b50508035926020909101359150565b6001600160a01b03169052565b81835260006001600160fb1b0383111561308b578081fd5b6020830280836020870137939093016020019283525090919050565b6000815180845260208085019450808401835b838110156130d6578151875295820195908201906001016130ba565b509495945050505050565b60008284528282602086013780602084860101526020601f19601f85011685010190509392505050565b60008151808452815b8181101561313057602081850181015186830182015201613114565b818111156131415782602083870101525b50601f01601f19169290920160200192915050565b815160009082906020808601845b8381101561318057815185529382019390820190600101613164565b50929695505050505050565b6000828483379101908152919050565b6001600160a01b0391909116815260200190565b6001600160a01b038c811682528b811660208301528a81166040830152610160606083018190526000916131e68483018d6130a7565b915083820360808501526131fa828c6130a7565b915083820360a085015261320e828b61310b565b60c08501999099529690961660e08301525061010081019390935261012083019190915261014090910152509695505050505050565b6001600160a01b038e811682528d811660208301528c166040820152606081018b9052608081018a90526101a060a082018190526000906132879083018b61310b565b8960c084015261329a60e084018a613066565b87610100840152866101208401528281036101408401526132bb818761310b565b610160840195909552505061018001529b9a5050505050505050505050565b600060018060a01b03808f168352808e166020840152808d1660408401528b60608401528a60808401528960a084015280891660c08401525061018060e08301526133296101808301886130a7565b82810361010084015261333c81886130a7565b9050828103610120840152613351818761310b565b610140840195909552505061016001529a9950505050505050505050565b6001600160a01b0386811682528516602082015260a06040820181905260009061339b908301866130a7565b82810360608401526133ad81866130a7565b905082810360808401526133c1818561310b565b98975050505050505050565b6001600160a01b03868116825285166020820152604081018490526060810183905260a0608082018190526000906134079083018461310b565b979650505050505050565b6001600160a01b038c811682528b811660208301528a166040820152610100606082018190526000906134488382018b8d613073565b9050828103608084015261345d81898b613073565b905082810360a08401526134728187896130e1565b60c0840195909552505060e001529998505050505050505050565b6001600160a01b038a81168252898116602083015288166040820152606081018790526080810186905261010060a082018190526000906134d183820187896130e1565b60c0840195909552505060e00152979650505050505050565b6001600160a01b03878116825286166020820152604081018590526060810184905260a0608082018190526000906133c190830184866130e1565b6001600160a01b0389811682528881166020830152871660408201526101006060820181905260009061355a838201896130a7565b9050828103608084015261356e81886130a7565b905082810360a0840152613582818761310b565b60c0840195909552505060e001529695505050505050565b600060018060a01b0385168252836020830152606060408301526135c160608301846130a7565b95945050505050565b6001600160a01b039390931683526020830191909152604082015260600190565b6000604082526135ff604083018688613073565b8281036020840152613407818587613073565b60006080825261362660808301888a613073565b8281036020840152613639818789613073565b6040840195909552505060600152949350505050565b60006040825261366260408301856130a7565b82810360208401526135c181856130a7565b600060a0825261368760a08301886130a7565b828103602084015261369981886130a7565b6001600160a01b039690961660408401525050606081019290925260809091015292915050565b600060e082526136d360e083018a6130a7565b82810360208401526136e5818a6130a7565b604084019890985250506001600160a01b03949094166060850152608084019290925260a083015260c09091015292915050565b901515815260200190565b90815260200190565b6000602082526118d0602083018461310b565b60208082526022908201527f456e756d657261626c655365743a20696e646578206f7574206f6620626f756e604082015261647360f01b606082015260800190565b60208082526014908201527314d85999551c985b99995c8e88195e1c1a5c995960621b604082015260600190565b6020808252602f908201527f416363657373436f6e74726f6c3a2073656e646572206d75737420626520616e60408201526e0818591b5a5b881d1bc819dc985b9d608a1b606082015260800190565b6020808252601e908201527f536166655472616e6665723a206e6f7420617661696c61626c65207965740000604082015260600190565b6020808252601b908201527f536166654d6174683a206164646974696f6e206f766572666c6f770000000000604082015260600190565b6020808252601b908201527f536166655472616e736665723a20726571756573742065786973740000000000604082015260600190565b60208082526011908201527014d8599954ddd85c0e88195e1c1a5c9959607a1b604082015260600190565b60208082526027908201527f536166655472616e736665723a206d73672e76616c7565206d757374206d61746040820152666368206665657360c81b606082015260800190565b60208082526030908201527f416363657373436f6e74726f6c3a2073656e646572206d75737420626520616e60408201526f2061646d696e20746f207265766f6b6560801b606082015260800190565b6020808252601b908201527f53616665537761703a206e6f7420617661696c61626c65207965740000000000604082015260600190565b6020808252601a908201527f536166655472616e736665723a2077726f6e6720736563726574000000000000604082015260600190565b6020808252601f908201527f536166655472616e736665723a2073656e6465723d3d726563697069656e7400604082015260600190565b60208082526025908201527f53616665537761703a2074727920746f207377617020657468657220616e642060408201526432ba3432b960d91b606082015260800190565b60208082526012908201527153616665537761703a206e6f2076616c756560701b604082015260600190565b6020808252601f908201527f536166655472616e736665723a2072657175657374206e6f7420657869737400604082015260600190565b60208082526016908201527514d8599954ddd85c0e881ddc9bdb99c81cd958dc995d60521b604082015260600190565b60208082526017908201527f53616665537761703a2072657175657374206578697374000000000000000000604082015260600190565b60208082526018908201527f53616665537761703a2076616c7565206d69736d617463680000000000000000604082015260600190565b6020808252601e908201527f536166655472616e736665723a206e6f7420616e20616374697661746f720000604082015260600190565b6020808252602a908201527f536166655472616e736665723a206e6f7420616363657074696e67206574686560408201526972206469726563746c7960b01b606082015260800190565b6020808252601b908201527f53616665537761703a2072657175657374206e6f742065786973740000000000604082015260600190565b6020808252601b908201527f53616665537761703a2073656e6465723d3d726563697069656e740000000000604082015260600190565b6020808252602f908201527f416363657373436f6e74726f6c3a2063616e206f6e6c792072656e6f756e636560408201526e103937b632b9903337b91039b2b63360891b606082015260800190565b8581526001600160a01b038516602082015260a060408201819052600090613cb9908301866130a7565b8281036060840152613ccb81866130a7565b9150508260808301529695505050505050565b918252602082015260400190565b600088825287602083015260018060a01b038716604083015260e06060830152613d1960e08301876130a7565b8281036080840152613d2b81876130a7565b60a0840195909552505060c0015295945050505050565b95865260208601949094526001600160a01b039290921660408501526060840152608083015260a082015260c00190565b978852602088019690965260408701949094526001600160a01b03929092166060860152608085015260a084015260c083015260e08201526101000190565b93845260208401929092526040830152606082015260800190565b60ff91909116815260200190565b6040518181016001600160401b0381118282101715613df957600080fd5b604052919050565b6001600160a01b0381168114613e1657600080fd5b5056feec5aad7bdface20c35bc02d6d2d5760df981277427368525d634f4e2603ea192a26469706673582212203a953a63f02bc6a427f6d08e838f0a3e08f25bac6c3d2fbc56caa4e82d2f152a64736f6c634300060c0033ec5aad7bdface20c35bc02d6d2d5760df981277427368525d634f4e2603ea192",
  "immutableReferences": {},
  "source": "// SPDX-License-Identifier: GPL-3.0-or-later\npragma solidity 0.6.12;\npragma experimental ABIEncoderV2;\n\n\nimport \"../node_modules/@openzeppelin/contracts/math/SafeMath.sol\";\nimport \"../node_modules/@openzeppelin/contracts/access/AccessControl.sol\";\nimport \"../node_modules/@openzeppelin/contracts/token/ERC20/SafeERC20.sol\";\nimport \"../node_modules/@openzeppelin/contracts/token/ERC721/IERC721.sol\";\nimport \"../node_modules/@openzeppelin/contracts/token/ERC1155/IERC1155.sol\";\n\n\ncontract SafeForERC1155 is AccessControl {\n    using SafeMath for uint256;\n    //using SafeERC20 for IERC20;\n\n    // keccak256(\"ACTIVATOR_ROLE\");\n    bytes32 public constant ACTIVATOR_ROLE = 0xec5aad7bdface20c35bc02d6d2d5760df981277427368525d634f4e2603ea192;\n\n    // keccak256(\"hiddenCollect(address from,address to,uint256 value,uint256 fees,bytes32 secretHash)\");\n   //bytes32 public constant HIDDEN_COLLECT_TYPEHASH = 0x0506afef36f3613836f98ef019cb76a3e6112be8f9dc8d8fa77275d64f418234;\n\n    // keccak256(\"hiddenCollectERC20(address from,address to,address token,string tokenSymbol,uint256 value,uint256 fees,bytes32 secretHash)\");\n   // bytes32 public constant HIDDEN_ERC20_COLLECT_TYPEHASH = 0x9e6214229b9fba1927010d30b22a3a5d9fd5e856bb29f056416ff2ad52e8de44;\n\n    // keccak256(\"hiddenCollectERC721(address from,address to,address token,string tokenSymbol,uint256 tokenId,bytes tokenData,uint256 fees,bytes32 secretHash)\");\n   // bytes32 public constant HIDDEN_ERC721_COLLECT_TYPEHASH = 0xa14a2dc51c26e451800897aa798120e7d6c35039caf5eb29b8ac35d1e914c591;\n\n    bytes32 public DOMAIN_SEPARATOR;\n    uint256 public CHAIN_ID;\n    bytes32 s_uid;\n    uint256 s_fees;\n    \n    struct TokenInfo {\n        bytes32 id;\n        bytes32 id1;\n        uint256 tr;\n    }\n\n    struct SwapERC1155Info {\n        address token0;\n        uint256 tokenId0;\n        uint256 value0;\n        bytes tokenData0;\n        uint256 fees0;\n        address token1;\n        uint256 tokenId1;\n        uint256 value1;\n        bytes tokenData1;\n        uint256 fees1;\n        bytes32 secretHash;\n    }\n\n    struct CollectBatchERC1155Info {\n        address token;\n        uint256[] tokenIds;\n        uint256[] values;\n        bytes tokenData;\n        uint256 fees;\n        bytes32 secretHash;\n        bytes secret;\n    }\n\n    struct SwapBatchERC1155ToETHInfo {\n        address token0;\n        uint256[] tokenIds0;\n        uint256[] values0;\n        bytes tokenData0;\n        uint256 fees0;\n        address token1;\n        uint256 value1;\n        uint256 fees1;\n        bytes32 secretHash;\n    }\n\n    struct SwapETHToBatchERC1155Info {\n        address token0;\n        uint256 tokenId0;\n        uint256 value0;\n        uint256 fees0;\n        address token1;\n        uint256[] tokenIds1;\n        uint256[] values1;\n        bytes tokenData1;\n        uint256 fees1;\n        bytes32 secretHash;\n    }\n\n    mapping(bytes32 => uint256) s_erc1155Transfers;\n    mapping(bytes32 => uint256) s_swaps;\n    mapping(bytes32 => uint256) s_hswaps;\n\n    string public constant NAME = \"Kirobo Safe Transfer\";\n    string public constant VERSION = \"1\";\n    uint8 public constant VERSION_NUMBER = 0x1;\n\n    event Retrieved(\n        address indexed from,\n        address indexed to,\n        bytes32 indexed id,\n        uint256 value\n    );\n\n    event ERC1155TransferDeposited(\n        address indexed token,\n        address indexed from,     \n        address indexed to,\n        uint256 tokenId,\n        uint256 value,\n        uint256 fees,\n        bytes32 secretHash\n    );\n\n    event ERC1155BatchTransferDeposited(\n        address indexed token,\n        address indexed from,     \n        address indexed to,\n        uint256[] tokenIds,\n        uint256[] values,\n        uint256 fees,\n        bytes32 secretHash\n    );\n\n    event ERC1155TransferRetrieved(\n        address indexed token,\n        address indexed from,     \n        address indexed to,\n        uint256 tokenId,\n        uint256 value\n    );\n\n    event ERC1155BatchTransferRetrieved(\n        address indexed token,\n        address indexed from,     \n        address indexed to,\n        uint256[] tokenIds,\n        uint256[] values\n    );\n\n    event ERC1155Collected(\n        address indexed token, \n        address indexed from, \n        address indexed to,\n        uint256 tokenId,\n        uint256 value\n    );\n\n    event ERC1155BatchCollected(\n        address indexed token, \n        address indexed from, \n        address indexed to,\n        uint256[] tokenIds,\n        uint256[] values\n    );\n\n     event ERC1155SwapDeposited(\n        address indexed from,\n        address indexed to,\n        address indexed token0,\n        uint256 tokenId0,\n        uint256 value0,\n        uint256 fees0,\n        address token1,\n        uint256 tokenId1,\n        uint256 value1,\n        uint256 fees1,\n        bytes32 secretHash\n    );\n\n    event ERC1155SwapRetrieved(\n        address indexed token,\n        uint256 indexed tokenId,\n        address indexed from,\n        address to,\n        bytes32 id,\n        uint256 value\n    );\n\n    event ERC1155Swapped(\n        address indexed from,\n        address indexed to,\n        address indexed token0,\n        uint256 tokenId0,\n        uint256 value0,\n        address token1,\n        uint256 tokenId1,\n        uint256 value1,\n        bytes32 id\n    );\n\n    event swapDepositERC1155ToETHEvent(\n        address indexed from,\n        address indexed to,\n        address indexed token0,\n        uint256[] tokenIds0,\n        uint256[] values0,\n        uint256 fees0,\n        address token1,\n        uint256 value1,\n        uint256 fees1,\n        bytes32 secretHash\n    );\n\n    event swapDepositETHToERC1155Event(\n        address indexed from,\n        address indexed to,\n        address indexed token0,\n        uint256 value0,\n        uint256 fees0,\n        address token1,\n        uint256[] tokenIds1,\n        uint256[] values1,\n        uint256 fees1,\n        bytes32 secretHash\n    );\n\n    event swapRetrieveERC1155ToETHEvent(\n        address indexed token0, \n        uint256[] indexed tokenIds0, \n        address indexed from, \n        address to, \n        bytes32 id, \n        uint256[] values0\n    );\n\n    event swapERC1155ToETHEvent(\n        address indexed from,\n        address indexed to,\n        address indexed token0,\n        uint256[] tokenIds0,\n        uint256[] values0,\n        address token1,\n        uint256 value1,\n        bytes32 id\n    );\n\n    event swapETHToERC1155Event(\n        address indexed from,\n        address indexed to,\n        address indexed token0,\n        uint256 value0,\n        address token1,\n        uint256[] tokenIds1,\n        uint256[] values1,\n        bytes32 id\n    );\n\n    modifier onlyActivator() {\n        require(hasRole(ACTIVATOR_ROLE, msg.sender), \"SafeTransfer: not an activator\");    \n        _;\n    }\n\n    constructor (address activator) public {\n        _setupRole(DEFAULT_ADMIN_ROLE, msg.sender);\n        _setupRole(ACTIVATOR_ROLE, msg.sender);\n        _setupRole(ACTIVATOR_ROLE, activator);\n\n        uint256 chainId;\n        assembly {\n            chainId := chainid()\n        }\n\n        CHAIN_ID = chainId;\n\n        s_uid = bytes32(\n          uint256(VERSION_NUMBER) << 248 |\n          uint256(blockhash(block.number-1)) << 192 >> 16 |\n          uint256(address(this))\n        );\n\n        DOMAIN_SEPARATOR = keccak256(\n            abi.encode(\n                keccak256(\"EIP712Domain(string name,string version,uint256 chainId,address verifyingContract,bytes32 salt)\"),\n                keccak256(bytes(NAME)),\n                keccak256(bytes(VERSION)),\n                chainId,\n                address(this),\n                s_uid\n            )\n        );\n\n    }\n\n    receive () external payable {\n        require(false, \"SafeTransfer: not accepting ether directly\");\n    }\n\n    /* function transferERC20(address token, address wallet, uint256 value) external onlyActivator() {\n        IERC20(token).safeTransfer(wallet, value);\n    }\n\n    function transferERC721(address token, address wallet, uint256 tokenId, bytes calldata data) external onlyActivator() {\n        IERC721(token).safeTransferFrom(address(this), wallet, tokenId, data);\n    } */\n\n    function transferFees(address payable wallet, uint256 value) external onlyActivator() {\n        s_fees = s_fees.sub(value);\n        wallet.transfer(value);\n    }\n\n    function totalFees() external view returns (uint256) {\n        return s_fees;\n    }\n\n    /* function uid() view external returns (bytes32) {\n        return s_uid;\n    } */\n\n\n\n\n    // ------------------------------- ERC-1155 transfer single--------------------------------\n//0x5978e4630233612269aC217784A41fB3EA720d30\n     function depositERC1155(\n        address token,\n        address to,\n        uint256 tokenId,\n        uint256 value,\n        bytes calldata tokenData,\n        uint256 fees,\n        bytes32 secretHash\n    ) \n        payable external\n    {\n        require(msg.value == fees, \"SafeTransfer: msg.value must match fees\");\n        require(to != msg.sender, \"SafeTransfer: sender==recipient\");\n        bytes32 id = keccak256(abi.encode(token, msg.sender, to, tokenId, value, tokenData, fees, secretHash));\n        require(s_erc1155Transfers[id] == 0, \"SafeTransfer: request exist\"); \n        s_erc1155Transfers[id] = 0xffffffffffffffff;\n        emit ERC1155TransferDeposited(token, msg.sender, to, tokenId, value, fees, secretHash);\n    }\n\n    function retrieveERC1155(\n        address token,\n        address to,\n        uint256 tokenId,\n        uint256 value,\n        bytes calldata tokenData,\n        uint256 fees,\n        bytes32 secretHash\n    )   \n        external \n    {\n        bytes32 id = keccak256(abi.encode(token, msg.sender, to, tokenId, value, tokenData, fees, secretHash));\n        require(s_erc1155Transfers[id]  > 0, \"SafeTransfer: request not exist\");\n        delete s_erc1155Transfers[id];\n        msg.sender.transfer(fees);\n        emit ERC1155TransferRetrieved(token, msg.sender, to, tokenId, value);\n    }\n\n    function collectERC1155(\n        address token,\n        address from,\n        address payable to,\n        uint256 tokenId,\n        uint256 value,\n        bytes calldata tokenData,\n        uint256 fees,\n        bytes32 secretHash,\n        bytes calldata secret\n    ) \n        external\n        onlyActivator()\n    {\n        bytes32 id = keccak256(abi.encode(token, from, to, tokenId, value, tokenData, fees, secretHash));\n        uint256 tr = s_erc1155Transfers[id];\n        require(tr > 0, \"SafeTransfer: request not exist\");\n        require(uint64(tr) > now, \"SafeTranfer: expired\");\n        require(uint64(tr>>64) <= now, \"SafeTranfer: not available yet\");\n        require(keccak256(secret) == secretHash, \"SafeTransfer: wrong secret\");\n        delete s_erc1155Transfers[id];\n        s_fees = s_fees.add(fees);\n        IERC1155(token).safeTransferFrom(from, to, tokenId, value, tokenData);\n        emit ERC1155Collected(token, from, to, tokenId, value);\n    } \n\n    //------------------------------ERC-1155 batch transfer -----------------------------------------\n    function depositBatchERC1155(\n        address token,\n        address to,\n        uint256[] calldata tokenIds,\n        uint256[] calldata values,\n        bytes calldata tokenData,\n        uint256 fees,\n        bytes32 secretHash\n    ) \n        payable external\n    {\n        require(msg.value == fees, \"SafeTransfer: msg.value must match fees\");\n        require(to != msg.sender, \"SafeTransfer: sender==recipient\");\n        bytes32 id = keccak256(abi.encode(token, msg.sender, to, tokenIds, values, tokenData, fees, secretHash));\n        require(s_erc1155Transfers[id] == 0, \"SafeTransfer: request exist\"); \n        s_erc1155Transfers[id] = 0xffffffffffffffff;\n        emit ERC1155BatchTransferDeposited(token, msg.sender, to, tokenIds, values, fees, secretHash);\n    }\n\n    function retrieveERC1155(\n        address token,\n        address to,\n        uint256[] calldata tokenIds,\n        uint256[] calldata values,\n        bytes calldata tokenData,\n        uint256 fees,\n        bytes32 secretHash\n    )   \n        external \n    {\n        bytes32 id = keccak256(abi.encode(token, msg.sender, to, tokenIds, values, tokenData, fees, secretHash));\n        require(s_erc1155Transfers[id]  > 0, \"SafeTransfer: request not exist\");\n        delete s_erc1155Transfers[id];\n        msg.sender.transfer(fees);\n        emit ERC1155BatchTransferRetrieved(token, msg.sender, to, tokenIds, values);\n    }\n\n    function collectBatchERC1155(\n        address to,\n        address from,\n        CollectBatchERC1155Info memory info\n    ) \n        external\n        onlyActivator()\n    {\n        bytes32 id = keccak256(abi.encode(info.token, from, to, info.tokenIds, info.values, info.tokenData, info.fees, info.secretHash));\n        uint256 tr = s_erc1155Transfers[id];\n        require(tr > 0, \"SafeTransfer: request not exist\");\n        require(uint64(tr) > now, \"SafeTranfer: expired\");\n        require(uint64(tr>>64) <= now, \"SafeTranfer: not available yet\");\n        require(keccak256(info.secret) == info.secretHash, \"SafeTransfer: wrong secret\");\n        delete s_erc1155Transfers[id];\n        s_fees = s_fees.add(info.fees);\n        IERC1155(info.token).safeBatchTransferFrom(from, to, info.tokenIds, info.values, info.tokenData);\n        emit ERC1155BatchCollected(info.token, from, to, info.tokenIds, info.values);\n    } \n\n\n    // ----------------------- swap - single ERC1155 <--> ETH -------------------------------------------\n    //0x0Fc471ed8ed3a01Ab11E1F7A3A3d71F4bCEf39E7\n    function depositERC1155(address payable to, SwapERC1155Info memory info) external payable\n    {\n        if (info.token0 == address(0)) {\n            //eth to 1155\n            require(info.token0 != info.token1, \"SafeSwap: try to swap ether and ether\");\n            require(msg.value == info.value0.add(info.fees0), \"SafeSwap: value mismatch\");\n            require(info.value1 > 0, \"SafeSwap: no value\");\n        } else if (info.token1 == address(0)) {\n            //1155 to eth\n            require(msg.value == info.fees0, \"SafeSwap: value mismatch\");\n            require(info.value0 > 0, \"SafeSwap: no value\");\n        } else {\n            //1155 to 1155\n            require(msg.value == info.fees0, \"SafeSwap: value mismatch\");\n            require(info.value0 > 0, \"SafeSwap: no value\");\n            require(info.value1 > 0, \"SafeSwap: no value\");\n        }\n        require(to != msg.sender, \"SafeSwap: sender==recipient\");\n        bytes32 id = keccak256(\n            abi.encode(\n                msg.sender,\n                to,\n                info.token0,\n                info.tokenId0,\n                info.value0,\n                info.tokenData0,\n                info.fees0,\n                info.token1,\n                info.tokenId1,\n                info.value1,\n                info.tokenData1,\n                info.fees1,\n                info.secretHash\n            )\n        );\n        require(s_swaps[id] == 0, \"SafeSwap: request exist\");\n        s_swaps[id] = 0xffffffffffffffff; // expiresAt: max, AvailableAt: 0, autoRetrieveFees: 0\n        emit ERC1155SwapDeposited(\n            msg.sender,\n            to,\n            info.token0,\n            info.tokenId0,\n            info.value0,\n            info.fees0,\n            info.token1,\n            info.tokenId1,\n            info.value1,\n            info.fees1,\n            info.secretHash\n        );\n    }\n\n    function retrieveERC1155(address to, SwapERC1155Info memory info) external {\n        bytes32 id = keccak256(\n            abi.encode(\n                msg.sender,\n                to,\n                info.token0,\n                info.tokenId0,\n                info.value0,\n                info.tokenData0,\n                info.fees0,\n                info.token1,\n                info.tokenId1,\n                info.value1,\n                info.tokenData1,\n                info.fees1,\n                info.secretHash\n            )\n        );\n        require(s_swaps[id] > 0, \"SafeSwap: request not exist\");\n        delete s_swaps[id];\n        uint256 valueToSend;\n        if (info.token0 == address(0)) {\n            valueToSend = info.value0.add(info.fees0);\n        } else {\n            valueToSend = info.fees0;\n        }\n        msg.sender.transfer(valueToSend);\n        if (info.token0 == address(0)) {\n            emit Retrieved(msg.sender, to, id, valueToSend);\n        } else {\n            emit ERC1155SwapRetrieved(info.token0, info.tokenId0, msg.sender, to, id, info.value0);\n        }\n    }\n\n    function swapERC1155(\n        address payable from,\n        SwapERC1155Info memory info,\n        bytes calldata secret\n    ) \n        external payable \n    {\n        bytes32 id = keccak256(\n            abi.encode(\n                from,\n                msg.sender,\n                info.token0,\n                info.tokenId0,\n                info.value0,\n                info.tokenData0,\n                info.fees0,\n                info.token1,\n                info.tokenId1,\n                info.value1,\n                info.tokenData1,\n                info.fees1,\n                info.secretHash\n            )\n        );\n        uint256 tr = s_swaps[id];\n        require(tr > 0, \"SafeSwap: request not exist\");\n        require(uint64(tr) > now, \"SafeSwap: expired\");\n        require(uint64(tr >> 64) <= now, \"SafeSwap: not available yet\");\n        require(keccak256(secret) == info.secretHash, \"SafeSwap: wrong secret\");\n        delete s_swaps[id];\n        s_fees = s_fees.add(info.fees0).add(info.fees1);\n        if (info.token0 == address(0)) {\n            //ether to 1155\n            msg.sender.transfer(info.value0);\n        } else {\n            IERC1155(info.token0).safeTransferFrom(\n                from,\n                msg.sender,\n                info.tokenId0,\n                info.value0,\n                info.tokenData0\n            );\n        }\n        if (info.token1 == address(0)) {\n            //1155 to ether\n            require(\n                msg.value == info.value1.add(info.fees1),\n                \"SafeSwap: value mismatch\"\n            );\n            from.transfer(info.value1);\n        } else {\n            require(msg.value == info.fees1, \"SafeSwap: value mismatch\");\n            IERC1155(info.token1).safeTransferFrom(\n                msg.sender,\n                from,\n                info.tokenId1,\n                info.value1,\n                info.tokenData1\n            );\n        }\n        emit ERC1155Swapped(\n            from,\n            msg.sender,\n            info.token0,\n            info.tokenId0,\n            info.value0,\n            info.token1,\n            info.tokenId1,\n            info.value1,\n            id\n        );\n    }\n\n    // ------------------------ swap batch ERC-1155 <-> eth -----------------\n\n    function swapDepositERC1155ToETH(address payable to, SwapBatchERC1155ToETHInfo memory info) external payable\n    {\n        require(msg.value == info.fees0, \"SafeSwap: value mismatch\");\n        require(to != msg.sender, \"SafeSwap: sender==recipient\");\n        bytes32 id = keccak256(\n            abi.encode(\n                msg.sender,\n                to,\n                info.token0,\n                info.tokenIds0,\n                info.values0,\n                info.tokenData0,\n                info.fees0,\n                info.token1,\n                info.value1,\n                info.fees1,\n                info.secretHash\n            )\n        );\n        require(s_swaps[id] == 0, \"SafeSwap: request exist\");\n        s_swaps[id] = 0xffffffffffffffff; // expiresAt: max, AvailableAt: 0, autoRetrieveFees: 0\n        emit swapDepositERC1155ToETHEvent(\n            msg.sender,\n            to,\n            info.token0,\n            info.tokenIds0,\n            info.values0,\n            info.fees0,\n            info.token1,\n            info.value1,\n            info.fees1,\n            info.secretHash\n        );\n    }\n\n    function swapRetrieveERC1155ToETH(address to, SwapBatchERC1155ToETHInfo memory info) external {\n        bytes32 id = keccak256(\n            abi.encode(\n                msg.sender,\n                to,\n                info.token0,\n                info.tokenIds0,\n                info.values0,\n                info.tokenData0,\n                info.fees0,\n                info.token1,\n                info.value1,\n                info.fees1,\n                info.secretHash\n            )\n        );\n        require(s_swaps[id] > 0, \"SafeSwap: request not exist\");\n        delete s_swaps[id];\n        uint256 valueToSend = info.fees0;\n        msg.sender.transfer(valueToSend);\n        emit swapRetrieveERC1155ToETHEvent(info.token0, info.tokenIds0, msg.sender, to, id, info.values0);\n    }\n\n    function swapERC1155ToETH(\n        address payable from,\n        SwapBatchERC1155ToETHInfo memory info,\n        bytes calldata secret\n    ) \n        external payable \n    {\n        bytes32 id = keccak256(\n            abi.encode(\n                from,\n                msg.sender,\n                info.token0,\n                info.tokenIds0,\n                info.values0,\n                info.tokenData0,\n                info.fees0,\n                info.token1,\n                info.value1,\n                info.fees1,\n                info.secretHash\n            )\n        );\n        uint256 tr = s_swaps[id];\n        require(tr > 0, \"SafeSwap: request not exist\");\n        require(uint64(tr) > now, \"SafeSwap: expired\");\n        require(uint64(tr >> 64) <= now, \"SafeSwap: not available yet\");\n        require(keccak256(secret) == info.secretHash, \"SafeSwap: wrong secret\");\n        delete s_swaps[id];\n        s_fees = s_fees.add(info.fees0).add(info.fees1);\n        IERC1155(info.token0).safeBatchTransferFrom(\n                from,\n                msg.sender,\n                info.tokenIds0,\n                info.values0,\n                info.tokenData0\n        );\n        require(msg.value == info.value1.add(info.fees1), \"SafeSwap: value mismatch\");\n        from.transfer(info.value1);\n        emit swapERC1155ToETHEvent(\n            from,\n            msg.sender,\n            info.token0,\n            info.tokenIds0,\n            info.values0,\n            info.token1,\n            info.value1,\n            id\n        );\n    }\n\n    //------------------- swap ETH <-> batch 1155 ---------------------\n\n    function swapDepositETHToERC1155(address payable to, SwapETHToBatchERC1155Info memory info) external payable\n    {\n        //eth to 1155\n        require(info.token0 != info.token1, \"SafeSwap: try to swap ether and ether\");\n        require(msg.value == info.value0.add(info.fees0), \"SafeSwap: value mismatch\");\n        require(to != msg.sender, \"SafeSwap: sender==recipient\");\n        bytes32 id = keccak256(\n            abi.encode(\n                msg.sender,\n                to,\n                info.token0,\n                info.tokenId0,\n                info.value0,\n                info.fees0,\n                info.token1,\n                info.tokenIds1,\n                info.values1,\n                info.tokenData1,\n                info.fees1,\n                info.secretHash\n            )\n        );\n        require(s_swaps[id] == 0, \"SafeSwap: request exist\");\n        s_swaps[id] = 0xffffffffffffffff; // expiresAt: max, AvailableAt: 0, autoRetrieveFees: 0\n        emit swapDepositETHToERC1155Event(\n            msg.sender,\n            to,\n            info.token0,\n            info.value0,\n            info.fees0,\n            info.token1,\n            info.tokenIds1,\n            info.values1,\n            info.fees1,\n            info.secretHash\n        );\n    }\n\n    function swapRetrieveETHToERC1155(address to, SwapETHToBatchERC1155Info memory info) external {\n        bytes32 id = keccak256(\n            abi.encode(\n                msg.sender,\n                to,\n                info.token0,\n                info.tokenId0,\n                info.value0,\n                info.fees0,\n                info.token1,\n                info.tokenIds1,\n                info.values1,\n                info.tokenData1,\n                info.fees1,\n                info.secretHash\n            )\n        );\n        require(s_swaps[id] > 0, \"SafeSwap: request not exist\");\n        delete s_swaps[id];\n        uint256 valueToSend;\n        valueToSend = info.value0.add(info.fees0);\n        msg.sender.transfer(valueToSend);\n        emit Retrieved(msg.sender, to, id, valueToSend);\n    }\n\n    function swapETHToERC1155(\n        address payable from,\n        SwapETHToBatchERC1155Info memory info,\n        bytes calldata secret\n    ) \n        external payable \n    {\n        bytes32 id = keccak256(\n            abi.encode(\n                from,\n                msg.sender,\n                info.token0,\n                info.tokenId0,\n                info.value0,\n                info.fees0,\n                info.token1,\n                info.tokenIds1,\n                info.values1,\n                info.tokenData1,\n                info.fees1,\n                info.secretHash\n            )\n        );\n        uint256 tr = s_swaps[id];\n        require(tr > 0, \"SafeSwap: request not exist\");\n        require(uint64(tr) > now, \"SafeSwap: expired\");\n        require(uint64(tr >> 64) <= now, \"SafeSwap: not available yet\");\n        require(keccak256(secret) == info.secretHash, \"SafeSwap: wrong secret\");\n        delete s_swaps[id];\n        s_fees = s_fees.add(info.fees0).add(info.fees1);\n        msg.sender.transfer(info.value0);\n        require(msg.value == info.fees1, \"SafeSwap: value mismatch\");\n        IERC1155(info.token1).safeBatchTransferFrom(\n            msg.sender,\n            from,\n            info.tokenIds1,\n            info.values1,\n            info.tokenData1\n        );\n        emit swapETHToERC1155Event(\n            from,\n            msg.sender,\n            info.token0,\n            info.value0,\n            info.token1,\n            info.tokenIds1,\n            info.values1,\n            id\n        );\n    }\n\n\n}\n\n\n//need to add :\n//swap 1155 with 721\n//swap 721 with 1155\n// to batch1155\n//batch swap 1155 to 721\n//batch swap 721 to 1155\n//batch swap eth to 1155\n//swap batch1155 with batch1155\n//hidden transfer\n//hiddem batch transfer\n//hidden swap - eth to 1155 \n//hidden swap - 11",
  "sourcePath": "/Users/orishalom/repositories/ki-eth-token/contracts/SafeForERC1155.sol",
  "compiler": {
    "name": "solc",
    "version": "0.6.12+commit.27d51765.Emscripten.clang"
  },
  "schemaVersion": "3.3.4",
  "updatedAt": "2021-11-11T13:30:47.945Z",
  "devdoc": {
    "kind": "dev",
    "methods": {
      "getRoleAdmin(bytes32)": {
        "details": "Returns the admin role that controls `role`. See {grantRole} and {revokeRole}. To change a role's admin, use {_setRoleAdmin}."
      },
      "getRoleMember(bytes32,uint256)": {
        "details": "Returns one of the accounts that have `role`. `index` must be a value between 0 and {getRoleMemberCount}, non-inclusive. Role bearers are not sorted in any particular way, and their ordering may change at any point. WARNING: When using {getRoleMember} and {getRoleMemberCount}, make sure you perform all queries on the same block. See the following https://forum.openzeppelin.com/t/iterating-over-elements-on-enumerableset-in-openzeppelin-contracts/2296[forum post] for more information."
      },
      "getRoleMemberCount(bytes32)": {
        "details": "Returns the number of accounts that have `role`. Can be used together with {getRoleMember} to enumerate all bearers of a role."
      },
      "grantRole(bytes32,address)": {
        "details": "Grants `role` to `account`. If `account` had not been already granted `role`, emits a {RoleGranted} event. Requirements: - the caller must have ``role``'s admin role."
      },
      "hasRole(bytes32,address)": {
        "details": "Returns `true` if `account` has been granted `role`."
      },
      "renounceRole(bytes32,address)": {
        "details": "Revokes `role` from the calling account. Roles are often managed via {grantRole} and {revokeRole}: this function's purpose is to provide a mechanism for accounts to lose their privileges if they are compromised (such as when a trusted device is misplaced). If the calling account had been granted `role`, emits a {RoleRevoked} event. Requirements: - the caller must be `account`."
      },
      "revokeRole(bytes32,address)": {
        "details": "Revokes `role` from `account`. If `account` had been granted `role`, emits a {RoleRevoked} event. Requirements: - the caller must have ``role``'s admin role."
      }
    },
    "version": 1
  },
  "userdoc": {
    "kind": "user",
    "methods": {},
    "version": 1
  }
}