{
  "contractName": "SafeTransfer",
  "abi": [
    {
      "inputs": [
        {
          "internalType": "address",
          "name": "activator",
          "type": "address"
        }
      ],
      "stateMutability": "nonpayable",
      "type": "constructor"
    },
    {
      "anonymous": false,
      "inputs": [
        {
          "indexed": true,
          "internalType": "address",
          "name": "from",
          "type": "address"
        },
        {
          "indexed": true,
          "internalType": "address",
          "name": "to",
          "type": "address"
        },
        {
          "indexed": true,
          "internalType": "bytes32",
          "name": "id",
          "type": "bytes32"
        },
        {
          "indexed": false,
          "internalType": "uint256",
          "name": "value",
          "type": "uint256"
        }
      ],
      "name": "Collected",
      "type": "event"
    },
    {
      "anonymous": false,
      "inputs": [
        {
          "indexed": true,
          "internalType": "address",
          "name": "from",
          "type": "address"
        },
        {
          "indexed": true,
          "internalType": "address",
          "name": "to",
          "type": "address"
        },
        {
          "indexed": false,
          "internalType": "uint256",
          "name": "value",
          "type": "uint256"
        },
        {
          "indexed": false,
          "internalType": "uint256",
          "name": "fees",
          "type": "uint256"
        },
        {
          "indexed": false,
          "internalType": "bytes32",
          "name": "secretHash",
          "type": "bytes32"
        }
      ],
      "name": "Deposited",
      "type": "event"
    },
    {
      "anonymous": false,
      "inputs": [
        {
          "indexed": true,
          "internalType": "address",
          "name": "token",
          "type": "address"
        },
        {
          "indexed": true,
          "internalType": "address",
          "name": "from",
          "type": "address"
        },
        {
          "indexed": true,
          "internalType": "address",
          "name": "to",
          "type": "address"
        },
        {
          "indexed": false,
          "internalType": "bytes32",
          "name": "id",
          "type": "bytes32"
        },
        {
          "indexed": false,
          "internalType": "uint256",
          "name": "value",
          "type": "uint256"
        }
      ],
      "name": "ERC20Collected",
      "type": "event"
    },
    {
      "anonymous": false,
      "inputs": [
        {
          "indexed": true,
          "internalType": "address",
          "name": "token",
          "type": "address"
        },
        {
          "indexed": true,
          "internalType": "address",
          "name": "from",
          "type": "address"
        },
        {
          "indexed": true,
          "internalType": "address",
          "name": "to",
          "type": "address"
        },
        {
          "indexed": false,
          "internalType": "uint256",
          "name": "value",
          "type": "uint256"
        },
        {
          "indexed": false,
          "internalType": "uint256",
          "name": "fees",
          "type": "uint256"
        },
        {
          "indexed": false,
          "internalType": "bytes32",
          "name": "secretHash",
          "type": "bytes32"
        }
      ],
      "name": "ERC20Deposited",
      "type": "event"
    },
    {
      "anonymous": false,
      "inputs": [
        {
          "indexed": true,
          "internalType": "address",
          "name": "token",
          "type": "address"
        },
        {
          "indexed": true,
          "internalType": "address",
          "name": "from",
          "type": "address"
        },
        {
          "indexed": true,
          "internalType": "address",
          "name": "to",
          "type": "address"
        },
        {
          "indexed": false,
          "internalType": "bytes32",
          "name": "id",
          "type": "bytes32"
        },
        {
          "indexed": false,
          "internalType": "uint256",
          "name": "value",
          "type": "uint256"
        }
      ],
      "name": "ERC20Retrieved",
      "type": "event"
    },
    {
      "anonymous": false,
      "inputs": [
        {
          "indexed": true,
          "internalType": "address",
          "name": "token",
          "type": "address"
        },
        {
          "indexed": true,
          "internalType": "address",
          "name": "from",
          "type": "address"
        },
        {
          "indexed": true,
          "internalType": "address",
          "name": "to",
          "type": "address"
        },
        {
          "indexed": false,
          "internalType": "uint256",
          "name": "value",
          "type": "uint256"
        },
        {
          "indexed": false,
          "internalType": "uint256",
          "name": "fees",
          "type": "uint256"
        },
        {
          "indexed": false,
          "internalType": "bytes32",
          "name": "secretHash",
          "type": "bytes32"
        },
        {
          "indexed": false,
          "internalType": "uint64",
          "name": "availableAt",
          "type": "uint64"
        },
        {
          "indexed": false,
          "internalType": "uint64",
          "name": "expiresAt",
          "type": "uint64"
        },
        {
          "indexed": false,
          "internalType": "uint128",
          "name": "autoRetrieveFees",
          "type": "uint128"
        }
      ],
      "name": "ERC20TimedDeposited",
      "type": "event"
    },
    {
      "anonymous": false,
      "inputs": [
        {
          "indexed": true,
          "internalType": "address",
          "name": "token",
          "type": "address"
        },
        {
          "indexed": true,
          "internalType": "address",
          "name": "from",
          "type": "address"
        },
        {
          "indexed": true,
          "internalType": "address",
          "name": "to",
          "type": "address"
        },
        {
          "indexed": false,
          "internalType": "bytes32",
          "name": "id",
          "type": "bytes32"
        },
        {
          "indexed": false,
          "internalType": "uint256",
          "name": "tokenId",
          "type": "uint256"
        }
      ],
      "name": "ERC721Collected",
      "type": "event"
    },
    {
      "anonymous": false,
      "inputs": [
        {
          "indexed": true,
          "internalType": "address",
          "name": "token",
          "type": "address"
        },
        {
          "indexed": true,
          "internalType": "address",
          "name": "from",
          "type": "address"
        },
        {
          "indexed": true,
          "internalType": "address",
          "name": "to",
          "type": "address"
        },
        {
          "indexed": false,
          "internalType": "uint256",
          "name": "tokenId",
          "type": "uint256"
        },
        {
          "indexed": false,
          "internalType": "uint256",
          "name": "fees",
          "type": "uint256"
        },
        {
          "indexed": false,
          "internalType": "bytes32",
          "name": "secretHash",
          "type": "bytes32"
        }
      ],
      "name": "ERC721Deposited",
      "type": "event"
    },
    {
      "anonymous": false,
      "inputs": [
        {
          "indexed": true,
          "internalType": "address",
          "name": "token",
          "type": "address"
        },
        {
          "indexed": true,
          "internalType": "address",
          "name": "from",
          "type": "address"
        },
        {
          "indexed": true,
          "internalType": "address",
          "name": "to",
          "type": "address"
        },
        {
          "indexed": false,
          "internalType": "bytes32",
          "name": "id",
          "type": "bytes32"
        },
        {
          "indexed": false,
          "internalType": "uint256",
          "name": "tokenId",
          "type": "uint256"
        }
      ],
      "name": "ERC721Retrieved",
      "type": "event"
    },
    {
      "anonymous": false,
      "inputs": [
        {
          "indexed": true,
          "internalType": "address",
          "name": "token",
          "type": "address"
        },
        {
          "indexed": true,
          "internalType": "address",
          "name": "from",
          "type": "address"
        },
        {
          "indexed": true,
          "internalType": "address",
          "name": "to",
          "type": "address"
        },
        {
          "indexed": false,
          "internalType": "uint256",
          "name": "tokenId",
          "type": "uint256"
        },
        {
          "indexed": false,
          "internalType": "uint256",
          "name": "fees",
          "type": "uint256"
        },
        {
          "indexed": false,
          "internalType": "bytes32",
          "name": "secretHash",
          "type": "bytes32"
        },
        {
          "indexed": false,
          "internalType": "uint64",
          "name": "availableAt",
          "type": "uint64"
        },
        {
          "indexed": false,
          "internalType": "uint64",
          "name": "expiresAt",
          "type": "uint64"
        },
        {
          "indexed": false,
          "internalType": "uint128",
          "name": "autoRetrieveFees",
          "type": "uint128"
        }
      ],
      "name": "ERC721TimedDeposited",
      "type": "event"
    },
    {
      "anonymous": false,
      "inputs": [
        {
          "indexed": true,
          "internalType": "address",
          "name": "from",
          "type": "address"
        },
        {
          "indexed": true,
          "internalType": "address",
          "name": "to",
          "type": "address"
        },
        {
          "indexed": true,
          "internalType": "bytes32",
          "name": "id1",
          "type": "bytes32"
        },
        {
          "indexed": false,
          "internalType": "uint256",
          "name": "value",
          "type": "uint256"
        }
      ],
      "name": "HCollected",
      "type": "event"
    },
    {
      "anonymous": false,
      "inputs": [
        {
          "indexed": true,
          "internalType": "address",
          "name": "from",
          "type": "address"
        },
        {
          "indexed": false,
          "internalType": "uint256",
          "name": "value",
          "type": "uint256"
        },
        {
          "indexed": true,
          "internalType": "bytes32",
          "name": "id1",
          "type": "bytes32"
        }
      ],
      "name": "HDeposited",
      "type": "event"
    },
    {
      "anonymous": false,
      "inputs": [
        {
          "indexed": true,
          "internalType": "address",
          "name": "token",
          "type": "address"
        },
        {
          "indexed": true,
          "internalType": "address",
          "name": "from",
          "type": "address"
        },
        {
          "indexed": true,
          "internalType": "address",
          "name": "to",
          "type": "address"
        },
        {
          "indexed": false,
          "internalType": "bytes32",
          "name": "id1",
          "type": "bytes32"
        },
        {
          "indexed": false,
          "internalType": "uint256",
          "name": "value",
          "type": "uint256"
        }
      ],
      "name": "HERC20Collected",
      "type": "event"
    },
    {
      "anonymous": false,
      "inputs": [
        {
          "indexed": true,
          "internalType": "address",
          "name": "token",
          "type": "address"
        },
        {
          "indexed": true,
          "internalType": "address",
          "name": "from",
          "type": "address"
        },
        {
          "indexed": true,
          "internalType": "address",
          "name": "to",
          "type": "address"
        },
        {
          "indexed": false,
          "internalType": "bytes32",
          "name": "id1",
          "type": "bytes32"
        },
        {
          "indexed": false,
          "internalType": "uint256",
          "name": "tokenId",
          "type": "uint256"
        }
      ],
      "name": "HERC721Collected",
      "type": "event"
    },
    {
      "anonymous": false,
      "inputs": [
        {
          "indexed": true,
          "internalType": "address",
          "name": "from",
          "type": "address"
        },
        {
          "indexed": true,
          "internalType": "bytes32",
          "name": "id1",
          "type": "bytes32"
        },
        {
          "indexed": false,
          "internalType": "uint256",
          "name": "value",
          "type": "uint256"
        }
      ],
      "name": "HRetrieved",
      "type": "event"
    },
    {
      "anonymous": false,
      "inputs": [
        {
          "indexed": true,
          "internalType": "address",
          "name": "from",
          "type": "address"
        },
        {
          "indexed": false,
          "internalType": "uint256",
          "name": "value",
          "type": "uint256"
        },
        {
          "indexed": true,
          "internalType": "bytes32",
          "name": "id1",
          "type": "bytes32"
        },
        {
          "indexed": false,
          "internalType": "uint64",
          "name": "availableAt",
          "type": "uint64"
        },
        {
          "indexed": false,
          "internalType": "uint64",
          "name": "expiresAt",
          "type": "uint64"
        },
        {
          "indexed": false,
          "internalType": "uint128",
          "name": "autoRetrieveFees",
          "type": "uint128"
        }
      ],
      "name": "HTimedDeposited",
      "type": "event"
    },
    {
      "anonymous": false,
      "inputs": [
        {
          "indexed": true,
          "internalType": "address",
          "name": "from",
          "type": "address"
        },
        {
          "indexed": true,
          "internalType": "address",
          "name": "to",
          "type": "address"
        },
        {
          "indexed": true,
          "internalType": "bytes32",
          "name": "id",
          "type": "bytes32"
        },
        {
          "indexed": false,
          "internalType": "uint256",
          "name": "value",
          "type": "uint256"
        }
      ],
      "name": "Retrieved",
      "type": "event"
    },
    {
      "anonymous": false,
      "inputs": [
        {
          "indexed": true,
          "internalType": "bytes32",
          "name": "role",
          "type": "bytes32"
        },
        {
          "indexed": true,
          "internalType": "bytes32",
          "name": "previousAdminRole",
          "type": "bytes32"
        },
        {
          "indexed": true,
          "internalType": "bytes32",
          "name": "newAdminRole",
          "type": "bytes32"
        }
      ],
      "name": "RoleAdminChanged",
      "type": "event"
    },
    {
      "anonymous": false,
      "inputs": [
        {
          "indexed": true,
          "internalType": "bytes32",
          "name": "role",
          "type": "bytes32"
        },
        {
          "indexed": true,
          "internalType": "address",
          "name": "account",
          "type": "address"
        },
        {
          "indexed": true,
          "internalType": "address",
          "name": "sender",
          "type": "address"
        }
      ],
      "name": "RoleGranted",
      "type": "event"
    },
    {
      "anonymous": false,
      "inputs": [
        {
          "indexed": true,
          "internalType": "bytes32",
          "name": "role",
          "type": "bytes32"
        },
        {
          "indexed": true,
          "internalType": "address",
          "name": "account",
          "type": "address"
        },
        {
          "indexed": true,
          "internalType": "address",
          "name": "sender",
          "type": "address"
        }
      ],
      "name": "RoleRevoked",
      "type": "event"
    },
    {
      "anonymous": false,
      "inputs": [
        {
          "indexed": true,
          "internalType": "address",
          "name": "from",
          "type": "address"
        },
        {
          "indexed": true,
          "internalType": "address",
          "name": "to",
          "type": "address"
        },
        {
          "indexed": false,
          "internalType": "uint256",
          "name": "value",
          "type": "uint256"
        },
        {
          "indexed": false,
          "internalType": "uint256",
          "name": "fees",
          "type": "uint256"
        },
        {
          "indexed": false,
          "internalType": "bytes32",
          "name": "secretHash",
          "type": "bytes32"
        },
        {
          "indexed": false,
          "internalType": "uint64",
          "name": "availableAt",
          "type": "uint64"
        },
        {
          "indexed": false,
          "internalType": "uint64",
          "name": "expiresAt",
          "type": "uint64"
        },
        {
          "indexed": false,
          "internalType": "uint128",
          "name": "autoRetrieveFees",
          "type": "uint128"
        }
      ],
      "name": "TimedDeposited",
      "type": "event"
    },
    {
      "inputs": [],
      "name": "ACTIVATOR_ROLE",
      "outputs": [
        {
          "internalType": "bytes32",
          "name": "",
          "type": "bytes32"
        }
      ],
      "stateMutability": "view",
      "type": "function"
    },
    {
      "inputs": [],
      "name": "CHAIN_ID",
      "outputs": [
        {
          "internalType": "uint256",
          "name": "",
          "type": "uint256"
        }
      ],
      "stateMutability": "view",
      "type": "function"
    },
    {
      "inputs": [],
      "name": "DEFAULT_ADMIN_ROLE",
      "outputs": [
        {
          "internalType": "bytes32",
          "name": "",
          "type": "bytes32"
        }
      ],
      "stateMutability": "view",
      "type": "function"
    },
    {
      "inputs": [],
      "name": "DOMAIN_SEPARATOR",
      "outputs": [
        {
          "internalType": "bytes32",
          "name": "",
          "type": "bytes32"
        }
      ],
      "stateMutability": "view",
      "type": "function"
    },
    {
      "inputs": [],
      "name": "HIDDEN_COLLECT_TYPEHASH",
      "outputs": [
        {
          "internalType": "bytes32",
          "name": "",
          "type": "bytes32"
        }
      ],
      "stateMutability": "view",
      "type": "function"
    },
    {
      "inputs": [],
      "name": "HIDDEN_ERC20_COLLECT_TYPEHASH",
      "outputs": [
        {
          "internalType": "bytes32",
          "name": "",
          "type": "bytes32"
        }
      ],
      "stateMutability": "view",
      "type": "function"
    },
    {
      "inputs": [],
      "name": "HIDDEN_ERC721_COLLECT_TYPEHASH",
      "outputs": [
        {
          "internalType": "bytes32",
          "name": "",
          "type": "bytes32"
        }
      ],
      "stateMutability": "view",
      "type": "function"
    },
    {
      "inputs": [],
      "name": "NAME",
      "outputs": [
        {
          "internalType": "string",
          "name": "",
          "type": "string"
        }
      ],
      "stateMutability": "view",
      "type": "function"
    },
    {
      "inputs": [],
      "name": "VERSION",
      "outputs": [
        {
          "internalType": "string",
          "name": "",
          "type": "string"
        }
      ],
      "stateMutability": "view",
      "type": "function"
    },
    {
      "inputs": [],
      "name": "VERSION_NUMBER",
      "outputs": [
        {
          "internalType": "uint8",
          "name": "",
          "type": "uint8"
        }
      ],
      "stateMutability": "view",
      "type": "function"
    },
    {
      "inputs": [
        {
          "internalType": "bytes32",
          "name": "role",
          "type": "bytes32"
        }
      ],
      "name": "getRoleAdmin",
      "outputs": [
        {
          "internalType": "bytes32",
          "name": "",
          "type": "bytes32"
        }
      ],
      "stateMutability": "view",
      "type": "function"
    },
    {
      "inputs": [
        {
          "internalType": "bytes32",
          "name": "role",
          "type": "bytes32"
        },
        {
          "internalType": "uint256",
          "name": "index",
          "type": "uint256"
        }
      ],
      "name": "getRoleMember",
      "outputs": [
        {
          "internalType": "address",
          "name": "",
          "type": "address"
        }
      ],
      "stateMutability": "view",
      "type": "function"
    },
    {
      "inputs": [
        {
          "internalType": "bytes32",
          "name": "role",
          "type": "bytes32"
        }
      ],
      "name": "getRoleMemberCount",
      "outputs": [
        {
          "internalType": "uint256",
          "name": "",
          "type": "uint256"
        }
      ],
      "stateMutability": "view",
      "type": "function"
    },
    {
      "inputs": [
        {
          "internalType": "bytes32",
          "name": "role",
          "type": "bytes32"
        },
        {
          "internalType": "address",
          "name": "account",
          "type": "address"
        }
      ],
      "name": "grantRole",
      "outputs": [],
      "stateMutability": "nonpayable",
      "type": "function"
    },
    {
      "inputs": [
        {
          "internalType": "bytes32",
          "name": "role",
          "type": "bytes32"
        },
        {
          "internalType": "address",
          "name": "account",
          "type": "address"
        }
      ],
      "name": "hasRole",
      "outputs": [
        {
          "internalType": "bool",
          "name": "",
          "type": "bool"
        }
      ],
      "stateMutability": "view",
      "type": "function"
    },
    {
      "inputs": [
        {
          "internalType": "bytes32",
          "name": "role",
          "type": "bytes32"
        },
        {
          "internalType": "address",
          "name": "account",
          "type": "address"
        }
      ],
      "name": "renounceRole",
      "outputs": [],
      "stateMutability": "nonpayable",
      "type": "function"
    },
    {
      "inputs": [
        {
          "internalType": "bytes32",
          "name": "role",
          "type": "bytes32"
        },
        {
          "internalType": "address",
          "name": "account",
          "type": "address"
        }
      ],
      "name": "revokeRole",
      "outputs": [],
      "stateMutability": "nonpayable",
      "type": "function"
    },
    {
      "stateMutability": "payable",
      "type": "receive"
    },
    {
      "inputs": [
        {
          "internalType": "address",
          "name": "token",
          "type": "address"
        },
        {
          "internalType": "address",
          "name": "wallet",
          "type": "address"
        },
        {
          "internalType": "uint256",
          "name": "value",
          "type": "uint256"
        }
      ],
      "name": "transferERC20",
      "outputs": [],
      "stateMutability": "nonpayable",
      "type": "function"
    },
    {
      "inputs": [
        {
          "internalType": "address",
          "name": "token",
          "type": "address"
        },
        {
          "internalType": "address",
          "name": "wallet",
          "type": "address"
        },
        {
          "internalType": "uint256",
          "name": "tokenId",
          "type": "uint256"
        },
        {
          "internalType": "bytes",
          "name": "data",
          "type": "bytes"
        }
      ],
      "name": "transferERC721",
      "outputs": [],
      "stateMutability": "nonpayable",
      "type": "function"
    },
    {
      "inputs": [
        {
          "internalType": "address payable",
          "name": "wallet",
          "type": "address"
        },
        {
          "internalType": "uint256",
          "name": "value",
          "type": "uint256"
        }
      ],
      "name": "transferFees",
      "outputs": [],
      "stateMutability": "nonpayable",
      "type": "function"
    },
    {
      "inputs": [],
      "name": "totalFees",
      "outputs": [
        {
          "internalType": "uint256",
          "name": "",
          "type": "uint256"
        }
      ],
      "stateMutability": "view",
      "type": "function"
    },
    {
      "inputs": [],
      "name": "uid",
      "outputs": [
        {
          "internalType": "bytes32",
          "name": "",
          "type": "bytes32"
        }
      ],
      "stateMutability": "view",
      "type": "function"
    },
    {
      "inputs": [
        {
          "internalType": "address payable",
          "name": "to",
          "type": "address"
        },
        {
          "internalType": "uint256",
          "name": "value",
          "type": "uint256"
        },
        {
          "internalType": "uint256",
          "name": "fees",
          "type": "uint256"
        },
        {
          "internalType": "bytes32",
          "name": "secretHash",
          "type": "bytes32"
        }
      ],
      "name": "deposit",
      "outputs": [],
      "stateMutability": "payable",
      "type": "function"
    },
    {
      "inputs": [
        {
          "internalType": "address payable",
          "name": "to",
          "type": "address"
        },
        {
          "internalType": "uint256",
          "name": "value",
          "type": "uint256"
        },
        {
          "internalType": "uint256",
          "name": "fees",
          "type": "uint256"
        },
        {
          "internalType": "bytes32",
          "name": "secretHash",
          "type": "bytes32"
        },
        {
          "internalType": "uint64",
          "name": "availableAt",
          "type": "uint64"
        },
        {
          "internalType": "uint64",
          "name": "expiresAt",
          "type": "uint64"
        },
        {
          "internalType": "uint128",
          "name": "autoRetrieveFees",
          "type": "uint128"
        }
      ],
      "name": "timedDeposit",
      "outputs": [],
      "stateMutability": "payable",
      "type": "function"
    },
    {
      "inputs": [
        {
          "internalType": "address payable",
          "name": "to",
          "type": "address"
        },
        {
          "internalType": "uint256",
          "name": "value",
          "type": "uint256"
        },
        {
          "internalType": "uint256",
          "name": "fees",
          "type": "uint256"
        },
        {
          "internalType": "bytes32",
          "name": "secretHash",
          "type": "bytes32"
        }
      ],
      "name": "retrieve",
      "outputs": [],
      "stateMutability": "nonpayable",
      "type": "function"
    },
    {
      "inputs": [
        {
          "internalType": "address",
          "name": "from",
          "type": "address"
        },
        {
          "internalType": "address payable",
          "name": "to",
          "type": "address"
        },
        {
          "internalType": "uint256",
          "name": "value",
          "type": "uint256"
        },
        {
          "internalType": "uint256",
          "name": "fees",
          "type": "uint256"
        },
        {
          "internalType": "bytes32",
          "name": "secretHash",
          "type": "bytes32"
        },
        {
          "internalType": "bytes",
          "name": "secret",
          "type": "bytes"
        }
      ],
      "name": "collect",
      "outputs": [],
      "stateMutability": "nonpayable",
      "type": "function"
    },
    {
      "inputs": [
        {
          "internalType": "address payable",
          "name": "from",
          "type": "address"
        },
        {
          "internalType": "address",
          "name": "to",
          "type": "address"
        },
        {
          "internalType": "uint256",
          "name": "value",
          "type": "uint256"
        },
        {
          "internalType": "uint256",
          "name": "fees",
          "type": "uint256"
        },
        {
          "internalType": "bytes32",
          "name": "secretHash",
          "type": "bytes32"
        }
      ],
      "name": "autoRetrieve",
      "outputs": [],
      "stateMutability": "nonpayable",
      "type": "function"
    },
    {
      "inputs": [
        {
          "internalType": "address",
          "name": "token",
          "type": "address"
        },
        {
          "internalType": "string",
          "name": "tokenSymbol",
          "type": "string"
        },
        {
          "internalType": "address",
          "name": "to",
          "type": "address"
        },
        {
          "internalType": "uint256",
          "name": "value",
          "type": "uint256"
        },
        {
          "internalType": "uint256",
          "name": "fees",
          "type": "uint256"
        },
        {
          "internalType": "bytes32",
          "name": "secretHash",
          "type": "bytes32"
        }
      ],
      "name": "depositERC20",
      "outputs": [],
      "stateMutability": "payable",
      "type": "function"
    },
    {
      "inputs": [
        {
          "internalType": "address",
          "name": "token",
          "type": "address"
        },
        {
          "internalType": "string",
          "name": "tokenSymbol",
          "type": "string"
        },
        {
          "internalType": "address",
          "name": "to",
          "type": "address"
        },
        {
          "internalType": "uint256",
          "name": "value",
          "type": "uint256"
        },
        {
          "internalType": "uint256",
          "name": "fees",
          "type": "uint256"
        },
        {
          "internalType": "bytes32",
          "name": "secretHash",
          "type": "bytes32"
        },
        {
          "internalType": "uint64",
          "name": "availableAt",
          "type": "uint64"
        },
        {
          "internalType": "uint64",
          "name": "expiresAt",
          "type": "uint64"
        },
        {
          "internalType": "uint128",
          "name": "autoRetrieveFees",
          "type": "uint128"
        }
      ],
      "name": "timedDepositERC20",
      "outputs": [],
      "stateMutability": "payable",
      "type": "function"
    },
    {
      "inputs": [
        {
          "internalType": "address",
          "name": "token",
          "type": "address"
        },
        {
          "internalType": "string",
          "name": "tokenSymbol",
          "type": "string"
        },
        {
          "internalType": "address",
          "name": "to",
          "type": "address"
        },
        {
          "internalType": "uint256",
          "name": "value",
          "type": "uint256"
        },
        {
          "internalType": "uint256",
          "name": "fees",
          "type": "uint256"
        },
        {
          "internalType": "bytes32",
          "name": "secretHash",
          "type": "bytes32"
        }
      ],
      "name": "retrieveERC20",
      "outputs": [],
      "stateMutability": "nonpayable",
      "type": "function"
    },
    {
      "inputs": [
        {
          "internalType": "address",
          "name": "token",
          "type": "address"
        },
        {
          "internalType": "string",
          "name": "tokenSymbol",
          "type": "string"
        },
        {
          "internalType": "address",
          "name": "from",
          "type": "address"
        },
        {
          "internalType": "address payable",
          "name": "to",
          "type": "address"
        },
        {
          "internalType": "uint256",
          "name": "value",
          "type": "uint256"
        },
        {
          "internalType": "uint256",
          "name": "fees",
          "type": "uint256"
        },
        {
          "internalType": "bytes32",
          "name": "secretHash",
          "type": "bytes32"
        },
        {
          "internalType": "bytes",
          "name": "secret",
          "type": "bytes"
        }
      ],
      "name": "collectERC20",
      "outputs": [],
      "stateMutability": "nonpayable",
      "type": "function"
    },
    {
      "inputs": [
        {
          "internalType": "address",
          "name": "token",
          "type": "address"
        },
        {
          "internalType": "string",
          "name": "tokenSymbol",
          "type": "string"
        },
        {
          "internalType": "address payable",
          "name": "from",
          "type": "address"
        },
        {
          "internalType": "address",
          "name": "to",
          "type": "address"
        },
        {
          "internalType": "uint256",
          "name": "value",
          "type": "uint256"
        },
        {
          "internalType": "uint256",
          "name": "fees",
          "type": "uint256"
        },
        {
          "internalType": "bytes32",
          "name": "secretHash",
          "type": "bytes32"
        }
      ],
      "name": "autoRetrieveERC20",
      "outputs": [],
      "stateMutability": "nonpayable",
      "type": "function"
    },
    {
      "inputs": [
        {
          "internalType": "address",
          "name": "token",
          "type": "address"
        },
        {
          "internalType": "string",
          "name": "tokenSymbol",
          "type": "string"
        },
        {
          "internalType": "address",
          "name": "to",
          "type": "address"
        },
        {
          "internalType": "uint256",
          "name": "tokenId",
          "type": "uint256"
        },
        {
          "internalType": "bytes",
          "name": "tokenData",
          "type": "bytes"
        },
        {
          "internalType": "uint256",
          "name": "fees",
          "type": "uint256"
        },
        {
          "internalType": "bytes32",
          "name": "secretHash",
          "type": "bytes32"
        }
      ],
      "name": "depositERC721",
      "outputs": [],
      "stateMutability": "payable",
      "type": "function"
    },
    {
      "inputs": [
        {
          "internalType": "address",
          "name": "token",
          "type": "address"
        },
        {
          "internalType": "string",
          "name": "tokenSymbol",
          "type": "string"
        },
        {
          "internalType": "address",
          "name": "to",
          "type": "address"
        },
        {
          "internalType": "uint256",
          "name": "tokenId",
          "type": "uint256"
        },
        {
          "internalType": "bytes",
          "name": "tokenData",
          "type": "bytes"
        },
        {
          "internalType": "uint256",
          "name": "fees",
          "type": "uint256"
        },
        {
          "internalType": "bytes32",
          "name": "secretHash",
          "type": "bytes32"
        },
        {
          "internalType": "uint64",
          "name": "availableAt",
          "type": "uint64"
        },
        {
          "internalType": "uint64",
          "name": "expiresAt",
          "type": "uint64"
        },
        {
          "internalType": "uint128",
          "name": "autoRetrieveFees",
          "type": "uint128"
        }
      ],
      "name": "timedDepositERC721",
      "outputs": [],
      "stateMutability": "payable",
      "type": "function"
    },
    {
      "inputs": [
        {
          "internalType": "address",
          "name": "token",
          "type": "address"
        },
        {
          "internalType": "string",
          "name": "tokenSymbol",
          "type": "string"
        },
        {
          "internalType": "address",
          "name": "to",
          "type": "address"
        },
        {
          "internalType": "uint256",
          "name": "tokenId",
          "type": "uint256"
        },
        {
          "internalType": "bytes",
          "name": "tokenData",
          "type": "bytes"
        },
        {
          "internalType": "uint256",
          "name": "fees",
          "type": "uint256"
        },
        {
          "internalType": "bytes32",
          "name": "secretHash",
          "type": "bytes32"
        }
      ],
      "name": "retrieveERC721",
      "outputs": [],
      "stateMutability": "nonpayable",
      "type": "function"
    },
    {
      "inputs": [
        {
          "internalType": "address",
          "name": "token",
          "type": "address"
        },
        {
          "internalType": "string",
          "name": "tokenSymbol",
          "type": "string"
        },
        {
          "internalType": "address",
          "name": "from",
          "type": "address"
        },
        {
          "internalType": "address payable",
          "name": "to",
          "type": "address"
        },
        {
          "internalType": "uint256",
          "name": "tokenId",
          "type": "uint256"
        },
        {
          "internalType": "bytes",
          "name": "tokenData",
          "type": "bytes"
        },
        {
          "internalType": "uint256",
          "name": "fees",
          "type": "uint256"
        },
        {
          "internalType": "bytes32",
          "name": "secretHash",
          "type": "bytes32"
        },
        {
          "internalType": "bytes",
          "name": "secret",
          "type": "bytes"
        }
      ],
      "name": "collectERC721",
      "outputs": [],
      "stateMutability": "nonpayable",
      "type": "function"
    },
    {
      "inputs": [
        {
          "internalType": "address",
          "name": "token",
          "type": "address"
        },
        {
          "internalType": "string",
          "name": "tokenSymbol",
          "type": "string"
        },
        {
          "internalType": "address payable",
          "name": "from",
          "type": "address"
        },
        {
          "internalType": "address",
          "name": "to",
          "type": "address"
        },
        {
          "internalType": "uint256",
          "name": "tokenId",
          "type": "uint256"
        },
        {
          "internalType": "bytes",
          "name": "tokenData",
          "type": "bytes"
        },
        {
          "internalType": "uint256",
          "name": "fees",
          "type": "uint256"
        },
        {
          "internalType": "bytes32",
          "name": "secretHash",
          "type": "bytes32"
        }
      ],
      "name": "autoRetrieveERC721",
      "outputs": [],
      "stateMutability": "nonpayable",
      "type": "function"
    },
    {
      "inputs": [
        {
          "internalType": "bytes32",
          "name": "id1",
          "type": "bytes32"
        }
      ],
      "name": "hiddenDeposit",
      "outputs": [],
      "stateMutability": "payable",
      "type": "function"
    },
    {
      "inputs": [
        {
          "internalType": "bytes32",
          "name": "id1",
          "type": "bytes32"
        },
        {
          "internalType": "uint64",
          "name": "availableAt",
          "type": "uint64"
        },
        {
          "internalType": "uint64",
          "name": "expiresAt",
          "type": "uint64"
        },
        {
          "internalType": "uint128",
          "name": "autoRetrieveFees",
          "type": "uint128"
        }
      ],
      "name": "hiddenTimedDeposit",
      "outputs": [],
      "stateMutability": "payable",
      "type": "function"
    },
    {
      "inputs": [
        {
          "internalType": "bytes32",
          "name": "id1",
          "type": "bytes32"
        },
        {
          "internalType": "uint256",
          "name": "value",
          "type": "uint256"
        }
      ],
      "name": "hiddenRetrieve",
      "outputs": [],
      "stateMutability": "nonpayable",
      "type": "function"
    },
    {
      "inputs": [
        {
          "internalType": "address",
          "name": "from",
          "type": "address"
        },
        {
          "internalType": "address payable",
          "name": "to",
          "type": "address"
        },
        {
          "internalType": "uint256",
          "name": "value",
          "type": "uint256"
        },
        {
          "internalType": "uint256",
          "name": "fees",
          "type": "uint256"
        },
        {
          "internalType": "bytes32",
          "name": "secretHash",
          "type": "bytes32"
        },
        {
          "internalType": "bytes",
          "name": "secret",
          "type": "bytes"
        },
        {
          "internalType": "uint8",
          "name": "v",
          "type": "uint8"
        },
        {
          "internalType": "bytes32",
          "name": "r",
          "type": "bytes32"
        },
        {
          "internalType": "bytes32",
          "name": "s",
          "type": "bytes32"
        }
      ],
      "name": "hiddenCollect",
      "outputs": [],
      "stateMutability": "nonpayable",
      "type": "function"
    },
    {
      "inputs": [
        {
          "internalType": "address",
          "name": "from",
          "type": "address"
        },
        {
          "internalType": "address",
          "name": "to",
          "type": "address"
        },
        {
          "internalType": "address",
          "name": "token",
          "type": "address"
        },
        {
          "internalType": "string",
          "name": "tokenSymbol",
          "type": "string"
        },
        {
          "internalType": "uint256",
          "name": "value",
          "type": "uint256"
        },
        {
          "internalType": "uint256",
          "name": "fees",
          "type": "uint256"
        },
        {
          "internalType": "bytes32",
          "name": "secretHash",
          "type": "bytes32"
        },
        {
          "internalType": "bytes",
          "name": "secret",
          "type": "bytes"
        },
        {
          "internalType": "uint8",
          "name": "v",
          "type": "uint8"
        },
        {
          "internalType": "bytes32",
          "name": "r",
          "type": "bytes32"
        },
        {
          "internalType": "bytes32",
          "name": "s",
          "type": "bytes32"
        }
      ],
      "name": "hiddenCollectERC20",
      "outputs": [],
      "stateMutability": "nonpayable",
      "type": "function"
    },
    {
      "inputs": [
        {
          "internalType": "address",
          "name": "from",
          "type": "address"
        },
        {
          "internalType": "address",
          "name": "to",
          "type": "address"
        },
        {
          "internalType": "address",
          "name": "token",
          "type": "address"
        },
        {
          "internalType": "string",
          "name": "tokenSymbol",
          "type": "string"
        },
        {
          "internalType": "uint256",
          "name": "tokenId",
          "type": "uint256"
        },
        {
          "internalType": "bytes",
          "name": "tokenData",
          "type": "bytes"
        },
        {
          "internalType": "uint256",
          "name": "fees",
          "type": "uint256"
        },
        {
          "internalType": "bytes32",
          "name": "secretHash",
          "type": "bytes32"
        },
        {
          "internalType": "bytes",
          "name": "secret",
          "type": "bytes"
        },
        {
          "internalType": "uint8",
          "name": "v",
          "type": "uint8"
        },
        {
          "internalType": "bytes32",
          "name": "r",
          "type": "bytes32"
        },
        {
          "internalType": "bytes32",
          "name": "s",
          "type": "bytes32"
        }
      ],
      "name": "hiddenCollectERC721",
      "outputs": [],
      "stateMutability": "nonpayable",
      "type": "function"
    },
    {
      "inputs": [
        {
          "internalType": "address payable",
          "name": "from",
          "type": "address"
        },
        {
          "internalType": "bytes32",
          "name": "id1",
          "type": "bytes32"
        },
        {
          "internalType": "uint256",
          "name": "value",
          "type": "uint256"
        }
      ],
      "name": "hiddenAutoRetrieve",
      "outputs": [],
      "stateMutability": "nonpayable",
      "type": "function"
    }
  ],
  "bytecode": "0x60806040523480156200001157600080fd5b506040516200603038038062006030833981810160405260208110156200003757600080fd5b5051620000466000336200019f565b6200006160008051602062006010833981519152336200019f565b6200007c60008051602062006010833981519152826200019f565b50466002819055600160b01b600160f01b0360001943014060b01b1630908117600160f81b176003819055604080518082018252601481527f4b69726f626f2053616665205472616e73666572000000000000000000000000602091820152815180830183526001808252603160f81b9183019190915282517fd87cd6ef79d4e2b95e15ce8abf732db51ec771f1ca2edccf22a46c729ac56472818401527fa0e7867c78e9ee05b975f886625b0f857545d287fd4041f342f5f7398f7cf444818501527fc89efdaa54c0f20c7adf612882df0950f5a951637e0307cdcb4c672f298b8bc66060820152608081019690965260a086019490945260c0858101939093528151808603909301835260e0909401905280519201919091209055620002b3565b620001ab8282620001af565b5050565b600082815260208181526040909120620001d49183906200536962000228821b17901c565b15620001ab57620001e462000248565b6001600160a01b0316816001600160a01b0316837f2f8788117e7eff1d82e926ec794901d17c78024a50270940304540a733656f0d60405160405180910390a45050565b60006200023f836001600160a01b0384166200024c565b90505b92915050565b3390565b60006200025a83836200029b565b620002925750815460018181018455600084815260208082209093018490558454848252828601909352604090209190915562000242565b50600062000242565b60009081526001919091016020526040902054151590565b615d4d80620002c36000396000f3fe60806040526004361061026b5760003560e01c80639010d07c11610144578063c859ed44116100b6578063d87bc9ac1161007a578063d87bc9ac1461135f578063dad0276314611406578063e3fc5a8c146114bd578063e49a12dc14611600578063f514ce3614611639578063ffa1ad741461164e576102a9565b8063c859ed44146110a7578063ca15c873146110ec578063cf91c57314611116578063d40d6ed51461115c578063d547741f14611326576102a9565b8063a424e0a911610108578063a424e0a914610e85578063aa97040b14610ebd578063b1538f9214610f6d578063bb9b02e314610f82578063c2d30bab14611028578063c4193b3914611058576102a9565b80639010d07c14610d0a57806391d1485414610d565780639db5dbe414610da3578063a217fddf14610de6578063a3f4df7e14610dfb576102a9565b806354d25401116101dd578063790d98df116101a1578063790d98df146108d15780638025e30314610a2857806384f53f0914610a5357806385e1f4d014610b495780638776ab4f14610b5e5780638e69804b14610bf7576102a9565b806354d25401146105c85780635ab29dd1146106cf57806363eed7d01461073057806371a46d5f146107cb57806374be317f146107e8576102a9565b80632b78bd531161022f5780632b78bd53146104165780632f2ff15d1461042b578063359f54e4146104645780633644e5151461047957806336568abe1461048e5780634606e214146104c7576102a9565b8063017589d7146102ae57806308740a3b146102ed5780630bf7832b1461031457806313114a9d146103d7578063248a9ca3146103ec576102a9565b366102a95760405162461bcd60e51b815260040180806020018281038252602a815260200180615cbf602a913960400191505060405180910390fd5b005b600080fd5b3480156102ba57600080fd5b506102a7600480360360608110156102d157600080fd5b506001600160a01b038135169060208101359060400135611663565b3480156102f957600080fd5b5061030261184d565b60408051918252519081900360200190f35b6102a7600480360361012081101561032b57600080fd5b6001600160a01b038235169190810190604081016020820135600160201b81111561035557600080fd5b82018360208201111561036757600080fd5b803590602001918460018302840111600160201b8311171561038857600080fd5b919350915080356001600160a01b03169060208101359060408101359060608101359060808101356001600160401b039081169160a08101359091169060c001356001600160801b031661185f565b3480156103e357600080fd5b50610302611b35565b3480156103f857600080fd5b506103026004803603602081101561040f57600080fd5b5035611b3b565b34801561042257600080fd5b50610302611b50565b34801561043757600080fd5b506102a76004803603604081101561044e57600080fd5b50803590602001356001600160a01b0316611b74565b34801561047057600080fd5b50610302611be0565b34801561048557600080fd5b50610302611c04565b34801561049a57600080fd5b506102a7600480360360408110156104b157600080fd5b50803590602001356001600160a01b0316611c0a565b3480156104d357600080fd5b506102a760048036036101008110156104eb57600080fd5b6001600160a01b038235169190810190604081016020820135600160201b81111561051557600080fd5b82018360208201111561052757600080fd5b803590602001918460018302840111600160201b8311171561054857600080fd5b919390926001600160a01b0383358116936020810135909116926040820135929091608081019060600135600160201b81111561058457600080fd5b82018360208201111561059657600080fd5b803590602001918460018302840111600160201b831117156105b757600080fd5b919350915080359060200135611c6b565b3480156105d457600080fd5b506102a760048036036101008110156105ec57600080fd5b6001600160a01b038235169190810190604081016020820135600160201b81111561061657600080fd5b82018360208201111561062857600080fd5b803590602001918460018302840111600160201b8311171561064957600080fd5b919390926001600160a01b038335811693602081013590911692604082013592606083013592608081013592919060c081019060a00135600160201b81111561069157600080fd5b8201836020820111156106a357600080fd5b803590602001918460018302840111600160201b831117156106c457600080fd5b509092509050611f10565b6102a7600480360360e08110156106e557600080fd5b5080356001600160a01b03169060208101359060408101359060608101359060808101356001600160401b039081169160a08101359091169060c001356001600160801b0316612207565b34801561073c57600080fd5b506102a76004803603608081101561075357600080fd5b6001600160a01b03823581169260208101359091169160408201359190810190608081016060820135600160201b81111561078d57600080fd5b82018360208201111561079f57600080fd5b803590602001918460018302840111600160201b831117156107c057600080fd5b50909250905061247e565b6102a7600480360360208110156107e157600080fd5b5035612590565b6102a7600480360360e08110156107fe57600080fd5b6001600160a01b038235169190810190604081016020820135600160201b81111561082857600080fd5b82018360208201111561083a57600080fd5b803590602001918460018302840111600160201b8311171561085b57600080fd5b919390926001600160a01b03833516926020810135929190606081019060400135600160201b81111561088d57600080fd5b82018360208201111561089f57600080fd5b803590602001918460018302840111600160201b831117156108c057600080fd5b919350915080359060200135612667565b3480156108dd57600080fd5b506102a760048036036101208110156108f557600080fd5b6001600160a01b038235169190810190604081016020820135600160201b81111561091f57600080fd5b82018360208201111561093157600080fd5b803590602001918460018302840111600160201b8311171561095257600080fd5b919390926001600160a01b0383358116936020810135909116926040820135929091608081019060600135600160201b81111561098e57600080fd5b8201836020820111156109a057600080fd5b803590602001918460018302840111600160201b831117156109c157600080fd5b919390928235926020810135929190606081019060400135600160201b8111156109ea57600080fd5b8201836020820111156109fc57600080fd5b803590602001918460018302840111600160201b83111715610a1d57600080fd5b5090925090506128dd565b348015610a3457600080fd5b50610a3d612ca4565b6040805160ff9092168252519081900360200190f35b348015610a5f57600080fd5b506102a7600480360360e0811015610a7657600080fd5b6001600160a01b038235169190810190604081016020820135600160201b811115610aa057600080fd5b820183602082011115610ab257600080fd5b803590602001918460018302840111600160201b83111715610ad357600080fd5b919390926001600160a01b03833516926020810135929190606081019060400135600160201b811115610b0557600080fd5b820183602082011115610b1757600080fd5b803590602001918460018302840111600160201b83111715610b3857600080fd5b919350915080359060200135612ca9565b348015610b5557600080fd5b50610302612e61565b6102a7600480360360c0811015610b7457600080fd5b6001600160a01b038235169190810190604081016020820135600160201b811115610b9e57600080fd5b820183602082011115610bb057600080fd5b803590602001918460018302840111600160201b83111715610bd157600080fd5b91935091506001600160a01b038135169060208101359060408101359060600135612e67565b6102a76004803603610140811015610c0e57600080fd5b6001600160a01b038235169190810190604081016020820135600160201b811115610c3857600080fd5b820183602082011115610c4a57600080fd5b803590602001918460018302840111600160201b83111715610c6b57600080fd5b919390926001600160a01b03833516926020810135929190606081019060400135600160201b811115610c9d57600080fd5b820183602082011115610caf57600080fd5b803590602001918460018302840111600160201b83111715610cd057600080fd5b919350915080359060208101359060408101356001600160401b0390811691606081013590911690608001356001600160801b031661305e565b348015610d1657600080fd5b50610d3a60048036036040811015610d2d57600080fd5b50803590602001356133d6565b604080516001600160a01b039092168252519081900360200190f35b348015610d6257600080fd5b50610d8f60048036036040811015610d7957600080fd5b50803590602001356001600160a01b03166133f7565b604080519115158252519081900360200190f35b348015610daf57600080fd5b506102a760048036036060811015610dc657600080fd5b506001600160a01b0381358116916020810135909116906040013561340f565b348015610df257600080fd5b5061030261347f565b348015610e0757600080fd5b50610e10613484565b6040805160208082528351818301528351919283929083019185019080838360005b83811015610e4a578181015183820152602001610e32565b50505050905090810190601f168015610e775780820380516001836020036101000a031916815260200191505b509250505060405180910390f35b6102a760048036036080811015610e9b57600080fd5b506001600160a01b0381351690602081013590604081013590606001356134b4565b348015610ec957600080fd5b506102a7600480360360e0811015610ee057600080fd5b6001600160a01b038235169190810190604081016020820135600160201b811115610f0a57600080fd5b820183602082011115610f1c57600080fd5b803590602001918460018302840111600160201b83111715610f3d57600080fd5b91935091506001600160a01b03813581169160208101359091169060408101359060608101359060800135613664565b348015610f7957600080fd5b506103026138db565b348015610f8e57600080fd5b506102a7600480360360c0811015610fa557600080fd5b6001600160a01b038235169190810190604081016020820135600160201b811115610fcf57600080fd5b820183602082011115610fe157600080fd5b803590602001918460018302840111600160201b8311171561100257600080fd5b91935091506001600160a01b0381351690602081013590604081013590606001356138ff565b34801561103457600080fd5b506102a76004803603604081101561104b57600080fd5b5080359060200135613a89565b34801561106457600080fd5b506102a7600480360360a081101561107b57600080fd5b506001600160a01b03813581169160208101359091169060408101359060608101359060800135613b84565b3480156110b357600080fd5b506102a7600480360360808110156110ca57600080fd5b506001600160a01b038135169060208101359060408101359060600135613d95565b3480156110f857600080fd5b506103026004803603602081101561110f57600080fd5b5035613ec5565b6102a76004803603608081101561112c57600080fd5b5080359060208101356001600160401b0390811691604081013590911690606001356001600160801b0316613edc565b34801561116857600080fd5b506102a7600480360361018081101561118057600080fd5b6001600160a01b0382358116926020810135821692604082013590921691810190608081016060820135600160201b8111156111bb57600080fd5b8201836020820111156111cd57600080fd5b803590602001918460018302840111600160201b831117156111ee57600080fd5b91908080601f01602080910402602001604051908101604052809392919081815260200183838082843760009201919091525092958435959094909350604081019250602001359050600160201b81111561124857600080fd5b82018360208201111561125a57600080fd5b803590602001918460018302840111600160201b8311171561127b57600080fd5b91908080601f0160208091040260200160405190810160405280939291908181526020018383808284376000920191909152509295843595602086013595919450925060608101915060400135600160201b8111156112d957600080fd5b8201836020820111156112eb57600080fd5b803590602001918460018302840111600160201b8311171561130c57600080fd5b919350915060ff81351690602081013590604001356140ad565b34801561133257600080fd5b506102a76004803603604081101561134957600080fd5b50803590602001356001600160a01b03166146c4565b34801561136b57600080fd5b506102a7600480360360c081101561138257600080fd5b6001600160a01b0382358116926020810135909116916040820135916060810135916080820135919081019060c0810160a0820135600160201b8111156113c857600080fd5b8201836020820111156113da57600080fd5b803590602001918460018302840111600160201b831117156113fb57600080fd5b50909250905061471d565b34801561141257600080fd5b506102a7600480360361012081101561142a57600080fd5b6001600160a01b0382358116926020810135909116916040820135916060810135916080820135919081019060c0810160a0820135600160201b81111561147057600080fd5b82018360208201111561148257600080fd5b803590602001918460018302840111600160201b831117156114a357600080fd5b919350915060ff81351690602081013590604001356149c2565b3480156114c957600080fd5b506102a760048036036101608110156114e157600080fd5b6001600160a01b0382358116926020810135821692604082013590921691810190608081016060820135600160201b81111561151c57600080fd5b82018360208201111561152e57600080fd5b803590602001918460018302840111600160201b8311171561154f57600080fd5b91908080601f0160208091040260200160405190810160405280939291908181526020018383808284376000920191909152509295843595602086013595604081013595509193509150608081019060600135600160201b8111156115b357600080fd5b8201836020820111156115c557600080fd5b803590602001918460018302840111600160201b831117156115e657600080fd5b919350915060ff8135169060208101359060400135614de2565b34801561160c57600080fd5b506102a76004803603604081101561162357600080fd5b506001600160a01b0381351690602001356152a9565b34801561164557600080fd5b50610302615346565b34801561165a57600080fd5b50610e1061534c565b61167b600080516020615b93833981519152336133f7565b6116ba576040805162461bcd60e51b815260206004820152601e6024820152600080516020615b73833981519152604482015290519081900360640190fd5b604080516001600160a01b03851660208083019190915281830184905260608083018690528351808403909101815260809092018352815191810191909120600081815260089092529190205480611747576040805162461bcd60e51b815260206004820152601f6024820152600080516020615abb833981519152604482015290519081900360640190fd5b42816001600160401b031611156117a0576040805162461bcd60e51b815260206004820152601860248201527714d85999551c985b99995c8e881b9bdd08195e1c1a5c995960421b604482015290519081900360640190fd5b600082815260086020526040812081905560048054608084901c9081019091556117cb90859061537e565b6040519091506001600160a01b0387169082156108fc029083906000818181858888f19350505050158015611804573d6000803e3d6000fd5b5060408051828152905186916001600160a01b038916917f315de080c411b2c8236296058cbea4d5dddebfb39339055d552810a07fbc92769181900360200190a3505050505050565b600080516020615b9383398151915281565b84341461189d5760405162461bcd60e51b8152600401808060200182810382526027815260200180615bb36027913960400191505060405180910390fd5b806001600160801b03168510156118e55760405162461bcd60e51b8152600401808060200182810382526029815260200180615b2a6029913960400191505060405180910390fd5b6001600160a01b038716331415611931576040805162461bcd60e51b815260206004820152601f6024820152600080516020615c55833981519152604482015290519081900360640190fd5b42826001600160401b03161161197c576040805162461bcd60e51b815260206004820152601d6024820152600080516020615c9f833981519152604482015290519081900360640190fd5b60008a8a8a338b8b8b8b60405160200180896001600160a01b0316815260200180602001876001600160a01b03168152602001866001600160a01b031681526020018581526020018481526020018381526020018281038252898982818152602001925080828437600081840152601f19601f82011690508083019250505099505050505050505050506040516020818303038152906040528051906020012090506006600082815260200190815260200160002054600014611a74576040805162461bcd60e51b815260206004820152601b6024820152600080516020615c35833981519152604482015290519081900360640190fd5b600081815260066020908152604091829020608085811b6001600160801b03191688851b6fffffffffffffffff0000000000000000166001600160401b038981169182019290920190935584518c81529384018b90528385018a9052881660608401528201526001600160801b03841660a082015290516001600160a01b038a8116923392918f16917f596f738dc354130d81c0f6e14514648e2a413c234ab6eb5ad5ac09acce3a11e69160c0908290030190a45050505050505050505050565b60045490565b60009081526020819052604090206002015490565b7f0506afef36f3613836f98ef019cb76a3e6112be8f9dc8d8fa77275d64f41823481565b600082815260208190526040902060020154611b9790611b926153c0565b6133f7565b611bd25760405162461bcd60e51b815260040180806020018281038252602f815260200180615adb602f913960400191505060405180910390fd5b611bdc82826153c4565b5050565b7f9e6214229b9fba1927010d30b22a3a5d9fd5e856bb29f056416ff2ad52e8de4481565b60015481565b611c126153c0565b6001600160a01b0316816001600160a01b031614611c615760405162461bcd60e51b815260040180806020018281038252602f815260200180615ce9602f913960400191505060405180910390fd5b611bdc828261542d565b611c83600080516020615b93833981519152336133f7565b611cc2576040805162461bcd60e51b815260206004820152601e6024820152600080516020615b73833981519152604482015290519081900360640190fd5b60008a8a8a8a8a8a8a8a8a8a604051602001808b6001600160a01b0316815260200180602001896001600160a01b03168152602001886001600160a01b031681526020018781526020018060200185815260200184815260200183810383528c8c82818152602001925080828437600083820152601f01601f191690910184810383528781526020019050878780828437600081840152601f19601f8201169050808301925050509c5050505050505050505050505060405160208183030381529060405280519060200120905060006007600083815260200190815260200160002054905060008111611deb576040805162461bcd60e51b815260206004820152601f6024820152600080516020615abb833981519152604482015290519081900360640190fd5b42816001600160401b03161115611e44576040805162461bcd60e51b815260206004820152601860248201527714d85999551c985b99995c8e881b9bdd08195e1c1a5c995960421b604482015290519081900360640190fd5b60008281526007602052604081205560048054608083901c9081019091556001600160a01b038a16906108fc90611e7c90879061537e565b6040518115909202916000818181858888f19350505050158015611ea4573d6000803e3d6000fd5b50876001600160a01b0316896001600160a01b03168d6001600160a01b03167f888085db651d2c8dd055a62e48cd23d308502ebd6b714c6f4e9368bf27bfa9f8858b604051808381526020018281526020019250505060405180910390a4505050505050505050505050565b611f28600080516020615b93833981519152336133f7565b611f67576040805162461bcd60e51b815260206004820152601e6024820152600080516020615b73833981519152604482015290519081900360640190fd5b60008a8a8a8a8a8a8a8a60405160200180896001600160a01b0316815260200180602001876001600160a01b03168152602001866001600160a01b031681526020018581526020018481526020018381526020018281038252898982818152602001925080828437600081840152601f19601f820116905080830192505050995050505050505050505060405160208183030381529060405280519060200120905060006006600083815260200190815260200160002054905060008111612064576040805162461bcd60e51b815260206004820152601f6024820152600080516020615abb833981519152604482015290519081900360640190fd5b42816001600160401b0316116120b8576040805162461bcd60e51b815260206004820152601460248201527314d85999551c985b99995c8e88195e1c1a5c995960621b604482015290519081900360640190fd5b42604082901c6001600160401b03161115612108576040805162461bcd60e51b815260206004820152601e6024820152600080516020615b53833981519152604482015290519081900360640190fd5b848484604051808383808284378083019250505092505050604051809103902014612168576040805162461bcd60e51b815260206004820152601a6024820152600080516020615b0a833981519152604482015290519081900360640190fd5b6000828152600660205260408120556004546121849087615496565b60045561219c6001600160a01b038d168a8a8a6154f0565b876001600160a01b0316896001600160a01b03168d6001600160a01b03167f28bb8be2aa24f2c6aec31cf8b9095a77d7a8d9f5e7d984c04bddb7c67a8d74c2858b604051808381526020018281526020019250505060405180910390a4505050505050505050505050565b6122118686615496565b3414612264576040805162461bcd60e51b815260206004820152601c60248201527f536166655472616e736665723a2076616c7565206d69736d6174636800000000604482015290519081900360640190fd5b806001600160801b03168510156122ac5760405162461bcd60e51b8152600401808060200182810382526029815260200180615b2a6029913960400191505060405180910390fd5b6001600160a01b0387163314156122f8576040805162461bcd60e51b815260206004820152601f6024820152600080516020615c55833981519152604482015290519081900360640190fd5b42826001600160401b031611612343576040805162461bcd60e51b815260206004820152601d6024820152600080516020615c9f833981519152604482015290519081900360640190fd5b60408051336020808301919091526001600160a01b038a1682840152606082018990526080820188905260a08083018890528351808403909101815260c090920183528151918101919091206000818152600590925291902054156123dd576040805162461bcd60e51b815260206004820152601b6024820152600080516020615c35833981519152604482015290519081900360640190fd5b600081815260056020908152604091829020608085811b6001600160801b0319166001600160401b0388811691820190935584518c81529384018b90528385018a905291881660608401528201526001600160801b03841660a082015290516001600160a01b038a169133917f0c068508757304c51e9264434c8c2fb4147946522d58b831889cd9c7240a55769160c0908290030190a35050505050505050565b612496600080516020615b93833981519152336133f7565b6124d5576040805162461bcd60e51b815260206004820152601e6024820152600080516020615b73833981519152604482015290519081900360640190fd5b846001600160a01b031663b88d4fde30868686866040518663ffffffff1660e01b815260040180866001600160a01b03168152602001856001600160a01b03168152602001848152602001806020018281038252848482818152602001925080828437600081840152601f19601f8201169050808301925050509650505050505050600060405180830381600087803b15801561257157600080fd5b505af1158015612585573d6000803e3d6000fd5b505050505050505050565b6040805133602080830191909152348284015260608083018590528351808403909101815260809092018352815191810191909120600081815260089092529190205415612613576040805162461bcd60e51b815260206004820152601b6024820152600080516020615c35833981519152604482015290519081900360640190fd5b6000818152600860209081526040918290206001600160401b03905581513481529151849233927f3dbf39eb5935a7abc0c756107967c274f5964488444b869ea5114a06aa2989ae92918290030190a35050565b8134146126a55760405162461bcd60e51b8152600401808060200182810382526027815260200180615bb36027913960400191505060405180910390fd5b600085116126f6576040805162461bcd60e51b815260206004820152601960248201527814d85999551c985b9cd9995c8e881b9bc81d1bdad95b881a59603a1b604482015290519081900360640190fd5b6001600160a01b038616331415612742576040805162461bcd60e51b815260206004820152601f6024820152600080516020615c55833981519152604482015290519081900360640190fd5b6000898989338a8a8a8a8a8a604051602001808b6001600160a01b0316815260200180602001896001600160a01b03168152602001886001600160a01b031681526020018781526020018060200185815260200184815260200183810383528c8c82818152602001925080828437600083820152601f01601f191690910184810383528781526020019050878780828437600081840152601f19601f8201169050808301925050509c505050505050505050505050506040516020818303038152906040528051906020012090506007600082815260200190815260200160002054600014612866576040805162461bcd60e51b815260206004820152601b6024820152600080516020615c35833981519152604482015290519081900360640190fd5b6000818152600760209081526040918290206001600160401b039055815188815290810185905280820184905290516001600160a01b03808a16923392918e16917f5de53c176cff701e2530af486c4652d44dc99c1099750924f392f0d8be7e5c3d9181900360600190a450505050505050505050565b6128f5600080516020615b93833981519152336133f7565b612934576040805162461bcd60e51b815260206004820152601e6024820152600080516020615b73833981519152604482015290519081900360640190fd5b60008c8c8c8c8c8c8c8c8c8c604051602001808b6001600160a01b0316815260200180602001896001600160a01b03168152602001886001600160a01b031681526020018781526020018060200185815260200184815260200183810383528c8c82818152602001925080828437600083820152601f01601f191690910184810383528781526020019050878780828437600081840152601f19601f8201169050808301925050509c5050505050505050505050505060405160208183030381529060405280519060200120905060006007600083815260200190815260200160002054905060008111612a5d576040805162461bcd60e51b815260206004820152601f6024820152600080516020615abb833981519152604482015290519081900360640190fd5b42816001600160401b031611612ab1576040805162461bcd60e51b815260206004820152601460248201527314d85999551c985b99995c8e88195e1c1a5c995960621b604482015290519081900360640190fd5b42604082901c6001600160401b03161115612b01576040805162461bcd60e51b815260206004820152601e6024820152600080516020615b53833981519152604482015290519081900360640190fd5b848484604051808383808284378083019250505092505050604051809103902014612b61576040805162461bcd60e51b815260206004820152601a6024820152600080516020615b0a833981519152604482015290519081900360640190fd5b600082815260076020526040812055600454612b7d9087615496565b6004819055508d6001600160a01b031663b88d4fde8c8c8c8c8c6040518663ffffffff1660e01b815260040180866001600160a01b03168152602001856001600160a01b03168152602001848152602001806020018281038252848482818152602001925080828437600081840152601f19601f8201169050808301925050509650505050505050600060405180830381600087803b158015612c1f57600080fd5b505af1158015612c33573d6000803e3d6000fd5b50505050896001600160a01b03168b6001600160a01b03168f6001600160a01b03167f86f5b986121cacce468c183b4ded35916f3cabef68a45644042b1e55fd2cb931858d604051808381526020018281526020019250505060405180910390a45050505050505050505050505050565b600181565b6000898989338a8a8a8a8a8a604051602001808b6001600160a01b0316815260200180602001896001600160a01b03168152602001886001600160a01b031681526020018781526020018060200185815260200184815260200183810383528c8c82818152602001925080828437600083820152601f01601f191690910184810383528781526020019050878780828437600081840152601f19601f8201169050808301925050509c505050505050505050505050506040516020818303038152906040528051906020012090506000600760008381526020019081526020016000205411612dcd576040805162461bcd60e51b815260206004820152601f6024820152600080516020615abb833981519152604482015290519081900360640190fd5b60008181526007602052604080822082905551339185156108fc02918691818181858888f19350505050158015612e08573d6000803e3d6000fd5b50604080518281526020810188905281516001600160a01b03808b16933393918f16927f888085db651d2c8dd055a62e48cd23d308502ebd6b714c6f4e9368bf27bfa9f89281900390910190a450505050505050505050565b60025481565b813414612ea55760405162461bcd60e51b8152600401808060200182810382526027815260200180615bb36027913960400191505060405180910390fd5b6001600160a01b038416331415612ef1576040805162461bcd60e51b815260206004820152601f6024820152600080516020615c55833981519152604482015290519081900360640190fd5b6000878787338888888860405160200180896001600160a01b0316815260200180602001876001600160a01b03168152602001866001600160a01b031681526020018581526020018481526020018381526020018281038252898982818152602001925080828437600081840152601f19601f82011690508083019250505099505050505050505050506040516020818303038152906040528051906020012090506006600082815260200190815260200160002054600014612fe9576040805162461bcd60e51b815260206004820152601b6024820152600080516020615c35833981519152604482015290519081900360640190fd5b6000818152600660209081526040918290206001600160401b039055815186815290810185905280820184905290516001600160a01b03808816923392918c16917f70f7911dcde96fe5fa6c6d28e57c91a03cbc1a63d76fed73c77333dcdcfbcfea9181900360600190a45050505050505050565b84341461309c5760405162461bcd60e51b8152600401808060200182810382526027815260200180615bb36027913960400191505060405180910390fd5b806001600160801b03168510156130e45760405162461bcd60e51b8152600401808060200182810382526029815260200180615b2a6029913960400191505060405180910390fd5b60008811613135576040805162461bcd60e51b815260206004820152601960248201527814d85999551c985b9cd9995c8e881b9bc81d1bdad95b881a59603a1b604482015290519081900360640190fd5b6001600160a01b038916331415613181576040805162461bcd60e51b815260206004820152601f6024820152600080516020615c55833981519152604482015290519081900360640190fd5b42826001600160401b0316116131cc576040805162461bcd60e51b815260206004820152601d6024820152600080516020615c9f833981519152604482015290519081900360640190fd5b60008c8c8c338d8d8d8d8d8d604051602001808b6001600160a01b0316815260200180602001896001600160a01b03168152602001886001600160a01b031681526020018781526020018060200185815260200184815260200183810383528c8c82818152602001925080828437600083820152601f01601f191690910184810383528781526020019050878780828437600081840152601f19601f8201169050808301925050509c5050505050505050505050505060405160208183030381529060405280519060200120905060076000828152602001908152602001600020546000146132f0576040805162461bcd60e51b815260206004820152601b6024820152600080516020615c35833981519152604482015290519081900360640190fd5b6080826001600160801b0316901b6040856001600160401b0316901b846001600160401b031601016007600083815260200190815260200160002081905550896001600160a01b0316336001600160a01b03168e6001600160a01b03167fdf4eaf9a639e30edb46353425d55622f3c573b13ccd8ff6890613a5fc3520e888c8a8a8a8a8a60405180878152602001868152602001858152602001846001600160401b03168152602001836001600160401b03168152602001826001600160801b03168152602001965050505050505060405180910390a450505050505050505050505050565b60008281526020819052604081206133ee9083615550565b90505b92915050565b60008281526020819052604081206133ee908361555c565b613427600080516020615b93833981519152336133f7565b613466576040805162461bcd60e51b815260206004820152601e6024820152600080516020615b73833981519152604482015290519081900360640190fd5b61347a6001600160a01b0384168383615571565b505050565b600081565b6040518060400160405280601481526020017325b4b937b1379029b0b332902a3930b739b332b960611b81525081565b6134be8383615496565b3414613511576040805162461bcd60e51b815260206004820152601c60248201527f536166655472616e736665723a2076616c7565206d69736d6174636800000000604482015290519081900360640190fd5b6001600160a01b03841633141561355d576040805162461bcd60e51b815260206004820152601f6024820152600080516020615c55833981519152604482015290519081900360640190fd5b60408051336020808301919091526001600160a01b03871682840152606082018690526080820185905260a08083018590528351808403909101815260c090920183528151918101919091206000818152600590925291902054156135f7576040805162461bcd60e51b815260206004820152601b6024820152600080516020615c35833981519152604482015290519081900360640190fd5b6000818152600560209081526040918290206001600160401b039055815186815290810185905280820184905290516001600160a01b0387169133917fc6daf3f44b892b946e8f054dee61a5c544673a355b8ec6fd0ba713e6e67518db9181900360600190a35050505050565b61367c600080516020615b93833981519152336133f7565b6136bb576040805162461bcd60e51b815260206004820152601e6024820152600080516020615b73833981519152604482015290519081900360640190fd5b6000888888888888888860405160200180896001600160a01b0316815260200180602001876001600160a01b03168152602001866001600160a01b031681526020018581526020018481526020018381526020018281038252898982818152602001925080828437600081840152601f19601f8201169050808301925050509950505050505050505050604051602081830303815290604052805190602001209050600060066000838152602001908152602001600020549050600081116137b8576040805162461bcd60e51b815260206004820152601f6024820152600080516020615abb833981519152604482015290519081900360640190fd5b42816001600160401b03161115613811576040805162461bcd60e51b815260206004820152601860248201527714d85999551c985b99995c8e881b9bdd08195e1c1a5c995960421b604482015290519081900360640190fd5b60008281526006602052604081205560048054608083901c9081019091556001600160a01b038816906108fc9061384990879061537e565b6040518115909202916000818181858888f19350505050158015613871573d6000803e3d6000fd5b50856001600160a01b0316876001600160a01b03168b6001600160a01b03167f9d3d4c92d62433013833b0f45e10416260d233e97cfc19bc5705b9b75170c2b08589604051808381526020018281526020019250505060405180910390a450505050505050505050565b7fa14a2dc51c26e451800897aa798120e7d6c35039caf5eb29b8ac35d1e914c59181565b6000878787338888888860405160200180896001600160a01b0316815260200180602001876001600160a01b03168152602001866001600160a01b031681526020018581526020018481526020018381526020018281038252898982818152602001925080828437600081840152601f19601f820116905080830192505050995050505050505050505060405160208183030381529060405280519060200120905060006006600083815260200190815260200160002054116139f7576040805162461bcd60e51b815260206004820152601f6024820152600080516020615abb833981519152604482015290519081900360640190fd5b60008181526006602052604080822082905551339185156108fc02918691818181858888f19350505050158015613a32573d6000803e3d6000fd5b50604080518281526020810186905281516001600160a01b03808916933393918d16927f9d3d4c92d62433013833b0f45e10416260d233e97cfc19bc5705b9b75170c2b09281900390910190a45050505050505050565b6040805133602080830191909152818301849052606080830186905283518084039091018152608090920183528151918101919091206000818152600890925291902054613b0c576040805162461bcd60e51b815260206004820152601f6024820152600080516020615abb833981519152604482015290519081900360640190fd5b60008181526008602052604080822082905551339184156108fc02918591818181858888f19350505050158015613b47573d6000803e3d6000fd5b50604080518381529051849133917f315de080c411b2c8236296058cbea4d5dddebfb39339055d552810a07fbc92769181900360200190a3505050565b613b9c600080516020615b93833981519152336133f7565b613bdb576040805162461bcd60e51b815260206004820152601e6024820152600080516020615b73833981519152604482015290519081900360640190fd5b604080516001600160a01b0380881660208084019190915290871682840152606082018690526080820185905260a08083018590528351808403909101815260c09092018352815191810191909120600081815260059092529190205480613c78576040805162461bcd60e51b815260206004820152601f6024820152600080516020615abb833981519152604482015290519081900360640190fd5b42816001600160401b03161115613cd1576040805162461bcd60e51b815260206004820152601860248201527714d85999551c985b99995c8e881b9bdd08195e1c1a5c995960421b604482015290519081900360640190fd5b600082815260056020526040812081905560048054608084901c908101909155613d0590613cff8888615496565b9061537e565b6040519091506001600160a01b0389169082156108fc029083906000818181858888f19350505050158015613d3e573d6000803e3d6000fd5b5082876001600160a01b0316896001600160a01b03167f2c0f05de664e2354e281c7c55d07fe10e18c61d9b196dbcd318285801b36cde4846040518082815260200191505060405180910390a45050505050505050565b60408051336020808301919091526001600160a01b03871682840152606082018690526080820185905260a08083018590528351808403909101815260c090920183528151918101919091206000818152600590925291902054613e2e576040805162461bcd60e51b815260206004820152601f6024820152600080516020615abb833981519152604482015290519081900360640190fd5b6000818152600560205260408120819055613e498585615496565b604051909150339082156108fc029083906000818181858888f19350505050158015613e79573d6000803e3d6000fd5b5060408051828152905183916001600160a01b0389169133917f2c0f05de664e2354e281c7c55d07fe10e18c61d9b196dbcd318285801b36cde4919081900360200190a4505050505050565b60008181526020819052604081206133f1906155c3565b806001600160801b0316341015613f245760405162461bcd60e51b815260040180806020018281038252602b815260200180615c0a602b913960400191505060405180910390fd5b6040805133602080830191909152348284015260608083018890528351808403909101815260809092018352815191810191909120600081815260089092529190205415613fa7576040805162461bcd60e51b815260206004820152601b6024820152600080516020615c35833981519152604482015290519081900360640190fd5b42836001600160401b031611613ff2576040805162461bcd60e51b815260206004820152601d6024820152600080516020615c9f833981519152604482015290519081900360640190fd5b6080826001600160801b0316901b6040856001600160401b0316901b846001600160401b03160101600860008381526020019081526020016000208190555084336001600160a01b03167f1e0da4edc3a1c02f16fe48803f882d848dc210551eb8a545cc6f6c83012df2ff3487878760405180858152602001846001600160401b03168152602001836001600160401b03168152602001826001600160801b0316815260200194505050505060405180910390a35050505050565b6140c5600080516020615b93833981519152336133f7565b614104576040805162461bcd60e51b815260206004820152601e6024820152600080516020615b73833981519152604482015290519081900360640190fd5b61410c615a78565b7fa14a2dc51c26e451800897aa798120e7d6c35039caf5eb29b8ac35d1e914c59160001b8e8e8e8e8e8e8e8e604051602001808a8152602001896001600160a01b03168152602001886001600160a01b03168152602001876001600160a01b031681526020018060200186815260200180602001858152602001848152602001838103835288818151815260200191508051906020019080838360005b838110156141c15781810151838201526020016141a9565b50505050905090810190601f1680156141ee5780820380516001836020036101000a031916815260200191505b50838103825286518152865160209182019188019080838360005b83811015614221578181015183820152602001614209565b50505050905090810190601f16801561424e5780820380516001836020036101000a031916815260200191505b509b505050505050505050505050604051602081830303815290604052805190602001208160200181815250508d6001600160a01b0316600180548360200151604051602001808061190160f01b815250600201838152602001828152602001925050506040516020818303038152906040528051906020012086868660405160008152602001604052604051808581526020018460ff1681526020018381526020018281526020019450505050506020604051602081039080840390855afa15801561431f573d6000803e3d6000fd5b505050602060405103516001600160a01b031614614384576040805162461bcd60e51b815260206004820152601d60248201527f536166655472616e736665723a2077726f6e67207369676e6174757265000000604482015290519081900360640190fd5b8d88826020015160405160200180846001600160a01b031681526020018381526020018281526020019350505050604051602081830303815290604052805190602001208160000181815250506008600082600001518152602001908152602001600020548160400181815250506000816040015111614439576040805162461bcd60e51b815260206004820152601f6024820152600080516020615abb833981519152604482015290519081900360640190fd5b4281604001516001600160401b031611614491576040805162461bcd60e51b815260206004820152601460248201527314d85999551c985b99995c8e88195e1c1a5c995960621b604482015290519081900360640190fd5b4260408260400151901c6001600160401b031611156144e5576040805162461bcd60e51b815260206004820152601e6024820152600080516020615b53833981519152604482015290519081900360640190fd5b868686604051808383808284378083019250505092505050604051809103902014614545576040805162461bcd60e51b815260206004820152601a6024820152600080516020615b0a833981519152604482015290519081900360640190fd5b80516000908152600860205260408120556004546145639089615496565b6004819055508b6001600160a01b031663b88d4fde8f8f8d8d6040518563ffffffff1660e01b815260040180856001600160a01b03168152602001846001600160a01b0316815260200183815260200180602001828103825283818151815260200191508051906020019080838360005b838110156145ec5781810151838201526020016145d4565b50505050905090810190601f1680156146195780820380516001836020036101000a031916815260200191505b5095505050505050600060405180830381600087803b15801561463b57600080fd5b505af115801561464f573d6000803e3d6000fd5b505050508c6001600160a01b03168e6001600160a01b03168d6001600160a01b03167f277982bd3369f69df6339efe835276c5762d720a34ab5c7973bf73491e18432784602001518e604051808381526020018281526020019250505060405180910390a45050505050505050505050505050565b6000828152602081905260409020600201546146e290611b926153c0565b611c615760405162461bcd60e51b8152600401808060200182810382526030815260200180615bda6030913960400191505060405180910390fd5b614735600080516020615b93833981519152336133f7565b614774576040805162461bcd60e51b815260206004820152601e6024820152600080516020615b73833981519152604482015290519081900360640190fd5b604080516001600160a01b03808a1660208084019190915290891682840152606082018890526080820187905260a08083018790528351808403909101815260c09092018352815191810191909120600081815260059092529190205480614811576040805162461bcd60e51b815260206004820152601f6024820152600080516020615abb833981519152604482015290519081900360640190fd5b42816001600160401b031611614865576040805162461bcd60e51b815260206004820152601460248201527314d85999551c985b99995c8e88195e1c1a5c995960621b604482015290519081900360640190fd5b42604082901c6001600160401b031611156148b5576040805162461bcd60e51b815260206004820152601e6024820152600080516020615b53833981519152604482015290519081900360640190fd5b848484604051808383808284378083019250505092505050604051809103902014614915576040805162461bcd60e51b815260206004820152601a6024820152600080516020615b0a833981519152604482015290519081900360640190fd5b6000828152600560205260408120556004546149319087615496565b6004556040516001600160a01b0389169088156108fc029089906000818181858888f1935050505015801561496a573d6000803e3d6000fd5b5081886001600160a01b03168a6001600160a01b03167fa4beac8994bd92afc3cde2236c528ddabf0b78fdd042b6766364a85c6c77f6078a6040518082815260200191505060405180910390a4505050505050505050565b6149da600080516020615b93833981519152336133f7565b614a19576040805162461bcd60e51b815260206004820152601e6024820152600080516020615b73833981519152604482015290519081900360640190fd5b604080517f0506afef36f3613836f98ef019cb76a3e6112be8f9dc8d8fa77275d64f4182346020808301919091526001600160a01b03808e16838501819052908d166060840152608083018c905260a083018b905260c08084018b90528451808503909101815260e0840185528051908301206001805461190160f01b610100870152610102860152610122808601839052865180870390910181526101428601808852815191860191909120600090915261016286018088525260ff89166101828601526101a285018890526101c2850187905294519094919391926101e2808401939192601f1981019281900390910190855afa158015614b20573d6000803e3d6000fd5b505050602060405103516001600160a01b031614614b85576040805162461bcd60e51b815260206004820152601d60248201527f536166655472616e736665723a2077726f6e67207369676e6174757265000000604482015290519081900360640190fd5b60008b614b928b8b615496565b8360405160200180846001600160a01b03168152602001838152602001828152602001935050505060405160208183030381529060405280519060200120905060006008600083815260200190815260200160002054905060008111614c2d576040805162461bcd60e51b815260206004820152601f6024820152600080516020615abb833981519152604482015290519081900360640190fd5b42816001600160401b031611614c81576040805162461bcd60e51b815260206004820152601460248201527314d85999551c985b99995c8e88195e1c1a5c995960621b604482015290519081900360640190fd5b42604082901c6001600160401b03161115614cd1576040805162461bcd60e51b815260206004820152601e6024820152600080516020615b53833981519152604482015290519081900360640190fd5b888888604051808383808284378083019250505092505050604051809103902014614d31576040805162461bcd60e51b815260206004820152601a6024820152600080516020615b0a833981519152604482015290519081900360640190fd5b600082815260086020526040812055600454614d4d908b615496565b6004556040516001600160a01b038d16908c156108fc02908d906000818181858888f19350505050158015614d86573d6000803e3d6000fd5b50828c6001600160a01b03168e6001600160a01b03167f8626ed517f2013f53bfc0df75797154faf15afab3b9bd5aa0dc4a39f04c34e2d8e6040518082815260200191505060405180910390a450505050505050505050505050565b614dfa600080516020615b93833981519152336133f7565b614e39576040805162461bcd60e51b815260206004820152601e6024820152600080516020615b73833981519152604482015290519081900360640190fd5b614e41615a78565b7f9e6214229b9fba1927010d30b22a3a5d9fd5e856bb29f056416ff2ad52e8de4460001b8d8d8d8d8d8d8d60405160200180898152602001886001600160a01b03168152602001876001600160a01b03168152602001866001600160a01b0316815260200180602001858152602001848152602001838152602001828103825286818151815260200191508051906020019080838360005b83811015614ef1578181015183820152602001614ed9565b50505050905090810190601f168015614f1e5780820380516001836020036101000a031916815260200191505b509950505050505050505050604051602081830303815290604052805190602001208160200181815250508c6001600160a01b0316600180548360200151604051602001808061190160f01b815250600201838152602001828152602001925050506040516020818303038152906040528051906020012086868660405160008152602001604052604051808581526020018460ff1681526020018381526020018281526020019450505050506020604051602081039080840390855afa158015614fed573d6000803e3d6000fd5b505050602060405103516001600160a01b031614615052576040805162461bcd60e51b815260206004820152601d60248201527f536166655472616e736665723a2077726f6e67207369676e6174757265000000604482015290519081900360640190fd5b8c88826020015160405160200180846001600160a01b0316815260200183815260200182815260200193505050506040516020818303038152906040528051906020012081600001818152505060006008600083600001518152602001908152602001600020549050600081116150fe576040805162461bcd60e51b815260206004820152601f6024820152600080516020615abb833981519152604482015290519081900360640190fd5b42816001600160401b031611615152576040805162461bcd60e51b815260206004820152601460248201527314d85999551c985b99995c8e88195e1c1a5c995960621b604482015290519081900360640190fd5b42604082901c6001600160401b031611156151a2576040805162461bcd60e51b815260206004820152601e6024820152600080516020615b53833981519152604482015290519081900360640190fd5b878787604051808383808284378083019250505092505050604051809103902014615202576040805162461bcd60e51b815260206004820152601a6024820152600080516020615b0a833981519152604482015290519081900360640190fd5b8151600090815260086020526040812055600454615220908a615496565b6004556152386001600160a01b038d168f8f8d6154f0565b8c6001600160a01b03168e6001600160a01b03168d6001600160a01b03167fda80a0efa5ccd61d8ea52eac9b959088c9b589a93c4a9d4eb7ab2874ff6607b685602001518e604051808381526020018281526020019250505060405180910390a45050505050505050505050505050565b6152c1600080516020615b93833981519152336133f7565b615300576040805162461bcd60e51b815260206004820152601e6024820152600080516020615b73833981519152604482015290519081900360640190fd5b60045461530d908261537e565b6004556040516001600160a01b0383169082156108fc029083906000818181858888f1935050505015801561347a573d6000803e3d6000fd5b60035490565b604051806040016040528060018152602001603160f81b81525081565b60006133ee836001600160a01b0384166155ce565b60006133ee83836040518060400160405280601e81526020017f536166654d6174683a207375627472616374696f6e206f766572666c6f770000815250615618565b3390565b60008281526020819052604090206153dc9082615369565b15611bdc576153e96153c0565b6001600160a01b0316816001600160a01b0316837f2f8788117e7eff1d82e926ec794901d17c78024a50270940304540a733656f0d60405160405180910390a45050565b600082815260208190526040902061544590826156af565b15611bdc576154526153c0565b6001600160a01b0316816001600160a01b0316837ff6391f5c32d9c69d2a47ea670b442974b53935d1edc7fd64eb21e047a839171b60405160405180910390a45050565b6000828201838110156133ee576040805162461bcd60e51b815260206004820152601b60248201527f536166654d6174683a206164646974696f6e206f766572666c6f770000000000604482015290519081900360640190fd5b604080516001600160a01b0380861660248301528416604482015260648082018490528251808303909101815260849091019091526020810180516001600160e01b03166323b872dd60e01b17905261554a9085906156c4565b50505050565b60006133ee8383615775565b60006133ee836001600160a01b0384166157d9565b604080516001600160a01b038416602482015260448082018490528251808303909101815260649091019091526020810180516001600160e01b031663a9059cbb60e01b17905261347a9084906156c4565b60006133f1826157f1565b60006155da83836157d9565b615610575081546001818101845560008481526020808220909301849055845484825282860190935260409020919091556133f1565b5060006133f1565b600081848411156156a75760405162461bcd60e51b81526004018080602001828103825283818151815260200191508051906020019080838360005b8381101561566c578181015183820152602001615654565b50505050905090810190601f1680156156995780820380516001836020036101000a031916815260200191505b509250505060405180910390fd5b505050900390565b60006133ee836001600160a01b0384166157f5565b6060615719826040518060400160405280602081526020017f5361666545524332303a206c6f772d6c6576656c2063616c6c206661696c6564815250856001600160a01b03166158bb9092919063ffffffff16565b80519091501561347a5780806020019051602081101561573857600080fd5b505161347a5760405162461bcd60e51b815260040180806020018281038252602a815260200180615c75602a913960400191505060405180910390fd5b815460009082106157b75760405162461bcd60e51b8152600401808060200182810382526022815260200180615a996022913960400191505060405180910390fd5b8260000182815481106157c657fe5b9060005260206000200154905092915050565b60009081526001919091016020526040902054151590565b5490565b600081815260018301602052604081205480156158b1578354600019808301919081019060009087908390811061582857fe5b906000526020600020015490508087600001848154811061584557fe5b60009182526020808320909101929092558281526001898101909252604090209084019055865487908061587557fe5b600190038181906000526020600020016000905590558660010160008781526020019081526020016000206000905560019450505050506133f1565b60009150506133f1565b60606158ca84846000856158d2565b949350505050565b60606158dd85615a3f565b61592e576040805162461bcd60e51b815260206004820152601d60248201527f416464726573733a2063616c6c20746f206e6f6e2d636f6e7472616374000000604482015290519081900360640190fd5b60006060866001600160a01b031685876040518082805190602001908083835b6020831061596d5780518252601f19909201916020918201910161594e565b6001836020036101000a03801982511681845116808217855250505050505090500191505060006040518083038185875af1925050503d80600081146159cf576040519150601f19603f3d011682016040523d82523d6000602084013e6159d4565b606091505b509150915081156159e85791506158ca9050565b8051156159f85780518082602001fd5b60405162461bcd60e51b815260206004820181815286516024840152865187939192839260440191908501908083836000831561566c578181015183820152602001615654565b6000813f7fc5d2460186f7233c927e7db2dcc703c0e500b653ca82273b7bfad8045d85a4708181148015906158ca575050151592915050565b60408051606081018252600080825260208201819052918101919091529056fe456e756d657261626c655365743a20696e646578206f7574206f6620626f756e6473536166655472616e736665723a2072657175657374206e6f7420657869737400416363657373436f6e74726f6c3a2073656e646572206d75737420626520616e2061646d696e20746f206772616e74536166655472616e736665723a2077726f6e6720736563726574000000000000536166655472616e736665723a206175746f5265747269657665466565732065786565642066656573536166655472616e6665723a206e6f7420617661696c61626c65207965740000536166655472616e736665723a206e6f7420616e20616374697661746f720000ec5aad7bdface20c35bc02d6d2d5760df981277427368525d634f4e2603ea192536166655472616e736665723a206d73672e76616c7565206d757374206d617463682066656573416363657373436f6e74726f6c3a2073656e646572206d75737420626520616e2061646d696e20746f207265766f6b65536166655472616e73666572733a206175746f5265747269657665466565732065786565642076616c7565536166655472616e736665723a20726571756573742065786973740000000000536166655472616e736665723a2073656e6465723d3d726563697069656e74005361666545524332303a204552433230206f7065726174696f6e20646964206e6f742073756363656564536166655472616e736665723a20616c72656164792065787069726564000000536166655472616e736665723a206e6f7420616363657074696e67206574686572206469726563746c79416363657373436f6e74726f6c3a2063616e206f6e6c792072656e6f756e636520726f6c657320666f722073656c66a264697066735822122092c40e560d5bb86d470bdb01b246aab23a0dd71ba00553186b961927e30de1ca64736f6c634300060c0033ec5aad7bdface20c35bc02d6d2d5760df981277427368525d634f4e2603ea192",
  "immutableReferences": {},
  "source": "// SPDX-License-Identifier: GPL-3.0-or-later\npragma solidity 0.6.12;\n\nimport \"../node_modules/@openzeppelin/contracts/math/SafeMath.sol\";\nimport \"../node_modules/@openzeppelin/contracts/access/AccessControl.sol\";\nimport \"../node_modules/@openzeppelin/contracts/token/ERC20/SafeERC20.sol\";\nimport \"../node_modules/@openzeppelin/contracts/token/ERC721/IERC721.sol\";\n\ncontract SafeTransfer is AccessControl {\n    using SafeMath for uint256;\n    using SafeERC20 for IERC20;\n\n    // keccak256(\"ACTIVATOR_ROLE\");\n    bytes32 public constant ACTIVATOR_ROLE = 0xec5aad7bdface20c35bc02d6d2d5760df981277427368525d634f4e2603ea192;\n\n    // keccak256(\"hiddenCollect(address from,address to,uint256 value,uint256 fees,bytes32 secretHash)\");\n    bytes32 public constant HIDDEN_COLLECT_TYPEHASH = 0x0506afef36f3613836f98ef019cb76a3e6112be8f9dc8d8fa77275d64f418234;\n\n    // keccak256(\"hiddenCollectERC20(address from,address to,address token,string tokenSymbol,uint256 value,uint256 fees,bytes32 secretHash)\");\n    bytes32 public constant HIDDEN_ERC20_COLLECT_TYPEHASH = 0x9e6214229b9fba1927010d30b22a3a5d9fd5e856bb29f056416ff2ad52e8de44;\n\n    // keccak256(\"hiddenCollectERC721(address from,address to,address token,string tokenSymbol,uint256 tokenId,bytes tokenData,uint256 fees,bytes32 secretHash)\");\n    bytes32 public constant HIDDEN_ERC721_COLLECT_TYPEHASH = 0xa14a2dc51c26e451800897aa798120e7d6c35039caf5eb29b8ac35d1e914c591;\n\n    bytes32 public DOMAIN_SEPARATOR;\n    uint256 public CHAIN_ID;\n    bytes32 s_uid;\n    uint256 s_fees;\n    \n    struct TokenInfo {\n        bytes32 id;\n        bytes32 id1;\n        uint256 tr;\n    }\n\n    mapping(bytes32 => uint256) s_transfers;\n    mapping(bytes32 => uint256) s_erc20Transfers;\n    mapping(bytes32 => uint256) s_erc721Transfers;\n    mapping(bytes32 => uint256) s_htransfers;\n\n    string public constant NAME = \"Kirobo Safe Transfer\";\n    string public constant VERSION = \"1\";\n    uint8 public constant VERSION_NUMBER = 0x1;\n\n    event Deposited(\n        address indexed from,\n        address indexed to,\n        uint256 value,\n        uint256 fees,\n        bytes32 secretHash\n    );\n    \n    event TimedDeposited(\n        address indexed from,\n        address indexed to,\n        uint256 value,\n        uint256 fees,\n        bytes32 secretHash,\n        uint64 availableAt,\n        uint64 expiresAt,\n        uint128 autoRetrieveFees\n    );\n    \n    event Retrieved(\n        address indexed from,\n        address indexed to,\n        bytes32 indexed id,\n        uint256 value\n    );    \n    \n    event Collected(\n        address indexed from,\n        address indexed to,\n        bytes32 indexed id,\n        uint256 value\n    );\n\n    event ERC20Deposited(\n        address indexed token,\n        address indexed from,\n        address indexed to,\n        uint256 value,\n        uint256 fees,\n        bytes32 secretHash\n    );\n\n    event ERC20TimedDeposited(\n        address indexed token,\n        address indexed from,\n        address indexed to,\n        uint256 value,\n        uint256 fees,\n        bytes32 secretHash,\n        uint64 availableAt,\n        uint64 expiresAt,\n        uint128 autoRetrieveFees\n    );\n\n    event ERC20Retrieved(\n        address indexed token,\n        address indexed from,\n        address indexed to,\n        bytes32 id,\n        uint256 value\n    );    \n    \n    event ERC20Collected(\n        address indexed token,\n        address indexed from,\n        address indexed to,\n        bytes32 id,\n        uint256 value\n    );\n\n    event ERC721Deposited(\n        address indexed token,\n        address indexed from,\n        address indexed to,\n        uint256 tokenId,\n        uint256 fees,\n        bytes32 secretHash\n    );\n\n    event ERC721TimedDeposited(\n        address indexed token,\n        address indexed from,\n        address indexed to,\n        uint256 tokenId,\n        uint256 fees,\n        bytes32 secretHash,\n        uint64 availableAt,\n        uint64 expiresAt,\n        uint128 autoRetrieveFees\n    );\n\n    event ERC721Retrieved(\n        address indexed token,\n        address indexed from,\n        address indexed to,\n        bytes32 id,\n        uint256 tokenId\n    );    \n    \n    event ERC721Collected(\n        address indexed token,\n        address indexed from,\n        address indexed to,\n        bytes32 id,\n        uint256 tokenId\n    );\n\n    event HDeposited(\n        address indexed from,\n        uint256 value,\n        bytes32 indexed id1\n    );\n\n    event HTimedDeposited(\n        address indexed from,\n        uint256 value,\n        bytes32 indexed id1,\n        uint64 availableAt,\n        uint64 expiresAt,\n        uint128 autoRetrieveFees\n    );\n\n    event HRetrieved(\n        address indexed from,\n        bytes32 indexed id1,\n        uint256 value\n    );\n\n    event HCollected(\n        address indexed from,\n        address indexed to,\n        bytes32 indexed id1,\n        uint256 value\n    );\n\n    event HERC20Collected(\n        address indexed token,\n        address indexed from,\n        address indexed to,\n        bytes32 id1,\n        uint256 value\n    );\n\n    event HERC721Collected(\n        address indexed token,\n        address indexed from,\n        address indexed to,\n        bytes32 id1,\n        uint256 tokenId\n    );\n\n    modifier onlyActivator() {\n        require(hasRole(ACTIVATOR_ROLE, msg.sender), \"SafeTransfer: not an activator\");    \n        _;\n    }\n\n    constructor (address activator) public {\n        _setupRole(DEFAULT_ADMIN_ROLE, msg.sender);\n        _setupRole(ACTIVATOR_ROLE, msg.sender);\n        _setupRole(ACTIVATOR_ROLE, activator);\n\n        uint256 chainId;\n        assembly {\n            chainId := chainid()\n        }\n\n        CHAIN_ID = chainId;\n\n        s_uid = bytes32(\n          uint256(VERSION_NUMBER) << 248 |\n          uint256(blockhash(block.number-1)) << 192 >> 16 |\n          uint256(address(this))\n        );\n\n        DOMAIN_SEPARATOR = keccak256(\n            abi.encode(\n                keccak256(\"EIP712Domain(string name,string version,uint256 chainId,address verifyingContract,bytes32 salt)\"),\n                keccak256(bytes(NAME)),\n                keccak256(bytes(VERSION)),\n                chainId,\n                address(this),\n                s_uid\n            )\n        );\n\n    }\n\n    receive () external payable {\n        require(false, \"SafeTransfer: not accepting ether directly\");\n    }\n\n    function transferERC20(address token, address wallet, uint256 value) external onlyActivator() {\n        IERC20(token).safeTransfer(wallet, value);\n    }\n\n    function transferERC721(address token, address wallet, uint256 tokenId, bytes calldata data) external onlyActivator() {\n        IERC721(token).safeTransferFrom(address(this), wallet, tokenId, data);\n    }\n\n    function transferFees(address payable wallet, uint256 value) external onlyActivator() {\n        s_fees = s_fees.sub(value);\n        wallet.transfer(value);\n    }\n\n    function totalFees() external view returns (uint256) {\n        return s_fees;\n    }\n\n    function uid() view external returns (bytes32) {\n        return s_uid;\n    }\n\n    // --------------------------------- ETH ---------------------------------\n\n    function deposit(\n        address payable to,\n        uint256 value,\n        uint256 fees,\n        bytes32 secretHash\n    ) \n        payable external\n    {\n        require(msg.value == value.add(fees), \"SafeTransfer: value mismatch\");\n        require(to != msg.sender, \"SafeTransfer: sender==recipient\");\n        bytes32 id = keccak256(abi.encode(msg.sender, to, value, fees, secretHash));\n        require(s_transfers[id] == 0, \"SafeTransfer: request exist\"); \n        s_transfers[id] = 0xffffffffffffffff; // expiresAt: max, AvailableAt: 0, autoRetrieveFees: 0\n        emit Deposited(msg.sender, to, value, fees, secretHash);\n    }\n\n    function timedDeposit(\n        address payable to,\n        uint256 value,\n        uint256 fees,\n        bytes32 secretHash,\n        uint64 availableAt,\n        uint64 expiresAt,\n        uint128 autoRetrieveFees\n    ) \n        payable external\n    {\n        require(msg.value == value.add(fees), \"SafeTransfer: value mismatch\");\n        require(fees >= autoRetrieveFees, \"SafeTransfer: autoRetrieveFees exeed fees\");\n        require(to != msg.sender, \"SafeTransfer: sender==recipient\");\n        require(expiresAt > now, \"SafeTransfer: already expired\");\n        bytes32 id = keccak256(abi.encode(msg.sender, to, value, fees, secretHash));\n        require(s_transfers[id] == 0, \"SafeTransfer: request exist\"); \n        s_transfers[id] = uint256(expiresAt) + uint256(availableAt << 64) + (uint256(autoRetrieveFees) << 128);\n        emit TimedDeposited(msg.sender, to, value, fees, secretHash, availableAt, expiresAt, autoRetrieveFees);\n    }\n\n    function retrieve(\n        address payable to,\n        uint256 value,\n        uint256 fees,\n        bytes32 secretHash\n    )   \n        external \n    {\n        bytes32 id = keccak256(abi.encode(msg.sender, to, value, fees, secretHash));\n        require(s_transfers[id]  > 0, \"SafeTransfer: request not exist\");\n        delete s_transfers[id];\n        uint256 valueToSend = value.add(fees);\n        msg.sender.transfer(valueToSend);\n        emit Retrieved(msg.sender, to, id, valueToSend);\n    }\n\n    function collect(\n        address from,\n        address payable to,\n        uint256 value,\n        uint256 fees,\n        bytes32 secretHash,\n        bytes calldata secret\n    ) \n        external\n        onlyActivator()\n    {\n        bytes32 id = keccak256(abi.encode(from, to, value, fees, secretHash));\n        uint256 tr = s_transfers[id];\n        require(tr > 0, \"SafeTransfer: request not exist\");\n        require(uint64(tr) > now, \"SafeTranfer: expired\");\n        require(uint64(tr>>64) <= now, \"SafeTranfer: not available yet\");\n        require(keccak256(secret) == secretHash, \"SafeTransfer: wrong secret\");\n        delete s_transfers[id];\n        s_fees = s_fees.add(fees);\n        to.transfer(value);\n        emit Collected(from, to, id, value);\n    }\n\n   function autoRetrieve(\n        address payable from,\n        address to,\n        uint256 value,\n        uint256 fees,\n        bytes32 secretHash\n    ) \n        external\n        onlyActivator()\n    {\n        bytes32 id = keccak256(abi.encode(from, to, value, fees, secretHash));\n        uint256 tr = s_transfers[id];\n        require(tr > 0, \"SafeTransfer: request not exist\");\n        require(uint64(tr) <= now, \"SafeTranfer: not expired\");\n        delete  s_transfers[id];\n        s_fees = s_fees + (tr>>128); // autoRetreive fees\n        uint256 valueToRetrieve = value.add(fees).sub(tr>>128);\n        from.transfer(valueToRetrieve);\n        emit Retrieved(from, to, id, valueToRetrieve);\n    }\n\n    // ------------------------------- ERC-20 --------------------------------\n\n    function depositERC20(\n        address token,\n        string calldata tokenSymbol,\n        address to,\n        uint256 value,\n        uint256 fees,\n        bytes32 secretHash\n    ) \n        payable external\n    {\n        require(msg.value == fees, \"SafeTransfer: msg.value must match fees\");\n        require(to != msg.sender, \"SafeTransfer: sender==recipient\");\n        bytes32 id = keccak256(abi.encode(token, tokenSymbol, msg.sender, to, value, fees, secretHash));\n        require(s_erc20Transfers[id] == 0, \"SafeTransfer: request exist\"); \n        s_erc20Transfers[id] = 0xffffffffffffffff;\n        emit ERC20Deposited(token, msg.sender, to, value, fees, secretHash);\n    }\n\n    function timedDepositERC20(\n        address token,\n        string calldata tokenSymbol,\n        address to,\n        uint256 value,\n        uint256 fees,\n        bytes32 secretHash,\n        uint64 availableAt,\n        uint64 expiresAt,\n        uint128 autoRetrieveFees\n    ) \n        payable external\n    {\n        require(msg.value == fees, \"SafeTransfer: msg.value must match fees\");\n        require(fees >= autoRetrieveFees, \"SafeTransfer: autoRetrieveFees exeed fees\");\n        require(to != msg.sender, \"SafeTransfer: sender==recipient\");\n        require(expiresAt > now, \"SafeTransfer: already expired\");\n        bytes32 id = keccak256(abi.encode(token, tokenSymbol, msg.sender, to, value, fees, secretHash));\n        require(s_erc20Transfers[id] == 0, \"SafeTransfer: request exist\"); \n        s_erc20Transfers[id] = uint256(expiresAt) + (uint256(availableAt) << 64) + (uint256(autoRetrieveFees) << 128);\n        emit ERC20TimedDeposited(token, msg.sender, to, value, fees, secretHash, availableAt, expiresAt, autoRetrieveFees);\n    }\n\n    function retrieveERC20(\n        address token,\n        string calldata tokenSymbol,\n        address to,\n        uint256 value,\n        uint256 fees,\n        bytes32 secretHash\n    )   \n        external \n    {\n        bytes32 id = keccak256(abi.encode(token, tokenSymbol, msg.sender, to, value, fees, secretHash));\n        require(s_erc20Transfers[id]  > 0, \"SafeTransfer: request not exist\");\n        delete s_erc20Transfers[id];\n        msg.sender.transfer(fees);\n        emit ERC20Retrieved(token, msg.sender, to, id, value);\n    }\n\n    function collectERC20(\n        address token,\n        string calldata tokenSymbol,\n        address from,\n        address payable to,\n        uint256 value,\n        uint256 fees,\n        bytes32 secretHash,\n        bytes calldata secret\n    ) \n        external\n        onlyActivator()\n    {\n        bytes32 id = keccak256(abi.encode(token, tokenSymbol, from, to, value, fees, secretHash));\n        uint256 tr = s_erc20Transfers[id];\n        require(tr > 0, \"SafeTransfer: request not exist\");\n        require(uint64(tr) > now, \"SafeTranfer: expired\");\n        require(uint64(tr>>64) <= now, \"SafeTranfer: not available yet\");\n        require(keccak256(secret) == secretHash, \"SafeTransfer: wrong secret\");\n        delete s_erc20Transfers[id];\n        s_fees = s_fees.add(fees);\n        IERC20(token).safeTransferFrom(from, to, value);\n        emit ERC20Collected(token, from, to, id, value);\n    }\n\n   function autoRetrieveERC20(\n        address token,\n        string calldata tokenSymbol,\n        address payable from,\n        address to,\n        uint256 value,\n        uint256 fees,\n        bytes32 secretHash\n    ) \n        external\n        onlyActivator()\n    {\n        bytes32 id = keccak256(abi.encode(token, tokenSymbol, from, to, value, fees, secretHash));\n        uint256 tr = s_erc20Transfers[id];\n        require(tr > 0, \"SafeTransfer: request not exist\");\n        require(uint64(tr) <= now, \"SafeTranfer: not expired\");\n        delete  s_erc20Transfers[id];\n        s_fees = s_fees + (tr>>128); // autoRetreive fees\n        from.transfer(fees.sub(tr>>128));\n        emit ERC20Retrieved(token, from, to, id, value);\n    }\n\n    // ------------------------------- ERC-721 -------------------------------\n\n    function depositERC721(\n        address token,\n        string calldata tokenSymbol,\n        address to,\n        uint256 tokenId,\n        bytes calldata tokenData,\n        uint256 fees,\n        bytes32 secretHash\n    ) \n        payable external\n    {\n        require(msg.value == fees, \"SafeTransfer: msg.value must match fees\");\n        require(tokenId > 0, \"SafeTransfer: no token id\");\n        require(to != msg.sender, \"SafeTransfer: sender==recipient\");\n        bytes32 id = keccak256(abi.encode(token, tokenSymbol, msg.sender, to, tokenId, tokenData, fees, secretHash));\n        require(s_erc721Transfers[id] == 0, \"SafeTransfer: request exist\"); \n        s_erc721Transfers[id] = 0xffffffffffffffff;\n        emit ERC721Deposited(token, msg.sender, to, tokenId, fees, secretHash);\n    }\n\n    function timedDepositERC721(\n        address token,\n        string calldata tokenSymbol,\n        address to,\n        uint256 tokenId,\n        bytes calldata tokenData,\n        uint256 fees,\n        bytes32 secretHash,\n        uint64 availableAt,\n        uint64 expiresAt,\n        uint128 autoRetrieveFees\n    ) \n        payable external\n    {\n        require(msg.value == fees, \"SafeTransfer: msg.value must match fees\");\n        require(fees >= autoRetrieveFees, \"SafeTransfer: autoRetrieveFees exeed fees\");\n        require(tokenId > 0, \"SafeTransfer: no token id\");\n        require(to != msg.sender, \"SafeTransfer: sender==recipient\");\n        require(expiresAt > now, \"SafeTransfer: already expired\");\n        bytes32 id = keccak256(abi.encode(token, tokenSymbol, msg.sender, to, tokenId, tokenData, fees, secretHash));\n        require(s_erc721Transfers[id] == 0, \"SafeTransfer: request exist\"); \n        s_erc721Transfers[id] = uint256(expiresAt) + (uint256(availableAt) << 64) + (uint256(autoRetrieveFees) << 128);\n        emit ERC721TimedDeposited(token, msg.sender, to, tokenId, fees, secretHash, availableAt, expiresAt, autoRetrieveFees);\n    }\n\n    function retrieveERC721(\n        address token,\n        string calldata tokenSymbol,\n        address to,\n        uint256 tokenId,\n        bytes calldata tokenData,\n        uint256 fees,\n        bytes32 secretHash\n    )   \n        external \n    {\n        bytes32 id = keccak256(abi.encode(token, tokenSymbol, msg.sender, to, tokenId, tokenData, fees, secretHash));\n        require(s_erc721Transfers[id]  > 0, \"SafeTransfer: request not exist\");\n        delete s_erc721Transfers[id];\n        msg.sender.transfer(fees);\n        emit ERC721Retrieved(token, msg.sender, to, id, tokenId);\n    }\n\n    function collectERC721(\n        address token,\n        string calldata tokenSymbol,\n        address from,\n        address payable to,\n        uint256 tokenId,\n        bytes calldata tokenData,\n        uint256 fees,\n        bytes32 secretHash,\n        bytes calldata secret\n    ) \n        external\n        onlyActivator()\n    {\n        bytes32 id = keccak256(abi.encode(token, tokenSymbol, from, to, tokenId, tokenData, fees, secretHash));\n        uint256 tr = s_erc721Transfers[id];\n        require(tr > 0, \"SafeTransfer: request not exist\");\n        require(uint64(tr) > now, \"SafeTranfer: expired\");\n        require(uint64(tr>>64) <= now, \"SafeTranfer: not available yet\");\n        require(keccak256(secret) == secretHash, \"SafeTransfer: wrong secret\");\n        delete s_erc721Transfers[id];\n        s_fees = s_fees.add(fees);\n        IERC721(token).safeTransferFrom(from, to, tokenId, tokenData);\n        emit ERC721Collected(token, from, to, id, tokenId);\n    }\n\n   function autoRetrieveERC721(\n        address token,\n        string calldata tokenSymbol,\n        address payable from,\n        address to,\n        uint256 tokenId,\n        bytes calldata tokenData,\n        uint256 fees,\n        bytes32 secretHash\n    ) \n        external\n        onlyActivator()\n    {\n        bytes32 id = keccak256(abi.encode(token, tokenSymbol, from, to, tokenId, tokenData, fees, secretHash));\n        uint256 tr = s_erc721Transfers[id];\n        require(tr > 0, \"SafeTransfer: request not exist\");\n        require(uint64(tr) <= now, \"SafeTranfer: not expired\");\n        delete  s_erc721Transfers[id];\n        s_fees = s_fees + (tr>>128); // autoRetreive fees\n        from.transfer(fees.sub(tr>>128));\n        emit ERC721Retrieved(token, from, to, id, tokenId);\n    }\n\n    // ----------------------- Hidden ETH / ERC-20 / ERC-721 -----------------------\n\n    function hiddenDeposit(bytes32 id1) \n        payable external\n    {\n        bytes32 id = keccak256(abi.encode(msg.sender, msg.value, id1));\n        require(s_htransfers[id] == 0, \"SafeTransfer: request exist\"); \n        s_htransfers[id] = 0xffffffffffffffff;\n        emit HDeposited(msg.sender, msg.value, id1);\n    }\n\n    function hiddenTimedDeposit(\n        bytes32 id1,\n        uint64 availableAt,\n        uint64 expiresAt,\n        uint128 autoRetrieveFees\n    ) \n        payable external\n    {\n        require(msg.value >= autoRetrieveFees, \"SafeTransfers: autoRetrieveFees exeed value\");\n        bytes32 id = keccak256(abi.encode(msg.sender, msg.value, id1));\n        require(s_htransfers[id] == 0, \"SafeTransfer: request exist\");\n        require(expiresAt > now, \"SafeTransfer: already expired\"); \n        s_htransfers[id] = uint256(expiresAt) + (uint256(availableAt) << 64) + (uint256(autoRetrieveFees) << 128);\n        emit HTimedDeposited(msg.sender, msg.value, id1, availableAt, expiresAt, autoRetrieveFees);\n    }\n\n    function hiddenRetrieve(\n        bytes32 id1,\n        uint256 value\n    )   \n        external \n    {\n        bytes32 id = keccak256(abi.encode(msg.sender, value, id1));\n        require(s_htransfers[id]  > 0, \"SafeTransfer: request not exist\");\n        delete s_htransfers[id];\n        msg.sender.transfer(value);\n        emit HRetrieved(msg.sender, id1, value);\n    }\n\n    function hiddenCollect(\n        address from,\n        address payable to,\n        uint256 value,\n        uint256 fees,\n        bytes32 secretHash,\n        bytes calldata secret,\n        uint8 v,\n        bytes32 r,\n        bytes32 s\n    ) \n        external\n        onlyActivator()\n    {\n        bytes32 id1 = keccak256(abi.encode(HIDDEN_COLLECT_TYPEHASH, from, to, value, fees, secretHash));\n        require(ecrecover(keccak256(abi.encodePacked(\"\\x19\\x01\", DOMAIN_SEPARATOR, id1)), v, r, s) == from, \"SafeTransfer: wrong signature\");\n        bytes32 id = keccak256(abi.encode(from, value.add(fees), id1));\n        uint256 tr = s_htransfers[id];\n        require(tr > 0, \"SafeTransfer: request not exist\");\n        require(uint64(tr) > now, \"SafeTranfer: expired\");\n        require(uint64(tr>>64) <= now, \"SafeTranfer: not available yet\");\n        require(keccak256(secret) == secretHash, \"SafeTransfer: wrong secret\");\n        delete s_htransfers[id];\n        s_fees = s_fees.add(fees);\n        to.transfer(value);\n        emit HCollected(from, to, id1, value);\n    }\n\n    function hiddenCollectERC20(\n        address from,\n        address to,\n        address token,\n        string memory tokenSymbol,\n        uint256 value,\n        uint256 fees,\n        bytes32 secretHash,\n        bytes calldata secret,\n        uint8 v,\n        bytes32 r,\n        bytes32 s\n    ) \n        external\n        onlyActivator()\n    {\n        TokenInfo memory tinfo;\n        tinfo.id1 = keccak256(abi.encode(HIDDEN_ERC20_COLLECT_TYPEHASH, from, to, token, tokenSymbol, value, fees, secretHash));\n        require(ecrecover(keccak256(abi.encodePacked(\"\\x19\\x01\", DOMAIN_SEPARATOR, tinfo.id1)), v, r, s) == from, \"SafeTransfer: wrong signature\");\n        tinfo.id = keccak256(abi.encode(from, fees, tinfo.id1));\n        uint256 tr = s_htransfers[tinfo.id];\n        require(tr > 0, \"SafeTransfer: request not exist\");\n        require(uint64(tr) > now, \"SafeTranfer: expired\");\n        require(uint64(tr>>64) <= now, \"SafeTranfer: not available yet\");\n        require(keccak256(secret) == secretHash, \"SafeTransfer: wrong secret\");\n        delete s_htransfers[tinfo.id];\n        s_fees = s_fees.add(fees);\n        IERC20(token).safeTransferFrom(from, to, value);\n        emit HERC20Collected(token, from, to, tinfo.id1, value);\n    }\n\n    function hiddenCollectERC721(\n        address from,\n        address to,\n        address token,\n        string memory tokenSymbol,\n        uint256 tokenId,\n        bytes memory tokenData,\n        uint256 fees,\n        bytes32 secretHash,\n        bytes calldata secret,\n        uint8 v,\n        bytes32 r,\n        bytes32 s\n    ) \n        external\n        onlyActivator()\n    {\n        TokenInfo memory tinfo;\n        tinfo.id1 = keccak256(abi.encode(HIDDEN_ERC721_COLLECT_TYPEHASH, from, to, token, tokenSymbol, tokenId, tokenData, fees, secretHash));\n        require(ecrecover(keccak256(abi.encodePacked(\"\\x19\\x01\", DOMAIN_SEPARATOR, tinfo.id1)), v, r, s) == from, \"SafeTransfer: wrong signature\");\n        tinfo.id = keccak256(abi.encode(from, fees, tinfo.id1));\n        tinfo.tr = s_htransfers[tinfo.id]; \n        require(tinfo.tr > 0, \"SafeTransfer: request not exist\");\n        require(uint64(tinfo.tr) > now, \"SafeTranfer: expired\");\n        require(uint64(tinfo.tr>>64) <= now, \"SafeTranfer: not available yet\");\n        require(keccak256(secret) == secretHash, \"SafeTransfer: wrong secret\");\n        delete s_htransfers[tinfo.id];\n        s_fees = s_fees.add(fees);\n        IERC721(token).safeTransferFrom(from, to, tokenId, tokenData);\n        emit HERC721Collected(token, from, to, tinfo.id1, tokenId);\n    }\n\n   function hiddenAutoRetrieve(\n        address payable from,\n        bytes32 id1,\n        uint256 value\n    ) \n        external\n        onlyActivator()\n    {\n        bytes32 id = keccak256(abi.encode(from, value, id1));\n        uint256 tr = s_htransfers[id];\n        require(tr > 0, \"SafeTransfer: request not exist\");\n        require(uint64(tr) <= now, \"SafeTranfer: not expired\");\n        delete  s_htransfers[id];\n        s_fees = s_fees + (tr>>128);\n        uint256 toRetrieve = value.sub(tr>>128);\n        from.transfer(toRetrieve);\n        emit HRetrieved(from, id1, toRetrieve);\n    }\n\n}\n",
  "sourcePath": "/Users/Tal/code/kirobo/ki-eth-token/contracts/SafeTransfer.sol",
  "compiler": {
    "name": "solc",
    "version": "0.6.12+commit.27d51765.Emscripten.clang"
  },
  "schemaVersion": "3.3.2",
  "updatedAt": "2020-11-08T18:16:03.380Z",
  "devdoc": {
    "kind": "dev",
    "methods": {
      "getRoleAdmin(bytes32)": {
        "details": "Returns the admin role that controls `role`. See {grantRole} and {revokeRole}. To change a role's admin, use {_setRoleAdmin}."
      },
      "getRoleMember(bytes32,uint256)": {
        "details": "Returns one of the accounts that have `role`. `index` must be a value between 0 and {getRoleMemberCount}, non-inclusive. Role bearers are not sorted in any particular way, and their ordering may change at any point. WARNING: When using {getRoleMember} and {getRoleMemberCount}, make sure you perform all queries on the same block. See the following https://forum.openzeppelin.com/t/iterating-over-elements-on-enumerableset-in-openzeppelin-contracts/2296[forum post] for more information."
      },
      "getRoleMemberCount(bytes32)": {
        "details": "Returns the number of accounts that have `role`. Can be used together with {getRoleMember} to enumerate all bearers of a role."
      },
      "grantRole(bytes32,address)": {
        "details": "Grants `role` to `account`. If `account` had not been already granted `role`, emits a {RoleGranted} event. Requirements: - the caller must have ``role``'s admin role."
      },
      "hasRole(bytes32,address)": {
        "details": "Returns `true` if `account` has been granted `role`."
      },
      "renounceRole(bytes32,address)": {
        "details": "Revokes `role` from the calling account. Roles are often managed via {grantRole} and {revokeRole}: this function's purpose is to provide a mechanism for accounts to lose their privileges if they are compromised (such as when a trusted device is misplaced). If the calling account had been granted `role`, emits a {RoleRevoked} event. Requirements: - the caller must be `account`."
      },
      "revokeRole(bytes32,address)": {
        "details": "Revokes `role` from `account`. If `account` had been granted `role`, emits a {RoleRevoked} event. Requirements: - the caller must have ``role``'s admin role."
      }
    },
    "version": 1
  },
  "userdoc": {
    "kind": "user",
    "methods": {},
    "version": 1
  }
}