{
  "contractName": "SafeForERC1155",
  "abi": [
    {
      "inputs": [
        {
          "internalType": "address",
          "name": "activator",
          "type": "address"
        }
      ],
      "stateMutability": "nonpayable",
      "type": "constructor"
    },
    {
      "anonymous": false,
      "inputs": [
        {
          "indexed": true,
          "internalType": "address",
          "name": "token",
          "type": "address"
        },
        {
          "indexed": true,
          "internalType": "address",
          "name": "from",
          "type": "address"
        },
        {
          "indexed": true,
          "internalType": "address",
          "name": "to",
          "type": "address"
        },
        {
          "indexed": false,
          "internalType": "uint256[]",
          "name": "tokenIds",
          "type": "uint256[]"
        },
        {
          "indexed": false,
          "internalType": "uint256[]",
          "name": "values",
          "type": "uint256[]"
        },
        {
          "indexed": false,
          "internalType": "uint256",
          "name": "fees",
          "type": "uint256"
        },
        {
          "indexed": false,
          "internalType": "bytes32",
          "name": "secretHash",
          "type": "bytes32"
        }
      ],
      "name": "ERC1155BatchTransferDeposited",
      "type": "event"
    },
    {
      "anonymous": false,
      "inputs": [
        {
          "indexed": true,
          "internalType": "address",
          "name": "token",
          "type": "address"
        },
        {
          "indexed": true,
          "internalType": "address",
          "name": "from",
          "type": "address"
        },
        {
          "indexed": true,
          "internalType": "address",
          "name": "to",
          "type": "address"
        },
        {
          "indexed": false,
          "internalType": "uint256[]",
          "name": "tokenIds",
          "type": "uint256[]"
        },
        {
          "indexed": false,
          "internalType": "uint256[]",
          "name": "values",
          "type": "uint256[]"
        }
      ],
      "name": "ERC1155BatchTransferRetrieved",
      "type": "event"
    },
    {
      "anonymous": false,
      "inputs": [
        {
          "indexed": true,
          "internalType": "address",
          "name": "token",
          "type": "address"
        },
        {
          "indexed": true,
          "internalType": "address",
          "name": "from",
          "type": "address"
        },
        {
          "indexed": true,
          "internalType": "address",
          "name": "to",
          "type": "address"
        },
        {
          "indexed": false,
          "internalType": "bytes32",
          "name": "id",
          "type": "bytes32"
        }
      ],
      "name": "ERC1155Collected",
      "type": "event"
    },
    {
      "anonymous": false,
      "inputs": [
        {
          "indexed": true,
          "internalType": "address",
          "name": "token",
          "type": "address"
        },
        {
          "indexed": true,
          "internalType": "address",
          "name": "from",
          "type": "address"
        },
        {
          "indexed": true,
          "internalType": "address",
          "name": "to",
          "type": "address"
        },
        {
          "indexed": false,
          "internalType": "uint256",
          "name": "tokenId",
          "type": "uint256"
        },
        {
          "indexed": false,
          "internalType": "uint256",
          "name": "value",
          "type": "uint256"
        },
        {
          "indexed": false,
          "internalType": "uint256",
          "name": "fees",
          "type": "uint256"
        },
        {
          "indexed": false,
          "internalType": "bytes32",
          "name": "secretHash",
          "type": "bytes32"
        }
      ],
      "name": "ERC1155TransferDeposited",
      "type": "event"
    },
    {
      "anonymous": false,
      "inputs": [
        {
          "indexed": true,
          "internalType": "address",
          "name": "token",
          "type": "address"
        },
        {
          "indexed": true,
          "internalType": "address",
          "name": "from",
          "type": "address"
        },
        {
          "indexed": true,
          "internalType": "address",
          "name": "to",
          "type": "address"
        },
        {
          "indexed": false,
          "internalType": "bytes32",
          "name": "id",
          "type": "bytes32"
        }
      ],
      "name": "ERC1155TransferRetrieved",
      "type": "event"
    },
    {
      "anonymous": false,
      "inputs": [
        {
          "indexed": true,
          "internalType": "address",
          "name": "from",
          "type": "address"
        },
        {
          "indexed": false,
          "internalType": "uint256",
          "name": "value",
          "type": "uint256"
        },
        {
          "indexed": true,
          "internalType": "bytes32",
          "name": "id1",
          "type": "bytes32"
        }
      ],
      "name": "HiddenERC1155Deposited",
      "type": "event"
    },
    {
      "anonymous": false,
      "inputs": [
        {
          "indexed": true,
          "internalType": "address",
          "name": "from",
          "type": "address"
        },
        {
          "indexed": true,
          "internalType": "bytes32",
          "name": "id1",
          "type": "bytes32"
        },
        {
          "indexed": false,
          "internalType": "uint256",
          "name": "value",
          "type": "uint256"
        }
      ],
      "name": "HiddenERC1155Retrieved",
      "type": "event"
    },
    {
      "anonymous": false,
      "inputs": [
        {
          "indexed": true,
          "internalType": "address",
          "name": "from",
          "type": "address"
        },
        {
          "indexed": false,
          "internalType": "uint256",
          "name": "value",
          "type": "uint256"
        },
        {
          "indexed": true,
          "internalType": "bytes32",
          "name": "id1",
          "type": "bytes32"
        },
        {
          "indexed": false,
          "internalType": "uint64",
          "name": "availableAt",
          "type": "uint64"
        },
        {
          "indexed": false,
          "internalType": "uint64",
          "name": "expiresAt",
          "type": "uint64"
        },
        {
          "indexed": false,
          "internalType": "uint128",
          "name": "autoRetrieveFees",
          "type": "uint128"
        }
      ],
      "name": "HiddenERC1155TimedDeposited",
      "type": "event"
    },
    {
      "anonymous": false,
      "inputs": [
        {
          "indexed": true,
          "internalType": "address",
          "name": "from",
          "type": "address"
        },
        {
          "indexed": true,
          "internalType": "address",
          "name": "to",
          "type": "address"
        },
        {
          "indexed": true,
          "internalType": "bytes32",
          "name": "id",
          "type": "bytes32"
        },
        {
          "indexed": false,
          "internalType": "uint256",
          "name": "value",
          "type": "uint256"
        }
      ],
      "name": "Retrieved",
      "type": "event"
    },
    {
      "anonymous": false,
      "inputs": [
        {
          "indexed": true,
          "internalType": "bytes32",
          "name": "role",
          "type": "bytes32"
        },
        {
          "indexed": true,
          "internalType": "bytes32",
          "name": "previousAdminRole",
          "type": "bytes32"
        },
        {
          "indexed": true,
          "internalType": "bytes32",
          "name": "newAdminRole",
          "type": "bytes32"
        }
      ],
      "name": "RoleAdminChanged",
      "type": "event"
    },
    {
      "anonymous": false,
      "inputs": [
        {
          "indexed": true,
          "internalType": "bytes32",
          "name": "role",
          "type": "bytes32"
        },
        {
          "indexed": true,
          "internalType": "address",
          "name": "account",
          "type": "address"
        },
        {
          "indexed": true,
          "internalType": "address",
          "name": "sender",
          "type": "address"
        }
      ],
      "name": "RoleGranted",
      "type": "event"
    },
    {
      "anonymous": false,
      "inputs": [
        {
          "indexed": true,
          "internalType": "bytes32",
          "name": "role",
          "type": "bytes32"
        },
        {
          "indexed": true,
          "internalType": "address",
          "name": "account",
          "type": "address"
        },
        {
          "indexed": true,
          "internalType": "address",
          "name": "sender",
          "type": "address"
        }
      ],
      "name": "RoleRevoked",
      "type": "event"
    },
    {
      "anonymous": false,
      "inputs": [
        {
          "indexed": true,
          "internalType": "address",
          "name": "token",
          "type": "address"
        },
        {
          "indexed": true,
          "internalType": "address",
          "name": "from",
          "type": "address"
        },
        {
          "indexed": true,
          "internalType": "address",
          "name": "to",
          "type": "address"
        },
        {
          "indexed": false,
          "internalType": "uint256[]",
          "name": "tokenIds",
          "type": "uint256[]"
        },
        {
          "indexed": false,
          "internalType": "uint256[]",
          "name": "values",
          "type": "uint256[]"
        },
        {
          "indexed": false,
          "internalType": "uint256",
          "name": "fees",
          "type": "uint256"
        },
        {
          "indexed": false,
          "internalType": "bytes32",
          "name": "secretHash",
          "type": "bytes32"
        },
        {
          "indexed": false,
          "internalType": "uint64",
          "name": "availableAt",
          "type": "uint64"
        },
        {
          "indexed": false,
          "internalType": "uint64",
          "name": "expiresAt",
          "type": "uint64"
        },
        {
          "indexed": false,
          "internalType": "uint128",
          "name": "autoRetrieveFees",
          "type": "uint128"
        }
      ],
      "name": "TimedERC1155BatchTransferDeposited",
      "type": "event"
    },
    {
      "anonymous": false,
      "inputs": [
        {
          "indexed": true,
          "internalType": "address",
          "name": "token",
          "type": "address"
        },
        {
          "indexed": true,
          "internalType": "address",
          "name": "from",
          "type": "address"
        },
        {
          "indexed": true,
          "internalType": "address",
          "name": "to",
          "type": "address"
        },
        {
          "indexed": false,
          "internalType": "uint256",
          "name": "tokenId",
          "type": "uint256"
        },
        {
          "indexed": false,
          "internalType": "uint256",
          "name": "value",
          "type": "uint256"
        },
        {
          "indexed": false,
          "internalType": "uint256",
          "name": "fees",
          "type": "uint256"
        },
        {
          "indexed": false,
          "internalType": "bytes32",
          "name": "secretHash",
          "type": "bytes32"
        },
        {
          "indexed": false,
          "internalType": "uint64",
          "name": "availableAt",
          "type": "uint64"
        },
        {
          "indexed": false,
          "internalType": "uint64",
          "name": "expiresAt",
          "type": "uint64"
        },
        {
          "indexed": false,
          "internalType": "uint128",
          "name": "autoRetrieveFees",
          "type": "uint128"
        }
      ],
      "name": "TimedERC1155TransferDeposited",
      "type": "event"
    },
    {
      "inputs": [],
      "name": "ACTIVATOR_ROLE",
      "outputs": [
        {
          "internalType": "bytes32",
          "name": "",
          "type": "bytes32"
        }
      ],
      "stateMutability": "view",
      "type": "function"
    },
    {
      "inputs": [],
      "name": "CHAIN_ID",
      "outputs": [
        {
          "internalType": "uint256",
          "name": "",
          "type": "uint256"
        }
      ],
      "stateMutability": "view",
      "type": "function"
    },
    {
      "inputs": [],
      "name": "DEFAULT_ADMIN_ROLE",
      "outputs": [
        {
          "internalType": "bytes32",
          "name": "",
          "type": "bytes32"
        }
      ],
      "stateMutability": "view",
      "type": "function"
    },
    {
      "inputs": [],
      "name": "DOMAIN_SEPARATOR",
      "outputs": [
        {
          "internalType": "bytes32",
          "name": "",
          "type": "bytes32"
        }
      ],
      "stateMutability": "view",
      "type": "function"
    },
    {
      "inputs": [],
      "name": "HIDDEN_COLLECT_TYPEHASH",
      "outputs": [
        {
          "internalType": "bytes32",
          "name": "",
          "type": "bytes32"
        }
      ],
      "stateMutability": "view",
      "type": "function"
    },
    {
      "inputs": [],
      "name": "HIDDEN_ERC20_COLLECT_TYPEHASH",
      "outputs": [
        {
          "internalType": "bytes32",
          "name": "",
          "type": "bytes32"
        }
      ],
      "stateMutability": "view",
      "type": "function"
    },
    {
      "inputs": [],
      "name": "HIDDEN_ERC721_COLLECT_TYPEHASH",
      "outputs": [
        {
          "internalType": "bytes32",
          "name": "",
          "type": "bytes32"
        }
      ],
      "stateMutability": "view",
      "type": "function"
    },
    {
      "inputs": [],
      "name": "NAME",
      "outputs": [
        {
          "internalType": "string",
          "name": "",
          "type": "string"
        }
      ],
      "stateMutability": "view",
      "type": "function"
    },
    {
      "inputs": [],
      "name": "VERSION",
      "outputs": [
        {
          "internalType": "string",
          "name": "",
          "type": "string"
        }
      ],
      "stateMutability": "view",
      "type": "function"
    },
    {
      "inputs": [],
      "name": "VERSION_NUMBER",
      "outputs": [
        {
          "internalType": "uint8",
          "name": "",
          "type": "uint8"
        }
      ],
      "stateMutability": "view",
      "type": "function"
    },
    {
      "inputs": [
        {
          "internalType": "bytes32",
          "name": "role",
          "type": "bytes32"
        }
      ],
      "name": "getRoleAdmin",
      "outputs": [
        {
          "internalType": "bytes32",
          "name": "",
          "type": "bytes32"
        }
      ],
      "stateMutability": "view",
      "type": "function"
    },
    {
      "inputs": [
        {
          "internalType": "bytes32",
          "name": "role",
          "type": "bytes32"
        },
        {
          "internalType": "uint256",
          "name": "index",
          "type": "uint256"
        }
      ],
      "name": "getRoleMember",
      "outputs": [
        {
          "internalType": "address",
          "name": "",
          "type": "address"
        }
      ],
      "stateMutability": "view",
      "type": "function"
    },
    {
      "inputs": [
        {
          "internalType": "bytes32",
          "name": "role",
          "type": "bytes32"
        }
      ],
      "name": "getRoleMemberCount",
      "outputs": [
        {
          "internalType": "uint256",
          "name": "",
          "type": "uint256"
        }
      ],
      "stateMutability": "view",
      "type": "function"
    },
    {
      "inputs": [
        {
          "internalType": "bytes32",
          "name": "role",
          "type": "bytes32"
        },
        {
          "internalType": "address",
          "name": "account",
          "type": "address"
        }
      ],
      "name": "grantRole",
      "outputs": [],
      "stateMutability": "nonpayable",
      "type": "function"
    },
    {
      "inputs": [
        {
          "internalType": "bytes32",
          "name": "role",
          "type": "bytes32"
        },
        {
          "internalType": "address",
          "name": "account",
          "type": "address"
        }
      ],
      "name": "hasRole",
      "outputs": [
        {
          "internalType": "bool",
          "name": "",
          "type": "bool"
        }
      ],
      "stateMutability": "view",
      "type": "function"
    },
    {
      "inputs": [
        {
          "internalType": "bytes32",
          "name": "role",
          "type": "bytes32"
        },
        {
          "internalType": "address",
          "name": "account",
          "type": "address"
        }
      ],
      "name": "renounceRole",
      "outputs": [],
      "stateMutability": "nonpayable",
      "type": "function"
    },
    {
      "inputs": [
        {
          "internalType": "bytes32",
          "name": "role",
          "type": "bytes32"
        },
        {
          "internalType": "address",
          "name": "account",
          "type": "address"
        }
      ],
      "name": "revokeRole",
      "outputs": [],
      "stateMutability": "nonpayable",
      "type": "function"
    },
    {
      "stateMutability": "payable",
      "type": "receive"
    },
    {
      "inputs": [
        {
          "internalType": "address payable",
          "name": "wallet",
          "type": "address"
        },
        {
          "internalType": "uint256",
          "name": "value",
          "type": "uint256"
        }
      ],
      "name": "transferFees",
      "outputs": [],
      "stateMutability": "nonpayable",
      "type": "function"
    },
    {
      "inputs": [],
      "name": "totalFees",
      "outputs": [
        {
          "internalType": "uint256",
          "name": "",
          "type": "uint256"
        }
      ],
      "stateMutability": "view",
      "type": "function"
    },
    {
      "inputs": [
        {
          "internalType": "address",
          "name": "token",
          "type": "address"
        },
        {
          "internalType": "address",
          "name": "to",
          "type": "address"
        },
        {
          "internalType": "uint256",
          "name": "tokenId",
          "type": "uint256"
        },
        {
          "internalType": "uint256",
          "name": "value",
          "type": "uint256"
        },
        {
          "internalType": "bytes",
          "name": "tokenData",
          "type": "bytes"
        },
        {
          "internalType": "uint256",
          "name": "fees",
          "type": "uint256"
        },
        {
          "internalType": "bytes32",
          "name": "secretHash",
          "type": "bytes32"
        }
      ],
      "name": "depositERC1155",
      "outputs": [],
      "stateMutability": "payable",
      "type": "function"
    },
    {
      "inputs": [
        {
          "internalType": "address",
          "name": "token",
          "type": "address"
        },
        {
          "internalType": "address",
          "name": "to",
          "type": "address"
        },
        {
          "internalType": "uint256",
          "name": "tokenId",
          "type": "uint256"
        },
        {
          "internalType": "uint256",
          "name": "value",
          "type": "uint256"
        },
        {
          "internalType": "bytes",
          "name": "tokenData",
          "type": "bytes"
        },
        {
          "internalType": "uint256",
          "name": "fees",
          "type": "uint256"
        },
        {
          "internalType": "bytes32",
          "name": "secretHash",
          "type": "bytes32"
        },
        {
          "internalType": "uint64",
          "name": "availableAt",
          "type": "uint64"
        },
        {
          "internalType": "uint64",
          "name": "expiresAt",
          "type": "uint64"
        },
        {
          "internalType": "uint128",
          "name": "autoRetrieveFees",
          "type": "uint128"
        }
      ],
      "name": "timedDepositERC1155",
      "outputs": [],
      "stateMutability": "payable",
      "type": "function"
    },
    {
      "inputs": [
        {
          "internalType": "address",
          "name": "token",
          "type": "address"
        },
        {
          "internalType": "address",
          "name": "to",
          "type": "address"
        },
        {
          "internalType": "uint256",
          "name": "tokenId",
          "type": "uint256"
        },
        {
          "internalType": "uint256",
          "name": "value",
          "type": "uint256"
        },
        {
          "internalType": "bytes",
          "name": "tokenData",
          "type": "bytes"
        },
        {
          "internalType": "uint256",
          "name": "fees",
          "type": "uint256"
        },
        {
          "internalType": "bytes32",
          "name": "secretHash",
          "type": "bytes32"
        }
      ],
      "name": "retrieveERC1155",
      "outputs": [],
      "stateMutability": "nonpayable",
      "type": "function"
    },
    {
      "inputs": [
        {
          "internalType": "address",
          "name": "token",
          "type": "address"
        },
        {
          "internalType": "address",
          "name": "from",
          "type": "address"
        },
        {
          "internalType": "address payable",
          "name": "to",
          "type": "address"
        },
        {
          "internalType": "uint256",
          "name": "tokenId",
          "type": "uint256"
        },
        {
          "internalType": "uint256",
          "name": "value",
          "type": "uint256"
        },
        {
          "internalType": "bytes",
          "name": "tokenData",
          "type": "bytes"
        },
        {
          "internalType": "uint256",
          "name": "fees",
          "type": "uint256"
        },
        {
          "internalType": "bytes32",
          "name": "secretHash",
          "type": "bytes32"
        },
        {
          "internalType": "bytes",
          "name": "secret",
          "type": "bytes"
        }
      ],
      "name": "collectERC1155",
      "outputs": [],
      "stateMutability": "nonpayable",
      "type": "function"
    },
    {
      "inputs": [
        {
          "internalType": "address payable",
          "name": "from",
          "type": "address"
        },
        {
          "internalType": "address",
          "name": "token",
          "type": "address"
        },
        {
          "internalType": "address",
          "name": "to",
          "type": "address"
        },
        {
          "internalType": "uint256",
          "name": "tokenId",
          "type": "uint256"
        },
        {
          "internalType": "uint256",
          "name": "value",
          "type": "uint256"
        },
        {
          "internalType": "bytes",
          "name": "tokenData",
          "type": "bytes"
        },
        {
          "internalType": "uint256",
          "name": "fees",
          "type": "uint256"
        },
        {
          "internalType": "bytes32",
          "name": "secretHash",
          "type": "bytes32"
        }
      ],
      "name": "autoRetrieveERC1155",
      "outputs": [],
      "stateMutability": "nonpayable",
      "type": "function"
    },
    {
      "inputs": [
        {
          "internalType": "bytes32",
          "name": "id1",
          "type": "bytes32"
        }
      ],
      "name": "hiddenERC1155Deposit",
      "outputs": [],
      "stateMutability": "payable",
      "type": "function"
    },
    {
      "inputs": [
        {
          "internalType": "bytes32",
          "name": "id1",
          "type": "bytes32"
        },
        {
          "internalType": "uint64",
          "name": "availableAt",
          "type": "uint64"
        },
        {
          "internalType": "uint64",
          "name": "expiresAt",
          "type": "uint64"
        },
        {
          "internalType": "uint128",
          "name": "autoRetrieveFees",
          "type": "uint128"
        }
      ],
      "name": "hiddenERC1155TimedDeposit",
      "outputs": [],
      "stateMutability": "payable",
      "type": "function"
    },
    {
      "inputs": [
        {
          "internalType": "bytes32",
          "name": "id1",
          "type": "bytes32"
        },
        {
          "internalType": "uint256",
          "name": "value",
          "type": "uint256"
        }
      ],
      "name": "hiddenERC1155Retrieve",
      "outputs": [],
      "stateMutability": "nonpayable",
      "type": "function"
    },
    {
      "inputs": [
        {
          "internalType": "address",
          "name": "token",
          "type": "address"
        },
        {
          "internalType": "address",
          "name": "to",
          "type": "address"
        },
        {
          "internalType": "uint256[]",
          "name": "tokenIds",
          "type": "uint256[]"
        },
        {
          "internalType": "uint256[]",
          "name": "values",
          "type": "uint256[]"
        },
        {
          "internalType": "bytes",
          "name": "tokenData",
          "type": "bytes"
        },
        {
          "internalType": "uint256",
          "name": "fees",
          "type": "uint256"
        },
        {
          "internalType": "bytes32",
          "name": "secretHash",
          "type": "bytes32"
        }
      ],
      "name": "depositBatchERC1155",
      "outputs": [],
      "stateMutability": "payable",
      "type": "function"
    },
    {
      "inputs": [
        {
          "internalType": "address",
          "name": "token",
          "type": "address"
        },
        {
          "internalType": "address",
          "name": "to",
          "type": "address"
        },
        {
          "internalType": "uint256[]",
          "name": "tokenIds",
          "type": "uint256[]"
        },
        {
          "internalType": "uint256[]",
          "name": "values",
          "type": "uint256[]"
        },
        {
          "internalType": "bytes",
          "name": "tokenData",
          "type": "bytes"
        },
        {
          "internalType": "uint256",
          "name": "fees",
          "type": "uint256"
        },
        {
          "internalType": "bytes32",
          "name": "secretHash",
          "type": "bytes32"
        }
      ],
      "name": "retrieveBatchERC1155",
      "outputs": [],
      "stateMutability": "nonpayable",
      "type": "function"
    },
    {
      "inputs": [
        {
          "internalType": "address payable",
          "name": "to",
          "type": "address"
        },
        {
          "internalType": "address",
          "name": "from",
          "type": "address"
        },
        {
          "components": [
            {
              "internalType": "address",
              "name": "token",
              "type": "address"
            },
            {
              "internalType": "uint256[]",
              "name": "tokenIds",
              "type": "uint256[]"
            },
            {
              "internalType": "uint256[]",
              "name": "values",
              "type": "uint256[]"
            },
            {
              "internalType": "bytes",
              "name": "tokenData",
              "type": "bytes"
            },
            {
              "internalType": "uint256",
              "name": "fees",
              "type": "uint256"
            },
            {
              "internalType": "bytes32",
              "name": "secretHash",
              "type": "bytes32"
            },
            {
              "internalType": "bytes",
              "name": "secret",
              "type": "bytes"
            }
          ],
          "internalType": "struct SafeForERC1155.CollectBatchERC1155Info",
          "name": "info",
          "type": "tuple"
        }
      ],
      "name": "collectBatchERC1155",
      "outputs": [],
      "stateMutability": "nonpayable",
      "type": "function"
    },
    {
      "inputs": [
        {
          "internalType": "address payable",
          "name": "from",
          "type": "address"
        },
        {
          "internalType": "address",
          "name": "token",
          "type": "address"
        },
        {
          "internalType": "address",
          "name": "to",
          "type": "address"
        },
        {
          "internalType": "uint256[]",
          "name": "tokenIds",
          "type": "uint256[]"
        },
        {
          "internalType": "uint256[]",
          "name": "values",
          "type": "uint256[]"
        },
        {
          "internalType": "bytes",
          "name": "tokenData",
          "type": "bytes"
        },
        {
          "internalType": "uint256",
          "name": "fees",
          "type": "uint256"
        },
        {
          "internalType": "bytes32",
          "name": "secretHash",
          "type": "bytes32"
        }
      ],
      "name": "autoRetrieveBatchERC1155",
      "outputs": [],
      "stateMutability": "nonpayable",
      "type": "function"
    }
  ],
  "bytecode": "0x60806040523480156200001157600080fd5b5060405162002fb038038062002fb0833981016040819052620000349162000299565b6200004160003362000185565b6200005c60008051602062002f908339815191523362000185565b6200007760008051602062002f908339815191528262000185565b466002819055600160b01b600160f01b0360001943014060b01b1630908117600160f81b176003819055604080518082018252601481527f4b69726f626f2053616665205472616e736665720000000000000000000000006020918201528151808301835260018152603160f81b90820152905162000161937fd87cd6ef79d4e2b95e15ce8abf732db51ec771f1ca2edccf22a46c729ac56472937fa0e7867c78e9ee05b975f886625b0f857545d287fd4041f342f5f7398f7cf444937fc89efdaa54c0f20c7adf612882df0950f5a951637e0307cdcb4c672f298b8bc6938893929101620002c9565b604051602081830303815290604052805190602001206001819055505050620002fa565b62000191828262000195565b5050565b600082815260208181526040909120620001ba918390620017c56200020e821b17901c565b156200019157620001ca6200022e565b6001600160a01b0316816001600160a01b0316837f2f8788117e7eff1d82e926ec794901d17c78024a50270940304540a733656f0d60405160405180910390a45050565b600062000225836001600160a01b03841662000232565b90505b92915050565b3390565b600062000240838362000281565b620002785750815460018181018455600084815260208082209093018490558454848252828601909352604090209190915562000228565b50600062000228565b60009081526001919091016020526040902054151590565b600060208284031215620002ab578081fd5b81516001600160a01b0381168114620002c2578182fd5b9392505050565b9586526020860194909452604085019290925260608401526001600160a01b0316608083015260a082015260c00190565b612c86806200030a6000396000f3fe6080604052600436106101dc5760003560e01c80638025e30311610102578063c57e024d11610095578063d547741f11610064578063d547741f14610504578063e49a12dc14610524578063fea5c3e114610544578063ffa1ad741461056457610204565b8063c57e024d1461049e578063ca15c873146104be578063ca23e810146104de578063d05edad7146104f157610204565b806391d14854116100d157806391d1485414610425578063a217fddf14610452578063a3f4df7e14610467578063b1538f921461048957610204565b80638025e303146103a157806385e1f4d0146103c35780638b23d81b146103d85780639010d07c146103f857610204565b8063359f54e41161017a57806359e101781161014957806359e101781461033b57806374ddc7511461034e57806378e80e101461036e5780638021ee881461038157610204565b8063359f54e4146102d15780633644e515146102e657806336568abe146102fb57806349898f441461031b57610204565b806314db34ec116101b657806314db34ec14610269578063248a9ca31461027c5780632b78bd531461029c5780632f2ff15d146102b157610204565b806308740a3b1461020957806312606bb21461023457806313114a9d1461025457610204565b366102045760405162461bcd60e51b81526004016101f990612aa8565b60405180910390fd5b005b600080fd5b34801561021557600080fd5b5061021e610579565b60405161022b91906126b3565b60405180910390f35b34801561024057600080fd5b5061020261024f366004611c85565b61058b565b34801561026057600080fd5b5061021e6106f0565b610202610277366004612163565b6106f6565b34801561028857600080fd5b5061021e610297366004612234565b610884565b3480156102a857600080fd5b5061021e610899565b3480156102bd57600080fd5b506102026102cc36600461224c565b6108bd565b3480156102dd57600080fd5b5061021e610905565b3480156102f257600080fd5b5061021e610929565b34801561030757600080fd5b5061020261031636600461224c565b61092f565b34801561032757600080fd5b50610202610336366004611f51565b610971565b6102026103493660046120db565b610b17565b34801561035a57600080fd5b5061020261036936600461200f565b610c39565b61020261037c36600461200f565b610d33565b34801561038d57600080fd5b5061020261039c366004611d67565b610ea6565b3480156103ad57600080fd5b506103b6610fdd565b60405161022b9190612bcf565b3480156103cf57600080fd5b5061021e610fe2565b3480156103e457600080fd5b506102026103f3366004611e06565b610fe8565b34801561040457600080fd5b5061041861041336600461227b565b611293565b60405161022b91906123dc565b34801561043157600080fd5b5061044561044036600461224c565b6112b4565b60405161022b91906126a8565b34801561045e57600080fd5b5061021e6112cc565b34801561047357600080fd5b5061047c6112d1565b60405161022b91906126bc565b34801561049557600080fd5b5061021e611301565b3480156104aa57600080fd5b506102026104b936600461227b565b611325565b3480156104ca57600080fd5b5061021e6104d9366004612234565b611403565b6102026104ec36600461229c565b61141a565b6102026104ff366004612234565b611550565b34801561051057600080fd5b5061020261051f36600461224c565b611604565b34801561053057600080fd5b5061020261053f366004611f26565b61163e565b34801561055057600080fd5b5061020261055f3660046120db565b6116b8565b34801561057057600080fd5b5061047c6117a8565b600080516020612c3183398151915281565b60008a8c8b8b8b8b8b8b8b8b8b6040516020016105b29b9a99989796959493929190612411565b60408051601f19818403018152918152815160209283012060008181526005909352912054909150806105f75760405162461bcd60e51b81526004016101f990612a3a565b42816001600160401b031611156106205760405162461bcd60e51b81526004016101f9906128b3565b6005600083815260200190815260200160002060009055608081901c600454016004819055508c6001600160a01b03166108fc608083901c86039081150290604051600060405180830381858888f19350505050158015610685573d6000803e3d6000fd5b508a6001600160a01b03168d6001600160a01b03168d6001600160a01b03167fc2263345832f5e2ac00f59aee67304df8fd8c45c216e65a610afc67c7568c1148d8d8d8d6040516106d99493929190612644565b60405180910390a450505050505050505050505050565b60045490565b8434146107155760405162461bcd60e51b81526004016101f9906128ea565b806001600160801b031685101561073e5760405162461bcd60e51b81526004016101f9906127c5565b6001600160a01b038a163314156107675760405162461bcd60e51b81526004016101f990612a03565b42826001600160401b03161161078f5760405162461bcd60e51b81526004016101f99061287c565b60008b338c8c8c8c8c8c8c6040516020016107b29998979695949392919061248c565b60408051601f19818403018152918152815160209283012060008181526005909352912054909150156107f75760405162461bcd60e51b81526004016101f990612845565b600081815260056020526040908190206001600160401b0385166001600160801b0319608086901b16019055516001600160a01b03808d169133918f16907f92f30a952a024619ab599a1b8764d78ce14e3ddb030d9bb9f087166933d374d59061086e908f908f908d908d908d908d908d90612b5c565b60405180910390a4505050505050505050505050565b60009081526020819052604090206002015490565b7f0506afef36f3613836f98ef019cb76a3e6112be8f9dc8d8fa77275d64f41823481565b6000828152602081905260409020600201546108db906104406117da565b6108f75760405162461bcd60e51b81526004016101f99061273f565b61090182826117de565b5050565b7f9e6214229b9fba1927010d30b22a3a5d9fd5e856bb29f056416ff2ad52e8de4481565b60015481565b6109376117da565b6001600160a01b0316816001600160a01b0316146109675760405162461bcd60e51b81526004016101f990612af2565b6109018282611847565b610989600080516020612c31833981519152336112b4565b6109a55760405162461bcd60e51b81526004016101f990612a71565b600089898989898989896040516020016109c6989796959493929190612601565b60408051601f1981840301815291815281516020928301206000818152600590935291205490915080610a0b5760405162461bcd60e51b81526004016101f990612a3a565b825160208401208414610a305760405162461bcd60e51b81526004016101f9906129cc565b600082815260056020526040812055600454610a4c90866118b0565b6004908155604051637921219560e11b81526001600160a01b038d169163f242432a91610a83918e918e918e918e918e9101612547565b600060405180830381600087803b158015610a9d57600080fd5b505af1158015610ab1573d6000803e3d6000fd5b50505050886001600160a01b03168a6001600160a01b03168c6001600160a01b03167fcd76ba58fce9926cfa642f9c805c7776e1060fc28617a5b892eb75a4088ecc4185604051610b0291906126b3565b60405180910390a45050505050505050505050565b813414610b365760405162461bcd60e51b81526004016101f9906128ea565b6001600160a01b038716331415610b5f5760405162461bcd60e51b81526004016101f990612a03565b6000883389898989898989604051602001610b829998979695949392919061248c565b60408051601f1981840301815291815281516020928301206000818152600590935291205490915015610bc75760405162461bcd60e51b81526004016101f990612845565b600081815260056020526040908190206001600160401b039055516001600160a01b03808a169133918c16907f815701d2a70cb9728dad47bf244cfb943736d064c1f0d6eb6386e1da4b9be6b290610c26908c908c908a908a90612b41565b60405180910390a4505050505050505050565b60008a338b8b8b8b8b8b8b8b8b604051602001610c609b9a99989796959493929190612411565b60408051601f19818403018152918152815160209283012060008181526005909352912054909150610ca45760405162461bcd60e51b81526004016101f990612a3a565b60008181526005602052604080822082905551339185156108fc02918691818181858888f19350505050158015610cdf573d6000803e3d6000fd5b50896001600160a01b0316336001600160a01b03168c6001600160a01b03167fc2263345832f5e2ac00f59aee67304df8fd8c45c216e65a610afc67c7568c1148c8c8c8c604051610b029493929190612644565b600187148015610d435750600185145b15610d8357610d7e8a8a8a8a6000818110610d5a57fe5b9050602002013589896000818110610d6e57fe5b9050602002013588888888610b17565b610e9a565b813414610da25760405162461bcd60e51b81526004016101f9906128ea565b6001600160a01b038916331415610dcb5760405162461bcd60e51b81526004016101f990612a03565b60008a338b8b8b8b8b8b8b8b8b604051602001610df29b9a99989796959493929190612411565b60408051601f1981840301815291815281516020928301206000818152600590935291205490915015610e375760405162461bcd60e51b81526004016101f990612845565b600081815260056020526040908190206001600160401b039055516001600160a01b03808c169133918e16907f8ac12a82b0377e2c6e1e42e37e8d8957f8df98f5c6d9fcbc86dcc2d65c5f1e2f90610b02908e908e908e908e908c908c9061266b565b50505050505050505050565b6000888a89898989898989604051602001610ec99998979695949392919061248c565b60408051601f1981840301815291815281516020928301206000818152600590935291205490915080610f0e5760405162461bcd60e51b81526004016101f990612a3a565b42816001600160401b03161115610f375760405162461bcd60e51b81526004016101f9906128b3565b60008281526005602052604080822082905560048054608085901c90810190915590516001600160a01b038e169291870380156108fc0292909190818181858888f19350505050158015610f8f573d6000803e3d6000fd5b50886001600160a01b03168b6001600160a01b03168b6001600160a01b03167f59c6a35ddfbafec4b3bc9ed6b984ce4713dcee72a875ba571c9ff9fd0ace5bd785604051610b0291906126b3565b600181565b60025481565b611000600080516020612c31833981519152336112b4565b61101c5760405162461bcd60e51b81526004016101f990612a71565b806020015151600114801561103657508060400151516001145b156110955761109081600001518385846020015160008151811061105657fe5b6020026020010151856040015160008151811061106f57fe5b6020026020010151866060015187608001518860a001518960c00151610971565b61128e565b60008160000151838584602001518560400151866060015187608001518860a001516040516020016110ce98979695949392919061258c565b60408051601f19818403018152918152815160209283012060008181526005909352912054909150806111135760405162461bcd60e51b81526004016101f990612a3a565b42816001600160401b03161161113b5760405162461bcd60e51b81526004016101f990612711565b42604082901c6001600160401b031611156111685760405162461bcd60e51b81526004016101f99061278e565b8260a001518360c0015180519060200120146111965760405162461bcd60e51b81526004016101f9906129cc565b60008281526005602052604081205560808301516004546111b6916118b0565b60048190555082600001516001600160a01b0316632eb2c2d685878660200151876040015188606001516040518663ffffffff1660e01b81526004016112009594939291906124e9565b600060405180830381600087803b15801561121a57600080fd5b505af115801561122e573d6000803e3d6000fd5b50505050846001600160a01b0316846001600160a01b031684600001516001600160a01b03167fcd76ba58fce9926cfa642f9c805c7776e1060fc28617a5b892eb75a4088ecc418560405161128391906126b3565b60405180910390a450505b505050565b60008281526020819052604081206112ab90836118d5565b90505b92915050565b60008281526020819052604081206112ab90836118e1565b600081565b6040518060400160405280601481526020017325b4b937b1379029b0b332902a3930b739b332b960611b81525081565b7fa14a2dc51c26e451800897aa798120e7d6c35039caf5eb29b8ac35d1e914c59181565b600033828460405160200161133c939291906123f0565b60408051601f198184030181529181528151602092830120600081815260079093529120549091506113805760405162461bcd60e51b81526004016101f990612a3a565b60008181526007602052604080822082905551339184156108fc02918591818181858888f193505050501580156113bb573d6000803e3d6000fd5b5082336001600160a01b03167f54fe7ba1faf513f1dde2b8ae1789400cc3cac098e8fa33c1e5ed0d77167071d0846040516113f691906126b3565b60405180910390a3505050565b60008181526020819052604081206112ae906118f6565b806001600160801b03163410156114435760405162461bcd60e51b81526004016101f990612981565b600033348660405160200161145a939291906123f0565b60408051601f198184030181529181528151602092830120600081815260079093529120549091501561149f5760405162461bcd60e51b81526004016101f990612845565b42836001600160401b0316116114c75760405162461bcd60e51b81526004016101f99061287c565b600081815260076020526040908190206001600160401b0385166fffffffffffffffff000000000000000087841b16016001600160801b0319608086901b1601905551859033907ffa7f69e23f2673f0c6073731d291b64e825c11b20742b0968a55da12ef0095c090611541903490899089908990612ba1565b60405180910390a35050505050565b6000333483604051602001611567939291906123f0565b60408051601f19818403018152918152815160209283012060008181526007909352912054909150156115ac5760405162461bcd60e51b81526004016101f990612845565b600081815260076020526040908190206001600160401b03905551829033907fc89dda6154f80d44d38a589068231b65ce0b54640c3130686bee341d59cff493906115f89034906126b3565b60405180910390a35050565b600082815260208190526040902060020154611622906104406117da565b6109675760405162461bcd60e51b81526004016101f990612931565b611656600080516020612c31833981519152336112b4565b6116725760405162461bcd60e51b81526004016101f990612a71565b60045461167f9082611901565b6004556040516001600160a01b0383169082156108fc029083906000818181858888f1935050505015801561128e573d6000803e3d6000fd5b60008833898989898989896040516020016116db9998979695949392919061248c565b60408051601f1981840301815291815281516020928301206000818152600590935291205490915061171f5760405162461bcd60e51b81526004016101f990612a3a565b60008181526005602052604080822082905551339185156108fc02918691818181858888f1935050505015801561175a573d6000803e3d6000fd5b50876001600160a01b0316336001600160a01b03168a6001600160a01b03167f59c6a35ddfbafec4b3bc9ed6b984ce4713dcee72a875ba571c9ff9fd0ace5bd784604051610c2691906126b3565b604051806040016040528060018152602001603160f81b81525081565b60006112ab836001600160a01b038416611943565b3390565b60008281526020819052604090206117f690826117c5565b15610901576118036117da565b6001600160a01b0316816001600160a01b0316837f2f8788117e7eff1d82e926ec794901d17c78024a50270940304540a733656f0d60405160405180910390a45050565b600082815260208190526040902061185f908261198d565b156109015761186c6117da565b6001600160a01b0316816001600160a01b0316837ff6391f5c32d9c69d2a47ea670b442974b53935d1edc7fd64eb21e047a839171b60405160405180910390a45050565b6000828201838110156112ab5760405162461bcd60e51b81526004016101f99061280e565b60006112ab83836119a2565b60006112ab836001600160a01b0384166119e7565b60006112ae826119ff565b60006112ab83836040518060400160405280601e81526020017f536166654d6174683a207375627472616374696f6e206f766572666c6f770000815250611a03565b600061194f83836119e7565b611985575081546001818101845560008481526020808220909301849055845484825282860190935260409020919091556112ae565b5060006112ae565b60006112ab836001600160a01b038416611a2f565b815460009082106119c55760405162461bcd60e51b81526004016101f9906126cf565b8260000182815481106119d457fe5b9060005260206000200154905092915050565b60009081526001919091016020526040902054151590565b5490565b60008184841115611a275760405162461bcd60e51b81526004016101f991906126bc565b505050900390565b60008181526001830160205260408120548015611aeb5783546000198083019190810190600090879083908110611a6257fe5b9060005260206000200154905080876000018481548110611a7f57fe5b600091825260208083209091019290925582815260018981019092526040902090840190558654879080611aaf57fe5b600190038181906000526020600020016000905590558660010160008781526020019081526020016000206000905560019450505050506112ae565b60009150506112ae565b80356112ae81612c03565b60008083601f840112611b11578182fd5b5081356001600160401b03811115611b27578182fd5b6020830191508360208083028501011115611b4157600080fd5b9250929050565b600082601f830112611b58578081fd5b81356001600160401b03811115611b6d578182fd5b6020808202611b7d828201612bdd565b83815293508184018583018287018401881015611b9957600080fd5b600092505b84831015611bbc578035825260019290920191908301908301611b9e565b505050505092915050565b60008083601f840112611bd8578182fd5b5081356001600160401b03811115611bee578182fd5b602083019150836020828501011115611b4157600080fd5b600082601f830112611c16578081fd5b81356001600160401b03811115611c2b578182fd5b611c3e601f8201601f1916602001612bdd565b9150808252836020828501011115611c5557600080fd5b8060208401602084013760009082016020015292915050565b80356001600160401b03811681146112ae57600080fd5b60008060008060008060008060008060006101008c8e031215611ca6578687fd5b611cb08d8d611af5565b9a50611cbf8d60208e01611af5565b9950611cce8d60408e01611af5565b98506001600160401b038060608e01351115611ce8578788fd5b611cf88e60608f01358f01611b00565b909950975060808d0135811015611d0d578687fd5b611d1d8e60808f01358f01611b00565b909750955060a08d0135811015611d32578485fd5b50611d438d60a08e01358e01611bc7565b9b9e9a9d50989b979a96999598949794969560c08601359560e00135945092505050565b60008060008060008060008060006101008a8c031215611d85578485fd5b8935611d9081612c03565b985060208a0135611da081612c03565b975060408a0135611db081612c03565b965060608a0135955060808a0135945060a08a01356001600160401b03811115611dd8578485fd5b611de48c828d01611bc7565b9a9d999c50979a96999598959660c08101359660e09091013595509350505050565b600080600060608486031215611e1a578283fd5b8335611e2581612c03565b92506020840135611e3581612c03565b915060408401356001600160401b0380821115611e50578283fd5b9085019060e08288031215611e63578283fd5b611e6d60e0612bdd565b611e778884611af5565b8152602083013582811115611e8a578485fd5b611e9689828601611b48565b602083015250604083013582811115611ead578485fd5b611eb989828601611b48565b604083015250606083013582811115611ed0578485fd5b611edc89828601611c06565b6060830152506080830135608082015260a083013560a082015260c083013582811115611f07578485fd5b611f1389828601611c06565b60c0830152508093505050509250925092565b60008060408385031215611f38578182fd5b8235611f4381612c03565b946020939093013593505050565b60008060008060008060008060006101208a8c031215611f6f578485fd5b8935611f7a81612c03565b985060208a0135611f8a81612c03565b9750611f998b60408c01611af5565b965060608a0135955060808a0135945060a08a01356001600160401b0380821115611fc2578586fd5b611fce8d838e01611c06565b955060c08c0135945060e08c013593506101008c0135915080821115611ff2578283fd5b50611fff8c828d01611c06565b9150509295985092959850929598565b60008060008060008060008060008060e08b8d03121561202d578384fd5b8a3561203881612c03565b995060208b013561204881612c03565b985060408b01356001600160401b0380821115612063578586fd5b61206f8e838f01611b00565b909a50985060608d0135915080821115612087578586fd5b6120938e838f01611b00565b909850965060808d01359150808211156120ab578586fd5b506120b88d828e01611bc7565b9b9e9a9d50989b979a969995989760a08101359660c09091013595509350505050565b60008060008060008060008060e0898b0312156120f6578182fd5b883561210181612c03565b9750602089013561211181612c03565b9650604089013595506060890135945060808901356001600160401b03811115612139578283fd5b6121458b828c01611bc7565b999c989b5096999598969760a08701359660c0013595509350505050565b60008060008060008060008060008060006101408c8e031215612184578485fd5b8b3561218f81612c03565b9a5060208c013561219f81612c03565b995060408c0135985060608c0135975060808c01356001600160401b038111156121c7578586fd5b6121d38e828f01611bc7565b90985096505060a08c0135945060c08c013593506121f48d60e08e01611c6e565b92506122048d6101008e01611c6e565b91506101208c01356001600160801b0381168114612220578182fd5b809150509295989b509295989b9093969950565b600060208284031215612245578081fd5b5035919050565b6000806040838503121561225e578182fd5b82359150602083013561227081612c03565b809150509250929050565b6000806040838503121561228d578182fd5b50508035926020909101359150565b600080600080608085870312156122b1578182fd5b8435935060208501356122c381612c1b565b925060408501356122d381612c1b565b915060608501356001600160801b03811681146122ee578182fd5b939692955090935050565b81835260006001600160fb1b03831115612311578081fd5b6020830280836020870137939093016020019283525090919050565b6000815180845260208085019450808401835b8381101561235c57815187529582019590820190600101612340565b509495945050505050565b60008284528282602086013780602084860101526020601f19601f85011685010190509392505050565b60008151808452815b818110156123b65760208185018101518683018201520161239a565b818111156123c75782602083870101525b50601f01601f19169290920160200192915050565b6001600160a01b0391909116815260200190565b6001600160a01b039390931683526020830191909152604082015260600190565b6001600160a01b038c811682528b811660208301528a166040820152610100606082018190526000906124478382018b8d6122f9565b9050828103608084015261245c81898b6122f9565b905082810360a0840152612471818789612367565b60c0840195909552505060e001529998505050505050505050565b6001600160a01b038a81168252898116602083015288166040820152606081018790526080810186905261010060a082018190526000906124d08382018789612367565b60c0840195909552505060e00152979650505050505050565b6001600160a01b0386811682528516602082015260a0604082018190526000906125159083018661232d565b8281036060840152612527818661232d565b9050828103608084015261253b8185612391565b98975050505050505050565b6001600160a01b03868116825285166020820152604081018490526060810183905260a06080820181905260009061258190830184612391565b979650505050505050565b6001600160a01b038981168252888116602083015287166040820152610100606082018190526000906125c18382018961232d565b905082810360808401526125d5818861232d565b905082810360a08401526125e98187612391565b60c0840195909552505060e001529695505050505050565b6001600160a01b038981168252888116602083015287166040820152606081018690526080810185905261010060a082018190526000906125e983820187612391565b6000604082526126586040830186886122f9565b82810360208401526125818185876122f9565b60006080825261267f60808301888a6122f9565b82810360208401526126928187896122f9565b6040840195909552505060600152949350505050565b901515815260200190565b90815260200190565b6000602082526112ab6020830184612391565b60208082526022908201527f456e756d657261626c655365743a20696e646578206f7574206f6620626f756e604082015261647360f01b606082015260800190565b60208082526014908201527314d85999551c985b99995c8e88195e1c1a5c995960621b604082015260600190565b6020808252602f908201527f416363657373436f6e74726f6c3a2073656e646572206d75737420626520616e60408201526e0818591b5a5b881d1bc819dc985b9d608a1b606082015260800190565b6020808252601e908201527f536166655472616e6665723a206e6f7420617661696c61626c65207965740000604082015260600190565b60208082526029908201527f536166655472616e736665723a206175746f526574726965766546656573206560408201526878656564206665657360b81b606082015260800190565b6020808252601b908201527f536166654d6174683a206164646974696f6e206f766572666c6f770000000000604082015260600190565b6020808252601b908201527f536166655472616e736665723a20726571756573742065786973740000000000604082015260600190565b6020808252601d908201527f536166655472616e736665723a20616c72656164792065787069726564000000604082015260600190565b60208082526018908201527f536166655472616e6665723a206e6f7420657870697265640000000000000000604082015260600190565b60208082526027908201527f536166655472616e736665723a206d73672e76616c7565206d757374206d61746040820152666368206665657360c81b606082015260800190565b60208082526030908201527f416363657373436f6e74726f6c3a2073656e646572206d75737420626520616e60408201526f2061646d696e20746f207265766f6b6560801b606082015260800190565b6020808252602b908201527f536166655472616e73666572733a206175746f5265747269657665466565732060408201526a65786565642076616c756560a81b606082015260800190565b6020808252601a908201527f536166655472616e736665723a2077726f6e6720736563726574000000000000604082015260600190565b6020808252601f908201527f536166655472616e736665723a2073656e6465723d3d726563697069656e7400604082015260600190565b6020808252601f908201527f536166655472616e736665723a2072657175657374206e6f7420657869737400604082015260600190565b6020808252601e908201527f536166655472616e736665723a206e6f7420616e20616374697661746f720000604082015260600190565b6020808252602a908201527f536166655472616e736665723a206e6f7420616363657074696e67206574686560408201526972206469726563746c7960b01b606082015260800190565b6020808252602f908201527f416363657373436f6e74726f6c3a2063616e206f6e6c792072656e6f756e636560408201526e103937b632b9903337b91039b2b63360891b606082015260800190565b93845260208401929092526040830152606082015260800190565b9687526020870195909552604086019390935260608501919091526001600160401b0390811660808501521660a08301526001600160801b031660c082015260e00190565b9384526001600160401b039283166020850152911660408301526001600160801b0316606082015260800190565b60ff91909116815260200190565b6040518181016001600160401b0381118282101715612bfb57600080fd5b604052919050565b6001600160a01b0381168114612c1857600080fd5b50565b6001600160401b0381168114612c1857600080fdfeec5aad7bdface20c35bc02d6d2d5760df981277427368525d634f4e2603ea192a2646970667358221220dc894a4fdb1767d1df9e8d438c978ebfb6c8c8e0f47350f0e508b46e1f97343164736f6c634300060c0033ec5aad7bdface20c35bc02d6d2d5760df981277427368525d634f4e2603ea192",
  "immutableReferences": {},
  "source": "// SPDX-License-Identifier: GPL-3.0-or-later\npragma solidity 0.6.12;\npragma experimental ABIEncoderV2;\n\nimport \"@openzeppelin/contracts/math/SafeMath.sol\";\nimport \"@openzeppelin/contracts/access/AccessControl.sol\";\nimport \"@openzeppelin/contracts/token/ERC20/SafeERC20.sol\";\nimport \"@openzeppelin/contracts/token/ERC721/IERC721.sol\";\nimport \"@openzeppelin/contracts/token/ERC1155/IERC1155.sol\";\n\ncontract SafeForERC1155 is AccessControl {\n  using SafeMath for uint256;\n  using SafeERC20 for IERC20;\n\n  // keccak256(\"ACTIVATOR_ROLE\");\n  bytes32 public constant ACTIVATOR_ROLE =\n    0xec5aad7bdface20c35bc02d6d2d5760df981277427368525d634f4e2603ea192;\n\n  // keccak256(\"hiddenCollect(address from,address to,uint256 value,uint256 fees,bytes32 secretHash)\");\n  bytes32 public constant HIDDEN_COLLECT_TYPEHASH = 0x0506afef36f3613836f98ef019cb76a3e6112be8f9dc8d8fa77275d64f418234;\n\n  // keccak256(\"hiddenCollectERC20(address from,address to,address token,string tokenSymbol,uint256 value,uint256 fees,bytes32 secretHash)\");\n  bytes32 public constant HIDDEN_ERC20_COLLECT_TYPEHASH = 0x9e6214229b9fba1927010d30b22a3a5d9fd5e856bb29f056416ff2ad52e8de44;\n\n  // keccak256(\"hiddenCollectERC721(address from,address to,address token,string tokenSymbol,uint256 tokenId,bytes tokenData,uint256 fees,bytes32 secretHash)\");\n  bytes32 public constant HIDDEN_ERC721_COLLECT_TYPEHASH = 0xa14a2dc51c26e451800897aa798120e7d6c35039caf5eb29b8ac35d1e914c591;\n\n  bytes32 public DOMAIN_SEPARATOR;\n  uint256 public CHAIN_ID;\n  bytes32 s_uid;\n  uint256 s_fees;\n\n  struct CollectBatchERC1155Info {\n    address token;\n    uint256[] tokenIds;\n    uint256[] values;\n    bytes tokenData;\n    uint256 fees;\n    bytes32 secretHash;\n    bytes secret;\n  }\n\n  struct TimedDepositBatchERC1155Info {\n    address token;\n    uint256[] tokenIds;\n    uint256[] values;\n    bytes tokenData;\n    uint256 fees;\n    bytes32 secretHash;\n    uint64 availableAt;\n    uint64 expiresAt;\n    uint128 autoRetrieveFees;\n  }\n\n  mapping(bytes32 => uint256) s_erc1155Transfers;\n  mapping(bytes32 => uint256) s_swaps;\n  mapping(bytes32 => uint256) s_htransfers;\n  mapping(bytes32 => uint256) s_hswaps;\n\n  string public constant NAME = \"Kirobo Safe Transfer\";\n  string public constant VERSION = \"1\";\n  uint8 public constant VERSION_NUMBER = 0x1;\n\n  event Retrieved(\n    address indexed from,\n    address indexed to,\n    bytes32 indexed id,\n    uint256 value\n  );\n\n  event ERC1155TransferDeposited(\n    address indexed token,\n    address indexed from,\n    address indexed to,\n    uint256 tokenId,\n    uint256 value,\n    uint256 fees,\n    bytes32 secretHash\n  );\n\n  event TimedERC1155TransferDeposited(\n    address indexed token,\n    address indexed from,\n    address indexed to,\n    uint256 tokenId,\n    uint256 value,\n    uint256 fees,\n    bytes32 secretHash,\n    uint64 availableAt,\n    uint64 expiresAt,\n    uint128 autoRetrieveFees\n  );\n\n  event ERC1155BatchTransferDeposited(\n    address indexed token,\n    address indexed from,\n    address indexed to,\n    uint256[] tokenIds,\n    uint256[] values,\n    uint256 fees,\n    bytes32 secretHash\n  );\n\n  event TimedERC1155BatchTransferDeposited(\n    address indexed token,\n    address indexed from,\n    address indexed to,\n    uint256[] tokenIds,\n    uint256[] values,\n    uint256 fees,\n    bytes32 secretHash,\n    uint64 availableAt,\n    uint64 expiresAt,\n    uint128 autoRetrieveFees\n  );\n\n  event ERC1155TransferRetrieved(\n    address indexed token,\n    address indexed from,\n    address indexed to,\n    bytes32 id\n  );\n\n  event ERC1155BatchTransferRetrieved(\n    address indexed token,\n    address indexed from,\n    address indexed to,\n    uint256[] tokenIds,\n    uint256[] values\n  );\n\n  event ERC1155Collected(\n    address indexed token,\n    address indexed from,\n    address indexed to,\n    bytes32 id\n  );\n\n  // event ERC1155BatchCollected(\n  //   address indexed token,\n  //   address indexed from,\n  //   address indexed to,\n  //   uint256[] tokenIds,\n  //   uint256[] values\n  // );\n\n  /* event swapDepositETHToERC1155Event(\n    address indexed from,\n    address indexed to,\n    address indexed token0,\n    uint256 value0,\n    uint256 fees0,\n    address token1,\n    uint256[] tokenIds1,\n    uint256[] values1,\n    uint256 fees1,\n    bytes32 secretHash\n  ); */\n\n  event HiddenERC1155Deposited(\n        address indexed from,\n        uint256 value,\n        bytes32 indexed id1\n  );\n\n  event HiddenERC1155TimedDeposited(\n        address indexed from,\n        uint256 value,\n        bytes32 indexed id1,\n        uint64 availableAt,\n        uint64 expiresAt,\n        uint128 autoRetrieveFees\n    );\n\n    event HiddenERC1155Retrieved(\n        address indexed from,\n        bytes32 indexed id1,\n        uint256 value\n    );\n\n  /* event swapETHToERC1155Event(\n    address indexed from,\n    address indexed to,\n    address indexed token0,\n    uint256 value0,\n    address token1,\n    uint256[] tokenIds1,\n    uint256[] values1,\n    bytes32 id\n  ); */\n\n  modifier onlyActivator() {\n    require(\n      hasRole(ACTIVATOR_ROLE, msg.sender),\n      \"SafeTransfer: not an activator\"\n    );\n    _;\n  }\n\n  constructor(address activator) public {\n    _setupRole(DEFAULT_ADMIN_ROLE, msg.sender);\n    _setupRole(ACTIVATOR_ROLE, msg.sender);\n    _setupRole(ACTIVATOR_ROLE, activator);\n\n    uint256 chainId;\n    assembly {\n      chainId := chainid()\n    }\n\n    CHAIN_ID = chainId;\n\n    s_uid = bytes32(\n      (uint256(VERSION_NUMBER) << 248) |\n        ((uint256(blockhash(block.number - 1)) << 192) >> 16) |\n        uint256(address(this))\n    );\n\n    DOMAIN_SEPARATOR = keccak256(\n      abi.encode(\n        keccak256(\n          \"EIP712Domain(string name,string version,uint256 chainId,address verifyingContract,bytes32 salt)\"\n        ),\n        keccak256(bytes(NAME)),\n        keccak256(bytes(VERSION)),\n        chainId,\n        address(this),\n        s_uid\n      )\n    );\n  }\n\n  receive() external payable {\n    require(false, \"SafeTransfer: not accepting ether directly\");\n  }\n\n  /* function transferERC20(address token, address wallet, uint256 value) external onlyActivator() {\n        IERC20(token).safeTransfer(wallet, value);\n    }\n\n    function transferERC721(address token, address wallet, uint256 tokenId, bytes calldata data) external onlyActivator() {\n        IERC721(token).safeTransferFrom(address(this), wallet, tokenId, data);\n    } */\n\n  function transferFees(address payable wallet, uint256 value)\n    external\n    onlyActivator\n  {\n    s_fees = s_fees.sub(value);\n    wallet.transfer(value);\n  }\n\n  function totalFees() external view returns (uint256) {\n    return s_fees;\n  }\n\n  /* function uid() view external returns (bytes32) {\n        return s_uid;\n    } */\n\n  // ------------------------------- ERC-1155 transfer single--------------------------------\n  //0x5978e4630233612269aC217784A41fB3EA720d30\n  function depositERC1155(\n    address token,\n    address to,\n    uint256 tokenId,\n    uint256 value,\n    bytes calldata tokenData,\n    uint256 fees,\n    bytes32 secretHash\n  ) public payable {\n    require(msg.value == fees, \"SafeTransfer: msg.value must match fees\");\n    require(to != msg.sender, \"SafeTransfer: sender==recipient\");\n    bytes32 id = keccak256(\n      abi.encode(\n        token,\n        msg.sender,\n        to,\n        tokenId,\n        value,\n        tokenData,\n        fees,\n        secretHash\n      )\n    );\n    require(s_erc1155Transfers[id] == 0, \"SafeTransfer: request exist\");\n    s_erc1155Transfers[id] = 0xffffffffffffffff;\n    emit ERC1155TransferDeposited(\n      token,\n      msg.sender,\n      to,\n      tokenId,\n      value,\n      fees,\n      secretHash\n    );\n  }\n\n  function timedDepositERC1155(\n    address token,\n    address to,\n    uint256 tokenId,\n    uint256 value,\n    bytes calldata tokenData,\n    uint256 fees,\n    bytes32 secretHash,\n    uint64 availableAt,\n    uint64 expiresAt,\n    uint128 autoRetrieveFees\n  ) public payable {\n    require(msg.value == fees, \"SafeTransfer: msg.value must match fees\");\n    require(fees >= autoRetrieveFees, \"SafeTransfer: autoRetrieveFees exeed fees\");\n    require(to != msg.sender, \"SafeTransfer: sender==recipient\");\n    require(expiresAt > now, \"SafeTransfer: already expired\");\n    bytes32 id = keccak256(\n      abi.encode(\n        token,\n        msg.sender,\n        to,\n        tokenId,\n        value,\n        tokenData,\n        fees,\n        secretHash\n      )\n    );\n    require(s_erc1155Transfers[id] == 0, \"SafeTransfer: request exist\");\n    s_erc1155Transfers[id] = uint256(expiresAt) + uint256(availableAt << 64) + (uint256(autoRetrieveFees) << 128);\n    emit TimedERC1155TransferDeposited(\n      token,\n      msg.sender,\n      to,\n      tokenId,\n      value,\n      fees,\n      secretHash,\n      availableAt,\n      expiresAt,\n      autoRetrieveFees\n    );\n  }\n\n  function retrieveERC1155(\n    address token,\n    address to,\n    uint256 tokenId,\n    uint256 value,\n    bytes calldata tokenData,\n    uint256 fees,\n    bytes32 secretHash\n  ) external {\n    bytes32 id = keccak256(\n      abi.encode(\n        token,\n        msg.sender,\n        to,\n        tokenId,\n        value,\n        tokenData,\n        fees,\n        secretHash\n      )\n    );\n    require(s_erc1155Transfers[id] > 0, \"SafeTransfer: request not exist\");\n    delete s_erc1155Transfers[id];\n    msg.sender.transfer(fees);\n    emit ERC1155TransferRetrieved(token, msg.sender, to, id);\n  }\n\n  function collectERC1155(\n    address token,\n    address from,\n    address payable to,\n    uint256 tokenId,\n    uint256 value,\n    bytes memory tokenData,\n    uint256 fees,\n    bytes32 secretHash,\n    bytes memory secret\n  ) public onlyActivator {\n    bytes32 id = keccak256(\n      abi.encode(token, from, to, tokenId, value, tokenData, fees, secretHash)\n    );\n    uint256 tr = s_erc1155Transfers[id];\n    require(tr > 0, \"SafeTransfer: request not exist\");\n    // require(uint64(tr) > now, \"SafeTranfer: expired\");\n    // require(uint64(tr >> 64) <= now, \"SafeTranfer: not available yet\");\n    require(keccak256(secret) == secretHash, \"SafeTransfer: wrong secret\");\n    delete s_erc1155Transfers[id];\n    s_fees = s_fees.add(fees);\n    IERC1155(token).safeTransferFrom(from, to, tokenId, value, tokenData);\n    emit ERC1155Collected(token, from, to, id);\n    // emit ERC1155Collected(token, from, to, tokenId, value);\n  }\n\n  function autoRetrieveERC1155(\n    address payable from,\n    address token,\n    address to,\n    uint256 tokenId,\n    uint256 value,\n    bytes calldata tokenData,\n    uint256 fees,\n    bytes32 secretHash\n  ) external {\n    bytes32 id = keccak256(\n      abi.encode(\n        token,\n        from,\n        to,\n        tokenId,\n        value,\n        tokenData,\n        fees,\n        secretHash\n      )\n    );\n    uint256 tr = s_erc1155Transfers[id];\n    require(tr > 0, \"SafeTransfer: request not exist\");\n    require(uint64(tr) <= now, \"SafeTranfer: not expired\");\n    delete s_erc1155Transfers[id];\n    s_fees = s_fees + (tr>>128); // autoRetreive fees\n    from.transfer(fees - (tr >> 128));\n    emit ERC1155TransferRetrieved(token, from, to, id);\n  }\n\n  function hiddenERC1155Deposit(bytes32 id1) payable external\n  {\n      bytes32 id = keccak256(abi.encode(msg.sender, msg.value, id1));\n      require(s_htransfers[id] == 0, \"SafeTransfer: request exist\"); \n      s_htransfers[id] = 0xffffffffffffffff;\n      emit HiddenERC1155Deposited(msg.sender, msg.value, id1);\n  }\n\n  function hiddenERC1155TimedDeposit(\n        bytes32 id1,\n        uint64 availableAt,\n        uint64 expiresAt,\n        uint128 autoRetrieveFees\n    ) \n        payable external\n    {\n        require(msg.value >= autoRetrieveFees, \"SafeTransfers: autoRetrieveFees exeed value\");\n        bytes32 id = keccak256(abi.encode(msg.sender, msg.value, id1));\n        require(s_htransfers[id] == 0, \"SafeTransfer: request exist\");\n        require(expiresAt > now, \"SafeTransfer: already expired\"); \n        s_htransfers[id] = uint256(expiresAt) + (uint256(availableAt) << 64) + (uint256(autoRetrieveFees) << 128);\n        emit HiddenERC1155TimedDeposited(msg.sender, msg.value, id1, availableAt, expiresAt, autoRetrieveFees);\n    }\n\n    function hiddenERC1155Retrieve(\n        bytes32 id1,\n        uint256 value\n    )   \n        external \n    {\n        bytes32 id = keccak256(abi.encode(msg.sender, value, id1));\n        require(s_htransfers[id]  > 0, \"SafeTransfer: request not exist\");\n        delete s_htransfers[id];\n        msg.sender.transfer(value);\n        emit HiddenERC1155Retrieved(msg.sender, id1, value);\n    }\n\n  //------------------------------ERC-1155 batch transfer -----------------------------------------\n  function depositBatchERC1155(\n    address token,\n    address to,\n    uint256[] calldata tokenIds,\n    uint256[] calldata values,\n    bytes calldata tokenData,\n    uint256 fees,\n    bytes32 secretHash\n  ) external payable {\n    if(tokenIds.length == 1 && values.length == 1){\n      depositERC1155(token, to, tokenIds[0], values[0], tokenData, fees, secretHash);\n    }\n    else{\n      require(msg.value == fees, \"SafeTransfer: msg.value must match fees\");\n      require(to != msg.sender, \"SafeTransfer: sender==recipient\");\n      bytes32 id = keccak256(\n        abi.encode(\n          token,\n          msg.sender,\n          to,\n          tokenIds,\n          values,\n          tokenData,\n          fees,\n          secretHash\n        )\n      );\n      require(s_erc1155Transfers[id] == 0, \"SafeTransfer: request exist\");\n      s_erc1155Transfers[id] = 0xffffffffffffffff;\n      emit ERC1155BatchTransferDeposited(\n        token,\n        msg.sender,\n        to,\n        tokenIds,\n        values,\n        fees,\n        secretHash\n      );\n    }\n  }\n\n  /* function TimedDepositBatchERC1155(\n    address to,\n    TimedDepositBatchERC1155Info memory info\n  ) external payable {\n    if(info.tokenIds.length == 1 && info.values.length == 1){\n      timedDepositERC1155(info.token, to, info.tokenIds[0], info.values[0], info.tokenData, \n                info.fees, info.secretHash, info.availableAt, info.expiresAt, info.autoRetrieveFees);\n    }\n    else{\n      require(msg.value == info.fees, \"SafeTransfer: msg.value must match fees\");\n      require(info.fees >= info.autoRetrieveFees, \"SafeTransfer: autoRetrieveFees exeed fees\");\n      require(to != msg.sender, \"SafeTransfer: sender==recipient\");\n      require(info.expiresAt > now, \"SafeTransfer: already expired\");\n      bytes32 id = keccak256(\n        abi.encode(\n          info.token,\n          msg.sender,\n          to,\n          info.tokenIds,\n          info.values,\n          info.tokenData,\n          info.fees,\n          info.secretHash\n        )\n      );\n      require(s_erc1155Transfers[id] == 0, \"SafeTransfer: request exist\");\n      s_erc1155Transfers[id] = uint256(info.expiresAt) + uint256(info.availableAt << 64) + (uint256(info.autoRetrieveFees) << 128);\n      emit TimedERC1155BatchTransferDeposited(\n        info.token,\n        msg.sender,\n        to,\n        info.tokenIds,\n        info.values,\n        info.fees,\n        info.secretHash,\n        info.availableAt,\n        info.expiresAt,\n        info.autoRetrieveFees\n      );\n    }\n  } */\n\n  function retrieveBatchERC1155(\n    address token,\n    address to,\n    uint256[] calldata tokenIds,\n    uint256[] calldata values,\n    bytes calldata tokenData,\n    uint256 fees,\n    bytes32 secretHash\n  ) external {\n    bytes32 id = keccak256(\n      abi.encode(\n        token,\n        msg.sender,\n        to,\n        tokenIds,\n        values,\n        tokenData,\n        fees,\n        secretHash\n      )\n    );\n    require(s_erc1155Transfers[id] > 0, \"SafeTransfer: request not exist\");\n    delete s_erc1155Transfers[id];\n    msg.sender.transfer(fees);\n    emit ERC1155BatchTransferRetrieved(token, msg.sender, to, tokenIds, values);\n  }\n\n  function collectBatchERC1155(\n    address payable to,\n    address from,\n    CollectBatchERC1155Info memory info\n  ) external onlyActivator {\n    if(info.tokenIds.length == 1 && info.values.length == 1){\n      collectERC1155(info.token, from, to, info.tokenIds[0], info.values[0], \n      info.tokenData, info.fees, info.secretHash, info.secret);\n    }\n    else{\n      bytes32 id = keccak256(\n        abi.encode(\n          info.token,\n          from,\n          to,\n          info.tokenIds,\n          info.values,\n          info.tokenData,\n          info.fees,\n          info.secretHash\n        )\n      );\n      uint256 tr = s_erc1155Transfers[id];\n      require(tr > 0, \"SafeTransfer: request not exist\");\n      require(uint64(tr) > now, \"SafeTranfer: expired\");\n      require(uint64(tr >> 64) <= now, \"SafeTranfer: not available yet\");\n      require(\n        keccak256(info.secret) == info.secretHash,\n        \"SafeTransfer: wrong secret\"\n      );\n      delete s_erc1155Transfers[id];\n      s_fees = s_fees.add(info.fees);\n      IERC1155(info.token).safeBatchTransferFrom(\n        from,\n        to,\n        info.tokenIds,\n        info.values,\n        info.tokenData\n      );\n      emit ERC1155Collected(\n        info.token,\n        from,\n        to,\n        id\n      );\n    }\n  }\n\n  function autoRetrieveBatchERC1155(\n    address payable from,\n    address token,\n    address to,\n    uint256[] calldata tokenIds,\n    uint256[] calldata values,\n    bytes calldata tokenData,\n    uint256 fees,\n    bytes32 secretHash\n  ) external {\n    bytes32 id = keccak256(\n      abi.encode(\n        token,\n        from,\n        to,\n        tokenIds,\n        values,\n        tokenData,\n        fees,\n        secretHash\n      )\n    );\n    uint256 tr = s_erc1155Transfers[id];\n    require(tr > 0, \"SafeTransfer: request not exist\");\n    require(uint64(tr) <= now, \"SafeTranfer: not expired\");\n    delete s_erc1155Transfers[id];\n    s_fees = s_fees + (tr>>128); // autoRetreive fees\n    from.transfer(fees - (tr >> 128));\n    emit ERC1155BatchTransferRetrieved(token, from, to, tokenIds, values);\n  }\n}",
  "sourcePath": "/Users/orishalom/repositories/ki-eth-token/contracts/SafeForERC1155Core.sol",
  "compiler": {
    "name": "solc",
    "version": "0.6.12+commit.27d51765.Emscripten.clang"
  },
  "schemaVersion": "3.3.4",
  "updatedAt": "2022-06-16T09:06:43.435Z",
  "devdoc": {
    "kind": "dev",
    "methods": {
      "getRoleAdmin(bytes32)": {
        "details": "Returns the admin role that controls `role`. See {grantRole} and {revokeRole}. To change a role's admin, use {_setRoleAdmin}."
      },
      "getRoleMember(bytes32,uint256)": {
        "details": "Returns one of the accounts that have `role`. `index` must be a value between 0 and {getRoleMemberCount}, non-inclusive. Role bearers are not sorted in any particular way, and their ordering may change at any point. WARNING: When using {getRoleMember} and {getRoleMemberCount}, make sure you perform all queries on the same block. See the following https://forum.openzeppelin.com/t/iterating-over-elements-on-enumerableset-in-openzeppelin-contracts/2296[forum post] for more information."
      },
      "getRoleMemberCount(bytes32)": {
        "details": "Returns the number of accounts that have `role`. Can be used together with {getRoleMember} to enumerate all bearers of a role."
      },
      "grantRole(bytes32,address)": {
        "details": "Grants `role` to `account`. If `account` had not been already granted `role`, emits a {RoleGranted} event. Requirements: - the caller must have ``role``'s admin role."
      },
      "hasRole(bytes32,address)": {
        "details": "Returns `true` if `account` has been granted `role`."
      },
      "renounceRole(bytes32,address)": {
        "details": "Revokes `role` from the calling account. Roles are often managed via {grantRole} and {revokeRole}: this function's purpose is to provide a mechanism for accounts to lose their privileges if they are compromised (such as when a trusted device is misplaced). If the calling account had been granted `role`, emits a {RoleRevoked} event. Requirements: - the caller must be `account`."
      },
      "revokeRole(bytes32,address)": {
        "details": "Revokes `role` from `account`. If `account` had been granted `role`, emits a {RoleRevoked} event. Requirements: - the caller must have ``role``'s admin role."
      }
    },
    "version": 1
  },
  "userdoc": {
    "kind": "user",
    "methods": {},
    "version": 1
  }
}