{
  "contractName": "SafeSwap",
  "abi": [
    {
      "inputs": [
        {
          "internalType": "address",
          "name": "activator",
          "type": "address"
        }
      ],
      "stateMutability": "nonpayable",
      "type": "constructor"
    },
    {
      "anonymous": false,
      "inputs": [
        {
          "indexed": true,
          "internalType": "address",
          "name": "from",
          "type": "address"
        },
        {
          "indexed": true,
          "internalType": "address",
          "name": "to",
          "type": "address"
        },
        {
          "indexed": true,
          "internalType": "bytes32",
          "name": "id",
          "type": "bytes32"
        },
        {
          "indexed": false,
          "internalType": "uint256",
          "name": "value0",
          "type": "uint256"
        },
        {
          "indexed": false,
          "internalType": "uint256",
          "name": "value1",
          "type": "uint256"
        }
      ],
      "name": "Collected",
      "type": "event"
    },
    {
      "anonymous": false,
      "inputs": [
        {
          "indexed": true,
          "internalType": "address",
          "name": "from",
          "type": "address"
        },
        {
          "indexed": true,
          "internalType": "address",
          "name": "to",
          "type": "address"
        },
        {
          "indexed": true,
          "internalType": "address",
          "name": "token0",
          "type": "address"
        },
        {
          "indexed": false,
          "internalType": "uint256",
          "name": "value0",
          "type": "uint256"
        },
        {
          "indexed": false,
          "internalType": "uint256",
          "name": "fees0",
          "type": "uint256"
        },
        {
          "indexed": false,
          "internalType": "bytes32",
          "name": "secretHash0",
          "type": "bytes32"
        },
        {
          "indexed": false,
          "internalType": "address",
          "name": "token1",
          "type": "address"
        },
        {
          "indexed": false,
          "internalType": "uint256",
          "name": "value1",
          "type": "uint256"
        },
        {
          "indexed": false,
          "internalType": "uint256",
          "name": "fees1",
          "type": "uint256"
        }
      ],
      "name": "Deposited",
      "type": "event"
    },
    {
      "anonymous": false,
      "inputs": [
        {
          "indexed": true,
          "internalType": "address",
          "name": "token",
          "type": "address"
        },
        {
          "indexed": true,
          "internalType": "address",
          "name": "from",
          "type": "address"
        },
        {
          "indexed": true,
          "internalType": "address",
          "name": "to",
          "type": "address"
        },
        {
          "indexed": false,
          "internalType": "bytes32",
          "name": "id",
          "type": "bytes32"
        },
        {
          "indexed": false,
          "internalType": "uint256",
          "name": "value",
          "type": "uint256"
        }
      ],
      "name": "ERC20Collected",
      "type": "event"
    },
    {
      "anonymous": false,
      "inputs": [
        {
          "indexed": true,
          "internalType": "address",
          "name": "token",
          "type": "address"
        },
        {
          "indexed": true,
          "internalType": "address",
          "name": "from",
          "type": "address"
        },
        {
          "indexed": true,
          "internalType": "address",
          "name": "to",
          "type": "address"
        },
        {
          "indexed": false,
          "internalType": "uint256",
          "name": "value",
          "type": "uint256"
        },
        {
          "indexed": false,
          "internalType": "uint256",
          "name": "fees",
          "type": "uint256"
        },
        {
          "indexed": false,
          "internalType": "bytes32",
          "name": "secretHash",
          "type": "bytes32"
        }
      ],
      "name": "ERC20Deposited",
      "type": "event"
    },
    {
      "anonymous": false,
      "inputs": [
        {
          "indexed": true,
          "internalType": "address",
          "name": "token",
          "type": "address"
        },
        {
          "indexed": true,
          "internalType": "address",
          "name": "from",
          "type": "address"
        },
        {
          "indexed": true,
          "internalType": "address",
          "name": "to",
          "type": "address"
        },
        {
          "indexed": false,
          "internalType": "bytes32",
          "name": "id",
          "type": "bytes32"
        },
        {
          "indexed": false,
          "internalType": "uint256",
          "name": "value",
          "type": "uint256"
        }
      ],
      "name": "ERC20Retrieved",
      "type": "event"
    },
    {
      "anonymous": false,
      "inputs": [
        {
          "indexed": true,
          "internalType": "address",
          "name": "token",
          "type": "address"
        },
        {
          "indexed": true,
          "internalType": "address",
          "name": "from",
          "type": "address"
        },
        {
          "indexed": true,
          "internalType": "address",
          "name": "to",
          "type": "address"
        },
        {
          "indexed": false,
          "internalType": "uint256",
          "name": "value",
          "type": "uint256"
        },
        {
          "indexed": false,
          "internalType": "uint256",
          "name": "fees",
          "type": "uint256"
        },
        {
          "indexed": false,
          "internalType": "bytes32",
          "name": "secretHash",
          "type": "bytes32"
        },
        {
          "indexed": false,
          "internalType": "uint64",
          "name": "availableAt",
          "type": "uint64"
        },
        {
          "indexed": false,
          "internalType": "uint64",
          "name": "expiresAt",
          "type": "uint64"
        },
        {
          "indexed": false,
          "internalType": "uint128",
          "name": "autoRetrieveFees",
          "type": "uint128"
        }
      ],
      "name": "ERC20TimedDeposited",
      "type": "event"
    },
    {
      "anonymous": false,
      "inputs": [
        {
          "indexed": true,
          "internalType": "address",
          "name": "token",
          "type": "address"
        },
        {
          "indexed": true,
          "internalType": "address",
          "name": "from",
          "type": "address"
        },
        {
          "indexed": true,
          "internalType": "address",
          "name": "to",
          "type": "address"
        },
        {
          "indexed": false,
          "internalType": "bytes32",
          "name": "id",
          "type": "bytes32"
        },
        {
          "indexed": false,
          "internalType": "uint256",
          "name": "tokenId",
          "type": "uint256"
        }
      ],
      "name": "ERC721Collected",
      "type": "event"
    },
    {
      "anonymous": false,
      "inputs": [
        {
          "indexed": true,
          "internalType": "address",
          "name": "token",
          "type": "address"
        },
        {
          "indexed": true,
          "internalType": "address",
          "name": "from",
          "type": "address"
        },
        {
          "indexed": true,
          "internalType": "address",
          "name": "to",
          "type": "address"
        },
        {
          "indexed": false,
          "internalType": "uint256",
          "name": "tokenId",
          "type": "uint256"
        },
        {
          "indexed": false,
          "internalType": "uint256",
          "name": "fees",
          "type": "uint256"
        },
        {
          "indexed": false,
          "internalType": "bytes32",
          "name": "secretHash",
          "type": "bytes32"
        }
      ],
      "name": "ERC721Deposited",
      "type": "event"
    },
    {
      "anonymous": false,
      "inputs": [
        {
          "indexed": true,
          "internalType": "address",
          "name": "token",
          "type": "address"
        },
        {
          "indexed": true,
          "internalType": "address",
          "name": "from",
          "type": "address"
        },
        {
          "indexed": true,
          "internalType": "address",
          "name": "to",
          "type": "address"
        },
        {
          "indexed": false,
          "internalType": "bytes32",
          "name": "id",
          "type": "bytes32"
        },
        {
          "indexed": false,
          "internalType": "uint256",
          "name": "tokenId",
          "type": "uint256"
        }
      ],
      "name": "ERC721Retrieved",
      "type": "event"
    },
    {
      "anonymous": false,
      "inputs": [
        {
          "indexed": true,
          "internalType": "address",
          "name": "token",
          "type": "address"
        },
        {
          "indexed": true,
          "internalType": "address",
          "name": "from",
          "type": "address"
        },
        {
          "indexed": true,
          "internalType": "address",
          "name": "to",
          "type": "address"
        },
        {
          "indexed": false,
          "internalType": "uint256",
          "name": "tokenId",
          "type": "uint256"
        },
        {
          "indexed": false,
          "internalType": "uint256",
          "name": "fees",
          "type": "uint256"
        },
        {
          "indexed": false,
          "internalType": "bytes32",
          "name": "secretHash",
          "type": "bytes32"
        },
        {
          "indexed": false,
          "internalType": "uint64",
          "name": "availableAt",
          "type": "uint64"
        },
        {
          "indexed": false,
          "internalType": "uint64",
          "name": "expiresAt",
          "type": "uint64"
        },
        {
          "indexed": false,
          "internalType": "uint128",
          "name": "autoRetrieveFees",
          "type": "uint128"
        }
      ],
      "name": "ERC721TimedDeposited",
      "type": "event"
    },
    {
      "anonymous": false,
      "inputs": [
        {
          "indexed": true,
          "internalType": "address",
          "name": "from",
          "type": "address"
        },
        {
          "indexed": true,
          "internalType": "address",
          "name": "to",
          "type": "address"
        },
        {
          "indexed": true,
          "internalType": "bytes32",
          "name": "id1",
          "type": "bytes32"
        },
        {
          "indexed": false,
          "internalType": "uint256",
          "name": "value",
          "type": "uint256"
        }
      ],
      "name": "HCollected",
      "type": "event"
    },
    {
      "anonymous": false,
      "inputs": [
        {
          "indexed": true,
          "internalType": "address",
          "name": "from",
          "type": "address"
        },
        {
          "indexed": false,
          "internalType": "uint256",
          "name": "value",
          "type": "uint256"
        },
        {
          "indexed": true,
          "internalType": "bytes32",
          "name": "id1",
          "type": "bytes32"
        }
      ],
      "name": "HDeposited",
      "type": "event"
    },
    {
      "anonymous": false,
      "inputs": [
        {
          "indexed": true,
          "internalType": "address",
          "name": "token",
          "type": "address"
        },
        {
          "indexed": true,
          "internalType": "address",
          "name": "from",
          "type": "address"
        },
        {
          "indexed": true,
          "internalType": "address",
          "name": "to",
          "type": "address"
        },
        {
          "indexed": false,
          "internalType": "bytes32",
          "name": "id1",
          "type": "bytes32"
        },
        {
          "indexed": false,
          "internalType": "uint256",
          "name": "value",
          "type": "uint256"
        }
      ],
      "name": "HERC20Collected",
      "type": "event"
    },
    {
      "anonymous": false,
      "inputs": [
        {
          "indexed": true,
          "internalType": "address",
          "name": "token",
          "type": "address"
        },
        {
          "indexed": true,
          "internalType": "address",
          "name": "from",
          "type": "address"
        },
        {
          "indexed": true,
          "internalType": "address",
          "name": "to",
          "type": "address"
        },
        {
          "indexed": false,
          "internalType": "bytes32",
          "name": "id1",
          "type": "bytes32"
        },
        {
          "indexed": false,
          "internalType": "uint256",
          "name": "tokenId",
          "type": "uint256"
        }
      ],
      "name": "HERC721Collected",
      "type": "event"
    },
    {
      "anonymous": false,
      "inputs": [
        {
          "indexed": true,
          "internalType": "address",
          "name": "from",
          "type": "address"
        },
        {
          "indexed": true,
          "internalType": "bytes32",
          "name": "id1",
          "type": "bytes32"
        },
        {
          "indexed": false,
          "internalType": "uint256",
          "name": "value",
          "type": "uint256"
        }
      ],
      "name": "HRetrieved",
      "type": "event"
    },
    {
      "anonymous": false,
      "inputs": [
        {
          "indexed": true,
          "internalType": "address",
          "name": "from",
          "type": "address"
        },
        {
          "indexed": false,
          "internalType": "uint256",
          "name": "value",
          "type": "uint256"
        },
        {
          "indexed": true,
          "internalType": "bytes32",
          "name": "id1",
          "type": "bytes32"
        },
        {
          "indexed": false,
          "internalType": "uint64",
          "name": "availableAt",
          "type": "uint64"
        },
        {
          "indexed": false,
          "internalType": "uint64",
          "name": "expiresAt",
          "type": "uint64"
        },
        {
          "indexed": false,
          "internalType": "uint128",
          "name": "autoRetrieveFees",
          "type": "uint128"
        }
      ],
      "name": "HTimedDeposited",
      "type": "event"
    },
    {
      "anonymous": false,
      "inputs": [
        {
          "indexed": true,
          "internalType": "address",
          "name": "from",
          "type": "address"
        },
        {
          "indexed": true,
          "internalType": "address",
          "name": "to",
          "type": "address"
        },
        {
          "indexed": true,
          "internalType": "bytes32",
          "name": "id",
          "type": "bytes32"
        },
        {
          "indexed": false,
          "internalType": "uint256",
          "name": "value",
          "type": "uint256"
        }
      ],
      "name": "Rejected",
      "type": "event"
    },
    {
      "anonymous": false,
      "inputs": [
        {
          "indexed": true,
          "internalType": "address",
          "name": "from",
          "type": "address"
        },
        {
          "indexed": true,
          "internalType": "address",
          "name": "to",
          "type": "address"
        },
        {
          "indexed": true,
          "internalType": "bytes32",
          "name": "id",
          "type": "bytes32"
        },
        {
          "indexed": false,
          "internalType": "uint256",
          "name": "value",
          "type": "uint256"
        }
      ],
      "name": "Retrieved",
      "type": "event"
    },
    {
      "anonymous": false,
      "inputs": [
        {
          "indexed": true,
          "internalType": "bytes32",
          "name": "role",
          "type": "bytes32"
        },
        {
          "indexed": true,
          "internalType": "bytes32",
          "name": "previousAdminRole",
          "type": "bytes32"
        },
        {
          "indexed": true,
          "internalType": "bytes32",
          "name": "newAdminRole",
          "type": "bytes32"
        }
      ],
      "name": "RoleAdminChanged",
      "type": "event"
    },
    {
      "anonymous": false,
      "inputs": [
        {
          "indexed": true,
          "internalType": "bytes32",
          "name": "role",
          "type": "bytes32"
        },
        {
          "indexed": true,
          "internalType": "address",
          "name": "account",
          "type": "address"
        },
        {
          "indexed": true,
          "internalType": "address",
          "name": "sender",
          "type": "address"
        }
      ],
      "name": "RoleGranted",
      "type": "event"
    },
    {
      "anonymous": false,
      "inputs": [
        {
          "indexed": true,
          "internalType": "bytes32",
          "name": "role",
          "type": "bytes32"
        },
        {
          "indexed": true,
          "internalType": "address",
          "name": "account",
          "type": "address"
        },
        {
          "indexed": true,
          "internalType": "address",
          "name": "sender",
          "type": "address"
        }
      ],
      "name": "RoleRevoked",
      "type": "event"
    },
    {
      "anonymous": false,
      "inputs": [
        {
          "indexed": true,
          "internalType": "address",
          "name": "from",
          "type": "address"
        },
        {
          "indexed": true,
          "internalType": "address",
          "name": "to",
          "type": "address"
        },
        {
          "indexed": true,
          "internalType": "address",
          "name": "token0",
          "type": "address"
        },
        {
          "indexed": false,
          "internalType": "uint256",
          "name": "value0",
          "type": "uint256"
        },
        {
          "indexed": false,
          "internalType": "uint256",
          "name": "fees0",
          "type": "uint256"
        },
        {
          "indexed": false,
          "internalType": "bytes32",
          "name": "secretHash0",
          "type": "bytes32"
        },
        {
          "indexed": false,
          "internalType": "address",
          "name": "token1",
          "type": "address"
        },
        {
          "indexed": false,
          "internalType": "uint256",
          "name": "value1",
          "type": "uint256"
        },
        {
          "indexed": false,
          "internalType": "uint256",
          "name": "fees1",
          "type": "uint256"
        },
        {
          "indexed": false,
          "internalType": "uint64",
          "name": "availableAt",
          "type": "uint64"
        },
        {
          "indexed": false,
          "internalType": "uint64",
          "name": "expiresAt",
          "type": "uint64"
        },
        {
          "indexed": false,
          "internalType": "uint128",
          "name": "autoRetrieveFees",
          "type": "uint128"
        }
      ],
      "name": "TimedDeposited",
      "type": "event"
    },
    {
      "inputs": [],
      "name": "ACTIVATOR_ROLE",
      "outputs": [
        {
          "internalType": "bytes32",
          "name": "",
          "type": "bytes32"
        }
      ],
      "stateMutability": "view",
      "type": "function",
      "constant": true
    },
    {
      "inputs": [],
      "name": "CHAIN_ID",
      "outputs": [
        {
          "internalType": "uint256",
          "name": "",
          "type": "uint256"
        }
      ],
      "stateMutability": "view",
      "type": "function",
      "constant": true
    },
    {
      "inputs": [],
      "name": "DEFAULT_ADMIN_ROLE",
      "outputs": [
        {
          "internalType": "bytes32",
          "name": "",
          "type": "bytes32"
        }
      ],
      "stateMutability": "view",
      "type": "function",
      "constant": true
    },
    {
      "inputs": [],
      "name": "DOMAIN_SEPARATOR",
      "outputs": [
        {
          "internalType": "bytes32",
          "name": "",
          "type": "bytes32"
        }
      ],
      "stateMutability": "view",
      "type": "function",
      "constant": true
    },
    {
      "inputs": [],
      "name": "HIDDEN_COLLECT_TYPEHASH",
      "outputs": [
        {
          "internalType": "bytes32",
          "name": "",
          "type": "bytes32"
        }
      ],
      "stateMutability": "view",
      "type": "function",
      "constant": true
    },
    {
      "inputs": [],
      "name": "HIDDEN_ERC20_COLLECT_TYPEHASH",
      "outputs": [
        {
          "internalType": "bytes32",
          "name": "",
          "type": "bytes32"
        }
      ],
      "stateMutability": "view",
      "type": "function",
      "constant": true
    },
    {
      "inputs": [],
      "name": "HIDDEN_ERC721_COLLECT_TYPEHASH",
      "outputs": [
        {
          "internalType": "bytes32",
          "name": "",
          "type": "bytes32"
        }
      ],
      "stateMutability": "view",
      "type": "function",
      "constant": true
    },
    {
      "inputs": [],
      "name": "NAME",
      "outputs": [
        {
          "internalType": "string",
          "name": "",
          "type": "string"
        }
      ],
      "stateMutability": "view",
      "type": "function",
      "constant": true
    },
    {
      "inputs": [],
      "name": "VERSION",
      "outputs": [
        {
          "internalType": "string",
          "name": "",
          "type": "string"
        }
      ],
      "stateMutability": "view",
      "type": "function",
      "constant": true
    },
    {
      "inputs": [],
      "name": "VERSION_NUMBER",
      "outputs": [
        {
          "internalType": "uint8",
          "name": "",
          "type": "uint8"
        }
      ],
      "stateMutability": "view",
      "type": "function",
      "constant": true
    },
    {
      "inputs": [
        {
          "internalType": "bytes32",
          "name": "role",
          "type": "bytes32"
        }
      ],
      "name": "getRoleAdmin",
      "outputs": [
        {
          "internalType": "bytes32",
          "name": "",
          "type": "bytes32"
        }
      ],
      "stateMutability": "view",
      "type": "function",
      "constant": true
    },
    {
      "inputs": [
        {
          "internalType": "bytes32",
          "name": "role",
          "type": "bytes32"
        },
        {
          "internalType": "uint256",
          "name": "index",
          "type": "uint256"
        }
      ],
      "name": "getRoleMember",
      "outputs": [
        {
          "internalType": "address",
          "name": "",
          "type": "address"
        }
      ],
      "stateMutability": "view",
      "type": "function",
      "constant": true
    },
    {
      "inputs": [
        {
          "internalType": "bytes32",
          "name": "role",
          "type": "bytes32"
        }
      ],
      "name": "getRoleMemberCount",
      "outputs": [
        {
          "internalType": "uint256",
          "name": "",
          "type": "uint256"
        }
      ],
      "stateMutability": "view",
      "type": "function",
      "constant": true
    },
    {
      "inputs": [
        {
          "internalType": "bytes32",
          "name": "role",
          "type": "bytes32"
        },
        {
          "internalType": "address",
          "name": "account",
          "type": "address"
        }
      ],
      "name": "grantRole",
      "outputs": [],
      "stateMutability": "nonpayable",
      "type": "function"
    },
    {
      "inputs": [
        {
          "internalType": "bytes32",
          "name": "role",
          "type": "bytes32"
        },
        {
          "internalType": "address",
          "name": "account",
          "type": "address"
        }
      ],
      "name": "hasRole",
      "outputs": [
        {
          "internalType": "bool",
          "name": "",
          "type": "bool"
        }
      ],
      "stateMutability": "view",
      "type": "function",
      "constant": true
    },
    {
      "inputs": [
        {
          "internalType": "bytes32",
          "name": "role",
          "type": "bytes32"
        },
        {
          "internalType": "address",
          "name": "account",
          "type": "address"
        }
      ],
      "name": "renounceRole",
      "outputs": [],
      "stateMutability": "nonpayable",
      "type": "function"
    },
    {
      "inputs": [
        {
          "internalType": "bytes32",
          "name": "role",
          "type": "bytes32"
        },
        {
          "internalType": "address",
          "name": "account",
          "type": "address"
        }
      ],
      "name": "revokeRole",
      "outputs": [],
      "stateMutability": "nonpayable",
      "type": "function"
    },
    {
      "stateMutability": "payable",
      "type": "receive",
      "payable": true
    },
    {
      "inputs": [
        {
          "internalType": "address",
          "name": "token",
          "type": "address"
        },
        {
          "internalType": "address",
          "name": "wallet",
          "type": "address"
        },
        {
          "internalType": "uint256",
          "name": "value",
          "type": "uint256"
        }
      ],
      "name": "transferERC20",
      "outputs": [],
      "stateMutability": "nonpayable",
      "type": "function"
    },
    {
      "inputs": [
        {
          "internalType": "address",
          "name": "token",
          "type": "address"
        },
        {
          "internalType": "address",
          "name": "wallet",
          "type": "address"
        },
        {
          "internalType": "uint256",
          "name": "tokenId",
          "type": "uint256"
        },
        {
          "internalType": "bytes",
          "name": "data",
          "type": "bytes"
        }
      ],
      "name": "transferERC721",
      "outputs": [],
      "stateMutability": "nonpayable",
      "type": "function"
    },
    {
      "inputs": [
        {
          "internalType": "address payable",
          "name": "wallet",
          "type": "address"
        },
        {
          "internalType": "uint256",
          "name": "value",
          "type": "uint256"
        }
      ],
      "name": "transferFees",
      "outputs": [],
      "stateMutability": "nonpayable",
      "type": "function"
    },
    {
      "inputs": [],
      "name": "totalFees",
      "outputs": [
        {
          "internalType": "uint256",
          "name": "",
          "type": "uint256"
        }
      ],
      "stateMutability": "view",
      "type": "function",
      "constant": true
    },
    {
      "inputs": [],
      "name": "uid",
      "outputs": [
        {
          "internalType": "bytes32",
          "name": "",
          "type": "bytes32"
        }
      ],
      "stateMutability": "view",
      "type": "function",
      "constant": true
    },
    {
      "inputs": [
        {
          "internalType": "address payable",
          "name": "to",
          "type": "address"
        },
        {
          "internalType": "address",
          "name": "token0",
          "type": "address"
        },
        {
          "internalType": "uint256",
          "name": "value0",
          "type": "uint256"
        },
        {
          "internalType": "uint256",
          "name": "fees0",
          "type": "uint256"
        },
        {
          "internalType": "address",
          "name": "token1",
          "type": "address"
        },
        {
          "internalType": "uint256",
          "name": "value1",
          "type": "uint256"
        },
        {
          "internalType": "uint256",
          "name": "fees1",
          "type": "uint256"
        },
        {
          "internalType": "bytes32",
          "name": "secretHash",
          "type": "bytes32"
        }
      ],
      "name": "deposit",
      "outputs": [],
      "stateMutability": "payable",
      "type": "function",
      "payable": true
    },
    {
      "inputs": [
        {
          "internalType": "address payable",
          "name": "to",
          "type": "address"
        },
        {
          "internalType": "address",
          "name": "token0",
          "type": "address"
        },
        {
          "internalType": "uint256",
          "name": "value0",
          "type": "uint256"
        },
        {
          "internalType": "uint256",
          "name": "fees0",
          "type": "uint256"
        },
        {
          "internalType": "address",
          "name": "token1",
          "type": "address"
        },
        {
          "internalType": "uint256",
          "name": "value1",
          "type": "uint256"
        },
        {
          "internalType": "uint256",
          "name": "fees1",
          "type": "uint256"
        },
        {
          "internalType": "bytes32",
          "name": "secretHash",
          "type": "bytes32"
        },
        {
          "internalType": "uint64",
          "name": "availableAt",
          "type": "uint64"
        },
        {
          "internalType": "uint64",
          "name": "expiresAt",
          "type": "uint64"
        },
        {
          "internalType": "uint128",
          "name": "autoRetrieveFees",
          "type": "uint128"
        }
      ],
      "name": "timedDeposit",
      "outputs": [],
      "stateMutability": "payable",
      "type": "function",
      "payable": true
    },
    {
      "inputs": [
        {
          "internalType": "address",
          "name": "to",
          "type": "address"
        },
        {
          "internalType": "address",
          "name": "token0",
          "type": "address"
        },
        {
          "internalType": "uint256",
          "name": "value0",
          "type": "uint256"
        },
        {
          "internalType": "uint256",
          "name": "fees0",
          "type": "uint256"
        },
        {
          "internalType": "address",
          "name": "token1",
          "type": "address"
        },
        {
          "internalType": "uint256",
          "name": "value1",
          "type": "uint256"
        },
        {
          "internalType": "uint256",
          "name": "fees1",
          "type": "uint256"
        },
        {
          "internalType": "bytes32",
          "name": "secretHash",
          "type": "bytes32"
        }
      ],
      "name": "retrieve",
      "outputs": [],
      "stateMutability": "nonpayable",
      "type": "function"
    },
    {
      "inputs": [
        {
          "internalType": "address payable",
          "name": "from",
          "type": "address"
        },
        {
          "internalType": "address",
          "name": "token0",
          "type": "address"
        },
        {
          "internalType": "uint256",
          "name": "value0",
          "type": "uint256"
        },
        {
          "internalType": "uint256",
          "name": "fees0",
          "type": "uint256"
        },
        {
          "internalType": "address",
          "name": "token1",
          "type": "address"
        },
        {
          "internalType": "uint256",
          "name": "value1",
          "type": "uint256"
        },
        {
          "internalType": "uint256",
          "name": "fees1",
          "type": "uint256"
        },
        {
          "internalType": "bytes32",
          "name": "secretHash",
          "type": "bytes32"
        }
      ],
      "name": "reject",
      "outputs": [],
      "stateMutability": "nonpayable",
      "type": "function"
    },
    {
      "inputs": [
        {
          "internalType": "address payable",
          "name": "from",
          "type": "address"
        },
        {
          "internalType": "address",
          "name": "token0",
          "type": "address"
        },
        {
          "internalType": "uint256",
          "name": "value0",
          "type": "uint256"
        },
        {
          "internalType": "uint256",
          "name": "fees0",
          "type": "uint256"
        },
        {
          "internalType": "address",
          "name": "token1",
          "type": "address"
        },
        {
          "internalType": "uint256",
          "name": "value1",
          "type": "uint256"
        },
        {
          "internalType": "uint256",
          "name": "fees1",
          "type": "uint256"
        },
        {
          "internalType": "bytes32",
          "name": "secretHash",
          "type": "bytes32"
        },
        {
          "internalType": "bytes",
          "name": "secret",
          "type": "bytes"
        }
      ],
      "name": "swap",
      "outputs": [],
      "stateMutability": "payable",
      "type": "function",
      "payable": true
    }
  ],
  "bytecode": "0x60806040523480156200001157600080fd5b506040516200260a3803806200260a833981810160405260208110156200003757600080fd5b505160016004556200004b600033620001a4565b62000066600080516020620025ea83398151915233620001a4565b62000081600080516020620025ea83398151915282620001a4565b50466002819055600160b01b600160f01b0360001943014060b01b1630908117600160f81b176003819055604080518082018252601481527f4b69726f626f2053616665205472616e73666572000000000000000000000000602091820152815180830183526001808252603160f81b9183019190915282517fd87cd6ef79d4e2b95e15ce8abf732db51ec771f1ca2edccf22a46c729ac56472818401527fa0e7867c78e9ee05b975f886625b0f857545d287fd4041f342f5f7398f7cf444818501527fc89efdaa54c0f20c7adf612882df0950f5a951637e0307cdcb4c672f298b8bc66060820152608081019690965260a086019490945260c0858101939093528151808603909301835260e0909401905280519201919091209055620002b8565b620001b08282620001b4565b5050565b600082815260208181526040909120620001d991839062001a486200022d821b17901c565b15620001b057620001e96200024d565b6001600160a01b0316816001600160a01b0316837f2f8788117e7eff1d82e926ec794901d17c78024a50270940304540a733656f0d60405160405180910390a45050565b600062000244836001600160a01b03841662000251565b90505b92915050565b3390565b60006200025f8383620002a0565b620002975750815460018181018455600084815260208082209093018490558454848252828601909352604090209190915562000247565b50600062000247565b60009081526001919091016020526040902054151590565b61232280620002c86000396000f3fe60806040526004361061019f5760003560e01c80638025e303116100ec578063a3f4df7e1161008a578063d547741f11610064578063d547741f146107df578063e49a12dc14610818578063f514ce3614610851578063ffa1ad7414610866576101dd565b8063a3f4df7e14610716578063b1538f92146107a0578063ca15c873146107b5576101dd565b8063919b2053116100c6578063919b20531461060f57806391d14854146106715780639db5dbe4146106be578063a217fddf14610701576101dd565b80638025e3031461058357806385e1f4d0146105ae5780639010d07c146105c3576101dd565b80632f2ff15d1161015957806336568abe1161013357806336568abe146103f65780634d6df9fc1461042f57806363eed7d0146104915780637abd1eb21461052e576101dd565b80632f2ff15d14610393578063359f54e4146103cc5780633644e515146103e1576101dd565b8062a315ce146101e257806308740a3b146102955780630eeecfd5146102bc57806313114a9d1461033f578063248a9ca3146103545780632b78bd531461037e576101dd565b366101dd5760405162461bcd60e51b815260040180806020018281038252602a815260200180612294602a913960400191505060405180910390fd5b005b600080fd5b6101db60048036036101208110156101f957600080fd5b6001600160a01b038235811692602081013582169260408201359260608301359260808101359091169160a08201359160c08101359160e08201359190810190610120810161010082013564010000000081111561025657600080fd5b82018360208201111561026857600080fd5b8035906020019184600183028401116401000000008311171561028a57600080fd5b50909250905061087b565b3480156102a157600080fd5b506102aa610c42565b60408051918252519081900360200190f35b6101db60048036036101608110156102d357600080fd5b506001600160a01b03813581169160208101358216916040820135916060810135916080820135169060a08101359060c08101359060e08101359067ffffffffffffffff610100820135811691610120810135909116906001600160801b036101409091013516610c54565b34801561034b57600080fd5b506102aa610fe3565b34801561036057600080fd5b506102aa6004803603602081101561037757600080fd5b5035610fe9565b34801561038a57600080fd5b506102aa610ffe565b34801561039f57600080fd5b506101db600480360360408110156103b657600080fd5b50803590602001356001600160a01b0316611022565b3480156103d857600080fd5b506102aa61108e565b3480156103ed57600080fd5b506102aa6110b2565b34801561040257600080fd5b506101db6004803603604081101561041957600080fd5b50803590602001356001600160a01b03166110b8565b34801561043b57600080fd5b506101db600480360361010081101561045357600080fd5b506001600160a01b03813581169160208101358216916040820135916060810135916080820135169060a08101359060c08101359060e00135611119565b34801561049d57600080fd5b506101db600480360360808110156104b457600080fd5b6001600160a01b038235811692602081013590911691604082013591908101906080810160608201356401000000008111156104ef57600080fd5b82018360208201111561050157600080fd5b8035906020019184600183028401116401000000008311171561052357600080fd5b509092509050611295565b6101db600480360361010081101561054557600080fd5b506001600160a01b03813581169160208101358216916040820135916060810135916080820135169060a08101359060c08101359060e001356113b9565b34801561058f57600080fd5b50610598611661565b6040805160ff9092168252519081900360200190f35b3480156105ba57600080fd5b506102aa611666565b3480156105cf57600080fd5b506105f3600480360360408110156105e657600080fd5b508035906020013561166c565b604080516001600160a01b039092168252519081900360200190f35b34801561061b57600080fd5b506101db600480360361010081101561063357600080fd5b506001600160a01b03813581169160208101358216916040820135916060810135916080820135169060a08101359060c08101359060e0013561168d565b34801561067d57600080fd5b506106aa6004803603604081101561069457600080fd5b50803590602001356001600160a01b0316611813565b604080519115158252519081900360200190f35b3480156106ca57600080fd5b506101db600480360360608110156106e157600080fd5b506001600160a01b0381358116916020810135909116906040013561182b565b34801561070d57600080fd5b506102aa6118ad565b34801561072257600080fd5b5061072b6118b2565b6040805160208082528351818301528351919283929083019185019080838360005b8381101561076557818101518382015260200161074d565b50505050905090810190601f1680156107925780820380516001836020036101000a031916815260200191505b509250505060405180910390f35b3480156107ac57600080fd5b506102aa6118e2565b3480156107c157600080fd5b506102aa600480360360208110156107d857600080fd5b5035611906565b3480156107eb57600080fd5b506101db6004803603604081101561080257600080fd5b50803590602001356001600160a01b031661191d565b34801561082457600080fd5b506101db6004803603604081101561083b57600080fd5b506001600160a01b038135169060200135611976565b34801561085d57600080fd5b506102aa611a25565b34801561087257600080fd5b5061072b611a2b565b604080516001600160a01b03808d166020808401919091523383850152818d166060840152608083018c905260a083018b905290891660c083015260e082018890526101008201879052610120808301879052835180840390910181526101409092018352815191810191909120600081815260059092529190205480610949576040805162461bcd60e51b815260206004820152601f60248201527f536166655472616e736665723a2072657175657374206e6f7420657869737400604482015290519081900360640190fd5b428167ffffffffffffffff161161099e576040805162461bcd60e51b815260206004820152601460248201527314d85999551c985b99995c8e88195e1c1a5c995960621b604482015290519081900360640190fd5b42604082901c67ffffffffffffffff161115610a01576040805162461bcd60e51b815260206004820152601e60248201527f536166655472616e6665723a206e6f7420617661696c61626c65207965740000604482015290519081900360640190fd5b848484604051808383808284378083019250505092505050604051809103902014610a73576040805162461bcd60e51b815260206004820152601a60248201527f536166655472616e736665723a2077726f6e6720736563726574000000000000604482015290519081900360640190fd5b600082815260056020526040812055600454610a9b908790610a95908c611a5d565b90611a5d565b6004556001600160a01b038b16610adf5760405133908b156108fc02908c906000818181858888f19350505050158015610ad9573d6000803e3d6000fd5b50610af4565b610af46001600160a01b038c168d338d611ab7565b6001600160a01b038816610b8957610b0c8787611a5d565b3414610b4d576040805162461bcd60e51b815260206004820152601c6024820152600080516020612222833981519152604482015290519081900360640190fd5b6040516001600160a01b038d169088156108fc029089906000818181858888f19350505050158015610b83573d6000803e3d6000fd5b50610be0565b853414610bcb576040805162461bcd60e51b815260206004820152601c6024820152600080516020612222833981519152604482015290519081900360640190fd5b610be06001600160a01b038916338e8a611ab7565b81336001600160a01b03168d6001600160a01b03167ff711a0c199d75c3300b32780b42983e54e7425b4bf7457e33225009592e15cc98d8b604051808381526020018281526020019250505060405180910390a4505050505050505050505050565b6000805160206121d283398151915281565b866001600160a01b03168a6001600160a01b03161415610ca55760405162461bcd60e51b81526004018080602001828103825260288152602001806122426028913960400191505060405180910390fd5b806001600160801b0316881015610ced5760405162461bcd60e51b81526004018080602001828103825260298152602001806121a96029913960400191505060405180910390fd5b6001600160a01b038b16331415610d4b576040805162461bcd60e51b815260206004820152601f60248201527f536166655472616e736665723a2073656e6465723d3d726563697069656e7400604482015290519081900360640190fd5b428267ffffffffffffffff1611610da9576040805162461bcd60e51b815260206004820152601d60248201527f536166655472616e736665723a20616c72656164792065787069726564000000604482015290519081900360640190fd5b6001600160a01b038a16610e0757610dc18989611a5d565b3414610e02576040805162461bcd60e51b815260206004820152601c6024820152600080516020612222833981519152604482015290519081900360640190fd5b610e49565b873414610e49576040805162461bcd60e51b815260206004820152601c6024820152600080516020612222833981519152604482015290519081900360640190fd5b60408051336020808301919091526001600160a01b03808f1683850152808e166060840152608083018d905260a083018c90528a1660c083015260e082018990526101008201889052610120808301889052835180840390910181526101409092018352815191810191909120600081815260059092529190205415610f16576040805162461bcd60e51b815260206004820152601b60248201527f536166655472616e736665723a20726571756573742065786973740000000000604482015290519081900360640190fd5b60008181526005602090815260409182902067ffffffffffffffff8681166fffffffffffffffffffffffffffffffff19608088811b91909116820190935584518f81529384018e90528385018a90526001600160a01b038d811660608601529284018c905260a084018b905290881660c084015260e08301526001600160801b0385166101008301529151828e16928f169133917f76d3b065fc0cd4cd7026df01d42b7b5a32f88123a151cd3e97cdf9b9971eea2f918190036101200190a4505050505050505050505050565b60045490565b60009081526020819052604090206002015490565b7f0506afef36f3613836f98ef019cb76a3e6112be8f9dc8d8fa77275d64f41823481565b60008281526020819052604090206002015461104590611040611b17565b611813565b6110805760405162461bcd60e51b815260040180806020018281038252602f81526020018061217a602f913960400191505060405180910390fd5b61108a8282611b1b565b5050565b7f9e6214229b9fba1927010d30b22a3a5d9fd5e856bb29f056416ff2ad52e8de4481565b60015481565b6110c0611b17565b6001600160a01b0316816001600160a01b03161461110f5760405162461bcd60e51b815260040180806020018281038252602f8152602001806122be602f913960400191505060405180910390fd5b61108a8282611b84565b60408051336020808301919091526001600160a01b03808c1683850152808b166060840152608083018a905260a08301899052871660c083015260e08201869052610100820185905261012080830185905283518084039091018152610140909201835281519181019190912060008181526005909252919020546111e5576040805162461bcd60e51b815260206004820152601f60248201527f536166655472616e736665723a2072657175657374206e6f7420657869737400604482015290519081900360640190fd5b60008181526005602052604081208190556001600160a01b0389166112155761120e8888611a5d565b9050611218565b50855b604051339082156108fc029083906000818181858888f19350505050158015611245573d6000803e3d6000fd5b5060408051828152905183916001600160a01b038d169133917f2c0f05de664e2354e281c7c55d07fe10e18c61d9b196dbcd318285801b36cde4919081900360200190a450505050505050505050565b6112ad6000805160206121d283398151915233611813565b6112fe576040805162461bcd60e51b815260206004820152601e60248201527f536166655472616e736665723a206e6f7420616e20616374697661746f720000604482015290519081900360640190fd5b846001600160a01b031663b88d4fde30868686866040518663ffffffff1660e01b815260040180866001600160a01b03168152602001856001600160a01b03168152602001848152602001806020018281038252848482818152602001925080828437600081840152601f19601f8201169050808301925050509650505050505050600060405180830381600087803b15801561139a57600080fd5b505af11580156113ae573d6000803e3d6000fd5b505050505050505050565b836001600160a01b0316876001600160a01b0316141561140a5760405162461bcd60e51b81526004018080602001828103825260288152602001806122426028913960400191505060405180910390fd5b6001600160a01b038716611468576114228686611a5d565b3414611463576040805162461bcd60e51b815260206004820152601c6024820152600080516020612222833981519152604482015290519081900360640190fd5b6114aa565b8434146114aa576040805162461bcd60e51b815260206004820152601c6024820152600080516020612222833981519152604482015290519081900360640190fd5b6001600160a01b038816331415611508576040805162461bcd60e51b815260206004820152601f60248201527f536166655472616e736665723a2073656e6465723d3d726563697069656e7400604482015290519081900360640190fd5b60408051336020808301919091526001600160a01b03808c1683850152808b166060840152608083018a905260a08301899052871660c083015260e0820186905261010082018590526101208083018590528351808403909101815261014090920183528151918101919091206000818152600590925291902054156115d5576040805162461bcd60e51b815260206004820152601b60248201527f536166655472616e736665723a20726571756573742065786973740000000000604482015290519081900360640190fd5b60008181526005602090815260409182902067ffffffffffffffff905581518981529081018890528082018490526001600160a01b0387811660608301526080820187905260a082018690529151828b16928c169133917fcf861ad317d6825a03088ab97ce0f17de9171eadcb13e837bd69abe2bc04f51d9181900360c00190a4505050505050505050565b600181565b60025481565b60008281526020819052604081206116849083611bed565b90505b92915050565b604080516001600160a01b03808b166020808401919091523383850152818b166060840152608083018a905260a0830189905290871660c083015260e082018690526101008201859052610120808301859052835180840390910181526101409092018352815191810191909120600081815260059092529190205461175a576040805162461bcd60e51b815260206004820152601f60248201527f536166655472616e736665723a2072657175657374206e6f7420657869737400604482015290519081900360640190fd5b60008181526005602052604081208190556001600160a01b03891661178a576117838888611a5d565b905061178d565b50855b6040516001600160a01b038b169082156108fc029083906000818181858888f193505050501580156117c3573d6000803e3d6000fd5b50604080518281529051839133916001600160a01b038e16917fefbbdfa65b10559745d8f17004e3019b48de4e9e559ff1e8f58c42e559093a6f919081900360200190a450505050505050505050565b60008281526020819052604081206116849083611bf9565b6118436000805160206121d283398151915233611813565b611894576040805162461bcd60e51b815260206004820152601e60248201527f536166655472616e736665723a206e6f7420616e20616374697661746f720000604482015290519081900360640190fd5b6118a86001600160a01b0384168383611c0e565b505050565b600081565b6040518060400160405280601481526020017325b4b937b1379029b0b332902a3930b739b332b960611b81525081565b7fa14a2dc51c26e451800897aa798120e7d6c35039caf5eb29b8ac35d1e914c59181565b600081815260208190526040812061168790611c60565b60008281526020819052604090206002015461193b90611040611b17565b61110f5760405162461bcd60e51b81526004018080602001828103825260308152602001806121f26030913960400191505060405180910390fd5b61198e6000805160206121d283398151915233611813565b6119df576040805162461bcd60e51b815260206004820152601e60248201527f536166655472616e736665723a206e6f7420616e20616374697661746f720000604482015290519081900360640190fd5b6004546119ec9082611c6b565b6004556040516001600160a01b0383169082156108fc029083906000818181858888f193505050501580156118a8573d6000803e3d6000fd5b60035490565b604051806040016040528060018152602001603160f81b81525081565b6000611684836001600160a01b038416611cad565b600082820183811015611684576040805162461bcd60e51b815260206004820152601b60248201527f536166654d6174683a206164646974696f6e206f766572666c6f770000000000604482015290519081900360640190fd5b604080516001600160a01b0380861660248301528416604482015260648082018490528251808303909101815260849091019091526020810180516001600160e01b03166323b872dd60e01b179052611b11908590611cf7565b50505050565b3390565b6000828152602081905260409020611b339082611a48565b1561108a57611b40611b17565b6001600160a01b0316816001600160a01b0316837f2f8788117e7eff1d82e926ec794901d17c78024a50270940304540a733656f0d60405160405180910390a45050565b6000828152602081905260409020611b9c9082611da8565b1561108a57611ba9611b17565b6001600160a01b0316816001600160a01b0316837ff6391f5c32d9c69d2a47ea670b442974b53935d1edc7fd64eb21e047a839171b60405160405180910390a45050565b60006116848383611dbd565b6000611684836001600160a01b038416611e21565b604080516001600160a01b038416602482015260448082018490528251808303909101815260649091019091526020810180516001600160e01b031663a9059cbb60e01b1790526118a8908490611cf7565b600061168782611e39565b600061168483836040518060400160405280601e81526020017f536166654d6174683a207375627472616374696f6e206f766572666c6f770000815250611e3d565b6000611cb98383611e21565b611cef57508154600181810184556000848152602080822090930184905584548482528286019093526040902091909155611687565b506000611687565b6060611d4c826040518060400160405280602081526020017f5361666545524332303a206c6f772d6c6576656c2063616c6c206661696c6564815250856001600160a01b0316611ed49092919063ffffffff16565b8051909150156118a857808060200190516020811015611d6b57600080fd5b50516118a85760405162461bcd60e51b815260040180806020018281038252602a81526020018061226a602a913960400191505060405180910390fd5b6000611684836001600160a01b038416611eeb565b81546000908210611dff5760405162461bcd60e51b81526004018080602001828103825260228152602001806121586022913960400191505060405180910390fd5b826000018281548110611e0e57fe5b9060005260206000200154905092915050565b60009081526001919091016020526040902054151590565b5490565b60008184841115611ecc5760405162461bcd60e51b81526004018080602001828103825283818151815260200191508051906020019080838360005b83811015611e91578181015183820152602001611e79565b50505050905090810190601f168015611ebe5780820380516001836020036101000a031916815260200191505b509250505060405180910390fd5b505050900390565b6060611ee38484600085611fb1565b949350505050565b60008181526001830160205260408120548015611fa75783546000198083019190810190600090879083908110611f1e57fe5b9060005260206000200154905080876000018481548110611f3b57fe5b600091825260208083209091019290925582815260018981019092526040902090840190558654879080611f6b57fe5b60019003818190600052602060002001600090559055866001016000878152602001908152602001600020600090556001945050505050611687565b6000915050611687565b6060611fbc8561211e565b61200d576040805162461bcd60e51b815260206004820152601d60248201527f416464726573733a2063616c6c20746f206e6f6e2d636f6e7472616374000000604482015290519081900360640190fd5b60006060866001600160a01b031685876040518082805190602001908083835b6020831061204c5780518252601f19909201916020918201910161202d565b6001836020036101000a03801982511681845116808217855250505050505090500191505060006040518083038185875af1925050503d80600081146120ae576040519150601f19603f3d011682016040523d82523d6000602084013e6120b3565b606091505b509150915081156120c7579150611ee39050565b8051156120d75780518082602001fd5b60405162461bcd60e51b8152602060048201818152865160248401528651879391928392604401919085019080838360008315611e91578181015183820152602001611e79565b6000813f7fc5d2460186f7233c927e7db2dcc703c0e500b653ca82273b7bfad8045d85a470818114801590611ee357505015159291505056fe456e756d657261626c655365743a20696e646578206f7574206f6620626f756e6473416363657373436f6e74726f6c3a2073656e646572206d75737420626520616e2061646d696e20746f206772616e74536166655472616e736665723a206175746f5265747269657665466565732065786565642066656573ec5aad7bdface20c35bc02d6d2d5760df981277427368525d634f4e2603ea192416363657373436f6e74726f6c3a2073656e646572206d75737420626520616e2061646d696e20746f207265766f6b65536166655472616e736665723a2076616c7565206d69736d6174636800000000536166655472616e736665723a2074727920746f2073776170207468652073616d6520746f6b656e5361666545524332303a204552433230206f7065726174696f6e20646964206e6f742073756363656564536166655472616e736665723a206e6f7420616363657074696e67206574686572206469726563746c79416363657373436f6e74726f6c3a2063616e206f6e6c792072656e6f756e636520726f6c657320666f722073656c66a26469706673582212208f8de456a10c245058eb792b78c719ecb45b2970dac29b15e0b2cd7c7177ba2864736f6c634300060c0033ec5aad7bdface20c35bc02d6d2d5760df981277427368525d634f4e2603ea192",
  "immutableReferences": {},
  "source": "// SPDX-License-Identifier: GPL-3.0-or-later\npragma solidity 0.6.12;\n\nimport \"../node_modules/@openzeppelin/contracts/math/SafeMath.sol\";\nimport \"../node_modules/@openzeppelin/contracts/access/AccessControl.sol\";\nimport \"../node_modules/@openzeppelin/contracts/token/ERC20/SafeERC20.sol\";\nimport \"../node_modules/@openzeppelin/contracts/token/ERC721/IERC721.sol\";\n\ncontract SafeSwap is AccessControl {\n    using SafeMath for uint256;\n    using SafeERC20 for IERC20;\n\n    // keccak256(\"ACTIVATOR_ROLE\");\n    bytes32 public constant ACTIVATOR_ROLE =\n        0xec5aad7bdface20c35bc02d6d2d5760df981277427368525d634f4e2603ea192;\n\n    // keccak256(\"hiddenCollect(address from,address to,uint256 value,uint256 fees,bytes32 secretHash)\");\n    bytes32 public constant HIDDEN_COLLECT_TYPEHASH =\n        0x0506afef36f3613836f98ef019cb76a3e6112be8f9dc8d8fa77275d64f418234;\n\n    // keccak256(\"hiddenCollectERC20(address from,address to,address token,string tokenSymbol,uint256 value,uint256 fees,bytes32 secretHash)\");\n    bytes32 public constant HIDDEN_ERC20_COLLECT_TYPEHASH =\n        0x9e6214229b9fba1927010d30b22a3a5d9fd5e856bb29f056416ff2ad52e8de44;\n\n    // keccak256(\"hiddenCollectERC721(address from,address to,address token,string tokenSymbol,uint256 tokenId,bytes tokenData,uint256 fees,bytes32 secretHash)\");\n    bytes32 public constant HIDDEN_ERC721_COLLECT_TYPEHASH =\n        0xa14a2dc51c26e451800897aa798120e7d6c35039caf5eb29b8ac35d1e914c591;\n\n    bytes32 public DOMAIN_SEPARATOR;\n    uint256 public CHAIN_ID;\n    bytes32 s_uid;\n    uint256 s_fees;\n\n    struct TokenInfo {\n        bytes32 id;\n        bytes32 id1;\n        uint256 tr;\n    }\n\n    mapping(bytes32 => uint256) s_transfers;\n    mapping(bytes32 => uint256) s_erc20Transfers;\n    mapping(bytes32 => uint256) s_erc721Transfers;\n    mapping(bytes32 => uint256) s_htransfers;\n\n    string public constant NAME = \"Kirobo Safe Transfer\";\n    string public constant VERSION = \"1\";\n    uint8 public constant VERSION_NUMBER = 0x1;\n\n    event Deposited(\n        address indexed from,\n        address indexed to,\n        address indexed token0,\n        uint256 value0,\n        uint256 fees0,\n        bytes32 secretHash0,\n        address token1,\n        uint256 value1,\n        uint256 fees1\n    );\n\n    event TimedDeposited(\n        address indexed from,\n        address indexed to,\n        address indexed token0,\n        uint256 value0,\n        uint256 fees0,\n        bytes32 secretHash0,\n        address token1,\n        uint256 value1,\n        uint256 fees1,\n        uint64 availableAt,\n        uint64 expiresAt,\n        uint128 autoRetrieveFees\n    );\n\n    event Retrieved(\n        address indexed from,\n        address indexed to,\n        bytes32 indexed id,\n        uint256 value\n    );\n\n    event Rejected(\n        address indexed from,\n        address indexed to,\n        bytes32 indexed id,\n        uint256 value\n    );\n\n    event Collected(\n        address indexed from,\n        address indexed to,\n        bytes32 indexed id,\n        uint256 value0,\n        uint256 value1\n    );\n\n    event ERC20Deposited(\n        address indexed token,\n        address indexed from,\n        address indexed to,\n        uint256 value,\n        uint256 fees,\n        bytes32 secretHash\n    );\n\n    event ERC20TimedDeposited(\n        address indexed token,\n        address indexed from,\n        address indexed to,\n        uint256 value,\n        uint256 fees,\n        bytes32 secretHash,\n        uint64 availableAt,\n        uint64 expiresAt,\n        uint128 autoRetrieveFees\n    );\n\n    event ERC20Retrieved(\n        address indexed token,\n        address indexed from,\n        address indexed to,\n        bytes32 id,\n        uint256 value\n    );\n\n    event ERC20Collected(\n        address indexed token,\n        address indexed from,\n        address indexed to,\n        bytes32 id,\n        uint256 value\n    );\n\n    event ERC721Deposited(\n        address indexed token,\n        address indexed from,\n        address indexed to,\n        uint256 tokenId,\n        uint256 fees,\n        bytes32 secretHash\n    );\n\n    event ERC721TimedDeposited(\n        address indexed token,\n        address indexed from,\n        address indexed to,\n        uint256 tokenId,\n        uint256 fees,\n        bytes32 secretHash,\n        uint64 availableAt,\n        uint64 expiresAt,\n        uint128 autoRetrieveFees\n    );\n\n    event ERC721Retrieved(\n        address indexed token,\n        address indexed from,\n        address indexed to,\n        bytes32 id,\n        uint256 tokenId\n    );\n\n    event ERC721Collected(\n        address indexed token,\n        address indexed from,\n        address indexed to,\n        bytes32 id,\n        uint256 tokenId\n    );\n\n    event HDeposited(address indexed from, uint256 value, bytes32 indexed id1);\n\n    event HTimedDeposited(\n        address indexed from,\n        uint256 value,\n        bytes32 indexed id1,\n        uint64 availableAt,\n        uint64 expiresAt,\n        uint128 autoRetrieveFees\n    );\n\n    event HRetrieved(address indexed from, bytes32 indexed id1, uint256 value);\n\n    event HCollected(\n        address indexed from,\n        address indexed to,\n        bytes32 indexed id1,\n        uint256 value\n    );\n\n    event HERC20Collected(\n        address indexed token,\n        address indexed from,\n        address indexed to,\n        bytes32 id1,\n        uint256 value\n    );\n\n    event HERC721Collected(\n        address indexed token,\n        address indexed from,\n        address indexed to,\n        bytes32 id1,\n        uint256 tokenId\n    );\n\n    modifier onlyActivator() {\n        require(\n            hasRole(ACTIVATOR_ROLE, msg.sender),\n            \"SafeTransfer: not an activator\"\n        );\n        _;\n    }\n\n    constructor(address activator) public {\n        s_fees = 1; // only for testing\n\n        _setupRole(DEFAULT_ADMIN_ROLE, msg.sender);\n        _setupRole(ACTIVATOR_ROLE, msg.sender);\n        _setupRole(ACTIVATOR_ROLE, activator);\n\n        uint256 chainId;\n        assembly {\n            chainId := chainid()\n        }\n\n        CHAIN_ID = chainId;\n\n        s_uid = bytes32(\n            (uint256(VERSION_NUMBER) << 248) |\n                ((uint256(blockhash(block.number - 1)) << 192) >> 16) |\n                uint256(address(this))\n        );\n\n        DOMAIN_SEPARATOR = keccak256(\n            abi.encode(\n                keccak256(\n                    \"EIP712Domain(string name,string version,uint256 chainId,address verifyingContract,bytes32 salt)\"\n                ),\n                keccak256(bytes(NAME)),\n                keccak256(bytes(VERSION)),\n                chainId,\n                address(this),\n                s_uid\n            )\n        );\n    }\n\n    receive() external payable {\n        require(false, \"SafeTransfer: not accepting ether directly\");\n    }\n\n    function transferERC20(\n        address token,\n        address wallet,\n        uint256 value\n    ) external onlyActivator() {\n        IERC20(token).safeTransfer(wallet, value);\n    }\n\n    function transferERC721(\n        address token,\n        address wallet,\n        uint256 tokenId,\n        bytes calldata data\n    ) external onlyActivator() {\n        IERC721(token).safeTransferFrom(address(this), wallet, tokenId, data);\n    }\n\n    function transferFees(address payable wallet, uint256 value)\n        external\n        onlyActivator()\n    {\n        s_fees = s_fees.sub(value);\n        wallet.transfer(value);\n    }\n\n    function totalFees() external view returns (uint256) {\n        return s_fees;\n    }\n\n    function uid() external view returns (bytes32) {\n        return s_uid;\n    }\n\n    // --------------------------------- ETH ---------------------------------\n\n    function deposit(\n        address payable to,\n        address token0,\n        uint256 value0,\n        uint256 fees0,\n        address token1,\n        uint256 value1,\n        uint256 fees1,\n        bytes32 secretHash\n    ) external payable {\n        require(token0 != token1, \"SafeTransfer: try to swap the same token\");\n        if (token0 == address(0)) {\n            require(\n                msg.value == value0.add(fees0),\n                \"SafeTransfer: value mismatch\"\n            );\n        } else {\n            require(msg.value == fees0, \"SafeTransfer: value mismatch\");\n        }\n        require(to != msg.sender, \"SafeTransfer: sender==recipient\");\n        bytes32 id = keccak256(\n            abi.encode(\n                msg.sender,\n                to,\n                token0,\n                value0,\n                fees0,\n                token1,\n                value1,\n                fees1,\n                secretHash\n            )\n        );\n        require(s_transfers[id] == 0, \"SafeTransfer: request exist\");\n        s_transfers[id] = 0xffffffffffffffff; // expiresAt: max, AvailableAt: 0, autoRetrieveFees: 0\n        emit Deposited(\n            msg.sender,\n            to,\n            token0,\n            value0,\n            fees0,\n            secretHash,\n            token1,\n            value1,\n            fees1\n        );\n    }\n\n    function timedDeposit(\n        address payable to,\n        address token0,\n        uint256 value0,\n        uint256 fees0,\n        address token1,\n        uint256 value1,\n        uint256 fees1,\n        bytes32 secretHash,\n        uint64 availableAt,\n        uint64 expiresAt,\n        uint128 autoRetrieveFees\n    ) external payable {\n        require(token0 != token1, \"SafeTransfer: try to swap the same token\");\n        require(\n            fees0 >= autoRetrieveFees,\n            \"SafeTransfer: autoRetrieveFees exeed fees\"\n        );\n        require(to != msg.sender, \"SafeTransfer: sender==recipient\");\n        require(expiresAt > now, \"SafeTransfer: already expired\");\n        if (token0 == address(0)) {\n            require(\n                msg.value == value0.add(fees0),\n                \"SafeTransfer: value mismatch\"\n            );\n        } else {\n            require(msg.value == fees0, \"SafeTransfer: value mismatch\");\n        }\n\n        bytes32 id = keccak256(\n            abi.encode(\n                msg.sender,\n                to,\n                token0,\n                value0,\n                fees0,\n                token1,\n                value1,\n                fees1,\n                secretHash\n            )\n        );\n        require(s_transfers[id] == 0, \"SafeTransfer: request exist\");\n        s_transfers[id] =\n            uint256(expiresAt) +\n            uint256(availableAt << 64) +\n            (uint256(autoRetrieveFees) << 128);\n        emit TimedDeposited(\n            msg.sender,\n            to,\n            token0,\n            value0,\n            fees0,\n            secretHash,\n            token1,\n            value1,\n            fees1,\n            availableAt,\n            expiresAt,\n            autoRetrieveFees\n        );\n    }\n\n    function retrieve(\n        address to,\n        address token0,\n        uint256 value0,\n        uint256 fees0,\n        address token1,\n        uint256 value1,\n        uint256 fees1,\n        bytes32 secretHash\n    ) external {\n        bytes32 id = keccak256(\n            abi.encode(\n                msg.sender,\n                to,\n                token0,\n                value0,\n                fees0,\n                token1,\n                value1,\n                fees1,\n                secretHash\n            )\n        );\n        require(s_transfers[id] > 0, \"SafeTransfer: request not exist\");\n        delete s_transfers[id];\n        uint256 valueToSend;\n        if (token0 == address(0)) {\n            valueToSend = value0.add(fees0);\n        } else {\n            valueToSend = fees0;\n        }\n        msg.sender.transfer(valueToSend);\n        emit Retrieved(msg.sender, to, id, valueToSend);\n    }\n\n    function reject(\n        address payable from,\n        address token0,\n        uint256 value0,\n        uint256 fees0,\n        address token1,\n        uint256 value1,\n        uint256 fees1,\n        bytes32 secretHash\n    ) external {\n        bytes32 id = keccak256(\n            abi.encode(\n                from,\n                msg.sender,\n                token0,\n                value0,\n                fees0,\n                token1,\n                value1,\n                fees1,\n                secretHash\n            )\n        );\n        require(s_transfers[id] > 0, \"SafeTransfer: request not exist\");\n        delete s_transfers[id];\n        uint256 valueToSend;\n        if (token0 == address(0)) {\n            valueToSend = value0.add(fees0);\n        } else {\n            valueToSend = fees0;\n        }\n        from.transfer(valueToSend);\n        emit Rejected(from, msg.sender, id, valueToSend);\n    }\n\n    function swap(\n        address payable from,\n        address token0,\n        uint256 value0,\n        uint256 fees0,\n        address token1,\n        uint256 value1,\n        uint256 fees1,\n        bytes32 secretHash,\n        bytes calldata secret\n    ) external payable {\n        bytes32 id = keccak256(\n            abi.encode(\n                from,\n                msg.sender,\n                token0,\n                value0,\n                fees0,\n                token1,\n                value1,\n                fees1,\n                secretHash\n            )\n        );\n        uint256 tr = s_transfers[id];\n        require(tr > 0, \"SafeTransfer: request not exist\");\n        require(uint64(tr) > now, \"SafeTranfer: expired\");\n        require(uint64(tr >> 64) <= now, \"SafeTranfer: not available yet\");\n        require(keccak256(secret) == secretHash, \"SafeTransfer: wrong secret\");\n        delete s_transfers[id];\n        s_fees = s_fees.add(fees0).add(fees1);\n        if (token0 == address(0)) {\n            msg.sender.transfer(value0);\n        } else {\n            IERC20(token0).safeTransferFrom(from, msg.sender, value0);\n        }\n        if (token1 == address(0)) {\n            require(\n                msg.value == value1.add(fees1),\n                \"SafeTransfer: value mismatch\"\n            );\n            from.transfer(value1);\n        } else {\n            require(msg.value == fees1, \"SafeTransfer: value mismatch\");\n            IERC20(token1).safeTransferFrom(msg.sender, from, value1);\n        }\n        emit Collected(from, msg.sender, id, value0, value1);\n    }\n    /*\n   function autoRetrieve(\n        address payable from,\n        address to,\n        uint256 value,\n        uint256 fees,\n        bytes32 secretHash\n    ) \n        external\n        onlyActivator()\n    {\n        bytes32 id = keccak256(abi.encode(from, to, value, fees, secretHash));\n        uint256 tr = s_transfers[id];\n        require(tr > 0, \"SafeTransfer: request not exist\");\n        require(uint64(tr) <= now, \"SafeTranfer: not expired\");\n        delete  s_transfers[id];\n        s_fees = s_fees + (tr>>128); // autoRetreive fees\n        uint256 valueToRetrieve = value.add(fees).sub(tr>>128);\n        from.transfer(valueToRetrieve);\n        emit Retrieved(from, to, id, valueToRetrieve);\n    }\n\n    // ------------------------------- ERC-20 --------------------------------\n\n    function depositERC20(\n        address token,\n        string calldata tokenSymbol,\n        address to,\n        uint256 value,\n        uint256 fees,\n        bytes32 secretHash\n    ) \n        payable external\n    {\n        require(msg.value == fees, \"SafeTransfer: msg.value must match fees\");\n        require(to != msg.sender, \"SafeTransfer: sender==recipient\");\n        bytes32 id = keccak256(abi.encode(token, tokenSymbol, msg.sender, to, value, fees, secretHash));\n        require(s_erc20Transfers[id] == 0, \"SafeTransfer: request exist\"); \n        s_erc20Transfers[id] = 0xffffffffffffffff;\n        emit ERC20Deposited(token, msg.sender, to, value, fees, secretHash);\n    }\n\n    function timedDepositERC20(\n        address token,\n        string calldata tokenSymbol,\n        address to,\n        uint256 value,\n        uint256 fees,\n        bytes32 secretHash,\n        uint64 availableAt,\n        uint64 expiresAt,\n        uint128 autoRetrieveFees\n    ) \n        payable external\n    {\n        require(msg.value == fees, \"SafeTransfer: msg.value must match fees\");\n        require(fees >= autoRetrieveFees, \"SafeTransfer: autoRetrieveFees exeed fees\");\n        require(to != msg.sender, \"SafeTransfer: sender==recipient\");\n        require(expiresAt > now, \"SafeTransfer: already expired\");\n        bytes32 id = keccak256(abi.encode(token, tokenSymbol, msg.sender, to, value, fees, secretHash));\n        require(s_erc20Transfers[id] == 0, \"SafeTransfer: request exist\"); \n        s_erc20Transfers[id] = uint256(expiresAt) + (uint256(availableAt) << 64) + (uint256(autoRetrieveFees) << 128);\n        emit ERC20TimedDeposited(token, msg.sender, to, value, fees, secretHash, availableAt, expiresAt, autoRetrieveFees);\n    }\n\n    function retrieveERC20(\n        address token,\n        string calldata tokenSymbol,\n        address to,\n        uint256 value,\n        uint256 fees,\n        bytes32 secretHash\n    )   \n        external \n    {\n        bytes32 id = keccak256(abi.encode(token, tokenSymbol, msg.sender, to, value, fees, secretHash));\n        require(s_erc20Transfers[id]  > 0, \"SafeTransfer: request not exist\");\n        delete s_erc20Transfers[id];\n        msg.sender.transfer(fees);\n        emit ERC20Retrieved(token, msg.sender, to, id, value);\n    }\n\n    function collectERC20(\n        address token,\n        address from,\n        address payable to,\n        uint256 value,\n        uint256 fees,\n        bytes32 secretHash,\n        bytes calldata secret\n    ) \n        public\n        onlyActivator()\n    {\n        bytes32 id = keccak256(abi.encode(token, from, to, value, fees, secretHash));\n        uint256 tr = s_erc20Transfers[id];\n        require(tr > 0, \"SafeTransfer: request not exist\");\n        require(uint64(tr) > now, \"SafeTranfer: expired\");\n        require(uint64(tr>>64) <= now, \"SafeTranfer: not available yet\");\n        require(keccak256(secret) == secretHash, \"SafeTransfer: wrong secret\");\n        delete s_erc20Transfers[id];\n        s_fees = s_fees.add(fees);\n        IERC20(token).safeTransferFrom(from, to, value);\n        emit ERC20Collected(token, from, to, id, value);\n    }\n\n   function autoRetrieveERC20(\n        address token,\n        string calldata tokenSymbol,\n        address payable from,\n        address to,\n        uint256 value,\n        uint256 fees,\n        bytes32 secretHash\n    ) \n        external\n        onlyActivator()\n    {\n        bytes32 id = keccak256(abi.encode(token, tokenSymbol, from, to, value, fees, secretHash));\n        uint256 tr = s_erc20Transfers[id];\n        require(tr > 0, \"SafeTransfer: request not exist\");\n        require(uint64(tr) <= now, \"SafeTranfer: not expired\");\n        delete  s_erc20Transfers[id];\n        s_fees = s_fees + (tr>>128); // autoRetreive fees\n        from.transfer(fees.sub(tr>>128));\n        emit ERC20Retrieved(token, from, to, id, value);\n    }\n\n    // ------------------------------- ERC-721 -------------------------------\n\n    function depositERC721(\n        address token,\n        string calldata tokenSymbol,\n        address to,\n        uint256 tokenId,\n        bytes calldata tokenData,\n        uint256 fees,\n        bytes32 secretHash\n    ) \n        payable external\n    {\n        require(msg.value == fees, \"SafeTransfer: msg.value must match fees\");\n        require(tokenId > 0, \"SafeTransfer: no token id\");\n        require(to != msg.sender, \"SafeTransfer: sender==recipient\");\n        bytes32 id = keccak256(abi.encode(token, tokenSymbol, msg.sender, to, tokenId, tokenData, fees, secretHash));\n        require(s_erc721Transfers[id] == 0, \"SafeTransfer: request exist\"); \n        s_erc721Transfers[id] = 0xffffffffffffffff;\n        emit ERC721Deposited(token, msg.sender, to, tokenId, fees, secretHash);\n    }\n\n    function timedDepositERC721(\n        address token,\n        string calldata tokenSymbol,\n        address to,\n        uint256 tokenId,\n        bytes calldata tokenData,\n        uint256 fees,\n        bytes32 secretHash,\n        uint64 availableAt,\n        uint64 expiresAt,\n        uint128 autoRetrieveFees\n    ) \n        payable external\n    {\n        require(msg.value == fees, \"SafeTransfer: msg.value must match fees\");\n        require(fees >= autoRetrieveFees, \"SafeTransfer: autoRetrieveFees exeed fees\");\n        require(tokenId > 0, \"SafeTransfer: no token id\");\n        require(to != msg.sender, \"SafeTransfer: sender==recipient\");\n        require(expiresAt > now, \"SafeTransfer: already expired\");\n        bytes32 id = keccak256(abi.encode(token, tokenSymbol, msg.sender, to, tokenId, tokenData, fees, secretHash));\n        require(s_erc721Transfers[id] == 0, \"SafeTransfer: request exist\"); \n        s_erc721Transfers[id] = uint256(expiresAt) + (uint256(availableAt) << 64) + (uint256(autoRetrieveFees) << 128);\n        emit ERC721TimedDeposited(token, msg.sender, to, tokenId, fees, secretHash, availableAt, expiresAt, autoRetrieveFees);\n    }\n\n    function retrieveERC721(\n        address token,\n        string calldata tokenSymbol,\n        address to,\n        uint256 tokenId,\n        bytes calldata tokenData,\n        uint256 fees,\n        bytes32 secretHash\n    )   \n        external \n    {\n        bytes32 id = keccak256(abi.encode(token, tokenSymbol, msg.sender, to, tokenId, tokenData, fees, secretHash));\n        require(s_erc721Transfers[id]  > 0, \"SafeTransfer: request not exist\");\n        delete s_erc721Transfers[id];\n        msg.sender.transfer(fees);\n        emit ERC721Retrieved(token, msg.sender, to, id, tokenId);\n    }\n\n    function collectERC721(\n        address token,\n        string calldata tokenSymbol,\n        address from,\n        address payable to,\n        uint256 tokenId,\n        bytes calldata tokenData,\n        uint256 fees,\n        bytes32 secretHash,\n        bytes calldata secret\n    ) \n        external\n        onlyActivator()\n    {\n        bytes32 id = keccak256(abi.encode(token, tokenSymbol, from, to, tokenId, tokenData, fees, secretHash));\n        uint256 tr = s_erc721Transfers[id];\n        require(tr > 0, \"SafeTransfer: request not exist\");\n        require(uint64(tr) > now, \"SafeTranfer: expired\");\n        require(uint64(tr>>64) <= now, \"SafeTranfer: not available yet\");\n        require(keccak256(secret) == secretHash, \"SafeTransfer: wrong secret\");\n        delete s_erc721Transfers[id];\n        s_fees = s_fees.add(fees);\n        IERC721(token).safeTransferFrom(from, to, tokenId, tokenData);\n        emit ERC721Collected(token, from, to, id, tokenId);\n    }\n\n   function autoRetrieveERC721(\n        address token,\n        string calldata tokenSymbol,\n        address payable from,\n        address to,\n        uint256 tokenId,\n        bytes calldata tokenData,\n        uint256 fees,\n        bytes32 secretHash\n    ) \n        external\n        onlyActivator()\n    {\n        bytes32 id = keccak256(abi.encode(token, tokenSymbol, from, to, tokenId, tokenData, fees, secretHash));\n        uint256 tr = s_erc721Transfers[id];\n        require(tr > 0, \"SafeTransfer: request not exist\");\n        require(uint64(tr) <= now, \"SafeTranfer: not expired\");\n        delete  s_erc721Transfers[id];\n        s_fees = s_fees + (tr>>128); // autoRetreive fees\n        from.transfer(fees.sub(tr>>128));\n        emit ERC721Retrieved(token, from, to, id, tokenId);\n    }\n\n    // ----------------------- Hidden ETH / ERC-20 / ERC-721 -----------------------\n\n    function hiddenDeposit(bytes32 id1) \n        payable external\n    {\n        bytes32 id = keccak256(abi.encode(msg.sender, msg.value, id1));\n        require(s_htransfers[id] == 0, \"SafeTransfer: request exist\"); \n        s_htransfers[id] = 0xffffffffffffffff;\n        emit HDeposited(msg.sender, msg.value, id1);\n    }\n\n    function hiddenTimedDeposit(\n        bytes32 id1,\n        uint64 availableAt,\n        uint64 expiresAt,\n        uint128 autoRetrieveFees\n    ) \n        payable external\n    {\n        require(msg.value >= autoRetrieveFees, \"SafeTransfers: autoRetrieveFees exeed value\");\n        bytes32 id = keccak256(abi.encode(msg.sender, msg.value, id1));\n        require(s_htransfers[id] == 0, \"SafeTransfer: request exist\");\n        require(expiresAt > now, \"SafeTransfer: already expired\"); \n        s_htransfers[id] = uint256(expiresAt) + (uint256(availableAt) << 64) + (uint256(autoRetrieveFees) << 128);\n        emit HTimedDeposited(msg.sender, msg.value, id1, availableAt, expiresAt, autoRetrieveFees);\n    }\n\n    function hiddenRetrieve(\n        bytes32 id1,\n        uint256 value\n    )   \n        external \n    {\n        bytes32 id = keccak256(abi.encode(msg.sender, value, id1));\n        require(s_htransfers[id]  > 0, \"SafeTransfer: request not exist\");\n        delete s_htransfers[id];\n        msg.sender.transfer(value);\n        emit HRetrieved(msg.sender, id1, value);\n    }\n\n    function hiddenCollect(\n        address from,\n        address payable to,\n        uint256 value,\n        uint256 fees,\n        bytes32 secretHash,\n        bytes calldata secret,\n        uint8 v,\n        bytes32 r,\n        bytes32 s\n    ) \n        external\n        onlyActivator()\n    {\n        bytes32 id1 = keccak256(abi.encode(HIDDEN_COLLECT_TYPEHASH, from, to, value, fees, secretHash));\n        require(ecrecover(keccak256(abi.encodePacked(\"\\x19\\x01\", DOMAIN_SEPARATOR, id1)), v, r, s) == from, \"SafeTransfer: wrong signature\");\n        bytes32 id = keccak256(abi.encode(from, value.add(fees), id1));\n        uint256 tr = s_htransfers[id];\n        require(tr > 0, \"SafeTransfer: request not exist\");\n        require(uint64(tr) > now, \"SafeTranfer: expired\");\n        require(uint64(tr>>64) <= now, \"SafeTranfer: not available yet\");\n        require(keccak256(secret) == secretHash, \"SafeTransfer: wrong secret\");\n        delete s_htransfers[id];\n        s_fees = s_fees.add(fees);\n        to.transfer(value);\n        emit HCollected(from, to, id1, value);\n    }\n\n    function hiddenCollectERC20(\n        address from,\n        address to,\n        address token,\n        string memory tokenSymbol,\n        uint256 value,\n        uint256 fees,\n        bytes32 secretHash,\n        bytes calldata secret,\n        uint8 v,\n        bytes32 r,\n        bytes32 s\n    ) \n        external\n        onlyActivator()\n    {\n        TokenInfo memory tinfo;\n        tinfo.id1 = keccak256(abi.encode(HIDDEN_ERC20_COLLECT_TYPEHASH, from, to, token, tokenSymbol, value, fees, secretHash));\n        require(ecrecover(keccak256(abi.encodePacked(\"\\x19\\x01\", DOMAIN_SEPARATOR, tinfo.id1)), v, r, s) == from, \"SafeTransfer: wrong signature\");\n        tinfo.id = keccak256(abi.encode(from, fees, tinfo.id1));\n        uint256 tr = s_htransfers[tinfo.id];\n        require(tr > 0, \"SafeTransfer: request not exist\");\n        require(uint64(tr) > now, \"SafeTranfer: expired\");\n        require(uint64(tr>>64) <= now, \"SafeTranfer: not available yet\");\n        require(keccak256(secret) == secretHash, \"SafeTransfer: wrong secret\");\n        delete s_htransfers[tinfo.id];\n        s_fees = s_fees.add(fees);\n        IERC20(token).safeTransferFrom(from, to, value);\n        emit HERC20Collected(token, from, to, tinfo.id1, value);\n    }\n\n    function hiddenCollectERC721(\n        address from,\n        address to,\n        address token,\n        string memory tokenSymbol,\n        uint256 tokenId,\n        bytes memory tokenData,\n        uint256 fees,\n        bytes32 secretHash,\n        bytes calldata secret,\n        uint8 v,\n        bytes32 r,\n        bytes32 s\n    ) \n        external\n        onlyActivator()\n    {\n        TokenInfo memory tinfo;\n        tinfo.id1 = keccak256(abi.encode(HIDDEN_ERC721_COLLECT_TYPEHASH, from, to, token, tokenSymbol, tokenId, tokenData, fees, secretHash));\n        require(ecrecover(keccak256(abi.encodePacked(\"\\x19\\x01\", DOMAIN_SEPARATOR, tinfo.id1)), v, r, s) == from, \"SafeTransfer: wrong signature\");\n        tinfo.id = keccak256(abi.encode(from, fees, tinfo.id1));\n        tinfo.tr = s_htransfers[tinfo.id]; \n        require(tinfo.tr > 0, \"SafeTransfer: request not exist\");\n        require(uint64(tinfo.tr) > now, \"SafeTranfer: expired\");\n        require(uint64(tinfo.tr>>64) <= now, \"SafeTranfer: not available yet\");\n        require(keccak256(secret) == secretHash, \"SafeTransfer: wrong secret\");\n        delete s_htransfers[tinfo.id];\n        s_fees = s_fees.add(fees);\n        IERC721(token).safeTransferFrom(from, to, tokenId, tokenData);\n        emit HERC721Collected(token, from, to, tinfo.id1, tokenId);\n    }\n\n   function hiddenAutoRetrieve(\n        address payable from,\n        bytes32 id1,\n        uint256 value\n    ) \n        external\n        onlyActivator()\n    {\n        bytes32 id = keccak256(abi.encode(from, value, id1));\n        uint256 tr = s_htransfers[id];\n        require(tr > 0, \"SafeTransfer: request not exist\");\n        require(uint64(tr) <= now, \"SafeTranfer: not expired\");\n        delete  s_htransfers[id];\n        s_fees = s_fees + (tr>>128);\n        uint256 toRetrieve = value.sub(tr>>128);\n        from.transfer(toRetrieve);\n        emit HRetrieved(from, id1, toRetrieve);\n    }\n\n    function swap(\n        address from,\n        address to,\n        address token0,\n        uint256 value0,\n        uint256 fees0,\n        bytes32 secretHash0,\n        bytes calldata secret0,\n        address token1,\n        uint256 value1,\n        uint256 fees1,\n        bytes32 secretHash1,\n        bytes calldata secret1\n    ) \n        external\n    {\n        if (token0 == address(0)) {\n            collect(from, payable(to), value0, fees0, secretHash0, secret0);\n        } else {\n            collectERC20(token0, from, payable(to), value0, fees0, secretHash0, secret0);\n        }\n        if (token1 == address(0)) {\n            collect(from, payable(to), value1, fees1, secretHash1, secret1);\n        } else {\n            collectERC20(token0, from, payable(to), value1, fees1, secretHash1, secret1);\n        }\n    }\n*/\n}\n",
  "sourcePath": "/Users/orishalom/repositories/ki-eth-token/contracts/SafeSwap.sol",
  "compiler": {
    "name": "solc",
    "version": "0.6.12+commit.27d51765.Emscripten.clang"
  },
  "schemaVersion": "3.4.1",
  "updatedAt": "2021-06-27T12:32:37.640Z",
  "networkType": "ethereum",
  "devdoc": {
    "kind": "dev",
    "methods": {
      "getRoleAdmin(bytes32)": {
        "details": "Returns the admin role that controls `role`. See {grantRole} and {revokeRole}. To change a role's admin, use {_setRoleAdmin}."
      },
      "getRoleMember(bytes32,uint256)": {
        "details": "Returns one of the accounts that have `role`. `index` must be a value between 0 and {getRoleMemberCount}, non-inclusive. Role bearers are not sorted in any particular way, and their ordering may change at any point. WARNING: When using {getRoleMember} and {getRoleMemberCount}, make sure you perform all queries on the same block. See the following https://forum.openzeppelin.com/t/iterating-over-elements-on-enumerableset-in-openzeppelin-contracts/2296[forum post] for more information."
      },
      "getRoleMemberCount(bytes32)": {
        "details": "Returns the number of accounts that have `role`. Can be used together with {getRoleMember} to enumerate all bearers of a role."
      },
      "grantRole(bytes32,address)": {
        "details": "Grants `role` to `account`. If `account` had not been already granted `role`, emits a {RoleGranted} event. Requirements: - the caller must have ``role``'s admin role."
      },
      "hasRole(bytes32,address)": {
        "details": "Returns `true` if `account` has been granted `role`."
      },
      "renounceRole(bytes32,address)": {
        "details": "Revokes `role` from the calling account. Roles are often managed via {grantRole} and {revokeRole}: this function's purpose is to provide a mechanism for accounts to lose their privileges if they are compromised (such as when a trusted device is misplaced). If the calling account had been granted `role`, emits a {RoleRevoked} event. Requirements: - the caller must be `account`."
      },
      "revokeRole(bytes32,address)": {
        "details": "Revokes `role` from `account`. If `account` had been granted `role`, emits a {RoleRevoked} event. Requirements: - the caller must have ``role``'s admin role."
      }
    },
    "version": 1
  },
  "userdoc": {
    "kind": "user",
    "methods": {},
    "version": 1
  }
}