{
  "contractName": "SafeForERC1155",
  "abi": [
    {
      "inputs": [
        {
          "internalType": "address",
          "name": "activator",
          "type": "address"
        }
      ],
      "stateMutability": "nonpayable",
      "type": "constructor"
    },
    {
      "anonymous": false,
      "inputs": [
        {
          "indexed": true,
          "internalType": "address",
          "name": "token",
          "type": "address"
        },
        {
          "indexed": true,
          "internalType": "address",
          "name": "from",
          "type": "address"
        },
        {
          "indexed": true,
          "internalType": "address",
          "name": "to",
          "type": "address"
        },
        {
          "indexed": false,
          "internalType": "uint256[]",
          "name": "tokenIds",
          "type": "uint256[]"
        },
        {
          "indexed": false,
          "internalType": "uint256[]",
          "name": "values",
          "type": "uint256[]"
        }
      ],
      "name": "ERC1155BatchCollected",
      "type": "event"
    },
    {
      "anonymous": false,
      "inputs": [
        {
          "indexed": true,
          "internalType": "address",
          "name": "token",
          "type": "address"
        },
        {
          "indexed": true,
          "internalType": "address",
          "name": "from",
          "type": "address"
        },
        {
          "indexed": true,
          "internalType": "address",
          "name": "to",
          "type": "address"
        },
        {
          "indexed": false,
          "internalType": "uint256[]",
          "name": "tokenIds",
          "type": "uint256[]"
        },
        {
          "indexed": false,
          "internalType": "uint256[]",
          "name": "values",
          "type": "uint256[]"
        },
        {
          "indexed": false,
          "internalType": "uint256",
          "name": "fees",
          "type": "uint256"
        },
        {
          "indexed": false,
          "internalType": "bytes32",
          "name": "secretHash",
          "type": "bytes32"
        }
      ],
      "name": "ERC1155BatchTransferDeposited",
      "type": "event"
    },
    {
      "anonymous": false,
      "inputs": [
        {
          "indexed": true,
          "internalType": "address",
          "name": "token",
          "type": "address"
        },
        {
          "indexed": true,
          "internalType": "address",
          "name": "from",
          "type": "address"
        },
        {
          "indexed": true,
          "internalType": "address",
          "name": "to",
          "type": "address"
        },
        {
          "indexed": false,
          "internalType": "uint256[]",
          "name": "tokenIds",
          "type": "uint256[]"
        },
        {
          "indexed": false,
          "internalType": "uint256[]",
          "name": "values",
          "type": "uint256[]"
        }
      ],
      "name": "ERC1155BatchTransferRetrieved",
      "type": "event"
    },
    {
      "anonymous": false,
      "inputs": [
        {
          "indexed": true,
          "internalType": "address",
          "name": "token",
          "type": "address"
        },
        {
          "indexed": true,
          "internalType": "address",
          "name": "from",
          "type": "address"
        },
        {
          "indexed": true,
          "internalType": "address",
          "name": "to",
          "type": "address"
        },
        {
          "indexed": false,
          "internalType": "uint256",
          "name": "tokenId",
          "type": "uint256"
        },
        {
          "indexed": false,
          "internalType": "uint256",
          "name": "value",
          "type": "uint256"
        }
      ],
      "name": "ERC1155Collected",
      "type": "event"
    },
    {
      "anonymous": false,
      "inputs": [
        {
          "indexed": true,
          "internalType": "address",
          "name": "from",
          "type": "address"
        },
        {
          "indexed": true,
          "internalType": "address",
          "name": "to",
          "type": "address"
        },
        {
          "indexed": true,
          "internalType": "address",
          "name": "token0",
          "type": "address"
        },
        {
          "indexed": false,
          "internalType": "uint256[]",
          "name": "tokenIds0",
          "type": "uint256[]"
        },
        {
          "indexed": false,
          "internalType": "uint256[]",
          "name": "values0",
          "type": "uint256[]"
        },
        {
          "indexed": false,
          "internalType": "uint256",
          "name": "fees0",
          "type": "uint256"
        },
        {
          "indexed": false,
          "internalType": "address",
          "name": "token1",
          "type": "address"
        },
        {
          "indexed": false,
          "internalType": "uint256[]",
          "name": "tokenIds1",
          "type": "uint256[]"
        },
        {
          "indexed": false,
          "internalType": "uint256[]",
          "name": "values1",
          "type": "uint256[]"
        },
        {
          "indexed": false,
          "internalType": "uint256",
          "name": "fees1",
          "type": "uint256"
        },
        {
          "indexed": false,
          "internalType": "bytes32",
          "name": "secretHash",
          "type": "bytes32"
        }
      ],
      "name": "ERC1155SwapDeposited",
      "type": "event"
    },
    {
      "anonymous": false,
      "inputs": [
        {
          "indexed": true,
          "internalType": "address",
          "name": "from",
          "type": "address"
        },
        {
          "indexed": true,
          "internalType": "address",
          "name": "to",
          "type": "address"
        },
        {
          "indexed": true,
          "internalType": "address",
          "name": "token",
          "type": "address"
        },
        {
          "indexed": false,
          "internalType": "uint256[]",
          "name": "tokenIds",
          "type": "uint256[]"
        },
        {
          "indexed": false,
          "internalType": "uint256[]",
          "name": "values",
          "type": "uint256[]"
        },
        {
          "indexed": false,
          "internalType": "bytes32",
          "name": "id",
          "type": "bytes32"
        }
      ],
      "name": "ERC1155SwapRetrieved",
      "type": "event"
    },
    {
      "anonymous": false,
      "inputs": [
        {
          "indexed": true,
          "internalType": "address",
          "name": "from",
          "type": "address"
        },
        {
          "indexed": true,
          "internalType": "address",
          "name": "to",
          "type": "address"
        },
        {
          "indexed": true,
          "internalType": "address",
          "name": "token0",
          "type": "address"
        },
        {
          "indexed": false,
          "internalType": "uint256[]",
          "name": "tokenIds0",
          "type": "uint256[]"
        },
        {
          "indexed": false,
          "internalType": "uint256[]",
          "name": "values0",
          "type": "uint256[]"
        },
        {
          "indexed": false,
          "internalType": "address",
          "name": "token1",
          "type": "address"
        },
        {
          "indexed": false,
          "internalType": "uint256[]",
          "name": "tokenIds1",
          "type": "uint256[]"
        },
        {
          "indexed": false,
          "internalType": "uint256[]",
          "name": "values1",
          "type": "uint256[]"
        },
        {
          "indexed": false,
          "internalType": "bytes32",
          "name": "id",
          "type": "bytes32"
        }
      ],
      "name": "ERC1155Swapped",
      "type": "event"
    },
    {
      "anonymous": false,
      "inputs": [
        {
          "indexed": true,
          "internalType": "address",
          "name": "token",
          "type": "address"
        },
        {
          "indexed": true,
          "internalType": "address",
          "name": "from",
          "type": "address"
        },
        {
          "indexed": true,
          "internalType": "address",
          "name": "to",
          "type": "address"
        },
        {
          "indexed": false,
          "internalType": "uint256",
          "name": "tokenId",
          "type": "uint256"
        },
        {
          "indexed": false,
          "internalType": "uint256",
          "name": "value",
          "type": "uint256"
        },
        {
          "indexed": false,
          "internalType": "uint256",
          "name": "fees",
          "type": "uint256"
        },
        {
          "indexed": false,
          "internalType": "bytes32",
          "name": "secretHash",
          "type": "bytes32"
        }
      ],
      "name": "ERC1155TransferDeposited",
      "type": "event"
    },
    {
      "anonymous": false,
      "inputs": [
        {
          "indexed": true,
          "internalType": "address",
          "name": "token",
          "type": "address"
        },
        {
          "indexed": true,
          "internalType": "address",
          "name": "from",
          "type": "address"
        },
        {
          "indexed": true,
          "internalType": "address",
          "name": "to",
          "type": "address"
        },
        {
          "indexed": false,
          "internalType": "uint256",
          "name": "tokenId",
          "type": "uint256"
        },
        {
          "indexed": false,
          "internalType": "uint256",
          "name": "value",
          "type": "uint256"
        }
      ],
      "name": "ERC1155TransferRetrieved",
      "type": "event"
    },
    {
      "anonymous": false,
      "inputs": [
        {
          "indexed": true,
          "internalType": "address",
          "name": "token",
          "type": "address"
        },
        {
          "indexed": true,
          "internalType": "address",
          "name": "from",
          "type": "address"
        },
        {
          "indexed": true,
          "internalType": "address",
          "name": "to",
          "type": "address"
        },
        {
          "indexed": false,
          "internalType": "bytes32",
          "name": "id",
          "type": "bytes32"
        },
        {
          "indexed": false,
          "internalType": "uint256[]",
          "name": "tokenId",
          "type": "uint256[]"
        }
      ],
      "name": "ERC721Retrieved",
      "type": "event"
    },
    {
      "anonymous": false,
      "inputs": [
        {
          "indexed": true,
          "internalType": "address",
          "name": "from",
          "type": "address"
        },
        {
          "indexed": true,
          "internalType": "address",
          "name": "to",
          "type": "address"
        },
        {
          "indexed": true,
          "internalType": "bytes32",
          "name": "id",
          "type": "bytes32"
        },
        {
          "indexed": false,
          "internalType": "uint256",
          "name": "value",
          "type": "uint256"
        }
      ],
      "name": "Retrieved",
      "type": "event"
    },
    {
      "anonymous": false,
      "inputs": [
        {
          "indexed": true,
          "internalType": "bytes32",
          "name": "role",
          "type": "bytes32"
        },
        {
          "indexed": true,
          "internalType": "bytes32",
          "name": "previousAdminRole",
          "type": "bytes32"
        },
        {
          "indexed": true,
          "internalType": "bytes32",
          "name": "newAdminRole",
          "type": "bytes32"
        }
      ],
      "name": "RoleAdminChanged",
      "type": "event"
    },
    {
      "anonymous": false,
      "inputs": [
        {
          "indexed": true,
          "internalType": "bytes32",
          "name": "role",
          "type": "bytes32"
        },
        {
          "indexed": true,
          "internalType": "address",
          "name": "account",
          "type": "address"
        },
        {
          "indexed": true,
          "internalType": "address",
          "name": "sender",
          "type": "address"
        }
      ],
      "name": "RoleGranted",
      "type": "event"
    },
    {
      "anonymous": false,
      "inputs": [
        {
          "indexed": true,
          "internalType": "bytes32",
          "name": "role",
          "type": "bytes32"
        },
        {
          "indexed": true,
          "internalType": "address",
          "name": "account",
          "type": "address"
        },
        {
          "indexed": true,
          "internalType": "address",
          "name": "sender",
          "type": "address"
        }
      ],
      "name": "RoleRevoked",
      "type": "event"
    },
    {
      "anonymous": false,
      "inputs": [
        {
          "indexed": true,
          "internalType": "address",
          "name": "from",
          "type": "address"
        },
        {
          "indexed": true,
          "internalType": "address",
          "name": "to",
          "type": "address"
        },
        {
          "indexed": true,
          "internalType": "address",
          "name": "token0",
          "type": "address"
        },
        {
          "indexed": false,
          "internalType": "uint256[]",
          "name": "tokenIds0",
          "type": "uint256[]"
        },
        {
          "indexed": false,
          "internalType": "uint256[]",
          "name": "values0",
          "type": "uint256[]"
        },
        {
          "indexed": false,
          "internalType": "bytes",
          "name": "tokenData0",
          "type": "bytes"
        },
        {
          "indexed": false,
          "internalType": "uint256",
          "name": "fees0",
          "type": "uint256"
        },
        {
          "indexed": false,
          "internalType": "address",
          "name": "token1",
          "type": "address"
        },
        {
          "indexed": false,
          "internalType": "uint256",
          "name": "value1",
          "type": "uint256"
        },
        {
          "indexed": false,
          "internalType": "uint256",
          "name": "fees1",
          "type": "uint256"
        },
        {
          "indexed": false,
          "internalType": "bytes32",
          "name": "secretHash",
          "type": "bytes32"
        }
      ],
      "name": "swapDepositERC1155ToERC20Event",
      "type": "event"
    },
    {
      "anonymous": false,
      "inputs": [
        {
          "indexed": true,
          "internalType": "address",
          "name": "from",
          "type": "address"
        },
        {
          "indexed": true,
          "internalType": "address",
          "name": "to",
          "type": "address"
        },
        {
          "indexed": true,
          "internalType": "address",
          "name": "token0",
          "type": "address"
        },
        {
          "indexed": false,
          "internalType": "uint256",
          "name": "value0",
          "type": "uint256"
        },
        {
          "indexed": false,
          "internalType": "uint256",
          "name": "fees0",
          "type": "uint256"
        },
        {
          "indexed": false,
          "internalType": "address",
          "name": "token1",
          "type": "address"
        },
        {
          "indexed": false,
          "internalType": "uint256[]",
          "name": "tokenIds1",
          "type": "uint256[]"
        },
        {
          "indexed": false,
          "internalType": "uint256[]",
          "name": "values1",
          "type": "uint256[]"
        },
        {
          "indexed": false,
          "internalType": "bytes",
          "name": "tokenData1",
          "type": "bytes"
        },
        {
          "indexed": false,
          "internalType": "uint256",
          "name": "fees1",
          "type": "uint256"
        },
        {
          "indexed": false,
          "internalType": "bytes32",
          "name": "secretHash",
          "type": "bytes32"
        }
      ],
      "name": "swapDepositERC20ToERC1155Event",
      "type": "event"
    },
    {
      "anonymous": false,
      "inputs": [
        {
          "indexed": true,
          "internalType": "address",
          "name": "from",
          "type": "address"
        },
        {
          "indexed": true,
          "internalType": "address",
          "name": "to",
          "type": "address"
        },
        {
          "indexed": true,
          "internalType": "address",
          "name": "token0",
          "type": "address"
        },
        {
          "indexed": false,
          "internalType": "uint256[]",
          "name": "tokenIds0",
          "type": "uint256[]"
        },
        {
          "indexed": false,
          "internalType": "uint256[]",
          "name": "values0",
          "type": "uint256[]"
        },
        {
          "indexed": false,
          "internalType": "bytes",
          "name": "tokenData0",
          "type": "bytes"
        },
        {
          "indexed": false,
          "internalType": "address",
          "name": "token1",
          "type": "address"
        },
        {
          "indexed": false,
          "internalType": "uint256",
          "name": "value1",
          "type": "uint256"
        },
        {
          "indexed": false,
          "internalType": "bytes32",
          "name": "id",
          "type": "bytes32"
        }
      ],
      "name": "swapERC1155ToERC20Event",
      "type": "event"
    },
    {
      "anonymous": false,
      "inputs": [
        {
          "indexed": true,
          "internalType": "address",
          "name": "from",
          "type": "address"
        },
        {
          "indexed": true,
          "internalType": "address",
          "name": "to",
          "type": "address"
        },
        {
          "indexed": true,
          "internalType": "address",
          "name": "token0",
          "type": "address"
        },
        {
          "indexed": false,
          "internalType": "uint256[]",
          "name": "tokenIds0",
          "type": "uint256[]"
        },
        {
          "indexed": false,
          "internalType": "uint256[]",
          "name": "values0",
          "type": "uint256[]"
        },
        {
          "indexed": false,
          "internalType": "address",
          "name": "token1",
          "type": "address"
        },
        {
          "indexed": false,
          "internalType": "uint256",
          "name": "value1",
          "type": "uint256"
        },
        {
          "indexed": false,
          "internalType": "bytes32",
          "name": "id",
          "type": "bytes32"
        }
      ],
      "name": "swapERC1155ToETHEvent",
      "type": "event"
    },
    {
      "anonymous": false,
      "inputs": [
        {
          "indexed": true,
          "internalType": "address",
          "name": "from",
          "type": "address"
        },
        {
          "indexed": true,
          "internalType": "address",
          "name": "to",
          "type": "address"
        },
        {
          "indexed": true,
          "internalType": "address",
          "name": "token0",
          "type": "address"
        },
        {
          "indexed": false,
          "internalType": "uint256",
          "name": "value0",
          "type": "uint256"
        },
        {
          "indexed": false,
          "internalType": "address",
          "name": "token1",
          "type": "address"
        },
        {
          "indexed": false,
          "internalType": "uint256[]",
          "name": "tokenIds1",
          "type": "uint256[]"
        },
        {
          "indexed": false,
          "internalType": "uint256[]",
          "name": "values1",
          "type": "uint256[]"
        },
        {
          "indexed": false,
          "internalType": "bytes",
          "name": "tokenData1",
          "type": "bytes"
        },
        {
          "indexed": false,
          "internalType": "bytes32",
          "name": "id",
          "type": "bytes32"
        }
      ],
      "name": "swapERC20ToERC1155Event",
      "type": "event"
    },
    {
      "anonymous": false,
      "inputs": [
        {
          "indexed": true,
          "internalType": "address",
          "name": "from",
          "type": "address"
        },
        {
          "indexed": true,
          "internalType": "address",
          "name": "to",
          "type": "address"
        },
        {
          "indexed": true,
          "internalType": "address",
          "name": "token0",
          "type": "address"
        },
        {
          "indexed": false,
          "internalType": "uint256[]",
          "name": "tokenIds0",
          "type": "uint256[]"
        },
        {
          "indexed": false,
          "internalType": "uint256[]",
          "name": "values0",
          "type": "uint256[]"
        },
        {
          "indexed": false,
          "internalType": "bytes",
          "name": "tokenData0",
          "type": "bytes"
        },
        {
          "indexed": false,
          "internalType": "bytes32",
          "name": "id",
          "type": "bytes32"
        }
      ],
      "name": "swapRetrieveERC1155ToERC20Event",
      "type": "event"
    },
    {
      "anonymous": false,
      "inputs": [
        {
          "indexed": true,
          "internalType": "address",
          "name": "from",
          "type": "address"
        },
        {
          "indexed": true,
          "internalType": "address",
          "name": "to",
          "type": "address"
        },
        {
          "indexed": true,
          "internalType": "address",
          "name": "token0",
          "type": "address"
        },
        {
          "indexed": false,
          "internalType": "uint256",
          "name": "value0",
          "type": "uint256"
        },
        {
          "indexed": false,
          "internalType": "bytes32",
          "name": "id",
          "type": "bytes32"
        }
      ],
      "name": "swapRetrieveERC20ToERC1155Event",
      "type": "event"
    },
    {
      "inputs": [],
      "name": "ACTIVATOR_ROLE",
      "outputs": [
        {
          "internalType": "bytes32",
          "name": "",
          "type": "bytes32"
        }
      ],
      "stateMutability": "view",
      "type": "function"
    },
    {
      "inputs": [],
      "name": "CHAIN_ID",
      "outputs": [
        {
          "internalType": "uint256",
          "name": "",
          "type": "uint256"
        }
      ],
      "stateMutability": "view",
      "type": "function"
    },
    {
      "inputs": [],
      "name": "DEFAULT_ADMIN_ROLE",
      "outputs": [
        {
          "internalType": "bytes32",
          "name": "",
          "type": "bytes32"
        }
      ],
      "stateMutability": "view",
      "type": "function"
    },
    {
      "inputs": [],
      "name": "DOMAIN_SEPARATOR",
      "outputs": [
        {
          "internalType": "bytes32",
          "name": "",
          "type": "bytes32"
        }
      ],
      "stateMutability": "view",
      "type": "function"
    },
    {
      "inputs": [],
      "name": "NAME",
      "outputs": [
        {
          "internalType": "string",
          "name": "",
          "type": "string"
        }
      ],
      "stateMutability": "view",
      "type": "function"
    },
    {
      "inputs": [],
      "name": "VERSION",
      "outputs": [
        {
          "internalType": "string",
          "name": "",
          "type": "string"
        }
      ],
      "stateMutability": "view",
      "type": "function"
    },
    {
      "inputs": [],
      "name": "VERSION_NUMBER",
      "outputs": [
        {
          "internalType": "uint8",
          "name": "",
          "type": "uint8"
        }
      ],
      "stateMutability": "view",
      "type": "function"
    },
    {
      "inputs": [
        {
          "internalType": "bytes32",
          "name": "role",
          "type": "bytes32"
        }
      ],
      "name": "getRoleAdmin",
      "outputs": [
        {
          "internalType": "bytes32",
          "name": "",
          "type": "bytes32"
        }
      ],
      "stateMutability": "view",
      "type": "function"
    },
    {
      "inputs": [
        {
          "internalType": "bytes32",
          "name": "role",
          "type": "bytes32"
        },
        {
          "internalType": "uint256",
          "name": "index",
          "type": "uint256"
        }
      ],
      "name": "getRoleMember",
      "outputs": [
        {
          "internalType": "address",
          "name": "",
          "type": "address"
        }
      ],
      "stateMutability": "view",
      "type": "function"
    },
    {
      "inputs": [
        {
          "internalType": "bytes32",
          "name": "role",
          "type": "bytes32"
        }
      ],
      "name": "getRoleMemberCount",
      "outputs": [
        {
          "internalType": "uint256",
          "name": "",
          "type": "uint256"
        }
      ],
      "stateMutability": "view",
      "type": "function"
    },
    {
      "inputs": [
        {
          "internalType": "bytes32",
          "name": "role",
          "type": "bytes32"
        },
        {
          "internalType": "address",
          "name": "account",
          "type": "address"
        }
      ],
      "name": "grantRole",
      "outputs": [],
      "stateMutability": "nonpayable",
      "type": "function"
    },
    {
      "inputs": [
        {
          "internalType": "bytes32",
          "name": "role",
          "type": "bytes32"
        },
        {
          "internalType": "address",
          "name": "account",
          "type": "address"
        }
      ],
      "name": "hasRole",
      "outputs": [
        {
          "internalType": "bool",
          "name": "",
          "type": "bool"
        }
      ],
      "stateMutability": "view",
      "type": "function"
    },
    {
      "inputs": [
        {
          "internalType": "bytes32",
          "name": "role",
          "type": "bytes32"
        },
        {
          "internalType": "address",
          "name": "account",
          "type": "address"
        }
      ],
      "name": "renounceRole",
      "outputs": [],
      "stateMutability": "nonpayable",
      "type": "function"
    },
    {
      "inputs": [
        {
          "internalType": "bytes32",
          "name": "role",
          "type": "bytes32"
        },
        {
          "internalType": "address",
          "name": "account",
          "type": "address"
        }
      ],
      "name": "revokeRole",
      "outputs": [],
      "stateMutability": "nonpayable",
      "type": "function"
    },
    {
      "stateMutability": "payable",
      "type": "receive"
    },
    {
      "inputs": [
        {
          "internalType": "address payable",
          "name": "wallet",
          "type": "address"
        },
        {
          "internalType": "uint256",
          "name": "value",
          "type": "uint256"
        }
      ],
      "name": "transferFees",
      "outputs": [],
      "stateMutability": "nonpayable",
      "type": "function"
    },
    {
      "inputs": [],
      "name": "totalFees",
      "outputs": [
        {
          "internalType": "uint256",
          "name": "",
          "type": "uint256"
        }
      ],
      "stateMutability": "view",
      "type": "function"
    },
    {
      "inputs": [
        {
          "internalType": "address",
          "name": "token",
          "type": "address"
        },
        {
          "internalType": "address",
          "name": "to",
          "type": "address"
        },
        {
          "internalType": "uint256",
          "name": "tokenId",
          "type": "uint256"
        },
        {
          "internalType": "uint256",
          "name": "value",
          "type": "uint256"
        },
        {
          "internalType": "bytes",
          "name": "tokenData",
          "type": "bytes"
        },
        {
          "internalType": "uint256",
          "name": "fees",
          "type": "uint256"
        },
        {
          "internalType": "bytes32",
          "name": "secretHash",
          "type": "bytes32"
        }
      ],
      "name": "depositERC1155",
      "outputs": [],
      "stateMutability": "payable",
      "type": "function"
    },
    {
      "inputs": [
        {
          "internalType": "address",
          "name": "token",
          "type": "address"
        },
        {
          "internalType": "address",
          "name": "to",
          "type": "address"
        },
        {
          "internalType": "uint256",
          "name": "tokenId",
          "type": "uint256"
        },
        {
          "internalType": "uint256",
          "name": "value",
          "type": "uint256"
        },
        {
          "internalType": "bytes",
          "name": "tokenData",
          "type": "bytes"
        },
        {
          "internalType": "uint256",
          "name": "fees",
          "type": "uint256"
        },
        {
          "internalType": "bytes32",
          "name": "secretHash",
          "type": "bytes32"
        }
      ],
      "name": "retrieveERC1155",
      "outputs": [],
      "stateMutability": "nonpayable",
      "type": "function"
    },
    {
      "inputs": [
        {
          "internalType": "address",
          "name": "token",
          "type": "address"
        },
        {
          "internalType": "address",
          "name": "from",
          "type": "address"
        },
        {
          "internalType": "address payable",
          "name": "to",
          "type": "address"
        },
        {
          "internalType": "uint256",
          "name": "tokenId",
          "type": "uint256"
        },
        {
          "internalType": "uint256",
          "name": "value",
          "type": "uint256"
        },
        {
          "internalType": "bytes",
          "name": "tokenData",
          "type": "bytes"
        },
        {
          "internalType": "uint256",
          "name": "fees",
          "type": "uint256"
        },
        {
          "internalType": "bytes32",
          "name": "secretHash",
          "type": "bytes32"
        },
        {
          "internalType": "bytes",
          "name": "secret",
          "type": "bytes"
        }
      ],
      "name": "collectERC1155",
      "outputs": [],
      "stateMutability": "nonpayable",
      "type": "function"
    },
    {
      "inputs": [
        {
          "internalType": "address",
          "name": "token",
          "type": "address"
        },
        {
          "internalType": "address",
          "name": "to",
          "type": "address"
        },
        {
          "internalType": "uint256[]",
          "name": "tokenIds",
          "type": "uint256[]"
        },
        {
          "internalType": "uint256[]",
          "name": "values",
          "type": "uint256[]"
        },
        {
          "internalType": "bytes",
          "name": "tokenData",
          "type": "bytes"
        },
        {
          "internalType": "uint256",
          "name": "fees",
          "type": "uint256"
        },
        {
          "internalType": "bytes32",
          "name": "secretHash",
          "type": "bytes32"
        }
      ],
      "name": "depositBatchERC1155",
      "outputs": [],
      "stateMutability": "payable",
      "type": "function"
    },
    {
      "inputs": [
        {
          "internalType": "address",
          "name": "token",
          "type": "address"
        },
        {
          "internalType": "address",
          "name": "to",
          "type": "address"
        },
        {
          "internalType": "uint256[]",
          "name": "tokenIds",
          "type": "uint256[]"
        },
        {
          "internalType": "uint256[]",
          "name": "values",
          "type": "uint256[]"
        },
        {
          "internalType": "bytes",
          "name": "tokenData",
          "type": "bytes"
        },
        {
          "internalType": "uint256",
          "name": "fees",
          "type": "uint256"
        },
        {
          "internalType": "bytes32",
          "name": "secretHash",
          "type": "bytes32"
        }
      ],
      "name": "retrieveBatchERC1155",
      "outputs": [],
      "stateMutability": "nonpayable",
      "type": "function"
    },
    {
      "inputs": [
        {
          "internalType": "address",
          "name": "to",
          "type": "address"
        },
        {
          "internalType": "address",
          "name": "from",
          "type": "address"
        },
        {
          "components": [
            {
              "internalType": "address",
              "name": "token",
              "type": "address"
            },
            {
              "internalType": "uint256[]",
              "name": "tokenIds",
              "type": "uint256[]"
            },
            {
              "internalType": "uint256[]",
              "name": "values",
              "type": "uint256[]"
            },
            {
              "internalType": "bytes",
              "name": "tokenData",
              "type": "bytes"
            },
            {
              "internalType": "uint256",
              "name": "fees",
              "type": "uint256"
            },
            {
              "internalType": "bytes32",
              "name": "secretHash",
              "type": "bytes32"
            },
            {
              "internalType": "bytes",
              "name": "secret",
              "type": "bytes"
            }
          ],
          "internalType": "struct SafeForERC1155.CollectBatchERC1155Info",
          "name": "info",
          "type": "tuple"
        }
      ],
      "name": "collectBatchERC1155",
      "outputs": [],
      "stateMutability": "nonpayable",
      "type": "function"
    },
    {
      "inputs": [
        {
          "internalType": "address payable",
          "name": "to",
          "type": "address"
        },
        {
          "components": [
            {
              "internalType": "address",
              "name": "token0",
              "type": "address"
            },
            {
              "internalType": "uint256[]",
              "name": "tokenIds0",
              "type": "uint256[]"
            },
            {
              "internalType": "uint256[]",
              "name": "values0",
              "type": "uint256[]"
            },
            {
              "internalType": "bytes",
              "name": "tokenData0",
              "type": "bytes"
            },
            {
              "internalType": "uint256",
              "name": "fees0",
              "type": "uint256"
            },
            {
              "internalType": "address",
              "name": "token1",
              "type": "address"
            },
            {
              "internalType": "uint256[]",
              "name": "tokenIds1",
              "type": "uint256[]"
            },
            {
              "internalType": "uint256[]",
              "name": "values1",
              "type": "uint256[]"
            },
            {
              "internalType": "bytes",
              "name": "tokenData1",
              "type": "bytes"
            },
            {
              "internalType": "uint256",
              "name": "fees1",
              "type": "uint256"
            },
            {
              "internalType": "bytes32",
              "name": "secretHash",
              "type": "bytes32"
            }
          ],
          "internalType": "struct SafeForERC1155.SwapERC1155Info",
          "name": "info",
          "type": "tuple"
        }
      ],
      "name": "swapDepositERC1155",
      "outputs": [],
      "stateMutability": "payable",
      "type": "function"
    },
    {
      "inputs": [
        {
          "internalType": "address",
          "name": "to",
          "type": "address"
        },
        {
          "components": [
            {
              "internalType": "address",
              "name": "token0",
              "type": "address"
            },
            {
              "internalType": "uint256[]",
              "name": "tokenIds0",
              "type": "uint256[]"
            },
            {
              "internalType": "uint256[]",
              "name": "values0",
              "type": "uint256[]"
            },
            {
              "internalType": "bytes",
              "name": "tokenData0",
              "type": "bytes"
            },
            {
              "internalType": "uint256",
              "name": "fees0",
              "type": "uint256"
            },
            {
              "internalType": "address",
              "name": "token1",
              "type": "address"
            },
            {
              "internalType": "uint256[]",
              "name": "tokenIds1",
              "type": "uint256[]"
            },
            {
              "internalType": "uint256[]",
              "name": "values1",
              "type": "uint256[]"
            },
            {
              "internalType": "bytes",
              "name": "tokenData1",
              "type": "bytes"
            },
            {
              "internalType": "uint256",
              "name": "fees1",
              "type": "uint256"
            },
            {
              "internalType": "bytes32",
              "name": "secretHash",
              "type": "bytes32"
            }
          ],
          "internalType": "struct SafeForERC1155.SwapERC1155Info",
          "name": "info",
          "type": "tuple"
        }
      ],
      "name": "swapRetrieveERC1155",
      "outputs": [],
      "stateMutability": "nonpayable",
      "type": "function"
    },
    {
      "inputs": [
        {
          "internalType": "address payable",
          "name": "from",
          "type": "address"
        },
        {
          "components": [
            {
              "internalType": "address",
              "name": "token0",
              "type": "address"
            },
            {
              "internalType": "uint256[]",
              "name": "tokenIds0",
              "type": "uint256[]"
            },
            {
              "internalType": "uint256[]",
              "name": "values0",
              "type": "uint256[]"
            },
            {
              "internalType": "bytes",
              "name": "tokenData0",
              "type": "bytes"
            },
            {
              "internalType": "uint256",
              "name": "fees0",
              "type": "uint256"
            },
            {
              "internalType": "address",
              "name": "token1",
              "type": "address"
            },
            {
              "internalType": "uint256[]",
              "name": "tokenIds1",
              "type": "uint256[]"
            },
            {
              "internalType": "uint256[]",
              "name": "values1",
              "type": "uint256[]"
            },
            {
              "internalType": "bytes",
              "name": "tokenData1",
              "type": "bytes"
            },
            {
              "internalType": "uint256",
              "name": "fees1",
              "type": "uint256"
            },
            {
              "internalType": "bytes32",
              "name": "secretHash",
              "type": "bytes32"
            }
          ],
          "internalType": "struct SafeForERC1155.SwapERC1155Info",
          "name": "info",
          "type": "tuple"
        },
        {
          "internalType": "bytes",
          "name": "secret",
          "type": "bytes"
        }
      ],
      "name": "swapERC1155",
      "outputs": [],
      "stateMutability": "payable",
      "type": "function"
    },
    {
      "inputs": [
        {
          "internalType": "address payable",
          "name": "to",
          "type": "address"
        },
        {
          "components": [
            {
              "internalType": "address",
              "name": "token0",
              "type": "address"
            },
            {
              "internalType": "uint256[]",
              "name": "tokenIds0",
              "type": "uint256[]"
            },
            {
              "internalType": "uint256[]",
              "name": "values0",
              "type": "uint256[]"
            },
            {
              "internalType": "bytes",
              "name": "tokenData0",
              "type": "bytes"
            },
            {
              "internalType": "uint256",
              "name": "fees0",
              "type": "uint256"
            },
            {
              "internalType": "address",
              "name": "token1",
              "type": "address"
            },
            {
              "internalType": "uint256",
              "name": "value1",
              "type": "uint256"
            },
            {
              "internalType": "uint256",
              "name": "fees1",
              "type": "uint256"
            },
            {
              "internalType": "bytes32",
              "name": "secretHash",
              "type": "bytes32"
            }
          ],
          "internalType": "struct SafeForERC1155.SwapBatchERC1155ToERC20Info",
          "name": "info",
          "type": "tuple"
        }
      ],
      "name": "swapDepositERC1155ToERC20",
      "outputs": [],
      "stateMutability": "payable",
      "type": "function"
    },
    {
      "inputs": [
        {
          "internalType": "address",
          "name": "to",
          "type": "address"
        },
        {
          "components": [
            {
              "internalType": "address",
              "name": "token0",
              "type": "address"
            },
            {
              "internalType": "uint256[]",
              "name": "tokenIds0",
              "type": "uint256[]"
            },
            {
              "internalType": "uint256[]",
              "name": "values0",
              "type": "uint256[]"
            },
            {
              "internalType": "bytes",
              "name": "tokenData0",
              "type": "bytes"
            },
            {
              "internalType": "uint256",
              "name": "fees0",
              "type": "uint256"
            },
            {
              "internalType": "address",
              "name": "token1",
              "type": "address"
            },
            {
              "internalType": "uint256",
              "name": "value1",
              "type": "uint256"
            },
            {
              "internalType": "uint256",
              "name": "fees1",
              "type": "uint256"
            },
            {
              "internalType": "bytes32",
              "name": "secretHash",
              "type": "bytes32"
            }
          ],
          "internalType": "struct SafeForERC1155.SwapBatchERC1155ToERC20Info",
          "name": "info",
          "type": "tuple"
        }
      ],
      "name": "swapRetrieveERC1155ToERC20",
      "outputs": [],
      "stateMutability": "nonpayable",
      "type": "function"
    },
    {
      "inputs": [
        {
          "internalType": "address payable",
          "name": "from",
          "type": "address"
        },
        {
          "components": [
            {
              "internalType": "address",
              "name": "token0",
              "type": "address"
            },
            {
              "internalType": "uint256[]",
              "name": "tokenIds0",
              "type": "uint256[]"
            },
            {
              "internalType": "uint256[]",
              "name": "values0",
              "type": "uint256[]"
            },
            {
              "internalType": "bytes",
              "name": "tokenData0",
              "type": "bytes"
            },
            {
              "internalType": "uint256",
              "name": "fees0",
              "type": "uint256"
            },
            {
              "internalType": "address",
              "name": "token1",
              "type": "address"
            },
            {
              "internalType": "uint256",
              "name": "value1",
              "type": "uint256"
            },
            {
              "internalType": "uint256",
              "name": "fees1",
              "type": "uint256"
            },
            {
              "internalType": "bytes32",
              "name": "secretHash",
              "type": "bytes32"
            }
          ],
          "internalType": "struct SafeForERC1155.SwapBatchERC1155ToERC20Info",
          "name": "info",
          "type": "tuple"
        },
        {
          "internalType": "bytes",
          "name": "secret",
          "type": "bytes"
        }
      ],
      "name": "swapERC1155ToERC20",
      "outputs": [],
      "stateMutability": "payable",
      "type": "function"
    },
    {
      "inputs": [
        {
          "internalType": "address payable",
          "name": "to",
          "type": "address"
        },
        {
          "components": [
            {
              "internalType": "address",
              "name": "token0",
              "type": "address"
            },
            {
              "internalType": "uint256",
              "name": "value0",
              "type": "uint256"
            },
            {
              "internalType": "uint256",
              "name": "fees0",
              "type": "uint256"
            },
            {
              "internalType": "address",
              "name": "token1",
              "type": "address"
            },
            {
              "internalType": "uint256[]",
              "name": "tokenIds1",
              "type": "uint256[]"
            },
            {
              "internalType": "uint256[]",
              "name": "values1",
              "type": "uint256[]"
            },
            {
              "internalType": "bytes",
              "name": "tokenData1",
              "type": "bytes"
            },
            {
              "internalType": "uint256",
              "name": "fees1",
              "type": "uint256"
            },
            {
              "internalType": "bytes32",
              "name": "secretHash",
              "type": "bytes32"
            }
          ],
          "internalType": "struct SafeForERC1155.SwapERC20ToBatchERC1155Info",
          "name": "info",
          "type": "tuple"
        }
      ],
      "name": "swapDepositERC20ToERC1155",
      "outputs": [],
      "stateMutability": "payable",
      "type": "function"
    },
    {
      "inputs": [
        {
          "internalType": "address",
          "name": "to",
          "type": "address"
        },
        {
          "components": [
            {
              "internalType": "address",
              "name": "token0",
              "type": "address"
            },
            {
              "internalType": "uint256",
              "name": "value0",
              "type": "uint256"
            },
            {
              "internalType": "uint256",
              "name": "fees0",
              "type": "uint256"
            },
            {
              "internalType": "address",
              "name": "token1",
              "type": "address"
            },
            {
              "internalType": "uint256[]",
              "name": "tokenIds1",
              "type": "uint256[]"
            },
            {
              "internalType": "uint256[]",
              "name": "values1",
              "type": "uint256[]"
            },
            {
              "internalType": "bytes",
              "name": "tokenData1",
              "type": "bytes"
            },
            {
              "internalType": "uint256",
              "name": "fees1",
              "type": "uint256"
            },
            {
              "internalType": "bytes32",
              "name": "secretHash",
              "type": "bytes32"
            }
          ],
          "internalType": "struct SafeForERC1155.SwapERC20ToBatchERC1155Info",
          "name": "info",
          "type": "tuple"
        }
      ],
      "name": "swapRetrieveERC20ToERC1155",
      "outputs": [],
      "stateMutability": "nonpayable",
      "type": "function"
    },
    {
      "inputs": [
        {
          "internalType": "address payable",
          "name": "from",
          "type": "address"
        },
        {
          "components": [
            {
              "internalType": "address",
              "name": "token0",
              "type": "address"
            },
            {
              "internalType": "uint256",
              "name": "value0",
              "type": "uint256"
            },
            {
              "internalType": "uint256",
              "name": "fees0",
              "type": "uint256"
            },
            {
              "internalType": "address",
              "name": "token1",
              "type": "address"
            },
            {
              "internalType": "uint256[]",
              "name": "tokenIds1",
              "type": "uint256[]"
            },
            {
              "internalType": "uint256[]",
              "name": "values1",
              "type": "uint256[]"
            },
            {
              "internalType": "bytes",
              "name": "tokenData1",
              "type": "bytes"
            },
            {
              "internalType": "uint256",
              "name": "fees1",
              "type": "uint256"
            },
            {
              "internalType": "bytes32",
              "name": "secretHash",
              "type": "bytes32"
            }
          ],
          "internalType": "struct SafeForERC1155.SwapERC20ToBatchERC1155Info",
          "name": "info",
          "type": "tuple"
        },
        {
          "internalType": "bytes",
          "name": "secret",
          "type": "bytes"
        }
      ],
      "name": "swapERC20ToERC1155",
      "outputs": [],
      "stateMutability": "payable",
      "type": "function"
    }
  ],
  "bytecode": "0x60806040523480156200001157600080fd5b506040516200493038038062004930833981016040819052620000349162000299565b6200004160003362000185565b6200005c600080516020620049108339815191523362000185565b62000077600080516020620049108339815191528262000185565b466002819055600160b01b600160f01b0360001943014060b01b1630908117600160f81b176003819055604080518082018252601481527f4b69726f626f2053616665205472616e736665720000000000000000000000006020918201528151808301835260018152603160f81b90820152905162000161937fd87cd6ef79d4e2b95e15ce8abf732db51ec771f1ca2edccf22a46c729ac56472937fa0e7867c78e9ee05b975f886625b0f857545d287fd4041f342f5f7398f7cf444937fc89efdaa54c0f20c7adf612882df0950f5a951637e0307cdcb4c672f298b8bc6938893929101620002c9565b604051602081830303815290604052805190602001206001819055505050620002fa565b62000191828262000195565b5050565b600082815260208181526040909120620001ba918390620026706200020e821b17901c565b156200019157620001ca6200022e565b6001600160a01b0316816001600160a01b0316837f2f8788117e7eff1d82e926ec794901d17c78024a50270940304540a733656f0d60405160405180910390a45050565b600062000225836001600160a01b03841662000232565b90505b92915050565b3390565b600062000240838362000281565b620002785750815460018181018455600084815260208082209093018490558454848252828601909352604090209190915562000228565b50600062000228565b60009081526001919091016020526040902054151590565b600060208284031215620002ab578081fd5b81516001600160a01b0381168114620002c2578182fd5b9392505050565b9586526020860194909452604085019290925260608401526001600160a01b0316608083015260a082015260c00190565b614606806200030a6000396000f3fe6080604052600436106101dc5760003560e01c806385e1f4d011610102578063ca15c87311610095578063e49a12dc11610064578063e49a12dc1461050b578063e78d7ba01461052b578063fea5c3e11461053e578063ffa1ad741461055e57610204565b8063ca15c87314610498578063d540f0c7146104b8578063d547741f146104cb578063de1fec38146104eb57610204565b80639b39afe2116100d15780639b39afe21461042e578063a217fddf14610441578063a3f4df7e14610456578063c7d74e9b1461047857610204565b806385e1f4d01461039f5780638b23d81b146103b45780639010d07c146103d457806391d148541461040157610204565b806349898f441161017a57806374ddc7511161014957806374ddc7511461033757806378e80e10146103575780638025e3031461036a578063848292dd1461038c57610204565b806349898f44146102de57806356422e7f146102fe57806359e10178146103115780636186dd171461032457610204565b80632f2ff15d116101b65780632f2ff15d146102695780633644e5151461028957806336568abe1461029e57806338225086146102be57610204565b806308740a3b1461020957806313114a9d14610234578063248a9ca31461024957610204565b366102045760405162461bcd60e51b81526004016101f990614386565b60405180910390fd5b005b600080fd5b34801561021557600080fd5b5061021e610573565b60405161022b9190613e0d565b60405180910390f35b34801561024057600080fd5b5061021e610585565b34801561025557600080fd5b5061021e6102643660046135c9565b61058b565b34801561027557600080fd5b506102026102843660046135e1565b6105a0565b34801561029557600080fd5b5061021e6105e8565b3480156102aa57600080fd5b506102026102b93660046135e1565b6105ee565b3480156102ca57600080fd5b506102026102d9366004613120565b610630565b3480156102ea57600080fd5b506102026102f936600461325f565b6108a5565b61020261030c3660046130ab565b610abc565b61020261031f366004613521565b610d4d565b6102026103323660046131aa565b610e6f565b34801561034357600080fd5b50610202610352366004613335565b610ff8565b610202610365366004613335565b611107565b34801561037657600080fd5b5061037f61121e565b60405161022b9190614538565b61020261039a366004613120565b611223565b3480156103ab57600080fd5b5061021e611648565b3480156103c057600080fd5b506102026103cf366004613401565b61164e565b3480156103e057600080fd5b506103f46103ef366004613610565b611889565b60405161022b9190613721565b34801561040d57600080fd5b5061042161041c3660046135e1565b6118aa565b60405161022b9190613e02565b61020261043c366004613163565b6118c2565b34801561044d57600080fd5b5061021e611e04565b34801561046257600080fd5b5061046b611e09565b60405161022b9190613e2f565b34801561048457600080fd5b5061020261049336600461305e565b611e39565b3480156104a457600080fd5b5061021e6104b33660046135c9565b611f71565b6102026104c63660046131ed565b611f88565b3480156104d757600080fd5b506102026104e63660046135e1565b612201565b3480156104f757600080fd5b506102026105063660046131aa565b61223b565b34801561051757600080fd5b50610202610526366004613234565b612366565b61020261053936600461305e565b6123e5565b34801561054a57600080fd5b50610202610559366004613521565b612561565b34801561056a57600080fd5b5061046b612653565b6000805160206145b183398151915281565b60045490565b60009081526020819052604090206002015490565b6000828152602081905260409020600201546105be9061041c612685565b6105da5760405162461bcd60e51b81526004016101f990613eb2565b6105e48282612689565b5050565b60015481565b6105f6612685565b6001600160a01b0316816001600160a01b0316146106265760405162461bcd60e51b81526004016101f99061443e565b6105e482826126f2565b600033836106558460000151856020015186604001518760600151886080015161275b565b6106788560a001518660c001518760e0015188610100015189610120015161275b565b8561014001516040516020016106929594939291906138b8565b60408051601f198184030181529181528151602092830120600081815260069093529120549091506106d65760405162461bcd60e51b81526004016101f9906143d0565b600081815260066020526040812081905582516001600160a01b031661072c576107258360800151846040015160008151811061070f57fe5b602002602001015161279090919063ffffffff16565b9050610733565b5060808201515b604051339082156108fc029083906000818181858888f19350505050158015610760573d6000803e3d6000fd5b5082516001600160a01b03166107c15781846001600160a01b0316336001600160a01b03167f2c0f05de664e2354e281c7c55d07fe10e18c61d9b196dbcd318285801b36cde4846040516107b49190613e0d565b60405180910390a461089f565b82604001516000815181106107d257fe5b60200260200101516000141561083957836001600160a01b0316336001600160a01b031684600001516001600160a01b03167f725df2dbbb1b34d2b94419654875f4ec4cae7dacbd37395f457b7cf9cd954bd38587604001516040516107b4929190613e16565b82600001516001600160a01b0316846001600160a01b0316336001600160a01b03167f4cac0b167c6940dc98cc2f224cc4eeddb96328f882830ef44e1ddfd52be81b8e866020015187604001518760405161089693929190613c49565b60405180910390a45b50505050565b6108bd6000805160206145b1833981519152336118aa565b6108d95760405162461bcd60e51b81526004016101f990614305565b60008b8b8b8b8b8b8b8b8b6040516020016108fc999897969594939291906139c1565b60408051601f19818403018152918152815160209283012060008181526005909352912054909150806109415760405162461bcd60e51b81526004016101f99061417e565b42816001600160401b0316116109695760405162461bcd60e51b81526004016101f990613e84565b42604082901c6001600160401b031611156109965760405162461bcd60e51b81526004016101f990613f01565b8484846040516109a79291906136f5565b6040518091039020146109cc5760405162461bcd60e51b81526004016101f99061409f565b6000828152600560205260408120556004546109e89087612790565b6004819055508c6001600160a01b031663f242432a8d8d8d8d8d8d6040518763ffffffff1660e01b8152600401610a2496959493929190613a1e565b600060405180830381600087803b158015610a3e57600080fd5b505af1158015610a52573d6000803e3d6000fd5b505050508a6001600160a01b03168c6001600160a01b03168e6001600160a01b03167fda390d84d1887172ecb3fafdf8c63dfd9a80723aab498c394f51b7474b067fa28d8d604051610aa59291906144dd565b60405180910390a450505050505050505050505050565b60008433856000015186602001518760400151886060015189608001518a60a001518b60c001518c60e001518d6101000151604051602001610b089b9a99989796959493929190613735565b60408051601f1981840301815291815281516020928301206000818152600690935291205490915080610b4d5760405162461bcd60e51b81526004016101f9906143d0565b42816001600160401b031611610b755760405162461bcd60e51b81526004016101f990613fa6565b42604082901c6001600160401b03161115610ba25760405162461bcd60e51b81526004016101f990614068565b8461010001518484604051610bb89291906136f5565b604051809103902014610bdd5760405162461bcd60e51b81526004016101f9906141b5565b8460e001513414610c005760405162461bcd60e51b81526004016101f9906142ce565b60008281526006602052604081205560e08501516080860151600454610c319291610c2b9190612790565b90612790565b60048190555084600001516001600160a01b0316632eb2c2d68733886020015189604001518a606001516040518663ffffffff1660e01b8152600401610c7b95949392919061385a565b600060405180830381600087803b158015610c9557600080fd5b505af1158015610ca9573d6000803e3d6000fd5b50505060c086015160a0870151610cce92506001600160a01b031690339089906127b5565b84600001516001600160a01b0316336001600160a01b0316876001600160a01b03167f4e38423d6ebfafad42d5834ffaa5405493ce7094fd5e873b89b9714febbf98a6886020015189604001518a606001518b60a001518c60c001518a604051610d3d96959493929190613c7f565b60405180910390a4505050505050565b813414610d6c5760405162461bcd60e51b81526004016101f990613fd1565b6001600160a01b038716331415610d955760405162461bcd60e51b81526004016101f9906140d6565b6000883389898989898989604051602001610db8999897969594939291906139c1565b60408051601f1981840301815291815281516020928301206000818152600590935291205490915015610dfd5760405162461bcd60e51b81526004016101f990613f6f565b600081815260056020526040908190206001600160401b039055516001600160a01b03808a169133918c16907f815701d2a70cb9728dad47bf244cfb943736d064c1f0d6eb6386e1da4b9be6b290610e5c908c908c908a908a9061451d565b60405180910390a4505050505050505050565b80604001513414610e925760405162461bcd60e51b81526004016101f9906142ce565b6001600160a01b038216331415610ebb5760405162461bcd60e51b81526004016101f990614407565b60003383836000015184602001518560400151866060015187608001518860a001518960c001518a60e001518b6101000151604051602001610f079b9a999897969594939291906137c9565b60408051601f1981840301815291815281516020928301206000818152600690935291205490915015610f4c5760405162461bcd60e51b81526004016101f99061421c565b6001600160401b03600660008381526020019081526020016000208190555081600001516001600160a01b0316836001600160a01b0316336001600160a01b03167f93f0b18ca3d77db3eca907001e3f76f61ecbbe500cf3856148659913b13b481285602001518660400151876060015188608001518960a001518a60c001518b60e001518c6101000151604051610feb9897969594939291906144eb565b60405180910390a4505050565b60008a338b8b8b8b8b8b8b8b8b60405160200161101f9b9a99989796959493929190613946565b60408051601f198184030181529181528151602092830120600081815260059093529120549091506110635760405162461bcd60e51b81526004016101f99061417e565b60008181526005602052604080822082905551339185156108fc02918691818181858888f1935050505015801561109e573d6000803e3d6000fd5b50896001600160a01b0316336001600160a01b03168c6001600160a01b03167fc2263345832f5e2ac00f59aee67304df8fd8c45c216e65a610afc67c7568c1148c8c8c8c6040516110f29493929190613b3c565b60405180910390a45050505050505050505050565b8134146111265760405162461bcd60e51b81526004016101f990613fd1565b6001600160a01b03891633141561114f5760405162461bcd60e51b81526004016101f9906140d6565b60008a338b8b8b8b8b8b8b8b8b6040516020016111769b9a99989796959493929190613946565b60408051601f19818403018152918152815160209283012060008181526005909352912054909150156111bb5760405162461bcd60e51b81526004016101f990613f6f565b600081815260056020526040908190206001600160401b039055516001600160a01b03808c169133918e16907f8ac12a82b0377e2c6e1e42e37e8d8957f8df98f5c6d9fcbc86dcc2d65c5f1e2f906110f2908e908e908e908e908c908c90613b6e565b600181565b80516001600160a01b03166112e0578060a001516001600160a01b031681600001516001600160a01b0316141561126c5760405162461bcd60e51b81526004016101f99061410d565b6112858160800151826040015160008151811061070f57fe5b34146112a35760405162461bcd60e51b81526004016101f9906142ce565b60008160e001516000815181106112b657fe5b6020026020010151116112db5760405162461bcd60e51b81526004016101f990614253565b6114d8565b60a08101516001600160a01b031661138557806080015134146113155760405162461bcd60e51b81526004016101f9906142ce565b6000816040015160008151811061132857fe5b60200260200101511161134d5760405162461bcd60e51b81526004016101f990614253565b60008160e0015160008151811061136057fe5b6020026020010151116112db5760405162461bcd60e51b81526004016101f990614297565b806040015160008151811061139657fe5b6020026020010151600014156113c957806080015134146112a35760405162461bcd60e51b81526004016101f9906142ce565b8060e001516000815181106113da57fe5b602002602001015160001415611445578060800151341461140d5760405162461bcd60e51b81526004016101f9906142ce565b6000816040015160008151811061142057fe5b6020026020010151116112db5760405162461bcd60e51b81526004016101f990614152565b806080015134146114685760405162461bcd60e51b81526004016101f9906142ce565b6000816040015160008151811061147b57fe5b6020026020010151116114a05760405162461bcd60e51b81526004016101f990614253565b60008160e001516000815181106114b357fe5b6020026020010151116114d85760405162461bcd60e51b81526004016101f990614253565b6001600160a01b0382163314156115015760405162461bcd60e51b81526004016101f990614407565b600033836115268460000151856020015186604001518760600151886080015161275b565b6115498560a001518660c001518760e0015188610100015189610120015161275b565b8561014001516040516020016115639594939291906138b8565b60408051601f19818403018152918152815160209283012060008181526006909352912054909150156115a85760405162461bcd60e51b81526004016101f99061421c565b6001600160401b03600660008381526020019081526020016000208190555081600001516001600160a01b0316836001600160a01b0316336001600160a01b03167f8e9aa3337874592880c80ddd5c52ecfa44586c80bb6cb420c67670b86da528e78560200151866040015187608001518860a001518960c001518a60e001518b61012001518c6101400151604051610feb989796959493929190613d9c565b60025481565b6116666000805160206145b1833981519152336118aa565b6116825760405162461bcd60e51b81526004016101f990614305565b60008160000151838584602001518560400151866060015187608001518860a001516040516020016116bb989796959493929190613a59565b60408051601f19818403018152918152815160209283012060008181526005909352912054909150806117005760405162461bcd60e51b81526004016101f99061417e565b42816001600160401b0316116117285760405162461bcd60e51b81526004016101f990613e84565b42604082901c6001600160401b031611156117555760405162461bcd60e51b81526004016101f990613f01565b8260a001518360c0015180519060200120146117835760405162461bcd60e51b81526004016101f99061409f565b60008281526005602052604081205560808301516004546117a391612790565b60048190555082600001516001600160a01b0316632eb2c2d685878660200151876040015188606001516040518663ffffffff1660e01b81526004016117ed95949392919061385a565b600060405180830381600087803b15801561180757600080fd5b505af115801561181b573d6000803e3d6000fd5b50505050846001600160a01b0316846001600160a01b031684600001516001600160a01b03167f759238326589d20c2f643db19775089f05967fb40ad4c6b19374156de496b4458660200151876040015160405161187a929190613bab565b60405180910390a45050505050565b60008281526020819052604081206118a1908361280d565b90505b92915050565b60008281526020819052604081206118a19083612819565b600084336118e786600001518760200151886040015189606001518a6080015161275b565b61190a8760a001518860c001518960e001518a61010001518b610120015161275b565b8761014001516040516020016119249594939291906138b8565b60408051601f19818403018152918152815160209283012060008181526006909352912054909150806119695760405162461bcd60e51b81526004016101f9906143d0565b42816001600160401b0316116119915760405162461bcd60e51b81526004016101f990613fa6565b42604082901c6001600160401b031611156119be5760405162461bcd60e51b81526004016101f990614068565b84610140015184846040516119d49291906136f5565b6040518091039020146119f95760405162461bcd60e51b81526004016101f9906141b5565b6000828152600660205260408120556101208501516080860151600454611a259291610c2b9190612790565b60045584516001600160a01b0316611a8e57336001600160a01b03166108fc8660400151600081518110611a5557fe5b60200260200101519081150290604051600060405180830381858888f19350505050158015611a88573d6000803e3d6000fd5b50611bae565b8460400151600081518110611a9f57fe5b602002602001015160001415611b385784600001516001600160a01b031663b88d4fde87338860200151600081518110611ad557fe5b602002602001015189606001516040518563ffffffff1660e01b8152600401611b019493929190613909565b600060405180830381600087803b158015611b1b57600080fd5b505af1158015611b2f573d6000803e3d6000fd5b50505050611bae565b8451602086015160408088015160608901519151631759616b60e11b81526001600160a01b0390941693632eb2c2d693611b7b938c93339390919060040161385a565b600060405180830381600087803b158015611b9557600080fd5b505af1158015611ba9573d6000803e3d6000fd5b505050505b60a08501516001600160a01b0316611c4f57611bda8561012001518660e0015160008151811061070f57fe5b3414611bf85760405162461bcd60e51b81526004016101f9906142ce565b856001600160a01b03166108fc8660e00151600081518110611c1657fe5b60200260200101519081150290604051600060405180830381858888f19350505050158015611c49573d6000803e3d6000fd5b50611d95565b8460e00151600081518110611c6057fe5b602002602001015160001415611cfa578460a001516001600160a01b031663b88d4fde87338860c00151600081518110611c9657fe5b60200260200101518961010001516040518563ffffffff1660e01b8152600401611cc39493929190613909565b600060405180830381600087803b158015611cdd57600080fd5b505af1158015611cf1573d6000803e3d6000fd5b50505050611d95565b8461012001513414611d1e5760405162461bcd60e51b81526004016101f9906142ce565b60a085015160c086015160e0870151610100880151604051631759616b60e11b81526001600160a01b0390941693632eb2c2d693611d629333938d9360040161385a565b600060405180830381600087803b158015611d7c57600080fd5b505af1158015611d90573d6000803e3d6000fd5b505050505b84600001516001600160a01b0316336001600160a01b0316876001600160a01b03167f881f1b4ed82f90d52490614dbe58ea1c05bfd069a7d5d5ca131e0d5b6bf07261886020015189604001518a60a001518b60c001518c60e001518a604051610d3d96959493929190613bd9565b600081565b6040518060400160405280601481526020017325b4b937b1379029b0b332902a3930b739b332b960611b81525081565b60003383836000015184602001518560400151866060015187608001518860a001518960c001518a60e001518b6101000151604051602001611e859b9a99989796959493929190613735565b60408051601f19818403018152918152815160209283012060008181526006909352912054909150611ec95760405162461bcd60e51b81526004016101f9906143d0565b600081815260066020526040808220829055608084015190519091339183156108fc0291849190818181858888f19350505050158015611f0d573d6000803e3d6000fd5b5082600001516001600160a01b0316846001600160a01b0316336001600160a01b03167f1cd80e19616ac64b82bf9ae8fecc87fff9f44c4b2db387b19ca3d3aa3fb15bf6866020015187604001518860600151886040516108969493929190613ce0565b60008181526020819052604081206118a49061282e565b60008433856000015186602001518760400151886060015189608001518a60a001518b60c001518c60e001518d6101000151604051602001611fd49b9a999897969594939291906137c9565b60408051601f19818403018152918152815160209283012060008181526006909352912054909150806120195760405162461bcd60e51b81526004016101f9906143d0565b42816001600160401b0316116120415760405162461bcd60e51b81526004016101f990613fa6565b42604082901c6001600160401b0316111561206e5760405162461bcd60e51b81526004016101f990614068565b84610100015184846040516120849291906136f5565b6040518091039020146120a95760405162461bcd60e51b81526004016101f9906141b5565b8460e0015134146120cc5760405162461bcd60e51b81526004016101f9906142ce565b6000828152600660205260408082209190915560e0860151908601516004546120fa9291610c2b9190612790565b6004556020850151855161211d916001600160a01b0390911690889033906127b5565b6060850151608086015160a087015160c0880151604051631759616b60e11b81526001600160a01b0390941693632eb2c2d6936121609333938d9360040161385a565b600060405180830381600087803b15801561217a57600080fd5b505af115801561218e573d6000803e3d6000fd5b5050505084600001516001600160a01b0316336001600160a01b0316876001600160a01b03167f5b35cc95d7a82a101001bbcf03595b6a2eff215358f47bd723b325f4c3e8e00a886020015189606001518a608001518b60a001518c60c001518a604051610d3d9695949392919061448d565b60008281526020819052604090206002015461221f9061041c612685565b6106265760405162461bcd60e51b81526004016101f990614018565b60003383836000015184602001518560400151866060015187608001518860a001518960c001518a60e001518b61010001516040516020016122879b9a999897969594939291906137c9565b60408051601f198184030181529181528151602092830120600081815260069093529120549091506122cb5760405162461bcd60e51b81526004016101f9906143d0565b6000818152600660205260408082208290558381015190519091339183156108fc0291849190818181858888f1935050505015801561230e573d6000803e3d6000fd5b5082600001516001600160a01b0316846001600160a01b0316336001600160a01b03167fbc47f1a7ad8162eb13eab930316f0de4fb0828bf52decf6fed08c283bb86bd1f8660200151866040516108969291906144dd565b61237e6000805160206145b1833981519152336118aa565b61239a5760405162461bcd60e51b81526004016101f990614305565b6004546123a79082612839565b6004556040516001600160a01b0383169082156108fc029083906000818181858888f193505050501580156123e0573d6000803e3d6000fd5b505050565b806080015134146124085760405162461bcd60e51b81526004016101f9906142ce565b6001600160a01b0382163314156124315760405162461bcd60e51b81526004016101f990614407565b60003383836000015184602001518560400151866060015187608001518860a001518960c001518a60e001518b610100015160405160200161247d9b9a99989796959493929190613735565b60408051601f19818403018152918152815160209283012060008181526006909352912054909150156124c25760405162461bcd60e51b81526004016101f99061421c565b6001600160401b03600660008381526020019081526020016000208190555081600001516001600160a01b0316836001600160a01b0316336001600160a01b03167faf441b350e0c82fd1041597698b410c14f2b0c525dc4e8b98a04ea63940a08aa85602001518660400151876060015188608001518960a001518a60c001518b60e001518c6101000151604051610feb989796959493929190613d2b565b6000883389898989898989604051602001612584999897969594939291906139c1565b60408051601f198184030181529181528151602092830120600081815260059093529120549091506125c85760405162461bcd60e51b81526004016101f99061417e565b60008181526005602052604080822082905551339185156108fc02918691818181858888f19350505050158015612603573d6000803e3d6000fd5b50876001600160a01b0316336001600160a01b03168a6001600160a01b03167f8a96343c35f852197f641ff14a8eebe74e8708a2eac119132630719127f4c2678a8a604051610e5c9291906144dd565b604051806040016040528060018152602001603160f81b81525081565b60006118a1836001600160a01b03841661287b565b3390565b60008281526020819052604090206126a19082612670565b156105e4576126ae612685565b6001600160a01b0316816001600160a01b0316837f2f8788117e7eff1d82e926ec794901d17c78024a50270940304540a733656f0d60405160405180910390a45050565b600082815260208190526040902061270a90826128c5565b156105e457612717612685565b6001600160a01b0316816001600160a01b0316837ff6391f5c32d9c69d2a47ea670b442974b53935d1edc7fd64eb21e047a839171b60405160405180910390a45050565b60608585858585604051602001612776959493929190613af2565b604051602081830303815290604052905095945050505050565b6000828201838110156118a15760405162461bcd60e51b81526004016101f990613f38565b61089f846323b872dd60e01b8585856040516024016127d693929190613ace565b60408051601f198184030181529190526020810180516001600160e01b03166001600160e01b0319909316929092179091526128da565b60006118a18383612969565b60006118a1836001600160a01b0384166129ae565b60006118a4826129c6565b60006118a183836040518060400160405280601e81526020017f536166654d6174683a207375627472616374696f6e206f766572666c6f7700008152506129ca565b600061288783836129ae565b6128bd575081546001818101845560008481526020808220909301849055845484825282860190935260409020919091556118a4565b5060006118a4565b60006118a1836001600160a01b0384166129f6565b606061292f826040518060400160405280602081526020017f5361666545524332303a206c6f772d6c6576656c2063616c6c206661696c6564815250856001600160a01b0316612abc9092919063ffffffff16565b8051909150156123e0578080602001905181019061294d91906135a9565b6123e05760405162461bcd60e51b81526004016101f99061433c565b8154600090821061298c5760405162461bcd60e51b81526004016101f990613e42565b82600001828154811061299b57fe5b9060005260206000200154905092915050565b60009081526001919091016020526040902054151590565b5490565b600081848411156129ee5760405162461bcd60e51b81526004016101f99190613e2f565b505050900390565b60008181526001830160205260408120548015612ab25783546000198083019190810190600090879083908110612a2957fe5b9060005260206000200154905080876000018481548110612a4657fe5b600091825260208083209091019290925582815260018981019092526040902090840190558654879080612a7657fe5b600190038181906000526020600020016000905590558660010160008781526020019081526020016000206000905560019450505050506118a4565b60009150506118a4565b6060612acb8484600085612ad3565b949350505050565b6060612ade85612b97565b612afa5760405162461bcd60e51b81526004016101f9906141e5565b60006060866001600160a01b03168587604051612b179190613705565b60006040518083038185875af1925050503d8060008114612b54576040519150601f19603f3d011682016040523d82523d6000602084013e612b59565b606091505b50915091508115612b6d579150612acb9050565b805115612b7d5780518082602001fd5b8360405162461bcd60e51b81526004016101f99190613e2f565b6000813f7fc5d2460186f7233c927e7db2dcc703c0e500b653ca82273b7bfad8045d85a470818114801590612acb575050151592915050565b80356118a481614598565b60008083601f840112612bec578182fd5b5081356001600160401b03811115612c02578182fd5b6020830191508360208083028501011115612c1c57600080fd5b9250929050565b600082601f830112612c33578081fd5b81356001600160401b03811115612c48578182fd5b6020808202612c58828201614546565b83815293508184018583018287018401881015612c7457600080fd5b600092505b84831015612c97578035825260019290920191908301908301612c79565b505050505092915050565b60008083601f840112612cb3578182fd5b5081356001600160401b03811115612cc9578182fd5b602083019150836020828501011115612c1c57600080fd5b600082601f830112612cf1578081fd5b81356001600160401b03811115612d06578182fd5b612d19601f8201601f1916602001614546565b9150808252836020828501011115612d3057600080fd5b8060208401602084013760009082016020015292915050565b6000610120808385031215612d5c578182fd5b612d6581614546565b915050612d728383612bd0565b815260208201356001600160401b0380821115612d8e57600080fd5b612d9a85838601612c23565b60208401526040840135915080821115612db357600080fd5b612dbf85838601612c23565b60408401526060840135915080821115612dd857600080fd5b50612de584828501612ce1565b60608301525060808201356080820152612e028360a08401612bd0565b60a082015260c082013560c082015260e082013560e082015261010080830135818301525092915050565b6000610160808385031215612e40578182fd5b612e4981614546565b915050612e568383612bd0565b815260208201356001600160401b0380821115612e7257600080fd5b612e7e85838601612c23565b60208401526040840135915080821115612e9757600080fd5b612ea385838601612c23565b60408401526060840135915080821115612ebc57600080fd5b612ec885838601612ce1565b606084015260808401356080840152612ee48560a08601612bd0565b60a084015260c0840135915080821115612efd57600080fd5b612f0985838601612c23565b60c084015260e0840135915080821115612f2257600080fd5b612f2e85838601612c23565b60e084015261010091508184013581811115612f4957600080fd5b612f5586828701612ce1565b8385015250505061012080830135818301525061014080830135818301525092915050565b6000610120808385031215612f8d578182fd5b612f9681614546565b915050612fa38383612bd0565b81526020820135602082015260408201356040820152612fc68360608401612bd0565b606082015260808201356001600160401b0380821115612fe557600080fd5b612ff185838601612c23565b608084015260a084013591508082111561300a57600080fd5b61301685838601612c23565b60a084015260c084013591508082111561302f57600080fd5b5061303c84828501612ce1565b60c08301525060e082013560e082015261010080830135818301525092915050565b60008060408385031215613070578182fd5b823561307b81614598565b915060208301356001600160401b03811115613095578182fd5b6130a185828601612d49565b9150509250929050565b600080600080606085870312156130c0578182fd5b84356130cb81614598565b935060208501356001600160401b03808211156130e6578384fd5b6130f288838901612d49565b94506040870135915080821115613107578384fd5b5061311487828801612ca2565b95989497509550505050565b60008060408385031215613132578182fd5b823561313d81614598565b915060208301356001600160401b03811115613157578182fd5b6130a185828601612e2d565b60008060008060608587031215613178578384fd5b843561318381614598565b935060208501356001600160401b038082111561319e578485fd5b6130f288838901612e2d565b600080604083850312156131bc578182fd5b82356131c781614598565b915060208301356001600160401b038111156131e1578182fd5b6130a185828601612f7a565b60008060008060608587031215613202578182fd5b843561320d81614598565b935060208501356001600160401b0380821115613228578384fd5b6130f288838901612f7a565b60008060408385031215613246578182fd5b823561325181614598565b946020939093013593505050565b60008060008060008060008060008060006101208c8e031215613280578889fd5b61328a8c35614598565b8b359a5061329b60208d0135614598565b60208c013599506132af8d60408e01612bd0565b985060608c0135975060808c013596506001600160401b038060a08e013511156132d7578687fd5b6132e78e60a08f01358f01612ca2565b909750955060c08d0135945060e08d013593506101008d013581101561330b578283fd5b5061331d8d6101008e01358e01612ca2565b81935080925050509295989b509295989b9093969950565b60008060008060008060008060008060e08b8d031215613353578384fd5b8a3561335e81614598565b995060208b013561336e81614598565b985060408b01356001600160401b0380821115613389578586fd5b6133958e838f01612bdb565b909a50985060608d01359150808211156133ad578586fd5b6133b98e838f01612bdb565b909850965060808d01359150808211156133d1578586fd5b506133de8d828e01612ca2565b9b9e9a9d50989b979a969995989760a08101359660c09091013595509350505050565b600080600060608486031215613415578081fd5b833561342081614598565b9250602084013561343081614598565b915060408401356001600160401b038082111561344b578283fd5b9085019060e0828803121561345e578283fd5b61346860e0614546565b6134728884612bd0565b8152602083013582811115613485578485fd5b61349189828601612c23565b6020830152506040830135828111156134a8578485fd5b6134b489828601612c23565b6040830152506060830135828111156134cb578485fd5b6134d789828601612ce1565b6060830152506080830135608082015260a083013560a082015260c083013582811115613502578485fd5b61350e89828601612ce1565b60c0830152508093505050509250925092565b60008060008060008060008060e0898b03121561353c578182fd5b883561354781614598565b9750602089013561355781614598565b9650604089013595506060890135945060808901356001600160401b0381111561357f578283fd5b61358b8b828c01612ca2565b999c989b5096999598969760a08701359660c0013595509350505050565b6000602082840312156135ba578081fd5b815180151581146118a1578182fd5b6000602082840312156135da578081fd5b5035919050565b600080604083850312156135f3578182fd5b82359150602083013561360581614598565b809150509250929050565b60008060408385031215613622578182fd5b50508035926020909101359150565b81835260006001600160fb1b03831115613649578081fd5b6020830280836020870137939093016020019283525090919050565b6000815180845260208085019450808401835b8381101561369457815187529582019590820190600101613678565b509495945050505050565b60008284528282602086013780602084860101526020601f19601f85011685010190509392505050565b600081518084526136e181602086016020860161456c565b601f01601f19169290920160200192915050565b6000828483379101908152919050565b6000825161371781846020870161456c565b9190910192915050565b6001600160a01b0391909116815260200190565b6001600160a01b038c811682528b811660208301528a811660408301526101606060830181905260009161376b8483018d613665565b9150838203608085015261377f828c613665565b915083820360a0850152613793828b6136c9565b60c08501999099529690961660e08301525061010081019390935261012083019190915261014090910152509695505050505050565b6001600160a01b038c811682528b811660208301528a81166040830152606082018a905260808201899052871660a082015261016060c0820181905260009061381483820189613665565b905082810360e08401526138288188613665565b905082810361010084015261383d81876136c9565b610120840195909552505061014001529998505050505050505050565b6001600160a01b0386811682528516602082015260a06040820181905260009061388690830186613665565b82810360608401526138988186613665565b905082810360808401526138ac81856136c9565b98975050505050505050565b6001600160a01b0386811682528516602082015260a0604082018190526000906138e4908301866136c9565b82810360608401526138f681866136c9565b9150508260808301529695505050505050565b6001600160a01b038581168252841660208201526040810183905260806060820181905260009061393c908301846136c9565b9695505050505050565b6001600160a01b038c811682528b811660208301528a1660408201526101006060820181905260009061397c8382018b8d613631565b9050828103608084015261399181898b613631565b905082810360a08401526139a681878961369f565b60c0840195909552505060e001529998505050505050505050565b6001600160a01b038a81168252898116602083015288166040820152606081018790526080810186905261010060a08201819052600090613a05838201878961369f565b60c0840195909552505060e00152979650505050505050565b6001600160a01b03878116825286166020820152604081018590526060810184905260a0608082018190526000906138ac908301848661369f565b6001600160a01b03898116825288811660208301528716604082015261010060608201819052600090613a8e83820189613665565b90508281036080840152613aa28188613665565b905082810360a0840152613ab681876136c9565b60c0840195909552505060e001529695505050505050565b6001600160a01b039384168152919092166020820152604081019190915260600190565b6001600160a01b038616815260a060208201819052600090613b1690830187613665565b8281036040840152613b288187613665565b905082810360608401526138f681866136c9565b600060408252613b50604083018688613631565b8281036020840152613b63818587613631565b979650505050505050565b600060808252613b8260808301888a613631565b8281036020840152613b95818789613631565b6040840195909552505060600152949350505050565b600060408252613bbe6040830185613665565b8281036020840152613bd08185613665565b95945050505050565b600060c08252613bec60c0830189613665565b8281036020840152613bfe8189613665565b6001600160a01b038816604085015283810360608501529050613c218187613665565b90508281036080840152613c358186613665565b9150508260a0830152979650505050505050565b600060608252613c5c6060830186613665565b8281036020840152613c6e8186613665565b915050826040830152949350505050565b600060c08252613c9260c0830189613665565b8281036020840152613ca48189613665565b90508281036040840152613cb881886136c9565b6001600160a01b039690961660608401525050608081019290925260a0909101529392505050565b600060808252613cf36080830187613665565b8281036020840152613d058187613665565b90508281036040840152613d1981866136c9565b91505082606083015295945050505050565b6000610100808352613d3f8184018c613665565b90508281036020840152613d53818b613665565b90508281036040840152613d67818a6136c9565b606084019890985250506001600160a01b0394909416608085015260a084019290925260c083015260e0909101529392505050565b6000610100808352613db08184018c613665565b90508281036020840152613dc4818b613665565b604084018a90526001600160a01b038916606085015283810360808501529050613dee8188613665565b905082810360a0840152613ab68187613665565b901515815260200190565b90815260200190565b600083825260406020830152612acb6040830184613665565b6000602082526118a160208301846136c9565b60208082526022908201527f456e756d657261626c655365743a20696e646578206f7574206f6620626f756e604082015261647360f01b606082015260800190565b60208082526014908201527314d85999551c985b99995c8e88195e1c1a5c995960621b604082015260600190565b6020808252602f908201527f416363657373436f6e74726f6c3a2073656e646572206d75737420626520616e60408201526e0818591b5a5b881d1bc819dc985b9d608a1b606082015260800190565b6020808252601e908201527f536166655472616e6665723a206e6f7420617661696c61626c65207965740000604082015260600190565b6020808252601b908201527f536166654d6174683a206164646974696f6e206f766572666c6f770000000000604082015260600190565b6020808252601b908201527f536166655472616e736665723a20726571756573742065786973740000000000604082015260600190565b60208082526011908201527014d8599954ddd85c0e88195e1c1a5c9959607a1b604082015260600190565b60208082526027908201527f536166655472616e736665723a206d73672e76616c7565206d757374206d61746040820152666368206665657360c81b606082015260800190565b60208082526030908201527f416363657373436f6e74726f6c3a2073656e646572206d75737420626520616e60408201526f2061646d696e20746f207265766f6b6560801b606082015260800190565b6020808252601b908201527f53616665537761703a206e6f7420617661696c61626c65207965740000000000604082015260600190565b6020808252601a908201527f536166655472616e736665723a2077726f6e6720736563726574000000000000604082015260600190565b6020808252601f908201527f536166655472616e736665723a2073656e6465723d3d726563697069656e7400604082015260600190565b60208082526025908201527f53616665537761703a2074727920746f207377617020657468657220616e642060408201526432ba3432b960d91b606082015260800190565b60208082526012908201527153616665537761703a206e6f2076616c756560701b604082015260600190565b6020808252601f908201527f536166655472616e736665723a2072657175657374206e6f7420657869737400604082015260600190565b60208082526016908201527514d8599954ddd85c0e881ddc9bdb99c81cd958dc995d60521b604082015260600190565b6020808252601d908201527f416464726573733a2063616c6c20746f206e6f6e2d636f6e7472616374000000604082015260600190565b60208082526017908201527f53616665537761703a2072657175657374206578697374000000000000000000604082015260600190565b60208082526024908201527f53616665537761703a206e6f2076616c756520666f722045524331313535207460408201526337b5b2b760e11b606082015260800190565b6020808252601a908201527f53616665537761703a206e6f2076616c756520666f7220455448000000000000604082015260600190565b60208082526018908201527f53616665537761703a2076616c7565206d69736d617463680000000000000000604082015260600190565b6020808252601e908201527f536166655472616e736665723a206e6f7420616e20616374697661746f720000604082015260600190565b6020808252602a908201527f5361666545524332303a204552433230206f7065726174696f6e20646964206e6040820152691bdd081cdd58d8d9595960b21b606082015260800190565b6020808252602a908201527f536166655472616e736665723a206e6f7420616363657074696e67206574686560408201526972206469726563746c7960b01b606082015260800190565b6020808252601b908201527f53616665537761703a2072657175657374206e6f742065786973740000000000604082015260600190565b6020808252601b908201527f53616665537761703a2073656e6465723d3d726563697069656e740000000000604082015260600190565b6020808252602f908201527f416363657373436f6e74726f6c3a2063616e206f6e6c792072656e6f756e636560408201526e103937b632b9903337b91039b2b63360891b606082015260800190565b8681526001600160a01b038616602082015260c0604082018190526000906144b790830187613665565b82810360608401526144c98187613665565b90508281036080840152613c3581866136c9565b918252602082015260400190565b888152602081018890526001600160a01b038716604082015261010060608201819052600090613a8e83820189613665565b93845260208401929092526040830152606082015260800190565b60ff91909116815260200190565b6040518181016001600160401b038111828210171561456457600080fd5b604052919050565b60005b8381101561458757818101518382015260200161456f565b8381111561089f5750506000910152565b6001600160a01b03811681146145ad57600080fd5b5056feec5aad7bdface20c35bc02d6d2d5760df981277427368525d634f4e2603ea192a2646970667358221220bbc7fa0f6ba4bc8270d44bedcfdcb16d96e585105c22c6a797b882b5e65141b364736f6c634300060c0033ec5aad7bdface20c35bc02d6d2d5760df981277427368525d634f4e2603ea192",
  "immutableReferences": {},
  "source": "// SPDX-License-Identifier: GPL-3.0-or-later\npragma solidity 0.6.12;\npragma experimental ABIEncoderV2;\n\nimport \"../node_modules/@openzeppelin/contracts/math/SafeMath.sol\";\nimport \"../node_modules/@openzeppelin/contracts/access/AccessControl.sol\";\nimport \"../node_modules/@openzeppelin/contracts/token/ERC20/SafeERC20.sol\";\nimport \"../node_modules/@openzeppelin/contracts/token/ERC721/IERC721.sol\";\nimport \"../node_modules/@openzeppelin/contracts/token/ERC1155/IERC1155.sol\";\n\ncontract SafeForERC1155 is AccessControl {\n  using SafeMath for uint256;\n  using SafeERC20 for IERC20;\n\n  // keccak256(\"ACTIVATOR_ROLE\");\n  bytes32 public constant ACTIVATOR_ROLE =\n    0xec5aad7bdface20c35bc02d6d2d5760df981277427368525d634f4e2603ea192;\n\n  // keccak256(\"hiddenCollect(address from,address to,uint256 value,uint256 fees,bytes32 secretHash)\");\n  //bytes32 public constant HIDDEN_COLLECT_TYPEHASH = 0x0506afef36f3613836f98ef019cb76a3e6112be8f9dc8d8fa77275d64f418234;\n\n  // keccak256(\"hiddenCollectERC20(address from,address to,address token,string tokenSymbol,uint256 value,uint256 fees,bytes32 secretHash)\");\n  // bytes32 public constant HIDDEN_ERC20_COLLECT_TYPEHASH = 0x9e6214229b9fba1927010d30b22a3a5d9fd5e856bb29f056416ff2ad52e8de44;\n\n  // keccak256(\"hiddenCollectERC721(address from,address to,address token,string tokenSymbol,uint256 tokenId,bytes tokenData,uint256 fees,bytes32 secretHash)\");\n  // bytes32 public constant HIDDEN_ERC721_COLLECT_TYPEHASH = 0xa14a2dc51c26e451800897aa798120e7d6c35039caf5eb29b8ac35d1e914c591;\n\n  bytes32 public DOMAIN_SEPARATOR;\n  uint256 public CHAIN_ID;\n  bytes32 s_uid;\n  uint256 s_fees;\n\n  struct TokenInfo {\n    bytes32 id;\n    bytes32 id1;\n    uint256 tr;\n  }\n\n  struct SwapERC1155Info {\n    address token0;\n    uint256[] tokenIds0;\n    uint256[] values0;\n    bytes tokenData0;\n    uint256 fees0;\n    address token1;\n    uint256[] tokenIds1;\n    uint256[] values1;\n    bytes tokenData1;\n    uint256 fees1;\n    bytes32 secretHash;\n  }\n\n  struct CollectBatchERC1155Info {\n    address token;\n    uint256[] tokenIds;\n    uint256[] values;\n    bytes tokenData;\n    uint256 fees;\n    bytes32 secretHash;\n    bytes secret;\n  }\n\n  struct SwapBatchERC1155ToERC20Info {\n    address token0;\n    uint256[] tokenIds0;\n    uint256[] values0;\n    bytes tokenData0;\n    uint256 fees0;\n    address token1;\n    uint256 value1;\n    uint256 fees1;\n    bytes32 secretHash;\n  }\n\n  struct SwapERC20ToBatchERC1155Info {\n    address token0;\n    uint256 value0;\n    uint256 fees0;\n    address token1;\n    uint256[] tokenIds1;\n    uint256[] values1;\n    bytes tokenData1;\n    uint256 fees1;\n    bytes32 secretHash;\n  }\n\n /*  struct SwapETHToBatchERC1155Info {\n    address token0;\n    uint256 tokenId0;\n    uint256 value0;\n    uint256 fees0;\n    address token1;\n    uint256[] tokenIds1;\n    uint256[] values1;\n    bytes tokenData1;\n    uint256 fees1;\n    bytes32 secretHash;\n  } */\n\n  mapping(bytes32 => uint256) s_erc1155Transfers;\n  mapping(bytes32 => uint256) s_swaps;\n  mapping(bytes32 => uint256) s_hswaps;\n\n  string public constant NAME = \"Kirobo Safe Transfer\";\n  string public constant VERSION = \"1\";\n  uint8 public constant VERSION_NUMBER = 0x1;\n\n  event Retrieved(\n    address indexed from,\n    address indexed to,\n    bytes32 indexed id,\n    uint256 value\n  );\n\n  event ERC1155TransferDeposited(\n    address indexed token,\n    address indexed from,\n    address indexed to,\n    uint256 tokenId,\n    uint256 value,\n    uint256 fees,\n    bytes32 secretHash\n  );\n\n  event ERC1155BatchTransferDeposited(\n    address indexed token,\n    address indexed from,\n    address indexed to,\n    uint256[] tokenIds,\n    uint256[] values,\n    uint256 fees,\n    bytes32 secretHash\n  );\n\n  event ERC1155TransferRetrieved(\n    address indexed token,\n    address indexed from,\n    address indexed to,\n    uint256 tokenId,\n    uint256 value\n  );\n\n  event ERC721Retrieved(\n    address indexed token,\n    address indexed from,\n    address indexed to,\n    bytes32 id,\n    uint256[] tokenId\n  );\n\n  event ERC1155BatchTransferRetrieved(\n    address indexed token,\n    address indexed from,\n    address indexed to,\n    uint256[] tokenIds,\n    uint256[] values\n  );\n\n  event ERC1155Collected(\n    address indexed token,\n    address indexed from,\n    address indexed to,\n    uint256 tokenId,\n    uint256 value\n  );\n\n  event ERC1155BatchCollected(\n    address indexed token,\n    address indexed from,\n    address indexed to,\n    uint256[] tokenIds,\n    uint256[] values\n  );\n\n  event ERC1155SwapDeposited(\n    address indexed from,\n    address indexed to,\n    address indexed token0,\n    uint256[] tokenIds0,\n    uint256[] values0,\n    uint256 fees0,\n    address token1,\n    uint256[] tokenIds1,\n    uint256[] values1,\n    uint256 fees1,\n    bytes32 secretHash\n  );\n\n  event ERC1155SwapRetrieved(\n    address indexed from,\n    address indexed to,\n    address indexed token,\n    uint256[] tokenIds,\n    uint256[] values,\n    bytes32 id\n  );\n\n  event ERC1155Swapped(\n    address indexed from,\n    address indexed to,\n    address indexed token0,\n    uint256[] tokenIds0,\n    uint256[] values0,\n    address token1,\n    uint256[] tokenIds1,\n    uint256[] values1,\n    bytes32 id\n  );\n\n  event swapDepositERC1155ToERC20Event(\n    address indexed from,\n    address indexed to,\n    address indexed token0,\n    uint256[] tokenIds0,\n    uint256[] values0,\n    bytes tokenData0,\n    uint256 fees0,\n    address token1,\n    uint256 value1,\n    uint256 fees1,\n    bytes32 secretHash\n  );\n\n  event swapDepositERC20ToERC1155Event(\n    address indexed from,\n    address indexed to,\n    address indexed token0,\n    uint256 value0,\n    uint256 fees0,\n    address token1,\n    uint256[] tokenIds1,\n    uint256[] values1,\n    bytes tokenData1,\n    uint256 fees1,\n    bytes32 secretHash\n  );\n\n  /* event swapDepositETHToERC1155Event(\n    address indexed from,\n    address indexed to,\n    address indexed token0,\n    uint256 value0,\n    uint256 fees0,\n    address token1,\n    uint256[] tokenIds1,\n    uint256[] values1,\n    uint256 fees1,\n    bytes32 secretHash\n  ); */\n\n  event swapRetrieveERC1155ToERC20Event(\n    address indexed from,\n    address indexed to,\n    address indexed token0,\n    uint256[] tokenIds0,\n    uint256[] values0,\n    bytes tokenData0,\n    bytes32 id\n  );\n\n  event swapRetrieveERC20ToERC1155Event(\n    address indexed from,\n    address indexed to,\n    address indexed token0,\n    uint256 value0,\n    bytes32 id\n  );\n\n  event swapERC1155ToETHEvent(\n    address indexed from,\n    address indexed to,\n    address indexed token0,\n    uint256[] tokenIds0,\n    uint256[] values0,\n    address token1,\n    uint256 value1,\n    bytes32 id\n  );\n\n  event swapERC1155ToERC20Event(\n    address indexed from,\n    address indexed to,\n    address indexed token0,\n    uint256[] tokenIds0,\n    uint256[] values0,\n    bytes tokenData0,\n    address token1,\n    uint256 value1,\n    bytes32 id\n  );\n\n  event swapERC20ToERC1155Event(\n    address indexed from,\n    address indexed to,\n    address indexed token0,\n    uint256 value0,\n    address token1,\n    uint256[] tokenIds1,\n    uint256[] values1,\n    bytes tokenData1,\n    bytes32 id\n  );\n\n  /* event swapETHToERC1155Event(\n    address indexed from,\n    address indexed to,\n    address indexed token0,\n    uint256 value0,\n    address token1,\n    uint256[] tokenIds1,\n    uint256[] values1,\n    bytes32 id\n  ); */\n\n  modifier onlyActivator() {\n    require(\n      hasRole(ACTIVATOR_ROLE, msg.sender),\n      \"SafeTransfer: not an activator\"\n    );\n    _;\n  }\n\n  constructor(address activator) public {\n    _setupRole(DEFAULT_ADMIN_ROLE, msg.sender);\n    _setupRole(ACTIVATOR_ROLE, msg.sender);\n    _setupRole(ACTIVATOR_ROLE, activator);\n\n    uint256 chainId;\n    assembly {\n      chainId := chainid()\n    }\n\n    CHAIN_ID = chainId;\n\n    s_uid = bytes32(\n      (uint256(VERSION_NUMBER) << 248) |\n        ((uint256(blockhash(block.number - 1)) << 192) >> 16) |\n        uint256(address(this))\n    );\n\n    DOMAIN_SEPARATOR = keccak256(\n      abi.encode(\n        keccak256(\n          \"EIP712Domain(string name,string version,uint256 chainId,address verifyingContract,bytes32 salt)\"\n        ),\n        keccak256(bytes(NAME)),\n        keccak256(bytes(VERSION)),\n        chainId,\n        address(this),\n        s_uid\n      )\n    );\n  }\n\n  receive() external payable {\n    require(false, \"SafeTransfer: not accepting ether directly\");\n  }\n\n  /* function transferERC20(address token, address wallet, uint256 value) external onlyActivator() {\n        IERC20(token).safeTransfer(wallet, value);\n    }\n\n    function transferERC721(address token, address wallet, uint256 tokenId, bytes calldata data) external onlyActivator() {\n        IERC721(token).safeTransferFrom(address(this), wallet, tokenId, data);\n    } */\n\n  function transferFees(address payable wallet, uint256 value)\n    external\n    onlyActivator\n  {\n    s_fees = s_fees.sub(value);\n    wallet.transfer(value);\n  }\n\n  function totalFees() external view returns (uint256) {\n    return s_fees;\n  }\n\n  /* function uid() view external returns (bytes32) {\n        return s_uid;\n    } */\n\n  // ------------------------------- ERC-1155 transfer single--------------------------------\n  //0x5978e4630233612269aC217784A41fB3EA720d30\n  function depositERC1155(\n    address token,\n    address to,\n    uint256 tokenId,\n    uint256 value,\n    bytes calldata tokenData,\n    uint256 fees,\n    bytes32 secretHash\n  ) external payable {\n    require(msg.value == fees, \"SafeTransfer: msg.value must match fees\");\n    require(to != msg.sender, \"SafeTransfer: sender==recipient\");\n    bytes32 id = keccak256(\n      abi.encode(\n        token,\n        msg.sender,\n        to,\n        tokenId,\n        value,\n        tokenData,\n        fees,\n        secretHash\n      )\n    );\n    require(s_erc1155Transfers[id] == 0, \"SafeTransfer: request exist\");\n    s_erc1155Transfers[id] = 0xffffffffffffffff;\n    emit ERC1155TransferDeposited(\n      token,\n      msg.sender,\n      to,\n      tokenId,\n      value,\n      fees,\n      secretHash\n    );\n  }\n\n  function retrieveERC1155(\n    address token,\n    address to,\n    uint256 tokenId,\n    uint256 value,\n    bytes calldata tokenData,\n    uint256 fees,\n    bytes32 secretHash\n  ) external {\n    bytes32 id = keccak256(\n      abi.encode(\n        token,\n        msg.sender,\n        to,\n        tokenId,\n        value,\n        tokenData,\n        fees,\n        secretHash\n      )\n    );\n    require(s_erc1155Transfers[id] > 0, \"SafeTransfer: request not exist\");\n    delete s_erc1155Transfers[id];\n    msg.sender.transfer(fees);\n    emit ERC1155TransferRetrieved(token, msg.sender, to, tokenId, value);\n  }\n\n  function collectERC1155(\n    address token,\n    address from,\n    address payable to,\n    uint256 tokenId,\n    uint256 value,\n    bytes calldata tokenData,\n    uint256 fees,\n    bytes32 secretHash,\n    bytes calldata secret\n  ) external onlyActivator {\n    bytes32 id = keccak256(\n      abi.encode(token, from, to, tokenId, value, tokenData, fees, secretHash)\n    );\n    uint256 tr = s_erc1155Transfers[id];\n    require(tr > 0, \"SafeTransfer: request not exist\");\n    require(uint64(tr) > now, \"SafeTranfer: expired\");\n    require(uint64(tr >> 64) <= now, \"SafeTranfer: not available yet\");\n    require(keccak256(secret) == secretHash, \"SafeTransfer: wrong secret\");\n    delete s_erc1155Transfers[id];\n    s_fees = s_fees.add(fees);\n    IERC1155(token).safeTransferFrom(from, to, tokenId, value, tokenData);\n    emit ERC1155Collected(token, from, to, tokenId, value);\n  }\n\n  //------------------------------ERC-1155 batch transfer -----------------------------------------\n  function depositBatchERC1155(\n    address token,\n    address to,\n    uint256[] calldata tokenIds,\n    uint256[] calldata values,\n    bytes calldata tokenData,\n    uint256 fees,\n    bytes32 secretHash\n  ) external payable {\n    require(msg.value == fees, \"SafeTransfer: msg.value must match fees\");\n    require(to != msg.sender, \"SafeTransfer: sender==recipient\");\n    bytes32 id = keccak256(\n      abi.encode(\n        token,\n        msg.sender,\n        to,\n        tokenIds,\n        values,\n        tokenData,\n        fees,\n        secretHash\n      )\n    );\n    require(s_erc1155Transfers[id] == 0, \"SafeTransfer: request exist\");\n    s_erc1155Transfers[id] = 0xffffffffffffffff;\n    emit ERC1155BatchTransferDeposited(\n      token,\n      msg.sender,\n      to,\n      tokenIds,\n      values,\n      fees,\n      secretHash\n    );\n  }\n\n  function retrieveBatchERC1155(\n    address token,\n    address to,\n    uint256[] calldata tokenIds,\n    uint256[] calldata values,\n    bytes calldata tokenData,\n    uint256 fees,\n    bytes32 secretHash\n  ) external {\n    bytes32 id = keccak256(\n      abi.encode(\n        token,\n        msg.sender,\n        to,\n        tokenIds,\n        values,\n        tokenData,\n        fees,\n        secretHash\n      )\n    );\n    require(s_erc1155Transfers[id] > 0, \"SafeTransfer: request not exist\");\n    delete s_erc1155Transfers[id];\n    msg.sender.transfer(fees);\n    emit ERC1155BatchTransferRetrieved(token, msg.sender, to, tokenIds, values);\n  }\n\n  function collectBatchERC1155(\n    address to,\n    address from,\n    CollectBatchERC1155Info memory info\n  ) external onlyActivator {\n    bytes32 id = keccak256(\n      abi.encode(\n        info.token,\n        from,\n        to,\n        info.tokenIds,\n        info.values,\n        info.tokenData,\n        info.fees,\n        info.secretHash\n      )\n    );\n    uint256 tr = s_erc1155Transfers[id];\n    require(tr > 0, \"SafeTransfer: request not exist\");\n    require(uint64(tr) > now, \"SafeTranfer: expired\");\n    require(uint64(tr >> 64) <= now, \"SafeTranfer: not available yet\");\n    require(\n      keccak256(info.secret) == info.secretHash,\n      \"SafeTransfer: wrong secret\"\n    );\n    delete s_erc1155Transfers[id];\n    s_fees = s_fees.add(info.fees);\n    IERC1155(info.token).safeBatchTransferFrom(\n      from,\n      to,\n      info.tokenIds,\n      info.values,\n      info.tokenData\n    );\n    emit ERC1155BatchCollected(\n      info.token,\n      from,\n      to,\n      info.tokenIds,\n      info.values\n    );\n  }\n\n  function encodeObject(\n    address a,\n    uint256[] memory arr1,\n    uint256[] memory arr2,\n    bytes memory b,\n    uint256 c\n  ) internal pure returns (bytes memory) {\n    return abi.encode(a, arr1, arr2, b, c);\n  }\n\n  // ----------------------- swap - batch ERC1155 <--> ETH/721 -------------------------------------------\n  //0x0Fc471ed8ed3a01Ab11E1F7A3A3d71F4bCEf39E7\n  function swapDepositERC1155(address payable to, SwapERC1155Info memory info)\n    external\n    payable\n  {\n    if (info.token0 == address(0)) {\n      //eth to 1155\n      require(\n        info.token0 != info.token1,\n        \"SafeSwap: try to swap ether and ether\"\n      );\n      require(\n        msg.value == info.values0[0].add(info.fees0),\n        \"SafeSwap: value mismatch\"\n      );\n      require(info.values1[0] > 0, \"SafeSwap: no value for ERC1155 token\");\n    } else if (info.token1 == address(0)) {\n      //1155 to eth\n      require(msg.value == info.fees0, \"SafeSwap: value mismatch\");\n      require(info.values0[0] > 0, \"SafeSwap: no value for ERC1155 token\");\n      require(info.values1[0] > 0, \"SafeSwap: no value for ETH\");\n    } else if (info.values0[0] == 0) {\n      //721 to 1155\n      require(msg.value == info.fees0, \"SafeSwap: value mismatch\");\n      require(info.values1[0] > 0, \"SafeSwap: no value for ERC1155 token\");\n    } else if (info.values1[0] == 0) {\n      //1155 to 721\n      require(msg.value == info.fees0, \"SafeSwap: value mismatch\");\n      require(info.values0[0] > 0, \"SafeSwap: no value\");\n    } else {\n      //1155 to 1155\n      require(msg.value == info.fees0, \"SafeSwap: value mismatch\");\n      require(info.values0[0] > 0, \"SafeSwap: no value for ERC1155 token\");\n      require(info.values1[0] > 0, \"SafeSwap: no value for ERC1155 token\");\n    }\n    require(to != msg.sender, \"SafeSwap: sender==recipient\");\n    bytes32 id = keccak256(\n      abi.encode(\n        msg.sender,\n        to,\n        encodeObject(\n          info.token0,\n          info.tokenIds0,\n          info.values0,\n          info.tokenData0,\n          info.fees0\n        ),\n        encodeObject(\n          info.token1,\n          info.tokenIds1,\n          info.values1,\n          info.tokenData1,\n          info.fees1\n        ),\n        info.secretHash\n      )\n    );\n    require(s_swaps[id] == 0, \"SafeSwap: request exist\");\n    s_swaps[id] = 0xffffffffffffffff; // expiresAt: max, AvailableAt: 0, autoRetrieveFees: 0\n    emit ERC1155SwapDeposited(\n      msg.sender,\n      to,\n      info.token0,\n      info.tokenIds0,\n      info.values0,\n      info.fees0,\n      info.token1,\n      info.tokenIds1,\n      info.values1,\n      info.fees1,\n      info.secretHash\n    );\n  }\n\n  function swapRetrieveERC1155(address to, SwapERC1155Info memory info)\n    external\n  {\n    bytes32 id = keccak256(\n      abi.encode(\n        msg.sender,\n        to,\n        encodeObject(\n          info.token0,\n          info.tokenIds0,\n          info.values0,\n          info.tokenData0,\n          info.fees0\n        ),\n        encodeObject(\n          info.token1,\n          info.tokenIds1,\n          info.values1,\n          info.tokenData1,\n          info.fees1\n        ),\n        info.secretHash\n      )\n    );\n    require(s_swaps[id] > 0, \"SafeSwap: request not exist\");\n    delete s_swaps[id];\n    uint256 valueToSend;\n    if (info.token0 == address(0)) {\n      valueToSend = info.values0[0].add(info.fees0);\n    } else {\n      valueToSend = info.fees0;\n    }\n    msg.sender.transfer(valueToSend);\n    if (info.token0 == address(0)) {\n      emit Retrieved(msg.sender, to, id, valueToSend);\n    } else if (info.values0[0] == 0) {\n      //retrieve 721\n      emit ERC721Retrieved(info.token0, msg.sender, to, id, info.values0);\n    } else {\n      emit ERC1155SwapRetrieved(\n        msg.sender,\n        to,\n        info.token0,\n        info.tokenIds0,\n        info.values0,\n        id\n      );\n    }\n  }\n\n  function swapERC1155(\n    address payable from,\n    SwapERC1155Info memory info,\n    bytes calldata secret\n  ) external payable {\n    bytes32 id = keccak256(\n      abi.encode(\n        from,\n        msg.sender,\n        encodeObject(\n          info.token0,\n          info.tokenIds0,\n          info.values0,\n          info.tokenData0,\n          info.fees0\n        ),\n        encodeObject(\n          info.token1,\n          info.tokenIds1,\n          info.values1,\n          info.tokenData1,\n          info.fees1\n        ),\n        info.secretHash\n      )\n    );\n    uint256 tr = s_swaps[id];\n    require(tr > 0, \"SafeSwap: request not exist\");\n    require(uint64(tr) > now, \"SafeSwap: expired\");\n    require(uint64(tr >> 64) <= now, \"SafeSwap: not available yet\");\n    require(keccak256(secret) == info.secretHash, \"SafeSwap: wrong secret\");\n    delete s_swaps[id];\n    s_fees = s_fees.add(info.fees0).add(info.fees1);\n    if (info.token0 == address(0)) {\n      //ether to 1155\n      msg.sender.transfer(info.values0[0]);\n    } else if (info.values0[0] == 0) {\n      //721 to 1155\n      IERC721(info.token0).safeTransferFrom(\n        from,\n        msg.sender,\n        info.tokenIds0[0],\n        info.tokenData0\n      );\n    } else {\n      //1155 to...\n      IERC1155(info.token0).safeBatchTransferFrom(\n        from,\n        msg.sender,\n        info.tokenIds0,\n        info.values0,\n        info.tokenData0\n      );\n    }\n    if (info.token1 == address(0)) {\n      //1155 to ether\n      require(\n        msg.value == info.values1[0].add(info.fees1),\n        \"SafeSwap: value mismatch\"\n      );\n      from.transfer(info.values1[0]);\n    } else if (info.values1[0] == 0) {\n      //1155 to 721\n      IERC721(info.token1).safeTransferFrom(\n        from,\n        msg.sender,\n        info.tokenIds1[0],\n        info.tokenData1\n      );\n    } else {\n      //... to 1155\n      require(msg.value == info.fees1, \"SafeSwap: value mismatch\");\n      IERC1155(info.token1).safeBatchTransferFrom(\n        msg.sender,\n        from,\n        info.tokenIds1,\n        info.values1,\n        info.tokenData1\n      );\n    }\n    emit ERC1155Swapped(\n      from,\n      msg.sender,\n      info.token0,\n      info.tokenIds0,\n      info.values0,\n      info.token1,\n      info.tokenIds1,\n      info.values1,\n      id\n    );\n  }\n\n  // ------------------------ swap batch ERC-1155 <-> ERC20 -----------------\n\n  function swapDepositERC1155ToERC20(\n    address payable to,\n    SwapBatchERC1155ToERC20Info memory info\n  ) external payable {\n    require(msg.value == info.fees0, \"SafeSwap: value mismatch\");\n    require(to != msg.sender, \"SafeSwap: sender==recipient\");\n    bytes32 id = keccak256(\n      abi.encode(\n        msg.sender,\n        to,\n        info.token0,\n        info.tokenIds0,\n        info.values0,\n        info.tokenData0,\n        info.fees0,\n        info.token1,\n        info.value1,\n        info.fees1,\n        info.secretHash\n      )\n    );\n    require(s_swaps[id] == 0, \"SafeSwap: request exist\");\n    s_swaps[id] = 0xffffffffffffffff; // expiresAt: max, AvailableAt: 0, autoRetrieveFees: 0\n    emit swapDepositERC1155ToERC20Event(\n      msg.sender,\n      to,\n      info.token0,\n      info.tokenIds0,\n      info.values0,\n      info.tokenData0,\n      info.fees0,\n      info.token1,\n      info.value1,\n      info.fees1,\n      info.secretHash\n    );\n  }\n\n  function swapRetrieveERC1155ToERC20(\n    address to,\n    SwapBatchERC1155ToERC20Info memory info\n  ) external {\n    bytes32 id = keccak256(\n      abi.encode(\n        msg.sender,\n        to,\n        info.token0,\n        info.tokenIds0,\n        info.values0,\n        info.tokenData0,\n        info.fees0,\n        info.token1,\n        info.value1,\n        info.fees1,\n        info.secretHash\n      )\n    );\n    require(s_swaps[id] > 0, \"SafeSwap: request not exist\");\n    delete s_swaps[id];\n    uint256 valueToSend = info.fees0;\n    msg.sender.transfer(valueToSend);\n    emit swapRetrieveERC1155ToERC20Event(\n      msg.sender,\n      to,\n      info.token0,\n      info.tokenIds0,\n      info.values0,\n      info.tokenData0,\n      id\n    );\n  }\n\n  function swapERC1155ToERC20(\n    address payable from,\n    SwapBatchERC1155ToERC20Info memory info,\n    bytes calldata secret\n  ) external payable {\n    bytes32 id = keccak256(\n      abi.encode(\n        from,\n        msg.sender,\n        info.token0,\n        info.tokenIds0,\n        info.values0,\n        info.tokenData0,\n        info.fees0,\n        info.token1,\n        info.value1,\n        info.fees1,\n        info.secretHash\n      )\n    );\n    uint256 tr = s_swaps[id];\n    require(tr > 0, \"SafeSwap: request not exist\");\n    require(uint64(tr) > now, \"SafeSwap: expired\");\n    require(uint64(tr >> 64) <= now, \"SafeSwap: not available yet\");\n    require(keccak256(secret) == info.secretHash, \"SafeSwap: wrong secret\");\n    require(msg.value == info.fees1, \"SafeSwap: value mismatch\");\n    delete s_swaps[id];\n    s_fees = s_fees.add(info.fees0).add(info.fees1);\n    IERC1155(info.token0).safeBatchTransferFrom(\n      from,\n      msg.sender,\n      info.tokenIds0,\n      info.values0,\n      info.tokenData0\n    );\n    IERC20(info.token1).safeTransferFrom(msg.sender, from, info.value1);\n    emit swapERC1155ToERC20Event(\n      from,\n      msg.sender,\n      info.token0,\n      info.tokenIds0,\n      info.values0,\n      info.tokenData0,\n      info.token1,\n      info.value1,\n      id\n    );\n  }\n\n  // ------------------------ swap ERC20 <-> batch ERC-1155  -----------------\n\n  function swapDepositERC20ToERC1155(\n    address payable to,\n    SwapERC20ToBatchERC1155Info memory info\n  ) external payable {\n    require(msg.value == info.fees0, \"SafeSwap: value mismatch\");\n    require(to != msg.sender, \"SafeSwap: sender==recipient\");\n    bytes32 id = keccak256(\n      abi.encode(\n        msg.sender,\n        to,\n        info.token0,\n        info.value0,\n        info.fees0,\n        info.token1,\n        info.tokenIds1,\n        info.values1,\n        info.tokenData1,\n        info.fees1,\n        info.secretHash\n      )\n    );\n    require(s_swaps[id] == 0, \"SafeSwap: request exist\");\n    s_swaps[id] = 0xffffffffffffffff; // expiresAt: max, AvailableAt: 0, autoRetrieveFees: 0\n    emit swapDepositERC20ToERC1155Event(\n      msg.sender,\n      to,\n      info.token0,\n      info.value0,\n      info.fees0,\n      info.token1,\n      info.tokenIds1,\n      info.values1,\n      info.tokenData1,\n      info.fees1,\n      info.secretHash\n    );\n  }\n\n  function swapRetrieveERC20ToERC1155(\n    address to,\n    SwapERC20ToBatchERC1155Info memory info\n  ) external {\n    bytes32 id = keccak256(\n      abi.encode(\n        msg.sender,\n        to,\n        info.token0,\n        info.value0,\n        info.fees0,\n        info.token1,\n        info.tokenIds1,\n        info.values1,\n        info.tokenData1,\n        info.fees1,\n        info.secretHash\n      )\n    );\n    require(s_swaps[id] > 0, \"SafeSwap: request not exist\");\n    delete s_swaps[id];\n    uint256 valueToSend = info.fees0;\n    msg.sender.transfer(valueToSend);\n    emit swapRetrieveERC20ToERC1155Event(\n      msg.sender,\n      to,\n      info.token0,\n      info.value0,\n      id\n    );\n  }\n\n  function swapERC20ToERC1155(\n    address payable from,\n    SwapERC20ToBatchERC1155Info memory info,\n    bytes calldata secret\n  ) external payable {\n    bytes32 id = keccak256(\n      abi.encode(\n        from,\n        msg.sender,\n        info.token0,\n        info.value0,\n        info.fees0,\n        info.token1,\n        info.tokenIds1,\n        info.values1,\n        info.tokenData1,\n        info.fees1,\n        info.secretHash\n      )\n    );\n    uint256 tr = s_swaps[id];\n    require(tr > 0, \"SafeSwap: request not exist\");\n    require(uint64(tr) > now, \"SafeSwap: expired\");\n    require(uint64(tr >> 64) <= now, \"SafeSwap: not available yet\");\n    require(keccak256(secret) == info.secretHash, \"SafeSwap: wrong secret\");\n    require(msg.value == info.fees1, \"SafeSwap: value mismatch\");\n    delete s_swaps[id];\n    s_fees = s_fees.add(info.fees0).add(info.fees1);\n    IERC20(info.token0).safeTransferFrom(from, msg.sender, info.value0);\n    IERC1155(info.token1).safeBatchTransferFrom(\n      msg.sender,\n      from,\n      info.tokenIds1,\n      info.values1,\n      info.tokenData1\n    );\n    emit swapERC20ToERC1155Event(\n      from,\n      msg.sender,\n      info.token0,\n      info.value0,\n      info.token1,\n      info.tokenIds1,\n      info.values1,\n      info.tokenData1,\n      id\n    );\n  }\n\n  //------------------- swap ETH <-> batch 1155 ---------------------\n/*   function swapDepositETHToERC1155(\n    address payable to,\n    SwapETHToBatchERC1155Info memory info\n  ) external payable {\n    //eth to 1155\n    require(\n      info.token0 != info.token1,\n      \"SafeSwap: try to swap ether and ether\"\n    );\n    require(\n      msg.value == info.value0.add(info.fees0),\n      \"SafeSwap: value mismatch\"\n    );\n    require(to != msg.sender, \"SafeSwap: sender==recipient\");\n    bytes32 id = keccak256(\n      abi.encode(\n        msg.sender,\n        to,\n        info.token0,\n        info.tokenId0,\n        info.value0,\n        info.fees0,\n        info.token1,\n        info.tokenIds1,\n        info.values1,\n        info.tokenData1,\n        info.fees1,\n        info.secretHash\n      )\n    );\n    require(s_swaps[id] == 0, \"SafeSwap: request exist\");\n    s_swaps[id] = 0xffffffffffffffff; // expiresAt: max, AvailableAt: 0, autoRetrieveFees: 0\n    emit swapDepositETHToERC1155Event(\n      msg.sender,\n      to,\n      info.token0,\n      info.value0,\n      info.fees0,\n      info.token1,\n      info.tokenIds1,\n      info.values1,\n      info.fees1,\n      info.secretHash\n    );\n  }\n\n  function swapRetrieveETHToERC1155(\n    address to,\n    SwapETHToBatchERC1155Info memory info\n  ) external {\n    bytes32 id = keccak256(\n      abi.encode(\n        msg.sender,\n        to,\n        info.token0,\n        info.tokenId0,\n        info.value0,\n        info.fees0,\n        info.token1,\n        info.tokenIds1,\n        info.values1,\n        info.tokenData1,\n        info.fees1,\n        info.secretHash\n      )\n    );\n    require(s_swaps[id] > 0, \"SafeSwap: request not exist\");\n    delete s_swaps[id];\n    uint256 valueToSend;\n    valueToSend = info.value0.add(info.fees0);\n    msg.sender.transfer(valueToSend);\n    emit Retrieved(msg.sender, to, id, valueToSend);\n  }\n\n  function swapETHToERC1155(\n    address payable from,\n    SwapETHToBatchERC1155Info memory info,\n    bytes calldata secret\n  ) external payable {\n    bytes32 id = keccak256(\n      abi.encode(\n        from,\n        msg.sender,\n        info.token0,\n        info.tokenId0,\n        info.value0,\n        info.fees0,\n        info.token1,\n        info.tokenIds1,\n        info.values1,\n        info.tokenData1,\n        info.fees1,\n        info.secretHash\n      )\n    );\n    uint256 tr = s_swaps[id];\n    require(tr > 0, \"SafeSwap: request not exist\");\n    require(uint64(tr) > now, \"SafeSwap: expired\");\n    require(uint64(tr >> 64) <= now, \"SafeSwap: not available yet\");\n    require(keccak256(secret) == info.secretHash, \"SafeSwap: wrong secret\");\n    delete s_swaps[id];\n    s_fees = s_fees.add(info.fees0).add(info.fees1);\n    msg.sender.transfer(info.value0);\n    require(msg.value == info.fees1, \"SafeSwap: value mismatch\");\n    IERC1155(info.token1).safeBatchTransferFrom(\n      msg.sender,\n      from,\n      info.tokenIds1,\n      info.values1,\n      info.tokenData1\n    );\n    emit swapETHToERC1155Event(\n      from,\n      msg.sender,\n      info.token0,\n      info.value0,\n      info.token1,\n      info.tokenIds1,\n      info.values1,\n      id\n    );\n  } */\n}\n\n//need to add :\n//swap 1155 with 721\n//swap 721 with 1155\n// to batch1155\n//batch swap 1155 to 721\n//batch swap 721 to 1155\n//batch swap eth to 1155\n//swap batch1155 with batch1155\n//hidden transfer\n//hiddem batch transfer\n//hidden swap - eth to 1155\n//hidden swap - 11\n",
  "sourcePath": "/Users/orishalom/repositories/ki-eth-token/contracts/SafeForERC1155.sol",
  "compiler": {
    "name": "solc",
    "version": "0.6.12+commit.27d51765.Emscripten.clang"
  },
  "schemaVersion": "3.3.4",
  "updatedAt": "2022-04-13T06:52:50.695Z",
  "devdoc": {
    "kind": "dev",
    "methods": {
      "getRoleAdmin(bytes32)": {
        "details": "Returns the admin role that controls `role`. See {grantRole} and {revokeRole}. To change a role's admin, use {_setRoleAdmin}."
      },
      "getRoleMember(bytes32,uint256)": {
        "details": "Returns one of the accounts that have `role`. `index` must be a value between 0 and {getRoleMemberCount}, non-inclusive. Role bearers are not sorted in any particular way, and their ordering may change at any point. WARNING: When using {getRoleMember} and {getRoleMemberCount}, make sure you perform all queries on the same block. See the following https://forum.openzeppelin.com/t/iterating-over-elements-on-enumerableset-in-openzeppelin-contracts/2296[forum post] for more information."
      },
      "getRoleMemberCount(bytes32)": {
        "details": "Returns the number of accounts that have `role`. Can be used together with {getRoleMember} to enumerate all bearers of a role."
      },
      "grantRole(bytes32,address)": {
        "details": "Grants `role` to `account`. If `account` had not been already granted `role`, emits a {RoleGranted} event. Requirements: - the caller must have ``role``'s admin role."
      },
      "hasRole(bytes32,address)": {
        "details": "Returns `true` if `account` has been granted `role`."
      },
      "renounceRole(bytes32,address)": {
        "details": "Revokes `role` from the calling account. Roles are often managed via {grantRole} and {revokeRole}: this function's purpose is to provide a mechanism for accounts to lose their privileges if they are compromised (such as when a trusted device is misplaced). If the calling account had been granted `role`, emits a {RoleRevoked} event. Requirements: - the caller must be `account`."
      },
      "revokeRole(bytes32,address)": {
        "details": "Revokes `role` from `account`. If `account` had been granted `role`, emits a {RoleRevoked} event. Requirements: - the caller must have ``role``'s admin role."
      }
    },
    "version": 1
  },
  "userdoc": {
    "kind": "user",
    "methods": {},
    "version": 1
  }
}