{
  "contractName": "SafeSwap",
  "abi": [
    {
      "inputs": [
        {
          "internalType": "address",
          "name": "activator",
          "type": "address"
        }
      ],
      "stateMutability": "nonpayable",
      "type": "constructor"
    },
    {
      "anonymous": false,
      "inputs": [
        {
          "indexed": true,
          "internalType": "address",
          "name": "from",
          "type": "address"
        },
        {
          "indexed": true,
          "internalType": "address",
          "name": "to",
          "type": "address"
        },
        {
          "indexed": true,
          "internalType": "address",
          "name": "token0",
          "type": "address"
        },
        {
          "indexed": false,
          "internalType": "uint256",
          "name": "value0",
          "type": "uint256"
        },
        {
          "indexed": false,
          "internalType": "uint256",
          "name": "fees0",
          "type": "uint256"
        },
        {
          "indexed": false,
          "internalType": "bytes32",
          "name": "secretHash0",
          "type": "bytes32"
        },
        {
          "indexed": false,
          "internalType": "address",
          "name": "token1",
          "type": "address"
        },
        {
          "indexed": false,
          "internalType": "uint256",
          "name": "value1",
          "type": "uint256"
        },
        {
          "indexed": false,
          "internalType": "uint256",
          "name": "fees1",
          "type": "uint256"
        }
      ],
      "name": "Deposited",
      "type": "event"
    },
    {
      "anonymous": false,
      "inputs": [
        {
          "indexed": true,
          "internalType": "address",
          "name": "token",
          "type": "address"
        },
        {
          "indexed": true,
          "internalType": "address",
          "name": "from",
          "type": "address"
        },
        {
          "indexed": true,
          "internalType": "address",
          "name": "to",
          "type": "address"
        },
        {
          "indexed": false,
          "internalType": "bytes32",
          "name": "id",
          "type": "bytes32"
        },
        {
          "indexed": false,
          "internalType": "uint256",
          "name": "value",
          "type": "uint256"
        }
      ],
      "name": "ERC20Collected",
      "type": "event"
    },
    {
      "anonymous": false,
      "inputs": [
        {
          "indexed": true,
          "internalType": "address",
          "name": "token",
          "type": "address"
        },
        {
          "indexed": true,
          "internalType": "address",
          "name": "from",
          "type": "address"
        },
        {
          "indexed": true,
          "internalType": "address",
          "name": "to",
          "type": "address"
        },
        {
          "indexed": false,
          "internalType": "uint256",
          "name": "value",
          "type": "uint256"
        },
        {
          "indexed": false,
          "internalType": "uint256",
          "name": "fees",
          "type": "uint256"
        },
        {
          "indexed": false,
          "internalType": "bytes32",
          "name": "secretHash",
          "type": "bytes32"
        }
      ],
      "name": "ERC20Deposited",
      "type": "event"
    },
    {
      "anonymous": false,
      "inputs": [
        {
          "indexed": true,
          "internalType": "address",
          "name": "token",
          "type": "address"
        },
        {
          "indexed": true,
          "internalType": "address",
          "name": "from",
          "type": "address"
        },
        {
          "indexed": true,
          "internalType": "address",
          "name": "to",
          "type": "address"
        },
        {
          "indexed": false,
          "internalType": "bytes32",
          "name": "id",
          "type": "bytes32"
        },
        {
          "indexed": false,
          "internalType": "uint256",
          "name": "value",
          "type": "uint256"
        }
      ],
      "name": "ERC20Retrieved",
      "type": "event"
    },
    {
      "anonymous": false,
      "inputs": [
        {
          "indexed": true,
          "internalType": "address",
          "name": "token",
          "type": "address"
        },
        {
          "indexed": true,
          "internalType": "address",
          "name": "from",
          "type": "address"
        },
        {
          "indexed": true,
          "internalType": "address",
          "name": "to",
          "type": "address"
        },
        {
          "indexed": false,
          "internalType": "uint256",
          "name": "value",
          "type": "uint256"
        },
        {
          "indexed": false,
          "internalType": "uint256",
          "name": "fees",
          "type": "uint256"
        },
        {
          "indexed": false,
          "internalType": "bytes32",
          "name": "secretHash",
          "type": "bytes32"
        },
        {
          "indexed": false,
          "internalType": "uint64",
          "name": "availableAt",
          "type": "uint64"
        },
        {
          "indexed": false,
          "internalType": "uint64",
          "name": "expiresAt",
          "type": "uint64"
        },
        {
          "indexed": false,
          "internalType": "uint128",
          "name": "autoRetrieveFees",
          "type": "uint128"
        }
      ],
      "name": "ERC20TimedDeposited",
      "type": "event"
    },
    {
      "anonymous": false,
      "inputs": [
        {
          "indexed": true,
          "internalType": "address",
          "name": "from",
          "type": "address"
        },
        {
          "indexed": true,
          "internalType": "address",
          "name": "to",
          "type": "address"
        },
        {
          "indexed": true,
          "internalType": "address",
          "name": "token0",
          "type": "address"
        },
        {
          "indexed": false,
          "internalType": "uint256",
          "name": "value0",
          "type": "uint256"
        },
        {
          "indexed": false,
          "internalType": "uint256",
          "name": "fees0",
          "type": "uint256"
        },
        {
          "indexed": false,
          "internalType": "address",
          "name": "token1",
          "type": "address"
        },
        {
          "indexed": false,
          "internalType": "uint256",
          "name": "value1",
          "type": "uint256"
        },
        {
          "indexed": false,
          "internalType": "uint256",
          "name": "fees1",
          "type": "uint256"
        },
        {
          "indexed": false,
          "internalType": "bytes32",
          "name": "secretHash",
          "type": "bytes32"
        }
      ],
      "name": "ERC721Deposited",
      "type": "event"
    },
    {
      "anonymous": false,
      "inputs": [
        {
          "indexed": true,
          "internalType": "address",
          "name": "token",
          "type": "address"
        },
        {
          "indexed": true,
          "internalType": "address",
          "name": "from",
          "type": "address"
        },
        {
          "indexed": true,
          "internalType": "address",
          "name": "to",
          "type": "address"
        },
        {
          "indexed": false,
          "internalType": "bytes32",
          "name": "id",
          "type": "bytes32"
        },
        {
          "indexed": false,
          "internalType": "uint256",
          "name": "tokenId",
          "type": "uint256"
        }
      ],
      "name": "ERC721Retrieved",
      "type": "event"
    },
    {
      "anonymous": false,
      "inputs": [
        {
          "indexed": true,
          "internalType": "address",
          "name": "from",
          "type": "address"
        },
        {
          "indexed": true,
          "internalType": "address",
          "name": "to",
          "type": "address"
        },
        {
          "indexed": true,
          "internalType": "address",
          "name": "token0",
          "type": "address"
        },
        {
          "indexed": false,
          "internalType": "uint256",
          "name": "value0",
          "type": "uint256"
        },
        {
          "indexed": false,
          "internalType": "address",
          "name": "token1",
          "type": "address"
        },
        {
          "indexed": false,
          "internalType": "uint256",
          "name": "value1",
          "type": "uint256"
        },
        {
          "indexed": false,
          "internalType": "bytes32",
          "name": "id",
          "type": "bytes32"
        }
      ],
      "name": "ERC721Swapped",
      "type": "event"
    },
    {
      "anonymous": false,
      "inputs": [
        {
          "indexed": true,
          "internalType": "address",
          "name": "token",
          "type": "address"
        },
        {
          "indexed": true,
          "internalType": "address",
          "name": "from",
          "type": "address"
        },
        {
          "indexed": true,
          "internalType": "address",
          "name": "to",
          "type": "address"
        },
        {
          "indexed": false,
          "internalType": "uint256",
          "name": "tokenId",
          "type": "uint256"
        },
        {
          "indexed": false,
          "internalType": "uint256",
          "name": "fees",
          "type": "uint256"
        },
        {
          "indexed": false,
          "internalType": "bytes32",
          "name": "secretHash",
          "type": "bytes32"
        },
        {
          "indexed": false,
          "internalType": "uint64",
          "name": "availableAt",
          "type": "uint64"
        },
        {
          "indexed": false,
          "internalType": "uint64",
          "name": "expiresAt",
          "type": "uint64"
        },
        {
          "indexed": false,
          "internalType": "uint128",
          "name": "autoRetrieveFees",
          "type": "uint128"
        }
      ],
      "name": "ERC721TimedDeposited",
      "type": "event"
    },
    {
      "anonymous": false,
      "inputs": [
        {
          "indexed": true,
          "internalType": "address",
          "name": "from",
          "type": "address"
        },
        {
          "indexed": true,
          "internalType": "address",
          "name": "to",
          "type": "address"
        },
        {
          "indexed": true,
          "internalType": "bytes32",
          "name": "id1",
          "type": "bytes32"
        },
        {
          "indexed": false,
          "internalType": "uint256",
          "name": "value",
          "type": "uint256"
        }
      ],
      "name": "HCollected",
      "type": "event"
    },
    {
      "anonymous": false,
      "inputs": [
        {
          "indexed": true,
          "internalType": "address",
          "name": "from",
          "type": "address"
        },
        {
          "indexed": false,
          "internalType": "uint256",
          "name": "value",
          "type": "uint256"
        },
        {
          "indexed": true,
          "internalType": "bytes32",
          "name": "id1",
          "type": "bytes32"
        }
      ],
      "name": "HDeposited",
      "type": "event"
    },
    {
      "anonymous": false,
      "inputs": [
        {
          "indexed": true,
          "internalType": "address",
          "name": "token",
          "type": "address"
        },
        {
          "indexed": true,
          "internalType": "address",
          "name": "from",
          "type": "address"
        },
        {
          "indexed": true,
          "internalType": "address",
          "name": "to",
          "type": "address"
        },
        {
          "indexed": false,
          "internalType": "bytes32",
          "name": "id1",
          "type": "bytes32"
        },
        {
          "indexed": false,
          "internalType": "uint256",
          "name": "value",
          "type": "uint256"
        }
      ],
      "name": "HERC20Collected",
      "type": "event"
    },
    {
      "anonymous": false,
      "inputs": [
        {
          "indexed": true,
          "internalType": "address",
          "name": "token",
          "type": "address"
        },
        {
          "indexed": true,
          "internalType": "address",
          "name": "from",
          "type": "address"
        },
        {
          "indexed": true,
          "internalType": "address",
          "name": "to",
          "type": "address"
        },
        {
          "indexed": false,
          "internalType": "bytes32",
          "name": "id1",
          "type": "bytes32"
        },
        {
          "indexed": false,
          "internalType": "uint256",
          "name": "tokenId",
          "type": "uint256"
        }
      ],
      "name": "HERC721Collected",
      "type": "event"
    },
    {
      "anonymous": false,
      "inputs": [
        {
          "indexed": true,
          "internalType": "address",
          "name": "from",
          "type": "address"
        },
        {
          "indexed": true,
          "internalType": "bytes32",
          "name": "id1",
          "type": "bytes32"
        },
        {
          "indexed": false,
          "internalType": "uint256",
          "name": "value",
          "type": "uint256"
        }
      ],
      "name": "HRetrieved",
      "type": "event"
    },
    {
      "anonymous": false,
      "inputs": [
        {
          "indexed": true,
          "internalType": "address",
          "name": "from",
          "type": "address"
        },
        {
          "indexed": false,
          "internalType": "uint256",
          "name": "value",
          "type": "uint256"
        },
        {
          "indexed": true,
          "internalType": "bytes32",
          "name": "id1",
          "type": "bytes32"
        },
        {
          "indexed": false,
          "internalType": "uint64",
          "name": "availableAt",
          "type": "uint64"
        },
        {
          "indexed": false,
          "internalType": "uint64",
          "name": "expiresAt",
          "type": "uint64"
        },
        {
          "indexed": false,
          "internalType": "uint128",
          "name": "autoRetrieveFees",
          "type": "uint128"
        }
      ],
      "name": "HTimedDeposited",
      "type": "event"
    },
    {
      "anonymous": false,
      "inputs": [
        {
          "indexed": true,
          "internalType": "address",
          "name": "from",
          "type": "address"
        },
        {
          "indexed": true,
          "internalType": "address",
          "name": "to",
          "type": "address"
        },
        {
          "indexed": true,
          "internalType": "bytes32",
          "name": "id",
          "type": "bytes32"
        },
        {
          "indexed": false,
          "internalType": "uint256",
          "name": "value",
          "type": "uint256"
        }
      ],
      "name": "Rejected",
      "type": "event"
    },
    {
      "anonymous": false,
      "inputs": [
        {
          "indexed": true,
          "internalType": "address",
          "name": "from",
          "type": "address"
        },
        {
          "indexed": true,
          "internalType": "address",
          "name": "to",
          "type": "address"
        },
        {
          "indexed": true,
          "internalType": "bytes32",
          "name": "id",
          "type": "bytes32"
        },
        {
          "indexed": false,
          "internalType": "uint256",
          "name": "value",
          "type": "uint256"
        }
      ],
      "name": "Retrieved",
      "type": "event"
    },
    {
      "anonymous": false,
      "inputs": [
        {
          "indexed": true,
          "internalType": "bytes32",
          "name": "role",
          "type": "bytes32"
        },
        {
          "indexed": true,
          "internalType": "bytes32",
          "name": "previousAdminRole",
          "type": "bytes32"
        },
        {
          "indexed": true,
          "internalType": "bytes32",
          "name": "newAdminRole",
          "type": "bytes32"
        }
      ],
      "name": "RoleAdminChanged",
      "type": "event"
    },
    {
      "anonymous": false,
      "inputs": [
        {
          "indexed": true,
          "internalType": "bytes32",
          "name": "role",
          "type": "bytes32"
        },
        {
          "indexed": true,
          "internalType": "address",
          "name": "account",
          "type": "address"
        },
        {
          "indexed": true,
          "internalType": "address",
          "name": "sender",
          "type": "address"
        }
      ],
      "name": "RoleGranted",
      "type": "event"
    },
    {
      "anonymous": false,
      "inputs": [
        {
          "indexed": true,
          "internalType": "bytes32",
          "name": "role",
          "type": "bytes32"
        },
        {
          "indexed": true,
          "internalType": "address",
          "name": "account",
          "type": "address"
        },
        {
          "indexed": true,
          "internalType": "address",
          "name": "sender",
          "type": "address"
        }
      ],
      "name": "RoleRevoked",
      "type": "event"
    },
    {
      "anonymous": false,
      "inputs": [
        {
          "indexed": true,
          "internalType": "address",
          "name": "from",
          "type": "address"
        },
        {
          "indexed": true,
          "internalType": "address",
          "name": "to",
          "type": "address"
        },
        {
          "indexed": true,
          "internalType": "bytes32",
          "name": "id",
          "type": "bytes32"
        },
        {
          "indexed": false,
          "internalType": "uint256",
          "name": "value0",
          "type": "uint256"
        },
        {
          "indexed": false,
          "internalType": "uint256",
          "name": "value1",
          "type": "uint256"
        }
      ],
      "name": "Swapped",
      "type": "event"
    },
    {
      "anonymous": false,
      "inputs": [
        {
          "indexed": true,
          "internalType": "address",
          "name": "from",
          "type": "address"
        },
        {
          "indexed": true,
          "internalType": "address",
          "name": "to",
          "type": "address"
        },
        {
          "indexed": true,
          "internalType": "address",
          "name": "token0",
          "type": "address"
        },
        {
          "indexed": false,
          "internalType": "uint256",
          "name": "value0",
          "type": "uint256"
        },
        {
          "indexed": false,
          "internalType": "uint256",
          "name": "fees0",
          "type": "uint256"
        },
        {
          "indexed": false,
          "internalType": "bytes32",
          "name": "secretHash0",
          "type": "bytes32"
        },
        {
          "indexed": false,
          "internalType": "address",
          "name": "token1",
          "type": "address"
        },
        {
          "indexed": false,
          "internalType": "uint256",
          "name": "value1",
          "type": "uint256"
        },
        {
          "indexed": false,
          "internalType": "uint256",
          "name": "fees1",
          "type": "uint256"
        },
        {
          "indexed": false,
          "internalType": "uint64",
          "name": "availableAt",
          "type": "uint64"
        },
        {
          "indexed": false,
          "internalType": "uint64",
          "name": "expiresAt",
          "type": "uint64"
        },
        {
          "indexed": false,
          "internalType": "uint128",
          "name": "autoRetrieveFees",
          "type": "uint128"
        }
      ],
      "name": "TimedDeposited",
      "type": "event"
    },
    {
      "inputs": [],
      "name": "ACTIVATOR_ROLE",
      "outputs": [
        {
          "internalType": "bytes32",
          "name": "",
          "type": "bytes32"
        }
      ],
      "stateMutability": "view",
      "type": "function"
    },
    {
      "inputs": [],
      "name": "CHAIN_ID",
      "outputs": [
        {
          "internalType": "uint256",
          "name": "",
          "type": "uint256"
        }
      ],
      "stateMutability": "view",
      "type": "function"
    },
    {
      "inputs": [],
      "name": "DEFAULT_ADMIN_ROLE",
      "outputs": [
        {
          "internalType": "bytes32",
          "name": "",
          "type": "bytes32"
        }
      ],
      "stateMutability": "view",
      "type": "function"
    },
    {
      "inputs": [],
      "name": "DOMAIN_SEPARATOR",
      "outputs": [
        {
          "internalType": "bytes32",
          "name": "",
          "type": "bytes32"
        }
      ],
      "stateMutability": "view",
      "type": "function"
    },
    {
      "inputs": [],
      "name": "HIDDEN_COLLECT_TYPEHASH",
      "outputs": [
        {
          "internalType": "bytes32",
          "name": "",
          "type": "bytes32"
        }
      ],
      "stateMutability": "view",
      "type": "function"
    },
    {
      "inputs": [],
      "name": "HIDDEN_ERC20_COLLECT_TYPEHASH",
      "outputs": [
        {
          "internalType": "bytes32",
          "name": "",
          "type": "bytes32"
        }
      ],
      "stateMutability": "view",
      "type": "function"
    },
    {
      "inputs": [],
      "name": "HIDDEN_ERC721_COLLECT_TYPEHASH",
      "outputs": [
        {
          "internalType": "bytes32",
          "name": "",
          "type": "bytes32"
        }
      ],
      "stateMutability": "view",
      "type": "function"
    },
    {
      "inputs": [],
      "name": "NAME",
      "outputs": [
        {
          "internalType": "string",
          "name": "",
          "type": "string"
        }
      ],
      "stateMutability": "view",
      "type": "function"
    },
    {
      "inputs": [],
      "name": "VERSION",
      "outputs": [
        {
          "internalType": "string",
          "name": "",
          "type": "string"
        }
      ],
      "stateMutability": "view",
      "type": "function"
    },
    {
      "inputs": [],
      "name": "VERSION_NUMBER",
      "outputs": [
        {
          "internalType": "uint8",
          "name": "",
          "type": "uint8"
        }
      ],
      "stateMutability": "view",
      "type": "function"
    },
    {
      "inputs": [
        {
          "internalType": "bytes32",
          "name": "role",
          "type": "bytes32"
        }
      ],
      "name": "getRoleAdmin",
      "outputs": [
        {
          "internalType": "bytes32",
          "name": "",
          "type": "bytes32"
        }
      ],
      "stateMutability": "view",
      "type": "function"
    },
    {
      "inputs": [
        {
          "internalType": "bytes32",
          "name": "role",
          "type": "bytes32"
        },
        {
          "internalType": "uint256",
          "name": "index",
          "type": "uint256"
        }
      ],
      "name": "getRoleMember",
      "outputs": [
        {
          "internalType": "address",
          "name": "",
          "type": "address"
        }
      ],
      "stateMutability": "view",
      "type": "function"
    },
    {
      "inputs": [
        {
          "internalType": "bytes32",
          "name": "role",
          "type": "bytes32"
        }
      ],
      "name": "getRoleMemberCount",
      "outputs": [
        {
          "internalType": "uint256",
          "name": "",
          "type": "uint256"
        }
      ],
      "stateMutability": "view",
      "type": "function"
    },
    {
      "inputs": [
        {
          "internalType": "bytes32",
          "name": "role",
          "type": "bytes32"
        },
        {
          "internalType": "address",
          "name": "account",
          "type": "address"
        }
      ],
      "name": "grantRole",
      "outputs": [],
      "stateMutability": "nonpayable",
      "type": "function"
    },
    {
      "inputs": [
        {
          "internalType": "bytes32",
          "name": "role",
          "type": "bytes32"
        },
        {
          "internalType": "address",
          "name": "account",
          "type": "address"
        }
      ],
      "name": "hasRole",
      "outputs": [
        {
          "internalType": "bool",
          "name": "",
          "type": "bool"
        }
      ],
      "stateMutability": "view",
      "type": "function"
    },
    {
      "inputs": [
        {
          "internalType": "bytes32",
          "name": "role",
          "type": "bytes32"
        },
        {
          "internalType": "address",
          "name": "account",
          "type": "address"
        }
      ],
      "name": "renounceRole",
      "outputs": [],
      "stateMutability": "nonpayable",
      "type": "function"
    },
    {
      "inputs": [
        {
          "internalType": "bytes32",
          "name": "role",
          "type": "bytes32"
        },
        {
          "internalType": "address",
          "name": "account",
          "type": "address"
        }
      ],
      "name": "revokeRole",
      "outputs": [],
      "stateMutability": "nonpayable",
      "type": "function"
    },
    {
      "stateMutability": "payable",
      "type": "receive"
    },
    {
      "inputs": [
        {
          "internalType": "address",
          "name": "token",
          "type": "address"
        },
        {
          "internalType": "address",
          "name": "wallet",
          "type": "address"
        },
        {
          "internalType": "uint256",
          "name": "value",
          "type": "uint256"
        }
      ],
      "name": "transferERC20",
      "outputs": [],
      "stateMutability": "nonpayable",
      "type": "function"
    },
    {
      "inputs": [
        {
          "internalType": "address",
          "name": "token",
          "type": "address"
        },
        {
          "internalType": "address",
          "name": "wallet",
          "type": "address"
        },
        {
          "internalType": "uint256",
          "name": "tokenId",
          "type": "uint256"
        },
        {
          "internalType": "bytes",
          "name": "data",
          "type": "bytes"
        }
      ],
      "name": "transferERC721",
      "outputs": [],
      "stateMutability": "nonpayable",
      "type": "function"
    },
    {
      "inputs": [
        {
          "internalType": "address payable",
          "name": "wallet",
          "type": "address"
        },
        {
          "internalType": "uint256",
          "name": "value",
          "type": "uint256"
        }
      ],
      "name": "transferFees",
      "outputs": [],
      "stateMutability": "nonpayable",
      "type": "function"
    },
    {
      "inputs": [],
      "name": "totalFees",
      "outputs": [
        {
          "internalType": "uint256",
          "name": "",
          "type": "uint256"
        }
      ],
      "stateMutability": "view",
      "type": "function"
    },
    {
      "inputs": [],
      "name": "uid",
      "outputs": [
        {
          "internalType": "bytes32",
          "name": "",
          "type": "bytes32"
        }
      ],
      "stateMutability": "view",
      "type": "function"
    },
    {
      "inputs": [
        {
          "internalType": "address payable",
          "name": "to",
          "type": "address"
        },
        {
          "internalType": "address",
          "name": "token0",
          "type": "address"
        },
        {
          "internalType": "uint256",
          "name": "value0",
          "type": "uint256"
        },
        {
          "internalType": "uint256",
          "name": "fees0",
          "type": "uint256"
        },
        {
          "internalType": "address",
          "name": "token1",
          "type": "address"
        },
        {
          "internalType": "uint256",
          "name": "value1",
          "type": "uint256"
        },
        {
          "internalType": "uint256",
          "name": "fees1",
          "type": "uint256"
        },
        {
          "internalType": "bytes32",
          "name": "secretHash",
          "type": "bytes32"
        }
      ],
      "name": "deposit",
      "outputs": [],
      "stateMutability": "payable",
      "type": "function"
    },
    {
      "inputs": [
        {
          "internalType": "address payable",
          "name": "to",
          "type": "address"
        },
        {
          "internalType": "address",
          "name": "token0",
          "type": "address"
        },
        {
          "internalType": "uint256",
          "name": "value0",
          "type": "uint256"
        },
        {
          "internalType": "uint256",
          "name": "fees0",
          "type": "uint256"
        },
        {
          "internalType": "address",
          "name": "token1",
          "type": "address"
        },
        {
          "internalType": "uint256",
          "name": "value1",
          "type": "uint256"
        },
        {
          "internalType": "uint256",
          "name": "fees1",
          "type": "uint256"
        },
        {
          "internalType": "bytes32",
          "name": "secretHash",
          "type": "bytes32"
        },
        {
          "internalType": "uint64",
          "name": "availableAt",
          "type": "uint64"
        },
        {
          "internalType": "uint64",
          "name": "expiresAt",
          "type": "uint64"
        },
        {
          "internalType": "uint128",
          "name": "autoRetrieveFees",
          "type": "uint128"
        }
      ],
      "name": "timedDeposit",
      "outputs": [],
      "stateMutability": "payable",
      "type": "function"
    },
    {
      "inputs": [
        {
          "internalType": "address",
          "name": "to",
          "type": "address"
        },
        {
          "internalType": "address",
          "name": "token0",
          "type": "address"
        },
        {
          "internalType": "uint256",
          "name": "value0",
          "type": "uint256"
        },
        {
          "internalType": "uint256",
          "name": "fees0",
          "type": "uint256"
        },
        {
          "internalType": "address",
          "name": "token1",
          "type": "address"
        },
        {
          "internalType": "uint256",
          "name": "value1",
          "type": "uint256"
        },
        {
          "internalType": "uint256",
          "name": "fees1",
          "type": "uint256"
        },
        {
          "internalType": "bytes32",
          "name": "secretHash",
          "type": "bytes32"
        }
      ],
      "name": "retrieve",
      "outputs": [],
      "stateMutability": "nonpayable",
      "type": "function"
    },
    {
      "inputs": [
        {
          "internalType": "address payable",
          "name": "from",
          "type": "address"
        },
        {
          "internalType": "address",
          "name": "token0",
          "type": "address"
        },
        {
          "internalType": "uint256",
          "name": "value0",
          "type": "uint256"
        },
        {
          "internalType": "uint256",
          "name": "fees0",
          "type": "uint256"
        },
        {
          "internalType": "address",
          "name": "token1",
          "type": "address"
        },
        {
          "internalType": "uint256",
          "name": "value1",
          "type": "uint256"
        },
        {
          "internalType": "uint256",
          "name": "fees1",
          "type": "uint256"
        },
        {
          "internalType": "bytes32",
          "name": "secretHash",
          "type": "bytes32"
        }
      ],
      "name": "reject",
      "outputs": [],
      "stateMutability": "nonpayable",
      "type": "function"
    },
    {
      "inputs": [
        {
          "internalType": "address payable",
          "name": "from",
          "type": "address"
        },
        {
          "internalType": "address",
          "name": "token0",
          "type": "address"
        },
        {
          "internalType": "uint256",
          "name": "value0",
          "type": "uint256"
        },
        {
          "internalType": "uint256",
          "name": "fees0",
          "type": "uint256"
        },
        {
          "internalType": "address",
          "name": "token1",
          "type": "address"
        },
        {
          "internalType": "uint256",
          "name": "value1",
          "type": "uint256"
        },
        {
          "internalType": "uint256",
          "name": "fees1",
          "type": "uint256"
        },
        {
          "internalType": "bytes32",
          "name": "secretHash",
          "type": "bytes32"
        },
        {
          "internalType": "bytes",
          "name": "secret",
          "type": "bytes"
        }
      ],
      "name": "swap",
      "outputs": [],
      "stateMutability": "payable",
      "type": "function"
    },
    {
      "inputs": [
        {
          "internalType": "address payable",
          "name": "to",
          "type": "address"
        },
        {
          "internalType": "address",
          "name": "token0",
          "type": "address"
        },
        {
          "internalType": "uint256",
          "name": "value0",
          "type": "uint256"
        },
        {
          "internalType": "bytes",
          "name": "tokenData0",
          "type": "bytes"
        },
        {
          "internalType": "uint256",
          "name": "fees0",
          "type": "uint256"
        },
        {
          "internalType": "address",
          "name": "token1",
          "type": "address"
        },
        {
          "internalType": "uint256",
          "name": "value1",
          "type": "uint256"
        },
        {
          "internalType": "bytes",
          "name": "tokenData1",
          "type": "bytes"
        },
        {
          "internalType": "uint256",
          "name": "fees1",
          "type": "uint256"
        },
        {
          "internalType": "bytes32",
          "name": "secretHash",
          "type": "bytes32"
        }
      ],
      "name": "depositERC721",
      "outputs": [],
      "stateMutability": "payable",
      "type": "function"
    },
    {
      "inputs": [
        {
          "components": [
            {
              "internalType": "address payable",
              "name": "from",
              "type": "address"
            },
            {
              "internalType": "address",
              "name": "token0",
              "type": "address"
            },
            {
              "internalType": "uint256",
              "name": "value0",
              "type": "uint256"
            },
            {
              "internalType": "bytes",
              "name": "tokenData0",
              "type": "bytes"
            },
            {
              "internalType": "uint256",
              "name": "fees0",
              "type": "uint256"
            },
            {
              "internalType": "address",
              "name": "token1",
              "type": "address"
            },
            {
              "internalType": "uint256",
              "name": "value1",
              "type": "uint256"
            },
            {
              "internalType": "bytes",
              "name": "tokenData1",
              "type": "bytes"
            },
            {
              "internalType": "uint256",
              "name": "fees1",
              "type": "uint256"
            },
            {
              "internalType": "bytes32",
              "name": "secretHash",
              "type": "bytes32"
            },
            {
              "internalType": "bytes",
              "name": "secret",
              "type": "bytes"
            }
          ],
          "internalType": "struct SafeSwap.SwapErc721Struct",
          "name": "inputs",
          "type": "tuple"
        }
      ],
      "name": "swapERC721",
      "outputs": [],
      "stateMutability": "payable",
      "type": "function"
    },
    {
      "inputs": [
        {
          "internalType": "address",
          "name": "to",
          "type": "address"
        },
        {
          "internalType": "address",
          "name": "token0",
          "type": "address"
        },
        {
          "internalType": "uint256",
          "name": "value0",
          "type": "uint256"
        },
        {
          "internalType": "bytes",
          "name": "tokenData0",
          "type": "bytes"
        },
        {
          "internalType": "uint256",
          "name": "fees0",
          "type": "uint256"
        },
        {
          "internalType": "address",
          "name": "token1",
          "type": "address"
        },
        {
          "internalType": "uint256",
          "name": "value1",
          "type": "uint256"
        },
        {
          "internalType": "bytes",
          "name": "tokenData1",
          "type": "bytes"
        },
        {
          "internalType": "uint256",
          "name": "fees1",
          "type": "uint256"
        },
        {
          "internalType": "bytes32",
          "name": "secretHash",
          "type": "bytes32"
        }
      ],
      "name": "retrieveERC721",
      "outputs": [],
      "stateMutability": "nonpayable",
      "type": "function"
    }
  ],
  "bytecode": "0x60806040523480156200001157600080fd5b5060405162002fe638038062002fe683398101604081905262000034916200029e565b6001600455620000466000336200018a565b6200006160008051602062002fc6833981519152336200018a565b6200007c60008051602062002fc6833981519152826200018a565b466002819055600160b01b600160f01b0360001943014060b01b1630908117600160f81b176003819055604080518082018252601481527f4b69726f626f2053616665205472616e736665720000000000000000000000006020918201528151808301835260018152603160f81b90820152905162000166937fd87cd6ef79d4e2b95e15ce8abf732db51ec771f1ca2edccf22a46c729ac56472937fa0e7867c78e9ee05b975f886625b0f857545d287fd4041f342f5f7398f7cf444937fc89efdaa54c0f20c7adf612882df0950f5a951637e0307cdcb4c672f298b8bc6938893929101620002ce565b604051602081830303815290604052805190602001206001819055505050620002ff565b6200019682826200019a565b5050565b600082815260208181526040909120620001bf9183906200172b62000213821b17901c565b156200019657620001cf62000233565b6001600160a01b0316816001600160a01b0316837f2f8788117e7eff1d82e926ec794901d17c78024a50270940304540a733656f0d60405160405180910390a45050565b60006200022a836001600160a01b03841662000237565b90505b92915050565b3390565b600062000245838362000286565b6200027d575081546001818101845560008481526020808220909301849055845484825282860190935260409020919091556200022d565b5060006200022d565b60009081526001919091016020526040902054151590565b600060208284031215620002b0578081fd5b81516001600160a01b0381168114620002c7578182fd5b9392505050565b9586526020860194909452604085019290925260608401526001600160a01b0316608083015260a082015260c00190565b612cb7806200030f6000396000f3fe6080604052600436106101d05760003560e01c80638025e303116100f7578063a3f4df7e11610095578063d547741f11610064578063d547741f146104d8578063e49a12dc146104f8578063f514ce3614610518578063ffa1ad741461052d576101f8565b8063a3f4df7e1461046e578063b1538f9214610490578063c42f7d1b146104a5578063ca15c873146104b8576101f8565b8063919b2053116100d1578063919b2053146103ec57806391d148541461040c5780639db5dbe414610439578063a217fddf14610459576101f8565b80638025e3031461038857806385e1f4d0146103aa5780639010d07c146103bf576101f8565b80633162ee741161016f57806349534c321161013e57806349534c32146103155780634d6df9fc1461033557806363eed7d0146103555780637abd1eb214610375576101f8565b80633162ee74146102b8578063359f54e4146102cb5780633644e515146102e057806336568abe146102f5576101f8565b806313114a9d116101ab57806313114a9d1461024e578063248a9ca3146102635780632b78bd53146102835780632f2ff15d14610298576101f8565b8062a315ce146101fd57806308740a3b146102105780630eeecfd51461023b576101f8565b366101f85760405162461bcd60e51b81526004016101ed906129f1565b60405180910390fd5b005b600080fd5b6101f661020b366004611e9d565b610542565b34801561021c57600080fd5b506102256107b8565b60405161023291906125d1565b60405180910390f35b6101f6610249366004611f4a565b6107ca565b34801561025a57600080fd5b506102256109dd565b34801561026f57600080fd5b5061022561027e3660046121c4565b6109e3565b34801561028f57600080fd5b506102256109f8565b3480156102a457600080fd5b506101f66102b33660046121dc565b610a1c565b6101f66102c6366004611d4b565b610a64565b3480156102d757600080fd5b50610225610ca4565b3480156102ec57600080fd5b50610225610cc8565b34801561030157600080fd5b506101f66103103660046121dc565b610cce565b34801561032157600080fd5b506101f66103303660046120e4565b610d10565b34801561034157600080fd5b506101f6610350366004612188565b610e3c565b34801561036157600080fd5b506101f6610370366004612074565b610f5c565b6101f6610383366004611e26565b610ffd565b34801561039457600080fd5b5061039d611191565b6040516102329190612be9565b3480156103b657600080fd5b50610225611196565b3480156103cb57600080fd5b506103df6103da36600461220b565b61119c565b60405161023291906123d0565b3480156103f857600080fd5b506101f6610407366004611e26565b6111bd565b34801561041857600080fd5b5061042c6104273660046121dc565b6112d2565b60405161023291906125c6565b34801561044557600080fd5b506101f6610454366004612034565b6112ea565b34801561046557600080fd5b50610225611337565b34801561047a57600080fd5b5061048361133c565b60405161023291906125da565b34801561049c57600080fd5b5061022561136c565b6101f66104b336600461222c565b611390565b3480156104c457600080fd5b506102256104d33660046121c4565b61163d565b3480156104e457600080fd5b506101f66104f33660046121dc565b611654565b34801561050457600080fd5b506101f6610513366004612009565b61168e565b34801561052457600080fd5b50610225611708565b34801561053957600080fd5b5061048361170e565b60008a338b8b8b8b8b8b8b604051602001610565999897969594939291906124f5565b60408051601f19818403018152918152815160209283012060008181526005909352912054909150806105aa5760405162461bcd60e51b81526004016101ed90612a3b565b42816001600160401b0316116105d25760405162461bcd60e51b81526004016101ed90612760565b42604082901c6001600160401b031611156105ff5760405162461bcd60e51b81526004016101ed906127db565b8484846040516106109291906123a4565b6040518091039020146106355760405162461bcd60e51b81526004016101ed9061289b565b60008281526005602052604081205560045461065d908790610657908c611740565b90611740565b6004556001600160a01b038b166106a15760405133908b156108fc02908c906000818181858888f1935050505015801561069b573d6000803e3d6000fd5b506106b6565b6106b66001600160a01b038c168d338d611765565b6001600160a01b038816610728576106ce8787611740565b34146106ec5760405162461bcd60e51b81526004016101ed90612939565b6040516001600160a01b038d169088156108fc029089906000818181858888f19350505050158015610722573d6000803e3d6000fd5b5061075c565b8534146107475760405162461bcd60e51b81526004016101ed90612939565b61075c6001600160a01b038916338e8a611765565b81336001600160a01b03168d6001600160a01b03167ff96971baae8347160d657c72ec65a0c4d143cd8fe1bb119339d2fbe2d2961be68d8b6040516107a2929190612b1c565b60405180910390a4505050505050505050505050565b600080516020612c6283398151915281565b866001600160a01b03168a6001600160a01b031614156107fc5760405162461bcd60e51b81526004016101ed90612857565b806001600160801b03168810156108255760405162461bcd60e51b81526004016101ed906126b5565b6001600160a01b038b1633141561084e5760405162461bcd60e51b81526004016101ed90612a72565b42826001600160401b0316116108765760405162461bcd60e51b81526004016101ed906126fa565b6001600160a01b038a166108b15761088e8989611740565b34146108ac5760405162461bcd60e51b81526004016101ed90612939565b6108d0565b8734146108d05760405162461bcd60e51b81526004016101ed90612939565b6000338c8c8c8c8c8c8c8c6040516020016108f3999897969594939291906124f5565b60408051601f19818403018152918152815160209283012060008181526005909352912054909150156109385760405162461bcd60e51b81526004016101ed90612902565b6080826001600160801b0316901b6040856001600160401b0316901b6001600160401b0316846001600160401b0316010160056000838152602001908152602001600020819055508a6001600160a01b03168c6001600160a01b0316336001600160a01b03167f76d3b065fc0cd4cd7026df01d42b7b5a32f88123a151cd3e97cdf9b9971eea2f8d8d8a8e8e8e8d8d8d6040516107a299989796959493929190612b8c565b60045490565b60009081526020819052604090206002015490565b7f0506afef36f3613836f98ef019cb76a3e6112be8f9dc8d8fa77275d64f41823481565b600082815260208190526040902060020154610a3a906104276117c3565b610a565760405162461bcd60e51b81526004016101ed9061262f565b610a6082826117c7565b5050565b6001600160a01b038b16610af157856001600160a01b03168b6001600160a01b03161415610aa45760405162461bcd60e51b81526004016101ed90612812565b610aae8a88611740565b3414610acc5760405162461bcd60e51b81526004016101ed90612939565b60008511610aec5760405162461bcd60e51b81526004016101ed90612731565b610b7e565b6001600160a01b038616610b3e57863414610b1e5760405162461bcd60e51b81526004016101ed90612939565b60008a11610aec5760405162461bcd60e51b81526004016101ed90612731565b60008a11610b5e5760405162461bcd60e51b81526004016101ed90612731565b60008511610b7e5760405162461bcd60e51b81526004016101ed90612731565b6001600160a01b038c16331415610ba75760405162461bcd60e51b81526004016101ed90612a72565b6000338d8d8d8d8d8d8d8d8d8d8d8d604051602001610bd29d9c9b9a999897969594939291906123e4565b60408051601f1981840301815291815281516020928301206000818152600590935291205490915015610c175760405162461bcd60e51b81526004016101ed90612902565b6001600160401b0360056000838152602001908152602001600020819055508b6001600160a01b03168d6001600160a01b0316336001600160a01b03167f4fe6029817c908cf67ab0d54eff85433a6e56872386542d067e4a3a940b832898e8c8c8c8a8a604051610c8d96959493929190612b2a565b60405180910390a450505050505050505050505050565b7f9e6214229b9fba1927010d30b22a3a5d9fd5e856bb29f056416ff2ad52e8de4481565b60015481565b610cd66117c3565b6001600160a01b0316816001600160a01b031614610d065760405162461bcd60e51b81526004016101ed90612aa9565b610a608282611830565b6000338d8d8d8d8d8d8d8d8d8d8d8d604051602001610d3b9d9c9b9a999897969594939291906123e4565b60408051601f19818403018152918152815160209283012060008181526005909352912054909150610d7f5760405162461bcd60e51b81526004016101ed90612a3b565b60008181526005602052604081208190556001600160a01b038d16610daf57610da88c8a611740565b9050610db2565b50875b604051339082156108fc029083906000818181858888f19350505050158015610ddf573d6000803e3d6000fd5b50818e6001600160a01b0316336001600160a01b03167f2c0f05de664e2354e281c7c55d07fe10e18c61d9b196dbcd318285801b36cde484604051610e2491906125d1565b60405180910390a45050505050505050505050505050565b6000338989898989898989604051602001610e5f999897969594939291906124f5565b60408051601f19818403018152918152815160209283012060008181526005909352912054909150610ea35760405162461bcd60e51b81526004016101ed90612a3b565b60008181526005602052604081208190556001600160a01b038916610ed357610ecc8888611740565b9050610ed6565b50855b604051339082156108fc029083906000818181858888f19350505050158015610f03573d6000803e3d6000fd5b50818a6001600160a01b0316336001600160a01b03167f2c0f05de664e2354e281c7c55d07fe10e18c61d9b196dbcd318285801b36cde484604051610f4891906125d1565b60405180910390a450505050505050505050565b610f74600080516020612c62833981519152336112d2565b610f905760405162461bcd60e51b81526004016101ed90612970565b604051635c46a7ef60e11b81526001600160a01b0386169063b88d4fde90610fc4903090889088908890889060040161254a565b600060405180830381600087803b158015610fde57600080fd5b505af1158015610ff2573d6000803e3d6000fd5b505050505050505050565b836001600160a01b0316876001600160a01b0316141561102f5760405162461bcd60e51b81526004016101ed90612857565b6001600160a01b03871661106a576110478686611740565b34146110655760405162461bcd60e51b81526004016101ed90612939565b611089565b8434146110895760405162461bcd60e51b81526004016101ed90612939565b6001600160a01b0388163314156110b25760405162461bcd60e51b81526004016101ed90612a72565b60003389898989898989896040516020016110d5999897969594939291906124f5565b60408051601f198184030181529181528151602092830120600081815260059093529120549091501561111a5760405162461bcd60e51b81526004016101ed90612902565b600081815260056020526040908190206001600160401b039055516001600160a01b03808a1691908b169033907fcf861ad317d6825a03088ab97ce0f17de9171eadcb13e837bd69abe2bc04f51d9061117e908c908c9089908d908d908d90612b5b565b60405180910390a4505050505050505050565b600181565b60025481565b60008281526020819052604081206111b49083611899565b90505b92915050565b60008833898989898989896040516020016111e0999897969594939291906124f5565b60408051601f198184030181529181528151602092830120600081815260059093529120549091506112245760405162461bcd60e51b81526004016101ed90612a3b565b60008181526005602052604081208190556001600160a01b0389166112545761124d8888611740565b9050611257565b50855b6040516001600160a01b038b169082156108fc029083906000818181858888f1935050505015801561128d573d6000803e3d6000fd5b5081336001600160a01b03168b6001600160a01b03167fefbbdfa65b10559745d8f17004e3019b48de4e9e559ff1e8f58c42e559093a6f84604051610f4891906125d1565b60008281526020819052604081206111b490836118a5565b611302600080516020612c62833981519152336112d2565b61131e5760405162461bcd60e51b81526004016101ed90612970565b6113326001600160a01b03841683836118ba565b505050565b600081565b6040518060400160405280601481526020017325b4b937b1379029b0b332902a3930b739b332b960611b81525081565b7fa14a2dc51c26e451800897aa798120e7d6c35039caf5eb29b8ac35d1e914c59181565b600081600001513383602001518460400151856060015186608001518760a001518860c001518960e001518a61010001518b61012001516040516020016113e19b9a99989796959493929190612471565b60408051601f19818403018152918152815160209283012060008181526005909352912054909150806114265760405162461bcd60e51b81526004016101ed90612a3b565b42816001600160401b03161161144e5760405162461bcd60e51b81526004016101ed90612760565b42604082901c6001600160401b0316111561147b5760405162461bcd60e51b81526004016101ed906127db565b82610120015183610140015180519060200120146114ab5760405162461bcd60e51b81526004016101ed9061289b565b60008281526005602052604081205561010083015160808401516004546114d792916106579190611740565b60045560208301516001600160a01b031661151e576040808401519051339180156108fc02916000818181858888f1935050505015801561151c573d6000803e3d6000fd5b505b60a08301516001600160a01b03166115a55761010083015160c084015161154491611740565b34146115625760405162461bcd60e51b81526004016101ed90612939565b825160c08401516040516001600160a01b039092169181156108fc0291906000818181858888f1935050505015801561159f573d6000803e3d6000fd5b506115c9565b82610100015134146115c95760405162461bcd60e51b81526004016101ed90612939565b82602001516001600160a01b0316336001600160a01b031684600001516001600160a01b03167fbd1a877c60827e9dae2e4e01d72366cbc3316004064d254c918fbe6112e2fdb586604001518760a001518860c00151886040516116309493929190612af8565b60405180910390a4505050565b60008181526020819052604081206111b7906118d9565b600082815260208190526040902060020154611672906104276117c3565b610d065760405162461bcd60e51b81526004016101ed9061278b565b6116a6600080516020612c62833981519152336112d2565b6116c25760405162461bcd60e51b81526004016101ed90612970565b6004546116cf90826118e4565b6004556040516001600160a01b0383169082156108fc029083906000818181858888f19350505050158015611332573d6000803e3d6000fd5b60035490565b604051806040016040528060018152602001603160f81b81525081565b60006111b4836001600160a01b038416611926565b6000828201838110156111b45760405162461bcd60e51b81526004016101ed9061267e565b6117bd846323b872dd60e01b85858560405160240161178693929190612589565b60408051601f198184030181529190526020810180516001600160e01b03166001600160e01b031990931692909217909152611970565b50505050565b3390565b60008281526020819052604090206117df908261172b565b15610a60576117ec6117c3565b6001600160a01b0316816001600160a01b0316837f2f8788117e7eff1d82e926ec794901d17c78024a50270940304540a733656f0d60405160405180910390a45050565b600082815260208190526040902061184890826119ff565b15610a60576118556117c3565b6001600160a01b0316816001600160a01b0316837ff6391f5c32d9c69d2a47ea670b442974b53935d1edc7fd64eb21e047a839171b60405160405180910390a45050565b60006111b48383611a14565b60006111b4836001600160a01b038416611a59565b6113328363a9059cbb60e01b84846040516024016117869291906125ad565b60006111b782611a71565b60006111b483836040518060400160405280601e81526020017f536166654d6174683a207375627472616374696f6e206f766572666c6f770000815250611a75565b60006119328383611a59565b611968575081546001818101845560008481526020808220909301849055845484825282860190935260409020919091556111b7565b5060006111b7565b60606119c5826040518060400160405280602081526020017f5361666545524332303a206c6f772d6c6576656c2063616c6c206661696c6564815250856001600160a01b0316611aa19092919063ffffffff16565b80519091501561133257808060200190518101906119e391906121a4565b6113325760405162461bcd60e51b81526004016101ed906129a7565b60006111b4836001600160a01b038416611ab8565b81546000908210611a375760405162461bcd60e51b81526004016101ed906125ed565b826000018281548110611a4657fe5b9060005260206000200154905092915050565b60009081526001919091016020526040902054151590565b5490565b60008184841115611a995760405162461bcd60e51b81526004016101ed91906125da565b505050900390565b6060611ab08484600085611b7e565b949350505050565b60008181526001830160205260408120548015611b745783546000198083019190810190600090879083908110611aeb57fe5b9060005260206000200154905080876000018481548110611b0857fe5b600091825260208083209091019290925582815260018981019092526040902090840190558654879080611b3857fe5b600190038181906000526020600020016000905590558660010160008781526020019081526020016000206000905560019450505050506111b7565b60009150506111b7565b6060611b8985611c42565b611ba55760405162461bcd60e51b81526004016101ed906128cb565b60006060866001600160a01b03168587604051611bc291906123b4565b60006040518083038185875af1925050503d8060008114611bff576040519150601f19603f3d011682016040523d82523d6000602084013e611c04565b606091505b50915091508115611c18579150611ab09050565b805115611c285780518082602001fd5b8360405162461bcd60e51b81526004016101ed91906125da565b6000813f7fc5d2460186f7233c927e7db2dcc703c0e500b653ca82273b7bfad8045d85a470818114801590611ab0575050151592915050565b80356111b781612c49565b60008083601f840112611c97578182fd5b5081356001600160401b03811115611cad578182fd5b602083019150836020828501011115611cc557600080fd5b9250929050565b600082601f830112611cdc578081fd5b81356001600160401b03811115611cf1578182fd5b611d04601f8201601f1916602001612bf7565b9150808252836020828501011115611d1b57600080fd5b8060208401602084013760009082016020015292915050565b80356001600160401b03811681146111b757600080fd5b6000806000806000806000806000806000806101408d8f031215611d6d578788fd5b611d778e8e611c7b565b9b50611d868e60208f01611c7b565b9a5060408d013599506001600160401b0360608e01351115611da6578788fd5b611db68e60608f01358f01611c86565b909950975060808d01359650611dcf8e60a08f01611c7b565b955060c08d013594506001600160401b0360e08e01351115611def578384fd5b611dff8e60e08f01358f01611c86565b9c9f9b9e50999c989b979a9699959894979596610100860135956101200135945092505050565b600080600080600080600080610100898b031215611e42578384fd5b8835611e4d81612c49565b97506020890135611e5d81612c49565b965060408901359550606089013594506080890135611e7b81612c49565b979a969950949793969560a0850135955060c08501359460e001359350915050565b6000806000806000806000806000806101208b8d031215611ebc578586fd5b8a35611ec781612c49565b995060208b0135611ed781612c49565b985060408b0135975060608b0135965060808b0135611ef581612c49565b955060a08b0135945060c08b0135935060e08b013592506101008b01356001600160401b03811115611f25578283fd5b611f318d828e01611c86565b915080935050809150509295989b9194979a5092959850565b60008060008060008060008060008060006101608c8e031215611f6b578081fd5b8b35611f7681612c49565b9a5060208c0135611f8681612c49565b995060408c0135985060608c0135975060808c0135611fa481612c49565b965060a08c0135955060c08c0135945060e08c01359350611fc98d6101008e01611d34565b9250611fd98d6101208e01611d34565b91506101408c01356001600160801b0381168114611ff5578182fd5b809150509295989b509295989b9093969950565b6000806040838503121561201b578182fd5b823561202681612c49565b946020939093013593505050565b600080600060608486031215612048578081fd5b833561205381612c49565b9250602084013561206381612c49565b929592945050506040919091013590565b60008060008060006080868803121561208b578283fd5b853561209681612c49565b945060208601356120a681612c49565b93506040860135925060608601356001600160401b038111156120c7578182fd5b6120d388828901611c86565b969995985093965092949392505050565b6000806000806000806000806000806000806101408d8f031215612106578586fd5b6121108e8e611c7b565b9b5061211f8e60208f01611c7b565b9a5060408d013599506001600160401b0360608e0135111561213f578586fd5b61214f8e60608f01358f01611c86565b909950975060808d013596506121688e60a08f01611c7b565b955060c08d013594506001600160401b0360e08e01351115611def578182fd5b600080600080600080600080610100898b031215611e42578182fd5b6000602082840312156121b5578081fd5b815180151581146111b4578182fd5b6000602082840312156121d5578081fd5b5035919050565b600080604083850312156121ee578182fd5b82359150602083013561220081612c49565b809150509250929050565b6000806040838503121561221d578182fd5b50508035926020909101359150565b60006020828403121561223d578081fd5b81356001600160401b0380821115612253578283fd5b8184019150610160808387031215612269578384fd5b61227281612bf7565b905061227e8684611c7b565b815261228d8660208501611c7b565b6020820152604083013560408201526060830135828111156122ad578485fd5b6122b987828601611ccc565b606083015250608083013560808201526122d68660a08501611c7b565b60a082015260c083013560c082015260e0830135828111156122f6578485fd5b61230287828601611ccc565b60e083015250610100838101359082015261012080840135908201526101408084013583811115612331578586fd5b61233d88828701611ccc565b918301919091525095945050505050565b60008284528282602086013780602084860101526020601f19601f85011685010190509392505050565b60008151808452612390816020860160208601612c1d565b601f01601f19169290920160200192915050565b6000828483379101908152919050565b600082516123c6818460208701612c1d565b9190910192915050565b6001600160a01b0391909116815260200190565b6001600160a01b038e811682528d811660208301528c166040820152606081018b9052610160608082018190526000906124219083018b8d61234e565b60a083018a90526001600160a01b03891660c084015260e0830188905282810361010084015261245281878961234e565b610120840195909552505061014001529b9a5050505050505050505050565b6001600160a01b038c811682528b811660208301528a81166040830152606082018a9052610160608083018190526000916124ae8483018c612378565b91508960a085015280891660c0850152508660e08401528281036101008401526124d88187612378565b610120840195909552505061014001529998505050505050505050565b6001600160a01b03998a168152978916602089015295881660408801526060870194909452608086019290925290941660a084015260c083019390935260e08201929092526101008101919091526101200190565b6001600160a01b038681168252851660208201526040810184905260806060820181905260009061257e908301848661234e565b979650505050505050565b6001600160a01b039384168152919092166020820152604081019190915260600190565b6001600160a01b03929092168252602082015260400190565b901515815260200190565b90815260200190565b6000602082526111b46020830184612378565b60208082526022908201527f456e756d657261626c655365743a20696e646578206f7574206f6620626f756e604082015261647360f01b606082015260800190565b6020808252602f908201527f416363657373436f6e74726f6c3a2073656e646572206d75737420626520616e60408201526e0818591b5a5b881d1bc819dc985b9d608a1b606082015260800190565b6020808252601b908201527f536166654d6174683a206164646974696f6e206f766572666c6f770000000000604082015260600190565b60208082526025908201527f53616665537761703a206175746f526574726965766546656573206578656564604082015264206665657360d81b606082015260800190565b60208082526019908201527f53616665537761703a20616c7265616479206578706972656400000000000000604082015260600190565b60208082526015908201527414d8599954ddd85c0e881b9bc81d1bdad95b881a59605a1b604082015260600190565b60208082526011908201527014d8599954ddd85c0e88195e1c1a5c9959607a1b604082015260600190565b60208082526030908201527f416363657373436f6e74726f6c3a2073656e646572206d75737420626520616e60408201526f2061646d696e20746f207265766f6b6560801b606082015260800190565b6020808252601b908201527f53616665537761703a206e6f7420617661696c61626c65207965740000000000604082015260600190565b60208082526025908201527f53616665537761703a2074727920746f207377617020657468657220616e642060408201526432ba3432b960d91b606082015260800190565b60208082526024908201527f53616665537761703a2074727920746f2073776170207468652073616d65207460408201526337b5b2b760e11b606082015260800190565b60208082526016908201527514d8599954ddd85c0e881ddc9bdb99c81cd958dc995d60521b604082015260600190565b6020808252601d908201527f416464726573733a2063616c6c20746f206e6f6e2d636f6e7472616374000000604082015260600190565b60208082526017908201527f53616665537761703a2072657175657374206578697374000000000000000000604082015260600190565b60208082526018908201527f53616665537761703a2076616c7565206d69736d617463680000000000000000604082015260600190565b6020808252601e908201527f536166655472616e736665723a206e6f7420616e20616374697661746f720000604082015260600190565b6020808252602a908201527f5361666545524332303a204552433230206f7065726174696f6e20646964206e6040820152691bdd081cdd58d8d9595960b21b606082015260800190565b6020808252602a908201527f536166655472616e736665723a206e6f7420616363657074696e67206574686560408201526972206469726563746c7960b01b606082015260800190565b6020808252601b908201527f53616665537761703a2072657175657374206e6f742065786973740000000000604082015260600190565b6020808252601b908201527f53616665537761703a2073656e6465723d3d726563697069656e740000000000604082015260600190565b6020808252602f908201527f416363657373436f6e74726f6c3a2063616e206f6e6c792072656e6f756e636560408201526e103937b632b9903337b91039b2b63360891b606082015260800190565b9384526001600160a01b039290921660208401526040830152606082015260800190565b918252602082015260400190565b95865260208601949094526001600160a01b039290921660408501526060840152608083015260a082015260c00190565b958652602086019490945260408501929092526001600160a01b03166060840152608083015260a082015260c00190565b988952602089019790975260408801959095526001600160a01b03939093166060870152608086019190915260a08501526001600160401b0390811660c08501521660e08301526001600160801b03166101008201526101200190565b60ff91909116815260200190565b6040518181016001600160401b0381118282101715612c1557600080fd5b604052919050565b60005b83811015612c38578181015183820152602001612c20565b838111156117bd5750506000910152565b6001600160a01b0381168114612c5e57600080fd5b5056feec5aad7bdface20c35bc02d6d2d5760df981277427368525d634f4e2603ea192a26469706673582212203b0b209b1b3391d2d45156cf63459201506d8859464f73f9f41917a8edb7205f64736f6c634300060c0033ec5aad7bdface20c35bc02d6d2d5760df981277427368525d634f4e2603ea192",
  "immutableReferences": {},
  "source": "// SPDX-License-Identifier: GPL-3.0-or-later\npragma solidity 0.6.12;\npragma experimental ABIEncoderV2;\n\nimport \"../node_modules/@openzeppelin/contracts/math/SafeMath.sol\";\nimport \"../node_modules/@openzeppelin/contracts/access/AccessControl.sol\";\nimport \"../node_modules/@openzeppelin/contracts/token/ERC20/SafeERC20.sol\";\nimport \"../node_modules/@openzeppelin/contracts/token/ERC721/IERC721.sol\";\n\ncontract SafeSwap is AccessControl {\n    using SafeMath for uint256;\n    using SafeERC20 for IERC20;\n\n    // keccak256(\"ACTIVATOR_ROLE\");\n    bytes32 public constant ACTIVATOR_ROLE =\n        0xec5aad7bdface20c35bc02d6d2d5760df981277427368525d634f4e2603ea192;\n\n    // keccak256(\"hiddenCollect(address from,address to,uint256 value,uint256 fees,bytes32 secretHash)\");\n    bytes32 public constant HIDDEN_COLLECT_TYPEHASH =\n        0x0506afef36f3613836f98ef019cb76a3e6112be8f9dc8d8fa77275d64f418234;\n\n    // keccak256(\"hiddenCollectERC20(address from,address to,address token,string tokenSymbol,uint256 value,uint256 fees,bytes32 secretHash)\");\n    bytes32 public constant HIDDEN_ERC20_COLLECT_TYPEHASH =\n        0x9e6214229b9fba1927010d30b22a3a5d9fd5e856bb29f056416ff2ad52e8de44;\n\n    // keccak256(\"hiddenCollectERC721(address from,address to,address token,string tokenSymbol,uint256 tokenId,bytes tokenData,uint256 fees,bytes32 secretHash)\");\n    bytes32 public constant HIDDEN_ERC721_COLLECT_TYPEHASH =\n        0xa14a2dc51c26e451800897aa798120e7d6c35039caf5eb29b8ac35d1e914c591;\n\n    bytes32 public DOMAIN_SEPARATOR;\n    uint256 public CHAIN_ID;\n    bytes32 s_uid;\n    uint256 s_fees;\n\n    struct TokenInfo {\n        bytes32 id;\n        bytes32 id1;\n        uint256 tr;\n    }\n\n    struct SwapErc721Struct {\n        address payable from;\n        address token0;\n        uint256 value0; //in case of ether it's a value, in case of 721 it's tokenId\n        bytes tokenData0;\n        uint256 fees0;\n        address token1;\n        uint256 value1; //in case of ether it's a value, in case of 721 it's tokenId\n        bytes tokenData1;\n        uint256 fees1;\n        bytes32 secretHash;\n        bytes secret;\n    }\n\n    mapping(bytes32 => uint256) s_transfers;\n    mapping(bytes32 => uint256) s_erc20Transfers;\n    mapping(bytes32 => uint256) s_erc721Transfers;\n    mapping(bytes32 => uint256) s_htransfers;\n\n    string public constant NAME = \"Kirobo Safe Transfer\";\n    string public constant VERSION = \"1\";\n    uint8 public constant VERSION_NUMBER = 0x1;\n\n    event Deposited(\n        address indexed from,\n        address indexed to,\n        address indexed token0,\n        uint256 value0,\n        uint256 fees0,\n        bytes32 secretHash0,\n        address token1,\n        uint256 value1,\n        uint256 fees1\n    );\n\n    event TimedDeposited(\n        address indexed from,\n        address indexed to,\n        address indexed token0,\n        uint256 value0,\n        uint256 fees0,\n        bytes32 secretHash0,\n        address token1,\n        uint256 value1,\n        uint256 fees1,\n        uint64 availableAt,\n        uint64 expiresAt,\n        uint128 autoRetrieveFees\n    );\n\n    event Retrieved(\n        address indexed from,\n        address indexed to,\n        bytes32 indexed id,\n        uint256 value\n    );\n\n    event Rejected(\n        address indexed from,\n        address indexed to,\n        bytes32 indexed id,\n        uint256 value\n    );\n\n    event Swapped(\n        address indexed from,\n        address indexed to,\n        bytes32 indexed id,\n        uint256 value0,\n        uint256 value1\n    );\n\n    event ERC20Deposited(\n        address indexed token,\n        address indexed from,\n        address indexed to,\n        uint256 value,\n        uint256 fees,\n        bytes32 secretHash\n    );\n\n    event ERC20TimedDeposited(\n        address indexed token,\n        address indexed from,\n        address indexed to,\n        uint256 value,\n        uint256 fees,\n        bytes32 secretHash,\n        uint64 availableAt,\n        uint64 expiresAt,\n        uint128 autoRetrieveFees\n    );\n\n    event ERC20Retrieved(\n        address indexed token,\n        address indexed from,\n        address indexed to,\n        bytes32 id,\n        uint256 value\n    );\n\n    event ERC20Collected(\n        address indexed token,\n        address indexed from,\n        address indexed to,\n        bytes32 id,\n        uint256 value\n    );\n\n    /*\n            msg.sender,\n            to,\n            token0,\n            value0,\n            fees0,\n            token1,\n            value1,\n            fees1,\n            secretHash\n\n        address payable to,\n        address token0,\n        uint256 value0, //in case of ether it's a value, in case of 721 it's tokenId\n        bytes calldata tokenData0,\n        uint256 fees0,\n        address token1,\n        uint256 value1, //in case of ether it's a value, in case of 721 it's tokenId\n        bytes calldata tokenData1,\n        uint256 fees1,\n        bytes32 secretHash\n*/\n    event ERC721Deposited(\n        address indexed from,\n        address indexed to,\n        address indexed token0,\n        uint256 value0, //in case of ether it's a value, in case of 721 it's tokenId\n        uint256 fees0,\n        address token1,\n        uint256 value1, //in case of ether it's a value, in case of 721 it's tokenId\n        uint256 fees1,\n        bytes32 secretHash\n    );\n\n    event ERC721TimedDeposited(\n        address indexed token,\n        address indexed from,\n        address indexed to,\n        uint256 tokenId,\n        uint256 fees,\n        bytes32 secretHash,\n        uint64 availableAt,\n        uint64 expiresAt,\n        uint128 autoRetrieveFees\n    );\n\n    event ERC721Retrieved(\n        address indexed token,\n        address indexed from,\n        address indexed to,\n        bytes32 id,\n        uint256 tokenId\n    );\n\n    event ERC721Swapped(\n        address indexed from,\n        address indexed to,\n        address indexed token0,\n        uint256 value0,\n        address token1,\n        uint256 value1,\n        bytes32 id\n    );\n\n    event HDeposited(address indexed from, uint256 value, bytes32 indexed id1);\n\n    event HTimedDeposited(\n        address indexed from,\n        uint256 value,\n        bytes32 indexed id1,\n        uint64 availableAt,\n        uint64 expiresAt,\n        uint128 autoRetrieveFees\n    );\n\n    event HRetrieved(address indexed from, bytes32 indexed id1, uint256 value);\n\n    event HCollected(\n        address indexed from,\n        address indexed to,\n        bytes32 indexed id1,\n        uint256 value\n    );\n\n    event HERC20Collected(\n        address indexed token,\n        address indexed from,\n        address indexed to,\n        bytes32 id1,\n        uint256 value\n    );\n\n    event HERC721Collected(\n        address indexed token,\n        address indexed from,\n        address indexed to,\n        bytes32 id1,\n        uint256 tokenId\n    );\n\n    modifier onlyActivator() {\n        require(\n            hasRole(ACTIVATOR_ROLE, msg.sender),\n            \"SafeTransfer: not an activator\"\n        );\n        _;\n    }\n\n    constructor(address activator) public {\n        s_fees = 1; // only for testing\n\n        _setupRole(DEFAULT_ADMIN_ROLE, msg.sender);\n        _setupRole(ACTIVATOR_ROLE, msg.sender);\n        _setupRole(ACTIVATOR_ROLE, activator);\n\n        uint256 chainId;\n        assembly {\n            chainId := chainid()\n        }\n\n        CHAIN_ID = chainId;\n\n        s_uid = bytes32(\n            (uint256(VERSION_NUMBER) << 248) |\n                ((uint256(blockhash(block.number - 1)) << 192) >> 16) |\n                uint256(address(this))\n        );\n\n        DOMAIN_SEPARATOR = keccak256(\n            abi.encode(\n                keccak256(\n                    \"EIP712Domain(string name,string version,uint256 chainId,address verifyingContract,bytes32 salt)\"\n                ),\n                keccak256(bytes(NAME)),\n                keccak256(bytes(VERSION)),\n                chainId,\n                address(this),\n                s_uid\n            )\n        );\n    }\n\n    receive() external payable {\n        require(false, \"SafeTransfer: not accepting ether directly\");\n    }\n\n    function transferERC20(\n        address token,\n        address wallet,\n        uint256 value\n    ) external onlyActivator() {\n        IERC20(token).safeTransfer(wallet, value);\n    }\n\n    function transferERC721(\n        address token,\n        address wallet,\n        uint256 tokenId,\n        bytes calldata data\n    ) external onlyActivator() {\n        IERC721(token).safeTransferFrom(address(this), wallet, tokenId, data);\n    }\n\n    function transferFees(address payable wallet, uint256 value)\n        external\n        onlyActivator()\n    {\n        s_fees = s_fees.sub(value);\n        wallet.transfer(value);\n    }\n\n    function totalFees() external view returns (uint256) {\n        return s_fees;\n    }\n\n    function uid() external view returns (bytes32) {\n        return s_uid;\n    }\n\n    // --------------------------------- ETH ---------------------------------\n\n    function deposit(\n        address payable to,\n        address token0,\n        uint256 value0,\n        uint256 fees0,\n        address token1,\n        uint256 value1,\n        uint256 fees1,\n        bytes32 secretHash\n    ) external payable {\n        require(token0 != token1, \"SafeSwap: try to swap the same token\");\n        if (token0 == address(0)) {\n            require(msg.value == value0.add(fees0), \"SafeSwap: value mismatch\");\n        } else {\n            require(msg.value == fees0, \"SafeSwap: value mismatch\");\n        }\n        require(to != msg.sender, \"SafeSwap: sender==recipient\");\n        bytes32 id = keccak256(\n            abi.encode(\n                msg.sender,\n                to,\n                token0,\n                value0,\n                fees0,\n                token1,\n                value1,\n                fees1,\n                secretHash\n            )\n        );\n        require(s_transfers[id] == 0, \"SafeSwap: request exist\");\n        s_transfers[id] = 0xffffffffffffffff; // expiresAt: max, AvailableAt: 0, autoRetrieveFees: 0\n        emit Deposited(\n            msg.sender,\n            to,\n            token0,\n            value0,\n            fees0,\n            secretHash,\n            token1,\n            value1,\n            fees1\n        );\n    }\n\n    function timedDeposit(\n        address payable to,\n        address token0,\n        uint256 value0,\n        uint256 fees0,\n        address token1,\n        uint256 value1,\n        uint256 fees1,\n        bytes32 secretHash,\n        uint64 availableAt,\n        uint64 expiresAt,\n        uint128 autoRetrieveFees\n    ) external payable {\n        require(token0 != token1, \"SafeSwap: try to swap the same token\");\n        require(\n            fees0 >= autoRetrieveFees,\n            \"SafeSwap: autoRetrieveFees exeed fees\"\n        );\n        require(to != msg.sender, \"SafeSwap: sender==recipient\");\n        require(expiresAt > now, \"SafeSwap: already expired\");\n        if (token0 == address(0)) {\n            require(msg.value == value0.add(fees0), \"SafeSwap: value mismatch\");\n        } else {\n            require(msg.value == fees0, \"SafeSwap: value mismatch\");\n        }\n\n        bytes32 id = keccak256(\n            abi.encode(\n                msg.sender,\n                to,\n                token0,\n                value0,\n                fees0,\n                token1,\n                value1,\n                fees1,\n                secretHash\n            )\n        );\n        require(s_transfers[id] == 0, \"SafeSwap: request exist\");\n        s_transfers[id] =\n            uint256(expiresAt) +\n            uint256(availableAt << 64) +\n            (uint256(autoRetrieveFees) << 128);\n        emit TimedDeposited(\n            msg.sender,\n            to,\n            token0,\n            value0,\n            fees0,\n            secretHash,\n            token1,\n            value1,\n            fees1,\n            availableAt,\n            expiresAt,\n            autoRetrieveFees\n        );\n    }\n\n    function retrieve(\n        address to,\n        address token0,\n        uint256 value0,\n        uint256 fees0,\n        address token1,\n        uint256 value1,\n        uint256 fees1,\n        bytes32 secretHash\n    ) external {\n        bytes32 id = keccak256(\n            abi.encode(\n                msg.sender,\n                to,\n                token0,\n                value0,\n                fees0,\n                token1,\n                value1,\n                fees1,\n                secretHash\n            )\n        );\n        require(s_transfers[id] > 0, \"SafeSwap: request not exist\");\n        delete s_transfers[id];\n        uint256 valueToSend;\n        if (token0 == address(0)) {\n            valueToSend = value0.add(fees0);\n        } else {\n            valueToSend = fees0;\n        }\n        msg.sender.transfer(valueToSend);\n        emit Retrieved(msg.sender, to, id, valueToSend);\n    }\n\n    function reject(\n        address payable from,\n        address token0,\n        uint256 value0,\n        uint256 fees0,\n        address token1,\n        uint256 value1,\n        uint256 fees1,\n        bytes32 secretHash\n    ) external {\n        bytes32 id = keccak256(\n            abi.encode(\n                from,\n                msg.sender,\n                token0,\n                value0,\n                fees0,\n                token1,\n                value1,\n                fees1,\n                secretHash\n            )\n        );\n        require(s_transfers[id] > 0, \"SafeSwap: request not exist\");\n        delete s_transfers[id];\n        uint256 valueToSend;\n        if (token0 == address(0)) {\n            valueToSend = value0.add(fees0);\n        } else {\n            valueToSend = fees0;\n        }\n        from.transfer(valueToSend);\n        emit Rejected(from, msg.sender, id, valueToSend);\n    }\n\n    function swap(\n        address payable from,\n        address token0,\n        uint256 value0,\n        uint256 fees0,\n        address token1,\n        uint256 value1,\n        uint256 fees1,\n        bytes32 secretHash,\n        bytes calldata secret\n    ) external payable {\n        bytes32 id = keccak256(\n            abi.encode(\n                from,\n                msg.sender,\n                token0,\n                value0,\n                fees0,\n                token1,\n                value1,\n                fees1,\n                secretHash\n            )\n        );\n        uint256 tr = s_transfers[id];\n        require(tr > 0, \"SafeSwap: request not exist\");\n        require(uint64(tr) > now, \"SafeSwap: expired\");\n        require(uint64(tr >> 64) <= now, \"SafeSwap: not available yet\");\n        require(keccak256(secret) == secretHash, \"SafeSwap: wrong secret\");\n        delete s_transfers[id];\n        s_fees = s_fees.add(fees0).add(fees1);\n        if (token0 == address(0)) {\n            msg.sender.transfer(value0);\n        } else {\n            IERC20(token0).safeTransferFrom(from, msg.sender, value0);\n        }\n        if (token1 == address(0)) {\n            require(msg.value == value1.add(fees1), \"SafeSwap: value mismatch\");\n            from.transfer(value1);\n        } else {\n            require(msg.value == fees1, \"SafeSwap: value mismatch\");\n            IERC20(token1).safeTransferFrom(msg.sender, from, value1);\n        }\n        emit Swapped(from, msg.sender, id, value0, value1);\n    }\n\n    /*\n   function autoRetrieve(\n        address payable from,\n        address to,\n        uint256 value,\n        uint256 fees,\n        bytes32 secretHash\n    ) \n        external\n        onlyActivator()\n    {\n        bytes32 id = keccak256(abi.encode(from, to, value, fees, secretHash));\n        uint256 tr = s_transfers[id];\n        require(tr > 0, \"SafeTransfer: request not exist\");\n        require(uint64(tr) <= now, \"SafeTranfer: not expired\");\n        delete  s_transfers[id];\n        s_fees = s_fees + (tr>>128); // autoRetreive fees\n        uint256 valueToRetrieve = value.add(fees).sub(tr>>128);\n        from.transfer(valueToRetrieve);\n        emit Retrieved(from, to, id, valueToRetrieve);\n    }\n\n    // ------------------------------- ERC-20 --------------------------------\n\n    function depositERC20(\n        address token,\n        string calldata tokenSymbol,\n        address to,\n        uint256 value,\n        uint256 fees,\n        bytes32 secretHash\n    ) \n        payable external\n    {\n        require(msg.value == fees, \"SafeTransfer: msg.value must match fees\");\n        require(to != msg.sender, \"SafeTransfer: sender==recipient\");\n        bytes32 id = keccak256(abi.encode(token, tokenSymbol, msg.sender, to, value, fees, secretHash));\n        require(s_erc20Transfers[id] == 0, \"SafeTransfer: request exist\"); \n        s_erc20Transfers[id] = 0xffffffffffffffff;\n        emit ERC20Deposited(token, msg.sender, to, value, fees, secretHash);\n    }\n\n    function timedDepositERC20(\n        address token,\n        string calldata tokenSymbol,\n        address to,\n        uint256 value,\n        uint256 fees,\n        bytes32 secretHash,\n        uint64 availableAt,\n        uint64 expiresAt,\n        uint128 autoRetrieveFees\n    ) \n        payable external\n    {\n        require(msg.value == fees, \"SafeTransfer: msg.value must match fees\");\n        require(fees >= autoRetrieveFees, \"SafeTransfer: autoRetrieveFees exeed fees\");\n        require(to != msg.sender, \"SafeTransfer: sender==recipient\");\n        require(expiresAt > now, \"SafeTransfer: already expired\");\n        bytes32 id = keccak256(abi.encode(token, tokenSymbol, msg.sender, to, value, fees, secretHash));\n        require(s_erc20Transfers[id] == 0, \"SafeTransfer: request exist\"); \n        s_erc20Transfers[id] = uint256(expiresAt) + (uint256(availableAt) << 64) + (uint256(autoRetrieveFees) << 128);\n        emit ERC20TimedDeposited(token, msg.sender, to, value, fees, secretHash, availableAt, expiresAt, autoRetrieveFees);\n    }\n\n    function retrieveERC20(\n        address token,\n        string calldata tokenSymbol,\n        address to,\n        uint256 value,\n        uint256 fees,\n        bytes32 secretHash\n    )   \n        external \n    {\n        bytes32 id = keccak256(abi.encode(token, tokenSymbol, msg.sender, to, value, fees, secretHash));\n        require(s_erc20Transfers[id]  > 0, \"SafeTransfer: request not exist\");\n        delete s_erc20Transfers[id];\n        msg.sender.transfer(fees);\n        emit ERC20Retrieved(token, msg.sender, to, id, value);\n    }\n\n    function collectERC20(\n        address token,\n        address from,\n        address payable to,\n        uint256 value,\n        uint256 fees,\n        bytes32 secretHash,\n        bytes calldata secret\n    ) \n        public\n        onlyActivator()\n    {\n        bytes32 id = keccak256(abi.encode(token, from, to, value, fees, secretHash));\n        uint256 tr = s_erc20Transfers[id];\n        require(tr > 0, \"SafeTransfer: request not exist\");\n        require(uint64(tr) > now, \"SafeTranfer: expired\");\n        require(uint64(tr>>64) <= now, \"SafeTranfer: not available yet\");\n        require(keccak256(secret) == secretHash, \"SafeTransfer: wrong secret\");\n        delete s_erc20Transfers[id];\n        s_fees = s_fees.add(fees);\n        IERC20(token).safeTransferFrom(from, to, value);\n        emit ERC20Collected(token, from, to, id, value);\n    }\n\n   function autoRetrieveERC20(\n        address token,\n        string calldata tokenSymbol,\n        address payable from,\n        address to,\n        uint256 value,\n        uint256 fees,\n        bytes32 secretHash\n    ) \n        external\n        onlyActivator()\n    {\n        bytes32 id = keccak256(abi.encode(token, tokenSymbol, from, to, value, fees, secretHash));\n        uint256 tr = s_erc20Transfers[id];\n        require(tr > 0, \"SafeTransfer: request not exist\");\n        require(uint64(tr) <= now, \"SafeTranfer: not expired\");\n        delete  s_erc20Transfers[id];\n        s_fees = s_fees + (tr>>128); // autoRetreive fees\n        from.transfer(fees.sub(tr>>128));\n        emit ERC20Retrieved(token, from, to, id, value);\n    }\n */\n    // ------------------------------- ERC-721 -------------------------------\n\n    function depositERC721(\n        address payable to,\n        address token0,\n        uint256 value0, //in case of ether it's a value, in case of 721 it's tokenId\n        bytes calldata tokenData0,\n        uint256 fees0,\n        address token1,\n        uint256 value1, //in case of ether it's a value, in case of 721 it's tokenId\n        bytes calldata tokenData1,\n        uint256 fees1,\n        bytes32 secretHash\n    ) external payable {\n        if (token0 == address(0)) {\n            //eth to 721\n            require(token0 != token1, \"SafeSwap: try to swap ether and ether\");\n            require(msg.value == value0.add(fees0), \"SafeSwap: value mismatch\");\n            require(value1 > 0, \"SafeSwap: no token id\");\n        } else if (token1 == address(0)) {\n            //721 to eth\n            require(msg.value == fees0, \"SafeSwap: value mismatch\");\n            require(value0 > 0, \"SafeSwap: no token id\");\n        } else {\n            //721 to 721\n            require(value0 > 0, \"SafeSwap: no token id\");\n            require(value1 > 0, \"SafeSwap: no token id\");\n        }\n        require(to != msg.sender, \"SafeSwap: sender==recipient\");\n        bytes32 id = keccak256(\n            abi.encode(\n                msg.sender,\n                to,\n                token0,\n                value0,\n                tokenData0,\n                fees0,\n                token1,\n                value1,\n                tokenData1,\n                fees1,\n                secretHash\n            )\n        );\n        require(s_transfers[id] == 0, \"SafeSwap: request exist\");\n        s_transfers[id] = 0xffffffffffffffff; // expiresAt: max, AvailableAt: 0, autoRetrieveFees: 0\n        emit ERC721Deposited(\n            msg.sender,\n            to,\n            token0,\n            value0,\n            fees0,\n            token1,\n            value1,\n            fees1,\n            secretHash\n        );\n    }\n\n    function swapERC721(SwapErc721Struct memory inputs) external payable {\n        bytes32 id = keccak256(\n            abi.encode(\n                inputs.from,\n                msg.sender,\n                inputs.token0,\n                inputs.value0,\n                inputs.tokenData0,\n                inputs.fees0,\n                inputs.token1,\n                inputs.value1,\n                inputs.tokenData1,\n                inputs.fees1,\n                inputs.secretHash\n            )\n        );\n        uint256 tr = s_transfers[id];\n        require(tr > 0, \"SafeSwap: request not exist\");\n        require(uint64(tr) > now, \"SafeSwap: expired\");\n        require(uint64(tr >> 64) <= now, \"SafeSwap: not available yet\");\n        require(\n            keccak256(inputs.secret) == inputs.secretHash,\n            \"SafeSwap: wrong secret\"\n        );\n        delete s_transfers[id];\n        s_fees = s_fees.add(inputs.fees0).add(inputs.fees1);\n        if (inputs.token0 == address(0)) {\n            //ether to 721\n            msg.sender.transfer(inputs.value0);\n        } else {\n            /*IERC721(inputs.token0).safeTransferFrom(\n                inputs.from,\n                msg.sender,\n                inputs.value0,\n                inputs.tokenData0\n            );*/\n        }\n        if (inputs.token1 == address(0)) {\n            //721 to ether\n            require(\n                msg.value == inputs.value1.add(inputs.fees1),\n                \"SafeSwap: value mismatch\"\n            );\n            inputs.from.transfer(inputs.value1);\n        } else {\n            require(msg.value == inputs.fees1, \"SafeSwap: value mismatch\");\n            /*IERC721(inputs.token1).safeTransferFrom(\n                msg.sender,\n                inputs.from,\n                inputs.value1,\n                inputs.tokenData1\n            );*/\n        }\n        emit ERC721Swapped(\n            inputs.from,\n            msg.sender,\n            inputs.token0,\n            inputs.value0,\n            inputs.token1,\n            inputs.value1,\n            id\n        );\n    }\n\n    function retrieveERC721(\n        address to,\n        address token0,\n        uint256 value0,\n        bytes calldata tokenData0,\n        uint256 fees0,\n        address token1,\n        uint256 value1,\n        bytes calldata tokenData1,\n        uint256 fees1,\n        bytes32 secretHash\n    ) external {\n        bytes32 id = keccak256(\n            abi.encode(\n                msg.sender,\n                to,\n                token0,\n                value0,\n                tokenData0,\n                fees0,\n                token1,\n                value1,\n                tokenData1,\n                fees1,\n                secretHash\n            )\n        );\n        require(s_transfers[id] > 0, \"SafeSwap: request not exist\");\n        delete s_transfers[id];\n        uint256 valueToSend;\n        if (token0 == address(0)) {\n            valueToSend = value0.add(fees0);\n        } else {\n            valueToSend = fees0;\n        }\n        msg.sender.transfer(valueToSend);\n        emit Retrieved(msg.sender, to, id, valueToSend);\n    }\n\n    /*\n    function retrieveERC721(\n        address token,\n        string calldata tokenSymbol,\n        address to,\n        uint256 tokenId,\n        bytes calldata tokenData,\n        uint256 fees,\n        bytes32 secretHash\n    )   \n        external \n    {\n        bytes32 id = keccak256(abi.encode(token, tokenSymbol, msg.sender, to, tokenId, tokenData, fees, secretHash));\n        require(s_erc721Transfers[id]  > 0, \"SafeTransfer: request not exist\");\n        delete s_erc721Transfers[id];\n        msg.sender.transfer(fees);\n        emit ERC721Retrieved(token, msg.sender, to, id, tokenId);\n    }\n\n    function timedDepositERC721(\n        address token,\n        string calldata tokenSymbol,\n        address to,\n        uint256 tokenId,\n        bytes calldata tokenData,\n        uint256 fees,\n        bytes32 secretHash,\n        uint64 availableAt,\n        uint64 expiresAt,\n        uint128 autoRetrieveFees\n    ) \n        payable external\n    {\n        require(msg.value == fees, \"SafeTransfer: msg.value must match fees\");\n        require(fees >= autoRetrieveFees, \"SafeTransfer: autoRetrieveFees exeed fees\");\n        require(tokenId > 0, \"SafeTransfer: no token id\");\n        require(to != msg.sender, \"SafeTransfer: sender==recipient\");\n        require(expiresAt > now, \"SafeTransfer: already expired\");\n        bytes32 id = keccak256(abi.encode(token, tokenSymbol, msg.sender, to, tokenId, tokenData, fees, secretHash));\n        require(s_erc721Transfers[id] == 0, \"SafeTransfer: request exist\"); \n        s_erc721Transfers[id] = uint256(expiresAt) + (uint256(availableAt) << 64) + (uint256(autoRetrieveFees) << 128);\n        emit ERC721TimedDeposited(token, msg.sender, to, tokenId, fees, secretHash, availableAt, expiresAt, autoRetrieveFees);\n    }\n\n   function autoRetrieveERC721(\n        address token,\n        string calldata tokenSymbol,\n        address payable from,\n        address to,\n        uint256 tokenId,\n        bytes calldata tokenData,\n        uint256 fees,\n        bytes32 secretHash\n    ) \n        external\n        onlyActivator()\n    {\n        bytes32 id = keccak256(abi.encode(token, tokenSymbol, from, to, tokenId, tokenData, fees, secretHash));\n        uint256 tr = s_erc721Transfers[id];\n        require(tr > 0, \"SafeTransfer: request not exist\");\n        require(uint64(tr) <= now, \"SafeTranfer: not expired\");\n        delete  s_erc721Transfers[id];\n        s_fees = s_fees + (tr>>128); // autoRetreive fees\n        from.transfer(fees.sub(tr>>128));\n        emit ERC721Retrieved(token, from, to, id, tokenId);\n    }\n\n    // ----------------------- Hidden ETH / ERC-20 / ERC-721 -----------------------\n\n    function hiddenDeposit(bytes32 id1) \n        payable external\n    {\n        bytes32 id = keccak256(abi.encode(msg.sender, msg.value, id1));\n        require(s_htransfers[id] == 0, \"SafeTransfer: request exist\"); \n        s_htransfers[id] = 0xffffffffffffffff;\n        emit HDeposited(msg.sender, msg.value, id1);\n    }\n\n    function hiddenTimedDeposit(\n        bytes32 id1,\n        uint64 availableAt,\n        uint64 expiresAt,\n        uint128 autoRetrieveFees\n    ) \n        payable external\n    {\n        require(msg.value >= autoRetrieveFees, \"SafeTransfers: autoRetrieveFees exeed value\");\n        bytes32 id = keccak256(abi.encode(msg.sender, msg.value, id1));\n        require(s_htransfers[id] == 0, \"SafeTransfer: request exist\");\n        require(expiresAt > now, \"SafeTransfer: already expired\"); \n        s_htransfers[id] = uint256(expiresAt) + (uint256(availableAt) << 64) + (uint256(autoRetrieveFees) << 128);\n        emit HTimedDeposited(msg.sender, msg.value, id1, availableAt, expiresAt, autoRetrieveFees);\n    }\n\n    function hiddenRetrieve(\n        bytes32 id1,\n        uint256 value\n    )   \n        external \n    {\n        bytes32 id = keccak256(abi.encode(msg.sender, value, id1));\n        require(s_htransfers[id]  > 0, \"SafeTransfer: request not exist\");\n        delete s_htransfers[id];\n        msg.sender.transfer(value);\n        emit HRetrieved(msg.sender, id1, value);\n    }\n\n    function hiddenCollect(\n        address from,\n        address payable to,\n        uint256 value,\n        uint256 fees,\n        bytes32 secretHash,\n        bytes calldata secret,\n        uint8 v,\n        bytes32 r,\n        bytes32 s\n    ) \n        external\n        onlyActivator()\n    {\n        bytes32 id1 = keccak256(abi.encode(HIDDEN_COLLECT_TYPEHASH, from, to, value, fees, secretHash));\n        require(ecrecover(keccak256(abi.encodePacked(\"\\x19\\x01\", DOMAIN_SEPARATOR, id1)), v, r, s) == from, \"SafeTransfer: wrong signature\");\n        bytes32 id = keccak256(abi.encode(from, value.add(fees), id1));\n        uint256 tr = s_htransfers[id];\n        require(tr > 0, \"SafeTransfer: request not exist\");\n        require(uint64(tr) > now, \"SafeTranfer: expired\");\n        require(uint64(tr>>64) <= now, \"SafeTranfer: not available yet\");\n        require(keccak256(secret) == secretHash, \"SafeTransfer: wrong secret\");\n        delete s_htransfers[id];\n        s_fees = s_fees.add(fees);\n        to.transfer(value);\n        emit HCollected(from, to, id1, value);\n    }\n\n    function hiddenCollectERC20(\n        address from,\n        address to,\n        address token,\n        string memory tokenSymbol,\n        uint256 value,\n        uint256 fees,\n        bytes32 secretHash,\n        bytes calldata secret,\n        uint8 v,\n        bytes32 r,\n        bytes32 s\n    ) \n        external\n        onlyActivator()\n    {\n        TokenInfo memory tinfo;\n        tinfo.id1 = keccak256(abi.encode(HIDDEN_ERC20_COLLECT_TYPEHASH, from, to, token, tokenSymbol, value, fees, secretHash));\n        require(ecrecover(keccak256(abi.encodePacked(\"\\x19\\x01\", DOMAIN_SEPARATOR, tinfo.id1)), v, r, s) == from, \"SafeTransfer: wrong signature\");\n        tinfo.id = keccak256(abi.encode(from, fees, tinfo.id1));\n        uint256 tr = s_htransfers[tinfo.id];\n        require(tr > 0, \"SafeTransfer: request not exist\");\n        require(uint64(tr) > now, \"SafeTranfer: expired\");\n        require(uint64(tr>>64) <= now, \"SafeTranfer: not available yet\");\n        require(keccak256(secret) == secretHash, \"SafeTransfer: wrong secret\");\n        delete s_htransfers[tinfo.id];\n        s_fees = s_fees.add(fees);\n        IERC20(token).safeTransferFrom(from, to, value);\n        emit HERC20Collected(token, from, to, tinfo.id1, value);\n    }\n\n    function hiddenCollectERC721(\n        address from,\n        address to,\n        address token,\n        string memory tokenSymbol,\n        uint256 tokenId,\n        bytes memory tokenData,\n        uint256 fees,\n        bytes32 secretHash,\n        bytes calldata secret,\n        uint8 v,\n        bytes32 r,\n        bytes32 s\n    ) \n        external\n        onlyActivator()\n    {\n        TokenInfo memory tinfo;\n        tinfo.id1 = keccak256(abi.encode(HIDDEN_ERC721_COLLECT_TYPEHASH, from, to, token, tokenSymbol, tokenId, tokenData, fees, secretHash));\n        require(ecrecover(keccak256(abi.encodePacked(\"\\x19\\x01\", DOMAIN_SEPARATOR, tinfo.id1)), v, r, s) == from, \"SafeTransfer: wrong signature\");\n        tinfo.id = keccak256(abi.encode(from, fees, tinfo.id1));\n        tinfo.tr = s_htransfers[tinfo.id]; \n        require(tinfo.tr > 0, \"SafeTransfer: request not exist\");\n        require(uint64(tinfo.tr) > now, \"SafeTranfer: expired\");\n        require(uint64(tinfo.tr>>64) <= now, \"SafeTranfer: not available yet\");\n        require(keccak256(secret) == secretHash, \"SafeTransfer: wrong secret\");\n        delete s_htransfers[tinfo.id];\n        s_fees = s_fees.add(fees);\n        IERC721(token).safeTransferFrom(from, to, tokenId, tokenData);\n        emit HERC721Collected(token, from, to, tinfo.id1, tokenId);\n    }\n\n   function hiddenAutoRetrieve(\n        address payable from,\n        bytes32 id1,\n        uint256 value\n    ) \n        external\n        onlyActivator()\n    {\n        bytes32 id = keccak256(abi.encode(from, value, id1));\n        uint256 tr = s_htransfers[id];\n        require(tr > 0, \"SafeTransfer: request not exist\");\n        require(uint64(tr) <= now, \"SafeTranfer: not expired\");\n        delete  s_htransfers[id];\n        s_fees = s_fees + (tr>>128);\n        uint256 toRetrieve = value.sub(tr>>128);\n        from.transfer(toRetrieve);\n        emit HRetrieved(from, id1, toRetrieve);\n    }\n\n    function swap(\n        address from,\n        address to,\n        address token0,\n        uint256 value0,\n        uint256 fees0,\n        bytes32 secretHash0,\n        bytes calldata secret0,\n        address token1,\n        uint256 value1,\n        uint256 fees1,\n        bytes32 secretHash1,\n        bytes calldata secret1\n    ) \n        external\n    {\n        if (token0 == address(0)) {\n            collect(from, payable(to), value0, fees0, secretHash0, secret0);\n        } else {\n            collectERC20(token0, from, payable(to), value0, fees0, secretHash0, secret0);\n        }\n        if (token1 == address(0)) {\n            collect(from, payable(to), value1, fees1, secretHash1, secret1);\n        } else {\n            collectERC20(token0, from, payable(to), value1, fees1, secretHash1, secret1);\n        }\n    }\n*/\n}\n",
  "sourcePath": "/opt/storage/data1/code/kirobo/ki-eth-token/contracts/SafeSwap.sol",
  "compiler": {
    "name": "solc",
    "version": "0.6.12+commit.27d51765.Emscripten.clang"
  },
  "schemaVersion": "3.3.4",
  "updatedAt": "2021-07-01T17:25:12.871Z",
  "devdoc": {
    "kind": "dev",
    "methods": {
      "getRoleAdmin(bytes32)": {
        "details": "Returns the admin role that controls `role`. See {grantRole} and {revokeRole}. To change a role's admin, use {_setRoleAdmin}."
      },
      "getRoleMember(bytes32,uint256)": {
        "details": "Returns one of the accounts that have `role`. `index` must be a value between 0 and {getRoleMemberCount}, non-inclusive. Role bearers are not sorted in any particular way, and their ordering may change at any point. WARNING: When using {getRoleMember} and {getRoleMemberCount}, make sure you perform all queries on the same block. See the following https://forum.openzeppelin.com/t/iterating-over-elements-on-enumerableset-in-openzeppelin-contracts/2296[forum post] for more information."
      },
      "getRoleMemberCount(bytes32)": {
        "details": "Returns the number of accounts that have `role`. Can be used together with {getRoleMember} to enumerate all bearers of a role."
      },
      "grantRole(bytes32,address)": {
        "details": "Grants `role` to `account`. If `account` had not been already granted `role`, emits a {RoleGranted} event. Requirements: - the caller must have ``role``'s admin role."
      },
      "hasRole(bytes32,address)": {
        "details": "Returns `true` if `account` has been granted `role`."
      },
      "renounceRole(bytes32,address)": {
        "details": "Revokes `role` from the calling account. Roles are often managed via {grantRole} and {revokeRole}: this function's purpose is to provide a mechanism for accounts to lose their privileges if they are compromised (such as when a trusted device is misplaced). If the calling account had been granted `role`, emits a {RoleRevoked} event. Requirements: - the caller must be `account`."
      },
      "revokeRole(bytes32,address)": {
        "details": "Revokes `role` from `account`. If `account` had been granted `role`, emits a {RoleRevoked} event. Requirements: - the caller must have ``role``'s admin role."
      }
    },
    "version": 1
  },
  "userdoc": {
    "kind": "user",
    "methods": {},
    "version": 1
  }
}