{
  "contractName": "SafeTransfer",
  "abi": [
    {
      "inputs": [
        {
          "internalType": "address",
          "name": "activator",
          "type": "address"
        }
      ],
      "stateMutability": "nonpayable",
      "type": "constructor"
    },
    {
      "anonymous": false,
      "inputs": [
        {
          "indexed": true,
          "internalType": "address",
          "name": "from",
          "type": "address"
        },
        {
          "indexed": true,
          "internalType": "address",
          "name": "to",
          "type": "address"
        },
        {
          "indexed": true,
          "internalType": "bytes32",
          "name": "id",
          "type": "bytes32"
        },
        {
          "indexed": false,
          "internalType": "uint256",
          "name": "value",
          "type": "uint256"
        }
      ],
      "name": "Collected",
      "type": "event"
    },
    {
      "anonymous": false,
      "inputs": [
        {
          "indexed": true,
          "internalType": "address",
          "name": "from",
          "type": "address"
        },
        {
          "indexed": true,
          "internalType": "address",
          "name": "to",
          "type": "address"
        },
        {
          "indexed": false,
          "internalType": "uint256",
          "name": "value",
          "type": "uint256"
        },
        {
          "indexed": false,
          "internalType": "uint256",
          "name": "fees",
          "type": "uint256"
        },
        {
          "indexed": false,
          "internalType": "bytes32",
          "name": "secretHash",
          "type": "bytes32"
        }
      ],
      "name": "Deposited",
      "type": "event"
    },
    {
      "anonymous": false,
      "inputs": [
        {
          "indexed": true,
          "internalType": "address",
          "name": "from",
          "type": "address"
        },
        {
          "indexed": true,
          "internalType": "address",
          "name": "to",
          "type": "address"
        },
        {
          "indexed": true,
          "internalType": "bytes32",
          "name": "id",
          "type": "bytes32"
        },
        {
          "indexed": false,
          "internalType": "uint256",
          "name": "value",
          "type": "uint256"
        }
      ],
      "name": "Retrieved",
      "type": "event"
    },
    {
      "anonymous": false,
      "inputs": [
        {
          "indexed": true,
          "internalType": "bytes32",
          "name": "role",
          "type": "bytes32"
        },
        {
          "indexed": true,
          "internalType": "bytes32",
          "name": "previousAdminRole",
          "type": "bytes32"
        },
        {
          "indexed": true,
          "internalType": "bytes32",
          "name": "newAdminRole",
          "type": "bytes32"
        }
      ],
      "name": "RoleAdminChanged",
      "type": "event"
    },
    {
      "anonymous": false,
      "inputs": [
        {
          "indexed": true,
          "internalType": "bytes32",
          "name": "role",
          "type": "bytes32"
        },
        {
          "indexed": true,
          "internalType": "address",
          "name": "account",
          "type": "address"
        },
        {
          "indexed": true,
          "internalType": "address",
          "name": "sender",
          "type": "address"
        }
      ],
      "name": "RoleGranted",
      "type": "event"
    },
    {
      "anonymous": false,
      "inputs": [
        {
          "indexed": true,
          "internalType": "bytes32",
          "name": "role",
          "type": "bytes32"
        },
        {
          "indexed": true,
          "internalType": "address",
          "name": "account",
          "type": "address"
        },
        {
          "indexed": true,
          "internalType": "address",
          "name": "sender",
          "type": "address"
        }
      ],
      "name": "RoleRevoked",
      "type": "event"
    },
    {
      "anonymous": false,
      "inputs": [
        {
          "indexed": true,
          "internalType": "address",
          "name": "from",
          "type": "address"
        },
        {
          "indexed": false,
          "internalType": "uint256",
          "name": "value",
          "type": "uint256"
        },
        {
          "indexed": false,
          "internalType": "uint256",
          "name": "fees",
          "type": "uint256"
        },
        {
          "indexed": false,
          "internalType": "bytes32",
          "name": "secretHash",
          "type": "bytes32"
        },
        {
          "indexed": false,
          "internalType": "uint64",
          "name": "expiresAt",
          "type": "uint64"
        },
        {
          "indexed": false,
          "internalType": "uint192",
          "name": "depositFees",
          "type": "uint192"
        }
      ],
      "name": "SafeDeposited",
      "type": "event"
    },
    {
      "inputs": [],
      "name": "ACTIVATOR_ROLE",
      "outputs": [
        {
          "internalType": "bytes32",
          "name": "",
          "type": "bytes32"
        }
      ],
      "stateMutability": "view",
      "type": "function"
    },
    {
      "inputs": [],
      "name": "DEFAULT_ADMIN_ROLE",
      "outputs": [
        {
          "internalType": "bytes32",
          "name": "",
          "type": "bytes32"
        }
      ],
      "stateMutability": "view",
      "type": "function"
    },
    {
      "inputs": [
        {
          "internalType": "bytes32",
          "name": "role",
          "type": "bytes32"
        }
      ],
      "name": "getRoleAdmin",
      "outputs": [
        {
          "internalType": "bytes32",
          "name": "",
          "type": "bytes32"
        }
      ],
      "stateMutability": "view",
      "type": "function"
    },
    {
      "inputs": [
        {
          "internalType": "bytes32",
          "name": "role",
          "type": "bytes32"
        },
        {
          "internalType": "uint256",
          "name": "index",
          "type": "uint256"
        }
      ],
      "name": "getRoleMember",
      "outputs": [
        {
          "internalType": "address",
          "name": "",
          "type": "address"
        }
      ],
      "stateMutability": "view",
      "type": "function"
    },
    {
      "inputs": [
        {
          "internalType": "bytes32",
          "name": "role",
          "type": "bytes32"
        }
      ],
      "name": "getRoleMemberCount",
      "outputs": [
        {
          "internalType": "uint256",
          "name": "",
          "type": "uint256"
        }
      ],
      "stateMutability": "view",
      "type": "function"
    },
    {
      "inputs": [
        {
          "internalType": "bytes32",
          "name": "role",
          "type": "bytes32"
        },
        {
          "internalType": "address",
          "name": "account",
          "type": "address"
        }
      ],
      "name": "grantRole",
      "outputs": [],
      "stateMutability": "nonpayable",
      "type": "function"
    },
    {
      "inputs": [
        {
          "internalType": "bytes32",
          "name": "role",
          "type": "bytes32"
        },
        {
          "internalType": "address",
          "name": "account",
          "type": "address"
        }
      ],
      "name": "hasRole",
      "outputs": [
        {
          "internalType": "bool",
          "name": "",
          "type": "bool"
        }
      ],
      "stateMutability": "view",
      "type": "function"
    },
    {
      "inputs": [
        {
          "internalType": "bytes32",
          "name": "role",
          "type": "bytes32"
        },
        {
          "internalType": "address",
          "name": "account",
          "type": "address"
        }
      ],
      "name": "renounceRole",
      "outputs": [],
      "stateMutability": "nonpayable",
      "type": "function"
    },
    {
      "inputs": [
        {
          "internalType": "bytes32",
          "name": "role",
          "type": "bytes32"
        },
        {
          "internalType": "address",
          "name": "account",
          "type": "address"
        }
      ],
      "name": "revokeRole",
      "outputs": [],
      "stateMutability": "nonpayable",
      "type": "function"
    },
    {
      "stateMutability": "payable",
      "type": "receive"
    },
    {
      "inputs": [
        {
          "internalType": "address payable",
          "name": "wallet",
          "type": "address"
        },
        {
          "internalType": "uint256",
          "name": "amount",
          "type": "uint256"
        }
      ],
      "name": "collectFees",
      "outputs": [],
      "stateMutability": "nonpayable",
      "type": "function"
    },
    {
      "inputs": [],
      "name": "totalFees",
      "outputs": [
        {
          "internalType": "uint256",
          "name": "",
          "type": "uint256"
        }
      ],
      "stateMutability": "view",
      "type": "function"
    },
    {
      "inputs": [
        {
          "internalType": "address payable",
          "name": "to",
          "type": "address"
        },
        {
          "internalType": "uint256",
          "name": "value",
          "type": "uint256"
        },
        {
          "internalType": "uint256",
          "name": "fees",
          "type": "uint256"
        },
        {
          "internalType": "bytes32",
          "name": "secretHash",
          "type": "bytes32"
        }
      ],
      "name": "deposit",
      "outputs": [],
      "stateMutability": "payable",
      "type": "function"
    },
    {
      "inputs": [
        {
          "internalType": "address payable",
          "name": "to",
          "type": "address"
        },
        {
          "internalType": "uint256",
          "name": "value",
          "type": "uint256"
        },
        {
          "internalType": "uint256",
          "name": "fees",
          "type": "uint256"
        },
        {
          "internalType": "bytes32",
          "name": "secretHash",
          "type": "bytes32"
        },
        {
          "internalType": "uint64",
          "name": "expiresAt",
          "type": "uint64"
        },
        {
          "internalType": "uint128",
          "name": "depositFees",
          "type": "uint128"
        }
      ],
      "name": "timedDeposit",
      "outputs": [],
      "stateMutability": "payable",
      "type": "function"
    },
    {
      "inputs": [
        {
          "internalType": "address payable",
          "name": "to",
          "type": "address"
        },
        {
          "internalType": "uint256",
          "name": "value",
          "type": "uint256"
        },
        {
          "internalType": "uint256",
          "name": "fees",
          "type": "uint256"
        },
        {
          "internalType": "bytes32",
          "name": "secretHash",
          "type": "bytes32"
        }
      ],
      "name": "retrieve",
      "outputs": [],
      "stateMutability": "nonpayable",
      "type": "function"
    },
    {
      "inputs": [
        {
          "internalType": "address",
          "name": "from",
          "type": "address"
        },
        {
          "internalType": "address payable",
          "name": "to",
          "type": "address"
        },
        {
          "internalType": "uint256",
          "name": "value",
          "type": "uint256"
        },
        {
          "internalType": "uint256",
          "name": "fees",
          "type": "uint256"
        },
        {
          "internalType": "bytes32",
          "name": "secretHash",
          "type": "bytes32"
        },
        {
          "internalType": "bytes",
          "name": "secret",
          "type": "bytes"
        }
      ],
      "name": "collect",
      "outputs": [],
      "stateMutability": "nonpayable",
      "type": "function"
    },
    {
      "inputs": [
        {
          "internalType": "address payable",
          "name": "from",
          "type": "address"
        },
        {
          "internalType": "address",
          "name": "to",
          "type": "address"
        },
        {
          "internalType": "uint256",
          "name": "value",
          "type": "uint256"
        },
        {
          "internalType": "uint256",
          "name": "fees",
          "type": "uint256"
        },
        {
          "internalType": "bytes32",
          "name": "secretHash",
          "type": "bytes32"
        }
      ],
      "name": "cancel",
      "outputs": [],
      "stateMutability": "nonpayable",
      "type": "function"
    }
  ],
  "bytecode": "0x60806040523480156200001157600080fd5b506040516200181438038062001814833981810160405260208110156200003757600080fd5b50516200004660003362000083565b62000061600080516020620017f48339815191523362000083565b6200007c600080516020620017f48339815191528262000083565b5062000197565b6200008f828262000093565b5050565b600082815260208181526040909120620000b8918390620011376200010c821b17901c565b156200008f57620000c86200012c565b6001600160a01b0316816001600160a01b0316837f2f8788117e7eff1d82e926ec794901d17c78024a50270940304540a733656f0d60405160405180910390a45050565b600062000123836001600160a01b03841662000130565b90505b92915050565b3390565b60006200013e83836200017f565b620001765750815460018181018455600084815260208082209093018490558454848252828601909352604090209190915562000126565b50600062000126565b60009081526001919091016020526040902054151590565b61164d80620001a76000396000f3fe6080604052600436106100f75760003560e01c806391d148541161008a578063c859ed4411610059578063c859ed44146103d7578063ca15c8731461041c578063d547741f14610446578063d87bc9ac1461047f57610135565b806391d1485414610304578063a033fcd414610351578063a217fddf1461038a578063a424e0a91461039f57610135565b80632f2ff15d116100c65780632f2ff15d146101ef57806336568abe14610228578063484b093e146102615780639010d07c146102b857610135565b806308740a3b1461013a5780630dd4abd51461016157806313114a9d146101b0578063248a9ca3146101c557610135565b366101355760405162461bcd60e51b81526004018080602001828103825260218152602001806115786021913960400191505060405180910390fd5b005b600080fd5b34801561014657600080fd5b5061014f610528565b60408051918252519081900360200190f35b34801561016d57600080fd5b50610133600480360360a081101561018457600080fd5b506001600160a01b0381358116916020810135909116906040810135906060810135906080013561053a565b3480156101bc57600080fd5b5061014f610762565b3480156101d157600080fd5b5061014f600480360360208110156101e857600080fd5b5035610768565b3480156101fb57600080fd5b506101336004803603604081101561021257600080fd5b50803590602001356001600160a01b031661077d565b34801561023457600080fd5b506101336004803603604081101561024b57600080fd5b50803590602001356001600160a01b03166107e9565b610133600480360360c081101561027757600080fd5b5080356001600160a01b031690602081013590604081013590606081013590608081013567ffffffffffffffff169060a001356001600160801b031661084a565b3480156102c457600080fd5b506102e8600480360360408110156102db57600080fd5b5080359060200135610a44565b604080516001600160a01b039092168252519081900360200190f35b34801561031057600080fd5b5061033d6004803603604081101561032757600080fd5b50803590602001356001600160a01b0316610a65565b604080519115158252519081900360200190f35b34801561035d57600080fd5b506101336004803603604081101561037457600080fd5b506001600160a01b038135169060200135610a7d565b34801561039657600080fd5b5061014f610b31565b610133600480360360808110156103b557600080fd5b506001600160a01b038135169060208101359060408101359060600135610b36565b3480156103e357600080fd5b50610133600480360360808110156103fa57600080fd5b506001600160a01b038135169060208101359060408101359060600135610cfb565b34801561042857600080fd5b5061014f6004803603602081101561043f57600080fd5b5035610e3d565b34801561045257600080fd5b506101336004803603604081101561046957600080fd5b50803590602001356001600160a01b0316610e54565b34801561048b57600080fd5b50610133600480360360c08110156104a257600080fd5b6001600160a01b0382358116926020810135909116916040820135916060810135916080820135919081019060c0810160a08201356401000000008111156104e957600080fd5b8201836020820111156104fb57600080fd5b8035906020019184600183028401116401000000008311171561051d57600080fd5b509092509050610ead565b60008051602061159983398151915281565b61055260008051602061159983398151915233610a65565b6105a3576040805162461bcd60e51b815260206004820152601e60248201527f536166655472616e736665723a206e6f7420616e20616374697661746f720000604482015290519081900360640190fd5b604080516001600160a01b0380881660208084019190915290871682840152606082018690526080820185905260a08083018590528351808403909101815260c090920183528151918101919091206000818152600290925291902054610651576040805162461bcd60e51b815260206004820152601f60248201527f536166655472616e736665723a2072657175657374206e6f7420657869737400604482015290519081900360640190fd5b6000818152600260205260409020544267ffffffffffffffff821611156106bf576040805162461bcd60e51b815260206004820152601860248201527f536166655472616e6665723a206e6f7420657870697265640000000000000000604482015290519081900360640190fd5b6000828152600260205260408120556001600160a01b0387166108fc6106e5878761114c565b6040518115909202916000818181858888f1935050505015801561070d573d6000803e3d6000fd5b50816001600160a01b038088169089167f2c0f05de664e2354e281c7c55d07fe10e18c61d9b196dbcd318285801b36cde4610748898961114c565b60408051918252519081900360200190a450505050505050565b60015490565b60009081526020819052604090206002015490565b6000828152602081905260409020600201546107a09061079b6111a6565b610a65565b6107db5760405162461bcd60e51b815260040180806020018281038252602f815260200180611549602f913960400191505060405180910390fd5b6107e582826111aa565b5050565b6107f16111a6565b6001600160a01b0316816001600160a01b0316146108405760405162461bcd60e51b815260040180806020018281038252602f8152602001806115e9602f913960400191505060405180910390fd5b6107e58282611213565b6108676001600160801b038216610861878761114c565b9061114c565b34146108ba576040805162461bcd60e51b815260206004820152601c60248201527f536166655472616e736665723a2076616c7565206d69736d6174636800000000604482015290519081900360640190fd5b60008511610908576040805162461bcd60e51b8152602060048201526016602482015275536166655472616e736665723a206e6f2076616c756560501b604482015290519081900360640190fd5b60408051336020808301919091526001600160a01b03891682840152606082018890526080820187905260a08083018790528351808403909101815260c090920183528151918101919091206000818152600290925291902054156109b4576040805162461bcd60e51b815260206004820152601b60248201527f536166655472616e736665723a20726571756573742065786973740000000000604482015290519081900360640190fd5b60008181526002602090815260409182902067ffffffffffffffff861677ffffffffffffffffffffffffffffffff000000000000000086851b16019055815188815290810187905280820186905290516001600160a01b0389169133917fc6daf3f44b892b946e8f054dee61a5c544673a355b8ec6fd0ba713e6e67518db9181900360600190a350505050505050565b6000828152602081905260408120610a5c908361127c565b90505b92915050565b6000828152602081905260408120610a5c9083611288565b610a9560008051602061159983398151915233610a65565b610ae6576040805162461bcd60e51b815260206004820152601e60248201527f536166655472616e736665723a206e6f7420616e20616374697661746f720000604482015290519081900360640190fd5b600154610af3908261129d565b6001556040516001600160a01b0383169082156108fc029083906000818181858888f19350505050158015610b2c573d6000803e3d6000fd5b505050565b600081565b610b40838361114c565b3414610b93576040805162461bcd60e51b815260206004820152601c60248201527f536166655472616e736665723a2076616c7565206d69736d6174636800000000604482015290519081900360640190fd5b60008311610be1576040805162461bcd60e51b8152602060048201526016602482015275536166655472616e736665723a206e6f2076616c756560501b604482015290519081900360640190fd5b60408051336020808301919091526001600160a01b03871682840152606082018690526080820185905260a08083018590528351808403909101815260c09092018352815191810191909120600081815260029092529190205415610c8d576040805162461bcd60e51b815260206004820152601b60248201527f536166655472616e736665723a20726571756573742065786973740000000000604482015290519081900360640190fd5b60008181526002602090815260409182902067ffffffffffffffff9055815186815290810185905280820184905290516001600160a01b0387169133917fc6daf3f44b892b946e8f054dee61a5c544673a355b8ec6fd0ba713e6e67518db9181900360600190a35050505050565b60408051336020808301919091526001600160a01b03871682840152606082018690526080820185905260a08083018590528351808403909101815260c090920183528151918101919091206000818152600290925291902054610da6576040805162461bcd60e51b815260206004820152601f60248201527f536166655472616e736665723a2072657175657374206e6f7420657869737400604482015290519081900360640190fd5b6000818152600260205260408120819055610dc1858561114c565b604051909150339082156108fc029083906000818181858888f19350505050158015610df1573d6000803e3d6000fd5b5060408051828152905183916001600160a01b0389169133917f2c0f05de664e2354e281c7c55d07fe10e18c61d9b196dbcd318285801b36cde4919081900360200190a4505050505050565b6000818152602081905260408120610a5f906112df565b600082815260208190526040902060020154610e729061079b6111a6565b6108405760405162461bcd60e51b81526004018080602001828103825260308152602001806115b96030913960400191505060405180910390fd5b610ec560008051602061159983398151915233610a65565b610f16576040805162461bcd60e51b815260206004820152601e60248201527f536166655472616e736665723a206e6f7420616e20616374697661746f720000604482015290519081900360640190fd5b604080516001600160a01b03808a1660208084019190915290891682840152606082018890526080820187905260a08083018790528351808403909101815260c09092018352815191810191909120600081815260029092529190205480610fc5576040805162461bcd60e51b815260206004820152601f60248201527f536166655472616e736665723a2072657175657374206e6f7420657869737400604482015290519081900360640190fd5b428167ffffffffffffffff161161101a576040805162461bcd60e51b815260206004820152601460248201527314d85999551c985b99995c8e88195e1c1a5c995960621b604482015290519081900360640190fd5b84848460405180838380828437808301925050509250505060405180910390201461108c576040805162461bcd60e51b815260206004820152601a60248201527f536166655472616e736665723a2077726f6e6720736563726574000000000000604482015290519081900360640190fd5b6000828152600260205260408120556001546110a8908761114c565b506040516001600160a01b0389169088156108fc029089906000818181858888f193505050501580156110df573d6000803e3d6000fd5b5081886001600160a01b03168a6001600160a01b03167fa4beac8994bd92afc3cde2236c528ddabf0b78fdd042b6766364a85c6c77f6078a6040518082815260200191505060405180910390a4505050505050505050565b6000610a5c836001600160a01b0384166112ea565b600082820183811015610a5c576040805162461bcd60e51b815260206004820152601b60248201527f536166654d6174683a206164646974696f6e206f766572666c6f770000000000604482015290519081900360640190fd5b3390565b60008281526020819052604090206111c29082611137565b156107e5576111cf6111a6565b6001600160a01b0316816001600160a01b0316837f2f8788117e7eff1d82e926ec794901d17c78024a50270940304540a733656f0d60405160405180910390a45050565b600082815260208190526040902061122b9082611334565b156107e5576112386111a6565b6001600160a01b0316816001600160a01b0316837ff6391f5c32d9c69d2a47ea670b442974b53935d1edc7fd64eb21e047a839171b60405160405180910390a45050565b6000610a5c8383611349565b6000610a5c836001600160a01b0384166113ad565b6000610a5c83836040518060400160405280601e81526020017f536166654d6174683a207375627472616374696f6e206f766572666c6f7700008152506113c5565b6000610a5f8261145c565b60006112f683836113ad565b61132c57508154600181810184556000848152602080822090930184905584548482528286019093526040902091909155610a5f565b506000610a5f565b6000610a5c836001600160a01b038416611460565b8154600090821061138b5760405162461bcd60e51b81526004018080602001828103825260228152602001806115276022913960400191505060405180910390fd5b82600001828154811061139a57fe5b9060005260206000200154905092915050565b60009081526001919091016020526040902054151590565b600081848411156114545760405162461bcd60e51b81526004018080602001828103825283818151815260200191508051906020019080838360005b83811015611419578181015183820152602001611401565b50505050905090810190601f1680156114465780820380516001836020036101000a031916815260200191505b509250505060405180910390fd5b505050900390565b5490565b6000818152600183016020526040812054801561151c578354600019808301919081019060009087908390811061149357fe5b90600052602060002001549050808760000184815481106114b057fe5b6000918252602080832090910192909255828152600189810190925260409020908401905586548790806114e057fe5b60019003818190600052602060002001600090559055866001016000878152602001908152602001600020600090556001945050505050610a5f565b6000915050610a5f56fe456e756d657261626c655365743a20696e646578206f7574206f6620626f756e6473416363657373436f6e74726f6c3a2073656e646572206d75737420626520616e2061646d696e20746f206772616e74536166655472616e736665723a206e6f7420616363657074696e67206574686572ec5aad7bdface20c35bc02d6d2d5760df981277427368525d634f4e2603ea192416363657373436f6e74726f6c3a2073656e646572206d75737420626520616e2061646d696e20746f207265766f6b65416363657373436f6e74726f6c3a2063616e206f6e6c792072656e6f756e636520726f6c657320666f722073656c66a2646970667358221220c183da623fc82c839fe579b3f0703447467ea2ec57db416622bcdc6e35fda1df64736f6c634300060c0033ec5aad7bdface20c35bc02d6d2d5760df981277427368525d634f4e2603ea192",
  "immutableReferences": {},
  "source": "// SPDX-License-Identifier: MIT\n\npragma solidity 0.6.12;\n\nimport \"../node_modules/@openzeppelin/contracts/math/SafeMath.sol\";\nimport \"../node_modules/@openzeppelin/contracts/access/AccessControl.sol\";\n\ncontract SafeTransfer is AccessControl {\n    using SafeMath for uint256;\n\n    // keccak256(\"ACTIVATOR_ROLE\");\n    bytes32 public constant ACTIVATOR_ROLE = 0xec5aad7bdface20c35bc02d6d2d5760df981277427368525d634f4e2603ea192;\n\n    uint256 s_fees;\n    mapping(bytes32 => uint256) s_transfers;\n\n    event Deposited(address indexed from, address indexed to, uint256 value, uint256 fees, bytes32 secretHash);\n    event SafeDeposited(address indexed from, uint256 value, uint256 fees, bytes32 secretHash, uint64 expiresAt, uint192 depositFees);\n    event Retrieved(address indexed from, address indexed to, bytes32 indexed id, uint256 value);    \n    event Collected(address indexed from, address indexed to, bytes32 indexed id, uint256 value);\n\n    modifier onlyActivator() {\n        require(hasRole(ACTIVATOR_ROLE, msg.sender), \"SafeTransfer: not an activator\");    \n        _;\n    }\n\n    constructor (address activator) public {\n        _setupRole(DEFAULT_ADMIN_ROLE, msg.sender);\n        _setupRole(ACTIVATOR_ROLE, msg.sender);\n        _setupRole(ACTIVATOR_ROLE, activator);\n    }\n\n    receive () external payable {\n        require(false, \"SafeTransfer: not accepting ether\");\n    }\n\n    function collectFees(address payable wallet, uint256 amount) external onlyActivator() {\n        s_fees = s_fees.sub(amount);\n        wallet.transfer(amount);\n    }\n\n    function totalFees() external view returns (uint256) {\n        return s_fees;\n    }\n\n    // ---------------------------------------------------------------------------\n\n    function deposit(\n        address payable to,\n        uint256 value,\n        uint256 fees,\n        bytes32 secretHash\n    ) \n        payable external\n    {\n        require(msg.value == value.add(fees), \"SafeTransfer: value mismatch\");\n        require(value > 0, \"SafeTransfer: no value\");\n        bytes32 id = keccak256(abi.encode(msg.sender, to, value, fees, secretHash));\n        require(s_transfers[id] == 0, \"SafeTransfer: request exist\"); \n        s_transfers[id] = 0xffffffffffffffff; // expiresAt: max, depositFees: 0\n        emit Deposited(msg.sender, to, value, fees, secretHash);\n    }\n\n    function timedDeposit(\n        address payable to,\n        uint256 value,\n        uint256 fees,\n        bytes32 secretHash,\n        uint64 expiresAt,\n        uint128 depositFees\n    ) \n        payable external\n    {\n        require(msg.value == value.add(fees).add(depositFees), \"SafeTransfer: value mismatch\");\n        require(value > 0, \"SafeTransfer: no value\");\n        bytes32 id = keccak256(abi.encode(msg.sender, to, value, fees, secretHash));\n        require(s_transfers[id] == 0, \"SafeTransfer: request exist\"); \n        s_transfers[id] = uint256(expiresAt) + (uint256(depositFees) << 64);\n        emit Deposited(msg.sender, to, value, fees, secretHash);\n    }\n\n    function retrieve(\n        address payable to,\n        uint256 value,\n        uint256 fees,\n        bytes32 secretHash\n    )   \n        external \n    {\n        bytes32 id = keccak256(abi.encode(msg.sender, to, value, fees, secretHash));\n        require(s_transfers[id]  > 0, \"SafeTransfer: request not exist\");\n        delete s_transfers[id];\n        uint256 valueToSend = value.add(fees);\n        msg.sender.transfer(valueToSend);\n        emit Retrieved(msg.sender, to, id, valueToSend);\n    }\n\n    function collect(\n        address from,\n        address payable to,\n        uint256 value,\n        uint256 fees,\n        bytes32 secretHash,\n        bytes calldata secret\n    ) \n        external\n        onlyActivator()\n    {\n        bytes32 id = keccak256(abi.encode(from, to, value, fees, secretHash));\n        uint256 tr = s_transfers[id];\n        require(tr > 0, \"SafeTransfer: request not exist\");\n        require(uint64(tr) > now, \"SafeTranfer: expired\");\n        require(keccak256(secret) == secretHash, \"SafeTransfer: wrong secret\");\n        delete s_transfers[id];\n        s_fees.add(fees);\n        to.transfer(value);\n        emit Collected(from, to, id, value);\n    }\n\n   function cancel(\n        address payable from,\n        address to,\n        uint256 value,\n        uint256 fees,\n        bytes32 secretHash\n    ) \n        external\n        onlyActivator()\n    {\n        bytes32 id = keccak256(abi.encode(from, to, value, fees, secretHash));\n        require(s_transfers[id] > 0, \"SafeTransfer: request not exist\");\n        uint256 tr = s_transfers[id];\n        require(uint64(tr) <= now, \"SafeTranfer: not expired\");\n        delete  s_transfers[id];\n        from.transfer(value.add(fees));\n        emit Retrieved(from, to, id, value.add(fees));\n    }\n\n}\n",
  "sourcePath": "/Users/Tal/code/kirobo/ki-eth-token/contracts/SafeTransfer.sol",
  "compiler": {
    "name": "solc",
    "version": "0.6.12+commit.27d51765.Emscripten.clang"
  },
  "schemaVersion": "3.2.0",
  "updatedAt": "2020-10-25T23:55:24.427Z",
  "devdoc": {
    "kind": "dev",
    "methods": {
      "getRoleAdmin(bytes32)": {
        "details": "Returns the admin role that controls `role`. See {grantRole} and {revokeRole}. To change a role's admin, use {_setRoleAdmin}."
      },
      "getRoleMember(bytes32,uint256)": {
        "details": "Returns one of the accounts that have `role`. `index` must be a value between 0 and {getRoleMemberCount}, non-inclusive. Role bearers are not sorted in any particular way, and their ordering may change at any point. WARNING: When using {getRoleMember} and {getRoleMemberCount}, make sure you perform all queries on the same block. See the following https://forum.openzeppelin.com/t/iterating-over-elements-on-enumerableset-in-openzeppelin-contracts/2296[forum post] for more information."
      },
      "getRoleMemberCount(bytes32)": {
        "details": "Returns the number of accounts that have `role`. Can be used together with {getRoleMember} to enumerate all bearers of a role."
      },
      "grantRole(bytes32,address)": {
        "details": "Grants `role` to `account`. If `account` had not been already granted `role`, emits a {RoleGranted} event. Requirements: - the caller must have ``role``'s admin role."
      },
      "hasRole(bytes32,address)": {
        "details": "Returns `true` if `account` has been granted `role`."
      },
      "renounceRole(bytes32,address)": {
        "details": "Revokes `role` from the calling account. Roles are often managed via {grantRole} and {revokeRole}: this function's purpose is to provide a mechanism for accounts to lose their privileges if they are compromised (such as when a trusted device is misplaced). If the calling account had been granted `role`, emits a {RoleRevoked} event. Requirements: - the caller must be `account`."
      },
      "revokeRole(bytes32,address)": {
        "details": "Revokes `role` from `account`. If `account` had been granted `role`, emits a {RoleRevoked} event. Requirements: - the caller must have ``role``'s admin role."
      }
    },
    "version": 1
  },
  "userdoc": {
    "kind": "user",
    "methods": {},
    "version": 1
  }
}