{
  "contractName": "SafeTransfer",
  "abi": [
    {
      "inputs": [],
      "stateMutability": "nonpayable",
      "type": "constructor"
    },
    {
      "stateMutability": "payable",
      "type": "receive"
    },
    {
      "inputs": [
        {
          "internalType": "address payable",
          "name": "to",
          "type": "address"
        },
        {
          "internalType": "uint256",
          "name": "value",
          "type": "uint256"
        },
        {
          "internalType": "uint256",
          "name": "fee",
          "type": "uint256"
        },
        {
          "internalType": "bytes32",
          "name": "secretHash",
          "type": "bytes32"
        }
      ],
      "name": "transfer",
      "outputs": [],
      "stateMutability": "payable",
      "type": "function"
    },
    {
      "inputs": [
        {
          "internalType": "uint256",
          "name": "index",
          "type": "uint256"
        }
      ],
      "name": "retrieve",
      "outputs": [],
      "stateMutability": "nonpayable",
      "type": "function"
    },
    {
      "inputs": [
        {
          "internalType": "address",
          "name": "from",
          "type": "address"
        },
        {
          "internalType": "uint256",
          "name": "index",
          "type": "uint256"
        },
        {
          "internalType": "bytes",
          "name": "secret",
          "type": "bytes"
        }
      ],
      "name": "collect",
      "outputs": [],
      "stateMutability": "nonpayable",
      "type": "function"
    },
    {
      "inputs": [],
      "name": "collectFees",
      "outputs": [],
      "stateMutability": "nonpayable",
      "type": "function"
    }
  ],
  "bytecode": "0x608060405234801561001057600080fd5b5061062a806100206000396000f3fe6080604052600436106100435760003560e01c80632ed59d7d1461009c5780635c09329c1461012e5780638f88708b14610166578063c87965721461019057610097565b36610097576040805162461bcd60e51b815260206004820152601b60248201527f4d696e7465723a206e6f7420616363657074696e672065746865720000000000604482015290519081900360640190fd5b005b600080fd5b3480156100a857600080fd5b50610095600480360360608110156100bf57600080fd5b6001600160a01b03823516916020810135918101906060810160408201356401000000008111156100ef57600080fd5b82018360208201111561010157600080fd5b8035906020019184600183028401116401000000008311171561012357600080fd5b5090925090506101a5565b6100956004803603608081101561014457600080fd5b506001600160a01b0381351690602081013590604081013590606001356102f1565b34801561017257600080fd5b506100956004803603602081101561018957600080fd5b50356103c7565b34801561019c57600080fd5b5061009561046d565b6001600160a01b03808516600090815260016020526040902080549091166101fe5760405162461bcd60e51b81526004018080602001828103825260238152602001806105d26023913960400191505060405180910390fd5b80600301548383604051808383808284378083019250505092505050604051809103902014610274576040805162461bcd60e51b815260206004820152601a60248201527f536166655472616e736665723a2077726f6e6720736563726574000000000000604482015290519081900360640190fd5b60018082015482543360009081526020849052604080822080546001600160a01b0319168155948501829055600285018290556003909401819055925191926001600160a01b0390911691829184156108fc02918591818181858888f193505050501580156102e7573d6000803e3d6000fd5b5050505050505050565b6102fb838361049c565b341461034e576040805162461bcd60e51b815260206004820152601c60248201527f536166655472616e736665723a2076616c7565206d69736d6174636800000000604482015290519081900360640190fd5b604080516080810182526001600160a01b038681168252602080830187815283850187815260608501878152336000908152600194859052968720955186546001600160a01b031916951694909417855590519184019190915551600283015551600390910155546103c0908361049c565b5050505050565b33600090815260016020819052604082206002810154918101549092916103ee919061049c565b905061040982600201546000546104fd90919063ffffffff16565b5033600081815260016020819052604080832080546001600160a01b03191681559182018390556002820183905560039091018290555183156108fc0291849190818181858888f19350505050158015610467573d6000803e3d6000fd5b50505050565b600080805560405133916108fc9181818181818888f19350505050158015610499573d6000803e3d6000fd5b50565b6000828201838110156104f6576040805162461bcd60e51b815260206004820152601b60248201527f536166654d6174683a206164646974696f6e206f766572666c6f770000000000604482015290519081900360640190fd5b9392505050565b60006104f683836040518060400160405280601e81526020017f536166654d6174683a207375627472616374696f6e206f766572666c6f770000815250600081848411156105c95760405162461bcd60e51b81526004018080602001828103825283818151815260200191508051906020019080838360005b8381101561058e578181015183820152602001610576565b50505050905090810190601f1680156105bb5780820380516001836020036101000a031916815260200191505b509250505060405180910390fd5b50505090039056fe536166655472616e736665723a2064657374696e6174696f6e206e6f7420666f756e64a2646970667358221220a5f899482f54df2d269ab2687ac6dc14a403f7935c96f4d63083f1999ba5931264736f6c634300060c0033",
  "immutableReferences": {},
  "source": "// SPDX-License-Identifier: MIT\n\npragma solidity 0.6.12;\n\nimport \"../node_modules/@openzeppelin/contracts/math/SafeMath.sol\";\n\ncontract SafeTransfer {\n    using SafeMath for uint256;\n\n    struct Transfer {\n        address payable to;\n        uint256 value;\n        uint256 fee;\n        bytes32 secretHash;\n    }\n\n    uint256 s_fees;\n\n    mapping(address => Transfer) s_transfers;\n\n    constructor () public {\n    }\n\n    receive () external payable {\n        require(false, \"Minter: not accepting ether\");\n    }\n\n    function transfer(address payable to, uint256 value, uint256 fee, bytes32 secretHash) payable external {\n        require(msg.value == value.add(fee), \"SafeTransfer: value mismatch\");\n        s_transfers[msg.sender] = Transfer({ to:to, value:value, fee: fee, secretHash:secretHash });\n        s_fees.add(fee);\n    }\n    \n    function retrieve(uint256 index) external {\n        Transfer storage tr = s_transfers[msg.sender];\n        uint256 value = tr.value.add(tr.fee);\n        s_fees.sub(tr.fee);\n        delete s_transfers[msg.sender];\n        msg.sender.transfer(value);\n    }\n\n    function collect(address from, uint256 index, bytes calldata secret) external {\n        Transfer storage tr = s_transfers[from];\n        require(tr.to != address(0x0), \"SafeTransfer: destination not found\");\n        require(keccak256(secret) == tr.secretHash, \"SafeTransfer: wrong secret\");\n        uint256 value = tr.value;\n        address payable to = tr.to;\n        delete s_transfers[msg.sender];\n        to.transfer(value);\n    }\n\n    function collectFees() external {\n        s_fees = 0;\n        msg.sender.transfer(s_fees);\n    }\n\n}\n",
  "sourcePath": "/Users/Tal/code/kirobo/ki-eth-token/contracts/SafeTransfer.sol",
  "compiler": {
    "name": "solc",
    "version": "0.6.12+commit.27d51765.Emscripten.clang"
  },
  "schemaVersion": "3.2.0",
  "updatedAt": "2020-10-19T08:47:46.184Z",
  "devdoc": {
    "kind": "dev",
    "methods": {},
    "version": 1
  },
  "userdoc": {
    "kind": "user",
    "methods": {},
    "version": 1
  }
}