{
  "contractName": "SafeForERC1155",
  "abi": [
    {
      "inputs": [
        {
          "internalType": "address",
          "name": "activator",
          "type": "address"
        }
      ],
      "stateMutability": "nonpayable",
      "type": "constructor"
    },
    {
      "anonymous": false,
      "inputs": [
        {
          "indexed": true,
          "internalType": "address",
          "name": "token",
          "type": "address"
        },
        {
          "indexed": true,
          "internalType": "address",
          "name": "from",
          "type": "address"
        },
        {
          "indexed": true,
          "internalType": "address",
          "name": "to",
          "type": "address"
        },
        {
          "indexed": false,
          "internalType": "uint256[]",
          "name": "tokenIds",
          "type": "uint256[]"
        },
        {
          "indexed": false,
          "internalType": "uint256[]",
          "name": "values",
          "type": "uint256[]"
        }
      ],
      "name": "ERC1155BatchCollected",
      "type": "event"
    },
    {
      "anonymous": false,
      "inputs": [
        {
          "indexed": true,
          "internalType": "address",
          "name": "token",
          "type": "address"
        },
        {
          "indexed": true,
          "internalType": "address",
          "name": "from",
          "type": "address"
        },
        {
          "indexed": true,
          "internalType": "address",
          "name": "to",
          "type": "address"
        },
        {
          "indexed": false,
          "internalType": "uint256[]",
          "name": "tokenIds",
          "type": "uint256[]"
        },
        {
          "indexed": false,
          "internalType": "uint256[]",
          "name": "values",
          "type": "uint256[]"
        },
        {
          "indexed": false,
          "internalType": "uint256",
          "name": "fees",
          "type": "uint256"
        },
        {
          "indexed": false,
          "internalType": "bytes32",
          "name": "secretHash",
          "type": "bytes32"
        }
      ],
      "name": "ERC1155BatchTransferDeposited",
      "type": "event"
    },
    {
      "anonymous": false,
      "inputs": [
        {
          "indexed": true,
          "internalType": "address",
          "name": "token",
          "type": "address"
        },
        {
          "indexed": true,
          "internalType": "address",
          "name": "from",
          "type": "address"
        },
        {
          "indexed": true,
          "internalType": "address",
          "name": "to",
          "type": "address"
        },
        {
          "indexed": false,
          "internalType": "uint256[]",
          "name": "tokenIds",
          "type": "uint256[]"
        },
        {
          "indexed": false,
          "internalType": "uint256[]",
          "name": "values",
          "type": "uint256[]"
        }
      ],
      "name": "ERC1155BatchTransferRetrieved",
      "type": "event"
    },
    {
      "anonymous": false,
      "inputs": [
        {
          "indexed": true,
          "internalType": "address",
          "name": "token",
          "type": "address"
        },
        {
          "indexed": true,
          "internalType": "address",
          "name": "from",
          "type": "address"
        },
        {
          "indexed": true,
          "internalType": "address",
          "name": "to",
          "type": "address"
        },
        {
          "indexed": false,
          "internalType": "uint256",
          "name": "tokenId",
          "type": "uint256"
        },
        {
          "indexed": false,
          "internalType": "uint256",
          "name": "value",
          "type": "uint256"
        }
      ],
      "name": "ERC1155Collected",
      "type": "event"
    },
    {
      "anonymous": false,
      "inputs": [
        {
          "indexed": true,
          "internalType": "address",
          "name": "from",
          "type": "address"
        },
        {
          "indexed": true,
          "internalType": "address",
          "name": "to",
          "type": "address"
        },
        {
          "indexed": true,
          "internalType": "address",
          "name": "token0",
          "type": "address"
        },
        {
          "indexed": false,
          "internalType": "uint256[]",
          "name": "tokenId0",
          "type": "uint256[]"
        },
        {
          "indexed": false,
          "internalType": "uint256[]",
          "name": "value0",
          "type": "uint256[]"
        },
        {
          "indexed": false,
          "internalType": "uint256",
          "name": "fees0",
          "type": "uint256"
        },
        {
          "indexed": false,
          "internalType": "address",
          "name": "token1",
          "type": "address"
        },
        {
          "indexed": false,
          "internalType": "uint256[]",
          "name": "tokenId1",
          "type": "uint256[]"
        },
        {
          "indexed": false,
          "internalType": "uint256[]",
          "name": "value1",
          "type": "uint256[]"
        },
        {
          "indexed": false,
          "internalType": "uint256",
          "name": "fees1",
          "type": "uint256"
        },
        {
          "indexed": false,
          "internalType": "bytes32",
          "name": "secretHash",
          "type": "bytes32"
        }
      ],
      "name": "ERC1155SwapDeposited",
      "type": "event"
    },
    {
      "anonymous": false,
      "inputs": [
        {
          "indexed": true,
          "internalType": "address",
          "name": "token",
          "type": "address"
        },
        {
          "indexed": true,
          "internalType": "uint256[]",
          "name": "tokenId",
          "type": "uint256[]"
        },
        {
          "indexed": true,
          "internalType": "address",
          "name": "from",
          "type": "address"
        },
        {
          "indexed": false,
          "internalType": "address",
          "name": "to",
          "type": "address"
        },
        {
          "indexed": false,
          "internalType": "bytes32",
          "name": "id",
          "type": "bytes32"
        },
        {
          "indexed": false,
          "internalType": "uint256[]",
          "name": "value",
          "type": "uint256[]"
        }
      ],
      "name": "ERC1155SwapRetrieved",
      "type": "event"
    },
    {
      "anonymous": false,
      "inputs": [
        {
          "indexed": true,
          "internalType": "address",
          "name": "from",
          "type": "address"
        },
        {
          "indexed": true,
          "internalType": "address",
          "name": "to",
          "type": "address"
        },
        {
          "indexed": true,
          "internalType": "address",
          "name": "token0",
          "type": "address"
        },
        {
          "indexed": false,
          "internalType": "uint256[]",
          "name": "tokenId0",
          "type": "uint256[]"
        },
        {
          "indexed": false,
          "internalType": "uint256[]",
          "name": "value0",
          "type": "uint256[]"
        },
        {
          "indexed": false,
          "internalType": "address",
          "name": "token1",
          "type": "address"
        },
        {
          "indexed": false,
          "internalType": "uint256[]",
          "name": "tokenId1",
          "type": "uint256[]"
        },
        {
          "indexed": false,
          "internalType": "uint256[]",
          "name": "value1",
          "type": "uint256[]"
        },
        {
          "indexed": false,
          "internalType": "bytes32",
          "name": "id",
          "type": "bytes32"
        }
      ],
      "name": "ERC1155Swapped",
      "type": "event"
    },
    {
      "anonymous": false,
      "inputs": [
        {
          "indexed": true,
          "internalType": "address",
          "name": "token",
          "type": "address"
        },
        {
          "indexed": true,
          "internalType": "address",
          "name": "from",
          "type": "address"
        },
        {
          "indexed": true,
          "internalType": "address",
          "name": "to",
          "type": "address"
        },
        {
          "indexed": false,
          "internalType": "uint256",
          "name": "tokenId",
          "type": "uint256"
        },
        {
          "indexed": false,
          "internalType": "uint256",
          "name": "value",
          "type": "uint256"
        },
        {
          "indexed": false,
          "internalType": "uint256",
          "name": "fees",
          "type": "uint256"
        },
        {
          "indexed": false,
          "internalType": "bytes32",
          "name": "secretHash",
          "type": "bytes32"
        }
      ],
      "name": "ERC1155TransferDeposited",
      "type": "event"
    },
    {
      "anonymous": false,
      "inputs": [
        {
          "indexed": true,
          "internalType": "address",
          "name": "token",
          "type": "address"
        },
        {
          "indexed": true,
          "internalType": "address",
          "name": "from",
          "type": "address"
        },
        {
          "indexed": true,
          "internalType": "address",
          "name": "to",
          "type": "address"
        },
        {
          "indexed": false,
          "internalType": "uint256",
          "name": "tokenId",
          "type": "uint256"
        },
        {
          "indexed": false,
          "internalType": "uint256",
          "name": "value",
          "type": "uint256"
        }
      ],
      "name": "ERC1155TransferRetrieved",
      "type": "event"
    },
    {
      "anonymous": false,
      "inputs": [
        {
          "indexed": true,
          "internalType": "address",
          "name": "token",
          "type": "address"
        },
        {
          "indexed": true,
          "internalType": "address",
          "name": "from",
          "type": "address"
        },
        {
          "indexed": true,
          "internalType": "address",
          "name": "to",
          "type": "address"
        },
        {
          "indexed": false,
          "internalType": "bytes32",
          "name": "id",
          "type": "bytes32"
        },
        {
          "indexed": false,
          "internalType": "uint256[]",
          "name": "tokenId",
          "type": "uint256[]"
        }
      ],
      "name": "ERC721Retrieved",
      "type": "event"
    },
    {
      "anonymous": false,
      "inputs": [
        {
          "indexed": true,
          "internalType": "address",
          "name": "from",
          "type": "address"
        },
        {
          "indexed": true,
          "internalType": "address",
          "name": "to",
          "type": "address"
        },
        {
          "indexed": true,
          "internalType": "bytes32",
          "name": "id",
          "type": "bytes32"
        },
        {
          "indexed": false,
          "internalType": "uint256",
          "name": "value",
          "type": "uint256"
        }
      ],
      "name": "Retrieved",
      "type": "event"
    },
    {
      "anonymous": false,
      "inputs": [
        {
          "indexed": true,
          "internalType": "bytes32",
          "name": "role",
          "type": "bytes32"
        },
        {
          "indexed": true,
          "internalType": "bytes32",
          "name": "previousAdminRole",
          "type": "bytes32"
        },
        {
          "indexed": true,
          "internalType": "bytes32",
          "name": "newAdminRole",
          "type": "bytes32"
        }
      ],
      "name": "RoleAdminChanged",
      "type": "event"
    },
    {
      "anonymous": false,
      "inputs": [
        {
          "indexed": true,
          "internalType": "bytes32",
          "name": "role",
          "type": "bytes32"
        },
        {
          "indexed": true,
          "internalType": "address",
          "name": "account",
          "type": "address"
        },
        {
          "indexed": true,
          "internalType": "address",
          "name": "sender",
          "type": "address"
        }
      ],
      "name": "RoleGranted",
      "type": "event"
    },
    {
      "anonymous": false,
      "inputs": [
        {
          "indexed": true,
          "internalType": "bytes32",
          "name": "role",
          "type": "bytes32"
        },
        {
          "indexed": true,
          "internalType": "address",
          "name": "account",
          "type": "address"
        },
        {
          "indexed": true,
          "internalType": "address",
          "name": "sender",
          "type": "address"
        }
      ],
      "name": "RoleRevoked",
      "type": "event"
    },
    {
      "anonymous": false,
      "inputs": [
        {
          "indexed": true,
          "internalType": "address",
          "name": "from",
          "type": "address"
        },
        {
          "indexed": true,
          "internalType": "address",
          "name": "to",
          "type": "address"
        },
        {
          "indexed": true,
          "internalType": "address",
          "name": "token0",
          "type": "address"
        },
        {
          "indexed": false,
          "internalType": "uint256[]",
          "name": "tokenIds0",
          "type": "uint256[]"
        },
        {
          "indexed": false,
          "internalType": "uint256[]",
          "name": "values0",
          "type": "uint256[]"
        },
        {
          "indexed": false,
          "internalType": "uint256",
          "name": "fees0",
          "type": "uint256"
        },
        {
          "indexed": false,
          "internalType": "address",
          "name": "token1",
          "type": "address"
        },
        {
          "indexed": false,
          "internalType": "uint256",
          "name": "value1",
          "type": "uint256"
        },
        {
          "indexed": false,
          "internalType": "uint256",
          "name": "fees1",
          "type": "uint256"
        },
        {
          "indexed": false,
          "internalType": "bytes32",
          "name": "secretHash",
          "type": "bytes32"
        }
      ],
      "name": "swapDepositERC1155ToERC20Event",
      "type": "event"
    },
    {
      "inputs": [],
      "name": "ACTIVATOR_ROLE",
      "outputs": [
        {
          "internalType": "bytes32",
          "name": "",
          "type": "bytes32"
        }
      ],
      "stateMutability": "view",
      "type": "function"
    },
    {
      "inputs": [],
      "name": "CHAIN_ID",
      "outputs": [
        {
          "internalType": "uint256",
          "name": "",
          "type": "uint256"
        }
      ],
      "stateMutability": "view",
      "type": "function"
    },
    {
      "inputs": [],
      "name": "DEFAULT_ADMIN_ROLE",
      "outputs": [
        {
          "internalType": "bytes32",
          "name": "",
          "type": "bytes32"
        }
      ],
      "stateMutability": "view",
      "type": "function"
    },
    {
      "inputs": [],
      "name": "DOMAIN_SEPARATOR",
      "outputs": [
        {
          "internalType": "bytes32",
          "name": "",
          "type": "bytes32"
        }
      ],
      "stateMutability": "view",
      "type": "function"
    },
    {
      "inputs": [],
      "name": "NAME",
      "outputs": [
        {
          "internalType": "string",
          "name": "",
          "type": "string"
        }
      ],
      "stateMutability": "view",
      "type": "function"
    },
    {
      "inputs": [],
      "name": "VERSION",
      "outputs": [
        {
          "internalType": "string",
          "name": "",
          "type": "string"
        }
      ],
      "stateMutability": "view",
      "type": "function"
    },
    {
      "inputs": [],
      "name": "VERSION_NUMBER",
      "outputs": [
        {
          "internalType": "uint8",
          "name": "",
          "type": "uint8"
        }
      ],
      "stateMutability": "view",
      "type": "function"
    },
    {
      "inputs": [
        {
          "internalType": "bytes32",
          "name": "role",
          "type": "bytes32"
        }
      ],
      "name": "getRoleAdmin",
      "outputs": [
        {
          "internalType": "bytes32",
          "name": "",
          "type": "bytes32"
        }
      ],
      "stateMutability": "view",
      "type": "function"
    },
    {
      "inputs": [
        {
          "internalType": "bytes32",
          "name": "role",
          "type": "bytes32"
        },
        {
          "internalType": "uint256",
          "name": "index",
          "type": "uint256"
        }
      ],
      "name": "getRoleMember",
      "outputs": [
        {
          "internalType": "address",
          "name": "",
          "type": "address"
        }
      ],
      "stateMutability": "view",
      "type": "function"
    },
    {
      "inputs": [
        {
          "internalType": "bytes32",
          "name": "role",
          "type": "bytes32"
        }
      ],
      "name": "getRoleMemberCount",
      "outputs": [
        {
          "internalType": "uint256",
          "name": "",
          "type": "uint256"
        }
      ],
      "stateMutability": "view",
      "type": "function"
    },
    {
      "inputs": [
        {
          "internalType": "bytes32",
          "name": "role",
          "type": "bytes32"
        },
        {
          "internalType": "address",
          "name": "account",
          "type": "address"
        }
      ],
      "name": "grantRole",
      "outputs": [],
      "stateMutability": "nonpayable",
      "type": "function"
    },
    {
      "inputs": [
        {
          "internalType": "bytes32",
          "name": "role",
          "type": "bytes32"
        },
        {
          "internalType": "address",
          "name": "account",
          "type": "address"
        }
      ],
      "name": "hasRole",
      "outputs": [
        {
          "internalType": "bool",
          "name": "",
          "type": "bool"
        }
      ],
      "stateMutability": "view",
      "type": "function"
    },
    {
      "inputs": [
        {
          "internalType": "bytes32",
          "name": "role",
          "type": "bytes32"
        },
        {
          "internalType": "address",
          "name": "account",
          "type": "address"
        }
      ],
      "name": "renounceRole",
      "outputs": [],
      "stateMutability": "nonpayable",
      "type": "function"
    },
    {
      "inputs": [
        {
          "internalType": "bytes32",
          "name": "role",
          "type": "bytes32"
        },
        {
          "internalType": "address",
          "name": "account",
          "type": "address"
        }
      ],
      "name": "revokeRole",
      "outputs": [],
      "stateMutability": "nonpayable",
      "type": "function"
    },
    {
      "stateMutability": "payable",
      "type": "receive"
    },
    {
      "inputs": [
        {
          "internalType": "address payable",
          "name": "wallet",
          "type": "address"
        },
        {
          "internalType": "uint256",
          "name": "value",
          "type": "uint256"
        }
      ],
      "name": "transferFees",
      "outputs": [],
      "stateMutability": "nonpayable",
      "type": "function"
    },
    {
      "inputs": [],
      "name": "totalFees",
      "outputs": [
        {
          "internalType": "uint256",
          "name": "",
          "type": "uint256"
        }
      ],
      "stateMutability": "view",
      "type": "function"
    },
    {
      "inputs": [
        {
          "internalType": "address",
          "name": "token",
          "type": "address"
        },
        {
          "internalType": "address",
          "name": "to",
          "type": "address"
        },
        {
          "internalType": "uint256",
          "name": "tokenId",
          "type": "uint256"
        },
        {
          "internalType": "uint256",
          "name": "value",
          "type": "uint256"
        },
        {
          "internalType": "bytes",
          "name": "tokenData",
          "type": "bytes"
        },
        {
          "internalType": "uint256",
          "name": "fees",
          "type": "uint256"
        },
        {
          "internalType": "bytes32",
          "name": "secretHash",
          "type": "bytes32"
        }
      ],
      "name": "depositERC1155",
      "outputs": [],
      "stateMutability": "payable",
      "type": "function"
    },
    {
      "inputs": [
        {
          "internalType": "address",
          "name": "token",
          "type": "address"
        },
        {
          "internalType": "address",
          "name": "to",
          "type": "address"
        },
        {
          "internalType": "uint256",
          "name": "tokenId",
          "type": "uint256"
        },
        {
          "internalType": "uint256",
          "name": "value",
          "type": "uint256"
        },
        {
          "internalType": "bytes",
          "name": "tokenData",
          "type": "bytes"
        },
        {
          "internalType": "uint256",
          "name": "fees",
          "type": "uint256"
        },
        {
          "internalType": "bytes32",
          "name": "secretHash",
          "type": "bytes32"
        }
      ],
      "name": "retrieveERC1155",
      "outputs": [],
      "stateMutability": "nonpayable",
      "type": "function"
    },
    {
      "inputs": [
        {
          "internalType": "address",
          "name": "token",
          "type": "address"
        },
        {
          "internalType": "address",
          "name": "from",
          "type": "address"
        },
        {
          "internalType": "address payable",
          "name": "to",
          "type": "address"
        },
        {
          "internalType": "uint256",
          "name": "tokenId",
          "type": "uint256"
        },
        {
          "internalType": "uint256",
          "name": "value",
          "type": "uint256"
        },
        {
          "internalType": "bytes",
          "name": "tokenData",
          "type": "bytes"
        },
        {
          "internalType": "uint256",
          "name": "fees",
          "type": "uint256"
        },
        {
          "internalType": "bytes32",
          "name": "secretHash",
          "type": "bytes32"
        },
        {
          "internalType": "bytes",
          "name": "secret",
          "type": "bytes"
        }
      ],
      "name": "collectERC1155",
      "outputs": [],
      "stateMutability": "nonpayable",
      "type": "function"
    },
    {
      "inputs": [
        {
          "internalType": "address",
          "name": "token",
          "type": "address"
        },
        {
          "internalType": "address",
          "name": "to",
          "type": "address"
        },
        {
          "internalType": "uint256[]",
          "name": "tokenIds",
          "type": "uint256[]"
        },
        {
          "internalType": "uint256[]",
          "name": "values",
          "type": "uint256[]"
        },
        {
          "internalType": "bytes",
          "name": "tokenData",
          "type": "bytes"
        },
        {
          "internalType": "uint256",
          "name": "fees",
          "type": "uint256"
        },
        {
          "internalType": "bytes32",
          "name": "secretHash",
          "type": "bytes32"
        }
      ],
      "name": "depositBatchERC1155",
      "outputs": [],
      "stateMutability": "payable",
      "type": "function"
    },
    {
      "inputs": [
        {
          "internalType": "address",
          "name": "token",
          "type": "address"
        },
        {
          "internalType": "address",
          "name": "to",
          "type": "address"
        },
        {
          "internalType": "uint256[]",
          "name": "tokenIds",
          "type": "uint256[]"
        },
        {
          "internalType": "uint256[]",
          "name": "values",
          "type": "uint256[]"
        },
        {
          "internalType": "bytes",
          "name": "tokenData",
          "type": "bytes"
        },
        {
          "internalType": "uint256",
          "name": "fees",
          "type": "uint256"
        },
        {
          "internalType": "bytes32",
          "name": "secretHash",
          "type": "bytes32"
        }
      ],
      "name": "retrieveBatchERC1155",
      "outputs": [],
      "stateMutability": "nonpayable",
      "type": "function"
    },
    {
      "inputs": [
        {
          "internalType": "address",
          "name": "to",
          "type": "address"
        },
        {
          "internalType": "address",
          "name": "from",
          "type": "address"
        },
        {
          "components": [
            {
              "internalType": "address",
              "name": "token",
              "type": "address"
            },
            {
              "internalType": "uint256[]",
              "name": "tokenIds",
              "type": "uint256[]"
            },
            {
              "internalType": "uint256[]",
              "name": "values",
              "type": "uint256[]"
            },
            {
              "internalType": "bytes",
              "name": "tokenData",
              "type": "bytes"
            },
            {
              "internalType": "uint256",
              "name": "fees",
              "type": "uint256"
            },
            {
              "internalType": "bytes32",
              "name": "secretHash",
              "type": "bytes32"
            },
            {
              "internalType": "bytes",
              "name": "secret",
              "type": "bytes"
            }
          ],
          "internalType": "struct SafeForERC1155.CollectBatchERC1155Info",
          "name": "info",
          "type": "tuple"
        }
      ],
      "name": "collectBatchERC1155",
      "outputs": [],
      "stateMutability": "nonpayable",
      "type": "function"
    },
    {
      "inputs": [
        {
          "internalType": "address payable",
          "name": "to",
          "type": "address"
        },
        {
          "components": [
            {
              "internalType": "address",
              "name": "token0",
              "type": "address"
            },
            {
              "internalType": "uint256[]",
              "name": "tokenId0",
              "type": "uint256[]"
            },
            {
              "internalType": "uint256[]",
              "name": "value0",
              "type": "uint256[]"
            },
            {
              "internalType": "bytes",
              "name": "tokenData0",
              "type": "bytes"
            },
            {
              "internalType": "uint256",
              "name": "fees0",
              "type": "uint256"
            },
            {
              "internalType": "address",
              "name": "token1",
              "type": "address"
            },
            {
              "internalType": "uint256[]",
              "name": "tokenId1",
              "type": "uint256[]"
            },
            {
              "internalType": "uint256[]",
              "name": "value1",
              "type": "uint256[]"
            },
            {
              "internalType": "bytes",
              "name": "tokenData1",
              "type": "bytes"
            },
            {
              "internalType": "uint256",
              "name": "fees1",
              "type": "uint256"
            },
            {
              "internalType": "bytes32",
              "name": "secretHash",
              "type": "bytes32"
            }
          ],
          "internalType": "struct SafeForERC1155.SwapERC1155Info",
          "name": "info",
          "type": "tuple"
        }
      ],
      "name": "swapDepositERC1155",
      "outputs": [],
      "stateMutability": "payable",
      "type": "function"
    },
    {
      "inputs": [
        {
          "internalType": "address",
          "name": "to",
          "type": "address"
        },
        {
          "components": [
            {
              "internalType": "address",
              "name": "token0",
              "type": "address"
            },
            {
              "internalType": "uint256[]",
              "name": "tokenId0",
              "type": "uint256[]"
            },
            {
              "internalType": "uint256[]",
              "name": "value0",
              "type": "uint256[]"
            },
            {
              "internalType": "bytes",
              "name": "tokenData0",
              "type": "bytes"
            },
            {
              "internalType": "uint256",
              "name": "fees0",
              "type": "uint256"
            },
            {
              "internalType": "address",
              "name": "token1",
              "type": "address"
            },
            {
              "internalType": "uint256[]",
              "name": "tokenId1",
              "type": "uint256[]"
            },
            {
              "internalType": "uint256[]",
              "name": "value1",
              "type": "uint256[]"
            },
            {
              "internalType": "bytes",
              "name": "tokenData1",
              "type": "bytes"
            },
            {
              "internalType": "uint256",
              "name": "fees1",
              "type": "uint256"
            },
            {
              "internalType": "bytes32",
              "name": "secretHash",
              "type": "bytes32"
            }
          ],
          "internalType": "struct SafeForERC1155.SwapERC1155Info",
          "name": "info",
          "type": "tuple"
        }
      ],
      "name": "swapRetrieveERC1155",
      "outputs": [],
      "stateMutability": "nonpayable",
      "type": "function"
    },
    {
      "inputs": [
        {
          "internalType": "address payable",
          "name": "from",
          "type": "address"
        },
        {
          "components": [
            {
              "internalType": "address",
              "name": "token0",
              "type": "address"
            },
            {
              "internalType": "uint256[]",
              "name": "tokenId0",
              "type": "uint256[]"
            },
            {
              "internalType": "uint256[]",
              "name": "value0",
              "type": "uint256[]"
            },
            {
              "internalType": "bytes",
              "name": "tokenData0",
              "type": "bytes"
            },
            {
              "internalType": "uint256",
              "name": "fees0",
              "type": "uint256"
            },
            {
              "internalType": "address",
              "name": "token1",
              "type": "address"
            },
            {
              "internalType": "uint256[]",
              "name": "tokenId1",
              "type": "uint256[]"
            },
            {
              "internalType": "uint256[]",
              "name": "value1",
              "type": "uint256[]"
            },
            {
              "internalType": "bytes",
              "name": "tokenData1",
              "type": "bytes"
            },
            {
              "internalType": "uint256",
              "name": "fees1",
              "type": "uint256"
            },
            {
              "internalType": "bytes32",
              "name": "secretHash",
              "type": "bytes32"
            }
          ],
          "internalType": "struct SafeForERC1155.SwapERC1155Info",
          "name": "info",
          "type": "tuple"
        },
        {
          "internalType": "bytes",
          "name": "secret",
          "type": "bytes"
        }
      ],
      "name": "swapERC1155",
      "outputs": [],
      "stateMutability": "payable",
      "type": "function"
    },
    {
      "inputs": [
        {
          "internalType": "address payable",
          "name": "to",
          "type": "address"
        },
        {
          "components": [
            {
              "internalType": "address",
              "name": "token0",
              "type": "address"
            },
            {
              "internalType": "uint256[]",
              "name": "tokenIds0",
              "type": "uint256[]"
            },
            {
              "internalType": "uint256[]",
              "name": "values0",
              "type": "uint256[]"
            },
            {
              "internalType": "bytes",
              "name": "tokenData0",
              "type": "bytes"
            },
            {
              "internalType": "uint256",
              "name": "fees0",
              "type": "uint256"
            },
            {
              "internalType": "address",
              "name": "token1",
              "type": "address"
            },
            {
              "internalType": "uint256",
              "name": "value1",
              "type": "uint256"
            },
            {
              "internalType": "uint256",
              "name": "fees1",
              "type": "uint256"
            },
            {
              "internalType": "bytes32",
              "name": "secretHash",
              "type": "bytes32"
            }
          ],
          "internalType": "struct SafeForERC1155.SwapBatchERC1155ToERC20Info",
          "name": "info",
          "type": "tuple"
        }
      ],
      "name": "swapDepositERC1155ToERC20",
      "outputs": [],
      "stateMutability": "payable",
      "type": "function"
    }
  ],
  "bytecode": "0x60806040523480156200001157600080fd5b506040516200377838038062003778833981016040819052620000349162000299565b6200004160003362000185565b6200005c600080516020620037588339815191523362000185565b62000077600080516020620037588339815191528262000185565b466002819055600160b01b600160f01b0360001943014060b01b1630908117600160f81b176003819055604080518082018252601481527f4b69726f626f2053616665205472616e736665720000000000000000000000006020918201528151808301835260018152603160f81b90820152905162000161937fd87cd6ef79d4e2b95e15ce8abf732db51ec771f1ca2edccf22a46c729ac56472937fa0e7867c78e9ee05b975f886625b0f857545d287fd4041f342f5f7398f7cf444937fc89efdaa54c0f20c7adf612882df0950f5a951637e0307cdcb4c672f298b8bc6938893929101620002c9565b604051602081830303815290604052805190602001206001819055505050620002fa565b62000191828262000195565b5050565b600082815260208181526040909120620001ba91839062001bdd6200020e821b17901c565b156200019157620001ca6200022e565b6001600160a01b0316816001600160a01b0316837f2f8788117e7eff1d82e926ec794901d17c78024a50270940304540a733656f0d60405160405180910390a45050565b600062000225836001600160a01b03841662000232565b90505b92915050565b3390565b600062000240838362000281565b620002785750815460018181018455600084815260208082209093018490558454848252828601909352604090209190915562000228565b50600062000228565b60009081526001919091016020526040902054151590565b600060208284031215620002ab578081fd5b81516001600160a01b0381168114620002c2578182fd5b9392505050565b9586526020860194909452604085019290925260608401526001600160a01b0316608083015260a082015260c00190565b61344e806200030a6000396000f3fe6080604052600436106101855760003560e01c806385e1f4d0116100d1578063a3f4df7e1161008a578063e49a12dc11610064578063e49a12dc1461043b578063e78d7ba01461045b578063fea5c3e11461046e578063ffa1ad741461048e576101ad565b8063a3f4df7e146103d9578063ca15c873146103fb578063d547741f1461041b576101ad565b806385e1f4d0146103225780638b23d81b146103375780639010d07c1461035757806391d14854146103845780639b39afe2146103b1578063a217fddf146103c4576101ad565b8063382250861161013e57806374ddc7511161011857806374ddc751146102ba57806378e80e10146102da5780638025e303146102ed578063848292dd1461030f576101ad565b8063382250861461026757806349898f441461028757806359e10178146102a7576101ad565b806308740a3b146101b257806313114a9d146101dd578063248a9ca3146101f25780632f2ff15d146102125780633644e5151461023257806336568abe14610247576101ad565b366101ad5760405162461bcd60e51b81526004016101a29061327c565b60405180910390fd5b005b600080fd5b3480156101be57600080fd5b506101c76104a3565b6040516101d49190612d7c565b60405180910390f35b3480156101e957600080fd5b506101c76104b5565b3480156101fe57600080fd5b506101c761020d366004612722565b6104bb565b34801561021e57600080fd5b506101ab61022d36600461273a565b6104d0565b34801561023e57600080fd5b506101c7610518565b34801561025357600080fd5b506101ab61026236600461273a565b61051e565b34801561027357600080fd5b506101ab6102823660046122eb565b610560565b34801561029357600080fd5b506101ab6102a23660046123d8565b610789565b6101ab6102b536600461269a565b6109a0565b3480156102c657600080fd5b506101ab6102d53660046124ae565b610ac2565b6101ab6102e83660046124ae565b610bd1565b3480156102f957600080fd5b50610302610ce8565b6040516101d491906133ac565b6101ab61031d3660046122eb565b610ced565b34801561032e57600080fd5b506101c76110d0565b34801561034357600080fd5b506101ab61035236600461257a565b6110d6565b34801561036357600080fd5b50610377610372366004612769565b611311565b6040516101d491906128b3565b34801561039057600080fd5b506103a461039f36600461273a565b611332565b6040516101d49190612d71565b6101ab6103bf366004612338565b61134a565b3480156103d057600080fd5b506101c7611853565b3480156103e557600080fd5b506103ee611858565b6040516101d49190612da6565b34801561040757600080fd5b506101c7610416366004612722565b611888565b34801561042757600080fd5b506101ab61043636600461273a565b61189f565b34801561044757600080fd5b506101ab6104563660046123ad565b6118d9565b6101ab6104693660046121d3565b611958565b34801561047a57600080fd5b506101ab61048936600461269a565b611ace565b34801561049a57600080fd5b506103ee611bc0565b6000805160206133f983398151915281565b60045490565b60009081526020819052604090206002015490565b6000828152602081905260409020600201546104ee9061039f611bf2565b61050a5760405162461bcd60e51b81526004016101a290612e29565b6105148282611bf6565b5050565b60015481565b610526611bf2565b6001600160a01b0316816001600160a01b0316146105565760405162461bcd60e51b81526004016101a290613334565b6105148282611c5f565b60008260405160200161057391906128b3565b60408051601f198184030181529181528151602092830120600081815260069093529120549091506105b75760405162461bcd60e51b81526004016101a2906132c6565b600081815260066020526040812081905582516001600160a01b031661060d57610606836080015184604001516000815181106105f057fe5b6020026020010151611cc890919063ffffffff16565b9050610614565b5060808201515b604051339082156108fc029083906000818181858888f19350505050158015610641573d6000803e3d6000fd5b5082516001600160a01b03166106a25781846001600160a01b0316336001600160a01b03167f2c0f05de664e2354e281c7c55d07fe10e18c61d9b196dbcd318285801b36cde4846040516106959190612d7c565b60405180910390a4610783565b82604001516000815181106106b357fe5b60200260200101516000141561071a57836001600160a01b0316336001600160a01b031684600001516001600160a01b03167f725df2dbbb1b34d2b94419654875f4ec4cae7dacbd37395f457b7cf9cd954bd3858760400151604051610695929190612d85565b6020830151604051339161072d9161286d565b604051809103902084600001516001600160a01b03167faa25181806aa003e4be258c6273e729d903fbb8bfc219c147a2f1a01fc1b876c8786886040015160405161077a93929190612b7e565b60405180910390a45b50505050565b6107a16000805160206133f983398151915233611332565b6107bd5760405162461bcd60e51b81526004016101a290613245565b60008b8b8b8b8b8b8b8b8b6040516020016107e099989796959493929190612a71565b60408051601f19818403018152918152815160209283012060008181526005909352912054909150806108255760405162461bcd60e51b81526004016101a2906130f5565b42816001600160401b03161161084d5760405162461bcd60e51b81526004016101a290612dfb565b42604082901c6001600160401b0316111561087a5760405162461bcd60e51b81526004016101a290612e78565b84848460405161088b9291906128a3565b6040518091039020146108b05760405162461bcd60e51b81526004016101a290613016565b6000828152600560205260408120556004546108cc9087611cc8565b6004819055508c6001600160a01b031663f242432a8d8d8d8d8d8d6040518763ffffffff1660e01b815260040161090896959493929190612ace565b600060405180830381600087803b15801561092257600080fd5b505af1158015610936573d6000803e3d6000fd5b505050508a6001600160a01b03168c6001600160a01b03168e6001600160a01b03167fda390d84d1887172ecb3fafdf8c63dfd9a80723aab498c394f51b7474b067fa28d8d604051610989929190613383565b60405180910390a450505050505050505050505050565b8134146109bf5760405162461bcd60e51b81526004016101a290612f48565b6001600160a01b0387163314156109e85760405162461bcd60e51b81526004016101a29061304d565b6000883389898989898989604051602001610a0b99989796959493929190612a71565b60408051601f1981840301815291815281516020928301206000818152600590935291205490915015610a505760405162461bcd60e51b81526004016101a290612ee6565b600081815260056020526040908190206001600160401b039055516001600160a01b03808a169133918c16907f815701d2a70cb9728dad47bf244cfb943736d064c1f0d6eb6386e1da4b9be6b290610aaf908c908c908a908a90613391565b60405180910390a4505050505050505050565b60008a338b8b8b8b8b8b8b8b8b604051602001610ae99b9a999897969594939291906129f6565b60408051601f19818403018152918152815160209283012060008181526005909352912054909150610b2d5760405162461bcd60e51b81526004016101a2906130f5565b60008181526005602052604080822082905551339185156108fc02918691818181858888f19350505050158015610b68573d6000803e3d6000fd5b50896001600160a01b0316336001600160a01b03168c6001600160a01b03167fc2263345832f5e2ac00f59aee67304df8fd8c45c216e65a610afc67c7568c1148c8c8c8c604051610bbc9493929190612bae565b60405180910390a45050505050505050505050565b813414610bf05760405162461bcd60e51b81526004016101a290612f48565b6001600160a01b038916331415610c195760405162461bcd60e51b81526004016101a29061304d565b60008a338b8b8b8b8b8b8b8b8b604051602001610c409b9a999897969594939291906129f6565b60408051601f1981840301815291815281516020928301206000818152600590935291205490915015610c855760405162461bcd60e51b81526004016101a290612ee6565b600081815260056020526040908190206001600160401b039055516001600160a01b03808c169133918e16907f8ac12a82b0377e2c6e1e42e37e8d8957f8df98f5c6d9fcbc86dcc2d65c5f1e2f90610bbc908e908e908e908e908c908c90612be0565b600181565b80516001600160a01b0316610daa578060a001516001600160a01b031681600001516001600160a01b03161415610d365760405162461bcd60e51b81526004016101a290613084565b610d4f816080015182604001516000815181106105f057fe5b3414610d6d5760405162461bcd60e51b81526004016101a29061320e565b60008160e00151600081518110610d8057fe5b602002602001015111610da55760405162461bcd60e51b81526004016101a290613193565b610fa2565b60a08101516001600160a01b0316610e4f5780608001513414610ddf5760405162461bcd60e51b81526004016101a29061320e565b60008160400151600081518110610df257fe5b602002602001015111610e175760405162461bcd60e51b81526004016101a290613193565b60008160e00151600081518110610e2a57fe5b602002602001015111610da55760405162461bcd60e51b81526004016101a2906131d7565b8060400151600081518110610e6057fe5b602002602001015160001415610e935780608001513414610d6d5760405162461bcd60e51b81526004016101a29061320e565b8060e00151600081518110610ea457fe5b602002602001015160001415610f0f5780608001513414610ed75760405162461bcd60e51b81526004016101a29061320e565b60008160400151600081518110610eea57fe5b602002602001015111610da55760405162461bcd60e51b81526004016101a2906130c9565b80608001513414610f325760405162461bcd60e51b81526004016101a29061320e565b60008160400151600081518110610f4557fe5b602002602001015111610f6a5760405162461bcd60e51b81526004016101a290613193565b60008160e00151600081518110610f7d57fe5b602002602001015111610fa25760405162461bcd60e51b81526004016101a290613193565b6001600160a01b038216331415610fcb5760405162461bcd60e51b81526004016101a2906132fd565b600082604051602001610fde91906128b3565b60408051601f19818403018152918152815160209283012060008181526006909352912054909150156110235760405162461bcd60e51b81526004016101a29061315c565b6001600160401b03600660008381526020019081526020016000208190555081600001516001600160a01b0316836001600160a01b0316336001600160a01b03167f8e9aa3337874592880c80ddd5c52ecfa44586c80bb6cb420c67670b86da528e78560200151866040015187608001518860a001518960c001518a60e001518b61012001518c61014001516040516110c3989796959493929190612cb2565b60405180910390a4505050565b60025481565b6110ee6000805160206133f983398151915233611332565b61110a5760405162461bcd60e51b81526004016101a290613245565b60008160000151838584602001518560400151866060015187608001518860a00151604051602001611143989796959493929190612b09565b60408051601f19818403018152918152815160209283012060008181526005909352912054909150806111885760405162461bcd60e51b81526004016101a2906130f5565b42816001600160401b0316116111b05760405162461bcd60e51b81526004016101a290612dfb565b42604082901c6001600160401b031611156111dd5760405162461bcd60e51b81526004016101a290612e78565b8260a001518360c00151805190602001201461120b5760405162461bcd60e51b81526004016101a290613016565b600082815260056020526040812055608083015160045461122b91611cc8565b60048190555082600001516001600160a01b0316632eb2c2d685878660200151876040015188606001516040518663ffffffff1660e01b815260040161127595949392919061295b565b600060405180830381600087803b15801561128f57600080fd5b505af11580156112a3573d6000803e3d6000fd5b50505050846001600160a01b0316846001600160a01b031684600001516001600160a01b03167f759238326589d20c2f643db19775089f05967fb40ad4c6b19374156de496b44586602001518760400151604051611302929190612c1d565b60405180910390a45050505050565b60008281526020819052604081206113299083611ced565b90505b92915050565b60008281526020819052604081206113299083611cf9565b60003360405160200161135d91906128b3565b60408051601f19818403018152918152815160209283012060008181526006909352912054909150806113a25760405162461bcd60e51b81526004016101a2906132c6565b42816001600160401b0316116113ca5760405162461bcd60e51b81526004016101a290612f1d565b42604082901c6001600160401b031611156113f75760405162461bcd60e51b81526004016101a290612fdf565b846101400151848460405161140d9291906128a3565b6040518091039020146114325760405162461bcd60e51b81526004016101a29061312c565b6000828152600660205260408120556101208501516080860151600454611464929161145e9190611cc8565b90611cc8565b60045584516001600160a01b03166114cd57336001600160a01b03166108fc866040015160008151811061149457fe5b60200260200101519081150290604051600060405180830381858888f193505050501580156114c7573d6000803e3d6000fd5b506115ed565b84604001516000815181106114de57fe5b6020026020010151600014156115775784600001516001600160a01b031663b88d4fde8733886020015160008151811061151457fe5b602002602001015189606001516040518563ffffffff1660e01b815260040161154094939291906129b9565b600060405180830381600087803b15801561155a57600080fd5b505af115801561156e573d6000803e3d6000fd5b505050506115ed565b8451602086015160408088015160608901519151631759616b60e11b81526001600160a01b0390941693632eb2c2d6936115ba938c93339390919060040161295b565b600060405180830381600087803b1580156115d457600080fd5b505af11580156115e8573d6000803e3d6000fd5b505050505b60a08501516001600160a01b031661168e576116198561012001518660e001516000815181106105f057fe5b34146116375760405162461bcd60e51b81526004016101a29061320e565b856001600160a01b03166108fc8660e0015160008151811061165557fe5b60200260200101519081150290604051600060405180830381858888f19350505050158015611688573d6000803e3d6000fd5b506117d4565b8460e0015160008151811061169f57fe5b602002602001015160001415611739578460a001516001600160a01b031663b88d4fde87338860c001516000815181106116d557fe5b60200260200101518961010001516040518563ffffffff1660e01b815260040161170294939291906129b9565b600060405180830381600087803b15801561171c57600080fd5b505af1158015611730573d6000803e3d6000fd5b505050506117d4565b846101200151341461175d5760405162461bcd60e51b81526004016101a29061320e565b60a085015160c086015160e0870151610100880151604051631759616b60e11b81526001600160a01b0390941693632eb2c2d6936117a19333938d9360040161295b565b600060405180830381600087803b1580156117bb57600080fd5b505af11580156117cf573d6000803e3d6000fd5b505050505b84600001516001600160a01b0316336001600160a01b0316876001600160a01b03167f881f1b4ed82f90d52490614dbe58ea1c05bfd069a7d5d5ca131e0d5b6bf07261886020015189604001518a60a001518b60c001518c60e001518a60405161184396959493929190612c42565b60405180910390a4505050505050565b600081565b6040518060400160405280601481526020017325b4b937b1379029b0b332902a3930b739b332b960611b81525081565b600081815260208190526040812061132c90611d0e565b6000828152602081905260409020600201546118bd9061039f611bf2565b6105565760405162461bcd60e51b81526004016101a290612f8f565b6118f16000805160206133f983398151915233611332565b61190d5760405162461bcd60e51b81526004016101a290613245565b60045461191a9082611d19565b6004556040516001600160a01b0383169082156108fc029083906000818181858888f19350505050158015611953573d6000803e3d6000fd5b505050565b8060800151341461197b5760405162461bcd60e51b81526004016101a29061320e565b6001600160a01b0382163314156119a45760405162461bcd60e51b81526004016101a2906132fd565b60003383836000015184602001518560400151866060015187608001518860a001518960c001518a60e001518b61010001516040516020016119f09b9a999897969594939291906128c7565b60408051601f1981840301815291815281516020928301206000818152600690935291205490915015611a355760405162461bcd60e51b81526004016101a29061315c565b6001600160401b03600660008381526020019081526020016000208190555081600001516001600160a01b0316836001600160a01b0316336001600160a01b03167f6c08a35fdde4ff3671154ce5b1bafc6452d3889095506b356d4e6d5e53550ddf8560200151866040015187608001518860a001518960c001518a60e001518b61010001516040516110c39796959493929190612d18565b6000883389898989898989604051602001611af199989796959493929190612a71565b60408051601f19818403018152918152815160209283012060008181526005909352912054909150611b355760405162461bcd60e51b81526004016101a2906130f5565b60008181526005602052604080822082905551339185156108fc02918691818181858888f19350505050158015611b70573d6000803e3d6000fd5b50876001600160a01b0316336001600160a01b03168a6001600160a01b03167f8a96343c35f852197f641ff14a8eebe74e8708a2eac119132630719127f4c2678a8a604051610aaf929190613383565b604051806040016040528060018152602001603160f81b81525081565b6000611329836001600160a01b038416611d5b565b3390565b6000828152602081905260409020611c0e9082611bdd565b1561051457611c1b611bf2565b6001600160a01b0316816001600160a01b0316837f2f8788117e7eff1d82e926ec794901d17c78024a50270940304540a733656f0d60405160405180910390a45050565b6000828152602081905260409020611c779082611da5565b1561051457611c84611bf2565b6001600160a01b0316816001600160a01b0316837ff6391f5c32d9c69d2a47ea670b442974b53935d1edc7fd64eb21e047a839171b60405160405180910390a45050565b6000828201838110156113295760405162461bcd60e51b81526004016101a290612eaf565b60006113298383611dba565b6000611329836001600160a01b038416611dff565b600061132c82611e17565b600061132983836040518060400160405280601e81526020017f536166654d6174683a207375627472616374696f6e206f766572666c6f770000815250611e1b565b6000611d678383611dff565b611d9d5750815460018181018455600084815260208082209093018490558454848252828601909352604090209190915561132c565b50600061132c565b6000611329836001600160a01b038416611e47565b81546000908210611ddd5760405162461bcd60e51b81526004016101a290612db9565b826000018281548110611dec57fe5b9060005260206000200154905092915050565b60009081526001919091016020526040902054151590565b5490565b60008184841115611e3f5760405162461bcd60e51b81526004016101a29190612da6565b505050900390565b60008181526001830160205260408120548015611f035783546000198083019190810190600090879083908110611e7a57fe5b9060005260206000200154905080876000018481548110611e9757fe5b600091825260208083209091019290925582815260018981019092526040902090840190558654879080611ec757fe5b6001900381819060005260206000200160009055905586600101600087815260200190815260200160002060009055600194505050505061132c565b600091505061132c565b803561132c816133e0565b60008083601f840112611f29578182fd5b5081356001600160401b03811115611f3f578182fd5b6020830191508360208083028501011115611f5957600080fd5b9250929050565b600082601f830112611f70578081fd5b81356001600160401b03811115611f85578182fd5b6020808202611f958282016133ba565b83815293508184018583018287018401881015611fb157600080fd5b600092505b84831015611fd4578035825260019290920191908301908301611fb6565b505050505092915050565b60008083601f840112611ff0578182fd5b5081356001600160401b03811115612006578182fd5b602083019150836020828501011115611f5957600080fd5b600082601f83011261202e578081fd5b81356001600160401b03811115612043578182fd5b612056601f8201601f19166020016133ba565b915080825283602082850101111561206d57600080fd5b8060208401602084013760009082016020015292915050565b6000610160808385031215612099578182fd5b6120a2816133ba565b9150506120af8383611f0d565b815260208201356001600160401b03808211156120cb57600080fd5b6120d785838601611f60565b602084015260408401359150808211156120f057600080fd5b6120fc85838601611f60565b6040840152606084013591508082111561211557600080fd5b6121218583860161201e565b60608401526080840135608084015261213d8560a08601611f0d565b60a084015260c084013591508082111561215657600080fd5b61216285838601611f60565b60c084015260e084013591508082111561217b57600080fd5b61218785838601611f60565b60e0840152610100915081840135818111156121a257600080fd5b6121ae8682870161201e565b8385015250505061012080830135818301525061014080830135818301525092915050565b600080604083850312156121e5578182fd5b82356121f0816133e0565b915060208301356001600160401b038082111561220b578283fd5b8185019150610120808388031215612221578384fd5b61222a816133ba565b90506122368784611f0d565b8152602083013582811115612249578485fd5b61225588828601611f60565b60208301525060408301358281111561226c578485fd5b61227888828601611f60565b60408301525060608301358281111561228f578485fd5b61229b8882860161201e565b606083015250608083013560808201526122b88760a08501611f0d565b60a082015260c083013560c082015260e083013560e0820152610100915081830135828201528093505050509250929050565b600080604083850312156122fd578182fd5b8235612308816133e0565b915060208301356001600160401b03811115612322578182fd5b61232e85828601612086565b9150509250929050565b6000806000806060858703121561234d578182fd5b8435612358816133e0565b935060208501356001600160401b0380821115612373578384fd5b61237f88838901612086565b94506040870135915080821115612394578384fd5b506123a187828801611fdf565b95989497509550505050565b600080604083850312156123bf578182fd5b82356123ca816133e0565b946020939093013593505050565b60008060008060008060008060008060006101208c8e0312156123f9578687fd5b6124038c356133e0565b8b359a5061241460208d01356133e0565b60208c013599506124288d60408e01611f0d565b985060608c0135975060808c013596506001600160401b038060a08e01351115612450578687fd5b6124608e60a08f01358f01611fdf565b909750955060c08d0135945060e08d013593506101008d0135811015612484578283fd5b506124968d6101008e01358e01611fdf565b81935080925050509295989b509295989b9093969950565b60008060008060008060008060008060e08b8d0312156124cc578384fd5b8a356124d7816133e0565b995060208b01356124e7816133e0565b985060408b01356001600160401b0380821115612502578586fd5b61250e8e838f01611f18565b909a50985060608d0135915080821115612526578586fd5b6125328e838f01611f18565b909850965060808d013591508082111561254a578586fd5b506125578d828e01611fdf565b9b9e9a9d50989b979a969995989760a08101359660c09091013595509350505050565b60008060006060848603121561258e578081fd5b8335612599816133e0565b925060208401356125a9816133e0565b915060408401356001600160401b03808211156125c4578283fd5b9085019060e082880312156125d7578283fd5b6125e160e06133ba565b6125eb8884611f0d565b81526020830135828111156125fe578485fd5b61260a89828601611f60565b602083015250604083013582811115612621578485fd5b61262d89828601611f60565b604083015250606083013582811115612644578485fd5b6126508982860161201e565b6060830152506080830135608082015260a083013560a082015260c08301358281111561267b578485fd5b6126878982860161201e565b60c0830152508093505050509250925092565b60008060008060008060008060e0898b0312156126b5578182fd5b88356126c0816133e0565b975060208901356126d0816133e0565b9650604089013595506060890135945060808901356001600160401b038111156126f8578283fd5b6127048b828c01611fdf565b999c989b5096999598969760a08701359660c0013595509350505050565b600060208284031215612733578081fd5b5035919050565b6000806040838503121561274c578182fd5b82359150602083013561275e816133e0565b809150509250929050565b6000806040838503121561277b578182fd5b50508035926020909101359150565b81835260006001600160fb1b038311156127a2578081fd5b6020830280836020870137939093016020019283525090919050565b6000815180845260208085019450808401835b838110156127ed578151875295820195908201906001016127d1565b509495945050505050565b60008284528282602086013780602084860101526020601f19601f85011685010190509392505050565b60008151808452815b818110156128475760208185018101518683018201520161282b565b818111156128585782602083870101525b50601f01601f19169290920160200192915050565b815160009082906020808601845b838110156128975781518552938201939082019060010161287b565b50929695505050505050565b6000828483379101908152919050565b6001600160a01b0391909116815260200190565b6001600160a01b038c811682528b811660208301528a81166040830152610160606083018190526000916128fd8483018d6127be565b91508382036080850152612911828c6127be565b915083820360a0850152612925828b612822565b60c08501999099529690961660e08301525061010081019390935261012083019190915261014090910152509695505050505050565b6001600160a01b0386811682528516602082015260a060408201819052600090612987908301866127be565b828103606084015261299981866127be565b905082810360808401526129ad8185612822565b98975050505050505050565b6001600160a01b03858116825284166020820152604081018390526080606082018190526000906129ec90830184612822565b9695505050505050565b6001600160a01b038c811682528b811660208301528a16604082015261010060608201819052600090612a2c8382018b8d61278a565b90508281036080840152612a4181898b61278a565b905082810360a0840152612a568187896127f8565b60c0840195909552505060e001529998505050505050505050565b6001600160a01b038a81168252898116602083015288166040820152606081018790526080810186905261010060a08201819052600090612ab583820187896127f8565b60c0840195909552505060e00152979650505050505050565b6001600160a01b03878116825286166020820152604081018590526060810184905260a0608082018190526000906129ad90830184866127f8565b6001600160a01b03898116825288811660208301528716604082015261010060608201819052600090612b3e838201896127be565b90508281036080840152612b5281886127be565b905082810360a0840152612b668187612822565b60c0840195909552505060e001529695505050505050565b600060018060a01b038516825283602083015260606040830152612ba560608301846127be565b95945050505050565b600060408252612bc260408301868861278a565b8281036020840152612bd581858761278a565b979650505050505050565b600060808252612bf460808301888a61278a565b8281036020840152612c0781878961278a565b6040840195909552505060600152949350505050565b600060408252612c3060408301856127be565b8281036020840152612ba581856127be565b600060c08252612c5560c08301896127be565b8281036020840152612c6781896127be565b6001600160a01b038816604085015283810360608501529050612c8a81876127be565b90508281036080840152612c9e81866127be565b9150508260a0830152979650505050505050565b6000610100808352612cc68184018c6127be565b90508281036020840152612cda818b6127be565b604084018a90526001600160a01b038916606085015283810360808501529050612d0481886127be565b905082810360a0840152612b6681876127be565b600060e08252612d2b60e083018a6127be565b8281036020840152612d3d818a6127be565b604084019890985250506001600160a01b03949094166060850152608084019290925260a083015260c09091015292915050565b901515815260200190565b90815260200190565b600083825260406020830152612d9e60408301846127be565b949350505050565b6000602082526113296020830184612822565b60208082526022908201527f456e756d657261626c655365743a20696e646578206f7574206f6620626f756e604082015261647360f01b606082015260800190565b60208082526014908201527314d85999551c985b99995c8e88195e1c1a5c995960621b604082015260600190565b6020808252602f908201527f416363657373436f6e74726f6c3a2073656e646572206d75737420626520616e60408201526e0818591b5a5b881d1bc819dc985b9d608a1b606082015260800190565b6020808252601e908201527f536166655472616e6665723a206e6f7420617661696c61626c65207965740000604082015260600190565b6020808252601b908201527f536166654d6174683a206164646974696f6e206f766572666c6f770000000000604082015260600190565b6020808252601b908201527f536166655472616e736665723a20726571756573742065786973740000000000604082015260600190565b60208082526011908201527014d8599954ddd85c0e88195e1c1a5c9959607a1b604082015260600190565b60208082526027908201527f536166655472616e736665723a206d73672e76616c7565206d757374206d61746040820152666368206665657360c81b606082015260800190565b60208082526030908201527f416363657373436f6e74726f6c3a2073656e646572206d75737420626520616e60408201526f2061646d696e20746f207265766f6b6560801b606082015260800190565b6020808252601b908201527f53616665537761703a206e6f7420617661696c61626c65207965740000000000604082015260600190565b6020808252601a908201527f536166655472616e736665723a2077726f6e6720736563726574000000000000604082015260600190565b6020808252601f908201527f536166655472616e736665723a2073656e6465723d3d726563697069656e7400604082015260600190565b60208082526025908201527f53616665537761703a2074727920746f207377617020657468657220616e642060408201526432ba3432b960d91b606082015260800190565b60208082526012908201527153616665537761703a206e6f2076616c756560701b604082015260600190565b6020808252601f908201527f536166655472616e736665723a2072657175657374206e6f7420657869737400604082015260600190565b60208082526016908201527514d8599954ddd85c0e881ddc9bdb99c81cd958dc995d60521b604082015260600190565b60208082526017908201527f53616665537761703a2072657175657374206578697374000000000000000000604082015260600190565b60208082526024908201527f53616665537761703a206e6f2076616c756520666f722045524331313535207460408201526337b5b2b760e11b606082015260800190565b6020808252601a908201527f53616665537761703a206e6f2076616c756520666f7220455448000000000000604082015260600190565b60208082526018908201527f53616665537761703a2076616c7565206d69736d617463680000000000000000604082015260600190565b6020808252601e908201527f536166655472616e736665723a206e6f7420616e20616374697661746f720000604082015260600190565b6020808252602a908201527f536166655472616e736665723a206e6f7420616363657074696e67206574686560408201526972206469726563746c7960b01b606082015260800190565b6020808252601b908201527f53616665537761703a2072657175657374206e6f742065786973740000000000604082015260600190565b6020808252601b908201527f53616665537761703a2073656e6465723d3d726563697069656e740000000000604082015260600190565b6020808252602f908201527f416363657373436f6e74726f6c3a2063616e206f6e6c792072656e6f756e636560408201526e103937b632b9903337b91039b2b63360891b606082015260800190565b918252602082015260400190565b93845260208401929092526040830152606082015260800190565b60ff91909116815260200190565b6040518181016001600160401b03811182821017156133d857600080fd5b604052919050565b6001600160a01b03811681146133f557600080fd5b5056feec5aad7bdface20c35bc02d6d2d5760df981277427368525d634f4e2603ea192a26469706673582212205559c23f54e82ec43b5f53e141caec8a2bfba9917b8fdbf036079c53f21ffab564736f6c634300060c0033ec5aad7bdface20c35bc02d6d2d5760df981277427368525d634f4e2603ea192",
  "immutableReferences": {},
  "source": "// SPDX-License-Identifier: GPL-3.0-or-later\npragma solidity 0.6.12;\npragma experimental ABIEncoderV2;\n\n\nimport \"../node_modules/@openzeppelin/contracts/math/SafeMath.sol\";\nimport \"../node_modules/@openzeppelin/contracts/access/AccessControl.sol\";\nimport \"../node_modules/@openzeppelin/contracts/token/ERC20/SafeERC20.sol\";\nimport \"../node_modules/@openzeppelin/contracts/token/ERC721/IERC721.sol\";\nimport \"../node_modules/@openzeppelin/contracts/token/ERC1155/IERC1155.sol\";\n\ncontract SafeForERC1155 is AccessControl {\n    using SafeMath for uint256;\n    //using SafeERC20 for IERC20;\n\n    // keccak256(\"ACTIVATOR_ROLE\");\n    bytes32 public constant ACTIVATOR_ROLE = 0xec5aad7bdface20c35bc02d6d2d5760df981277427368525d634f4e2603ea192;\n\n    // keccak256(\"hiddenCollect(address from,address to,uint256 value,uint256 fees,bytes32 secretHash)\");\n   //bytes32 public constant HIDDEN_COLLECT_TYPEHASH = 0x0506afef36f3613836f98ef019cb76a3e6112be8f9dc8d8fa77275d64f418234;\n\n    // keccak256(\"hiddenCollectERC20(address from,address to,address token,string tokenSymbol,uint256 value,uint256 fees,bytes32 secretHash)\");\n   // bytes32 public constant HIDDEN_ERC20_COLLECT_TYPEHASH = 0x9e6214229b9fba1927010d30b22a3a5d9fd5e856bb29f056416ff2ad52e8de44;\n\n    // keccak256(\"hiddenCollectERC721(address from,address to,address token,string tokenSymbol,uint256 tokenId,bytes tokenData,uint256 fees,bytes32 secretHash)\");\n   // bytes32 public constant HIDDEN_ERC721_COLLECT_TYPEHASH = 0xa14a2dc51c26e451800897aa798120e7d6c35039caf5eb29b8ac35d1e914c591;\n\n    bytes32 public DOMAIN_SEPARATOR;\n    uint256 public CHAIN_ID;\n    bytes32 s_uid;\n    uint256 s_fees;\n    \n    struct TokenInfo {\n        bytes32 id;\n        bytes32 id1;\n        uint256 tr;\n    }\n\n    struct SwapERC1155Info {\n        address token0;\n        uint256[] tokenId0;\n        uint256[] value0;\n        bytes tokenData0;\n        uint256 fees0;\n        address token1;\n        uint256[] tokenId1;\n        uint256[] value1;\n        bytes tokenData1;\n        uint256 fees1;\n        bytes32 secretHash;\n    }\n\n    struct CollectBatchERC1155Info {\n        address token;\n        uint256[] tokenIds;\n        uint256[] values;\n        bytes tokenData;\n        uint256 fees;\n        bytes32 secretHash;\n        bytes secret;\n    }\n\n    struct SwapBatchERC1155ToERC20Info {\n        address token0;\n        uint256[] tokenIds0;\n        uint256[] values0;\n        bytes tokenData0;\n        uint256 fees0;\n        address token1;\n        uint256 value1;\n        uint256 fees1;\n        bytes32 secretHash;\n    }\n\n    /* struct SwapETHToBatchERC1155Info {\n        address token0;\n        uint256 tokenId0;\n        uint256 value0;\n        uint256 fees0;\n        address token1;\n        uint256[] tokenIds1;\n        uint256[] values1;\n        bytes tokenData1;\n        uint256 fees1;\n        bytes32 secretHash;\n    } */\n\n    mapping(bytes32 => uint256) s_erc1155Transfers;\n    mapping(bytes32 => uint256) s_swaps;\n    mapping(bytes32 => uint256) s_hswaps;\n\n    string public constant NAME = \"Kirobo Safe Transfer\";\n    string public constant VERSION = \"1\";\n    uint8 public constant VERSION_NUMBER = 0x1;\n\n    event Retrieved(\n        address indexed from,\n        address indexed to,\n        bytes32 indexed id,\n        uint256 value\n    );\n\n    event ERC1155TransferDeposited(\n        address indexed token,\n        address indexed from,     \n        address indexed to,\n        uint256 tokenId,\n        uint256 value,\n        uint256 fees,\n        bytes32 secretHash\n    );\n\n    event ERC1155BatchTransferDeposited(\n        address indexed token,\n        address indexed from,     \n        address indexed to,\n        uint256[] tokenIds,\n        uint256[] values,\n        uint256 fees,\n        bytes32 secretHash\n    );\n\n    event ERC1155TransferRetrieved(\n        address indexed token,\n        address indexed from,     \n        address indexed to,\n        uint256 tokenId,\n        uint256 value\n    );\n\n    event ERC721Retrieved(\n        address indexed token,\n        address indexed from,\n        address indexed to,\n        bytes32 id,\n        uint256[] tokenId\n    );\n\n    event ERC1155BatchTransferRetrieved(\n        address indexed token,\n        address indexed from,     \n        address indexed to,\n        uint256[] tokenIds,\n        uint256[] values\n    );\n\n    event ERC1155Collected(\n        address indexed token, \n        address indexed from, \n        address indexed to,\n        uint256 tokenId,\n        uint256 value\n    );\n\n    event ERC1155BatchCollected(\n        address indexed token, \n        address indexed from, \n        address indexed to,\n        uint256[] tokenIds,\n        uint256[] values\n    );\n\n     event ERC1155SwapDeposited(\n        address indexed from,\n        address indexed to,\n        address indexed token0,\n        uint256[] tokenId0,\n        uint256[] value0,\n        uint256 fees0,\n        address token1,\n        uint256[] tokenId1,\n        uint256[] value1,\n        uint256 fees1,\n        bytes32 secretHash\n    );\n\n    event ERC1155SwapRetrieved(\n        address indexed token,\n        uint256[] indexed tokenId,\n        address indexed from,\n        address to,\n        bytes32 id,\n        uint256[] value\n    );\n\n    event ERC1155Swapped(\n        address indexed from,\n        address indexed to,\n        address indexed token0,\n        uint256[] tokenId0,\n        uint256[] value0,\n        address token1,\n        uint256[] tokenId1,\n        uint256[] value1,\n        bytes32 id\n    );\n\n    event swapDepositERC1155ToERC20Event(\n        address indexed from,\n        address indexed to,\n        address indexed token0,\n        uint256[] tokenIds0,\n        uint256[] values0,\n        uint256 fees0,\n        address token1,\n        uint256 value1,\n        uint256 fees1,\n        bytes32 secretHash\n    );\n\n    /* event swapDepositETHToERC1155Event(\n        address indexed from,\n        address indexed to,\n        address indexed token0,\n        uint256 value0,\n        uint256 fees0,\n        address token1,\n        uint256[] tokenIds1,\n        uint256[] values1,\n        uint256 fees1,\n        bytes32 secretHash\n    ); */\n\n    /* event swapRetrieveERC1155ToETHEvent(\n        address indexed token0, \n        uint256[] indexed tokenIds0, \n        address indexed from, \n        address to, \n        bytes32 id, \n        uint256[] values0\n    ); */\n\n    /* event swapERC1155ToETHEvent(\n        address indexed from,\n        address indexed to,\n        address indexed token0,\n        uint256[] tokenIds0,\n        uint256[] values0,\n        address token1,\n        uint256 value1,\n        bytes32 id\n    ); */\n\n    /* event swapETHToERC1155Event(\n        address indexed from,\n        address indexed to,\n        address indexed token0,\n        uint256 value0,\n        address token1,\n        uint256[] tokenIds1,\n        uint256[] values1,\n        bytes32 id\n    ); */\n\n\n    modifier onlyActivator() {\n        require(hasRole(ACTIVATOR_ROLE, msg.sender), \"SafeTransfer: not an activator\");    \n        _;\n    }\n\n    constructor (address activator) public {\n        _setupRole(DEFAULT_ADMIN_ROLE, msg.sender);\n        _setupRole(ACTIVATOR_ROLE, msg.sender);\n        _setupRole(ACTIVATOR_ROLE, activator);\n\n        uint256 chainId;\n        assembly {\n            chainId := chainid()\n        }\n\n        CHAIN_ID = chainId;\n\n        s_uid = bytes32(\n          uint256(VERSION_NUMBER) << 248 |\n          uint256(blockhash(block.number-1)) << 192 >> 16 |\n          uint256(address(this))\n        );\n\n        DOMAIN_SEPARATOR = keccak256(\n            abi.encode(\n                keccak256(\"EIP712Domain(string name,string version,uint256 chainId,address verifyingContract,bytes32 salt)\"),\n                keccak256(bytes(NAME)),\n                keccak256(bytes(VERSION)),\n                chainId,\n                address(this),\n                s_uid\n            )\n        );\n\n    }\n\n    receive () external payable {\n        require(false, \"SafeTransfer: not accepting ether directly\");\n    }\n\n    /* function transferERC20(address token, address wallet, uint256 value) external onlyActivator() {\n        IERC20(token).safeTransfer(wallet, value);\n    }\n\n    function transferERC721(address token, address wallet, uint256 tokenId, bytes calldata data) external onlyActivator() {\n        IERC721(token).safeTransferFrom(address(this), wallet, tokenId, data);\n    } */\n\n    function transferFees(address payable wallet, uint256 value) external onlyActivator() {\n        s_fees = s_fees.sub(value);\n        wallet.transfer(value);\n    }\n\n    function totalFees() external view returns (uint256) {\n        return s_fees;\n    }\n\n    /* function uid() view external returns (bytes32) {\n        return s_uid;\n    } */\n\n\n\n\n    // ------------------------------- ERC-1155 transfer single--------------------------------\n//0x5978e4630233612269aC217784A41fB3EA720d30\n     function depositERC1155(\n        address token,\n        address to,\n        uint256 tokenId,\n        uint256 value,\n        bytes calldata tokenData,\n        uint256 fees,\n        bytes32 secretHash\n    ) \n        payable external\n    {\n        require(msg.value == fees, \"SafeTransfer: msg.value must match fees\");\n        require(to != msg.sender, \"SafeTransfer: sender==recipient\");\n        bytes32 id = keccak256(abi.encode(token, msg.sender, to, tokenId, value, tokenData, fees, secretHash));\n        require(s_erc1155Transfers[id] == 0, \"SafeTransfer: request exist\"); \n        s_erc1155Transfers[id] = 0xffffffffffffffff;\n        emit ERC1155TransferDeposited(token, msg.sender, to, tokenId, value, fees, secretHash);\n    }\n\n    function retrieveERC1155(\n        address token,\n        address to,\n        uint256 tokenId,\n        uint256 value,\n        bytes calldata tokenData,\n        uint256 fees,\n        bytes32 secretHash\n    )   \n        external \n    {\n        bytes32 id = keccak256(abi.encode(token, msg.sender, to, tokenId, value, tokenData, fees, secretHash));\n        require(s_erc1155Transfers[id]  > 0, \"SafeTransfer: request not exist\");\n        delete s_erc1155Transfers[id];\n        msg.sender.transfer(fees);\n        emit ERC1155TransferRetrieved(token, msg.sender, to, tokenId, value);\n    }\n\n    function collectERC1155(\n        address token,\n        address from,\n        address payable to,\n        uint256 tokenId,\n        uint256 value,\n        bytes calldata tokenData,\n        uint256 fees,\n        bytes32 secretHash,\n        bytes calldata secret\n    ) \n        external\n        onlyActivator()\n    {\n        bytes32 id = keccak256(abi.encode(token, from, to, tokenId, value, tokenData, fees, secretHash));\n        uint256 tr = s_erc1155Transfers[id];\n        require(tr > 0, \"SafeTransfer: request not exist\");\n        require(uint64(tr) > now, \"SafeTranfer: expired\");\n        require(uint64(tr>>64) <= now, \"SafeTranfer: not available yet\");\n        require(keccak256(secret) == secretHash, \"SafeTransfer: wrong secret\");\n        delete s_erc1155Transfers[id];\n        s_fees = s_fees.add(fees);\n        IERC1155(token).safeTransferFrom(from, to, tokenId, value, tokenData);\n        emit ERC1155Collected(token, from, to, tokenId, value);\n    } \n\n    //------------------------------ERC-1155 batch transfer -----------------------------------------\n    function depositBatchERC1155(\n        address token,\n        address to,\n        uint256[] calldata tokenIds,\n        uint256[] calldata values,\n        bytes calldata tokenData,\n        uint256 fees,\n        bytes32 secretHash\n    ) \n        payable external\n    {\n        require(msg.value == fees, \"SafeTransfer: msg.value must match fees\");\n        require(to != msg.sender, \"SafeTransfer: sender==recipient\");\n        bytes32 id = keccak256(abi.encode(token, msg.sender, to, tokenIds, values, tokenData, fees, secretHash));\n        require(s_erc1155Transfers[id] == 0, \"SafeTransfer: request exist\"); \n        s_erc1155Transfers[id] = 0xffffffffffffffff;\n        emit ERC1155BatchTransferDeposited(token, msg.sender, to, tokenIds, values, fees, secretHash);\n    }\n\n    function retrieveBatchERC1155(\n        address token,\n        address to,\n        uint256[] calldata tokenIds,\n        uint256[] calldata values,\n        bytes calldata tokenData,\n        uint256 fees,\n        bytes32 secretHash\n    )   \n        external \n    {\n        bytes32 id = keccak256(abi.encode(token, msg.sender, to, tokenIds, values, tokenData, fees, secretHash));\n        require(s_erc1155Transfers[id]  > 0, \"SafeTransfer: request not exist\");\n        delete s_erc1155Transfers[id];\n        msg.sender.transfer(fees);\n        emit ERC1155BatchTransferRetrieved(token, msg.sender, to, tokenIds, values);\n    }\n\n    function collectBatchERC1155(\n        address to,\n        address from,\n        CollectBatchERC1155Info memory info\n    ) \n        external\n        onlyActivator()\n    {\n        bytes32 id = keccak256(abi.encode(info.token, from, to, info.tokenIds, info.values, info.tokenData, info.fees, info.secretHash));\n        uint256 tr = s_erc1155Transfers[id];\n        require(tr > 0, \"SafeTransfer: request not exist\");\n        require(uint64(tr) > now, \"SafeTranfer: expired\");\n        require(uint64(tr>>64) <= now, \"SafeTranfer: not available yet\");\n        require(keccak256(info.secret) == info.secretHash, \"SafeTransfer: wrong secret\");\n        delete s_erc1155Transfers[id];\n        s_fees = s_fees.add(info.fees);\n        IERC1155(info.token).safeBatchTransferFrom(from, to, info.tokenIds, info.values, info.tokenData);\n        emit ERC1155BatchCollected(info.token, from, to, info.tokenIds, info.values);\n    } \n\n\n    // ----------------------- swap - batch ERC1155 <--> ETH/721 -------------------------------------------\n    //0x0Fc471ed8ed3a01Ab11E1F7A3A3d71F4bCEf39E7\n    function swapDepositERC1155(address payable to, SwapERC1155Info memory info) external payable\n    {\n        if (info.token0 == address(0)) {\n            //eth to 1155\n            require(info.token0 != info.token1, \"SafeSwap: try to swap ether and ether\");\n            require(msg.value == info.value0[0].add(info.fees0), \"SafeSwap: value mismatch\");\n            require(info.value1[0] > 0, \"SafeSwap: no value for ERC1155 token\");\n        } else if (info.token1 == address(0)) {\n            //1155 to eth\n            require(msg.value == info.fees0, \"SafeSwap: value mismatch\");\n            require(info.value0[0] > 0, \"SafeSwap: no value for ERC1155 token\");\n            require(info.value1[0] > 0, \"SafeSwap: no value for ETH\");\n        } else if(info.value0[0] == 0){\n            //721 to 1155\n            require(msg.value == info.fees0, \"SafeSwap: value mismatch\");\n            require(info.value1[0] > 0, \"SafeSwap: no value for ERC1155 token\");\n        } else if(info.value1[0] == 0){    \n            //1155 to 721\n            require(msg.value == info.fees0, \"SafeSwap: value mismatch\");\n            require(info.value0[0] > 0, \"SafeSwap: no value\");\n        } else {\n            //1155 to 1155\n            require(msg.value == info.fees0, \"SafeSwap: value mismatch\");\n            require(info.value0[0] > 0, \"SafeSwap: no value for ERC1155 token\");\n            require(info.value1[0] > 0, \"SafeSwap: no value for ERC1155 token\");\n        }\n        require(to != msg.sender, \"SafeSwap: sender==recipient\");\n        bytes32 id = keccak256(abi.encode(to));/*\n                msg.sender,\n                to,\n                info.token0,\n                info.tokenId0,\n                info.value0,\n                info.tokenData0,\n                info.fees0,\n                info.token1,\n                info.tokenId1,\n                info.value1,\n                info.tokenData1,\n                info.fees1,\n                info.secretHash\n            )\n        ); */\n        require(s_swaps[id] == 0, \"SafeSwap: request exist\");\n        s_swaps[id] = 0xffffffffffffffff; // expiresAt: max, AvailableAt: 0, autoRetrieveFees: 0\n        emit ERC1155SwapDeposited(\n            msg.sender,\n            to,\n            info.token0,\n            info.tokenId0,\n            info.value0,\n            info.fees0,\n            info.token1,\n            info.tokenId1,\n            info.value1,\n            info.fees1,\n            info.secretHash\n        );\n    }\n\n    function swapRetrieveERC1155(address to, SwapERC1155Info memory info) external {\n         bytes32 id = keccak256(abi.encode(to));/*\n            abi.encode(\n                msg.sender,\n                to,\n                info.token0,\n                info.tokenId0,\n                info.value0,\n                info.tokenData0,\n                info.fees0,\n                info.token1,\n                info.tokenId1,\n                info.value1,\n                info.tokenData1,\n                info.fees1,\n                info.secretHash\n            )\n        );*/\n        require(s_swaps[id] > 0, \"SafeSwap: request not exist\");\n        delete s_swaps[id]; \n        uint256 valueToSend;\n        if (info.token0 == address(0)) {\n            valueToSend = info.value0[0].add(info.fees0);\n        } else {\n            valueToSend = info.fees0;\n        }\n        msg.sender.transfer(valueToSend);\n        if (info.token0 == address(0)) {\n            emit Retrieved(msg.sender, to, id, valueToSend);\n        } else if(info.value0[0] == 0) {\n            //retrieve 721\n            emit ERC721Retrieved(info.token0, msg.sender, to, id, info.value0);\n        } else {\n            emit ERC1155SwapRetrieved(info.token0, info.tokenId0, msg.sender, to, id, info.value0);\n        }\n    }\n\n    function swapERC1155(\n        address payable from,\n        SwapERC1155Info memory info,\n        bytes calldata secret\n    ) \n        external payable \n    {\n        bytes32 id = keccak256(\n            abi.encode(msg.sender));/*\n                from,\n                msg.sender,\n                info.token0,\n                info.tokenId0,\n                info.value0,\n                info.tokenData0,\n                info.fees0,\n                info.token1,\n                info.tokenId1,\n                info.value1,\n                info.tokenData1,\n                info.fees1,\n                info.secretHash\n            )\n        );*/\n        uint256 tr = s_swaps[id];\n        require(tr > 0, \"SafeSwap: request not exist\");\n        require(uint64(tr) > now, \"SafeSwap: expired\");\n        require(uint64(tr >> 64) <= now, \"SafeSwap: not available yet\");\n        require(keccak256(secret) == info.secretHash, \"SafeSwap: wrong secret\");\n        delete s_swaps[id];\n        s_fees = s_fees.add(info.fees0).add(info.fees1);\n        if (info.token0 == address(0)) {\n            //ether to 1155\n            msg.sender.transfer(info.value0[0]);\n        } else if(info.value0[0] == 0){\n            //721 to 1155\n            IERC721(info.token0).safeTransferFrom(\n                from,\n                msg.sender,\n                info.tokenId0[0],\n                info.tokenData0\n            );\n        } else {\n            //1155 to...\n            IERC1155(info.token0).safeBatchTransferFrom(\n                from,\n                msg.sender,\n                info.tokenId0,\n                info.value0,\n                info.tokenData0\n            );\n        }\n        if (info.token1 == address(0)) {\n            //1155 to ether\n            require(\n                msg.value == info.value1[0].add(info.fees1),\n                \"SafeSwap: value mismatch\"\n            );\n            from.transfer(info.value1[0]);\n        } else if(info.value1[0] == 0) {\n            //1155 to 721\n            IERC721(info.token1).safeTransferFrom(\n                from,\n                msg.sender,\n                info.tokenId1[0],\n                info.tokenData1\n            );\n        } else {\n            //... to 1155\n            require(msg.value == info.fees1, \"SafeSwap: value mismatch\");\n            IERC1155(info.token1).safeBatchTransferFrom(\n                msg.sender,\n                from,\n                info.tokenId1,\n                info.value1,\n                info.tokenData1\n            );\n        }\n        emit ERC1155Swapped(\n            from,\n            msg.sender,\n            info.token0,\n            info.tokenId0,\n            info.value0,\n            info.token1,\n            info.tokenId1,\n            info.value1,\n            id\n        );\n    }\n\n    // ------------------------ swap batch ERC-1155 <-> ERC20 -----------------\n\n    function swapDepositERC1155ToERC20(address payable to, SwapBatchERC1155ToERC20Info memory info) external payable\n    {\n        require(msg.value == info.fees0, \"SafeSwap: value mismatch\");\n        require(to != msg.sender, \"SafeSwap: sender==recipient\");\n        bytes32 id = keccak256(\n            abi.encode(\n                msg.sender,\n                to,\n                info.token0,\n                info.tokenIds0,\n                info.values0,\n                info.tokenData0,\n                info.fees0,\n                info.token1,\n                info.value1,\n                info.fees1,\n                info.secretHash\n            )\n        );\n        require(s_swaps[id] == 0, \"SafeSwap: request exist\");\n        s_swaps[id] = 0xffffffffffffffff; // expiresAt: max, AvailableAt: 0, autoRetrieveFees: 0\n        emit swapDepositERC1155ToERC20Event(\n            msg.sender,\n            to,\n            info.token0,\n            info.tokenIds0,\n            info.values0,\n            info.fees0,\n            info.token1,\n            info.value1,\n            info.fees1,\n            info.secretHash\n        );\n    }\n\n/*\n    function swapRetrieveERC1155ToETH(address to, SwapBatchERC1155ToETHInfo memory info) external {\n        bytes32 id = keccak256(\n            abi.encode(\n                msg.sender,\n                to,\n                info.token0,\n                info.tokenIds0,\n                info.values0,\n                info.tokenData0,\n                info.fees0,\n                info.token1,\n                info.value1,\n                info.fees1,\n                info.secretHash\n            )\n        );\n        require(s_swaps[id] > 0, \"SafeSwap: request not exist\");\n        delete s_swaps[id];\n        uint256 valueToSend = info.fees0;\n        msg.sender.transfer(valueToSend);\n        emit swapRetrieveERC1155ToETHEvent(info.token0, info.tokenIds0, msg.sender, to, id, info.values0);\n    }\n\n    function swapERC1155ToETH(\n        address payable from,\n        SwapBatchERC1155ToETHInfo memory info,\n        bytes calldata secret\n    ) \n        external payable \n    {\n        bytes32 id = keccak256(\n            abi.encode(\n                from,\n                msg.sender,\n                info.token0,\n                info.tokenIds0,\n                info.values0,\n                info.tokenData0,\n                info.fees0,\n                info.token1,\n                info.value1,\n                info.fees1,\n                info.secretHash\n            )\n        );\n        uint256 tr = s_swaps[id];\n        require(tr > 0, \"SafeSwap: request not exist\");\n        require(uint64(tr) > now, \"SafeSwap: expired\");\n        require(uint64(tr >> 64) <= now, \"SafeSwap: not available yet\");\n        require(keccak256(secret) == info.secretHash, \"SafeSwap: wrong secret\");\n        delete s_swaps[id];\n        s_fees = s_fees.add(info.fees0).add(info.fees1);\n        IERC1155(info.token0).safeBatchTransferFrom(\n                from,\n                msg.sender,\n                info.tokenIds0,\n                info.values0,\n                info.tokenData0\n        );\n        require(msg.value == info.value1.add(info.fees1), \"SafeSwap: value mismatch\");\n        from.transfer(info.value1);\n        emit swapERC1155ToETHEvent(\n            from,\n            msg.sender,\n            info.token0,\n            info.tokenIds0,\n            info.values0,\n            info.token1,\n            info.value1,\n            id\n        );\n    }\n\n    //------------------- swap ETH <-> batch 1155 ---------------------\n\n    function swapDepositETHToERC1155(address payable to, SwapETHToBatchERC1155Info memory info) external payable\n    {\n        //eth to 1155\n        require(info.token0 != info.token1, \"SafeSwap: try to swap ether and ether\");\n        require(msg.value == info.value0.add(info.fees0), \"SafeSwap: value mismatch\");\n        require(to != msg.sender, \"SafeSwap: sender==recipient\");\n        bytes32 id = keccak256(\n            abi.encode(\n                msg.sender,\n                to,\n                info.token0,\n                info.tokenId0,\n                info.value0,\n                info.fees0,\n                info.token1,\n                info.tokenIds1,\n                info.values1,\n                info.tokenData1,\n                info.fees1,\n                info.secretHash\n            )\n        );\n        require(s_swaps[id] == 0, \"SafeSwap: request exist\");\n        s_swaps[id] = 0xffffffffffffffff; // expiresAt: max, AvailableAt: 0, autoRetrieveFees: 0\n        emit swapDepositETHToERC1155Event(\n            msg.sender,\n            to,\n            info.token0,\n            info.value0,\n            info.fees0,\n            info.token1,\n            info.tokenIds1,\n            info.values1,\n            info.fees1,\n            info.secretHash\n        );\n    }\n\n    function swapRetrieveETHToERC1155(address to, SwapETHToBatchERC1155Info memory info) external {\n        bytes32 id = keccak256(\n            abi.encode(\n                msg.sender,\n                to,\n                info.token0,\n                info.tokenId0,\n                info.value0,\n                info.fees0,\n                info.token1,\n                info.tokenIds1,\n                info.values1,\n                info.tokenData1,\n                info.fees1,\n                info.secretHash\n            )\n        );\n        require(s_swaps[id] > 0, \"SafeSwap: request not exist\");\n        delete s_swaps[id];\n        uint256 valueToSend;\n        valueToSend = info.value0.add(info.fees0);\n        msg.sender.transfer(valueToSend);\n        emit Retrieved(msg.sender, to, id, valueToSend);\n    }\n\n    function swapETHToERC1155(\n        address payable from,\n        SwapETHToBatchERC1155Info memory info,\n        bytes calldata secret\n    ) \n        external payable \n    {\n        bytes32 id = keccak256(\n            abi.encode(\n                from,\n                msg.sender,\n                info.token0,\n                info.tokenId0,\n                info.value0,\n                info.fees0,\n                info.token1,\n                info.tokenIds1,\n                info.values1,\n                info.tokenData1,\n                info.fees1,\n                info.secretHash\n            )\n        );\n        uint256 tr = s_swaps[id];\n        require(tr > 0, \"SafeSwap: request not exist\");\n        require(uint64(tr) > now, \"SafeSwap: expired\");\n        require(uint64(tr >> 64) <= now, \"SafeSwap: not available yet\");\n        require(keccak256(secret) == info.secretHash, \"SafeSwap: wrong secret\");\n        delete s_swaps[id];\n        s_fees = s_fees.add(info.fees0).add(info.fees1);\n        msg.sender.transfer(info.value0);\n        require(msg.value == info.fees1, \"SafeSwap: value mismatch\");\n        IERC1155(info.token1).safeBatchTransferFrom(\n            msg.sender,\n            from,\n            info.tokenIds1,\n            info.values1,\n            info.tokenData1\n        );\n        emit swapETHToERC1155Event(\n            from,\n            msg.sender,\n            info.token0,\n            info.value0,\n            info.token1,\n            info.tokenIds1,\n            info.values1,\n            id\n        );\n    } */\n\n\n}\n\n\n//need to add :\n//swap 1155 with 721\n//swap 721 with 1155\n// to batch1155\n//batch swap 1155 to 721\n//batch swap 721 to 1155\n//batch swap eth to 1155\n//swap batch1155 with batch1155\n//hidden transfer\n//hiddem batch transfer\n//hidden swap - eth to 1155 \n//hidden swap - 11",
  "sourcePath": "/Users/orishalom/repositories/ki-eth-token/contracts/SafeForERC1155.sol",
  "compiler": {
    "name": "solc",
    "version": "0.6.12+commit.27d51765.Emscripten.clang"
  },
  "schemaVersion": "3.3.4",
  "updatedAt": "2021-11-15T13:11:34.976Z",
  "devdoc": {
    "kind": "dev",
    "methods": {
      "getRoleAdmin(bytes32)": {
        "details": "Returns the admin role that controls `role`. See {grantRole} and {revokeRole}. To change a role's admin, use {_setRoleAdmin}."
      },
      "getRoleMember(bytes32,uint256)": {
        "details": "Returns one of the accounts that have `role`. `index` must be a value between 0 and {getRoleMemberCount}, non-inclusive. Role bearers are not sorted in any particular way, and their ordering may change at any point. WARNING: When using {getRoleMember} and {getRoleMemberCount}, make sure you perform all queries on the same block. See the following https://forum.openzeppelin.com/t/iterating-over-elements-on-enumerableset-in-openzeppelin-contracts/2296[forum post] for more information."
      },
      "getRoleMemberCount(bytes32)": {
        "details": "Returns the number of accounts that have `role`. Can be used together with {getRoleMember} to enumerate all bearers of a role."
      },
      "grantRole(bytes32,address)": {
        "details": "Grants `role` to `account`. If `account` had not been already granted `role`, emits a {RoleGranted} event. Requirements: - the caller must have ``role``'s admin role."
      },
      "hasRole(bytes32,address)": {
        "details": "Returns `true` if `account` has been granted `role`."
      },
      "renounceRole(bytes32,address)": {
        "details": "Revokes `role` from the calling account. Roles are often managed via {grantRole} and {revokeRole}: this function's purpose is to provide a mechanism for accounts to lose their privileges if they are compromised (such as when a trusted device is misplaced). If the calling account had been granted `role`, emits a {RoleRevoked} event. Requirements: - the caller must be `account`."
      },
      "revokeRole(bytes32,address)": {
        "details": "Revokes `role` from `account`. If `account` had been granted `role`, emits a {RoleRevoked} event. Requirements: - the caller must have ``role``'s admin role."
      }
    },
    "version": 1
  },
  "userdoc": {
    "kind": "user",
    "methods": {},
    "version": 1
  }
}