{
  "contractName": "SafeForERC1155",
  "abi": [
    {
      "inputs": [
        {
          "internalType": "address",
          "name": "activator",
          "type": "address"
        }
      ],
      "stateMutability": "nonpayable",
      "type": "constructor"
    },
    {
      "anonymous": false,
      "inputs": [
        {
          "indexed": true,
          "internalType": "address",
          "name": "token",
          "type": "address"
        },
        {
          "indexed": true,
          "internalType": "address",
          "name": "from",
          "type": "address"
        },
        {
          "indexed": true,
          "internalType": "address",
          "name": "to",
          "type": "address"
        },
        {
          "indexed": false,
          "internalType": "uint256[]",
          "name": "tokenIds",
          "type": "uint256[]"
        },
        {
          "indexed": false,
          "internalType": "uint256[]",
          "name": "values",
          "type": "uint256[]"
        }
      ],
      "name": "ERC1155BatchCollected",
      "type": "event"
    },
    {
      "anonymous": false,
      "inputs": [
        {
          "indexed": true,
          "internalType": "address",
          "name": "token",
          "type": "address"
        },
        {
          "indexed": true,
          "internalType": "address",
          "name": "from",
          "type": "address"
        },
        {
          "indexed": true,
          "internalType": "address",
          "name": "to",
          "type": "address"
        },
        {
          "indexed": false,
          "internalType": "uint256[]",
          "name": "tokenIds",
          "type": "uint256[]"
        },
        {
          "indexed": false,
          "internalType": "uint256[]",
          "name": "values",
          "type": "uint256[]"
        },
        {
          "indexed": false,
          "internalType": "uint256",
          "name": "fees",
          "type": "uint256"
        },
        {
          "indexed": false,
          "internalType": "bytes32",
          "name": "secretHash",
          "type": "bytes32"
        }
      ],
      "name": "ERC1155BatchTransferDeposited",
      "type": "event"
    },
    {
      "anonymous": false,
      "inputs": [
        {
          "indexed": true,
          "internalType": "address",
          "name": "token",
          "type": "address"
        },
        {
          "indexed": true,
          "internalType": "address",
          "name": "from",
          "type": "address"
        },
        {
          "indexed": true,
          "internalType": "address",
          "name": "to",
          "type": "address"
        },
        {
          "indexed": false,
          "internalType": "uint256[]",
          "name": "tokenIds",
          "type": "uint256[]"
        },
        {
          "indexed": false,
          "internalType": "uint256[]",
          "name": "values",
          "type": "uint256[]"
        }
      ],
      "name": "ERC1155BatchTransferRetrieved",
      "type": "event"
    },
    {
      "anonymous": false,
      "inputs": [
        {
          "indexed": true,
          "internalType": "address",
          "name": "token",
          "type": "address"
        },
        {
          "indexed": true,
          "internalType": "address",
          "name": "from",
          "type": "address"
        },
        {
          "indexed": true,
          "internalType": "address",
          "name": "to",
          "type": "address"
        },
        {
          "indexed": false,
          "internalType": "uint256",
          "name": "tokenId",
          "type": "uint256"
        },
        {
          "indexed": false,
          "internalType": "uint256",
          "name": "value",
          "type": "uint256"
        }
      ],
      "name": "ERC1155Collected",
      "type": "event"
    },
    {
      "anonymous": false,
      "inputs": [
        {
          "indexed": true,
          "internalType": "address",
          "name": "from",
          "type": "address"
        },
        {
          "indexed": true,
          "internalType": "address",
          "name": "to",
          "type": "address"
        },
        {
          "indexed": true,
          "internalType": "address",
          "name": "token0",
          "type": "address"
        },
        {
          "indexed": false,
          "internalType": "uint256[]",
          "name": "tokenId0",
          "type": "uint256[]"
        },
        {
          "indexed": false,
          "internalType": "uint256[]",
          "name": "value0",
          "type": "uint256[]"
        },
        {
          "indexed": false,
          "internalType": "uint256",
          "name": "fees0",
          "type": "uint256"
        },
        {
          "indexed": false,
          "internalType": "address",
          "name": "token1",
          "type": "address"
        },
        {
          "indexed": false,
          "internalType": "uint256[]",
          "name": "tokenId1",
          "type": "uint256[]"
        },
        {
          "indexed": false,
          "internalType": "uint256[]",
          "name": "value1",
          "type": "uint256[]"
        },
        {
          "indexed": false,
          "internalType": "uint256",
          "name": "fees1",
          "type": "uint256"
        },
        {
          "indexed": false,
          "internalType": "bytes32",
          "name": "secretHash",
          "type": "bytes32"
        }
      ],
      "name": "ERC1155SwapDeposited",
      "type": "event"
    },
    {
      "anonymous": false,
      "inputs": [
        {
          "indexed": true,
          "internalType": "address",
          "name": "token",
          "type": "address"
        },
        {
          "indexed": true,
          "internalType": "uint256[]",
          "name": "tokenId",
          "type": "uint256[]"
        },
        {
          "indexed": true,
          "internalType": "address",
          "name": "from",
          "type": "address"
        },
        {
          "indexed": false,
          "internalType": "address",
          "name": "to",
          "type": "address"
        },
        {
          "indexed": false,
          "internalType": "bytes32",
          "name": "id",
          "type": "bytes32"
        },
        {
          "indexed": false,
          "internalType": "uint256[]",
          "name": "value",
          "type": "uint256[]"
        }
      ],
      "name": "ERC1155SwapRetrieved",
      "type": "event"
    },
    {
      "anonymous": false,
      "inputs": [
        {
          "indexed": true,
          "internalType": "address",
          "name": "from",
          "type": "address"
        },
        {
          "indexed": true,
          "internalType": "address",
          "name": "to",
          "type": "address"
        },
        {
          "indexed": true,
          "internalType": "address",
          "name": "token0",
          "type": "address"
        },
        {
          "indexed": false,
          "internalType": "uint256[]",
          "name": "tokenId0",
          "type": "uint256[]"
        },
        {
          "indexed": false,
          "internalType": "uint256[]",
          "name": "value0",
          "type": "uint256[]"
        },
        {
          "indexed": false,
          "internalType": "address",
          "name": "token1",
          "type": "address"
        },
        {
          "indexed": false,
          "internalType": "uint256[]",
          "name": "tokenId1",
          "type": "uint256[]"
        },
        {
          "indexed": false,
          "internalType": "uint256[]",
          "name": "value1",
          "type": "uint256[]"
        },
        {
          "indexed": false,
          "internalType": "bytes32",
          "name": "id",
          "type": "bytes32"
        }
      ],
      "name": "ERC1155Swapped",
      "type": "event"
    },
    {
      "anonymous": false,
      "inputs": [
        {
          "indexed": true,
          "internalType": "address",
          "name": "token",
          "type": "address"
        },
        {
          "indexed": true,
          "internalType": "address",
          "name": "from",
          "type": "address"
        },
        {
          "indexed": true,
          "internalType": "address",
          "name": "to",
          "type": "address"
        },
        {
          "indexed": false,
          "internalType": "uint256",
          "name": "tokenId",
          "type": "uint256"
        },
        {
          "indexed": false,
          "internalType": "uint256",
          "name": "value",
          "type": "uint256"
        },
        {
          "indexed": false,
          "internalType": "uint256",
          "name": "fees",
          "type": "uint256"
        },
        {
          "indexed": false,
          "internalType": "bytes32",
          "name": "secretHash",
          "type": "bytes32"
        }
      ],
      "name": "ERC1155TransferDeposited",
      "type": "event"
    },
    {
      "anonymous": false,
      "inputs": [
        {
          "indexed": true,
          "internalType": "address",
          "name": "token",
          "type": "address"
        },
        {
          "indexed": true,
          "internalType": "address",
          "name": "from",
          "type": "address"
        },
        {
          "indexed": true,
          "internalType": "address",
          "name": "to",
          "type": "address"
        },
        {
          "indexed": false,
          "internalType": "uint256",
          "name": "tokenId",
          "type": "uint256"
        },
        {
          "indexed": false,
          "internalType": "uint256",
          "name": "value",
          "type": "uint256"
        }
      ],
      "name": "ERC1155TransferRetrieved",
      "type": "event"
    },
    {
      "anonymous": false,
      "inputs": [
        {
          "indexed": true,
          "internalType": "address",
          "name": "token",
          "type": "address"
        },
        {
          "indexed": true,
          "internalType": "address",
          "name": "from",
          "type": "address"
        },
        {
          "indexed": true,
          "internalType": "address",
          "name": "to",
          "type": "address"
        },
        {
          "indexed": false,
          "internalType": "bytes32",
          "name": "id",
          "type": "bytes32"
        },
        {
          "indexed": false,
          "internalType": "uint256[]",
          "name": "tokenId",
          "type": "uint256[]"
        }
      ],
      "name": "ERC721Retrieved",
      "type": "event"
    },
    {
      "anonymous": false,
      "inputs": [
        {
          "indexed": true,
          "internalType": "address",
          "name": "from",
          "type": "address"
        },
        {
          "indexed": true,
          "internalType": "address",
          "name": "to",
          "type": "address"
        },
        {
          "indexed": true,
          "internalType": "bytes32",
          "name": "id",
          "type": "bytes32"
        },
        {
          "indexed": false,
          "internalType": "uint256",
          "name": "value",
          "type": "uint256"
        }
      ],
      "name": "Retrieved",
      "type": "event"
    },
    {
      "anonymous": false,
      "inputs": [
        {
          "indexed": true,
          "internalType": "bytes32",
          "name": "role",
          "type": "bytes32"
        },
        {
          "indexed": true,
          "internalType": "bytes32",
          "name": "previousAdminRole",
          "type": "bytes32"
        },
        {
          "indexed": true,
          "internalType": "bytes32",
          "name": "newAdminRole",
          "type": "bytes32"
        }
      ],
      "name": "RoleAdminChanged",
      "type": "event"
    },
    {
      "anonymous": false,
      "inputs": [
        {
          "indexed": true,
          "internalType": "bytes32",
          "name": "role",
          "type": "bytes32"
        },
        {
          "indexed": true,
          "internalType": "address",
          "name": "account",
          "type": "address"
        },
        {
          "indexed": true,
          "internalType": "address",
          "name": "sender",
          "type": "address"
        }
      ],
      "name": "RoleGranted",
      "type": "event"
    },
    {
      "anonymous": false,
      "inputs": [
        {
          "indexed": true,
          "internalType": "bytes32",
          "name": "role",
          "type": "bytes32"
        },
        {
          "indexed": true,
          "internalType": "address",
          "name": "account",
          "type": "address"
        },
        {
          "indexed": true,
          "internalType": "address",
          "name": "sender",
          "type": "address"
        }
      ],
      "name": "RoleRevoked",
      "type": "event"
    },
    {
      "inputs": [],
      "name": "ACTIVATOR_ROLE",
      "outputs": [
        {
          "internalType": "bytes32",
          "name": "",
          "type": "bytes32"
        }
      ],
      "stateMutability": "view",
      "type": "function",
      "constant": true
    },
    {
      "inputs": [],
      "name": "CHAIN_ID",
      "outputs": [
        {
          "internalType": "uint256",
          "name": "",
          "type": "uint256"
        }
      ],
      "stateMutability": "view",
      "type": "function",
      "constant": true
    },
    {
      "inputs": [],
      "name": "DEFAULT_ADMIN_ROLE",
      "outputs": [
        {
          "internalType": "bytes32",
          "name": "",
          "type": "bytes32"
        }
      ],
      "stateMutability": "view",
      "type": "function",
      "constant": true
    },
    {
      "inputs": [],
      "name": "DOMAIN_SEPARATOR",
      "outputs": [
        {
          "internalType": "bytes32",
          "name": "",
          "type": "bytes32"
        }
      ],
      "stateMutability": "view",
      "type": "function",
      "constant": true
    },
    {
      "inputs": [],
      "name": "NAME",
      "outputs": [
        {
          "internalType": "string",
          "name": "",
          "type": "string"
        }
      ],
      "stateMutability": "view",
      "type": "function",
      "constant": true
    },
    {
      "inputs": [],
      "name": "VERSION",
      "outputs": [
        {
          "internalType": "string",
          "name": "",
          "type": "string"
        }
      ],
      "stateMutability": "view",
      "type": "function",
      "constant": true
    },
    {
      "inputs": [],
      "name": "VERSION_NUMBER",
      "outputs": [
        {
          "internalType": "uint8",
          "name": "",
          "type": "uint8"
        }
      ],
      "stateMutability": "view",
      "type": "function",
      "constant": true
    },
    {
      "inputs": [
        {
          "internalType": "bytes32",
          "name": "role",
          "type": "bytes32"
        }
      ],
      "name": "getRoleAdmin",
      "outputs": [
        {
          "internalType": "bytes32",
          "name": "",
          "type": "bytes32"
        }
      ],
      "stateMutability": "view",
      "type": "function",
      "constant": true
    },
    {
      "inputs": [
        {
          "internalType": "bytes32",
          "name": "role",
          "type": "bytes32"
        },
        {
          "internalType": "uint256",
          "name": "index",
          "type": "uint256"
        }
      ],
      "name": "getRoleMember",
      "outputs": [
        {
          "internalType": "address",
          "name": "",
          "type": "address"
        }
      ],
      "stateMutability": "view",
      "type": "function",
      "constant": true
    },
    {
      "inputs": [
        {
          "internalType": "bytes32",
          "name": "role",
          "type": "bytes32"
        }
      ],
      "name": "getRoleMemberCount",
      "outputs": [
        {
          "internalType": "uint256",
          "name": "",
          "type": "uint256"
        }
      ],
      "stateMutability": "view",
      "type": "function",
      "constant": true
    },
    {
      "inputs": [
        {
          "internalType": "bytes32",
          "name": "role",
          "type": "bytes32"
        },
        {
          "internalType": "address",
          "name": "account",
          "type": "address"
        }
      ],
      "name": "grantRole",
      "outputs": [],
      "stateMutability": "nonpayable",
      "type": "function"
    },
    {
      "inputs": [
        {
          "internalType": "bytes32",
          "name": "role",
          "type": "bytes32"
        },
        {
          "internalType": "address",
          "name": "account",
          "type": "address"
        }
      ],
      "name": "hasRole",
      "outputs": [
        {
          "internalType": "bool",
          "name": "",
          "type": "bool"
        }
      ],
      "stateMutability": "view",
      "type": "function",
      "constant": true
    },
    {
      "inputs": [
        {
          "internalType": "bytes32",
          "name": "role",
          "type": "bytes32"
        },
        {
          "internalType": "address",
          "name": "account",
          "type": "address"
        }
      ],
      "name": "renounceRole",
      "outputs": [],
      "stateMutability": "nonpayable",
      "type": "function"
    },
    {
      "inputs": [
        {
          "internalType": "bytes32",
          "name": "role",
          "type": "bytes32"
        },
        {
          "internalType": "address",
          "name": "account",
          "type": "address"
        }
      ],
      "name": "revokeRole",
      "outputs": [],
      "stateMutability": "nonpayable",
      "type": "function"
    },
    {
      "stateMutability": "payable",
      "type": "receive",
      "payable": true
    },
    {
      "inputs": [
        {
          "internalType": "address payable",
          "name": "wallet",
          "type": "address"
        },
        {
          "internalType": "uint256",
          "name": "value",
          "type": "uint256"
        }
      ],
      "name": "transferFees",
      "outputs": [],
      "stateMutability": "nonpayable",
      "type": "function"
    },
    {
      "inputs": [],
      "name": "totalFees",
      "outputs": [
        {
          "internalType": "uint256",
          "name": "",
          "type": "uint256"
        }
      ],
      "stateMutability": "view",
      "type": "function",
      "constant": true
    },
    {
      "inputs": [
        {
          "internalType": "address",
          "name": "token",
          "type": "address"
        },
        {
          "internalType": "address",
          "name": "from",
          "type": "address"
        },
        {
          "internalType": "address payable",
          "name": "to",
          "type": "address"
        },
        {
          "internalType": "uint256",
          "name": "tokenId",
          "type": "uint256"
        },
        {
          "internalType": "uint256",
          "name": "value",
          "type": "uint256"
        },
        {
          "internalType": "bytes",
          "name": "tokenData",
          "type": "bytes"
        },
        {
          "internalType": "uint256",
          "name": "fees",
          "type": "uint256"
        },
        {
          "internalType": "bytes32",
          "name": "secretHash",
          "type": "bytes32"
        },
        {
          "internalType": "bytes",
          "name": "secret",
          "type": "bytes"
        }
      ],
      "name": "collectERC1155",
      "outputs": [],
      "stateMutability": "nonpayable",
      "type": "function"
    },
    {
      "inputs": [
        {
          "internalType": "address",
          "name": "token",
          "type": "address"
        },
        {
          "internalType": "address",
          "name": "to",
          "type": "address"
        },
        {
          "internalType": "uint256[]",
          "name": "tokenIds",
          "type": "uint256[]"
        },
        {
          "internalType": "uint256[]",
          "name": "values",
          "type": "uint256[]"
        },
        {
          "internalType": "bytes",
          "name": "tokenData",
          "type": "bytes"
        },
        {
          "internalType": "uint256",
          "name": "fees",
          "type": "uint256"
        },
        {
          "internalType": "bytes32",
          "name": "secretHash",
          "type": "bytes32"
        }
      ],
      "name": "depositBatchERC1155",
      "outputs": [],
      "stateMutability": "payable",
      "type": "function",
      "payable": true
    },
    {
      "inputs": [
        {
          "internalType": "address",
          "name": "token",
          "type": "address"
        },
        {
          "internalType": "address",
          "name": "to",
          "type": "address"
        },
        {
          "internalType": "uint256[]",
          "name": "tokenIds",
          "type": "uint256[]"
        },
        {
          "internalType": "uint256[]",
          "name": "values",
          "type": "uint256[]"
        },
        {
          "internalType": "bytes",
          "name": "tokenData",
          "type": "bytes"
        },
        {
          "internalType": "uint256",
          "name": "fees",
          "type": "uint256"
        },
        {
          "internalType": "bytes32",
          "name": "secretHash",
          "type": "bytes32"
        }
      ],
      "name": "retrieveBatchERC1155",
      "outputs": [],
      "stateMutability": "nonpayable",
      "type": "function"
    },
    {
      "inputs": [
        {
          "internalType": "address",
          "name": "to",
          "type": "address"
        },
        {
          "internalType": "address",
          "name": "from",
          "type": "address"
        },
        {
          "components": [
            {
              "internalType": "address",
              "name": "token",
              "type": "address"
            },
            {
              "internalType": "uint256[]",
              "name": "tokenIds",
              "type": "uint256[]"
            },
            {
              "internalType": "uint256[]",
              "name": "values",
              "type": "uint256[]"
            },
            {
              "internalType": "bytes",
              "name": "tokenData",
              "type": "bytes"
            },
            {
              "internalType": "uint256",
              "name": "fees",
              "type": "uint256"
            },
            {
              "internalType": "bytes32",
              "name": "secretHash",
              "type": "bytes32"
            },
            {
              "internalType": "bytes",
              "name": "secret",
              "type": "bytes"
            }
          ],
          "internalType": "struct SafeForERC1155.CollectBatchERC1155Info",
          "name": "info",
          "type": "tuple"
        }
      ],
      "name": "collectBatchERC1155",
      "outputs": [],
      "stateMutability": "nonpayable",
      "type": "function"
    },
    {
      "inputs": [
        {
          "internalType": "address",
          "name": "token",
          "type": "address"
        },
        {
          "internalType": "address",
          "name": "to",
          "type": "address"
        },
        {
          "internalType": "uint256",
          "name": "tokenId",
          "type": "uint256"
        },
        {
          "internalType": "uint256",
          "name": "value",
          "type": "uint256"
        },
        {
          "internalType": "bytes",
          "name": "tokenData",
          "type": "bytes"
        },
        {
          "internalType": "uint256",
          "name": "fees",
          "type": "uint256"
        },
        {
          "internalType": "bytes32",
          "name": "secretHash",
          "type": "bytes32"
        }
      ],
      "name": "depositERC1155",
      "outputs": [],
      "stateMutability": "payable",
      "type": "function",
      "payable": true
    },
    {
      "inputs": [
        {
          "internalType": "address payable",
          "name": "to",
          "type": "address"
        },
        {
          "components": [
            {
              "internalType": "address",
              "name": "token0",
              "type": "address"
            },
            {
              "internalType": "uint256[]",
              "name": "tokenId0",
              "type": "uint256[]"
            },
            {
              "internalType": "uint256[]",
              "name": "value0",
              "type": "uint256[]"
            },
            {
              "internalType": "bytes",
              "name": "tokenData0",
              "type": "bytes"
            },
            {
              "internalType": "uint256",
              "name": "fees0",
              "type": "uint256"
            },
            {
              "internalType": "address",
              "name": "token1",
              "type": "address"
            },
            {
              "internalType": "uint256[]",
              "name": "tokenId1",
              "type": "uint256[]"
            },
            {
              "internalType": "uint256[]",
              "name": "value1",
              "type": "uint256[]"
            },
            {
              "internalType": "bytes",
              "name": "tokenData1",
              "type": "bytes"
            },
            {
              "internalType": "uint256",
              "name": "fees1",
              "type": "uint256"
            },
            {
              "internalType": "bytes32",
              "name": "secretHash",
              "type": "bytes32"
            }
          ],
          "internalType": "struct SafeForERC1155.SwapERC1155Info",
          "name": "info",
          "type": "tuple"
        }
      ],
      "name": "depositERC1155",
      "outputs": [],
      "stateMutability": "payable",
      "type": "function",
      "payable": true
    },
    {
      "inputs": [
        {
          "internalType": "address",
          "name": "to",
          "type": "address"
        },
        {
          "components": [
            {
              "internalType": "address",
              "name": "token0",
              "type": "address"
            },
            {
              "internalType": "uint256[]",
              "name": "tokenId0",
              "type": "uint256[]"
            },
            {
              "internalType": "uint256[]",
              "name": "value0",
              "type": "uint256[]"
            },
            {
              "internalType": "bytes",
              "name": "tokenData0",
              "type": "bytes"
            },
            {
              "internalType": "uint256",
              "name": "fees0",
              "type": "uint256"
            },
            {
              "internalType": "address",
              "name": "token1",
              "type": "address"
            },
            {
              "internalType": "uint256[]",
              "name": "tokenId1",
              "type": "uint256[]"
            },
            {
              "internalType": "uint256[]",
              "name": "value1",
              "type": "uint256[]"
            },
            {
              "internalType": "bytes",
              "name": "tokenData1",
              "type": "bytes"
            },
            {
              "internalType": "uint256",
              "name": "fees1",
              "type": "uint256"
            },
            {
              "internalType": "bytes32",
              "name": "secretHash",
              "type": "bytes32"
            }
          ],
          "internalType": "struct SafeForERC1155.SwapERC1155Info",
          "name": "info",
          "type": "tuple"
        }
      ],
      "name": "retrieveERC1155",
      "outputs": [],
      "stateMutability": "nonpayable",
      "type": "function"
    },
    {
      "inputs": [
        {
          "internalType": "address",
          "name": "token",
          "type": "address"
        },
        {
          "internalType": "address",
          "name": "to",
          "type": "address"
        },
        {
          "internalType": "uint256",
          "name": "tokenId",
          "type": "uint256"
        },
        {
          "internalType": "uint256",
          "name": "value",
          "type": "uint256"
        },
        {
          "internalType": "bytes",
          "name": "tokenData",
          "type": "bytes"
        },
        {
          "internalType": "uint256",
          "name": "fees",
          "type": "uint256"
        },
        {
          "internalType": "bytes32",
          "name": "secretHash",
          "type": "bytes32"
        }
      ],
      "name": "retrieveERC1155",
      "outputs": [],
      "stateMutability": "nonpayable",
      "type": "function"
    },
    {
      "inputs": [
        {
          "internalType": "address payable",
          "name": "from",
          "type": "address"
        },
        {
          "components": [
            {
              "internalType": "address",
              "name": "token0",
              "type": "address"
            },
            {
              "internalType": "uint256[]",
              "name": "tokenId0",
              "type": "uint256[]"
            },
            {
              "internalType": "uint256[]",
              "name": "value0",
              "type": "uint256[]"
            },
            {
              "internalType": "bytes",
              "name": "tokenData0",
              "type": "bytes"
            },
            {
              "internalType": "uint256",
              "name": "fees0",
              "type": "uint256"
            },
            {
              "internalType": "address",
              "name": "token1",
              "type": "address"
            },
            {
              "internalType": "uint256[]",
              "name": "tokenId1",
              "type": "uint256[]"
            },
            {
              "internalType": "uint256[]",
              "name": "value1",
              "type": "uint256[]"
            },
            {
              "internalType": "bytes",
              "name": "tokenData1",
              "type": "bytes"
            },
            {
              "internalType": "uint256",
              "name": "fees1",
              "type": "uint256"
            },
            {
              "internalType": "bytes32",
              "name": "secretHash",
              "type": "bytes32"
            }
          ],
          "internalType": "struct SafeForERC1155.SwapERC1155Info",
          "name": "info",
          "type": "tuple"
        },
        {
          "internalType": "bytes",
          "name": "secret",
          "type": "bytes"
        }
      ],
      "name": "swapERC1155",
      "outputs": [],
      "stateMutability": "payable",
      "type": "function",
      "payable": true
    }
  ],
  "bytecode": "0x60806040523480156200001157600080fd5b506040516200323c3803806200323c833981016040819052620000349162000299565b6200004160003362000185565b6200005c6000805160206200321c8339815191523362000185565b620000776000805160206200321c8339815191528262000185565b466002819055600160b01b600160f01b0360001943014060b01b1630908117600160f81b176003819055604080518082018252601481527f4b69726f626f2053616665205472616e736665720000000000000000000000006020918201528151808301835260018152603160f81b90820152905162000161937fd87cd6ef79d4e2b95e15ce8abf732db51ec771f1ca2edccf22a46c729ac56472937fa0e7867c78e9ee05b975f886625b0f857545d287fd4041f342f5f7398f7cf444937fc89efdaa54c0f20c7adf612882df0950f5a951637e0307cdcb4c672f298b8bc6938893929101620002c9565b604051602081830303815290604052805190602001206001819055505050620002fa565b62000191828262000195565b5050565b600082815260208181526040909120620001ba918390620019586200020e821b17901c565b156200019157620001ca6200022e565b6001600160a01b0316816001600160a01b0316837f2f8788117e7eff1d82e926ec794901d17c78024a50270940304540a733656f0d60405160405180910390a45050565b600062000225836001600160a01b03841662000232565b90505b92915050565b3390565b600062000240838362000281565b620002785750815460018181018455600084815260208082209093018490558454848252828601909352604090209190915562000228565b50600062000228565b60009081526001919091016020526040902054151590565b600060208284031215620002ab578081fd5b81516001600160a01b0381168114620002c2578182fd5b9392505050565b9586526020860194909452604085019290925260608401526001600160a01b0316608083015260a082015260c00190565b612f12806200030a6000396000f3fe60806040526004361061016a5760003560e01c806385e1f4d0116100d1578063a3f4df7e1161008a578063d547741f11610064578063d547741f14610400578063e49a12dc14610420578063fea5c3e114610440578063ffa1ad741461046057610192565b8063a3f4df7e146103ab578063ca15c873146103cd578063d51bcfde146103ed57610192565b806385e1f4d0146102f45780638b23d81b146103095780639010d07c1461032957806391d14854146103565780639b39afe214610383578063a217fddf1461039657610192565b806349898f441161012357806349898f441461024c57806359e101781461026c57806374ddc7511461027f57806378e80e101461029f57806379096a89146102b25780638025e303146102d257610192565b806308740a3b1461019757806313114a9d146101c2578063248a9ca3146101d75780632f2ff15d146101f75780633644e5151461021757806336568abe1461022c57610192565b366101925760405162461bcd60e51b815260040161018790612d40565b60405180910390fd5b005b600080fd5b3480156101a357600080fd5b506101ac610475565b6040516101b991906128f2565b60405180910390f35b3480156101ce57600080fd5b506101ac610487565b3480156101e357600080fd5b506101ac6101f2366004612385565b61048d565b34801561020357600080fd5b5061019061021236600461239d565b6104a2565b34801561022357600080fd5b506101ac6104ea565b34801561023857600080fd5b5061019061024736600461239d565b6104f0565b34801561025857600080fd5b5061019061026736600461203b565b610532565b61019061027a3660046122fd565b610749565b34801561028b57600080fd5b5061019061029a366004612111565b61086b565b6101906102ad366004612111565b61097a565b3480156102be57600080fd5b506101906102cd366004611f4e565b610a91565b3480156102de57600080fd5b506102e7610cba565b6040516101b99190612e70565b34801561030057600080fd5b506101ac610cbf565b34801561031557600080fd5b506101906103243660046121dd565b610cc5565b34801561033557600080fd5b506103496103443660046123cc565b610f00565b6040516101b99190612516565b34801561036257600080fd5b5061037661037136600461239d565b610f21565b6040516101b991906128e7565b610190610391366004611f9b565b610f39565b3480156103a257600080fd5b506101ac611442565b3480156103b757600080fd5b506103c0611447565b6040516101b9919061291c565b3480156103d957600080fd5b506101ac6103e8366004612385565b611477565b6101906103fb366004611f4e565b61148e565b34801561040c57600080fd5b5061019061041b36600461239d565b611790565b34801561042c57600080fd5b5061019061043b366004612010565b6117ca565b34801561044c57600080fd5b5061019061045b3660046122fd565b611849565b34801561046c57600080fd5b506103c061193b565b600080516020612ebd83398151915281565b60045490565b60009081526020819052604090206002015490565b6000828152602081905260409020600201546104c09061037161196d565b6104dc5760405162461bcd60e51b81526004016101879061299f565b6104e68282611971565b5050565b60015481565b6104f861196d565b6001600160a01b0316816001600160a01b0316146105285760405162461bcd60e51b815260040161018790612df8565b6104e682826119da565b61054a600080516020612ebd83398151915233610f21565b6105665760405162461bcd60e51b815260040161018790612d09565b60008b8b8b8b8b8b8b8b8b60405160200161058999989796959493929190612640565b60408051601f19818403018152918152815160209283012060008181526005909352912054909150806105ce5760405162461bcd60e51b815260040161018790612c6b565b42816001600160401b0316116105f65760405162461bcd60e51b815260040161018790612971565b42604082901c6001600160401b031611156106235760405162461bcd60e51b8152600401610187906129ee565b848484604051610634929190612506565b6040518091039020146106595760405162461bcd60e51b815260040161018790612b8c565b6000828152600560205260408120556004546106759087611a43565b6004819055508c6001600160a01b031663f242432a8d8d8d8d8d8d6040518763ffffffff1660e01b81526004016106b19695949392919061269d565b600060405180830381600087803b1580156106cb57600080fd5b505af11580156106df573d6000803e3d6000fd5b505050508a6001600160a01b03168c6001600160a01b03168e6001600160a01b03167fda390d84d1887172ecb3fafdf8c63dfd9a80723aab498c394f51b7474b067fa28d8d604051610732929190612e47565b60405180910390a450505050505050505050505050565b8134146107685760405162461bcd60e51b815260040161018790612abe565b6001600160a01b0387163314156107915760405162461bcd60e51b815260040161018790612bc3565b60008833898989898989896040516020016107b499989796959493929190612640565b60408051601f19818403018152918152815160209283012060008181526005909352912054909150156107f95760405162461bcd60e51b815260040161018790612a5c565b600081815260056020526040908190206001600160401b039055516001600160a01b03808a169133918c16907f815701d2a70cb9728dad47bf244cfb943736d064c1f0d6eb6386e1da4b9be6b290610858908c908c908a908a90612e55565b60405180910390a4505050505050505050565b60008a338b8b8b8b8b8b8b8b8b6040516020016108929b9a999897969594939291906125c5565b60408051601f198184030181529181528151602092830120600081815260059093529120549091506108d65760405162461bcd60e51b815260040161018790612c6b565b60008181526005602052604080822082905551339185156108fc02918691818181858888f19350505050158015610911573d6000803e3d6000fd5b50896001600160a01b0316336001600160a01b03168c6001600160a01b03167fc2263345832f5e2ac00f59aee67304df8fd8c45c216e65a610afc67c7568c1148c8c8c8c604051610965949392919061277d565b60405180910390a45050505050505050505050565b8134146109995760405162461bcd60e51b815260040161018790612abe565b6001600160a01b0389163314156109c25760405162461bcd60e51b815260040161018790612bc3565b60008a338b8b8b8b8b8b8b8b8b6040516020016109e99b9a999897969594939291906125c5565b60408051601f1981840301815291815281516020928301206000818152600590935291205490915015610a2e5760405162461bcd60e51b815260040161018790612a5c565b600081815260056020526040908190206001600160401b039055516001600160a01b03808c169133918e16907f8ac12a82b0377e2c6e1e42e37e8d8957f8df98f5c6d9fcbc86dcc2d65c5f1e2f90610965908e908e908e908e908c908c906127af565b600082604051602001610aa49190612516565b60408051601f19818403018152918152815160209283012060008181526006909352912054909150610ae85760405162461bcd60e51b815260040161018790612d8a565b600081815260066020526040812081905582516001600160a01b0316610b3e57610b3783608001518460400151600081518110610b2157fe5b6020026020010151611a4390919063ffffffff16565b9050610b45565b5060808201515b604051339082156108fc029083906000818181858888f19350505050158015610b72573d6000803e3d6000fd5b5082516001600160a01b0316610bd35781846001600160a01b0316336001600160a01b03167f2c0f05de664e2354e281c7c55d07fe10e18c61d9b196dbcd318285801b36cde484604051610bc691906128f2565b60405180910390a4610cb4565b8260400151600081518110610be457fe5b602002602001015160001415610c4b57836001600160a01b0316336001600160a01b031684600001516001600160a01b03167f725df2dbbb1b34d2b94419654875f4ec4cae7dacbd37395f457b7cf9cd954bd3858760400151604051610bc69291906128fb565b60208301516040513391610c5e916124d0565b604051809103902084600001516001600160a01b03167faa25181806aa003e4be258c6273e729d903fbb8bfc219c147a2f1a01fc1b876c87868860400151604051610cab9392919061274d565b60405180910390a45b50505050565b600181565b60025481565b610cdd600080516020612ebd83398151915233610f21565b610cf95760405162461bcd60e51b815260040161018790612d09565b60008160000151838584602001518560400151866060015187608001518860a00151604051602001610d329897969594939291906126d8565b60408051601f1981840301815291815281516020928301206000818152600590935291205490915080610d775760405162461bcd60e51b815260040161018790612c6b565b42816001600160401b031611610d9f5760405162461bcd60e51b815260040161018790612971565b42604082901c6001600160401b03161115610dcc5760405162461bcd60e51b8152600401610187906129ee565b8260a001518360c001518051906020012014610dfa5760405162461bcd60e51b815260040161018790612b8c565b6000828152600560205260408120556080830151600454610e1a91611a43565b60048190555082600001516001600160a01b0316632eb2c2d685878660200151876040015188606001516040518663ffffffff1660e01b8152600401610e6495949392919061252a565b600060405180830381600087803b158015610e7e57600080fd5b505af1158015610e92573d6000803e3d6000fd5b50505050846001600160a01b0316846001600160a01b031684600001516001600160a01b03167f759238326589d20c2f643db19775089f05967fb40ad4c6b19374156de496b44586602001518760400151604051610ef19291906127ec565b60405180910390a45050505050565b6000828152602081905260408120610f189083611a68565b90505b92915050565b6000828152602081905260408120610f189083611a74565b600033604051602001610f4c9190612516565b60408051601f1981840301815291815281516020928301206000818152600690935291205490915080610f915760405162461bcd60e51b815260040161018790612d8a565b42816001600160401b031611610fb95760405162461bcd60e51b815260040161018790612a93565b42604082901c6001600160401b03161115610fe65760405162461bcd60e51b815260040161018790612b55565b8461014001518484604051610ffc929190612506565b6040518091039020146110215760405162461bcd60e51b815260040161018790612ca2565b6000828152600660205260408120556101208501516080860151600454611053929161104d9190611a43565b90611a43565b60045584516001600160a01b03166110bc57336001600160a01b03166108fc866040015160008151811061108357fe5b60200260200101519081150290604051600060405180830381858888f193505050501580156110b6573d6000803e3d6000fd5b506111dc565b84604001516000815181106110cd57fe5b6020026020010151600014156111665784600001516001600160a01b031663b88d4fde8733886020015160008151811061110357fe5b602002602001015189606001516040518563ffffffff1660e01b815260040161112f9493929190612588565b600060405180830381600087803b15801561114957600080fd5b505af115801561115d573d6000803e3d6000fd5b505050506111dc565b8451602086015160408088015160608901519151631759616b60e11b81526001600160a01b0390941693632eb2c2d6936111a9938c93339390919060040161252a565b600060405180830381600087803b1580156111c357600080fd5b505af11580156111d7573d6000803e3d6000fd5b505050505b60a08501516001600160a01b031661127d576112088561012001518660e00151600081518110610b2157fe5b34146112265760405162461bcd60e51b815260040161018790612cd2565b856001600160a01b03166108fc8660e0015160008151811061124457fe5b60200260200101519081150290604051600060405180830381858888f19350505050158015611277573d6000803e3d6000fd5b506113c3565b8460e0015160008151811061128e57fe5b602002602001015160001415611328578460a001516001600160a01b031663b88d4fde87338860c001516000815181106112c457fe5b60200260200101518961010001516040518563ffffffff1660e01b81526004016112f19493929190612588565b600060405180830381600087803b15801561130b57600080fd5b505af115801561131f573d6000803e3d6000fd5b505050506113c3565b846101200151341461134c5760405162461bcd60e51b815260040161018790612cd2565b60a085015160c086015160e0870151610100880151604051631759616b60e11b81526001600160a01b0390941693632eb2c2d6936113909333938d9360040161252a565b600060405180830381600087803b1580156113aa57600080fd5b505af11580156113be573d6000803e3d6000fd5b505050505b84600001516001600160a01b0316336001600160a01b0316876001600160a01b03167f881f1b4ed82f90d52490614dbe58ea1c05bfd069a7d5d5ca131e0d5b6bf07261886020015189604001518a60a001518b60c001518c60e001518a60405161143296959493929190612811565b60405180910390a4505050505050565b600081565b6040518060400160405280601481526020017325b4b937b1379029b0b332902a3930b739b332b960611b81525081565b6000818152602081905260408120610f1b90611a89565b80516001600160a01b031661154b578060a001516001600160a01b031681600001516001600160a01b031614156114d75760405162461bcd60e51b815260040161018790612bfa565b6114f081608001518260400151600081518110610b2157fe5b341461150e5760405162461bcd60e51b815260040161018790612cd2565b60008160e0015160008151811061152157fe5b6020026020010151116115465760405162461bcd60e51b815260040161018790612c3f565b6116ae565b60a08101516001600160a01b031661159357806080015134146115805760405162461bcd60e51b815260040161018790612cd2565b6000816040015160008151811061152157fe5b80604001516000815181106115a457fe5b6020026020010151600014156115d7578060800151341461150e5760405162461bcd60e51b815260040161018790612cd2565b8060e001516000815181106115e857fe5b60200260200101516000141561161b57806080015134146115805760405162461bcd60e51b815260040161018790612cd2565b8060800151341461163e5760405162461bcd60e51b815260040161018790612cd2565b6000816040015160008151811061165157fe5b6020026020010151116116765760405162461bcd60e51b815260040161018790612c3f565b60008160e0015160008151811061168957fe5b6020026020010151116116ae5760405162461bcd60e51b815260040161018790612c3f565b6001600160a01b0382163314156116d75760405162461bcd60e51b815260040161018790612dc1565b6000826040516020016116ea9190612516565b60405160208183030381529060405280519060200120905081600001516001600160a01b0316836001600160a01b0316336001600160a01b03167f8e9aa3337874592880c80ddd5c52ecfa44586c80bb6cb420c67670b86da528e78560200151866040015187608001518860a001518960c001518a60e001518b61012001518c6101400151604051611783989796959493929190612881565b60405180910390a4505050565b6000828152602081905260409020600201546117ae9061037161196d565b6105285760405162461bcd60e51b815260040161018790612b05565b6117e2600080516020612ebd83398151915233610f21565b6117fe5760405162461bcd60e51b815260040161018790612d09565b60045461180b9082611a94565b6004556040516001600160a01b0383169082156108fc029083906000818181858888f19350505050158015611844573d6000803e3d6000fd5b505050565b600088338989898989898960405160200161186c99989796959493929190612640565b60408051601f198184030181529181528151602092830120600081815260059093529120549091506118b05760405162461bcd60e51b815260040161018790612c6b565b60008181526005602052604080822082905551339185156108fc02918691818181858888f193505050501580156118eb573d6000803e3d6000fd5b50876001600160a01b0316336001600160a01b03168a6001600160a01b03167f8a96343c35f852197f641ff14a8eebe74e8708a2eac119132630719127f4c2678a8a604051610858929190612e47565b604051806040016040528060018152602001603160f81b81525081565b6000610f18836001600160a01b038416611ad6565b3390565b60008281526020819052604090206119899082611958565b156104e65761199661196d565b6001600160a01b0316816001600160a01b0316837f2f8788117e7eff1d82e926ec794901d17c78024a50270940304540a733656f0d60405160405180910390a45050565b60008281526020819052604090206119f29082611b20565b156104e6576119ff61196d565b6001600160a01b0316816001600160a01b0316837ff6391f5c32d9c69d2a47ea670b442974b53935d1edc7fd64eb21e047a839171b60405160405180910390a45050565b600082820183811015610f185760405162461bcd60e51b815260040161018790612a25565b6000610f188383611b35565b6000610f18836001600160a01b038416611b7a565b6000610f1b82611b92565b6000610f1883836040518060400160405280601e81526020017f536166654d6174683a207375627472616374696f6e206f766572666c6f770000815250611b96565b6000611ae28383611b7a565b611b1857508154600181810184556000848152602080822090930184905584548482528286019093526040902091909155610f1b565b506000610f1b565b6000610f18836001600160a01b038416611bc2565b81546000908210611b585760405162461bcd60e51b81526004016101879061292f565b826000018281548110611b6757fe5b9060005260206000200154905092915050565b60009081526001919091016020526040902054151590565b5490565b60008184841115611bba5760405162461bcd60e51b8152600401610187919061291c565b505050900390565b60008181526001830160205260408120548015611c7e5783546000198083019190810190600090879083908110611bf557fe5b9060005260206000200154905080876000018481548110611c1257fe5b600091825260208083209091019290925582815260018981019092526040902090840190558654879080611c4257fe5b60019003818190600052602060002001600090559055866001016000878152602001908152602001600020600090556001945050505050610f1b565b6000915050610f1b565b8035610f1b81612ea4565b60008083601f840112611ca4578182fd5b5081356001600160401b03811115611cba578182fd5b6020830191508360208083028501011115611cd457600080fd5b9250929050565b600082601f830112611ceb578081fd5b81356001600160401b03811115611d00578182fd5b6020808202611d10828201612e7e565b83815293508184018583018287018401881015611d2c57600080fd5b600092505b84831015611d4f578035825260019290920191908301908301611d31565b505050505092915050565b60008083601f840112611d6b578182fd5b5081356001600160401b03811115611d81578182fd5b602083019150836020828501011115611cd457600080fd5b600082601f830112611da9578081fd5b81356001600160401b03811115611dbe578182fd5b611dd1601f8201601f1916602001612e7e565b9150808252836020828501011115611de857600080fd5b8060208401602084013760009082016020015292915050565b6000610160808385031215611e14578182fd5b611e1d81612e7e565b915050611e2a8383611c88565b815260208201356001600160401b0380821115611e4657600080fd5b611e5285838601611cdb565b60208401526040840135915080821115611e6b57600080fd5b611e7785838601611cdb565b60408401526060840135915080821115611e9057600080fd5b611e9c85838601611d99565b606084015260808401356080840152611eb88560a08601611c88565b60a084015260c0840135915080821115611ed157600080fd5b611edd85838601611cdb565b60c084015260e0840135915080821115611ef657600080fd5b611f0285838601611cdb565b60e084015261010091508184013581811115611f1d57600080fd5b611f2986828701611d99565b8385015250505061012080830135818301525061014080830135818301525092915050565b60008060408385031215611f60578182fd5b8235611f6b81612ea4565b915060208301356001600160401b03811115611f85578182fd5b611f9185828601611e01565b9150509250929050565b60008060008060608587031215611fb0578182fd5b8435611fbb81612ea4565b935060208501356001600160401b0380821115611fd6578384fd5b611fe288838901611e01565b94506040870135915080821115611ff7578384fd5b5061200487828801611d5a565b95989497509550505050565b60008060408385031215612022578182fd5b823561202d81612ea4565b946020939093013593505050565b60008060008060008060008060008060006101208c8e03121561205c578687fd5b6120668c35612ea4565b8b359a5061207760208d0135612ea4565b60208c0135995061208b8d60408e01611c88565b985060608c0135975060808c013596506001600160401b038060a08e013511156120b3578687fd5b6120c38e60a08f01358f01611d5a565b909750955060c08d0135945060e08d013593506101008d01358110156120e7578283fd5b506120f98d6101008e01358e01611d5a565b81935080925050509295989b509295989b9093969950565b60008060008060008060008060008060e08b8d03121561212f578586fd5b8a3561213a81612ea4565b995060208b013561214a81612ea4565b985060408b01356001600160401b0380821115612165578788fd5b6121718e838f01611c93565b909a50985060608d0135915080821115612189578788fd5b6121958e838f01611c93565b909850965060808d01359150808211156121ad578586fd5b506121ba8d828e01611d5a565b9b9e9a9d50989b979a969995989760a08101359660c09091013595509350505050565b6000806000606084860312156121f1578081fd5b83356121fc81612ea4565b9250602084013561220c81612ea4565b915060408401356001600160401b0380821115612227578283fd5b9085019060e0828803121561223a578283fd5b61224460e0612e7e565b61224e8884611c88565b8152602083013582811115612261578485fd5b61226d89828601611cdb565b602083015250604083013582811115612284578485fd5b61229089828601611cdb565b6040830152506060830135828111156122a7578485fd5b6122b389828601611d99565b6060830152506080830135608082015260a083013560a082015260c0830135828111156122de578485fd5b6122ea89828601611d99565b60c0830152508093505050509250925092565b60008060008060008060008060e0898b031215612318578182fd5b883561232381612ea4565b9750602089013561233381612ea4565b9650604089013595506060890135945060808901356001600160401b0381111561235b578283fd5b6123678b828c01611d5a565b999c989b5096999598969760a08701359660c0013595509350505050565b600060208284031215612396578081fd5b5035919050565b600080604083850312156123af578182fd5b8235915060208301356123c181612ea4565b809150509250929050565b600080604083850312156123de578182fd5b50508035926020909101359150565b81835260006001600160fb1b03831115612405578081fd5b6020830280836020870137939093016020019283525090919050565b6000815180845260208085019450808401835b8381101561245057815187529582019590820190600101612434565b509495945050505050565b60008284528282602086013780602084860101526020601f19601f85011685010190509392505050565b60008151808452815b818110156124aa5760208185018101518683018201520161248e565b818111156124bb5782602083870101525b50601f01601f19169290920160200192915050565b815160009082906020808601845b838110156124fa578151855293820193908201906001016124de565b50929695505050505050565b6000828483379101908152919050565b6001600160a01b0391909116815260200190565b6001600160a01b0386811682528516602082015260a06040820181905260009061255690830186612421565b82810360608401526125688186612421565b9050828103608084015261257c8185612485565b98975050505050505050565b6001600160a01b03858116825284166020820152604081018390526080606082018190526000906125bb90830184612485565b9695505050505050565b6001600160a01b038c811682528b811660208301528a166040820152610100606082018190526000906125fb8382018b8d6123ed565b9050828103608084015261261081898b6123ed565b905082810360a084015261262581878961245b565b60c0840195909552505060e001529998505050505050505050565b6001600160a01b038a81168252898116602083015288166040820152606081018790526080810186905261010060a08201819052600090612684838201878961245b565b60c0840195909552505060e00152979650505050505050565b6001600160a01b03878116825286166020820152604081018590526060810184905260a06080820181905260009061257c908301848661245b565b6001600160a01b0389811682528881166020830152871660408201526101006060820181905260009061270d83820189612421565b905082810360808401526127218188612421565b905082810360a08401526127358187612485565b60c0840195909552505060e001529695505050505050565b600060018060a01b0385168252836020830152606060408301526127746060830184612421565b95945050505050565b6000604082526127916040830186886123ed565b82810360208401526127a48185876123ed565b979650505050505050565b6000608082526127c360808301888a6123ed565b82810360208401526127d68187896123ed565b6040840195909552505060600152949350505050565b6000604082526127ff6040830185612421565b82810360208401526127748185612421565b600060c0825261282460c0830189612421565b82810360208401526128368189612421565b6001600160a01b0388166040850152838103606085015290506128598187612421565b9050828103608084015261286d8186612421565b9150508260a0830152979650505050505050565b60006101008083526128958184018c612421565b905082810360208401526128a9818b612421565b604084018a90526001600160a01b0389166060850152838103608085015290506128d38188612421565b905082810360a08401526127358187612421565b901515815260200190565b90815260200190565b6000838252604060208301526129146040830184612421565b949350505050565b600060208252610f186020830184612485565b60208082526022908201527f456e756d657261626c655365743a20696e646578206f7574206f6620626f756e604082015261647360f01b606082015260800190565b60208082526014908201527314d85999551c985b99995c8e88195e1c1a5c995960621b604082015260600190565b6020808252602f908201527f416363657373436f6e74726f6c3a2073656e646572206d75737420626520616e60408201526e0818591b5a5b881d1bc819dc985b9d608a1b606082015260800190565b6020808252601e908201527f536166655472616e6665723a206e6f7420617661696c61626c65207965740000604082015260600190565b6020808252601b908201527f536166654d6174683a206164646974696f6e206f766572666c6f770000000000604082015260600190565b6020808252601b908201527f536166655472616e736665723a20726571756573742065786973740000000000604082015260600190565b60208082526011908201527014d8599954ddd85c0e88195e1c1a5c9959607a1b604082015260600190565b60208082526027908201527f536166655472616e736665723a206d73672e76616c7565206d757374206d61746040820152666368206665657360c81b606082015260800190565b60208082526030908201527f416363657373436f6e74726f6c3a2073656e646572206d75737420626520616e60408201526f2061646d696e20746f207265766f6b6560801b606082015260800190565b6020808252601b908201527f53616665537761703a206e6f7420617661696c61626c65207965740000000000604082015260600190565b6020808252601a908201527f536166655472616e736665723a2077726f6e6720736563726574000000000000604082015260600190565b6020808252601f908201527f536166655472616e736665723a2073656e6465723d3d726563697069656e7400604082015260600190565b60208082526025908201527f53616665537761703a2074727920746f207377617020657468657220616e642060408201526432ba3432b960d91b606082015260800190565b60208082526012908201527153616665537761703a206e6f2076616c756560701b604082015260600190565b6020808252601f908201527f536166655472616e736665723a2072657175657374206e6f7420657869737400604082015260600190565b60208082526016908201527514d8599954ddd85c0e881ddc9bdb99c81cd958dc995d60521b604082015260600190565b60208082526018908201527f53616665537761703a2076616c7565206d69736d617463680000000000000000604082015260600190565b6020808252601e908201527f536166655472616e736665723a206e6f7420616e20616374697661746f720000604082015260600190565b6020808252602a908201527f536166655472616e736665723a206e6f7420616363657074696e67206574686560408201526972206469726563746c7960b01b606082015260800190565b6020808252601b908201527f53616665537761703a2072657175657374206e6f742065786973740000000000604082015260600190565b6020808252601b908201527f53616665537761703a2073656e6465723d3d726563697069656e740000000000604082015260600190565b6020808252602f908201527f416363657373436f6e74726f6c3a2063616e206f6e6c792072656e6f756e636560408201526e103937b632b9903337b91039b2b63360891b606082015260800190565b918252602082015260400190565b93845260208401929092526040830152606082015260800190565b60ff91909116815260200190565b6040518181016001600160401b0381118282101715612e9c57600080fd5b604052919050565b6001600160a01b0381168114612eb957600080fd5b5056feec5aad7bdface20c35bc02d6d2d5760df981277427368525d634f4e2603ea192a2646970667358221220482eb595b96406f47c61dbee965f834f13f4860322f9c882b0c019f348ca8a8e64736f6c634300060c0033ec5aad7bdface20c35bc02d6d2d5760df981277427368525d634f4e2603ea192",
  "immutableReferences": {},
  "source": "// SPDX-License-Identifier: GPL-3.0-or-later\npragma solidity 0.6.12;\npragma experimental ABIEncoderV2;\n\n\nimport \"../node_modules/@openzeppelin/contracts/math/SafeMath.sol\";\nimport \"../node_modules/@openzeppelin/contracts/access/AccessControl.sol\";\nimport \"../node_modules/@openzeppelin/contracts/token/ERC20/SafeERC20.sol\";\nimport \"../node_modules/@openzeppelin/contracts/token/ERC721/IERC721.sol\";\nimport \"../node_modules/@openzeppelin/contracts/token/ERC1155/IERC1155.sol\";\n\n\ncontract SafeForERC1155 is AccessControl {\n    using SafeMath for uint256;\n    //using SafeERC20 for IERC20;\n\n    // keccak256(\"ACTIVATOR_ROLE\");\n    bytes32 public constant ACTIVATOR_ROLE = 0xec5aad7bdface20c35bc02d6d2d5760df981277427368525d634f4e2603ea192;\n\n    // keccak256(\"hiddenCollect(address from,address to,uint256 value,uint256 fees,bytes32 secretHash)\");\n   //bytes32 public constant HIDDEN_COLLECT_TYPEHASH = 0x0506afef36f3613836f98ef019cb76a3e6112be8f9dc8d8fa77275d64f418234;\n\n    // keccak256(\"hiddenCollectERC20(address from,address to,address token,string tokenSymbol,uint256 value,uint256 fees,bytes32 secretHash)\");\n   // bytes32 public constant HIDDEN_ERC20_COLLECT_TYPEHASH = 0x9e6214229b9fba1927010d30b22a3a5d9fd5e856bb29f056416ff2ad52e8de44;\n\n    // keccak256(\"hiddenCollectERC721(address from,address to,address token,string tokenSymbol,uint256 tokenId,bytes tokenData,uint256 fees,bytes32 secretHash)\");\n   // bytes32 public constant HIDDEN_ERC721_COLLECT_TYPEHASH = 0xa14a2dc51c26e451800897aa798120e7d6c35039caf5eb29b8ac35d1e914c591;\n\n    bytes32 public DOMAIN_SEPARATOR;\n    uint256 public CHAIN_ID;\n    bytes32 s_uid;\n    uint256 s_fees;\n    \n    struct TokenInfo {\n        bytes32 id;\n        bytes32 id1;\n        uint256 tr;\n    }\n\n    struct SwapERC1155Info {\n        address token0;\n        uint256[] tokenId0;\n        uint256[] value0;\n        bytes tokenData0;\n        uint256 fees0;\n        address token1;\n        uint256[] tokenId1;\n        uint256[] value1;\n        bytes tokenData1;\n        uint256 fees1;\n        bytes32 secretHash;\n    }\n\n    struct CollectBatchERC1155Info {\n        address token;\n        uint256[] tokenIds;\n        uint256[] values;\n        bytes tokenData;\n        uint256 fees;\n        bytes32 secretHash;\n        bytes secret;\n    }\n\n    /* struct SwapBatchERC1155ToETHInfo {\n        address token0;\n        uint256[] tokenIds0;\n        uint256[] values0;\n        bytes tokenData0;\n        uint256 fees0;\n        address token1;\n        uint256 value1;\n        uint256 fees1;\n        bytes32 secretHash;\n    } */\n\n    /* struct SwapETHToBatchERC1155Info {\n        address token0;\n        uint256 tokenId0;\n        uint256 value0;\n        uint256 fees0;\n        address token1;\n        uint256[] tokenIds1;\n        uint256[] values1;\n        bytes tokenData1;\n        uint256 fees1;\n        bytes32 secretHash;\n    } */\n\n    mapping(bytes32 => uint256) s_erc1155Transfers;\n    mapping(bytes32 => uint256) s_swaps;\n    mapping(bytes32 => uint256) s_hswaps;\n\n    string public constant NAME = \"Kirobo Safe Transfer\";\n    string public constant VERSION = \"1\";\n    uint8 public constant VERSION_NUMBER = 0x1;\n\n    event Retrieved(\n        address indexed from,\n        address indexed to,\n        bytes32 indexed id,\n        uint256 value\n    );\n\n    event ERC1155TransferDeposited(\n        address indexed token,\n        address indexed from,     \n        address indexed to,\n        uint256 tokenId,\n        uint256 value,\n        uint256 fees,\n        bytes32 secretHash\n    );\n\n    event ERC1155BatchTransferDeposited(\n        address indexed token,\n        address indexed from,     \n        address indexed to,\n        uint256[] tokenIds,\n        uint256[] values,\n        uint256 fees,\n        bytes32 secretHash\n    );\n\n    event ERC1155TransferRetrieved(\n        address indexed token,\n        address indexed from,     \n        address indexed to,\n        uint256 tokenId,\n        uint256 value\n    );\n\n    event ERC721Retrieved(\n        address indexed token,\n        address indexed from,\n        address indexed to,\n        bytes32 id,\n        uint256[] tokenId\n    );\n\n    event ERC1155BatchTransferRetrieved(\n        address indexed token,\n        address indexed from,     \n        address indexed to,\n        uint256[] tokenIds,\n        uint256[] values\n    );\n\n    event ERC1155Collected(\n        address indexed token, \n        address indexed from, \n        address indexed to,\n        uint256 tokenId,\n        uint256 value\n    );\n\n    event ERC1155BatchCollected(\n        address indexed token, \n        address indexed from, \n        address indexed to,\n        uint256[] tokenIds,\n        uint256[] values\n    );\n\n     event ERC1155SwapDeposited(\n        address indexed from,\n        address indexed to,\n        address indexed token0,\n        uint256[] tokenId0,\n        uint256[] value0,\n        uint256 fees0,\n        address token1,\n        uint256[] tokenId1,\n        uint256[] value1,\n        uint256 fees1,\n        bytes32 secretHash\n    );\n\n    event ERC1155SwapRetrieved(\n        address indexed token,\n        uint256[] indexed tokenId,\n        address indexed from,\n        address to,\n        bytes32 id,\n        uint256[] value\n    );\n\n    event ERC1155Swapped(\n        address indexed from,\n        address indexed to,\n        address indexed token0,\n        uint256[] tokenId0,\n        uint256[] value0,\n        address token1,\n        uint256[] tokenId1,\n        uint256[] value1,\n        bytes32 id\n    );\n\n    /* event swapDepositERC1155ToETHEvent(\n        address indexed from,\n        address indexed to,\n        address indexed token0,\n        uint256[] tokenIds0,\n        uint256[] values0,\n        uint256 fees0,\n        address token1,\n        uint256 value1,\n        uint256 fees1,\n        bytes32 secretHash\n    ); */\n\n    /* event swapDepositETHToERC1155Event(\n        address indexed from,\n        address indexed to,\n        address indexed token0,\n        uint256 value0,\n        uint256 fees0,\n        address token1,\n        uint256[] tokenIds1,\n        uint256[] values1,\n        uint256 fees1,\n        bytes32 secretHash\n    ); */\n\n    /* event swapRetrieveERC1155ToETHEvent(\n        address indexed token0, \n        uint256[] indexed tokenIds0, \n        address indexed from, \n        address to, \n        bytes32 id, \n        uint256[] values0\n    ); */\n\n    /* event swapERC1155ToETHEvent(\n        address indexed from,\n        address indexed to,\n        address indexed token0,\n        uint256[] tokenIds0,\n        uint256[] values0,\n        address token1,\n        uint256 value1,\n        bytes32 id\n    ); */\n\n    /* event swapETHToERC1155Event(\n        address indexed from,\n        address indexed to,\n        address indexed token0,\n        uint256 value0,\n        address token1,\n        uint256[] tokenIds1,\n        uint256[] values1,\n        bytes32 id\n    ); */\n\n\n    modifier onlyActivator() {\n        require(hasRole(ACTIVATOR_ROLE, msg.sender), \"SafeTransfer: not an activator\");    \n        _;\n    }\n\n    constructor (address activator) public {\n        _setupRole(DEFAULT_ADMIN_ROLE, msg.sender);\n        _setupRole(ACTIVATOR_ROLE, msg.sender);\n        _setupRole(ACTIVATOR_ROLE, activator);\n\n        uint256 chainId;\n        assembly {\n            chainId := chainid()\n        }\n\n        CHAIN_ID = chainId;\n\n        s_uid = bytes32(\n          uint256(VERSION_NUMBER) << 248 |\n          uint256(blockhash(block.number-1)) << 192 >> 16 |\n          uint256(address(this))\n        );\n\n        DOMAIN_SEPARATOR = keccak256(\n            abi.encode(\n                keccak256(\"EIP712Domain(string name,string version,uint256 chainId,address verifyingContract,bytes32 salt)\"),\n                keccak256(bytes(NAME)),\n                keccak256(bytes(VERSION)),\n                chainId,\n                address(this),\n                s_uid\n            )\n        );\n\n    }\n\n    receive () external payable {\n        require(false, \"SafeTransfer: not accepting ether directly\");\n    }\n\n    /* function transferERC20(address token, address wallet, uint256 value) external onlyActivator() {\n        IERC20(token).safeTransfer(wallet, value);\n    }\n\n    function transferERC721(address token, address wallet, uint256 tokenId, bytes calldata data) external onlyActivator() {\n        IERC721(token).safeTransferFrom(address(this), wallet, tokenId, data);\n    } */\n\n    function transferFees(address payable wallet, uint256 value) external onlyActivator() {\n        s_fees = s_fees.sub(value);\n        wallet.transfer(value);\n    }\n\n    function totalFees() external view returns (uint256) {\n        return s_fees;\n    }\n\n    /* function uid() view external returns (bytes32) {\n        return s_uid;\n    } */\n\n\n\n\n    // ------------------------------- ERC-1155 transfer single--------------------------------\n//0x5978e4630233612269aC217784A41fB3EA720d30\n     function depositERC1155(\n        address token,\n        address to,\n        uint256 tokenId,\n        uint256 value,\n        bytes calldata tokenData,\n        uint256 fees,\n        bytes32 secretHash\n    ) \n        payable external\n    {\n        require(msg.value == fees, \"SafeTransfer: msg.value must match fees\");\n        require(to != msg.sender, \"SafeTransfer: sender==recipient\");\n        bytes32 id = keccak256(abi.encode(token, msg.sender, to, tokenId, value, tokenData, fees, secretHash));\n        require(s_erc1155Transfers[id] == 0, \"SafeTransfer: request exist\"); \n        s_erc1155Transfers[id] = 0xffffffffffffffff;\n        emit ERC1155TransferDeposited(token, msg.sender, to, tokenId, value, fees, secretHash);\n    }\n\n    function retrieveERC1155(\n        address token,\n        address to,\n        uint256 tokenId,\n        uint256 value,\n        bytes calldata tokenData,\n        uint256 fees,\n        bytes32 secretHash\n    )   \n        external \n    {\n        bytes32 id = keccak256(abi.encode(token, msg.sender, to, tokenId, value, tokenData, fees, secretHash));\n        require(s_erc1155Transfers[id]  > 0, \"SafeTransfer: request not exist\");\n        delete s_erc1155Transfers[id];\n        msg.sender.transfer(fees);\n        emit ERC1155TransferRetrieved(token, msg.sender, to, tokenId, value);\n    }\n\n    function collectERC1155(\n        address token,\n        address from,\n        address payable to,\n        uint256 tokenId,\n        uint256 value,\n        bytes calldata tokenData,\n        uint256 fees,\n        bytes32 secretHash,\n        bytes calldata secret\n    ) \n        external\n        onlyActivator()\n    {\n        bytes32 id = keccak256(abi.encode(token, from, to, tokenId, value, tokenData, fees, secretHash));\n        uint256 tr = s_erc1155Transfers[id];\n        require(tr > 0, \"SafeTransfer: request not exist\");\n        require(uint64(tr) > now, \"SafeTranfer: expired\");\n        require(uint64(tr>>64) <= now, \"SafeTranfer: not available yet\");\n        require(keccak256(secret) == secretHash, \"SafeTransfer: wrong secret\");\n        delete s_erc1155Transfers[id];\n        s_fees = s_fees.add(fees);\n        IERC1155(token).safeTransferFrom(from, to, tokenId, value, tokenData);\n        emit ERC1155Collected(token, from, to, tokenId, value);\n    } \n\n    //------------------------------ERC-1155 batch transfer -----------------------------------------\n    function depositBatchERC1155(\n        address token,\n        address to,\n        uint256[] calldata tokenIds,\n        uint256[] calldata values,\n        bytes calldata tokenData,\n        uint256 fees,\n        bytes32 secretHash\n    ) \n        payable external\n    {\n        require(msg.value == fees, \"SafeTransfer: msg.value must match fees\");\n        require(to != msg.sender, \"SafeTransfer: sender==recipient\");\n        bytes32 id = keccak256(abi.encode(token, msg.sender, to, tokenIds, values, tokenData, fees, secretHash));\n        require(s_erc1155Transfers[id] == 0, \"SafeTransfer: request exist\"); \n        s_erc1155Transfers[id] = 0xffffffffffffffff;\n        emit ERC1155BatchTransferDeposited(token, msg.sender, to, tokenIds, values, fees, secretHash);\n    }\n\n    function retrieveBatchERC1155(\n        address token,\n        address to,\n        uint256[] calldata tokenIds,\n        uint256[] calldata values,\n        bytes calldata tokenData,\n        uint256 fees,\n        bytes32 secretHash\n    )   \n        external \n    {\n        bytes32 id = keccak256(abi.encode(token, msg.sender, to, tokenIds, values, tokenData, fees, secretHash));\n        require(s_erc1155Transfers[id]  > 0, \"SafeTransfer: request not exist\");\n        delete s_erc1155Transfers[id];\n        msg.sender.transfer(fees);\n        emit ERC1155BatchTransferRetrieved(token, msg.sender, to, tokenIds, values);\n    }\n\n    function collectBatchERC1155(\n        address to,\n        address from,\n        CollectBatchERC1155Info memory info\n    ) \n        external\n        onlyActivator()\n    {\n        bytes32 id = keccak256(abi.encode(info.token, from, to, info.tokenIds, info.values, info.tokenData, info.fees, info.secretHash));\n        uint256 tr = s_erc1155Transfers[id];\n        require(tr > 0, \"SafeTransfer: request not exist\");\n        require(uint64(tr) > now, \"SafeTranfer: expired\");\n        require(uint64(tr>>64) <= now, \"SafeTranfer: not available yet\");\n        require(keccak256(info.secret) == info.secretHash, \"SafeTransfer: wrong secret\");\n        delete s_erc1155Transfers[id];\n        s_fees = s_fees.add(info.fees);\n        IERC1155(info.token).safeBatchTransferFrom(from, to, info.tokenIds, info.values, info.tokenData);\n        emit ERC1155BatchCollected(info.token, from, to, info.tokenIds, info.values);\n    } \n\n\n    // ----------------------- swap - batch ERC1155 <--> ETH/721 -------------------------------------------\n    //0x0Fc471ed8ed3a01Ab11E1F7A3A3d71F4bCEf39E7\n    function depositERC1155(address payable to, SwapERC1155Info memory info) external payable\n    {\n        if (info.token0 == address(0)) {\n            //eth to 1155\n            require(info.token0 != info.token1, \"SafeSwap: try to swap ether and ether\");\n            require(msg.value == info.value0[0].add(info.fees0), \"SafeSwap: value mismatch\");\n            require(info.value1[0] > 0, \"SafeSwap: no value\");\n        } else if (info.token1 == address(0)) {\n            //1155 to eth\n            require(msg.value == info.fees0, \"SafeSwap: value mismatch\");\n            require(info.value0[0] > 0, \"SafeSwap: no value\");\n        } else if(info.value0[0] == 0){\n            //721 to 1155\n            require(msg.value == info.fees0, \"SafeSwap: value mismatch\");\n            require(info.value1[0] > 0, \"SafeSwap: no value\");\n        } else if(info.value1[0] == 0){    \n            //1155 to 721\n            require(msg.value == info.fees0, \"SafeSwap: value mismatch\");\n            require(info.value0[0] > 0, \"SafeSwap: no value\");\n        } else {\n            //1155 to 1155\n            require(msg.value == info.fees0, \"SafeSwap: value mismatch\");\n            require(info.value0[0] > 0, \"SafeSwap: no value\");\n            require(info.value1[0] > 0, \"SafeSwap: no value\");\n        }\n        require(to != msg.sender, \"SafeSwap: sender==recipient\");\n        bytes32 id = keccak256(\n            abi.encode(to));/*\n                msg.sender,\n                to,\n                info.token0,\n                info.tokenId0,\n                info.value0,\n                info.tokenData0,\n                info.fees0,\n                info.token1,\n                info.tokenId1,\n                info.value1,\n                info.tokenData1,\n                info.fees1,\n                info.secretHash\n            )\n        ); */\n        //require(s_swaps[id] == 0, \"SafeSwap: request exist\");\n        //s_swaps[id] = 0xffffffffffffffff; // expiresAt: max, AvailableAt: 0, autoRetrieveFees: 0\n        emit ERC1155SwapDeposited(\n            msg.sender,\n            to,\n            info.token0,\n            info.tokenId0,\n            info.value0,\n            info.fees0,\n            info.token1,\n            info.tokenId1,\n            info.value1,\n            info.fees1,\n            info.secretHash\n        );\n    }\n\n    function retrieveERC1155(address to, SwapERC1155Info memory info) external {\n         bytes32 id = keccak256(abi.encode(to));/*\n            abi.encode(\n                msg.sender,\n                to,\n                info.token0,\n                info.tokenId0,\n                info.value0,\n                info.tokenData0,\n                info.fees0,\n                info.token1,\n                info.tokenId1,\n                info.value1,\n                info.tokenData1,\n                info.fees1,\n                info.secretHash\n            )\n        );*/\n        require(s_swaps[id] > 0, \"SafeSwap: request not exist\");\n        delete s_swaps[id]; \n        uint256 valueToSend;\n        if (info.token0 == address(0)) {\n            valueToSend = info.value0[0].add(info.fees0);\n        } else {\n            valueToSend = info.fees0;\n        }\n        msg.sender.transfer(valueToSend);\n        if (info.token0 == address(0)) {\n            emit Retrieved(msg.sender, to, id, valueToSend);\n        } else if(info.value0[0] == 0) {\n            //retrieve 721\n            emit ERC721Retrieved(info.token0, msg.sender, to, id, info.value0);\n        } else {\n            emit ERC1155SwapRetrieved(info.token0, info.tokenId0, msg.sender, to, id, info.value0);\n        }\n    }\n\n    function swapERC1155(\n        address payable from,\n        SwapERC1155Info memory info,\n        bytes calldata secret\n    ) \n        external payable \n    {\n        bytes32 id = keccak256(\n            abi.encode(msg.sender));/*\n                from,\n                msg.sender,\n                info.token0,\n                info.tokenId0,\n                info.value0,\n                info.tokenData0,\n                info.fees0,\n                info.token1,\n                info.tokenId1,\n                info.value1,\n                info.tokenData1,\n                info.fees1,\n                info.secretHash\n            )\n        );*/\n        uint256 tr = s_swaps[id];\n        require(tr > 0, \"SafeSwap: request not exist\");\n        require(uint64(tr) > now, \"SafeSwap: expired\");\n        require(uint64(tr >> 64) <= now, \"SafeSwap: not available yet\");\n        require(keccak256(secret) == info.secretHash, \"SafeSwap: wrong secret\");\n        delete s_swaps[id];\n        s_fees = s_fees.add(info.fees0).add(info.fees1);\n        if (info.token0 == address(0)) {\n            //ether to 1155\n            msg.sender.transfer(info.value0[0]);\n        } else if(info.value0[0] == 0){\n            //721 to 1155\n            IERC721(info.token0).safeTransferFrom(\n                from,\n                msg.sender,\n                info.tokenId0[0],\n                info.tokenData0\n            );\n        } else {\n            //1155 to...\n            IERC1155(info.token0).safeBatchTransferFrom(\n                from,\n                msg.sender,\n                info.tokenId0,\n                info.value0,\n                info.tokenData0\n            );\n        }\n        if (info.token1 == address(0)) {\n            //1155 to ether\n            require(\n                msg.value == info.value1[0].add(info.fees1),\n                \"SafeSwap: value mismatch\"\n            );\n            from.transfer(info.value1[0]);\n        } else if(info.value1[0] == 0) {\n            //1155 to 721\n            IERC721(info.token1).safeTransferFrom(\n                from,\n                msg.sender,\n                info.tokenId1[0],\n                info.tokenData1\n            );\n        } else {\n            //... to 1155\n            require(msg.value == info.fees1, \"SafeSwap: value mismatch\");\n            IERC1155(info.token1).safeBatchTransferFrom(\n                msg.sender,\n                from,\n                info.tokenId1,\n                info.value1,\n                info.tokenData1\n            );\n        }\n        emit ERC1155Swapped(\n            from,\n            msg.sender,\n            info.token0,\n            info.tokenId0,\n            info.value0,\n            info.token1,\n            info.tokenId1,\n            info.value1,\n            id\n        );\n    }\n\n    /* // ------------------------ swap batch ERC-1155 <-> eth -----------------\n\n    function swapDepositERC1155ToETH(address payable to, SwapBatchERC1155ToETHInfo memory info) external payable\n    {\n        require(msg.value == info.fees0, \"SafeSwap: value mismatch\");\n        require(to != msg.sender, \"SafeSwap: sender==recipient\");\n        bytes32 id = keccak256(\n            abi.encode(\n                msg.sender,\n                to,\n                info.token0,\n                info.tokenIds0,\n                info.values0,\n                info.tokenData0,\n                info.fees0,\n                info.token1,\n                info.value1,\n                info.fees1,\n                info.secretHash\n            )\n        );\n        require(s_swaps[id] == 0, \"SafeSwap: request exist\");\n        s_swaps[id] = 0xffffffffffffffff; // expiresAt: max, AvailableAt: 0, autoRetrieveFees: 0\n        emit swapDepositERC1155ToETHEvent(\n            msg.sender,\n            to,\n            info.token0,\n            info.tokenIds0,\n            info.values0,\n            info.fees0,\n            info.token1,\n            info.value1,\n            info.fees1,\n            info.secretHash\n        );\n    }\n\n    function swapRetrieveERC1155ToETH(address to, SwapBatchERC1155ToETHInfo memory info) external {\n        bytes32 id = keccak256(\n            abi.encode(\n                msg.sender,\n                to,\n                info.token0,\n                info.tokenIds0,\n                info.values0,\n                info.tokenData0,\n                info.fees0,\n                info.token1,\n                info.value1,\n                info.fees1,\n                info.secretHash\n            )\n        );\n        require(s_swaps[id] > 0, \"SafeSwap: request not exist\");\n        delete s_swaps[id];\n        uint256 valueToSend = info.fees0;\n        msg.sender.transfer(valueToSend);\n        emit swapRetrieveERC1155ToETHEvent(info.token0, info.tokenIds0, msg.sender, to, id, info.values0);\n    }\n\n    function swapERC1155ToETH(\n        address payable from,\n        SwapBatchERC1155ToETHInfo memory info,\n        bytes calldata secret\n    ) \n        external payable \n    {\n        bytes32 id = keccak256(\n            abi.encode(\n                from,\n                msg.sender,\n                info.token0,\n                info.tokenIds0,\n                info.values0,\n                info.tokenData0,\n                info.fees0,\n                info.token1,\n                info.value1,\n                info.fees1,\n                info.secretHash\n            )\n        );\n        uint256 tr = s_swaps[id];\n        require(tr > 0, \"SafeSwap: request not exist\");\n        require(uint64(tr) > now, \"SafeSwap: expired\");\n        require(uint64(tr >> 64) <= now, \"SafeSwap: not available yet\");\n        require(keccak256(secret) == info.secretHash, \"SafeSwap: wrong secret\");\n        delete s_swaps[id];\n        s_fees = s_fees.add(info.fees0).add(info.fees1);\n        IERC1155(info.token0).safeBatchTransferFrom(\n                from,\n                msg.sender,\n                info.tokenIds0,\n                info.values0,\n                info.tokenData0\n        );\n        require(msg.value == info.value1.add(info.fees1), \"SafeSwap: value mismatch\");\n        from.transfer(info.value1);\n        emit swapERC1155ToETHEvent(\n            from,\n            msg.sender,\n            info.token0,\n            info.tokenIds0,\n            info.values0,\n            info.token1,\n            info.value1,\n            id\n        );\n    }\n\n    //------------------- swap ETH <-> batch 1155 ---------------------\n\n    function swapDepositETHToERC1155(address payable to, SwapETHToBatchERC1155Info memory info) external payable\n    {\n        //eth to 1155\n        require(info.token0 != info.token1, \"SafeSwap: try to swap ether and ether\");\n        require(msg.value == info.value0.add(info.fees0), \"SafeSwap: value mismatch\");\n        require(to != msg.sender, \"SafeSwap: sender==recipient\");\n        bytes32 id = keccak256(\n            abi.encode(\n                msg.sender,\n                to,\n                info.token0,\n                info.tokenId0,\n                info.value0,\n                info.fees0,\n                info.token1,\n                info.tokenIds1,\n                info.values1,\n                info.tokenData1,\n                info.fees1,\n                info.secretHash\n            )\n        );\n        require(s_swaps[id] == 0, \"SafeSwap: request exist\");\n        s_swaps[id] = 0xffffffffffffffff; // expiresAt: max, AvailableAt: 0, autoRetrieveFees: 0\n        emit swapDepositETHToERC1155Event(\n            msg.sender,\n            to,\n            info.token0,\n            info.value0,\n            info.fees0,\n            info.token1,\n            info.tokenIds1,\n            info.values1,\n            info.fees1,\n            info.secretHash\n        );\n    }\n\n    function swapRetrieveETHToERC1155(address to, SwapETHToBatchERC1155Info memory info) external {\n        bytes32 id = keccak256(\n            abi.encode(\n                msg.sender,\n                to,\n                info.token0,\n                info.tokenId0,\n                info.value0,\n                info.fees0,\n                info.token1,\n                info.tokenIds1,\n                info.values1,\n                info.tokenData1,\n                info.fees1,\n                info.secretHash\n            )\n        );\n        require(s_swaps[id] > 0, \"SafeSwap: request not exist\");\n        delete s_swaps[id];\n        uint256 valueToSend;\n        valueToSend = info.value0.add(info.fees0);\n        msg.sender.transfer(valueToSend);\n        emit Retrieved(msg.sender, to, id, valueToSend);\n    }\n\n    function swapETHToERC1155(\n        address payable from,\n        SwapETHToBatchERC1155Info memory info,\n        bytes calldata secret\n    ) \n        external payable \n    {\n        bytes32 id = keccak256(\n            abi.encode(\n                from,\n                msg.sender,\n                info.token0,\n                info.tokenId0,\n                info.value0,\n                info.fees0,\n                info.token1,\n                info.tokenIds1,\n                info.values1,\n                info.tokenData1,\n                info.fees1,\n                info.secretHash\n            )\n        );\n        uint256 tr = s_swaps[id];\n        require(tr > 0, \"SafeSwap: request not exist\");\n        require(uint64(tr) > now, \"SafeSwap: expired\");\n        require(uint64(tr >> 64) <= now, \"SafeSwap: not available yet\");\n        require(keccak256(secret) == info.secretHash, \"SafeSwap: wrong secret\");\n        delete s_swaps[id];\n        s_fees = s_fees.add(info.fees0).add(info.fees1);\n        msg.sender.transfer(info.value0);\n        require(msg.value == info.fees1, \"SafeSwap: value mismatch\");\n        IERC1155(info.token1).safeBatchTransferFrom(\n            msg.sender,\n            from,\n            info.tokenIds1,\n            info.values1,\n            info.tokenData1\n        );\n        emit swapETHToERC1155Event(\n            from,\n            msg.sender,\n            info.token0,\n            info.value0,\n            info.token1,\n            info.tokenIds1,\n            info.values1,\n            id\n        );\n    } */\n\n\n}\n\n\n//need to add :\n//swap 1155 with 721\n//swap 721 with 1155\n// to batch1155\n//batch swap 1155 to 721\n//batch swap 721 to 1155\n//batch swap eth to 1155\n//swap batch1155 with batch1155\n//hidden transfer\n//hiddem batch transfer\n//hidden swap - eth to 1155 \n//hidden swap - 11",
  "sourcePath": "/Users/orishalom/repositories/ki-eth-token/contracts/SafeForERC1155.sol",
  "compiler": {
    "name": "solc",
    "version": "0.6.12+commit.27d51765.Emscripten.clang"
  },
  "schemaVersion": "3.3.4",
  "updatedAt": "2021-11-14T11:48:23.002Z",
  "networkType": "ethereum",
  "devdoc": {
    "kind": "dev",
    "methods": {
      "getRoleAdmin(bytes32)": {
        "details": "Returns the admin role that controls `role`. See {grantRole} and {revokeRole}. To change a role's admin, use {_setRoleAdmin}."
      },
      "getRoleMember(bytes32,uint256)": {
        "details": "Returns one of the accounts that have `role`. `index` must be a value between 0 and {getRoleMemberCount}, non-inclusive. Role bearers are not sorted in any particular way, and their ordering may change at any point. WARNING: When using {getRoleMember} and {getRoleMemberCount}, make sure you perform all queries on the same block. See the following https://forum.openzeppelin.com/t/iterating-over-elements-on-enumerableset-in-openzeppelin-contracts/2296[forum post] for more information."
      },
      "getRoleMemberCount(bytes32)": {
        "details": "Returns the number of accounts that have `role`. Can be used together with {getRoleMember} to enumerate all bearers of a role."
      },
      "grantRole(bytes32,address)": {
        "details": "Grants `role` to `account`. If `account` had not been already granted `role`, emits a {RoleGranted} event. Requirements: - the caller must have ``role``'s admin role."
      },
      "hasRole(bytes32,address)": {
        "details": "Returns `true` if `account` has been granted `role`."
      },
      "renounceRole(bytes32,address)": {
        "details": "Revokes `role` from the calling account. Roles are often managed via {grantRole} and {revokeRole}: this function's purpose is to provide a mechanism for accounts to lose their privileges if they are compromised (such as when a trusted device is misplaced). If the calling account had been granted `role`, emits a {RoleRevoked} event. Requirements: - the caller must be `account`."
      },
      "revokeRole(bytes32,address)": {
        "details": "Revokes `role` from `account`. If `account` had been granted `role`, emits a {RoleRevoked} event. Requirements: - the caller must have ``role``'s admin role."
      }
    },
    "version": 1
  },
  "userdoc": {
    "kind": "user",
    "methods": {},
    "version": 1
  }
}