{
  "contractName": "SafeTransfer",
  "abi": [
    {
      "inputs": [
        {
          "internalType": "address",
          "name": "activator",
          "type": "address"
        }
      ],
      "stateMutability": "nonpayable",
      "type": "constructor"
    },
    {
      "anonymous": false,
      "inputs": [
        {
          "indexed": true,
          "internalType": "address",
          "name": "from",
          "type": "address"
        },
        {
          "indexed": true,
          "internalType": "address",
          "name": "to",
          "type": "address"
        },
        {
          "indexed": true,
          "internalType": "bytes32",
          "name": "id",
          "type": "bytes32"
        },
        {
          "indexed": false,
          "internalType": "uint256",
          "name": "value",
          "type": "uint256"
        }
      ],
      "name": "Collected",
      "type": "event"
    },
    {
      "anonymous": false,
      "inputs": [
        {
          "indexed": true,
          "internalType": "address",
          "name": "from",
          "type": "address"
        },
        {
          "indexed": true,
          "internalType": "address",
          "name": "to",
          "type": "address"
        },
        {
          "indexed": false,
          "internalType": "uint256",
          "name": "value",
          "type": "uint256"
        },
        {
          "indexed": false,
          "internalType": "uint256",
          "name": "fees",
          "type": "uint256"
        },
        {
          "indexed": false,
          "internalType": "bytes32",
          "name": "secretHash",
          "type": "bytes32"
        }
      ],
      "name": "Deposited",
      "type": "event"
    },
    {
      "anonymous": false,
      "inputs": [
        {
          "indexed": true,
          "internalType": "address",
          "name": "token",
          "type": "address"
        },
        {
          "indexed": true,
          "internalType": "address",
          "name": "from",
          "type": "address"
        },
        {
          "indexed": true,
          "internalType": "address",
          "name": "to",
          "type": "address"
        },
        {
          "indexed": false,
          "internalType": "bytes32",
          "name": "id",
          "type": "bytes32"
        },
        {
          "indexed": false,
          "internalType": "uint256",
          "name": "value",
          "type": "uint256"
        }
      ],
      "name": "ERC20Collected",
      "type": "event"
    },
    {
      "anonymous": false,
      "inputs": [
        {
          "indexed": true,
          "internalType": "address",
          "name": "token",
          "type": "address"
        },
        {
          "indexed": true,
          "internalType": "address",
          "name": "from",
          "type": "address"
        },
        {
          "indexed": true,
          "internalType": "address",
          "name": "to",
          "type": "address"
        },
        {
          "indexed": false,
          "internalType": "uint256",
          "name": "value",
          "type": "uint256"
        },
        {
          "indexed": false,
          "internalType": "uint256",
          "name": "fees",
          "type": "uint256"
        },
        {
          "indexed": false,
          "internalType": "bytes32",
          "name": "secretHash",
          "type": "bytes32"
        }
      ],
      "name": "ERC20Deposited",
      "type": "event"
    },
    {
      "anonymous": false,
      "inputs": [
        {
          "indexed": true,
          "internalType": "address",
          "name": "token",
          "type": "address"
        },
        {
          "indexed": true,
          "internalType": "address",
          "name": "from",
          "type": "address"
        },
        {
          "indexed": true,
          "internalType": "address",
          "name": "to",
          "type": "address"
        },
        {
          "indexed": false,
          "internalType": "bytes32",
          "name": "id",
          "type": "bytes32"
        },
        {
          "indexed": false,
          "internalType": "uint256",
          "name": "value",
          "type": "uint256"
        }
      ],
      "name": "ERC20Retrieved",
      "type": "event"
    },
    {
      "anonymous": false,
      "inputs": [
        {
          "indexed": true,
          "internalType": "address",
          "name": "token",
          "type": "address"
        },
        {
          "indexed": true,
          "internalType": "address",
          "name": "from",
          "type": "address"
        },
        {
          "indexed": true,
          "internalType": "address",
          "name": "to",
          "type": "address"
        },
        {
          "indexed": false,
          "internalType": "uint256",
          "name": "value",
          "type": "uint256"
        },
        {
          "indexed": false,
          "internalType": "uint256",
          "name": "fees",
          "type": "uint256"
        },
        {
          "indexed": false,
          "internalType": "bytes32",
          "name": "secretHash",
          "type": "bytes32"
        },
        {
          "indexed": false,
          "internalType": "uint64",
          "name": "availableAt",
          "type": "uint64"
        },
        {
          "indexed": false,
          "internalType": "uint64",
          "name": "expiresAt",
          "type": "uint64"
        },
        {
          "indexed": false,
          "internalType": "uint128",
          "name": "depositFees",
          "type": "uint128"
        }
      ],
      "name": "ERC20TimedDeposited",
      "type": "event"
    },
    {
      "anonymous": false,
      "inputs": [
        {
          "indexed": true,
          "internalType": "address",
          "name": "token",
          "type": "address"
        },
        {
          "indexed": true,
          "internalType": "address",
          "name": "from",
          "type": "address"
        },
        {
          "indexed": true,
          "internalType": "address",
          "name": "to",
          "type": "address"
        },
        {
          "indexed": false,
          "internalType": "bytes32",
          "name": "id",
          "type": "bytes32"
        },
        {
          "indexed": false,
          "internalType": "uint256",
          "name": "tokenId",
          "type": "uint256"
        }
      ],
      "name": "ERC721Collected",
      "type": "event"
    },
    {
      "anonymous": false,
      "inputs": [
        {
          "indexed": true,
          "internalType": "address",
          "name": "token",
          "type": "address"
        },
        {
          "indexed": true,
          "internalType": "address",
          "name": "from",
          "type": "address"
        },
        {
          "indexed": true,
          "internalType": "address",
          "name": "to",
          "type": "address"
        },
        {
          "indexed": false,
          "internalType": "uint256",
          "name": "tokenId",
          "type": "uint256"
        },
        {
          "indexed": false,
          "internalType": "uint256",
          "name": "fees",
          "type": "uint256"
        },
        {
          "indexed": false,
          "internalType": "bytes32",
          "name": "secretHash",
          "type": "bytes32"
        }
      ],
      "name": "ERC721Deposited",
      "type": "event"
    },
    {
      "anonymous": false,
      "inputs": [
        {
          "indexed": true,
          "internalType": "address",
          "name": "token",
          "type": "address"
        },
        {
          "indexed": true,
          "internalType": "address",
          "name": "from",
          "type": "address"
        },
        {
          "indexed": true,
          "internalType": "address",
          "name": "to",
          "type": "address"
        },
        {
          "indexed": false,
          "internalType": "bytes32",
          "name": "id",
          "type": "bytes32"
        },
        {
          "indexed": false,
          "internalType": "uint256",
          "name": "tokenId",
          "type": "uint256"
        }
      ],
      "name": "ERC721Retrieved",
      "type": "event"
    },
    {
      "anonymous": false,
      "inputs": [
        {
          "indexed": true,
          "internalType": "address",
          "name": "token",
          "type": "address"
        },
        {
          "indexed": true,
          "internalType": "address",
          "name": "from",
          "type": "address"
        },
        {
          "indexed": true,
          "internalType": "address",
          "name": "to",
          "type": "address"
        },
        {
          "indexed": false,
          "internalType": "uint256",
          "name": "tokenId",
          "type": "uint256"
        },
        {
          "indexed": false,
          "internalType": "uint256",
          "name": "fees",
          "type": "uint256"
        },
        {
          "indexed": false,
          "internalType": "bytes32",
          "name": "secretHash",
          "type": "bytes32"
        },
        {
          "indexed": false,
          "internalType": "uint64",
          "name": "availableAt",
          "type": "uint64"
        },
        {
          "indexed": false,
          "internalType": "uint64",
          "name": "expiresAt",
          "type": "uint64"
        },
        {
          "indexed": false,
          "internalType": "uint128",
          "name": "depositFees",
          "type": "uint128"
        }
      ],
      "name": "ERC721TimedDeposited",
      "type": "event"
    },
    {
      "anonymous": false,
      "inputs": [
        {
          "indexed": true,
          "internalType": "address",
          "name": "from",
          "type": "address"
        },
        {
          "indexed": true,
          "internalType": "address",
          "name": "to",
          "type": "address"
        },
        {
          "indexed": true,
          "internalType": "bytes32",
          "name": "id1",
          "type": "bytes32"
        },
        {
          "indexed": false,
          "internalType": "uint256",
          "name": "value",
          "type": "uint256"
        }
      ],
      "name": "HCollected",
      "type": "event"
    },
    {
      "anonymous": false,
      "inputs": [
        {
          "indexed": true,
          "internalType": "address",
          "name": "from",
          "type": "address"
        },
        {
          "indexed": false,
          "internalType": "uint256",
          "name": "value",
          "type": "uint256"
        },
        {
          "indexed": true,
          "internalType": "bytes32",
          "name": "id1",
          "type": "bytes32"
        }
      ],
      "name": "HDeposited",
      "type": "event"
    },
    {
      "anonymous": false,
      "inputs": [
        {
          "indexed": true,
          "internalType": "address",
          "name": "token",
          "type": "address"
        },
        {
          "indexed": true,
          "internalType": "address",
          "name": "from",
          "type": "address"
        },
        {
          "indexed": true,
          "internalType": "address",
          "name": "to",
          "type": "address"
        },
        {
          "indexed": false,
          "internalType": "bytes32",
          "name": "id1",
          "type": "bytes32"
        },
        {
          "indexed": false,
          "internalType": "uint256",
          "name": "value",
          "type": "uint256"
        }
      ],
      "name": "HERC20Collected",
      "type": "event"
    },
    {
      "anonymous": false,
      "inputs": [
        {
          "indexed": true,
          "internalType": "address",
          "name": "token",
          "type": "address"
        },
        {
          "indexed": true,
          "internalType": "address",
          "name": "from",
          "type": "address"
        },
        {
          "indexed": true,
          "internalType": "address",
          "name": "to",
          "type": "address"
        },
        {
          "indexed": false,
          "internalType": "bytes32",
          "name": "id1",
          "type": "bytes32"
        },
        {
          "indexed": false,
          "internalType": "uint256",
          "name": "tokenId",
          "type": "uint256"
        }
      ],
      "name": "HERC721Collected",
      "type": "event"
    },
    {
      "anonymous": false,
      "inputs": [
        {
          "indexed": true,
          "internalType": "address",
          "name": "from",
          "type": "address"
        },
        {
          "indexed": true,
          "internalType": "bytes32",
          "name": "id1",
          "type": "bytes32"
        },
        {
          "indexed": false,
          "internalType": "uint256",
          "name": "value",
          "type": "uint256"
        }
      ],
      "name": "HRetrieved",
      "type": "event"
    },
    {
      "anonymous": false,
      "inputs": [
        {
          "indexed": true,
          "internalType": "address",
          "name": "from",
          "type": "address"
        },
        {
          "indexed": false,
          "internalType": "uint256",
          "name": "value",
          "type": "uint256"
        },
        {
          "indexed": true,
          "internalType": "bytes32",
          "name": "id1",
          "type": "bytes32"
        },
        {
          "indexed": false,
          "internalType": "uint64",
          "name": "availableAt",
          "type": "uint64"
        },
        {
          "indexed": false,
          "internalType": "uint64",
          "name": "expiresAt",
          "type": "uint64"
        },
        {
          "indexed": false,
          "internalType": "uint128",
          "name": "depositFees",
          "type": "uint128"
        }
      ],
      "name": "HTimedDeposited",
      "type": "event"
    },
    {
      "anonymous": false,
      "inputs": [
        {
          "indexed": true,
          "internalType": "address",
          "name": "from",
          "type": "address"
        },
        {
          "indexed": true,
          "internalType": "address",
          "name": "to",
          "type": "address"
        },
        {
          "indexed": true,
          "internalType": "bytes32",
          "name": "id",
          "type": "bytes32"
        },
        {
          "indexed": false,
          "internalType": "uint256",
          "name": "value",
          "type": "uint256"
        }
      ],
      "name": "Retrieved",
      "type": "event"
    },
    {
      "anonymous": false,
      "inputs": [
        {
          "indexed": true,
          "internalType": "bytes32",
          "name": "role",
          "type": "bytes32"
        },
        {
          "indexed": true,
          "internalType": "bytes32",
          "name": "previousAdminRole",
          "type": "bytes32"
        },
        {
          "indexed": true,
          "internalType": "bytes32",
          "name": "newAdminRole",
          "type": "bytes32"
        }
      ],
      "name": "RoleAdminChanged",
      "type": "event"
    },
    {
      "anonymous": false,
      "inputs": [
        {
          "indexed": true,
          "internalType": "bytes32",
          "name": "role",
          "type": "bytes32"
        },
        {
          "indexed": true,
          "internalType": "address",
          "name": "account",
          "type": "address"
        },
        {
          "indexed": true,
          "internalType": "address",
          "name": "sender",
          "type": "address"
        }
      ],
      "name": "RoleGranted",
      "type": "event"
    },
    {
      "anonymous": false,
      "inputs": [
        {
          "indexed": true,
          "internalType": "bytes32",
          "name": "role",
          "type": "bytes32"
        },
        {
          "indexed": true,
          "internalType": "address",
          "name": "account",
          "type": "address"
        },
        {
          "indexed": true,
          "internalType": "address",
          "name": "sender",
          "type": "address"
        }
      ],
      "name": "RoleRevoked",
      "type": "event"
    },
    {
      "anonymous": false,
      "inputs": [
        {
          "indexed": true,
          "internalType": "address",
          "name": "from",
          "type": "address"
        },
        {
          "indexed": true,
          "internalType": "address",
          "name": "to",
          "type": "address"
        },
        {
          "indexed": false,
          "internalType": "uint256",
          "name": "value",
          "type": "uint256"
        },
        {
          "indexed": false,
          "internalType": "uint256",
          "name": "fees",
          "type": "uint256"
        },
        {
          "indexed": false,
          "internalType": "bytes32",
          "name": "secretHash",
          "type": "bytes32"
        },
        {
          "indexed": false,
          "internalType": "uint64",
          "name": "availableAt",
          "type": "uint64"
        },
        {
          "indexed": false,
          "internalType": "uint64",
          "name": "expiresAt",
          "type": "uint64"
        },
        {
          "indexed": false,
          "internalType": "uint128",
          "name": "depositFees",
          "type": "uint128"
        }
      ],
      "name": "TimedDeposited",
      "type": "event"
    },
    {
      "inputs": [],
      "name": "ACTIVATOR_ROLE",
      "outputs": [
        {
          "internalType": "bytes32",
          "name": "",
          "type": "bytes32"
        }
      ],
      "stateMutability": "view",
      "type": "function"
    },
    {
      "inputs": [],
      "name": "CHAIN_ID",
      "outputs": [
        {
          "internalType": "uint256",
          "name": "",
          "type": "uint256"
        }
      ],
      "stateMutability": "view",
      "type": "function"
    },
    {
      "inputs": [],
      "name": "DEFAULT_ADMIN_ROLE",
      "outputs": [
        {
          "internalType": "bytes32",
          "name": "",
          "type": "bytes32"
        }
      ],
      "stateMutability": "view",
      "type": "function"
    },
    {
      "inputs": [],
      "name": "DOMAIN_SEPARATOR",
      "outputs": [
        {
          "internalType": "bytes32",
          "name": "",
          "type": "bytes32"
        }
      ],
      "stateMutability": "view",
      "type": "function"
    },
    {
      "inputs": [],
      "name": "HIDDEN_COLLECT_TYPEHASH",
      "outputs": [
        {
          "internalType": "bytes32",
          "name": "",
          "type": "bytes32"
        }
      ],
      "stateMutability": "view",
      "type": "function"
    },
    {
      "inputs": [],
      "name": "HIDDEN_ERC20_COLLECT_TYPEHASH",
      "outputs": [
        {
          "internalType": "bytes32",
          "name": "",
          "type": "bytes32"
        }
      ],
      "stateMutability": "view",
      "type": "function"
    },
    {
      "inputs": [],
      "name": "HIDDEN_ERC721_COLLECT_TYPEHASH",
      "outputs": [
        {
          "internalType": "bytes32",
          "name": "",
          "type": "bytes32"
        }
      ],
      "stateMutability": "view",
      "type": "function"
    },
    {
      "inputs": [],
      "name": "NAME",
      "outputs": [
        {
          "internalType": "string",
          "name": "",
          "type": "string"
        }
      ],
      "stateMutability": "view",
      "type": "function"
    },
    {
      "inputs": [],
      "name": "VERSION",
      "outputs": [
        {
          "internalType": "string",
          "name": "",
          "type": "string"
        }
      ],
      "stateMutability": "view",
      "type": "function"
    },
    {
      "inputs": [],
      "name": "VERSION_NUMBER",
      "outputs": [
        {
          "internalType": "uint8",
          "name": "",
          "type": "uint8"
        }
      ],
      "stateMutability": "view",
      "type": "function"
    },
    {
      "inputs": [
        {
          "internalType": "bytes32",
          "name": "role",
          "type": "bytes32"
        }
      ],
      "name": "getRoleAdmin",
      "outputs": [
        {
          "internalType": "bytes32",
          "name": "",
          "type": "bytes32"
        }
      ],
      "stateMutability": "view",
      "type": "function"
    },
    {
      "inputs": [
        {
          "internalType": "bytes32",
          "name": "role",
          "type": "bytes32"
        },
        {
          "internalType": "uint256",
          "name": "index",
          "type": "uint256"
        }
      ],
      "name": "getRoleMember",
      "outputs": [
        {
          "internalType": "address",
          "name": "",
          "type": "address"
        }
      ],
      "stateMutability": "view",
      "type": "function"
    },
    {
      "inputs": [
        {
          "internalType": "bytes32",
          "name": "role",
          "type": "bytes32"
        }
      ],
      "name": "getRoleMemberCount",
      "outputs": [
        {
          "internalType": "uint256",
          "name": "",
          "type": "uint256"
        }
      ],
      "stateMutability": "view",
      "type": "function"
    },
    {
      "inputs": [
        {
          "internalType": "bytes32",
          "name": "role",
          "type": "bytes32"
        },
        {
          "internalType": "address",
          "name": "account",
          "type": "address"
        }
      ],
      "name": "grantRole",
      "outputs": [],
      "stateMutability": "nonpayable",
      "type": "function"
    },
    {
      "inputs": [
        {
          "internalType": "bytes32",
          "name": "role",
          "type": "bytes32"
        },
        {
          "internalType": "address",
          "name": "account",
          "type": "address"
        }
      ],
      "name": "hasRole",
      "outputs": [
        {
          "internalType": "bool",
          "name": "",
          "type": "bool"
        }
      ],
      "stateMutability": "view",
      "type": "function"
    },
    {
      "inputs": [
        {
          "internalType": "bytes32",
          "name": "role",
          "type": "bytes32"
        },
        {
          "internalType": "address",
          "name": "account",
          "type": "address"
        }
      ],
      "name": "renounceRole",
      "outputs": [],
      "stateMutability": "nonpayable",
      "type": "function"
    },
    {
      "inputs": [
        {
          "internalType": "bytes32",
          "name": "role",
          "type": "bytes32"
        },
        {
          "internalType": "address",
          "name": "account",
          "type": "address"
        }
      ],
      "name": "revokeRole",
      "outputs": [],
      "stateMutability": "nonpayable",
      "type": "function"
    },
    {
      "stateMutability": "payable",
      "type": "receive"
    },
    {
      "inputs": [
        {
          "internalType": "address",
          "name": "token",
          "type": "address"
        },
        {
          "internalType": "address",
          "name": "wallet",
          "type": "address"
        },
        {
          "internalType": "uint256",
          "name": "value",
          "type": "uint256"
        }
      ],
      "name": "transferERC20",
      "outputs": [],
      "stateMutability": "nonpayable",
      "type": "function"
    },
    {
      "inputs": [
        {
          "internalType": "address",
          "name": "token",
          "type": "address"
        },
        {
          "internalType": "address",
          "name": "wallet",
          "type": "address"
        },
        {
          "internalType": "uint256",
          "name": "tokenId",
          "type": "uint256"
        },
        {
          "internalType": "bytes",
          "name": "data",
          "type": "bytes"
        }
      ],
      "name": "transferERC721",
      "outputs": [],
      "stateMutability": "nonpayable",
      "type": "function"
    },
    {
      "inputs": [
        {
          "internalType": "address payable",
          "name": "wallet",
          "type": "address"
        },
        {
          "internalType": "uint256",
          "name": "value",
          "type": "uint256"
        }
      ],
      "name": "transferFees",
      "outputs": [],
      "stateMutability": "nonpayable",
      "type": "function"
    },
    {
      "inputs": [],
      "name": "totalFees",
      "outputs": [
        {
          "internalType": "uint256",
          "name": "",
          "type": "uint256"
        }
      ],
      "stateMutability": "view",
      "type": "function"
    },
    {
      "inputs": [],
      "name": "uid",
      "outputs": [
        {
          "internalType": "bytes32",
          "name": "",
          "type": "bytes32"
        }
      ],
      "stateMutability": "view",
      "type": "function"
    },
    {
      "inputs": [
        {
          "internalType": "address payable",
          "name": "to",
          "type": "address"
        },
        {
          "internalType": "uint256",
          "name": "value",
          "type": "uint256"
        },
        {
          "internalType": "uint256",
          "name": "fees",
          "type": "uint256"
        },
        {
          "internalType": "bytes32",
          "name": "secretHash",
          "type": "bytes32"
        }
      ],
      "name": "deposit",
      "outputs": [],
      "stateMutability": "payable",
      "type": "function"
    },
    {
      "inputs": [
        {
          "internalType": "address payable",
          "name": "to",
          "type": "address"
        },
        {
          "internalType": "uint256",
          "name": "value",
          "type": "uint256"
        },
        {
          "internalType": "uint256",
          "name": "fees",
          "type": "uint256"
        },
        {
          "internalType": "bytes32",
          "name": "secretHash",
          "type": "bytes32"
        },
        {
          "internalType": "uint64",
          "name": "availableAt",
          "type": "uint64"
        },
        {
          "internalType": "uint64",
          "name": "expiresAt",
          "type": "uint64"
        },
        {
          "internalType": "uint128",
          "name": "depositFees",
          "type": "uint128"
        }
      ],
      "name": "timedDeposit",
      "outputs": [],
      "stateMutability": "payable",
      "type": "function"
    },
    {
      "inputs": [
        {
          "internalType": "address payable",
          "name": "to",
          "type": "address"
        },
        {
          "internalType": "uint256",
          "name": "value",
          "type": "uint256"
        },
        {
          "internalType": "uint256",
          "name": "fees",
          "type": "uint256"
        },
        {
          "internalType": "bytes32",
          "name": "secretHash",
          "type": "bytes32"
        }
      ],
      "name": "retrieve",
      "outputs": [],
      "stateMutability": "nonpayable",
      "type": "function"
    },
    {
      "inputs": [
        {
          "internalType": "address",
          "name": "from",
          "type": "address"
        },
        {
          "internalType": "address payable",
          "name": "to",
          "type": "address"
        },
        {
          "internalType": "uint256",
          "name": "value",
          "type": "uint256"
        },
        {
          "internalType": "uint256",
          "name": "fees",
          "type": "uint256"
        },
        {
          "internalType": "bytes32",
          "name": "secretHash",
          "type": "bytes32"
        },
        {
          "internalType": "bytes",
          "name": "secret",
          "type": "bytes"
        }
      ],
      "name": "collect",
      "outputs": [],
      "stateMutability": "nonpayable",
      "type": "function"
    },
    {
      "inputs": [
        {
          "internalType": "address payable",
          "name": "from",
          "type": "address"
        },
        {
          "internalType": "address",
          "name": "to",
          "type": "address"
        },
        {
          "internalType": "uint256",
          "name": "value",
          "type": "uint256"
        },
        {
          "internalType": "uint256",
          "name": "fees",
          "type": "uint256"
        },
        {
          "internalType": "bytes32",
          "name": "secretHash",
          "type": "bytes32"
        }
      ],
      "name": "cancel",
      "outputs": [],
      "stateMutability": "nonpayable",
      "type": "function"
    },
    {
      "inputs": [
        {
          "internalType": "address",
          "name": "token",
          "type": "address"
        },
        {
          "internalType": "string",
          "name": "tokenSymbol",
          "type": "string"
        },
        {
          "internalType": "address",
          "name": "to",
          "type": "address"
        },
        {
          "internalType": "uint256",
          "name": "value",
          "type": "uint256"
        },
        {
          "internalType": "uint256",
          "name": "fees",
          "type": "uint256"
        },
        {
          "internalType": "bytes32",
          "name": "secretHash",
          "type": "bytes32"
        }
      ],
      "name": "depositERC20",
      "outputs": [],
      "stateMutability": "payable",
      "type": "function"
    },
    {
      "inputs": [
        {
          "internalType": "address",
          "name": "token",
          "type": "address"
        },
        {
          "internalType": "string",
          "name": "tokenSymbol",
          "type": "string"
        },
        {
          "internalType": "address",
          "name": "to",
          "type": "address"
        },
        {
          "internalType": "uint256",
          "name": "value",
          "type": "uint256"
        },
        {
          "internalType": "uint256",
          "name": "fees",
          "type": "uint256"
        },
        {
          "internalType": "bytes32",
          "name": "secretHash",
          "type": "bytes32"
        },
        {
          "internalType": "uint64",
          "name": "availableAt",
          "type": "uint64"
        },
        {
          "internalType": "uint64",
          "name": "expiresAt",
          "type": "uint64"
        },
        {
          "internalType": "uint128",
          "name": "depositFees",
          "type": "uint128"
        }
      ],
      "name": "timedDepositERC20",
      "outputs": [],
      "stateMutability": "payable",
      "type": "function"
    },
    {
      "inputs": [
        {
          "internalType": "address",
          "name": "token",
          "type": "address"
        },
        {
          "internalType": "string",
          "name": "tokenSymbol",
          "type": "string"
        },
        {
          "internalType": "address",
          "name": "to",
          "type": "address"
        },
        {
          "internalType": "uint256",
          "name": "value",
          "type": "uint256"
        },
        {
          "internalType": "uint256",
          "name": "fees",
          "type": "uint256"
        },
        {
          "internalType": "bytes32",
          "name": "secretHash",
          "type": "bytes32"
        }
      ],
      "name": "retrieveERC20",
      "outputs": [],
      "stateMutability": "nonpayable",
      "type": "function"
    },
    {
      "inputs": [
        {
          "internalType": "address",
          "name": "token",
          "type": "address"
        },
        {
          "internalType": "string",
          "name": "tokenSymbol",
          "type": "string"
        },
        {
          "internalType": "address",
          "name": "from",
          "type": "address"
        },
        {
          "internalType": "address payable",
          "name": "to",
          "type": "address"
        },
        {
          "internalType": "uint256",
          "name": "value",
          "type": "uint256"
        },
        {
          "internalType": "uint256",
          "name": "fees",
          "type": "uint256"
        },
        {
          "internalType": "bytes32",
          "name": "secretHash",
          "type": "bytes32"
        },
        {
          "internalType": "bytes",
          "name": "secret",
          "type": "bytes"
        }
      ],
      "name": "collectERC20",
      "outputs": [],
      "stateMutability": "nonpayable",
      "type": "function"
    },
    {
      "inputs": [
        {
          "internalType": "address",
          "name": "token",
          "type": "address"
        },
        {
          "internalType": "string",
          "name": "tokenSymbol",
          "type": "string"
        },
        {
          "internalType": "address payable",
          "name": "from",
          "type": "address"
        },
        {
          "internalType": "address",
          "name": "to",
          "type": "address"
        },
        {
          "internalType": "uint256",
          "name": "value",
          "type": "uint256"
        },
        {
          "internalType": "uint256",
          "name": "fees",
          "type": "uint256"
        },
        {
          "internalType": "bytes32",
          "name": "secretHash",
          "type": "bytes32"
        }
      ],
      "name": "cancelERC20",
      "outputs": [],
      "stateMutability": "nonpayable",
      "type": "function"
    },
    {
      "inputs": [
        {
          "internalType": "address",
          "name": "token",
          "type": "address"
        },
        {
          "internalType": "string",
          "name": "tokenSymbol",
          "type": "string"
        },
        {
          "internalType": "address",
          "name": "to",
          "type": "address"
        },
        {
          "internalType": "uint256",
          "name": "tokenId",
          "type": "uint256"
        },
        {
          "internalType": "bytes",
          "name": "tokenData",
          "type": "bytes"
        },
        {
          "internalType": "uint256",
          "name": "fees",
          "type": "uint256"
        },
        {
          "internalType": "bytes32",
          "name": "secretHash",
          "type": "bytes32"
        }
      ],
      "name": "depositERC721",
      "outputs": [],
      "stateMutability": "payable",
      "type": "function"
    },
    {
      "inputs": [
        {
          "internalType": "address",
          "name": "token",
          "type": "address"
        },
        {
          "internalType": "string",
          "name": "tokenSymbol",
          "type": "string"
        },
        {
          "internalType": "address",
          "name": "to",
          "type": "address"
        },
        {
          "internalType": "uint256",
          "name": "tokenId",
          "type": "uint256"
        },
        {
          "internalType": "bytes",
          "name": "tokenData",
          "type": "bytes"
        },
        {
          "internalType": "uint256",
          "name": "fees",
          "type": "uint256"
        },
        {
          "internalType": "bytes32",
          "name": "secretHash",
          "type": "bytes32"
        },
        {
          "internalType": "uint64",
          "name": "availableAt",
          "type": "uint64"
        },
        {
          "internalType": "uint64",
          "name": "expiresAt",
          "type": "uint64"
        },
        {
          "internalType": "uint128",
          "name": "depositFees",
          "type": "uint128"
        }
      ],
      "name": "timedDepositERC721",
      "outputs": [],
      "stateMutability": "payable",
      "type": "function"
    },
    {
      "inputs": [
        {
          "internalType": "address",
          "name": "token",
          "type": "address"
        },
        {
          "internalType": "string",
          "name": "tokenSymbol",
          "type": "string"
        },
        {
          "internalType": "address",
          "name": "to",
          "type": "address"
        },
        {
          "internalType": "uint256",
          "name": "tokenId",
          "type": "uint256"
        },
        {
          "internalType": "bytes",
          "name": "tokenData",
          "type": "bytes"
        },
        {
          "internalType": "uint256",
          "name": "fees",
          "type": "uint256"
        },
        {
          "internalType": "bytes32",
          "name": "secretHash",
          "type": "bytes32"
        }
      ],
      "name": "retrieveERC721",
      "outputs": [],
      "stateMutability": "nonpayable",
      "type": "function"
    },
    {
      "inputs": [
        {
          "internalType": "address",
          "name": "token",
          "type": "address"
        },
        {
          "internalType": "string",
          "name": "tokenSymbol",
          "type": "string"
        },
        {
          "internalType": "address",
          "name": "from",
          "type": "address"
        },
        {
          "internalType": "address payable",
          "name": "to",
          "type": "address"
        },
        {
          "internalType": "uint256",
          "name": "tokenId",
          "type": "uint256"
        },
        {
          "internalType": "bytes",
          "name": "tokenData",
          "type": "bytes"
        },
        {
          "internalType": "uint256",
          "name": "fees",
          "type": "uint256"
        },
        {
          "internalType": "bytes32",
          "name": "secretHash",
          "type": "bytes32"
        },
        {
          "internalType": "bytes",
          "name": "secret",
          "type": "bytes"
        }
      ],
      "name": "collectERC721",
      "outputs": [],
      "stateMutability": "nonpayable",
      "type": "function"
    },
    {
      "inputs": [
        {
          "internalType": "address",
          "name": "token",
          "type": "address"
        },
        {
          "internalType": "string",
          "name": "tokenSymbol",
          "type": "string"
        },
        {
          "internalType": "address payable",
          "name": "from",
          "type": "address"
        },
        {
          "internalType": "address",
          "name": "to",
          "type": "address"
        },
        {
          "internalType": "uint256",
          "name": "tokenId",
          "type": "uint256"
        },
        {
          "internalType": "bytes",
          "name": "tokenData",
          "type": "bytes"
        },
        {
          "internalType": "uint256",
          "name": "fees",
          "type": "uint256"
        },
        {
          "internalType": "bytes32",
          "name": "secretHash",
          "type": "bytes32"
        }
      ],
      "name": "cancelERC721",
      "outputs": [],
      "stateMutability": "nonpayable",
      "type": "function"
    },
    {
      "inputs": [
        {
          "internalType": "bytes32",
          "name": "id1",
          "type": "bytes32"
        }
      ],
      "name": "hiddenDeposit",
      "outputs": [],
      "stateMutability": "payable",
      "type": "function"
    },
    {
      "inputs": [
        {
          "internalType": "bytes32",
          "name": "id1",
          "type": "bytes32"
        },
        {
          "internalType": "uint64",
          "name": "availableAt",
          "type": "uint64"
        },
        {
          "internalType": "uint64",
          "name": "expiresAt",
          "type": "uint64"
        },
        {
          "internalType": "uint128",
          "name": "depositFees",
          "type": "uint128"
        }
      ],
      "name": "hiddenTimedDeposit",
      "outputs": [],
      "stateMutability": "payable",
      "type": "function"
    },
    {
      "inputs": [
        {
          "internalType": "bytes32",
          "name": "id1",
          "type": "bytes32"
        },
        {
          "internalType": "uint256",
          "name": "value",
          "type": "uint256"
        }
      ],
      "name": "hiddenRetrieve",
      "outputs": [],
      "stateMutability": "nonpayable",
      "type": "function"
    },
    {
      "inputs": [
        {
          "internalType": "address",
          "name": "from",
          "type": "address"
        },
        {
          "internalType": "address payable",
          "name": "to",
          "type": "address"
        },
        {
          "internalType": "uint256",
          "name": "value",
          "type": "uint256"
        },
        {
          "internalType": "uint256",
          "name": "fees",
          "type": "uint256"
        },
        {
          "internalType": "bytes32",
          "name": "secretHash",
          "type": "bytes32"
        },
        {
          "internalType": "bytes",
          "name": "secret",
          "type": "bytes"
        },
        {
          "internalType": "uint8",
          "name": "v",
          "type": "uint8"
        },
        {
          "internalType": "bytes32",
          "name": "r",
          "type": "bytes32"
        },
        {
          "internalType": "bytes32",
          "name": "s",
          "type": "bytes32"
        }
      ],
      "name": "hiddenCollect",
      "outputs": [],
      "stateMutability": "nonpayable",
      "type": "function"
    },
    {
      "inputs": [
        {
          "internalType": "address",
          "name": "from",
          "type": "address"
        },
        {
          "internalType": "address",
          "name": "to",
          "type": "address"
        },
        {
          "internalType": "address",
          "name": "token",
          "type": "address"
        },
        {
          "internalType": "string",
          "name": "tokenSymbol",
          "type": "string"
        },
        {
          "internalType": "uint256",
          "name": "value",
          "type": "uint256"
        },
        {
          "internalType": "uint256",
          "name": "fees",
          "type": "uint256"
        },
        {
          "internalType": "bytes32",
          "name": "secretHash",
          "type": "bytes32"
        },
        {
          "internalType": "bytes",
          "name": "secret",
          "type": "bytes"
        },
        {
          "internalType": "uint8",
          "name": "v",
          "type": "uint8"
        },
        {
          "internalType": "bytes32",
          "name": "r",
          "type": "bytes32"
        },
        {
          "internalType": "bytes32",
          "name": "s",
          "type": "bytes32"
        }
      ],
      "name": "hiddenCollectERC20",
      "outputs": [],
      "stateMutability": "nonpayable",
      "type": "function"
    },
    {
      "inputs": [
        {
          "internalType": "address",
          "name": "from",
          "type": "address"
        },
        {
          "internalType": "address",
          "name": "to",
          "type": "address"
        },
        {
          "internalType": "address",
          "name": "token",
          "type": "address"
        },
        {
          "internalType": "string",
          "name": "tokenSymbol",
          "type": "string"
        },
        {
          "internalType": "uint256",
          "name": "tokenId",
          "type": "uint256"
        },
        {
          "internalType": "bytes",
          "name": "tokenData",
          "type": "bytes"
        },
        {
          "internalType": "uint256",
          "name": "fees",
          "type": "uint256"
        },
        {
          "internalType": "bytes32",
          "name": "secretHash",
          "type": "bytes32"
        },
        {
          "internalType": "bytes",
          "name": "secret",
          "type": "bytes"
        },
        {
          "internalType": "uint8",
          "name": "v",
          "type": "uint8"
        },
        {
          "internalType": "bytes32",
          "name": "r",
          "type": "bytes32"
        },
        {
          "internalType": "bytes32",
          "name": "s",
          "type": "bytes32"
        }
      ],
      "name": "hiddenCollectERC721",
      "outputs": [],
      "stateMutability": "nonpayable",
      "type": "function"
    },
    {
      "inputs": [
        {
          "internalType": "address payable",
          "name": "from",
          "type": "address"
        },
        {
          "internalType": "bytes32",
          "name": "id1",
          "type": "bytes32"
        },
        {
          "internalType": "uint256",
          "name": "value",
          "type": "uint256"
        }
      ],
      "name": "hiddenCancel",
      "outputs": [],
      "stateMutability": "nonpayable",
      "type": "function"
    }
  ],
  "bytecode": "0x60806040523480156200001157600080fd5b506040516200602c3803806200602c833981810160405260208110156200003757600080fd5b5051620000466000336200019f565b620000616000805160206200600c833981519152336200019f565b6200007c6000805160206200600c833981519152826200019f565b50466002819055600160b01b600160f01b0360001943014060b01b1630908117600160f81b176003819055604080518082018252601481527f4b69726f626f2053616665205472616e73666572000000000000000000000000602091820152815180830183526001808252603160f81b9183019190915282517fd87cd6ef79d4e2b95e15ce8abf732db51ec771f1ca2edccf22a46c729ac56472818401527fa0e7867c78e9ee05b975f886625b0f857545d287fd4041f342f5f7398f7cf444818501527fc89efdaa54c0f20c7adf612882df0950f5a951637e0307cdcb4c672f298b8bc66060820152608081019690965260a086019490945260c0858101939093528151808603909301835260e0909401905280519201919091209055620002b3565b620001ab8282620001af565b5050565b600082815260208181526040909120620001d4918390620053a262000228821b17901c565b15620001ab57620001e462000248565b6001600160a01b0316816001600160a01b0316837f2f8788117e7eff1d82e926ec794901d17c78024a50270940304540a733656f0d60405160405180910390a45050565b60006200023f836001600160a01b0384166200024c565b90505b92915050565b3390565b60006200025a83836200029b565b620002925750815460018181018455600084815260208082209093018490558454848252828601909352604090209190915562000242565b50600062000242565b60009081526001919091016020526040902054151590565b615d4980620002c36000396000f3fe60806040526004361061026b5760003560e01c80639010d07c11610144578063ca15c873116100b6578063dad027631161007a578063dad0276314611356578063e3fc5a8c1461140d578063e49a12dc14611550578063e8ce0aa114611589578063f514ce3614611639578063ffa1ad741461164e576102a9565b8063ca15c8731461103c578063cf91c57314611066578063d40d6ed5146110ac578063d547741f14611276578063d87bc9ac146112af576102a9565b8063a424e0a911610108578063a424e0a914610dd3578063b1538f9214610e0b578063bb3d824d14610e20578063bb9b02e314610f21578063c2d30bab14610fc7578063c859ed4414610ff7576102a9565b80639010d07c14610c5857806391d1485414610ca45780639db5dbe414610cf1578063a217fddf14610d34578063a3f4df7e14610d49576102a9565b806354d25401116101dd578063790d98df116101a1578063790d98df1461081f5780638025e3031461097657806384f53f09146109a157806385e1f4d014610a975780638776ab4f14610aac5780638e69804b14610b45576102a9565b806354d25401146105165780635ab29dd11461061d57806363eed7d01461067e57806371a46d5f1461071957806374be317f14610736576102a9565b80632b78bd531161022f5780632b78bd53146104265780632f2ff15d1461043b57806331dd9e9214610474578063359f54e4146104b35780633644e515146104c857806336568abe146104dd576102a9565b806308740a3b146102ae5780630bf7832b146102d55780630dd4abd51461039857806313114a9d146103e7578063248a9ca3146103fc576102a9565b366102a95760405162461bcd60e51b815260040180806020018281038252602a815260200180615cbb602a913960400191505060405180910390fd5b005b600080fd5b3480156102ba57600080fd5b506102c3611663565b60408051918252519081900360200190f35b6102a760048036036101208110156102ec57600080fd5b6001600160a01b038235169190810190604081016020820135600160201b81111561031657600080fd5b82018360208201111561032857600080fd5b803590602001918460018302840111600160201b8311171561034957600080fd5b919350915080356001600160a01b03169060208101359060408101359060608101359060808101356001600160401b039081169160a08101359091169060c001356001600160801b0316611675565b3480156103a457600080fd5b506102a7600480360360a08110156103bb57600080fd5b506001600160a01b03813581169160208101359091169060408101359060608101359060800135611946565b3480156103f357600080fd5b506102c3611b44565b34801561040857600080fd5b506102c36004803603602081101561041f57600080fd5b5035611b4a565b34801561043257600080fd5b506102c3611b5f565b34801561044757600080fd5b506102a76004803603604081101561045e57600080fd5b50803590602001356001600160a01b0316611b83565b34801561048057600080fd5b506102a76004803603606081101561049757600080fd5b506001600160a01b038135169060208101359060400135611bef565b3480156104bf57600080fd5b506102c3611dc6565b3480156104d457600080fd5b506102c3611dea565b3480156104e957600080fd5b506102a76004803603604081101561050057600080fd5b50803590602001356001600160a01b0316611df0565b34801561052257600080fd5b506102a7600480360361010081101561053a57600080fd5b6001600160a01b038235169190810190604081016020820135600160201b81111561056457600080fd5b82018360208201111561057657600080fd5b803590602001918460018302840111600160201b8311171561059757600080fd5b919390926001600160a01b038335811693602081013590911692604082013592606083013592608081013592919060c081019060a00135600160201b8111156105df57600080fd5b8201836020820111156105f157600080fd5b803590602001918460018302840111600160201b8311171561061257600080fd5b509092509050611e51565b6102a7600480360360e081101561063357600080fd5b5080356001600160a01b03169060208101359060408101359060608101359060808101356001600160401b039081169160a08101359091169060c001356001600160801b0316612148565b34801561068a57600080fd5b506102a7600480360360808110156106a157600080fd5b6001600160a01b03823581169260208101359091169160408201359190810190608081016060820135600160201b8111156106db57600080fd5b8201836020820111156106ed57600080fd5b803590602001918460018302840111600160201b8311171561070e57600080fd5b5090925090506123cd565b6102a76004803603602081101561072f57600080fd5b50356124df565b6102a7600480360360e081101561074c57600080fd5b6001600160a01b038235169190810190604081016020820135600160201b81111561077657600080fd5b82018360208201111561078857600080fd5b803590602001918460018302840111600160201b831117156107a957600080fd5b919390926001600160a01b03833516926020810135929190606081019060400135600160201b8111156107db57600080fd5b8201836020820111156107ed57600080fd5b803590602001918460018302840111600160201b8311171561080e57600080fd5b9193509150803590602001356125f9565b34801561082b57600080fd5b506102a7600480360361012081101561084357600080fd5b6001600160a01b038235169190810190604081016020820135600160201b81111561086d57600080fd5b82018360208201111561087f57600080fd5b803590602001918460018302840111600160201b831117156108a057600080fd5b919390926001600160a01b0383358116936020810135909116926040820135929091608081019060600135600160201b8111156108dc57600080fd5b8201836020820111156108ee57600080fd5b803590602001918460018302840111600160201b8311171561090f57600080fd5b919390928235926020810135929190606081019060400135600160201b81111561093857600080fd5b82018360208201111561094a57600080fd5b803590602001918460018302840111600160201b8311171561096b57600080fd5b50909250905061286f565b34801561098257600080fd5b5061098b612c36565b6040805160ff9092168252519081900360200190f35b3480156109ad57600080fd5b506102a7600480360360e08110156109c457600080fd5b6001600160a01b038235169190810190604081016020820135600160201b8111156109ee57600080fd5b820183602082011115610a0057600080fd5b803590602001918460018302840111600160201b83111715610a2157600080fd5b919390926001600160a01b03833516926020810135929190606081019060400135600160201b811115610a5357600080fd5b820183602082011115610a6557600080fd5b803590602001918460018302840111600160201b83111715610a8657600080fd5b919350915080359060200135612c3b565b348015610aa357600080fd5b506102c3612df3565b6102a7600480360360c0811015610ac257600080fd5b6001600160a01b038235169190810190604081016020820135600160201b811115610aec57600080fd5b820183602082011115610afe57600080fd5b803590602001918460018302840111600160201b83111715610b1f57600080fd5b91935091506001600160a01b038135169060208101359060408101359060600135612df9565b6102a76004803603610140811015610b5c57600080fd5b6001600160a01b038235169190810190604081016020820135600160201b811115610b8657600080fd5b820183602082011115610b9857600080fd5b803590602001918460018302840111600160201b83111715610bb957600080fd5b919390926001600160a01b03833516926020810135929190606081019060400135600160201b811115610beb57600080fd5b820183602082011115610bfd57600080fd5b803590602001918460018302840111600160201b83111715610c1e57600080fd5b919350915080359060208101359060408101356001600160401b0390811691606081013590911690608001356001600160801b0316613033565b348015610c6457600080fd5b50610c8860048036036040811015610c7b57600080fd5b5080359060200135613363565b604080516001600160a01b039092168252519081900360200190f35b348015610cb057600080fd5b50610cdd60048036036040811015610cc757600080fd5b50803590602001356001600160a01b0316613384565b604080519115158252519081900360200190f35b348015610cfd57600080fd5b506102a760048036036060811015610d1457600080fd5b506001600160a01b0381358116916020810135909116906040013561339c565b348015610d4057600080fd5b506102c361340c565b348015610d5557600080fd5b50610d5e613411565b6040805160208082528351818301528351919283929083019185019080838360005b83811015610d98578181015183820152602001610d80565b50505050905090810190601f168015610dc55780820380516001836020036101000a031916815260200191505b509250505060405180910390f35b6102a760048036036080811015610de957600080fd5b506001600160a01b038135169060208101359060408101359060600135613441565b348015610e1757600080fd5b506102c3613634565b348015610e2c57600080fd5b506102a76004803603610100811015610e4457600080fd5b6001600160a01b038235169190810190604081016020820135600160201b811115610e6e57600080fd5b820183602082011115610e8057600080fd5b803590602001918460018302840111600160201b83111715610ea157600080fd5b919390926001600160a01b0383358116936020810135909116926040820135929091608081019060600135600160201b811115610edd57600080fd5b820183602082011115610eef57600080fd5b803590602001918460018302840111600160201b83111715610f1057600080fd5b919350915080359060200135613658565b348015610f2d57600080fd5b506102a7600480360360c0811015610f4457600080fd5b6001600160a01b038235169190810190604081016020820135600160201b811115610f6e57600080fd5b820183602082011115610f8057600080fd5b803590602001918460018302840111600160201b83111715610fa157600080fd5b91935091506001600160a01b0381351690602081013590604081013590606001356138eb565b348015610fd357600080fd5b506102a760048036036040811015610fea57600080fd5b5080359060200135613a75565b34801561100357600080fd5b506102a76004803603608081101561101a57600080fd5b506001600160a01b038135169060208101359060408101359060600135613b70565b34801561104857600080fd5b506102c36004803603602081101561105f57600080fd5b5035613ca0565b6102a76004803603608081101561107c57600080fd5b5080359060208101356001600160401b0390811691604081013590911690606001356001600160801b0316613cb7565b3480156110b857600080fd5b506102a760048036036101808110156110d057600080fd5b6001600160a01b0382358116926020810135821692604082013590921691810190608081016060820135600160201b81111561110b57600080fd5b82018360208201111561111d57600080fd5b803590602001918460018302840111600160201b8311171561113e57600080fd5b91908080601f01602080910402602001604051908101604052809392919081815260200183838082843760009201919091525092958435959094909350604081019250602001359050600160201b81111561119857600080fd5b8201836020820111156111aa57600080fd5b803590602001918460018302840111600160201b831117156111cb57600080fd5b91908080601f0160208091040260200160405190810160405280939291908181526020018383808284376000920191909152509295843595602086013595919450925060608101915060400135600160201b81111561122957600080fd5b82018360208201111561123b57600080fd5b803590602001918460018302840111600160201b8311171561125c57600080fd5b919350915060ff8135169060208101359060400135613e83565b34801561128257600080fd5b506102a76004803603604081101561129957600080fd5b50803590602001356001600160a01b03166144a6565b3480156112bb57600080fd5b506102a7600480360360c08110156112d257600080fd5b6001600160a01b0382358116926020810135909116916040820135916060810135916080820135919081019060c0810160a0820135600160201b81111561131857600080fd5b82018360208201111561132a57600080fd5b803590602001918460018302840111600160201b8311171561134b57600080fd5b5090925090506144ff565b34801561136257600080fd5b506102a7600480360361012081101561137a57600080fd5b6001600160a01b0382358116926020810135909116916040820135916060810135916080820135919081019060c0810160a0820135600160201b8111156113c057600080fd5b8201836020820111156113d257600080fd5b803590602001918460018302840111600160201b831117156113f357600080fd5b919350915060ff81351690602081013590604001356147a4565b34801561141957600080fd5b506102a7600480360361016081101561143157600080fd5b6001600160a01b0382358116926020810135821692604082013590921691810190608081016060820135600160201b81111561146c57600080fd5b82018360208201111561147e57600080fd5b803590602001918460018302840111600160201b8311171561149f57600080fd5b91908080601f0160208091040260200160405190810160405280939291908181526020018383808284376000920191909152509295843595602086013595604081013595509193509150608081019060600135600160201b81111561150357600080fd5b82018360208201111561151557600080fd5b803590602001918460018302840111600160201b8311171561153657600080fd5b919350915060ff8135169060208101359060400135614bc4565b34801561155c57600080fd5b506102a76004803603604081101561157357600080fd5b506001600160a01b03813516906020013561507d565b34801561159557600080fd5b506102a7600480360360e08110156115ac57600080fd5b6001600160a01b038235169190810190604081016020820135600160201b8111156115d657600080fd5b8201836020820111156115e857600080fd5b803590602001918460018302840111600160201b8311171561160957600080fd5b91935091506001600160a01b0381358116916020810135909116906040810135906060810135906080013561511a565b34801561164557600080fd5b506102c361537f565b34801561165a57600080fd5b50610d5e615385565b600080516020615b9a83398151915281565b8434146116b35760405162461bcd60e51b8152600401808060200182810382526027815260200180615bba6027913960400191505060405180910390fd5b600086116116f6576040805162461bcd60e51b81526020600482015260166024820152600080516020615c31833981519152604482015290519081900360640190fd5b6001600160a01b038716331415611742576040805162461bcd60e51b815260206004820152601f6024820152600080516020615c51833981519152604482015290519081900360640190fd5b42826001600160401b03161161178d576040805162461bcd60e51b815260206004820152601d6024820152600080516020615c9b833981519152604482015290519081900360640190fd5b60008a8a8a338b8b8b8b60405160200180896001600160a01b0316815260200180602001876001600160a01b03168152602001866001600160a01b031681526020018581526020018481526020018381526020018281038252898982818152602001925080828437600081840152601f19601f82011690508083019250505099505050505050505050506040516020818303038152906040528051906020012090506006600082815260200190815260200160002054600014611885576040805162461bcd60e51b815260206004820152601b6024820152600080516020615c11833981519152604482015290519081900360640190fd5b600081815260066020908152604091829020608085811b6001600160801b03191688851b6fffffffffffffffff0000000000000000166001600160401b038981169182019290920190935584518c81529384018b90528385018a9052881660608401528201526001600160801b03841660a082015290516001600160a01b038a8116923392918f16917f596f738dc354130d81c0f6e14514648e2a413c234ab6eb5ad5ac09acce3a11e69160c0908290030190a45050505050505050505050565b61195e600080516020615b9a83398151915233613384565b61199d576040805162461bcd60e51b815260206004820152601e6024820152600080516020615b7a833981519152604482015290519081900360640190fd5b604080516001600160a01b0380881660208084019190915290871682840152606082018690526080820185905260a08083018590528351808403909101815260c090920183528151918101919091206000818152600590925291902054611a39576040805162461bcd60e51b815260206004820152601f6024820152600080516020615aeb833981519152604482015290519081900360640190fd5b600081815260056020526040902054426001600160401b0382161115611aa1576040805162461bcd60e51b815260206004820152601860248201527714d85999551c985b99995c8e881b9bdd08195e1c1a5c995960421b604482015290519081900360640190fd5b6000828152600560205260408120556001600160a01b0387166108fc611ac787876153b7565b6040518115909202916000818181858888f19350505050158015611aef573d6000803e3d6000fd5b50816001600160a01b038088169089167f2c0f05de664e2354e281c7c55d07fe10e18c61d9b196dbcd318285801b36cde4611b2a89896153b7565b60408051918252519081900360200190a450505050505050565b60045490565b60009081526020819052604090206002015490565b7f0506afef36f3613836f98ef019cb76a3e6112be8f9dc8d8fa77275d64f41823481565b600082815260208190526040902060020154611ba690611ba1615411565b613384565b611be15760405162461bcd60e51b815260040180806020018281038252602f815260200180615b0b602f913960400191505060405180910390fd5b611beb8282615415565b5050565b611c07600080516020615b9a83398151915233613384565b611c46576040805162461bcd60e51b815260206004820152601e6024820152600080516020615b7a833981519152604482015290519081900360640190fd5b604080516001600160a01b038516602080830191909152818301849052606080830186905283518084039091018152608090920183528151918101919091206000818152600890925291902054611cd2576040805162461bcd60e51b815260206004820152601f6024820152600080516020615aeb833981519152604482015290519081900360640190fd5b600081815260086020526040902054426001600160401b0382161115611d3a576040805162461bcd60e51b815260206004820152601860248201527714d85999551c985b99995c8e881b9bdd08195e1c1a5c995960421b604482015290519081900360640190fd5b600082815260086020526040808220829055516001600160a01b0387169185156108fc02918691818181858888f19350505050158015611d7e573d6000803e3d6000fd5b5060408051848152905185916001600160a01b038816917f315de080c411b2c8236296058cbea4d5dddebfb39339055d552810a07fbc92769181900360200190a35050505050565b7f9e6214229b9fba1927010d30b22a3a5d9fd5e856bb29f056416ff2ad52e8de4481565b60015481565b611df8615411565b6001600160a01b0316816001600160a01b031614611e475760405162461bcd60e51b815260040180806020018281038252602f815260200180615ce5602f913960400191505060405180910390fd5b611beb828261547e565b611e69600080516020615b9a83398151915233613384565b611ea8576040805162461bcd60e51b815260206004820152601e6024820152600080516020615b7a833981519152604482015290519081900360640190fd5b60008a8a8a8a8a8a8a8a60405160200180896001600160a01b0316815260200180602001876001600160a01b03168152602001866001600160a01b031681526020018581526020018481526020018381526020018281038252898982818152602001925080828437600081840152601f19601f820116905080830192505050995050505050505050505060405160208183030381529060405280519060200120905060006006600083815260200190815260200160002054905060008111611fa5576040805162461bcd60e51b815260206004820152601f6024820152600080516020615aeb833981519152604482015290519081900360640190fd5b42816001600160401b031611611ff9576040805162461bcd60e51b815260206004820152601460248201527314d85999551c985b99995c8e88195e1c1a5c995960621b604482015290519081900360640190fd5b42604082901c6001600160401b03161115612049576040805162461bcd60e51b815260206004820152601e6024820152600080516020615b5a833981519152604482015290519081900360640190fd5b8484846040518083838082843780830192505050925050506040518091039020146120a9576040805162461bcd60e51b815260206004820152601a6024820152600080516020615b3a833981519152604482015290519081900360640190fd5b6000828152600660205260408120556004546120c590876153b7565b6004556120dd6001600160a01b038d168a8a8a6154e7565b876001600160a01b0316896001600160a01b03168d6001600160a01b03167f28bb8be2aa24f2c6aec31cf8b9095a77d7a8d9f5e7d984c04bddb7c67a8d74c2858b604051808381526020018281526020019250505060405180910390a4505050505050505050505050565b6121656001600160801b03821661215f88886153b7565b906153b7565b34146121b8576040805162461bcd60e51b815260206004820152601c60248201527f536166655472616e736665723a2076616c7565206d69736d6174636800000000604482015290519081900360640190fd5b600086116121fb576040805162461bcd60e51b81526020600482015260166024820152600080516020615c31833981519152604482015290519081900360640190fd5b6001600160a01b038716331415612247576040805162461bcd60e51b815260206004820152601f6024820152600080516020615c51833981519152604482015290519081900360640190fd5b42826001600160401b031611612292576040805162461bcd60e51b815260206004820152601d6024820152600080516020615c9b833981519152604482015290519081900360640190fd5b60408051336020808301919091526001600160a01b038a1682840152606082018990526080820188905260a08083018890528351808403909101815260c0909201835281519181019190912060008181526005909252919020541561232c576040805162461bcd60e51b815260206004820152601b6024820152600080516020615c11833981519152604482015290519081900360640190fd5b600081815260056020908152604091829020608085811b6001600160801b0319166001600160401b0388811691820190935584518c81529384018b90528385018a905291881660608401528201526001600160801b03841660a082015290516001600160a01b038a169133917f0c068508757304c51e9264434c8c2fb4147946522d58b831889cd9c7240a55769160c0908290030190a35050505050505050565b6123e5600080516020615b9a83398151915233613384565b612424576040805162461bcd60e51b815260206004820152601e6024820152600080516020615b7a833981519152604482015290519081900360640190fd5b846001600160a01b031663b88d4fde30868686866040518663ffffffff1660e01b815260040180866001600160a01b03168152602001856001600160a01b03168152602001848152602001806020018281038252848482818152602001925080828437600081840152601f19601f8201169050808301925050509650505050505050600060405180830381600087803b1580156124c057600080fd5b505af11580156124d4573d6000803e3d6000fd5b505050505050505050565b60003411612522576040805162461bcd60e51b81526020600482015260166024820152600080516020615c31833981519152604482015290519081900360640190fd5b60408051336020808301919091523482840152606080830185905283518084039091018152608090920183528151918101919091206000818152600890925291902054156125a5576040805162461bcd60e51b815260206004820152601b6024820152600080516020615c11833981519152604482015290519081900360640190fd5b6000818152600860209081526040918290206001600160401b03905581513481529151849233927f3dbf39eb5935a7abc0c756107967c274f5964488444b869ea5114a06aa2989ae92918290030190a35050565b8134146126375760405162461bcd60e51b8152600401808060200182810382526027815260200180615bba6027913960400191505060405180910390fd5b60008511612688576040805162461bcd60e51b815260206004820152601960248201527814d85999551c985b9cd9995c8e881b9bc81d1bdad95b881a59603a1b604482015290519081900360640190fd5b6001600160a01b0386163314156126d4576040805162461bcd60e51b815260206004820152601f6024820152600080516020615c51833981519152604482015290519081900360640190fd5b6000898989338a8a8a8a8a8a604051602001808b6001600160a01b0316815260200180602001896001600160a01b03168152602001886001600160a01b031681526020018781526020018060200185815260200184815260200183810383528c8c82818152602001925080828437600083820152601f01601f191690910184810383528781526020019050878780828437600081840152601f19601f8201169050808301925050509c5050505050505050505050505060405160208183030381529060405280519060200120905060076000828152602001908152602001600020546000146127f8576040805162461bcd60e51b815260206004820152601b6024820152600080516020615c11833981519152604482015290519081900360640190fd5b6000818152600760209081526040918290206001600160401b039055815188815290810185905280820184905290516001600160a01b03808a16923392918e16917f5de53c176cff701e2530af486c4652d44dc99c1099750924f392f0d8be7e5c3d9181900360600190a450505050505050505050565b612887600080516020615b9a83398151915233613384565b6128c6576040805162461bcd60e51b815260206004820152601e6024820152600080516020615b7a833981519152604482015290519081900360640190fd5b60008c8c8c8c8c8c8c8c8c8c604051602001808b6001600160a01b0316815260200180602001896001600160a01b03168152602001886001600160a01b031681526020018781526020018060200185815260200184815260200183810383528c8c82818152602001925080828437600083820152601f01601f191690910184810383528781526020019050878780828437600081840152601f19601f8201169050808301925050509c50505050505050505050505050604051602081830303815290604052805190602001209050600060076000838152602001908152602001600020549050600081116129ef576040805162461bcd60e51b815260206004820152601f6024820152600080516020615aeb833981519152604482015290519081900360640190fd5b42816001600160401b031611612a43576040805162461bcd60e51b815260206004820152601460248201527314d85999551c985b99995c8e88195e1c1a5c995960621b604482015290519081900360640190fd5b42604082901c6001600160401b03161115612a93576040805162461bcd60e51b815260206004820152601e6024820152600080516020615b5a833981519152604482015290519081900360640190fd5b848484604051808383808284378083019250505092505050604051809103902014612af3576040805162461bcd60e51b815260206004820152601a6024820152600080516020615b3a833981519152604482015290519081900360640190fd5b600082815260076020526040812055600454612b0f90876153b7565b6004819055508d6001600160a01b031663b88d4fde8c8c8c8c8c6040518663ffffffff1660e01b815260040180866001600160a01b03168152602001856001600160a01b03168152602001848152602001806020018281038252848482818152602001925080828437600081840152601f19601f8201169050808301925050509650505050505050600060405180830381600087803b158015612bb157600080fd5b505af1158015612bc5573d6000803e3d6000fd5b50505050896001600160a01b03168b6001600160a01b03168f6001600160a01b03167f86f5b986121cacce468c183b4ded35916f3cabef68a45644042b1e55fd2cb931858d604051808381526020018281526020019250505060405180910390a45050505050505050505050505050565b600181565b6000898989338a8a8a8a8a8a604051602001808b6001600160a01b0316815260200180602001896001600160a01b03168152602001886001600160a01b031681526020018781526020018060200185815260200184815260200183810383528c8c82818152602001925080828437600083820152601f01601f191690910184810383528781526020019050878780828437600081840152601f19601f8201169050808301925050509c505050505050505050505050506040516020818303038152906040528051906020012090506000600760008381526020019081526020016000205411612d5f576040805162461bcd60e51b815260206004820152601f6024820152600080516020615aeb833981519152604482015290519081900360640190fd5b60008181526007602052604080822082905551339185156108fc02918691818181858888f19350505050158015612d9a573d6000803e3d6000fd5b50604080518281526020810188905281516001600160a01b03808b16933393918f16927f888085db651d2c8dd055a62e48cd23d308502ebd6b714c6f4e9368bf27bfa9f89281900390910190a450505050505050505050565b60025481565b813414612e375760405162461bcd60e51b8152600401808060200182810382526027815260200180615bba6027913960400191505060405180910390fd5b60008311612e7a576040805162461bcd60e51b81526020600482015260166024820152600080516020615c31833981519152604482015290519081900360640190fd5b6001600160a01b038416331415612ec6576040805162461bcd60e51b815260206004820152601f6024820152600080516020615c51833981519152604482015290519081900360640190fd5b6000878787338888888860405160200180896001600160a01b0316815260200180602001876001600160a01b03168152602001866001600160a01b031681526020018581526020018481526020018381526020018281038252898982818152602001925080828437600081840152601f19601f82011690508083019250505099505050505050505050506040516020818303038152906040528051906020012090506006600082815260200190815260200160002054600014612fbe576040805162461bcd60e51b815260206004820152601b6024820152600080516020615c11833981519152604482015290519081900360640190fd5b6000818152600660209081526040918290206001600160401b039055815186815290810185905280820184905290516001600160a01b03808816923392918c16917f70f7911dcde96fe5fa6c6d28e57c91a03cbc1a63d76fed73c77333dcdcfbcfea9181900360600190a45050505050505050565b8434146130715760405162461bcd60e51b8152600401808060200182810382526027815260200180615bba6027913960400191505060405180910390fd5b600088116130c2576040805162461bcd60e51b815260206004820152601960248201527814d85999551c985b9cd9995c8e881b9bc81d1bdad95b881a59603a1b604482015290519081900360640190fd5b6001600160a01b03891633141561310e576040805162461bcd60e51b815260206004820152601f6024820152600080516020615c51833981519152604482015290519081900360640190fd5b42826001600160401b031611613159576040805162461bcd60e51b815260206004820152601d6024820152600080516020615c9b833981519152604482015290519081900360640190fd5b60008c8c8c338d8d8d8d8d8d604051602001808b6001600160a01b0316815260200180602001896001600160a01b03168152602001886001600160a01b031681526020018781526020018060200185815260200184815260200183810383528c8c82818152602001925080828437600083820152601f01601f191690910184810383528781526020019050878780828437600081840152601f19601f8201169050808301925050509c50505050505050505050505050604051602081830303815290604052805190602001209050600760008281526020019081526020016000205460001461327d576040805162461bcd60e51b815260206004820152601b6024820152600080516020615c11833981519152604482015290519081900360640190fd5b6080826001600160801b0316901b6040856001600160401b0316901b846001600160401b031601016007600083815260200190815260200160002081905550896001600160a01b0316336001600160a01b03168e6001600160a01b03167fdf4eaf9a639e30edb46353425d55622f3c573b13ccd8ff6890613a5fc3520e888c8a8a8a8a8a60405180878152602001868152602001858152602001846001600160401b03168152602001836001600160401b03168152602001826001600160801b03168152602001965050505050505060405180910390a450505050505050505050505050565b600082815260208190526040812061337b9083615547565b90505b92915050565b600082815260208190526040812061337b9083615553565b6133b4600080516020615b9a83398151915233613384565b6133f3576040805162461bcd60e51b815260206004820152601e6024820152600080516020615b7a833981519152604482015290519081900360640190fd5b6134076001600160a01b0384168383615568565b505050565b600081565b6040518060400160405280601481526020017325b4b937b1379029b0b332902a3930b739b332b960611b81525081565b61344b83836153b7565b341461349e576040805162461bcd60e51b815260206004820152601c60248201527f536166655472616e736665723a2076616c7565206d69736d6174636800000000604482015290519081900360640190fd5b600083116134e1576040805162461bcd60e51b81526020600482015260166024820152600080516020615c31833981519152604482015290519081900360640190fd5b6001600160a01b03841633141561352d576040805162461bcd60e51b815260206004820152601f6024820152600080516020615c51833981519152604482015290519081900360640190fd5b60408051336020808301919091526001600160a01b03871682840152606082018690526080820185905260a08083018590528351808403909101815260c090920183528151918101919091206000818152600590925291902054156135c7576040805162461bcd60e51b815260206004820152601b6024820152600080516020615c11833981519152604482015290519081900360640190fd5b6000818152600560209081526040918290206001600160401b039055815186815290810185905280820184905290516001600160a01b0387169133917fc6daf3f44b892b946e8f054dee61a5c544673a355b8ec6fd0ba713e6e67518db9181900360600190a35050505050565b7fa14a2dc51c26e451800897aa798120e7d6c35039caf5eb29b8ac35d1e914c59181565b613670600080516020615b9a83398151915233613384565b6136af576040805162461bcd60e51b815260206004820152601e6024820152600080516020615b7a833981519152604482015290519081900360640190fd5b60008a8a8a8a8a8a8a8a8a8a604051602001808b6001600160a01b0316815260200180602001896001600160a01b03168152602001886001600160a01b031681526020018781526020018060200185815260200184815260200183810383528c8c82818152602001925080828437600083820152601f01601f191690910184810383528781526020019050878780828437600081840152601f19601f8201169050808301925050509c5050505050505050505050505060405160208183030381529060405280519060200120905060006007600083815260200190815260200160002054116137d3576040805162461bcd60e51b815260206004820152601f6024820152600080516020615aeb833981519152604482015290519081900360640190fd5b600081815260076020526040902054426001600160401b038216111561383b576040805162461bcd60e51b815260206004820152601860248201527714d85999551c985b99995c8e881b9bdd08195e1c1a5c995960421b604482015290519081900360640190fd5b600082815260076020526040808220829055516001600160a01b038b169186156108fc02918791818181858888f1935050505015801561387f573d6000803e3d6000fd5b50876001600160a01b0316896001600160a01b03168d6001600160a01b03167f888085db651d2c8dd055a62e48cd23d308502ebd6b714c6f4e9368bf27bfa9f8858b604051808381526020018281526020019250505060405180910390a4505050505050505050505050565b6000878787338888888860405160200180896001600160a01b0316815260200180602001876001600160a01b03168152602001866001600160a01b031681526020018581526020018481526020018381526020018281038252898982818152602001925080828437600081840152601f19601f820116905080830192505050995050505050505050505060405160208183030381529060405280519060200120905060006006600083815260200190815260200160002054116139e3576040805162461bcd60e51b815260206004820152601f6024820152600080516020615aeb833981519152604482015290519081900360640190fd5b60008181526006602052604080822082905551339185156108fc02918691818181858888f19350505050158015613a1e573d6000803e3d6000fd5b50604080518281526020810186905281516001600160a01b03808916933393918d16927f9d3d4c92d62433013833b0f45e10416260d233e97cfc19bc5705b9b75170c2b09281900390910190a45050505050505050565b6040805133602080830191909152818301849052606080830186905283518084039091018152608090920183528151918101919091206000818152600890925291902054613af8576040805162461bcd60e51b815260206004820152601f6024820152600080516020615aeb833981519152604482015290519081900360640190fd5b60008181526008602052604080822082905551339184156108fc02918591818181858888f19350505050158015613b33573d6000803e3d6000fd5b50604080518381529051849133917f315de080c411b2c8236296058cbea4d5dddebfb39339055d552810a07fbc92769181900360200190a3505050565b60408051336020808301919091526001600160a01b03871682840152606082018690526080820185905260a08083018590528351808403909101815260c090920183528151918101919091206000818152600590925291902054613c09576040805162461bcd60e51b815260206004820152601f6024820152600080516020615aeb833981519152604482015290519081900360640190fd5b6000818152600560205260408120819055613c2485856153b7565b604051909150339082156108fc029083906000818181858888f19350505050158015613c54573d6000803e3d6000fd5b5060408051828152905183916001600160a01b0389169133917f2c0f05de664e2354e281c7c55d07fe10e18c61d9b196dbcd318285801b36cde4919081900360200190a4505050505050565b600081815260208190526040812061337e906155ba565b60003411613cfa576040805162461bcd60e51b81526020600482015260166024820152600080516020615c31833981519152604482015290519081900360640190fd5b6040805133602080830191909152348284015260608083018890528351808403909101815260809092018352815191810191909120600081815260089092529190205415613d7d576040805162461bcd60e51b815260206004820152601b6024820152600080516020615c11833981519152604482015290519081900360640190fd5b42836001600160401b031611613dc8576040805162461bcd60e51b815260206004820152601d6024820152600080516020615c9b833981519152604482015290519081900360640190fd5b6080826001600160801b0316901b6040856001600160401b0316901b846001600160401b03160101600860008381526020019081526020016000208190555084336001600160a01b03167f1e0da4edc3a1c02f16fe48803f882d848dc210551eb8a545cc6f6c83012df2ff3487878760405180858152602001846001600160401b03168152602001836001600160401b03168152602001826001600160801b0316815260200194505050505060405180910390a35050505050565b613e9b600080516020615b9a83398151915233613384565b613eda576040805162461bcd60e51b815260206004820152601e6024820152600080516020615b7a833981519152604482015290519081900360640190fd5b613ee2615ab1565b7fa14a2dc51c26e451800897aa798120e7d6c35039caf5eb29b8ac35d1e914c59160001b8e8e8e8e8e8e8e8e604051602001808a8152602001896001600160a01b03168152602001886001600160a01b03168152602001876001600160a01b031681526020018060200186815260200180602001858152602001848152602001838103835288818151815260200191508051906020019080838360005b83811015613f97578181015183820152602001613f7f565b50505050905090810190601f168015613fc45780820380516001836020036101000a031916815260200191505b50838103825286518152865160209182019188019080838360005b83811015613ff7578181015183820152602001613fdf565b50505050905090810190601f1680156140245780820380516001836020036101000a031916815260200191505b509b505050505050505050505050604051602081830303815290604052805190602001208160200181815250508d6001600160a01b0316600180548360200151604051602001808061190160f01b815250600201838152602001828152602001925050506040516020818303038152906040528051906020012086868660405160008152602001604052604051808581526020018460ff1681526020018381526020018281526020019450505050506020604051602081039080840390855afa1580156140f5573d6000803e3d6000fd5b505050602060405103516001600160a01b03161461415a576040805162461bcd60e51b815260206004820152601d60248201527f536166655472616e736665723a2077726f6e67207369676e6174757265000000604482015290519081900360640190fd5b8d88826020015160405160200180846001600160a01b03168152602001838152602001828152602001935050505060405160208183030381529060405280519060200120816000018181525050600060086000836000015181526020019081526020016000205411614201576040805162461bcd60e51b815260206004820152601f6024820152600080516020615aeb833981519152604482015290519081900360640190fd5b8051600090815260086020526040902054426001600160401b0390911611614267576040805162461bcd60e51b815260206004820152601460248201527314d85999551c985b99995c8e88195e1c1a5c995960621b604482015290519081900360640190fd5b8051600090815260086020526040908190205442911c6001600160401b031611156142c7576040805162461bcd60e51b815260206004820152601e6024820152600080516020615b5a833981519152604482015290519081900360640190fd5b868686604051808383808284378083019250505092505050604051809103902014614327576040805162461bcd60e51b815260206004820152601a6024820152600080516020615b3a833981519152604482015290519081900360640190fd5b805160009081526008602052604081205560045461434590896153b7565b6004819055508b6001600160a01b031663b88d4fde8f8f8d8d6040518563ffffffff1660e01b815260040180856001600160a01b03168152602001846001600160a01b0316815260200183815260200180602001828103825283818151815260200191508051906020019080838360005b838110156143ce5781810151838201526020016143b6565b50505050905090810190601f1680156143fb5780820380516001836020036101000a031916815260200191505b5095505050505050600060405180830381600087803b15801561441d57600080fd5b505af1158015614431573d6000803e3d6000fd5b505050508c6001600160a01b03168e6001600160a01b03168d6001600160a01b03167f277982bd3369f69df6339efe835276c5762d720a34ab5c7973bf73491e18432784602001518e604051808381526020018281526020019250505060405180910390a45050505050505050505050505050565b6000828152602081905260409020600201546144c490611ba1615411565b611e475760405162461bcd60e51b8152600401808060200182810382526030815260200180615be16030913960400191505060405180910390fd5b614517600080516020615b9a83398151915233613384565b614556576040805162461bcd60e51b815260206004820152601e6024820152600080516020615b7a833981519152604482015290519081900360640190fd5b604080516001600160a01b03808a1660208084019190915290891682840152606082018890526080820187905260a08083018790528351808403909101815260c090920183528151918101919091206000818152600590925291902054806145f3576040805162461bcd60e51b815260206004820152601f6024820152600080516020615aeb833981519152604482015290519081900360640190fd5b42816001600160401b031611614647576040805162461bcd60e51b815260206004820152601460248201527314d85999551c985b99995c8e88195e1c1a5c995960621b604482015290519081900360640190fd5b42604082901c6001600160401b03161115614697576040805162461bcd60e51b815260206004820152601e6024820152600080516020615b5a833981519152604482015290519081900360640190fd5b8484846040518083838082843780830192505050925050506040518091039020146146f7576040805162461bcd60e51b815260206004820152601a6024820152600080516020615b3a833981519152604482015290519081900360640190fd5b60008281526005602052604081205560045461471390876153b7565b6004556040516001600160a01b0389169088156108fc029089906000818181858888f1935050505015801561474c573d6000803e3d6000fd5b5081886001600160a01b03168a6001600160a01b03167fa4beac8994bd92afc3cde2236c528ddabf0b78fdd042b6766364a85c6c77f6078a6040518082815260200191505060405180910390a4505050505050505050565b6147bc600080516020615b9a83398151915233613384565b6147fb576040805162461bcd60e51b815260206004820152601e6024820152600080516020615b7a833981519152604482015290519081900360640190fd5b604080517f0506afef36f3613836f98ef019cb76a3e6112be8f9dc8d8fa77275d64f4182346020808301919091526001600160a01b03808e16838501819052908d166060840152608083018c905260a083018b905260c08084018b90528451808503909101815260e0840185528051908301206001805461190160f01b610100870152610102860152610122808601839052865180870390910181526101428601808852815191860191909120600090915261016286018088525260ff89166101828601526101a285018890526101c2850187905294519094919391926101e2808401939192601f1981019281900390910190855afa158015614902573d6000803e3d6000fd5b505050602060405103516001600160a01b031614614967576040805162461bcd60e51b815260206004820152601d60248201527f536166655472616e736665723a2077726f6e67207369676e6174757265000000604482015290519081900360640190fd5b60008b6149748b8b6153b7565b8360405160200180846001600160a01b03168152602001838152602001828152602001935050505060405160208183030381529060405280519060200120905060006008600083815260200190815260200160002054905060008111614a0f576040805162461bcd60e51b815260206004820152601f6024820152600080516020615aeb833981519152604482015290519081900360640190fd5b42816001600160401b031611614a63576040805162461bcd60e51b815260206004820152601460248201527314d85999551c985b99995c8e88195e1c1a5c995960621b604482015290519081900360640190fd5b42604082901c6001600160401b03161115614ab3576040805162461bcd60e51b815260206004820152601e6024820152600080516020615b5a833981519152604482015290519081900360640190fd5b888888604051808383808284378083019250505092505050604051809103902014614b13576040805162461bcd60e51b815260206004820152601a6024820152600080516020615b3a833981519152604482015290519081900360640190fd5b600082815260086020526040812055600454614b2f908b6153b7565b6004556040516001600160a01b038d16908c156108fc02908d906000818181858888f19350505050158015614b68573d6000803e3d6000fd5b50828c6001600160a01b03168e6001600160a01b03167f8626ed517f2013f53bfc0df75797154faf15afab3b9bd5aa0dc4a39f04c34e2d8e6040518082815260200191505060405180910390a450505050505050505050505050565b614bdc600080516020615b9a83398151915233613384565b614c1b576040805162461bcd60e51b815260206004820152601e6024820152600080516020615b7a833981519152604482015290519081900360640190fd5b614c23615ab1565b7f9e6214229b9fba1927010d30b22a3a5d9fd5e856bb29f056416ff2ad52e8de4460001b8d8d8d8d8d8d8d60405160200180898152602001886001600160a01b03168152602001876001600160a01b03168152602001866001600160a01b0316815260200180602001858152602001848152602001838152602001828103825286818151815260200191508051906020019080838360005b83811015614cd3578181015183820152602001614cbb565b50505050905090810190601f168015614d005780820380516001836020036101000a031916815260200191505b509950505050505050505050604051602081830303815290604052805190602001208160200181815250508c6001600160a01b0316600180548360200151604051602001808061190160f01b815250600201838152602001828152602001925050506040516020818303038152906040528051906020012086868660405160008152602001604052604051808581526020018460ff1681526020018381526020018281526020019450505050506020604051602081039080840390855afa158015614dcf573d6000803e3d6000fd5b505050602060405103516001600160a01b031614614e34576040805162461bcd60e51b815260206004820152601d60248201527f536166655472616e736665723a2077726f6e67207369676e6174757265000000604482015290519081900360640190fd5b8c614e3f8a8a6153b7565b602080840151604080516001600160a01b03909516858401528481019390935260608085019190915282518085039091018152608090930182528251928101929092208084526000908152600890925290205480614ed2576040805162461bcd60e51b815260206004820152601f6024820152600080516020615aeb833981519152604482015290519081900360640190fd5b42816001600160401b031611614f26576040805162461bcd60e51b815260206004820152601460248201527314d85999551c985b99995c8e88195e1c1a5c995960621b604482015290519081900360640190fd5b42604082901c6001600160401b03161115614f76576040805162461bcd60e51b815260206004820152601e6024820152600080516020615b5a833981519152604482015290519081900360640190fd5b878787604051808383808284378083019250505092505050604051809103902014614fd6576040805162461bcd60e51b815260206004820152601a6024820152600080516020615b3a833981519152604482015290519081900360640190fd5b8151600090815260086020526040812055600454614ff4908a6153b7565b60045561500c6001600160a01b038d168f8f8d6154e7565b8c6001600160a01b03168e6001600160a01b03168d6001600160a01b03167fda80a0efa5ccd61d8ea52eac9b959088c9b589a93c4a9d4eb7ab2874ff6607b685602001518e604051808381526020018281526020019250505060405180910390a45050505050505050505050505050565b615095600080516020615b9a83398151915233613384565b6150d4576040805162461bcd60e51b815260206004820152601e6024820152600080516020615b7a833981519152604482015290519081900360640190fd5b6004546150e190826155c5565b6004556040516001600160a01b0383169082156108fc029083906000818181858888f19350505050158015613407573d6000803e3d6000fd5b615132600080516020615b9a83398151915233613384565b615171576040805162461bcd60e51b815260206004820152601e6024820152600080516020615b7a833981519152604482015290519081900360640190fd5b6000888888888888888860405160200180896001600160a01b0316815260200180602001876001600160a01b03168152602001866001600160a01b031681526020018581526020018481526020018381526020018281038252898982818152602001925080828437600081840152601f19601f82011690508083019250505099505050505050505050506040516020818303038152906040528051906020012090506000600660008381526020019081526020016000205411615269576040805162461bcd60e51b815260206004820152601f6024820152600080516020615aeb833981519152604482015290519081900360640190fd5b600081815260066020526040902054426001600160401b03821611156152d1576040805162461bcd60e51b815260206004820152601860248201527714d85999551c985b99995c8e881b9bdd08195e1c1a5c995960421b604482015290519081900360640190fd5b600082815260066020526040808220829055516001600160a01b0389169186156108fc02918791818181858888f19350505050158015615315573d6000803e3d6000fd5b50856001600160a01b0316876001600160a01b03168b6001600160a01b03167f9d3d4c92d62433013833b0f45e10416260d233e97cfc19bc5705b9b75170c2b08589604051808381526020018281526020019250505060405180910390a450505050505050505050565b60035490565b604051806040016040528060018152602001603160f81b81525081565b600061337b836001600160a01b038416615607565b60008282018381101561337b576040805162461bcd60e51b815260206004820152601b60248201527f536166654d6174683a206164646974696f6e206f766572666c6f770000000000604482015290519081900360640190fd5b3390565b600082815260208190526040902061542d90826153a2565b15611beb5761543a615411565b6001600160a01b0316816001600160a01b0316837f2f8788117e7eff1d82e926ec794901d17c78024a50270940304540a733656f0d60405160405180910390a45050565b60008281526020819052604090206154969082615651565b15611beb576154a3615411565b6001600160a01b0316816001600160a01b0316837ff6391f5c32d9c69d2a47ea670b442974b53935d1edc7fd64eb21e047a839171b60405160405180910390a45050565b604080516001600160a01b0380861660248301528416604482015260648082018490528251808303909101815260849091019091526020810180516001600160e01b03166323b872dd60e01b179052615541908590615666565b50505050565b600061337b8383615717565b600061337b836001600160a01b03841661577b565b604080516001600160a01b038416602482015260448082018490528251808303909101815260649091019091526020810180516001600160e01b031663a9059cbb60e01b179052613407908490615666565b600061337e82615793565b600061337b83836040518060400160405280601e81526020017f536166654d6174683a207375627472616374696f6e206f766572666c6f770000815250615797565b6000615613838361577b565b6156495750815460018181018455600084815260208082209093018490558454848252828601909352604090209190915561337e565b50600061337e565b600061337b836001600160a01b03841661582e565b60606156bb826040518060400160405280602081526020017f5361666545524332303a206c6f772d6c6576656c2063616c6c206661696c6564815250856001600160a01b03166158f49092919063ffffffff16565b805190915015613407578080602001905160208110156156da57600080fd5b50516134075760405162461bcd60e51b815260040180806020018281038252602a815260200180615c71602a913960400191505060405180910390fd5b815460009082106157595760405162461bcd60e51b8152600401808060200182810382526022815260200180615ac96022913960400191505060405180910390fd5b82600001828154811061576857fe5b9060005260206000200154905092915050565b60009081526001919091016020526040902054151590565b5490565b600081848411156158265760405162461bcd60e51b81526004018080602001828103825283818151815260200191508051906020019080838360005b838110156157eb5781810151838201526020016157d3565b50505050905090810190601f1680156158185780820380516001836020036101000a031916815260200191505b509250505060405180910390fd5b505050900390565b600081815260018301602052604081205480156158ea578354600019808301919081019060009087908390811061586157fe5b906000526020600020015490508087600001848154811061587e57fe5b6000918252602080832090910192909255828152600189810190925260409020908401905586548790806158ae57fe5b6001900381819060005260206000200160009055905586600101600087815260200190815260200160002060009055600194505050505061337e565b600091505061337e565b6060615903848460008561590b565b949350505050565b606061591685615a78565b615967576040805162461bcd60e51b815260206004820152601d60248201527f416464726573733a2063616c6c20746f206e6f6e2d636f6e7472616374000000604482015290519081900360640190fd5b60006060866001600160a01b031685876040518082805190602001908083835b602083106159a65780518252601f199092019160209182019101615987565b6001836020036101000a03801982511681845116808217855250505050505090500191505060006040518083038185875af1925050503d8060008114615a08576040519150601f19603f3d011682016040523d82523d6000602084013e615a0d565b606091505b50915091508115615a215791506159039050565b805115615a315780518082602001fd5b60405162461bcd60e51b81526020600482018181528651602484015286518793919283926044019190850190808383600083156157eb5781810151838201526020016157d3565b6000813f7fc5d2460186f7233c927e7db2dcc703c0e500b653ca82273b7bfad8045d85a470818114801590615903575050151592915050565b60408051808201909152600080825260208201529056fe456e756d657261626c655365743a20696e646578206f7574206f6620626f756e6473536166655472616e736665723a2072657175657374206e6f7420657869737400416363657373436f6e74726f6c3a2073656e646572206d75737420626520616e2061646d696e20746f206772616e74536166655472616e736665723a2077726f6e6720736563726574000000000000536166655472616e6665723a206e6f7420617661696c61626c65207965740000536166655472616e736665723a206e6f7420616e20616374697661746f720000ec5aad7bdface20c35bc02d6d2d5760df981277427368525d634f4e2603ea192536166655472616e736665723a206d73672e76616c7565206d757374206d617463682066656573416363657373436f6e74726f6c3a2073656e646572206d75737420626520616e2061646d696e20746f207265766f6b65536166655472616e736665723a20726571756573742065786973740000000000536166655472616e736665723a206e6f2076616c756500000000000000000000536166655472616e736665723a2073656e6465723d3d726563697069656e74005361666545524332303a204552433230206f7065726174696f6e20646964206e6f742073756363656564536166655472616e736665723a20616c72656164792065787069726564000000536166655472616e736665723a206e6f7420616363657074696e67206574686572206469726563746c79416363657373436f6e74726f6c3a2063616e206f6e6c792072656e6f756e636520726f6c657320666f722073656c66a2646970667358221220ced6936c2583d6ef69ddc03fe77b46f6dc8dba695324bc8f74472bdac7f41eed64736f6c634300060c0033ec5aad7bdface20c35bc02d6d2d5760df981277427368525d634f4e2603ea192",
  "immutableReferences": {},
  "source": "// SPDX-License-Identifier: MIT\n\npragma solidity 0.6.12;\n\nimport \"../node_modules/@openzeppelin/contracts/math/SafeMath.sol\";\nimport \"../node_modules/@openzeppelin/contracts/access/AccessControl.sol\";\nimport \"../node_modules/@openzeppelin/contracts/token/ERC20/SafeERC20.sol\";\nimport \"../node_modules/@openzeppelin/contracts/token/ERC721/IERC721.sol\";\n\ncontract SafeTransfer is AccessControl {\n    using SafeMath for uint256;\n    using SafeERC20 for IERC20;\n\n    // keccak256(\"ACTIVATOR_ROLE\");\n    bytes32 public constant ACTIVATOR_ROLE = 0xec5aad7bdface20c35bc02d6d2d5760df981277427368525d634f4e2603ea192;\n\n    // keccak256(\"hiddenCollect(address from,address to,uint256 value,uint256 fees,bytes32 secretHash)\");\n    bytes32 public constant HIDDEN_COLLECT_TYPEHASH = 0x0506afef36f3613836f98ef019cb76a3e6112be8f9dc8d8fa77275d64f418234;\n\n    // keccak256(\"hiddenCollectERC20(address from,address to,address token,string tokenSymbol,uint256 value,uint256 fees,bytes32 secretHash)\");\n    bytes32 public constant HIDDEN_ERC20_COLLECT_TYPEHASH = 0x9e6214229b9fba1927010d30b22a3a5d9fd5e856bb29f056416ff2ad52e8de44;\n\n    // keccak256(\"hiddenCollectERC721(address from,address to,address token,string tokenSymbol,uint256 tokenId,bytes tokenData,uint256 fees,bytes32 secretHash)\");\n    bytes32 public constant HIDDEN_ERC721_COLLECT_TYPEHASH = 0xa14a2dc51c26e451800897aa798120e7d6c35039caf5eb29b8ac35d1e914c591;\n\n    bytes32 public DOMAIN_SEPARATOR;\n    uint256 public CHAIN_ID;\n    bytes32 s_uid;\n    uint256 s_fees;\n    \n    struct TokenInfo {\n        bytes32 id;\n        bytes32 id1;\n    }\n\n    mapping(bytes32 => uint256) s_transfers;\n    mapping(bytes32 => uint256) s_erc20Transfers;\n    mapping(bytes32 => uint256) s_erc721Transfers;\n    mapping(bytes32 => uint256) s_htransfers;\n\n    string public constant NAME = \"Kirobo Safe Transfer\";\n    string public constant VERSION = \"1\";\n    uint8 public constant VERSION_NUMBER = 0x1;\n\n    event Deposited(\n        address indexed from,\n        address indexed to,\n        uint256 value,\n        uint256 fees,\n        bytes32 secretHash\n    );\n    \n    event TimedDeposited(\n        address indexed from,\n        address indexed to,\n        uint256 value,\n        uint256 fees,\n        bytes32 secretHash,\n        uint64 availableAt,\n        uint64 expiresAt,\n        uint128 depositFees\n    );\n    \n    event Retrieved(\n        address indexed from,\n        address indexed to,\n        bytes32 indexed id,\n        uint256 value\n    );    \n    \n    event Collected(\n        address indexed from,\n        address indexed to,\n        bytes32 indexed id,\n        uint256 value\n    );\n\n    event ERC20Deposited(\n        address indexed token,\n        address indexed from,\n        address indexed to,\n        uint256 value,\n        uint256 fees,\n        bytes32 secretHash\n    );\n\n    event ERC20TimedDeposited(\n        address indexed token,\n        address indexed from,\n        address indexed to,\n        uint256 value,\n        uint256 fees,\n        bytes32 secretHash,\n        uint64 availableAt,\n        uint64 expiresAt,\n        uint128 depositFees\n    );\n\n    event ERC20Retrieved(\n        address indexed token,\n        address indexed from,\n        address indexed to,\n        bytes32 id,\n        uint256 value\n    );    \n    \n    event ERC20Collected(\n        address indexed token,\n        address indexed from,\n        address indexed to,\n        bytes32 id,\n        uint256 value\n    );\n\n    event ERC721Deposited(\n        address indexed token,\n        address indexed from,\n        address indexed to,\n        uint256 tokenId,\n        uint256 fees,\n        bytes32 secretHash\n    );\n\n    event ERC721TimedDeposited(\n        address indexed token,\n        address indexed from,\n        address indexed to,\n        uint256 tokenId,\n        uint256 fees,\n        bytes32 secretHash,\n        uint64 availableAt,\n        uint64 expiresAt,\n        uint128 depositFees\n    );\n\n    event ERC721Retrieved(\n        address indexed token,\n        address indexed from,\n        address indexed to,\n        bytes32 id,\n        uint256 tokenId\n    );    \n    \n    event ERC721Collected(\n        address indexed token,\n        address indexed from,\n        address indexed to,\n        bytes32 id,\n        uint256 tokenId\n    );\n\n    event HDeposited(\n        address indexed from,\n        uint256 value,\n        bytes32 indexed id1\n    );\n\n    event HTimedDeposited(\n        address indexed from,\n        uint256 value,\n        bytes32 indexed id1,\n        uint64 availableAt,\n        uint64 expiresAt,\n        uint128 depositFees\n    );\n\n    event HRetrieved(\n        address indexed from,\n        bytes32 indexed id1,\n        uint256 value\n    );\n\n    event HCollected(\n        address indexed from,\n        address indexed to,\n        bytes32 indexed id1,\n        uint256 value\n    );\n\n    event HERC20Collected(\n        address indexed token,\n        address indexed from,\n        address indexed to,\n        bytes32 id1,\n        uint256 value\n    );\n\n    event HERC721Collected(\n        address indexed token,\n        address indexed from,\n        address indexed to,\n        bytes32 id1,\n        uint256 tokenId\n    );\n\n    modifier onlyActivator() {\n        require(hasRole(ACTIVATOR_ROLE, msg.sender), \"SafeTransfer: not an activator\");    \n        _;\n    }\n\n    constructor (address activator) public {\n        _setupRole(DEFAULT_ADMIN_ROLE, msg.sender);\n        _setupRole(ACTIVATOR_ROLE, msg.sender);\n        _setupRole(ACTIVATOR_ROLE, activator);\n\n        uint256 chainId;\n        assembly {\n            chainId := chainid()\n        }\n\n        CHAIN_ID = chainId;\n\n        s_uid = bytes32(\n          uint256(VERSION_NUMBER) << 248 |\n          uint256(blockhash(block.number-1)) << 192 >> 16 |\n          uint256(address(this))\n        );\n\n        DOMAIN_SEPARATOR = keccak256(\n            abi.encode(\n                keccak256(\"EIP712Domain(string name,string version,uint256 chainId,address verifyingContract,bytes32 salt)\"),\n                keccak256(bytes(NAME)),\n                keccak256(bytes(VERSION)),\n                chainId,\n                address(this),\n                s_uid\n            )\n        );\n\n    }\n\n    receive () external payable {\n        require(false, \"SafeTransfer: not accepting ether directly\");\n    }\n\n    function transferERC20(address token, address wallet, uint256 value) external onlyActivator() {\n        IERC20(token).safeTransfer(wallet, value);\n    }\n\n    function transferERC721(address token, address wallet, uint256 tokenId, bytes calldata data) external onlyActivator() {\n        IERC721(token).safeTransferFrom(address(this), wallet, tokenId, data);\n    }\n\n    function transferFees(address payable wallet, uint256 value) external onlyActivator() {\n        s_fees = s_fees.sub(value);\n        wallet.transfer(value);\n    }\n\n    function totalFees() external view returns (uint256) {\n        return s_fees;\n    }\n\n    function uid() view external returns (bytes32) {\n        return s_uid;\n    }\n\n    // --------------------------------- ETH ---------------------------------\n\n    function deposit(\n        address payable to,\n        uint256 value,\n        uint256 fees,\n        bytes32 secretHash\n    ) \n        payable external\n    {\n        require(msg.value == value.add(fees), \"SafeTransfer: value mismatch\");\n        require(value > 0, \"SafeTransfer: no value\");\n        require(to != msg.sender, \"SafeTransfer: sender==recipient\");\n        bytes32 id = keccak256(abi.encode(msg.sender, to, value, fees, secretHash));\n        require(s_transfers[id] == 0, \"SafeTransfer: request exist\"); \n        s_transfers[id] = 0xffffffffffffffff; // expiresAt: max, AvailableAt: 0, depositFees: 0\n        emit Deposited(msg.sender, to, value, fees, secretHash);\n    }\n\n    function timedDeposit(\n        address payable to,\n        uint256 value,\n        uint256 fees,\n        bytes32 secretHash,\n        uint64 availableAt,\n        uint64 expiresAt,\n        uint128 depositFees\n    ) \n        payable external\n    {\n        require(msg.value == value.add(fees).add(depositFees), \"SafeTransfer: value mismatch\");\n        require(value > 0, \"SafeTransfer: no value\");\n        require(to != msg.sender, \"SafeTransfer: sender==recipient\");\n        require(expiresAt > now, \"SafeTransfer: already expired\");\n        bytes32 id = keccak256(abi.encode(msg.sender, to, value, fees, secretHash));\n        require(s_transfers[id] == 0, \"SafeTransfer: request exist\"); \n        s_transfers[id] = uint256(expiresAt) + uint256(availableAt << 64) + (uint256(depositFees) << 128);\n        emit TimedDeposited(msg.sender, to, value, fees, secretHash, availableAt, expiresAt, depositFees);\n    }\n\n    function retrieve(\n        address payable to,\n        uint256 value,\n        uint256 fees,\n        bytes32 secretHash\n    )   \n        external \n    {\n        bytes32 id = keccak256(abi.encode(msg.sender, to, value, fees, secretHash));\n        require(s_transfers[id]  > 0, \"SafeTransfer: request not exist\");\n        delete s_transfers[id];\n        uint256 valueToSend = value.add(fees);\n        msg.sender.transfer(valueToSend);\n        emit Retrieved(msg.sender, to, id, valueToSend);\n    }\n\n    function collect(\n        address from,\n        address payable to,\n        uint256 value,\n        uint256 fees,\n        bytes32 secretHash,\n        bytes calldata secret\n    ) \n        external\n        onlyActivator()\n    {\n        bytes32 id = keccak256(abi.encode(from, to, value, fees, secretHash));\n        uint256 tr = s_transfers[id];\n        require(tr > 0, \"SafeTransfer: request not exist\");\n        require(uint64(tr) > now, \"SafeTranfer: expired\");\n        require(uint64(tr>>64) <= now, \"SafeTranfer: not available yet\");\n        require(keccak256(secret) == secretHash, \"SafeTransfer: wrong secret\");\n        delete s_transfers[id];\n        s_fees = s_fees.add(fees);\n        to.transfer(value);\n        emit Collected(from, to, id, value);\n    }\n\n   function cancel(\n        address payable from,\n        address to,\n        uint256 value,\n        uint256 fees,\n        bytes32 secretHash\n    ) \n        external\n        onlyActivator()\n    {\n        bytes32 id = keccak256(abi.encode(from, to, value, fees, secretHash));\n        require(s_transfers[id] > 0, \"SafeTransfer: request not exist\");\n        uint256 tr = s_transfers[id];\n        require(uint64(tr) <= now, \"SafeTranfer: not expired\");\n        delete  s_transfers[id];\n        from.transfer(value.add(fees));\n        emit Retrieved(from, to, id, value.add(fees));\n    }\n\n    // ------------------------------- ERC-20 --------------------------------\n\n    function depositERC20(\n        address token,\n        string calldata tokenSymbol,\n        address to,\n        uint256 value,\n        uint256 fees,\n        bytes32 secretHash\n    ) \n        payable external\n    {\n        require(msg.value == fees, \"SafeTransfer: msg.value must match fees\");\n        require(value > 0, \"SafeTransfer: no value\");\n        require(to != msg.sender, \"SafeTransfer: sender==recipient\");\n        bytes32 id = keccak256(abi.encode(token, tokenSymbol, msg.sender, to, value, fees, secretHash));\n        require(s_erc20Transfers[id] == 0, \"SafeTransfer: request exist\"); \n        s_erc20Transfers[id] = 0xffffffffffffffff;\n        emit ERC20Deposited(token, msg.sender, to, value, fees, secretHash);\n    }\n\n    function timedDepositERC20(\n        address token,\n        string calldata tokenSymbol,\n        address to,\n        uint256 value,\n        uint256 fees,\n        bytes32 secretHash,\n        uint64 availableAt,\n        uint64 expiresAt,\n        uint128 depositFees\n    ) \n        payable external\n    {\n        require(msg.value == fees, \"SafeTransfer: msg.value must match fees\");\n        require(value > 0, \"SafeTransfer: no value\");\n        require(to != msg.sender, \"SafeTransfer: sender==recipient\");\n        require(expiresAt > now, \"SafeTransfer: already expired\");\n        bytes32 id = keccak256(abi.encode(token, tokenSymbol, msg.sender, to, value, fees, secretHash));\n        require(s_erc20Transfers[id] == 0, \"SafeTransfer: request exist\"); \n        s_erc20Transfers[id] = uint256(expiresAt) + (uint256(availableAt) << 64) + (uint256(depositFees) << 128);\n        emit ERC20TimedDeposited(token, msg.sender, to, value, fees, secretHash, availableAt, expiresAt, depositFees);\n    }\n\n    function retrieveERC20(\n        address token,\n        string calldata tokenSymbol,\n        address to,\n        uint256 value,\n        uint256 fees,\n        bytes32 secretHash\n    )   \n        external \n    {\n        bytes32 id = keccak256(abi.encode(token, tokenSymbol, msg.sender, to, value, fees, secretHash));\n        require(s_erc20Transfers[id]  > 0, \"SafeTransfer: request not exist\");\n        delete s_erc20Transfers[id];\n        msg.sender.transfer(fees);\n        emit ERC20Retrieved(token, msg.sender, to, id, value);\n    }\n\n    function collectERC20(\n        address token,\n        string calldata tokenSymbol,\n        address from,\n        address payable to,\n        uint256 value,\n        uint256 fees,\n        bytes32 secretHash,\n        bytes calldata secret\n    ) \n        external\n        onlyActivator()\n    {\n        bytes32 id = keccak256(abi.encode(token, tokenSymbol, from, to, value, fees, secretHash));\n        uint256 tr = s_erc20Transfers[id];\n        require(tr > 0, \"SafeTransfer: request not exist\");\n        require(uint64(tr) > now, \"SafeTranfer: expired\");\n        require(uint64(tr>>64) <= now, \"SafeTranfer: not available yet\");\n        require(keccak256(secret) == secretHash, \"SafeTransfer: wrong secret\");\n        delete s_erc20Transfers[id];\n        s_fees = s_fees.add(fees);\n        IERC20(token).safeTransferFrom(from, to, value);\n        emit ERC20Collected(token, from, to, id, value);\n    }\n\n   function cancelERC20(\n        address token,\n        string calldata tokenSymbol,\n        address payable from,\n        address to,\n        uint256 value,\n        uint256 fees,\n        bytes32 secretHash\n    ) \n        external\n        onlyActivator()\n    {\n        bytes32 id = keccak256(abi.encode(token, tokenSymbol, from, to, value, fees, secretHash));\n        require(s_erc20Transfers[id] > 0, \"SafeTransfer: request not exist\");\n        uint256 tr = s_erc20Transfers[id];\n        require(uint64(tr) <= now, \"SafeTranfer: not expired\");\n        delete  s_erc20Transfers[id];\n        from.transfer(fees);\n        emit ERC20Retrieved(token, from, to, id, value);\n    }\n\n    // ------------------------------- ERC-721 -------------------------------\n\n    function depositERC721(\n        address token,\n        string calldata tokenSymbol,\n        address to,\n        uint256 tokenId,\n        bytes calldata tokenData,\n        uint256 fees,\n        bytes32 secretHash\n    ) \n        payable external\n    {\n        require(msg.value == fees, \"SafeTransfer: msg.value must match fees\");\n        require(tokenId > 0, \"SafeTransfer: no token id\");\n        require(to != msg.sender, \"SafeTransfer: sender==recipient\");\n        bytes32 id = keccak256(abi.encode(token, tokenSymbol, msg.sender, to, tokenId, tokenData, fees, secretHash));\n        require(s_erc721Transfers[id] == 0, \"SafeTransfer: request exist\"); \n        s_erc721Transfers[id] = 0xffffffffffffffff;\n        emit ERC721Deposited(token, msg.sender, to, tokenId, fees, secretHash);\n    }\n\n    function timedDepositERC721(\n        address token,\n        string calldata tokenSymbol,\n        address to,\n        uint256 tokenId,\n        bytes calldata tokenData,\n        uint256 fees,\n        bytes32 secretHash,\n        uint64 availableAt,\n        uint64 expiresAt,\n        uint128 depositFees\n    ) \n        payable external\n    {\n        require(msg.value == fees, \"SafeTransfer: msg.value must match fees\");\n        require(tokenId > 0, \"SafeTransfer: no token id\");\n        require(to != msg.sender, \"SafeTransfer: sender==recipient\");\n        require(expiresAt > now, \"SafeTransfer: already expired\");\n        bytes32 id = keccak256(abi.encode(token, tokenSymbol, msg.sender, to, tokenId, tokenData, fees, secretHash));\n        require(s_erc721Transfers[id] == 0, \"SafeTransfer: request exist\"); \n        s_erc721Transfers[id] = uint256(expiresAt) + (uint256(availableAt) << 64) + (uint256(depositFees) << 128);\n        emit ERC721TimedDeposited(token, msg.sender, to, tokenId, fees, secretHash, availableAt, expiresAt, depositFees);\n    }\n\n    function retrieveERC721(\n        address token,\n        string calldata tokenSymbol,\n        address to,\n        uint256 tokenId,\n        bytes calldata tokenData,\n        uint256 fees,\n        bytes32 secretHash\n    )   \n        external \n    {\n        bytes32 id = keccak256(abi.encode(token, tokenSymbol, msg.sender, to, tokenId, tokenData, fees, secretHash));\n        require(s_erc721Transfers[id]  > 0, \"SafeTransfer: request not exist\");\n        delete s_erc721Transfers[id];\n        msg.sender.transfer(fees);\n        emit ERC721Retrieved(token, msg.sender, to, id, tokenId);\n    }\n\n    function collectERC721(\n        address token,\n        string calldata tokenSymbol,\n        address from,\n        address payable to,\n        uint256 tokenId,\n        bytes calldata tokenData,\n        uint256 fees,\n        bytes32 secretHash,\n        bytes calldata secret\n    ) \n        external\n        onlyActivator()\n    {\n        bytes32 id = keccak256(abi.encode(token, tokenSymbol, from, to, tokenId, tokenData, fees, secretHash));\n        uint256 tr = s_erc721Transfers[id];\n        require(tr > 0, \"SafeTransfer: request not exist\");\n        require(uint64(tr) > now, \"SafeTranfer: expired\");\n        require(uint64(tr>>64) <= now, \"SafeTranfer: not available yet\");\n        require(keccak256(secret) == secretHash, \"SafeTransfer: wrong secret\");\n        delete s_erc721Transfers[id];\n        s_fees = s_fees.add(fees);\n        IERC721(token).safeTransferFrom(from, to, tokenId, tokenData);\n        emit ERC721Collected(token, from, to, id, tokenId);\n    }\n\n   function cancelERC721(\n        address token,\n        string calldata tokenSymbol,\n        address payable from,\n        address to,\n        uint256 tokenId,\n        bytes calldata tokenData,\n        uint256 fees,\n        bytes32 secretHash\n    ) \n        external\n        onlyActivator()\n    {\n        bytes32 id = keccak256(abi.encode(token, tokenSymbol, from, to, tokenId, tokenData, fees, secretHash));\n        require(s_erc721Transfers[id] > 0, \"SafeTransfer: request not exist\");\n        uint256 tr = s_erc721Transfers[id];\n        require(uint64(tr) <= now, \"SafeTranfer: not expired\");\n        delete  s_erc721Transfers[id];\n        from.transfer(fees);\n        emit ERC721Retrieved(token, from, to, id, tokenId);\n    }\n\n    // ----------------------- Hidden ETH / ERC-20 / ERC-721 -----------------------\n\n    function hiddenDeposit(bytes32 id1) \n        payable external\n    {\n        require(msg.value > 0, \"SafeTransfer: no value\");\n        bytes32 id = keccak256(abi.encode(msg.sender, msg.value, id1));\n        require(s_htransfers[id] == 0, \"SafeTransfer: request exist\"); \n        s_htransfers[id] = 0xffffffffffffffff;\n        emit HDeposited(msg.sender, msg.value, id1);\n    }\n\n    function hiddenTimedDeposit(\n        bytes32 id1,\n        uint64 availableAt,\n        uint64 expiresAt,\n        uint128 depositFees\n    ) \n        payable external\n    {\n        require(msg.value > 0, \"SafeTransfer: no value\");\n        bytes32 id = keccak256(abi.encode(msg.sender, msg.value, id1));\n        require(s_htransfers[id] == 0, \"SafeTransfer: request exist\");\n        require(expiresAt > now, \"SafeTransfer: already expired\"); \n        s_htransfers[id] = uint256(expiresAt) + (uint256(availableAt) << 64) + (uint256(depositFees) << 128);\n        emit HTimedDeposited(msg.sender, msg.value, id1, availableAt, expiresAt, depositFees);\n    }\n\n    function hiddenRetrieve(\n        bytes32 id1,\n        uint256 value\n    )   \n        external \n    {\n        bytes32 id = keccak256(abi.encode(msg.sender, value, id1));\n        require(s_htransfers[id]  > 0, \"SafeTransfer: request not exist\");\n        delete s_htransfers[id];\n        msg.sender.transfer(value);\n        emit HRetrieved(msg.sender, id1, value);\n    }\n\n    function hiddenCollect(\n        address from,\n        address payable to,\n        uint256 value,\n        uint256 fees,\n        bytes32 secretHash,\n        bytes calldata secret,\n        uint8 v,\n        bytes32 r,\n        bytes32 s\n    ) \n        external\n        onlyActivator()\n    {\n        bytes32 id1 = keccak256(abi.encode(HIDDEN_COLLECT_TYPEHASH, from, to, value, fees, secretHash));\n        require(ecrecover(keccak256(abi.encodePacked(\"\\x19\\x01\", DOMAIN_SEPARATOR, id1)), v, r, s) == from, \"SafeTransfer: wrong signature\");\n        bytes32 id = keccak256(abi.encode(from, value.add(fees), id1));\n        uint256 tr = s_htransfers[id];\n        require(tr > 0, \"SafeTransfer: request not exist\");\n        require(uint64(tr) > now, \"SafeTranfer: expired\");\n        require(uint64(tr>>64) <= now, \"SafeTranfer: not available yet\");\n        require(keccak256(secret) == secretHash, \"SafeTransfer: wrong secret\");\n        delete s_htransfers[id];\n        s_fees = s_fees.add(fees);\n        to.transfer(value);\n        emit HCollected(from, to, id1, value);\n    }\n\n    function hiddenCollectERC20(\n        address from,\n        address to,\n        address token,\n        string memory tokenSymbol,\n        uint256 value,\n        uint256 fees,\n        bytes32 secretHash,\n        bytes calldata secret,\n        uint8 v,\n        bytes32 r,\n        bytes32 s\n    ) \n        external\n        onlyActivator()\n    {\n        TokenInfo memory tinfo;\n        tinfo.id1 = keccak256(abi.encode(HIDDEN_ERC20_COLLECT_TYPEHASH, from, to, token, tokenSymbol, value, fees, secretHash));\n        require(ecrecover(keccak256(abi.encodePacked(\"\\x19\\x01\", DOMAIN_SEPARATOR, tinfo.id1)), v, r, s) == from, \"SafeTransfer: wrong signature\");\n        tinfo.id = keccak256(abi.encode(from, value.add(fees), tinfo.id1));\n        uint256 tr = s_htransfers[tinfo.id];\n        require(tr > 0, \"SafeTransfer: request not exist\");\n        require(uint64(tr) > now, \"SafeTranfer: expired\");\n        require(uint64(tr>>64) <= now, \"SafeTranfer: not available yet\");\n        require(keccak256(secret) == secretHash, \"SafeTransfer: wrong secret\");\n        delete s_htransfers[tinfo.id];\n        s_fees = s_fees.add(fees);\n        IERC20(token).safeTransferFrom(from, to, value);\n        emit HERC20Collected(token, from, to, tinfo.id1, value);\n    }\n\n    function hiddenCollectERC721(\n        address from,\n        address to,\n        address token,\n        string memory tokenSymbol,\n        uint256 tokenId,\n        bytes memory tokenData,\n        uint256 fees,\n        bytes32 secretHash,\n        bytes calldata secret,\n        uint8 v,\n        bytes32 r,\n        bytes32 s\n    ) \n        external\n        onlyActivator()\n    {\n        TokenInfo memory tinfo;\n        tinfo.id1 = keccak256(abi.encode(HIDDEN_ERC721_COLLECT_TYPEHASH, from, to, token, tokenSymbol, tokenId, tokenData, fees, secretHash));\n        require(ecrecover(keccak256(abi.encodePacked(\"\\x19\\x01\", DOMAIN_SEPARATOR, tinfo.id1)), v, r, s) == from, \"SafeTransfer: wrong signature\");\n        tinfo.id = keccak256(abi.encode(from, fees, tinfo.id1));\n        require(s_htransfers[tinfo.id] > 0, \"SafeTransfer: request not exist\");\n        require(uint64(s_htransfers[tinfo.id]) > now, \"SafeTranfer: expired\");\n        require(uint64(s_htransfers[tinfo.id]>>64) <= now, \"SafeTranfer: not available yet\");\n        require(keccak256(secret) == secretHash, \"SafeTransfer: wrong secret\");\n        delete s_htransfers[tinfo.id];\n        s_fees = s_fees.add(fees);\n        IERC721(token).safeTransferFrom(from, to, tokenId, tokenData);\n        emit HERC721Collected(token, from, to, tinfo.id1, tokenId);\n    }\n\n   function hiddenCancel(\n        address payable from,\n        bytes32 id1,\n        uint256 value\n    ) \n        external\n        onlyActivator()\n    {\n        bytes32 id = keccak256(abi.encode(from, value, id1));\n        require(s_htransfers[id] > 0, \"SafeTransfer: request not exist\");\n        uint256 tr = s_htransfers[id];\n        require(uint64(tr) <= now, \"SafeTranfer: not expired\");\n        delete  s_htransfers[id];\n        from.transfer(value);\n        emit HRetrieved(from, id1, value);\n    }\n\n}\n",
  "sourcePath": "/Users/Tal/code/kirobo/ki-eth-token/contracts/SafeTransfer.sol",
  "compiler": {
    "name": "solc",
    "version": "0.6.12+commit.27d51765.Emscripten.clang"
  },
  "schemaVersion": "3.2.0",
  "updatedAt": "2020-10-27T19:45:21.567Z",
  "devdoc": {
    "kind": "dev",
    "methods": {
      "getRoleAdmin(bytes32)": {
        "details": "Returns the admin role that controls `role`. See {grantRole} and {revokeRole}. To change a role's admin, use {_setRoleAdmin}."
      },
      "getRoleMember(bytes32,uint256)": {
        "details": "Returns one of the accounts that have `role`. `index` must be a value between 0 and {getRoleMemberCount}, non-inclusive. Role bearers are not sorted in any particular way, and their ordering may change at any point. WARNING: When using {getRoleMember} and {getRoleMemberCount}, make sure you perform all queries on the same block. See the following https://forum.openzeppelin.com/t/iterating-over-elements-on-enumerableset-in-openzeppelin-contracts/2296[forum post] for more information."
      },
      "getRoleMemberCount(bytes32)": {
        "details": "Returns the number of accounts that have `role`. Can be used together with {getRoleMember} to enumerate all bearers of a role."
      },
      "grantRole(bytes32,address)": {
        "details": "Grants `role` to `account`. If `account` had not been already granted `role`, emits a {RoleGranted} event. Requirements: - the caller must have ``role``'s admin role."
      },
      "hasRole(bytes32,address)": {
        "details": "Returns `true` if `account` has been granted `role`."
      },
      "renounceRole(bytes32,address)": {
        "details": "Revokes `role` from the calling account. Roles are often managed via {grantRole} and {revokeRole}: this function's purpose is to provide a mechanism for accounts to lose their privileges if they are compromised (such as when a trusted device is misplaced). If the calling account had been granted `role`, emits a {RoleRevoked} event. Requirements: - the caller must be `account`."
      },
      "revokeRole(bytes32,address)": {
        "details": "Revokes `role` from `account`. If `account` had been granted `role`, emits a {RoleRevoked} event. Requirements: - the caller must have ``role``'s admin role."
      }
    },
    "version": 1
  },
  "userdoc": {
    "kind": "user",
    "methods": {},
    "version": 1
  }
}