{
  "contractName": "SafeTransfer",
  "abi": [
    {
      "inputs": [
        {
          "internalType": "address",
          "name": "activator",
          "type": "address"
        }
      ],
      "stateMutability": "nonpayable",
      "type": "constructor"
    },
    {
      "anonymous": false,
      "inputs": [
        {
          "indexed": true,
          "internalType": "address",
          "name": "from",
          "type": "address"
        },
        {
          "indexed": true,
          "internalType": "address",
          "name": "to",
          "type": "address"
        },
        {
          "indexed": true,
          "internalType": "bytes32",
          "name": "id",
          "type": "bytes32"
        },
        {
          "indexed": false,
          "internalType": "uint256",
          "name": "value",
          "type": "uint256"
        }
      ],
      "name": "Collected",
      "type": "event"
    },
    {
      "anonymous": false,
      "inputs": [
        {
          "indexed": true,
          "internalType": "address",
          "name": "from",
          "type": "address"
        },
        {
          "indexed": true,
          "internalType": "address",
          "name": "to",
          "type": "address"
        },
        {
          "indexed": false,
          "internalType": "uint256",
          "name": "value",
          "type": "uint256"
        },
        {
          "indexed": false,
          "internalType": "uint256",
          "name": "fees",
          "type": "uint256"
        },
        {
          "indexed": false,
          "internalType": "bytes32",
          "name": "secretHash",
          "type": "bytes32"
        }
      ],
      "name": "Deposited",
      "type": "event"
    },
    {
      "anonymous": false,
      "inputs": [
        {
          "indexed": true,
          "internalType": "address",
          "name": "token",
          "type": "address"
        },
        {
          "indexed": true,
          "internalType": "address",
          "name": "from",
          "type": "address"
        },
        {
          "indexed": true,
          "internalType": "address",
          "name": "to",
          "type": "address"
        },
        {
          "indexed": false,
          "internalType": "bytes32",
          "name": "id",
          "type": "bytes32"
        },
        {
          "indexed": false,
          "internalType": "uint256",
          "name": "value",
          "type": "uint256"
        }
      ],
      "name": "ERC20Collected",
      "type": "event"
    },
    {
      "anonymous": false,
      "inputs": [
        {
          "indexed": true,
          "internalType": "address",
          "name": "token",
          "type": "address"
        },
        {
          "indexed": true,
          "internalType": "address",
          "name": "from",
          "type": "address"
        },
        {
          "indexed": true,
          "internalType": "address",
          "name": "to",
          "type": "address"
        },
        {
          "indexed": false,
          "internalType": "uint256",
          "name": "value",
          "type": "uint256"
        },
        {
          "indexed": false,
          "internalType": "uint256",
          "name": "fees",
          "type": "uint256"
        },
        {
          "indexed": false,
          "internalType": "bytes32",
          "name": "secretHash",
          "type": "bytes32"
        }
      ],
      "name": "ERC20Deposited",
      "type": "event"
    },
    {
      "anonymous": false,
      "inputs": [
        {
          "indexed": true,
          "internalType": "address",
          "name": "token",
          "type": "address"
        },
        {
          "indexed": true,
          "internalType": "address",
          "name": "from",
          "type": "address"
        },
        {
          "indexed": true,
          "internalType": "address",
          "name": "to",
          "type": "address"
        },
        {
          "indexed": false,
          "internalType": "bytes32",
          "name": "id",
          "type": "bytes32"
        },
        {
          "indexed": false,
          "internalType": "uint256",
          "name": "value",
          "type": "uint256"
        }
      ],
      "name": "ERC20Retrieved",
      "type": "event"
    },
    {
      "anonymous": false,
      "inputs": [
        {
          "indexed": true,
          "internalType": "address",
          "name": "token",
          "type": "address"
        },
        {
          "indexed": true,
          "internalType": "address",
          "name": "from",
          "type": "address"
        },
        {
          "indexed": true,
          "internalType": "address",
          "name": "to",
          "type": "address"
        },
        {
          "indexed": false,
          "internalType": "uint256",
          "name": "value",
          "type": "uint256"
        },
        {
          "indexed": false,
          "internalType": "uint256",
          "name": "fees",
          "type": "uint256"
        },
        {
          "indexed": false,
          "internalType": "bytes32",
          "name": "secretHash",
          "type": "bytes32"
        },
        {
          "indexed": false,
          "internalType": "uint64",
          "name": "availableAt",
          "type": "uint64"
        },
        {
          "indexed": false,
          "internalType": "uint64",
          "name": "expiresAt",
          "type": "uint64"
        },
        {
          "indexed": false,
          "internalType": "uint128",
          "name": "autoRetrieveFees",
          "type": "uint128"
        }
      ],
      "name": "ERC20TimedDeposited",
      "type": "event"
    },
    {
      "anonymous": false,
      "inputs": [
        {
          "indexed": true,
          "internalType": "address",
          "name": "token",
          "type": "address"
        },
        {
          "indexed": true,
          "internalType": "address",
          "name": "from",
          "type": "address"
        },
        {
          "indexed": true,
          "internalType": "address",
          "name": "to",
          "type": "address"
        },
        {
          "indexed": false,
          "internalType": "bytes32",
          "name": "id",
          "type": "bytes32"
        },
        {
          "indexed": false,
          "internalType": "uint256",
          "name": "tokenId",
          "type": "uint256"
        }
      ],
      "name": "ERC721Collected",
      "type": "event"
    },
    {
      "anonymous": false,
      "inputs": [
        {
          "indexed": true,
          "internalType": "address",
          "name": "token",
          "type": "address"
        },
        {
          "indexed": true,
          "internalType": "address",
          "name": "from",
          "type": "address"
        },
        {
          "indexed": true,
          "internalType": "address",
          "name": "to",
          "type": "address"
        },
        {
          "indexed": false,
          "internalType": "uint256",
          "name": "tokenId",
          "type": "uint256"
        },
        {
          "indexed": false,
          "internalType": "uint256",
          "name": "fees",
          "type": "uint256"
        },
        {
          "indexed": false,
          "internalType": "bytes32",
          "name": "secretHash",
          "type": "bytes32"
        }
      ],
      "name": "ERC721Deposited",
      "type": "event"
    },
    {
      "anonymous": false,
      "inputs": [
        {
          "indexed": true,
          "internalType": "address",
          "name": "token",
          "type": "address"
        },
        {
          "indexed": true,
          "internalType": "address",
          "name": "from",
          "type": "address"
        },
        {
          "indexed": true,
          "internalType": "address",
          "name": "to",
          "type": "address"
        },
        {
          "indexed": false,
          "internalType": "bytes32",
          "name": "id",
          "type": "bytes32"
        },
        {
          "indexed": false,
          "internalType": "uint256",
          "name": "tokenId",
          "type": "uint256"
        }
      ],
      "name": "ERC721Retrieved",
      "type": "event"
    },
    {
      "anonymous": false,
      "inputs": [
        {
          "indexed": true,
          "internalType": "address",
          "name": "token",
          "type": "address"
        },
        {
          "indexed": true,
          "internalType": "address",
          "name": "from",
          "type": "address"
        },
        {
          "indexed": true,
          "internalType": "address",
          "name": "to",
          "type": "address"
        },
        {
          "indexed": false,
          "internalType": "uint256",
          "name": "tokenId",
          "type": "uint256"
        },
        {
          "indexed": false,
          "internalType": "uint256",
          "name": "fees",
          "type": "uint256"
        },
        {
          "indexed": false,
          "internalType": "bytes32",
          "name": "secretHash",
          "type": "bytes32"
        },
        {
          "indexed": false,
          "internalType": "uint64",
          "name": "availableAt",
          "type": "uint64"
        },
        {
          "indexed": false,
          "internalType": "uint64",
          "name": "expiresAt",
          "type": "uint64"
        },
        {
          "indexed": false,
          "internalType": "uint128",
          "name": "autoRetrieveFees",
          "type": "uint128"
        }
      ],
      "name": "ERC721TimedDeposited",
      "type": "event"
    },
    {
      "anonymous": false,
      "inputs": [
        {
          "indexed": true,
          "internalType": "address",
          "name": "from",
          "type": "address"
        },
        {
          "indexed": true,
          "internalType": "address",
          "name": "to",
          "type": "address"
        },
        {
          "indexed": true,
          "internalType": "bytes32",
          "name": "id1",
          "type": "bytes32"
        },
        {
          "indexed": false,
          "internalType": "uint256",
          "name": "value",
          "type": "uint256"
        }
      ],
      "name": "HCollected",
      "type": "event"
    },
    {
      "anonymous": false,
      "inputs": [
        {
          "indexed": true,
          "internalType": "address",
          "name": "from",
          "type": "address"
        },
        {
          "indexed": false,
          "internalType": "uint256",
          "name": "value",
          "type": "uint256"
        },
        {
          "indexed": true,
          "internalType": "bytes32",
          "name": "id1",
          "type": "bytes32"
        }
      ],
      "name": "HDeposited",
      "type": "event"
    },
    {
      "anonymous": false,
      "inputs": [
        {
          "indexed": true,
          "internalType": "address",
          "name": "token",
          "type": "address"
        },
        {
          "indexed": true,
          "internalType": "address",
          "name": "from",
          "type": "address"
        },
        {
          "indexed": true,
          "internalType": "address",
          "name": "to",
          "type": "address"
        },
        {
          "indexed": false,
          "internalType": "bytes32",
          "name": "id1",
          "type": "bytes32"
        },
        {
          "indexed": false,
          "internalType": "uint256",
          "name": "value",
          "type": "uint256"
        }
      ],
      "name": "HERC20Collected",
      "type": "event"
    },
    {
      "anonymous": false,
      "inputs": [
        {
          "indexed": true,
          "internalType": "address",
          "name": "token",
          "type": "address"
        },
        {
          "indexed": true,
          "internalType": "address",
          "name": "from",
          "type": "address"
        },
        {
          "indexed": true,
          "internalType": "address",
          "name": "to",
          "type": "address"
        },
        {
          "indexed": false,
          "internalType": "bytes32",
          "name": "id1",
          "type": "bytes32"
        },
        {
          "indexed": false,
          "internalType": "uint256",
          "name": "tokenId",
          "type": "uint256"
        }
      ],
      "name": "HERC721Collected",
      "type": "event"
    },
    {
      "anonymous": false,
      "inputs": [
        {
          "indexed": true,
          "internalType": "address",
          "name": "from",
          "type": "address"
        },
        {
          "indexed": true,
          "internalType": "bytes32",
          "name": "id1",
          "type": "bytes32"
        },
        {
          "indexed": false,
          "internalType": "uint256",
          "name": "value",
          "type": "uint256"
        }
      ],
      "name": "HRetrieved",
      "type": "event"
    },
    {
      "anonymous": false,
      "inputs": [
        {
          "indexed": true,
          "internalType": "address",
          "name": "from",
          "type": "address"
        },
        {
          "indexed": false,
          "internalType": "uint256",
          "name": "value",
          "type": "uint256"
        },
        {
          "indexed": true,
          "internalType": "bytes32",
          "name": "id1",
          "type": "bytes32"
        },
        {
          "indexed": false,
          "internalType": "uint64",
          "name": "availableAt",
          "type": "uint64"
        },
        {
          "indexed": false,
          "internalType": "uint64",
          "name": "expiresAt",
          "type": "uint64"
        },
        {
          "indexed": false,
          "internalType": "uint128",
          "name": "autoRetrieveFees",
          "type": "uint128"
        }
      ],
      "name": "HTimedDeposited",
      "type": "event"
    },
    {
      "anonymous": false,
      "inputs": [
        {
          "indexed": true,
          "internalType": "address",
          "name": "from",
          "type": "address"
        },
        {
          "indexed": true,
          "internalType": "address",
          "name": "to",
          "type": "address"
        },
        {
          "indexed": true,
          "internalType": "bytes32",
          "name": "id",
          "type": "bytes32"
        },
        {
          "indexed": false,
          "internalType": "uint256",
          "name": "value",
          "type": "uint256"
        }
      ],
      "name": "Retrieved",
      "type": "event"
    },
    {
      "anonymous": false,
      "inputs": [
        {
          "indexed": true,
          "internalType": "bytes32",
          "name": "role",
          "type": "bytes32"
        },
        {
          "indexed": true,
          "internalType": "bytes32",
          "name": "previousAdminRole",
          "type": "bytes32"
        },
        {
          "indexed": true,
          "internalType": "bytes32",
          "name": "newAdminRole",
          "type": "bytes32"
        }
      ],
      "name": "RoleAdminChanged",
      "type": "event"
    },
    {
      "anonymous": false,
      "inputs": [
        {
          "indexed": true,
          "internalType": "bytes32",
          "name": "role",
          "type": "bytes32"
        },
        {
          "indexed": true,
          "internalType": "address",
          "name": "account",
          "type": "address"
        },
        {
          "indexed": true,
          "internalType": "address",
          "name": "sender",
          "type": "address"
        }
      ],
      "name": "RoleGranted",
      "type": "event"
    },
    {
      "anonymous": false,
      "inputs": [
        {
          "indexed": true,
          "internalType": "bytes32",
          "name": "role",
          "type": "bytes32"
        },
        {
          "indexed": true,
          "internalType": "address",
          "name": "account",
          "type": "address"
        },
        {
          "indexed": true,
          "internalType": "address",
          "name": "sender",
          "type": "address"
        }
      ],
      "name": "RoleRevoked",
      "type": "event"
    },
    {
      "anonymous": false,
      "inputs": [
        {
          "indexed": true,
          "internalType": "address",
          "name": "from",
          "type": "address"
        },
        {
          "indexed": true,
          "internalType": "address",
          "name": "to",
          "type": "address"
        },
        {
          "indexed": false,
          "internalType": "uint256",
          "name": "value",
          "type": "uint256"
        },
        {
          "indexed": false,
          "internalType": "uint256",
          "name": "fees",
          "type": "uint256"
        },
        {
          "indexed": false,
          "internalType": "bytes32",
          "name": "secretHash",
          "type": "bytes32"
        },
        {
          "indexed": false,
          "internalType": "uint64",
          "name": "availableAt",
          "type": "uint64"
        },
        {
          "indexed": false,
          "internalType": "uint64",
          "name": "expiresAt",
          "type": "uint64"
        },
        {
          "indexed": false,
          "internalType": "uint128",
          "name": "autoRetrieveFees",
          "type": "uint128"
        }
      ],
      "name": "TimedDeposited",
      "type": "event"
    },
    {
      "inputs": [],
      "name": "ACTIVATOR_ROLE",
      "outputs": [
        {
          "internalType": "bytes32",
          "name": "",
          "type": "bytes32"
        }
      ],
      "stateMutability": "view",
      "type": "function"
    },
    {
      "inputs": [],
      "name": "CHAIN_ID",
      "outputs": [
        {
          "internalType": "uint256",
          "name": "",
          "type": "uint256"
        }
      ],
      "stateMutability": "view",
      "type": "function"
    },
    {
      "inputs": [],
      "name": "DEFAULT_ADMIN_ROLE",
      "outputs": [
        {
          "internalType": "bytes32",
          "name": "",
          "type": "bytes32"
        }
      ],
      "stateMutability": "view",
      "type": "function"
    },
    {
      "inputs": [],
      "name": "DOMAIN_SEPARATOR",
      "outputs": [
        {
          "internalType": "bytes32",
          "name": "",
          "type": "bytes32"
        }
      ],
      "stateMutability": "view",
      "type": "function"
    },
    {
      "inputs": [],
      "name": "HIDDEN_COLLECT_TYPEHASH",
      "outputs": [
        {
          "internalType": "bytes32",
          "name": "",
          "type": "bytes32"
        }
      ],
      "stateMutability": "view",
      "type": "function"
    },
    {
      "inputs": [],
      "name": "HIDDEN_ERC20_COLLECT_TYPEHASH",
      "outputs": [
        {
          "internalType": "bytes32",
          "name": "",
          "type": "bytes32"
        }
      ],
      "stateMutability": "view",
      "type": "function"
    },
    {
      "inputs": [],
      "name": "HIDDEN_ERC721_COLLECT_TYPEHASH",
      "outputs": [
        {
          "internalType": "bytes32",
          "name": "",
          "type": "bytes32"
        }
      ],
      "stateMutability": "view",
      "type": "function"
    },
    {
      "inputs": [],
      "name": "NAME",
      "outputs": [
        {
          "internalType": "string",
          "name": "",
          "type": "string"
        }
      ],
      "stateMutability": "view",
      "type": "function"
    },
    {
      "inputs": [],
      "name": "VERSION",
      "outputs": [
        {
          "internalType": "string",
          "name": "",
          "type": "string"
        }
      ],
      "stateMutability": "view",
      "type": "function"
    },
    {
      "inputs": [],
      "name": "VERSION_NUMBER",
      "outputs": [
        {
          "internalType": "uint8",
          "name": "",
          "type": "uint8"
        }
      ],
      "stateMutability": "view",
      "type": "function"
    },
    {
      "inputs": [
        {
          "internalType": "bytes32",
          "name": "role",
          "type": "bytes32"
        }
      ],
      "name": "getRoleAdmin",
      "outputs": [
        {
          "internalType": "bytes32",
          "name": "",
          "type": "bytes32"
        }
      ],
      "stateMutability": "view",
      "type": "function"
    },
    {
      "inputs": [
        {
          "internalType": "bytes32",
          "name": "role",
          "type": "bytes32"
        },
        {
          "internalType": "uint256",
          "name": "index",
          "type": "uint256"
        }
      ],
      "name": "getRoleMember",
      "outputs": [
        {
          "internalType": "address",
          "name": "",
          "type": "address"
        }
      ],
      "stateMutability": "view",
      "type": "function"
    },
    {
      "inputs": [
        {
          "internalType": "bytes32",
          "name": "role",
          "type": "bytes32"
        }
      ],
      "name": "getRoleMemberCount",
      "outputs": [
        {
          "internalType": "uint256",
          "name": "",
          "type": "uint256"
        }
      ],
      "stateMutability": "view",
      "type": "function"
    },
    {
      "inputs": [
        {
          "internalType": "bytes32",
          "name": "role",
          "type": "bytes32"
        },
        {
          "internalType": "address",
          "name": "account",
          "type": "address"
        }
      ],
      "name": "grantRole",
      "outputs": [],
      "stateMutability": "nonpayable",
      "type": "function"
    },
    {
      "inputs": [
        {
          "internalType": "bytes32",
          "name": "role",
          "type": "bytes32"
        },
        {
          "internalType": "address",
          "name": "account",
          "type": "address"
        }
      ],
      "name": "hasRole",
      "outputs": [
        {
          "internalType": "bool",
          "name": "",
          "type": "bool"
        }
      ],
      "stateMutability": "view",
      "type": "function"
    },
    {
      "inputs": [
        {
          "internalType": "bytes32",
          "name": "role",
          "type": "bytes32"
        },
        {
          "internalType": "address",
          "name": "account",
          "type": "address"
        }
      ],
      "name": "renounceRole",
      "outputs": [],
      "stateMutability": "nonpayable",
      "type": "function"
    },
    {
      "inputs": [
        {
          "internalType": "bytes32",
          "name": "role",
          "type": "bytes32"
        },
        {
          "internalType": "address",
          "name": "account",
          "type": "address"
        }
      ],
      "name": "revokeRole",
      "outputs": [],
      "stateMutability": "nonpayable",
      "type": "function"
    },
    {
      "stateMutability": "payable",
      "type": "receive"
    },
    {
      "inputs": [
        {
          "internalType": "address",
          "name": "token",
          "type": "address"
        },
        {
          "internalType": "address",
          "name": "wallet",
          "type": "address"
        },
        {
          "internalType": "uint256",
          "name": "value",
          "type": "uint256"
        }
      ],
      "name": "transferERC20",
      "outputs": [],
      "stateMutability": "nonpayable",
      "type": "function"
    },
    {
      "inputs": [
        {
          "internalType": "address",
          "name": "token",
          "type": "address"
        },
        {
          "internalType": "address",
          "name": "wallet",
          "type": "address"
        },
        {
          "internalType": "uint256",
          "name": "tokenId",
          "type": "uint256"
        },
        {
          "internalType": "bytes",
          "name": "data",
          "type": "bytes"
        }
      ],
      "name": "transferERC721",
      "outputs": [],
      "stateMutability": "nonpayable",
      "type": "function"
    },
    {
      "inputs": [
        {
          "internalType": "address payable",
          "name": "wallet",
          "type": "address"
        },
        {
          "internalType": "uint256",
          "name": "value",
          "type": "uint256"
        }
      ],
      "name": "transferFees",
      "outputs": [],
      "stateMutability": "nonpayable",
      "type": "function"
    },
    {
      "inputs": [],
      "name": "totalFees",
      "outputs": [
        {
          "internalType": "uint256",
          "name": "",
          "type": "uint256"
        }
      ],
      "stateMutability": "view",
      "type": "function"
    },
    {
      "inputs": [],
      "name": "uid",
      "outputs": [
        {
          "internalType": "bytes32",
          "name": "",
          "type": "bytes32"
        }
      ],
      "stateMutability": "view",
      "type": "function"
    },
    {
      "inputs": [
        {
          "internalType": "address payable",
          "name": "to",
          "type": "address"
        },
        {
          "internalType": "uint256",
          "name": "value",
          "type": "uint256"
        },
        {
          "internalType": "uint256",
          "name": "fees",
          "type": "uint256"
        },
        {
          "internalType": "bytes32",
          "name": "secretHash",
          "type": "bytes32"
        }
      ],
      "name": "deposit",
      "outputs": [],
      "stateMutability": "payable",
      "type": "function"
    },
    {
      "inputs": [
        {
          "internalType": "address payable",
          "name": "to",
          "type": "address"
        },
        {
          "internalType": "uint256",
          "name": "value",
          "type": "uint256"
        },
        {
          "internalType": "uint256",
          "name": "fees",
          "type": "uint256"
        },
        {
          "internalType": "bytes32",
          "name": "secretHash",
          "type": "bytes32"
        },
        {
          "internalType": "uint64",
          "name": "availableAt",
          "type": "uint64"
        },
        {
          "internalType": "uint64",
          "name": "expiresAt",
          "type": "uint64"
        },
        {
          "internalType": "uint128",
          "name": "autoRetrieveFees",
          "type": "uint128"
        }
      ],
      "name": "timedDeposit",
      "outputs": [],
      "stateMutability": "payable",
      "type": "function"
    },
    {
      "inputs": [
        {
          "internalType": "address payable",
          "name": "to",
          "type": "address"
        },
        {
          "internalType": "uint256",
          "name": "value",
          "type": "uint256"
        },
        {
          "internalType": "uint256",
          "name": "fees",
          "type": "uint256"
        },
        {
          "internalType": "bytes32",
          "name": "secretHash",
          "type": "bytes32"
        }
      ],
      "name": "retrieve",
      "outputs": [],
      "stateMutability": "nonpayable",
      "type": "function"
    },
    {
      "inputs": [
        {
          "internalType": "address",
          "name": "from",
          "type": "address"
        },
        {
          "internalType": "address payable",
          "name": "to",
          "type": "address"
        },
        {
          "internalType": "uint256",
          "name": "value",
          "type": "uint256"
        },
        {
          "internalType": "uint256",
          "name": "fees",
          "type": "uint256"
        },
        {
          "internalType": "bytes32",
          "name": "secretHash",
          "type": "bytes32"
        },
        {
          "internalType": "bytes",
          "name": "secret",
          "type": "bytes"
        }
      ],
      "name": "collect",
      "outputs": [],
      "stateMutability": "nonpayable",
      "type": "function"
    },
    {
      "inputs": [
        {
          "internalType": "address payable",
          "name": "from",
          "type": "address"
        },
        {
          "internalType": "address",
          "name": "to",
          "type": "address"
        },
        {
          "internalType": "uint256",
          "name": "value",
          "type": "uint256"
        },
        {
          "internalType": "uint256",
          "name": "fees",
          "type": "uint256"
        },
        {
          "internalType": "bytes32",
          "name": "secretHash",
          "type": "bytes32"
        }
      ],
      "name": "autoRetrieve",
      "outputs": [],
      "stateMutability": "nonpayable",
      "type": "function"
    },
    {
      "inputs": [
        {
          "internalType": "address",
          "name": "token",
          "type": "address"
        },
        {
          "internalType": "string",
          "name": "tokenSymbol",
          "type": "string"
        },
        {
          "internalType": "address",
          "name": "to",
          "type": "address"
        },
        {
          "internalType": "uint256",
          "name": "value",
          "type": "uint256"
        },
        {
          "internalType": "uint256",
          "name": "fees",
          "type": "uint256"
        },
        {
          "internalType": "bytes32",
          "name": "secretHash",
          "type": "bytes32"
        }
      ],
      "name": "depositERC20",
      "outputs": [],
      "stateMutability": "payable",
      "type": "function"
    },
    {
      "inputs": [
        {
          "internalType": "address",
          "name": "token",
          "type": "address"
        },
        {
          "internalType": "string",
          "name": "tokenSymbol",
          "type": "string"
        },
        {
          "internalType": "address",
          "name": "to",
          "type": "address"
        },
        {
          "internalType": "uint256",
          "name": "value",
          "type": "uint256"
        },
        {
          "internalType": "uint256",
          "name": "fees",
          "type": "uint256"
        },
        {
          "internalType": "bytes32",
          "name": "secretHash",
          "type": "bytes32"
        },
        {
          "internalType": "uint64",
          "name": "availableAt",
          "type": "uint64"
        },
        {
          "internalType": "uint64",
          "name": "expiresAt",
          "type": "uint64"
        },
        {
          "internalType": "uint128",
          "name": "autoRetrieveFees",
          "type": "uint128"
        }
      ],
      "name": "timedDepositERC20",
      "outputs": [],
      "stateMutability": "payable",
      "type": "function"
    },
    {
      "inputs": [
        {
          "internalType": "address",
          "name": "token",
          "type": "address"
        },
        {
          "internalType": "string",
          "name": "tokenSymbol",
          "type": "string"
        },
        {
          "internalType": "address",
          "name": "to",
          "type": "address"
        },
        {
          "internalType": "uint256",
          "name": "value",
          "type": "uint256"
        },
        {
          "internalType": "uint256",
          "name": "fees",
          "type": "uint256"
        },
        {
          "internalType": "bytes32",
          "name": "secretHash",
          "type": "bytes32"
        }
      ],
      "name": "retrieveERC20",
      "outputs": [],
      "stateMutability": "nonpayable",
      "type": "function"
    },
    {
      "inputs": [
        {
          "internalType": "address",
          "name": "token",
          "type": "address"
        },
        {
          "internalType": "string",
          "name": "tokenSymbol",
          "type": "string"
        },
        {
          "internalType": "address",
          "name": "from",
          "type": "address"
        },
        {
          "internalType": "address payable",
          "name": "to",
          "type": "address"
        },
        {
          "internalType": "uint256",
          "name": "value",
          "type": "uint256"
        },
        {
          "internalType": "uint256",
          "name": "fees",
          "type": "uint256"
        },
        {
          "internalType": "bytes32",
          "name": "secretHash",
          "type": "bytes32"
        },
        {
          "internalType": "bytes",
          "name": "secret",
          "type": "bytes"
        }
      ],
      "name": "collectERC20",
      "outputs": [],
      "stateMutability": "nonpayable",
      "type": "function"
    },
    {
      "inputs": [
        {
          "internalType": "address",
          "name": "token",
          "type": "address"
        },
        {
          "internalType": "string",
          "name": "tokenSymbol",
          "type": "string"
        },
        {
          "internalType": "address payable",
          "name": "from",
          "type": "address"
        },
        {
          "internalType": "address",
          "name": "to",
          "type": "address"
        },
        {
          "internalType": "uint256",
          "name": "value",
          "type": "uint256"
        },
        {
          "internalType": "uint256",
          "name": "fees",
          "type": "uint256"
        },
        {
          "internalType": "bytes32",
          "name": "secretHash",
          "type": "bytes32"
        }
      ],
      "name": "autoRetrieveERC20",
      "outputs": [],
      "stateMutability": "nonpayable",
      "type": "function"
    },
    {
      "inputs": [
        {
          "internalType": "address",
          "name": "token",
          "type": "address"
        },
        {
          "internalType": "string",
          "name": "tokenSymbol",
          "type": "string"
        },
        {
          "internalType": "address",
          "name": "to",
          "type": "address"
        },
        {
          "internalType": "uint256",
          "name": "tokenId",
          "type": "uint256"
        },
        {
          "internalType": "bytes",
          "name": "tokenData",
          "type": "bytes"
        },
        {
          "internalType": "uint256",
          "name": "fees",
          "type": "uint256"
        },
        {
          "internalType": "bytes32",
          "name": "secretHash",
          "type": "bytes32"
        }
      ],
      "name": "depositERC721",
      "outputs": [],
      "stateMutability": "payable",
      "type": "function"
    },
    {
      "inputs": [
        {
          "internalType": "address",
          "name": "token",
          "type": "address"
        },
        {
          "internalType": "string",
          "name": "tokenSymbol",
          "type": "string"
        },
        {
          "internalType": "address",
          "name": "to",
          "type": "address"
        },
        {
          "internalType": "uint256",
          "name": "tokenId",
          "type": "uint256"
        },
        {
          "internalType": "bytes",
          "name": "tokenData",
          "type": "bytes"
        },
        {
          "internalType": "uint256",
          "name": "fees",
          "type": "uint256"
        },
        {
          "internalType": "bytes32",
          "name": "secretHash",
          "type": "bytes32"
        },
        {
          "internalType": "uint64",
          "name": "availableAt",
          "type": "uint64"
        },
        {
          "internalType": "uint64",
          "name": "expiresAt",
          "type": "uint64"
        },
        {
          "internalType": "uint128",
          "name": "autoRetrieveFees",
          "type": "uint128"
        }
      ],
      "name": "timedDepositERC721",
      "outputs": [],
      "stateMutability": "payable",
      "type": "function"
    },
    {
      "inputs": [
        {
          "internalType": "address",
          "name": "token",
          "type": "address"
        },
        {
          "internalType": "string",
          "name": "tokenSymbol",
          "type": "string"
        },
        {
          "internalType": "address",
          "name": "to",
          "type": "address"
        },
        {
          "internalType": "uint256",
          "name": "tokenId",
          "type": "uint256"
        },
        {
          "internalType": "bytes",
          "name": "tokenData",
          "type": "bytes"
        },
        {
          "internalType": "uint256",
          "name": "fees",
          "type": "uint256"
        },
        {
          "internalType": "bytes32",
          "name": "secretHash",
          "type": "bytes32"
        }
      ],
      "name": "retrieveERC721",
      "outputs": [],
      "stateMutability": "nonpayable",
      "type": "function"
    },
    {
      "inputs": [
        {
          "internalType": "address",
          "name": "token",
          "type": "address"
        },
        {
          "internalType": "string",
          "name": "tokenSymbol",
          "type": "string"
        },
        {
          "internalType": "address",
          "name": "from",
          "type": "address"
        },
        {
          "internalType": "address payable",
          "name": "to",
          "type": "address"
        },
        {
          "internalType": "uint256",
          "name": "tokenId",
          "type": "uint256"
        },
        {
          "internalType": "bytes",
          "name": "tokenData",
          "type": "bytes"
        },
        {
          "internalType": "uint256",
          "name": "fees",
          "type": "uint256"
        },
        {
          "internalType": "bytes32",
          "name": "secretHash",
          "type": "bytes32"
        },
        {
          "internalType": "bytes",
          "name": "secret",
          "type": "bytes"
        }
      ],
      "name": "collectERC721",
      "outputs": [],
      "stateMutability": "nonpayable",
      "type": "function"
    },
    {
      "inputs": [
        {
          "internalType": "address",
          "name": "token",
          "type": "address"
        },
        {
          "internalType": "string",
          "name": "tokenSymbol",
          "type": "string"
        },
        {
          "internalType": "address payable",
          "name": "from",
          "type": "address"
        },
        {
          "internalType": "address",
          "name": "to",
          "type": "address"
        },
        {
          "internalType": "uint256",
          "name": "tokenId",
          "type": "uint256"
        },
        {
          "internalType": "bytes",
          "name": "tokenData",
          "type": "bytes"
        },
        {
          "internalType": "uint256",
          "name": "fees",
          "type": "uint256"
        },
        {
          "internalType": "bytes32",
          "name": "secretHash",
          "type": "bytes32"
        }
      ],
      "name": "autoRetrieveERC721",
      "outputs": [],
      "stateMutability": "nonpayable",
      "type": "function"
    },
    {
      "inputs": [
        {
          "internalType": "bytes32",
          "name": "id1",
          "type": "bytes32"
        }
      ],
      "name": "hiddenDeposit",
      "outputs": [],
      "stateMutability": "payable",
      "type": "function"
    },
    {
      "inputs": [
        {
          "internalType": "bytes32",
          "name": "id1",
          "type": "bytes32"
        },
        {
          "internalType": "uint64",
          "name": "availableAt",
          "type": "uint64"
        },
        {
          "internalType": "uint64",
          "name": "expiresAt",
          "type": "uint64"
        },
        {
          "internalType": "uint128",
          "name": "autoRetrieveFees",
          "type": "uint128"
        }
      ],
      "name": "hiddenTimedDeposit",
      "outputs": [],
      "stateMutability": "payable",
      "type": "function"
    },
    {
      "inputs": [
        {
          "internalType": "bytes32",
          "name": "id1",
          "type": "bytes32"
        },
        {
          "internalType": "uint256",
          "name": "value",
          "type": "uint256"
        }
      ],
      "name": "hiddenRetrieve",
      "outputs": [],
      "stateMutability": "nonpayable",
      "type": "function"
    },
    {
      "inputs": [
        {
          "internalType": "address",
          "name": "from",
          "type": "address"
        },
        {
          "internalType": "address payable",
          "name": "to",
          "type": "address"
        },
        {
          "internalType": "uint256",
          "name": "value",
          "type": "uint256"
        },
        {
          "internalType": "uint256",
          "name": "fees",
          "type": "uint256"
        },
        {
          "internalType": "bytes32",
          "name": "secretHash",
          "type": "bytes32"
        },
        {
          "internalType": "bytes",
          "name": "secret",
          "type": "bytes"
        },
        {
          "internalType": "uint8",
          "name": "v",
          "type": "uint8"
        },
        {
          "internalType": "bytes32",
          "name": "r",
          "type": "bytes32"
        },
        {
          "internalType": "bytes32",
          "name": "s",
          "type": "bytes32"
        }
      ],
      "name": "hiddenCollect",
      "outputs": [],
      "stateMutability": "nonpayable",
      "type": "function"
    },
    {
      "inputs": [
        {
          "internalType": "address",
          "name": "from",
          "type": "address"
        },
        {
          "internalType": "address",
          "name": "to",
          "type": "address"
        },
        {
          "internalType": "address",
          "name": "token",
          "type": "address"
        },
        {
          "internalType": "string",
          "name": "tokenSymbol",
          "type": "string"
        },
        {
          "internalType": "uint256",
          "name": "value",
          "type": "uint256"
        },
        {
          "internalType": "uint256",
          "name": "fees",
          "type": "uint256"
        },
        {
          "internalType": "bytes32",
          "name": "secretHash",
          "type": "bytes32"
        },
        {
          "internalType": "bytes",
          "name": "secret",
          "type": "bytes"
        },
        {
          "internalType": "uint8",
          "name": "v",
          "type": "uint8"
        },
        {
          "internalType": "bytes32",
          "name": "r",
          "type": "bytes32"
        },
        {
          "internalType": "bytes32",
          "name": "s",
          "type": "bytes32"
        }
      ],
      "name": "hiddenCollectERC20",
      "outputs": [],
      "stateMutability": "nonpayable",
      "type": "function"
    },
    {
      "inputs": [
        {
          "internalType": "address",
          "name": "from",
          "type": "address"
        },
        {
          "internalType": "address",
          "name": "to",
          "type": "address"
        },
        {
          "internalType": "address",
          "name": "token",
          "type": "address"
        },
        {
          "internalType": "string",
          "name": "tokenSymbol",
          "type": "string"
        },
        {
          "internalType": "uint256",
          "name": "tokenId",
          "type": "uint256"
        },
        {
          "internalType": "bytes",
          "name": "tokenData",
          "type": "bytes"
        },
        {
          "internalType": "uint256",
          "name": "fees",
          "type": "uint256"
        },
        {
          "internalType": "bytes32",
          "name": "secretHash",
          "type": "bytes32"
        },
        {
          "internalType": "bytes",
          "name": "secret",
          "type": "bytes"
        },
        {
          "internalType": "uint8",
          "name": "v",
          "type": "uint8"
        },
        {
          "internalType": "bytes32",
          "name": "r",
          "type": "bytes32"
        },
        {
          "internalType": "bytes32",
          "name": "s",
          "type": "bytes32"
        }
      ],
      "name": "hiddenCollectERC721",
      "outputs": [],
      "stateMutability": "nonpayable",
      "type": "function"
    },
    {
      "inputs": [
        {
          "internalType": "address payable",
          "name": "from",
          "type": "address"
        },
        {
          "internalType": "bytes32",
          "name": "id1",
          "type": "bytes32"
        },
        {
          "internalType": "uint256",
          "name": "value",
          "type": "uint256"
        }
      ],
      "name": "hiddenAutoRetrieve",
      "outputs": [],
      "stateMutability": "nonpayable",
      "type": "function"
    }
  ],
  "bytecode": "0x60806040523480156200001157600080fd5b506040516200630138038062006301833981810160405260208110156200003757600080fd5b5051620000466000336200019f565b62000061600080516020620062e1833981519152336200019f565b6200007c600080516020620062e1833981519152826200019f565b50466002819055600160b01b600160f01b0360001943014060b01b1630908117600160f81b176003819055604080518082018252601481527f4b69726f626f2053616665205472616e73666572000000000000000000000000602091820152815180830183526001808252603160f81b9183019190915282517fd87cd6ef79d4e2b95e15ce8abf732db51ec771f1ca2edccf22a46c729ac56472818401527fa0e7867c78e9ee05b975f886625b0f857545d287fd4041f342f5f7398f7cf444818501527fc89efdaa54c0f20c7adf612882df0950f5a951637e0307cdcb4c672f298b8bc66060820152608081019690965260a086019490945260c0858101939093528151808603909301835260e0909401905280519201919091209055620002b3565b620001ab8282620001af565b5050565b600082815260208181526040909120620001d49183906200567e62000228821b17901c565b15620001ab57620001e462000248565b6001600160a01b0316816001600160a01b0316837f2f8788117e7eff1d82e926ec794901d17c78024a50270940304540a733656f0d60405160405180910390a45050565b60006200023f836001600160a01b0384166200024c565b90505b92915050565b3390565b60006200025a83836200029b565b620002925750815460018181018455600084815260208082209093018490558454848252828601909352604090209190915562000242565b50600062000242565b60009081526001919091016020526040902054151590565b61601e80620002c36000396000f3fe6080604052600436106102eb5760003560e01c80639010d07c11610184578063c859ed44116100d6578063d87bc9ac1161008a578063e49a12dc11610064578063e49a12dc14611684578063f514ce36146116bd578063ffa1ad74146116d257610329565b8063d87bc9ac146113e3578063dad027631461148a578063e3fc5a8c1461154157610329565b8063cf91c573116100bb578063cf91c57314611199578063d40d6ed5146111e0578063d547741f146113aa57610329565b8063c859ed441461112a578063ca15c8731461116f57610329565b8063a424e0a911610138578063bb9b02e311610112578063bb9b02e314611005578063c2d30bab146110ab578063c4193b39146110db57610329565b8063a424e0a914610f08578063aa97040b14610f40578063b1538f9214610ff057610329565b80639db5dbe4116101695780639db5dbe414610e26578063a217fddf14610e69578063a3f4df7e14610e7e57610329565b80639010d07c14610d8d57806391d1485414610dd957610329565b806354d254011161023d578063790d98df116101f157806385e1f4d0116101cb57806385e1f4d014610bcb5780638776ab4f14610be05780638e69804b14610c7957610329565b8063790d98df146109535780638025e30314610aaa57806384f53f0914610ad557610329565b806363eed7d01161022257806363eed7d0146107b257806371a46d5f1461084d57806374be317f1461086a57610329565b806354d25401146106495780635ab29dd11461075057610329565b80632b78bd531161029f5780633644e515116102795780633644e515146104fa57806336568abe1461050f5780634606e2141461054857610329565b80632b78bd53146104975780632f2ff15d146104ac578063359f54e4146104e557610329565b80630bf7832b116102d05780630bf7832b1461039457806313114a9d14610458578063248a9ca31461046d57610329565b8063017589d71461032e57806308740a3b1461036d57610329565b366103295760405162461bcd60e51b815260040180806020018281038252602a815260200180615f90602a913960400191505060405180910390fd5b005b600080fd5b34801561033a57600080fd5b506103276004803603606081101561035157600080fd5b506001600160a01b0381351690602081013590604001356116e7565b34801561037957600080fd5b506103826118d7565b60408051918252519081900360200190f35b61032760048036036101208110156103ab57600080fd5b6001600160a01b038235169190810190604081016020820135600160201b8111156103d557600080fd5b8201836020820111156103e757600080fd5b803590602001918460018302840111600160201b8311171561040857600080fd5b919350915080356001600160a01b031690602081013590604081013590606081013590608081013567ffffffffffffffff9081169160a08101359091169060c001356001600160801b03166118e9565b34801561046457600080fd5b50610382611c00565b34801561047957600080fd5b506103826004803603602081101561049057600080fd5b5035611c06565b3480156104a357600080fd5b50610382611c1b565b3480156104b857600080fd5b50610327600480360360408110156104cf57600080fd5b50803590602001356001600160a01b0316611c3f565b3480156104f157600080fd5b50610382611cab565b34801561050657600080fd5b50610382611ccf565b34801561051b57600080fd5b506103276004803603604081101561053257600080fd5b50803590602001356001600160a01b0316611cd5565b34801561055457600080fd5b50610327600480360361010081101561056c57600080fd5b6001600160a01b038235169190810190604081016020820135600160201b81111561059657600080fd5b8201836020820111156105a857600080fd5b803590602001918460018302840111600160201b831117156105c957600080fd5b919390926001600160a01b0383358116936020810135909116926040820135929091608081019060600135600160201b81111561060557600080fd5b82018360208201111561061757600080fd5b803590602001918460018302840111600160201b8311171561063857600080fd5b919350915080359060200135611d36565b34801561065557600080fd5b50610327600480360361010081101561066d57600080fd5b6001600160a01b038235169190810190604081016020820135600160201b81111561069757600080fd5b8201836020820111156106a957600080fd5b803590602001918460018302840111600160201b831117156106ca57600080fd5b919390926001600160a01b038335811693602081013590911692604082013592606083013592608081013592919060c081019060a00135600160201b81111561071257600080fd5b82018360208201111561072457600080fd5b803590602001918460018302840111600160201b8311171561074557600080fd5b509092509050611fe1565b610327600480360360e081101561076657600080fd5b5080356001600160a01b031690602081013590604081013590606081013590608081013567ffffffffffffffff9081169160a08101359091169060c001356001600160801b03166122fe565b3480156107be57600080fd5b50610327600480360360808110156107d557600080fd5b6001600160a01b03823581169260208101359091169160408201359190810190608081016060820135600160201b81111561080f57600080fd5b82018360208201111561082157600080fd5b803590602001918460018302840111600160201b8311171561084257600080fd5b5090925090506125b6565b6103276004803603602081101561086357600080fd5b50356126c8565b610327600480360360e081101561088057600080fd5b6001600160a01b038235169190810190604081016020820135600160201b8111156108aa57600080fd5b8201836020820111156108bc57600080fd5b803590602001918460018302840111600160201b831117156108dd57600080fd5b919390926001600160a01b03833516926020810135929190606081019060400135600160201b81111561090f57600080fd5b82018360208201111561092157600080fd5b803590602001918460018302840111600160201b8311171561094257600080fd5b9193509150803590602001356127b2565b34801561095f57600080fd5b50610327600480360361012081101561097757600080fd5b6001600160a01b038235169190810190604081016020820135600160201b8111156109a157600080fd5b8201836020820111156109b357600080fd5b803590602001918460018302840111600160201b831117156109d457600080fd5b919390926001600160a01b0383358116936020810135909116926040820135929091608081019060600135600160201b811115610a1057600080fd5b820183602082011115610a2257600080fd5b803590602001918460018302840111600160201b83111715610a4357600080fd5b919390928235926020810135929190606081019060400135600160201b811115610a6c57600080fd5b820183602082011115610a7e57600080fd5b803590602001918460018302840111600160201b83111715610a9f57600080fd5b509092509050612a51565b348015610ab657600080fd5b50610abf612e3e565b6040805160ff9092168252519081900360200190f35b348015610ae157600080fd5b50610327600480360360e0811015610af857600080fd5b6001600160a01b038235169190810190604081016020820135600160201b811115610b2257600080fd5b820183602082011115610b3457600080fd5b803590602001918460018302840111600160201b83111715610b5557600080fd5b919390926001600160a01b03833516926020810135929190606081019060400135600160201b811115610b8757600080fd5b820183602082011115610b9957600080fd5b803590602001918460018302840111600160201b83111715610bba57600080fd5b919350915080359060200135612e43565b348015610bd757600080fd5b50610382612ffb565b610327600480360360c0811015610bf657600080fd5b6001600160a01b038235169190810190604081016020820135600160201b811115610c2057600080fd5b820183602082011115610c3257600080fd5b803590602001918460018302840111600160201b83111715610c5357600080fd5b91935091506001600160a01b038135169060208101359060408101359060600135613001565b6103276004803603610140811015610c9057600080fd5b6001600160a01b038235169190810190604081016020820135600160201b811115610cba57600080fd5b820183602082011115610ccc57600080fd5b803590602001918460018302840111600160201b83111715610ced57600080fd5b919390926001600160a01b03833516926020810135929190606081019060400135600160201b811115610d1f57600080fd5b820183602082011115610d3157600080fd5b803590602001918460018302840111600160201b83111715610d5257600080fd5b9193509150803590602081013590604081013567ffffffffffffffff90811691606081013590911690608001356001600160801b031661321d565b348015610d9957600080fd5b50610dbd60048036036040811015610db057600080fd5b50803590602001356135d4565b604080516001600160a01b039092168252519081900360200190f35b348015610de557600080fd5b50610e1260048036036040811015610dfc57600080fd5b50803590602001356001600160a01b03166135f5565b604080519115158252519081900360200190f35b348015610e3257600080fd5b5061032760048036036060811015610e4957600080fd5b506001600160a01b0381358116916020810135909116906040013561360d565b348015610e7557600080fd5b5061038261367d565b348015610e8a57600080fd5b50610e93613682565b6040805160208082528351818301528351919283929083019185019080838360005b83811015610ecd578181015183820152602001610eb5565b50505050905090810190601f168015610efa5780820380516001836020036101000a031916815260200191505b509250505060405180910390f35b61032760048036036080811015610f1e57600080fd5b506001600160a01b0381351690602081013590604081013590606001356136bb565b348015610f4c57600080fd5b50610327600480360360e0811015610f6357600080fd5b6001600160a01b038235169190810190604081016020820135600160201b811115610f8d57600080fd5b820183602082011115610f9f57600080fd5b803590602001918460018302840111600160201b83111715610fc057600080fd5b91935091506001600160a01b03813581169160208101359091169060408101359060608101359060800135613890565b348015610ffc57600080fd5b50610382613b0d565b34801561101157600080fd5b50610327600480360360c081101561102857600080fd5b6001600160a01b038235169190810190604081016020820135600160201b81111561105257600080fd5b82018360208201111561106457600080fd5b803590602001918460018302840111600160201b8311171561108557600080fd5b91935091506001600160a01b038135169060208101359060408101359060600135613b31565b3480156110b757600080fd5b50610327600480360360408110156110ce57600080fd5b5080359060200135613cbb565b3480156110e757600080fd5b50610327600480360360a08110156110fe57600080fd5b506001600160a01b03813581169160208101359091169060408101359060608101359060800135613db6565b34801561113657600080fd5b506103276004803603608081101561114d57600080fd5b506001600160a01b038135169060208101359060408101359060600135613fcd565b34801561117b57600080fd5b506103826004803603602081101561119257600080fd5b50356140fd565b610327600480360360808110156111af57600080fd5b50803590602081013567ffffffffffffffff90811691604081013590911690606001356001600160801b0316614114565b3480156111ec57600080fd5b50610327600480360361018081101561120457600080fd5b6001600160a01b0382358116926020810135821692604082013590921691810190608081016060820135600160201b81111561123f57600080fd5b82018360208201111561125157600080fd5b803590602001918460018302840111600160201b8311171561127257600080fd5b91908080601f01602080910402602001604051908101604052809392919081815260200183838082843760009201919091525092958435959094909350604081019250602001359050600160201b8111156112cc57600080fd5b8201836020820111156112de57600080fd5b803590602001918460018302840111600160201b831117156112ff57600080fd5b91908080601f0160208091040260200160405190810160405280939291908181526020018383808284376000920191909152509295843595602086013595919450925060608101915060400135600160201b81111561135d57600080fd5b82018360208201111561136f57600080fd5b803590602001918460018302840111600160201b8311171561139057600080fd5b919350915060ff813516906020810135906040013561430e565b3480156113b657600080fd5b50610327600480360360408110156113cd57600080fd5b50803590602001356001600160a01b031661494b565b3480156113ef57600080fd5b50610327600480360360c081101561140657600080fd5b6001600160a01b0382358116926020810135909116916040820135916060810135916080820135919081019060c0810160a0820135600160201b81111561144c57600080fd5b82018360208201111561145e57600080fd5b803590602001918460018302840111600160201b8311171561147f57600080fd5b5090925090506149a4565b34801561149657600080fd5b5061032760048036036101208110156114ae57600080fd5b6001600160a01b0382358116926020810135909116916040820135916060810135916080820135919081019060c0810160a0820135600160201b8111156114f457600080fd5b82018360208201111561150657600080fd5b803590602001918460018302840111600160201b8311171561152757600080fd5b919350915060ff8135169060208101359060400135614c6f565b34801561154d57600080fd5b50610327600480360361016081101561156557600080fd5b6001600160a01b0382358116926020810135821692604082013590921691810190608081016060820135600160201b8111156115a057600080fd5b8201836020820111156115b257600080fd5b803590602001918460018302840111600160201b831117156115d357600080fd5b91908080601f0160208091040260200160405190810160405280939291908181526020018383808284376000920191909152509295843595602086013595604081013595509193509150608081019060600135600160201b81111561163757600080fd5b82018360208201111561164957600080fd5b803590602001918460018302840111600160201b8311171561166a57600080fd5b919350915060ff81351690602081013590604001356150b5565b34801561169057600080fd5b50610327600480360360408110156116a757600080fd5b506001600160a01b0381351690602001356155a2565b3480156116c957600080fd5b5061038261563f565b3480156116de57600080fd5b50610e93615645565b6116ff600080516020615ec4833981519152336135f5565b61173e576040805162461bcd60e51b815260206004820152601e6024820152600080516020615ea4833981519152604482015290519081900360640190fd5b604080516001600160a01b038516602080830191909152818301849052606080830186905283518084039091018152608090920183528151918101919091206000818152600890925291902054806117cb576040805162461bcd60e51b815260206004820152601f6024820152600080516020615e2c833981519152604482015290519081900360640190fd5b428167ffffffffffffffff16111561182a576040805162461bcd60e51b815260206004820152601860248201527f536166655472616e6665723a206e6f7420657870697265640000000000000000604482015290519081900360640190fd5b600082815260086020526040812081905560048054608084901c908101909155611855908590615693565b6040519091506001600160a01b0387169082156108fc029083906000818181858888f1935050505015801561188e573d6000803e3d6000fd5b5060408051828152905186916001600160a01b038916917f315de080c411b2c8236296058cbea4d5dddebfb39339055d552810a07fbc92769181900360200190a3505050505050565b600080516020615ec483398151915281565b8434146119275760405162461bcd60e51b8152600401808060200182810382526027815260200180615ee46027913960400191505060405180910390fd5b806001600160801b031685101561196f5760405162461bcd60e51b8152600401808060200182810382526029815260200180615e7b6029913960400191505060405180910390fd5b6001600160a01b0387163314156119cd576040805162461bcd60e51b815260206004820152601f60248201527f536166655472616e736665723a2073656e6465723d3d726563697069656e7400604482015290519081900360640190fd5b428267ffffffffffffffff1611611a2b576040805162461bcd60e51b815260206004820152601d60248201527f536166655472616e736665723a20616c72656164792065787069726564000000604482015290519081900360640190fd5b60008a8a8a338b8b8b8b60405160200180896001600160a01b0316815260200180602001876001600160a01b03168152602001866001600160a01b031681526020018581526020018481526020018381526020018281038252898982818152602001925080828437600081840152601f19601f82011690508083019250505099505050505050505050506040516020818303038152906040528051906020012090506006600082815260200190815260200160002054600014611b35576040805162461bcd60e51b815260206004820152601b60248201527f536166655472616e736665723a20726571756573742065786973740000000000604482015290519081900360640190fd5b600081815260066020908152604091829020608085811b6fffffffffffffffffffffffffffffffff191688851b6fffffffffffffffff00000000000000001667ffffffffffffffff8981169182019290920190935584518c81529384018b90528385018a9052881660608401528201526001600160801b03841660a082015290516001600160a01b038a8116923392918f16917f596f738dc354130d81c0f6e14514648e2a413c234ab6eb5ad5ac09acce3a11e69160c0908290030190a45050505050505050505050565b60045490565b60009081526020819052604090206002015490565b7f0506afef36f3613836f98ef019cb76a3e6112be8f9dc8d8fa77275d64f41823481565b600082815260208190526040902060020154611c6290611c5d6156d5565b6135f5565b611c9d5760405162461bcd60e51b815260040180806020018281038252602f815260200180615e4c602f913960400191505060405180910390fd5b611ca782826156d9565b5050565b7f9e6214229b9fba1927010d30b22a3a5d9fd5e856bb29f056416ff2ad52e8de4481565b60015481565b611cdd6156d5565b6001600160a01b0316816001600160a01b031614611d2c5760405162461bcd60e51b815260040180806020018281038252602f815260200180615fba602f913960400191505060405180910390fd5b611ca78282615742565b611d4e600080516020615ec4833981519152336135f5565b611d8d576040805162461bcd60e51b815260206004820152601e6024820152600080516020615ea4833981519152604482015290519081900360640190fd5b60008a8a8a8a8a8a8a8a8a8a604051602001808b6001600160a01b0316815260200180602001896001600160a01b03168152602001886001600160a01b031681526020018781526020018060200185815260200184815260200183810383528c8c82818152602001925080828437600083820152601f01601f191690910184810383528781526020019050878780828437600081840152601f19601f8201169050808301925050509c5050505050505050505050505060405160208183030381529060405280519060200120905060006007600083815260200190815260200160002054905060008111611eb6576040805162461bcd60e51b815260206004820152601f6024820152600080516020615e2c833981519152604482015290519081900360640190fd5b428167ffffffffffffffff161115611f15576040805162461bcd60e51b815260206004820152601860248201527f536166655472616e6665723a206e6f7420657870697265640000000000000000604482015290519081900360640190fd5b60008281526007602052604081205560048054608083901c9081019091556001600160a01b038a16906108fc90611f4d908790615693565b6040518115909202916000818181858888f19350505050158015611f75573d6000803e3d6000fd5b50876001600160a01b0316896001600160a01b03168d6001600160a01b03167f888085db651d2c8dd055a62e48cd23d308502ebd6b714c6f4e9368bf27bfa9f8858b604051808381526020018281526020019250505060405180910390a4505050505050505050505050565b611ff9600080516020615ec4833981519152336135f5565b612038576040805162461bcd60e51b815260206004820152601e6024820152600080516020615ea4833981519152604482015290519081900360640190fd5b60008a8a8a8a8a8a8a8a60405160200180896001600160a01b0316815260200180602001876001600160a01b03168152602001866001600160a01b031681526020018581526020018481526020018381526020018281038252898982818152602001925080828437600081840152601f19601f820116905080830192505050995050505050505050505060405160208183030381529060405280519060200120905060006006600083815260200190815260200160002054905060008111612135576040805162461bcd60e51b815260206004820152601f6024820152600080516020615e2c833981519152604482015290519081900360640190fd5b428167ffffffffffffffff161161218a576040805162461bcd60e51b815260206004820152601460248201527314d85999551c985b99995c8e88195e1c1a5c995960621b604482015290519081900360640190fd5b42604082901c67ffffffffffffffff1611156121ed576040805162461bcd60e51b815260206004820152601e60248201527f536166655472616e6665723a206e6f7420617661696c61626c65207965740000604482015290519081900360640190fd5b84848460405180838380828437808301925050509250505060405180910390201461225f576040805162461bcd60e51b815260206004820152601a60248201527f536166655472616e736665723a2077726f6e6720736563726574000000000000604482015290519081900360640190fd5b60008281526006602052604081205560045461227b90876157ab565b6004556122936001600160a01b038d168a8a8a615805565b876001600160a01b0316896001600160a01b03168d6001600160a01b03167f28bb8be2aa24f2c6aec31cf8b9095a77d7a8d9f5e7d984c04bddb7c67a8d74c2858b604051808381526020018281526020019250505060405180910390a4505050505050505050505050565b61230886866157ab565b341461235b576040805162461bcd60e51b815260206004820152601c60248201527f536166655472616e736665723a2076616c7565206d69736d6174636800000000604482015290519081900360640190fd5b806001600160801b03168510156123a35760405162461bcd60e51b8152600401808060200182810382526029815260200180615e7b6029913960400191505060405180910390fd5b6001600160a01b038716331415612401576040805162461bcd60e51b815260206004820152601f60248201527f536166655472616e736665723a2073656e6465723d3d726563697069656e7400604482015290519081900360640190fd5b428267ffffffffffffffff161161245f576040805162461bcd60e51b815260206004820152601d60248201527f536166655472616e736665723a20616c72656164792065787069726564000000604482015290519081900360640190fd5b60408051336020808301919091526001600160a01b038a1682840152606082018990526080820188905260a08083018890528351808403909101815260c0909201835281519181019190912060008181526005909252919020541561250b576040805162461bcd60e51b815260206004820152601b60248201527f536166655472616e736665723a20726571756573742065786973740000000000604482015290519081900360640190fd5b600081815260056020908152604091829020608085811b6fffffffffffffffffffffffffffffffff191667ffffffffffffffff88811691820190935584518c81529384018b90528385018a905291881660608401528201526001600160801b03841660a082015290516001600160a01b038a169133917f0c068508757304c51e9264434c8c2fb4147946522d58b831889cd9c7240a55769160c0908290030190a35050505050505050565b6125ce600080516020615ec4833981519152336135f5565b61260d576040805162461bcd60e51b815260206004820152601e6024820152600080516020615ea4833981519152604482015290519081900360640190fd5b846001600160a01b031663b88d4fde30868686866040518663ffffffff1660e01b815260040180866001600160a01b03168152602001856001600160a01b03168152602001848152602001806020018281038252848482818152602001925080828437600081840152601f19601f8201169050808301925050509650505050505050600060405180830381600087803b1580156126a957600080fd5b505af11580156126bd573d6000803e3d6000fd5b505050505050505050565b604080513360208083019190915234828401526060808301859052835180840390910181526080909201835281519181019190912060008181526008909252919020541561275d576040805162461bcd60e51b815260206004820152601b60248201527f536166655472616e736665723a20726571756573742065786973740000000000604482015290519081900360640190fd5b60008181526008602090815260409182902067ffffffffffffffff905581513481529151849233927f3dbf39eb5935a7abc0c756107967c274f5964488444b869ea5114a06aa2989ae92918290030190a35050565b8134146127f05760405162461bcd60e51b8152600401808060200182810382526027815260200180615ee46027913960400191505060405180910390fd5b60008511612845576040805162461bcd60e51b815260206004820152601960248201527f536166655472616e736665723a206e6f20746f6b656e20696400000000000000604482015290519081900360640190fd5b6001600160a01b0386163314156128a3576040805162461bcd60e51b815260206004820152601f60248201527f536166655472616e736665723a2073656e6465723d3d726563697069656e7400604482015290519081900360640190fd5b6000898989338a8a8a8a8a8a604051602001808b6001600160a01b0316815260200180602001896001600160a01b03168152602001886001600160a01b031681526020018781526020018060200185815260200184815260200183810383528c8c82818152602001925080828437600083820152601f01601f191690910184810383528781526020019050878780828437600081840152601f19601f8201169050808301925050509c5050505050505050505050505060405160208183030381529060405280519060200120905060076000828152602001908152602001600020546000146129d9576040805162461bcd60e51b815260206004820152601b60248201527f536166655472616e736665723a20726571756573742065786973740000000000604482015290519081900360640190fd5b60008181526007602090815260409182902067ffffffffffffffff9055815188815290810185905280820184905290516001600160a01b03808a16923392918e16917f5de53c176cff701e2530af486c4652d44dc99c1099750924f392f0d8be7e5c3d9181900360600190a450505050505050505050565b612a69600080516020615ec4833981519152336135f5565b612aa8576040805162461bcd60e51b815260206004820152601e6024820152600080516020615ea4833981519152604482015290519081900360640190fd5b60008c8c8c8c8c8c8c8c8c8c604051602001808b6001600160a01b0316815260200180602001896001600160a01b03168152602001886001600160a01b031681526020018781526020018060200185815260200184815260200183810383528c8c82818152602001925080828437600083820152601f01601f191690910184810383528781526020019050878780828437600081840152601f19601f8201169050808301925050509c5050505050505050505050505060405160208183030381529060405280519060200120905060006007600083815260200190815260200160002054905060008111612bd1576040805162461bcd60e51b815260206004820152601f6024820152600080516020615e2c833981519152604482015290519081900360640190fd5b428167ffffffffffffffff1611612c26576040805162461bcd60e51b815260206004820152601460248201527314d85999551c985b99995c8e88195e1c1a5c995960621b604482015290519081900360640190fd5b42604082901c67ffffffffffffffff161115612c89576040805162461bcd60e51b815260206004820152601e60248201527f536166655472616e6665723a206e6f7420617661696c61626c65207965740000604482015290519081900360640190fd5b848484604051808383808284378083019250505092505050604051809103902014612cfb576040805162461bcd60e51b815260206004820152601a60248201527f536166655472616e736665723a2077726f6e6720736563726574000000000000604482015290519081900360640190fd5b600082815260076020526040812055600454612d1790876157ab565b6004819055508d6001600160a01b031663b88d4fde8c8c8c8c8c6040518663ffffffff1660e01b815260040180866001600160a01b03168152602001856001600160a01b03168152602001848152602001806020018281038252848482818152602001925080828437600081840152601f19601f8201169050808301925050509650505050505050600060405180830381600087803b158015612db957600080fd5b505af1158015612dcd573d6000803e3d6000fd5b50505050896001600160a01b03168b6001600160a01b03168f6001600160a01b03167f86f5b986121cacce468c183b4ded35916f3cabef68a45644042b1e55fd2cb931858d604051808381526020018281526020019250505060405180910390a45050505050505050505050505050565b600181565b6000898989338a8a8a8a8a8a604051602001808b6001600160a01b0316815260200180602001896001600160a01b03168152602001886001600160a01b031681526020018781526020018060200185815260200184815260200183810383528c8c82818152602001925080828437600083820152601f01601f191690910184810383528781526020019050878780828437600081840152601f19601f8201169050808301925050509c505050505050505050505050506040516020818303038152906040528051906020012090506000600760008381526020019081526020016000205411612f67576040805162461bcd60e51b815260206004820152601f6024820152600080516020615e2c833981519152604482015290519081900360640190fd5b60008181526007602052604080822082905551339185156108fc02918691818181858888f19350505050158015612fa2573d6000803e3d6000fd5b50604080518281526020810188905281516001600160a01b03808b16933393918f16927f888085db651d2c8dd055a62e48cd23d308502ebd6b714c6f4e9368bf27bfa9f89281900390910190a450505050505050505050565b60025481565b81341461303f5760405162461bcd60e51b8152600401808060200182810382526027815260200180615ee46027913960400191505060405180910390fd5b6001600160a01b03841633141561309d576040805162461bcd60e51b815260206004820152601f60248201527f536166655472616e736665723a2073656e6465723d3d726563697069656e7400604482015290519081900360640190fd5b6000878787338888888860405160200180896001600160a01b0316815260200180602001876001600160a01b03168152602001866001600160a01b031681526020018581526020018481526020018381526020018281038252898982818152602001925080828437600081840152601f19601f820116905080830192505050995050505050505050505060405160208183030381529060405280519060200120905060066000828152602001908152602001600020546000146131a7576040805162461bcd60e51b815260206004820152601b60248201527f536166655472616e736665723a20726571756573742065786973740000000000604482015290519081900360640190fd5b60008181526006602090815260409182902067ffffffffffffffff9055815186815290810185905280820184905290516001600160a01b03808816923392918c16917f70f7911dcde96fe5fa6c6d28e57c91a03cbc1a63d76fed73c77333dcdcfbcfea9181900360600190a45050505050505050565b84341461325b5760405162461bcd60e51b8152600401808060200182810382526027815260200180615ee46027913960400191505060405180910390fd5b806001600160801b03168510156132a35760405162461bcd60e51b8152600401808060200182810382526029815260200180615e7b6029913960400191505060405180910390fd5b600088116132f8576040805162461bcd60e51b815260206004820152601960248201527f536166655472616e736665723a206e6f20746f6b656e20696400000000000000604482015290519081900360640190fd5b6001600160a01b038916331415613356576040805162461bcd60e51b815260206004820152601f60248201527f536166655472616e736665723a2073656e6465723d3d726563697069656e7400604482015290519081900360640190fd5b428267ffffffffffffffff16116133b4576040805162461bcd60e51b815260206004820152601d60248201527f536166655472616e736665723a20616c72656164792065787069726564000000604482015290519081900360640190fd5b60008c8c8c338d8d8d8d8d8d604051602001808b6001600160a01b0316815260200180602001896001600160a01b03168152602001886001600160a01b031681526020018781526020018060200185815260200184815260200183810383528c8c82818152602001925080828437600083820152601f01601f191690910184810383528781526020019050878780828437600081840152601f19601f8201169050808301925050509c5050505050505050505050505060405160208183030381529060405280519060200120905060076000828152602001908152602001600020546000146134ea576040805162461bcd60e51b815260206004820152601b60248201527f536166655472616e736665723a20726571756573742065786973740000000000604482015290519081900360640190fd5b6080826001600160801b0316901b60408567ffffffffffffffff16901b8467ffffffffffffffff1601016007600083815260200190815260200160002081905550896001600160a01b0316336001600160a01b03168e6001600160a01b03167fdf4eaf9a639e30edb46353425d55622f3c573b13ccd8ff6890613a5fc3520e888c8a8a8a8a8a604051808781526020018681526020018581526020018467ffffffffffffffff1681526020018367ffffffffffffffff168152602001826001600160801b03168152602001965050505050505060405180910390a450505050505050505050505050565b60008281526020819052604081206135ec9083615893565b90505b92915050565b60008281526020819052604081206135ec908361589f565b613625600080516020615ec4833981519152336135f5565b613664576040805162461bcd60e51b815260206004820152601e6024820152600080516020615ea4833981519152604482015290519081900360640190fd5b6136786001600160a01b03841683836158b4565b505050565b600081565b6040518060400160405280601481526020017f4b69726f626f2053616665205472616e7366657200000000000000000000000081525081565b6136c583836157ab565b3414613718576040805162461bcd60e51b815260206004820152601c60248201527f536166655472616e736665723a2076616c7565206d69736d6174636800000000604482015290519081900360640190fd5b6001600160a01b038416331415613776576040805162461bcd60e51b815260206004820152601f60248201527f536166655472616e736665723a2073656e6465723d3d726563697069656e7400604482015290519081900360640190fd5b60408051336020808301919091526001600160a01b03871682840152606082018690526080820185905260a08083018590528351808403909101815260c09092018352815191810191909120600081815260059092529190205415613822576040805162461bcd60e51b815260206004820152601b60248201527f536166655472616e736665723a20726571756573742065786973740000000000604482015290519081900360640190fd5b60008181526005602090815260409182902067ffffffffffffffff9055815186815290810185905280820184905290516001600160a01b0387169133917fc6daf3f44b892b946e8f054dee61a5c544673a355b8ec6fd0ba713e6e67518db9181900360600190a35050505050565b6138a8600080516020615ec4833981519152336135f5565b6138e7576040805162461bcd60e51b815260206004820152601e6024820152600080516020615ea4833981519152604482015290519081900360640190fd5b6000888888888888888860405160200180896001600160a01b0316815260200180602001876001600160a01b03168152602001866001600160a01b031681526020018581526020018481526020018381526020018281038252898982818152602001925080828437600081840152601f19601f8201169050808301925050509950505050505050505050604051602081830303815290604052805190602001209050600060066000838152602001908152602001600020549050600081116139e4576040805162461bcd60e51b815260206004820152601f6024820152600080516020615e2c833981519152604482015290519081900360640190fd5b428167ffffffffffffffff161115613a43576040805162461bcd60e51b815260206004820152601860248201527f536166655472616e6665723a206e6f7420657870697265640000000000000000604482015290519081900360640190fd5b60008281526006602052604081205560048054608083901c9081019091556001600160a01b038816906108fc90613a7b908790615693565b6040518115909202916000818181858888f19350505050158015613aa3573d6000803e3d6000fd5b50856001600160a01b0316876001600160a01b03168b6001600160a01b03167f9d3d4c92d62433013833b0f45e10416260d233e97cfc19bc5705b9b75170c2b08589604051808381526020018281526020019250505060405180910390a450505050505050505050565b7fa14a2dc51c26e451800897aa798120e7d6c35039caf5eb29b8ac35d1e914c59181565b6000878787338888888860405160200180896001600160a01b0316815260200180602001876001600160a01b03168152602001866001600160a01b031681526020018581526020018481526020018381526020018281038252898982818152602001925080828437600081840152601f19601f82011690508083019250505099505050505050505050506040516020818303038152906040528051906020012090506000600660008381526020019081526020016000205411613c29576040805162461bcd60e51b815260206004820152601f6024820152600080516020615e2c833981519152604482015290519081900360640190fd5b60008181526006602052604080822082905551339185156108fc02918691818181858888f19350505050158015613c64573d6000803e3d6000fd5b50604080518281526020810186905281516001600160a01b03808916933393918d16927f9d3d4c92d62433013833b0f45e10416260d233e97cfc19bc5705b9b75170c2b09281900390910190a45050505050505050565b6040805133602080830191909152818301849052606080830186905283518084039091018152608090920183528151918101919091206000818152600890925291902054613d3e576040805162461bcd60e51b815260206004820152601f6024820152600080516020615e2c833981519152604482015290519081900360640190fd5b60008181526008602052604080822082905551339184156108fc02918591818181858888f19350505050158015613d79573d6000803e3d6000fd5b50604080518381529051849133917f315de080c411b2c8236296058cbea4d5dddebfb39339055d552810a07fbc92769181900360200190a3505050565b613dce600080516020615ec4833981519152336135f5565b613e0d576040805162461bcd60e51b815260206004820152601e6024820152600080516020615ea4833981519152604482015290519081900360640190fd5b604080516001600160a01b0380881660208084019190915290871682840152606082018690526080820185905260a08083018590528351808403909101815260c09092018352815191810191909120600081815260059092529190205480613eaa576040805162461bcd60e51b815260206004820152601f6024820152600080516020615e2c833981519152604482015290519081900360640190fd5b428167ffffffffffffffff161115613f09576040805162461bcd60e51b815260206004820152601860248201527f536166655472616e6665723a206e6f7420657870697265640000000000000000604482015290519081900360640190fd5b600082815260056020526040812081905560048054608084901c908101909155613f3d90613f3788886157ab565b90615693565b6040519091506001600160a01b0389169082156108fc029083906000818181858888f19350505050158015613f76573d6000803e3d6000fd5b5082876001600160a01b0316896001600160a01b03167f2c0f05de664e2354e281c7c55d07fe10e18c61d9b196dbcd318285801b36cde4846040518082815260200191505060405180910390a45050505050505050565b60408051336020808301919091526001600160a01b03871682840152606082018690526080820185905260a08083018590528351808403909101815260c090920183528151918101919091206000818152600590925291902054614066576040805162461bcd60e51b815260206004820152601f6024820152600080516020615e2c833981519152604482015290519081900360640190fd5b600081815260056020526040812081905561408185856157ab565b604051909150339082156108fc029083906000818181858888f193505050501580156140b1573d6000803e3d6000fd5b5060408051828152905183916001600160a01b0389169133917f2c0f05de664e2354e281c7c55d07fe10e18c61d9b196dbcd318285801b36cde4919081900360200190a4505050505050565b60008181526020819052604081206135ef90615934565b806001600160801b031634101561415c5760405162461bcd60e51b815260040180806020018281038252602b815260200180615f3b602b913960400191505060405180910390fd5b60408051336020808301919091523482840152606080830188905283518084039091018152608090920183528151918101919091206000818152600890925291902054156141f1576040805162461bcd60e51b815260206004820152601b60248201527f536166655472616e736665723a20726571756573742065786973740000000000604482015290519081900360640190fd5b428367ffffffffffffffff161161424f576040805162461bcd60e51b815260206004820152601d60248201527f536166655472616e736665723a20616c72656164792065787069726564000000604482015290519081900360640190fd5b6080826001600160801b0316901b60408567ffffffffffffffff16901b8467ffffffffffffffff160101600860008381526020019081526020016000208190555084336001600160a01b03167f1e0da4edc3a1c02f16fe48803f882d848dc210551eb8a545cc6f6c83012df2ff34878787604051808581526020018467ffffffffffffffff1681526020018367ffffffffffffffff168152602001826001600160801b0316815260200194505050505060405180910390a35050505050565b614326600080516020615ec4833981519152336135f5565b614365576040805162461bcd60e51b815260206004820152601e6024820152600080516020615ea4833981519152604482015290519081900360640190fd5b61436d615de9565b7fa14a2dc51c26e451800897aa798120e7d6c35039caf5eb29b8ac35d1e914c59160001b8e8e8e8e8e8e8e8e604051602001808a8152602001896001600160a01b03168152602001886001600160a01b03168152602001876001600160a01b031681526020018060200186815260200180602001858152602001848152602001838103835288818151815260200191508051906020019080838360005b8381101561442257818101518382015260200161440a565b50505050905090810190601f16801561444f5780820380516001836020036101000a031916815260200191505b50838103825286518152865160209182019188019080838360005b8381101561448257818101518382015260200161446a565b50505050905090810190601f1680156144af5780820380516001836020036101000a031916815260200191505b509b505050505050505050505050604051602081830303815290604052805190602001208160200181815250508d6001600160a01b0316600180548360200151604051602001808061190160f01b815250600201838152602001828152602001925050506040516020818303038152906040528051906020012086868660405160008152602001604052604051808581526020018460ff1681526020018381526020018281526020019450505050506020604051602081039080840390855afa158015614580573d6000803e3d6000fd5b505050602060405103516001600160a01b0316146145e5576040805162461bcd60e51b815260206004820152601d60248201527f536166655472616e736665723a2077726f6e67207369676e6174757265000000604482015290519081900360640190fd5b8d88826020015160405160200180846001600160a01b03168152602001838152602001828152602001935050505060405160208183030381529060405280519060200120816000018181525050600860008260000151815260200190815260200160002054816040018181525050600081604001511161469a576040805162461bcd60e51b815260206004820152601f6024820152600080516020615e2c833981519152604482015290519081900360640190fd5b42816040015167ffffffffffffffff16116146f3576040805162461bcd60e51b815260206004820152601460248201527314d85999551c985b99995c8e88195e1c1a5c995960621b604482015290519081900360640190fd5b4260408260400151901c67ffffffffffffffff16111561475a576040805162461bcd60e51b815260206004820152601e60248201527f536166655472616e6665723a206e6f7420617661696c61626c65207965740000604482015290519081900360640190fd5b8686866040518083838082843780830192505050925050506040518091039020146147cc576040805162461bcd60e51b815260206004820152601a60248201527f536166655472616e736665723a2077726f6e6720736563726574000000000000604482015290519081900360640190fd5b80516000908152600860205260408120556004546147ea90896157ab565b6004819055508b6001600160a01b031663b88d4fde8f8f8d8d6040518563ffffffff1660e01b815260040180856001600160a01b03168152602001846001600160a01b0316815260200183815260200180602001828103825283818151815260200191508051906020019080838360005b8381101561487357818101518382015260200161485b565b50505050905090810190601f1680156148a05780820380516001836020036101000a031916815260200191505b5095505050505050600060405180830381600087803b1580156148c257600080fd5b505af11580156148d6573d6000803e3d6000fd5b505050508c6001600160a01b03168e6001600160a01b03168d6001600160a01b03167f277982bd3369f69df6339efe835276c5762d720a34ab5c7973bf73491e18432784602001518e604051808381526020018281526020019250505060405180910390a45050505050505050505050505050565b60008281526020819052604090206002015461496990611c5d6156d5565b611d2c5760405162461bcd60e51b8152600401808060200182810382526030815260200180615f0b6030913960400191505060405180910390fd5b6149bc600080516020615ec4833981519152336135f5565b6149fb576040805162461bcd60e51b815260206004820152601e6024820152600080516020615ea4833981519152604482015290519081900360640190fd5b604080516001600160a01b03808a1660208084019190915290891682840152606082018890526080820187905260a08083018790528351808403909101815260c09092018352815191810191909120600081815260059092529190205480614a98576040805162461bcd60e51b815260206004820152601f6024820152600080516020615e2c833981519152604482015290519081900360640190fd5b428167ffffffffffffffff1611614aed576040805162461bcd60e51b815260206004820152601460248201527314d85999551c985b99995c8e88195e1c1a5c995960621b604482015290519081900360640190fd5b42604082901c67ffffffffffffffff161115614b50576040805162461bcd60e51b815260206004820152601e60248201527f536166655472616e6665723a206e6f7420617661696c61626c65207965740000604482015290519081900360640190fd5b848484604051808383808284378083019250505092505050604051809103902014614bc2576040805162461bcd60e51b815260206004820152601a60248201527f536166655472616e736665723a2077726f6e6720736563726574000000000000604482015290519081900360640190fd5b600082815260056020526040812055600454614bde90876157ab565b6004556040516001600160a01b0389169088156108fc029089906000818181858888f19350505050158015614c17573d6000803e3d6000fd5b5081886001600160a01b03168a6001600160a01b03167fa4beac8994bd92afc3cde2236c528ddabf0b78fdd042b6766364a85c6c77f6078a6040518082815260200191505060405180910390a4505050505050505050565b614c87600080516020615ec4833981519152336135f5565b614cc6576040805162461bcd60e51b815260206004820152601e6024820152600080516020615ea4833981519152604482015290519081900360640190fd5b604080517f0506afef36f3613836f98ef019cb76a3e6112be8f9dc8d8fa77275d64f4182346020808301919091526001600160a01b03808e16838501819052908d166060840152608083018c905260a083018b905260c08084018b90528451808503909101815260e0840185528051908301206001805461190160f01b610100870152610102860152610122808601839052865180870390910181526101428601808852815191860191909120600090915261016286018088525260ff89166101828601526101a285018890526101c2850187905294519094919391926101e2808401939192601f1981019281900390910190855afa158015614dcd573d6000803e3d6000fd5b505050602060405103516001600160a01b031614614e32576040805162461bcd60e51b815260206004820152601d60248201527f536166655472616e736665723a2077726f6e67207369676e6174757265000000604482015290519081900360640190fd5b60008b614e3f8b8b6157ab565b8360405160200180846001600160a01b03168152602001838152602001828152602001935050505060405160208183030381529060405280519060200120905060006008600083815260200190815260200160002054905060008111614eda576040805162461bcd60e51b815260206004820152601f6024820152600080516020615e2c833981519152604482015290519081900360640190fd5b428167ffffffffffffffff1611614f2f576040805162461bcd60e51b815260206004820152601460248201527314d85999551c985b99995c8e88195e1c1a5c995960621b604482015290519081900360640190fd5b42604082901c67ffffffffffffffff161115614f92576040805162461bcd60e51b815260206004820152601e60248201527f536166655472616e6665723a206e6f7420617661696c61626c65207965740000604482015290519081900360640190fd5b888888604051808383808284378083019250505092505050604051809103902014615004576040805162461bcd60e51b815260206004820152601a60248201527f536166655472616e736665723a2077726f6e6720736563726574000000000000604482015290519081900360640190fd5b600082815260086020526040812055600454615020908b6157ab565b6004556040516001600160a01b038d16908c156108fc02908d906000818181858888f19350505050158015615059573d6000803e3d6000fd5b50828c6001600160a01b03168e6001600160a01b03167f8626ed517f2013f53bfc0df75797154faf15afab3b9bd5aa0dc4a39f04c34e2d8e6040518082815260200191505060405180910390a450505050505050505050505050565b6150cd600080516020615ec4833981519152336135f5565b61510c576040805162461bcd60e51b815260206004820152601e6024820152600080516020615ea4833981519152604482015290519081900360640190fd5b615114615de9565b7f9e6214229b9fba1927010d30b22a3a5d9fd5e856bb29f056416ff2ad52e8de4460001b8d8d8d8d8d8d8d60405160200180898152602001886001600160a01b03168152602001876001600160a01b03168152602001866001600160a01b0316815260200180602001858152602001848152602001838152602001828103825286818151815260200191508051906020019080838360005b838110156151c45781810151838201526020016151ac565b50505050905090810190601f1680156151f15780820380516001836020036101000a031916815260200191505b509950505050505050505050604051602081830303815290604052805190602001208160200181815250508c6001600160a01b0316600180548360200151604051602001808061190160f01b815250600201838152602001828152602001925050506040516020818303038152906040528051906020012086868660405160008152602001604052604051808581526020018460ff1681526020018381526020018281526020019450505050506020604051602081039080840390855afa1580156152c0573d6000803e3d6000fd5b505050602060405103516001600160a01b031614615325576040805162461bcd60e51b815260206004820152601d60248201527f536166655472616e736665723a2077726f6e67207369676e6174757265000000604482015290519081900360640190fd5b8c88826020015160405160200180846001600160a01b0316815260200183815260200182815260200193505050506040516020818303038152906040528051906020012081600001818152505060006008600083600001518152602001908152602001600020549050600081116153d1576040805162461bcd60e51b815260206004820152601f6024820152600080516020615e2c833981519152604482015290519081900360640190fd5b428167ffffffffffffffff1611615426576040805162461bcd60e51b815260206004820152601460248201527314d85999551c985b99995c8e88195e1c1a5c995960621b604482015290519081900360640190fd5b42604082901c67ffffffffffffffff161115615489576040805162461bcd60e51b815260206004820152601e60248201527f536166655472616e6665723a206e6f7420617661696c61626c65207965740000604482015290519081900360640190fd5b8787876040518083838082843780830192505050925050506040518091039020146154fb576040805162461bcd60e51b815260206004820152601a60248201527f536166655472616e736665723a2077726f6e6720736563726574000000000000604482015290519081900360640190fd5b8151600090815260086020526040812055600454615519908a6157ab565b6004556155316001600160a01b038d168f8f8d615805565b8c6001600160a01b03168e6001600160a01b03168d6001600160a01b03167fda80a0efa5ccd61d8ea52eac9b959088c9b589a93c4a9d4eb7ab2874ff6607b685602001518e604051808381526020018281526020019250505060405180910390a45050505050505050505050505050565b6155ba600080516020615ec4833981519152336135f5565b6155f9576040805162461bcd60e51b815260206004820152601e6024820152600080516020615ea4833981519152604482015290519081900360640190fd5b6004546156069082615693565b6004556040516001600160a01b0383169082156108fc029083906000818181858888f19350505050158015613678573d6000803e3d6000fd5b60035490565b6040518060400160405280600181526020017f310000000000000000000000000000000000000000000000000000000000000081525081565b60006135ec836001600160a01b03841661593f565b60006135ec83836040518060400160405280601e81526020017f536166654d6174683a207375627472616374696f6e206f766572666c6f770000815250615989565b3390565b60008281526020819052604090206156f1908261567e565b15611ca7576156fe6156d5565b6001600160a01b0316816001600160a01b0316837f2f8788117e7eff1d82e926ec794901d17c78024a50270940304540a733656f0d60405160405180910390a45050565b600082815260208190526040902061575a9082615a20565b15611ca7576157676156d5565b6001600160a01b0316816001600160a01b0316837ff6391f5c32d9c69d2a47ea670b442974b53935d1edc7fd64eb21e047a839171b60405160405180910390a45050565b6000828201838110156135ec576040805162461bcd60e51b815260206004820152601b60248201527f536166654d6174683a206164646974696f6e206f766572666c6f770000000000604482015290519081900360640190fd5b604080516001600160a01b0380861660248301528416604482015260648082018490528251808303909101815260849091019091526020810180517bffffffffffffffffffffffffffffffffffffffffffffffffffffffff167f23b872dd0000000000000000000000000000000000000000000000000000000017905261588d908590615a35565b50505050565b60006135ec8383615ae6565b60006135ec836001600160a01b038416615b4a565b604080516001600160a01b038416602482015260448082018490528251808303909101815260649091019091526020810180517bffffffffffffffffffffffffffffffffffffffffffffffffffffffff167fa9059cbb00000000000000000000000000000000000000000000000000000000179052613678908490615a35565b60006135ef82615b62565b600061594b8383615b4a565b615981575081546001818101845560008481526020808220909301849055845484825282860190935260409020919091556135ef565b5060006135ef565b60008184841115615a185760405162461bcd60e51b81526004018080602001828103825283818151815260200191508051906020019080838360005b838110156159dd5781810151838201526020016159c5565b50505050905090810190601f168015615a0a5780820380516001836020036101000a031916815260200191505b509250505060405180910390fd5b505050900390565b60006135ec836001600160a01b038416615b66565b6060615a8a826040518060400160405280602081526020017f5361666545524332303a206c6f772d6c6576656c2063616c6c206661696c6564815250856001600160a01b0316615c2c9092919063ffffffff16565b80519091501561367857808060200190516020811015615aa957600080fd5b50516136785760405162461bcd60e51b815260040180806020018281038252602a815260200180615f66602a913960400191505060405180910390fd5b81546000908210615b285760405162461bcd60e51b8152600401808060200182810382526022815260200180615e0a6022913960400191505060405180910390fd5b826000018281548110615b3757fe5b9060005260206000200154905092915050565b60009081526001919091016020526040902054151590565b5490565b60008181526001830160205260408120548015615c225783546000198083019190810190600090879083908110615b9957fe5b9060005260206000200154905080876000018481548110615bb657fe5b600091825260208083209091019290925582815260018981019092526040902090840190558654879080615be657fe5b600190038181906000526020600020016000905590558660010160008781526020019081526020016000206000905560019450505050506135ef565b60009150506135ef565b6060615c3b8484600085615c43565b949350505050565b6060615c4e85615db0565b615c9f576040805162461bcd60e51b815260206004820152601d60248201527f416464726573733a2063616c6c20746f206e6f6e2d636f6e7472616374000000604482015290519081900360640190fd5b60006060866001600160a01b031685876040518082805190602001908083835b60208310615cde5780518252601f199092019160209182019101615cbf565b6001836020036101000a03801982511681845116808217855250505050505090500191505060006040518083038185875af1925050503d8060008114615d40576040519150601f19603f3d011682016040523d82523d6000602084013e615d45565b606091505b50915091508115615d59579150615c3b9050565b805115615d695780518082602001fd5b60405162461bcd60e51b81526020600482018181528651602484015286518793919283926044019190850190808383600083156159dd5781810151838201526020016159c5565b6000813f7fc5d2460186f7233c927e7db2dcc703c0e500b653ca82273b7bfad8045d85a470818114801590615c3b575050151592915050565b60408051606081018252600080825260208201819052918101919091529056fe456e756d657261626c655365743a20696e646578206f7574206f6620626f756e6473536166655472616e736665723a2072657175657374206e6f7420657869737400416363657373436f6e74726f6c3a2073656e646572206d75737420626520616e2061646d696e20746f206772616e74536166655472616e736665723a206175746f5265747269657665466565732065786565642066656573536166655472616e736665723a206e6f7420616e20616374697661746f720000ec5aad7bdface20c35bc02d6d2d5760df981277427368525d634f4e2603ea192536166655472616e736665723a206d73672e76616c7565206d757374206d617463682066656573416363657373436f6e74726f6c3a2073656e646572206d75737420626520616e2061646d696e20746f207265766f6b65536166655472616e73666572733a206175746f5265747269657665466565732065786565642076616c75655361666545524332303a204552433230206f7065726174696f6e20646964206e6f742073756363656564536166655472616e736665723a206e6f7420616363657074696e67206574686572206469726563746c79416363657373436f6e74726f6c3a2063616e206f6e6c792072656e6f756e636520726f6c657320666f722073656c66a26469706673582212209b9bbb00f89cc4072c011b58473d6d47788decf214cef8c5212d4756a2c231b164736f6c634300060c0033ec5aad7bdface20c35bc02d6d2d5760df981277427368525d634f4e2603ea192",
  "immutableReferences": {},
  "source": "// SPDX-License-Identifier: GPL-3.0-or-later\npragma solidity 0.6.12;\n\nimport \"../node_modules/@openzeppelin/contracts/math/SafeMath.sol\";\nimport \"../node_modules/@openzeppelin/contracts/access/AccessControl.sol\";\nimport \"../node_modules/@openzeppelin/contracts/token/ERC20/SafeERC20.sol\";\nimport \"../node_modules/@openzeppelin/contracts/token/ERC721/IERC721.sol\";\n\ncontract SafeTransfer is AccessControl {\n    using SafeMath for uint256;\n    using SafeERC20 for IERC20;\n\n    // keccak256(\"ACTIVATOR_ROLE\");\n    bytes32 public constant ACTIVATOR_ROLE = 0xec5aad7bdface20c35bc02d6d2d5760df981277427368525d634f4e2603ea192;\n\n    // keccak256(\"hiddenCollect(address from,address to,uint256 value,uint256 fees,bytes32 secretHash)\");\n    bytes32 public constant HIDDEN_COLLECT_TYPEHASH = 0x0506afef36f3613836f98ef019cb76a3e6112be8f9dc8d8fa77275d64f418234;\n\n    // keccak256(\"hiddenCollectERC20(address from,address to,address token,string tokenSymbol,uint256 value,uint256 fees,bytes32 secretHash)\");\n    bytes32 public constant HIDDEN_ERC20_COLLECT_TYPEHASH = 0x9e6214229b9fba1927010d30b22a3a5d9fd5e856bb29f056416ff2ad52e8de44;\n\n    // keccak256(\"hiddenCollectERC721(address from,address to,address token,string tokenSymbol,uint256 tokenId,bytes tokenData,uint256 fees,bytes32 secretHash)\");\n    bytes32 public constant HIDDEN_ERC721_COLLECT_TYPEHASH = 0xa14a2dc51c26e451800897aa798120e7d6c35039caf5eb29b8ac35d1e914c591;\n\n    bytes32 public DOMAIN_SEPARATOR;\n    uint256 public CHAIN_ID;\n    bytes32 s_uid;\n    uint256 s_fees;\n    \n    struct TokenInfo {\n        bytes32 id;\n        bytes32 id1;\n        uint256 tr;\n    }\n\n    mapping(bytes32 => uint256) s_transfers;\n    mapping(bytes32 => uint256) s_erc20Transfers;\n    mapping(bytes32 => uint256) s_erc721Transfers;\n    mapping(bytes32 => uint256) s_htransfers;\n\n    string public constant NAME = \"Kirobo Safe Transfer\";\n    string public constant VERSION = \"1\";\n    uint8 public constant VERSION_NUMBER = 0x1;\n\n    event Deposited(\n        address indexed from,\n        address indexed to,\n        uint256 value,\n        uint256 fees,\n        bytes32 secretHash\n    );\n    \n    event TimedDeposited(\n        address indexed from,\n        address indexed to,\n        uint256 value,\n        uint256 fees,\n        bytes32 secretHash,\n        uint64 availableAt,\n        uint64 expiresAt,\n        uint128 autoRetrieveFees\n    );\n    \n    event Retrieved(\n        address indexed from,\n        address indexed to,\n        bytes32 indexed id,\n        uint256 value\n    );    \n    \n    event Collected(\n        address indexed from,\n        address indexed to,\n        bytes32 indexed id,\n        uint256 value\n    );\n\n    event ERC20Deposited(\n        address indexed token,\n        address indexed from,\n        address indexed to,\n        uint256 value,\n        uint256 fees,\n        bytes32 secretHash\n    );\n\n    event ERC20TimedDeposited(\n        address indexed token,\n        address indexed from,\n        address indexed to,\n        uint256 value,\n        uint256 fees,\n        bytes32 secretHash,\n        uint64 availableAt,\n        uint64 expiresAt,\n        uint128 autoRetrieveFees\n    );\n\n    event ERC20Retrieved(\n        address indexed token,\n        address indexed from,\n        address indexed to,\n        bytes32 id,\n        uint256 value\n    );    \n    \n    event ERC20Collected(\n        address indexed token,\n        address indexed from,\n        address indexed to,\n        bytes32 id,\n        uint256 value\n    );\n\n    event ERC721Deposited(\n        address indexed token,\n        address indexed from,\n        address indexed to,\n        uint256 tokenId,\n        uint256 fees,\n        bytes32 secretHash\n    );\n\n    event ERC721TimedDeposited(\n        address indexed token,\n        address indexed from,\n        address indexed to,\n        uint256 tokenId,\n        uint256 fees,\n        bytes32 secretHash,\n        uint64 availableAt,\n        uint64 expiresAt,\n        uint128 autoRetrieveFees\n    );\n\n    event ERC721Retrieved(\n        address indexed token,\n        address indexed from,\n        address indexed to,\n        bytes32 id,\n        uint256 tokenId\n    );    \n    \n    event ERC721Collected(\n        address indexed token,\n        address indexed from,\n        address indexed to,\n        bytes32 id,\n        uint256 tokenId\n    );\n\n    event HDeposited(\n        address indexed from,\n        uint256 value,\n        bytes32 indexed id1\n    );\n\n    event HTimedDeposited(\n        address indexed from,\n        uint256 value,\n        bytes32 indexed id1,\n        uint64 availableAt,\n        uint64 expiresAt,\n        uint128 autoRetrieveFees\n    );\n\n    event HRetrieved(\n        address indexed from,\n        bytes32 indexed id1,\n        uint256 value\n    );\n\n    event HCollected(\n        address indexed from,\n        address indexed to,\n        bytes32 indexed id1,\n        uint256 value\n    );\n\n    event HERC20Collected(\n        address indexed token,\n        address indexed from,\n        address indexed to,\n        bytes32 id1,\n        uint256 value\n    );\n\n    event HERC721Collected(\n        address indexed token,\n        address indexed from,\n        address indexed to,\n        bytes32 id1,\n        uint256 tokenId\n    );\n\n    modifier onlyActivator() {\n        require(hasRole(ACTIVATOR_ROLE, msg.sender), \"SafeTransfer: not an activator\");    \n        _;\n    }\n\n    constructor (address activator) public {\n        _setupRole(DEFAULT_ADMIN_ROLE, msg.sender);\n        _setupRole(ACTIVATOR_ROLE, msg.sender);\n        _setupRole(ACTIVATOR_ROLE, activator);\n\n        uint256 chainId;\n        assembly {\n            chainId := chainid()\n        }\n\n        CHAIN_ID = chainId;\n\n        s_uid = bytes32(\n          uint256(VERSION_NUMBER) << 248 |\n          uint256(blockhash(block.number-1)) << 192 >> 16 |\n          uint256(address(this))\n        );\n\n        DOMAIN_SEPARATOR = keccak256(\n            abi.encode(\n                keccak256(\"EIP712Domain(string name,string version,uint256 chainId,address verifyingContract,bytes32 salt)\"),\n                keccak256(bytes(NAME)),\n                keccak256(bytes(VERSION)),\n                chainId,\n                address(this),\n                s_uid\n            )\n        );\n\n    }\n\n    receive () external payable {\n        require(false, \"SafeTransfer: not accepting ether directly\");\n    }\n\n    function transferERC20(address token, address wallet, uint256 value) external onlyActivator() {\n        IERC20(token).safeTransfer(wallet, value);\n    }\n\n    function transferERC721(address token, address wallet, uint256 tokenId, bytes calldata data) external onlyActivator() {\n        IERC721(token).safeTransferFrom(address(this), wallet, tokenId, data);\n    }\n\n    function transferFees(address payable wallet, uint256 value) external onlyActivator() {\n        s_fees = s_fees.sub(value);\n        wallet.transfer(value);\n    }\n\n    function totalFees() external view returns (uint256) {\n        return s_fees;\n    }\n\n    function uid() view external returns (bytes32) {\n        return s_uid;\n    }\n\n    // --------------------------------- ETH ---------------------------------\n\n    function deposit(\n        address payable to,\n        uint256 value,\n        uint256 fees,\n        bytes32 secretHash\n    ) \n        payable external\n    {\n        require(msg.value == value.add(fees), \"SafeTransfer: value mismatch\");\n        require(to != msg.sender, \"SafeTransfer: sender==recipient\");\n        bytes32 id = keccak256(abi.encode(msg.sender, to, value, fees, secretHash));\n        require(s_transfers[id] == 0, \"SafeTransfer: request exist\"); \n        s_transfers[id] = 0xffffffffffffffff; // expiresAt: max, AvailableAt: 0, autoRetrieveFees: 0\n        emit Deposited(msg.sender, to, value, fees, secretHash);\n    }\n\n    function timedDeposit(\n        address payable to,\n        uint256 value,\n        uint256 fees,\n        bytes32 secretHash,\n        uint64 availableAt,\n        uint64 expiresAt,\n        uint128 autoRetrieveFees\n    ) \n        payable external\n    {\n        require(msg.value == value.add(fees), \"SafeTransfer: value mismatch\");\n        require(fees >= autoRetrieveFees, \"SafeTransfer: autoRetrieveFees exeed fees\");\n        require(to != msg.sender, \"SafeTransfer: sender==recipient\");\n        require(expiresAt > now, \"SafeTransfer: already expired\");\n        bytes32 id = keccak256(abi.encode(msg.sender, to, value, fees, secretHash));\n        require(s_transfers[id] == 0, \"SafeTransfer: request exist\"); \n        s_transfers[id] = uint256(expiresAt) + uint256(availableAt << 64) + (uint256(autoRetrieveFees) << 128);\n        emit TimedDeposited(msg.sender, to, value, fees, secretHash, availableAt, expiresAt, autoRetrieveFees);\n    }\n\n    function retrieve(\n        address payable to,\n        uint256 value,\n        uint256 fees,\n        bytes32 secretHash\n    )   \n        external \n    {\n        bytes32 id = keccak256(abi.encode(msg.sender, to, value, fees, secretHash));\n        require(s_transfers[id] > 0, \"SafeTransfer: request not exist\");\n        delete s_transfers[id];\n        uint256 valueToSend = value.add(fees);\n        msg.sender.transfer(valueToSend);\n        emit Retrieved(msg.sender, to, id, valueToSend);\n    }\n\n    function collect(\n        address from,\n        address payable to,\n        uint256 value,\n        uint256 fees,\n        bytes32 secretHash,\n        bytes calldata secret\n    ) \n        external\n        onlyActivator()\n    {\n        bytes32 id = keccak256(abi.encode(from, to, value, fees, secretHash));\n        uint256 tr = s_transfers[id];\n        require(tr > 0, \"SafeTransfer: request not exist\");\n        require(uint64(tr) > now, \"SafeTranfer: expired\");\n        require(uint64(tr>>64) <= now, \"SafeTranfer: not available yet\");\n        require(keccak256(secret) == secretHash, \"SafeTransfer: wrong secret\");\n        delete s_transfers[id];\n        s_fees = s_fees.add(fees);\n        to.transfer(value);\n        emit Collected(from, to, id, value);\n    }\n\n   function autoRetrieve(\n        address payable from,\n        address to,\n        uint256 value,\n        uint256 fees,\n        bytes32 secretHash\n    ) \n        external\n        onlyActivator()\n    {\n        bytes32 id = keccak256(abi.encode(from, to, value, fees, secretHash));\n        uint256 tr = s_transfers[id];\n        require(tr > 0, \"SafeTransfer: request not exist\");\n        require(uint64(tr) <= now, \"SafeTranfer: not expired\");\n        delete  s_transfers[id];\n        s_fees = s_fees + (tr>>128); // autoRetreive fees\n        uint256 valueToRetrieve = value.add(fees).sub(tr>>128);\n        from.transfer(valueToRetrieve);\n        emit Retrieved(from, to, id, valueToRetrieve);\n    }\n\n    // ------------------------------- ERC-20 --------------------------------\n\n    function depositERC20(\n        address token,\n        string calldata tokenSymbol,\n        address to,\n        uint256 value,\n        uint256 fees,\n        bytes32 secretHash\n    ) \n        payable external\n    {\n        require(msg.value == fees, \"SafeTransfer: msg.value must match fees\");\n        require(to != msg.sender, \"SafeTransfer: sender==recipient\");\n        bytes32 id = keccak256(abi.encode(token, tokenSymbol, msg.sender, to, value, fees, secretHash));\n        require(s_erc20Transfers[id] == 0, \"SafeTransfer: request exist\"); \n        s_erc20Transfers[id] = 0xffffffffffffffff;\n        emit ERC20Deposited(token, msg.sender, to, value, fees, secretHash);\n    }\n\n    function timedDepositERC20(\n        address token,\n        string calldata tokenSymbol,\n        address to,\n        uint256 value,\n        uint256 fees,\n        bytes32 secretHash,\n        uint64 availableAt,\n        uint64 expiresAt,\n        uint128 autoRetrieveFees\n    ) \n        payable external\n    {\n        require(msg.value == fees, \"SafeTransfer: msg.value must match fees\");\n        require(fees >= autoRetrieveFees, \"SafeTransfer: autoRetrieveFees exeed fees\");\n        require(to != msg.sender, \"SafeTransfer: sender==recipient\");\n        require(expiresAt > now, \"SafeTransfer: already expired\");\n        bytes32 id = keccak256(abi.encode(token, tokenSymbol, msg.sender, to, value, fees, secretHash));\n        require(s_erc20Transfers[id] == 0, \"SafeTransfer: request exist\"); \n        s_erc20Transfers[id] = uint256(expiresAt) + (uint256(availableAt) << 64) + (uint256(autoRetrieveFees) << 128);\n        emit ERC20TimedDeposited(token, msg.sender, to, value, fees, secretHash, availableAt, expiresAt, autoRetrieveFees);\n    }\n\n    function retrieveERC20(\n        address token,\n        string calldata tokenSymbol,\n        address to,\n        uint256 value,\n        uint256 fees,\n        bytes32 secretHash\n    )   \n        external \n    {\n        bytes32 id = keccak256(abi.encode(token, tokenSymbol, msg.sender, to, value, fees, secretHash));\n        require(s_erc20Transfers[id]  > 0, \"SafeTransfer: request not exist\");\n        delete s_erc20Transfers[id];\n        msg.sender.transfer(fees);\n        emit ERC20Retrieved(token, msg.sender, to, id, value);\n    }\n\n    function collectERC20(\n        address token,\n        string calldata tokenSymbol,\n        address from,\n        address payable to,\n        uint256 value,\n        uint256 fees,\n        bytes32 secretHash,\n        bytes calldata secret\n    ) \n        external\n        onlyActivator()\n    {\n        bytes32 id = keccak256(abi.encode(token, tokenSymbol, from, to, value, fees, secretHash));\n        uint256 tr = s_erc20Transfers[id];\n        require(tr > 0, \"SafeTransfer: request not exist\");\n        require(uint64(tr) > now, \"SafeTranfer: expired\");\n        require(uint64(tr>>64) <= now, \"SafeTranfer: not available yet\");\n        require(keccak256(secret) == secretHash, \"SafeTransfer: wrong secret\");\n        delete s_erc20Transfers[id];\n        s_fees = s_fees.add(fees);\n        IERC20(token).safeTransferFrom(from, to, value);\n        emit ERC20Collected(token, from, to, id, value);\n    }\n\n   function autoRetrieveERC20(\n        address token,\n        string calldata tokenSymbol,\n        address payable from,\n        address to,\n        uint256 value,\n        uint256 fees,\n        bytes32 secretHash\n    ) \n        external\n        onlyActivator()\n    {\n        bytes32 id = keccak256(abi.encode(token, tokenSymbol, from, to, value, fees, secretHash));\n        uint256 tr = s_erc20Transfers[id];\n        require(tr > 0, \"SafeTransfer: request not exist\");\n        require(uint64(tr) <= now, \"SafeTranfer: not expired\");\n        delete  s_erc20Transfers[id];\n        s_fees = s_fees + (tr>>128); // autoRetreive fees\n        from.transfer(fees.sub(tr>>128));\n        emit ERC20Retrieved(token, from, to, id, value);\n    }\n\n    // ------------------------------- ERC-721 -------------------------------\n\n    function depositERC721(\n        address token,\n        string calldata tokenSymbol,\n        address to,\n        uint256 tokenId,\n        bytes calldata tokenData,\n        uint256 fees,\n        bytes32 secretHash\n    ) \n        payable external\n    {\n        require(msg.value == fees, \"SafeTransfer: msg.value must match fees\");\n        require(tokenId > 0, \"SafeTransfer: no token id\");\n        require(to != msg.sender, \"SafeTransfer: sender==recipient\");\n        bytes32 id = keccak256(abi.encode(token, tokenSymbol, msg.sender, to, tokenId, tokenData, fees, secretHash));\n        require(s_erc721Transfers[id] == 0, \"SafeTransfer: request exist\"); \n        s_erc721Transfers[id] = 0xffffffffffffffff;\n        emit ERC721Deposited(token, msg.sender, to, tokenId, fees, secretHash);\n    }\n\n    function timedDepositERC721(\n        address token,\n        string calldata tokenSymbol,\n        address to,\n        uint256 tokenId,\n        bytes calldata tokenData,\n        uint256 fees,\n        bytes32 secretHash,\n        uint64 availableAt,\n        uint64 expiresAt,\n        uint128 autoRetrieveFees\n    ) \n        payable external\n    {\n        require(msg.value == fees, \"SafeTransfer: msg.value must match fees\");\n        require(fees >= autoRetrieveFees, \"SafeTransfer: autoRetrieveFees exeed fees\");\n        require(tokenId > 0, \"SafeTransfer: no token id\");\n        require(to != msg.sender, \"SafeTransfer: sender==recipient\");\n        require(expiresAt > now, \"SafeTransfer: already expired\");\n        bytes32 id = keccak256(abi.encode(token, tokenSymbol, msg.sender, to, tokenId, tokenData, fees, secretHash));\n        require(s_erc721Transfers[id] == 0, \"SafeTransfer: request exist\"); \n        s_erc721Transfers[id] = uint256(expiresAt) + (uint256(availableAt) << 64) + (uint256(autoRetrieveFees) << 128);\n        emit ERC721TimedDeposited(token, msg.sender, to, tokenId, fees, secretHash, availableAt, expiresAt, autoRetrieveFees);\n    }\n\n    function retrieveERC721(\n        address token,\n        string calldata tokenSymbol,\n        address to,\n        uint256 tokenId,\n        bytes calldata tokenData,\n        uint256 fees,\n        bytes32 secretHash\n    )   \n        external \n    {\n        bytes32 id = keccak256(abi.encode(token, tokenSymbol, msg.sender, to, tokenId, tokenData, fees, secretHash));\n        require(s_erc721Transfers[id]  > 0, \"SafeTransfer: request not exist\");\n        delete s_erc721Transfers[id];\n        msg.sender.transfer(fees);\n        emit ERC721Retrieved(token, msg.sender, to, id, tokenId);\n    }\n\n    function collectERC721(\n        address token,\n        string calldata tokenSymbol,\n        address from,\n        address payable to,\n        uint256 tokenId,\n        bytes calldata tokenData,\n        uint256 fees,\n        bytes32 secretHash,\n        bytes calldata secret\n    ) \n        external\n        onlyActivator()\n    {\n        bytes32 id = keccak256(abi.encode(token, tokenSymbol, from, to, tokenId, tokenData, fees, secretHash));\n        uint256 tr = s_erc721Transfers[id];\n        require(tr > 0, \"SafeTransfer: request not exist\");\n        require(uint64(tr) > now, \"SafeTranfer: expired\");\n        require(uint64(tr>>64) <= now, \"SafeTranfer: not available yet\");\n        require(keccak256(secret) == secretHash, \"SafeTransfer: wrong secret\");\n        delete s_erc721Transfers[id];\n        s_fees = s_fees.add(fees);\n        IERC721(token).safeTransferFrom(from, to, tokenId, tokenData);\n        emit ERC721Collected(token, from, to, id, tokenId);\n    }\n\n   function autoRetrieveERC721(\n        address token,\n        string calldata tokenSymbol,\n        address payable from,\n        address to,\n        uint256 tokenId,\n        bytes calldata tokenData,\n        uint256 fees,\n        bytes32 secretHash\n    ) \n        external\n        onlyActivator()\n    {\n        bytes32 id = keccak256(abi.encode(token, tokenSymbol, from, to, tokenId, tokenData, fees, secretHash));\n        uint256 tr = s_erc721Transfers[id];\n        require(tr > 0, \"SafeTransfer: request not exist\");\n        require(uint64(tr) <= now, \"SafeTranfer: not expired\");\n        delete  s_erc721Transfers[id];\n        s_fees = s_fees + (tr>>128); // autoRetreive fees\n        from.transfer(fees.sub(tr>>128));\n        emit ERC721Retrieved(token, from, to, id, tokenId);\n    }\n\n    // ----------------------- Hidden ETH / ERC-20 / ERC-721 -----------------------\n\n    function hiddenDeposit(bytes32 id1) \n        payable external\n    {\n        bytes32 id = keccak256(abi.encode(msg.sender, msg.value, id1));\n        require(s_htransfers[id] == 0, \"SafeTransfer: request exist\"); \n        s_htransfers[id] = 0xffffffffffffffff;\n        emit HDeposited(msg.sender, msg.value, id1);\n    }\n\n    function hiddenTimedDeposit(\n        bytes32 id1,\n        uint64 availableAt,\n        uint64 expiresAt,\n        uint128 autoRetrieveFees\n    ) \n        payable external\n    {\n        require(msg.value >= autoRetrieveFees, \"SafeTransfers: autoRetrieveFees exeed value\");\n        bytes32 id = keccak256(abi.encode(msg.sender, msg.value, id1));\n        require(s_htransfers[id] == 0, \"SafeTransfer: request exist\");\n        require(expiresAt > now, \"SafeTransfer: already expired\"); \n        s_htransfers[id] = uint256(expiresAt) + (uint256(availableAt) << 64) + (uint256(autoRetrieveFees) << 128);\n        emit HTimedDeposited(msg.sender, msg.value, id1, availableAt, expiresAt, autoRetrieveFees);\n    }\n\n    function hiddenRetrieve(\n        bytes32 id1,\n        uint256 value\n    )   \n        external \n    {\n        bytes32 id = keccak256(abi.encode(msg.sender, value, id1));\n        require(s_htransfers[id]  > 0, \"SafeTransfer: request not exist\");\n        delete s_htransfers[id];\n        msg.sender.transfer(value);\n        emit HRetrieved(msg.sender, id1, value);\n    }\n\n    function hiddenCollect(\n        address from,\n        address payable to,\n        uint256 value,\n        uint256 fees,\n        bytes32 secretHash,\n        bytes calldata secret,\n        uint8 v,\n        bytes32 r,\n        bytes32 s\n    ) \n        external\n        onlyActivator()\n    {\n        bytes32 id1 = keccak256(abi.encode(HIDDEN_COLLECT_TYPEHASH, from, to, value, fees, secretHash));\n        require(ecrecover(keccak256(abi.encodePacked(\"\\x19\\x01\", DOMAIN_SEPARATOR, id1)), v, r, s) == from, \"SafeTransfer: wrong signature\");\n        bytes32 id = keccak256(abi.encode(from, value.add(fees), id1));\n        uint256 tr = s_htransfers[id];\n        require(tr > 0, \"SafeTransfer: request not exist\");\n        require(uint64(tr) > now, \"SafeTranfer: expired\");\n        require(uint64(tr>>64) <= now, \"SafeTranfer: not available yet\");\n        require(keccak256(secret) == secretHash, \"SafeTransfer: wrong secret\");\n        delete s_htransfers[id];\n        s_fees = s_fees.add(fees);\n        to.transfer(value);\n        emit HCollected(from, to, id1, value);\n    }\n\n    function hiddenCollectERC20(\n        address from,\n        address to,\n        address token,\n        string memory tokenSymbol,\n        uint256 value,\n        uint256 fees,\n        bytes32 secretHash,\n        bytes calldata secret,\n        uint8 v,\n        bytes32 r,\n        bytes32 s\n    ) \n        external\n        onlyActivator()\n    {\n        TokenInfo memory tinfo;\n        tinfo.id1 = keccak256(abi.encode(HIDDEN_ERC20_COLLECT_TYPEHASH, from, to, token, tokenSymbol, value, fees, secretHash));\n        require(ecrecover(keccak256(abi.encodePacked(\"\\x19\\x01\", DOMAIN_SEPARATOR, tinfo.id1)), v, r, s) == from, \"SafeTransfer: wrong signature\");\n        tinfo.id = keccak256(abi.encode(from, fees, tinfo.id1));\n        uint256 tr = s_htransfers[tinfo.id];\n        require(tr > 0, \"SafeTransfer: request not exist\");\n        require(uint64(tr) > now, \"SafeTranfer: expired\");\n        require(uint64(tr>>64) <= now, \"SafeTranfer: not available yet\");\n        require(keccak256(secret) == secretHash, \"SafeTransfer: wrong secret\");\n        delete s_htransfers[tinfo.id];\n        s_fees = s_fees.add(fees);\n        IERC20(token).safeTransferFrom(from, to, value);\n        emit HERC20Collected(token, from, to, tinfo.id1, value);\n    }\n\n    function hiddenCollectERC721(\n        address from,\n        address to,\n        address token,\n        string memory tokenSymbol,\n        uint256 tokenId,\n        bytes memory tokenData,\n        uint256 fees,\n        bytes32 secretHash,\n        bytes calldata secret,\n        uint8 v,\n        bytes32 r,\n        bytes32 s\n    ) \n        external\n        onlyActivator()\n    {\n        TokenInfo memory tinfo;\n        tinfo.id1 = keccak256(abi.encode(HIDDEN_ERC721_COLLECT_TYPEHASH, from, to, token, tokenSymbol, tokenId, tokenData, fees, secretHash));\n        require(ecrecover(keccak256(abi.encodePacked(\"\\x19\\x01\", DOMAIN_SEPARATOR, tinfo.id1)), v, r, s) == from, \"SafeTransfer: wrong signature\");\n        tinfo.id = keccak256(abi.encode(from, fees, tinfo.id1));\n        tinfo.tr = s_htransfers[tinfo.id]; \n        require(tinfo.tr > 0, \"SafeTransfer: request not exist\");\n        require(uint64(tinfo.tr) > now, \"SafeTranfer: expired\");\n        require(uint64(tinfo.tr>>64) <= now, \"SafeTranfer: not available yet\");\n        require(keccak256(secret) == secretHash, \"SafeTransfer: wrong secret\");\n        delete s_htransfers[tinfo.id];\n        s_fees = s_fees.add(fees);\n        IERC721(token).safeTransferFrom(from, to, tokenId, tokenData);\n        emit HERC721Collected(token, from, to, tinfo.id1, tokenId);\n    }\n\n   function hiddenAutoRetrieve(\n        address payable from,\n        bytes32 id1,\n        uint256 value\n    ) \n        external\n        onlyActivator()\n    {\n        bytes32 id = keccak256(abi.encode(from, value, id1));\n        uint256 tr = s_htransfers[id];\n        require(tr > 0, \"SafeTransfer: request not exist\");\n        require(uint64(tr) <= now, \"SafeTranfer: not expired\");\n        delete  s_htransfers[id];\n        s_fees = s_fees + (tr>>128);\n        uint256 toRetrieve = value.sub(tr>>128);\n        from.transfer(toRetrieve);\n        emit HRetrieved(from, id1, toRetrieve);\n    }\n\n}\n",
  "sourcePath": "/Users/tal/code/kirobo/ki-eth-token/contracts/SafeTransfer.sol",
  "compiler": {
    "name": "solc",
    "version": "0.6.12+commit.27d51765.Emscripten.clang"
  },
  "schemaVersion": "3.4.1",
  "updatedAt": "2021-07-22T21:40:18.620Z",
  "devdoc": {
    "kind": "dev",
    "methods": {
      "getRoleAdmin(bytes32)": {
        "details": "Returns the admin role that controls `role`. See {grantRole} and {revokeRole}. To change a role's admin, use {_setRoleAdmin}."
      },
      "getRoleMember(bytes32,uint256)": {
        "details": "Returns one of the accounts that have `role`. `index` must be a value between 0 and {getRoleMemberCount}, non-inclusive. Role bearers are not sorted in any particular way, and their ordering may change at any point. WARNING: When using {getRoleMember} and {getRoleMemberCount}, make sure you perform all queries on the same block. See the following https://forum.openzeppelin.com/t/iterating-over-elements-on-enumerableset-in-openzeppelin-contracts/2296[forum post] for more information."
      },
      "getRoleMemberCount(bytes32)": {
        "details": "Returns the number of accounts that have `role`. Can be used together with {getRoleMember} to enumerate all bearers of a role."
      },
      "grantRole(bytes32,address)": {
        "details": "Grants `role` to `account`. If `account` had not been already granted `role`, emits a {RoleGranted} event. Requirements: - the caller must have ``role``'s admin role."
      },
      "hasRole(bytes32,address)": {
        "details": "Returns `true` if `account` has been granted `role`."
      },
      "renounceRole(bytes32,address)": {
        "details": "Revokes `role` from the calling account. Roles are often managed via {grantRole} and {revokeRole}: this function's purpose is to provide a mechanism for accounts to lose their privileges if they are compromised (such as when a trusted device is misplaced). If the calling account had been granted `role`, emits a {RoleRevoked} event. Requirements: - the caller must be `account`."
      },
      "revokeRole(bytes32,address)": {
        "details": "Revokes `role` from `account`. If `account` had been granted `role`, emits a {RoleRevoked} event. Requirements: - the caller must have ``role``'s admin role."
      }
    },
    "version": 1
  },
  "userdoc": {
    "kind": "user",
    "methods": {},
    "version": 1
  }
}