{
  "contractName": "SafeForERC1155",
  "abi": [
    {
      "inputs": [
        {
          "internalType": "address",
          "name": "activator",
          "type": "address"
        }
      ],
      "stateMutability": "nonpayable",
      "type": "constructor"
    },
    {
      "anonymous": false,
      "inputs": [
        {
          "indexed": true,
          "internalType": "address",
          "name": "token",
          "type": "address"
        },
        {
          "indexed": true,
          "internalType": "address",
          "name": "from",
          "type": "address"
        },
        {
          "indexed": true,
          "internalType": "address",
          "name": "to",
          "type": "address"
        },
        {
          "indexed": false,
          "internalType": "uint256[]",
          "name": "tokenIds",
          "type": "uint256[]"
        },
        {
          "indexed": false,
          "internalType": "uint256[]",
          "name": "values",
          "type": "uint256[]"
        },
        {
          "indexed": false,
          "internalType": "uint256",
          "name": "fees",
          "type": "uint256"
        },
        {
          "indexed": false,
          "internalType": "bytes32",
          "name": "secretHash",
          "type": "bytes32"
        }
      ],
      "name": "ERC1155BatchTransferDeposited",
      "type": "event"
    },
    {
      "anonymous": false,
      "inputs": [
        {
          "indexed": true,
          "internalType": "address",
          "name": "token",
          "type": "address"
        },
        {
          "indexed": true,
          "internalType": "address",
          "name": "from",
          "type": "address"
        },
        {
          "indexed": true,
          "internalType": "address",
          "name": "to",
          "type": "address"
        },
        {
          "indexed": false,
          "internalType": "uint256[]",
          "name": "tokenIds",
          "type": "uint256[]"
        },
        {
          "indexed": false,
          "internalType": "uint256[]",
          "name": "values",
          "type": "uint256[]"
        }
      ],
      "name": "ERC1155BatchTransferRetrieved",
      "type": "event"
    },
    {
      "anonymous": false,
      "inputs": [
        {
          "indexed": true,
          "internalType": "address",
          "name": "token",
          "type": "address"
        },
        {
          "indexed": true,
          "internalType": "address",
          "name": "from",
          "type": "address"
        },
        {
          "indexed": true,
          "internalType": "address",
          "name": "to",
          "type": "address"
        },
        {
          "indexed": false,
          "internalType": "bytes32",
          "name": "id",
          "type": "bytes32"
        }
      ],
      "name": "ERC1155Collected",
      "type": "event"
    },
    {
      "anonymous": false,
      "inputs": [
        {
          "indexed": true,
          "internalType": "address",
          "name": "from",
          "type": "address"
        },
        {
          "indexed": true,
          "internalType": "address",
          "name": "to",
          "type": "address"
        },
        {
          "indexed": true,
          "internalType": "address",
          "name": "token0",
          "type": "address"
        },
        {
          "indexed": false,
          "internalType": "uint256[]",
          "name": "tokenIds0",
          "type": "uint256[]"
        },
        {
          "indexed": false,
          "internalType": "uint256[]",
          "name": "values0",
          "type": "uint256[]"
        },
        {
          "indexed": false,
          "internalType": "uint256",
          "name": "fees0",
          "type": "uint256"
        },
        {
          "indexed": false,
          "internalType": "address",
          "name": "token1",
          "type": "address"
        },
        {
          "indexed": false,
          "internalType": "uint256[]",
          "name": "tokenIds1",
          "type": "uint256[]"
        },
        {
          "indexed": false,
          "internalType": "uint256[]",
          "name": "values1",
          "type": "uint256[]"
        },
        {
          "indexed": false,
          "internalType": "uint256",
          "name": "fees1",
          "type": "uint256"
        },
        {
          "indexed": false,
          "internalType": "bytes32",
          "name": "secretHash",
          "type": "bytes32"
        }
      ],
      "name": "ERC1155SwapDeposited",
      "type": "event"
    },
    {
      "anonymous": false,
      "inputs": [
        {
          "indexed": true,
          "internalType": "address",
          "name": "from",
          "type": "address"
        },
        {
          "indexed": true,
          "internalType": "address",
          "name": "to",
          "type": "address"
        },
        {
          "indexed": true,
          "internalType": "address",
          "name": "token",
          "type": "address"
        },
        {
          "indexed": false,
          "internalType": "bytes32",
          "name": "id",
          "type": "bytes32"
        }
      ],
      "name": "ERC1155SwapRetrieved",
      "type": "event"
    },
    {
      "anonymous": false,
      "inputs": [
        {
          "indexed": true,
          "internalType": "address",
          "name": "from",
          "type": "address"
        },
        {
          "indexed": true,
          "internalType": "address",
          "name": "to",
          "type": "address"
        },
        {
          "indexed": true,
          "internalType": "address",
          "name": "token0",
          "type": "address"
        },
        {
          "indexed": false,
          "internalType": "uint256[]",
          "name": "tokenIds0",
          "type": "uint256[]"
        },
        {
          "indexed": false,
          "internalType": "uint256[]",
          "name": "values0",
          "type": "uint256[]"
        },
        {
          "indexed": false,
          "internalType": "address",
          "name": "token1",
          "type": "address"
        },
        {
          "indexed": false,
          "internalType": "uint256[]",
          "name": "tokenIds1",
          "type": "uint256[]"
        },
        {
          "indexed": false,
          "internalType": "uint256[]",
          "name": "values1",
          "type": "uint256[]"
        },
        {
          "indexed": false,
          "internalType": "bytes32",
          "name": "id",
          "type": "bytes32"
        }
      ],
      "name": "ERC1155Swapped",
      "type": "event"
    },
    {
      "anonymous": false,
      "inputs": [
        {
          "indexed": true,
          "internalType": "address",
          "name": "token",
          "type": "address"
        },
        {
          "indexed": true,
          "internalType": "address",
          "name": "from",
          "type": "address"
        },
        {
          "indexed": true,
          "internalType": "address",
          "name": "to",
          "type": "address"
        },
        {
          "indexed": false,
          "internalType": "uint256",
          "name": "tokenId",
          "type": "uint256"
        },
        {
          "indexed": false,
          "internalType": "uint256",
          "name": "value",
          "type": "uint256"
        },
        {
          "indexed": false,
          "internalType": "uint256",
          "name": "fees",
          "type": "uint256"
        },
        {
          "indexed": false,
          "internalType": "bytes32",
          "name": "secretHash",
          "type": "bytes32"
        }
      ],
      "name": "ERC1155TransferDeposited",
      "type": "event"
    },
    {
      "anonymous": false,
      "inputs": [
        {
          "indexed": true,
          "internalType": "address",
          "name": "token",
          "type": "address"
        },
        {
          "indexed": true,
          "internalType": "address",
          "name": "from",
          "type": "address"
        },
        {
          "indexed": true,
          "internalType": "address",
          "name": "to",
          "type": "address"
        },
        {
          "indexed": false,
          "internalType": "bytes32",
          "name": "id",
          "type": "bytes32"
        }
      ],
      "name": "ERC1155TransferRetrieved",
      "type": "event"
    },
    {
      "anonymous": false,
      "inputs": [
        {
          "indexed": true,
          "internalType": "address",
          "name": "token",
          "type": "address"
        },
        {
          "indexed": true,
          "internalType": "address",
          "name": "from",
          "type": "address"
        },
        {
          "indexed": true,
          "internalType": "address",
          "name": "to",
          "type": "address"
        },
        {
          "indexed": false,
          "internalType": "bytes32",
          "name": "id",
          "type": "bytes32"
        }
      ],
      "name": "ERC721Retrieved",
      "type": "event"
    },
    {
      "anonymous": false,
      "inputs": [
        {
          "indexed": true,
          "internalType": "address",
          "name": "from",
          "type": "address"
        },
        {
          "indexed": true,
          "internalType": "address",
          "name": "to",
          "type": "address"
        },
        {
          "indexed": true,
          "internalType": "bytes32",
          "name": "id",
          "type": "bytes32"
        },
        {
          "indexed": false,
          "internalType": "uint256",
          "name": "value",
          "type": "uint256"
        }
      ],
      "name": "Retrieved",
      "type": "event"
    },
    {
      "anonymous": false,
      "inputs": [
        {
          "indexed": true,
          "internalType": "bytes32",
          "name": "role",
          "type": "bytes32"
        },
        {
          "indexed": true,
          "internalType": "bytes32",
          "name": "previousAdminRole",
          "type": "bytes32"
        },
        {
          "indexed": true,
          "internalType": "bytes32",
          "name": "newAdminRole",
          "type": "bytes32"
        }
      ],
      "name": "RoleAdminChanged",
      "type": "event"
    },
    {
      "anonymous": false,
      "inputs": [
        {
          "indexed": true,
          "internalType": "bytes32",
          "name": "role",
          "type": "bytes32"
        },
        {
          "indexed": true,
          "internalType": "address",
          "name": "account",
          "type": "address"
        },
        {
          "indexed": true,
          "internalType": "address",
          "name": "sender",
          "type": "address"
        }
      ],
      "name": "RoleGranted",
      "type": "event"
    },
    {
      "anonymous": false,
      "inputs": [
        {
          "indexed": true,
          "internalType": "bytes32",
          "name": "role",
          "type": "bytes32"
        },
        {
          "indexed": true,
          "internalType": "address",
          "name": "account",
          "type": "address"
        },
        {
          "indexed": true,
          "internalType": "address",
          "name": "sender",
          "type": "address"
        }
      ],
      "name": "RoleRevoked",
      "type": "event"
    },
    {
      "anonymous": false,
      "inputs": [
        {
          "indexed": true,
          "internalType": "address",
          "name": "from",
          "type": "address"
        },
        {
          "indexed": true,
          "internalType": "address",
          "name": "to",
          "type": "address"
        },
        {
          "indexed": true,
          "internalType": "address",
          "name": "token0",
          "type": "address"
        },
        {
          "indexed": false,
          "internalType": "uint256[]",
          "name": "tokenIds0",
          "type": "uint256[]"
        },
        {
          "indexed": false,
          "internalType": "uint256[]",
          "name": "values0",
          "type": "uint256[]"
        },
        {
          "indexed": false,
          "internalType": "bytes",
          "name": "tokenData0",
          "type": "bytes"
        },
        {
          "indexed": false,
          "internalType": "uint256",
          "name": "fees0",
          "type": "uint256"
        },
        {
          "indexed": false,
          "internalType": "address",
          "name": "token1",
          "type": "address"
        },
        {
          "indexed": false,
          "internalType": "uint256",
          "name": "value1",
          "type": "uint256"
        },
        {
          "indexed": false,
          "internalType": "uint256",
          "name": "fees1",
          "type": "uint256"
        },
        {
          "indexed": false,
          "internalType": "bytes32",
          "name": "secretHash",
          "type": "bytes32"
        }
      ],
      "name": "swapDepositERC1155ToERC20Event",
      "type": "event"
    },
    {
      "anonymous": false,
      "inputs": [
        {
          "indexed": true,
          "internalType": "address",
          "name": "from",
          "type": "address"
        },
        {
          "indexed": true,
          "internalType": "address",
          "name": "to",
          "type": "address"
        },
        {
          "indexed": true,
          "internalType": "address",
          "name": "token0",
          "type": "address"
        },
        {
          "indexed": false,
          "internalType": "uint256",
          "name": "value0",
          "type": "uint256"
        },
        {
          "indexed": false,
          "internalType": "uint256",
          "name": "fees0",
          "type": "uint256"
        },
        {
          "indexed": false,
          "internalType": "address",
          "name": "token1",
          "type": "address"
        },
        {
          "indexed": false,
          "internalType": "uint256[]",
          "name": "tokenIds1",
          "type": "uint256[]"
        },
        {
          "indexed": false,
          "internalType": "uint256[]",
          "name": "values1",
          "type": "uint256[]"
        },
        {
          "indexed": false,
          "internalType": "bytes",
          "name": "tokenData1",
          "type": "bytes"
        },
        {
          "indexed": false,
          "internalType": "uint256",
          "name": "fees1",
          "type": "uint256"
        },
        {
          "indexed": false,
          "internalType": "bytes32",
          "name": "secretHash",
          "type": "bytes32"
        }
      ],
      "name": "swapDepositERC20ToERC1155Event",
      "type": "event"
    },
    {
      "anonymous": false,
      "inputs": [
        {
          "indexed": true,
          "internalType": "address",
          "name": "from",
          "type": "address"
        },
        {
          "indexed": true,
          "internalType": "address",
          "name": "to",
          "type": "address"
        },
        {
          "indexed": true,
          "internalType": "address",
          "name": "token0",
          "type": "address"
        },
        {
          "indexed": false,
          "internalType": "uint256[]",
          "name": "tokenIds0",
          "type": "uint256[]"
        },
        {
          "indexed": false,
          "internalType": "uint256[]",
          "name": "values0",
          "type": "uint256[]"
        },
        {
          "indexed": false,
          "internalType": "bytes",
          "name": "tokenData0",
          "type": "bytes"
        },
        {
          "indexed": false,
          "internalType": "address",
          "name": "token1",
          "type": "address"
        },
        {
          "indexed": false,
          "internalType": "uint256",
          "name": "value1",
          "type": "uint256"
        },
        {
          "indexed": false,
          "internalType": "bytes32",
          "name": "id",
          "type": "bytes32"
        }
      ],
      "name": "swapERC1155ToERC20Event",
      "type": "event"
    },
    {
      "anonymous": false,
      "inputs": [
        {
          "indexed": true,
          "internalType": "address",
          "name": "from",
          "type": "address"
        },
        {
          "indexed": true,
          "internalType": "address",
          "name": "to",
          "type": "address"
        },
        {
          "indexed": true,
          "internalType": "address",
          "name": "token0",
          "type": "address"
        },
        {
          "indexed": false,
          "internalType": "uint256[]",
          "name": "tokenIds0",
          "type": "uint256[]"
        },
        {
          "indexed": false,
          "internalType": "uint256[]",
          "name": "values0",
          "type": "uint256[]"
        },
        {
          "indexed": false,
          "internalType": "address",
          "name": "token1",
          "type": "address"
        },
        {
          "indexed": false,
          "internalType": "uint256",
          "name": "value1",
          "type": "uint256"
        },
        {
          "indexed": false,
          "internalType": "bytes32",
          "name": "id",
          "type": "bytes32"
        }
      ],
      "name": "swapERC1155ToETHEvent",
      "type": "event"
    },
    {
      "anonymous": false,
      "inputs": [
        {
          "indexed": true,
          "internalType": "address",
          "name": "from",
          "type": "address"
        },
        {
          "indexed": true,
          "internalType": "address",
          "name": "to",
          "type": "address"
        },
        {
          "indexed": true,
          "internalType": "address",
          "name": "token0",
          "type": "address"
        },
        {
          "indexed": false,
          "internalType": "uint256",
          "name": "value0",
          "type": "uint256"
        },
        {
          "indexed": false,
          "internalType": "address",
          "name": "token1",
          "type": "address"
        },
        {
          "indexed": false,
          "internalType": "uint256[]",
          "name": "tokenIds1",
          "type": "uint256[]"
        },
        {
          "indexed": false,
          "internalType": "uint256[]",
          "name": "values1",
          "type": "uint256[]"
        },
        {
          "indexed": false,
          "internalType": "bytes",
          "name": "tokenData1",
          "type": "bytes"
        },
        {
          "indexed": false,
          "internalType": "bytes32",
          "name": "id",
          "type": "bytes32"
        }
      ],
      "name": "swapERC20ToERC1155Event",
      "type": "event"
    },
    {
      "anonymous": false,
      "inputs": [
        {
          "indexed": true,
          "internalType": "address",
          "name": "from",
          "type": "address"
        },
        {
          "indexed": true,
          "internalType": "address",
          "name": "to",
          "type": "address"
        },
        {
          "indexed": true,
          "internalType": "address",
          "name": "token0",
          "type": "address"
        },
        {
          "indexed": false,
          "internalType": "uint256[]",
          "name": "tokenIds0",
          "type": "uint256[]"
        },
        {
          "indexed": false,
          "internalType": "uint256[]",
          "name": "values0",
          "type": "uint256[]"
        },
        {
          "indexed": false,
          "internalType": "bytes",
          "name": "tokenData0",
          "type": "bytes"
        },
        {
          "indexed": false,
          "internalType": "bytes32",
          "name": "id",
          "type": "bytes32"
        }
      ],
      "name": "swapRetrieveERC1155ToERC20Event",
      "type": "event"
    },
    {
      "anonymous": false,
      "inputs": [
        {
          "indexed": true,
          "internalType": "address",
          "name": "from",
          "type": "address"
        },
        {
          "indexed": true,
          "internalType": "address",
          "name": "to",
          "type": "address"
        },
        {
          "indexed": true,
          "internalType": "address",
          "name": "token0",
          "type": "address"
        },
        {
          "indexed": false,
          "internalType": "uint256",
          "name": "value0",
          "type": "uint256"
        },
        {
          "indexed": false,
          "internalType": "bytes32",
          "name": "id",
          "type": "bytes32"
        }
      ],
      "name": "swapRetrieveERC20ToERC1155Event",
      "type": "event"
    },
    {
      "inputs": [],
      "name": "ACTIVATOR_ROLE",
      "outputs": [
        {
          "internalType": "bytes32",
          "name": "",
          "type": "bytes32"
        }
      ],
      "stateMutability": "view",
      "type": "function"
    },
    {
      "inputs": [],
      "name": "CHAIN_ID",
      "outputs": [
        {
          "internalType": "uint256",
          "name": "",
          "type": "uint256"
        }
      ],
      "stateMutability": "view",
      "type": "function"
    },
    {
      "inputs": [],
      "name": "DEFAULT_ADMIN_ROLE",
      "outputs": [
        {
          "internalType": "bytes32",
          "name": "",
          "type": "bytes32"
        }
      ],
      "stateMutability": "view",
      "type": "function"
    },
    {
      "inputs": [],
      "name": "DOMAIN_SEPARATOR",
      "outputs": [
        {
          "internalType": "bytes32",
          "name": "",
          "type": "bytes32"
        }
      ],
      "stateMutability": "view",
      "type": "function"
    },
    {
      "inputs": [],
      "name": "NAME",
      "outputs": [
        {
          "internalType": "string",
          "name": "",
          "type": "string"
        }
      ],
      "stateMutability": "view",
      "type": "function"
    },
    {
      "inputs": [],
      "name": "VERSION",
      "outputs": [
        {
          "internalType": "string",
          "name": "",
          "type": "string"
        }
      ],
      "stateMutability": "view",
      "type": "function"
    },
    {
      "inputs": [],
      "name": "VERSION_NUMBER",
      "outputs": [
        {
          "internalType": "uint8",
          "name": "",
          "type": "uint8"
        }
      ],
      "stateMutability": "view",
      "type": "function"
    },
    {
      "inputs": [
        {
          "internalType": "bytes32",
          "name": "role",
          "type": "bytes32"
        }
      ],
      "name": "getRoleAdmin",
      "outputs": [
        {
          "internalType": "bytes32",
          "name": "",
          "type": "bytes32"
        }
      ],
      "stateMutability": "view",
      "type": "function"
    },
    {
      "inputs": [
        {
          "internalType": "bytes32",
          "name": "role",
          "type": "bytes32"
        },
        {
          "internalType": "uint256",
          "name": "index",
          "type": "uint256"
        }
      ],
      "name": "getRoleMember",
      "outputs": [
        {
          "internalType": "address",
          "name": "",
          "type": "address"
        }
      ],
      "stateMutability": "view",
      "type": "function"
    },
    {
      "inputs": [
        {
          "internalType": "bytes32",
          "name": "role",
          "type": "bytes32"
        }
      ],
      "name": "getRoleMemberCount",
      "outputs": [
        {
          "internalType": "uint256",
          "name": "",
          "type": "uint256"
        }
      ],
      "stateMutability": "view",
      "type": "function"
    },
    {
      "inputs": [
        {
          "internalType": "bytes32",
          "name": "role",
          "type": "bytes32"
        },
        {
          "internalType": "address",
          "name": "account",
          "type": "address"
        }
      ],
      "name": "grantRole",
      "outputs": [],
      "stateMutability": "nonpayable",
      "type": "function"
    },
    {
      "inputs": [
        {
          "internalType": "bytes32",
          "name": "role",
          "type": "bytes32"
        },
        {
          "internalType": "address",
          "name": "account",
          "type": "address"
        }
      ],
      "name": "hasRole",
      "outputs": [
        {
          "internalType": "bool",
          "name": "",
          "type": "bool"
        }
      ],
      "stateMutability": "view",
      "type": "function"
    },
    {
      "inputs": [
        {
          "internalType": "bytes32",
          "name": "role",
          "type": "bytes32"
        },
        {
          "internalType": "address",
          "name": "account",
          "type": "address"
        }
      ],
      "name": "renounceRole",
      "outputs": [],
      "stateMutability": "nonpayable",
      "type": "function"
    },
    {
      "inputs": [
        {
          "internalType": "bytes32",
          "name": "role",
          "type": "bytes32"
        },
        {
          "internalType": "address",
          "name": "account",
          "type": "address"
        }
      ],
      "name": "revokeRole",
      "outputs": [],
      "stateMutability": "nonpayable",
      "type": "function"
    },
    {
      "stateMutability": "payable",
      "type": "receive"
    },
    {
      "inputs": [
        {
          "internalType": "address payable",
          "name": "wallet",
          "type": "address"
        },
        {
          "internalType": "uint256",
          "name": "value",
          "type": "uint256"
        }
      ],
      "name": "transferFees",
      "outputs": [],
      "stateMutability": "nonpayable",
      "type": "function"
    },
    {
      "inputs": [],
      "name": "totalFees",
      "outputs": [
        {
          "internalType": "uint256",
          "name": "",
          "type": "uint256"
        }
      ],
      "stateMutability": "view",
      "type": "function"
    },
    {
      "inputs": [
        {
          "internalType": "address",
          "name": "token",
          "type": "address"
        },
        {
          "internalType": "address",
          "name": "to",
          "type": "address"
        },
        {
          "internalType": "uint256",
          "name": "tokenId",
          "type": "uint256"
        },
        {
          "internalType": "uint256",
          "name": "value",
          "type": "uint256"
        },
        {
          "internalType": "bytes",
          "name": "tokenData",
          "type": "bytes"
        },
        {
          "internalType": "uint256",
          "name": "fees",
          "type": "uint256"
        },
        {
          "internalType": "bytes32",
          "name": "secretHash",
          "type": "bytes32"
        }
      ],
      "name": "depositERC1155",
      "outputs": [],
      "stateMutability": "payable",
      "type": "function"
    },
    {
      "inputs": [
        {
          "internalType": "address",
          "name": "token",
          "type": "address"
        },
        {
          "internalType": "address",
          "name": "to",
          "type": "address"
        },
        {
          "internalType": "uint256",
          "name": "tokenId",
          "type": "uint256"
        },
        {
          "internalType": "uint256",
          "name": "value",
          "type": "uint256"
        },
        {
          "internalType": "bytes",
          "name": "tokenData",
          "type": "bytes"
        },
        {
          "internalType": "uint256",
          "name": "fees",
          "type": "uint256"
        },
        {
          "internalType": "bytes32",
          "name": "secretHash",
          "type": "bytes32"
        }
      ],
      "name": "retrieveERC1155",
      "outputs": [],
      "stateMutability": "nonpayable",
      "type": "function"
    },
    {
      "inputs": [
        {
          "internalType": "address",
          "name": "token",
          "type": "address"
        },
        {
          "internalType": "address",
          "name": "from",
          "type": "address"
        },
        {
          "internalType": "address payable",
          "name": "to",
          "type": "address"
        },
        {
          "internalType": "uint256",
          "name": "tokenId",
          "type": "uint256"
        },
        {
          "internalType": "uint256",
          "name": "value",
          "type": "uint256"
        },
        {
          "internalType": "bytes",
          "name": "tokenData",
          "type": "bytes"
        },
        {
          "internalType": "uint256",
          "name": "fees",
          "type": "uint256"
        },
        {
          "internalType": "bytes32",
          "name": "secretHash",
          "type": "bytes32"
        },
        {
          "internalType": "bytes",
          "name": "secret",
          "type": "bytes"
        }
      ],
      "name": "collectERC1155",
      "outputs": [],
      "stateMutability": "nonpayable",
      "type": "function"
    },
    {
      "inputs": [
        {
          "internalType": "address",
          "name": "token",
          "type": "address"
        },
        {
          "internalType": "address",
          "name": "to",
          "type": "address"
        },
        {
          "internalType": "uint256[]",
          "name": "tokenIds",
          "type": "uint256[]"
        },
        {
          "internalType": "uint256[]",
          "name": "values",
          "type": "uint256[]"
        },
        {
          "internalType": "bytes",
          "name": "tokenData",
          "type": "bytes"
        },
        {
          "internalType": "uint256",
          "name": "fees",
          "type": "uint256"
        },
        {
          "internalType": "bytes32",
          "name": "secretHash",
          "type": "bytes32"
        }
      ],
      "name": "depositBatchERC1155",
      "outputs": [],
      "stateMutability": "payable",
      "type": "function"
    },
    {
      "inputs": [
        {
          "internalType": "address",
          "name": "token",
          "type": "address"
        },
        {
          "internalType": "address",
          "name": "to",
          "type": "address"
        },
        {
          "internalType": "uint256[]",
          "name": "tokenIds",
          "type": "uint256[]"
        },
        {
          "internalType": "uint256[]",
          "name": "values",
          "type": "uint256[]"
        },
        {
          "internalType": "bytes",
          "name": "tokenData",
          "type": "bytes"
        },
        {
          "internalType": "uint256",
          "name": "fees",
          "type": "uint256"
        },
        {
          "internalType": "bytes32",
          "name": "secretHash",
          "type": "bytes32"
        }
      ],
      "name": "retrieveBatchERC1155",
      "outputs": [],
      "stateMutability": "nonpayable",
      "type": "function"
    },
    {
      "inputs": [
        {
          "internalType": "address",
          "name": "to",
          "type": "address"
        },
        {
          "internalType": "address",
          "name": "from",
          "type": "address"
        },
        {
          "components": [
            {
              "internalType": "address",
              "name": "token",
              "type": "address"
            },
            {
              "internalType": "uint256[]",
              "name": "tokenIds",
              "type": "uint256[]"
            },
            {
              "internalType": "uint256[]",
              "name": "values",
              "type": "uint256[]"
            },
            {
              "internalType": "bytes",
              "name": "tokenData",
              "type": "bytes"
            },
            {
              "internalType": "uint256",
              "name": "fees",
              "type": "uint256"
            },
            {
              "internalType": "bytes32",
              "name": "secretHash",
              "type": "bytes32"
            },
            {
              "internalType": "bytes",
              "name": "secret",
              "type": "bytes"
            }
          ],
          "internalType": "struct SafeForERC1155.CollectBatchERC1155Info",
          "name": "info",
          "type": "tuple"
        }
      ],
      "name": "collectBatchERC1155",
      "outputs": [],
      "stateMutability": "nonpayable",
      "type": "function"
    },
    {
      "inputs": [
        {
          "internalType": "address payable",
          "name": "to",
          "type": "address"
        },
        {
          "components": [
            {
              "internalType": "address",
              "name": "token0",
              "type": "address"
            },
            {
              "internalType": "uint256[]",
              "name": "tokenIds0",
              "type": "uint256[]"
            },
            {
              "internalType": "uint256[]",
              "name": "values0",
              "type": "uint256[]"
            },
            {
              "internalType": "bytes",
              "name": "tokenData0",
              "type": "bytes"
            },
            {
              "internalType": "uint256",
              "name": "fees0",
              "type": "uint256"
            },
            {
              "internalType": "address",
              "name": "token1",
              "type": "address"
            },
            {
              "internalType": "uint256[]",
              "name": "tokenIds1",
              "type": "uint256[]"
            },
            {
              "internalType": "uint256[]",
              "name": "values1",
              "type": "uint256[]"
            },
            {
              "internalType": "bytes",
              "name": "tokenData1",
              "type": "bytes"
            },
            {
              "internalType": "uint256",
              "name": "fees1",
              "type": "uint256"
            },
            {
              "internalType": "bytes32",
              "name": "secretHash",
              "type": "bytes32"
            }
          ],
          "internalType": "struct SafeForERC1155.SwapERC1155Info",
          "name": "info",
          "type": "tuple"
        }
      ],
      "name": "swapDepositERC1155",
      "outputs": [],
      "stateMutability": "payable",
      "type": "function"
    },
    {
      "inputs": [
        {
          "internalType": "address",
          "name": "to",
          "type": "address"
        },
        {
          "components": [
            {
              "internalType": "address",
              "name": "token0",
              "type": "address"
            },
            {
              "internalType": "uint256[]",
              "name": "tokenIds0",
              "type": "uint256[]"
            },
            {
              "internalType": "uint256[]",
              "name": "values0",
              "type": "uint256[]"
            },
            {
              "internalType": "bytes",
              "name": "tokenData0",
              "type": "bytes"
            },
            {
              "internalType": "uint256",
              "name": "fees0",
              "type": "uint256"
            },
            {
              "internalType": "address",
              "name": "token1",
              "type": "address"
            },
            {
              "internalType": "uint256[]",
              "name": "tokenIds1",
              "type": "uint256[]"
            },
            {
              "internalType": "uint256[]",
              "name": "values1",
              "type": "uint256[]"
            },
            {
              "internalType": "bytes",
              "name": "tokenData1",
              "type": "bytes"
            },
            {
              "internalType": "uint256",
              "name": "fees1",
              "type": "uint256"
            },
            {
              "internalType": "bytes32",
              "name": "secretHash",
              "type": "bytes32"
            }
          ],
          "internalType": "struct SafeForERC1155.SwapERC1155Info",
          "name": "info",
          "type": "tuple"
        }
      ],
      "name": "swapRetrieveERC1155",
      "outputs": [],
      "stateMutability": "nonpayable",
      "type": "function"
    },
    {
      "inputs": [
        {
          "internalType": "address payable",
          "name": "from",
          "type": "address"
        },
        {
          "components": [
            {
              "internalType": "address",
              "name": "token0",
              "type": "address"
            },
            {
              "internalType": "uint256[]",
              "name": "tokenIds0",
              "type": "uint256[]"
            },
            {
              "internalType": "uint256[]",
              "name": "values0",
              "type": "uint256[]"
            },
            {
              "internalType": "bytes",
              "name": "tokenData0",
              "type": "bytes"
            },
            {
              "internalType": "uint256",
              "name": "fees0",
              "type": "uint256"
            },
            {
              "internalType": "address",
              "name": "token1",
              "type": "address"
            },
            {
              "internalType": "uint256[]",
              "name": "tokenIds1",
              "type": "uint256[]"
            },
            {
              "internalType": "uint256[]",
              "name": "values1",
              "type": "uint256[]"
            },
            {
              "internalType": "bytes",
              "name": "tokenData1",
              "type": "bytes"
            },
            {
              "internalType": "uint256",
              "name": "fees1",
              "type": "uint256"
            },
            {
              "internalType": "bytes32",
              "name": "secretHash",
              "type": "bytes32"
            }
          ],
          "internalType": "struct SafeForERC1155.SwapERC1155Info",
          "name": "info",
          "type": "tuple"
        },
        {
          "internalType": "bytes",
          "name": "secret",
          "type": "bytes"
        }
      ],
      "name": "swapERC1155",
      "outputs": [],
      "stateMutability": "payable",
      "type": "function"
    },
    {
      "inputs": [
        {
          "internalType": "address payable",
          "name": "to",
          "type": "address"
        },
        {
          "components": [
            {
              "internalType": "address",
              "name": "token0",
              "type": "address"
            },
            {
              "internalType": "uint256[]",
              "name": "tokenIds0",
              "type": "uint256[]"
            },
            {
              "internalType": "uint256[]",
              "name": "values0",
              "type": "uint256[]"
            },
            {
              "internalType": "bytes",
              "name": "tokenData0",
              "type": "bytes"
            },
            {
              "internalType": "uint256",
              "name": "fees0",
              "type": "uint256"
            },
            {
              "internalType": "address",
              "name": "token1",
              "type": "address"
            },
            {
              "internalType": "uint256",
              "name": "value1",
              "type": "uint256"
            },
            {
              "internalType": "uint256",
              "name": "fees1",
              "type": "uint256"
            },
            {
              "internalType": "bytes32",
              "name": "secretHash",
              "type": "bytes32"
            }
          ],
          "internalType": "struct SafeForERC1155.SwapBatchERC1155ToERC20Info",
          "name": "info",
          "type": "tuple"
        }
      ],
      "name": "swapDepositERC1155ToERC20",
      "outputs": [],
      "stateMutability": "payable",
      "type": "function"
    },
    {
      "inputs": [
        {
          "internalType": "address",
          "name": "to",
          "type": "address"
        },
        {
          "components": [
            {
              "internalType": "address",
              "name": "token0",
              "type": "address"
            },
            {
              "internalType": "uint256[]",
              "name": "tokenIds0",
              "type": "uint256[]"
            },
            {
              "internalType": "uint256[]",
              "name": "values0",
              "type": "uint256[]"
            },
            {
              "internalType": "bytes",
              "name": "tokenData0",
              "type": "bytes"
            },
            {
              "internalType": "uint256",
              "name": "fees0",
              "type": "uint256"
            },
            {
              "internalType": "address",
              "name": "token1",
              "type": "address"
            },
            {
              "internalType": "uint256",
              "name": "value1",
              "type": "uint256"
            },
            {
              "internalType": "uint256",
              "name": "fees1",
              "type": "uint256"
            },
            {
              "internalType": "bytes32",
              "name": "secretHash",
              "type": "bytes32"
            }
          ],
          "internalType": "struct SafeForERC1155.SwapBatchERC1155ToERC20Info",
          "name": "info",
          "type": "tuple"
        }
      ],
      "name": "swapRetrieveERC1155ToERC20",
      "outputs": [],
      "stateMutability": "nonpayable",
      "type": "function"
    },
    {
      "inputs": [
        {
          "internalType": "address payable",
          "name": "from",
          "type": "address"
        },
        {
          "components": [
            {
              "internalType": "address",
              "name": "token0",
              "type": "address"
            },
            {
              "internalType": "uint256[]",
              "name": "tokenIds0",
              "type": "uint256[]"
            },
            {
              "internalType": "uint256[]",
              "name": "values0",
              "type": "uint256[]"
            },
            {
              "internalType": "bytes",
              "name": "tokenData0",
              "type": "bytes"
            },
            {
              "internalType": "uint256",
              "name": "fees0",
              "type": "uint256"
            },
            {
              "internalType": "address",
              "name": "token1",
              "type": "address"
            },
            {
              "internalType": "uint256",
              "name": "value1",
              "type": "uint256"
            },
            {
              "internalType": "uint256",
              "name": "fees1",
              "type": "uint256"
            },
            {
              "internalType": "bytes32",
              "name": "secretHash",
              "type": "bytes32"
            }
          ],
          "internalType": "struct SafeForERC1155.SwapBatchERC1155ToERC20Info",
          "name": "info",
          "type": "tuple"
        },
        {
          "internalType": "bytes",
          "name": "secret",
          "type": "bytes"
        }
      ],
      "name": "swapERC1155ToERC20",
      "outputs": [],
      "stateMutability": "payable",
      "type": "function"
    },
    {
      "inputs": [
        {
          "internalType": "address payable",
          "name": "to",
          "type": "address"
        },
        {
          "components": [
            {
              "internalType": "address",
              "name": "token0",
              "type": "address"
            },
            {
              "internalType": "uint256",
              "name": "value0",
              "type": "uint256"
            },
            {
              "internalType": "uint256",
              "name": "fees0",
              "type": "uint256"
            },
            {
              "internalType": "address",
              "name": "token1",
              "type": "address"
            },
            {
              "internalType": "uint256[]",
              "name": "tokenIds1",
              "type": "uint256[]"
            },
            {
              "internalType": "uint256[]",
              "name": "values1",
              "type": "uint256[]"
            },
            {
              "internalType": "bytes",
              "name": "tokenData1",
              "type": "bytes"
            },
            {
              "internalType": "uint256",
              "name": "fees1",
              "type": "uint256"
            },
            {
              "internalType": "bytes32",
              "name": "secretHash",
              "type": "bytes32"
            }
          ],
          "internalType": "struct SafeForERC1155.SwapERC20ToBatchERC1155Info",
          "name": "info",
          "type": "tuple"
        }
      ],
      "name": "swapDepositERC20ToERC1155",
      "outputs": [],
      "stateMutability": "payable",
      "type": "function"
    },
    {
      "inputs": [
        {
          "internalType": "address",
          "name": "to",
          "type": "address"
        },
        {
          "components": [
            {
              "internalType": "address",
              "name": "token0",
              "type": "address"
            },
            {
              "internalType": "uint256",
              "name": "value0",
              "type": "uint256"
            },
            {
              "internalType": "uint256",
              "name": "fees0",
              "type": "uint256"
            },
            {
              "internalType": "address",
              "name": "token1",
              "type": "address"
            },
            {
              "internalType": "uint256[]",
              "name": "tokenIds1",
              "type": "uint256[]"
            },
            {
              "internalType": "uint256[]",
              "name": "values1",
              "type": "uint256[]"
            },
            {
              "internalType": "bytes",
              "name": "tokenData1",
              "type": "bytes"
            },
            {
              "internalType": "uint256",
              "name": "fees1",
              "type": "uint256"
            },
            {
              "internalType": "bytes32",
              "name": "secretHash",
              "type": "bytes32"
            }
          ],
          "internalType": "struct SafeForERC1155.SwapERC20ToBatchERC1155Info",
          "name": "info",
          "type": "tuple"
        }
      ],
      "name": "swapRetrieveERC20ToERC1155",
      "outputs": [],
      "stateMutability": "nonpayable",
      "type": "function"
    },
    {
      "inputs": [
        {
          "internalType": "address payable",
          "name": "from",
          "type": "address"
        },
        {
          "components": [
            {
              "internalType": "address",
              "name": "token0",
              "type": "address"
            },
            {
              "internalType": "uint256",
              "name": "value0",
              "type": "uint256"
            },
            {
              "internalType": "uint256",
              "name": "fees0",
              "type": "uint256"
            },
            {
              "internalType": "address",
              "name": "token1",
              "type": "address"
            },
            {
              "internalType": "uint256[]",
              "name": "tokenIds1",
              "type": "uint256[]"
            },
            {
              "internalType": "uint256[]",
              "name": "values1",
              "type": "uint256[]"
            },
            {
              "internalType": "bytes",
              "name": "tokenData1",
              "type": "bytes"
            },
            {
              "internalType": "uint256",
              "name": "fees1",
              "type": "uint256"
            },
            {
              "internalType": "bytes32",
              "name": "secretHash",
              "type": "bytes32"
            }
          ],
          "internalType": "struct SafeForERC1155.SwapERC20ToBatchERC1155Info",
          "name": "info",
          "type": "tuple"
        },
        {
          "internalType": "bytes",
          "name": "secret",
          "type": "bytes"
        }
      ],
      "name": "swapERC20ToERC1155",
      "outputs": [],
      "stateMutability": "payable",
      "type": "function"
    }
  ],
  "bytecode": "0x60806040523480156200001157600080fd5b506040516200483e3803806200483e833981016040819052620000349162000299565b6200004160003362000185565b6200005c6000805160206200481e8339815191523362000185565b620000776000805160206200481e8339815191528262000185565b466002819055600160b01b600160f01b0360001943014060b01b1630908117600160f81b176003819055604080518082018252601481527f4b69726f626f2053616665205472616e736665720000000000000000000000006020918201528151808301835260018152603160f81b90820152905162000161937fd87cd6ef79d4e2b95e15ce8abf732db51ec771f1ca2edccf22a46c729ac56472937fa0e7867c78e9ee05b975f886625b0f857545d287fd4041f342f5f7398f7cf444937fc89efdaa54c0f20c7adf612882df0950f5a951637e0307cdcb4c672f298b8bc6938893929101620002c9565b604051602081830303815290604052805190602001206001819055505050620002fa565b62000191828262000195565b5050565b600082815260208181526040909120620001ba918390620025fb6200020e821b17901c565b156200019157620001ca6200022e565b6001600160a01b0316816001600160a01b0316837f2f8788117e7eff1d82e926ec794901d17c78024a50270940304540a733656f0d60405160405180910390a45050565b600062000225836001600160a01b03841662000232565b90505b92915050565b3390565b600062000240838362000281565b620002785750815460018181018455600084815260208082209093018490558454848252828601909352604090209190915562000228565b50600062000228565b60009081526001919091016020526040902054151590565b600060208284031215620002ab578081fd5b81516001600160a01b0381168114620002c2578182fd5b9392505050565b9586526020860194909452604085019290925260608401526001600160a01b0316608083015260a082015260c00190565b614514806200030a6000396000f3fe6080604052600436106101dc5760003560e01c806385e1f4d011610102578063ca15c87311610095578063e49a12dc11610064578063e49a12dc1461050b578063e78d7ba01461052b578063fea5c3e11461053e578063ffa1ad741461055e57610204565b8063ca15c87314610498578063d540f0c7146104b8578063d547741f146104cb578063de1fec38146104eb57610204565b80639b39afe2116100d15780639b39afe21461042e578063a217fddf14610441578063a3f4df7e14610456578063c7d74e9b1461047857610204565b806385e1f4d01461039f5780638b23d81b146103b45780639010d07c146103d457806391d148541461040157610204565b806349898f441161017a57806374ddc7511161014957806374ddc7511461033757806378e80e10146103575780638025e3031461036a578063848292dd1461038c57610204565b806349898f44146102de57806356422e7f146102fe57806359e10178146103115780636186dd171461032457610204565b80632f2ff15d116101b65780632f2ff15d146102695780633644e5151461028957806336568abe1461029e57806338225086146102be57610204565b806308740a3b1461020957806313114a9d14610234578063248a9ca31461024957610204565b366102045760405162461bcd60e51b81526004016101f990614294565b60405180910390fd5b005b600080fd5b34801561021557600080fd5b5061021e610573565b60405161022b9190613d34565b60405180910390f35b34801561024057600080fd5b5061021e610585565b34801561025557600080fd5b5061021e610264366004613554565b61058b565b34801561027557600080fd5b5061020261028436600461356c565b6105a0565b34801561029557600080fd5b5061021e6105e8565b3480156102aa57600080fd5b506102026102b936600461356c565b6105ee565b3480156102ca57600080fd5b506102026102d93660046130ab565b610630565b3480156102ea57600080fd5b506102026102f93660046131ea565b610893565b61020261030c366004613036565b610a53565b61020261031f3660046134ac565b610ce4565b610202610332366004613135565b610e06565b34801561034357600080fd5b506102026103523660046132c0565b610f8f565b6102026103653660046132c0565b61109e565b34801561037657600080fd5b5061037f6111b5565b60405161022b9190614446565b61020261039a3660046130ab565b6111ba565b3480156103ab57600080fd5b5061021e6115df565b3480156103c057600080fd5b506102026103cf36600461338c565b6115e5565b3480156103e057600080fd5b506103f46103ef36600461359b565b611816565b60405161022b91906136ac565b34801561040d57600080fd5b5061042161041c36600461356c565b611837565b60405161022b9190613d29565b61020261043c3660046130ee565b61184f565b34801561044d57600080fd5b5061021e611d91565b34801561046257600080fd5b5061046b611d96565b60405161022b9190613d3d565b34801561048457600080fd5b50610202610493366004612fe9565b611dc6565b3480156104a457600080fd5b5061021e6104b3366004613554565b611efe565b6102026104c6366004613178565b611f15565b3480156104d757600080fd5b506102026104e636600461356c565b61218e565b3480156104f757600080fd5b50610202610506366004613135565b6121c8565b34801561051757600080fd5b506102026105263660046131bf565b6122f3565b610202610539366004612fe9565b612372565b34801561054a57600080fd5b506102026105593660046134ac565b6124ee565b34801561056a57600080fd5b5061046b6125de565b6000805160206144bf83398151915281565b60045490565b60009081526020819052604090206002015490565b6000828152602081905260409020600201546105be9061041c612610565b6105da5760405162461bcd60e51b81526004016101f990613dc0565b6105e48282612614565b5050565b60015481565b6105f6612610565b6001600160a01b0316816001600160a01b0316146106265760405162461bcd60e51b81526004016101f99061434c565b6105e4828261267d565b60003383610655846000015185602001518660400151876060015188608001516126e6565b6106788560a001518660c001518760e001518861010001518961012001516126e6565b856101400151604051602001610692959493929190613843565b60408051601f198184030181529181528151602092830120600081815260069093529120549091506106d65760405162461bcd60e51b81526004016101f9906142de565b600081815260066020526040812081905582516001600160a01b031661072c576107258360800151846040015160008151811061070f57fe5b602002602001015161271b90919063ffffffff16565b9050610733565b5060808201515b604051339082156108fc029083906000818181858888f19350505050158015610760573d6000803e3d6000fd5b5082516001600160a01b03166107c15781846001600160a01b0316336001600160a01b03167f2c0f05de664e2354e281c7c55d07fe10e18c61d9b196dbcd318285801b36cde4846040516107b49190613d34565b60405180910390a461088d565b82604001516000815181106107d257fe5b60200260200101516000141561083357836001600160a01b0316336001600160a01b031684600001516001600160a01b03167fbc3f40348fc802e5c03cca3030cacfd7f64eecddb69053c6346c739a461af234856040516107b49190613d34565b82600001516001600160a01b0316846001600160a01b0316336001600160a01b03167fec73052508df9d335d0e15f12684a4e7294d861f60e81309e1c54a2aea13b23e856040516108849190613d34565b60405180910390a45b50505050565b6108ab6000805160206144bf83398151915233611837565b6108c75760405162461bcd60e51b81526004016101f990614213565b60008b8b8b8b8b8b8b8b8b6040516020016108ea9998979695949392919061394c565b60408051601f198184030181529181528151602092830120600081815260059093529120549091508061092f5760405162461bcd60e51b81526004016101f99061408c565b848484604051610940929190613680565b6040518091039020146109655760405162461bcd60e51b81526004016101f990613fad565b600082815260056020526040812055600454610981908761271b565b6004819055508c6001600160a01b031663f242432a8d8d8d8d8d8d6040518763ffffffff1660e01b81526004016109bd969594939291906139a9565b600060405180830381600087803b1580156109d757600080fd5b505af11580156109eb573d6000803e3d6000fd5b505050508a6001600160a01b03168c6001600160a01b03168e6001600160a01b03167fcd76ba58fce9926cfa642f9c805c7776e1060fc28617a5b892eb75a4088ecc4185604051610a3c9190613d34565b60405180910390a450505050505050505050505050565b60008433856000015186602001518760400151886060015189608001518a60a001518b60c001518c60e001518d6101000151604051602001610a9f9b9a999897969594939291906136c0565b60408051601f1981840301815291815281516020928301206000818152600690935291205490915080610ae45760405162461bcd60e51b81526004016101f9906142de565b42816001600160401b031611610b0c5760405162461bcd60e51b81526004016101f990613eb4565b42604082901c6001600160401b03161115610b395760405162461bcd60e51b81526004016101f990613f76565b8461010001518484604051610b4f929190613680565b604051809103902014610b745760405162461bcd60e51b81526004016101f9906140c3565b8460e001513414610b975760405162461bcd60e51b81526004016101f9906141dc565b60008281526006602052604081205560e08501516080860151600454610bc89291610bc2919061271b565b9061271b565b60048190555084600001516001600160a01b0316632eb2c2d68733886020015189604001518a606001516040518663ffffffff1660e01b8152600401610c129594939291906137e5565b600060405180830381600087803b158015610c2c57600080fd5b505af1158015610c40573d6000803e3d6000fd5b50505060c086015160a0870151610c6592506001600160a01b03169033908990612740565b84600001516001600160a01b0316336001600160a01b0316876001600160a01b03167f4e38423d6ebfafad42d5834ffaa5405493ce7094fd5e873b89b9714febbf98a6886020015189604001518a606001518b60a001518c60c001518a604051610cd496959493929190613ba6565b60405180910390a4505050505050565b813414610d035760405162461bcd60e51b81526004016101f990613edf565b6001600160a01b038716331415610d2c5760405162461bcd60e51b81526004016101f990613fe4565b6000883389898989898989604051602001610d4f9998979695949392919061394c565b60408051601f1981840301815291815281516020928301206000818152600590935291205490915015610d945760405162461bcd60e51b81526004016101f990613e7d565b600081815260056020526040908190206001600160401b039055516001600160a01b03808a169133918c16907f815701d2a70cb9728dad47bf244cfb943736d064c1f0d6eb6386e1da4b9be6b290610df3908c908c908a908a9061442b565b60405180910390a4505050505050505050565b80604001513414610e295760405162461bcd60e51b81526004016101f9906141dc565b6001600160a01b038216331415610e525760405162461bcd60e51b81526004016101f990614315565b60003383836000015184602001518560400151866060015187608001518860a001518960c001518a60e001518b6101000151604051602001610e9e9b9a99989796959493929190613754565b60408051601f1981840301815291815281516020928301206000818152600690935291205490915015610ee35760405162461bcd60e51b81526004016101f99061412a565b6001600160401b03600660008381526020019081526020016000208190555081600001516001600160a01b0316836001600160a01b0316336001600160a01b03167f93f0b18ca3d77db3eca907001e3f76f61ecbbe500cf3856148659913b13b481285602001518660400151876060015188608001518960a001518a60c001518b60e001518c6101000151604051610f829897969594939291906143f9565b60405180910390a4505050565b60008a338b8b8b8b8b8b8b8b8b604051602001610fb69b9a999897969594939291906138d1565b60408051601f19818403018152918152815160209283012060008181526005909352912054909150610ffa5760405162461bcd60e51b81526004016101f99061408c565b60008181526005602052604080822082905551339185156108fc02918691818181858888f19350505050158015611035573d6000803e3d6000fd5b50896001600160a01b0316336001600160a01b03168c6001600160a01b03167fc2263345832f5e2ac00f59aee67304df8fd8c45c216e65a610afc67c7568c1148c8c8c8c6040516110899493929190613ac7565b60405180910390a45050505050505050505050565b8134146110bd5760405162461bcd60e51b81526004016101f990613edf565b6001600160a01b0389163314156110e65760405162461bcd60e51b81526004016101f990613fe4565b60008a338b8b8b8b8b8b8b8b8b60405160200161110d9b9a999897969594939291906138d1565b60408051601f19818403018152918152815160209283012060008181526005909352912054909150156111525760405162461bcd60e51b81526004016101f990613e7d565b600081815260056020526040908190206001600160401b039055516001600160a01b03808c169133918e16907f8ac12a82b0377e2c6e1e42e37e8d8957f8df98f5c6d9fcbc86dcc2d65c5f1e2f90611089908e908e908e908e908c908c90613af9565b600181565b80516001600160a01b0316611277578060a001516001600160a01b031681600001516001600160a01b031614156112035760405162461bcd60e51b81526004016101f99061401b565b61121c8160800151826040015160008151811061070f57fe5b341461123a5760405162461bcd60e51b81526004016101f9906141dc565b60008160e0015160008151811061124d57fe5b6020026020010151116112725760405162461bcd60e51b81526004016101f990614161565b61146f565b60a08101516001600160a01b031661131c57806080015134146112ac5760405162461bcd60e51b81526004016101f9906141dc565b600081604001516000815181106112bf57fe5b6020026020010151116112e45760405162461bcd60e51b81526004016101f990614161565b60008160e001516000815181106112f757fe5b6020026020010151116112725760405162461bcd60e51b81526004016101f9906141a5565b806040015160008151811061132d57fe5b602002602001015160001415611360578060800151341461123a5760405162461bcd60e51b81526004016101f9906141dc565b8060e0015160008151811061137157fe5b6020026020010151600014156113dc57806080015134146113a45760405162461bcd60e51b81526004016101f9906141dc565b600081604001516000815181106113b757fe5b6020026020010151116112725760405162461bcd60e51b81526004016101f990614060565b806080015134146113ff5760405162461bcd60e51b81526004016101f9906141dc565b6000816040015160008151811061141257fe5b6020026020010151116114375760405162461bcd60e51b81526004016101f990614161565b60008160e0015160008151811061144a57fe5b60200260200101511161146f5760405162461bcd60e51b81526004016101f990614161565b6001600160a01b0382163314156114985760405162461bcd60e51b81526004016101f990614315565b600033836114bd846000015185602001518660400151876060015188608001516126e6565b6114e08560a001518660c001518760e001518861010001518961012001516126e6565b8561014001516040516020016114fa959493929190613843565b60408051601f198184030181529181528151602092830120600081815260069093529120549091501561153f5760405162461bcd60e51b81526004016101f99061412a565b6001600160401b03600660008381526020019081526020016000208190555081600001516001600160a01b0316836001600160a01b0316336001600160a01b03167f8e9aa3337874592880c80ddd5c52ecfa44586c80bb6cb420c67670b86da528e78560200151866040015187608001518860a001518960c001518a60e001518b61012001518c6101400151604051610f82989796959493929190613cc3565b60025481565b6115fd6000805160206144bf83398151915233611837565b6116195760405162461bcd60e51b81526004016101f990614213565b60008160000151838584602001518560400151866060015187608001518860a001516040516020016116529897969594939291906139e4565b60408051601f19818403018152918152815160209283012060008181526005909352912054909150806116975760405162461bcd60e51b81526004016101f99061408c565b42816001600160401b0316116116bf5760405162461bcd60e51b81526004016101f990613d92565b42604082901c6001600160401b031611156116ec5760405162461bcd60e51b81526004016101f990613e0f565b8260a001518360c00151805190602001201461171a5760405162461bcd60e51b81526004016101f990613fad565b600082815260056020526040812055608083015160045461173a9161271b565b60048190555082600001516001600160a01b0316632eb2c2d685878660200151876040015188606001516040518663ffffffff1660e01b81526004016117849594939291906137e5565b600060405180830381600087803b15801561179e57600080fd5b505af11580156117b2573d6000803e3d6000fd5b50505050846001600160a01b0316846001600160a01b031684600001516001600160a01b03167fcd76ba58fce9926cfa642f9c805c7776e1060fc28617a5b892eb75a4088ecc41856040516118079190613d34565b60405180910390a45050505050565b600082815260208190526040812061182e9083612798565b90505b92915050565b600082815260208190526040812061182e90836127a4565b6000843361187486600001518760200151886040015189606001518a608001516126e6565b6118978760a001518860c001518960e001518a61010001518b61012001516126e6565b8761014001516040516020016118b1959493929190613843565b60408051601f19818403018152918152815160209283012060008181526006909352912054909150806118f65760405162461bcd60e51b81526004016101f9906142de565b42816001600160401b03161161191e5760405162461bcd60e51b81526004016101f990613eb4565b42604082901c6001600160401b0316111561194b5760405162461bcd60e51b81526004016101f990613f76565b8461014001518484604051611961929190613680565b6040518091039020146119865760405162461bcd60e51b81526004016101f9906140c3565b60008281526006602052604081205561012085015160808601516004546119b29291610bc2919061271b565b60045584516001600160a01b0316611a1b57336001600160a01b03166108fc86604001516000815181106119e257fe5b60200260200101519081150290604051600060405180830381858888f19350505050158015611a15573d6000803e3d6000fd5b50611b3b565b8460400151600081518110611a2c57fe5b602002602001015160001415611ac55784600001516001600160a01b031663b88d4fde87338860200151600081518110611a6257fe5b602002602001015189606001516040518563ffffffff1660e01b8152600401611a8e9493929190613894565b600060405180830381600087803b158015611aa857600080fd5b505af1158015611abc573d6000803e3d6000fd5b50505050611b3b565b8451602086015160408088015160608901519151631759616b60e11b81526001600160a01b0390941693632eb2c2d693611b08938c9333939091906004016137e5565b600060405180830381600087803b158015611b2257600080fd5b505af1158015611b36573d6000803e3d6000fd5b505050505b60a08501516001600160a01b0316611bdc57611b678561012001518660e0015160008151811061070f57fe5b3414611b855760405162461bcd60e51b81526004016101f9906141dc565b856001600160a01b03166108fc8660e00151600081518110611ba357fe5b60200260200101519081150290604051600060405180830381858888f19350505050158015611bd6573d6000803e3d6000fd5b50611d22565b8460e00151600081518110611bed57fe5b602002602001015160001415611c87578460a001516001600160a01b031663b88d4fde87338860c00151600081518110611c2357fe5b60200260200101518961010001516040518563ffffffff1660e01b8152600401611c509493929190613894565b600060405180830381600087803b158015611c6a57600080fd5b505af1158015611c7e573d6000803e3d6000fd5b50505050611d22565b8461012001513414611cab5760405162461bcd60e51b81526004016101f9906141dc565b60a085015160c086015160e0870151610100880151604051631759616b60e11b81526001600160a01b0390941693632eb2c2d693611cef9333938d936004016137e5565b600060405180830381600087803b158015611d0957600080fd5b505af1158015611d1d573d6000803e3d6000fd5b505050505b84600001516001600160a01b0316336001600160a01b0316876001600160a01b03167f881f1b4ed82f90d52490614dbe58ea1c05bfd069a7d5d5ca131e0d5b6bf07261886020015189604001518a60a001518b60c001518c60e001518a604051610cd496959493929190613b36565b600081565b6040518060400160405280601481526020017325b4b937b1379029b0b332902a3930b739b332b960611b81525081565b60003383836000015184602001518560400151866060015187608001518860a001518960c001518a60e001518b6101000151604051602001611e129b9a999897969594939291906136c0565b60408051601f19818403018152918152815160209283012060008181526006909352912054909150611e565760405162461bcd60e51b81526004016101f9906142de565b600081815260066020526040808220829055608084015190519091339183156108fc0291849190818181858888f19350505050158015611e9a573d6000803e3d6000fd5b5082600001516001600160a01b0316846001600160a01b0316336001600160a01b03167f1cd80e19616ac64b82bf9ae8fecc87fff9f44c4b2db387b19ca3d3aa3fb15bf6866020015187604001518860600151886040516108849493929190613c07565b6000818152602081905260408120611831906127b9565b60008433856000015186602001518760400151886060015189608001518a60a001518b60c001518c60e001518d6101000151604051602001611f619b9a99989796959493929190613754565b60408051601f1981840301815291815281516020928301206000818152600690935291205490915080611fa65760405162461bcd60e51b81526004016101f9906142de565b42816001600160401b031611611fce5760405162461bcd60e51b81526004016101f990613eb4565b42604082901c6001600160401b03161115611ffb5760405162461bcd60e51b81526004016101f990613f76565b8461010001518484604051612011929190613680565b6040518091039020146120365760405162461bcd60e51b81526004016101f9906140c3565b8460e0015134146120595760405162461bcd60e51b81526004016101f9906141dc565b6000828152600660205260408082209190915560e0860151908601516004546120879291610bc2919061271b565b600455602085015185516120aa916001600160a01b039091169088903390612740565b6060850151608086015160a087015160c0880151604051631759616b60e11b81526001600160a01b0390941693632eb2c2d6936120ed9333938d936004016137e5565b600060405180830381600087803b15801561210757600080fd5b505af115801561211b573d6000803e3d6000fd5b5050505084600001516001600160a01b0316336001600160a01b0316876001600160a01b03167f5b35cc95d7a82a101001bbcf03595b6a2eff215358f47bd723b325f4c3e8e00a886020015189606001518a608001518b60a001518c60c001518a604051610cd49695949392919061439b565b6000828152602081905260409020600201546121ac9061041c612610565b6106265760405162461bcd60e51b81526004016101f990613f26565b60003383836000015184602001518560400151866060015187608001518860a001518960c001518a60e001518b61010001516040516020016122149b9a99989796959493929190613754565b60408051601f198184030181529181528151602092830120600081815260069093529120549091506122585760405162461bcd60e51b81526004016101f9906142de565b6000818152600660205260408082208290558381015190519091339183156108fc0291849190818181858888f1935050505015801561229b573d6000803e3d6000fd5b5082600001516001600160a01b0316846001600160a01b0316336001600160a01b03167fbc47f1a7ad8162eb13eab930316f0de4fb0828bf52decf6fed08c283bb86bd1f8660200151866040516108849291906143eb565b61230b6000805160206144bf83398151915233611837565b6123275760405162461bcd60e51b81526004016101f990614213565b60045461233490826127c4565b6004556040516001600160a01b0383169082156108fc029083906000818181858888f1935050505015801561236d573d6000803e3d6000fd5b505050565b806080015134146123955760405162461bcd60e51b81526004016101f9906141dc565b6001600160a01b0382163314156123be5760405162461bcd60e51b81526004016101f990614315565b60003383836000015184602001518560400151866060015187608001518860a001518960c001518a60e001518b610100015160405160200161240a9b9a999897969594939291906136c0565b60408051601f198184030181529181528151602092830120600081815260069093529120549091501561244f5760405162461bcd60e51b81526004016101f99061412a565b6001600160401b03600660008381526020019081526020016000208190555081600001516001600160a01b0316836001600160a01b0316336001600160a01b03167faf441b350e0c82fd1041597698b410c14f2b0c525dc4e8b98a04ea63940a08aa85602001518660400151876060015188608001518960a001518a60c001518b60e001518c6101000151604051610f82989796959493929190613c52565b60008833898989898989896040516020016125119998979695949392919061394c565b60408051601f198184030181529181528151602092830120600081815260059093529120549091506125555760405162461bcd60e51b81526004016101f99061408c565b60008181526005602052604080822082905551339185156108fc02918691818181858888f19350505050158015612590573d6000803e3d6000fd5b50876001600160a01b0316336001600160a01b03168a6001600160a01b03167f59c6a35ddfbafec4b3bc9ed6b984ce4713dcee72a875ba571c9ff9fd0ace5bd784604051610df39190613d34565b604051806040016040528060018152602001603160f81b81525081565b600061182e836001600160a01b038416612806565b3390565b600082815260208190526040902061262c90826125fb565b156105e457612639612610565b6001600160a01b0316816001600160a01b0316837f2f8788117e7eff1d82e926ec794901d17c78024a50270940304540a733656f0d60405160405180910390a45050565b60008281526020819052604090206126959082612850565b156105e4576126a2612610565b6001600160a01b0316816001600160a01b0316837ff6391f5c32d9c69d2a47ea670b442974b53935d1edc7fd64eb21e047a839171b60405160405180910390a45050565b60608585858585604051602001612701959493929190613a7d565b604051602081830303815290604052905095945050505050565b60008282018381101561182e5760405162461bcd60e51b81526004016101f990613e46565b61088d846323b872dd60e01b85858560405160240161276193929190613a59565b60408051601f198184030181529190526020810180516001600160e01b03166001600160e01b031990931692909217909152612865565b600061182e83836128f4565b600061182e836001600160a01b038416612939565b600061183182612951565b600061182e83836040518060400160405280601e81526020017f536166654d6174683a207375627472616374696f6e206f766572666c6f770000815250612955565b60006128128383612939565b61284857508154600181810184556000848152602080822090930184905584548482528286019093526040902091909155611831565b506000611831565b600061182e836001600160a01b038416612981565b60606128ba826040518060400160405280602081526020017f5361666545524332303a206c6f772d6c6576656c2063616c6c206661696c6564815250856001600160a01b0316612a479092919063ffffffff16565b80519091501561236d57808060200190518101906128d89190613534565b61236d5760405162461bcd60e51b81526004016101f99061424a565b815460009082106129175760405162461bcd60e51b81526004016101f990613d50565b82600001828154811061292657fe5b9060005260206000200154905092915050565b60009081526001919091016020526040902054151590565b5490565b600081848411156129795760405162461bcd60e51b81526004016101f99190613d3d565b505050900390565b60008181526001830160205260408120548015612a3d57835460001980830191908101906000908790839081106129b457fe5b90600052602060002001549050808760000184815481106129d157fe5b600091825260208083209091019290925582815260018981019092526040902090840190558654879080612a0157fe5b60019003818190600052602060002001600090559055866001016000878152602001908152602001600020600090556001945050505050611831565b6000915050611831565b6060612a568484600085612a5e565b949350505050565b6060612a6985612b22565b612a855760405162461bcd60e51b81526004016101f9906140f3565b60006060866001600160a01b03168587604051612aa29190613690565b60006040518083038185875af1925050503d8060008114612adf576040519150601f19603f3d011682016040523d82523d6000602084013e612ae4565b606091505b50915091508115612af8579150612a569050565b805115612b085780518082602001fd5b8360405162461bcd60e51b81526004016101f99190613d3d565b6000813f7fc5d2460186f7233c927e7db2dcc703c0e500b653ca82273b7bfad8045d85a470818114801590612a56575050151592915050565b8035611831816144a6565b60008083601f840112612b77578182fd5b5081356001600160401b03811115612b8d578182fd5b6020830191508360208083028501011115612ba757600080fd5b9250929050565b600082601f830112612bbe578081fd5b81356001600160401b03811115612bd3578182fd5b6020808202612be3828201614454565b83815293508184018583018287018401881015612bff57600080fd5b600092505b84831015612c22578035825260019290920191908301908301612c04565b505050505092915050565b60008083601f840112612c3e578182fd5b5081356001600160401b03811115612c54578182fd5b602083019150836020828501011115612ba757600080fd5b600082601f830112612c7c578081fd5b81356001600160401b03811115612c91578182fd5b612ca4601f8201601f1916602001614454565b9150808252836020828501011115612cbb57600080fd5b8060208401602084013760009082016020015292915050565b6000610120808385031215612ce7578182fd5b612cf081614454565b915050612cfd8383612b5b565b815260208201356001600160401b0380821115612d1957600080fd5b612d2585838601612bae565b60208401526040840135915080821115612d3e57600080fd5b612d4a85838601612bae565b60408401526060840135915080821115612d6357600080fd5b50612d7084828501612c6c565b60608301525060808201356080820152612d8d8360a08401612b5b565b60a082015260c082013560c082015260e082013560e082015261010080830135818301525092915050565b6000610160808385031215612dcb578182fd5b612dd481614454565b915050612de18383612b5b565b815260208201356001600160401b0380821115612dfd57600080fd5b612e0985838601612bae565b60208401526040840135915080821115612e2257600080fd5b612e2e85838601612bae565b60408401526060840135915080821115612e4757600080fd5b612e5385838601612c6c565b606084015260808401356080840152612e6f8560a08601612b5b565b60a084015260c0840135915080821115612e8857600080fd5b612e9485838601612bae565b60c084015260e0840135915080821115612ead57600080fd5b612eb985838601612bae565b60e084015261010091508184013581811115612ed457600080fd5b612ee086828701612c6c565b8385015250505061012080830135818301525061014080830135818301525092915050565b6000610120808385031215612f18578182fd5b612f2181614454565b915050612f2e8383612b5b565b81526020820135602082015260408201356040820152612f518360608401612b5b565b606082015260808201356001600160401b0380821115612f7057600080fd5b612f7c85838601612bae565b608084015260a0840135915080821115612f9557600080fd5b612fa185838601612bae565b60a084015260c0840135915080821115612fba57600080fd5b50612fc784828501612c6c565b60c08301525060e082013560e082015261010080830135818301525092915050565b60008060408385031215612ffb578182fd5b8235613006816144a6565b915060208301356001600160401b03811115613020578182fd5b61302c85828601612cd4565b9150509250929050565b6000806000806060858703121561304b578182fd5b8435613056816144a6565b935060208501356001600160401b0380821115613071578384fd5b61307d88838901612cd4565b94506040870135915080821115613092578384fd5b5061309f87828801612c2d565b95989497509550505050565b600080604083850312156130bd578182fd5b82356130c8816144a6565b915060208301356001600160401b038111156130e2578182fd5b61302c85828601612db8565b60008060008060608587031215613103578384fd5b843561310e816144a6565b935060208501356001600160401b0380821115613129578485fd5b61307d88838901612db8565b60008060408385031215613147578182fd5b8235613152816144a6565b915060208301356001600160401b0381111561316c578182fd5b61302c85828601612f05565b6000806000806060858703121561318d578182fd5b8435613198816144a6565b935060208501356001600160401b03808211156131b3578384fd5b61307d88838901612f05565b600080604083850312156131d1578182fd5b82356131dc816144a6565b946020939093013593505050565b60008060008060008060008060008060006101208c8e03121561320b578889fd5b6132158c356144a6565b8b359a5061322660208d01356144a6565b60208c0135995061323a8d60408e01612b5b565b985060608c0135975060808c013596506001600160401b038060a08e01351115613262578687fd5b6132728e60a08f01358f01612c2d565b909750955060c08d0135945060e08d013593506101008d0135811015613296578283fd5b506132a88d6101008e01358e01612c2d565b81935080925050509295989b509295989b9093969950565b60008060008060008060008060008060e08b8d0312156132de578384fd5b8a356132e9816144a6565b995060208b01356132f9816144a6565b985060408b01356001600160401b0380821115613314578586fd5b6133208e838f01612b66565b909a50985060608d0135915080821115613338578586fd5b6133448e838f01612b66565b909850965060808d013591508082111561335c578586fd5b506133698d828e01612c2d565b9b9e9a9d50989b979a969995989760a08101359660c09091013595509350505050565b6000806000606084860312156133a0578081fd5b83356133ab816144a6565b925060208401356133bb816144a6565b915060408401356001600160401b03808211156133d6578283fd5b9085019060e082880312156133e9578283fd5b6133f360e0614454565b6133fd8884612b5b565b8152602083013582811115613410578485fd5b61341c89828601612bae565b602083015250604083013582811115613433578485fd5b61343f89828601612bae565b604083015250606083013582811115613456578485fd5b61346289828601612c6c565b6060830152506080830135608082015260a083013560a082015260c08301358281111561348d578485fd5b61349989828601612c6c565b60c0830152508093505050509250925092565b60008060008060008060008060e0898b0312156134c7578182fd5b88356134d2816144a6565b975060208901356134e2816144a6565b9650604089013595506060890135945060808901356001600160401b0381111561350a578283fd5b6135168b828c01612c2d565b999c989b5096999598969760a08701359660c0013595509350505050565b600060208284031215613545578081fd5b8151801515811461182e578182fd5b600060208284031215613565578081fd5b5035919050565b6000806040838503121561357e578182fd5b823591506020830135613590816144a6565b809150509250929050565b600080604083850312156135ad578182fd5b50508035926020909101359150565b81835260006001600160fb1b038311156135d4578081fd5b6020830280836020870137939093016020019283525090919050565b6000815180845260208085019450808401835b8381101561361f57815187529582019590820190600101613603565b509495945050505050565b60008284528282602086013780602084860101526020601f19601f85011685010190509392505050565b6000815180845261366c81602086016020860161447a565b601f01601f19169290920160200192915050565b6000828483379101908152919050565b600082516136a281846020870161447a565b9190910192915050565b6001600160a01b0391909116815260200190565b6001600160a01b038c811682528b811660208301528a81166040830152610160606083018190526000916136f68483018d6135f0565b9150838203608085015261370a828c6135f0565b915083820360a085015261371e828b613654565b60c08501999099529690961660e08301525061010081019390935261012083019190915261014090910152509695505050505050565b6001600160a01b038c811682528b811660208301528a81166040830152606082018a905260808201899052871660a082015261016060c0820181905260009061379f838201896135f0565b905082810360e08401526137b381886135f0565b90508281036101008401526137c88187613654565b610120840195909552505061014001529998505050505050505050565b6001600160a01b0386811682528516602082015260a060408201819052600090613811908301866135f0565b828103606084015261382381866135f0565b905082810360808401526138378185613654565b98975050505050505050565b6001600160a01b0386811682528516602082015260a06040820181905260009061386f90830186613654565b82810360608401526138818186613654565b9150508260808301529695505050505050565b6001600160a01b03858116825284166020820152604081018390526080606082018190526000906138c790830184613654565b9695505050505050565b6001600160a01b038c811682528b811660208301528a166040820152610100606082018190526000906139078382018b8d6135bc565b9050828103608084015261391c81898b6135bc565b905082810360a084015261393181878961362a565b60c0840195909552505060e001529998505050505050505050565b6001600160a01b038a81168252898116602083015288166040820152606081018790526080810186905261010060a08201819052600090613990838201878961362a565b60c0840195909552505060e00152979650505050505050565b6001600160a01b03878116825286166020820152604081018590526060810184905260a060808201819052600090613837908301848661362a565b6001600160a01b03898116825288811660208301528716604082015261010060608201819052600090613a19838201896135f0565b90508281036080840152613a2d81886135f0565b905082810360a0840152613a418187613654565b60c0840195909552505060e001529695505050505050565b6001600160a01b039384168152919092166020820152604081019190915260600190565b6001600160a01b038616815260a060208201819052600090613aa1908301876135f0565b8281036040840152613ab381876135f0565b905082810360608401526138818186613654565b600060408252613adb6040830186886135bc565b8281036020840152613aee8185876135bc565b979650505050505050565b600060808252613b0d60808301888a6135bc565b8281036020840152613b208187896135bc565b6040840195909552505060600152949350505050565b600060c08252613b4960c08301896135f0565b8281036020840152613b5b81896135f0565b6001600160a01b038816604085015283810360608501529050613b7e81876135f0565b90508281036080840152613b9281866135f0565b9150508260a0830152979650505050505050565b600060c08252613bb960c08301896135f0565b8281036020840152613bcb81896135f0565b90508281036040840152613bdf8188613654565b6001600160a01b039690961660608401525050608081019290925260a0909101529392505050565b600060808252613c1a60808301876135f0565b8281036020840152613c2c81876135f0565b90508281036040840152613c408186613654565b91505082606083015295945050505050565b6000610100808352613c668184018c6135f0565b90508281036020840152613c7a818b6135f0565b90508281036040840152613c8e818a613654565b606084019890985250506001600160a01b0394909416608085015260a084019290925260c083015260e0909101529392505050565b6000610100808352613cd78184018c6135f0565b90508281036020840152613ceb818b6135f0565b604084018a90526001600160a01b038916606085015283810360808501529050613d1581886135f0565b905082810360a0840152613a4181876135f0565b901515815260200190565b90815260200190565b60006020825261182e6020830184613654565b60208082526022908201527f456e756d657261626c655365743a20696e646578206f7574206f6620626f756e604082015261647360f01b606082015260800190565b60208082526014908201527314d85999551c985b99995c8e88195e1c1a5c995960621b604082015260600190565b6020808252602f908201527f416363657373436f6e74726f6c3a2073656e646572206d75737420626520616e60408201526e0818591b5a5b881d1bc819dc985b9d608a1b606082015260800190565b6020808252601e908201527f536166655472616e6665723a206e6f7420617661696c61626c65207965740000604082015260600190565b6020808252601b908201527f536166654d6174683a206164646974696f6e206f766572666c6f770000000000604082015260600190565b6020808252601b908201527f536166655472616e736665723a20726571756573742065786973740000000000604082015260600190565b60208082526011908201527014d8599954ddd85c0e88195e1c1a5c9959607a1b604082015260600190565b60208082526027908201527f536166655472616e736665723a206d73672e76616c7565206d757374206d61746040820152666368206665657360c81b606082015260800190565b60208082526030908201527f416363657373436f6e74726f6c3a2073656e646572206d75737420626520616e60408201526f2061646d696e20746f207265766f6b6560801b606082015260800190565b6020808252601b908201527f53616665537761703a206e6f7420617661696c61626c65207965740000000000604082015260600190565b6020808252601a908201527f536166655472616e736665723a2077726f6e6720736563726574000000000000604082015260600190565b6020808252601f908201527f536166655472616e736665723a2073656e6465723d3d726563697069656e7400604082015260600190565b60208082526025908201527f53616665537761703a2074727920746f207377617020657468657220616e642060408201526432ba3432b960d91b606082015260800190565b60208082526012908201527153616665537761703a206e6f2076616c756560701b604082015260600190565b6020808252601f908201527f536166655472616e736665723a2072657175657374206e6f7420657869737400604082015260600190565b60208082526016908201527514d8599954ddd85c0e881ddc9bdb99c81cd958dc995d60521b604082015260600190565b6020808252601d908201527f416464726573733a2063616c6c20746f206e6f6e2d636f6e7472616374000000604082015260600190565b60208082526017908201527f53616665537761703a2072657175657374206578697374000000000000000000604082015260600190565b60208082526024908201527f53616665537761703a206e6f2076616c756520666f722045524331313535207460408201526337b5b2b760e11b606082015260800190565b6020808252601a908201527f53616665537761703a206e6f2076616c756520666f7220455448000000000000604082015260600190565b60208082526018908201527f53616665537761703a2076616c7565206d69736d617463680000000000000000604082015260600190565b6020808252601e908201527f536166655472616e736665723a206e6f7420616e20616374697661746f720000604082015260600190565b6020808252602a908201527f5361666545524332303a204552433230206f7065726174696f6e20646964206e6040820152691bdd081cdd58d8d9595960b21b606082015260800190565b6020808252602a908201527f536166655472616e736665723a206e6f7420616363657074696e67206574686560408201526972206469726563746c7960b01b606082015260800190565b6020808252601b908201527f53616665537761703a2072657175657374206e6f742065786973740000000000604082015260600190565b6020808252601b908201527f53616665537761703a2073656e6465723d3d726563697069656e740000000000604082015260600190565b6020808252602f908201527f416363657373436f6e74726f6c3a2063616e206f6e6c792072656e6f756e636560408201526e103937b632b9903337b91039b2b63360891b606082015260800190565b8681526001600160a01b038616602082015260c0604082018190526000906143c5908301876135f0565b82810360608401526143d781876135f0565b90508281036080840152613b928186613654565b918252602082015260400190565b888152602081018890526001600160a01b038716604082015261010060608201819052600090613a19838201896135f0565b93845260208401929092526040830152606082015260800190565b60ff91909116815260200190565b6040518181016001600160401b038111828210171561447257600080fd5b604052919050565b60005b8381101561449557818101518382015260200161447d565b8381111561088d5750506000910152565b6001600160a01b03811681146144bb57600080fd5b5056feec5aad7bdface20c35bc02d6d2d5760df981277427368525d634f4e2603ea192a264697066735822122074b509cfbaf61a9564a843b71869ccc1d6cf0c064f6cdeb58a1b746dd8e7ef2764736f6c634300060c0033ec5aad7bdface20c35bc02d6d2d5760df981277427368525d634f4e2603ea192",
  "immutableReferences": {},
  "source": "// SPDX-License-Identifier: GPL-3.0-or-later\npragma solidity 0.6.12;\npragma experimental ABIEncoderV2;\n\nimport \"../node_modules/@openzeppelin/contracts/math/SafeMath.sol\";\nimport \"../node_modules/@openzeppelin/contracts/access/AccessControl.sol\";\nimport \"../node_modules/@openzeppelin/contracts/token/ERC20/SafeERC20.sol\";\nimport \"../node_modules/@openzeppelin/contracts/token/ERC721/IERC721.sol\";\nimport \"../node_modules/@openzeppelin/contracts/token/ERC1155/IERC1155.sol\";\n\ncontract SafeForERC1155 is AccessControl {\n  using SafeMath for uint256;\n  using SafeERC20 for IERC20;\n\n  // keccak256(\"ACTIVATOR_ROLE\");\n  bytes32 public constant ACTIVATOR_ROLE =\n    0xec5aad7bdface20c35bc02d6d2d5760df981277427368525d634f4e2603ea192;\n\n  // keccak256(\"hiddenCollect(address from,address to,uint256 value,uint256 fees,bytes32 secretHash)\");\n  //bytes32 public constant HIDDEN_COLLECT_TYPEHASH = 0x0506afef36f3613836f98ef019cb76a3e6112be8f9dc8d8fa77275d64f418234;\n\n  // keccak256(\"hiddenCollectERC20(address from,address to,address token,string tokenSymbol,uint256 value,uint256 fees,bytes32 secretHash)\");\n  // bytes32 public constant HIDDEN_ERC20_COLLECT_TYPEHASH = 0x9e6214229b9fba1927010d30b22a3a5d9fd5e856bb29f056416ff2ad52e8de44;\n\n  // keccak256(\"hiddenCollectERC721(address from,address to,address token,string tokenSymbol,uint256 tokenId,bytes tokenData,uint256 fees,bytes32 secretHash)\");\n  // bytes32 public constant HIDDEN_ERC721_COLLECT_TYPEHASH = 0xa14a2dc51c26e451800897aa798120e7d6c35039caf5eb29b8ac35d1e914c591;\n\n  bytes32 public DOMAIN_SEPARATOR;\n  uint256 public CHAIN_ID;\n  bytes32 s_uid;\n  uint256 s_fees;\n\n  struct TokenInfo {\n    bytes32 id;\n    bytes32 id1;\n    uint256 tr;\n  }\n\n  struct SwapERC1155Info {\n    address token0;\n    uint256[] tokenIds0;\n    uint256[] values0;\n    bytes tokenData0;\n    uint256 fees0;\n    address token1;\n    uint256[] tokenIds1;\n    uint256[] values1;\n    bytes tokenData1;\n    uint256 fees1;\n    bytes32 secretHash;\n  }\n\n  struct CollectBatchERC1155Info {\n    address token;\n    uint256[] tokenIds;\n    uint256[] values;\n    bytes tokenData;\n    uint256 fees;\n    bytes32 secretHash;\n    bytes secret;\n  }\n\n  struct SwapBatchERC1155ToERC20Info {\n    address token0;\n    uint256[] tokenIds0;\n    uint256[] values0;\n    bytes tokenData0;\n    uint256 fees0;\n    address token1;\n    uint256 value1;\n    uint256 fees1;\n    bytes32 secretHash;\n  }\n\n  struct SwapERC20ToBatchERC1155Info {\n    address token0;\n    uint256 value0;\n    uint256 fees0;\n    address token1;\n    uint256[] tokenIds1;\n    uint256[] values1;\n    bytes tokenData1;\n    uint256 fees1;\n    bytes32 secretHash;\n  }\n\n /*  struct SwapETHToBatchERC1155Info {\n    address token0;\n    uint256 tokenId0;\n    uint256 value0;\n    uint256 fees0;\n    address token1;\n    uint256[] tokenIds1;\n    uint256[] values1;\n    bytes tokenData1;\n    uint256 fees1;\n    bytes32 secretHash;\n  } */\n\n  mapping(bytes32 => uint256) s_erc1155Transfers;\n  mapping(bytes32 => uint256) s_swaps;\n  mapping(bytes32 => uint256) s_hswaps;\n\n  string public constant NAME = \"Kirobo Safe Transfer\";\n  string public constant VERSION = \"1\";\n  uint8 public constant VERSION_NUMBER = 0x1;\n\n  event Retrieved(\n    address indexed from,\n    address indexed to,\n    bytes32 indexed id,\n    uint256 value\n  );\n\n  event ERC1155TransferDeposited(\n    address indexed token,\n    address indexed from,\n    address indexed to,\n    uint256 tokenId,\n    uint256 value,\n    uint256 fees,\n    bytes32 secretHash\n  );\n\n  event ERC1155BatchTransferDeposited(\n    address indexed token,\n    address indexed from,\n    address indexed to,\n    uint256[] tokenIds,\n    uint256[] values,\n    uint256 fees,\n    bytes32 secretHash\n  );\n\n  event ERC1155TransferRetrieved(\n    address indexed token,\n    address indexed from,\n    address indexed to,\n    bytes32 id\n  );\n\n  event ERC721Retrieved(\n    address indexed token,\n    address indexed from,\n    address indexed to,\n    bytes32 id\n  );\n\n  event ERC1155BatchTransferRetrieved(\n    address indexed token,\n    address indexed from,\n    address indexed to,\n    uint256[] tokenIds,\n    uint256[] values\n  );\n\n  event ERC1155Collected(\n    address indexed token,\n    address indexed from,\n    address indexed to,\n    bytes32 id\n  );\n\n  // event ERC1155BatchCollected(\n  //   address indexed token,\n  //   address indexed from,\n  //   address indexed to,\n  //   uint256[] tokenIds,\n  //   uint256[] values\n  // );\n\n  event ERC1155SwapDeposited(\n    address indexed from,\n    address indexed to,\n    address indexed token0,\n    uint256[] tokenIds0,\n    uint256[] values0,\n    uint256 fees0,\n    address token1,\n    uint256[] tokenIds1,\n    uint256[] values1,\n    uint256 fees1,\n    bytes32 secretHash\n  );\n\n  event ERC1155SwapRetrieved(\n    address indexed from,\n    address indexed to,\n    address indexed token,\n    bytes32 id\n  );\n\n  event ERC1155Swapped(\n    address indexed from,\n    address indexed to,\n    address indexed token0,\n    uint256[] tokenIds0,\n    uint256[] values0,\n    address token1,\n    uint256[] tokenIds1,\n    uint256[] values1,\n    bytes32 id\n  );\n\n  event swapDepositERC1155ToERC20Event(\n    address indexed from,\n    address indexed to,\n    address indexed token0,\n    uint256[] tokenIds0,\n    uint256[] values0,\n    bytes tokenData0,\n    uint256 fees0,\n    address token1,\n    uint256 value1,\n    uint256 fees1,\n    bytes32 secretHash\n  );\n\n  event swapDepositERC20ToERC1155Event(\n    address indexed from,\n    address indexed to,\n    address indexed token0,\n    uint256 value0,\n    uint256 fees0,\n    address token1,\n    uint256[] tokenIds1,\n    uint256[] values1,\n    bytes tokenData1,\n    uint256 fees1,\n    bytes32 secretHash\n  );\n\n  /* event swapDepositETHToERC1155Event(\n    address indexed from,\n    address indexed to,\n    address indexed token0,\n    uint256 value0,\n    uint256 fees0,\n    address token1,\n    uint256[] tokenIds1,\n    uint256[] values1,\n    uint256 fees1,\n    bytes32 secretHash\n  ); */\n\n  event swapRetrieveERC1155ToERC20Event(\n    address indexed from,\n    address indexed to,\n    address indexed token0,\n    uint256[] tokenIds0,\n    uint256[] values0,\n    bytes tokenData0,\n    bytes32 id\n  );\n\n  event swapRetrieveERC20ToERC1155Event(\n    address indexed from,\n    address indexed to,\n    address indexed token0,\n    uint256 value0,\n    bytes32 id\n  );\n\n  event swapERC1155ToETHEvent(\n    address indexed from,\n    address indexed to,\n    address indexed token0,\n    uint256[] tokenIds0,\n    uint256[] values0,\n    address token1,\n    uint256 value1,\n    bytes32 id\n  );\n\n  event swapERC1155ToERC20Event(\n    address indexed from,\n    address indexed to,\n    address indexed token0,\n    uint256[] tokenIds0,\n    uint256[] values0,\n    bytes tokenData0,\n    address token1,\n    uint256 value1,\n    bytes32 id\n  );\n\n  event swapERC20ToERC1155Event(\n    address indexed from,\n    address indexed to,\n    address indexed token0,\n    uint256 value0,\n    address token1,\n    uint256[] tokenIds1,\n    uint256[] values1,\n    bytes tokenData1,\n    bytes32 id\n  );\n\n  /* event swapETHToERC1155Event(\n    address indexed from,\n    address indexed to,\n    address indexed token0,\n    uint256 value0,\n    address token1,\n    uint256[] tokenIds1,\n    uint256[] values1,\n    bytes32 id\n  ); */\n\n  modifier onlyActivator() {\n    require(\n      hasRole(ACTIVATOR_ROLE, msg.sender),\n      \"SafeTransfer: not an activator\"\n    );\n    _;\n  }\n\n  constructor(address activator) public {\n    _setupRole(DEFAULT_ADMIN_ROLE, msg.sender);\n    _setupRole(ACTIVATOR_ROLE, msg.sender);\n    _setupRole(ACTIVATOR_ROLE, activator);\n\n    uint256 chainId;\n    assembly {\n      chainId := chainid()\n    }\n\n    CHAIN_ID = chainId;\n\n    s_uid = bytes32(\n      (uint256(VERSION_NUMBER) << 248) |\n        ((uint256(blockhash(block.number - 1)) << 192) >> 16) |\n        uint256(address(this))\n    );\n\n    DOMAIN_SEPARATOR = keccak256(\n      abi.encode(\n        keccak256(\n          \"EIP712Domain(string name,string version,uint256 chainId,address verifyingContract,bytes32 salt)\"\n        ),\n        keccak256(bytes(NAME)),\n        keccak256(bytes(VERSION)),\n        chainId,\n        address(this),\n        s_uid\n      )\n    );\n  }\n\n  receive() external payable {\n    require(false, \"SafeTransfer: not accepting ether directly\");\n  }\n\n  /* function transferERC20(address token, address wallet, uint256 value) external onlyActivator() {\n        IERC20(token).safeTransfer(wallet, value);\n    }\n\n    function transferERC721(address token, address wallet, uint256 tokenId, bytes calldata data) external onlyActivator() {\n        IERC721(token).safeTransferFrom(address(this), wallet, tokenId, data);\n    } */\n\n  function transferFees(address payable wallet, uint256 value)\n    external\n    onlyActivator\n  {\n    s_fees = s_fees.sub(value);\n    wallet.transfer(value);\n  }\n\n  function totalFees() external view returns (uint256) {\n    return s_fees;\n  }\n\n  /* function uid() view external returns (bytes32) {\n        return s_uid;\n    } */\n\n  // ------------------------------- ERC-1155 transfer single--------------------------------\n  //0x5978e4630233612269aC217784A41fB3EA720d30\n  function depositERC1155(\n    address token,\n    address to,\n    uint256 tokenId,\n    uint256 value,\n    bytes calldata tokenData,\n    uint256 fees,\n    bytes32 secretHash\n  ) external payable {\n    require(msg.value == fees, \"SafeTransfer: msg.value must match fees\");\n    require(to != msg.sender, \"SafeTransfer: sender==recipient\");\n    bytes32 id = keccak256(\n      abi.encode(\n        token,\n        msg.sender,\n        to,\n        tokenId,\n        value,\n        tokenData,\n        fees,\n        secretHash\n      )\n    );\n    require(s_erc1155Transfers[id] == 0, \"SafeTransfer: request exist\");\n    s_erc1155Transfers[id] = 0xffffffffffffffff;\n    emit ERC1155TransferDeposited(\n      token,\n      msg.sender,\n      to,\n      tokenId,\n      value,\n      fees,\n      secretHash\n    );\n  }\n\n  function retrieveERC1155(\n    address token,\n    address to,\n    uint256 tokenId,\n    uint256 value,\n    bytes calldata tokenData,\n    uint256 fees,\n    bytes32 secretHash\n  ) external {\n    bytes32 id = keccak256(\n      abi.encode(\n        token,\n        msg.sender,\n        to,\n        tokenId,\n        value,\n        tokenData,\n        fees,\n        secretHash\n      )\n    );\n    require(s_erc1155Transfers[id] > 0, \"SafeTransfer: request not exist\");\n    delete s_erc1155Transfers[id];\n    msg.sender.transfer(fees);\n    emit ERC1155TransferRetrieved(token, msg.sender, to, id);\n  }\n\n  function collectERC1155(\n    address token,\n    address from,\n    address payable to,\n    uint256 tokenId,\n    uint256 value,\n    bytes calldata tokenData,\n    uint256 fees,\n    bytes32 secretHash,\n    bytes calldata secret\n  ) external onlyActivator {\n    bytes32 id = keccak256(\n      abi.encode(token, from, to, tokenId, value, tokenData, fees, secretHash)\n    );\n    uint256 tr = s_erc1155Transfers[id];\n    require(tr > 0, \"SafeTransfer: request not exist\");\n    // require(uint64(tr) > now, \"SafeTranfer: expired\");\n    // require(uint64(tr >> 64) <= now, \"SafeTranfer: not available yet\");\n    require(keccak256(secret) == secretHash, \"SafeTransfer: wrong secret\");\n    delete s_erc1155Transfers[id];\n    s_fees = s_fees.add(fees);\n    IERC1155(token).safeTransferFrom(from, to, tokenId, value, tokenData);\n    emit ERC1155Collected(token, from, to, id);\n    // emit ERC1155Collected(token, from, to, tokenId, value);\n  }\n\n  //------------------------------ERC-1155 batch transfer -----------------------------------------\n  function depositBatchERC1155(\n    address token,\n    address to,\n    uint256[] calldata tokenIds,\n    uint256[] calldata values,\n    bytes calldata tokenData,\n    uint256 fees,\n    bytes32 secretHash\n  ) external payable {\n    require(msg.value == fees, \"SafeTransfer: msg.value must match fees\");\n    require(to != msg.sender, \"SafeTransfer: sender==recipient\");\n    bytes32 id = keccak256(\n      abi.encode(\n        token,\n        msg.sender,\n        to,\n        tokenIds,\n        values,\n        tokenData,\n        fees,\n        secretHash\n      )\n    );\n    require(s_erc1155Transfers[id] == 0, \"SafeTransfer: request exist\");\n    s_erc1155Transfers[id] = 0xffffffffffffffff;\n    emit ERC1155BatchTransferDeposited(\n      token,\n      msg.sender,\n      to,\n      tokenIds,\n      values,\n      fees,\n      secretHash\n    );\n  }\n\n  function retrieveBatchERC1155(\n    address token,\n    address to,\n    uint256[] calldata tokenIds,\n    uint256[] calldata values,\n    bytes calldata tokenData,\n    uint256 fees,\n    bytes32 secretHash\n  ) external {\n    bytes32 id = keccak256(\n      abi.encode(\n        token,\n        msg.sender,\n        to,\n        tokenIds,\n        values,\n        tokenData,\n        fees,\n        secretHash\n      )\n    );\n    require(s_erc1155Transfers[id] > 0, \"SafeTransfer: request not exist\");\n    delete s_erc1155Transfers[id];\n    msg.sender.transfer(fees);\n    emit ERC1155BatchTransferRetrieved(token, msg.sender, to, tokenIds, values);\n  }\n\n  function collectBatchERC1155(\n    address to,\n    address from,\n    CollectBatchERC1155Info memory info\n  ) external onlyActivator {\n    bytes32 id = keccak256(\n      abi.encode(\n        info.token,\n        from,\n        to,\n        info.tokenIds,\n        info.values,\n        info.tokenData,\n        info.fees,\n        info.secretHash\n      )\n    );\n    uint256 tr = s_erc1155Transfers[id];\n    require(tr > 0, \"SafeTransfer: request not exist\");\n    require(uint64(tr) > now, \"SafeTranfer: expired\");\n    require(uint64(tr >> 64) <= now, \"SafeTranfer: not available yet\");\n    require(\n      keccak256(info.secret) == info.secretHash,\n      \"SafeTransfer: wrong secret\"\n    );\n    delete s_erc1155Transfers[id];\n    s_fees = s_fees.add(info.fees);\n    IERC1155(info.token).safeBatchTransferFrom(\n      from,\n      to,\n      info.tokenIds,\n      info.values,\n      info.tokenData\n    );\n    emit ERC1155Collected(\n      info.token,\n      from,\n      to,\n      id\n    );\n    // emit ERC1155BatchCollected(\n    //   info.token,\n    //   from,\n    //   to,\n    //   info.tokenIds,\n    //   info.values\n    // );\n  }\n\n  function encodeObject(\n    address a,\n    uint256[] memory arr1,\n    uint256[] memory arr2,\n    bytes memory b,\n    uint256 c\n  ) internal pure returns (bytes memory) {\n    return abi.encode(a, arr1, arr2, b, c);\n  }\n\n  // ----------------------- swap - batch ERC1155 <--> ETH/721 -------------------------------------------\n  //0x0Fc471ed8ed3a01Ab11E1F7A3A3d71F4bCEf39E7\n  function swapDepositERC1155(address payable to, SwapERC1155Info memory info)\n    external\n    payable\n  {\n    if (info.token0 == address(0)) {\n      //eth to 1155\n      require(\n        info.token0 != info.token1,\n        \"SafeSwap: try to swap ether and ether\"\n      );\n      require(\n        msg.value == info.values0[0].add(info.fees0),\n        \"SafeSwap: value mismatch\"\n      );\n      require(info.values1[0] > 0, \"SafeSwap: no value for ERC1155 token\");\n    } else if (info.token1 == address(0)) {\n      //1155 to eth\n      require(msg.value == info.fees0, \"SafeSwap: value mismatch\");\n      require(info.values0[0] > 0, \"SafeSwap: no value for ERC1155 token\");\n      require(info.values1[0] > 0, \"SafeSwap: no value for ETH\");\n    } else if (info.values0[0] == 0) {\n      //721 to 1155\n      require(msg.value == info.fees0, \"SafeSwap: value mismatch\");\n      require(info.values1[0] > 0, \"SafeSwap: no value for ERC1155 token\");\n    } else if (info.values1[0] == 0) {\n      //1155 to 721\n      require(msg.value == info.fees0, \"SafeSwap: value mismatch\");\n      require(info.values0[0] > 0, \"SafeSwap: no value\");\n    } else {\n      //1155 to 1155\n      require(msg.value == info.fees0, \"SafeSwap: value mismatch\");\n      require(info.values0[0] > 0, \"SafeSwap: no value for ERC1155 token\");\n      require(info.values1[0] > 0, \"SafeSwap: no value for ERC1155 token\");\n    }\n    require(to != msg.sender, \"SafeSwap: sender==recipient\");\n    bytes32 id = keccak256(\n      abi.encode(\n        msg.sender,\n        to,\n        encodeObject(\n          info.token0,\n          info.tokenIds0,\n          info.values0,\n          info.tokenData0,\n          info.fees0\n        ),\n        encodeObject(\n          info.token1,\n          info.tokenIds1,\n          info.values1,\n          info.tokenData1,\n          info.fees1\n        ),\n        info.secretHash\n      )\n    );\n    require(s_swaps[id] == 0, \"SafeSwap: request exist\");\n    s_swaps[id] = 0xffffffffffffffff; // expiresAt: max, AvailableAt: 0, autoRetrieveFees: 0\n    emit ERC1155SwapDeposited(\n      msg.sender,\n      to,\n      info.token0,\n      info.tokenIds0,\n      info.values0,\n      info.fees0,\n      info.token1,\n      info.tokenIds1,\n      info.values1,\n      info.fees1,\n      info.secretHash\n    );\n  }\n\n  function swapRetrieveERC1155(address to, SwapERC1155Info memory info)\n    external\n  {\n    bytes32 id = keccak256(\n      abi.encode(\n        msg.sender,\n        to,\n        encodeObject(\n          info.token0,\n          info.tokenIds0,\n          info.values0,\n          info.tokenData0,\n          info.fees0\n        ),\n        encodeObject(\n          info.token1,\n          info.tokenIds1,\n          info.values1,\n          info.tokenData1,\n          info.fees1\n        ),\n        info.secretHash\n      )\n    );\n    require(s_swaps[id] > 0, \"SafeSwap: request not exist\");\n    delete s_swaps[id];\n    uint256 valueToSend;\n    if (info.token0 == address(0)) {\n      valueToSend = info.values0[0].add(info.fees0);\n    } else {\n      valueToSend = info.fees0;\n    }\n    msg.sender.transfer(valueToSend);\n    if (info.token0 == address(0)) {\n      emit Retrieved(msg.sender, to, id, valueToSend);\n    } else if (info.values0[0] == 0) {\n      //retrieve 721\n      emit ERC721Retrieved(info.token0, msg.sender, to, id);\n    } else {\n      emit ERC1155SwapRetrieved(\n        msg.sender,\n        to,\n        info.token0,\n        id\n      );\n    }\n  }\n\n  function swapERC1155(\n    address payable from,\n    SwapERC1155Info memory info,\n    bytes calldata secret\n  ) external payable {\n    bytes32 id = keccak256(\n      abi.encode(\n        from,\n        msg.sender,\n        encodeObject(\n          info.token0,\n          info.tokenIds0,\n          info.values0,\n          info.tokenData0,\n          info.fees0\n        ),\n        encodeObject(\n          info.token1,\n          info.tokenIds1,\n          info.values1,\n          info.tokenData1,\n          info.fees1\n        ),\n        info.secretHash\n      )\n    );\n    uint256 tr = s_swaps[id];\n    require(tr > 0, \"SafeSwap: request not exist\");\n    require(uint64(tr) > now, \"SafeSwap: expired\");\n    require(uint64(tr >> 64) <= now, \"SafeSwap: not available yet\");\n    require(keccak256(secret) == info.secretHash, \"SafeSwap: wrong secret\");\n    delete s_swaps[id];\n    s_fees = s_fees.add(info.fees0).add(info.fees1);\n    if (info.token0 == address(0)) {\n      //ether to 1155\n      msg.sender.transfer(info.values0[0]);\n    } else if (info.values0[0] == 0) {\n      //721 to 1155\n      IERC721(info.token0).safeTransferFrom(\n        from,\n        msg.sender,\n        info.tokenIds0[0],\n        info.tokenData0\n      );\n    } else {\n      //1155 to...\n      IERC1155(info.token0).safeBatchTransferFrom(\n        from,\n        msg.sender,\n        info.tokenIds0,\n        info.values0,\n        info.tokenData0\n      );\n    }\n    if (info.token1 == address(0)) {\n      //1155 to ether\n      require(\n        msg.value == info.values1[0].add(info.fees1),\n        \"SafeSwap: value mismatch\"\n      );\n      from.transfer(info.values1[0]);\n    } else if (info.values1[0] == 0) {\n      //1155 to 721\n      IERC721(info.token1).safeTransferFrom(\n        from,\n        msg.sender,\n        info.tokenIds1[0],\n        info.tokenData1\n      );\n    } else {\n      //... to 1155\n      require(msg.value == info.fees1, \"SafeSwap: value mismatch\");\n      IERC1155(info.token1).safeBatchTransferFrom(\n        msg.sender,\n        from,\n        info.tokenIds1,\n        info.values1,\n        info.tokenData1\n      );\n    }\n    emit ERC1155Swapped(\n      from,\n      msg.sender,\n      info.token0,\n      info.tokenIds0,\n      info.values0,\n      info.token1,\n      info.tokenIds1,\n      info.values1,\n      id\n    );\n  }\n\n  // ------------------------ swap batch ERC-1155 <-> ERC20 -----------------\n\n  function swapDepositERC1155ToERC20(\n    address payable to,\n    SwapBatchERC1155ToERC20Info memory info\n  ) external payable {\n    require(msg.value == info.fees0, \"SafeSwap: value mismatch\");\n    require(to != msg.sender, \"SafeSwap: sender==recipient\");\n    bytes32 id = keccak256(\n      abi.encode(\n        msg.sender,\n        to,\n        info.token0,\n        info.tokenIds0,\n        info.values0,\n        info.tokenData0,\n        info.fees0,\n        info.token1,\n        info.value1,\n        info.fees1,\n        info.secretHash\n      )\n    );\n    require(s_swaps[id] == 0, \"SafeSwap: request exist\");\n    s_swaps[id] = 0xffffffffffffffff; // expiresAt: max, AvailableAt: 0, autoRetrieveFees: 0\n    emit swapDepositERC1155ToERC20Event(\n      msg.sender,\n      to,\n      info.token0,\n      info.tokenIds0,\n      info.values0,\n      info.tokenData0,\n      info.fees0,\n      info.token1,\n      info.value1,\n      info.fees1,\n      info.secretHash\n    );\n  }\n\n  function swapRetrieveERC1155ToERC20(\n    address to,\n    SwapBatchERC1155ToERC20Info memory info\n  ) external {\n    bytes32 id = keccak256(\n      abi.encode(\n        msg.sender,\n        to,\n        info.token0,\n        info.tokenIds0,\n        info.values0,\n        info.tokenData0,\n        info.fees0,\n        info.token1,\n        info.value1,\n        info.fees1,\n        info.secretHash\n      )\n    );\n    require(s_swaps[id] > 0, \"SafeSwap: request not exist\");\n    delete s_swaps[id];\n    uint256 valueToSend = info.fees0;\n    msg.sender.transfer(valueToSend);\n    emit swapRetrieveERC1155ToERC20Event(\n      msg.sender,\n      to,\n      info.token0,\n      info.tokenIds0,\n      info.values0,\n      info.tokenData0,\n      id\n    );\n  }\n\n  function swapERC1155ToERC20(\n    address payable from,\n    SwapBatchERC1155ToERC20Info memory info,\n    bytes calldata secret\n  ) external payable {\n    bytes32 id = keccak256(\n      abi.encode(\n        from,\n        msg.sender,\n        info.token0,\n        info.tokenIds0,\n        info.values0,\n        info.tokenData0,\n        info.fees0,\n        info.token1,\n        info.value1,\n        info.fees1,\n        info.secretHash\n      )\n    );\n    uint256 tr = s_swaps[id];\n    require(tr > 0, \"SafeSwap: request not exist\");\n    require(uint64(tr) > now, \"SafeSwap: expired\");\n    require(uint64(tr >> 64) <= now, \"SafeSwap: not available yet\");\n    require(keccak256(secret) == info.secretHash, \"SafeSwap: wrong secret\");\n    require(msg.value == info.fees1, \"SafeSwap: value mismatch\");\n    delete s_swaps[id];\n    s_fees = s_fees.add(info.fees0).add(info.fees1);\n    IERC1155(info.token0).safeBatchTransferFrom(\n      from,\n      msg.sender,\n      info.tokenIds0,\n      info.values0,\n      info.tokenData0\n    );\n    IERC20(info.token1).safeTransferFrom(msg.sender, from, info.value1);\n    emit swapERC1155ToERC20Event(\n      from,\n      msg.sender,\n      info.token0,\n      info.tokenIds0,\n      info.values0,\n      info.tokenData0,\n      info.token1,\n      info.value1,\n      id\n    );\n  }\n\n  // ------------------------ swap ERC20 <-> batch ERC-1155  -----------------\n\n  function swapDepositERC20ToERC1155(\n    address payable to,\n    SwapERC20ToBatchERC1155Info memory info\n  ) external payable {\n    require(msg.value == info.fees0, \"SafeSwap: value mismatch\");\n    require(to != msg.sender, \"SafeSwap: sender==recipient\");\n    bytes32 id = keccak256(\n      abi.encode(\n        msg.sender,\n        to,\n        info.token0,\n        info.value0,\n        info.fees0,\n        info.token1,\n        info.tokenIds1,\n        info.values1,\n        info.tokenData1,\n        info.fees1,\n        info.secretHash\n      )\n    );\n    require(s_swaps[id] == 0, \"SafeSwap: request exist\");\n    s_swaps[id] = 0xffffffffffffffff; // expiresAt: max, AvailableAt: 0, autoRetrieveFees: 0\n    emit swapDepositERC20ToERC1155Event(\n      msg.sender,\n      to,\n      info.token0,\n      info.value0,\n      info.fees0,\n      info.token1,\n      info.tokenIds1,\n      info.values1,\n      info.tokenData1,\n      info.fees1,\n      info.secretHash\n    );\n  }\n\n  function swapRetrieveERC20ToERC1155(\n    address to,\n    SwapERC20ToBatchERC1155Info memory info\n  ) external {\n    bytes32 id = keccak256(\n      abi.encode(\n        msg.sender,\n        to,\n        info.token0,\n        info.value0,\n        info.fees0,\n        info.token1,\n        info.tokenIds1,\n        info.values1,\n        info.tokenData1,\n        info.fees1,\n        info.secretHash\n      )\n    );\n    require(s_swaps[id] > 0, \"SafeSwap: request not exist\");\n    delete s_swaps[id];\n    uint256 valueToSend = info.fees0;\n    msg.sender.transfer(valueToSend);\n    emit swapRetrieveERC20ToERC1155Event(\n      msg.sender,\n      to,\n      info.token0,\n      info.value0,\n      id\n    );\n  }\n\n  function swapERC20ToERC1155(\n    address payable from,\n    SwapERC20ToBatchERC1155Info memory info,\n    bytes calldata secret\n  ) external payable {\n    bytes32 id = keccak256(\n      abi.encode(\n        from,\n        msg.sender,\n        info.token0,\n        info.value0,\n        info.fees0,\n        info.token1,\n        info.tokenIds1,\n        info.values1,\n        info.tokenData1,\n        info.fees1,\n        info.secretHash\n      )\n    );\n    uint256 tr = s_swaps[id];\n    require(tr > 0, \"SafeSwap: request not exist\");\n    require(uint64(tr) > now, \"SafeSwap: expired\");\n    require(uint64(tr >> 64) <= now, \"SafeSwap: not available yet\");\n    require(keccak256(secret) == info.secretHash, \"SafeSwap: wrong secret\");\n    require(msg.value == info.fees1, \"SafeSwap: value mismatch\");\n    delete s_swaps[id];\n    s_fees = s_fees.add(info.fees0).add(info.fees1);\n    IERC20(info.token0).safeTransferFrom(from, msg.sender, info.value0);\n    IERC1155(info.token1).safeBatchTransferFrom(\n      msg.sender,\n      from,\n      info.tokenIds1,\n      info.values1,\n      info.tokenData1\n    );\n    emit swapERC20ToERC1155Event(\n      from,\n      msg.sender,\n      info.token0,\n      info.value0,\n      info.token1,\n      info.tokenIds1,\n      info.values1,\n      info.tokenData1,\n      id\n    );\n  }\n\n  //------------------- swap ETH <-> batch 1155 ---------------------\n/*   function swapDepositETHToERC1155(\n    address payable to,\n    SwapETHToBatchERC1155Info memory info\n  ) external payable {\n    //eth to 1155\n    require(\n      info.token0 != info.token1,\n      \"SafeSwap: try to swap ether and ether\"\n    );\n    require(\n      msg.value == info.value0.add(info.fees0),\n      \"SafeSwap: value mismatch\"\n    );\n    require(to != msg.sender, \"SafeSwap: sender==recipient\");\n    bytes32 id = keccak256(\n      abi.encode(\n        msg.sender,\n        to,\n        info.token0,\n        info.tokenId0,\n        info.value0,\n        info.fees0,\n        info.token1,\n        info.tokenIds1,\n        info.values1,\n        info.tokenData1,\n        info.fees1,\n        info.secretHash\n      )\n    );\n    require(s_swaps[id] == 0, \"SafeSwap: request exist\");\n    s_swaps[id] = 0xffffffffffffffff; // expiresAt: max, AvailableAt: 0, autoRetrieveFees: 0\n    emit swapDepositETHToERC1155Event(\n      msg.sender,\n      to,\n      info.token0,\n      info.value0,\n      info.fees0,\n      info.token1,\n      info.tokenIds1,\n      info.values1,\n      info.fees1,\n      info.secretHash\n    );\n  }\n\n  function swapRetrieveETHToERC1155(\n    address to,\n    SwapETHToBatchERC1155Info memory info\n  ) external {\n    bytes32 id = keccak256(\n      abi.encode(\n        msg.sender,\n        to,\n        info.token0,\n        info.tokenId0,\n        info.value0,\n        info.fees0,\n        info.token1,\n        info.tokenIds1,\n        info.values1,\n        info.tokenData1,\n        info.fees1,\n        info.secretHash\n      )\n    );\n    require(s_swaps[id] > 0, \"SafeSwap: request not exist\");\n    delete s_swaps[id];\n    uint256 valueToSend;\n    valueToSend = info.value0.add(info.fees0);\n    msg.sender.transfer(valueToSend);\n    emit Retrieved(msg.sender, to, id, valueToSend);\n  }\n\n  function swapETHToERC1155(\n    address payable from,\n    SwapETHToBatchERC1155Info memory info,\n    bytes calldata secret\n  ) external payable {\n    bytes32 id = keccak256(\n      abi.encode(\n        from,\n        msg.sender,\n        info.token0,\n        info.tokenId0,\n        info.value0,\n        info.fees0,\n        info.token1,\n        info.tokenIds1,\n        info.values1,\n        info.tokenData1,\n        info.fees1,\n        info.secretHash\n      )\n    );\n    uint256 tr = s_swaps[id];\n    require(tr > 0, \"SafeSwap: request not exist\");\n    require(uint64(tr) > now, \"SafeSwap: expired\");\n    require(uint64(tr >> 64) <= now, \"SafeSwap: not available yet\");\n    require(keccak256(secret) == info.secretHash, \"SafeSwap: wrong secret\");\n    delete s_swaps[id];\n    s_fees = s_fees.add(info.fees0).add(info.fees1);\n    msg.sender.transfer(info.value0);\n    require(msg.value == info.fees1, \"SafeSwap: value mismatch\");\n    IERC1155(info.token1).safeBatchTransferFrom(\n      msg.sender,\n      from,\n      info.tokenIds1,\n      info.values1,\n      info.tokenData1\n    );\n    emit swapETHToERC1155Event(\n      from,\n      msg.sender,\n      info.token0,\n      info.value0,\n      info.token1,\n      info.tokenIds1,\n      info.values1,\n      id\n    );\n  } */\n}\n\n//need to add :\n//swap 1155 with 721\n//swap 721 with 1155\n// to batch1155\n//batch swap 1155 to 721\n//batch swap 721 to 1155\n//batch swap eth to 1155\n//swap batch1155 with batch1155\n//hidden transfer\n//hiddem batch transfer\n//hidden swap - eth to 1155\n//hidden swap - 11\n",
  "sourcePath": "/Users/tal/code/tasks/ki-eth-token/contracts/SafeForERC1155.sol",
  "compiler": {
    "name": "solc",
    "version": "0.6.12+commit.27d51765.Emscripten.clang"
  },
  "schemaVersion": "3.3.4",
  "updatedAt": "2022-04-24T18:10:52.488Z",
  "devdoc": {
    "kind": "dev",
    "methods": {
      "getRoleAdmin(bytes32)": {
        "details": "Returns the admin role that controls `role`. See {grantRole} and {revokeRole}. To change a role's admin, use {_setRoleAdmin}."
      },
      "getRoleMember(bytes32,uint256)": {
        "details": "Returns one of the accounts that have `role`. `index` must be a value between 0 and {getRoleMemberCount}, non-inclusive. Role bearers are not sorted in any particular way, and their ordering may change at any point. WARNING: When using {getRoleMember} and {getRoleMemberCount}, make sure you perform all queries on the same block. See the following https://forum.openzeppelin.com/t/iterating-over-elements-on-enumerableset-in-openzeppelin-contracts/2296[forum post] for more information."
      },
      "getRoleMemberCount(bytes32)": {
        "details": "Returns the number of accounts that have `role`. Can be used together with {getRoleMember} to enumerate all bearers of a role."
      },
      "grantRole(bytes32,address)": {
        "details": "Grants `role` to `account`. If `account` had not been already granted `role`, emits a {RoleGranted} event. Requirements: - the caller must have ``role``'s admin role."
      },
      "hasRole(bytes32,address)": {
        "details": "Returns `true` if `account` has been granted `role`."
      },
      "renounceRole(bytes32,address)": {
        "details": "Revokes `role` from the calling account. Roles are often managed via {grantRole} and {revokeRole}: this function's purpose is to provide a mechanism for accounts to lose their privileges if they are compromised (such as when a trusted device is misplaced). If the calling account had been granted `role`, emits a {RoleRevoked} event. Requirements: - the caller must be `account`."
      },
      "revokeRole(bytes32,address)": {
        "details": "Revokes `role` from `account`. If `account` had been granted `role`, emits a {RoleRevoked} event. Requirements: - the caller must have ``role``'s admin role."
      }
    },
    "version": 1
  },
  "userdoc": {
    "kind": "user",
    "methods": {},
    "version": 1
  }
}