{
  "contractName": "Staking",
  "abi": [
    {
      "inputs": [
        {
          "internalType": "address",
          "name": "pair",
          "type": "address"
        },
        {
          "internalType": "address",
          "name": "kiro",
          "type": "address"
        }
      ],
      "stateMutability": "nonpayable",
      "type": "constructor"
    },
    {
      "anonymous": false,
      "inputs": [
        {
          "indexed": true,
          "internalType": "address",
          "name": "distributer",
          "type": "address"
        },
        {
          "indexed": false,
          "internalType": "uint256",
          "name": "amount",
          "type": "uint256"
        }
      ],
      "name": "LeftoverCollected",
      "type": "event"
    },
    {
      "anonymous": false,
      "inputs": [
        {
          "indexed": true,
          "internalType": "address",
          "name": "distributer",
          "type": "address"
        },
        {
          "indexed": false,
          "internalType": "uint256",
          "name": "reward",
          "type": "uint256"
        },
        {
          "indexed": false,
          "internalType": "uint256",
          "name": "duration",
          "type": "uint256"
        }
      ],
      "name": "RewardAdded",
      "type": "event"
    },
    {
      "anonymous": false,
      "inputs": [
        {
          "indexed": true,
          "internalType": "address",
          "name": "user",
          "type": "address"
        },
        {
          "indexed": false,
          "internalType": "uint256",
          "name": "reward",
          "type": "uint256"
        }
      ],
      "name": "RewardPaid",
      "type": "event"
    },
    {
      "anonymous": false,
      "inputs": [
        {
          "indexed": true,
          "internalType": "bytes32",
          "name": "role",
          "type": "bytes32"
        },
        {
          "indexed": true,
          "internalType": "bytes32",
          "name": "previousAdminRole",
          "type": "bytes32"
        },
        {
          "indexed": true,
          "internalType": "bytes32",
          "name": "newAdminRole",
          "type": "bytes32"
        }
      ],
      "name": "RoleAdminChanged",
      "type": "event"
    },
    {
      "anonymous": false,
      "inputs": [
        {
          "indexed": true,
          "internalType": "bytes32",
          "name": "role",
          "type": "bytes32"
        },
        {
          "indexed": true,
          "internalType": "address",
          "name": "account",
          "type": "address"
        },
        {
          "indexed": true,
          "internalType": "address",
          "name": "sender",
          "type": "address"
        }
      ],
      "name": "RoleGranted",
      "type": "event"
    },
    {
      "anonymous": false,
      "inputs": [
        {
          "indexed": true,
          "internalType": "bytes32",
          "name": "role",
          "type": "bytes32"
        },
        {
          "indexed": true,
          "internalType": "address",
          "name": "account",
          "type": "address"
        },
        {
          "indexed": true,
          "internalType": "address",
          "name": "sender",
          "type": "address"
        }
      ],
      "name": "RoleRevoked",
      "type": "event"
    },
    {
      "anonymous": false,
      "inputs": [
        {
          "indexed": true,
          "internalType": "address",
          "name": "user",
          "type": "address"
        },
        {
          "indexed": false,
          "internalType": "uint256",
          "name": "amount",
          "type": "uint256"
        }
      ],
      "name": "Staked",
      "type": "event"
    },
    {
      "anonymous": false,
      "inputs": [
        {
          "indexed": true,
          "internalType": "address",
          "name": "user",
          "type": "address"
        },
        {
          "indexed": false,
          "internalType": "uint256",
          "name": "amount",
          "type": "uint256"
        }
      ],
      "name": "Withdrawn",
      "type": "event"
    },
    {
      "inputs": [],
      "name": "DEFAULT_ADMIN_ROLE",
      "outputs": [
        {
          "internalType": "bytes32",
          "name": "",
          "type": "bytes32"
        }
      ],
      "stateMutability": "view",
      "type": "function"
    },
    {
      "inputs": [],
      "name": "DISTRIBUTER_ROLE",
      "outputs": [
        {
          "internalType": "bytes32",
          "name": "",
          "type": "bytes32"
        }
      ],
      "stateMutability": "view",
      "type": "function"
    },
    {
      "inputs": [],
      "name": "KIRO",
      "outputs": [
        {
          "internalType": "contract IERC20",
          "name": "",
          "type": "address"
        }
      ],
      "stateMutability": "view",
      "type": "function"
    },
    {
      "inputs": [],
      "name": "PAIR",
      "outputs": [
        {
          "internalType": "contract IUniswapV2Pair",
          "name": "",
          "type": "address"
        }
      ],
      "stateMutability": "view",
      "type": "function"
    },
    {
      "inputs": [
        {
          "internalType": "bytes32",
          "name": "role",
          "type": "bytes32"
        }
      ],
      "name": "getRoleAdmin",
      "outputs": [
        {
          "internalType": "bytes32",
          "name": "",
          "type": "bytes32"
        }
      ],
      "stateMutability": "view",
      "type": "function"
    },
    {
      "inputs": [
        {
          "internalType": "bytes32",
          "name": "role",
          "type": "bytes32"
        },
        {
          "internalType": "uint256",
          "name": "index",
          "type": "uint256"
        }
      ],
      "name": "getRoleMember",
      "outputs": [
        {
          "internalType": "address",
          "name": "",
          "type": "address"
        }
      ],
      "stateMutability": "view",
      "type": "function"
    },
    {
      "inputs": [
        {
          "internalType": "bytes32",
          "name": "role",
          "type": "bytes32"
        }
      ],
      "name": "getRoleMemberCount",
      "outputs": [
        {
          "internalType": "uint256",
          "name": "",
          "type": "uint256"
        }
      ],
      "stateMutability": "view",
      "type": "function"
    },
    {
      "inputs": [
        {
          "internalType": "bytes32",
          "name": "role",
          "type": "bytes32"
        },
        {
          "internalType": "address",
          "name": "account",
          "type": "address"
        }
      ],
      "name": "grantRole",
      "outputs": [],
      "stateMutability": "nonpayable",
      "type": "function"
    },
    {
      "inputs": [
        {
          "internalType": "bytes32",
          "name": "role",
          "type": "bytes32"
        },
        {
          "internalType": "address",
          "name": "account",
          "type": "address"
        }
      ],
      "name": "hasRole",
      "outputs": [
        {
          "internalType": "bool",
          "name": "",
          "type": "bool"
        }
      ],
      "stateMutability": "view",
      "type": "function"
    },
    {
      "inputs": [
        {
          "internalType": "bytes32",
          "name": "role",
          "type": "bytes32"
        },
        {
          "internalType": "address",
          "name": "account",
          "type": "address"
        }
      ],
      "name": "renounceRole",
      "outputs": [],
      "stateMutability": "nonpayable",
      "type": "function"
    },
    {
      "inputs": [
        {
          "internalType": "bytes32",
          "name": "role",
          "type": "bytes32"
        },
        {
          "internalType": "address",
          "name": "account",
          "type": "address"
        }
      ],
      "name": "revokeRole",
      "outputs": [],
      "stateMutability": "nonpayable",
      "type": "function"
    },
    {
      "stateMutability": "payable",
      "type": "receive"
    },
    {
      "inputs": [
        {
          "internalType": "uint256",
          "name": "other",
          "type": "uint256"
        }
      ],
      "name": "setStakingLimit",
      "outputs": [],
      "stateMutability": "nonpayable",
      "type": "function"
    },
    {
      "inputs": [
        {
          "internalType": "address",
          "name": "from",
          "type": "address"
        },
        {
          "internalType": "uint256",
          "name": "amount",
          "type": "uint256"
        },
        {
          "internalType": "uint256",
          "name": "duration",
          "type": "uint256"
        }
      ],
      "name": "addReward",
      "outputs": [],
      "stateMutability": "nonpayable",
      "type": "function"
    },
    {
      "inputs": [],
      "name": "collectLeftover",
      "outputs": [],
      "stateMutability": "nonpayable",
      "type": "function"
    },
    {
      "inputs": [
        {
          "internalType": "uint256",
          "name": "amount",
          "type": "uint256"
        }
      ],
      "name": "stake",
      "outputs": [],
      "stateMutability": "nonpayable",
      "type": "function"
    },
    {
      "inputs": [],
      "name": "exit",
      "outputs": [],
      "stateMutability": "nonpayable",
      "type": "function"
    },
    {
      "inputs": [
        {
          "internalType": "uint256",
          "name": "amount",
          "type": "uint256"
        }
      ],
      "name": "withdraw",
      "outputs": [],
      "stateMutability": "nonpayable",
      "type": "function"
    },
    {
      "inputs": [],
      "name": "getReward",
      "outputs": [],
      "stateMutability": "nonpayable",
      "type": "function"
    },
    {
      "inputs": [
        {
          "internalType": "address",
          "name": "account",
          "type": "address"
        }
      ],
      "name": "earned",
      "outputs": [
        {
          "internalType": "uint256",
          "name": "",
          "type": "uint256"
        }
      ],
      "stateMutability": "view",
      "type": "function"
    },
    {
      "inputs": [],
      "name": "rewardPerToken",
      "outputs": [
        {
          "internalType": "uint256",
          "name": "",
          "type": "uint256"
        }
      ],
      "stateMutability": "view",
      "type": "function"
    },
    {
      "inputs": [],
      "name": "lastTimeRewardApplicable",
      "outputs": [
        {
          "internalType": "uint256",
          "name": "",
          "type": "uint256"
        }
      ],
      "stateMutability": "view",
      "type": "function"
    },
    {
      "inputs": [
        {
          "internalType": "address",
          "name": "account",
          "type": "address"
        }
      ],
      "name": "pairLimit",
      "outputs": [
        {
          "internalType": "uint256",
          "name": "",
          "type": "uint256"
        }
      ],
      "stateMutability": "view",
      "type": "function"
    },
    {
      "inputs": [],
      "name": "pairInfo",
      "outputs": [
        {
          "internalType": "uint256",
          "name": "kiro",
          "type": "uint256"
        },
        {
          "internalType": "uint256",
          "name": "other",
          "type": "uint256"
        },
        {
          "internalType": "uint256",
          "name": "totalSupply",
          "type": "uint256"
        }
      ],
      "stateMutability": "view",
      "type": "function"
    },
    {
      "inputs": [
        {
          "internalType": "uint256",
          "name": "amount",
          "type": "uint256"
        }
      ],
      "name": "pairOtherBalance",
      "outputs": [
        {
          "internalType": "uint256",
          "name": "",
          "type": "uint256"
        }
      ],
      "stateMutability": "view",
      "type": "function"
    },
    {
      "inputs": [
        {
          "internalType": "uint256",
          "name": "amount",
          "type": "uint256"
        }
      ],
      "name": "pairKiroBalance",
      "outputs": [
        {
          "internalType": "uint256",
          "name": "",
          "type": "uint256"
        }
      ],
      "stateMutability": "view",
      "type": "function"
    },
    {
      "inputs": [],
      "name": "totalSupply",
      "outputs": [
        {
          "internalType": "uint256",
          "name": "",
          "type": "uint256"
        }
      ],
      "stateMutability": "view",
      "type": "function"
    },
    {
      "inputs": [],
      "name": "periodFinish",
      "outputs": [
        {
          "internalType": "uint256",
          "name": "",
          "type": "uint256"
        }
      ],
      "stateMutability": "view",
      "type": "function"
    },
    {
      "inputs": [],
      "name": "rewardRate",
      "outputs": [
        {
          "internalType": "uint256",
          "name": "",
          "type": "uint256"
        }
      ],
      "stateMutability": "view",
      "type": "function"
    },
    {
      "inputs": [],
      "name": "lastUpdateTime",
      "outputs": [
        {
          "internalType": "uint256",
          "name": "",
          "type": "uint256"
        }
      ],
      "stateMutability": "view",
      "type": "function"
    },
    {
      "inputs": [],
      "name": "rewardPerTokenStored",
      "outputs": [
        {
          "internalType": "uint256",
          "name": "",
          "type": "uint256"
        }
      ],
      "stateMutability": "view",
      "type": "function"
    },
    {
      "inputs": [
        {
          "internalType": "address",
          "name": "account",
          "type": "address"
        }
      ],
      "name": "balanceOf",
      "outputs": [
        {
          "internalType": "uint256",
          "name": "",
          "type": "uint256"
        }
      ],
      "stateMutability": "view",
      "type": "function"
    },
    {
      "inputs": [
        {
          "internalType": "address",
          "name": "account",
          "type": "address"
        }
      ],
      "name": "userRewardPerTokenPaid",
      "outputs": [
        {
          "internalType": "uint256",
          "name": "",
          "type": "uint256"
        }
      ],
      "stateMutability": "view",
      "type": "function"
    },
    {
      "inputs": [
        {
          "internalType": "address",
          "name": "account",
          "type": "address"
        }
      ],
      "name": "rewards",
      "outputs": [
        {
          "internalType": "uint256",
          "name": "",
          "type": "uint256"
        }
      ],
      "stateMutability": "view",
      "type": "function"
    },
    {
      "inputs": [],
      "name": "stakingLimit",
      "outputs": [
        {
          "internalType": "uint256",
          "name": "",
          "type": "uint256"
        }
      ],
      "stateMutability": "view",
      "type": "function"
    },
    {
      "inputs": [],
      "name": "leftover",
      "outputs": [
        {
          "internalType": "uint256",
          "name": "",
          "type": "uint256"
        }
      ],
      "stateMutability": "view",
      "type": "function"
    }
  ],
  "bytecode": "0x60806040523480156200001157600080fd5b506040516200240738038062002407833981810160405260408110156200003757600080fd5b5080516020909101516200004d600033620001ef565b620000797f09630fffc1c31ed9c8dd68f6e39219ed189b07ff9a25e1efc743b828f69d555e33620001ef565b600180546001600160a01b03199081166001600160a01b0385811691909117928390556002805490921684821617909155676124fee993bc0000600855620000ce9116620001ff602090811b6200167f17901c565b62000120576040805162461bcd60e51b815260206004820152601f60248201527f5374616b696e673a2070616972206973206e6f74206120636f6e747261637400604482015290519081900360640190fd5b60025462000143906001600160a01b0316620001ff602090811b6200167f17901c565b62000195576040805162461bcd60e51b815260206004820152601f60248201527f5374616b696e673a206b69726f206973206e6f74206120636f6e747261637400604482015290519081900360640190fd5b6002546001546001600160a01b0390811691161415620001e75760405162461bcd60e51b8152600401808060200182810382526023815260200180620023e46023913960400191505060405180910390fd5b505062000340565b620001fb82826200023c565b5050565b6000813f7fc5d2460186f7233c927e7db2dcc703c0e500b653ca82273b7bfad8045d85a4708181148015906200023457508115155b949350505050565b60008281526020818152604090912062000261918390620016b8620002b5821b17901c565b15620001fb5762000271620002d5565b6001600160a01b0316816001600160a01b0316837f2f8788117e7eff1d82e926ec794901d17c78024a50270940304540a733656f0d60405160405180910390a45050565b6000620002cc836001600160a01b038416620002d9565b90505b92915050565b3390565b6000620002e7838362000328565b6200031f57508154600181810184556000848152602080822090930184905584548482528286019093526040902091909155620002cf565b506000620002cf565b60009081526001919091016020526040902054151590565b61209480620003506000396000f3fe6080604052600436106102365760003560e01c80637b0a47ee11610138578063ca15c873116100b0578063e92690fd1161007f578063ebe2b12b11610064578063ebe2b12b1461076f578063f10e00d614610784578063fc2a5b1d146107995761028a565b8063e92690fd14610745578063e9fad8ee1461075a5761028a565b8063ca15c873146106b8578063cd3daf9d146106e2578063d547741f146106f7578063df136d65146107305761028a565b806391d1485411610107578063a694fc3a116100ec578063a694fc3a14610664578063ace3a8a71461068e578063c8f33c91146106a35761028a565b806391d1485414610602578063a217fddf1461064f5761028a565b80637b0a47ee1461055957806380faa57d1461056e5780638b876347146105835780639010d07c146105b65761028a565b80632f2ff15d116101cb57806355ba2f4f1161019a5780636cb455b71161017f5780636cb455b7146104d257806370966c28146104fc57806370a08231146105265761028a565b806355ba2f4f1461048a57806366f048dc1461049f5761028a565b80632f2ff15d146103c457806336568abe146103fd5780633d18b9121461043657806344ea559a1461044b5761028a565b8063174e015b11610207578063174e015b1461034657806318160ddd1461035b578063248a9ca3146103705780632e1a7d4d1461039a5761028a565b80628cc2621461028f578062f7fa8c146102d45780630700037d146102fe5780630b5e4dbb146103315761028a565b3661028a576040805162461bcd60e51b815260206004820152601c60248201527f5374616b696e673a206e6f7420616365657074696e6720657468657200000000604482015290519081900360640190fd5b005b600080fd5b34801561029b57600080fd5b506102c2600480360360208110156102b257600080fd5b50356001600160a01b03166107cc565b60408051918252519081900360200190f35b3480156102e057600080fd5b506102c2600480360360208110156102f757600080fd5b503561084a565b34801561030a57600080fd5b506102c26004803603602081101561032157600080fd5b50356001600160a01b0316610874565b34801561033d57600080fd5b5061028861088f565b34801561035257600080fd5b506102c2610a90565b34801561036757600080fd5b506102c2610a97565b34801561037c57600080fd5b506102c26004803603602081101561039357600080fd5b5035610a9d565b3480156103a657600080fd5b50610288600480360360208110156103bd57600080fd5b5035610ab2565b3480156103d057600080fd5b50610288600480360360408110156103e757600080fd5b50803590602001356001600160a01b0316610c26565b34801561040957600080fd5b506102886004803603604081101561042057600080fd5b50803590602001356001600160a01b0316610c92565b34801561044257600080fd5b50610288610cf3565b34801561045757600080fd5b506102886004803603606081101561046e57600080fd5b506001600160a01b038135169060208101359060400135610df9565b34801561049657600080fd5b506102c261101e565b3480156104ab57600080fd5b506102c2600480360360208110156104c257600080fd5b50356001600160a01b0316611024565b3480156104de57600080fd5b50610288600480360360208110156104f557600080fd5b5035611089565b34801561050857600080fd5b506102c26004803603602081101561051f57600080fd5b50356110f3565b34801561053257600080fd5b506102c26004803603602081101561054957600080fd5b50356001600160a01b031661111c565b34801561056557600080fd5b506102c2611137565b34801561057a57600080fd5b506102c261113d565b34801561058f57600080fd5b506102c2600480360360208110156105a657600080fd5b50356001600160a01b0316611150565b3480156105c257600080fd5b506105e6600480360360408110156105d957600080fd5b508035906020013561116b565b604080516001600160a01b039092168252519081900360200190f35b34801561060e57600080fd5b5061063b6004803603604081101561062557600080fd5b50803590602001356001600160a01b031661118a565b604080519115158252519081900360200190f35b34801561065b57600080fd5b506102c26111a2565b34801561067057600080fd5b506102886004803603602081101561068757600080fd5b50356111a7565b34801561069a57600080fd5b506105e6611374565b3480156106af57600080fd5b506102c2611383565b3480156106c457600080fd5b506102c2600480360360208110156106db57600080fd5b5035611389565b3480156106ee57600080fd5b506102c26113a0565b34801561070357600080fd5b506102886004803603604081101561071a57600080fd5b50803590602001356001600160a01b03166113e8565b34801561073c57600080fd5b506102c2611441565b34801561075157600080fd5b506105e6611447565b34801561076657600080fd5b50610288611456565b34801561077b57600080fd5b506102c2611479565b34801561079057600080fd5b506102c261147f565b3480156107a557600080fd5b506107ae6114a3565b60408051938452602084019290925282820152519081900360600190f35b6001600160a01b0381166000908152600c6020908152604080832054600b909252822054610844919061083e90670de0b6b3a76400009061083890610819906108136113a0565b906116cd565b6001600160a01b0388166000908152600a60205260409020549061170f565b90611768565b906117aa565b92915050565b60008060006108576114a3565b909350915061086c905081610838848761170f565b949350505050565b6001600160a01b03166000908152600c602052604090205490565b6108b97f09630fffc1c31ed9c8dd68f6e39219ed189b07ff9a25e1efc743b828f69d555e3361118a565b6108f45760405162461bcd60e51b8152600401808060200182810382526024815260200180611fbe6024913960400191505060405180910390fd5b60006108fe6113a0565b600755600061090b61113d565b9050600354600014156109495761094561093c600554610936600654856116cd90919063ffffffff16565b9061170f565b600954906117aa565b6009555b60068190556001600160a01b0382161561099257610966826107cc565b6001600160a01b0383166000908152600c6020908152604080832093909355600754600b909152919020555b600254604080517f70a0823100000000000000000000000000000000000000000000000000000000815230600482015290516000926001600160a01b0316916370a08231916024808301926020929190829003018186803b1580156109f657600080fd5b505afa158015610a0a573d6000803e3d6000fd5b505050506040513d6020811015610a2057600080fd5b5051600954909150600090610a359083611804565b6000600955600254909150610a54906001600160a01b0316338361181a565b60408051828152905133917f03c8ad53f8f15df4e000e8ad831ec78f5c600de38d3d8fd21a8d573256fd2d9b919081900360200190a250505050565b6009545b90565b60035490565b60009081526020819052604090206002015490565b33610abb6113a0565b6007556000610ac861113d565b905060035460001415610af757610af361093c600554610936600654856116cd90919063ffffffff16565b6009555b60068190556001600160a01b03821615610b4057610b14826107cc565b6001600160a01b0383166000908152600c6020908152604080832093909355600754600b909152919020555b60008311610b95576040805162461bcd60e51b815260206004820152601a60248201527f5374616b696e673a2063616e6e6f742077697468647261772030000000000000604482015290519081900360640190fd5b600354610ba290846116cd565b600355336000908152600a6020526040902054610bbf90846116cd565b336000818152600a6020526040902091909155600154610beb916001600160a01b03909116908561181a565b60408051848152905133917f7084f5476618d8e60b11ef0d7d3f06914655adb8793e28ff7f018d4c76d505d5919081900360200190a2505050565b600082815260208190526040902060020154610c4990610c4461189a565b61118a565b610c845760405162461bcd60e51b815260040180806020018281038252602f815260200180611f1b602f913960400191505060405180910390fd5b610c8e828261189e565b5050565b610c9a61189a565b6001600160a01b0316816001600160a01b031614610ce95760405162461bcd60e51b815260040180806020018281038252602f815260200180612030602f913960400191505060405180910390fd5b610c8e8282611907565b33610cfc6113a0565b6007556000610d0961113d565b905060035460001415610d3857610d3461093c600554610936600654856116cd90919063ffffffff16565b6009555b60068190556001600160a01b03821615610d8157610d55826107cc565b6001600160a01b0383166000908152600c6020908152604080832093909355600754600b909152919020555b6000610d8c336107cc565b90508015610df457336000818152600c6020526040812055600254610dbd916001600160a01b03909116908361181a565b60408051828152905133917fe2403640ba68fed3a2f88b7557551d1993f84b99bb10ff833f0cf8db0c5e0486919081900360200190a25b505050565b610e237f09630fffc1c31ed9c8dd68f6e39219ed189b07ff9a25e1efc743b828f69d555e3361118a565b610e5e5760405162461bcd60e51b8152600401808060200182810382526024815260200180611fbe6024913960400191505060405180910390fd5b6000610e686113a0565b6007556000610e7561113d565b905060035460001415610ea457610ea061093c600554610936600654856116cd90919063ffffffff16565b6009555b60068190556001600160a01b03821615610eed57610ec1826107cc565b6001600160a01b0383166000908152600c6020908152604080832093909355600754600b909152919020555b828411610f2b5760405162461bcd60e51b8152600401808060200182810382526023815260200180611f4a6023913960400191505060405180910390fd5b6000610f378585611768565b9050600554811015610f7a5760405162461bcd60e51b8152600401808060200182810382526024815260200180611fe26024913960400191505060405180910390fd5b600454421015610fac57610fa9610fa2600554610936426004546116cd90919063ffffffff16565b86906116cd565b94505b6005819055426006819055610fc190856117aa565b600455600254610fdc906001600160a01b0316873088611970565b6040805186815260208101869052815133927f6a6f77044107a33658235d41bedbbaf2fe9ccdceb313143c947a5e76e1ec8474928290030190a2505050505050565b60085490565b60008060006110316114a3565b92509250506000611051836108386008548561170f90919063ffffffff16565b6001600160a01b0386166000908152600a602052604090205490915080821161107b57600061107f565b8082035b9695505050505050565b6110b37f09630fffc1c31ed9c8dd68f6e39219ed189b07ff9a25e1efc743b828f69d555e3361118a565b6110ee5760405162461bcd60e51b8152600401808060200182810382526024815260200180611fbe6024913960400191505060405180910390fd5b600855565b60008060006111006114a3565b925050915061086c81610838868561170f90919063ffffffff16565b6001600160a01b03166000908152600a602052604090205490565b60055490565b600061114b42600454611804565b905090565b6001600160a01b03166000908152600b602052604090205490565b600082815260208190526040812061118390836119fe565b9392505050565b60008281526020819052604081206111839083611a0a565b600081565b336111b06113a0565b60075560006111bd61113d565b9050600354600014156111ec576111e861093c600554610936600654856116cd90919063ffffffff16565b6009555b60068190556001600160a01b0382161561123557611209826107cc565b6001600160a01b0383166000908152600c6020908152604080832093909355600754600b909152919020555b6000831161128a576040805162461bcd60e51b815260206004820152601760248201527f5374616b696e673a2063616e6e6f74207374616b652030000000000000000000604482015290519081900360640190fd5b61129333611024565b8311156112e7576040805162461bcd60e51b815260206004820152601d60248201527f5374616b696e673a20616d6f756e742065786365656473206c696d6974000000604482015290519081900360640190fd5b336000908152600a602052604090205461130190846117aa565b336000908152600a602052604090205560035461131e90846117aa565b600355600154611339906001600160a01b0316333086611970565b60408051848152905133917f9e71bc8eea02a63969f509818f2dafb9254532904319f9dbda79b67bd34a5f3d919081900360200190a2505050565b6001546001600160a01b031681565b60065490565b600081815260208190526040812061084490611a1f565b6000600354600014156113b65750600754610a94565b61114b6113df600354610838670de0b6b3a764000061093660055461093660065461081361113d565b600754906117aa565b60008281526020819052604090206002015461140690610c4461189a565b610ce95760405162461bcd60e51b8152600401808060200182810382526030815260200180611f6d6030913960400191505060405180910390fd5b60075490565b6002546001600160a01b031681565b336000908152600a602052604090205461146f90610ab2565b611477610cf3565b565b60045490565b7f09630fffc1c31ed9c8dd68f6e39219ed189b07ff9a25e1efc743b828f69d555e81565b6000806000600160009054906101000a90046001600160a01b03166001600160a01b03166318160ddd6040518163ffffffff1660e01b815260040160206040518083038186803b1580156114f657600080fd5b505afa15801561150a573d6000803e3d6000fd5b505050506040513d602081101561152057600080fd5b5051600154604080517f0902f1ac000000000000000000000000000000000000000000000000000000008152905192935060009283926001600160a01b031691630902f1ac916004808301926060929190829003018186803b15801561158557600080fd5b505afa158015611599573d6000803e3d6000fd5b505050506040513d60608110156115af57600080fd5b508051602091820151600154604080517f0dfe168100000000000000000000000000000000000000000000000000000000815290516dffffffffffffffffffffffffffff94851697509390921694506001600160a01b031692630dfe168192600480840193829003018186803b15801561162857600080fd5b505afa15801561163c573d6000803e3d6000fd5b505050506040513d602081101561165257600080fd5b50516002546001600160a01b03908116911614611670578082611673565b81815b90969095509293505050565b6000813f7fc5d2460186f7233c927e7db2dcc703c0e500b653ca82273b7bfad8045d85a47081811480159061086c575050151592915050565b6000611183836001600160a01b038416611a2a565b600061118383836040518060400160405280601e81526020017f536166654d6174683a207375627472616374696f6e206f766572666c6f770000815250611a74565b60008261171e57506000610844565b8282028284828161172b57fe5b04146111835760405162461bcd60e51b8152600401808060200182810382526021815260200180611f9d6021913960400191505060405180910390fd5b600061118383836040518060400160405280601a81526020017f536166654d6174683a206469766973696f6e206279207a65726f000000000000815250611b0b565b600082820183811015611183576040805162461bcd60e51b815260206004820152601b60248201527f536166654d6174683a206164646974696f6e206f766572666c6f770000000000604482015290519081900360640190fd5b60008183106118135781611183565b5090919050565b604080516001600160a01b038416602482015260448082018490528251808303909101815260649091019091526020810180517bffffffffffffffffffffffffffffffffffffffffffffffffffffffff167fa9059cbb00000000000000000000000000000000000000000000000000000000179052610df4908490611b70565b3390565b60008281526020819052604090206118b690826116b8565b15610c8e576118c361189a565b6001600160a01b0316816001600160a01b0316837f2f8788117e7eff1d82e926ec794901d17c78024a50270940304540a733656f0d60405160405180910390a45050565b600082815260208190526040902061191f9082611c21565b15610c8e5761192c61189a565b6001600160a01b0316816001600160a01b0316837ff6391f5c32d9c69d2a47ea670b442974b53935d1edc7fd64eb21e047a839171b60405160405180910390a45050565b604080516001600160a01b0380861660248301528416604482015260648082018490528251808303909101815260849091019091526020810180517bffffffffffffffffffffffffffffffffffffffffffffffffffffffff167f23b872dd000000000000000000000000000000000000000000000000000000001790526119f8908590611b70565b50505050565b60006111838383611c36565b6000611183836001600160a01b038416611c9a565b600061084482611cb2565b6000611a368383611c9a565b611a6c57508154600181810184556000848152602080822090930184905584548482528286019093526040902091909155610844565b506000610844565b60008184841115611b035760405162461bcd60e51b81526004018080602001828103825283818151815260200191508051906020019080838360005b83811015611ac8578181015183820152602001611ab0565b50505050905090810190601f168015611af55780820380516001836020036101000a031916815260200191505b509250505060405180910390fd5b505050900390565b60008183611b5a5760405162461bcd60e51b8152602060048201818152835160248401528351909283926044909101919085019080838360008315611ac8578181015183820152602001611ab0565b506000838581611b6657fe5b0495945050505050565b6060611bc5826040518060400160405280602081526020017f5361666545524332303a206c6f772d6c6576656c2063616c6c206661696c6564815250856001600160a01b0316611cb69092919063ffffffff16565b805190915015610df457808060200190516020811015611be457600080fd5b5051610df45760405162461bcd60e51b815260040180806020018281038252602a815260200180612006602a913960400191505060405180910390fd5b6000611183836001600160a01b038416611cc5565b81546000908210611c785760405162461bcd60e51b8152600401808060200182810382526022815260200180611ef96022913960400191505060405180910390fd5b826000018281548110611c8757fe5b9060005260206000200154905092915050565b60009081526001919091016020526040902054151590565b5490565b606061086c8484600085611d8b565b60008181526001830160205260408120548015611d815783546000198083019190810190600090879083908110611cf857fe5b9060005260206000200154905080876000018481548110611d1557fe5b600091825260208083209091019290925582815260018981019092526040902090840190558654879080611d4557fe5b60019003818190600052602060002001600090559055866001016000878152602001908152602001600020600090556001945050505050610844565b6000915050610844565b6060611d968561167f565b611de7576040805162461bcd60e51b815260206004820152601d60248201527f416464726573733a2063616c6c20746f206e6f6e2d636f6e7472616374000000604482015290519081900360640190fd5b60006060866001600160a01b031685876040518082805190602001908083835b60208310611e265780518252601f199092019160209182019101611e07565b6001836020036101000a03801982511681845116808217855250505050505090500191505060006040518083038185875af1925050503d8060008114611e88576040519150601f19603f3d011682016040523d82523d6000602084013e611e8d565b606091505b50915091508115611ea157915061086c9050565b805115611eb15780518082602001fd5b60405162461bcd60e51b8152602060048201818152865160248401528651879391928392604401919085019080838360008315611ac8578181015183820152602001611ab056fe456e756d657261626c655365743a20696e646578206f7574206f6620626f756e6473416363657373436f6e74726f6c3a2073656e646572206d75737420626520616e2061646d696e20746f206772616e745374616b696e673a2043616e6e6f7420617070726f7665206c657373207468616e2031416363657373436f6e74726f6c3a2073656e646572206d75737420626520616e2061646d696e20746f207265766f6b65536166654d6174683a206d756c7469706c69636174696f6e206f766572666c6f775374616b696e673a2043616c6c6572206973206e6f7420612064697374726962757465725374616b696e673a20646567726167726174696f6e206973206e6f7420616c6c6f7765645361666545524332303a204552433230206f7065726174696f6e20646964206e6f742073756363656564416363657373436f6e74726f6c3a2063616e206f6e6c792072656e6f756e636520726f6c657320666f722073656c66a2646970667358221220f35ebea5015736564931b6cfad457aed514722f1bcc8294c2b783a94c7a8305164736f6c634300060c00335374616b696e673a207061697220616e64206b69726f20617265207468652073616d65",
  "immutableReferences": {},
  "source": "// SPDX-License-Identifier: GPL-3.0-or-later\npragma solidity 0.6.12;\n\nimport \"../node_modules/@openzeppelin/contracts/math/Math.sol\";\nimport \"../node_modules/@openzeppelin/contracts/math/SafeMath.sol\";\nimport \"../node_modules/@openzeppelin/contracts/access/AccessControl.sol\";\nimport \"../node_modules/@openzeppelin/contracts/token/ERC20/SafeERC20.sol\";\nimport '../node_modules/@uniswap/v2-core/contracts/interfaces/IUniswapV2Pair.sol';\n\ncontract Staking is AccessControl {\n  using SafeMath for uint256;\n  using SafeERC20 for IERC20;\n\n  // Uniswap v2 KIRO/Other pair\n  IUniswapV2Pair public PAIR;\n  // Kirobo Token\n  IERC20 public KIRO;\n  // keccak256(\"DISTRIBUTER_ROLE\")\n  bytes32 public constant DISTRIBUTER_ROLE = 0x09630fffc1c31ed9c8dd68f6e39219ed189b07ff9a25e1efc743b828f69d555e;\n\n  uint256 private s_totalSupply;\n  uint256 private s_periodFinish;\n  uint256 private s_rewardRate;\n  uint256 private s_lastUpdateTime;\n  uint256 private s_rewardPerTokenStored;\n  uint256 private s_stakingLimit;\n  uint256 private s_leftover;\n  mapping(address => uint256) private s_balances;\n  mapping(address => uint256) private s_userRewardPerTokenPaid;\n  mapping(address => uint256) private s_rewards;\n\n  event RewardAdded(address indexed distributer, uint256 reward, uint256 duration);\n  event LeftoverCollected(address indexed distributer, uint256 amount);\n  event Staked(address indexed user, uint256 amount);\n  event Withdrawn(address indexed user, uint256 amount);\n  event RewardPaid(address indexed user, uint256 reward);\n\n  modifier updateReward(address account) {\n    s_rewardPerTokenStored = rewardPerToken();\n    uint256 lastTimeRewardApplicable = lastTimeRewardApplicable(); \n    if (s_totalSupply == 0) {\n      s_leftover = s_leftover.add(lastTimeRewardApplicable.sub(s_lastUpdateTime).mul(s_rewardRate));\n    }\n    s_lastUpdateTime = lastTimeRewardApplicable;\n    if (account != address(0)) {\n      s_rewards[account] = earned(account);\n      s_userRewardPerTokenPaid[account] = s_rewardPerTokenStored;\n    }\n    _;\n  }\n\n  modifier onlyDistributer() {\n    require(hasRole(DISTRIBUTER_ROLE, msg.sender), \"Staking: Caller is not a distributer\");    \n    _;\n  }\n\n  constructor (address pair, address kiro) public {\n    _setupRole(DEFAULT_ADMIN_ROLE, msg.sender);\n    _setupRole(DISTRIBUTER_ROLE, msg.sender);\n    PAIR = IUniswapV2Pair(pair);\n    KIRO = IERC20(kiro);\n    s_stakingLimit = 7e18;\n    require(address(PAIR).isContract(), \"Staking: pair is not a contract\");\n    require(address(KIRO).isContract(), \"Staking: kiro is not a contract\");\n    require(address(PAIR) != address(KIRO), \"Staking: pair and kiro are the same\");\n  }\n\n  receive() external payable {\n    require(false, \"Staking: not aceepting ether\");\n  }\n\n  function setStakingLimit(uint256 other) external onlyDistributer() {\n    s_stakingLimit = other;\n  }\n\n  function addReward(address from, uint256 amount, uint256 duration) external onlyDistributer() updateReward(address(0)) {\n    require(amount > duration, 'Staking: Cannot approve less than 1');\n    uint256 newRate = amount.div(duration);\n    require(newRate >= s_rewardRate, \"Staking: degragration is not allowed\");\n    if(now < s_periodFinish)\n      amount = amount.sub(s_periodFinish.sub(now).mul(s_rewardRate));\n    s_rewardRate = newRate;\n    s_lastUpdateTime = now;\n    s_periodFinish = now.add(duration);\n    KIRO.safeTransferFrom(from, address(this), amount);\n    emit RewardAdded(msg.sender, amount, duration);\n  }\n\n  function collectLeftover() external onlyDistributer() updateReward(address(0)) {\n    uint256 balance = KIRO.balanceOf(address(this));\n    uint256 amount = Math.min(s_leftover, balance);\n    s_leftover = 0;\n    KIRO.safeTransfer(msg.sender, amount);\n    emit LeftoverCollected(msg.sender, amount);\n  }\n\n  function stake(uint256 amount) external updateReward(msg.sender) {\n    require(amount > 0, \"Staking: cannot stake 0\");\n    require(amount <= pairLimit(msg.sender), \"Staking: amount exceeds limit\");\n    s_balances[msg.sender] = s_balances[msg.sender].add(amount);\n    s_totalSupply = s_totalSupply.add(amount);\n    IERC20(address(PAIR)).safeTransferFrom(msg.sender, address(this), amount);\n    emit Staked(msg.sender, amount);\n  }\n\n  function exit() external {\n    withdraw(s_balances[msg.sender]);\n    getReward();\n  }\n\n  function withdraw(uint256 amount) public updateReward(msg.sender) {\n    require(amount > 0, 'Staking: cannot withdraw 0');\n    s_totalSupply = s_totalSupply.sub(amount);\n    s_balances[msg.sender] = s_balances[msg.sender].sub(amount);\n    IERC20(address(PAIR)).safeTransfer(msg.sender, amount);\n    emit Withdrawn(msg.sender, amount);\n  }\n\n  function getReward() public updateReward(msg.sender) {\n    uint256 reward = earned(msg.sender);\n    if (reward > 0) {\n      s_rewards[msg.sender] = 0;\n      KIRO.safeTransfer(msg.sender, reward);\n      emit RewardPaid(msg.sender, reward);\n    }\n  }\n\n  function earned(address account) public view returns (uint256) {\n    return\n    (\n      s_balances[account]\n      .mul\n      (\n        rewardPerToken()\n        .sub(s_userRewardPerTokenPaid[account])\n      )\n      .div(1e18)\n      .add(s_rewards[account])\n    );\n  }\n\n  function rewardPerToken() public view returns (uint256) {\n    if (s_totalSupply == 0) {\n      return s_rewardPerTokenStored;\n    }\n    return\n      s_rewardPerTokenStored\n      .add\n      (\n        lastTimeRewardApplicable()\n        .sub(s_lastUpdateTime)\n        .mul(s_rewardRate)\n        .mul(1e18)\n        .div(s_totalSupply)\n      );\n  }\n\n  function lastTimeRewardApplicable() public view returns (uint256) {\n    return Math.min(now, s_periodFinish);\n  }\n\n  function pairLimit(address account) public view returns (uint256) {\n    (, uint256 other, uint256 totalSupply) = pairInfo();\n    uint256 limit = totalSupply.mul(s_stakingLimit).div(other);\n    uint256 balance = s_balances[account];\n    return limit > balance ? limit - balance : 0;    \n  }\n\n  function pairInfo() public view returns (uint256 kiro, uint256 other, uint256 totalSupply) {\n    totalSupply = PAIR.totalSupply();\n    (uint256 reserves0, uint256 reserves1,) = PAIR.getReserves();\n    (kiro, other) = address(KIRO) == PAIR.token0() ? (reserves0, reserves1) : (reserves1, reserves0);\n  }\n\n  function pairOtherBalance(uint256 amount) external view returns (uint256) {\n    (, uint256 other, uint256 totalSupply) = pairInfo();\n    return other.mul(amount).div(totalSupply);\n  }\n\n  function pairKiroBalance(uint256 amount) external view returns (uint256) {\n    (uint256 kiro, , uint256 totalSupply) = pairInfo();\n    return kiro.mul(amount).div(totalSupply);\n  }\n\n  function totalSupply() external view returns (uint256) {\n    return s_totalSupply;\n  }\n\n  function periodFinish() external view returns (uint256) {\n    return s_periodFinish;\n  }\n\n  function rewardRate() external view returns (uint256) {\n    return s_rewardRate;\n  }\n\n  function lastUpdateTime() external view returns (uint256) {\n    return s_lastUpdateTime;\n  }\n\n  function rewardPerTokenStored() external view returns (uint256) {\n    return s_rewardPerTokenStored;\n  }\n\n  function balanceOf(address account) external view returns (uint256) {\n    return s_balances[account];\n  }\n\n  function userRewardPerTokenPaid(address account) external view returns (uint256) {\n    return s_userRewardPerTokenPaid[account];\n  }\n\n  function rewards(address account) external view returns (uint256) {\n    return s_rewards[account];\n  }\n\n  function stakingLimit() external view returns (uint256) {\n    return s_stakingLimit;\n  }\n\n  function leftover() external view returns (uint256) {\n    return s_leftover;\n  }\n\n}\n",
  "sourcePath": "/Users/tal/code/kirobo/ki-eth-token/contracts/Staking.sol",
  "compiler": {
    "name": "solc",
    "version": "0.6.12+commit.27d51765.Emscripten.clang"
  },
  "schemaVersion": "3.4.1",
  "updatedAt": "2021-07-22T21:40:18.646Z",
  "devdoc": {
    "kind": "dev",
    "methods": {
      "getRoleAdmin(bytes32)": {
        "details": "Returns the admin role that controls `role`. See {grantRole} and {revokeRole}. To change a role's admin, use {_setRoleAdmin}."
      },
      "getRoleMember(bytes32,uint256)": {
        "details": "Returns one of the accounts that have `role`. `index` must be a value between 0 and {getRoleMemberCount}, non-inclusive. Role bearers are not sorted in any particular way, and their ordering may change at any point. WARNING: When using {getRoleMember} and {getRoleMemberCount}, make sure you perform all queries on the same block. See the following https://forum.openzeppelin.com/t/iterating-over-elements-on-enumerableset-in-openzeppelin-contracts/2296[forum post] for more information."
      },
      "getRoleMemberCount(bytes32)": {
        "details": "Returns the number of accounts that have `role`. Can be used together with {getRoleMember} to enumerate all bearers of a role."
      },
      "grantRole(bytes32,address)": {
        "details": "Grants `role` to `account`. If `account` had not been already granted `role`, emits a {RoleGranted} event. Requirements: - the caller must have ``role``'s admin role."
      },
      "hasRole(bytes32,address)": {
        "details": "Returns `true` if `account` has been granted `role`."
      },
      "renounceRole(bytes32,address)": {
        "details": "Revokes `role` from the calling account. Roles are often managed via {grantRole} and {revokeRole}: this function's purpose is to provide a mechanism for accounts to lose their privileges if they are compromised (such as when a trusted device is misplaced). If the calling account had been granted `role`, emits a {RoleRevoked} event. Requirements: - the caller must be `account`."
      },
      "revokeRole(bytes32,address)": {
        "details": "Revokes `role` from `account`. If `account` had been granted `role`, emits a {RoleRevoked} event. Requirements: - the caller must have ``role``'s admin role."
      }
    },
    "version": 1
  },
  "userdoc": {
    "kind": "user",
    "methods": {},
    "version": 1
  }
}