{
  "contractName": "Staking",
  "abi": [
    {
      "inputs": [
        {
          "internalType": "address",
          "name": "pair",
          "type": "address"
        },
        {
          "internalType": "address",
          "name": "kiro",
          "type": "address"
        }
      ],
      "stateMutability": "nonpayable",
      "type": "constructor"
    },
    {
      "anonymous": false,
      "inputs": [
        {
          "indexed": true,
          "internalType": "address",
          "name": "distributer",
          "type": "address"
        },
        {
          "indexed": false,
          "internalType": "uint256",
          "name": "amount",
          "type": "uint256"
        }
      ],
      "name": "LeftoverCollected",
      "type": "event"
    },
    {
      "anonymous": false,
      "inputs": [
        {
          "indexed": true,
          "internalType": "address",
          "name": "distributer",
          "type": "address"
        },
        {
          "indexed": false,
          "internalType": "uint256",
          "name": "reward",
          "type": "uint256"
        },
        {
          "indexed": false,
          "internalType": "uint256",
          "name": "duration",
          "type": "uint256"
        }
      ],
      "name": "RewardAdded",
      "type": "event"
    },
    {
      "anonymous": false,
      "inputs": [
        {
          "indexed": true,
          "internalType": "address",
          "name": "user",
          "type": "address"
        },
        {
          "indexed": false,
          "internalType": "uint256",
          "name": "reward",
          "type": "uint256"
        }
      ],
      "name": "RewardPaid",
      "type": "event"
    },
    {
      "anonymous": false,
      "inputs": [
        {
          "indexed": true,
          "internalType": "bytes32",
          "name": "role",
          "type": "bytes32"
        },
        {
          "indexed": true,
          "internalType": "bytes32",
          "name": "previousAdminRole",
          "type": "bytes32"
        },
        {
          "indexed": true,
          "internalType": "bytes32",
          "name": "newAdminRole",
          "type": "bytes32"
        }
      ],
      "name": "RoleAdminChanged",
      "type": "event"
    },
    {
      "anonymous": false,
      "inputs": [
        {
          "indexed": true,
          "internalType": "bytes32",
          "name": "role",
          "type": "bytes32"
        },
        {
          "indexed": true,
          "internalType": "address",
          "name": "account",
          "type": "address"
        },
        {
          "indexed": true,
          "internalType": "address",
          "name": "sender",
          "type": "address"
        }
      ],
      "name": "RoleGranted",
      "type": "event"
    },
    {
      "anonymous": false,
      "inputs": [
        {
          "indexed": true,
          "internalType": "bytes32",
          "name": "role",
          "type": "bytes32"
        },
        {
          "indexed": true,
          "internalType": "address",
          "name": "account",
          "type": "address"
        },
        {
          "indexed": true,
          "internalType": "address",
          "name": "sender",
          "type": "address"
        }
      ],
      "name": "RoleRevoked",
      "type": "event"
    },
    {
      "anonymous": false,
      "inputs": [
        {
          "indexed": true,
          "internalType": "address",
          "name": "user",
          "type": "address"
        },
        {
          "indexed": false,
          "internalType": "uint256",
          "name": "amount",
          "type": "uint256"
        }
      ],
      "name": "Staked",
      "type": "event"
    },
    {
      "anonymous": false,
      "inputs": [
        {
          "indexed": true,
          "internalType": "address",
          "name": "user",
          "type": "address"
        },
        {
          "indexed": false,
          "internalType": "uint256",
          "name": "amount",
          "type": "uint256"
        }
      ],
      "name": "Withdrawn",
      "type": "event"
    },
    {
      "inputs": [],
      "name": "DEFAULT_ADMIN_ROLE",
      "outputs": [
        {
          "internalType": "bytes32",
          "name": "",
          "type": "bytes32"
        }
      ],
      "stateMutability": "view",
      "type": "function"
    },
    {
      "inputs": [],
      "name": "DISTRIBUTER_ROLE",
      "outputs": [
        {
          "internalType": "bytes32",
          "name": "",
          "type": "bytes32"
        }
      ],
      "stateMutability": "view",
      "type": "function"
    },
    {
      "inputs": [],
      "name": "KIRO",
      "outputs": [
        {
          "internalType": "contract IERC20",
          "name": "",
          "type": "address"
        }
      ],
      "stateMutability": "view",
      "type": "function"
    },
    {
      "inputs": [],
      "name": "PAIR",
      "outputs": [
        {
          "internalType": "contract IUniswapV2Pair",
          "name": "",
          "type": "address"
        }
      ],
      "stateMutability": "view",
      "type": "function"
    },
    {
      "inputs": [
        {
          "internalType": "bytes32",
          "name": "role",
          "type": "bytes32"
        }
      ],
      "name": "getRoleAdmin",
      "outputs": [
        {
          "internalType": "bytes32",
          "name": "",
          "type": "bytes32"
        }
      ],
      "stateMutability": "view",
      "type": "function"
    },
    {
      "inputs": [
        {
          "internalType": "bytes32",
          "name": "role",
          "type": "bytes32"
        },
        {
          "internalType": "uint256",
          "name": "index",
          "type": "uint256"
        }
      ],
      "name": "getRoleMember",
      "outputs": [
        {
          "internalType": "address",
          "name": "",
          "type": "address"
        }
      ],
      "stateMutability": "view",
      "type": "function"
    },
    {
      "inputs": [
        {
          "internalType": "bytes32",
          "name": "role",
          "type": "bytes32"
        }
      ],
      "name": "getRoleMemberCount",
      "outputs": [
        {
          "internalType": "uint256",
          "name": "",
          "type": "uint256"
        }
      ],
      "stateMutability": "view",
      "type": "function"
    },
    {
      "inputs": [
        {
          "internalType": "bytes32",
          "name": "role",
          "type": "bytes32"
        },
        {
          "internalType": "address",
          "name": "account",
          "type": "address"
        }
      ],
      "name": "grantRole",
      "outputs": [],
      "stateMutability": "nonpayable",
      "type": "function"
    },
    {
      "inputs": [
        {
          "internalType": "bytes32",
          "name": "role",
          "type": "bytes32"
        },
        {
          "internalType": "address",
          "name": "account",
          "type": "address"
        }
      ],
      "name": "hasRole",
      "outputs": [
        {
          "internalType": "bool",
          "name": "",
          "type": "bool"
        }
      ],
      "stateMutability": "view",
      "type": "function"
    },
    {
      "inputs": [
        {
          "internalType": "bytes32",
          "name": "role",
          "type": "bytes32"
        },
        {
          "internalType": "address",
          "name": "account",
          "type": "address"
        }
      ],
      "name": "renounceRole",
      "outputs": [],
      "stateMutability": "nonpayable",
      "type": "function"
    },
    {
      "inputs": [
        {
          "internalType": "bytes32",
          "name": "role",
          "type": "bytes32"
        },
        {
          "internalType": "address",
          "name": "account",
          "type": "address"
        }
      ],
      "name": "revokeRole",
      "outputs": [],
      "stateMutability": "nonpayable",
      "type": "function"
    },
    {
      "stateMutability": "payable",
      "type": "receive"
    },
    {
      "inputs": [
        {
          "internalType": "uint256",
          "name": "other",
          "type": "uint256"
        }
      ],
      "name": "setStakingLimit",
      "outputs": [],
      "stateMutability": "nonpayable",
      "type": "function"
    },
    {
      "inputs": [
        {
          "internalType": "address",
          "name": "from",
          "type": "address"
        },
        {
          "internalType": "uint256",
          "name": "amount",
          "type": "uint256"
        },
        {
          "internalType": "uint256",
          "name": "duration",
          "type": "uint256"
        }
      ],
      "name": "addReward",
      "outputs": [],
      "stateMutability": "nonpayable",
      "type": "function"
    },
    {
      "inputs": [],
      "name": "collectLeftover",
      "outputs": [],
      "stateMutability": "nonpayable",
      "type": "function"
    },
    {
      "inputs": [
        {
          "internalType": "uint256",
          "name": "amount",
          "type": "uint256"
        }
      ],
      "name": "stake",
      "outputs": [],
      "stateMutability": "nonpayable",
      "type": "function"
    },
    {
      "inputs": [],
      "name": "exit",
      "outputs": [],
      "stateMutability": "nonpayable",
      "type": "function"
    },
    {
      "inputs": [
        {
          "internalType": "uint256",
          "name": "amount",
          "type": "uint256"
        }
      ],
      "name": "withdraw",
      "outputs": [],
      "stateMutability": "nonpayable",
      "type": "function"
    },
    {
      "inputs": [],
      "name": "getReward",
      "outputs": [],
      "stateMutability": "nonpayable",
      "type": "function"
    },
    {
      "inputs": [
        {
          "internalType": "address",
          "name": "account",
          "type": "address"
        }
      ],
      "name": "earned",
      "outputs": [
        {
          "internalType": "uint256",
          "name": "",
          "type": "uint256"
        }
      ],
      "stateMutability": "view",
      "type": "function"
    },
    {
      "inputs": [],
      "name": "rewardPerToken",
      "outputs": [
        {
          "internalType": "uint256",
          "name": "",
          "type": "uint256"
        }
      ],
      "stateMutability": "view",
      "type": "function"
    },
    {
      "inputs": [],
      "name": "lastTimeRewardApplicable",
      "outputs": [
        {
          "internalType": "uint256",
          "name": "",
          "type": "uint256"
        }
      ],
      "stateMutability": "view",
      "type": "function"
    },
    {
      "inputs": [
        {
          "internalType": "address",
          "name": "account",
          "type": "address"
        }
      ],
      "name": "pairLimit",
      "outputs": [
        {
          "internalType": "uint256",
          "name": "",
          "type": "uint256"
        }
      ],
      "stateMutability": "view",
      "type": "function"
    },
    {
      "inputs": [],
      "name": "pairInfo",
      "outputs": [
        {
          "internalType": "uint256",
          "name": "kiro",
          "type": "uint256"
        },
        {
          "internalType": "uint256",
          "name": "other",
          "type": "uint256"
        },
        {
          "internalType": "uint256",
          "name": "totalSupply",
          "type": "uint256"
        }
      ],
      "stateMutability": "view",
      "type": "function"
    },
    {
      "inputs": [
        {
          "internalType": "uint256",
          "name": "amount",
          "type": "uint256"
        }
      ],
      "name": "pairOtherBalance",
      "outputs": [
        {
          "internalType": "uint256",
          "name": "",
          "type": "uint256"
        }
      ],
      "stateMutability": "view",
      "type": "function"
    },
    {
      "inputs": [
        {
          "internalType": "uint256",
          "name": "amount",
          "type": "uint256"
        }
      ],
      "name": "pairKiroBalance",
      "outputs": [
        {
          "internalType": "uint256",
          "name": "",
          "type": "uint256"
        }
      ],
      "stateMutability": "view",
      "type": "function"
    },
    {
      "inputs": [],
      "name": "totalSupply",
      "outputs": [
        {
          "internalType": "uint256",
          "name": "",
          "type": "uint256"
        }
      ],
      "stateMutability": "view",
      "type": "function"
    },
    {
      "inputs": [],
      "name": "periodFinish",
      "outputs": [
        {
          "internalType": "uint256",
          "name": "",
          "type": "uint256"
        }
      ],
      "stateMutability": "view",
      "type": "function"
    },
    {
      "inputs": [],
      "name": "rewardRate",
      "outputs": [
        {
          "internalType": "uint256",
          "name": "",
          "type": "uint256"
        }
      ],
      "stateMutability": "view",
      "type": "function"
    },
    {
      "inputs": [],
      "name": "lastUpdateTime",
      "outputs": [
        {
          "internalType": "uint256",
          "name": "",
          "type": "uint256"
        }
      ],
      "stateMutability": "view",
      "type": "function"
    },
    {
      "inputs": [],
      "name": "rewardPerTokenStored",
      "outputs": [
        {
          "internalType": "uint256",
          "name": "",
          "type": "uint256"
        }
      ],
      "stateMutability": "view",
      "type": "function"
    },
    {
      "inputs": [
        {
          "internalType": "address",
          "name": "account",
          "type": "address"
        }
      ],
      "name": "balanceOf",
      "outputs": [
        {
          "internalType": "uint256",
          "name": "",
          "type": "uint256"
        }
      ],
      "stateMutability": "view",
      "type": "function"
    },
    {
      "inputs": [
        {
          "internalType": "address",
          "name": "account",
          "type": "address"
        }
      ],
      "name": "userRewardPerTokenPaid",
      "outputs": [
        {
          "internalType": "uint256",
          "name": "",
          "type": "uint256"
        }
      ],
      "stateMutability": "view",
      "type": "function"
    },
    {
      "inputs": [
        {
          "internalType": "address",
          "name": "account",
          "type": "address"
        }
      ],
      "name": "rewards",
      "outputs": [
        {
          "internalType": "uint256",
          "name": "",
          "type": "uint256"
        }
      ],
      "stateMutability": "view",
      "type": "function"
    },
    {
      "inputs": [],
      "name": "stakingLimit",
      "outputs": [
        {
          "internalType": "uint256",
          "name": "",
          "type": "uint256"
        }
      ],
      "stateMutability": "view",
      "type": "function"
    },
    {
      "inputs": [],
      "name": "leftover",
      "outputs": [
        {
          "internalType": "uint256",
          "name": "",
          "type": "uint256"
        }
      ],
      "stateMutability": "view",
      "type": "function"
    }
  ],
  "bytecode": "0x60806040523480156200001157600080fd5b506040516200230838038062002308833981810160405260408110156200003757600080fd5b5080516020909101516200004d600033620001ef565b620000797f09630fffc1c31ed9c8dd68f6e39219ed189b07ff9a25e1efc743b828f69d555e33620001ef565b600180546001600160a01b03199081166001600160a01b0385811691909117928390556002805490921684821617909155676124fee993bc0000600855620000ce9116620001ff602090811b620015bc17901c565b62000120576040805162461bcd60e51b815260206004820152601f60248201527f5374616b696e673a2070616972206973206e6f74206120636f6e747261637400604482015290519081900360640190fd5b60025462000143906001600160a01b0316620001ff602090811b620015bc17901c565b62000195576040805162461bcd60e51b815260206004820152601f60248201527f5374616b696e673a206b69726f206973206e6f74206120636f6e747261637400604482015290519081900360640190fd5b6002546001546001600160a01b0390811691161415620001e75760405162461bcd60e51b8152600401808060200182810382526023815260200180620022e56023913960400191505060405180910390fd5b505062000340565b620001fb82826200023c565b5050565b6000813f7fc5d2460186f7233c927e7db2dcc703c0e500b653ca82273b7bfad8045d85a4708181148015906200023457508115155b949350505050565b60008281526020818152604090912062000261918390620015f5620002b5821b17901c565b15620001fb5762000271620002d5565b6001600160a01b0316816001600160a01b0316837f2f8788117e7eff1d82e926ec794901d17c78024a50270940304540a733656f0d60405160405180910390a45050565b6000620002cc836001600160a01b038416620002d9565b90505b92915050565b3390565b6000620002e7838362000328565b6200031f57508154600181810184556000848152602080822090930184905584548482528286019093526040902091909155620002cf565b506000620002cf565b60009081526001919091016020526040902054151590565b611f9580620003506000396000f3fe6080604052600436106102065760003560e01c80637b0a47ee11610118578063ca15c873116100a0578063e92690fd1161006f578063e92690fd14610715578063e9fad8ee1461072a578063ebe2b12b1461073f578063f10e00d614610754578063fc2a5b1d146107695761025a565b8063ca15c87314610688578063cd3daf9d146106b2578063d547741f146106c7578063df136d65146107005761025a565b806391d14854116100e757806391d14854146105d2578063a217fddf1461061f578063a694fc3a14610634578063ace3a8a71461065e578063c8f33c91146106735761025a565b80637b0a47ee1461052957806380faa57d1461053e5780638b876347146105535780639010d07c146105865761025a565b80632f2ff15d1161019b57806355ba2f4f1161016a57806355ba2f4f1461045a57806366f048dc1461046f5780636cb455b7146104a257806370966c28146104cc57806370a08231146104f65761025a565b80632f2ff15d1461039457806336568abe146103cd5780633d18b9121461040657806344ea559a1461041b5761025a565b8063174e015b116101d7578063174e015b1461031657806318160ddd1461032b578063248a9ca3146103405780632e1a7d4d1461036a5761025a565b80628cc2621461025f578062f7fa8c146102a45780630700037d146102ce5780630b5e4dbb146103015761025a565b3661025a576040805162461bcd60e51b815260206004820152601c60248201527f5374616b696e673a206e6f7420616365657074696e6720657468657200000000604482015290519081900360640190fd5b005b600080fd5b34801561026b57600080fd5b506102926004803603602081101561028257600080fd5b50356001600160a01b031661079c565b60408051918252519081900360200190f35b3480156102b057600080fd5b50610292600480360360208110156102c757600080fd5b503561081a565b3480156102da57600080fd5b50610292600480360360208110156102f157600080fd5b50356001600160a01b0316610844565b34801561030d57600080fd5b5061025861085f565b34801561032257600080fd5b50610292610a35565b34801561033757600080fd5b50610292610a3c565b34801561034c57600080fd5b506102926004803603602081101561036357600080fd5b5035610a42565b34801561037657600080fd5b506102586004803603602081101561038d57600080fd5b5035610a57565b3480156103a057600080fd5b50610258600480360360408110156103b757600080fd5b50803590602001356001600160a01b0316610bcb565b3480156103d957600080fd5b50610258600480360360408110156103f057600080fd5b50803590602001356001600160a01b0316610c37565b34801561041257600080fd5b50610258610c98565b34801561042757600080fd5b506102586004803603606081101561043e57600080fd5b506001600160a01b038135169060208101359060400135610d9e565b34801561046657600080fd5b50610292610fb1565b34801561047b57600080fd5b506102926004803603602081101561049257600080fd5b50356001600160a01b0316610fb7565b3480156104ae57600080fd5b50610258600480360360208110156104c557600080fd5b503561101c565b3480156104d857600080fd5b50610292600480360360208110156104ef57600080fd5b5035611074565b34801561050257600080fd5b506102926004803603602081101561051957600080fd5b50356001600160a01b031661109d565b34801561053557600080fd5b506102926110b8565b34801561054a57600080fd5b506102926110be565b34801561055f57600080fd5b506102926004803603602081101561057657600080fd5b50356001600160a01b03166110d1565b34801561059257600080fd5b506105b6600480360360408110156105a957600080fd5b50803590602001356110ec565b604080516001600160a01b039092168252519081900360200190f35b3480156105de57600080fd5b5061060b600480360360408110156105f557600080fd5b50803590602001356001600160a01b031661110b565b604080519115158252519081900360200190f35b34801561062b57600080fd5b50610292611123565b34801561064057600080fd5b506102586004803603602081101561065757600080fd5b5035611128565b34801561066a57600080fd5b506105b66112f5565b34801561067f57600080fd5b50610292611304565b34801561069457600080fd5b50610292600480360360208110156106ab57600080fd5b503561130a565b3480156106be57600080fd5b50610292611321565b3480156106d357600080fd5b50610258600480360360408110156106ea57600080fd5b50803590602001356001600160a01b0316611369565b34801561070c57600080fd5b506102926113c2565b34801561072157600080fd5b506105b66113c8565b34801561073657600080fd5b506102586113d7565b34801561074b57600080fd5b506102926113fa565b34801561076057600080fd5b50610292611400565b34801561077557600080fd5b5061077e611412565b60408051938452602084019290925282820152519081900360600190f35b6001600160a01b0381166000908152600c6020908152604080832054600b909252822054610814919061080e90670de0b6b3a764000090610808906107e9906107e3611321565b9061160a565b6001600160a01b0388166000908152600a60205260409020549061164c565b906116a5565b906116e7565b92915050565b6000806000610827611412565b909350915061083c905081610808848761164c565b949350505050565b6001600160a01b03166000908152600c602052604090205490565b610877600080516020611e4e8339815191523361110b565b6108b25760405162461bcd60e51b8152600401808060200182810382526024815260200180611ebf6024913960400191505060405180910390fd5b60006108bc611321565b60075560006108c96110be565b905060035460001415610907576109036108fa6005546108f46006548561160a90919063ffffffff16565b9061164c565b600954906116e7565b6009555b60068190556001600160a01b03821615610950576109248261079c565b6001600160a01b0383166000908152600c6020908152604080832093909355600754600b909152919020555b600254604080516370a0823160e01b815230600482015290516000926001600160a01b0316916370a08231916024808301926020929190829003018186803b15801561099b57600080fd5b505afa1580156109af573d6000803e3d6000fd5b505050506040513d60208110156109c557600080fd5b50516009549091506000906109da9083611741565b60006009556002549091506109f9906001600160a01b03163383611757565b60408051828152905133917f03c8ad53f8f15df4e000e8ad831ec78f5c600de38d3d8fd21a8d573256fd2d9b919081900360200190a250505050565b6009545b90565b60035490565b60009081526020819052604090206002015490565b33610a60611321565b6007556000610a6d6110be565b905060035460001415610a9c57610a986108fa6005546108f46006548561160a90919063ffffffff16565b6009555b60068190556001600160a01b03821615610ae557610ab98261079c565b6001600160a01b0383166000908152600c6020908152604080832093909355600754600b909152919020555b60008311610b3a576040805162461bcd60e51b815260206004820152601a60248201527f5374616b696e673a2063616e6e6f742077697468647261772030000000000000604482015290519081900360640190fd5b600354610b47908461160a565b600355336000908152600a6020526040902054610b64908461160a565b336000818152600a6020526040902091909155600154610b90916001600160a01b039091169085611757565b60408051848152905133917f7084f5476618d8e60b11ef0d7d3f06914655adb8793e28ff7f018d4c76d505d5919081900360200190a2505050565b600082815260208190526040902060020154610bee90610be96117a9565b61110b565b610c295760405162461bcd60e51b815260040180806020018281038252602f815260200180611dfc602f913960400191505060405180910390fd5b610c3382826117ad565b5050565b610c3f6117a9565b6001600160a01b0316816001600160a01b031614610c8e5760405162461bcd60e51b815260040180806020018281038252602f815260200180611f31602f913960400191505060405180910390fd5b610c338282611816565b33610ca1611321565b6007556000610cae6110be565b905060035460001415610cdd57610cd96108fa6005546108f46006548561160a90919063ffffffff16565b6009555b60068190556001600160a01b03821615610d2657610cfa8261079c565b6001600160a01b0383166000908152600c6020908152604080832093909355600754600b909152919020555b6000610d313361079c565b90508015610d9957336000818152600c6020526040812055600254610d62916001600160a01b039091169083611757565b60408051828152905133917fe2403640ba68fed3a2f88b7557551d1993f84b99bb10ff833f0cf8db0c5e0486919081900360200190a25b505050565b610db6600080516020611e4e8339815191523361110b565b610df15760405162461bcd60e51b8152600401808060200182810382526024815260200180611ebf6024913960400191505060405180910390fd5b6000610dfb611321565b6007556000610e086110be565b905060035460001415610e3757610e336108fa6005546108f46006548561160a90919063ffffffff16565b6009555b60068190556001600160a01b03821615610e8057610e548261079c565b6001600160a01b0383166000908152600c6020908152604080832093909355600754600b909152919020555b828411610ebe5760405162461bcd60e51b8152600401808060200182810382526023815260200180611e2b6023913960400191505060405180910390fd5b6000610eca85856116a5565b9050600554811015610f0d5760405162461bcd60e51b8152600401808060200182810382526024815260200180611ee36024913960400191505060405180910390fd5b600454421015610f3f57610f3c610f356005546108f44260045461160a90919063ffffffff16565b869061160a565b94505b6005819055426006819055610f5490856116e7565b600455600254610f6f906001600160a01b031687308861187f565b6040805186815260208101869052815133927f6a6f77044107a33658235d41bedbbaf2fe9ccdceb313143c947a5e76e1ec8474928290030190a2505050505050565b60085490565b6000806000610fc4611412565b92509250506000610fe4836108086008548561164c90919063ffffffff16565b6001600160a01b0386166000908152600a602052604090205490915080821161100e576000611012565b8082035b9695505050505050565b611034600080516020611e4e8339815191523361110b565b61106f5760405162461bcd60e51b8152600401808060200182810382526024815260200180611ebf6024913960400191505060405180910390fd5b600855565b6000806000611081611412565b925050915061083c81610808868561164c90919063ffffffff16565b6001600160a01b03166000908152600a602052604090205490565b60055490565b60006110cc42600454611741565b905090565b6001600160a01b03166000908152600b602052604090205490565b600082815260208190526040812061110490836118df565b9392505050565b600082815260208190526040812061110490836118eb565b600081565b33611131611321565b600755600061113e6110be565b90506003546000141561116d576111696108fa6005546108f46006548561160a90919063ffffffff16565b6009555b60068190556001600160a01b038216156111b65761118a8261079c565b6001600160a01b0383166000908152600c6020908152604080832093909355600754600b909152919020555b6000831161120b576040805162461bcd60e51b815260206004820152601760248201527f5374616b696e673a2063616e6e6f74207374616b652030000000000000000000604482015290519081900360640190fd5b61121433610fb7565b831115611268576040805162461bcd60e51b815260206004820152601d60248201527f5374616b696e673a20616d6f756e742065786365656473206c696d6974000000604482015290519081900360640190fd5b336000908152600a602052604090205461128290846116e7565b336000908152600a602052604090205560035461129f90846116e7565b6003556001546112ba906001600160a01b031633308661187f565b60408051848152905133917f9e71bc8eea02a63969f509818f2dafb9254532904319f9dbda79b67bd34a5f3d919081900360200190a2505050565b6001546001600160a01b031681565b60065490565b600081815260208190526040812061081490611900565b6000600354600014156113375750600754610a39565b6110cc611360600354610808670de0b6b3a76400006108f46005546108f46006546107e36110be565b600754906116e7565b60008281526020819052604090206002015461138790610be96117a9565b610c8e5760405162461bcd60e51b8152600401808060200182810382526030815260200180611e6e6030913960400191505060405180910390fd5b60075490565b6002546001600160a01b031681565b336000908152600a60205260409020546113f090610a57565b6113f8610c98565b565b60045490565b600080516020611e4e83398151915281565b6000806000600160009054906101000a90046001600160a01b03166001600160a01b03166318160ddd6040518163ffffffff1660e01b815260040160206040518083038186803b15801561146557600080fd5b505afa158015611479573d6000803e3d6000fd5b505050506040513d602081101561148f57600080fd5b505160015460408051630240bc6b60e21b8152905192935060009283926001600160a01b031691630902f1ac916004808301926060929190829003018186803b1580156114db57600080fd5b505afa1580156114ef573d6000803e3d6000fd5b505050506040513d606081101561150557600080fd5b50805160209182015160015460408051630dfe168160e01b815290516dffffffffffffffffffffffffffff94851697509390921694506001600160a01b031692630dfe168192600480840193829003018186803b15801561156557600080fd5b505afa158015611579573d6000803e3d6000fd5b505050506040513d602081101561158f57600080fd5b50516002546001600160a01b039081169116146115ad5780826115b0565b81815b90969095509293505050565b6000813f7fc5d2460186f7233c927e7db2dcc703c0e500b653ca82273b7bfad8045d85a47081811480159061083c575050151592915050565b6000611104836001600160a01b03841661190b565b600061110483836040518060400160405280601e81526020017f536166654d6174683a207375627472616374696f6e206f766572666c6f770000815250611955565b60008261165b57506000610814565b8282028284828161166857fe5b04146111045760405162461bcd60e51b8152600401808060200182810382526021815260200180611e9e6021913960400191505060405180910390fd5b600061110483836040518060400160405280601a81526020017f536166654d6174683a206469766973696f6e206279207a65726f0000000000008152506119ec565b600082820183811015611104576040805162461bcd60e51b815260206004820152601b60248201527f536166654d6174683a206164646974696f6e206f766572666c6f770000000000604482015290519081900360640190fd5b60008183106117505781611104565b5090919050565b604080516001600160a01b038416602482015260448082018490528251808303909101815260649091019091526020810180516001600160e01b031663a9059cbb60e01b179052610d99908490611a51565b3390565b60008281526020819052604090206117c590826115f5565b15610c33576117d26117a9565b6001600160a01b0316816001600160a01b0316837f2f8788117e7eff1d82e926ec794901d17c78024a50270940304540a733656f0d60405160405180910390a45050565b600082815260208190526040902061182e9082611b02565b15610c335761183b6117a9565b6001600160a01b0316816001600160a01b0316837ff6391f5c32d9c69d2a47ea670b442974b53935d1edc7fd64eb21e047a839171b60405160405180910390a45050565b604080516001600160a01b0380861660248301528416604482015260648082018490528251808303909101815260849091019091526020810180516001600160e01b03166323b872dd60e01b1790526118d9908590611a51565b50505050565b60006111048383611b17565b6000611104836001600160a01b038416611b7b565b600061081482611b93565b60006119178383611b7b565b61194d57508154600181810184556000848152602080822090930184905584548482528286019093526040902091909155610814565b506000610814565b600081848411156119e45760405162461bcd60e51b81526004018080602001828103825283818151815260200191508051906020019080838360005b838110156119a9578181015183820152602001611991565b50505050905090810190601f1680156119d65780820380516001836020036101000a031916815260200191505b509250505060405180910390fd5b505050900390565b60008183611a3b5760405162461bcd60e51b81526020600482018181528351602484015283519092839260449091019190850190808383600083156119a9578181015183820152602001611991565b506000838581611a4757fe5b0495945050505050565b6060611aa6826040518060400160405280602081526020017f5361666545524332303a206c6f772d6c6576656c2063616c6c206661696c6564815250856001600160a01b0316611b979092919063ffffffff16565b805190915015610d9957808060200190516020811015611ac557600080fd5b5051610d995760405162461bcd60e51b815260040180806020018281038252602a815260200180611f07602a913960400191505060405180910390fd5b6000611104836001600160a01b038416611ba6565b81546000908210611b595760405162461bcd60e51b8152600401808060200182810382526022815260200180611dda6022913960400191505060405180910390fd5b826000018281548110611b6857fe5b9060005260206000200154905092915050565b60009081526001919091016020526040902054151590565b5490565b606061083c8484600085611c6c565b60008181526001830160205260408120548015611c625783546000198083019190810190600090879083908110611bd957fe5b9060005260206000200154905080876000018481548110611bf657fe5b600091825260208083209091019290925582815260018981019092526040902090840190558654879080611c2657fe5b60019003818190600052602060002001600090559055866001016000878152602001908152602001600020600090556001945050505050610814565b6000915050610814565b6060611c77856115bc565b611cc8576040805162461bcd60e51b815260206004820152601d60248201527f416464726573733a2063616c6c20746f206e6f6e2d636f6e7472616374000000604482015290519081900360640190fd5b60006060866001600160a01b031685876040518082805190602001908083835b60208310611d075780518252601f199092019160209182019101611ce8565b6001836020036101000a03801982511681845116808217855250505050505090500191505060006040518083038185875af1925050503d8060008114611d69576040519150601f19603f3d011682016040523d82523d6000602084013e611d6e565b606091505b50915091508115611d8257915061083c9050565b805115611d925780518082602001fd5b60405162461bcd60e51b81526020600482018181528651602484015286518793919283926044019190850190808383600083156119a957818101518382015260200161199156fe456e756d657261626c655365743a20696e646578206f7574206f6620626f756e6473416363657373436f6e74726f6c3a2073656e646572206d75737420626520616e2061646d696e20746f206772616e745374616b696e673a2043616e6e6f7420617070726f7665206c657373207468616e203109630fffc1c31ed9c8dd68f6e39219ed189b07ff9a25e1efc743b828f69d555e416363657373436f6e74726f6c3a2073656e646572206d75737420626520616e2061646d696e20746f207265766f6b65536166654d6174683a206d756c7469706c69636174696f6e206f766572666c6f775374616b696e673a2043616c6c6572206973206e6f7420612064697374726962757465725374616b696e673a20646567726167726174696f6e206973206e6f7420616c6c6f7765645361666545524332303a204552433230206f7065726174696f6e20646964206e6f742073756363656564416363657373436f6e74726f6c3a2063616e206f6e6c792072656e6f756e636520726f6c657320666f722073656c66a26469706673582212208eade2e12b24724178415f04921ea464aed882d1e30abf296aa23a6a101d786b64736f6c634300060c00335374616b696e673a207061697220616e64206b69726f20617265207468652073616d65",
  "immutableReferences": {},
  "source": "// SPDX-License-Identifier: GPL-3.0-or-later\npragma solidity 0.6.12;\n\nimport \"../node_modules/@openzeppelin/contracts/math/Math.sol\";\nimport \"../node_modules/@openzeppelin/contracts/math/SafeMath.sol\";\nimport \"../node_modules/@openzeppelin/contracts/access/AccessControl.sol\";\nimport \"../node_modules/@openzeppelin/contracts/token/ERC20/SafeERC20.sol\";\nimport '../node_modules/@uniswap/v2-core/contracts/interfaces/IUniswapV2Pair.sol';\n\ncontract Staking is AccessControl {\n  using SafeMath for uint256;\n  using SafeERC20 for IERC20;\n\n  // Uniswap v2 KIRO/Other pair\n  IUniswapV2Pair public PAIR;\n  // Kirobo Token\n  IERC20 public KIRO;\n  // keccak256(\"DISTRIBUTER_ROLE\")\n  bytes32 public constant DISTRIBUTER_ROLE = 0x09630fffc1c31ed9c8dd68f6e39219ed189b07ff9a25e1efc743b828f69d555e;\n\n  uint256 private s_totalSupply;\n  uint256 private s_periodFinish;\n  uint256 private s_rewardRate;\n  uint256 private s_lastUpdateTime;\n  uint256 private s_rewardPerTokenStored;\n  uint256 private s_stakingLimit;\n  uint256 private s_leftover;\n  mapping(address => uint256) private s_balances;\n  mapping(address => uint256) private s_userRewardPerTokenPaid;\n  mapping(address => uint256) private s_rewards;\n\n  event RewardAdded(address indexed distributer, uint256 reward, uint256 duration);\n  event LeftoverCollected(address indexed distributer, uint256 amount);\n  event Staked(address indexed user, uint256 amount);\n  event Withdrawn(address indexed user, uint256 amount);\n  event RewardPaid(address indexed user, uint256 reward);\n\n  modifier updateReward(address account) {\n    s_rewardPerTokenStored = rewardPerToken();\n    uint256 lastTimeRewardApplicable = lastTimeRewardApplicable(); \n    if (s_totalSupply == 0) {\n      s_leftover = s_leftover.add(lastTimeRewardApplicable.sub(s_lastUpdateTime).mul(s_rewardRate));\n    }\n    s_lastUpdateTime = lastTimeRewardApplicable;\n    if (account != address(0)) {\n      s_rewards[account] = earned(account);\n      s_userRewardPerTokenPaid[account] = s_rewardPerTokenStored;\n    }\n    _;\n  }\n\n  modifier onlyDistributer() {\n    require(hasRole(DISTRIBUTER_ROLE, msg.sender), \"Staking: Caller is not a distributer\");    \n    _;\n  }\n\n  constructor (address pair, address kiro) public {\n    _setupRole(DEFAULT_ADMIN_ROLE, msg.sender);\n    _setupRole(DISTRIBUTER_ROLE, msg.sender);\n    PAIR = IUniswapV2Pair(pair);\n    KIRO = IERC20(kiro);\n    s_stakingLimit = 7e18;\n    require(address(PAIR).isContract(), \"Staking: pair is not a contract\");\n    require(address(KIRO).isContract(), \"Staking: kiro is not a contract\");\n    require(address(PAIR) != address(KIRO), \"Staking: pair and kiro are the same\");\n  }\n\n  receive() external payable {\n    require(false, \"Staking: not aceepting ether\");\n  }\n\n  function setStakingLimit(uint256 other) external onlyDistributer() {\n    s_stakingLimit = other;\n  }\n\n  function addReward(address from, uint256 amount, uint256 duration) external onlyDistributer() updateReward(address(0)) {\n    require(amount > duration, 'Staking: Cannot approve less than 1');\n    uint256 newRate = amount.div(duration);\n    require(newRate >= s_rewardRate, \"Staking: degragration is not allowed\");\n    if(now < s_periodFinish)\n      amount = amount.sub(s_periodFinish.sub(now).mul(s_rewardRate));\n    s_rewardRate = newRate;\n    s_lastUpdateTime = now;\n    s_periodFinish = now.add(duration);\n    KIRO.safeTransferFrom(from, address(this), amount);\n    emit RewardAdded(msg.sender, amount, duration);\n  }\n\n  function collectLeftover() external onlyDistributer() updateReward(address(0)) {\n    uint256 balance = KIRO.balanceOf(address(this));\n    uint256 amount = Math.min(s_leftover, balance);\n    s_leftover = 0;\n    KIRO.safeTransfer(msg.sender, amount);\n    emit LeftoverCollected(msg.sender, amount);\n  }\n\n  function stake(uint256 amount) external updateReward(msg.sender) {\n    require(amount > 0, \"Staking: cannot stake 0\");\n    require(amount <= pairLimit(msg.sender), \"Staking: amount exceeds limit\");\n    s_balances[msg.sender] = s_balances[msg.sender].add(amount);\n    s_totalSupply = s_totalSupply.add(amount);\n    IERC20(address(PAIR)).safeTransferFrom(msg.sender, address(this), amount);\n    emit Staked(msg.sender, amount);\n  }\n\n  function exit() external {\n    withdraw(s_balances[msg.sender]);\n    getReward();\n  }\n\n  function withdraw(uint256 amount) public updateReward(msg.sender) {\n    require(amount > 0, 'Staking: cannot withdraw 0');\n    s_totalSupply = s_totalSupply.sub(amount);\n    s_balances[msg.sender] = s_balances[msg.sender].sub(amount);\n    IERC20(address(PAIR)).safeTransfer(msg.sender, amount);\n    emit Withdrawn(msg.sender, amount);\n  }\n\n  function getReward() public updateReward(msg.sender) {\n    uint256 reward = earned(msg.sender);\n    if (reward > 0) {\n      s_rewards[msg.sender] = 0;\n      KIRO.safeTransfer(msg.sender, reward);\n      emit RewardPaid(msg.sender, reward);\n    }\n  }\n\n  function earned(address account) public view returns (uint256) {\n    return\n    (\n      s_balances[account]\n      .mul\n      (\n        rewardPerToken()\n        .sub(s_userRewardPerTokenPaid[account])\n      )\n      .div(1e18)\n      .add(s_rewards[account])\n    );\n  }\n\n  function rewardPerToken() public view returns (uint256) {\n    if (s_totalSupply == 0) {\n      return s_rewardPerTokenStored;\n    }\n    return\n      s_rewardPerTokenStored\n      .add\n      (\n        lastTimeRewardApplicable()\n        .sub(s_lastUpdateTime)\n        .mul(s_rewardRate)\n        .mul(1e18)\n        .div(s_totalSupply)\n      );\n  }\n\n  function lastTimeRewardApplicable() public view returns (uint256) {\n    return Math.min(now, s_periodFinish);\n  }\n\n  function pairLimit(address account) public view returns (uint256) {\n    (, uint256 other, uint256 totalSupply) = pairInfo();\n    uint256 limit = totalSupply.mul(s_stakingLimit).div(other);\n    uint256 balance = s_balances[account];\n    return limit > balance ? limit - balance : 0;    \n  }\n\n  function pairInfo() public view returns (uint256 kiro, uint256 other, uint256 totalSupply) {\n    totalSupply = PAIR.totalSupply();\n    (uint256 reserves0, uint256 reserves1,) = PAIR.getReserves();\n    (kiro, other) = address(KIRO) == PAIR.token0() ? (reserves0, reserves1) : (reserves1, reserves0);\n  }\n\n  function pairOtherBalance(uint256 amount) external view returns (uint256) {\n    (, uint256 other, uint256 totalSupply) = pairInfo();\n    return other.mul(amount).div(totalSupply);\n  }\n\n  function pairKiroBalance(uint256 amount) external view returns (uint256) {\n    (uint256 kiro, , uint256 totalSupply) = pairInfo();\n    return kiro.mul(amount).div(totalSupply);\n  }\n\n  function totalSupply() external view returns (uint256) {\n    return s_totalSupply;\n  }\n\n  function periodFinish() external view returns (uint256) {\n    return s_periodFinish;\n  }\n\n  function rewardRate() external view returns (uint256) {\n    return s_rewardRate;\n  }\n\n  function lastUpdateTime() external view returns (uint256) {\n    return s_lastUpdateTime;\n  }\n\n  function rewardPerTokenStored() external view returns (uint256) {\n    return s_rewardPerTokenStored;\n  }\n\n  function balanceOf(address account) external view returns (uint256) {\n    return s_balances[account];\n  }\n\n  function userRewardPerTokenPaid(address account) external view returns (uint256) {\n    return s_userRewardPerTokenPaid[account];\n  }\n\n  function rewards(address account) external view returns (uint256) {\n    return s_rewards[account];\n  }\n\n  function stakingLimit() external view returns (uint256) {\n    return s_stakingLimit;\n  }\n\n  function leftover() external view returns (uint256) {\n    return s_leftover;\n  }\n\n}\n",
  "sourcePath": "/Users/Tal/code/kirobo/ki-eth-token/contracts/Staking.sol",
  "compiler": {
    "name": "solc",
    "version": "0.6.12+commit.27d51765.Emscripten.clang"
  },
  "schemaVersion": "3.2.0",
  "updatedAt": "2020-10-01T11:28:24.795Z",
  "devdoc": {
    "kind": "dev",
    "methods": {
      "getRoleAdmin(bytes32)": {
        "details": "Returns the admin role that controls `role`. See {grantRole} and {revokeRole}. To change a role's admin, use {_setRoleAdmin}."
      },
      "getRoleMember(bytes32,uint256)": {
        "details": "Returns one of the accounts that have `role`. `index` must be a value between 0 and {getRoleMemberCount}, non-inclusive. Role bearers are not sorted in any particular way, and their ordering may change at any point. WARNING: When using {getRoleMember} and {getRoleMemberCount}, make sure you perform all queries on the same block. See the following https://forum.openzeppelin.com/t/iterating-over-elements-on-enumerableset-in-openzeppelin-contracts/2296[forum post] for more information."
      },
      "getRoleMemberCount(bytes32)": {
        "details": "Returns the number of accounts that have `role`. Can be used together with {getRoleMember} to enumerate all bearers of a role."
      },
      "grantRole(bytes32,address)": {
        "details": "Grants `role` to `account`. If `account` had not been already granted `role`, emits a {RoleGranted} event. Requirements: - the caller must have ``role``'s admin role."
      },
      "hasRole(bytes32,address)": {
        "details": "Returns `true` if `account` has been granted `role`."
      },
      "renounceRole(bytes32,address)": {
        "details": "Revokes `role` from the calling account. Roles are often managed via {grantRole} and {revokeRole}: this function's purpose is to provide a mechanism for accounts to lose their privileges if they are compromised (such as when a trusted device is misplaced). If the calling account had been granted `role`, emits a {RoleRevoked} event. Requirements: - the caller must be `account`."
      },
      "revokeRole(bytes32,address)": {
        "details": "Revokes `role` from `account`. If `account` had been granted `role`, emits a {RoleRevoked} event. Requirements: - the caller must have ``role``'s admin role."
      }
    },
    "version": 1
  },
  "userdoc": {
    "kind": "user",
    "methods": {},
    "version": 1
  }
}