{
  "contractName": "TokenVesting",
  "abi": [
    {
      "inputs": [
        {
          "internalType": "contract IERC20",
          "name": "token",
          "type": "address"
        },
        {
          "internalType": "address",
          "name": "beneficiary",
          "type": "address"
        },
        {
          "internalType": "uint256",
          "name": "releaseTime",
          "type": "uint256"
        },
        {
          "internalType": "address",
          "name": "issuer",
          "type": "address"
        }
      ],
      "stateMutability": "nonpayable",
      "type": "constructor"
    },
    {
      "inputs": [],
      "name": "token",
      "outputs": [
        {
          "internalType": "contract IERC20",
          "name": "",
          "type": "address"
        }
      ],
      "stateMutability": "view",
      "type": "function"
    },
    {
      "inputs": [],
      "name": "beneficiary",
      "outputs": [
        {
          "internalType": "address",
          "name": "",
          "type": "address"
        }
      ],
      "stateMutability": "view",
      "type": "function"
    },
    {
      "inputs": [],
      "name": "releaseTime",
      "outputs": [
        {
          "internalType": "uint256",
          "name": "",
          "type": "uint256"
        }
      ],
      "stateMutability": "view",
      "type": "function"
    },
    {
      "inputs": [],
      "name": "issuer",
      "outputs": [
        {
          "internalType": "address",
          "name": "",
          "type": "address"
        }
      ],
      "stateMutability": "view",
      "type": "function"
    },
    {
      "inputs": [],
      "name": "release",
      "outputs": [],
      "stateMutability": "nonpayable",
      "type": "function"
    },
    {
      "inputs": [],
      "name": "cancel",
      "outputs": [],
      "stateMutability": "nonpayable",
      "type": "function"
    }
  ],
  "bytecode": "0x608060405234801561001057600080fd5b50604051610d08380380610d088339818101604052608081101561003357600080fd5b81019080805190602001909291908051906020019092919080519060200190929190805190602001909291905050504282116100ba576040517f08c379a0000000000000000000000000000000000000000000000000000000008152600401808060200182810382526031815260200180610cd76031913960400191505060405180910390fd5b836000806101000a81548173ffffffffffffffffffffffffffffffffffffffff021916908373ffffffffffffffffffffffffffffffffffffffff16021790555082600160006101000a81548173ffffffffffffffffffffffffffffffffffffffff021916908373ffffffffffffffffffffffffffffffffffffffff1602179055508160028190555080600360006101000a81548173ffffffffffffffffffffffffffffffffffffffff021916908373ffffffffffffffffffffffffffffffffffffffff16021790555050505050610b41806101966000396000f3fe608060405234801561001057600080fd5b50600436106100725760003560e01c8063b91d400111610050578063b91d4001146100e9578063ea8a1af014610107578063fc0c546a1461011157610072565b80631d1438481461007757806338af3eed146100ab57806386d1a69f146100df575b600080fd5b61007f610145565b604051808273ffffffffffffffffffffffffffffffffffffffff16815260200191505060405180910390f35b6100b361016f565b604051808273ffffffffffffffffffffffffffffffffffffffff16815260200191505060405180910390f35b6100e7610199565b005b6100f1610384565b6040518082815260200191505060405180910390f35b61010f61038e565b005b61011961063b565b604051808273ffffffffffffffffffffffffffffffffffffffff16815260200191505060405180910390f35b6000600360009054906101000a900473ffffffffffffffffffffffffffffffffffffffff16905090565b6000600160009054906101000a900473ffffffffffffffffffffffffffffffffffffffff16905090565b6002544210156101f4576040517f08c379a0000000000000000000000000000000000000000000000000000000008152600401808060200182810382526031815260200180610a5f6031913960400191505060405180910390fd5b60008060009054906101000a900473ffffffffffffffffffffffffffffffffffffffff1673ffffffffffffffffffffffffffffffffffffffff166370a08231306040518263ffffffff1660e01b8152600401808273ffffffffffffffffffffffffffffffffffffffff16815260200191505060206040518083038186803b15801561027e57600080fd5b505afa158015610292573d6000803e3d6000fd5b505050506040513d60208110156102a857600080fd5b8101908080519060200190929190505050905060008111610314576040517f08c379a0000000000000000000000000000000000000000000000000000000008152600401808060200182810382526022815260200180610a906022913960400191505060405180910390fd5b610381600160009054906101000a900473ffffffffffffffffffffffffffffffffffffffff168260008054906101000a900473ffffffffffffffffffffffffffffffffffffffff1673ffffffffffffffffffffffffffffffffffffffff166106649092919063ffffffff16565b50565b6000600254905090565b60025442106103e8576040517f08c379a0000000000000000000000000000000000000000000000000000000008152600401808060200182810382526030815260200180610adc6030913960400191505060405180910390fd5b600360009054906101000a900473ffffffffffffffffffffffffffffffffffffffff1673ffffffffffffffffffffffffffffffffffffffff163373ffffffffffffffffffffffffffffffffffffffff16146104ab576040517f08c379a00000000000000000000000000000000000000000000000000000000081526004018080602001828103825260188152602001807f546f6b656e56657374696e673a206e6f7420697373756572000000000000000081525060200191505060405180910390fd5b60008060009054906101000a900473ffffffffffffffffffffffffffffffffffffffff1673ffffffffffffffffffffffffffffffffffffffff166370a08231306040518263ffffffff1660e01b8152600401808273ffffffffffffffffffffffffffffffffffffffff16815260200191505060206040518083038186803b15801561053557600080fd5b505afa158015610549573d6000803e3d6000fd5b505050506040513d602081101561055f57600080fd5b81019080805190602001909291905050509050600081116105cb576040517f08c379a0000000000000000000000000000000000000000000000000000000008152600401808060200182810382526022815260200180610a906022913960400191505060405180910390fd5b610638600360009054906101000a900473ffffffffffffffffffffffffffffffffffffffff168260008054906101000a900473ffffffffffffffffffffffffffffffffffffffff1673ffffffffffffffffffffffffffffffffffffffff166106649092919063ffffffff16565b50565b60008060009054906101000a900473ffffffffffffffffffffffffffffffffffffffff16905090565b6107018363a9059cbb60e01b8484604051602401808373ffffffffffffffffffffffffffffffffffffffff16815260200182815260200192505050604051602081830303815290604052907bffffffffffffffffffffffffffffffffffffffffffffffffffffffff19166020820180517bffffffffffffffffffffffffffffffffffffffffffffffffffffffff8381831617835250505050610706565b505050565b6060610768826040518060400160405280602081526020017f5361666545524332303a206c6f772d6c6576656c2063616c6c206661696c65648152508573ffffffffffffffffffffffffffffffffffffffff166107f59092919063ffffffff16565b90506000815111156107f05780806020019051602081101561078957600080fd5b81019080805190602001909291905050506107ef576040517f08c379a000000000000000000000000000000000000000000000000000000000815260040180806020018281038252602a815260200180610ab2602a913960400191505060405180910390fd5b5b505050565b6060610804848460008561080d565b90509392505050565b606061081885610a13565b61088a576040517f08c379a000000000000000000000000000000000000000000000000000000000815260040180806020018281038252601d8152602001807f416464726573733a2063616c6c20746f206e6f6e2d636f6e747261637400000081525060200191505060405180910390fd5b600060608673ffffffffffffffffffffffffffffffffffffffff1685876040518082805190602001908083835b602083106108da57805182526020820191506020810190506020830392506108b7565b6001836020036101000a03801982511681845116808217855250505050505090500191505060006040518083038185875af1925050503d806000811461093c576040519150601f19603f3d011682016040523d82523d6000602084013e610941565b606091505b50915091508115610956578092505050610a0b565b6000815111156109695780518082602001fd5b836040517f08c379a00000000000000000000000000000000000000000000000000000000081526004018080602001828103825283818151815260200191508051906020019080838360005b838110156109d05780820151818401526020810190506109b5565b50505050905090810190601f1680156109fd5780820380516001836020036101000a031916815260200191505b509250505060405180910390fd5b949350505050565b60008060007fc5d2460186f7233c927e7db2dcc703c0e500b653ca82273b7bfad8045d85a47060001b9050833f9150808214158015610a5557506000801b8214155b9250505091905056fe546f6b656e56657374696e673a2063757272656e742074696d65206973206265666f72652072656c656173652074696d65546f6b656e56657374696e673a206e6f20746f6b656e7320746f2072656c656173655361666545524332303a204552433230206f7065726174696f6e20646964206e6f742073756363656564546f6b656e56657374696e673a2063757272656e742074696d652069732061667465722072656c656173652074696d65a2646970667358221220ae69edd2803d424659e7b2af6b9ecb17a1409b5f9449fb24ac072d97d62c519064736f6c634300060c0033546f6b656e56657374696e673a2072656c656173652074696d65206973206265666f72652063757272656e742074696d65",
  "source": "// SPDX-License-Identifier: MIT\n\npragma solidity ^0.6.0;\n\nimport \"../node_modules/@openzeppelin/contracts/token/ERC20/SafeERC20.sol\";\n\n/**\n * @dev A token holder contract that will allow a beneficiary to extract the\n * tokens after a given release time.\n *\n * Useful for simple vesting schedules like \"advisors get all of their tokens\n * after 1 year\".\n */\ncontract TokenVesting {\n    using SafeERC20 for IERC20;\n\n    // ERC20 basic token contract being held\n    IERC20 private s_token;\n\n    // beneficiary of tokens after they are released\n    address private s_beneficiary;\n\n    // timestamp when token release is enabled\n    uint256 private s_releaseTime;\n\n    address private s_issuer;\n\n    constructor (IERC20 token, address beneficiary, uint256 releaseTime, address issuer) public {\n        // solhint-disable-next-line not-rely-on-time\n        require(releaseTime > block.timestamp, \"TokenVesting: release time is before current time\");\n        s_token = token;\n        s_beneficiary = beneficiary;\n        s_releaseTime = releaseTime;\n        s_issuer = issuer;\n    }\n\n    /**\n     * @return the token being held.\n     */\n    function token() public view returns (IERC20) {\n        return s_token;\n    }\n\n    /**\n     * @return the beneficiary of the tokens.\n     */\n    function beneficiary() public view returns (address) {\n        return s_beneficiary;\n    }\n\n    /**\n     * @return the time when the tokens are released.\n     */\n    function releaseTime() public view returns (uint256) {\n        return s_releaseTime;\n    }\n\n    function issuer() public view returns (address) {\n        return s_issuer;\n    }\n\n    /**\n     * @notice Transfers tokens held by timelock to beneficiary.\n     */\n    function release() public virtual {\n        // solhint-disable-next-line not-rely-on-time\n        require(block.timestamp >= s_releaseTime, \"TokenVesting: current time is before release time\");\n\n        uint256 amount = s_token.balanceOf(address(this));\n        require(amount > 0, \"TokenVesting: no tokens to release\");\n\n        s_token.safeTransfer(s_beneficiary, amount);\n    }\n\n    function cancel() public virtual {\n        // solhint-disable-next-line not-rely-on-time\n        require(block.timestamp < s_releaseTime, \"TokenVesting: current time is after release time\");\n        require(msg.sender == s_issuer, \"TokenVesting: not issuer\");\n        \n        uint256 amount = s_token.balanceOf(address(this));\n        require(amount > 0, \"TokenVesting: no tokens to release\");\n        \n        s_token.safeTransfer(s_issuer, amount);\n    }\n\n}\n",
  "sourcePath": "/home/tal/code/kirobo/ki-eth-token/contracts/TokenVesting.sol",
  "compiler": {
    "name": "solc",
    "version": "0.6.12+commit.27d51765.Emscripten.clang"
  },
  "schemaVersion": "3.0.23",
  "updatedAt": "2020-09-01T14:35:48.997Z",
  "devdoc": {
    "details": "A token holder contract that will allow a beneficiary to extract the tokens after a given release time. Useful for simple vesting schedules like \"advisors get all of their tokens after 1 year\".",
    "kind": "dev",
    "methods": {
      "beneficiary()": {
        "returns": {
          "_0": "the beneficiary of the tokens."
        }
      },
      "releaseTime()": {
        "returns": {
          "_0": "the time when the tokens are released."
        }
      },
      "token()": {
        "returns": {
          "_0": "the token being held."
        }
      }
    },
    "version": 1
  },
  "userdoc": {
    "kind": "user",
    "methods": {
      "release()": {
        "notice": "Transfers tokens held by timelock to beneficiary."
      }
    },
    "version": 1
  }
}