{
  "contractName": "TokenVesting",
  "abi": [
    {
      "inputs": [
        {
          "internalType": "contract IERC20",
          "name": "token",
          "type": "address"
        },
        {
          "internalType": "address",
          "name": "beneficiary",
          "type": "address"
        },
        {
          "internalType": "uint256",
          "name": "releaseTime",
          "type": "uint256"
        },
        {
          "internalType": "address",
          "name": "issuer",
          "type": "address"
        }
      ],
      "stateMutability": "nonpayable",
      "type": "constructor"
    },
    {
      "inputs": [],
      "name": "token",
      "outputs": [
        {
          "internalType": "contract IERC20",
          "name": "",
          "type": "address"
        }
      ],
      "stateMutability": "view",
      "type": "function"
    },
    {
      "inputs": [],
      "name": "beneficiary",
      "outputs": [
        {
          "internalType": "address",
          "name": "",
          "type": "address"
        }
      ],
      "stateMutability": "view",
      "type": "function"
    },
    {
      "inputs": [],
      "name": "releaseTime",
      "outputs": [
        {
          "internalType": "uint256",
          "name": "",
          "type": "uint256"
        }
      ],
      "stateMutability": "view",
      "type": "function"
    },
    {
      "inputs": [],
      "name": "issuer",
      "outputs": [
        {
          "internalType": "address",
          "name": "",
          "type": "address"
        }
      ],
      "stateMutability": "view",
      "type": "function"
    },
    {
      "inputs": [],
      "name": "release",
      "outputs": [],
      "stateMutability": "nonpayable",
      "type": "function"
    },
    {
      "inputs": [],
      "name": "cancel",
      "outputs": [],
      "stateMutability": "nonpayable",
      "type": "function"
    }
  ],
  "bytecode": "0x608060405234801561001057600080fd5b506040516108743803806108748339818101604052608081101561003357600080fd5b50805160208201516040830151606090930151919290914282116100885760405162461bcd60e51b81526004018080602001828103825260318152602001806108436031913960400191505060405180910390fd5b600080546001600160a01b039586166001600160a01b031991821617909155600180549486169482169490941790935560029190915560038054919093169116179055610769806100da6000396000f3fe608060405234801561001057600080fd5b50600436106100625760003560e01c80631d1438481461006757806338af3eed1461008b57806386d1a69f14610093578063b91d40011461009d578063ea8a1af0146100b7578063fc0c546a146100bf575b600080fd5b61006f6100c7565b604080516001600160a01b039092168252519081900360200190f35b61006f6100d6565b61009b6100e5565b005b6100a56101fc565b60408051918252519081900360200190f35b61009b610202565b61006f610374565b6003546001600160a01b031690565b6001546001600160a01b031690565b6002544210156101265760405162461bcd60e51b81526004018080602001828103825260318152602001806106876031913960400191505060405180910390fd5b60008054604080516370a0823160e01b815230600482015290516001600160a01b03909216916370a0823191602480820192602092909190829003018186803b15801561017257600080fd5b505afa158015610186573d6000803e3d6000fd5b505050506040513d602081101561019c57600080fd5b50519050806101dc5760405162461bcd60e51b81526004018080602001828103825260228152602001806106b86022913960400191505060405180910390fd5b6001546000546101f9916001600160a01b03918216911683610383565b50565b60025490565b60025442106102425760405162461bcd60e51b81526004018080602001828103825260308152602001806107046030913960400191505060405180910390fd5b6003546001600160a01b031633146102a1576040805162461bcd60e51b815260206004820152601860248201527f546f6b656e56657374696e673a206e6f74206973737565720000000000000000604482015290519081900360640190fd5b60008054604080516370a0823160e01b815230600482015290516001600160a01b03909216916370a0823191602480820192602092909190829003018186803b1580156102ed57600080fd5b505afa158015610301573d6000803e3d6000fd5b505050506040513d602081101561031757600080fd5b50519050806103575760405162461bcd60e51b81526004018080602001828103825260228152602001806106b86022913960400191505060405180910390fd5b6003546000546101f9916001600160a01b03918216911683610383565b6000546001600160a01b031690565b604080516001600160a01b038416602482015260448082018490528251808303909101815260649091019091526020810180516001600160e01b031663a9059cbb60e01b1790526103d59084906103da565b505050565b606061042f826040518060400160405280602081526020017f5361666545524332303a206c6f772d6c6576656c2063616c6c206661696c6564815250856001600160a01b031661048b9092919063ffffffff16565b8051909150156103d55780806020019051602081101561044e57600080fd5b50516103d55760405162461bcd60e51b815260040180806020018281038252602a8152602001806106da602a913960400191505060405180910390fd5b606061049a84846000856104a2565b949350505050565b60606104ad8561064d565b6104fe576040805162461bcd60e51b815260206004820152601d60248201527f416464726573733a2063616c6c20746f206e6f6e2d636f6e7472616374000000604482015290519081900360640190fd5b60006060866001600160a01b031685876040518082805190602001908083835b6020831061053d5780518252601f19909201916020918201910161051e565b6001836020036101000a03801982511681845116808217855250505050505090500191505060006040518083038185875af1925050503d806000811461059f576040519150601f19603f3d011682016040523d82523d6000602084013e6105a4565b606091505b509150915081156105b857915061049a9050565b8051156105c85780518082602001fd5b8360405162461bcd60e51b81526004018080602001828103825283818151815260200191508051906020019080838360005b838110156106125781810151838201526020016105fa565b50505050905090810190601f16801561063f5780820380516001836020036101000a031916815260200191505b509250505060405180910390fd5b6000813f7fc5d2460186f7233c927e7db2dcc703c0e500b653ca82273b7bfad8045d85a47081811480159061049a57505015159291505056fe546f6b656e56657374696e673a2063757272656e742074696d65206973206265666f72652072656c656173652074696d65546f6b656e56657374696e673a206e6f20746f6b656e7320746f2072656c656173655361666545524332303a204552433230206f7065726174696f6e20646964206e6f742073756363656564546f6b656e56657374696e673a2063757272656e742074696d652069732061667465722072656c656173652074696d65a26469706673582212205cc028c00c7694c2e33072708305128771687cbdc5caf939554289feb4eac19764736f6c634300060c0033546f6b656e56657374696e673a2072656c656173652074696d65206973206265666f72652063757272656e742074696d65",
  "immutableReferences": {},
  "source": "// SPDX-License-Identifier: MIT\n\npragma solidity ^0.6.0;\n\nimport \"../node_modules/@openzeppelin/contracts/token/ERC20/SafeERC20.sol\";\n\n/**\n * @dev A token holder contract that will allow a beneficiary to extract the\n * tokens after a given release time.\n *\n * Useful for simple vesting schedules like \"advisors get all of their tokens\n * after 1 year\".\n */\ncontract TokenVesting {\n    using SafeERC20 for IERC20;\n\n    // ERC20 basic token contract being held\n    IERC20 private s_token;\n\n    // beneficiary of tokens after they are released\n    address private s_beneficiary;\n\n    // timestamp when token release is enabled\n    uint256 private s_releaseTime;\n\n    address private s_issuer;\n\n    constructor (IERC20 token, address beneficiary, uint256 releaseTime, address issuer) public {\n        // solhint-disable-next-line not-rely-on-time\n        require(releaseTime > block.timestamp, \"TokenVesting: release time is before current time\");\n        s_token = token;\n        s_beneficiary = beneficiary;\n        s_releaseTime = releaseTime;\n        s_issuer = issuer;\n    }\n\n    /**\n     * @return the token being held.\n     */\n    function token() public view returns (IERC20) {\n        return s_token;\n    }\n\n    /**\n     * @return the beneficiary of the tokens.\n     */\n    function beneficiary() public view returns (address) {\n        return s_beneficiary;\n    }\n\n    /**\n     * @return the time when the tokens are released.\n     */\n    function releaseTime() public view returns (uint256) {\n        return s_releaseTime;\n    }\n\n    function issuer() public view returns (address) {\n        return s_issuer;\n    }\n\n    /**\n     * @notice Transfers tokens held by timelock to beneficiary.\n     */\n    function release() public virtual {\n        // solhint-disable-next-line not-rely-on-time\n        require(block.timestamp >= s_releaseTime, \"TokenVesting: current time is before release time\");\n\n        uint256 amount = s_token.balanceOf(address(this));\n        require(amount > 0, \"TokenVesting: no tokens to release\");\n\n        s_token.safeTransfer(s_beneficiary, amount);\n    }\n\n    function cancel() public virtual {\n        // solhint-disable-next-line not-rely-on-time\n        require(block.timestamp < s_releaseTime, \"TokenVesting: current time is after release time\");\n        require(msg.sender == s_issuer, \"TokenVesting: not issuer\");\n        \n        uint256 amount = s_token.balanceOf(address(this));\n        require(amount > 0, \"TokenVesting: no tokens to release\");\n        \n        s_token.safeTransfer(s_issuer, amount);\n    }\n\n}\n",
  "sourcePath": "/Users/Tal/code/kirobo/ki-eth-token/contracts/TokenVesting.sol",
  "compiler": {
    "name": "solc",
    "version": "0.6.12+commit.27d51765.Emscripten.clang"
  },
  "schemaVersion": "3.2.0",
  "updatedAt": "2020-09-03T01:46:15.566Z",
  "devdoc": {
    "details": "A token holder contract that will allow a beneficiary to extract the tokens after a given release time. Useful for simple vesting schedules like \"advisors get all of their tokens after 1 year\".",
    "kind": "dev",
    "methods": {
      "beneficiary()": {
        "returns": {
          "_0": "the beneficiary of the tokens."
        }
      },
      "releaseTime()": {
        "returns": {
          "_0": "the time when the tokens are released."
        }
      },
      "token()": {
        "returns": {
          "_0": "the token being held."
        }
      }
    },
    "version": 1
  },
  "userdoc": {
    "kind": "user",
    "methods": {
      "release()": {
        "notice": "Transfers tokens held by timelock to beneficiary."
      }
    },
    "version": 1
  }
}