{
  "contractName": "TokenMinter",
  "abi": [
    {
      "inputs": [
        {
          "internalType": "contract Token",
          "name": "token",
          "type": "address"
        },
        {
          "internalType": "address",
          "name": "beneficiary",
          "type": "address"
        }
      ],
      "stateMutability": "nonpayable",
      "type": "constructor"
    },
    {
      "inputs": [],
      "name": "DURATION",
      "outputs": [
        {
          "internalType": "uint256",
          "name": "",
          "type": "uint256"
        }
      ],
      "stateMutability": "view",
      "type": "function"
    },
    {
      "inputs": [],
      "name": "END_VALUE",
      "outputs": [
        {
          "internalType": "uint256",
          "name": "",
          "type": "uint256"
        }
      ],
      "stateMutability": "view",
      "type": "function"
    },
    {
      "inputs": [],
      "name": "start",
      "outputs": [],
      "stateMutability": "nonpayable",
      "type": "function"
    },
    {
      "inputs": [],
      "name": "minterRoleValidation",
      "outputs": [],
      "stateMutability": "view",
      "type": "function"
    },
    {
      "inputs": [],
      "name": "started",
      "outputs": [
        {
          "internalType": "bool",
          "name": "",
          "type": "bool"
        }
      ],
      "stateMutability": "view",
      "type": "function"
    },
    {
      "inputs": [],
      "name": "token",
      "outputs": [
        {
          "internalType": "contract Token",
          "name": "",
          "type": "address"
        }
      ],
      "stateMutability": "view",
      "type": "function"
    },
    {
      "inputs": [],
      "name": "beneficiary",
      "outputs": [
        {
          "internalType": "address",
          "name": "",
          "type": "address"
        }
      ],
      "stateMutability": "view",
      "type": "function"
    },
    {
      "inputs": [],
      "name": "startTime",
      "outputs": [
        {
          "internalType": "uint256",
          "name": "",
          "type": "uint256"
        }
      ],
      "stateMutability": "view",
      "type": "function"
    },
    {
      "inputs": [],
      "name": "endTime",
      "outputs": [
        {
          "internalType": "uint256",
          "name": "",
          "type": "uint256"
        }
      ],
      "stateMutability": "view",
      "type": "function"
    },
    {
      "inputs": [],
      "name": "startValue",
      "outputs": [
        {
          "internalType": "uint256",
          "name": "",
          "type": "uint256"
        }
      ],
      "stateMutability": "view",
      "type": "function"
    },
    {
      "inputs": [],
      "name": "minted",
      "outputs": [
        {
          "internalType": "uint256",
          "name": "",
          "type": "uint256"
        }
      ],
      "stateMutability": "view",
      "type": "function"
    },
    {
      "inputs": [],
      "name": "left",
      "outputs": [
        {
          "internalType": "uint256",
          "name": "",
          "type": "uint256"
        }
      ],
      "stateMutability": "view",
      "type": "function"
    },
    {
      "inputs": [],
      "name": "maxCap",
      "outputs": [
        {
          "internalType": "uint256",
          "name": "",
          "type": "uint256"
        }
      ],
      "stateMutability": "view",
      "type": "function"
    },
    {
      "inputs": [],
      "name": "maxValue",
      "outputs": [
        {
          "internalType": "uint256",
          "name": "",
          "type": "uint256"
        }
      ],
      "stateMutability": "view",
      "type": "function"
    },
    {
      "inputs": [
        {
          "internalType": "uint256",
          "name": "value",
          "type": "uint256"
        }
      ],
      "name": "mint",
      "outputs": [],
      "stateMutability": "nonpayable",
      "type": "function"
    }
  ],
  "bytecode": "0x608060405234801561001057600080fd5b50604051610c34380380610c348339818101604052604081101561003357600080fd5b508051602090910151600080546001600160a01b039384166001600160a01b03199182161790915560058054939092169216919091179055610bba8061007a6000396000f3fe608060405234801561001057600080fd5b50600436106100f55760003560e01c80634f02c42011610097578063be9a655511610066578063be9a6555146101ab578063bfbe38fa146101b3578063fc0c546a146101bb578063fd7c06b9146101c3576100f5565b80634f02c4201461017457806378e979251461017c57806394a5c2e414610184578063a0712d681461018c576100f5565b806323548b8b116100d357806323548b8b146101385780633197cbb61461014057806338af3eed146101485780633f35ff321461016c576100f5565b806316e64048146100fa5780631be05289146101145780631f2698ab1461011c575b600080fd5b6101026101cb565b60408051918252519081900360200190f35b6101026101fe565b610124610206565b604080519115158252519081900360200190f35b610102610216565b6101026102a1565b6101506102a7565b604080516001600160a01b039092168252519081900360200190f35b6101026102b6565b6101026102bc565b6101026102c2565b6101026102c8565b6101a9600480360360208110156101a257600080fd5b5035610350565b005b6101a961047f565b6101a96106f5565b61015061093a565b610102610949565b60006101fa6004546101f46001546b071bcc1ef9311a1f9800000061095990919063ffffffff16565b90610959565b5090565b6309450c0081565b600554600160a01b900460ff1690565b60006101fa6102236101cb565b60008054906101000a90046001600160a01b03166001600160a01b03166318160ddd6040518163ffffffff1660e01b815260040160206040518083038186803b15801561026f57600080fd5b505afa158015610283573d6000803e3d6000fd5b505050506040513d602081101561029957600080fd5b5051906109a4565b60035490565b6005546001600160a01b031690565b60015490565b60045490565b60025490565b6000806102ec6001546b071bcc1ef9311a1f9800000061095990919063ffffffff16565b9050600061030760025460035461095990919063ffffffff16565b90506000600354421161031a574261031e565b6003545b905060006103376002548361095990919063ffffffff16565b9050610347836101f486846109fe565b94505050505090565b6005546001600160a01b031633146103a1576040805162461bcd60e51b815260206004820152600f60248201526e6e6f742062656e656669636961727960881b604482015290519081900360640190fd5b6004546103ae90826109a4565b6004556103b96102c8565b600454111561040f576040805162461bcd60e51b815260206004820152601b60248201527f546f6b656e4d696e7465723a2076616c756520746f6f20686967680000000000604482015290519081900360640190fd5b60008054600554604080516340c10f1960e01b81526001600160a01b03928316600482015260248101869052905191909216926340c10f19926044808201939182900301818387803b15801561046457600080fd5b505af1158015610478573d6000803e3d6000fd5b5050505050565b6005546001600160a01b031633146104d0576040805162461bcd60e51b815260206004820152600f60248201526e6e6f742062656e656669636961727960881b604482015290519081900360640190fd5b600554600160a01b900460ff161561052f576040805162461bcd60e51b815260206004820152601c60248201527f546f6b656e4d696e7465723a20616c7265616479207374617274656400000000604482015290519081900360640190fd5b60005460408051631339324b60e01b815290516001600160a01b039092169163ca15c873918391631339324b91600480820192602092909190829003018186803b15801561057c57600080fd5b505afa158015610590573d6000803e3d6000fd5b505050506040513d60208110156105a657600080fd5b5051604080516001600160e01b031960e085901b1681526004810192909252516024808301926020929190829003018186803b1580156105e557600080fd5b505afa1580156105f9573d6000803e3d6000fd5b505050506040513d602081101561060f57600080fd5b50511561064d5760405162461bcd60e51b8152600401808060200182810382526024815260200180610aef6024913960400191505060405180910390fd5b6106556106f5565b6005805460ff60a01b1916600160a01b179055600054604080516318160ddd60e01b815290516001600160a01b03909216916318160ddd91600480820192602092909190829003018186803b1580156106ad57600080fd5b505afa1580156106c1573d6000803e3d6000fd5b505050506040513d60208110156106d757600080fd5b50516001554260028190556106f0906309450c006109a4565b600355565b6000546040805163d539139360e01b815290516001600160a01b039092169163ca15c87391839163d539139391600480820192602092909190829003018186803b15801561074257600080fd5b505afa158015610756573d6000803e3d6000fd5b505050506040513d602081101561076c57600080fd5b5051604080516001600160e01b031960e085901b1681526004810192909252516024808301926020929190829003018186803b1580156107ab57600080fd5b505afa1580156107bf573d6000803e3d6000fd5b505050506040513d60208110156107d557600080fd5b50516001146108155760405162461bcd60e51b815260040180806020018281038252602d815260200180610b58602d913960400191505060405180910390fd5b6000546040805163d539139360e01b815290516001600160a01b03909216916391d1485491839163d539139391600480820192602092909190829003018186803b15801561086257600080fd5b505afa158015610876573d6000803e3d6000fd5b505050506040513d602081101561088c57600080fd5b5051604080516001600160e01b031960e085901b1681526004810192909252306024830152516044808301926020929190829003018186803b1580156108d157600080fd5b505afa1580156108e5573d6000803e3d6000fd5b505050506040513d60208110156108fb57600080fd5b50516109385760405162461bcd60e51b8152600401808060200182810382526024815260200180610b346024913960400191505060405180910390fd5b565b6000546001600160a01b031690565b6b071bcc1ef9311a1f9800000081565b600061099b83836040518060400160405280601e81526020017f536166654d6174683a207375627472616374696f6e206f766572666c6f770000815250610a57565b90505b92915050565b60008282018381101561099b576040805162461bcd60e51b815260206004820152601b60248201527f536166654d6174683a206164646974696f6e206f766572666c6f770000000000604482015290519081900360640190fd5b600082610a0d5750600061099e565b82820282848281610a1a57fe5b041461099b5760405162461bcd60e51b8152600401808060200182810382526021815260200180610b136021913960400191505060405180910390fd5b60008184841115610ae65760405162461bcd60e51b81526004018080602001828103825283818151815260200191508051906020019080838360005b83811015610aab578181015183820152602001610a93565b50505050905090810190601f168015610ad85780820380516001836020036101000a031916815260200191505b509250505060405180910390fd5b50505090039056fe546f6b656e4d696e7465723a2063616e206368616e6765206d696e74657220726f6c6573536166654d6174683a206d756c7469706c69636174696f6e206f766572666c6f77546f6b656e4d696e7465723a20646f206e6f742068617665206d696e74657220726f6c65546f6b656e4d696e7465723a206f6e6c79206f6e652073686f756c642068617665206d696e74657220726f6c65a2646970667358221220530635a6b9436931ee02ca5503efb532160ca1c47efd29b94a7cd9f284ed71c064736f6c634300060c0033",
  "source": "// SPDX-License-Identifier: MIT\n\npragma solidity 0.6.12;\n\nimport \"./Token.sol\";\nimport \"../node_modules/@openzeppelin/contracts/math/SafeMath.sol\";\n\ncontract TokenMinter {\n    using SafeMath for uint256;\n    Token private s_token;\n\n    uint256 constant public END_VALUE = 2_200_000_000 * 10 ** 18; // 2.2B tokens\n    uint256 constant public DURATION = 155_520_000; // 1800 days in seconds\n    uint256 private s_startValue;\n    uint256 private s_startTime;\n    uint256 private s_endTime;\n    uint256 private s_minted;\n    address private s_beneficiary;\n    bool private s_started;\n\n    modifier onlyBeneficiary() {\n      require(msg.sender == s_beneficiary, \"not beneficiary\");\n      _;\n    }\n\n    constructor (Token token, address beneficiary) public {\n        s_token = token;\n        s_beneficiary = beneficiary;\n    }\n\n    function start() public onlyBeneficiary() {\n        // solhint-disable-next-line not-rely-on-time\n        require(s_started == false, \"TokenMinter: already started\");\n        require(s_token.getRoleMemberCount(s_token.MINTER_ADMIN_ROLE()) == 0, \"TokenMinter: can change minter roles\");\n        minterRoleValidation();\n        s_started = true;\n        s_startValue = s_token.totalSupply();\n        s_startTime = block.timestamp;\n        s_endTime = block.timestamp.add(DURATION);\n    }\n\n    function minterRoleValidation() public view {\n        require(s_token.getRoleMemberCount(s_token.MINTER_ROLE()) == 1, \"TokenMinter: only one should have minter role\");\n        require(s_token.hasRole(s_token.MINTER_ROLE(), address(this)), \"TokenMinter: do not have minter role\");\n    }\n\n    function started() public view returns (bool) {\n        return s_started;\n    }\n\n    function token() public view returns (Token) {\n        return s_token;\n    }\n\n    function beneficiary() public view returns (address) {\n        return s_beneficiary;\n    }\n\n    function startTime() public view returns (uint256) {\n        return s_startTime;\n    }\n\n    function endTime() public view returns (uint256) {\n        return s_endTime;\n    }\n\n    function startValue() public view returns (uint256) {\n        return s_startValue;\n    }\n\n    function minted() public view returns (uint256) {\n        return s_minted;\n    }\n\n    function left() public view returns (uint256) {\n        END_VALUE.sub(s_startValue).sub(s_minted);\n    }\n\n    function maxCap() public view returns (uint256) {\n        s_token.totalSupply().add(left());\n    }\n\n    function maxValue() public view returns (uint256) {\n        uint256 maxAmount = END_VALUE.sub(s_startValue);\n        uint256 maxduration = s_endTime.sub(s_startTime);\n        // solhint-disable-next-line not-rely-on-time\n        uint256 effectiveTime = block.timestamp > s_endTime ? s_endTime : block.timestamp;\n        uint256 duration = effectiveTime.sub(s_startTime);\n        return maxAmount.mul(duration).sub(maxduration);\n    }\n\n    function mint(uint256 value) public onlyBeneficiary() {\n        s_minted = s_minted.add(value);\n        require(s_minted <= maxValue(), \"TokenMinter: value too high\");\n        s_token.mint(s_beneficiary, value);\n    }\n}\n",
  "sourcePath": "/home/tal/code/kirobo/ki-eth-token/contracts/TokenMinter.sol",
  "compiler": {
    "name": "solc",
    "version": "0.6.12+commit.27d51765.Emscripten.clang"
  },
  "schemaVersion": "3.0.23",
  "updatedAt": "2020-09-06T16:40:15.187Z",
  "devdoc": {
    "kind": "dev",
    "methods": {},
    "version": 1
  },
  "userdoc": {
    "kind": "user",
    "methods": {},
    "version": 1
  }
}