{
  "contractName": "Vesting",
  "abi": [
    {
      "inputs": [
        {
          "internalType": "contract IERC20",
          "name": "token",
          "type": "address"
        },
        {
          "internalType": "address",
          "name": "beneficiary",
          "type": "address"
        },
        {
          "internalType": "uint256",
          "name": "releaseTime",
          "type": "uint256"
        },
        {
          "internalType": "address",
          "name": "issuer",
          "type": "address"
        },
        {
          "internalType": "uint256",
          "name": "retrieveTime",
          "type": "uint256"
        }
      ],
      "stateMutability": "nonpayable",
      "type": "constructor"
    },
    {
      "anonymous": false,
      "inputs": [
        {
          "indexed": false,
          "internalType": "uint256",
          "name": "amount",
          "type": "uint256"
        },
        {
          "indexed": false,
          "internalType": "uint256",
          "name": "timestamp",
          "type": "uint256"
        }
      ],
      "name": "Released",
      "type": "event"
    },
    {
      "anonymous": false,
      "inputs": [
        {
          "indexed": false,
          "internalType": "uint256",
          "name": "amount",
          "type": "uint256"
        },
        {
          "indexed": false,
          "internalType": "uint256",
          "name": "timestamp",
          "type": "uint256"
        }
      ],
      "name": "Retrieved",
      "type": "event"
    },
    {
      "stateMutability": "payable",
      "type": "receive"
    },
    {
      "inputs": [],
      "name": "releaseAll",
      "outputs": [],
      "stateMutability": "nonpayable",
      "type": "function"
    },
    {
      "inputs": [],
      "name": "retrieveAll",
      "outputs": [],
      "stateMutability": "nonpayable",
      "type": "function"
    },
    {
      "inputs": [
        {
          "internalType": "uint256",
          "name": "amount",
          "type": "uint256"
        }
      ],
      "name": "release",
      "outputs": [],
      "stateMutability": "nonpayable",
      "type": "function"
    },
    {
      "inputs": [
        {
          "internalType": "uint256",
          "name": "amount",
          "type": "uint256"
        }
      ],
      "name": "retrieve",
      "outputs": [],
      "stateMutability": "nonpayable",
      "type": "function"
    },
    {
      "inputs": [],
      "name": "token",
      "outputs": [
        {
          "internalType": "contract IERC20",
          "name": "",
          "type": "address"
        }
      ],
      "stateMutability": "view",
      "type": "function"
    },
    {
      "inputs": [],
      "name": "beneficiary",
      "outputs": [
        {
          "internalType": "address",
          "name": "",
          "type": "address"
        }
      ],
      "stateMutability": "view",
      "type": "function"
    },
    {
      "inputs": [],
      "name": "releaseTime",
      "outputs": [
        {
          "internalType": "uint256",
          "name": "",
          "type": "uint256"
        }
      ],
      "stateMutability": "view",
      "type": "function"
    },
    {
      "inputs": [],
      "name": "issuer",
      "outputs": [
        {
          "internalType": "address",
          "name": "",
          "type": "address"
        }
      ],
      "stateMutability": "view",
      "type": "function"
    },
    {
      "inputs": [],
      "name": "retrieveTime",
      "outputs": [
        {
          "internalType": "uint256",
          "name": "",
          "type": "uint256"
        }
      ],
      "stateMutability": "view",
      "type": "function"
    }
  ],
  "bytecode": "0x608060405234801561001057600080fd5b50604051610a61380380610a61833981810160405260a081101561003357600080fd5b508051602082015160408301516060840151608090940151929391929091904283116100905760405162461bcd60e51b8152600401808060200182810382526031815260200180610a306031913960400191505060405180910390fd5b600080546001600160a01b03199081166001600160a01b039788161782556001805482169688169690961790955560029390935560045560038054909316931692909217905561094a9081906100e690396000f3fe60806040526004361061008a5760003560e01c80636a0eb96c116100595780636a0eb96c146101685780638f88708b1461018f57806395607ced146101b9578063b91d4001146101ce578063fc0c546a146101e3576100de565b80631d143848146100e357806337bdc99b1461011457806338af3eed1461013e5780635be7fde814610153576100de565b366100de576040805162461bcd60e51b815260206004820152601c60248201527f56657374696e673a206e6f7420616363657074696e6720657468657200000000604482015290519081900360640190fd5b005b600080fd5b3480156100ef57600080fd5b506100f86101f8565b604080516001600160a01b039092168252519081900360200190f35b34801561012057600080fd5b506100dc6004803603602081101561013757600080fd5b5035610207565b34801561014a57600080fd5b506100f86102e1565b34801561015f57600080fd5b506100dc6102f0565b34801561017457600080fd5b5061017d61036f565b60408051918252519081900360200190f35b34801561019b57600080fd5b506100dc600480360360208110156101b257600080fd5b5035610375565b3480156101c557600080fd5b506100dc6104ae565b3480156101da57600080fd5b5061017d61052b565b3480156101ef57600080fd5b506100f8610531565b6003546001600160a01b031690565b6002544210156102485760405162461bcd60e51b81526004018080602001828103825260318152602001806108446031913960400191505060405180910390fd5b600081116102875760405162461bcd60e51b81526004018080602001828103825260228152602001806108986022913960400191505060405180910390fd5b6001546000546102a4916001600160a01b03918216911683610540565b6040805182815242602082015281517fd5840651550c173a8bf246eede440a59253bc61eadb2e8887168faad2fad631d929181900390910190a150565b6001546001600160a01b031690565b600054604080516370a0823160e01b8152306004820152905161036d926001600160a01b0316916370a08231916024808301926020929190829003018186803b15801561033c57600080fd5b505afa158015610350573d6000803e3d6000fd5b505050506040513d602081101561036657600080fd5b5051610207565b565b60045490565b6003546001600160a01b031633146103d4576040805162461bcd60e51b815260206004820152601860248201527f546f6b656e56657374696e673a206e6f74206973737565720000000000000000604482015290519081900360640190fd5b6004544211156104155760405162461bcd60e51b81526004018080602001828103825260318152602001806108ba6031913960400191505060405180910390fd5b600081116104545760405162461bcd60e51b81526004018080602001828103825260238152602001806108756023913960400191505060405180910390fd5b600354600054610471916001600160a01b03918216911683610540565b6040805182815242602082015281517fbee37dab1a7977da0b005c7ce6e718f56a0b86db9be1bcc76282734d9227593a929181900390910190a150565b600054604080516370a0823160e01b8152306004820152905161036d926001600160a01b0316916370a08231916024808301926020929190829003018186803b1580156104fa57600080fd5b505afa15801561050e573d6000803e3d6000fd5b505050506040513d602081101561052457600080fd5b5051610375565b60025490565b6000546001600160a01b031690565b604080516001600160a01b038416602482015260448082018490528251808303909101815260649091019091526020810180516001600160e01b031663a9059cbb60e01b179052610592908490610597565b505050565b60606105ec826040518060400160405280602081526020017f5361666545524332303a206c6f772d6c6576656c2063616c6c206661696c6564815250856001600160a01b03166106489092919063ffffffff16565b8051909150156105925780806020019051602081101561060b57600080fd5b50516105925760405162461bcd60e51b815260040180806020018281038252602a8152602001806108eb602a913960400191505060405180910390fd5b6060610657848460008561065f565b949350505050565b606061066a8561080a565b6106bb576040805162461bcd60e51b815260206004820152601d60248201527f416464726573733a2063616c6c20746f206e6f6e2d636f6e7472616374000000604482015290519081900360640190fd5b60006060866001600160a01b031685876040518082805190602001908083835b602083106106fa5780518252601f1990920191602091820191016106db565b6001836020036101000a03801982511681845116808217855250505050505090500191505060006040518083038185875af1925050503d806000811461075c576040519150601f19603f3d011682016040523d82523d6000602084013e610761565b606091505b509150915081156107755791506106579050565b8051156107855780518082602001fd5b8360405162461bcd60e51b81526004018080602001828103825283818151815260200191508051906020019080838360005b838110156107cf5781810151838201526020016107b7565b50505050905090810190601f1680156107fc5780820380516001836020036101000a031916815260200191505b509250505060405180910390fd5b6000813f7fc5d2460186f7233c927e7db2dcc703c0e500b653ca82273b7bfad8045d85a47081811480159061065757505015159291505056fe546f6b656e56657374696e673a2063757272656e742074696d65206973206265666f72652072656c656173652074696d65546f6b656e56657374696e673a206e6f20746f6b656e7320746f207265747269657665546f6b656e56657374696e673a206e6f20746f6b656e7320746f2072656c65617365546f6b656e56657374696e673a2063757272656e742074696d652069732061667465722072657472696576652074696d655361666545524332303a204552433230206f7065726174696f6e20646964206e6f742073756363656564a26469706673582212202e5010e26f58bdec834bc46ea400445ee42a2dd37972a6478825c4851ed8e52564736f6c634300060c0033546f6b656e56657374696e673a2072656c656173652074696d65206973206265666f72652063757272656e742074696d65",
  "immutableReferences": {},
  "source": "// SPDX-License-Identifier: MIT\n\npragma solidity ^0.6.0;\n\nimport \"../node_modules/@openzeppelin/contracts/token/ERC20/SafeERC20.sol\";\n\ncontract Vesting {\n    using SafeERC20 for IERC20;\n\n    IERC20 private s_token;\n    address private s_beneficiary;\n    uint256 private s_releaseTime;\n    address private s_issuer;\n    uint256 private s_retrieveTime;\n\n    event Released(uint256 amount, uint256 timestamp);\n    event Retrieved(uint256 amount, uint256 timestamp);\n\n    constructor (IERC20 token, address beneficiary, uint256 releaseTime, address issuer, uint256 retrieveTime) public {\n        require(releaseTime > block.timestamp, \"TokenVesting: release time is before current time\");\n        s_token = token;\n        s_beneficiary = beneficiary;\n        s_releaseTime = releaseTime;\n        s_retrieveTime = retrieveTime;\n        s_issuer = issuer;\n    }\n\n    receive () external payable {\n        require(false, \"Vesting: not accepting ether\");\n    }\n\n    function releaseAll() external {\n        release(s_token.balanceOf(address(this)));\n    }\n\n    function retrieveAll() external {\n        retrieve(s_token.balanceOf(address(this)));\n    }\n\n    function release(uint256 amount) public {\n        require(block.timestamp >= s_releaseTime, \"TokenVesting: current time is before release time\");\n        require(amount > 0, \"TokenVesting: no tokens to release\");\n        s_token.safeTransfer(s_beneficiary, amount);\n        emit Released(amount, block.timestamp);\n    }\n\n    function retrieve(uint256 amount) public {\n        require(msg.sender == s_issuer, \"TokenVesting: not issuer\");\n        require(block.timestamp <= s_retrieveTime, \"TokenVesting: current time is after retrieve time\");\n        require(amount > 0, \"TokenVesting: no tokens to retrieve\");\n        s_token.safeTransfer(s_issuer, amount);\n        emit Retrieved(amount, block.timestamp);\n    }\n\n    function token() external view returns (IERC20) {\n        return s_token;\n    }\n\n    function beneficiary() external view returns (address) {\n        return s_beneficiary;\n    }\n\n    function releaseTime() external view returns (uint256) {\n        return s_releaseTime;\n    }\n\n    function issuer() external view returns (address) {\n        return s_issuer;\n    }\n\n    function retrieveTime() external view returns (uint256) {\n        return s_retrieveTime;\n    }\n\n}\n",
  "sourcePath": "/Users/tal/code/tasks/ki-eth-token/contracts/Vesting.sol",
  "compiler": {
    "name": "solc",
    "version": "0.6.12+commit.27d51765.Emscripten.clang"
  },
  "schemaVersion": "3.3.4",
  "updatedAt": "2022-04-24T18:10:52.611Z",
  "devdoc": {
    "kind": "dev",
    "methods": {},
    "version": 1
  },
  "userdoc": {
    "kind": "user",
    "methods": {},
    "version": 1
  }
}