{
  "contractName": "Wallet",
  "abi": [
    {
      "inputs": [
        {
          "internalType": "address",
          "name": "owner1",
          "type": "address"
        },
        {
          "internalType": "address",
          "name": "owner2",
          "type": "address"
        },
        {
          "internalType": "address",
          "name": "owner3",
          "type": "address"
        }
      ],
      "stateMutability": "nonpayable",
      "type": "constructor"
    },
    {
      "anonymous": false,
      "inputs": [
        {
          "indexed": false,
          "internalType": "address",
          "name": "at",
          "type": "address"
        }
      ],
      "name": "ContractDeployed",
      "type": "event"
    },
    {
      "anonymous": false,
      "inputs": [
        {
          "indexed": false,
          "internalType": "address",
          "name": "at",
          "type": "address"
        }
      ],
      "name": "ContractDeployed2",
      "type": "event"
    },
    {
      "anonymous": false,
      "inputs": [
        {
          "indexed": true,
          "internalType": "address",
          "name": "from",
          "type": "address"
        }
      ],
      "name": "MultiSigCancel",
      "type": "event"
    },
    {
      "anonymous": false,
      "inputs": [
        {
          "indexed": true,
          "internalType": "address",
          "name": "from",
          "type": "address"
        },
        {
          "indexed": true,
          "internalType": "bytes4",
          "name": "selector",
          "type": "bytes4"
        },
        {
          "indexed": false,
          "internalType": "uint256",
          "name": "value",
          "type": "uint256"
        },
        {
          "indexed": false,
          "internalType": "bytes32",
          "name": "hashedData",
          "type": "bytes32"
        }
      ],
      "name": "MultiSigExecute",
      "type": "event"
    },
    {
      "anonymous": false,
      "inputs": [
        {
          "indexed": true,
          "internalType": "address",
          "name": "by",
          "type": "address"
        },
        {
          "indexed": true,
          "internalType": "address",
          "name": "from",
          "type": "address"
        },
        {
          "indexed": true,
          "internalType": "address",
          "name": "to",
          "type": "address"
        }
      ],
      "name": "MultiSigReplaceOwnerCall",
      "type": "event"
    },
    {
      "anonymous": false,
      "inputs": [
        {
          "indexed": true,
          "internalType": "address",
          "name": "from",
          "type": "address"
        },
        {
          "indexed": true,
          "internalType": "bytes4",
          "name": "selector",
          "type": "bytes4"
        },
        {
          "indexed": false,
          "internalType": "uint256",
          "name": "value",
          "type": "uint256"
        },
        {
          "indexed": false,
          "internalType": "bytes32",
          "name": "hashedData",
          "type": "bytes32"
        }
      ],
      "name": "MultiSigRequest",
      "type": "event"
    },
    {
      "anonymous": false,
      "inputs": [
        {
          "indexed": true,
          "internalType": "address",
          "name": "from",
          "type": "address"
        },
        {
          "indexed": false,
          "internalType": "uint256",
          "name": "value",
          "type": "uint256"
        }
      ],
      "name": "Received",
      "type": "event"
    },
    {
      "anonymous": false,
      "inputs": [
        {
          "indexed": true,
          "internalType": "address",
          "name": "to",
          "type": "address"
        },
        {
          "indexed": false,
          "internalType": "uint256",
          "name": "value",
          "type": "uint256"
        }
      ],
      "name": "Transfered",
      "type": "event"
    },
    {
      "stateMutability": "nonpayable",
      "type": "fallback"
    },
    {
      "inputs": [],
      "name": "cancel",
      "outputs": [],
      "stateMutability": "nonpayable",
      "type": "function"
    },
    {
      "inputs": [],
      "name": "isOwner",
      "outputs": [
        {
          "internalType": "bool",
          "name": "",
          "type": "bool"
        }
      ],
      "stateMutability": "view",
      "type": "function"
    },
    {
      "inputs": [
        {
          "internalType": "address",
          "name": "owner",
          "type": "address"
        },
        {
          "internalType": "address",
          "name": "newOwner",
          "type": "address"
        }
      ],
      "name": "replaceOwner",
      "outputs": [],
      "stateMutability": "nonpayable",
      "type": "function"
    },
    {
      "inputs": [],
      "name": "s_action",
      "outputs": [
        {
          "internalType": "address",
          "name": "owner",
          "type": "address"
        },
        {
          "internalType": "uint256",
          "name": "value",
          "type": "uint256"
        },
        {
          "internalType": "uint256",
          "name": "height",
          "type": "uint256"
        },
        {
          "internalType": "bytes32",
          "name": "data",
          "type": "bytes32"
        }
      ],
      "stateMutability": "view",
      "type": "function"
    },
    {
      "inputs": [
        {
          "internalType": "bytes",
          "name": "data",
          "type": "bytes"
        }
      ],
      "name": "sig",
      "outputs": [
        {
          "internalType": "bytes4",
          "name": "",
          "type": "bytes4"
        }
      ],
      "stateMutability": "pure",
      "type": "function"
    },
    {
      "stateMutability": "payable",
      "type": "receive"
    },
    {
      "inputs": [
        {
          "internalType": "address payable",
          "name": "to",
          "type": "address"
        },
        {
          "internalType": "uint256",
          "name": "value",
          "type": "uint256"
        }
      ],
      "name": "transferOwnEther_",
      "outputs": [],
      "stateMutability": "nonpayable",
      "type": "function"
    },
    {
      "inputs": [
        {
          "internalType": "bytes",
          "name": "bytecode",
          "type": "bytes"
        }
      ],
      "name": "deployContract_",
      "outputs": [
        {
          "internalType": "address",
          "name": "addr",
          "type": "address"
        }
      ],
      "stateMutability": "nonpayable",
      "type": "function"
    },
    {
      "inputs": [
        {
          "internalType": "bytes",
          "name": "bytecode",
          "type": "bytes"
        },
        {
          "internalType": "bytes32",
          "name": "salt",
          "type": "bytes32"
        }
      ],
      "name": "deployContract2_",
      "outputs": [
        {
          "internalType": "address",
          "name": "addr",
          "type": "address"
        }
      ],
      "stateMutability": "nonpayable",
      "type": "function"
    },
    {
      "inputs": [
        {
          "internalType": "address",
          "name": "target",
          "type": "address"
        }
      ],
      "name": "setOwnTarget_",
      "outputs": [],
      "stateMutability": "nonpayable",
      "type": "function"
    },
    {
      "inputs": [],
      "name": "getOwnTarget_",
      "outputs": [
        {
          "internalType": "address",
          "name": "",
          "type": "address"
        }
      ],
      "stateMutability": "view",
      "type": "function"
    }
  ],
  "bytecode": "0x60806040523480156200001157600080fd5b5060405162001c1b38038062001c1b833981810160405260608110156200003757600080fd5b50805160208201516040909201519091908282826001600160a01b038316620000a7576040805162461bcd60e51b815260206004820152601c60248201527f4d756c74695369673a206f776e6572312063616e6e6f74206265203000000000604482015290519081900360640190fd5b6001600160a01b03821662000103576040805162461bcd60e51b815260206004820152601c60248201527f4d756c74695369673a206f776e6572322063616e6e6f74206265203000000000604482015290519081900360640190fd5b6001600160a01b0381166200015f576040805162461bcd60e51b815260206004820152601c60248201527f4d756c74695369673a206f776e6572332063616e6e6f74206265203000000000604482015290519081900360640190fd5b816001600160a01b0316836001600160a01b03161415620001b25760405162461bcd60e51b815260040180806020018281038252602181526020018062001bd96021913960400191505060405180910390fd5b806001600160a01b0316826001600160a01b03161415620002055760405162461bcd60e51b815260040180806020018281038252602181526020018062001bb86021913960400191505060405180910390fd5b806001600160a01b0316836001600160a01b03161415620002585760405162461bcd60e51b815260040180806020018281038252602181526020018062001bfa6021913960400191505060405180910390fd5b6001600160a01b039283166000908152602081905260408082208054600160ff1991821681179092559486168352818320805486168217905592909416815292832080549092161790556119029350839250620002b69150396000f3fe6080604052600436106100955760003560e01c80638d101cfa116100595780638d101cfa146105ed5780638f32d59b14610628578063e20056e614610651578063e84bc4de1461068c578063ea8a1af0146106bf576100d2565b806327dcc4ef1461037557806327e3bb9b1461040f5780632d7d90e7146104e0578063477d8c74146104f55780635d2cf095146105a8576100d2565b366100d25760408051348152905133917f88a5966d370b9919b20f3e2c13ff65706f196a4e32cc2c12bf57088f88525874919081900360200190a2005b3480156100de57600080fd5b503360009081526020819052604081205460ff16801561010957506001546001600160a01b03163314155b6101445760405162461bcd60e51b815260040180806020018281038252603081526020018061176b6030913960400191505060405180910390fd5b60008036604051808383808284376040519201829003909120436004556002549095506001600160a01b0316151593506101df9250505057600280546001600160a01b03191633179055600581905560038290556101a36000366106d4565b604080518481526020810184905281516001600160e01b0319939093169233926000805160206117bd833981519152928290030190a350610372565b6002546001600160a01b03163314156102295760405162461bcd60e51b81526004018080602001828103825260268152602001806118a76026913960400191505060405180910390fd5b60035482146102695760405162461bcd60e51b815260040180806020018281038252602281526020018061179b6022913960400191505060405180910390fd5b60055481146102a95760405162461bcd60e51b81526004018080602001828103825260218152602001806118646021913960400191505060405180910390fd5b600280546001600160a01b03191690556102c46000366106d4565b604080518481526020810184905281516001600160e01b031993909316923392600080516020611819833981519152928290030190a36006546001600160a01b031661034b576040805162461bcd60e51b815260206004820152601160248201527015d85b1b195d0e881b9bc81d185c99d95d607a1b604482015290519081900360640190fd5b3660008037600080366000806006545af13d6000803e801561036c573d6000f35b503d6000fd5b50005b34801561038157600080fd5b506103f26004803603602081101561039857600080fd5b8101906020810181356401000000008111156103b357600080fd5b8201836020820111156103c557600080fd5b803590602001918460018302840111640100000000831117156103e757600080fd5b5090925090506106d4565b604080516001600160e01b03199092168252519081900360200190f35b34801561041b57600080fd5b506104c46004803603604081101561043257600080fd5b81019060208101813564010000000081111561044d57600080fd5b82018360208201111561045f57600080fd5b8035906020019184600183028401116401000000008311171561048157600080fd5b91908080601f0160208091040260200160405190810160405280939291908181526020018383808284376000920191909152509295505091359250610778915050565b604080516001600160a01b039092168252519081900360200190f35b3480156104ec57600080fd5b506104c4610a44565b34801561050157600080fd5b506104c46004803603602081101561051857600080fd5b81019060208101813564010000000081111561053357600080fd5b82018360208201111561054557600080fd5b8035906020019184600183028401116401000000008311171561056757600080fd5b91908080601f016020809104026020016040519081016040528093929190818152602001838380828437600092019190915250929550610a53945050505050565b3480156105b457600080fd5b506105bd610d1d565b604080516001600160a01b0390951685526020850193909352838301919091526060830152519081900360800190f35b3480156105f957600080fd5b506106266004803603604081101561061057600080fd5b506001600160a01b038135169060200135610d38565b005b34801561063457600080fd5b5061063d610fd0565b604080519115158252519081900360200190f35b34801561065d57600080fd5b506106266004803603604081101561067457600080fd5b506001600160a01b0381358116916020013516610fe6565b34801561069857600080fd5b50610626600480360360208110156106af57600080fd5b50356001600160a01b031661120a565b3480156106cb57600080fd5b50610626611447565b600060048210156106e757506000610772565b6018838360038181106106f657fe5b909101356001600160f81b03191690911c905060108484600281811061071857fe5b909101356001600160f81b03191690911c905060088585600181811061073a57fe5b909101356001600160f81b03191690911c9050858560008161075857fe5b9050013560f81c60f81b6001600160f81b03191617171790505b92915050565b33600090815260208190526040812054819060ff1680156107a457506001546001600160a01b03163314155b6107df5760405162461bcd60e51b815260040180806020018281038252603081526020018061176b6030913960400191505060405180910390fd5b60008036604051808383808284376040519201829003909120436004556002549095506001600160a01b03161515935061087a9250505057600280546001600160a01b031916331790556005819055600382905561083e6000366106d4565b604080518481526020810184905281516001600160e01b0319939093169233926000805160206117bd833981519152928290030190a350610a3d565b6002546001600160a01b03163314156108c45760405162461bcd60e51b81526004018080602001828103825260268152602001806118a76026913960400191505060405180910390fd5b60035482146109045760405162461bcd60e51b815260040180806020018281038252602281526020018061179b6022913960400191505060405180910390fd5b60055481146109445760405162461bcd60e51b81526004018080602001828103825260218152602001806118646021913960400191505060405180910390fd5b600280546001600160a01b031916905561095f6000366106d4565b604080518481526020810184905281516001600160e01b031993909316923392600080516020611819833981519152928290030190a384516109e8576040805162461bcd60e51b815260206004820152601f60248201527f57616c6c65743a2062797465636f6465206c656e677468206973207a65726f00604482015290519081900360640190fd5b838551602087016000f59250823b6109ff57600080fd5b604080516001600160a01b038516815290517f6b0b64cb715e4ac8b26124630e025cb11302d3a86c10a737be92f1c17b389c359181900360200190a1505b5092915050565b6006546001600160a01b031690565b33600090815260208190526040812054819060ff168015610a7f57506001546001600160a01b03163314155b610aba5760405162461bcd60e51b815260040180806020018281038252603081526020018061176b6030913960400191505060405180910390fd5b60008036604051808383808284376040519201829003909120436004556002549095506001600160a01b031615159350610b559250505057600280546001600160a01b0319163317905560058190556003829055610b196000366106d4565b604080518481526020810184905281516001600160e01b0319939093169233926000805160206117bd833981519152928290030190a350610d17565b6002546001600160a01b0316331415610b9f5760405162461bcd60e51b81526004018080602001828103825260268152602001806118a76026913960400191505060405180910390fd5b6003548214610bdf5760405162461bcd60e51b815260040180806020018281038252602281526020018061179b6022913960400191505060405180910390fd5b6005548114610c1f5760405162461bcd60e51b81526004018080602001828103825260218152602001806118646021913960400191505060405180910390fd5b600280546001600160a01b0319169055610c3a6000366106d4565b604080518481526020810184905281516001600160e01b031993909316923392600080516020611819833981519152928290030190a38351610cc3576040805162461bcd60e51b815260206004820152601f60248201527f57616c6c65743a2062797465636f6465206c656e677468206973207a65726f00604482015290519081900360640190fd5b8351602085016000f09250823b610cd957600080fd5b604080516001600160a01b038516815290517f8ffcdc15a283d706d38281f500270d8b5a656918f555de0913d7455e3e6bc1bf9181900360200190a1505b50919050565b6002546003546004546005546001600160a01b039093169284565b3360009081526020819052604081205460ff168015610d6257506001546001600160a01b03163314155b610d9d5760405162461bcd60e51b815260040180806020018281038252603081526020018061176b6030913960400191505060405180910390fd5b60008036604051808383808284376040519201829003909120436004556002549095506001600160a01b031615159350610e389250505057600280546001600160a01b0319163317905560058190556003829055610dfc6000366106d4565b604080518481526020810184905281516001600160e01b0319939093169233926000805160206117bd833981519152928290030190a350610fcb565b6002546001600160a01b0316331415610e825760405162461bcd60e51b81526004018080602001828103825260268152602001806118a76026913960400191505060405180910390fd5b6003548214610ec25760405162461bcd60e51b815260040180806020018281038252602281526020018061179b6022913960400191505060405180910390fd5b6005548114610f025760405162461bcd60e51b81526004018080602001828103825260218152602001806118646021913960400191505060405180910390fd5b600280546001600160a01b0319169055610f1d6000366106d4565b604080518481526020810184905281516001600160e01b031993909316923392600080516020611819833981519152928290030190a36040516001600160a01b0385169084156108fc029085906000818181858888f19350505050158015610f89573d6000803e3d6000fd5b506040805184815290516001600160a01b038616917f419013ffbfd3a7e95a13645088f1f9b8aff6057aaa2a840cc18ddbbec3d1677c919081900360200190a2505b505050565b3360009081526020819052604090205460ff1690565b6001600160a01b038216611041576040805162461bcd60e51b815260206004820152601b60248201527f4d756c74695369673a206f776e65722063616e6e6f7420626520300000000000604482015290519081900360640190fd5b6001600160a01b03811661109c576040805162461bcd60e51b815260206004820152601f60248201527f4d756c74695369673a206e6577204f776e65722063616e6e6f74206265203000604482015290519081900360640190fd5b6001600160a01b03821660009081526020819052604090205460ff16151560011461110e576040805162461bcd60e51b815260206004820152601a60248201527f4d756c74695369673a206f776e6572206d757374206578697374000000000000604482015290519081900360640190fd5b6001600160a01b0382163314156111565760405162461bcd60e51b815260040180806020018281038252602b815260200180611839602b913960400191505060405180910390fd5b6001600160a01b03811660009081526020819052604090205460ff16156111ae5760405162461bcd60e51b81526004018080602001828103825260228152602001806118856022913960400191505060405180910390fd5b600180546001600160a01b0319166001600160a01b038481169182179092556040519183169133907f3f83b5e276aedb8b7501b6812a09510fd4f92e3db05921939f715fbb980c67f290600090a4611206828261153e565b5050565b3360009081526020819052604081205460ff16801561123457506001546001600160a01b03163314155b61126f5760405162461bcd60e51b815260040180806020018281038252603081526020018061176b6030913960400191505060405180910390fd5b60008036604051808383808284376040519201829003909120436004556002549095506001600160a01b03161515935061130a9250505057600280546001600160a01b03191633179055600581905560038290556112ce6000366106d4565b604080518481526020810184905281516001600160e01b0319939093169233926000805160206117bd833981519152928290030190a350611206565b6002546001600160a01b03163314156113545760405162461bcd60e51b81526004018080602001828103825260268152602001806118a76026913960400191505060405180910390fd5b60035482146113945760405162461bcd60e51b815260040180806020018281038252602281526020018061179b6022913960400191505060405180910390fd5b60055481146113d45760405162461bcd60e51b81526004018080602001828103825260218152602001806118646021913960400191505060405180910390fd5b600280546001600160a01b03191690556113ef6000366106d4565b604080518481526020810184905281516001600160e01b031993909316923392600080516020611819833981519152928290030190a350600680546001600160a01b0384166001600160a01b03199091161790555050565b3360009081526020819052604090205460ff166114ab576040805162461bcd60e51b815260206004820181905260248201527f4d756c74695369673a206f6e6c79206f776e6572732063616e2063616e63656c604482015290519081900360640190fd5b6001546001600160a01b03163314156114f55760405162461bcd60e51b815260040180806020018281038252603c8152602001806117dd603c913960400191505060405180910390fd5b600280546001600160a01b031990811690915560018054909116905560405133907f30ec0961b65153901ed6dc5cfe8d736772c29b94b3024a497d0b3198dcbd317d90600090a2565b3360009081526020819052604081205460ff16801561156857506001546001600160a01b03163314155b6115a35760405162461bcd60e51b815260040180806020018281038252603081526020018061176b6030913960400191505060405180910390fd5b60008036604051808383808284376040519201829003909120436004556002549095506001600160a01b0316151593506116029250505057600280546001600160a01b0319163317905560058190556003829055610dfc6000366106d4565b6002546001600160a01b031633141561164c5760405162461bcd60e51b81526004018080602001828103825260268152602001806118a76026913960400191505060405180910390fd5b600354821461168c5760405162461bcd60e51b815260040180806020018281038252602281526020018061179b6022913960400191505060405180910390fd5b60055481146116cc5760405162461bcd60e51b81526004018080602001828103825260218152602001806118646021913960400191505060405180910390fd5b600280546001600160a01b03191690556116e76000366106d4565b604080518481526020810184905281516001600160e01b031993909316923392600080516020611819833981519152928290030190a3506001600160a01b03808416600090815260208190526040808220805460ff19908116909155928516825290208054909116600190811790915580546001600160a01b031916905550505056fe4d756c74695369673a206f6e6c79206f776e657273207468617420617265206e6f74206265696e672072656d6f7665644d756c74695369673a206d757374207369676e207468652073616d652076616c7565eeb0bd41c2b0ff931f981a964047b0a1a26ab644f801be86da62c770313f724f4d756c74695369673a206f6e6c79206f776e657273207468617420617265206e6f74206265696e67207265706c616365642063616e2063616e63656c0b5363f980745c7335c6e90cf3e542e8c9444d9fa5371ad688760cda3776539b4d756c74695369673a2073656e646572732063616e6e6f74207265706c616365207468656d73656c7665734d756c74695369673a206d757374207369676e207468652073616d6520646174614d756c74695369673a206e6577206f776e6572206d757374206e6f742065786973744d756c74695369673a2073616d65206f776e65722063616e6e6f74207369676e207477696365a26469706673582212207663903705ce8c1b854b4bb520d3573d2ed80e882df4ac71af2cc4440921060c64736f6c634300060c00334d756c74695369673a206f776e6572322063616e6e6f74206265206f776e6572334d756c74695369673a206f776e6572312063616e6e6f74206265206f776e6572324d756c74695369673a206f776e6572312063616e6e6f74206265206f776e657233",
  "immutableReferences": {},
  "source": "// SPDX-License-Identifier: GPL-3.0-or-later\n\npragma solidity 0.6.12;\n\nimport \"./MultiSig.sol\";\n\ncontract Wallet is MultiSig {\n    address s_target;\n\n    event Received(address indexed from, uint256 value);\n    event Transfered(address indexed to, uint256 value);\n    event ContractDeployed(address at);\n    event ContractDeployed2(address at);\n\n    constructor(address owner1, address owner2, address owner3)\n        MultiSig(owner1, owner2, owner3)\n        public\n    {\n    }\n\n    receive () external payable {\n        emit Received(msg.sender, msg.value);\n    }\n\n    fallback () external multiSig2of3(0) {\n        require(s_target != address(0), \"Wallet: no target\");\n\n        // solium-disable-next-line security/no-inline-assembly\n        assembly {\n            calldatacopy(0x00, 0x00, calldatasize())\n            let res := call(\n                gas(),\n                sload(s_target_slot),\n                0x00,\n                0x00,\n                calldatasize(),\n                0,\n                0\n            )\n            returndatacopy(0x00, 0x00, returndatasize())\n            if res { return(0x00, returndatasize()) }\n            revert(0x00, returndatasize())\n        }\n    }\n\n    function transferOwnEther_(address payable to, uint256 value) \n        external \n        multiSig2of3(0)\n    {\n        to.transfer(value);\n        emit Transfered(to, value);\n    }\n\n    function deployContract_(bytes memory bytecode) external multiSig2of3(0) returns (address addr) {\n        require(bytecode.length != 0, \"Wallet: bytecode length is zero\");\n        // solium-disable-next-line security/no-inline-assembly\n        assembly {\n            addr := create(0, add(bytecode, 0x20), mload(bytecode))\n            if iszero(extcodesize(addr)) { revert(0, 0) }\n        }\n        emit ContractDeployed(addr);\n    }\n\n    function deployContract2_(bytes memory bytecode, bytes32 salt) external multiSig2of3(0) returns (address addr) {\n        require(bytecode.length != 0, \"Wallet: bytecode length is zero\");\n        // solium-disable-next-line security/no-inline-assembly\n        assembly {\n            addr := create2(0, add(bytecode, 0x20), mload(bytecode), salt)\n            if iszero(extcodesize(addr)) { revert(0, 0) }\n        }\n        emit ContractDeployed2(addr);\n    }\n\n    function setOwnTarget_(address target) external multiSig2of3(0) {\n        s_target = target;\n    }\n\n    function getOwnTarget_() external view returns (address) {\n        return s_target;\n    }\n  \n}",
  "sourcePath": "/opt/storage/data1/code/kirobo/ki-eth-token/contracts/Wallet.sol",
  "compiler": {
    "name": "solc",
    "version": "0.6.12+commit.27d51765.Emscripten.clang"
  },
  "schemaVersion": "3.3.4",
  "updatedAt": "2021-07-01T17:25:12.990Z",
  "devdoc": {
    "kind": "dev",
    "methods": {},
    "version": 1
  },
  "userdoc": {
    "kind": "user",
    "methods": {},
    "version": 1
  }
}