{
  "contractName": "Wallet",
  "abi": [
    {
      "inputs": [
        {
          "internalType": "address",
          "name": "owner1",
          "type": "address"
        },
        {
          "internalType": "address",
          "name": "owner2",
          "type": "address"
        },
        {
          "internalType": "address",
          "name": "owner3",
          "type": "address"
        }
      ],
      "stateMutability": "nonpayable",
      "type": "constructor"
    },
    {
      "anonymous": false,
      "inputs": [
        {
          "indexed": false,
          "internalType": "address",
          "name": "c",
          "type": "address"
        }
      ],
      "name": "ContractDeployed",
      "type": "event"
    },
    {
      "anonymous": false,
      "inputs": [
        {
          "indexed": false,
          "internalType": "address",
          "name": "c",
          "type": "address"
        }
      ],
      "name": "ContractDeployed2",
      "type": "event"
    },
    {
      "anonymous": false,
      "inputs": [
        {
          "indexed": true,
          "internalType": "address",
          "name": "from",
          "type": "address"
        },
        {
          "indexed": false,
          "internalType": "uint256",
          "name": "value",
          "type": "uint256"
        }
      ],
      "name": "Received",
      "type": "event"
    },
    {
      "anonymous": false,
      "inputs": [
        {
          "indexed": true,
          "internalType": "address",
          "name": "to",
          "type": "address"
        },
        {
          "indexed": false,
          "internalType": "uint256",
          "name": "value",
          "type": "uint256"
        }
      ],
      "name": "Transfered",
      "type": "event"
    },
    {
      "stateMutability": "nonpayable",
      "type": "fallback"
    },
    {
      "inputs": [],
      "name": "cancel",
      "outputs": [],
      "stateMutability": "nonpayable",
      "type": "function"
    },
    {
      "inputs": [],
      "name": "isOwner",
      "outputs": [
        {
          "internalType": "bool",
          "name": "",
          "type": "bool"
        }
      ],
      "stateMutability": "view",
      "type": "function",
      "constant": true
    },
    {
      "inputs": [
        {
          "internalType": "address",
          "name": "owner",
          "type": "address"
        },
        {
          "internalType": "address",
          "name": "newOwner",
          "type": "address"
        }
      ],
      "name": "replaceOwner",
      "outputs": [],
      "stateMutability": "nonpayable",
      "type": "function"
    },
    {
      "stateMutability": "payable",
      "type": "receive",
      "payable": true
    },
    {
      "inputs": [
        {
          "internalType": "address payable",
          "name": "to",
          "type": "address"
        },
        {
          "internalType": "uint256",
          "name": "value",
          "type": "uint256"
        }
      ],
      "name": "transferOwnEther_",
      "outputs": [],
      "stateMutability": "nonpayable",
      "type": "function"
    },
    {
      "inputs": [
        {
          "internalType": "bytes",
          "name": "bytecode",
          "type": "bytes"
        }
      ],
      "name": "deployContract_",
      "outputs": [
        {
          "internalType": "address",
          "name": "addr",
          "type": "address"
        }
      ],
      "stateMutability": "nonpayable",
      "type": "function"
    },
    {
      "inputs": [
        {
          "internalType": "bytes",
          "name": "bytecode",
          "type": "bytes"
        },
        {
          "internalType": "bytes32",
          "name": "salt",
          "type": "bytes32"
        }
      ],
      "name": "deployContract2_",
      "outputs": [
        {
          "internalType": "address",
          "name": "addr",
          "type": "address"
        }
      ],
      "stateMutability": "nonpayable",
      "type": "function"
    },
    {
      "inputs": [
        {
          "internalType": "address",
          "name": "target",
          "type": "address"
        }
      ],
      "name": "setOwnTarget_",
      "outputs": [],
      "stateMutability": "nonpayable",
      "type": "function"
    },
    {
      "inputs": [],
      "name": "getOwnTarget_",
      "outputs": [
        {
          "internalType": "address",
          "name": "",
          "type": "address"
        }
      ],
      "stateMutability": "view",
      "type": "function",
      "constant": true
    }
  ],
  "bytecode": "0x60806040523480156200001157600080fd5b5060405162002bbb38038062002bbb833981810160405260608110156200003757600080fd5b81019080805190602001909291908051906020019092919080519060200190929190505050828282600073ffffffffffffffffffffffffffffffffffffffff168373ffffffffffffffffffffffffffffffffffffffff16141562000103576040517f08c379a00000000000000000000000000000000000000000000000000000000081526004018080602001828103825260128152602001807f6f776e6572312063616e6e6f742062652030000000000000000000000000000081525060200191505060405180910390fd5b600073ffffffffffffffffffffffffffffffffffffffff168273ffffffffffffffffffffffffffffffffffffffff161415620001a7576040517f08c379a00000000000000000000000000000000000000000000000000000000081526004018080602001828103825260128152602001807f6f776e6572322063616e6e6f742062652030000000000000000000000000000081525060200191505060405180910390fd5b600073ffffffffffffffffffffffffffffffffffffffff168173ffffffffffffffffffffffffffffffffffffffff1614156200024b576040517f08c379a00000000000000000000000000000000000000000000000000000000081526004018080602001828103825260128152602001807f6f776e6572332063616e6e6f742062652030000000000000000000000000000081525060200191505060405180910390fd5b8173ffffffffffffffffffffffffffffffffffffffff168373ffffffffffffffffffffffffffffffffffffffff161415620002ee576040517f08c379a00000000000000000000000000000000000000000000000000000000081526004018080602001828103825260178152602001807f6f776e6572312063616e6e6f74206265206f776e65723200000000000000000081525060200191505060405180910390fd5b8073ffffffffffffffffffffffffffffffffffffffff168273ffffffffffffffffffffffffffffffffffffffff16141562000391576040517f08c379a00000000000000000000000000000000000000000000000000000000081526004018080602001828103825260178152602001807f6f776e6572322063616e6e6f74206265206f776e65723300000000000000000081525060200191505060405180910390fd5b8073ffffffffffffffffffffffffffffffffffffffff168373ffffffffffffffffffffffffffffffffffffffff16141562000434576040517f08c379a00000000000000000000000000000000000000000000000000000000081526004018080602001828103825260178152602001807f6f776e6572312063616e6e6f74206265206f776e65723300000000000000000081525060200191505060405180910390fd5b60016000808573ffffffffffffffffffffffffffffffffffffffff1673ffffffffffffffffffffffffffffffffffffffff16815260200190815260200160002060006101000a81548160ff02191690831515021790555060016000808473ffffffffffffffffffffffffffffffffffffffff1673ffffffffffffffffffffffffffffffffffffffff16815260200190815260200160002060006101000a81548160ff02191690831515021790555060016000808373ffffffffffffffffffffffffffffffffffffffff1673ffffffffffffffffffffffffffffffffffffffff16815260200190815260200160002060006101000a81548160ff02191690831515021790555050505050505061266c806200054f6000396000f3fe60806040526004361061007f5760003560e01c80638f32d59b1161004e5780638f32d59b14610849578063e20056e614610876578063e84bc4de146108e7578063ea8a1af014610938576100d4565b806327e3bb9b146105bf5780632d7d90e7146106bb578063477d8c74146106fc5780638d101cfa146107ee576100d4565b366100d4573373ffffffffffffffffffffffffffffffffffffffff167f88a5966d370b9919b20f3e2c13ff65706f196a4e32cc2c12bf57088f88525874346040518082815260200191505060405180910390a2005b3480156100e057600080fd5b5060008060003373ffffffffffffffffffffffffffffffffffffffff1673ffffffffffffffffffffffffffffffffffffffff16815260200190815260200160002060009054906101000a900460ff1680156101895750600160009054906101000a900473ffffffffffffffffffffffffffffffffffffffff1673ffffffffffffffffffffffffffffffffffffffff163373ffffffffffffffffffffffffffffffffffffffff1614155b6101de576040517f08c379a00000000000000000000000000000000000000000000000000000000081526004018080602001828103825260268152602001806125be6026913960400191505060405180910390fd5b600073ffffffffffffffffffffffffffffffffffffffff16600260000160009054906101000a900473ffffffffffffffffffffffffffffffffffffffff1673ffffffffffffffffffffffffffffffffffffffff1614156102b35733600260000160006101000a81548173ffffffffffffffffffffffffffffffffffffffff021916908373ffffffffffffffffffffffffffffffffffffffff16021790555060003660405180838380828437808301925050509250505060405180910390206002800181905550806002600101819055506105bc565b3373ffffffffffffffffffffffffffffffffffffffff16600260000160009054906101000a900473ffffffffffffffffffffffffffffffffffffffff1673ffffffffffffffffffffffffffffffffffffffff16141561037a576040517f08c379a000000000000000000000000000000000000000000000000000000000815260040180806020018281038252601c8152602001807f73616d65206f776e65722063616e6e6f74207369676e2074776963650000000081525060200191505060405180910390fd5b80600260010154146103f4576040517f08c379a00000000000000000000000000000000000000000000000000000000081526004018080602001828103825260188152602001807f6d757374207369676e207468652073616d652076616c7565000000000000000081525060200191505060405180910390fd5b600036604051808383808284378083019250505092505050604051809103902060028001541461048c576040517f08c379a00000000000000000000000000000000000000000000000000000000081526004018080602001828103825260178152602001807f6d757374207369676e207468652073616d65206461746100000000000000000081525060200191505060405180910390fd5b6000600260000160006101000a81548173ffffffffffffffffffffffffffffffffffffffff021916908373ffffffffffffffffffffffffffffffffffffffff160217905550600073ffffffffffffffffffffffffffffffffffffffff16600560009054906101000a900473ffffffffffffffffffffffffffffffffffffffff1673ffffffffffffffffffffffffffffffffffffffff161415610596576040517f08c379a00000000000000000000000000000000000000000000000000000000081526004018080602001828103825260098152602001807f6e6f20746172676574000000000000000000000000000000000000000000000081525060200191505060405180910390fd5b3660008037600080366000346005545af13d6000803e80156105b7573d6000f35b3d6000fd5b50005b3480156105cb57600080fd5b5061068f600480360360408110156105e257600080fd5b81019080803590602001906401000000008111156105ff57600080fd5b82018360208201111561061157600080fd5b8035906020019184600183028401116401000000008311171561063357600080fd5b91908080601f016020809104026020016040519081016040528093929190818152602001838380828437600081840152601f19601f8201169050808301925050505050505091929192908035906020019092919050505061094f565b604051808273ffffffffffffffffffffffffffffffffffffffff16815260200191505060405180910390f35b3480156106c757600080fd5b506106d0610dac565b604051808273ffffffffffffffffffffffffffffffffffffffff16815260200191505060405180910390f35b34801561070857600080fd5b506107c26004803603602081101561071f57600080fd5b810190808035906020019064010000000081111561073c57600080fd5b82018360208201111561074e57600080fd5b8035906020019184600183028401116401000000008311171561077057600080fd5b91908080601f016020809104026020016040519081016040528093929190818152602001838380828437600081840152601f19601f820116905080830192505050505050509192919290505050610dd6565b604051808273ffffffffffffffffffffffffffffffffffffffff16815260200191505060405180910390f35b3480156107fa57600080fd5b506108476004803603604081101561081157600080fd5b81019080803573ffffffffffffffffffffffffffffffffffffffff16906020019092919080359060200190929190505050611231565b005b34801561085557600080fd5b5061085e6116bc565b60405180821515815260200191505060405180910390f35b34801561088257600080fd5b506108e56004803603604081101561089957600080fd5b81019080803573ffffffffffffffffffffffffffffffffffffffff169060200190929190803573ffffffffffffffffffffffffffffffffffffffff16906020019092919050505061170f565b005b3480156108f357600080fd5b506109366004803603602081101561090a57600080fd5b81019080803573ffffffffffffffffffffffffffffffffffffffff169060200190929190505050611ab3565b005b34801561094457600080fd5b5061094d611ee9565b005b6000806000803373ffffffffffffffffffffffffffffffffffffffff1673ffffffffffffffffffffffffffffffffffffffff16815260200190815260200160002060009054906101000a900460ff1680156109f85750600160009054906101000a900473ffffffffffffffffffffffffffffffffffffffff1673ffffffffffffffffffffffffffffffffffffffff163373ffffffffffffffffffffffffffffffffffffffff1614155b610a4d576040517f08c379a00000000000000000000000000000000000000000000000000000000081526004018080602001828103825260268152602001806125be6026913960400191505060405180910390fd5b600073ffffffffffffffffffffffffffffffffffffffff16600260000160009054906101000a900473ffffffffffffffffffffffffffffffffffffffff1673ffffffffffffffffffffffffffffffffffffffff161415610b225733600260000160006101000a81548173ffffffffffffffffffffffffffffffffffffffff021916908373ffffffffffffffffffffffffffffffffffffffff1602179055506000366040518083838082843780830192505050925050506040518091039020600280018190555080600260010181905550610da5565b3373ffffffffffffffffffffffffffffffffffffffff16600260000160009054906101000a900473ffffffffffffffffffffffffffffffffffffffff1673ffffffffffffffffffffffffffffffffffffffff161415610be9576040517f08c379a000000000000000000000000000000000000000000000000000000000815260040180806020018281038252601c8152602001807f73616d65206f776e65722063616e6e6f74207369676e2074776963650000000081525060200191505060405180910390fd5b8060026001015414610c63576040517f08c379a00000000000000000000000000000000000000000000000000000000081526004018080602001828103825260188152602001807f6d757374207369676e207468652073616d652076616c7565000000000000000081525060200191505060405180910390fd5b6000366040518083838082843780830192505050925050506040518091039020600280015414610cfb576040517f08c379a00000000000000000000000000000000000000000000000000000000081526004018080602001828103825260178152602001807f6d757374207369676e207468652073616d65206461746100000000000000000081525060200191505060405180910390fd5b6000600260000160006101000a81548173ffffffffffffffffffffffffffffffffffffffff021916908373ffffffffffffffffffffffffffffffffffffffff160217905550828451602086016000f59150813b610d5757600080fd5b7f6b0b64cb715e4ac8b26124630e025cb11302d3a86c10a737be92f1c17b389c3582604051808273ffffffffffffffffffffffffffffffffffffffff16815260200191505060405180910390a15b5092915050565b6000600560009054906101000a900473ffffffffffffffffffffffffffffffffffffffff16905090565b6000806000803373ffffffffffffffffffffffffffffffffffffffff1673ffffffffffffffffffffffffffffffffffffffff16815260200190815260200160002060009054906101000a900460ff168015610e7f5750600160009054906101000a900473ffffffffffffffffffffffffffffffffffffffff1673ffffffffffffffffffffffffffffffffffffffff163373ffffffffffffffffffffffffffffffffffffffff1614155b610ed4576040517f08c379a00000000000000000000000000000000000000000000000000000000081526004018080602001828103825260268152602001806125be6026913960400191505060405180910390fd5b600073ffffffffffffffffffffffffffffffffffffffff16600260000160009054906101000a900473ffffffffffffffffffffffffffffffffffffffff1673ffffffffffffffffffffffffffffffffffffffff161415610fa95733600260000160006101000a81548173ffffffffffffffffffffffffffffffffffffffff021916908373ffffffffffffffffffffffffffffffffffffffff160217905550600036604051808383808284378083019250505092505050604051809103902060028001819055508060026001018190555061122b565b3373ffffffffffffffffffffffffffffffffffffffff16600260000160009054906101000a900473ffffffffffffffffffffffffffffffffffffffff1673ffffffffffffffffffffffffffffffffffffffff161415611070576040517f08c379a000000000000000000000000000000000000000000000000000000000815260040180806020018281038252601c8152602001807f73616d65206f776e65722063616e6e6f74207369676e2074776963650000000081525060200191505060405180910390fd5b80600260010154146110ea576040517f08c379a00000000000000000000000000000000000000000000000000000000081526004018080602001828103825260188152602001807f6d757374207369676e207468652073616d652076616c7565000000000000000081525060200191505060405180910390fd5b6000366040518083838082843780830192505050925050506040518091039020600280015414611182576040517f08c379a00000000000000000000000000000000000000000000000000000000081526004018080602001828103825260178152602001807f6d757374207369676e207468652073616d65206461746100000000000000000081525060200191505060405180910390fd5b6000600260000160006101000a81548173ffffffffffffffffffffffffffffffffffffffff021916908373ffffffffffffffffffffffffffffffffffffffff1602179055508251602084016000f09150813b6111dd57600080fd5b7f8ffcdc15a283d706d38281f500270d8b5a656918f555de0913d7455e3e6bc1bf82604051808273ffffffffffffffffffffffffffffffffffffffff16815260200191505060405180910390a15b50919050565b60008060003373ffffffffffffffffffffffffffffffffffffffff1673ffffffffffffffffffffffffffffffffffffffff16815260200190815260200160002060009054906101000a900460ff1680156112d95750600160009054906101000a900473ffffffffffffffffffffffffffffffffffffffff1673ffffffffffffffffffffffffffffffffffffffff163373ffffffffffffffffffffffffffffffffffffffff1614155b61132e576040517f08c379a00000000000000000000000000000000000000000000000000000000081526004018080602001828103825260268152602001806125be6026913960400191505060405180910390fd5b600073ffffffffffffffffffffffffffffffffffffffff16600260000160009054906101000a900473ffffffffffffffffffffffffffffffffffffffff1673ffffffffffffffffffffffffffffffffffffffff1614156114035733600260000160006101000a81548173ffffffffffffffffffffffffffffffffffffffff021916908373ffffffffffffffffffffffffffffffffffffffff16021790555060003660405180838380828437808301925050509250505060405180910390206002800181905550806002600101819055506116b7565b3373ffffffffffffffffffffffffffffffffffffffff16600260000160009054906101000a900473ffffffffffffffffffffffffffffffffffffffff1673ffffffffffffffffffffffffffffffffffffffff1614156114ca576040517f08c379a000000000000000000000000000000000000000000000000000000000815260040180806020018281038252601c8152602001807f73616d65206f776e65722063616e6e6f74207369676e2074776963650000000081525060200191505060405180910390fd5b8060026001015414611544576040517f08c379a00000000000000000000000000000000000000000000000000000000081526004018080602001828103825260188152602001807f6d757374207369676e207468652073616d652076616c7565000000000000000081525060200191505060405180910390fd5b60003660405180838380828437808301925050509250505060405180910390206002800154146115dc576040517f08c379a00000000000000000000000000000000000000000000000000000000081526004018080602001828103825260178152602001807f6d757374207369676e207468652073616d65206461746100000000000000000081525060200191505060405180910390fd5b6000600260000160006101000a81548173ffffffffffffffffffffffffffffffffffffffff021916908373ffffffffffffffffffffffffffffffffffffffff1602179055508273ffffffffffffffffffffffffffffffffffffffff166108fc839081150290604051600060405180830381858888f19350505050158015611667573d6000803e3d6000fd5b508273ffffffffffffffffffffffffffffffffffffffff167f419013ffbfd3a7e95a13645088f1f9b8aff6057aaa2a840cc18ddbbec3d1677c836040518082815260200191505060405180910390a25b505050565b60008060003373ffffffffffffffffffffffffffffffffffffffff1673ffffffffffffffffffffffffffffffffffffffff16815260200190815260200160002060009054906101000a900460ff16905090565b600073ffffffffffffffffffffffffffffffffffffffff168273ffffffffffffffffffffffffffffffffffffffff1614156117b2576040517f08c379a00000000000000000000000000000000000000000000000000000000081526004018080602001828103825260118152602001807f6f776e65722063616e6e6f74206265203000000000000000000000000000000081525060200191505060405180910390fd5b600073ffffffffffffffffffffffffffffffffffffffff168173ffffffffffffffffffffffffffffffffffffffff161415611855576040517f08c379a00000000000000000000000000000000000000000000000000000000081526004018080602001828103825260158152602001807f6e6577204f776e65722063616e6e6f742062652030000000000000000000000081525060200191505060405180910390fd5b600115156000808473ffffffffffffffffffffffffffffffffffffffff1673ffffffffffffffffffffffffffffffffffffffff16815260200190815260200160002060009054906101000a900460ff1615151461191a576040517f08c379a00000000000000000000000000000000000000000000000000000000081526004018080602001828103825260108152602001807f6f776e6572206d7573742065786973740000000000000000000000000000000081525060200191505060405180910390fd5b3373ffffffffffffffffffffffffffffffffffffffff168273ffffffffffffffffffffffffffffffffffffffff16141561199f576040517f08c379a00000000000000000000000000000000000000000000000000000000081526004018080602001828103825260218152602001806126166021913960400191505060405180910390fd5b600015156000808373ffffffffffffffffffffffffffffffffffffffff1673ffffffffffffffffffffffffffffffffffffffff16815260200190815260200160002060009054906101000a900460ff16151514611a64576040517f08c379a00000000000000000000000000000000000000000000000000000000081526004018080602001828103825260188152602001807f6e6577206f776e6572206d757374206e6f74206578697374000000000000000081525060200191505060405180910390fd5b81600160006101000a81548173ffffffffffffffffffffffffffffffffffffffff021916908373ffffffffffffffffffffffffffffffffffffffff160217905550611aaf82826120d7565b5050565b60008060003373ffffffffffffffffffffffffffffffffffffffff1673ffffffffffffffffffffffffffffffffffffffff16815260200190815260200160002060009054906101000a900460ff168015611b5b5750600160009054906101000a900473ffffffffffffffffffffffffffffffffffffffff1673ffffffffffffffffffffffffffffffffffffffff163373ffffffffffffffffffffffffffffffffffffffff1614155b611bb0576040517f08c379a00000000000000000000000000000000000000000000000000000000081526004018080602001828103825260268152602001806125be6026913960400191505060405180910390fd5b600073ffffffffffffffffffffffffffffffffffffffff16600260000160009054906101000a900473ffffffffffffffffffffffffffffffffffffffff1673ffffffffffffffffffffffffffffffffffffffff161415611c855733600260000160006101000a81548173ffffffffffffffffffffffffffffffffffffffff021916908373ffffffffffffffffffffffffffffffffffffffff1602179055506000366040518083838082843780830192505050925050506040518091039020600280018190555080600260010181905550611ee5565b3373ffffffffffffffffffffffffffffffffffffffff16600260000160009054906101000a900473ffffffffffffffffffffffffffffffffffffffff1673ffffffffffffffffffffffffffffffffffffffff161415611d4c576040517f08c379a000000000000000000000000000000000000000000000000000000000815260040180806020018281038252601c8152602001807f73616d65206f776e65722063616e6e6f74207369676e2074776963650000000081525060200191505060405180910390fd5b8060026001015414611dc6576040517f08c379a00000000000000000000000000000000000000000000000000000000081526004018080602001828103825260188152602001807f6d757374207369676e207468652073616d652076616c7565000000000000000081525060200191505060405180910390fd5b6000366040518083838082843780830192505050925050506040518091039020600280015414611e5e576040517f08c379a00000000000000000000000000000000000000000000000000000000081526004018080602001828103825260178152602001807f6d757374207369676e207468652073616d65206461746100000000000000000081525060200191505060405180910390fd5b6000600260000160006101000a81548173ffffffffffffffffffffffffffffffffffffffff021916908373ffffffffffffffffffffffffffffffffffffffff16021790555081600560006101000a81548173ffffffffffffffffffffffffffffffffffffffff021916908373ffffffffffffffffffffffffffffffffffffffff1602179055505b5050565b6000803373ffffffffffffffffffffffffffffffffffffffff1673ffffffffffffffffffffffffffffffffffffffff16815260200190815260200160002060009054906101000a900460ff16611fa7576040517f08c379a00000000000000000000000000000000000000000000000000000000081526004018080602001828103825260168152602001807f6f6e6c79206f776e6572732063616e2063616e63656c0000000000000000000081525060200191505060405180910390fd5b3373ffffffffffffffffffffffffffffffffffffffff16600160009054906101000a900473ffffffffffffffffffffffffffffffffffffffff1673ffffffffffffffffffffffffffffffffffffffff16141561204e576040517f08c379a00000000000000000000000000000000000000000000000000000000081526004018080602001828103825260328152602001806125e46032913960400191505060405180910390fd5b6000600260000160006101000a81548173ffffffffffffffffffffffffffffffffffffffff021916908373ffffffffffffffffffffffffffffffffffffffff1602179055506000600160006101000a81548173ffffffffffffffffffffffffffffffffffffffff021916908373ffffffffffffffffffffffffffffffffffffffff160217905550565b60008060003373ffffffffffffffffffffffffffffffffffffffff1673ffffffffffffffffffffffffffffffffffffffff16815260200190815260200160002060009054906101000a900460ff16801561217f5750600160009054906101000a900473ffffffffffffffffffffffffffffffffffffffff1673ffffffffffffffffffffffffffffffffffffffff163373ffffffffffffffffffffffffffffffffffffffff1614155b6121d4576040517f08c379a00000000000000000000000000000000000000000000000000000000081526004018080602001828103825260268152602001806125be6026913960400191505060405180910390fd5b600073ffffffffffffffffffffffffffffffffffffffff16600260000160009054906101000a900473ffffffffffffffffffffffffffffffffffffffff1673ffffffffffffffffffffffffffffffffffffffff1614156122a95733600260000160006101000a81548173ffffffffffffffffffffffffffffffffffffffff021916908373ffffffffffffffffffffffffffffffffffffffff16021790555060003660405180838380828437808301925050509250505060405180910390206002800181905550806002600101819055506125b8565b3373ffffffffffffffffffffffffffffffffffffffff16600260000160009054906101000a900473ffffffffffffffffffffffffffffffffffffffff1673ffffffffffffffffffffffffffffffffffffffff161415612370576040517f08c379a000000000000000000000000000000000000000000000000000000000815260040180806020018281038252601c8152602001807f73616d65206f776e65722063616e6e6f74207369676e2074776963650000000081525060200191505060405180910390fd5b80600260010154146123ea576040517f08c379a00000000000000000000000000000000000000000000000000000000081526004018080602001828103825260188152602001807f6d757374207369676e207468652073616d652076616c7565000000000000000081525060200191505060405180910390fd5b6000366040518083838082843780830192505050925050506040518091039020600280015414612482576040517f08c379a00000000000000000000000000000000000000000000000000000000081526004018080602001828103825260178152602001807f6d757374207369676e207468652073616d65206461746100000000000000000081525060200191505060405180910390fd5b6000600260000160006101000a81548173ffffffffffffffffffffffffffffffffffffffff021916908373ffffffffffffffffffffffffffffffffffffffff16021790555060008060008573ffffffffffffffffffffffffffffffffffffffff1673ffffffffffffffffffffffffffffffffffffffff16815260200190815260200160002060006101000a81548160ff02191690831515021790555060016000808473ffffffffffffffffffffffffffffffffffffffff1673ffffffffffffffffffffffffffffffffffffffff16815260200190815260200160002060006101000a81548160ff0219169083151502179055506000600160006101000a81548173ffffffffffffffffffffffffffffffffffffffff021916908373ffffffffffffffffffffffffffffffffffffffff1602179055505b50505056fe6f6e6c79206f776e657273207468617420617265206e6f74206265696e672072656d6f7665646f6e6c79206f776e657273207468617420617265206e6f74206265696e67207265706c616365642063616e2063616e63656c73656e646572732063616e6e6f74207265706c616365207468656d73656c766573a264697066735822122017d566a0698a38f79f869755cb7fdae9b9bc00a1527052c621d578c330d1d79964736f6c634300060c0033",
  "immutableReferences": {},
  "source": "// SPDX-License-Identifier: GPL-3.0-or-later\n\npragma solidity 0.6.12;\n\nimport \"./MultiSig.sol\";\n\ncontract Wallet is MultiSig {\n    address s_target;\n\n    event Received(address indexed from, uint256 value);\n    event Transfered(address indexed to, uint256 value);\n    event ContractDeployed(address c);\n    event ContractDeployed2(address c);\n\n    constructor(address owner1, address owner2, address owner3)\n        MultiSig(owner1, owner2, owner3)\n        public\n    {\n    }\n\n    receive () external payable {\n        emit Received(msg.sender, msg.value);\n    }\n\n    fallback () external multiSig2of3(0) {\n        require(s_target != address(0), \"no target\");\n\n        // solium-disable-next-line security/no-inline-assembly\n        assembly {\n            calldatacopy(0x00, 0x00, calldatasize())\n            let res := call(\n                gas(),\n                sload(s_target_slot),\n                callvalue(),\n                0x00,\n                calldatasize(),\n                0,\n                0\n            )\n            returndatacopy(0x00, 0x00, returndatasize())\n            if res { return(0x00, returndatasize()) }\n            revert(0x00, returndatasize())\n        }\n    }\n\n    function transferOwnEther_(address payable to, uint256 value) \n        external \n        multiSig2of3(0)\n    {\n        to.transfer(value);\n        emit Transfered(to, value);\n    }\n\n    function deployContract_(bytes memory bytecode) external multiSig2of3(0) returns (address addr) {\n        // solium-disable-next-line security/no-inline-assembly\n         assembly {\n             addr := create(0, add(bytecode, 0x20), mload(bytecode))\n             if iszero(extcodesize(addr)) { revert(0, 0) }\n         }\n         emit ContractDeployed(addr);\n    }\n\n    function deployContract2_(bytes memory bytecode, bytes32 salt) external multiSig2of3(0) returns (address addr) {\n        // solium-disable-next-line security/no-inline-assembly\n         assembly {\n             addr := create2(0, add(bytecode, 0x20), mload(bytecode), salt)\n             if iszero(extcodesize(addr)) { revert(0, 0) }\n         }\n         emit ContractDeployed2(addr);\n    }\n\n    function setOwnTarget_(address target) external multiSig2of3(0) {\n        s_target = target;\n    }\n\n    function getOwnTarget_() external view returns (address) {\n        return s_target;\n    }\n  \n}",
  "sourcePath": "/Users/Tal/code/kirobo/ki-eth-token/contracts/Wallet.sol",
  "compiler": {
    "name": "solc",
    "version": "0.6.12+commit.27d51765.Emscripten.clang"
  },
  "schemaVersion": "3.2.0",
  "updatedAt": "2020-08-30T00:36:57.455Z",
  "networkType": "ethereum",
  "devdoc": {
    "kind": "dev",
    "methods": {},
    "version": 1
  },
  "userdoc": {
    "kind": "user",
    "methods": {},
    "version": 1
  }
}