{
  "contractName": "Wallet",
  "abi": [
    {
      "inputs": [
        {
          "internalType": "address",
          "name": "owner1",
          "type": "address"
        },
        {
          "internalType": "address",
          "name": "owner2",
          "type": "address"
        },
        {
          "internalType": "address",
          "name": "owner3",
          "type": "address"
        }
      ],
      "stateMutability": "nonpayable",
      "type": "constructor"
    },
    {
      "anonymous": false,
      "inputs": [
        {
          "indexed": false,
          "internalType": "address",
          "name": "at",
          "type": "address"
        }
      ],
      "name": "ContractDeployed",
      "type": "event"
    },
    {
      "anonymous": false,
      "inputs": [
        {
          "indexed": false,
          "internalType": "address",
          "name": "at",
          "type": "address"
        }
      ],
      "name": "ContractDeployed2",
      "type": "event"
    },
    {
      "anonymous": false,
      "inputs": [
        {
          "indexed": true,
          "internalType": "address",
          "name": "from",
          "type": "address"
        }
      ],
      "name": "MultiSigCancel",
      "type": "event"
    },
    {
      "anonymous": false,
      "inputs": [
        {
          "indexed": true,
          "internalType": "address",
          "name": "from",
          "type": "address"
        },
        {
          "indexed": true,
          "internalType": "bytes4",
          "name": "selector",
          "type": "bytes4"
        },
        {
          "indexed": false,
          "internalType": "uint256",
          "name": "value",
          "type": "uint256"
        },
        {
          "indexed": false,
          "internalType": "bytes32",
          "name": "hashedData",
          "type": "bytes32"
        }
      ],
      "name": "MultiSigExecute",
      "type": "event"
    },
    {
      "anonymous": false,
      "inputs": [
        {
          "indexed": true,
          "internalType": "address",
          "name": "by",
          "type": "address"
        },
        {
          "indexed": true,
          "internalType": "address",
          "name": "from",
          "type": "address"
        },
        {
          "indexed": true,
          "internalType": "address",
          "name": "to",
          "type": "address"
        }
      ],
      "name": "MultiSigReplaceOwnerCall",
      "type": "event"
    },
    {
      "anonymous": false,
      "inputs": [
        {
          "indexed": true,
          "internalType": "address",
          "name": "from",
          "type": "address"
        },
        {
          "indexed": true,
          "internalType": "bytes4",
          "name": "selector",
          "type": "bytes4"
        },
        {
          "indexed": false,
          "internalType": "uint256",
          "name": "value",
          "type": "uint256"
        },
        {
          "indexed": false,
          "internalType": "bytes32",
          "name": "hashedData",
          "type": "bytes32"
        }
      ],
      "name": "MultiSigRequest",
      "type": "event"
    },
    {
      "anonymous": false,
      "inputs": [
        {
          "indexed": true,
          "internalType": "address",
          "name": "from",
          "type": "address"
        },
        {
          "indexed": false,
          "internalType": "uint256",
          "name": "value",
          "type": "uint256"
        }
      ],
      "name": "Received",
      "type": "event"
    },
    {
      "anonymous": false,
      "inputs": [
        {
          "indexed": true,
          "internalType": "address",
          "name": "to",
          "type": "address"
        },
        {
          "indexed": false,
          "internalType": "uint256",
          "name": "value",
          "type": "uint256"
        }
      ],
      "name": "Transfered",
      "type": "event"
    },
    {
      "stateMutability": "nonpayable",
      "type": "fallback"
    },
    {
      "inputs": [],
      "name": "cancel",
      "outputs": [],
      "stateMutability": "nonpayable",
      "type": "function"
    },
    {
      "inputs": [],
      "name": "isOwner",
      "outputs": [
        {
          "internalType": "bool",
          "name": "",
          "type": "bool"
        }
      ],
      "stateMutability": "view",
      "type": "function"
    },
    {
      "inputs": [
        {
          "internalType": "address",
          "name": "owner",
          "type": "address"
        },
        {
          "internalType": "address",
          "name": "newOwner",
          "type": "address"
        }
      ],
      "name": "replaceOwner",
      "outputs": [],
      "stateMutability": "nonpayable",
      "type": "function"
    },
    {
      "inputs": [],
      "name": "s_action",
      "outputs": [
        {
          "internalType": "address",
          "name": "owner",
          "type": "address"
        },
        {
          "internalType": "uint256",
          "name": "value",
          "type": "uint256"
        },
        {
          "internalType": "uint256",
          "name": "height",
          "type": "uint256"
        },
        {
          "internalType": "bytes32",
          "name": "data",
          "type": "bytes32"
        }
      ],
      "stateMutability": "view",
      "type": "function"
    },
    {
      "inputs": [
        {
          "internalType": "bytes",
          "name": "data",
          "type": "bytes"
        }
      ],
      "name": "sig",
      "outputs": [
        {
          "internalType": "bytes4",
          "name": "",
          "type": "bytes4"
        }
      ],
      "stateMutability": "pure",
      "type": "function"
    },
    {
      "stateMutability": "payable",
      "type": "receive"
    },
    {
      "inputs": [
        {
          "internalType": "address payable",
          "name": "to",
          "type": "address"
        },
        {
          "internalType": "uint256",
          "name": "value",
          "type": "uint256"
        }
      ],
      "name": "transferOwnEther_",
      "outputs": [],
      "stateMutability": "nonpayable",
      "type": "function"
    },
    {
      "inputs": [
        {
          "internalType": "bytes",
          "name": "bytecode",
          "type": "bytes"
        }
      ],
      "name": "deployContract_",
      "outputs": [
        {
          "internalType": "address",
          "name": "addr",
          "type": "address"
        }
      ],
      "stateMutability": "nonpayable",
      "type": "function"
    },
    {
      "inputs": [
        {
          "internalType": "bytes",
          "name": "bytecode",
          "type": "bytes"
        },
        {
          "internalType": "bytes32",
          "name": "salt",
          "type": "bytes32"
        }
      ],
      "name": "deployContract2_",
      "outputs": [
        {
          "internalType": "address",
          "name": "addr",
          "type": "address"
        }
      ],
      "stateMutability": "nonpayable",
      "type": "function"
    },
    {
      "inputs": [
        {
          "internalType": "address",
          "name": "target",
          "type": "address"
        }
      ],
      "name": "setOwnTarget_",
      "outputs": [],
      "stateMutability": "nonpayable",
      "type": "function"
    },
    {
      "inputs": [],
      "name": "getOwnTarget_",
      "outputs": [
        {
          "internalType": "address",
          "name": "",
          "type": "address"
        }
      ],
      "stateMutability": "view",
      "type": "function"
    }
  ],
  "bytecode": "0x60806040523480156200001157600080fd5b5060405162001d2d38038062001d2d833981810160405260608110156200003757600080fd5b50805160208201516040909201519091908282826001600160a01b038316620000a7576040805162461bcd60e51b815260206004820152601c60248201527f4d756c74695369673a206f776e6572312063616e6e6f74206265203000000000604482015290519081900360640190fd5b6001600160a01b03821662000103576040805162461bcd60e51b815260206004820152601c60248201527f4d756c74695369673a206f776e6572322063616e6e6f74206265203000000000604482015290519081900360640190fd5b6001600160a01b0381166200015f576040805162461bcd60e51b815260206004820152601c60248201527f4d756c74695369673a206f776e6572332063616e6e6f74206265203000000000604482015290519081900360640190fd5b816001600160a01b0316836001600160a01b03161415620001b25760405162461bcd60e51b815260040180806020018281038252602181526020018062001ceb6021913960400191505060405180910390fd5b806001600160a01b0316826001600160a01b03161415620002055760405162461bcd60e51b815260040180806020018281038252602181526020018062001cca6021913960400191505060405180910390fd5b806001600160a01b0316836001600160a01b03161415620002585760405162461bcd60e51b815260040180806020018281038252602181526020018062001d0c6021913960400191505060405180910390fd5b6001600160a01b039283166000908152602081905260408082208054600160ff199182168117909255948616835281832080548616821790559290941681529283208054909216179055611a149350839250620002b69150396000f3fe6080604052600436106100b55760003560e01c80638d101cfa11610069578063e20056e61161004e578063e20056e6146106a1578063e84bc4de146106dc578063ea8a1af01461070f576100f2565b80638d101cfa1461063d5780638f32d59b14610678576100f2565b80632d7d90e71161009a5780632d7d90e714610530578063477d8c74146105455780635d2cf095146105f8576100f2565b806327dcc4ef146103c557806327e3bb9b1461045f576100f2565b366100f25760408051348152905133917f88a5966d370b9919b20f3e2c13ff65706f196a4e32cc2c12bf57088f88525874919081900360200190a2005b3480156100fe57600080fd5b503360009081526020819052604081205460ff16801561012957506001546001600160a01b03163314155b6101645760405162461bcd60e51b81526004018080602001828103825260308152602001806118bd6030913960400191505060405180910390fd5b60008036604051808383808284376040519201829003909120436004556002549095506001600160a01b0316151593506102119250505057600280546001600160a01b03191633179055600581905560038290556101c3600036610724565b604080518481526020810184905281516001600160e01b0319939093169233927feeb0bd41c2b0ff931f981a964047b0a1a26ab644f801be86da62c770313f724f928290030190a3506103c2565b6002546001600160a01b031633141561025b5760405162461bcd60e51b81526004018080602001828103825260268152602001806119b96026913960400191505060405180910390fd5b600354821461029b5760405162461bcd60e51b81526004018080602001828103825260228152602001806118ed6022913960400191505060405180910390fd5b60055481146102db5760405162461bcd60e51b81526004018080602001828103825260218152602001806119766021913960400191505060405180910390fd5b600280546001600160a01b03191690556102f6600036610724565b604080518481526020810184905281516001600160e01b0319939093169233927f0b5363f980745c7335c6e90cf3e542e8c9444d9fa5371ad688760cda3776539b928290030190a36006546001600160a01b031661039b576040805162461bcd60e51b815260206004820152601160248201527f57616c6c65743a206e6f20746172676574000000000000000000000000000000604482015290519081900360640190fd5b3660008037600080366000806006545af13d6000803e80156103bc573d6000f35b503d6000fd5b50005b3480156103d157600080fd5b50610442600480360360208110156103e857600080fd5b81019060208101813564010000000081111561040357600080fd5b82018360208201111561041557600080fd5b8035906020019184600183028401116401000000008311171561043757600080fd5b509092509050610724565b604080516001600160e01b03199092168252519081900360200190f35b34801561046b57600080fd5b506105146004803603604081101561048257600080fd5b81019060208101813564010000000081111561049d57600080fd5b8201836020820111156104af57600080fd5b803590602001918460018302840111640100000000831117156104d157600080fd5b91908080601f0160208091040260200160405190810160405280939291908181526020018383808284376000920191909152509295505091359250610828915050565b604080516001600160a01b039092168252519081900360200190f35b34801561053c57600080fd5b50610514610b18565b34801561055157600080fd5b506105146004803603602081101561056857600080fd5b81019060208101813564010000000081111561058357600080fd5b82018360208201111561059557600080fd5b803590602001918460018302840111640100000000831117156105b757600080fd5b91908080601f016020809104026020016040519081016040528093929190818152602001838380828437600092019190915250929550610b27945050505050565b34801561060457600080fd5b5061060d610e15565b604080516001600160a01b0390951685526020850193909352838301919091526060830152519081900360800190f35b34801561064957600080fd5b506106766004803603604081101561066057600080fd5b506001600160a01b038135169060200135610e30565b005b34801561068457600080fd5b5061068d6110ec565b604080519115158252519081900360200190f35b3480156106ad57600080fd5b50610676600480360360408110156106c457600080fd5b506001600160a01b0381358116916020013516611102565b3480156106e857600080fd5b50610676600480360360208110156106ff57600080fd5b50356001600160a01b0316611326565b34801561071b57600080fd5b50610676611587565b6000600482101561073757506000610822565b60188383600381811061074657fe5b909101357fff000000000000000000000000000000000000000000000000000000000000001690911c905060108484600281811061078057fe5b909101357fff000000000000000000000000000000000000000000000000000000000000001690911c90506008858560018181106107ba57fe5b909101357fff000000000000000000000000000000000000000000000000000000000000001690911c905085856000816107f057fe5b9050013560f81c60f81b7effffffffffffffffffffffffffffffffffffffffffffffffffffffffffffff191617171790505b92915050565b33600090815260208190526040812054819060ff16801561085457506001546001600160a01b03163314155b61088f5760405162461bcd60e51b81526004018080602001828103825260308152602001806118bd6030913960400191505060405180910390fd5b60008036604051808383808284376040519201829003909120436004556002549095506001600160a01b03161515935061093c9250505057600280546001600160a01b03191633179055600581905560038290556108ee600036610724565b604080518481526020810184905281516001600160e01b0319939093169233927feeb0bd41c2b0ff931f981a964047b0a1a26ab644f801be86da62c770313f724f928290030190a350610b11565b6002546001600160a01b03163314156109865760405162461bcd60e51b81526004018080602001828103825260268152602001806119b96026913960400191505060405180910390fd5b60035482146109c65760405162461bcd60e51b81526004018080602001828103825260228152602001806118ed6022913960400191505060405180910390fd5b6005548114610a065760405162461bcd60e51b81526004018080602001828103825260218152602001806119766021913960400191505060405180910390fd5b600280546001600160a01b0319169055610a21600036610724565b604080518481526020810184905281516001600160e01b0319939093169233927f0b5363f980745c7335c6e90cf3e542e8c9444d9fa5371ad688760cda3776539b928290030190a38451610abc576040805162461bcd60e51b815260206004820152601f60248201527f57616c6c65743a2062797465636f6465206c656e677468206973207a65726f00604482015290519081900360640190fd5b838551602087016000f59250823b610ad357600080fd5b604080516001600160a01b038516815290517f6b0b64cb715e4ac8b26124630e025cb11302d3a86c10a737be92f1c17b389c359181900360200190a1505b5092915050565b6006546001600160a01b031690565b33600090815260208190526040812054819060ff168015610b5357506001546001600160a01b03163314155b610b8e5760405162461bcd60e51b81526004018080602001828103825260308152602001806118bd6030913960400191505060405180910390fd5b60008036604051808383808284376040519201829003909120436004556002549095506001600160a01b031615159350610c3b9250505057600280546001600160a01b0319163317905560058190556003829055610bed600036610724565b604080518481526020810184905281516001600160e01b0319939093169233927feeb0bd41c2b0ff931f981a964047b0a1a26ab644f801be86da62c770313f724f928290030190a350610e0f565b6002546001600160a01b0316331415610c855760405162461bcd60e51b81526004018080602001828103825260268152602001806119b96026913960400191505060405180910390fd5b6003548214610cc55760405162461bcd60e51b81526004018080602001828103825260228152602001806118ed6022913960400191505060405180910390fd5b6005548114610d055760405162461bcd60e51b81526004018080602001828103825260218152602001806119766021913960400191505060405180910390fd5b600280546001600160a01b0319169055610d20600036610724565b604080518481526020810184905281516001600160e01b0319939093169233927f0b5363f980745c7335c6e90cf3e542e8c9444d9fa5371ad688760cda3776539b928290030190a38351610dbb576040805162461bcd60e51b815260206004820152601f60248201527f57616c6c65743a2062797465636f6465206c656e677468206973207a65726f00604482015290519081900360640190fd5b8351602085016000f09250823b610dd157600080fd5b604080516001600160a01b038516815290517f8ffcdc15a283d706d38281f500270d8b5a656918f555de0913d7455e3e6bc1bf9181900360200190a1505b50919050565b6002546003546004546005546001600160a01b039093169284565b3360009081526020819052604081205460ff168015610e5a57506001546001600160a01b03163314155b610e955760405162461bcd60e51b81526004018080602001828103825260308152602001806118bd6030913960400191505060405180910390fd5b60008036604051808383808284376040519201829003909120436004556002549095506001600160a01b031615159350610f429250505057600280546001600160a01b0319163317905560058190556003829055610ef4600036610724565b604080518481526020810184905281516001600160e01b0319939093169233927feeb0bd41c2b0ff931f981a964047b0a1a26ab644f801be86da62c770313f724f928290030190a3506110e7565b6002546001600160a01b0316331415610f8c5760405162461bcd60e51b81526004018080602001828103825260268152602001806119b96026913960400191505060405180910390fd5b6003548214610fcc5760405162461bcd60e51b81526004018080602001828103825260228152602001806118ed6022913960400191505060405180910390fd5b600554811461100c5760405162461bcd60e51b81526004018080602001828103825260218152602001806119766021913960400191505060405180910390fd5b600280546001600160a01b0319169055611027600036610724565b604080518481526020810184905281516001600160e01b0319939093169233927f0b5363f980745c7335c6e90cf3e542e8c9444d9fa5371ad688760cda3776539b928290030190a36040516001600160a01b0385169084156108fc029085906000818181858888f193505050501580156110a5573d6000803e3d6000fd5b506040805184815290516001600160a01b038616917f419013ffbfd3a7e95a13645088f1f9b8aff6057aaa2a840cc18ddbbec3d1677c919081900360200190a2505b505050565b3360009081526020819052604090205460ff1690565b6001600160a01b03821661115d576040805162461bcd60e51b815260206004820152601b60248201527f4d756c74695369673a206f776e65722063616e6e6f7420626520300000000000604482015290519081900360640190fd5b6001600160a01b0381166111b8576040805162461bcd60e51b815260206004820152601f60248201527f4d756c74695369673a206e6577204f776e65722063616e6e6f74206265203000604482015290519081900360640190fd5b6001600160a01b03821660009081526020819052604090205460ff16151560011461122a576040805162461bcd60e51b815260206004820152601a60248201527f4d756c74695369673a206f776e6572206d757374206578697374000000000000604482015290519081900360640190fd5b6001600160a01b0382163314156112725760405162461bcd60e51b815260040180806020018281038252602b81526020018061194b602b913960400191505060405180910390fd5b6001600160a01b03811660009081526020819052604090205460ff16156112ca5760405162461bcd60e51b81526004018080602001828103825260228152602001806119976022913960400191505060405180910390fd5b600180546001600160a01b0319166001600160a01b038481169182179092556040519183169133907f3f83b5e276aedb8b7501b6812a09510fd4f92e3db05921939f715fbb980c67f290600090a4611322828261167e565b5050565b3360009081526020819052604081205460ff16801561135057506001546001600160a01b03163314155b61138b5760405162461bcd60e51b81526004018080602001828103825260308152602001806118bd6030913960400191505060405180910390fd5b60008036604051808383808284376040519201829003909120436004556002549095506001600160a01b0316151593506114389250505057600280546001600160a01b03191633179055600581905560038290556113ea600036610724565b604080518481526020810184905281516001600160e01b0319939093169233927feeb0bd41c2b0ff931f981a964047b0a1a26ab644f801be86da62c770313f724f928290030190a350611322565b6002546001600160a01b03163314156114825760405162461bcd60e51b81526004018080602001828103825260268152602001806119b96026913960400191505060405180910390fd5b60035482146114c25760405162461bcd60e51b81526004018080602001828103825260228152602001806118ed6022913960400191505060405180910390fd5b60055481146115025760405162461bcd60e51b81526004018080602001828103825260218152602001806119766021913960400191505060405180910390fd5b600280546001600160a01b031916905561151d600036610724565b604080518481526020810184905281516001600160e01b0319939093169233927f0b5363f980745c7335c6e90cf3e542e8c9444d9fa5371ad688760cda3776539b928290030190a350600680546001600160a01b0384166001600160a01b03199091161790555050565b3360009081526020819052604090205460ff166115eb576040805162461bcd60e51b815260206004820181905260248201527f4d756c74695369673a206f6e6c79206f776e6572732063616e2063616e63656c604482015290519081900360640190fd5b6001546001600160a01b03163314156116355760405162461bcd60e51b815260040180806020018281038252603c81526020018061190f603c913960400191505060405180910390fd5b600280546001600160a01b031990811690915560018054909116905560405133907f30ec0961b65153901ed6dc5cfe8d736772c29b94b3024a497d0b3198dcbd317d90600090a2565b3360009081526020819052604081205460ff1680156116a857506001546001600160a01b03163314155b6116e35760405162461bcd60e51b81526004018080602001828103825260308152602001806118bd6030913960400191505060405180910390fd5b60008036604051808383808284376040519201829003909120436004556002549095506001600160a01b0316151593506117429250505057600280546001600160a01b0319163317905560058190556003829055610ef4600036610724565b6002546001600160a01b031633141561178c5760405162461bcd60e51b81526004018080602001828103825260268152602001806119b96026913960400191505060405180910390fd5b60035482146117cc5760405162461bcd60e51b81526004018080602001828103825260228152602001806118ed6022913960400191505060405180910390fd5b600554811461180c5760405162461bcd60e51b81526004018080602001828103825260218152602001806119766021913960400191505060405180910390fd5b600280546001600160a01b0319169055611827600036610724565b604080518481526020810184905281516001600160e01b0319939093169233927f0b5363f980745c7335c6e90cf3e542e8c9444d9fa5371ad688760cda3776539b928290030190a3506001600160a01b03808416600090815260208190526040808220805460ff19908116909155928516825290208054909116600190811790915580546001600160a01b031916905550505056fe4d756c74695369673a206f6e6c79206f776e657273207468617420617265206e6f74206265696e672072656d6f7665644d756c74695369673a206d757374207369676e207468652073616d652076616c75654d756c74695369673a206f6e6c79206f776e657273207468617420617265206e6f74206265696e67207265706c616365642063616e2063616e63656c4d756c74695369673a2073656e646572732063616e6e6f74207265706c616365207468656d73656c7665734d756c74695369673a206d757374207369676e207468652073616d6520646174614d756c74695369673a206e6577206f776e6572206d757374206e6f742065786973744d756c74695369673a2073616d65206f776e65722063616e6e6f74207369676e207477696365a26469706673582212200d5017298c24e08faea92d9151ca968c70e1d7278d4909e455c98ed7bcd4c7c064736f6c634300060c00334d756c74695369673a206f776e6572322063616e6e6f74206265206f776e6572334d756c74695369673a206f776e6572312063616e6e6f74206265206f776e6572324d756c74695369673a206f776e6572312063616e6e6f74206265206f776e657233",
  "immutableReferences": {},
  "source": "// SPDX-License-Identifier: GPL-3.0-or-later\n\npragma solidity 0.6.12;\n\nimport \"./MultiSig.sol\";\n\ncontract Wallet is MultiSig {\n    address s_target;\n\n    event Received(address indexed from, uint256 value);\n    event Transfered(address indexed to, uint256 value);\n    event ContractDeployed(address at);\n    event ContractDeployed2(address at);\n\n    constructor(address owner1, address owner2, address owner3)\n        MultiSig(owner1, owner2, owner3)\n        public\n    {\n    }\n\n    receive () external payable {\n        emit Received(msg.sender, msg.value);\n    }\n\n    fallback () external multiSig2of3(0) {\n        require(s_target != address(0), \"Wallet: no target\");\n\n        // solium-disable-next-line security/no-inline-assembly\n        assembly {\n            calldatacopy(0x00, 0x00, calldatasize())\n            let res := call(\n                gas(),\n                sload(s_target_slot),\n                0x00,\n                0x00,\n                calldatasize(),\n                0,\n                0\n            )\n            returndatacopy(0x00, 0x00, returndatasize())\n            if res { return(0x00, returndatasize()) }\n            revert(0x00, returndatasize())\n        }\n    }\n\n    function transferOwnEther_(address payable to, uint256 value) \n        external \n        multiSig2of3(0)\n    {\n        to.transfer(value);\n        emit Transfered(to, value);\n    }\n\n    function deployContract_(bytes memory bytecode) external multiSig2of3(0) returns (address addr) {\n        require(bytecode.length != 0, \"Wallet: bytecode length is zero\");\n        // solium-disable-next-line security/no-inline-assembly\n        assembly {\n            addr := create(0, add(bytecode, 0x20), mload(bytecode))\n            if iszero(extcodesize(addr)) { revert(0, 0) }\n        }\n        emit ContractDeployed(addr);\n    }\n\n    function deployContract2_(bytes memory bytecode, bytes32 salt) external multiSig2of3(0) returns (address addr) {\n        require(bytecode.length != 0, \"Wallet: bytecode length is zero\");\n        // solium-disable-next-line security/no-inline-assembly\n        assembly {\n            addr := create2(0, add(bytecode, 0x20), mload(bytecode), salt)\n            if iszero(extcodesize(addr)) { revert(0, 0) }\n        }\n        emit ContractDeployed2(addr);\n    }\n\n    function setOwnTarget_(address target) external multiSig2of3(0) {\n        s_target = target;\n    }\n\n    function getOwnTarget_() external view returns (address) {\n        return s_target;\n    }\n  \n}",
  "sourcePath": "/Users/tal/code/kirobo/ki-eth-token/contracts/Wallet.sol",
  "compiler": {
    "name": "solc",
    "version": "0.6.12+commit.27d51765.Emscripten.clang"
  },
  "schemaVersion": "3.4.1",
  "updatedAt": "2021-07-22T21:40:18.661Z",
  "devdoc": {
    "kind": "dev",
    "methods": {},
    "version": 1
  },
  "userdoc": {
    "kind": "user",
    "methods": {},
    "version": 1
  }
}